{
  "address": "0x01451EB9D8E252656c61eBa566843Eb8130e85EE",
  "abi": [
    {
      "inputs": [
        {
          "internalType": "address",
          "name": "_owner",
          "type": "address"
        },
        {
          "internalType": "address",
          "name": "_settler",
          "type": "address"
        },
        {
          "components": [
            {
              "internalType": "uint8",
              "name": "callOptionId",
              "type": "uint8"
            },
            {
              "internalType": "uint8",
              "name": "putOptionId",
              "type": "uint8"
            },
            {
              "internalType": "uint8",
              "name": "depositAssetAmountDecimals",
              "type": "uint8"
            },
            {
              "internalType": "uint8",
              "name": "counterPartyAssetAmountDecimals",
              "type": "uint8"
            },
            {
              "internalType": "address",
              "name": "depositAsset",
              "type": "address"
            },
            {
              "internalType": "address",
              "name": "counterPartyAsset",
              "type": "address"
            },
            {
              "internalType": "bool",
              "name": "manualDepositDisabled",
              "type": "bool"
            }
          ],
          "internalType": "struct StructureData.OptionPairDefinition[]",
          "name": "_optionPairDefinitions",
          "type": "tuple[]"
        }
      ],
      "stateMutability": "nonpayable",
      "type": "constructor"
    },
    {
      "anonymous": false,
      "inputs": [
        {
          "indexed": true,
          "internalType": "uint8",
          "name": "optionId",
          "type": "uint8"
        },
        {
          "indexed": true,
          "internalType": "address",
          "name": "account",
          "type": "address"
        },
        {
          "indexed": true,
          "internalType": "uint16",
          "name": "round",
          "type": "uint16"
        },
        {
          "indexed": false,
          "internalType": "uint256",
          "name": "amount",
          "type": "uint256"
        }
      ],
      "name": "Deposit",
      "type": "event"
    },
    {
      "anonymous": false,
      "inputs": [
        {
          "indexed": true,
          "internalType": "address",
          "name": "previousOwner",
          "type": "address"
        },
        {
          "indexed": true,
          "internalType": "address",
          "name": "newOwner",
          "type": "address"
        }
      ],
      "name": "OwnershipTransferred",
      "type": "event"
    },
    {
      "anonymous": false,
      "inputs": [
        {
          "indexed": true,
          "internalType": "address",
          "name": "previousSettler",
          "type": "address"
        },
        {
          "indexed": true,
          "internalType": "address",
          "name": "newSettler",
          "type": "address"
        }
      ],
      "name": "SettlerChanged",
      "type": "event"
    },
    {
      "anonymous": false,
      "inputs": [
        {
          "indexed": true,
          "internalType": "uint8",
          "name": "optionId",
          "type": "uint8"
        },
        {
          "indexed": true,
          "internalType": "address",
          "name": "account",
          "type": "address"
        },
        {
          "indexed": true,
          "internalType": "address",
          "name": "asset",
          "type": "address"
        },
        {
          "indexed": false,
          "internalType": "uint256",
          "name": "amount",
          "type": "uint256"
        }
      ],
      "name": "Withdraw",
      "type": "event"
    },
    {
      "inputs": [
        {
          "components": [
            {
              "internalType": "uint8",
              "name": "callOptionId",
              "type": "uint8"
            },
            {
              "internalType": "uint8",
              "name": "putOptionId",
              "type": "uint8"
            },
            {
              "internalType": "uint8",
              "name": "depositAssetAmountDecimals",
              "type": "uint8"
            },
            {
              "internalType": "uint8",
              "name": "counterPartyAssetAmountDecimals",
              "type": "uint8"
            },
            {
              "internalType": "address",
              "name": "depositAsset",
              "type": "address"
            },
            {
              "internalType": "address",
              "name": "counterPartyAsset",
              "type": "address"
            },
            {
              "internalType": "bool",
              "name": "manualDepositDisabled",
              "type": "bool"
            }
          ],
          "internalType": "struct StructureData.OptionPairDefinition[]",
          "name": "_optionPairDefinitions",
          "type": "tuple[]"
        }
      ],
      "name": "addOptionPairs",
      "outputs": [],
      "stateMutability": "nonpayable",
      "type": "function"
    },
    {
      "inputs": [
        {
          "internalType": "address",
          "name": "_asset",
          "type": "address"
        }
      ],
      "name": "balanceEnough",
      "outputs": [
        {
          "internalType": "bool",
          "name": "",
          "type": "bool"
        }
      ],
      "stateMutability": "view",
      "type": "function"
    },
    {
      "inputs": [
        {
          "internalType": "address",
          "name": "_trader",
          "type": "address"
        },
        {
          "internalType": "address[]",
          "name": "_assets",
          "type": "address[]"
        }
      ],
      "name": "batchWithdrawAssets",
      "outputs": [],
      "stateMutability": "nonpayable",
      "type": "function"
    },
    {
      "inputs": [
        {
          "internalType": "uint8",
          "name": "_optionId",
          "type": "uint8"
        },
        {
          "internalType": "uint256",
          "name": "_assetToTerminate",
          "type": "uint256"
        }
      ],
      "name": "cancelWithdraw",
      "outputs": [],
      "stateMutability": "nonpayable",
      "type": "function"
    },
    {
      "inputs": [],
      "name": "currentRound",
      "outputs": [
        {
          "internalType": "uint16",
          "name": "",
          "type": "uint16"
        }
      ],
      "stateMutability": "view",
      "type": "function"
    },
    {
      "inputs": [
        {
          "internalType": "uint8",
          "name": "_optionId",
          "type": "uint8"
        },
        {
          "internalType": "uint256",
          "name": "_amount",
          "type": "uint256"
        }
      ],
      "name": "deposit",
      "outputs": [],
      "stateMutability": "nonpayable",
      "type": "function"
    },
    {
      "inputs": [
        {
          "internalType": "uint8",
          "name": "_optionId",
          "type": "uint8"
        }
      ],
      "name": "depositETH",
      "outputs": [],
      "stateMutability": "payable",
      "type": "function"
    },
    {
      "inputs": [
        {
          "internalType": "uint8",
          "name": "",
          "type": "uint8"
        }
      ],
      "name": "executionAccountingResult",
      "outputs": [
        {
          "components": [
            {
              "internalType": "uint128",
              "name": "depositAmount",
              "type": "uint128"
            },
            {
              "internalType": "uint128",
              "name": "autoRollAmount",
              "type": "uint128"
            },
            {
              "internalType": "uint128",
              "name": "autoRollPremium",
              "type": "uint128"
            },
            {
              "internalType": "uint128",
              "name": "releasedAmount",
              "type": "uint128"
            },
            {
              "internalType": "uint128",
              "name": "releasedPremium",
              "type": "uint128"
            },
            {
              "internalType": "uint128",
              "name": "autoRollCounterPartyAmount",
              "type": "uint128"
            },
            {
              "internalType": "uint128",
              "name": "autoRollCounterPartyPremium",
              "type": "uint128"
            },
            {
              "internalType": "uint128",
              "name": "releasedCounterPartyAmount",
              "type": "uint128"
            },
            {
              "internalType": "uint128",
              "name": "releasedCounterPartyPremium",
              "type": "uint128"
            },
            {
              "internalType": "bool",
              "name": "executed",
              "type": "bool"
            }
          ],
          "internalType": "struct StructureData.SettlementAccountingResult",
          "name": "callOptionResult",
          "type": "tuple"
        },
        {
          "components": [
            {
              "internalType": "uint128",
              "name": "depositAmount",
              "type": "uint128"
            },
            {
              "internalType": "uint128",
              "name": "autoRollAmount",
              "type": "uint128"
            },
            {
              "internalType": "uint128",
              "name": "autoRollPremium",
              "type": "uint128"
            },
            {
              "internalType": "uint128",
              "name": "releasedAmount",
              "type": "uint128"
            },
            {
              "internalType": "uint128",
              "name": "releasedPremium",
              "type": "uint128"
            },
            {
              "internalType": "uint128",
              "name": "autoRollCounterPartyAmount",
              "type": "uint128"
            },
            {
              "internalType": "uint128",
              "name": "autoRollCounterPartyPremium",
              "type": "uint128"
            },
            {
              "internalType": "uint128",
              "name": "releasedCounterPartyAmount",
              "type": "uint128"
            },
            {
              "internalType": "uint128",
              "name": "releasedCounterPartyPremium",
              "type": "uint128"
            },
            {
              "internalType": "bool",
              "name": "executed",
              "type": "bool"
            }
          ],
          "internalType": "struct StructureData.SettlementAccountingResult",
          "name": "putOptionResult",
          "type": "tuple"
        },
        {
          "internalType": "enum StructureData.OptionExecution",
          "name": "execute",
          "type": "uint8"
        }
      ],
      "stateMutability": "view",
      "type": "function"
    },
    {
      "inputs": [
        {
          "internalType": "uint8",
          "name": "_optionId",
          "type": "uint8"
        }
      ],
      "name": "getAccountBalance",
      "outputs": [
        {
          "components": [
            {
              "internalType": "uint128",
              "name": "pendingDepositAssetAmount",
              "type": "uint128"
            },
            {
              "internalType": "uint128",
              "name": "lockedDepositAssetAmount",
              "type": "uint128"
            },
            {
              "internalType": "uint128",
              "name": "terminatingDepositAssetAmount",
              "type": "uint128"
            },
            {
              "internalType": "uint128",
              "name": "toTerminateDepositAssetAmount",
              "type": "uint128"
            },
            {
              "internalType": "uint128",
              "name": "releasedDepositAssetAmount",
              "type": "uint128"
            },
            {
              "internalType": "uint128",
              "name": "releasedCounterPartyAssetAmount",
              "type": "uint128"
            }
          ],
          "internalType": "struct StructureData.UserBalance",
          "name": "",
          "type": "tuple"
        }
      ],
      "stateMutability": "view",
      "type": "function"
    },
    {
      "inputs": [
        {
          "internalType": "uint8",
          "name": "_optionId",
          "type": "uint8"
        }
      ],
      "name": "getOptionSnapShot",
      "outputs": [
        {
          "components": [
            {
              "internalType": "uint128",
              "name": "totalPending",
              "type": "uint128"
            },
            {
              "internalType": "uint128",
              "name": "totalLocked",
              "type": "uint128"
            },
            {
              "internalType": "uint128",
              "name": "totalTerminating",
              "type": "uint128"
            },
            {
              "internalType": "uint128",
              "name": "totalToTerminate",
              "type": "uint128"
            },
            {
              "internalType": "uint128",
              "name": "totalReleasedDeposit",
              "type": "uint128"
            },
            {
              "internalType": "uint128",
              "name": "totalReleasedCounterParty",
              "type": "uint128"
            }
          ],
          "internalType": "struct StructureData.OptionSnapshot",
          "name": "",
          "type": "tuple"
        }
      ],
      "stateMutability": "view",
      "type": "function"
    },
    {
      "inputs": [
        {
          "internalType": "uint8",
          "name": "_optionId",
          "type": "uint8"
        },
        {
          "internalType": "uint16",
          "name": "_round",
          "type": "uint16"
        }
      ],
      "name": "getOptionStateByRound",
      "outputs": [
        {
          "components": [
            {
              "internalType": "uint128",
              "name": "totalAmount",
              "type": "uint128"
            },
            {
              "internalType": "uint128",
              "name": "totalTerminate",
              "type": "uint128"
            },
            {
              "internalType": "uint128",
              "name": "strikePrice",
              "type": "uint128"
            },
            {
              "internalType": "uint16",
              "name": "round",
              "type": "uint16"
            },
            {
              "internalType": "uint16",
              "name": "premiumRate",
              "type": "uint16"
            },
            {
              "internalType": "bool",
              "name": "executed",
              "type": "bool"
            },
            {
              "internalType": "bool",
              "name": "callOrPut",
              "type": "bool"
            }
          ],
          "internalType": "struct StructureData.OptionState",
          "name": "",
          "type": "tuple"
        }
      ],
      "stateMutability": "view",
      "type": "function"
    },
    {
      "inputs": [],
      "name": "initiateSettlement",
      "outputs": [],
      "stateMutability": "nonpayable",
      "type": "function"
    },
    {
      "inputs": [
        {
          "internalType": "uint8",
          "name": "_optionId",
          "type": "uint8"
        },
        {
          "internalType": "uint256",
          "name": "_assetToTerminate",
          "type": "uint256"
        }
      ],
      "name": "initiateWithraw",
      "outputs": [],
      "stateMutability": "nonpayable",
      "type": "function"
    },
    {
      "inputs": [],
      "name": "optionPairCount",
      "outputs": [
        {
          "internalType": "uint8",
          "name": "",
          "type": "uint8"
        }
      ],
      "stateMutability": "view",
      "type": "function"
    },
    {
      "inputs": [
        {
          "internalType": "uint8",
          "name": "",
          "type": "uint8"
        }
      ],
      "name": "optionPairs",
      "outputs": [
        {
          "internalType": "uint8",
          "name": "callOptionId",
          "type": "uint8"
        },
        {
          "internalType": "uint8",
          "name": "putOptionId",
          "type": "uint8"
        },
        {
          "internalType": "uint8",
          "name": "depositAssetAmountDecimals",
          "type": "uint8"
        },
        {
          "internalType": "uint8",
          "name": "counterPartyAssetAmountDecimals",
          "type": "uint8"
        },
        {
          "internalType": "address",
          "name": "depositAsset",
          "type": "address"
        },
        {
          "internalType": "address",
          "name": "counterPartyAsset",
          "type": "address"
        },
        {
          "internalType": "bool",
          "name": "manualDepositDisabled",
          "type": "bool"
        }
      ],
      "stateMutability": "view",
      "type": "function"
    },
    {
      "inputs": [],
      "name": "owner",
      "outputs": [
        {
          "internalType": "address",
          "name": "",
          "type": "address"
        }
      ],
      "stateMutability": "view",
      "type": "function"
    },
    {
      "inputs": [],
      "name": "renounceOwnership",
      "outputs": [],
      "stateMutability": "nonpayable",
      "type": "function"
    },
    {
      "inputs": [
        {
          "internalType": "uint256[]",
          "name": "_parameters",
          "type": "uint256[]"
        }
      ],
      "name": "setOptionParameters",
      "outputs": [],
      "stateMutability": "nonpayable",
      "type": "function"
    },
    {
      "inputs": [
        {
          "internalType": "address",
          "name": "_settler",
          "type": "address"
        }
      ],
      "name": "setSettler",
      "outputs": [],
      "stateMutability": "nonpayable",
      "type": "function"
    },
    {
      "inputs": [
        {
          "internalType": "enum StructureData.OptionExecution[]",
          "name": "_execution",
          "type": "uint8[]"
        }
      ],
      "name": "settle",
      "outputs": [],
      "stateMutability": "nonpayable",
      "type": "function"
    },
    {
      "inputs": [
        {
          "internalType": "address",
          "name": "",
          "type": "address"
        }
      ],
      "name": "settlementCashflowResult",
      "outputs": [
        {
          "internalType": "uint128",
          "name": "newDepositAmount",
          "type": "uint128"
        },
        {
          "internalType": "uint128",
          "name": "newReleasedAmount",
          "type": "uint128"
        },
        {
          "internalType": "int128",
          "name": "leftOverAmount",
          "type": "int128"
        },
        {
          "internalType": "address",
          "name": "contractAddress",
          "type": "address"
        }
      ],
      "stateMutability": "view",
      "type": "function"
    },
    {
      "inputs": [
        {
          "internalType": "uint8",
          "name": "_pairId",
          "type": "uint8"
        }
      ],
      "name": "toggleOptionPairDeposit",
      "outputs": [],
      "stateMutability": "nonpayable",
      "type": "function"
    },
    {
      "inputs": [
        {
          "internalType": "address",
          "name": "newOwner",
          "type": "address"
        }
      ],
      "name": "transferOwnership",
      "outputs": [],
      "stateMutability": "nonpayable",
      "type": "function"
    },
    {
      "inputs": [],
      "name": "underSettlement",
      "outputs": [
        {
          "internalType": "bool",
          "name": "",
          "type": "bool"
        }
      ],
      "stateMutability": "view",
      "type": "function"
    },
    {
      "inputs": [
        {
          "internalType": "uint8",
          "name": "_optionId",
          "type": "uint8"
        },
        {
          "internalType": "uint256",
          "name": "_amount",
          "type": "uint256"
        },
        {
          "internalType": "address",
          "name": "_asset",
          "type": "address"
        }
      ],
      "name": "withdraw",
      "outputs": [],
      "stateMutability": "nonpayable",
      "type": "function"
    },
    {
      "inputs": [
        {
          "internalType": "address",
          "name": "_trader",
          "type": "address"
        },
        {
          "internalType": "address",
          "name": "_asset",
          "type": "address"
        }
      ],
      "name": "withdrawAsset",
      "outputs": [],
      "stateMutability": "nonpayable",
      "type": "function"
    },
    {
      "stateMutability": "payable",
      "type": "receive"
    }
  ],
  "transactionHash": "0xd0c84b77850c4e70384b0daddbe2632fb7c4b70db7b727d41c3f1aac538a9617",
  "args": [
    "0xf9C2085C9601dd5D4F06762F94C31D0F8c419329",
    "0x0B1983a488Bcad8f16AaDa89BEd47CdCa4eECB42",
    [
      {
        "depositAssetAmountDecimals": 18,
        "counterPartyAssetAmountDecimals": 6,
        "depositAsset": "0x0000000000000000000000000000000000000000",
        "counterPartyAsset": "0x0f3210636461Ae2C7ADAEF4d1A8124EB0F3b63fA",
        "callOptionId": 0,
        "putOptionId": 0
      },
      {
        "depositAssetAmountDecimals": 8,
        "counterPartyAssetAmountDecimals": 6,
        "depositAsset": "0xE75e6098CE2d7F289b07ABB055321d690ed2912d",
        "counterPartyAsset": "0x0f3210636461Ae2C7ADAEF4d1A8124EB0F3b63fA",
        "callOptionId": 0,
        "putOptionId": 0
      }
    ]
  ],
  "solcInputHash": "a05c4685dbb8bcf114294af328cfb7e9",
  "bytecode": "0x608060405260006002553480156200001657600080fd5b50604051620058ed380380620058ed833981016040819052620000399162000596565b6200004433620000a6565b6001600160a01b0383166200005857600080fd5b6001600160a01b0382166200006c57600080fd5b6200007783620000f6565b600180546001600160a01b0319166001600160a01b0384161790556200009d81620001cb565b5050506200082d565b600080546001600160a01b038381166001600160a01b0319831681178455604051919092169283917f8be0079c531659141344cd1fd0a4f28419497f9722a3daafe3b4186f6b6457e09190a35050565b6000546001600160a01b03163314620001565760405162461bcd60e51b815260206004820181905260248201527f4f776e61626c653a2063616c6c6572206973206e6f7420746865206f776e657260448201526064015b60405180910390fd5b6001600160a01b038116620001bd5760405162461bcd60e51b815260206004820152602660248201527f4f776e61626c653a206e6577206f776e657220697320746865207a65726f206160448201526564647265737360d01b60648201526084016200014d565b620001c881620000a6565b50565b80516000805460ff600160b81b8204811692600160c01b90920416905b83811015620005305760008582815181106200021457634e487b7160e01b600052603260045260246000fd5b602002602001015190508360026200022d919062000794565b6200023a9060016200076c565b60ff168082526200024d9060016200076c565b60ff1660208201528060046000866200026681620007de565b60ff91821683526020808401949094526040928301600020855181549587015194870151606088015160808901516001600160a01b0390811664010000000002600160201b600160c01b031992881663010000000263ff0000001994891662010000029490941663ffff0000199989166101000261ffff19909b1695891695909517999099179790971692909217171694909417845560a08501516001909401805460c0909601511515600160a01b026001600160a81b0319909616949093169390931793909317905594508316620003de57608081015160076000856200034e81620007de565b965060ff1660ff16815260200190815260200160002060006101000a8154816001600160a01b0302191690836001600160a01b031602179055508060a001516007600085806200039e90620007de565b965060ff1660ff16815260200190815260200160002060006101000a8154816001600160a01b0302191690836001600160a01b031602179055506200051a565b60008060005b8560ff168160ff1610156200046a57608084015160ff82166000908152600760205260409020546001600160a01b03908116911614156200042457600192505b60a084015160ff82166000908152600760205260409020546001600160a01b03908116911614156200045557600191505b806200046181620007de565b915050620003e4565b5081620004c157608083015160076000876200048681620007de565b985060ff1660ff16815260200190815260200160002060006101000a8154816001600160a01b0302191690836001600160a01b031602179055505b80620005175760a08301516007600087620004dc81620007de565b985060ff1660ff16815260200190815260200160002060006101000a8154816001600160a01b0302191690836001600160a01b031602179055505b50505b50806200052781620007c0565b915050620001e8565b506000805461ffff60b81b1916600160b81b60ff9485160260ff60c01b191617600160c01b92909316919091029190911790555050565b80516001600160a01b03811681146200057f57600080fd5b919050565b805160ff811681146200057f57600080fd5b60008060006060808587031215620005ac578384fd5b620005b78562000567565b93506020620005c881870162000567565b604087810151919550906001600160401b0380821115620005e7578586fd5b818901915089601f830112620005fb578586fd5b81518181111562000610576200061062000817565b62000620858260051b0162000739565b818152858101925083860160e0808402860188018e10156200064057898afd5b8995505b83861015620006fb5780828f0312156200065c57898afd5b620006666200070e565b620006718362000584565b81526200068089840162000584565b898201526200069188840162000584565b88820152620006a28a840162000584565b8a8201526080620006b581850162000567565b9082015260a0620006c884820162000567565b9082015260c0838101518015158114620006e0578c8dfd5b90820152855260019590950194938701939081019062000644565b5050809750505050505050509250925092565b60405160e081016001600160401b038111828210171562000733576200073362000817565b60405290565b604051601f8201601f191681016001600160401b038111828210171562000764576200076462000817565b604052919050565b600060ff821660ff84168060ff038211156200078c576200078c62000801565b019392505050565b600060ff821660ff84168160ff0481118215151615620007b857620007b862000801565b029392505050565b6000600019821415620007d757620007d762000801565b5060010190565b600060ff821660ff811415620007f857620007f862000801565b60010192915050565b634e487b7160e01b600052601160045260246000fd5b634e487b7160e01b600052604160045260246000fd5b6150b0806200083d6000396000f3fe6080604052600436106101855760003560e01c8063644d41ed116100d15780638a19c8bc1161008a578063c78b432e11610064578063c78b432e14610abb578063ddd0247514610ad0578063f2fde38b14610b03578063f4d4c9d714610b2357600080fd5b80638a19c8bc146108f55780638da5cb5b1461092a578063c5cfc5be1461095257600080fd5b8063644d41ed146107ba5780636b37e4e3146107da5780637101868214610807578063715018a6146108275780637332655b1461083c57806383eb772e1461085c57600080fd5b806332b76e861161013e57806355bf621f1161011857806355bf621f146106975780635d3e0e4d146106b75780635edae4db146106d75780636386bcc4146106f757600080fd5b806332b76e861461025c5780634dd96f861461027c57806351fe669e1461029c57600080fd5b806302c178d7146101915780630748248f146101b357806307f19eba146101e9578063222f6b8314610209578063256d43d71461022957806326b516991461023c57600080fd5b3661018c57005b600080fd5b34801561019d57600080fd5b506101b16101ac36600461443a565b610b43565b005b3480156101bf57600080fd5b506000546101d490600160b01b900460ff1681565b60405190151581526020015b60405180910390f35b3480156101f557600080fd5b506101b1610204366004614420565b610c96565b34801561021557600080fd5b506101b1610224366004614983565b610ccc565b6101b161023736600461492d565b610d82565b34801561024857600080fd5b506101b161025736600461446c565b610fa5565b34801561026857600080fd5b506101b161027736600461451e565b61118f565b34801561028857600080fd5b506101b16102973660046146d8565b611937565b3480156102a857600080fd5b506106886102b736600461492d565b600560205280600052604060002060009150905080600001604051806101400160405290816000820160009054906101000a90046001600160801b03166001600160801b03166001600160801b031681526020016000820160109054906101000a90046001600160801b03166001600160801b03166001600160801b031681526020016001820160009054906101000a90046001600160801b03166001600160801b03166001600160801b031681526020016001820160109054906101000a90046001600160801b03166001600160801b03166001600160801b031681526020016002820160009054906101000a90046001600160801b03166001600160801b03166001600160801b031681526020016002820160109054906101000a90046001600160801b03166001600160801b03166001600160801b031681526020016003820160009054906101000a90046001600160801b03166001600160801b03166001600160801b031681526020016003820160109054906101000a90046001600160801b03166001600160801b03166001600160801b031681526020016004820160009054906101000a90046001600160801b03166001600160801b03166001600160801b031681526020016004820160109054906101000a900460ff1615151515815250509080600501604051806101400160405290816000820160009054906101000a90046001600160801b03166001600160801b03166001600160801b031681526020016000820160109054906101000a90046001600160801b03166001600160801b03166001600160801b031681526020016001820160009054906101000a90046001600160801b03166001600160801b03166001600160801b031681526020016001820160109054906101000a90046001600160801b03166001600160801b03166001600160801b031681526020016002820160009054906101000a90046001600160801b03166001600160801b03166001600160801b031681526020016002820160109054906101000a90046001600160801b03166001600160801b03166001600160801b031681526020016003820160009054906101000a90046001600160801b03166001600160801b03166001600160801b031681526020016003820160109054906101000a90046001600160801b03166001600160801b03166001600160801b031681526020016004820160009054906101000a90046001600160801b03166001600160801b03166001600160801b031681526020016004820160109054906101000a900460ff1615151515815250509080600a0160009054906101000a900460ff16905083565b6040516101e093929190614c5f565b3480156106a357600080fd5b506101b16106b23660046149ac565b611add565b3480156106c357600080fd5b506101b16106d236600461492d565b611c8c565b3480156106e357600080fd5b506101b16106f23660046145bd565b611cec565b34801561070357600080fd5b5061076c61071236600461492d565b6004602052600090815260409020805460019091015460ff808316926101008104821692620100008204831692630100000083048116926001600160a01b03600160201b90910481169290811691600160a01b9091041687565b6040805160ff98891681529688166020880152948716948601949094529490911660608401526001600160a01b03908116608084015290921660a082015290151560c082015260e0016101e0565b3480156107c657600080fd5b506101d46107d5366004614420565b611d1f565b3480156107e657600080fd5b506107fa6107f536600461492d565b611e15565b6040516101e09190614c07565b34801561081357600080fd5b506107fa61082236600461492d565b611f09565b34801561083357600080fd5b506101b1611fb1565b34801561084857600080fd5b506101b1610857366004614983565b611fe7565b34801561086857600080fd5b506108b8610877366004614420565b6003602052600090815260409020805460018201546002909201546001600160801b0380831693600160801b9093041691600f0b906001600160a01b031684565b604080516001600160801b039586168152949093166020850152600f9190910b918301919091526001600160a01b031660608201526080016101e0565b34801561090157600080fd5b5060005461091790600160a01b900461ffff1681565b60405161ffff90911681526020016101e0565b34801561093657600080fd5b506000546040516001600160a01b0390911681526020016101e0565b34801561095e57600080fd5b50610a4861096d366004614947565b6040805160e081018252600080825260208201819052918101829052606081018290526080810182905260a0810182905260c08101919091525060ff808316600090815260066020908152604080832061ffff80871685526002909101835292819020815160e08101835281546001600160801b038082168352600160801b9182900481169583019590955260019092015493841692810192909252820483166060820152600160901b82049092166080830152600160a01b81048316151560a0830152600160a81b9004909116151560c082015292915050565b6040516101e09190600060e0820190506001600160801b0380845116835280602085015116602084015280604085015116604084015250606083015161ffff8082166060850152806080860151166080850152505060a0830151151560a083015260c0830151151560c083015292915050565b348015610ac757600080fd5b506101b161206d565b348015610adc57600080fd5b50600054610af190600160b81b900460ff1681565b60405160ff90911681526020016101e0565b348015610b0f57600080fd5b506101b1610b1e366004614420565b612d2a565b348015610b2f57600080fd5b506101b1610b3e366004614983565b612dc2565b60025415610b6c5760405162461bcd60e51b8152600401610b6390614b7e565b60405180910390fd5b60016002819055546001600160a01b03163314610b9b5760405162461bcd60e51b8152600401610b6390614b27565b6001600160a01b038116600090815260086020526040812060018101549091600f91820b90910b13610bcc57600080fd5b6001810154604051631a4ca37b60e21b81526001600160a01b0380861660048301526001600160801b03600f9390930b92831660248301528416604482015273e13f771d639acf82c70abe8c0c712682763aac67906369328dec9060640160006040518083038186803b158015610c4257600080fd5b505af4158015610c56573d6000803e3d6000fd5b505050600280840180546001600160801b03948516600160801b0294169390931790925550600190910180546001600160801b0319169055600090555050565b6000546001600160a01b03163314610cc05760405162461bcd60e51b8152600401610b6390614b49565b610cc981612ff9565b50565b610cd58261304b565b60ff82811660009081526006602052604080822091549051638a229a5760e01b8152600481019290925233602483015260448201849052600160b01b810490921615156064820152600160a01b90910461ffff16608482015273e13f771d639acf82c70abe8c0c712682763aac6790638a229a579060a4015b60006040518083038186803b158015610d6657600080fd5b505af4158015610d7a573d6000803e3d6000fd5b505050505050565b600054600160a01b900461ffff16610dc75760405162461bcd60e51b81526020600482015260086024820152670854dd185c9d195960c21b6044820152606401610b63565b60003411610e025760405162461bcd60e51b81526020600482015260086024820152676e6f2076616c756560c01b6044820152606401610b63565b610e0b8161304b565b60006004816002610e1d600186614f66565b610e279190614e34565b60ff908116825260208201929092526040016000206001810154909250600160a01b90041615610e8b5760405162461bcd60e51b815260206004820152600f60248201526e11195c1bdcda5d111a5cd8589b1959608a1b6044820152606401610b63565b805460009060ff848116911614610eaf5760018201546001600160a01b0316610ec2565b8154600160201b90046001600160a01b03165b90506001600160a01b03811615610ed857600080fd5b60ff83166000908152600660205260408082208254915163c502f99160e01b815273e13f771d639acf82c70abe8c0c712682763aac679363c502f99193610f389392339234929091600160a01b90910461ffff1690600190600401614b9e565b60006040518083038186803b158015610f5057600080fd5b505af4158015610f64573d6000803e3d6000fd5b5050600054604051348152600160a01b90910461ffff16925033915060ff86169060008051602061505b8339815191529060200160405180910390a4505050565b60025415610fc55760405162461bcd60e51b8152600401610b6390614b7e565b60016002819055546001600160a01b03163314610ff45760405162461bcd60e51b8152600401610b6390614b27565b805160005b818110156111845760006008600085848151811061102757634e487b7160e01b600052603260045260246000fd5b60200260200101516001600160a01b03166001600160a01b03168152602001908152602001600020905060008160010160009054906101000a9004600f0b600f0b1361107257600080fd5b60008160010160009054906101000a9004600f0b905073e13f771d639acf82c70abe8c0c712682763aac676369328dec87836001600160801b03168887815181106110cd57634e487b7160e01b600052603260045260246000fd5b60200260200101516040518463ffffffff1660e01b8152600401611111939291906001600160a01b0393841681526020810192909252909116604082015260600190565b60006040518083038186803b15801561112957600080fd5b505af415801561113d573d6000803e3d6000fd5b5050506002830180546001600160801b03938416600160801b029316929092179091555060010180546001600160801b03191690558061117c81614fb5565b915050610ff9565b505060006002555050565b6001546001600160a01b031633146111b95760405162461bcd60e51b8152600401610b6390614b27565b600054600160b01b900460ff166111cf57600080fd5b8051600054600160b81b900460ff1681146111e957600080fd5b6000805461120490600190600160a01b900461ffff16614f2c565b905060005b828160ff16101561191c576000848260ff168151811061123957634e487b7160e01b600052603260045260246000fd5b60209081029190910181015160ff80851660009081526004845260408082208054808516845260068752828420610100918290049095168452828420835161018081018552858152978801859052928701849052606087018490526080870184905260a0870184905260c0870184905260e0870184905286018390526101208601839052610140860183905261016086019290925292945092909190600060028401816112e760018b614f2c565b61ffff168152602081019190915260400160002080549091506001600160801b03161561158157845473e13f771d639acf82c70abe8c0c712682763aac679063aab69633908690849060019060ff6201000082048116916301000000900416828d600281111561136757634e487b7160e01b600052602160045260246000fd5b6040516001600160e01b031960e08a901b16815260048101979097526024870195909552921515604486015260ff91821660648601521660848401521460a482015260c4016101806040518083038186803b1580156113c557600080fd5b505af41580156113d9573d6000803e3d6000fd5b505050506040513d601f19601f820116820180604052508101906113fd919061477b565b80519092501561148d576040828101518654600160201b90046001600160a01b031660009081526008602052919091205461144a91611445916001600160801b031690613083565b613096565b8554600160201b90046001600160a01b0316600090815260086020526040902080546001600160801b0319166001600160801b039290921691909117905561150b565b60608201511561150b5760a082015160018601546001600160a01b03166000908152600860205260409020546114d091611445916001600160801b031690613083565b60018601546001600160a01b0316600090815260086020526040902080546001600160801b0319166001600160801b03929092169190911790555b600186600281111561152d57634e487b7160e01b600052602160045260246000fd5b14156115605761155b8482858860000160019054906101000a900460ff168660a00151876101600151613103565b611581565b8454604083015161010084015161158192879260ff9091169185919061343e565b6000600284018161159360018c614f2c565b61ffff168152602081019190915260400160002080549091506001600160801b03161561182857855473e13f771d639acf82c70abe8c0c712682763aac679063aab69633908690849060009060ff630100000082048116916201000090041660028e600281111561161457634e487b7160e01b600052602160045260246000fd5b6040516001600160e01b031960e08a901b16815260048101979097526024870195909552921515604486015260ff91821660648601521660848401521460a482015260c4016101806040518083038186803b15801561167257600080fd5b505af4158015611686573d6000803e3d6000fd5b505050506040513d601f19601f820116820180604052508101906116aa919061477b565b80519093501561172d5760408084015160018801546001600160a01b03166000908152600860205291909120546116ee91611445916001600160801b031690613083565b60018701546001600160a01b0316600090815260086020526040902080546001600160801b0319166001600160801b03929092169190911790556117b3565b6060830151156117b35760a08301518654600160201b90046001600160a01b031660009081526008602052604090205461177491611445916001600160801b031690613083565b8654600160201b90046001600160a01b0316600090815260086020526040902080546001600160801b0319166001600160801b03929092169190911790555b60028760028111156117d557634e487b7160e01b600052602160045260246000fd5b141561180157855460a08401516101608501516117fc92879285928a9260ff169190613103565b611828565b611828848760000160019054906101000a900460ff1683866040015187610100015161343e565b6040516366aef26360e01b81526004810186905261ffff8a16602482015273e13f771d639acf82c70abe8c0c712682763aac67906366aef2639060440160006040518083038186803b15801561187d57600080fd5b505af4158015611891573d6000803e3d6000fd5b50506040516366aef26360e01b81526004810187905261ffff8c16602482015273e13f771d639acf82c70abe8c0c712682763aac6792506366aef263915060440160006040518083038186803b1580156118ea57600080fd5b505af41580156118fe573d6000803e3d6000fd5b5050505050505050505050808061191490614fd0565b915050611209565b506119256136a0565b50506000805460ff60b01b1916905550565b6001546001600160a01b031633146119615760405162461bcd60e51b8152600401610b6390614b27565b8051600054600160b01b900460ff161561197a57600080fd5b6000546001600160a01b90910461ffff161161199557600080fd5b6000546119ad90600160b81b900460ff166002614e75565b60ff1681146119bb57600080fd5b60005b818160ff161015611ad8576000838260ff16815181106119ee57634e487b7160e01b600052603260045260246000fd5b60200260200101519050600060066000846001611a0b9190614dfb565b60ff1660ff16815260200190815260200160002060020160006001600060149054906101000a900461ffff16611a419190614f2c565b61ffff16815260208101919091526040908101600020905163338dfe2f60e21b8152600481018490526024810182905290915073e13f771d639acf82c70abe8c0c712682763aac679063ce37f8bc9060440160006040518083038186803b158015611aab57600080fd5b505af4158015611abf573d6000803e3d6000fd5b5050505050508080611ad090614fd0565b9150506119be565b505050565b611ae68361304b565b60006004816002611af8600188614f66565b611b029190614e34565b60ff90811682526020808301939093526040918201600090812088831680835260069095529281209054835493955073e13f771d639acf82c70abe8c0c712682763aac6794637441e8bb94929333938a93600160a01b900461ffff16929116148015611b81575086546001600160a01b03898116600160201b90920416145b80611bb15750865460ff8b811661010090920416148015611bb1575060018701546001600160a01b038981169116145b6040516001600160e01b031960e088901b16815260048101959095526001600160a01b039093166024850152604484019190915261ffff1660648301521515608482015260a40160006040518083038186803b158015611c1057600080fd5b505af4158015611c24573d6000803e3d6000fd5b50505050611c35338484600061392b565b816001600160a01b0316336001600160a01b03168560ff167f9ac0ff79dc491174b021e6532a2fc734e82751bba8672e9183a76cb994a5f65a86604051611c7e91815260200190565b60405180910390a450505050565b6001546001600160a01b03163314611cb65760405162461bcd60e51b8152600401610b6390614b27565b60ff9081166000908152600460205260409020600101805460ff60a01b198116600160a01b918290049093161502919091179055565b6000546001600160a01b03163314611d165760405162461bcd60e51b8152600401610b6390614b49565b610cc9816139ec565b6001600160a01b03811660009081526008602052604081206001810154600f90810b9081900b8313611d55575060019392505050565b60405163b2838a7360e01b81526001600160a01b038516600482015230602482015273e13f771d639acf82c70abe8c0c712682763aac679063b2838a739060440160206040518083038186803b158015611dae57600080fd5b505af4158015611dc2573d6000803e3d6000fd5b505050506040513d601f19601f82011682018060405250810190611de69190614915565b611df4575060009392505050565b611dfd84613d69565b611e0690614ff0565b81600f0b121592505050919050565b6040805160c081018252600080825260208201819052918101829052606081018290526080810182905260a081019190915260ff8281166000908152600660205260408082209154905163c975707360e01b81526004810192909252600160b01b810490921615156024820152600160a01b90910461ffff16604482015273e13f771d639acf82c70abe8c0c712682763aac679063c9757073906064015b60c06040518083038186803b158015611ecb57600080fd5b505af4158015611edf573d6000803e3d6000fd5b505050506040513d601f19601f82011682018060405250810190611f039190614819565b92915050565b6040805160c081018252600080825260208201819052918101829052606081018290526080810182905260a081019190915260ff82811660009081526006602052604080822091549051634ed14a7f60e01b81526004810192909252336024830152600160b01b810490921615156044820152600160a01b90910461ffff16606482015273e13f771d639acf82c70abe8c0c712682763aac6790634ed14a7f90608401611eb3565b6000546001600160a01b03163314611fdb5760405162461bcd60e51b8152600401610b6390614b49565b611fe56000613e6d565b565b611ff08261304b565b60ff82811660009081526006602052604080822091549051630f681f9360e31b8152600481019290925233602483015260448201849052600160b01b810490921615156064820152600160a01b90910461ffff16608482015273e13f771d639acf82c70abe8c0c712682763aac6790637b40fc989060a401610d4e565b6001546001600160a01b031633146120975760405162461bcd60e51b8152600401610b6390614b27565b600054600160b01b900460ff16156120ae57600080fd5b6000546120c790600160a01b900461ffff166001614dbd565b6000805460ff60b01b1961ffff93909316600160a01b029290921662ffffff60a01b1990921691909117600160b01b1781555b60005460ff600160b81b90910481169082161015612c1e5760ff81811660009081526004602081815260408084208054909516845260069091528083208354915163161dd97560e31b8152928301819052600160a01b90910461ffff16602483015260016044830152919073e13f771d639acf82c70abe8c0c712682763aac679063b0eecba89060640160206040518083038186803b15801561219c57600080fd5b505af41580156121b0573d6000803e3d6000fd5b505050506040513d601f19601f820116820180604052508101906121d491906148fb565b8354610100900460ff166000908152600660205260408082208254915163161dd97560e31b815260048101829052600160a01b90920461ffff1660248301526044820183905292935073e13f771d639acf82c70abe8c0c712682763aac679063b0eecba89060640160206040518083038186803b15801561225457600080fd5b505af4158015612268573d6000803e3d6000fd5b505050506040513d601f19601f8201168201806040525081019061228c91906148fb565b90506001600160801b0383161561231d578454600160201b90046001600160a01b03166000908152600860205260409020546122e090611445906001600160801b03600160801b9091048116908616613083565b85546001600160a01b03600160201b90910416600090815260086020526040902080546001600160801b03928316600160801b0292169190911790555b6001600160801b038116156123a35760018501546001600160a01b031660009081526008602052604090205461236b9061144590600160801b90046001600160801b03908116908416613083565b60018601546001600160a01b0316600090815260086020526040902080546001600160801b03928316600160801b0292169190911790555b6000546002600160a01b90910461ffff16116123c3575050505050612c0c565b845460008054604051631bb98a3360e01b8152919273e13f771d639acf82c70abe8c0c712682763aac6792631bb98a3392612429928a9260019262010000830460ff90811693630100000090041691600160a01b90910461ffff16908990600401614bd5565b6101406040518083038186803b15801561244257600080fd5b505af4158015612456573d6000803e3d6000fd5b505050506040513d601f19601f8201168201806040525081019061247a9190614834565b865460008054604051631bb98a3360e01b8152939450909273e13f771d639acf82c70abe8c0c712682763aac6792631bb98a33926124e392899287926301000000820460ff90811693620100009093041691600160a01b90910461ffff16908490600401614bd5565b6101406040518083038186803b1580156124fc57600080fd5b505af4158015612510573d6000803e3d6000fd5b505050506040513d601f19601f820116820180604052508101906125349190614834565b9050600060405180606001604052808481526020018381526020016000600281111561257057634e487b7160e01b600052602160045260246000fd5b9052905080600560006125848c6003614e75565b60ff168152602080820192909252604090810160002083518051818501516001600160801b03908116600160801b90810292821692909217845582850151606080850151831684029183169190911760018087019190915560808086015160a08088015186168702918616919091176002808a019190915560c08089015160e0808b015189168a029189169190911760038c0155610100808b015160048d0180546101209d8e015115158d026001600160881b0319918216938d16939093179290921790558f8f015180519f8101518b168c029f8b169f909f1760058e01558e8e0151988f01518a168b02988a169890981760068d0155948d0151938d0151881689029388169390931760078b01558b0151918b015186168702918616919091176008890155908901516009880180549a9097015115159095029890921693909216929092179590951790915591840151600a8201805492949193909260ff19169190849081111561270657634e487b7160e01b600052602160045260246000fd5b021790555050885460008054604051631bb98a3360e01b815291935073e13f771d639acf82c70abe8c0c712682763aac6792631bb98a3392612773928d9260019260ff6201000083048116936301000000909304169161ffff600160a01b90910416908490600401614bd5565b6101406040518083038186803b15801561278c57600080fd5b505af41580156127a0573d6000803e3d6000fd5b505050506040513d601f19601f820116820180604052508101906127c49190614834565b6040805160608101825282815260208101869052919250810160019052915081600560006127f38d6003614e75565b6127fe906001614dfb565b60ff168152602080820192909252604090810160002083518051818501516001600160801b03908116600160801b90810292821692909217845582850151606080850151831684029183169190911760018087019190915560808086015160a08088015186168702918616919091176002808a019190915560c08089015160e0808b015189168a029189169190911760038c0155610100808b015160048d0180546101209d8e015115158d026001600160881b0319918216938d16939093179290921790558f8f015180519f8101518b168c029f8b169f909f1760058e01558e8e0151988f01518a168b02988a169890981760068d0155948d0151938d0151881689029388169390931760078b01558b0151918b015186168702918616919091176008890155908901516009880180549a9097015115159095029890921693909216929092179590951790915591840151600a8201805492949193909260ff19169190849081111561298057634e487b7160e01b600052602160045260246000fd5b021790555050895460008054604051631bb98a3360e01b815291935073e13f771d639acf82c70abe8c0c712682763aac6792631bb98a33926129ed928c92879260ff6301000000830481169362010000909304169161ffff600160a01b9091041690600190600401614bd5565b6101406040518083038186803b158015612a0657600080fd5b505af4158015612a1a573d6000803e3d6000fd5b505050506040513d601f19601f82011682018060405250810190612a3e9190614834565b604080516060810182528781526020810183905291925081016002905292508260056000612a6d8e6003614e75565b612a78906002614dfb565b60ff168152602080820192909252604090810160002083518051818501516001600160801b03908116600160801b90810292821692909217845582850151606080850151831684029183169190911760018087019190915560808086015160a08088015186168702918616919091176002808a019190915560c08089015160e0808b015189168a029189169190911760038c0155610100808b015160048d0180546101209d8e015115158d026001600160881b0319918216938d16939093179290921790558f8f015180519f8101518b168c029f8b169f909f1760058e01558e8e0151988f01518a168b02988a169890981760068d0155948d0151938d0151881689029388169390931760078b01558b0151918b015186168702918616919091176008890155908901516009880180549a9097015115159095029890921693909216929092179590951790915591840151600a8201805492949193909260ff191691908490811115612bfa57634e487b7160e01b600052602160045260246000fd5b02179055505050505050505050505050505b80612c1681614fd0565b9150506120fa565b50600054600160a01b900461ffff1660011415612c44576000805460ff60b01b19169055565b600054600160a01b900461ffff1660021415611fe55760015b600054612c7590600160b81b900460ff166002614e75565b60ff168160ff1611612d125760ff81166000908152600660205260409081902090516366aef26360e01b815260048101919091526001602482015273e13f771d639acf82c70abe8c0c712682763aac67906366aef2639060440160006040518083038186803b158015612ce757600080fd5b505af4158015612cfb573d6000803e3d6000fd5b505050508080612d0a90614fd0565b915050612c5d565b50612d1b6136a0565b6000805460ff60b01b19169055565b6000546001600160a01b03163314612d545760405162461bcd60e51b8152600401610b6390614b49565b6001600160a01b038116612db95760405162461bcd60e51b815260206004820152602660248201527f4f776e61626c653a206e6577206f776e657220697320746865207a65726f206160448201526564647265737360d01b6064820152608401610b63565b610cc981613e6d565b600054600160a01b900461ffff16612e075760405162461bcd60e51b81526020600482015260086024820152670854dd185c9d195960c21b6044820152606401610b63565b60008111612e415760405162461bcd60e51b815260206004820152600760248201526608585b5bdd5b9d60ca1b6044820152606401610b63565b612e4a8261304b565b60006004816002612e5c600187614f66565b612e669190614e34565b60ff908116825260208201929092526040016000206001810154909250600160a01b90041615612eca5760405162461bcd60e51b815260206004820152600f60248201526e11195c1bdcda5d111a5cd8589b1959608a1b6044820152606401610b63565b805460009060ff858116911614612eee5760018201546001600160a01b0316612f01565b8154600160201b90046001600160a01b03165b90506001600160a01b038116612f1657600080fd5b60ff84166000908152600660205260408082208254915163c502f99160e01b815273e13f771d639acf82c70abe8c0c712682763aac679363c502f99193612f76939233928a929091600160a01b90910461ffff1690600190600401614b9e565b60006040518083038186803b158015612f8e57600080fd5b505af4158015612fa2573d6000803e3d6000fd5b5050600054604051868152600160a01b90910461ffff16925033915060ff87169060008051602061505b8339815191529060200160405180910390a4612ff36001600160a01b038216333086613ebd565b50505050565b600180546001600160a01b038381166001600160a01b0319831681179093556040519116919082907f57e8def7e592578c5fbf9abfe6d3897d7daf10cf7e179f320d944cf71a76493e90600090a35050565b60ff81161580159061307a575060005461307090600160b81b900460ff166002614e75565b60ff168160ff1611155b610cc957600080fd5b600061308f8284614de3565b9392505050565b60006001600160801b038211156130ff5760405162461bcd60e51b815260206004820152602760248201527f53616665436173743a2076616c756520646f65736e27742066697420696e20316044820152663238206269747360c81b6064820152608401610b63565b5090565b8454600090613125906001600160801b0380821691600160801b900416613f17565b60018801549091506001600160801b0316158015906131445750600082115b156131a3576001860154613180906114459061316c908490600160901b900461ffff16613f23565b60018a01546001600160801b031690613f45565b6001880180546001600160801b0319166001600160801b03929092169190911790555b600387015460005b818110156134335760008960030182815481106131d857634e487b7160e01b600052603260045260246000fd5b60009182526020808320909101546001600160a01b031680835260048d0190915260409091206001810154919250906001600160801b031661321b575050613421565b60018101548a54600091613249918a916001600160801b03600160801b918290048116929190910416613f60565b9050801561329057600382015461326d90611445906001600160801b031683613083565b6003830180546001600160801b0319166001600160801b03929092169190911790555b60018201546000906132b5906001600160801b0380821691600160801b900416613f17565b905060006132c489838a613f60565b9050801561340c5760018d015460009081906132ec908590600160901b900461ffff16613f23565b60028701549091506001600160801b0316811061332457600286015461331d9084906001600160801b031683613f60565b9150613328565b8291505b73e13f771d639acf82c70abe8c0c712682763aac6763c502f9918f8986866001600060149054906101000a900461ffff166133639190614f2c565b60006040518763ffffffff1660e01b815260040161338696959493929190614b9e565b60006040518083038186803b15801561339e57600080fd5b505af41580156133b2573d6000803e3d6000fd5b50506000546133d0925060019150600160a01b900461ffff16614f2c565b61ffff16876001600160a01b03168e60ff1660008051602061505b8339815191528660405161340191815260200190565b60405180910390a450505b50505060010180546001600160801b03169055505b8061342b81614fb5565b9150506131ab565b505050505050505050565b8254600090613460906001600160801b0380821691600160801b900416613f17565b600387015490915060005b8181101561369657600088600301828154811061349857634e487b7160e01b600052603260045260246000fd5b60009182526020808320909101546001600160a01b031680835260048c0190915260409091206001810154919250906001600160801b03166134db575050613684565b60018101548854600091613509918a916001600160801b03600160801b918290048116929190910416613f60565b905080156135545760028201546135349061144590600160801b90046001600160801b031683613083565b6002830180546001600160801b03928316600160801b0292169190911790555b600182015460009061358590899061357f906001600160801b0380821691600160801b900416613f17565b89613f60565b905080156136705773e13f771d639acf82c70abe8c0c712682763aac6763c502f9918d868460006001600060149054906101000a900461ffff166135c99190614f2c565b60006040518763ffffffff1660e01b81526004016135ec96959493929190614b9e565b60006040518083038186803b15801561360457600080fd5b505af4158015613618573d6000803e3d6000fd5b5050600054613636925060019150600160a01b900461ffff16614f2c565b61ffff16846001600160a01b03168c60ff1660008051602061505b8339815191528460405161366791815260200190565b60405180910390a45b505060010180546001600160801b03169055505b8061368e81614fb5565b91505061346b565b5050505050505050565b60005b60005460ff600160c01b90910481169082161015610cc95760ff81166000908152600760209081526040808320546001600160a01b031680845260089092528220825491929091600160a01b900461ffff166002146137345781546001600160801b0380821691600160801b90041661371b85613d69565b6137259190614e9e565b61372f9190614d6f565b613737565b60005b60018301546137499190600f0b614d6f565b6002830180546001600160801b0316905560405163b2838a7360e01b81526001600160a01b03851660048201523060248201529091506137f29073e13f771d639acf82c70abe8c0c712682763aac679063b2838a739060440160206040518083038186803b1580156137ba57600080fd5b505af41580156137ce573d6000803e3d6000fd5b505050506040513d601f19601f820116820180604052508101906114459190614915565b6001830180546001600160801b03928316600160801b02921691909117905561381d61144584613fa8565b600283810180546001600160801b03199081166001600160801b0394851617909155604080516080810182528654600160801b808204871683529086166020808401918252600f89810b8587019081526001600160a01b038d811660608801818152600091825260039095529790972086519451948b16948b16860294909417845551600184018054909816910b89161790955593519390940180546001600160a01b0319169390921692909217905584549092818116926138e192041684614d6f565b6138eb9190614e9e565b600184018054600f9290920b6001600160801b03166001600160801b0319909216919091179055505060009055508061392381614fd0565b9150506136a3565b6002541561394b5760405162461bcd60e51b8152600401610b6390614b7e565b6001600255806139675761395e82611d1f565b61396757600080fd5b604051631a4ca37b60e21b81526001600160a01b038086166004830152602482018590528316604482015273e13f771d639acf82c70abe8c0c712682763aac67906369328dec9060640160006040518083038186803b1580156139c957600080fd5b505af41580156139dd573d6000803e3d6000fd5b50506000600255505050505050565b80516000805460ff600160b81b8204811692600160c01b90920416905b83811015613d32576000858281518110613a3357634e487b7160e01b600052603260045260246000fd5b60200260200101519050836002613a4a9190614e75565b613a55906001614dfb565b60ff16808252613a66906001614dfb565b60ff166020820152806004600086613a7d81614fd0565b60ff91821683526020808401949094526040928301600020855181549587015194870151606088015160808901516001600160a01b03908116600160201b02640100000000600160c01b031992881663010000000263ff0000001994891662010000029490941663ffff0000199989166101000261ffff19909b1695891695909517999099179790971692909217171694909417845560a08501516001909401805460c0909601511515600160a01b026001600160a81b0319909616949093169390931793909317905594508316613bef5760808101516007600085613b6281614fd0565b965060ff1660ff16815260200190815260200160002060006101000a8154816001600160a01b0302191690836001600160a01b031602179055508060a00151600760008580613bb090614fd0565b965060ff1660ff16815260200190815260200160002060006101000a8154816001600160a01b0302191690836001600160a01b03160217905550613d1f565b60008060005b8560ff168160ff161015613c7557608084015160ff82166000908152600760205260409020546001600160a01b0390811691161415613c3357600192505b60a084015160ff82166000908152600760205260409020546001600160a01b0390811691161415613c6357600191505b80613c6d81614fd0565b915050613bf5565b5081613cc95760808301516007600087613c8e81614fd0565b985060ff1660ff16815260200190815260200160002060006101000a8154816001600160a01b0302191690836001600160a01b031602179055505b80613d1c5760a08301516007600087613ce181614fd0565b985060ff1660ff16815260200190815260200160002060006101000a8154816001600160a01b0302191690836001600160a01b031602179055505b50505b5080613d2a81614fb5565b915050613a09565b506000805461ffff60b81b1916600160b81b60ff9485160260ff60c01b191617600160c01b92909316919091029190911790555050565b6001600160a01b0381166000908152600860205260408120613da8613d8d84613fa8565b6001830154600160801b90046001600160801b031690613083565b600282015460405163b2838a7360e01b81526001600160a01b0386166004820152306024820152613e63916001600160801b0380821692613e5d92600160801b90049091169073e13f771d639acf82c70abe8c0c712682763aac679063b2838a739060440160206040518083038186803b158015613e2557600080fd5b505af4158015613e39573d6000803e3d6000fd5b505050506040513d601f19601f82011682018060405250810190613e5d9190614915565b90613083565b61308f9190614eed565b600080546001600160a01b038381166001600160a01b0319831681178455604051919092169283917f8be0079c531659141344cd1fd0a4f28419497f9722a3daafe3b4186f6b6457e09190a35050565b604080516001600160a01b0385811660248301528416604482015260648082018490528251808303909101815260849091019091526020810180516001600160e01b03166323b872dd60e01b179052612ff390859061413b565b600061308f8284614f4f565b600061308f612710613f3f613f388583614de3565b869061420d565b90614219565b600081831015613f5657600061308f565b61308f8284614f4f565b6000821580613f6d575081155b80613f76575083155b15613f835750600061308f565b81831015613f9e57613f9982613f3f868661420d565b613fa0565b835b949350505050565b600080805b60005460ff600160b81b909104811690821610156141345760ff8116600090815260046020526040902080546001600160a01b03868116600160201b909204161480614008575060018101546001600160a01b038681169116145b1561412157805460ff8116600090815260066020526040902090614092906001600160a01b03888116600160201b9092041614614056578154600160801b90046001600160801b031661408b565b815460008054600160a01b900461ffff16815260028401602052604090205461408b916001600160801b039182169116613083565b8590613083565b8254610100900460ff16600090815260066020526040902060018401549195509061411c906001600160a01b038981169116146140e0578154600160801b90046001600160801b0316614115565b815460008054600160a01b900461ffff168152600284016020526040902054614115916001600160801b039182169116613083565b8690613083565b945050505b508061412c81614fd0565b915050613fad565b5092915050565b6000614190826040518060400160405280602081526020017f5361666545524332303a206c6f772d6c6576656c2063616c6c206661696c6564815250856001600160a01b03166142259092919063ffffffff16565b805190915015611ad857808060200190518101906141ae919061475f565b611ad85760405162461bcd60e51b815260206004820152602a60248201527f5361666545524332303a204552433230206f7065726174696f6e20646964206e6044820152691bdd081cdd58d8d9595960b21b6064820152608401610b63565b600061308f8284614e56565b600061308f8284614e20565b6060613fa0848460008585843b61427e5760405162461bcd60e51b815260206004820152601d60248201527f416464726573733a2063616c6c20746f206e6f6e2d636f6e74726163740000006044820152606401610b63565b600080866001600160a01b0316858760405161429a9190614ad8565b60006040518083038185875af1925050503d80600081146142d7576040519150601f19603f3d011682016040523d82523d6000602084013e6142dc565b606091505b50915091506142ec8282866142f7565b979650505050505050565b6060831561430657508161308f565b8251156143165782518084602001fd5b8160405162461bcd60e51b8152600401610b639190614af4565b80356001600160a01b038116811461434757600080fd5b919050565b80516143478161504c565b600060c08284031215614368578081fd5b60405160c0810181811067ffffffffffffffff8211171561438b5761438b615036565b60405290508061439a836143f8565b81526143a8602084016143f8565b60208201526143b9604084016143f8565b60408201526143ca606084016143f8565b60608201526143db608084016143f8565b60808201526143ec60a084016143f8565b60a08201525092915050565b80516001600160801b038116811461434757600080fd5b803560ff8116811461434757600080fd5b600060208284031215614431578081fd5b61308f82614330565b6000806040838503121561444c578081fd5b61445583614330565b915061446360208401614330565b90509250929050565b6000806040838503121561447e578182fd5b61448783614330565b915060208084013567ffffffffffffffff8111156144a3578283fd5b8401601f810186136144b3578283fd5b80356144c66144c182614d4b565b614d1a565b80828252848201915084840189868560051b87010111156144e5578687fd5b8694505b8385101561450e576144fa81614330565b8352600194909401939185019185016144e9565b5080955050505050509250929050565b60006020808385031215614530578182fd5b823567ffffffffffffffff811115614546578283fd5b8301601f81018513614556578283fd5b80356145646144c182614d4b565b80828252848201915084840188868560051b8701011115614583578687fd5b8694505b838510156145b15780356003811061459d578788fd5b835260019490940193918501918501614587565b50979650505050505050565b600060208083850312156145cf578182fd5b823567ffffffffffffffff8111156145e5578283fd5b8301601f810185136145f5578283fd5b80356146036144c182614d4b565b8181528381019083850160e0808502860187018a1015614621578788fd5b8795505b848610156146ca5780828b03121561463b578788fd5b614643614ca9565b61464c8361440f565b815261465988840161440f565b88820152604061466a81850161440f565b90820152606061467b84820161440f565b90820152608061468c848201614330565b9082015260a061469d848201614330565b9082015260c0838101356146b08161504c565b908201528452600195909501949286019290810190614625565b509098975050505050505050565b600060208083850312156146ea578182fd5b823567ffffffffffffffff811115614700578283fd5b8301601f81018513614710578283fd5b803561471e6144c182614d4b565b80828252848201915084840188868560051b870101111561473d578687fd5b8694505b838510156145b1578035835260019490940193918501918501614741565b600060208284031215614770578081fd5b815161308f8161504c565b6000610180828403121561478d578081fd5b614795614cd2565b825181526020830151602082015260408301516040820152606083015160608201526080830151608082015260a083015160a082015260c083015160c082015260e083015160e08201526101008084015181830152506101208084015181830152506101408084015181830152506101608084015181830152508091505092915050565b600060c0828403121561482a578081fd5b61308f8383614357565b60006101408284031215614846578081fd5b61484e614cf6565b614857836143f8565b8152614865602084016143f8565b6020820152614876604084016143f8565b6040820152614887606084016143f8565b6060820152614898608084016143f8565b60808201526148a960a084016143f8565b60a08201526148ba60c084016143f8565b60c08201526148cb60e084016143f8565b60e08201526101006148de8185016143f8565b908201526101206148f084820161434c565b908201529392505050565b60006020828403121561490c578081fd5b61308f826143f8565b600060208284031215614926578081fd5b5051919050565b60006020828403121561493e578081fd5b61308f8261440f565b60008060408385031215614959578182fd5b6149628361440f565b9150602083013561ffff81168114614978578182fd5b809150509250929050565b60008060408385031215614995578182fd5b61499e8361440f565b946020939093013593505050565b6000806000606084860312156149c0578081fd5b6149c98461440f565b9250602084013591506149de60408501614330565b90509250925092565b80516001600160801b031682526020810151614a0e60208401826001600160801b03169052565b506040810151614a2960408401826001600160801b03169052565b506060810151614a4460608401826001600160801b03169052565b506080810151614a5f60808401826001600160801b03169052565b5060a0810151614a7a60a08401826001600160801b03169052565b5060c0810151614a9560c08401826001600160801b03169052565b5060e0810151614ab060e08401826001600160801b03169052565b50610100818101516001600160801b0316908301526101208082015180151582850152612ff3565b60008251614aea818460208701614f89565b9190910192915050565b6020815260008251806020840152614b13816040850160208701614f89565b601f01601f19169190910160400192915050565b60208082526008908201526710b9b2ba3a3632b960c11b604082015260600190565b6020808252818101527f4f776e61626c653a2063616c6c6572206973206e6f7420746865206f776e6572604082015260600190565b6020808252600690820152651b1bd8dad95960d21b604082015260600190565b9586526001600160a01b039490941660208601526040850192909252606084015261ffff166080830152151560a082015260c00190565b958652931515602086015260ff92831660408601529116606084015261ffff166080830152151560a082015260c00190565b60c08101611f0382846001600160801b038082511683528060208301511660208401528060408301511660408401528060608301511660608401528060808301511660808401528060a08301511660a0840152505050565b6102a08101614c6e82866149e7565b614c7c6101408301856149e7565b60038310614c9a57634e487b7160e01b600052602160045260246000fd5b82610280830152949350505050565b60405160e0810167ffffffffffffffff81118282101715614ccc57614ccc615036565b60405290565b604051610180810167ffffffffffffffff81118282101715614ccc57614ccc615036565b604051610140810167ffffffffffffffff81118282101715614ccc57614ccc615036565b604051601f8201601f1916810167ffffffffffffffff81118282101715614d4357614d43615036565b604052919050565b600067ffffffffffffffff821115614d6557614d65615036565b5060051b60200190565b600081600f0b83600f0b8282128260016001607f1b0303821381151615614d9857614d9861500a565b8260016001607f1b0319038212811615614db457614db461500a565b50019392505050565b600061ffff808316818516808303821115614dda57614dda61500a565b01949350505050565b60008219821115614df657614df661500a565b500190565b600060ff821660ff84168060ff03821115614e1857614e1861500a565b019392505050565b600082614e2f57614e2f615020565b500490565b600060ff831680614e4757614e47615020565b8060ff84160491505092915050565b6000816000190483118215151615614e7057614e7061500a565b500290565b600060ff821660ff84168160ff0481118215151615614e9657614e9661500a565b029392505050565b600081600f0b83600f0b8281128160016001607f1b031901831281151615614ec857614ec861500a565b8160016001607f1b03018313811615614ee357614ee361500a565b5090039392505050565b60008083128015600160ff1b850184121615614f0b57614f0b61500a565b6001600160ff1b0384018313811615614f2657614f2661500a565b50500390565b600061ffff83811690831681811015614f4757614f4761500a565b039392505050565b600082821015614f6157614f6161500a565b500390565b600060ff821660ff841680821015614f8057614f8061500a565b90039392505050565b60005b83811015614fa4578181015183820152602001614f8c565b83811115612ff35750506000910152565b6000600019821415614fc957614fc961500a565b5060010190565b600060ff821660ff811415614fe757614fe761500a565b60010192915050565b6000600160ff1b8214156150065761500661500a565b0390565b634e487b7160e01b600052601160045260246000fd5b634e487b7160e01b600052601260045260246000fd5b634e487b7160e01b600052604160045260246000fd5b8015158114610cc957600080fdfee963a73e630cb9812a026653bfb6b1e14ffa92f8c38b79f318f2637557ea9f12a264697066735822122030eeecd46d9313889259c73d967c8f652e879a6c75eb7011a61ccffbdbb55f7464736f6c63430008040033",
  "deployedBytecode": "0x6080604052600436106101855760003560e01c8063644d41ed116100d15780638a19c8bc1161008a578063c78b432e11610064578063c78b432e14610abb578063ddd0247514610ad0578063f2fde38b14610b03578063f4d4c9d714610b2357600080fd5b80638a19c8bc146108f55780638da5cb5b1461092a578063c5cfc5be1461095257600080fd5b8063644d41ed146107ba5780636b37e4e3146107da5780637101868214610807578063715018a6146108275780637332655b1461083c57806383eb772e1461085c57600080fd5b806332b76e861161013e57806355bf621f1161011857806355bf621f146106975780635d3e0e4d146106b75780635edae4db146106d75780636386bcc4146106f757600080fd5b806332b76e861461025c5780634dd96f861461027c57806351fe669e1461029c57600080fd5b806302c178d7146101915780630748248f146101b357806307f19eba146101e9578063222f6b8314610209578063256d43d71461022957806326b516991461023c57600080fd5b3661018c57005b600080fd5b34801561019d57600080fd5b506101b16101ac36600461443a565b610b43565b005b3480156101bf57600080fd5b506000546101d490600160b01b900460ff1681565b60405190151581526020015b60405180910390f35b3480156101f557600080fd5b506101b1610204366004614420565b610c96565b34801561021557600080fd5b506101b1610224366004614983565b610ccc565b6101b161023736600461492d565b610d82565b34801561024857600080fd5b506101b161025736600461446c565b610fa5565b34801561026857600080fd5b506101b161027736600461451e565b61118f565b34801561028857600080fd5b506101b16102973660046146d8565b611937565b3480156102a857600080fd5b506106886102b736600461492d565b600560205280600052604060002060009150905080600001604051806101400160405290816000820160009054906101000a90046001600160801b03166001600160801b03166001600160801b031681526020016000820160109054906101000a90046001600160801b03166001600160801b03166001600160801b031681526020016001820160009054906101000a90046001600160801b03166001600160801b03166001600160801b031681526020016001820160109054906101000a90046001600160801b03166001600160801b03166001600160801b031681526020016002820160009054906101000a90046001600160801b03166001600160801b03166001600160801b031681526020016002820160109054906101000a90046001600160801b03166001600160801b03166001600160801b031681526020016003820160009054906101000a90046001600160801b03166001600160801b03166001600160801b031681526020016003820160109054906101000a90046001600160801b03166001600160801b03166001600160801b031681526020016004820160009054906101000a90046001600160801b03166001600160801b03166001600160801b031681526020016004820160109054906101000a900460ff1615151515815250509080600501604051806101400160405290816000820160009054906101000a90046001600160801b03166001600160801b03166001600160801b031681526020016000820160109054906101000a90046001600160801b03166001600160801b03166001600160801b031681526020016001820160009054906101000a90046001600160801b03166001600160801b03166001600160801b031681526020016001820160109054906101000a90046001600160801b03166001600160801b03166001600160801b031681526020016002820160009054906101000a90046001600160801b03166001600160801b03166001600160801b031681526020016002820160109054906101000a90046001600160801b03166001600160801b03166001600160801b031681526020016003820160009054906101000a90046001600160801b03166001600160801b03166001600160801b031681526020016003820160109054906101000a90046001600160801b03166001600160801b03166001600160801b031681526020016004820160009054906101000a90046001600160801b03166001600160801b03166001600160801b031681526020016004820160109054906101000a900460ff1615151515815250509080600a0160009054906101000a900460ff16905083565b6040516101e093929190614c5f565b3480156106a357600080fd5b506101b16106b23660046149ac565b611add565b3480156106c357600080fd5b506101b16106d236600461492d565b611c8c565b3480156106e357600080fd5b506101b16106f23660046145bd565b611cec565b34801561070357600080fd5b5061076c61071236600461492d565b6004602052600090815260409020805460019091015460ff808316926101008104821692620100008204831692630100000083048116926001600160a01b03600160201b90910481169290811691600160a01b9091041687565b6040805160ff98891681529688166020880152948716948601949094529490911660608401526001600160a01b03908116608084015290921660a082015290151560c082015260e0016101e0565b3480156107c657600080fd5b506101d46107d5366004614420565b611d1f565b3480156107e657600080fd5b506107fa6107f536600461492d565b611e15565b6040516101e09190614c07565b34801561081357600080fd5b506107fa61082236600461492d565b611f09565b34801561083357600080fd5b506101b1611fb1565b34801561084857600080fd5b506101b1610857366004614983565b611fe7565b34801561086857600080fd5b506108b8610877366004614420565b6003602052600090815260409020805460018201546002909201546001600160801b0380831693600160801b9093041691600f0b906001600160a01b031684565b604080516001600160801b039586168152949093166020850152600f9190910b918301919091526001600160a01b031660608201526080016101e0565b34801561090157600080fd5b5060005461091790600160a01b900461ffff1681565b60405161ffff90911681526020016101e0565b34801561093657600080fd5b506000546040516001600160a01b0390911681526020016101e0565b34801561095e57600080fd5b50610a4861096d366004614947565b6040805160e081018252600080825260208201819052918101829052606081018290526080810182905260a0810182905260c08101919091525060ff808316600090815260066020908152604080832061ffff80871685526002909101835292819020815160e08101835281546001600160801b038082168352600160801b9182900481169583019590955260019092015493841692810192909252820483166060820152600160901b82049092166080830152600160a01b81048316151560a0830152600160a81b9004909116151560c082015292915050565b6040516101e09190600060e0820190506001600160801b0380845116835280602085015116602084015280604085015116604084015250606083015161ffff8082166060850152806080860151166080850152505060a0830151151560a083015260c0830151151560c083015292915050565b348015610ac757600080fd5b506101b161206d565b348015610adc57600080fd5b50600054610af190600160b81b900460ff1681565b60405160ff90911681526020016101e0565b348015610b0f57600080fd5b506101b1610b1e366004614420565b612d2a565b348015610b2f57600080fd5b506101b1610b3e366004614983565b612dc2565b60025415610b6c5760405162461bcd60e51b8152600401610b6390614b7e565b60405180910390fd5b60016002819055546001600160a01b03163314610b9b5760405162461bcd60e51b8152600401610b6390614b27565b6001600160a01b038116600090815260086020526040812060018101549091600f91820b90910b13610bcc57600080fd5b6001810154604051631a4ca37b60e21b81526001600160a01b0380861660048301526001600160801b03600f9390930b92831660248301528416604482015273__$e36f5330ef2566ea8a183e1e27b10de643$__906369328dec9060640160006040518083038186803b158015610c4257600080fd5b505af4158015610c56573d6000803e3d6000fd5b505050600280840180546001600160801b03948516600160801b0294169390931790925550600190910180546001600160801b0319169055600090555050565b6000546001600160a01b03163314610cc05760405162461bcd60e51b8152600401610b6390614b49565b610cc981612ff9565b50565b610cd58261304b565b60ff82811660009081526006602052604080822091549051638a229a5760e01b8152600481019290925233602483015260448201849052600160b01b810490921615156064820152600160a01b90910461ffff16608482015273__$e36f5330ef2566ea8a183e1e27b10de643$__90638a229a579060a4015b60006040518083038186803b158015610d6657600080fd5b505af4158015610d7a573d6000803e3d6000fd5b505050505050565b600054600160a01b900461ffff16610dc75760405162461bcd60e51b81526020600482015260086024820152670854dd185c9d195960c21b6044820152606401610b63565b60003411610e025760405162461bcd60e51b81526020600482015260086024820152676e6f2076616c756560c01b6044820152606401610b63565b610e0b8161304b565b60006004816002610e1d600186614f66565b610e279190614e34565b60ff908116825260208201929092526040016000206001810154909250600160a01b90041615610e8b5760405162461bcd60e51b815260206004820152600f60248201526e11195c1bdcda5d111a5cd8589b1959608a1b6044820152606401610b63565b805460009060ff848116911614610eaf5760018201546001600160a01b0316610ec2565b8154600160201b90046001600160a01b03165b90506001600160a01b03811615610ed857600080fd5b60ff83166000908152600660205260408082208254915163c502f99160e01b815273__$e36f5330ef2566ea8a183e1e27b10de643$__9363c502f99193610f389392339234929091600160a01b90910461ffff1690600190600401614b9e565b60006040518083038186803b158015610f5057600080fd5b505af4158015610f64573d6000803e3d6000fd5b5050600054604051348152600160a01b90910461ffff16925033915060ff86169060008051602061505b8339815191529060200160405180910390a4505050565b60025415610fc55760405162461bcd60e51b8152600401610b6390614b7e565b60016002819055546001600160a01b03163314610ff45760405162461bcd60e51b8152600401610b6390614b27565b805160005b818110156111845760006008600085848151811061102757634e487b7160e01b600052603260045260246000fd5b60200260200101516001600160a01b03166001600160a01b03168152602001908152602001600020905060008160010160009054906101000a9004600f0b600f0b1361107257600080fd5b60008160010160009054906101000a9004600f0b905073__$e36f5330ef2566ea8a183e1e27b10de643$__6369328dec87836001600160801b03168887815181106110cd57634e487b7160e01b600052603260045260246000fd5b60200260200101516040518463ffffffff1660e01b8152600401611111939291906001600160a01b0393841681526020810192909252909116604082015260600190565b60006040518083038186803b15801561112957600080fd5b505af415801561113d573d6000803e3d6000fd5b5050506002830180546001600160801b03938416600160801b029316929092179091555060010180546001600160801b03191690558061117c81614fb5565b915050610ff9565b505060006002555050565b6001546001600160a01b031633146111b95760405162461bcd60e51b8152600401610b6390614b27565b600054600160b01b900460ff166111cf57600080fd5b8051600054600160b81b900460ff1681146111e957600080fd5b6000805461120490600190600160a01b900461ffff16614f2c565b905060005b828160ff16101561191c576000848260ff168151811061123957634e487b7160e01b600052603260045260246000fd5b60209081029190910181015160ff80851660009081526004845260408082208054808516845260068752828420610100918290049095168452828420835161018081018552858152978801859052928701849052606087018490526080870184905260a0870184905260c0870184905260e0870184905286018390526101208601839052610140860183905261016086019290925292945092909190600060028401816112e760018b614f2c565b61ffff168152602081019190915260400160002080549091506001600160801b03161561158157845473__$e36f5330ef2566ea8a183e1e27b10de643$__9063aab69633908690849060019060ff6201000082048116916301000000900416828d600281111561136757634e487b7160e01b600052602160045260246000fd5b6040516001600160e01b031960e08a901b16815260048101979097526024870195909552921515604486015260ff91821660648601521660848401521460a482015260c4016101806040518083038186803b1580156113c557600080fd5b505af41580156113d9573d6000803e3d6000fd5b505050506040513d601f19601f820116820180604052508101906113fd919061477b565b80519092501561148d576040828101518654600160201b90046001600160a01b031660009081526008602052919091205461144a91611445916001600160801b031690613083565b613096565b8554600160201b90046001600160a01b0316600090815260086020526040902080546001600160801b0319166001600160801b039290921691909117905561150b565b60608201511561150b5760a082015160018601546001600160a01b03166000908152600860205260409020546114d091611445916001600160801b031690613083565b60018601546001600160a01b0316600090815260086020526040902080546001600160801b0319166001600160801b03929092169190911790555b600186600281111561152d57634e487b7160e01b600052602160045260246000fd5b14156115605761155b8482858860000160019054906101000a900460ff168660a00151876101600151613103565b611581565b8454604083015161010084015161158192879260ff9091169185919061343e565b6000600284018161159360018c614f2c565b61ffff168152602081019190915260400160002080549091506001600160801b03161561182857855473__$e36f5330ef2566ea8a183e1e27b10de643$__9063aab69633908690849060009060ff630100000082048116916201000090041660028e600281111561161457634e487b7160e01b600052602160045260246000fd5b6040516001600160e01b031960e08a901b16815260048101979097526024870195909552921515604486015260ff91821660648601521660848401521460a482015260c4016101806040518083038186803b15801561167257600080fd5b505af4158015611686573d6000803e3d6000fd5b505050506040513d601f19601f820116820180604052508101906116aa919061477b565b80519093501561172d5760408084015160018801546001600160a01b03166000908152600860205291909120546116ee91611445916001600160801b031690613083565b60018701546001600160a01b0316600090815260086020526040902080546001600160801b0319166001600160801b03929092169190911790556117b3565b6060830151156117b35760a08301518654600160201b90046001600160a01b031660009081526008602052604090205461177491611445916001600160801b031690613083565b8654600160201b90046001600160a01b0316600090815260086020526040902080546001600160801b0319166001600160801b03929092169190911790555b60028760028111156117d557634e487b7160e01b600052602160045260246000fd5b141561180157855460a08401516101608501516117fc92879285928a9260ff169190613103565b611828565b611828848760000160019054906101000a900460ff1683866040015187610100015161343e565b6040516366aef26360e01b81526004810186905261ffff8a16602482015273__$e36f5330ef2566ea8a183e1e27b10de643$__906366aef2639060440160006040518083038186803b15801561187d57600080fd5b505af4158015611891573d6000803e3d6000fd5b50506040516366aef26360e01b81526004810187905261ffff8c16602482015273__$e36f5330ef2566ea8a183e1e27b10de643$__92506366aef263915060440160006040518083038186803b1580156118ea57600080fd5b505af41580156118fe573d6000803e3d6000fd5b5050505050505050505050808061191490614fd0565b915050611209565b506119256136a0565b50506000805460ff60b01b1916905550565b6001546001600160a01b031633146119615760405162461bcd60e51b8152600401610b6390614b27565b8051600054600160b01b900460ff161561197a57600080fd5b6000546001600160a01b90910461ffff161161199557600080fd5b6000546119ad90600160b81b900460ff166002614e75565b60ff1681146119bb57600080fd5b60005b818160ff161015611ad8576000838260ff16815181106119ee57634e487b7160e01b600052603260045260246000fd5b60200260200101519050600060066000846001611a0b9190614dfb565b60ff1660ff16815260200190815260200160002060020160006001600060149054906101000a900461ffff16611a419190614f2c565b61ffff16815260208101919091526040908101600020905163338dfe2f60e21b8152600481018490526024810182905290915073__$e36f5330ef2566ea8a183e1e27b10de643$__9063ce37f8bc9060440160006040518083038186803b158015611aab57600080fd5b505af4158015611abf573d6000803e3d6000fd5b5050505050508080611ad090614fd0565b9150506119be565b505050565b611ae68361304b565b60006004816002611af8600188614f66565b611b029190614e34565b60ff90811682526020808301939093526040918201600090812088831680835260069095529281209054835493955073__$e36f5330ef2566ea8a183e1e27b10de643$__94637441e8bb94929333938a93600160a01b900461ffff16929116148015611b81575086546001600160a01b03898116600160201b90920416145b80611bb15750865460ff8b811661010090920416148015611bb1575060018701546001600160a01b038981169116145b6040516001600160e01b031960e088901b16815260048101959095526001600160a01b039093166024850152604484019190915261ffff1660648301521515608482015260a40160006040518083038186803b158015611c1057600080fd5b505af4158015611c24573d6000803e3d6000fd5b50505050611c35338484600061392b565b816001600160a01b0316336001600160a01b03168560ff167f9ac0ff79dc491174b021e6532a2fc734e82751bba8672e9183a76cb994a5f65a86604051611c7e91815260200190565b60405180910390a450505050565b6001546001600160a01b03163314611cb65760405162461bcd60e51b8152600401610b6390614b27565b60ff9081166000908152600460205260409020600101805460ff60a01b198116600160a01b918290049093161502919091179055565b6000546001600160a01b03163314611d165760405162461bcd60e51b8152600401610b6390614b49565b610cc9816139ec565b6001600160a01b03811660009081526008602052604081206001810154600f90810b9081900b8313611d55575060019392505050565b60405163b2838a7360e01b81526001600160a01b038516600482015230602482015273__$e36f5330ef2566ea8a183e1e27b10de643$__9063b2838a739060440160206040518083038186803b158015611dae57600080fd5b505af4158015611dc2573d6000803e3d6000fd5b505050506040513d601f19601f82011682018060405250810190611de69190614915565b611df4575060009392505050565b611dfd84613d69565b611e0690614ff0565b81600f0b121592505050919050565b6040805160c081018252600080825260208201819052918101829052606081018290526080810182905260a081019190915260ff8281166000908152600660205260408082209154905163c975707360e01b81526004810192909252600160b01b810490921615156024820152600160a01b90910461ffff16604482015273__$e36f5330ef2566ea8a183e1e27b10de643$__9063c9757073906064015b60c06040518083038186803b158015611ecb57600080fd5b505af4158015611edf573d6000803e3d6000fd5b505050506040513d601f19601f82011682018060405250810190611f039190614819565b92915050565b6040805160c081018252600080825260208201819052918101829052606081018290526080810182905260a081019190915260ff82811660009081526006602052604080822091549051634ed14a7f60e01b81526004810192909252336024830152600160b01b810490921615156044820152600160a01b90910461ffff16606482015273__$e36f5330ef2566ea8a183e1e27b10de643$__90634ed14a7f90608401611eb3565b6000546001600160a01b03163314611fdb5760405162461bcd60e51b8152600401610b6390614b49565b611fe56000613e6d565b565b611ff08261304b565b60ff82811660009081526006602052604080822091549051630f681f9360e31b8152600481019290925233602483015260448201849052600160b01b810490921615156064820152600160a01b90910461ffff16608482015273__$e36f5330ef2566ea8a183e1e27b10de643$__90637b40fc989060a401610d4e565b6001546001600160a01b031633146120975760405162461bcd60e51b8152600401610b6390614b27565b600054600160b01b900460ff16156120ae57600080fd5b6000546120c790600160a01b900461ffff166001614dbd565b6000805460ff60b01b1961ffff93909316600160a01b029290921662ffffff60a01b1990921691909117600160b01b1781555b60005460ff600160b81b90910481169082161015612c1e5760ff81811660009081526004602081815260408084208054909516845260069091528083208354915163161dd97560e31b8152928301819052600160a01b90910461ffff16602483015260016044830152919073__$e36f5330ef2566ea8a183e1e27b10de643$__9063b0eecba89060640160206040518083038186803b15801561219c57600080fd5b505af41580156121b0573d6000803e3d6000fd5b505050506040513d601f19601f820116820180604052508101906121d491906148fb565b8354610100900460ff166000908152600660205260408082208254915163161dd97560e31b815260048101829052600160a01b90920461ffff1660248301526044820183905292935073__$e36f5330ef2566ea8a183e1e27b10de643$__9063b0eecba89060640160206040518083038186803b15801561225457600080fd5b505af4158015612268573d6000803e3d6000fd5b505050506040513d601f19601f8201168201806040525081019061228c91906148fb565b90506001600160801b0383161561231d578454600160201b90046001600160a01b03166000908152600860205260409020546122e090611445906001600160801b03600160801b9091048116908616613083565b85546001600160a01b03600160201b90910416600090815260086020526040902080546001600160801b03928316600160801b0292169190911790555b6001600160801b038116156123a35760018501546001600160a01b031660009081526008602052604090205461236b9061144590600160801b90046001600160801b03908116908416613083565b60018601546001600160a01b0316600090815260086020526040902080546001600160801b03928316600160801b0292169190911790555b6000546002600160a01b90910461ffff16116123c3575050505050612c0c565b845460008054604051631bb98a3360e01b8152919273__$e36f5330ef2566ea8a183e1e27b10de643$__92631bb98a3392612429928a9260019262010000830460ff90811693630100000090041691600160a01b90910461ffff16908990600401614bd5565b6101406040518083038186803b15801561244257600080fd5b505af4158015612456573d6000803e3d6000fd5b505050506040513d601f19601f8201168201806040525081019061247a9190614834565b865460008054604051631bb98a3360e01b8152939450909273__$e36f5330ef2566ea8a183e1e27b10de643$__92631bb98a33926124e392899287926301000000820460ff90811693620100009093041691600160a01b90910461ffff16908490600401614bd5565b6101406040518083038186803b1580156124fc57600080fd5b505af4158015612510573d6000803e3d6000fd5b505050506040513d601f19601f820116820180604052508101906125349190614834565b9050600060405180606001604052808481526020018381526020016000600281111561257057634e487b7160e01b600052602160045260246000fd5b9052905080600560006125848c6003614e75565b60ff168152602080820192909252604090810160002083518051818501516001600160801b03908116600160801b90810292821692909217845582850151606080850151831684029183169190911760018087019190915560808086015160a08088015186168702918616919091176002808a019190915560c08089015160e0808b015189168a029189169190911760038c0155610100808b015160048d0180546101209d8e015115158d026001600160881b0319918216938d16939093179290921790558f8f015180519f8101518b168c029f8b169f909f1760058e01558e8e0151988f01518a168b02988a169890981760068d0155948d0151938d0151881689029388169390931760078b01558b0151918b015186168702918616919091176008890155908901516009880180549a9097015115159095029890921693909216929092179590951790915591840151600a8201805492949193909260ff19169190849081111561270657634e487b7160e01b600052602160045260246000fd5b021790555050885460008054604051631bb98a3360e01b815291935073__$e36f5330ef2566ea8a183e1e27b10de643$__92631bb98a3392612773928d9260019260ff6201000083048116936301000000909304169161ffff600160a01b90910416908490600401614bd5565b6101406040518083038186803b15801561278c57600080fd5b505af41580156127a0573d6000803e3d6000fd5b505050506040513d601f19601f820116820180604052508101906127c49190614834565b6040805160608101825282815260208101869052919250810160019052915081600560006127f38d6003614e75565b6127fe906001614dfb565b60ff168152602080820192909252604090810160002083518051818501516001600160801b03908116600160801b90810292821692909217845582850151606080850151831684029183169190911760018087019190915560808086015160a08088015186168702918616919091176002808a019190915560c08089015160e0808b015189168a029189169190911760038c0155610100808b015160048d0180546101209d8e015115158d026001600160881b0319918216938d16939093179290921790558f8f015180519f8101518b168c029f8b169f909f1760058e01558e8e0151988f01518a168b02988a169890981760068d0155948d0151938d0151881689029388169390931760078b01558b0151918b015186168702918616919091176008890155908901516009880180549a9097015115159095029890921693909216929092179590951790915591840151600a8201805492949193909260ff19169190849081111561298057634e487b7160e01b600052602160045260246000fd5b021790555050895460008054604051631bb98a3360e01b815291935073__$e36f5330ef2566ea8a183e1e27b10de643$__92631bb98a33926129ed928c92879260ff6301000000830481169362010000909304169161ffff600160a01b9091041690600190600401614bd5565b6101406040518083038186803b158015612a0657600080fd5b505af4158015612a1a573d6000803e3d6000fd5b505050506040513d601f19601f82011682018060405250810190612a3e9190614834565b604080516060810182528781526020810183905291925081016002905292508260056000612a6d8e6003614e75565b612a78906002614dfb565b60ff168152602080820192909252604090810160002083518051818501516001600160801b03908116600160801b90810292821692909217845582850151606080850151831684029183169190911760018087019190915560808086015160a08088015186168702918616919091176002808a019190915560c08089015160e0808b015189168a029189169190911760038c0155610100808b015160048d0180546101209d8e015115158d026001600160881b0319918216938d16939093179290921790558f8f015180519f8101518b168c029f8b169f909f1760058e01558e8e0151988f01518a168b02988a169890981760068d0155948d0151938d0151881689029388169390931760078b01558b0151918b015186168702918616919091176008890155908901516009880180549a9097015115159095029890921693909216929092179590951790915591840151600a8201805492949193909260ff191691908490811115612bfa57634e487b7160e01b600052602160045260246000fd5b02179055505050505050505050505050505b80612c1681614fd0565b9150506120fa565b50600054600160a01b900461ffff1660011415612c44576000805460ff60b01b19169055565b600054600160a01b900461ffff1660021415611fe55760015b600054612c7590600160b81b900460ff166002614e75565b60ff168160ff1611612d125760ff81166000908152600660205260409081902090516366aef26360e01b815260048101919091526001602482015273__$e36f5330ef2566ea8a183e1e27b10de643$__906366aef2639060440160006040518083038186803b158015612ce757600080fd5b505af4158015612cfb573d6000803e3d6000fd5b505050508080612d0a90614fd0565b915050612c5d565b50612d1b6136a0565b6000805460ff60b01b19169055565b6000546001600160a01b03163314612d545760405162461bcd60e51b8152600401610b6390614b49565b6001600160a01b038116612db95760405162461bcd60e51b815260206004820152602660248201527f4f776e61626c653a206e6577206f776e657220697320746865207a65726f206160448201526564647265737360d01b6064820152608401610b63565b610cc981613e6d565b600054600160a01b900461ffff16612e075760405162461bcd60e51b81526020600482015260086024820152670854dd185c9d195960c21b6044820152606401610b63565b60008111612e415760405162461bcd60e51b815260206004820152600760248201526608585b5bdd5b9d60ca1b6044820152606401610b63565b612e4a8261304b565b60006004816002612e5c600187614f66565b612e669190614e34565b60ff908116825260208201929092526040016000206001810154909250600160a01b90041615612eca5760405162461bcd60e51b815260206004820152600f60248201526e11195c1bdcda5d111a5cd8589b1959608a1b6044820152606401610b63565b805460009060ff858116911614612eee5760018201546001600160a01b0316612f01565b8154600160201b90046001600160a01b03165b90506001600160a01b038116612f1657600080fd5b60ff84166000908152600660205260408082208254915163c502f99160e01b815273__$e36f5330ef2566ea8a183e1e27b10de643$__9363c502f99193612f76939233928a929091600160a01b90910461ffff1690600190600401614b9e565b60006040518083038186803b158015612f8e57600080fd5b505af4158015612fa2573d6000803e3d6000fd5b5050600054604051868152600160a01b90910461ffff16925033915060ff87169060008051602061505b8339815191529060200160405180910390a4612ff36001600160a01b038216333086613ebd565b50505050565b600180546001600160a01b038381166001600160a01b0319831681179093556040519116919082907f57e8def7e592578c5fbf9abfe6d3897d7daf10cf7e179f320d944cf71a76493e90600090a35050565b60ff81161580159061307a575060005461307090600160b81b900460ff166002614e75565b60ff168160ff1611155b610cc957600080fd5b600061308f8284614de3565b9392505050565b60006001600160801b038211156130ff5760405162461bcd60e51b815260206004820152602760248201527f53616665436173743a2076616c756520646f65736e27742066697420696e20316044820152663238206269747360c81b6064820152608401610b63565b5090565b8454600090613125906001600160801b0380821691600160801b900416613f17565b60018801549091506001600160801b0316158015906131445750600082115b156131a3576001860154613180906114459061316c908490600160901b900461ffff16613f23565b60018a01546001600160801b031690613f45565b6001880180546001600160801b0319166001600160801b03929092169190911790555b600387015460005b818110156134335760008960030182815481106131d857634e487b7160e01b600052603260045260246000fd5b60009182526020808320909101546001600160a01b031680835260048d0190915260409091206001810154919250906001600160801b031661321b575050613421565b60018101548a54600091613249918a916001600160801b03600160801b918290048116929190910416613f60565b9050801561329057600382015461326d90611445906001600160801b031683613083565b6003830180546001600160801b0319166001600160801b03929092169190911790555b60018201546000906132b5906001600160801b0380821691600160801b900416613f17565b905060006132c489838a613f60565b9050801561340c5760018d015460009081906132ec908590600160901b900461ffff16613f23565b60028701549091506001600160801b0316811061332457600286015461331d9084906001600160801b031683613f60565b9150613328565b8291505b73__$e36f5330ef2566ea8a183e1e27b10de643$__63c502f9918f8986866001600060149054906101000a900461ffff166133639190614f2c565b60006040518763ffffffff1660e01b815260040161338696959493929190614b9e565b60006040518083038186803b15801561339e57600080fd5b505af41580156133b2573d6000803e3d6000fd5b50506000546133d0925060019150600160a01b900461ffff16614f2c565b61ffff16876001600160a01b03168e60ff1660008051602061505b8339815191528660405161340191815260200190565b60405180910390a450505b50505060010180546001600160801b03169055505b8061342b81614fb5565b9150506131ab565b505050505050505050565b8254600090613460906001600160801b0380821691600160801b900416613f17565b600387015490915060005b8181101561369657600088600301828154811061349857634e487b7160e01b600052603260045260246000fd5b60009182526020808320909101546001600160a01b031680835260048c0190915260409091206001810154919250906001600160801b03166134db575050613684565b60018101548854600091613509918a916001600160801b03600160801b918290048116929190910416613f60565b905080156135545760028201546135349061144590600160801b90046001600160801b031683613083565b6002830180546001600160801b03928316600160801b0292169190911790555b600182015460009061358590899061357f906001600160801b0380821691600160801b900416613f17565b89613f60565b905080156136705773__$e36f5330ef2566ea8a183e1e27b10de643$__63c502f9918d868460006001600060149054906101000a900461ffff166135c99190614f2c565b60006040518763ffffffff1660e01b81526004016135ec96959493929190614b9e565b60006040518083038186803b15801561360457600080fd5b505af4158015613618573d6000803e3d6000fd5b5050600054613636925060019150600160a01b900461ffff16614f2c565b61ffff16846001600160a01b03168c60ff1660008051602061505b8339815191528460405161366791815260200190565b60405180910390a45b505060010180546001600160801b03169055505b8061368e81614fb5565b91505061346b565b5050505050505050565b60005b60005460ff600160c01b90910481169082161015610cc95760ff81166000908152600760209081526040808320546001600160a01b031680845260089092528220825491929091600160a01b900461ffff166002146137345781546001600160801b0380821691600160801b90041661371b85613d69565b6137259190614e9e565b61372f9190614d6f565b613737565b60005b60018301546137499190600f0b614d6f565b6002830180546001600160801b0316905560405163b2838a7360e01b81526001600160a01b03851660048201523060248201529091506137f29073__$e36f5330ef2566ea8a183e1e27b10de643$__9063b2838a739060440160206040518083038186803b1580156137ba57600080fd5b505af41580156137ce573d6000803e3d6000fd5b505050506040513d601f19601f820116820180604052508101906114459190614915565b6001830180546001600160801b03928316600160801b02921691909117905561381d61144584613fa8565b600283810180546001600160801b03199081166001600160801b0394851617909155604080516080810182528654600160801b808204871683529086166020808401918252600f89810b8587019081526001600160a01b038d811660608801818152600091825260039095529790972086519451948b16948b16860294909417845551600184018054909816910b89161790955593519390940180546001600160a01b0319169390921692909217905584549092818116926138e192041684614d6f565b6138eb9190614e9e565b600184018054600f9290920b6001600160801b03166001600160801b0319909216919091179055505060009055508061392381614fd0565b9150506136a3565b6002541561394b5760405162461bcd60e51b8152600401610b6390614b7e565b6001600255806139675761395e82611d1f565b61396757600080fd5b604051631a4ca37b60e21b81526001600160a01b038086166004830152602482018590528316604482015273__$e36f5330ef2566ea8a183e1e27b10de643$__906369328dec9060640160006040518083038186803b1580156139c957600080fd5b505af41580156139dd573d6000803e3d6000fd5b50506000600255505050505050565b80516000805460ff600160b81b8204811692600160c01b90920416905b83811015613d32576000858281518110613a3357634e487b7160e01b600052603260045260246000fd5b60200260200101519050836002613a4a9190614e75565b613a55906001614dfb565b60ff16808252613a66906001614dfb565b60ff166020820152806004600086613a7d81614fd0565b60ff91821683526020808401949094526040928301600020855181549587015194870151606088015160808901516001600160a01b03908116600160201b02640100000000600160c01b031992881663010000000263ff0000001994891662010000029490941663ffff0000199989166101000261ffff19909b1695891695909517999099179790971692909217171694909417845560a08501516001909401805460c0909601511515600160a01b026001600160a81b0319909616949093169390931793909317905594508316613bef5760808101516007600085613b6281614fd0565b965060ff1660ff16815260200190815260200160002060006101000a8154816001600160a01b0302191690836001600160a01b031602179055508060a00151600760008580613bb090614fd0565b965060ff1660ff16815260200190815260200160002060006101000a8154816001600160a01b0302191690836001600160a01b03160217905550613d1f565b60008060005b8560ff168160ff161015613c7557608084015160ff82166000908152600760205260409020546001600160a01b0390811691161415613c3357600192505b60a084015160ff82166000908152600760205260409020546001600160a01b0390811691161415613c6357600191505b80613c6d81614fd0565b915050613bf5565b5081613cc95760808301516007600087613c8e81614fd0565b985060ff1660ff16815260200190815260200160002060006101000a8154816001600160a01b0302191690836001600160a01b031602179055505b80613d1c5760a08301516007600087613ce181614fd0565b985060ff1660ff16815260200190815260200160002060006101000a8154816001600160a01b0302191690836001600160a01b031602179055505b50505b5080613d2a81614fb5565b915050613a09565b506000805461ffff60b81b1916600160b81b60ff9485160260ff60c01b191617600160c01b92909316919091029190911790555050565b6001600160a01b0381166000908152600860205260408120613da8613d8d84613fa8565b6001830154600160801b90046001600160801b031690613083565b600282015460405163b2838a7360e01b81526001600160a01b0386166004820152306024820152613e63916001600160801b0380821692613e5d92600160801b90049091169073__$e36f5330ef2566ea8a183e1e27b10de643$__9063b2838a739060440160206040518083038186803b158015613e2557600080fd5b505af4158015613e39573d6000803e3d6000fd5b505050506040513d601f19601f82011682018060405250810190613e5d9190614915565b90613083565b61308f9190614eed565b600080546001600160a01b038381166001600160a01b0319831681178455604051919092169283917f8be0079c531659141344cd1fd0a4f28419497f9722a3daafe3b4186f6b6457e09190a35050565b604080516001600160a01b0385811660248301528416604482015260648082018490528251808303909101815260849091019091526020810180516001600160e01b03166323b872dd60e01b179052612ff390859061413b565b600061308f8284614f4f565b600061308f612710613f3f613f388583614de3565b869061420d565b90614219565b600081831015613f5657600061308f565b61308f8284614f4f565b6000821580613f6d575081155b80613f76575083155b15613f835750600061308f565b81831015613f9e57613f9982613f3f868661420d565b613fa0565b835b949350505050565b600080805b60005460ff600160b81b909104811690821610156141345760ff8116600090815260046020526040902080546001600160a01b03868116600160201b909204161480614008575060018101546001600160a01b038681169116145b1561412157805460ff8116600090815260066020526040902090614092906001600160a01b03888116600160201b9092041614614056578154600160801b90046001600160801b031661408b565b815460008054600160a01b900461ffff16815260028401602052604090205461408b916001600160801b039182169116613083565b8590613083565b8254610100900460ff16600090815260066020526040902060018401549195509061411c906001600160a01b038981169116146140e0578154600160801b90046001600160801b0316614115565b815460008054600160a01b900461ffff168152600284016020526040902054614115916001600160801b039182169116613083565b8690613083565b945050505b508061412c81614fd0565b915050613fad565b5092915050565b6000614190826040518060400160405280602081526020017f5361666545524332303a206c6f772d6c6576656c2063616c6c206661696c6564815250856001600160a01b03166142259092919063ffffffff16565b805190915015611ad857808060200190518101906141ae919061475f565b611ad85760405162461bcd60e51b815260206004820152602a60248201527f5361666545524332303a204552433230206f7065726174696f6e20646964206e6044820152691bdd081cdd58d8d9595960b21b6064820152608401610b63565b600061308f8284614e56565b600061308f8284614e20565b6060613fa0848460008585843b61427e5760405162461bcd60e51b815260206004820152601d60248201527f416464726573733a2063616c6c20746f206e6f6e2d636f6e74726163740000006044820152606401610b63565b600080866001600160a01b0316858760405161429a9190614ad8565b60006040518083038185875af1925050503d80600081146142d7576040519150601f19603f3d011682016040523d82523d6000602084013e6142dc565b606091505b50915091506142ec8282866142f7565b979650505050505050565b6060831561430657508161308f565b8251156143165782518084602001fd5b8160405162461bcd60e51b8152600401610b639190614af4565b80356001600160a01b038116811461434757600080fd5b919050565b80516143478161504c565b600060c08284031215614368578081fd5b60405160c0810181811067ffffffffffffffff8211171561438b5761438b615036565b60405290508061439a836143f8565b81526143a8602084016143f8565b60208201526143b9604084016143f8565b60408201526143ca606084016143f8565b60608201526143db608084016143f8565b60808201526143ec60a084016143f8565b60a08201525092915050565b80516001600160801b038116811461434757600080fd5b803560ff8116811461434757600080fd5b600060208284031215614431578081fd5b61308f82614330565b6000806040838503121561444c578081fd5b61445583614330565b915061446360208401614330565b90509250929050565b6000806040838503121561447e578182fd5b61448783614330565b915060208084013567ffffffffffffffff8111156144a3578283fd5b8401601f810186136144b3578283fd5b80356144c66144c182614d4b565b614d1a565b80828252848201915084840189868560051b87010111156144e5578687fd5b8694505b8385101561450e576144fa81614330565b8352600194909401939185019185016144e9565b5080955050505050509250929050565b60006020808385031215614530578182fd5b823567ffffffffffffffff811115614546578283fd5b8301601f81018513614556578283fd5b80356145646144c182614d4b565b80828252848201915084840188868560051b8701011115614583578687fd5b8694505b838510156145b15780356003811061459d578788fd5b835260019490940193918501918501614587565b50979650505050505050565b600060208083850312156145cf578182fd5b823567ffffffffffffffff8111156145e5578283fd5b8301601f810185136145f5578283fd5b80356146036144c182614d4b565b8181528381019083850160e0808502860187018a1015614621578788fd5b8795505b848610156146ca5780828b03121561463b578788fd5b614643614ca9565b61464c8361440f565b815261465988840161440f565b88820152604061466a81850161440f565b90820152606061467b84820161440f565b90820152608061468c848201614330565b9082015260a061469d848201614330565b9082015260c0838101356146b08161504c565b908201528452600195909501949286019290810190614625565b509098975050505050505050565b600060208083850312156146ea578182fd5b823567ffffffffffffffff811115614700578283fd5b8301601f81018513614710578283fd5b803561471e6144c182614d4b565b80828252848201915084840188868560051b870101111561473d578687fd5b8694505b838510156145b1578035835260019490940193918501918501614741565b600060208284031215614770578081fd5b815161308f8161504c565b6000610180828403121561478d578081fd5b614795614cd2565b825181526020830151602082015260408301516040820152606083015160608201526080830151608082015260a083015160a082015260c083015160c082015260e083015160e08201526101008084015181830152506101208084015181830152506101408084015181830152506101608084015181830152508091505092915050565b600060c0828403121561482a578081fd5b61308f8383614357565b60006101408284031215614846578081fd5b61484e614cf6565b614857836143f8565b8152614865602084016143f8565b6020820152614876604084016143f8565b6040820152614887606084016143f8565b6060820152614898608084016143f8565b60808201526148a960a084016143f8565b60a08201526148ba60c084016143f8565b60c08201526148cb60e084016143f8565b60e08201526101006148de8185016143f8565b908201526101206148f084820161434c565b908201529392505050565b60006020828403121561490c578081fd5b61308f826143f8565b600060208284031215614926578081fd5b5051919050565b60006020828403121561493e578081fd5b61308f8261440f565b60008060408385031215614959578182fd5b6149628361440f565b9150602083013561ffff81168114614978578182fd5b809150509250929050565b60008060408385031215614995578182fd5b61499e8361440f565b946020939093013593505050565b6000806000606084860312156149c0578081fd5b6149c98461440f565b9250602084013591506149de60408501614330565b90509250925092565b80516001600160801b031682526020810151614a0e60208401826001600160801b03169052565b506040810151614a2960408401826001600160801b03169052565b506060810151614a4460608401826001600160801b03169052565b506080810151614a5f60808401826001600160801b03169052565b5060a0810151614a7a60a08401826001600160801b03169052565b5060c0810151614a9560c08401826001600160801b03169052565b5060e0810151614ab060e08401826001600160801b03169052565b50610100818101516001600160801b0316908301526101208082015180151582850152612ff3565b60008251614aea818460208701614f89565b9190910192915050565b6020815260008251806020840152614b13816040850160208701614f89565b601f01601f19169190910160400192915050565b60208082526008908201526710b9b2ba3a3632b960c11b604082015260600190565b6020808252818101527f4f776e61626c653a2063616c6c6572206973206e6f7420746865206f776e6572604082015260600190565b6020808252600690820152651b1bd8dad95960d21b604082015260600190565b9586526001600160a01b039490941660208601526040850192909252606084015261ffff166080830152151560a082015260c00190565b958652931515602086015260ff92831660408601529116606084015261ffff166080830152151560a082015260c00190565b60c08101611f0382846001600160801b038082511683528060208301511660208401528060408301511660408401528060608301511660608401528060808301511660808401528060a08301511660a0840152505050565b6102a08101614c6e82866149e7565b614c7c6101408301856149e7565b60038310614c9a57634e487b7160e01b600052602160045260246000fd5b82610280830152949350505050565b60405160e0810167ffffffffffffffff81118282101715614ccc57614ccc615036565b60405290565b604051610180810167ffffffffffffffff81118282101715614ccc57614ccc615036565b604051610140810167ffffffffffffffff81118282101715614ccc57614ccc615036565b604051601f8201601f1916810167ffffffffffffffff81118282101715614d4357614d43615036565b604052919050565b600067ffffffffffffffff821115614d6557614d65615036565b5060051b60200190565b600081600f0b83600f0b8282128260016001607f1b0303821381151615614d9857614d9861500a565b8260016001607f1b0319038212811615614db457614db461500a565b50019392505050565b600061ffff808316818516808303821115614dda57614dda61500a565b01949350505050565b60008219821115614df657614df661500a565b500190565b600060ff821660ff84168060ff03821115614e1857614e1861500a565b019392505050565b600082614e2f57614e2f615020565b500490565b600060ff831680614e4757614e47615020565b8060ff84160491505092915050565b6000816000190483118215151615614e7057614e7061500a565b500290565b600060ff821660ff84168160ff0481118215151615614e9657614e9661500a565b029392505050565b600081600f0b83600f0b8281128160016001607f1b031901831281151615614ec857614ec861500a565b8160016001607f1b03018313811615614ee357614ee361500a565b5090039392505050565b60008083128015600160ff1b850184121615614f0b57614f0b61500a565b6001600160ff1b0384018313811615614f2657614f2661500a565b50500390565b600061ffff83811690831681811015614f4757614f4761500a565b039392505050565b600082821015614f6157614f6161500a565b500390565b600060ff821660ff841680821015614f8057614f8061500a565b90039392505050565b60005b83811015614fa4578181015183820152602001614f8c565b83811115612ff35750506000910152565b6000600019821415614fc957614fc961500a565b5060010190565b600060ff821660ff811415614fe757614fe761500a565b60010192915050565b6000600160ff1b8214156150065761500661500a565b0390565b634e487b7160e01b600052601160045260246000fd5b634e487b7160e01b600052601260045260246000fd5b634e487b7160e01b600052604160045260246000fd5b8015158114610cc957600080fdfee963a73e630cb9812a026653bfb6b1e14ffa92f8c38b79f318f2637557ea9f12a264697066735822122030eeecd46d9313889259c73d967c8f652e879a6c75eb7011a61ccffbdbb55f7464736f6c63430008040033",
  "libraries": {
    "OptionLifecycle": "0xe13f771d639acf82c70abe8c0c712682763aac67"
  },
  "devdoc": {
    "kind": "dev",
    "methods": {
      "owner()": {
        "details": "Returns the address of the current owner."
      },
      "renounceOwnership()": {
        "details": "Leaves the contract without owner. It will not be possible to call `onlyOwner` functions anymore. Can only be called by the current owner. NOTE: Renouncing ownership will leave the contract without an owner, thereby removing any functionality that is only available to the owner."
      },
      "transferOwnership(address)": {
        "details": "Transfers ownership of the contract to a new account (`newOwner`). Can only be called by the current owner."
      }
    },
    "version": 1
  },
  "userdoc": {
    "kind": "user",
    "methods": {},
    "version": 1
  },
  "storageLayout": {
    "storage": [
      {
        "astId": 222,
        "contract": "contracts/HodlBoosterOptionStatic.sol:HodlBoosterOptionStatic",
        "label": "_owner",
        "offset": 0,
        "slot": "0",
        "type": "t_address"
      },
      {
        "astId": 7272,
        "contract": "contracts/HodlBoosterOptionStatic.sol:HodlBoosterOptionStatic",
        "label": "currentRound",
        "offset": 20,
        "slot": "0",
        "type": "t_uint16"
      },
      {
        "astId": 7274,
        "contract": "contracts/HodlBoosterOptionStatic.sol:HodlBoosterOptionStatic",
        "label": "underSettlement",
        "offset": 22,
        "slot": "0",
        "type": "t_bool"
      },
      {
        "astId": 7276,
        "contract": "contracts/HodlBoosterOptionStatic.sol:HodlBoosterOptionStatic",
        "label": "optionPairCount",
        "offset": 23,
        "slot": "0",
        "type": "t_uint8"
      },
      {
        "astId": 7278,
        "contract": "contracts/HodlBoosterOptionStatic.sol:HodlBoosterOptionStatic",
        "label": "assetCount",
        "offset": 24,
        "slot": "0",
        "type": "t_uint8"
      },
      {
        "astId": 7280,
        "contract": "contracts/HodlBoosterOptionStatic.sol:HodlBoosterOptionStatic",
        "label": "settlerRoleAddress",
        "offset": 0,
        "slot": "1",
        "type": "t_address"
      },
      {
        "astId": 7283,
        "contract": "contracts/HodlBoosterOptionStatic.sol:HodlBoosterOptionStatic",
        "label": "locked",
        "offset": 0,
        "slot": "2",
        "type": "t_uint256"
      },
      {
        "astId": 7288,
        "contract": "contracts/HodlBoosterOptionStatic.sol:HodlBoosterOptionStatic",
        "label": "settlementCashflowResult",
        "offset": 0,
        "slot": "3",
        "type": "t_mapping(t_address,t_struct(SettlementCashflowResult)7011_storage)"
      },
      {
        "astId": 7293,
        "contract": "contracts/HodlBoosterOptionStatic.sol:HodlBoosterOptionStatic",
        "label": "optionPairs",
        "offset": 0,
        "slot": "4",
        "type": "t_mapping(t_uint8,t_struct(OptionPairDefinition)6967_storage)"
      },
      {
        "astId": 7298,
        "contract": "contracts/HodlBoosterOptionStatic.sol:HodlBoosterOptionStatic",
        "label": "executionAccountingResult",
        "offset": 0,
        "slot": "5",
        "type": "t_mapping(t_uint8,t_struct(OptionPairExecutionAccountingResult)7002_storage)"
      },
      {
        "astId": 7303,
        "contract": "contracts/HodlBoosterOptionStatic.sol:HodlBoosterOptionStatic",
        "label": "optionData",
        "offset": 0,
        "slot": "6",
        "type": "t_mapping(t_uint8,t_struct(OptionData)6909_storage)"
      },
      {
        "astId": 7307,
        "contract": "contracts/HodlBoosterOptionStatic.sol:HodlBoosterOptionStatic",
        "label": "asset",
        "offset": 0,
        "slot": "7",
        "type": "t_mapping(t_uint8,t_address)"
      },
      {
        "astId": 7312,
        "contract": "contracts/HodlBoosterOptionStatic.sol:HodlBoosterOptionStatic",
        "label": "assetData",
        "offset": 0,
        "slot": "8",
        "type": "t_mapping(t_address,t_struct(AssetData)6889_storage)"
      }
    ],
    "types": {
      "t_address": {
        "encoding": "inplace",
        "label": "address",
        "numberOfBytes": "20"
      },
      "t_array(t_address)dyn_storage": {
        "base": "t_address",
        "encoding": "dynamic_array",
        "label": "address[]",
        "numberOfBytes": "32"
      },
      "t_bool": {
        "encoding": "inplace",
        "label": "bool",
        "numberOfBytes": "1"
      },
      "t_enum(OptionExecution)6992": {
        "encoding": "inplace",
        "label": "enum StructureData.OptionExecution",
        "numberOfBytes": "1"
      },
      "t_int128": {
        "encoding": "inplace",
        "label": "int128",
        "numberOfBytes": "16"
      },
      "t_mapping(t_address,t_struct(AssetData)6889_storage)": {
        "encoding": "mapping",
        "key": "t_address",
        "label": "mapping(address => struct StructureData.AssetData)",
        "numberOfBytes": "32",
        "value": "t_struct(AssetData)6889_storage"
      },
      "t_mapping(t_address,t_struct(SettlementCashflowResult)7011_storage)": {
        "encoding": "mapping",
        "key": "t_address",
        "label": "mapping(address => struct StructureData.SettlementCashflowResult)",
        "numberOfBytes": "32",
        "value": "t_struct(SettlementCashflowResult)7011_storage"
      },
      "t_mapping(t_address,t_struct(UserState)6926_storage)": {
        "encoding": "mapping",
        "key": "t_address",
        "label": "mapping(address => struct StructureData.UserState)",
        "numberOfBytes": "32",
        "value": "t_struct(UserState)6926_storage"
      },
      "t_mapping(t_uint16,t_struct(OptionState)6851_storage)": {
        "encoding": "mapping",
        "key": "t_uint16",
        "label": "mapping(uint16 => struct StructureData.OptionState)",
        "numberOfBytes": "32",
        "value": "t_struct(OptionState)6851_storage"
      },
      "t_mapping(t_uint8,t_address)": {
        "encoding": "mapping",
        "key": "t_uint8",
        "label": "mapping(uint8 => address)",
        "numberOfBytes": "32",
        "value": "t_address"
      },
      "t_mapping(t_uint8,t_struct(OptionData)6909_storage)": {
        "encoding": "mapping",
        "key": "t_uint8",
        "label": "mapping(uint8 => struct StructureData.OptionData)",
        "numberOfBytes": "32",
        "value": "t_struct(OptionData)6909_storage"
      },
      "t_mapping(t_uint8,t_struct(OptionPairDefinition)6967_storage)": {
        "encoding": "mapping",
        "key": "t_uint8",
        "label": "mapping(uint8 => struct StructureData.OptionPairDefinition)",
        "numberOfBytes": "32",
        "value": "t_struct(OptionPairDefinition)6967_storage"
      },
      "t_mapping(t_uint8,t_struct(OptionPairExecutionAccountingResult)7002_storage)": {
        "encoding": "mapping",
        "key": "t_uint8",
        "label": "mapping(uint8 => struct StructureData.OptionPairExecutionAccountingResult)",
        "numberOfBytes": "32",
        "value": "t_struct(OptionPairExecutionAccountingResult)7002_storage"
      },
      "t_struct(AssetData)6889_storage": {
        "encoding": "inplace",
        "label": "struct StructureData.AssetData",
        "members": [
          {
            "astId": 6878,
            "contract": "contracts/HodlBoosterOptionStatic.sol:HodlBoosterOptionStatic",
            "label": "releasedAmount",
            "offset": 0,
            "slot": "0",
            "type": "t_uint128"
          },
          {
            "astId": 6880,
            "contract": "contracts/HodlBoosterOptionStatic.sol:HodlBoosterOptionStatic",
            "label": "depositAmount",
            "offset": 16,
            "slot": "0",
            "type": "t_uint128"
          },
          {
            "astId": 6882,
            "contract": "contracts/HodlBoosterOptionStatic.sol:HodlBoosterOptionStatic",
            "label": "leftOverAmount",
            "offset": 0,
            "slot": "1",
            "type": "t_int128"
          },
          {
            "astId": 6884,
            "contract": "contracts/HodlBoosterOptionStatic.sol:HodlBoosterOptionStatic",
            "label": "balanceAfterSettle",
            "offset": 16,
            "slot": "1",
            "type": "t_uint128"
          },
          {
            "astId": 6886,
            "contract": "contracts/HodlBoosterOptionStatic.sol:HodlBoosterOptionStatic",
            "label": "withdrawableAfterSettle",
            "offset": 0,
            "slot": "2",
            "type": "t_uint128"
          },
          {
            "astId": 6888,
            "contract": "contracts/HodlBoosterOptionStatic.sol:HodlBoosterOptionStatic",
            "label": "traderWithdrawn",
            "offset": 16,
            "slot": "2",
            "type": "t_uint128"
          }
        ],
        "numberOfBytes": "96"
      },
      "t_struct(OptionData)6909_storage": {
        "encoding": "inplace",
        "label": "struct StructureData.OptionData",
        "members": [
          {
            "astId": 6891,
            "contract": "contracts/HodlBoosterOptionStatic.sol:HodlBoosterOptionStatic",
            "label": "totalReleasedDepositAssetAmount",
            "offset": 0,
            "slot": "0",
            "type": "t_uint128"
          },
          {
            "astId": 6893,
            "contract": "contracts/HodlBoosterOptionStatic.sol:HodlBoosterOptionStatic",
            "label": "totalReleasedCounterPartyAssetAmount",
            "offset": 16,
            "slot": "0",
            "type": "t_uint128"
          },
          {
            "astId": 6895,
            "contract": "contracts/HodlBoosterOptionStatic.sol:HodlBoosterOptionStatic",
            "label": "assetToTerminateForNextRound",
            "offset": 0,
            "slot": "1",
            "type": "t_uint128"
          },
          {
            "astId": 6900,
            "contract": "contracts/HodlBoosterOptionStatic.sol:HodlBoosterOptionStatic",
            "label": "optionStates",
            "offset": 0,
            "slot": "2",
            "type": "t_mapping(t_uint16,t_struct(OptionState)6851_storage)"
          },
          {
            "astId": 6903,
            "contract": "contracts/HodlBoosterOptionStatic.sol:HodlBoosterOptionStatic",
            "label": "usersInvolved",
            "offset": 0,
            "slot": "3",
            "type": "t_array(t_address)dyn_storage"
          },
          {
            "astId": 6908,
            "contract": "contracts/HodlBoosterOptionStatic.sol:HodlBoosterOptionStatic",
            "label": "userStates",
            "offset": 0,
            "slot": "4",
            "type": "t_mapping(t_address,t_struct(UserState)6926_storage)"
          }
        ],
        "numberOfBytes": "160"
      },
      "t_struct(OptionPairDefinition)6967_storage": {
        "encoding": "inplace",
        "label": "struct StructureData.OptionPairDefinition",
        "members": [
          {
            "astId": 6954,
            "contract": "contracts/HodlBoosterOptionStatic.sol:HodlBoosterOptionStatic",
            "label": "callOptionId",
            "offset": 0,
            "slot": "0",
            "type": "t_uint8"
          },
          {
            "astId": 6956,
            "contract": "contracts/HodlBoosterOptionStatic.sol:HodlBoosterOptionStatic",
            "label": "putOptionId",
            "offset": 1,
            "slot": "0",
            "type": "t_uint8"
          },
          {
            "astId": 6958,
            "contract": "contracts/HodlBoosterOptionStatic.sol:HodlBoosterOptionStatic",
            "label": "depositAssetAmountDecimals",
            "offset": 2,
            "slot": "0",
            "type": "t_uint8"
          },
          {
            "astId": 6960,
            "contract": "contracts/HodlBoosterOptionStatic.sol:HodlBoosterOptionStatic",
            "label": "counterPartyAssetAmountDecimals",
            "offset": 3,
            "slot": "0",
            "type": "t_uint8"
          },
          {
            "astId": 6962,
            "contract": "contracts/HodlBoosterOptionStatic.sol:HodlBoosterOptionStatic",
            "label": "depositAsset",
            "offset": 4,
            "slot": "0",
            "type": "t_address"
          },
          {
            "astId": 6964,
            "contract": "contracts/HodlBoosterOptionStatic.sol:HodlBoosterOptionStatic",
            "label": "counterPartyAsset",
            "offset": 0,
            "slot": "1",
            "type": "t_address"
          },
          {
            "astId": 6966,
            "contract": "contracts/HodlBoosterOptionStatic.sol:HodlBoosterOptionStatic",
            "label": "manualDepositDisabled",
            "offset": 20,
            "slot": "1",
            "type": "t_bool"
          }
        ],
        "numberOfBytes": "64"
      },
      "t_struct(OptionPairExecutionAccountingResult)7002_storage": {
        "encoding": "inplace",
        "label": "struct StructureData.OptionPairExecutionAccountingResult",
        "members": [
          {
            "astId": 6995,
            "contract": "contracts/HodlBoosterOptionStatic.sol:HodlBoosterOptionStatic",
            "label": "callOptionResult",
            "offset": 0,
            "slot": "0",
            "type": "t_struct(SettlementAccountingResult)6988_storage"
          },
          {
            "astId": 6998,
            "contract": "contracts/HodlBoosterOptionStatic.sol:HodlBoosterOptionStatic",
            "label": "putOptionResult",
            "offset": 0,
            "slot": "5",
            "type": "t_struct(SettlementAccountingResult)6988_storage"
          },
          {
            "astId": 7001,
            "contract": "contracts/HodlBoosterOptionStatic.sol:HodlBoosterOptionStatic",
            "label": "execute",
            "offset": 0,
            "slot": "10",
            "type": "t_enum(OptionExecution)6992"
          }
        ],
        "numberOfBytes": "352"
      },
      "t_struct(OptionState)6851_storage": {
        "encoding": "inplace",
        "label": "struct StructureData.OptionState",
        "members": [
          {
            "astId": 6838,
            "contract": "contracts/HodlBoosterOptionStatic.sol:HodlBoosterOptionStatic",
            "label": "totalAmount",
            "offset": 0,
            "slot": "0",
            "type": "t_uint128"
          },
          {
            "astId": 6840,
            "contract": "contracts/HodlBoosterOptionStatic.sol:HodlBoosterOptionStatic",
            "label": "totalTerminate",
            "offset": 16,
            "slot": "0",
            "type": "t_uint128"
          },
          {
            "astId": 6842,
            "contract": "contracts/HodlBoosterOptionStatic.sol:HodlBoosterOptionStatic",
            "label": "strikePrice",
            "offset": 0,
            "slot": "1",
            "type": "t_uint128"
          },
          {
            "astId": 6844,
            "contract": "contracts/HodlBoosterOptionStatic.sol:HodlBoosterOptionStatic",
            "label": "round",
            "offset": 16,
            "slot": "1",
            "type": "t_uint16"
          },
          {
            "astId": 6846,
            "contract": "contracts/HodlBoosterOptionStatic.sol:HodlBoosterOptionStatic",
            "label": "premiumRate",
            "offset": 18,
            "slot": "1",
            "type": "t_uint16"
          },
          {
            "astId": 6848,
            "contract": "contracts/HodlBoosterOptionStatic.sol:HodlBoosterOptionStatic",
            "label": "executed",
            "offset": 20,
            "slot": "1",
            "type": "t_bool"
          },
          {
            "astId": 6850,
            "contract": "contracts/HodlBoosterOptionStatic.sol:HodlBoosterOptionStatic",
            "label": "callOrPut",
            "offset": 21,
            "slot": "1",
            "type": "t_bool"
          }
        ],
        "numberOfBytes": "64"
      },
      "t_struct(SettlementAccountingResult)6988_storage": {
        "encoding": "inplace",
        "label": "struct StructureData.SettlementAccountingResult",
        "members": [
          {
            "astId": 6969,
            "contract": "contracts/HodlBoosterOptionStatic.sol:HodlBoosterOptionStatic",
            "label": "depositAmount",
            "offset": 0,
            "slot": "0",
            "type": "t_uint128"
          },
          {
            "astId": 6971,
            "contract": "contracts/HodlBoosterOptionStatic.sol:HodlBoosterOptionStatic",
            "label": "autoRollAmount",
            "offset": 16,
            "slot": "0",
            "type": "t_uint128"
          },
          {
            "astId": 6973,
            "contract": "contracts/HodlBoosterOptionStatic.sol:HodlBoosterOptionStatic",
            "label": "autoRollPremium",
            "offset": 0,
            "slot": "1",
            "type": "t_uint128"
          },
          {
            "astId": 6975,
            "contract": "contracts/HodlBoosterOptionStatic.sol:HodlBoosterOptionStatic",
            "label": "releasedAmount",
            "offset": 16,
            "slot": "1",
            "type": "t_uint128"
          },
          {
            "astId": 6977,
            "contract": "contracts/HodlBoosterOptionStatic.sol:HodlBoosterOptionStatic",
            "label": "releasedPremium",
            "offset": 0,
            "slot": "2",
            "type": "t_uint128"
          },
          {
            "astId": 6979,
            "contract": "contracts/HodlBoosterOptionStatic.sol:HodlBoosterOptionStatic",
            "label": "autoRollCounterPartyAmount",
            "offset": 16,
            "slot": "2",
            "type": "t_uint128"
          },
          {
            "astId": 6981,
            "contract": "contracts/HodlBoosterOptionStatic.sol:HodlBoosterOptionStatic",
            "label": "autoRollCounterPartyPremium",
            "offset": 0,
            "slot": "3",
            "type": "t_uint128"
          },
          {
            "astId": 6983,
            "contract": "contracts/HodlBoosterOptionStatic.sol:HodlBoosterOptionStatic",
            "label": "releasedCounterPartyAmount",
            "offset": 16,
            "slot": "3",
            "type": "t_uint128"
          },
          {
            "astId": 6985,
            "contract": "contracts/HodlBoosterOptionStatic.sol:HodlBoosterOptionStatic",
            "label": "releasedCounterPartyPremium",
            "offset": 0,
            "slot": "4",
            "type": "t_uint128"
          },
          {
            "astId": 6987,
            "contract": "contracts/HodlBoosterOptionStatic.sol:HodlBoosterOptionStatic",
            "label": "executed",
            "offset": 16,
            "slot": "4",
            "type": "t_bool"
          }
        ],
        "numberOfBytes": "160"
      },
      "t_struct(SettlementCashflowResult)7011_storage": {
        "encoding": "inplace",
        "label": "struct StructureData.SettlementCashflowResult",
        "members": [
          {
            "astId": 7004,
            "contract": "contracts/HodlBoosterOptionStatic.sol:HodlBoosterOptionStatic",
            "label": "newDepositAmount",
            "offset": 0,
            "slot": "0",
            "type": "t_uint128"
          },
          {
            "astId": 7006,
            "contract": "contracts/HodlBoosterOptionStatic.sol:HodlBoosterOptionStatic",
            "label": "newReleasedAmount",
            "offset": 16,
            "slot": "0",
            "type": "t_uint128"
          },
          {
            "astId": 7008,
            "contract": "contracts/HodlBoosterOptionStatic.sol:HodlBoosterOptionStatic",
            "label": "leftOverAmount",
            "offset": 0,
            "slot": "1",
            "type": "t_int128"
          },
          {
            "astId": 7010,
            "contract": "contracts/HodlBoosterOptionStatic.sol:HodlBoosterOptionStatic",
            "label": "contractAddress",
            "offset": 0,
            "slot": "2",
            "type": "t_address"
          }
        ],
        "numberOfBytes": "96"
      },
      "t_struct(UserState)6926_storage": {
        "encoding": "inplace",
        "label": "struct StructureData.UserState",
        "members": [
          {
            "astId": 6911,
            "contract": "contracts/HodlBoosterOptionStatic.sol:HodlBoosterOptionStatic",
            "label": "pendingAsset",
            "offset": 0,
            "slot": "0",
            "type": "t_uint128"
          },
          {
            "astId": 6913,
            "contract": "contracts/HodlBoosterOptionStatic.sol:HodlBoosterOptionStatic",
            "label": "tempLocked",
            "offset": 16,
            "slot": "0",
            "type": "t_uint128"
          },
          {
            "astId": 6915,
            "contract": "contracts/HodlBoosterOptionStatic.sol:HodlBoosterOptionStatic",
            "label": "ongoingAsset",
            "offset": 0,
            "slot": "1",
            "type": "t_uint128"
          },
          {
            "astId": 6917,
            "contract": "contracts/HodlBoosterOptionStatic.sol:HodlBoosterOptionStatic",
            "label": "assetToTerminate",
            "offset": 16,
            "slot": "1",
            "type": "t_uint128"
          },
          {
            "astId": 6919,
            "contract": "contracts/HodlBoosterOptionStatic.sol:HodlBoosterOptionStatic",
            "label": "assetToTerminateForNextRound",
            "offset": 0,
            "slot": "2",
            "type": "t_uint128"
          },
          {
            "astId": 6921,
            "contract": "contracts/HodlBoosterOptionStatic.sol:HodlBoosterOptionStatic",
            "label": "releasedDepositAssetAmount",
            "offset": 16,
            "slot": "2",
            "type": "t_uint128"
          },
          {
            "astId": 6923,
            "contract": "contracts/HodlBoosterOptionStatic.sol:HodlBoosterOptionStatic",
            "label": "releasedCounterPartyAssetAmount",
            "offset": 0,
            "slot": "3",
            "type": "t_uint128"
          },
          {
            "astId": 6925,
            "contract": "contracts/HodlBoosterOptionStatic.sol:HodlBoosterOptionStatic",
            "label": "hasState",
            "offset": 16,
            "slot": "3",
            "type": "t_bool"
          }
        ],
        "numberOfBytes": "128"
      },
      "t_uint128": {
        "encoding": "inplace",
        "label": "uint128",
        "numberOfBytes": "16"
      },
      "t_uint16": {
        "encoding": "inplace",
        "label": "uint16",
        "numberOfBytes": "2"
      },
      "t_uint256": {
        "encoding": "inplace",
        "label": "uint256",
        "numberOfBytes": "32"
      },
      "t_uint8": {
        "encoding": "inplace",
        "label": "uint8",
        "numberOfBytes": "1"
      }
    }
  }
}