{
  "address": "0x97002a47D7edB97b15F8Cffa259AeD04Ecb801e1",
  "abi": [
    {
      "inputs": [
        {
          "internalType": "address",
          "name": "_owner",
          "type": "address"
        },
        {
          "internalType": "address",
          "name": "_settler",
          "type": "address"
        },
        {
          "components": [
            {
              "internalType": "uint8",
              "name": "callOptionId",
              "type": "uint8"
            },
            {
              "internalType": "uint8",
              "name": "putOptionId",
              "type": "uint8"
            },
            {
              "internalType": "uint8",
              "name": "depositAssetAmountDecimals",
              "type": "uint8"
            },
            {
              "internalType": "uint8",
              "name": "counterPartyAssetAmountDecimals",
              "type": "uint8"
            },
            {
              "internalType": "address",
              "name": "depositAsset",
              "type": "address"
            },
            {
              "internalType": "address",
              "name": "counterPartyAsset",
              "type": "address"
            },
            {
              "internalType": "bool",
              "name": "manualDepositDisabled",
              "type": "bool"
            }
          ],
          "internalType": "struct StructureData.OptionPairDefinition[]",
          "name": "_optionPairDefinitions",
          "type": "tuple[]"
        }
      ],
      "stateMutability": "nonpayable",
      "type": "constructor"
    },
    {
      "anonymous": false,
      "inputs": [
        {
          "indexed": true,
          "internalType": "uint8",
          "name": "optionId",
          "type": "uint8"
        },
        {
          "indexed": true,
          "internalType": "address",
          "name": "account",
          "type": "address"
        },
        {
          "indexed": true,
          "internalType": "uint16",
          "name": "round",
          "type": "uint16"
        },
        {
          "indexed": false,
          "internalType": "uint256",
          "name": "amount",
          "type": "uint256"
        }
      ],
      "name": "Deposit",
      "type": "event"
    },
    {
      "anonymous": false,
      "inputs": [
        {
          "indexed": true,
          "internalType": "address",
          "name": "previousOwner",
          "type": "address"
        },
        {
          "indexed": true,
          "internalType": "address",
          "name": "newOwner",
          "type": "address"
        }
      ],
      "name": "OwnershipTransferred",
      "type": "event"
    },
    {
      "anonymous": false,
      "inputs": [
        {
          "indexed": true,
          "internalType": "address",
          "name": "previousSettler",
          "type": "address"
        },
        {
          "indexed": true,
          "internalType": "address",
          "name": "newSettler",
          "type": "address"
        }
      ],
      "name": "SettlerChanged",
      "type": "event"
    },
    {
      "anonymous": false,
      "inputs": [
        {
          "indexed": true,
          "internalType": "uint8",
          "name": "optionId",
          "type": "uint8"
        },
        {
          "indexed": true,
          "internalType": "address",
          "name": "account",
          "type": "address"
        },
        {
          "indexed": true,
          "internalType": "address",
          "name": "asset",
          "type": "address"
        },
        {
          "indexed": false,
          "internalType": "uint256",
          "name": "amount",
          "type": "uint256"
        }
      ],
      "name": "Withdraw",
      "type": "event"
    },
    {
      "inputs": [
        {
          "components": [
            {
              "internalType": "uint8",
              "name": "callOptionId",
              "type": "uint8"
            },
            {
              "internalType": "uint8",
              "name": "putOptionId",
              "type": "uint8"
            },
            {
              "internalType": "uint8",
              "name": "depositAssetAmountDecimals",
              "type": "uint8"
            },
            {
              "internalType": "uint8",
              "name": "counterPartyAssetAmountDecimals",
              "type": "uint8"
            },
            {
              "internalType": "address",
              "name": "depositAsset",
              "type": "address"
            },
            {
              "internalType": "address",
              "name": "counterPartyAsset",
              "type": "address"
            },
            {
              "internalType": "bool",
              "name": "manualDepositDisabled",
              "type": "bool"
            }
          ],
          "internalType": "struct StructureData.OptionPairDefinition[]",
          "name": "_optionPairDefinitions",
          "type": "tuple[]"
        }
      ],
      "name": "addOptionPairs",
      "outputs": [],
      "stateMutability": "nonpayable",
      "type": "function"
    },
    {
      "inputs": [
        {
          "internalType": "address",
          "name": "_asset",
          "type": "address"
        }
      ],
      "name": "balanceEnough",
      "outputs": [
        {
          "internalType": "bool",
          "name": "",
          "type": "bool"
        }
      ],
      "stateMutability": "view",
      "type": "function"
    },
    {
      "inputs": [
        {
          "internalType": "address",
          "name": "_trader",
          "type": "address"
        },
        {
          "internalType": "address[]",
          "name": "_assets",
          "type": "address[]"
        }
      ],
      "name": "batchWithdrawAssets",
      "outputs": [],
      "stateMutability": "nonpayable",
      "type": "function"
    },
    {
      "inputs": [
        {
          "internalType": "uint8",
          "name": "_optionId",
          "type": "uint8"
        },
        {
          "internalType": "uint256",
          "name": "_assetToTerminate",
          "type": "uint256"
        }
      ],
      "name": "cancelWithdraw",
      "outputs": [],
      "stateMutability": "nonpayable",
      "type": "function"
    },
    {
      "inputs": [],
      "name": "currentRound",
      "outputs": [
        {
          "internalType": "uint16",
          "name": "",
          "type": "uint16"
        }
      ],
      "stateMutability": "view",
      "type": "function"
    },
    {
      "inputs": [
        {
          "internalType": "uint8",
          "name": "_optionId",
          "type": "uint8"
        },
        {
          "internalType": "uint256",
          "name": "_amount",
          "type": "uint256"
        }
      ],
      "name": "deposit",
      "outputs": [],
      "stateMutability": "nonpayable",
      "type": "function"
    },
    {
      "inputs": [
        {
          "internalType": "uint8",
          "name": "_optionId",
          "type": "uint8"
        }
      ],
      "name": "depositETH",
      "outputs": [],
      "stateMutability": "payable",
      "type": "function"
    },
    {
      "inputs": [
        {
          "internalType": "uint8",
          "name": "",
          "type": "uint8"
        }
      ],
      "name": "executionAccountingResult",
      "outputs": [
        {
          "components": [
            {
              "internalType": "uint128",
              "name": "depositAmount",
              "type": "uint128"
            },
            {
              "internalType": "uint128",
              "name": "autoRollAmount",
              "type": "uint128"
            },
            {
              "internalType": "uint128",
              "name": "autoRollPremium",
              "type": "uint128"
            },
            {
              "internalType": "uint128",
              "name": "releasedAmount",
              "type": "uint128"
            },
            {
              "internalType": "uint128",
              "name": "releasedPremium",
              "type": "uint128"
            },
            {
              "internalType": "uint128",
              "name": "autoRollCounterPartyAmount",
              "type": "uint128"
            },
            {
              "internalType": "uint128",
              "name": "autoRollCounterPartyPremium",
              "type": "uint128"
            },
            {
              "internalType": "uint128",
              "name": "releasedCounterPartyAmount",
              "type": "uint128"
            },
            {
              "internalType": "uint128",
              "name": "releasedCounterPartyPremium",
              "type": "uint128"
            },
            {
              "internalType": "bool",
              "name": "executed",
              "type": "bool"
            }
          ],
          "internalType": "struct StructureData.SettlementAccountingResult",
          "name": "callOptionResult",
          "type": "tuple"
        },
        {
          "components": [
            {
              "internalType": "uint128",
              "name": "depositAmount",
              "type": "uint128"
            },
            {
              "internalType": "uint128",
              "name": "autoRollAmount",
              "type": "uint128"
            },
            {
              "internalType": "uint128",
              "name": "autoRollPremium",
              "type": "uint128"
            },
            {
              "internalType": "uint128",
              "name": "releasedAmount",
              "type": "uint128"
            },
            {
              "internalType": "uint128",
              "name": "releasedPremium",
              "type": "uint128"
            },
            {
              "internalType": "uint128",
              "name": "autoRollCounterPartyAmount",
              "type": "uint128"
            },
            {
              "internalType": "uint128",
              "name": "autoRollCounterPartyPremium",
              "type": "uint128"
            },
            {
              "internalType": "uint128",
              "name": "releasedCounterPartyAmount",
              "type": "uint128"
            },
            {
              "internalType": "uint128",
              "name": "releasedCounterPartyPremium",
              "type": "uint128"
            },
            {
              "internalType": "bool",
              "name": "executed",
              "type": "bool"
            }
          ],
          "internalType": "struct StructureData.SettlementAccountingResult",
          "name": "putOptionResult",
          "type": "tuple"
        },
        {
          "internalType": "enum StructureData.OptionExecution",
          "name": "execute",
          "type": "uint8"
        }
      ],
      "stateMutability": "view",
      "type": "function"
    },
    {
      "inputs": [
        {
          "internalType": "uint8",
          "name": "_optionId",
          "type": "uint8"
        }
      ],
      "name": "getAccountBalance",
      "outputs": [
        {
          "components": [
            {
              "internalType": "uint128",
              "name": "pendingDepositAssetAmount",
              "type": "uint128"
            },
            {
              "internalType": "uint128",
              "name": "lockedDepositAssetAmount",
              "type": "uint128"
            },
            {
              "internalType": "uint128",
              "name": "terminatingDepositAssetAmount",
              "type": "uint128"
            },
            {
              "internalType": "uint128",
              "name": "toTerminateDepositAssetAmount",
              "type": "uint128"
            },
            {
              "internalType": "uint128",
              "name": "releasedDepositAssetAmount",
              "type": "uint128"
            },
            {
              "internalType": "uint128",
              "name": "releasedCounterPartyAssetAmount",
              "type": "uint128"
            }
          ],
          "internalType": "struct StructureData.UserBalance",
          "name": "",
          "type": "tuple"
        }
      ],
      "stateMutability": "view",
      "type": "function"
    },
    {
      "inputs": [
        {
          "internalType": "uint8",
          "name": "_optionId",
          "type": "uint8"
        }
      ],
      "name": "getOptionSnapShot",
      "outputs": [
        {
          "components": [
            {
              "internalType": "uint128",
              "name": "totalPending",
              "type": "uint128"
            },
            {
              "internalType": "uint128",
              "name": "totalLocked",
              "type": "uint128"
            },
            {
              "internalType": "uint128",
              "name": "totalTerminating",
              "type": "uint128"
            },
            {
              "internalType": "uint128",
              "name": "totalToTerminate",
              "type": "uint128"
            },
            {
              "internalType": "uint128",
              "name": "totalReleasedDeposit",
              "type": "uint128"
            },
            {
              "internalType": "uint128",
              "name": "totalReleasedCounterParty",
              "type": "uint128"
            }
          ],
          "internalType": "struct StructureData.OptionSnapshot",
          "name": "",
          "type": "tuple"
        }
      ],
      "stateMutability": "view",
      "type": "function"
    },
    {
      "inputs": [
        {
          "internalType": "uint8",
          "name": "_optionId",
          "type": "uint8"
        },
        {
          "internalType": "uint16",
          "name": "_round",
          "type": "uint16"
        }
      ],
      "name": "getOptionStateByRound",
      "outputs": [
        {
          "components": [
            {
              "internalType": "uint128",
              "name": "totalAmount",
              "type": "uint128"
            },
            {
              "internalType": "uint128",
              "name": "totalTerminate",
              "type": "uint128"
            },
            {
              "internalType": "uint128",
              "name": "strikePrice",
              "type": "uint128"
            },
            {
              "internalType": "uint16",
              "name": "round",
              "type": "uint16"
            },
            {
              "internalType": "uint16",
              "name": "premiumRate",
              "type": "uint16"
            },
            {
              "internalType": "bool",
              "name": "executed",
              "type": "bool"
            },
            {
              "internalType": "bool",
              "name": "callOrPut",
              "type": "bool"
            }
          ],
          "internalType": "struct StructureData.OptionState",
          "name": "",
          "type": "tuple"
        }
      ],
      "stateMutability": "view",
      "type": "function"
    },
    {
      "inputs": [],
      "name": "initiateSettlement",
      "outputs": [],
      "stateMutability": "nonpayable",
      "type": "function"
    },
    {
      "inputs": [
        {
          "internalType": "uint8",
          "name": "_optionId",
          "type": "uint8"
        },
        {
          "internalType": "uint256",
          "name": "_assetToTerminate",
          "type": "uint256"
        }
      ],
      "name": "initiateWithraw",
      "outputs": [],
      "stateMutability": "nonpayable",
      "type": "function"
    },
    {
      "inputs": [],
      "name": "optionPairCount",
      "outputs": [
        {
          "internalType": "uint8",
          "name": "",
          "type": "uint8"
        }
      ],
      "stateMutability": "view",
      "type": "function"
    },
    {
      "inputs": [
        {
          "internalType": "uint8",
          "name": "",
          "type": "uint8"
        }
      ],
      "name": "optionPairs",
      "outputs": [
        {
          "internalType": "uint8",
          "name": "callOptionId",
          "type": "uint8"
        },
        {
          "internalType": "uint8",
          "name": "putOptionId",
          "type": "uint8"
        },
        {
          "internalType": "uint8",
          "name": "depositAssetAmountDecimals",
          "type": "uint8"
        },
        {
          "internalType": "uint8",
          "name": "counterPartyAssetAmountDecimals",
          "type": "uint8"
        },
        {
          "internalType": "address",
          "name": "depositAsset",
          "type": "address"
        },
        {
          "internalType": "address",
          "name": "counterPartyAsset",
          "type": "address"
        },
        {
          "internalType": "bool",
          "name": "manualDepositDisabled",
          "type": "bool"
        }
      ],
      "stateMutability": "view",
      "type": "function"
    },
    {
      "inputs": [],
      "name": "owner",
      "outputs": [
        {
          "internalType": "address",
          "name": "",
          "type": "address"
        }
      ],
      "stateMutability": "view",
      "type": "function"
    },
    {
      "inputs": [],
      "name": "renounceOwnership",
      "outputs": [],
      "stateMutability": "nonpayable",
      "type": "function"
    },
    {
      "inputs": [
        {
          "internalType": "uint256[]",
          "name": "_parameters",
          "type": "uint256[]"
        }
      ],
      "name": "setOptionParameters",
      "outputs": [],
      "stateMutability": "nonpayable",
      "type": "function"
    },
    {
      "inputs": [
        {
          "internalType": "address",
          "name": "_settler",
          "type": "address"
        }
      ],
      "name": "setSettler",
      "outputs": [],
      "stateMutability": "nonpayable",
      "type": "function"
    },
    {
      "inputs": [
        {
          "internalType": "enum StructureData.OptionExecution[]",
          "name": "_execution",
          "type": "uint8[]"
        }
      ],
      "name": "settle",
      "outputs": [],
      "stateMutability": "nonpayable",
      "type": "function"
    },
    {
      "inputs": [
        {
          "internalType": "address",
          "name": "",
          "type": "address"
        }
      ],
      "name": "settlementCashflowResult",
      "outputs": [
        {
          "internalType": "uint128",
          "name": "newDepositAmount",
          "type": "uint128"
        },
        {
          "internalType": "uint128",
          "name": "newReleasedAmount",
          "type": "uint128"
        },
        {
          "internalType": "int128",
          "name": "leftOverAmount",
          "type": "int128"
        },
        {
          "internalType": "address",
          "name": "contractAddress",
          "type": "address"
        }
      ],
      "stateMutability": "view",
      "type": "function"
    },
    {
      "inputs": [
        {
          "internalType": "uint8",
          "name": "_pairId",
          "type": "uint8"
        }
      ],
      "name": "toggleOptionPairDeposit",
      "outputs": [],
      "stateMutability": "nonpayable",
      "type": "function"
    },
    {
      "inputs": [
        {
          "internalType": "address",
          "name": "newOwner",
          "type": "address"
        }
      ],
      "name": "transferOwnership",
      "outputs": [],
      "stateMutability": "nonpayable",
      "type": "function"
    },
    {
      "inputs": [],
      "name": "underSettlement",
      "outputs": [
        {
          "internalType": "bool",
          "name": "",
          "type": "bool"
        }
      ],
      "stateMutability": "view",
      "type": "function"
    },
    {
      "inputs": [
        {
          "internalType": "uint8",
          "name": "_optionId",
          "type": "uint8"
        },
        {
          "internalType": "uint256",
          "name": "_amount",
          "type": "uint256"
        },
        {
          "internalType": "address",
          "name": "_asset",
          "type": "address"
        }
      ],
      "name": "withdraw",
      "outputs": [],
      "stateMutability": "nonpayable",
      "type": "function"
    },
    {
      "inputs": [
        {
          "internalType": "address",
          "name": "_trader",
          "type": "address"
        },
        {
          "internalType": "address",
          "name": "_asset",
          "type": "address"
        }
      ],
      "name": "withdrawAsset",
      "outputs": [],
      "stateMutability": "nonpayable",
      "type": "function"
    },
    {
      "stateMutability": "payable",
      "type": "receive"
    }
  ],
  "transactionHash": "0xf176a5b0c8c6c5869efd42fbde11b8df0457e0a722642bf66101f532067fc990",
  "args": [
    "0xf9C2085C9601dd5D4F06762F94C31D0F8c419329",
    "0x0B1983a488Bcad8f16AaDa89BEd47CdCa4eECB42",
    [
      {
        "depositAssetAmountDecimals": 18,
        "counterPartyAssetAmountDecimals": 6,
        "depositAsset": "0x0000000000000000000000000000000000000000",
        "counterPartyAsset": "0x0f3210636461Ae2C7ADAEF4d1A8124EB0F3b63fA",
        "callOptionId": 0,
        "putOptionId": 0
      },
      {
        "depositAssetAmountDecimals": 8,
        "counterPartyAssetAmountDecimals": 6,
        "depositAsset": "0xE75e6098CE2d7F289b07ABB055321d690ed2912d",
        "counterPartyAsset": "0x0f3210636461Ae2C7ADAEF4d1A8124EB0F3b63fA",
        "callOptionId": 0,
        "putOptionId": 0
      }
    ]
  ],
  "solcInputHash": "5e95389015bc435e8e3a8d35d6bbc310",
  "bytecode": "0x60806040523480156200001157600080fd5b50604051620059d7380380620059d7833981016040819052620000349162000595565b6200003f33620000a6565b6001600160a01b0383166200005357600080fd5b6001600160a01b0382166200006757600080fd5b60006001556200007783620000f6565b600280546001600160a01b0319166001600160a01b0384161790556200009d81620001cb565b5050506200082c565b600080546001600160a01b038381166001600160a01b0319831681178455604051919092169283917f8be0079c531659141344cd1fd0a4f28419497f9722a3daafe3b4186f6b6457e09190a35050565b6000546001600160a01b03163314620001565760405162461bcd60e51b815260206004820181905260248201527f4f776e61626c653a2063616c6c6572206973206e6f7420746865206f776e657260448201526064015b60405180910390fd5b6001600160a01b038116620001bd5760405162461bcd60e51b815260206004820152602660248201527f4f776e61626c653a206e6577206f776e657220697320746865207a65726f206160448201526564647265737360d01b60648201526084016200014d565b620001c881620000a6565b50565b805160025460ff600160b01b8204811691600160b81b90041660005b838110156200052f5760008582815181106200021357634e487b7160e01b600052603260045260246000fd5b602002602001015190508360026200022c919062000793565b620002399060016200076b565b60ff168082526200024c9060016200076b565b60ff1660208201528060056000866200026581620007dd565b60ff91821683526020808401949094526040928301600020855181549587015194870151606088015160808901516001600160a01b0390811664010000000002600160201b600160c01b031992881663010000000263ff0000001994891662010000029490941663ffff0000199989166101000261ffff19909b1695891695909517999099179790971692909217171694909417845560a08501516001909401805460c0909601511515600160a01b026001600160a81b0319909616949093169390931793909317905594508316620003dd57608081015160086000856200034d81620007dd565b965060ff1660ff16815260200190815260200160002060006101000a8154816001600160a01b0302191690836001600160a01b031602179055508060a001516008600085806200039d90620007dd565b965060ff1660ff16815260200190815260200160002060006101000a8154816001600160a01b0302191690836001600160a01b0316021790555062000519565b60008060005b8560ff168160ff1610156200046957608084015160ff82166000908152600860205260409020546001600160a01b03908116911614156200042357600192505b60a084015160ff82166000908152600860205260409020546001600160a01b03908116911614156200045457600191505b806200046081620007dd565b915050620003e3565b5081620004c057608083015160086000876200048581620007dd565b985060ff1660ff16815260200190815260200160002060006101000a8154816001600160a01b0302191690836001600160a01b031602179055505b80620005165760a08301516008600087620004db81620007dd565b985060ff1660ff16815260200190815260200160002060006101000a8154816001600160a01b0302191690836001600160a01b031602179055505b50505b50806200052681620007bf565b915050620001e7565b506002805461ffff60b01b1916600160b01b60ff9485160260ff60b81b191617600160b81b92909316919091029190911790555050565b80516001600160a01b03811681146200057e57600080fd5b919050565b805160ff811681146200057e57600080fd5b60008060006060808587031215620005ab578384fd5b620005b68562000566565b93506020620005c781870162000566565b604087810151919550906001600160401b0380821115620005e6578586fd5b818901915089601f830112620005fa578586fd5b8151818111156200060f576200060f62000816565b6200061f858260051b0162000738565b818152858101925083860160e0808402860188018e10156200063f57898afd5b8995505b83861015620006fa5780828f0312156200065b57898afd5b620006656200070d565b620006708362000583565b81526200067f89840162000583565b898201526200069088840162000583565b88820152620006a18a840162000583565b8a8201526080620006b481850162000566565b9082015260a0620006c784820162000566565b9082015260c0838101518015158114620006df578c8dfd5b90820152855260019590950194938701939081019062000643565b5050809750505050505050509250925092565b60405160e081016001600160401b038111828210171562000732576200073262000816565b60405290565b604051601f8201601f191681016001600160401b038111828210171562000763576200076362000816565b604052919050565b600060ff821660ff84168060ff038211156200078b576200078b62000800565b019392505050565b600060ff821660ff84168160ff0481118215151615620007b757620007b762000800565b029392505050565b6000600019821415620007d657620007d662000800565b5060010190565b600060ff821660ff811415620007f757620007f762000800565b60010192915050565b634e487b7160e01b600052601160045260246000fd5b634e487b7160e01b600052604160045260246000fd5b61519b806200083c6000396000f3fe6080604052600436106101855760003560e01c8063644d41ed116100d15780638a19c8bc1161008a578063c78b432e11610064578063c78b432e14610abb578063ddd0247514610ad0578063f2fde38b14610b03578063f4d4c9d714610b2357600080fd5b80638a19c8bc146108f55780638da5cb5b1461092a578063c5cfc5be1461095257600080fd5b8063644d41ed146107ba5780636b37e4e3146107da5780637101868214610807578063715018a6146108275780637332655b1461083c57806383eb772e1461085c57600080fd5b806332b76e861161013e57806355bf621f1161011857806355bf621f146106975780635d3e0e4d146106b75780635edae4db146106d75780636386bcc4146106f757600080fd5b806332b76e861461025c5780634dd96f861461027c57806351fe669e1461029c57600080fd5b806302c178d7146101915780630748248f146101b357806307f19eba146101e9578063222f6b8314610209578063256d43d71461022957806326b516991461023c57600080fd5b3661018c57005b600080fd5b34801561019d57600080fd5b506101b16101ac366004614525565b610b43565b005b3480156101bf57600080fd5b506002546101d490600160c01b900460ff1681565b60405190151581526020015b60405180910390f35b3480156101f557600080fd5b506101b161020436600461450b565b610c94565b34801561021557600080fd5b506101b1610224366004614a6e565b610cca565b6101b1610237366004614a18565b610db6565b34801561024857600080fd5b506101b1610257366004614557565b61100f565b34801561026857600080fd5b506101b1610277366004614609565b6111f8565b34801561028857600080fd5b506101b16102973660046147c3565b6119a2565b3480156102a857600080fd5b506106886102b7366004614a18565b600660205280600052604060002060009150905080600001604051806101400160405290816000820160009054906101000a90046001600160801b03166001600160801b03166001600160801b031681526020016000820160109054906101000a90046001600160801b03166001600160801b03166001600160801b031681526020016001820160009054906101000a90046001600160801b03166001600160801b03166001600160801b031681526020016001820160109054906101000a90046001600160801b03166001600160801b03166001600160801b031681526020016002820160009054906101000a90046001600160801b03166001600160801b03166001600160801b031681526020016002820160109054906101000a90046001600160801b03166001600160801b03166001600160801b031681526020016003820160009054906101000a90046001600160801b03166001600160801b03166001600160801b031681526020016003820160109054906101000a90046001600160801b03166001600160801b03166001600160801b031681526020016004820160009054906101000a90046001600160801b03166001600160801b03166001600160801b031681526020016004820160109054906101000a900460ff1615151515815250509080600501604051806101400160405290816000820160009054906101000a90046001600160801b03166001600160801b03166001600160801b031681526020016000820160109054906101000a90046001600160801b03166001600160801b03166001600160801b031681526020016001820160009054906101000a90046001600160801b03166001600160801b03166001600160801b031681526020016001820160109054906101000a90046001600160801b03166001600160801b03166001600160801b031681526020016002820160009054906101000a90046001600160801b03166001600160801b03166001600160801b031681526020016002820160109054906101000a90046001600160801b03166001600160801b03166001600160801b031681526020016003820160009054906101000a90046001600160801b03166001600160801b03166001600160801b031681526020016003820160109054906101000a90046001600160801b03166001600160801b03166001600160801b031681526020016004820160009054906101000a90046001600160801b03166001600160801b03166001600160801b031681526020016004820160109054906101000a900460ff1615151515815250509080600a0160009054906101000a900460ff16905083565b6040516101e093929190614d4a565b3480156106a357600080fd5b506101b16106b2366004614a97565b611b4c565b3480156106c357600080fd5b506101b16106d2366004614a18565b611d31565b3480156106e357600080fd5b506101b16106f23660046146a8565b611d91565b34801561070357600080fd5b5061076c610712366004614a18565b6005602052600090815260409020805460019091015460ff808316926101008104821692620100008204831692630100000083048116926001600160a01b03600160201b90910481169290811691600160a01b9091041687565b6040805160ff98891681529688166020880152948716948601949094529490911660608401526001600160a01b03908116608084015290921660a082015290151560c082015260e0016101e0565b3480156107c657600080fd5b506101d46107d536600461450b565b611dc4565b3480156107e657600080fd5b506107fa6107f5366004614a18565b611eba565b6040516101e09190614cf2565b34801561081357600080fd5b506107fa610822366004614a18565b611faf565b34801561083357600080fd5b506101b1612058565b34801561084857600080fd5b506101b1610857366004614a6e565b61208e565b34801561086857600080fd5b506108b861087736600461450b565b6003602052600090815260409020805460018201546002909201546001600160801b0380831693600160801b9093041691600f0b906001600160a01b031684565b604080516001600160801b039586168152949093166020850152600f9190910b918301919091526001600160a01b031660608201526080016101e0565b34801561090157600080fd5b5060025461091790600160a01b900461ffff1681565b60405161ffff90911681526020016101e0565b34801561093657600080fd5b506000546040516001600160a01b0390911681526020016101e0565b34801561095e57600080fd5b50610a4861096d366004614a32565b6040805160e081018252600080825260208201819052918101829052606081018290526080810182905260a0810182905260c08101919091525060ff808316600090815260076020908152604080832061ffff80871685526002909101835292819020815160e08101835281546001600160801b038082168352600160801b9182900481169583019590955260019092015493841692810192909252820483166060820152600160901b82049092166080830152600160a01b81048316151560a0830152600160a81b9004909116151560c082015292915050565b6040516101e09190600060e0820190506001600160801b0380845116835280602085015116602084015280604085015116604084015250606083015161ffff8082166060850152806080860151166080850152505060a0830151151560a083015260c0830151151560c083015292915050565b348015610ac757600080fd5b506101b1612149565b348015610adc57600080fd5b50600254610af190600160b01b900460ff1681565b60405160ff90911681526020016101e0565b348015610b0f57600080fd5b506101b1610b1e36600461450b565b612e0f565b348015610b2f57600080fd5b506101b1610b3e366004614a6e565b612ea7565b60015415610b6c5760405162461bcd60e51b8152600401610b6390614c69565b60405180910390fd5b600180556002546001600160a01b03163314610b9a5760405162461bcd60e51b8152600401610b6390614c12565b6001600160a01b038116600090815260046020526040812060018101549091600f91820b90910b13610bcb57600080fd5b6001810154604051631a4ca37b60e21b81526001600160a01b0380861660048301526001600160801b03600f9390930b92831660248301528416604482015273aa8Dc910cab2Bd9d9442a290157349eba3561F05906369328dec9060640160006040518083038186803b158015610c4157600080fd5b505af4158015610c55573d6000803e3d6000fd5b5050506002830180546001600160801b03938416600160801b0293169290921790915550600190810180546001600160801b0319169055600090555050565b6000546001600160a01b03163314610cbe5760405162461bcd60e51b8152600401610b6390614c34565b610cc781613114565b50565b8160ff811615801590610cfe5750600260169054906101000a900460ff166002610cf49190614f60565b60ff168160ff1611155b610d0757600080fd5b60ff838116600090815260076020526040908190206002549151638a229a5760e01b8152600481019190915233602482015260448101859052600160c01b820490921615156064830152600160a01b900461ffff16608482015273aa8Dc910cab2Bd9d9442a290157349eba3561F0590638a229a579060a4015b60006040518083038186803b158015610d9957600080fd5b505af4158015610dad573d6000803e3d6000fd5b50505050505050565b8060ff811615801590610dea5750600260169054906101000a900460ff166002610de09190614f60565b60ff168160ff1611155b610df357600080fd5b600254600160a01b900461ffff16610e385760405162461bcd60e51b81526020600482015260086024820152670854dd185c9d195960c21b6044820152606401610b63565b60003411610e735760405162461bcd60e51b81526020600482015260086024820152676e6f2076616c756560c01b6044820152606401610b63565b60006005816002610e85600187615051565b610e8f9190614f1f565b60ff908116825260208201929092526040016000206001810154909250600160a01b90041615610ef35760405162461bcd60e51b815260206004820152600f60248201526e11195c1bdcda5d111a5cd8589b1959608a1b6044820152606401610b63565b805460009060ff858116911614610f175760018201546001600160a01b0316610f2a565b8154600160201b90046001600160a01b03165b90506001600160a01b03811615610f4057600080fd5b60ff8416600090815260076020526040808220600254915163c502f99160e01b815273aa8Dc910cab2Bd9d9442a290157349eba3561F059363c502f99193610fa19392339234929091600160a01b90910461ffff1690600190600401614c89565b60006040518083038186803b158015610fb957600080fd5b505af4158015610fcd573d6000803e3d6000fd5b5050600254604051348152600160a01b90910461ffff16925033915060ff8716906000805160206151468339815191529060200160405180910390a450505050565b6001541561102f5760405162461bcd60e51b8152600401610b6390614c69565b600180556002546001600160a01b0316331461105d5760405162461bcd60e51b8152600401610b6390614c12565b805160005b818110156111ed5760006004600085848151811061109057634e487b7160e01b600052603260045260246000fd5b60200260200101516001600160a01b03166001600160a01b03168152602001908152602001600020905060008160010160009054906101000a9004600f0b600f0b136110db57600080fd5b60008160010160009054906101000a9004600f0b905073aa8Dc910cab2Bd9d9442a290157349eba3561F056369328dec87836001600160801b031688878151811061113657634e487b7160e01b600052603260045260246000fd5b60200260200101516040518463ffffffff1660e01b815260040161117a939291906001600160a01b0393841681526020810192909252909116604082015260600190565b60006040518083038186803b15801561119257600080fd5b505af41580156111a6573d6000803e3d6000fd5b5050506002830180546001600160801b03938416600160801b029316929092179091555060010180546001600160801b0319169055806111e5816150a0565b915050611062565b505060006001555050565b6002546001600160a01b031633146112225760405162461bcd60e51b8152600401610b6390614c12565b600254600160c01b900460ff1661123857600080fd5b8051600254600160b01b900460ff16811461125257600080fd5b60025460009061126f90600190600160a01b900461ffff16615017565b905060005b828160ff161015611987576000848260ff16815181106112a457634e487b7160e01b600052603260045260246000fd5b60209081029190910181015160ff80851660009081526005845260408082208054808516845260078752828420610100918290049095168452828420835161018081018552858152978801859052928701849052606087018490526080870184905260a0870184905260c0870184905260e08701849052860183905261012086018390526101408601839052610160860192909252929450929091906000600284018161135260018b615017565b61ffff168152602081019190915260400160002080549091506001600160801b0316156115ec57845473aa8Dc910cab2Bd9d9442a290157349eba3561F059063aab69633908690849060019060ff6201000082048116916301000000900416828d60028111156113d257634e487b7160e01b600052602160045260246000fd5b6040516001600160e01b031960e08a901b16815260048101979097526024870195909552921515604486015260ff91821660648601521660848401521460a482015260c4016101806040518083038186803b15801561143057600080fd5b505af4158015611444573d6000803e3d6000fd5b505050506040513d601f19601f820116820180604052508101906114689190614866565b8051909250156114f8576040828101518654600160201b90046001600160a01b03166000908152600460205291909120546114b5916114b0916001600160801b031690613166565b613179565b8554600160201b90046001600160a01b0316600090815260046020526040902080546001600160801b0319166001600160801b0392909216919091179055611576565b6060820151156115765760a082015160018601546001600160a01b031660009081526004602052604090205461153b916114b0916001600160801b031690613166565b60018601546001600160a01b0316600090815260046020526040902080546001600160801b0319166001600160801b03929092169190911790555b600186600281111561159857634e487b7160e01b600052602160045260246000fd5b14156115cb576115c68482858860000160019054906101000a900460ff168660a001518761016001516131e6565b6115ec565b845460408301516101008401516115ec92879260ff90911691859190613521565b600060028401816115fe60018c615017565b61ffff168152602081019190915260400160002080549091506001600160801b03161561189357855473aa8Dc910cab2Bd9d9442a290157349eba3561F059063aab69633908690849060009060ff630100000082048116916201000090041660028e600281111561167f57634e487b7160e01b600052602160045260246000fd5b6040516001600160e01b031960e08a901b16815260048101979097526024870195909552921515604486015260ff91821660648601521660848401521460a482015260c4016101806040518083038186803b1580156116dd57600080fd5b505af41580156116f1573d6000803e3d6000fd5b505050506040513d601f19601f820116820180604052508101906117159190614866565b8051909350156117985760408084015160018801546001600160a01b0316600090815260046020529190912054611759916114b0916001600160801b031690613166565b60018701546001600160a01b0316600090815260046020526040902080546001600160801b0319166001600160801b039290921691909117905561181e565b60608301511561181e5760a08301518654600160201b90046001600160a01b03166000908152600460205260409020546117df916114b0916001600160801b031690613166565b8654600160201b90046001600160a01b0316600090815260046020526040902080546001600160801b0319166001600160801b03929092169190911790555b600287600281111561184057634e487b7160e01b600052602160045260246000fd5b141561186c57855460a084015161016085015161186792879285928a9260ff1691906131e6565b611893565b611893848760000160019054906101000a900460ff16838660400151876101000151613521565b6040516366aef26360e01b81526004810186905261ffff8a16602482015273aa8Dc910cab2Bd9d9442a290157349eba3561F05906366aef2639060440160006040518083038186803b1580156118e857600080fd5b505af41580156118fc573d6000803e3d6000fd5b50506040516366aef26360e01b81526004810187905261ffff8c16602482015273aa8Dc910cab2Bd9d9442a290157349eba3561F0592506366aef263915060440160006040518083038186803b15801561195557600080fd5b505af4158015611969573d6000803e3d6000fd5b5050505050505050505050808061197f906150bb565b915050611274565b50611990613783565b50506002805460ff60c01b1916905550565b6002546001600160a01b031633146119cc5760405162461bcd60e51b8152600401610b6390614c12565b8051600254600160c01b900460ff16156119e557600080fd5b6002546001600160a01b90910461ffff1611611a0057600080fd5b600260169054906101000a900460ff166002611a1c9190614f60565b60ff168114611a2a57600080fd5b60005b818160ff161015611b47576000838260ff1681518110611a5d57634e487b7160e01b600052603260045260246000fd5b60200260200101519050600060076000846001611a7a9190614ee6565b60ff1660ff16815260200190815260200160002060020160006001600260149054906101000a900461ffff16611ab09190615017565b61ffff16815260208101919091526040908101600020905163338dfe2f60e21b8152600481018490526024810182905290915073aa8Dc910cab2Bd9d9442a290157349eba3561F059063ce37f8bc9060440160006040518083038186803b158015611b1a57600080fd5b505af4158015611b2e573d6000803e3d6000fd5b5050505050508080611b3f906150bb565b915050611a2d565b505050565b8260ff811615801590611b805750600260169054906101000a900460ff166002611b769190614f60565b60ff168160ff1611155b611b8957600080fd5b60006005816002611b9b600189615051565b611ba59190614f1f565b60ff9081168252602080830193909352604091820160009081208983168083526007909552929020600254835493955073aa8Dc910cab2Bd9d9442a290157349eba3561F0594637441e8bb94929333938b93600160a01b900461ffff16929116148015611c25575086546001600160a01b038a8116600160201b90920416145b80611c555750865460ff8c811661010090920416148015611c55575060018701546001600160a01b038a81169116145b6040516001600160e01b031960e088901b16815260048101959095526001600160a01b039093166024850152604484019190915261ffff1660648301521515608482015260a40160006040518083038186803b158015611cb457600080fd5b505af4158015611cc8573d6000803e3d6000fd5b50505050611cd93385856000613a0e565b826001600160a01b0316336001600160a01b03168660ff167f9ac0ff79dc491174b021e6532a2fc734e82751bba8672e9183a76cb994a5f65a87604051611d2291815260200190565b60405180910390a45050505050565b6002546001600160a01b03163314611d5b5760405162461bcd60e51b8152600401610b6390614c12565b60ff9081166000908152600560205260409020600101805460ff60a01b198116600160a01b918290049093161502919091179055565b6000546001600160a01b03163314611dbb5760405162461bcd60e51b8152600401610b6390614c34565b610cc781613ace565b6001600160a01b03811660009081526004602052604081206001810154600f90810b9081900b8313611dfa575060019392505050565b60405163b2838a7360e01b81526001600160a01b038516600482015230602482015273aa8Dc910cab2Bd9d9442a290157349eba3561F059063b2838a739060440160206040518083038186803b158015611e5357600080fd5b505af4158015611e67573d6000803e3d6000fd5b505050506040513d601f19601f82011682018060405250810190611e8b9190614a00565b611e99575060009392505050565b611ea284613e4a565b611eab906150db565b81600f0b121592505050919050565b6040805160c081018252600080825260208201819052918101829052606081018290526080810182905260a081019190915260ff82811660009081526007602052604090819020600254915163c975707360e01b81526004810191909152600160c01b820490921615156024830152600160a01b900461ffff16604482015273aa8Dc910cab2Bd9d9442a290157349eba3561F059063c9757073906064015b60c06040518083038186803b158015611f7157600080fd5b505af4158015611f85573d6000803e3d6000fd5b505050506040513d601f19601f82011682018060405250810190611fa99190614904565b92915050565b6040805160c081018252600080825260208201819052918101829052606081018290526080810182905260a081019190915260ff828116600090815260076020526040908190206002549151634ed14a7f60e01b81526004810191909152336024820152600160c01b820490921615156044830152600160a01b900461ffff16606482015273aa8Dc910cab2Bd9d9442a290157349eba3561F0590634ed14a7f90608401611f59565b6000546001600160a01b031633146120825760405162461bcd60e51b8152600401610b6390614c34565b61208c6000613f4e565b565b8160ff8116158015906120c25750600260169054906101000a900460ff1660026120b89190614f60565b60ff168160ff1611155b6120cb57600080fd5b60ff838116600090815260076020526040908190206002549151630f681f9360e31b8152600481019190915233602482015260448101859052600160c01b820490921615156064830152600160a01b900461ffff16608482015273aa8Dc910cab2Bd9d9442a290157349eba3561F0590637b40fc989060a401610d81565b6002546001600160a01b031633146121735760405162461bcd60e51b8152600401610b6390614c12565b600254600160c01b900460ff161561218a57600080fd5b6002546121a390600160a01b900461ffff166001614ea8565b6002805460ff60c01b1961ffff93909316600160a01b029290921664ff0000ffff60a01b1990921691909117600160c01b17905560005b60025460ff600160b01b90910481169082161015612d005760ff8181166000908152600560209081526040808320805490941683526007909152808220600254915163161dd97560e31b815260048101829052600160a01b90920461ffff16602483015260016044830152919073aa8Dc910cab2Bd9d9442a290157349eba3561F059063b0eecba89060640160206040518083038186803b15801561227e57600080fd5b505af4158015612292573d6000803e3d6000fd5b505050506040513d601f19601f820116820180604052508101906122b691906149e6565b8354610100900460ff16600090815260076020526040808220600254915163161dd97560e31b815260048101829052600160a01b90920461ffff1660248301526044820183905292935073aa8Dc910cab2Bd9d9442a290157349eba3561F059063b0eecba89060640160206040518083038186803b15801561233757600080fd5b505af415801561234b573d6000803e3d6000fd5b505050506040513d601f19601f8201168201806040525081019061236f91906149e6565b90506001600160801b03831615612400578454600160201b90046001600160a01b03166000908152600460205260409020546123c3906114b0906001600160801b03600160801b9091048116908616613166565b85546001600160a01b03600160201b90910416600090815260046020526040902080546001600160801b03928316600160801b0292169190911790555b6001600160801b038116156124865760018501546001600160a01b031660009081526004602052604090205461244e906114b090600160801b90046001600160801b03908116908416613166565b60018601546001600160a01b0316600090815260046020526040902080546001600160801b03928316600160801b0292169190911790555b60028054600160a01b900461ffff16116124a4575050505050612cee565b8454600254604051631bb98a3360e01b815260009273aa8Dc910cab2Bd9d9442a290157349eba3561F0592631bb98a3392612509928a9260019260ff62010000840481169363010000009004169161ffff600160a01b90910416908990600401614cc0565b6101406040518083038186803b15801561252257600080fd5b505af4158015612536573d6000803e3d6000fd5b505050506040513d601f19601f8201168201806040525081019061255a919061491f565b8654600254604051631bb98a3360e01b815292935060009273aa8Dc910cab2Bd9d9442a290157349eba3561F0592631bb98a33926125c392899287926301000000820460ff90811693620100009093041691600160a01b90910461ffff16908490600401614cc0565b6101406040518083038186803b1580156125dc57600080fd5b505af41580156125f0573d6000803e3d6000fd5b505050506040513d601f19601f82011682018060405250810190612614919061491f565b9050600060405180606001604052808481526020018381526020016000600281111561265057634e487b7160e01b600052602160045260246000fd5b9052905080600660006126648c6003614f60565b60ff168152602080820192909252604090810160002083518051818501516001600160801b03908116600160801b90810292821692909217845582850151606080850151831684029183169190911760018087019190915560808086015160a08088015186168702918616919091176002808a019190915560c08089015160e0808b015189168a029189169190911760038c0155610100808b015160048d0180546101209d8e015115158d026001600160881b0319918216938d16939093179290921790558f8f015180519f8101518b168c029f8b169f909f1760058e01558e8e0151988f01518a168b02988a169890981760068d0155948d0151938d0151881689029388169390931760078b01558b0151918b015186168702918616919091176008890155908901516009880180549a9097015115159095029890921693909216929092179590951790915591840151600a8201805492949193909260ff1916919084908111156127e657634e487b7160e01b600052602160045260246000fd5b0217905550508854600254604051631bb98a3360e01b81526000935073aa8Dc910cab2Bd9d9442a290157349eba3561F0592631bb98a3392612854928d9260019262010000820460ff9081169363010000009093041691600160a01b90910461ffff16908490600401614cc0565b6101406040518083038186803b15801561286d57600080fd5b505af4158015612881573d6000803e3d6000fd5b505050506040513d601f19601f820116820180604052508101906128a5919061491f565b6040805160608101825282815260208101869052919250810160019052915081600660006128d48d6003614f60565b6128df906001614ee6565b60ff168152602080820192909252604090810160002083518051818501516001600160801b03908116600160801b90810292821692909217845582850151606080850151831684029183169190911760018087019190915560808086015160a08088015186168702918616919091176002808a019190915560c08089015160e0808b015189168a029189169190911760038c0155610100808b015160048d0180546101209d8e015115158d026001600160881b0319918216938d16939093179290921790558f8f015180519f8101518b168c029f8b169f909f1760058e01558e8e0151988f01518a168b02988a169890981760068d0155948d0151938d0151881689029388169390931760078b01558b0151918b015186168702918616919091176008890155908901516009880180549a9097015115159095029890921693909216929092179590951790915591840151600a8201805492949193909260ff191691908490811115612a6157634e487b7160e01b600052602160045260246000fd5b0217905550508954600254604051631bb98a3360e01b81526000935073aa8Dc910cab2Bd9d9442a290157349eba3561F0592631bb98a3392612acf928c9287926301000000820460ff90811693620100009093041691600160a01b90910461ffff1690600190600401614cc0565b6101406040518083038186803b158015612ae857600080fd5b505af4158015612afc573d6000803e3d6000fd5b505050506040513d601f19601f82011682018060405250810190612b20919061491f565b604080516060810182528781526020810183905291925081016002905292508260066000612b4f8e6003614f60565b612b5a906002614ee6565b60ff168152602080820192909252604090810160002083518051818501516001600160801b03908116600160801b90810292821692909217845582850151606080850151831684029183169190911760018087019190915560808086015160a08088015186168702918616919091176002808a019190915560c08089015160e0808b015189168a029189169190911760038c0155610100808b015160048d0180546101209d8e015115158d026001600160881b0319918216938d16939093179290921790558f8f015180519f8101518b168c029f8b169f909f1760058e01558e8e0151988f01518a168b02988a169890981760068d0155948d0151938d0151881689029388169390931760078b01558b0151918b015186168702918616919091176008890155908901516009880180549a9097015115159095029890921693909216929092179590951790915591840151600a8201805492949193909260ff191691908490811115612cdc57634e487b7160e01b600052602160045260246000fd5b02179055505050505050505050505050505b80612cf8816150bb565b9150506121da565b50600254600160a01b900461ffff1660011415612d26576002805460ff60c01b19169055565b60028054600160a01b900461ffff16141561208c5760015b600260169054906101000a900460ff166002612d5a9190614f60565b60ff168160ff1611612df75760ff81166000908152600760205260409081902090516366aef26360e01b815260048101919091526001602482015273aa8Dc910cab2Bd9d9442a290157349eba3561F05906366aef2639060440160006040518083038186803b158015612dcc57600080fd5b505af4158015612de0573d6000803e3d6000fd5b505050508080612def906150bb565b915050612d3e565b50612e00613783565b6002805460ff60c01b19169055565b6000546001600160a01b03163314612e395760405162461bcd60e51b8152600401610b6390614c34565b6001600160a01b038116612e9e5760405162461bcd60e51b815260206004820152602660248201527f4f776e61626c653a206e6577206f776e657220697320746865207a65726f206160448201526564647265737360d01b6064820152608401610b63565b610cc781613f4e565b8160ff811615801590612edb5750600260169054906101000a900460ff166002612ed19190614f60565b60ff168160ff1611155b612ee457600080fd5b600254600160a01b900461ffff16612f295760405162461bcd60e51b81526020600482015260086024820152670854dd185c9d195960c21b6044820152606401610b63565b60008211612f635760405162461bcd60e51b815260206004820152600760248201526608585b5bdd5b9d60ca1b6044820152606401610b63565b60006005816002612f75600188615051565b612f7f9190614f1f565b60ff908116825260208201929092526040016000206001810154909250600160a01b90041615612fe35760405162461bcd60e51b815260206004820152600f60248201526e11195c1bdcda5d111a5cd8589b1959608a1b6044820152606401610b63565b805460009060ff8681169116146130075760018201546001600160a01b031661301a565b8154600160201b90046001600160a01b03165b90506001600160a01b03811661302f57600080fd5b60ff8516600090815260076020526040808220600254915163c502f99160e01b815273aa8Dc910cab2Bd9d9442a290157349eba3561F059363c502f99193613090939233928b929091600160a01b90910461ffff1690600190600401614c89565b60006040518083038186803b1580156130a857600080fd5b505af41580156130bc573d6000803e3d6000fd5b5050600254604051878152600160a01b90910461ffff16925033915060ff8816906000805160206151468339815191529060200160405180910390a461310d6001600160a01b038216333087613f9e565b5050505050565b600280546001600160a01b038381166001600160a01b0319831681179093556040519116919082907f57e8def7e592578c5fbf9abfe6d3897d7daf10cf7e179f320d944cf71a76493e90600090a35050565b60006131728284614ece565b9392505050565b60006001600160801b038211156131e25760405162461bcd60e51b815260206004820152602760248201527f53616665436173743a2076616c756520646f65736e27742066697420696e20316044820152663238206269747360c81b6064820152608401610b63565b5090565b8454600090613208906001600160801b0380821691600160801b900416613ffe565b60018801549091506001600160801b0316158015906132275750600082115b15613286576001860154613263906114b09061324f908490600160901b900461ffff1661400a565b60018a01546001600160801b03169061402c565b6001880180546001600160801b0319166001600160801b03929092169190911790555b600387015460005b818110156135165760008960030182815481106132bb57634e487b7160e01b600052603260045260246000fd5b60009182526020808320909101546001600160a01b031680835260048d0190915260409091206001810154919250906001600160801b03166132fe575050613504565b60018101548a5460009161332c918a916001600160801b03600160801b918290048116929190910416614047565b90508015613373576003820154613350906114b0906001600160801b031683613166565b6003830180546001600160801b0319166001600160801b03929092169190911790555b6001820154600090613398906001600160801b0380821691600160801b900416613ffe565b905060006133a789838a614047565b905080156134ef5760018d015460009081906133cf908590600160901b900461ffff1661400a565b60028701549091506001600160801b031681106134075760028601546134009084906001600160801b031683614047565b915061340b565b8291505b73aa8Dc910cab2Bd9d9442a290157349eba3561F0563c502f9918f8986866001600260149054906101000a900461ffff166134469190615017565b60006040518763ffffffff1660e01b815260040161346996959493929190614c89565b60006040518083038186803b15801561348157600080fd5b505af4158015613495573d6000803e3d6000fd5b50506002546134b3925060019150600160a01b900461ffff16615017565b61ffff16876001600160a01b03168e60ff16600080516020615146833981519152866040516134e491815260200190565b60405180910390a450505b50505060010180546001600160801b03169055505b8061350e816150a0565b91505061328e565b505050505050505050565b8254600090613543906001600160801b0380821691600160801b900416613ffe565b600387015490915060005b8181101561377957600088600301828154811061357b57634e487b7160e01b600052603260045260246000fd5b60009182526020808320909101546001600160a01b031680835260048c0190915260409091206001810154919250906001600160801b03166135be575050613767565b600181015488546000916135ec918a916001600160801b03600160801b918290048116929190910416614047565b90508015613637576002820154613617906114b090600160801b90046001600160801b031683613166565b6002830180546001600160801b03928316600160801b0292169190911790555b6001820154600090613668908990613662906001600160801b0380821691600160801b900416613ffe565b89614047565b905080156137535773aa8Dc910cab2Bd9d9442a290157349eba3561F0563c502f9918d868460006001600260149054906101000a900461ffff166136ac9190615017565b60006040518763ffffffff1660e01b81526004016136cf96959493929190614c89565b60006040518083038186803b1580156136e757600080fd5b505af41580156136fb573d6000803e3d6000fd5b5050600254613719925060019150600160a01b900461ffff16615017565b61ffff16846001600160a01b03168c60ff166000805160206151468339815191528460405161374a91815260200190565b60405180910390a45b505060010180546001600160801b03169055505b80613771816150a0565b91505061354e565b5050505050505050565b60005b60025460ff600160b81b90910481169082161015610cc75760ff81166000908152600860209081526040808320546001600160a01b0316808452600490925282206002805492939192600160a01b900461ffff16146138175781546001600160801b0380821691600160801b9004166137fe85613e4a565b6138089190614f89565b6138129190614e5a565b61381a565b60005b600183015461382c9190600f0b614e5a565b6002830180546001600160801b0316905560405163b2838a7360e01b81526001600160a01b03851660048201523060248201529091506138d59073aa8Dc910cab2Bd9d9442a290157349eba3561F059063b2838a739060440160206040518083038186803b15801561389d57600080fd5b505af41580156138b1573d6000803e3d6000fd5b505050506040513d601f19601f820116820180604052508101906114b09190614a00565b6001830180546001600160801b03928316600160801b0292169190911790556139006114b08461408f565b600283810180546001600160801b03199081166001600160801b0394851617909155604080516080810182528654600160801b808204871683529086166020808401918252600f89810b8587019081526001600160a01b038d811660608801818152600091825260039095529790972086519451948b16948b16860294909417845551600184018054909816910b89161790955593519390940180546001600160a01b0319169390921692909217905584549092818116926139c492041684614e5a565b6139ce9190614f89565b600184018054600f9290920b6001600160801b03166001600160801b03199092169190911790555050600090555080613a06816150bb565b915050613786565b60015415613a2e5760405162461bcd60e51b8152600401610b6390614c69565b6001805580613a4957613a4082611dc4565b613a4957600080fd5b604051631a4ca37b60e21b81526001600160a01b038086166004830152602482018590528316604482015273aa8Dc910cab2Bd9d9442a290157349eba3561F05906369328dec9060640160006040518083038186803b158015613aab57600080fd5b505af4158015613abf573d6000803e3d6000fd5b50506000600155505050505050565b805160025460ff600160b01b8204811691600160b81b90041660005b83811015613e13576000858281518110613b1457634e487b7160e01b600052603260045260246000fd5b60200260200101519050836002613b2b9190614f60565b613b36906001614ee6565b60ff16808252613b47906001614ee6565b60ff166020820152806005600086613b5e816150bb565b60ff91821683526020808401949094526040928301600020855181549587015194870151606088015160808901516001600160a01b03908116600160201b02640100000000600160c01b031992881663010000000263ff0000001994891662010000029490941663ffff0000199989166101000261ffff19909b1695891695909517999099179790971692909217171694909417845560a08501516001909401805460c0909601511515600160a01b026001600160a81b0319909616949093169390931793909317905594508316613cd05760808101516008600085613c43816150bb565b965060ff1660ff16815260200190815260200160002060006101000a8154816001600160a01b0302191690836001600160a01b031602179055508060a00151600860008580613c91906150bb565b965060ff1660ff16815260200190815260200160002060006101000a8154816001600160a01b0302191690836001600160a01b03160217905550613e00565b60008060005b8560ff168160ff161015613d5657608084015160ff82166000908152600860205260409020546001600160a01b0390811691161415613d1457600192505b60a084015160ff82166000908152600860205260409020546001600160a01b0390811691161415613d4457600191505b80613d4e816150bb565b915050613cd6565b5081613daa5760808301516008600087613d6f816150bb565b985060ff1660ff16815260200190815260200160002060006101000a8154816001600160a01b0302191690836001600160a01b031602179055505b80613dfd5760a08301516008600087613dc2816150bb565b985060ff1660ff16815260200190815260200160002060006101000a8154816001600160a01b0302191690836001600160a01b031602179055505b50505b5080613e0b816150a0565b915050613aea565b506002805461ffff60b01b1916600160b01b60ff9485160260ff60b81b191617600160b81b92909316919091029190911790555050565b6001600160a01b0381166000908152600460205260408120613e89613e6e8461408f565b6001830154600160801b90046001600160801b031690613166565b600282015460405163b2838a7360e01b81526001600160a01b0386166004820152306024820152613f44916001600160801b0380821692613f3e92600160801b90049091169073aa8Dc910cab2Bd9d9442a290157349eba3561F059063b2838a739060440160206040518083038186803b158015613f0657600080fd5b505af4158015613f1a573d6000803e3d6000fd5b505050506040513d601f19601f82011682018060405250810190613f3e9190614a00565b90613166565b6131729190614fd8565b600080546001600160a01b038381166001600160a01b0319831681178455604051919092169283917f8be0079c531659141344cd1fd0a4f28419497f9722a3daafe3b4186f6b6457e09190a35050565b604080516001600160a01b0385811660248301528416604482015260648082018490528251808303909101815260849091019091526020810180516001600160e01b03166323b872dd60e01b179052613ff8908590614226565b50505050565b6000613172828461503a565b600061317261271061402661401f8583614ece565b86906142f8565b90614304565b60008183101561403d576000613172565b613172828461503a565b6000821580614054575081155b8061405d575083155b1561406a57506000613172565b81831015614085576140808261402686866142f8565b614087565b835b949350505050565b600080805b60025460ff600160b01b9091048116908216101561421f5760ff8116600090815260056020526040902080546001600160a01b03868116600160201b9092041614806140ef575060018101546001600160a01b038681169116145b1561420c57805460ff811660009081526007602052604090209061417b906001600160a01b03888116600160201b909204161461413d578154600160801b90046001600160801b0316614174565b815460028054600160a01b900461ffff1660009081529084016020526040902054614174916001600160801b039182169116613166565b8590613166565b8254610100900460ff166000908152600760205260409020600184015491955090614207906001600160a01b038981169116146141c9578154600160801b90046001600160801b0316614200565b815460028054600160a01b900461ffff1660009081529084016020526040902054614200916001600160801b039182169116613166565b8690613166565b945050505b5080614217816150bb565b915050614094565b5092915050565b600061427b826040518060400160405280602081526020017f5361666545524332303a206c6f772d6c6576656c2063616c6c206661696c6564815250856001600160a01b03166143109092919063ffffffff16565b805190915015611b475780806020019051810190614299919061484a565b611b475760405162461bcd60e51b815260206004820152602a60248201527f5361666545524332303a204552433230206f7065726174696f6e20646964206e6044820152691bdd081cdd58d8d9595960b21b6064820152608401610b63565b60006131728284614f41565b60006131728284614f0b565b6060614087848460008585843b6143695760405162461bcd60e51b815260206004820152601d60248201527f416464726573733a2063616c6c20746f206e6f6e2d636f6e74726163740000006044820152606401610b63565b600080866001600160a01b031685876040516143859190614bc3565b60006040518083038185875af1925050503d80600081146143c2576040519150601f19603f3d011682016040523d82523d6000602084013e6143c7565b606091505b50915091506143d78282866143e2565b979650505050505050565b606083156143f1575081613172565b8251156144015782518084602001fd5b8160405162461bcd60e51b8152600401610b639190614bdf565b80356001600160a01b038116811461443257600080fd5b919050565b805161443281615137565b600060c08284031215614453578081fd5b60405160c0810181811067ffffffffffffffff8211171561447657614476615121565b604052905080614485836144e3565b8152614493602084016144e3565b60208201526144a4604084016144e3565b60408201526144b5606084016144e3565b60608201526144c6608084016144e3565b60808201526144d760a084016144e3565b60a08201525092915050565b80516001600160801b038116811461443257600080fd5b803560ff8116811461443257600080fd5b60006020828403121561451c578081fd5b6131728261441b565b60008060408385031215614537578081fd5b6145408361441b565b915061454e6020840161441b565b90509250929050565b60008060408385031215614569578182fd5b6145728361441b565b915060208084013567ffffffffffffffff81111561458e578283fd5b8401601f8101861361459e578283fd5b80356145b16145ac82614e36565b614e05565b80828252848201915084840189868560051b87010111156145d0578687fd5b8694505b838510156145f9576145e58161441b565b8352600194909401939185019185016145d4565b5080955050505050509250929050565b6000602080838503121561461b578182fd5b823567ffffffffffffffff811115614631578283fd5b8301601f81018513614641578283fd5b803561464f6145ac82614e36565b80828252848201915084840188868560051b870101111561466e578687fd5b8694505b8385101561469c57803560038110614688578788fd5b835260019490940193918501918501614672565b50979650505050505050565b600060208083850312156146ba578182fd5b823567ffffffffffffffff8111156146d0578283fd5b8301601f810185136146e0578283fd5b80356146ee6145ac82614e36565b8181528381019083850160e0808502860187018a101561470c578788fd5b8795505b848610156147b55780828b031215614726578788fd5b61472e614d94565b614737836144fa565b81526147448884016144fa565b8882015260406147558185016144fa565b9082015260606147668482016144fa565b90820152608061477784820161441b565b9082015260a061478884820161441b565b9082015260c08381013561479b81615137565b908201528452600195909501949286019290810190614710565b509098975050505050505050565b600060208083850312156147d5578182fd5b823567ffffffffffffffff8111156147eb578283fd5b8301601f810185136147fb578283fd5b80356148096145ac82614e36565b80828252848201915084840188868560051b8701011115614828578687fd5b8694505b8385101561469c57803583526001949094019391850191850161482c565b60006020828403121561485b578081fd5b815161317281615137565b60006101808284031215614878578081fd5b614880614dbd565b825181526020830151602082015260408301516040820152606083015160608201526080830151608082015260a083015160a082015260c083015160c082015260e083015160e08201526101008084015181830152506101208084015181830152506101408084015181830152506101608084015181830152508091505092915050565b600060c08284031215614915578081fd5b6131728383614442565b60006101408284031215614931578081fd5b614939614de1565b614942836144e3565b8152614950602084016144e3565b6020820152614961604084016144e3565b6040820152614972606084016144e3565b6060820152614983608084016144e3565b608082015261499460a084016144e3565b60a08201526149a560c084016144e3565b60c08201526149b660e084016144e3565b60e08201526101006149c98185016144e3565b908201526101206149db848201614437565b908201529392505050565b6000602082840312156149f7578081fd5b613172826144e3565b600060208284031215614a11578081fd5b5051919050565b600060208284031215614a29578081fd5b613172826144fa565b60008060408385031215614a44578182fd5b614a4d836144fa565b9150602083013561ffff81168114614a63578182fd5b809150509250929050565b60008060408385031215614a80578182fd5b614a89836144fa565b946020939093013593505050565b600080600060608486031215614aab578081fd5b614ab4846144fa565b925060208401359150614ac96040850161441b565b90509250925092565b80516001600160801b031682526020810151614af960208401826001600160801b03169052565b506040810151614b1460408401826001600160801b03169052565b506060810151614b2f60608401826001600160801b03169052565b506080810151614b4a60808401826001600160801b03169052565b5060a0810151614b6560a08401826001600160801b03169052565b5060c0810151614b8060c08401826001600160801b03169052565b5060e0810151614b9b60e08401826001600160801b03169052565b50610100818101516001600160801b0316908301526101208082015180151582850152613ff8565b60008251614bd5818460208701615074565b9190910192915050565b6020815260008251806020840152614bfe816040850160208701615074565b601f01601f19169190910160400192915050565b60208082526008908201526710b9b2ba3a3632b960c11b604082015260600190565b6020808252818101527f4f776e61626c653a2063616c6c6572206973206e6f7420746865206f776e6572604082015260600190565b6020808252600690820152651b1bd8dad95960d21b604082015260600190565b9586526001600160a01b039490941660208601526040850192909252606084015261ffff166080830152151560a082015260c00190565b958652931515602086015260ff92831660408601529116606084015261ffff166080830152151560a082015260c00190565b60c08101611fa982846001600160801b038082511683528060208301511660208401528060408301511660408401528060608301511660608401528060808301511660808401528060a08301511660a0840152505050565b6102a08101614d598286614ad2565b614d67610140830185614ad2565b60038310614d8557634e487b7160e01b600052602160045260246000fd5b82610280830152949350505050565b60405160e0810167ffffffffffffffff81118282101715614db757614db7615121565b60405290565b604051610180810167ffffffffffffffff81118282101715614db757614db7615121565b604051610140810167ffffffffffffffff81118282101715614db757614db7615121565b604051601f8201601f1916810167ffffffffffffffff81118282101715614e2e57614e2e615121565b604052919050565b600067ffffffffffffffff821115614e5057614e50615121565b5060051b60200190565b600081600f0b83600f0b8282128260016001607f1b0303821381151615614e8357614e836150f5565b8260016001607f1b0319038212811615614e9f57614e9f6150f5565b50019392505050565b600061ffff808316818516808303821115614ec557614ec56150f5565b01949350505050565b60008219821115614ee157614ee16150f5565b500190565b600060ff821660ff84168060ff03821115614f0357614f036150f5565b019392505050565b600082614f1a57614f1a61510b565b500490565b600060ff831680614f3257614f3261510b565b8060ff84160491505092915050565b6000816000190483118215151615614f5b57614f5b6150f5565b500290565b600060ff821660ff84168160ff0481118215151615614f8157614f816150f5565b029392505050565b600081600f0b83600f0b8281128160016001607f1b031901831281151615614fb357614fb36150f5565b8160016001607f1b03018313811615614fce57614fce6150f5565b5090039392505050565b60008083128015600160ff1b850184121615614ff657614ff66150f5565b6001600160ff1b0384018313811615615011576150116150f5565b50500390565b600061ffff83811690831681811015615032576150326150f5565b039392505050565b60008282101561504c5761504c6150f5565b500390565b600060ff821660ff84168082101561506b5761506b6150f5565b90039392505050565b60005b8381101561508f578181015183820152602001615077565b83811115613ff85750506000910152565b60006000198214156150b4576150b46150f5565b5060010190565b600060ff821660ff8114156150d2576150d26150f5565b60010192915050565b6000600160ff1b8214156150f1576150f16150f5565b0390565b634e487b7160e01b600052601160045260246000fd5b634e487b7160e01b600052601260045260246000fd5b634e487b7160e01b600052604160045260246000fd5b8015158114610cc757600080fdfee963a73e630cb9812a026653bfb6b1e14ffa92f8c38b79f318f2637557ea9f12a26469706673582212204cea18b13e302f2c8b063a338dc3007dbb12650b2a980ac7b4bfb1d20fcf111e64736f6c63430008040033",
  "deployedBytecode": "0x6080604052600436106101855760003560e01c8063644d41ed116100d15780638a19c8bc1161008a578063c78b432e11610064578063c78b432e14610abb578063ddd0247514610ad0578063f2fde38b14610b03578063f4d4c9d714610b2357600080fd5b80638a19c8bc146108f55780638da5cb5b1461092a578063c5cfc5be1461095257600080fd5b8063644d41ed146107ba5780636b37e4e3146107da5780637101868214610807578063715018a6146108275780637332655b1461083c57806383eb772e1461085c57600080fd5b806332b76e861161013e57806355bf621f1161011857806355bf621f146106975780635d3e0e4d146106b75780635edae4db146106d75780636386bcc4146106f757600080fd5b806332b76e861461025c5780634dd96f861461027c57806351fe669e1461029c57600080fd5b806302c178d7146101915780630748248f146101b357806307f19eba146101e9578063222f6b8314610209578063256d43d71461022957806326b516991461023c57600080fd5b3661018c57005b600080fd5b34801561019d57600080fd5b506101b16101ac366004614525565b610b43565b005b3480156101bf57600080fd5b506002546101d490600160c01b900460ff1681565b60405190151581526020015b60405180910390f35b3480156101f557600080fd5b506101b161020436600461450b565b610c94565b34801561021557600080fd5b506101b1610224366004614a6e565b610cca565b6101b1610237366004614a18565b610db6565b34801561024857600080fd5b506101b1610257366004614557565b61100f565b34801561026857600080fd5b506101b1610277366004614609565b6111f8565b34801561028857600080fd5b506101b16102973660046147c3565b6119a2565b3480156102a857600080fd5b506106886102b7366004614a18565b600660205280600052604060002060009150905080600001604051806101400160405290816000820160009054906101000a90046001600160801b03166001600160801b03166001600160801b031681526020016000820160109054906101000a90046001600160801b03166001600160801b03166001600160801b031681526020016001820160009054906101000a90046001600160801b03166001600160801b03166001600160801b031681526020016001820160109054906101000a90046001600160801b03166001600160801b03166001600160801b031681526020016002820160009054906101000a90046001600160801b03166001600160801b03166001600160801b031681526020016002820160109054906101000a90046001600160801b03166001600160801b03166001600160801b031681526020016003820160009054906101000a90046001600160801b03166001600160801b03166001600160801b031681526020016003820160109054906101000a90046001600160801b03166001600160801b03166001600160801b031681526020016004820160009054906101000a90046001600160801b03166001600160801b03166001600160801b031681526020016004820160109054906101000a900460ff1615151515815250509080600501604051806101400160405290816000820160009054906101000a90046001600160801b03166001600160801b03166001600160801b031681526020016000820160109054906101000a90046001600160801b03166001600160801b03166001600160801b031681526020016001820160009054906101000a90046001600160801b03166001600160801b03166001600160801b031681526020016001820160109054906101000a90046001600160801b03166001600160801b03166001600160801b031681526020016002820160009054906101000a90046001600160801b03166001600160801b03166001600160801b031681526020016002820160109054906101000a90046001600160801b03166001600160801b03166001600160801b031681526020016003820160009054906101000a90046001600160801b03166001600160801b03166001600160801b031681526020016003820160109054906101000a90046001600160801b03166001600160801b03166001600160801b031681526020016004820160009054906101000a90046001600160801b03166001600160801b03166001600160801b031681526020016004820160109054906101000a900460ff1615151515815250509080600a0160009054906101000a900460ff16905083565b6040516101e093929190614d4a565b3480156106a357600080fd5b506101b16106b2366004614a97565b611b4c565b3480156106c357600080fd5b506101b16106d2366004614a18565b611d31565b3480156106e357600080fd5b506101b16106f23660046146a8565b611d91565b34801561070357600080fd5b5061076c610712366004614a18565b6005602052600090815260409020805460019091015460ff808316926101008104821692620100008204831692630100000083048116926001600160a01b03600160201b90910481169290811691600160a01b9091041687565b6040805160ff98891681529688166020880152948716948601949094529490911660608401526001600160a01b03908116608084015290921660a082015290151560c082015260e0016101e0565b3480156107c657600080fd5b506101d46107d536600461450b565b611dc4565b3480156107e657600080fd5b506107fa6107f5366004614a18565b611eba565b6040516101e09190614cf2565b34801561081357600080fd5b506107fa610822366004614a18565b611faf565b34801561083357600080fd5b506101b1612058565b34801561084857600080fd5b506101b1610857366004614a6e565b61208e565b34801561086857600080fd5b506108b861087736600461450b565b6003602052600090815260409020805460018201546002909201546001600160801b0380831693600160801b9093041691600f0b906001600160a01b031684565b604080516001600160801b039586168152949093166020850152600f9190910b918301919091526001600160a01b031660608201526080016101e0565b34801561090157600080fd5b5060025461091790600160a01b900461ffff1681565b60405161ffff90911681526020016101e0565b34801561093657600080fd5b506000546040516001600160a01b0390911681526020016101e0565b34801561095e57600080fd5b50610a4861096d366004614a32565b6040805160e081018252600080825260208201819052918101829052606081018290526080810182905260a0810182905260c08101919091525060ff808316600090815260076020908152604080832061ffff80871685526002909101835292819020815160e08101835281546001600160801b038082168352600160801b9182900481169583019590955260019092015493841692810192909252820483166060820152600160901b82049092166080830152600160a01b81048316151560a0830152600160a81b9004909116151560c082015292915050565b6040516101e09190600060e0820190506001600160801b0380845116835280602085015116602084015280604085015116604084015250606083015161ffff8082166060850152806080860151166080850152505060a0830151151560a083015260c0830151151560c083015292915050565b348015610ac757600080fd5b506101b1612149565b348015610adc57600080fd5b50600254610af190600160b01b900460ff1681565b60405160ff90911681526020016101e0565b348015610b0f57600080fd5b506101b1610b1e36600461450b565b612e0f565b348015610b2f57600080fd5b506101b1610b3e366004614a6e565b612ea7565b60015415610b6c5760405162461bcd60e51b8152600401610b6390614c69565b60405180910390fd5b600180556002546001600160a01b03163314610b9a5760405162461bcd60e51b8152600401610b6390614c12565b6001600160a01b038116600090815260046020526040812060018101549091600f91820b90910b13610bcb57600080fd5b6001810154604051631a4ca37b60e21b81526001600160a01b0380861660048301526001600160801b03600f9390930b92831660248301528416604482015273__$e36f5330ef2566ea8a183e1e27b10de643$__906369328dec9060640160006040518083038186803b158015610c4157600080fd5b505af4158015610c55573d6000803e3d6000fd5b5050506002830180546001600160801b03938416600160801b0293169290921790915550600190810180546001600160801b0319169055600090555050565b6000546001600160a01b03163314610cbe5760405162461bcd60e51b8152600401610b6390614c34565b610cc781613114565b50565b8160ff811615801590610cfe5750600260169054906101000a900460ff166002610cf49190614f60565b60ff168160ff1611155b610d0757600080fd5b60ff838116600090815260076020526040908190206002549151638a229a5760e01b8152600481019190915233602482015260448101859052600160c01b820490921615156064830152600160a01b900461ffff16608482015273__$e36f5330ef2566ea8a183e1e27b10de643$__90638a229a579060a4015b60006040518083038186803b158015610d9957600080fd5b505af4158015610dad573d6000803e3d6000fd5b50505050505050565b8060ff811615801590610dea5750600260169054906101000a900460ff166002610de09190614f60565b60ff168160ff1611155b610df357600080fd5b600254600160a01b900461ffff16610e385760405162461bcd60e51b81526020600482015260086024820152670854dd185c9d195960c21b6044820152606401610b63565b60003411610e735760405162461bcd60e51b81526020600482015260086024820152676e6f2076616c756560c01b6044820152606401610b63565b60006005816002610e85600187615051565b610e8f9190614f1f565b60ff908116825260208201929092526040016000206001810154909250600160a01b90041615610ef35760405162461bcd60e51b815260206004820152600f60248201526e11195c1bdcda5d111a5cd8589b1959608a1b6044820152606401610b63565b805460009060ff858116911614610f175760018201546001600160a01b0316610f2a565b8154600160201b90046001600160a01b03165b90506001600160a01b03811615610f4057600080fd5b60ff8416600090815260076020526040808220600254915163c502f99160e01b815273__$e36f5330ef2566ea8a183e1e27b10de643$__9363c502f99193610fa19392339234929091600160a01b90910461ffff1690600190600401614c89565b60006040518083038186803b158015610fb957600080fd5b505af4158015610fcd573d6000803e3d6000fd5b5050600254604051348152600160a01b90910461ffff16925033915060ff8716906000805160206151468339815191529060200160405180910390a450505050565b6001541561102f5760405162461bcd60e51b8152600401610b6390614c69565b600180556002546001600160a01b0316331461105d5760405162461bcd60e51b8152600401610b6390614c12565b805160005b818110156111ed5760006004600085848151811061109057634e487b7160e01b600052603260045260246000fd5b60200260200101516001600160a01b03166001600160a01b03168152602001908152602001600020905060008160010160009054906101000a9004600f0b600f0b136110db57600080fd5b60008160010160009054906101000a9004600f0b905073__$e36f5330ef2566ea8a183e1e27b10de643$__6369328dec87836001600160801b031688878151811061113657634e487b7160e01b600052603260045260246000fd5b60200260200101516040518463ffffffff1660e01b815260040161117a939291906001600160a01b0393841681526020810192909252909116604082015260600190565b60006040518083038186803b15801561119257600080fd5b505af41580156111a6573d6000803e3d6000fd5b5050506002830180546001600160801b03938416600160801b029316929092179091555060010180546001600160801b0319169055806111e5816150a0565b915050611062565b505060006001555050565b6002546001600160a01b031633146112225760405162461bcd60e51b8152600401610b6390614c12565b600254600160c01b900460ff1661123857600080fd5b8051600254600160b01b900460ff16811461125257600080fd5b60025460009061126f90600190600160a01b900461ffff16615017565b905060005b828160ff161015611987576000848260ff16815181106112a457634e487b7160e01b600052603260045260246000fd5b60209081029190910181015160ff80851660009081526005845260408082208054808516845260078752828420610100918290049095168452828420835161018081018552858152978801859052928701849052606087018490526080870184905260a0870184905260c0870184905260e08701849052860183905261012086018390526101408601839052610160860192909252929450929091906000600284018161135260018b615017565b61ffff168152602081019190915260400160002080549091506001600160801b0316156115ec57845473__$e36f5330ef2566ea8a183e1e27b10de643$__9063aab69633908690849060019060ff6201000082048116916301000000900416828d60028111156113d257634e487b7160e01b600052602160045260246000fd5b6040516001600160e01b031960e08a901b16815260048101979097526024870195909552921515604486015260ff91821660648601521660848401521460a482015260c4016101806040518083038186803b15801561143057600080fd5b505af4158015611444573d6000803e3d6000fd5b505050506040513d601f19601f820116820180604052508101906114689190614866565b8051909250156114f8576040828101518654600160201b90046001600160a01b03166000908152600460205291909120546114b5916114b0916001600160801b031690613166565b613179565b8554600160201b90046001600160a01b0316600090815260046020526040902080546001600160801b0319166001600160801b0392909216919091179055611576565b6060820151156115765760a082015160018601546001600160a01b031660009081526004602052604090205461153b916114b0916001600160801b031690613166565b60018601546001600160a01b0316600090815260046020526040902080546001600160801b0319166001600160801b03929092169190911790555b600186600281111561159857634e487b7160e01b600052602160045260246000fd5b14156115cb576115c68482858860000160019054906101000a900460ff168660a001518761016001516131e6565b6115ec565b845460408301516101008401516115ec92879260ff90911691859190613521565b600060028401816115fe60018c615017565b61ffff168152602081019190915260400160002080549091506001600160801b03161561189357855473__$e36f5330ef2566ea8a183e1e27b10de643$__9063aab69633908690849060009060ff630100000082048116916201000090041660028e600281111561167f57634e487b7160e01b600052602160045260246000fd5b6040516001600160e01b031960e08a901b16815260048101979097526024870195909552921515604486015260ff91821660648601521660848401521460a482015260c4016101806040518083038186803b1580156116dd57600080fd5b505af41580156116f1573d6000803e3d6000fd5b505050506040513d601f19601f820116820180604052508101906117159190614866565b8051909350156117985760408084015160018801546001600160a01b0316600090815260046020529190912054611759916114b0916001600160801b031690613166565b60018701546001600160a01b0316600090815260046020526040902080546001600160801b0319166001600160801b039290921691909117905561181e565b60608301511561181e5760a08301518654600160201b90046001600160a01b03166000908152600460205260409020546117df916114b0916001600160801b031690613166565b8654600160201b90046001600160a01b0316600090815260046020526040902080546001600160801b0319166001600160801b03929092169190911790555b600287600281111561184057634e487b7160e01b600052602160045260246000fd5b141561186c57855460a084015161016085015161186792879285928a9260ff1691906131e6565b611893565b611893848760000160019054906101000a900460ff16838660400151876101000151613521565b6040516366aef26360e01b81526004810186905261ffff8a16602482015273__$e36f5330ef2566ea8a183e1e27b10de643$__906366aef2639060440160006040518083038186803b1580156118e857600080fd5b505af41580156118fc573d6000803e3d6000fd5b50506040516366aef26360e01b81526004810187905261ffff8c16602482015273__$e36f5330ef2566ea8a183e1e27b10de643$__92506366aef263915060440160006040518083038186803b15801561195557600080fd5b505af4158015611969573d6000803e3d6000fd5b5050505050505050505050808061197f906150bb565b915050611274565b50611990613783565b50506002805460ff60c01b1916905550565b6002546001600160a01b031633146119cc5760405162461bcd60e51b8152600401610b6390614c12565b8051600254600160c01b900460ff16156119e557600080fd5b6002546001600160a01b90910461ffff1611611a0057600080fd5b600260169054906101000a900460ff166002611a1c9190614f60565b60ff168114611a2a57600080fd5b60005b818160ff161015611b47576000838260ff1681518110611a5d57634e487b7160e01b600052603260045260246000fd5b60200260200101519050600060076000846001611a7a9190614ee6565b60ff1660ff16815260200190815260200160002060020160006001600260149054906101000a900461ffff16611ab09190615017565b61ffff16815260208101919091526040908101600020905163338dfe2f60e21b8152600481018490526024810182905290915073__$e36f5330ef2566ea8a183e1e27b10de643$__9063ce37f8bc9060440160006040518083038186803b158015611b1a57600080fd5b505af4158015611b2e573d6000803e3d6000fd5b5050505050508080611b3f906150bb565b915050611a2d565b505050565b8260ff811615801590611b805750600260169054906101000a900460ff166002611b769190614f60565b60ff168160ff1611155b611b8957600080fd5b60006005816002611b9b600189615051565b611ba59190614f1f565b60ff9081168252602080830193909352604091820160009081208983168083526007909552929020600254835493955073__$e36f5330ef2566ea8a183e1e27b10de643$__94637441e8bb94929333938b93600160a01b900461ffff16929116148015611c25575086546001600160a01b038a8116600160201b90920416145b80611c555750865460ff8c811661010090920416148015611c55575060018701546001600160a01b038a81169116145b6040516001600160e01b031960e088901b16815260048101959095526001600160a01b039093166024850152604484019190915261ffff1660648301521515608482015260a40160006040518083038186803b158015611cb457600080fd5b505af4158015611cc8573d6000803e3d6000fd5b50505050611cd93385856000613a0e565b826001600160a01b0316336001600160a01b03168660ff167f9ac0ff79dc491174b021e6532a2fc734e82751bba8672e9183a76cb994a5f65a87604051611d2291815260200190565b60405180910390a45050505050565b6002546001600160a01b03163314611d5b5760405162461bcd60e51b8152600401610b6390614c12565b60ff9081166000908152600560205260409020600101805460ff60a01b198116600160a01b918290049093161502919091179055565b6000546001600160a01b03163314611dbb5760405162461bcd60e51b8152600401610b6390614c34565b610cc781613ace565b6001600160a01b03811660009081526004602052604081206001810154600f90810b9081900b8313611dfa575060019392505050565b60405163b2838a7360e01b81526001600160a01b038516600482015230602482015273__$e36f5330ef2566ea8a183e1e27b10de643$__9063b2838a739060440160206040518083038186803b158015611e5357600080fd5b505af4158015611e67573d6000803e3d6000fd5b505050506040513d601f19601f82011682018060405250810190611e8b9190614a00565b611e99575060009392505050565b611ea284613e4a565b611eab906150db565b81600f0b121592505050919050565b6040805160c081018252600080825260208201819052918101829052606081018290526080810182905260a081019190915260ff82811660009081526007602052604090819020600254915163c975707360e01b81526004810191909152600160c01b820490921615156024830152600160a01b900461ffff16604482015273__$e36f5330ef2566ea8a183e1e27b10de643$__9063c9757073906064015b60c06040518083038186803b158015611f7157600080fd5b505af4158015611f85573d6000803e3d6000fd5b505050506040513d601f19601f82011682018060405250810190611fa99190614904565b92915050565b6040805160c081018252600080825260208201819052918101829052606081018290526080810182905260a081019190915260ff828116600090815260076020526040908190206002549151634ed14a7f60e01b81526004810191909152336024820152600160c01b820490921615156044830152600160a01b900461ffff16606482015273__$e36f5330ef2566ea8a183e1e27b10de643$__90634ed14a7f90608401611f59565b6000546001600160a01b031633146120825760405162461bcd60e51b8152600401610b6390614c34565b61208c6000613f4e565b565b8160ff8116158015906120c25750600260169054906101000a900460ff1660026120b89190614f60565b60ff168160ff1611155b6120cb57600080fd5b60ff838116600090815260076020526040908190206002549151630f681f9360e31b8152600481019190915233602482015260448101859052600160c01b820490921615156064830152600160a01b900461ffff16608482015273__$e36f5330ef2566ea8a183e1e27b10de643$__90637b40fc989060a401610d81565b6002546001600160a01b031633146121735760405162461bcd60e51b8152600401610b6390614c12565b600254600160c01b900460ff161561218a57600080fd5b6002546121a390600160a01b900461ffff166001614ea8565b6002805460ff60c01b1961ffff93909316600160a01b029290921664ff0000ffff60a01b1990921691909117600160c01b17905560005b60025460ff600160b01b90910481169082161015612d005760ff8181166000908152600560209081526040808320805490941683526007909152808220600254915163161dd97560e31b815260048101829052600160a01b90920461ffff16602483015260016044830152919073__$e36f5330ef2566ea8a183e1e27b10de643$__9063b0eecba89060640160206040518083038186803b15801561227e57600080fd5b505af4158015612292573d6000803e3d6000fd5b505050506040513d601f19601f820116820180604052508101906122b691906149e6565b8354610100900460ff16600090815260076020526040808220600254915163161dd97560e31b815260048101829052600160a01b90920461ffff1660248301526044820183905292935073__$e36f5330ef2566ea8a183e1e27b10de643$__9063b0eecba89060640160206040518083038186803b15801561233757600080fd5b505af415801561234b573d6000803e3d6000fd5b505050506040513d601f19601f8201168201806040525081019061236f91906149e6565b90506001600160801b03831615612400578454600160201b90046001600160a01b03166000908152600460205260409020546123c3906114b0906001600160801b03600160801b9091048116908616613166565b85546001600160a01b03600160201b90910416600090815260046020526040902080546001600160801b03928316600160801b0292169190911790555b6001600160801b038116156124865760018501546001600160a01b031660009081526004602052604090205461244e906114b090600160801b90046001600160801b03908116908416613166565b60018601546001600160a01b0316600090815260046020526040902080546001600160801b03928316600160801b0292169190911790555b60028054600160a01b900461ffff16116124a4575050505050612cee565b8454600254604051631bb98a3360e01b815260009273__$e36f5330ef2566ea8a183e1e27b10de643$__92631bb98a3392612509928a9260019260ff62010000840481169363010000009004169161ffff600160a01b90910416908990600401614cc0565b6101406040518083038186803b15801561252257600080fd5b505af4158015612536573d6000803e3d6000fd5b505050506040513d601f19601f8201168201806040525081019061255a919061491f565b8654600254604051631bb98a3360e01b815292935060009273__$e36f5330ef2566ea8a183e1e27b10de643$__92631bb98a33926125c392899287926301000000820460ff90811693620100009093041691600160a01b90910461ffff16908490600401614cc0565b6101406040518083038186803b1580156125dc57600080fd5b505af41580156125f0573d6000803e3d6000fd5b505050506040513d601f19601f82011682018060405250810190612614919061491f565b9050600060405180606001604052808481526020018381526020016000600281111561265057634e487b7160e01b600052602160045260246000fd5b9052905080600660006126648c6003614f60565b60ff168152602080820192909252604090810160002083518051818501516001600160801b03908116600160801b90810292821692909217845582850151606080850151831684029183169190911760018087019190915560808086015160a08088015186168702918616919091176002808a019190915560c08089015160e0808b015189168a029189169190911760038c0155610100808b015160048d0180546101209d8e015115158d026001600160881b0319918216938d16939093179290921790558f8f015180519f8101518b168c029f8b169f909f1760058e01558e8e0151988f01518a168b02988a169890981760068d0155948d0151938d0151881689029388169390931760078b01558b0151918b015186168702918616919091176008890155908901516009880180549a9097015115159095029890921693909216929092179590951790915591840151600a8201805492949193909260ff1916919084908111156127e657634e487b7160e01b600052602160045260246000fd5b0217905550508854600254604051631bb98a3360e01b81526000935073__$e36f5330ef2566ea8a183e1e27b10de643$__92631bb98a3392612854928d9260019262010000820460ff9081169363010000009093041691600160a01b90910461ffff16908490600401614cc0565b6101406040518083038186803b15801561286d57600080fd5b505af4158015612881573d6000803e3d6000fd5b505050506040513d601f19601f820116820180604052508101906128a5919061491f565b6040805160608101825282815260208101869052919250810160019052915081600660006128d48d6003614f60565b6128df906001614ee6565b60ff168152602080820192909252604090810160002083518051818501516001600160801b03908116600160801b90810292821692909217845582850151606080850151831684029183169190911760018087019190915560808086015160a08088015186168702918616919091176002808a019190915560c08089015160e0808b015189168a029189169190911760038c0155610100808b015160048d0180546101209d8e015115158d026001600160881b0319918216938d16939093179290921790558f8f015180519f8101518b168c029f8b169f909f1760058e01558e8e0151988f01518a168b02988a169890981760068d0155948d0151938d0151881689029388169390931760078b01558b0151918b015186168702918616919091176008890155908901516009880180549a9097015115159095029890921693909216929092179590951790915591840151600a8201805492949193909260ff191691908490811115612a6157634e487b7160e01b600052602160045260246000fd5b0217905550508954600254604051631bb98a3360e01b81526000935073__$e36f5330ef2566ea8a183e1e27b10de643$__92631bb98a3392612acf928c9287926301000000820460ff90811693620100009093041691600160a01b90910461ffff1690600190600401614cc0565b6101406040518083038186803b158015612ae857600080fd5b505af4158015612afc573d6000803e3d6000fd5b505050506040513d601f19601f82011682018060405250810190612b20919061491f565b604080516060810182528781526020810183905291925081016002905292508260066000612b4f8e6003614f60565b612b5a906002614ee6565b60ff168152602080820192909252604090810160002083518051818501516001600160801b03908116600160801b90810292821692909217845582850151606080850151831684029183169190911760018087019190915560808086015160a08088015186168702918616919091176002808a019190915560c08089015160e0808b015189168a029189169190911760038c0155610100808b015160048d0180546101209d8e015115158d026001600160881b0319918216938d16939093179290921790558f8f015180519f8101518b168c029f8b169f909f1760058e01558e8e0151988f01518a168b02988a169890981760068d0155948d0151938d0151881689029388169390931760078b01558b0151918b015186168702918616919091176008890155908901516009880180549a9097015115159095029890921693909216929092179590951790915591840151600a8201805492949193909260ff191691908490811115612cdc57634e487b7160e01b600052602160045260246000fd5b02179055505050505050505050505050505b80612cf8816150bb565b9150506121da565b50600254600160a01b900461ffff1660011415612d26576002805460ff60c01b19169055565b60028054600160a01b900461ffff16141561208c5760015b600260169054906101000a900460ff166002612d5a9190614f60565b60ff168160ff1611612df75760ff81166000908152600760205260409081902090516366aef26360e01b815260048101919091526001602482015273__$e36f5330ef2566ea8a183e1e27b10de643$__906366aef2639060440160006040518083038186803b158015612dcc57600080fd5b505af4158015612de0573d6000803e3d6000fd5b505050508080612def906150bb565b915050612d3e565b50612e00613783565b6002805460ff60c01b19169055565b6000546001600160a01b03163314612e395760405162461bcd60e51b8152600401610b6390614c34565b6001600160a01b038116612e9e5760405162461bcd60e51b815260206004820152602660248201527f4f776e61626c653a206e6577206f776e657220697320746865207a65726f206160448201526564647265737360d01b6064820152608401610b63565b610cc781613f4e565b8160ff811615801590612edb5750600260169054906101000a900460ff166002612ed19190614f60565b60ff168160ff1611155b612ee457600080fd5b600254600160a01b900461ffff16612f295760405162461bcd60e51b81526020600482015260086024820152670854dd185c9d195960c21b6044820152606401610b63565b60008211612f635760405162461bcd60e51b815260206004820152600760248201526608585b5bdd5b9d60ca1b6044820152606401610b63565b60006005816002612f75600188615051565b612f7f9190614f1f565b60ff908116825260208201929092526040016000206001810154909250600160a01b90041615612fe35760405162461bcd60e51b815260206004820152600f60248201526e11195c1bdcda5d111a5cd8589b1959608a1b6044820152606401610b63565b805460009060ff8681169116146130075760018201546001600160a01b031661301a565b8154600160201b90046001600160a01b03165b90506001600160a01b03811661302f57600080fd5b60ff8516600090815260076020526040808220600254915163c502f99160e01b815273__$e36f5330ef2566ea8a183e1e27b10de643$__9363c502f99193613090939233928b929091600160a01b90910461ffff1690600190600401614c89565b60006040518083038186803b1580156130a857600080fd5b505af41580156130bc573d6000803e3d6000fd5b5050600254604051878152600160a01b90910461ffff16925033915060ff8816906000805160206151468339815191529060200160405180910390a461310d6001600160a01b038216333087613f9e565b5050505050565b600280546001600160a01b038381166001600160a01b0319831681179093556040519116919082907f57e8def7e592578c5fbf9abfe6d3897d7daf10cf7e179f320d944cf71a76493e90600090a35050565b60006131728284614ece565b9392505050565b60006001600160801b038211156131e25760405162461bcd60e51b815260206004820152602760248201527f53616665436173743a2076616c756520646f65736e27742066697420696e20316044820152663238206269747360c81b6064820152608401610b63565b5090565b8454600090613208906001600160801b0380821691600160801b900416613ffe565b60018801549091506001600160801b0316158015906132275750600082115b15613286576001860154613263906114b09061324f908490600160901b900461ffff1661400a565b60018a01546001600160801b03169061402c565b6001880180546001600160801b0319166001600160801b03929092169190911790555b600387015460005b818110156135165760008960030182815481106132bb57634e487b7160e01b600052603260045260246000fd5b60009182526020808320909101546001600160a01b031680835260048d0190915260409091206001810154919250906001600160801b03166132fe575050613504565b60018101548a5460009161332c918a916001600160801b03600160801b918290048116929190910416614047565b90508015613373576003820154613350906114b0906001600160801b031683613166565b6003830180546001600160801b0319166001600160801b03929092169190911790555b6001820154600090613398906001600160801b0380821691600160801b900416613ffe565b905060006133a789838a614047565b905080156134ef5760018d015460009081906133cf908590600160901b900461ffff1661400a565b60028701549091506001600160801b031681106134075760028601546134009084906001600160801b031683614047565b915061340b565b8291505b73__$e36f5330ef2566ea8a183e1e27b10de643$__63c502f9918f8986866001600260149054906101000a900461ffff166134469190615017565b60006040518763ffffffff1660e01b815260040161346996959493929190614c89565b60006040518083038186803b15801561348157600080fd5b505af4158015613495573d6000803e3d6000fd5b50506002546134b3925060019150600160a01b900461ffff16615017565b61ffff16876001600160a01b03168e60ff16600080516020615146833981519152866040516134e491815260200190565b60405180910390a450505b50505060010180546001600160801b03169055505b8061350e816150a0565b91505061328e565b505050505050505050565b8254600090613543906001600160801b0380821691600160801b900416613ffe565b600387015490915060005b8181101561377957600088600301828154811061357b57634e487b7160e01b600052603260045260246000fd5b60009182526020808320909101546001600160a01b031680835260048c0190915260409091206001810154919250906001600160801b03166135be575050613767565b600181015488546000916135ec918a916001600160801b03600160801b918290048116929190910416614047565b90508015613637576002820154613617906114b090600160801b90046001600160801b031683613166565b6002830180546001600160801b03928316600160801b0292169190911790555b6001820154600090613668908990613662906001600160801b0380821691600160801b900416613ffe565b89614047565b905080156137535773__$e36f5330ef2566ea8a183e1e27b10de643$__63c502f9918d868460006001600260149054906101000a900461ffff166136ac9190615017565b60006040518763ffffffff1660e01b81526004016136cf96959493929190614c89565b60006040518083038186803b1580156136e757600080fd5b505af41580156136fb573d6000803e3d6000fd5b5050600254613719925060019150600160a01b900461ffff16615017565b61ffff16846001600160a01b03168c60ff166000805160206151468339815191528460405161374a91815260200190565b60405180910390a45b505060010180546001600160801b03169055505b80613771816150a0565b91505061354e565b5050505050505050565b60005b60025460ff600160b81b90910481169082161015610cc75760ff81166000908152600860209081526040808320546001600160a01b0316808452600490925282206002805492939192600160a01b900461ffff16146138175781546001600160801b0380821691600160801b9004166137fe85613e4a565b6138089190614f89565b6138129190614e5a565b61381a565b60005b600183015461382c9190600f0b614e5a565b6002830180546001600160801b0316905560405163b2838a7360e01b81526001600160a01b03851660048201523060248201529091506138d59073__$e36f5330ef2566ea8a183e1e27b10de643$__9063b2838a739060440160206040518083038186803b15801561389d57600080fd5b505af41580156138b1573d6000803e3d6000fd5b505050506040513d601f19601f820116820180604052508101906114b09190614a00565b6001830180546001600160801b03928316600160801b0292169190911790556139006114b08461408f565b600283810180546001600160801b03199081166001600160801b0394851617909155604080516080810182528654600160801b808204871683529086166020808401918252600f89810b8587019081526001600160a01b038d811660608801818152600091825260039095529790972086519451948b16948b16860294909417845551600184018054909816910b89161790955593519390940180546001600160a01b0319169390921692909217905584549092818116926139c492041684614e5a565b6139ce9190614f89565b600184018054600f9290920b6001600160801b03166001600160801b03199092169190911790555050600090555080613a06816150bb565b915050613786565b60015415613a2e5760405162461bcd60e51b8152600401610b6390614c69565b6001805580613a4957613a4082611dc4565b613a4957600080fd5b604051631a4ca37b60e21b81526001600160a01b038086166004830152602482018590528316604482015273__$e36f5330ef2566ea8a183e1e27b10de643$__906369328dec9060640160006040518083038186803b158015613aab57600080fd5b505af4158015613abf573d6000803e3d6000fd5b50506000600155505050505050565b805160025460ff600160b01b8204811691600160b81b90041660005b83811015613e13576000858281518110613b1457634e487b7160e01b600052603260045260246000fd5b60200260200101519050836002613b2b9190614f60565b613b36906001614ee6565b60ff16808252613b47906001614ee6565b60ff166020820152806005600086613b5e816150bb565b60ff91821683526020808401949094526040928301600020855181549587015194870151606088015160808901516001600160a01b03908116600160201b02640100000000600160c01b031992881663010000000263ff0000001994891662010000029490941663ffff0000199989166101000261ffff19909b1695891695909517999099179790971692909217171694909417845560a08501516001909401805460c0909601511515600160a01b026001600160a81b0319909616949093169390931793909317905594508316613cd05760808101516008600085613c43816150bb565b965060ff1660ff16815260200190815260200160002060006101000a8154816001600160a01b0302191690836001600160a01b031602179055508060a00151600860008580613c91906150bb565b965060ff1660ff16815260200190815260200160002060006101000a8154816001600160a01b0302191690836001600160a01b03160217905550613e00565b60008060005b8560ff168160ff161015613d5657608084015160ff82166000908152600860205260409020546001600160a01b0390811691161415613d1457600192505b60a084015160ff82166000908152600860205260409020546001600160a01b0390811691161415613d4457600191505b80613d4e816150bb565b915050613cd6565b5081613daa5760808301516008600087613d6f816150bb565b985060ff1660ff16815260200190815260200160002060006101000a8154816001600160a01b0302191690836001600160a01b031602179055505b80613dfd5760a08301516008600087613dc2816150bb565b985060ff1660ff16815260200190815260200160002060006101000a8154816001600160a01b0302191690836001600160a01b031602179055505b50505b5080613e0b816150a0565b915050613aea565b506002805461ffff60b01b1916600160b01b60ff9485160260ff60b81b191617600160b81b92909316919091029190911790555050565b6001600160a01b0381166000908152600460205260408120613e89613e6e8461408f565b6001830154600160801b90046001600160801b031690613166565b600282015460405163b2838a7360e01b81526001600160a01b0386166004820152306024820152613f44916001600160801b0380821692613f3e92600160801b90049091169073__$e36f5330ef2566ea8a183e1e27b10de643$__9063b2838a739060440160206040518083038186803b158015613f0657600080fd5b505af4158015613f1a573d6000803e3d6000fd5b505050506040513d601f19601f82011682018060405250810190613f3e9190614a00565b90613166565b6131729190614fd8565b600080546001600160a01b038381166001600160a01b0319831681178455604051919092169283917f8be0079c531659141344cd1fd0a4f28419497f9722a3daafe3b4186f6b6457e09190a35050565b604080516001600160a01b0385811660248301528416604482015260648082018490528251808303909101815260849091019091526020810180516001600160e01b03166323b872dd60e01b179052613ff8908590614226565b50505050565b6000613172828461503a565b600061317261271061402661401f8583614ece565b86906142f8565b90614304565b60008183101561403d576000613172565b613172828461503a565b6000821580614054575081155b8061405d575083155b1561406a57506000613172565b81831015614085576140808261402686866142f8565b614087565b835b949350505050565b600080805b60025460ff600160b01b9091048116908216101561421f5760ff8116600090815260056020526040902080546001600160a01b03868116600160201b9092041614806140ef575060018101546001600160a01b038681169116145b1561420c57805460ff811660009081526007602052604090209061417b906001600160a01b03888116600160201b909204161461413d578154600160801b90046001600160801b0316614174565b815460028054600160a01b900461ffff1660009081529084016020526040902054614174916001600160801b039182169116613166565b8590613166565b8254610100900460ff166000908152600760205260409020600184015491955090614207906001600160a01b038981169116146141c9578154600160801b90046001600160801b0316614200565b815460028054600160a01b900461ffff1660009081529084016020526040902054614200916001600160801b039182169116613166565b8690613166565b945050505b5080614217816150bb565b915050614094565b5092915050565b600061427b826040518060400160405280602081526020017f5361666545524332303a206c6f772d6c6576656c2063616c6c206661696c6564815250856001600160a01b03166143109092919063ffffffff16565b805190915015611b475780806020019051810190614299919061484a565b611b475760405162461bcd60e51b815260206004820152602a60248201527f5361666545524332303a204552433230206f7065726174696f6e20646964206e6044820152691bdd081cdd58d8d9595960b21b6064820152608401610b63565b60006131728284614f41565b60006131728284614f0b565b6060614087848460008585843b6143695760405162461bcd60e51b815260206004820152601d60248201527f416464726573733a2063616c6c20746f206e6f6e2d636f6e74726163740000006044820152606401610b63565b600080866001600160a01b031685876040516143859190614bc3565b60006040518083038185875af1925050503d80600081146143c2576040519150601f19603f3d011682016040523d82523d6000602084013e6143c7565b606091505b50915091506143d78282866143e2565b979650505050505050565b606083156143f1575081613172565b8251156144015782518084602001fd5b8160405162461bcd60e51b8152600401610b639190614bdf565b80356001600160a01b038116811461443257600080fd5b919050565b805161443281615137565b600060c08284031215614453578081fd5b60405160c0810181811067ffffffffffffffff8211171561447657614476615121565b604052905080614485836144e3565b8152614493602084016144e3565b60208201526144a4604084016144e3565b60408201526144b5606084016144e3565b60608201526144c6608084016144e3565b60808201526144d760a084016144e3565b60a08201525092915050565b80516001600160801b038116811461443257600080fd5b803560ff8116811461443257600080fd5b60006020828403121561451c578081fd5b6131728261441b565b60008060408385031215614537578081fd5b6145408361441b565b915061454e6020840161441b565b90509250929050565b60008060408385031215614569578182fd5b6145728361441b565b915060208084013567ffffffffffffffff81111561458e578283fd5b8401601f8101861361459e578283fd5b80356145b16145ac82614e36565b614e05565b80828252848201915084840189868560051b87010111156145d0578687fd5b8694505b838510156145f9576145e58161441b565b8352600194909401939185019185016145d4565b5080955050505050509250929050565b6000602080838503121561461b578182fd5b823567ffffffffffffffff811115614631578283fd5b8301601f81018513614641578283fd5b803561464f6145ac82614e36565b80828252848201915084840188868560051b870101111561466e578687fd5b8694505b8385101561469c57803560038110614688578788fd5b835260019490940193918501918501614672565b50979650505050505050565b600060208083850312156146ba578182fd5b823567ffffffffffffffff8111156146d0578283fd5b8301601f810185136146e0578283fd5b80356146ee6145ac82614e36565b8181528381019083850160e0808502860187018a101561470c578788fd5b8795505b848610156147b55780828b031215614726578788fd5b61472e614d94565b614737836144fa565b81526147448884016144fa565b8882015260406147558185016144fa565b9082015260606147668482016144fa565b90820152608061477784820161441b565b9082015260a061478884820161441b565b9082015260c08381013561479b81615137565b908201528452600195909501949286019290810190614710565b509098975050505050505050565b600060208083850312156147d5578182fd5b823567ffffffffffffffff8111156147eb578283fd5b8301601f810185136147fb578283fd5b80356148096145ac82614e36565b80828252848201915084840188868560051b8701011115614828578687fd5b8694505b8385101561469c57803583526001949094019391850191850161482c565b60006020828403121561485b578081fd5b815161317281615137565b60006101808284031215614878578081fd5b614880614dbd565b825181526020830151602082015260408301516040820152606083015160608201526080830151608082015260a083015160a082015260c083015160c082015260e083015160e08201526101008084015181830152506101208084015181830152506101408084015181830152506101608084015181830152508091505092915050565b600060c08284031215614915578081fd5b6131728383614442565b60006101408284031215614931578081fd5b614939614de1565b614942836144e3565b8152614950602084016144e3565b6020820152614961604084016144e3565b6040820152614972606084016144e3565b6060820152614983608084016144e3565b608082015261499460a084016144e3565b60a08201526149a560c084016144e3565b60c08201526149b660e084016144e3565b60e08201526101006149c98185016144e3565b908201526101206149db848201614437565b908201529392505050565b6000602082840312156149f7578081fd5b613172826144e3565b600060208284031215614a11578081fd5b5051919050565b600060208284031215614a29578081fd5b613172826144fa565b60008060408385031215614a44578182fd5b614a4d836144fa565b9150602083013561ffff81168114614a63578182fd5b809150509250929050565b60008060408385031215614a80578182fd5b614a89836144fa565b946020939093013593505050565b600080600060608486031215614aab578081fd5b614ab4846144fa565b925060208401359150614ac96040850161441b565b90509250925092565b80516001600160801b031682526020810151614af960208401826001600160801b03169052565b506040810151614b1460408401826001600160801b03169052565b506060810151614b2f60608401826001600160801b03169052565b506080810151614b4a60808401826001600160801b03169052565b5060a0810151614b6560a08401826001600160801b03169052565b5060c0810151614b8060c08401826001600160801b03169052565b5060e0810151614b9b60e08401826001600160801b03169052565b50610100818101516001600160801b0316908301526101208082015180151582850152613ff8565b60008251614bd5818460208701615074565b9190910192915050565b6020815260008251806020840152614bfe816040850160208701615074565b601f01601f19169190910160400192915050565b60208082526008908201526710b9b2ba3a3632b960c11b604082015260600190565b6020808252818101527f4f776e61626c653a2063616c6c6572206973206e6f7420746865206f776e6572604082015260600190565b6020808252600690820152651b1bd8dad95960d21b604082015260600190565b9586526001600160a01b039490941660208601526040850192909252606084015261ffff166080830152151560a082015260c00190565b958652931515602086015260ff92831660408601529116606084015261ffff166080830152151560a082015260c00190565b60c08101611fa982846001600160801b038082511683528060208301511660208401528060408301511660408401528060608301511660608401528060808301511660808401528060a08301511660a0840152505050565b6102a08101614d598286614ad2565b614d67610140830185614ad2565b60038310614d8557634e487b7160e01b600052602160045260246000fd5b82610280830152949350505050565b60405160e0810167ffffffffffffffff81118282101715614db757614db7615121565b60405290565b604051610180810167ffffffffffffffff81118282101715614db757614db7615121565b604051610140810167ffffffffffffffff81118282101715614db757614db7615121565b604051601f8201601f1916810167ffffffffffffffff81118282101715614e2e57614e2e615121565b604052919050565b600067ffffffffffffffff821115614e5057614e50615121565b5060051b60200190565b600081600f0b83600f0b8282128260016001607f1b0303821381151615614e8357614e836150f5565b8260016001607f1b0319038212811615614e9f57614e9f6150f5565b50019392505050565b600061ffff808316818516808303821115614ec557614ec56150f5565b01949350505050565b60008219821115614ee157614ee16150f5565b500190565b600060ff821660ff84168060ff03821115614f0357614f036150f5565b019392505050565b600082614f1a57614f1a61510b565b500490565b600060ff831680614f3257614f3261510b565b8060ff84160491505092915050565b6000816000190483118215151615614f5b57614f5b6150f5565b500290565b600060ff821660ff84168160ff0481118215151615614f8157614f816150f5565b029392505050565b600081600f0b83600f0b8281128160016001607f1b031901831281151615614fb357614fb36150f5565b8160016001607f1b03018313811615614fce57614fce6150f5565b5090039392505050565b60008083128015600160ff1b850184121615614ff657614ff66150f5565b6001600160ff1b0384018313811615615011576150116150f5565b50500390565b600061ffff83811690831681811015615032576150326150f5565b039392505050565b60008282101561504c5761504c6150f5565b500390565b600060ff821660ff84168082101561506b5761506b6150f5565b90039392505050565b60005b8381101561508f578181015183820152602001615077565b83811115613ff85750506000910152565b60006000198214156150b4576150b46150f5565b5060010190565b600060ff821660ff8114156150d2576150d26150f5565b60010192915050565b6000600160ff1b8214156150f1576150f16150f5565b0390565b634e487b7160e01b600052601160045260246000fd5b634e487b7160e01b600052601260045260246000fd5b634e487b7160e01b600052604160045260246000fd5b8015158114610cc757600080fdfee963a73e630cb9812a026653bfb6b1e14ffa92f8c38b79f318f2637557ea9f12a26469706673582212204cea18b13e302f2c8b063a338dc3007dbb12650b2a980ac7b4bfb1d20fcf111e64736f6c63430008040033",
  "libraries": {
    "OptionLifecycle": "0xaa8Dc910cab2Bd9d9442a290157349eba3561F05"
  },
  "devdoc": {
    "kind": "dev",
    "methods": {
      "owner()": {
        "details": "Returns the address of the current owner."
      },
      "renounceOwnership()": {
        "details": "Leaves the contract without owner. It will not be possible to call `onlyOwner` functions anymore. Can only be called by the current owner. NOTE: Renouncing ownership will leave the contract without an owner, thereby removing any functionality that is only available to the owner."
      },
      "transferOwnership(address)": {
        "details": "Transfers ownership of the contract to a new account (`newOwner`). Can only be called by the current owner."
      }
    },
    "version": 1
  },
  "userdoc": {
    "kind": "user",
    "methods": {},
    "version": 1
  },
  "storageLayout": {
    "storage": [
      {
        "astId": 222,
        "contract": "contracts/HodlBoosterOptionStatic.sol:HodlBoosterOptionStatic",
        "label": "_owner",
        "offset": 0,
        "slot": "0",
        "type": "t_address"
      },
      {
        "astId": 7276,
        "contract": "contracts/HodlBoosterOptionStatic.sol:HodlBoosterOptionStatic",
        "label": "locked",
        "offset": 0,
        "slot": "1",
        "type": "t_uint256"
      },
      {
        "astId": 7278,
        "contract": "contracts/HodlBoosterOptionStatic.sol:HodlBoosterOptionStatic",
        "label": "settlerRoleAddress",
        "offset": 0,
        "slot": "2",
        "type": "t_address"
      },
      {
        "astId": 7280,
        "contract": "contracts/HodlBoosterOptionStatic.sol:HodlBoosterOptionStatic",
        "label": "currentRound",
        "offset": 20,
        "slot": "2",
        "type": "t_uint16"
      },
      {
        "astId": 7282,
        "contract": "contracts/HodlBoosterOptionStatic.sol:HodlBoosterOptionStatic",
        "label": "optionPairCount",
        "offset": 22,
        "slot": "2",
        "type": "t_uint8"
      },
      {
        "astId": 7284,
        "contract": "contracts/HodlBoosterOptionStatic.sol:HodlBoosterOptionStatic",
        "label": "assetCount",
        "offset": 23,
        "slot": "2",
        "type": "t_uint8"
      },
      {
        "astId": 7286,
        "contract": "contracts/HodlBoosterOptionStatic.sol:HodlBoosterOptionStatic",
        "label": "underSettlement",
        "offset": 24,
        "slot": "2",
        "type": "t_bool"
      },
      {
        "astId": 7291,
        "contract": "contracts/HodlBoosterOptionStatic.sol:HodlBoosterOptionStatic",
        "label": "settlementCashflowResult",
        "offset": 0,
        "slot": "3",
        "type": "t_mapping(t_address,t_struct(SettlementCashflowResult)7015_storage)"
      },
      {
        "astId": 7296,
        "contract": "contracts/HodlBoosterOptionStatic.sol:HodlBoosterOptionStatic",
        "label": "assetData",
        "offset": 0,
        "slot": "4",
        "type": "t_mapping(t_address,t_struct(AssetData)6893_storage)"
      },
      {
        "astId": 7301,
        "contract": "contracts/HodlBoosterOptionStatic.sol:HodlBoosterOptionStatic",
        "label": "optionPairs",
        "offset": 0,
        "slot": "5",
        "type": "t_mapping(t_uint8,t_struct(OptionPairDefinition)6971_storage)"
      },
      {
        "astId": 7306,
        "contract": "contracts/HodlBoosterOptionStatic.sol:HodlBoosterOptionStatic",
        "label": "executionAccountingResult",
        "offset": 0,
        "slot": "6",
        "type": "t_mapping(t_uint8,t_struct(OptionPairExecutionAccountingResult)7006_storage)"
      },
      {
        "astId": 7311,
        "contract": "contracts/HodlBoosterOptionStatic.sol:HodlBoosterOptionStatic",
        "label": "optionData",
        "offset": 0,
        "slot": "7",
        "type": "t_mapping(t_uint8,t_struct(OptionData)6913_storage)"
      },
      {
        "astId": 7315,
        "contract": "contracts/HodlBoosterOptionStatic.sol:HodlBoosterOptionStatic",
        "label": "asset",
        "offset": 0,
        "slot": "8",
        "type": "t_mapping(t_uint8,t_address)"
      }
    ],
    "types": {
      "t_address": {
        "encoding": "inplace",
        "label": "address",
        "numberOfBytes": "20"
      },
      "t_array(t_address)dyn_storage": {
        "base": "t_address",
        "encoding": "dynamic_array",
        "label": "address[]",
        "numberOfBytes": "32"
      },
      "t_bool": {
        "encoding": "inplace",
        "label": "bool",
        "numberOfBytes": "1"
      },
      "t_enum(OptionExecution)6996": {
        "encoding": "inplace",
        "label": "enum StructureData.OptionExecution",
        "numberOfBytes": "1"
      },
      "t_int128": {
        "encoding": "inplace",
        "label": "int128",
        "numberOfBytes": "16"
      },
      "t_mapping(t_address,t_struct(AssetData)6893_storage)": {
        "encoding": "mapping",
        "key": "t_address",
        "label": "mapping(address => struct StructureData.AssetData)",
        "numberOfBytes": "32",
        "value": "t_struct(AssetData)6893_storage"
      },
      "t_mapping(t_address,t_struct(SettlementCashflowResult)7015_storage)": {
        "encoding": "mapping",
        "key": "t_address",
        "label": "mapping(address => struct StructureData.SettlementCashflowResult)",
        "numberOfBytes": "32",
        "value": "t_struct(SettlementCashflowResult)7015_storage"
      },
      "t_mapping(t_address,t_struct(UserState)6930_storage)": {
        "encoding": "mapping",
        "key": "t_address",
        "label": "mapping(address => struct StructureData.UserState)",
        "numberOfBytes": "32",
        "value": "t_struct(UserState)6930_storage"
      },
      "t_mapping(t_uint16,t_struct(OptionState)6855_storage)": {
        "encoding": "mapping",
        "key": "t_uint16",
        "label": "mapping(uint16 => struct StructureData.OptionState)",
        "numberOfBytes": "32",
        "value": "t_struct(OptionState)6855_storage"
      },
      "t_mapping(t_uint8,t_address)": {
        "encoding": "mapping",
        "key": "t_uint8",
        "label": "mapping(uint8 => address)",
        "numberOfBytes": "32",
        "value": "t_address"
      },
      "t_mapping(t_uint8,t_struct(OptionData)6913_storage)": {
        "encoding": "mapping",
        "key": "t_uint8",
        "label": "mapping(uint8 => struct StructureData.OptionData)",
        "numberOfBytes": "32",
        "value": "t_struct(OptionData)6913_storage"
      },
      "t_mapping(t_uint8,t_struct(OptionPairDefinition)6971_storage)": {
        "encoding": "mapping",
        "key": "t_uint8",
        "label": "mapping(uint8 => struct StructureData.OptionPairDefinition)",
        "numberOfBytes": "32",
        "value": "t_struct(OptionPairDefinition)6971_storage"
      },
      "t_mapping(t_uint8,t_struct(OptionPairExecutionAccountingResult)7006_storage)": {
        "encoding": "mapping",
        "key": "t_uint8",
        "label": "mapping(uint8 => struct StructureData.OptionPairExecutionAccountingResult)",
        "numberOfBytes": "32",
        "value": "t_struct(OptionPairExecutionAccountingResult)7006_storage"
      },
      "t_struct(AssetData)6893_storage": {
        "encoding": "inplace",
        "label": "struct StructureData.AssetData",
        "members": [
          {
            "astId": 6882,
            "contract": "contracts/HodlBoosterOptionStatic.sol:HodlBoosterOptionStatic",
            "label": "releasedAmount",
            "offset": 0,
            "slot": "0",
            "type": "t_uint128"
          },
          {
            "astId": 6884,
            "contract": "contracts/HodlBoosterOptionStatic.sol:HodlBoosterOptionStatic",
            "label": "depositAmount",
            "offset": 16,
            "slot": "0",
            "type": "t_uint128"
          },
          {
            "astId": 6886,
            "contract": "contracts/HodlBoosterOptionStatic.sol:HodlBoosterOptionStatic",
            "label": "leftOverAmount",
            "offset": 0,
            "slot": "1",
            "type": "t_int128"
          },
          {
            "astId": 6888,
            "contract": "contracts/HodlBoosterOptionStatic.sol:HodlBoosterOptionStatic",
            "label": "balanceAfterSettle",
            "offset": 16,
            "slot": "1",
            "type": "t_uint128"
          },
          {
            "astId": 6890,
            "contract": "contracts/HodlBoosterOptionStatic.sol:HodlBoosterOptionStatic",
            "label": "withdrawableAfterSettle",
            "offset": 0,
            "slot": "2",
            "type": "t_uint128"
          },
          {
            "astId": 6892,
            "contract": "contracts/HodlBoosterOptionStatic.sol:HodlBoosterOptionStatic",
            "label": "traderWithdrawn",
            "offset": 16,
            "slot": "2",
            "type": "t_uint128"
          }
        ],
        "numberOfBytes": "96"
      },
      "t_struct(OptionData)6913_storage": {
        "encoding": "inplace",
        "label": "struct StructureData.OptionData",
        "members": [
          {
            "astId": 6895,
            "contract": "contracts/HodlBoosterOptionStatic.sol:HodlBoosterOptionStatic",
            "label": "totalReleasedDepositAssetAmount",
            "offset": 0,
            "slot": "0",
            "type": "t_uint128"
          },
          {
            "astId": 6897,
            "contract": "contracts/HodlBoosterOptionStatic.sol:HodlBoosterOptionStatic",
            "label": "totalReleasedCounterPartyAssetAmount",
            "offset": 16,
            "slot": "0",
            "type": "t_uint128"
          },
          {
            "astId": 6899,
            "contract": "contracts/HodlBoosterOptionStatic.sol:HodlBoosterOptionStatic",
            "label": "assetToTerminateForNextRound",
            "offset": 0,
            "slot": "1",
            "type": "t_uint128"
          },
          {
            "astId": 6904,
            "contract": "contracts/HodlBoosterOptionStatic.sol:HodlBoosterOptionStatic",
            "label": "optionStates",
            "offset": 0,
            "slot": "2",
            "type": "t_mapping(t_uint16,t_struct(OptionState)6855_storage)"
          },
          {
            "astId": 6907,
            "contract": "contracts/HodlBoosterOptionStatic.sol:HodlBoosterOptionStatic",
            "label": "usersInvolved",
            "offset": 0,
            "slot": "3",
            "type": "t_array(t_address)dyn_storage"
          },
          {
            "astId": 6912,
            "contract": "contracts/HodlBoosterOptionStatic.sol:HodlBoosterOptionStatic",
            "label": "userStates",
            "offset": 0,
            "slot": "4",
            "type": "t_mapping(t_address,t_struct(UserState)6930_storage)"
          }
        ],
        "numberOfBytes": "160"
      },
      "t_struct(OptionPairDefinition)6971_storage": {
        "encoding": "inplace",
        "label": "struct StructureData.OptionPairDefinition",
        "members": [
          {
            "astId": 6958,
            "contract": "contracts/HodlBoosterOptionStatic.sol:HodlBoosterOptionStatic",
            "label": "callOptionId",
            "offset": 0,
            "slot": "0",
            "type": "t_uint8"
          },
          {
            "astId": 6960,
            "contract": "contracts/HodlBoosterOptionStatic.sol:HodlBoosterOptionStatic",
            "label": "putOptionId",
            "offset": 1,
            "slot": "0",
            "type": "t_uint8"
          },
          {
            "astId": 6962,
            "contract": "contracts/HodlBoosterOptionStatic.sol:HodlBoosterOptionStatic",
            "label": "depositAssetAmountDecimals",
            "offset": 2,
            "slot": "0",
            "type": "t_uint8"
          },
          {
            "astId": 6964,
            "contract": "contracts/HodlBoosterOptionStatic.sol:HodlBoosterOptionStatic",
            "label": "counterPartyAssetAmountDecimals",
            "offset": 3,
            "slot": "0",
            "type": "t_uint8"
          },
          {
            "astId": 6966,
            "contract": "contracts/HodlBoosterOptionStatic.sol:HodlBoosterOptionStatic",
            "label": "depositAsset",
            "offset": 4,
            "slot": "0",
            "type": "t_address"
          },
          {
            "astId": 6968,
            "contract": "contracts/HodlBoosterOptionStatic.sol:HodlBoosterOptionStatic",
            "label": "counterPartyAsset",
            "offset": 0,
            "slot": "1",
            "type": "t_address"
          },
          {
            "astId": 6970,
            "contract": "contracts/HodlBoosterOptionStatic.sol:HodlBoosterOptionStatic",
            "label": "manualDepositDisabled",
            "offset": 20,
            "slot": "1",
            "type": "t_bool"
          }
        ],
        "numberOfBytes": "64"
      },
      "t_struct(OptionPairExecutionAccountingResult)7006_storage": {
        "encoding": "inplace",
        "label": "struct StructureData.OptionPairExecutionAccountingResult",
        "members": [
          {
            "astId": 6999,
            "contract": "contracts/HodlBoosterOptionStatic.sol:HodlBoosterOptionStatic",
            "label": "callOptionResult",
            "offset": 0,
            "slot": "0",
            "type": "t_struct(SettlementAccountingResult)6992_storage"
          },
          {
            "astId": 7002,
            "contract": "contracts/HodlBoosterOptionStatic.sol:HodlBoosterOptionStatic",
            "label": "putOptionResult",
            "offset": 0,
            "slot": "5",
            "type": "t_struct(SettlementAccountingResult)6992_storage"
          },
          {
            "astId": 7005,
            "contract": "contracts/HodlBoosterOptionStatic.sol:HodlBoosterOptionStatic",
            "label": "execute",
            "offset": 0,
            "slot": "10",
            "type": "t_enum(OptionExecution)6996"
          }
        ],
        "numberOfBytes": "352"
      },
      "t_struct(OptionState)6855_storage": {
        "encoding": "inplace",
        "label": "struct StructureData.OptionState",
        "members": [
          {
            "astId": 6842,
            "contract": "contracts/HodlBoosterOptionStatic.sol:HodlBoosterOptionStatic",
            "label": "totalAmount",
            "offset": 0,
            "slot": "0",
            "type": "t_uint128"
          },
          {
            "astId": 6844,
            "contract": "contracts/HodlBoosterOptionStatic.sol:HodlBoosterOptionStatic",
            "label": "totalTerminate",
            "offset": 16,
            "slot": "0",
            "type": "t_uint128"
          },
          {
            "astId": 6846,
            "contract": "contracts/HodlBoosterOptionStatic.sol:HodlBoosterOptionStatic",
            "label": "strikePrice",
            "offset": 0,
            "slot": "1",
            "type": "t_uint128"
          },
          {
            "astId": 6848,
            "contract": "contracts/HodlBoosterOptionStatic.sol:HodlBoosterOptionStatic",
            "label": "round",
            "offset": 16,
            "slot": "1",
            "type": "t_uint16"
          },
          {
            "astId": 6850,
            "contract": "contracts/HodlBoosterOptionStatic.sol:HodlBoosterOptionStatic",
            "label": "premiumRate",
            "offset": 18,
            "slot": "1",
            "type": "t_uint16"
          },
          {
            "astId": 6852,
            "contract": "contracts/HodlBoosterOptionStatic.sol:HodlBoosterOptionStatic",
            "label": "executed",
            "offset": 20,
            "slot": "1",
            "type": "t_bool"
          },
          {
            "astId": 6854,
            "contract": "contracts/HodlBoosterOptionStatic.sol:HodlBoosterOptionStatic",
            "label": "callOrPut",
            "offset": 21,
            "slot": "1",
            "type": "t_bool"
          }
        ],
        "numberOfBytes": "64"
      },
      "t_struct(SettlementAccountingResult)6992_storage": {
        "encoding": "inplace",
        "label": "struct StructureData.SettlementAccountingResult",
        "members": [
          {
            "astId": 6973,
            "contract": "contracts/HodlBoosterOptionStatic.sol:HodlBoosterOptionStatic",
            "label": "depositAmount",
            "offset": 0,
            "slot": "0",
            "type": "t_uint128"
          },
          {
            "astId": 6975,
            "contract": "contracts/HodlBoosterOptionStatic.sol:HodlBoosterOptionStatic",
            "label": "autoRollAmount",
            "offset": 16,
            "slot": "0",
            "type": "t_uint128"
          },
          {
            "astId": 6977,
            "contract": "contracts/HodlBoosterOptionStatic.sol:HodlBoosterOptionStatic",
            "label": "autoRollPremium",
            "offset": 0,
            "slot": "1",
            "type": "t_uint128"
          },
          {
            "astId": 6979,
            "contract": "contracts/HodlBoosterOptionStatic.sol:HodlBoosterOptionStatic",
            "label": "releasedAmount",
            "offset": 16,
            "slot": "1",
            "type": "t_uint128"
          },
          {
            "astId": 6981,
            "contract": "contracts/HodlBoosterOptionStatic.sol:HodlBoosterOptionStatic",
            "label": "releasedPremium",
            "offset": 0,
            "slot": "2",
            "type": "t_uint128"
          },
          {
            "astId": 6983,
            "contract": "contracts/HodlBoosterOptionStatic.sol:HodlBoosterOptionStatic",
            "label": "autoRollCounterPartyAmount",
            "offset": 16,
            "slot": "2",
            "type": "t_uint128"
          },
          {
            "astId": 6985,
            "contract": "contracts/HodlBoosterOptionStatic.sol:HodlBoosterOptionStatic",
            "label": "autoRollCounterPartyPremium",
            "offset": 0,
            "slot": "3",
            "type": "t_uint128"
          },
          {
            "astId": 6987,
            "contract": "contracts/HodlBoosterOptionStatic.sol:HodlBoosterOptionStatic",
            "label": "releasedCounterPartyAmount",
            "offset": 16,
            "slot": "3",
            "type": "t_uint128"
          },
          {
            "astId": 6989,
            "contract": "contracts/HodlBoosterOptionStatic.sol:HodlBoosterOptionStatic",
            "label": "releasedCounterPartyPremium",
            "offset": 0,
            "slot": "4",
            "type": "t_uint128"
          },
          {
            "astId": 6991,
            "contract": "contracts/HodlBoosterOptionStatic.sol:HodlBoosterOptionStatic",
            "label": "executed",
            "offset": 16,
            "slot": "4",
            "type": "t_bool"
          }
        ],
        "numberOfBytes": "160"
      },
      "t_struct(SettlementCashflowResult)7015_storage": {
        "encoding": "inplace",
        "label": "struct StructureData.SettlementCashflowResult",
        "members": [
          {
            "astId": 7008,
            "contract": "contracts/HodlBoosterOptionStatic.sol:HodlBoosterOptionStatic",
            "label": "newDepositAmount",
            "offset": 0,
            "slot": "0",
            "type": "t_uint128"
          },
          {
            "astId": 7010,
            "contract": "contracts/HodlBoosterOptionStatic.sol:HodlBoosterOptionStatic",
            "label": "newReleasedAmount",
            "offset": 16,
            "slot": "0",
            "type": "t_uint128"
          },
          {
            "astId": 7012,
            "contract": "contracts/HodlBoosterOptionStatic.sol:HodlBoosterOptionStatic",
            "label": "leftOverAmount",
            "offset": 0,
            "slot": "1",
            "type": "t_int128"
          },
          {
            "astId": 7014,
            "contract": "contracts/HodlBoosterOptionStatic.sol:HodlBoosterOptionStatic",
            "label": "contractAddress",
            "offset": 0,
            "slot": "2",
            "type": "t_address"
          }
        ],
        "numberOfBytes": "96"
      },
      "t_struct(UserState)6930_storage": {
        "encoding": "inplace",
        "label": "struct StructureData.UserState",
        "members": [
          {
            "astId": 6915,
            "contract": "contracts/HodlBoosterOptionStatic.sol:HodlBoosterOptionStatic",
            "label": "pendingAsset",
            "offset": 0,
            "slot": "0",
            "type": "t_uint128"
          },
          {
            "astId": 6917,
            "contract": "contracts/HodlBoosterOptionStatic.sol:HodlBoosterOptionStatic",
            "label": "tempLocked",
            "offset": 16,
            "slot": "0",
            "type": "t_uint128"
          },
          {
            "astId": 6919,
            "contract": "contracts/HodlBoosterOptionStatic.sol:HodlBoosterOptionStatic",
            "label": "ongoingAsset",
            "offset": 0,
            "slot": "1",
            "type": "t_uint128"
          },
          {
            "astId": 6921,
            "contract": "contracts/HodlBoosterOptionStatic.sol:HodlBoosterOptionStatic",
            "label": "assetToTerminate",
            "offset": 16,
            "slot": "1",
            "type": "t_uint128"
          },
          {
            "astId": 6923,
            "contract": "contracts/HodlBoosterOptionStatic.sol:HodlBoosterOptionStatic",
            "label": "assetToTerminateForNextRound",
            "offset": 0,
            "slot": "2",
            "type": "t_uint128"
          },
          {
            "astId": 6925,
            "contract": "contracts/HodlBoosterOptionStatic.sol:HodlBoosterOptionStatic",
            "label": "releasedDepositAssetAmount",
            "offset": 16,
            "slot": "2",
            "type": "t_uint128"
          },
          {
            "astId": 6927,
            "contract": "contracts/HodlBoosterOptionStatic.sol:HodlBoosterOptionStatic",
            "label": "releasedCounterPartyAssetAmount",
            "offset": 0,
            "slot": "3",
            "type": "t_uint128"
          },
          {
            "astId": 6929,
            "contract": "contracts/HodlBoosterOptionStatic.sol:HodlBoosterOptionStatic",
            "label": "hasState",
            "offset": 16,
            "slot": "3",
            "type": "t_bool"
          }
        ],
        "numberOfBytes": "128"
      },
      "t_uint128": {
        "encoding": "inplace",
        "label": "uint128",
        "numberOfBytes": "16"
      },
      "t_uint16": {
        "encoding": "inplace",
        "label": "uint16",
        "numberOfBytes": "2"
      },
      "t_uint256": {
        "encoding": "inplace",
        "label": "uint256",
        "numberOfBytes": "32"
      },
      "t_uint8": {
        "encoding": "inplace",
        "label": "uint8",
        "numberOfBytes": "1"
      }
    }
  }
}