{
  "address": "0xa667397a4641eCA18Db14dC3812D1b1DD58E5cDb",
  "abi": [
    {
      "anonymous": false,
      "inputs": [
        {
          "indexed": true,
          "internalType": "address",
          "name": "owner",
          "type": "address"
        },
        {
          "indexed": true,
          "internalType": "address",
          "name": "spender",
          "type": "address"
        },
        {
          "indexed": false,
          "internalType": "uint256",
          "name": "value",
          "type": "uint256"
        }
      ],
      "name": "Approval",
      "type": "event"
    },
    {
      "anonymous": false,
      "inputs": [
        {
          "indexed": true,
          "internalType": "uint256",
          "name": "round",
          "type": "uint256"
        }
      ],
      "name": "CloseOption",
      "type": "event"
    },
    {
      "anonymous": false,
      "inputs": [
        {
          "indexed": true,
          "internalType": "uint256",
          "name": "round",
          "type": "uint256"
        }
      ],
      "name": "CommitOption",
      "type": "event"
    },
    {
      "anonymous": false,
      "inputs": [
        {
          "indexed": true,
          "internalType": "address",
          "name": "account",
          "type": "address"
        },
        {
          "indexed": true,
          "internalType": "uint256",
          "name": "round",
          "type": "uint256"
        },
        {
          "indexed": false,
          "internalType": "uint256",
          "name": "amount",
          "type": "uint256"
        }
      ],
      "name": "Deposit",
      "type": "event"
    },
    {
      "anonymous": false,
      "inputs": [
        {
          "indexed": true,
          "internalType": "uint256",
          "name": "round",
          "type": "uint256"
        }
      ],
      "name": "OpenOption",
      "type": "event"
    },
    {
      "anonymous": false,
      "inputs": [
        {
          "indexed": true,
          "internalType": "address",
          "name": "previousOwner",
          "type": "address"
        },
        {
          "indexed": true,
          "internalType": "address",
          "name": "newOwner",
          "type": "address"
        }
      ],
      "name": "OwnershipTransferred",
      "type": "event"
    },
    {
      "anonymous": false,
      "inputs": [
        {
          "indexed": false,
          "internalType": "address",
          "name": "",
          "type": "address"
        },
        {
          "indexed": false,
          "internalType": "uint256",
          "name": "",
          "type": "uint256"
        }
      ],
      "name": "Received",
      "type": "event"
    },
    {
      "anonymous": false,
      "inputs": [
        {
          "indexed": true,
          "internalType": "address",
          "name": "account",
          "type": "address"
        },
        {
          "indexed": true,
          "internalType": "uint256",
          "name": "round",
          "type": "uint256"
        },
        {
          "indexed": false,
          "internalType": "uint256",
          "name": "amount",
          "type": "uint256"
        }
      ],
      "name": "Redeem",
      "type": "event"
    },
    {
      "anonymous": false,
      "inputs": [
        {
          "indexed": true,
          "internalType": "address",
          "name": "from",
          "type": "address"
        },
        {
          "indexed": true,
          "internalType": "address",
          "name": "to",
          "type": "address"
        },
        {
          "indexed": false,
          "internalType": "uint256",
          "name": "value",
          "type": "uint256"
        }
      ],
      "name": "Transfer",
      "type": "event"
    },
    {
      "inputs": [],
      "name": "RATIOMULTIPLIER",
      "outputs": [
        {
          "internalType": "uint256",
          "name": "",
          "type": "uint256"
        }
      ],
      "stateMutability": "view",
      "type": "function"
    },
    {
      "inputs": [],
      "name": "allSettled",
      "outputs": [
        {
          "internalType": "bool",
          "name": "",
          "type": "bool"
        }
      ],
      "stateMutability": "view",
      "type": "function"
    },
    {
      "inputs": [
        {
          "internalType": "address",
          "name": "owner",
          "type": "address"
        },
        {
          "internalType": "address",
          "name": "spender",
          "type": "address"
        }
      ],
      "name": "allowance",
      "outputs": [
        {
          "internalType": "uint256",
          "name": "",
          "type": "uint256"
        }
      ],
      "stateMutability": "view",
      "type": "function"
    },
    {
      "inputs": [
        {
          "internalType": "address",
          "name": "spender",
          "type": "address"
        },
        {
          "internalType": "uint256",
          "name": "amount",
          "type": "uint256"
        }
      ],
      "name": "approve",
      "outputs": [
        {
          "internalType": "bool",
          "name": "",
          "type": "bool"
        }
      ],
      "stateMutability": "nonpayable",
      "type": "function"
    },
    {
      "inputs": [],
      "name": "asset",
      "outputs": [
        {
          "internalType": "address",
          "name": "",
          "type": "address"
        }
      ],
      "stateMutability": "view",
      "type": "function"
    },
    {
      "inputs": [
        {
          "internalType": "address",
          "name": "account",
          "type": "address"
        }
      ],
      "name": "balanceOf",
      "outputs": [
        {
          "internalType": "uint256",
          "name": "",
          "type": "uint256"
        }
      ],
      "stateMutability": "view",
      "type": "function"
    },
    {
      "inputs": [
        {
          "internalType": "uint256",
          "name": "_underlyingPrice",
          "type": "uint256"
        }
      ],
      "name": "closePrevious",
      "outputs": [],
      "stateMutability": "nonpayable",
      "type": "function"
    },
    {
      "inputs": [
        {
          "internalType": "address",
          "name": "_traderAddress",
          "type": "address"
        }
      ],
      "name": "commitCurrent",
      "outputs": [],
      "stateMutability": "nonpayable",
      "type": "function"
    },
    {
      "inputs": [],
      "name": "currentRound",
      "outputs": [
        {
          "internalType": "uint256",
          "name": "",
          "type": "uint256"
        }
      ],
      "stateMutability": "view",
      "type": "function"
    },
    {
      "inputs": [],
      "name": "decimals",
      "outputs": [
        {
          "internalType": "uint8",
          "name": "",
          "type": "uint8"
        }
      ],
      "stateMutability": "view",
      "type": "function"
    },
    {
      "inputs": [
        {
          "internalType": "address",
          "name": "spender",
          "type": "address"
        },
        {
          "internalType": "uint256",
          "name": "subtractedValue",
          "type": "uint256"
        }
      ],
      "name": "decreaseAllowance",
      "outputs": [
        {
          "internalType": "bool",
          "name": "",
          "type": "bool"
        }
      ],
      "stateMutability": "nonpayable",
      "type": "function"
    },
    {
      "inputs": [
        {
          "internalType": "uint256",
          "name": "_amount",
          "type": "uint256"
        }
      ],
      "name": "deposit",
      "outputs": [],
      "stateMutability": "nonpayable",
      "type": "function"
    },
    {
      "inputs": [],
      "name": "depositETH",
      "outputs": [],
      "stateMutability": "payable",
      "type": "function"
    },
    {
      "inputs": [],
      "name": "finishSettlement",
      "outputs": [],
      "stateMutability": "nonpayable",
      "type": "function"
    },
    {
      "inputs": [
        {
          "internalType": "uint8",
          "name": "_backwardRound",
          "type": "uint8"
        }
      ],
      "name": "getOngoingAsset",
      "outputs": [
        {
          "internalType": "uint256",
          "name": "",
          "type": "uint256"
        }
      ],
      "stateMutability": "view",
      "type": "function"
    },
    {
      "inputs": [],
      "name": "getPendingAsset",
      "outputs": [
        {
          "internalType": "uint256",
          "name": "",
          "type": "uint256"
        }
      ],
      "stateMutability": "view",
      "type": "function"
    },
    {
      "inputs": [],
      "name": "getRequest",
      "outputs": [
        {
          "components": [
            {
              "internalType": "uint256",
              "name": "amount",
              "type": "uint256"
            },
            {
              "internalType": "address",
              "name": "contractAddress",
              "type": "address"
            }
          ],
          "internalType": "struct StructureData.Request[]",
          "name": "",
          "type": "tuple[]"
        }
      ],
      "stateMutability": "view",
      "type": "function"
    },
    {
      "inputs": [
        {
          "internalType": "uint256",
          "name": "_blockHeight",
          "type": "uint256"
        }
      ],
      "name": "getRoundData",
      "outputs": [
        {
          "components": [
            {
              "internalType": "uint256",
              "name": "round",
              "type": "uint256"
            },
            {
              "internalType": "uint256",
              "name": "totalAmount",
              "type": "uint256"
            },
            {
              "internalType": "uint256",
              "name": "strikePrice",
              "type": "uint256"
            },
            {
              "internalType": "uint256",
              "name": "underlyingPrice",
              "type": "uint256"
            },
            {
              "internalType": "uint16",
              "name": "premiumRate",
              "type": "uint16"
            },
            {
              "internalType": "uint8",
              "name": "pricePrecision",
              "type": "uint8"
            },
            {
              "internalType": "bool",
              "name": "executed",
              "type": "bool"
            },
            {
              "internalType": "bool",
              "name": "callOrPut",
              "type": "bool"
            }
          ],
          "internalType": "struct StructureData.OptionState",
          "name": "",
          "type": "tuple"
        }
      ],
      "stateMutability": "view",
      "type": "function"
    },
    {
      "inputs": [
        {
          "internalType": "address",
          "name": "spender",
          "type": "address"
        },
        {
          "internalType": "uint256",
          "name": "addedValue",
          "type": "uint256"
        }
      ],
      "name": "increaseAllowance",
      "outputs": [
        {
          "internalType": "bool",
          "name": "",
          "type": "bool"
        }
      ],
      "stateMutability": "nonpayable",
      "type": "function"
    },
    {
      "inputs": [
        {
          "internalType": "string",
          "name": "name",
          "type": "string"
        },
        {
          "internalType": "string",
          "name": "symbol",
          "type": "string"
        },
        {
          "internalType": "address",
          "name": "_asset",
          "type": "address"
        },
        {
          "internalType": "address",
          "name": "_stableCoin",
          "type": "address"
        },
        {
          "internalType": "uint8",
          "name": "_assetAmountDecimals",
          "type": "uint8"
        },
        {
          "internalType": "uint8",
          "name": "_stableCoinAmountDecimals",
          "type": "uint8"
        },
        {
          "internalType": "address",
          "name": "_vaultAddress",
          "type": "address"
        }
      ],
      "name": "initalize",
      "outputs": [],
      "stateMutability": "nonpayable",
      "type": "function"
    },
    {
      "inputs": [
        {
          "internalType": "string",
          "name": "name",
          "type": "string"
        },
        {
          "internalType": "string",
          "name": "symbol",
          "type": "string"
        },
        {
          "internalType": "address",
          "name": "_underlying",
          "type": "address"
        },
        {
          "internalType": "address",
          "name": "_stableCoin",
          "type": "address"
        },
        {
          "internalType": "uint8",
          "name": "_underlyingDecimals",
          "type": "uint8"
        },
        {
          "internalType": "uint8",
          "name": "_stableCoinDecimals",
          "type": "uint8"
        },
        {
          "internalType": "address",
          "name": "_vaultAddress",
          "type": "address"
        }
      ],
      "name": "initialize",
      "outputs": [],
      "stateMutability": "nonpayable",
      "type": "function"
    },
    {
      "inputs": [],
      "name": "isEth",
      "outputs": [
        {
          "internalType": "bool",
          "name": "",
          "type": "bool"
        }
      ],
      "stateMutability": "view",
      "type": "function"
    },
    {
      "inputs": [
        {
          "internalType": "address",
          "name": "",
          "type": "address"
        }
      ],
      "name": "maturedAsset",
      "outputs": [
        {
          "internalType": "uint256",
          "name": "",
          "type": "uint256"
        }
      ],
      "stateMutability": "view",
      "type": "function"
    },
    {
      "inputs": [
        {
          "internalType": "address",
          "name": "",
          "type": "address"
        }
      ],
      "name": "maturedStableCoin",
      "outputs": [
        {
          "internalType": "uint256",
          "name": "",
          "type": "uint256"
        }
      ],
      "stateMutability": "view",
      "type": "function"
    },
    {
      "inputs": [],
      "name": "name",
      "outputs": [
        {
          "internalType": "string",
          "name": "",
          "type": "string"
        }
      ],
      "stateMutability": "view",
      "type": "function"
    },
    {
      "inputs": [
        {
          "internalType": "uint256",
          "name": "",
          "type": "uint256"
        }
      ],
      "name": "optionHeights",
      "outputs": [
        {
          "internalType": "uint256",
          "name": "",
          "type": "uint256"
        }
      ],
      "stateMutability": "view",
      "type": "function"
    },
    {
      "inputs": [],
      "name": "optionParameters",
      "outputs": [
        {
          "internalType": "uint256",
          "name": "quota",
          "type": "uint256"
        },
        {
          "internalType": "uint8",
          "name": "pricePrecision",
          "type": "uint8"
        },
        {
          "internalType": "int16",
          "name": "strikePriceRatio",
          "type": "int16"
        },
        {
          "internalType": "uint16",
          "name": "premiumRate",
          "type": "uint16"
        },
        {
          "internalType": "bool",
          "name": "callOrPut",
          "type": "bool"
        }
      ],
      "stateMutability": "view",
      "type": "function"
    },
    {
      "inputs": [
        {
          "internalType": "uint256",
          "name": "",
          "type": "uint256"
        }
      ],
      "name": "optionStates",
      "outputs": [
        {
          "internalType": "uint256",
          "name": "round",
          "type": "uint256"
        },
        {
          "internalType": "uint256",
          "name": "totalAmount",
          "type": "uint256"
        },
        {
          "internalType": "uint256",
          "name": "strikePrice",
          "type": "uint256"
        },
        {
          "internalType": "uint256",
          "name": "underlyingPrice",
          "type": "uint256"
        },
        {
          "internalType": "uint16",
          "name": "premiumRate",
          "type": "uint16"
        },
        {
          "internalType": "uint8",
          "name": "pricePrecision",
          "type": "uint8"
        },
        {
          "internalType": "bool",
          "name": "executed",
          "type": "bool"
        },
        {
          "internalType": "bool",
          "name": "callOrPut",
          "type": "bool"
        }
      ],
      "stateMutability": "view",
      "type": "function"
    },
    {
      "inputs": [],
      "name": "owner",
      "outputs": [
        {
          "internalType": "address",
          "name": "",
          "type": "address"
        }
      ],
      "stateMutability": "view",
      "type": "function"
    },
    {
      "inputs": [],
      "name": "previousUnderlyingPrice",
      "outputs": [
        {
          "internalType": "uint256",
          "name": "",
          "type": "uint256"
        }
      ],
      "stateMutability": "view",
      "type": "function"
    },
    {
      "inputs": [
        {
          "internalType": "uint256",
          "name": "_amount",
          "type": "uint256"
        }
      ],
      "name": "redeem",
      "outputs": [],
      "stateMutability": "nonpayable",
      "type": "function"
    },
    {
      "inputs": [
        {
          "internalType": "uint256",
          "name": "_amount",
          "type": "uint256"
        }
      ],
      "name": "redeposit",
      "outputs": [],
      "stateMutability": "nonpayable",
      "type": "function"
    },
    {
      "inputs": [],
      "name": "renounceOwnership",
      "outputs": [],
      "stateMutability": "nonpayable",
      "type": "function"
    },
    {
      "inputs": [
        {
          "components": [
            {
              "internalType": "uint256",
              "name": "quota",
              "type": "uint256"
            },
            {
              "internalType": "uint8",
              "name": "pricePrecision",
              "type": "uint8"
            },
            {
              "internalType": "int16",
              "name": "strikePriceRatio",
              "type": "int16"
            },
            {
              "internalType": "uint16",
              "name": "premiumRate",
              "type": "uint16"
            },
            {
              "internalType": "bool",
              "name": "callOrPut",
              "type": "bool"
            }
          ],
          "internalType": "struct StructureData.OptionParameters",
          "name": "_optionParameters",
          "type": "tuple"
        }
      ],
      "name": "rollToNext",
      "outputs": [],
      "stateMutability": "nonpayable",
      "type": "function"
    },
    {
      "inputs": [],
      "name": "stableCoin",
      "outputs": [
        {
          "internalType": "address",
          "name": "",
          "type": "address"
        }
      ],
      "stateMutability": "view",
      "type": "function"
    },
    {
      "inputs": [],
      "name": "symbol",
      "outputs": [
        {
          "internalType": "string",
          "name": "",
          "type": "string"
        }
      ],
      "stateMutability": "view",
      "type": "function"
    },
    {
      "inputs": [],
      "name": "totalSupply",
      "outputs": [
        {
          "internalType": "uint256",
          "name": "",
          "type": "uint256"
        }
      ],
      "stateMutability": "view",
      "type": "function"
    },
    {
      "inputs": [
        {
          "internalType": "address",
          "name": "recipient",
          "type": "address"
        },
        {
          "internalType": "uint256",
          "name": "amount",
          "type": "uint256"
        }
      ],
      "name": "transfer",
      "outputs": [
        {
          "internalType": "bool",
          "name": "",
          "type": "bool"
        }
      ],
      "stateMutability": "nonpayable",
      "type": "function"
    },
    {
      "inputs": [
        {
          "internalType": "address",
          "name": "sender",
          "type": "address"
        },
        {
          "internalType": "address",
          "name": "recipient",
          "type": "address"
        },
        {
          "internalType": "uint256",
          "name": "amount",
          "type": "uint256"
        }
      ],
      "name": "transferFrom",
      "outputs": [
        {
          "internalType": "bool",
          "name": "",
          "type": "bool"
        }
      ],
      "stateMutability": "nonpayable",
      "type": "function"
    },
    {
      "inputs": [
        {
          "internalType": "address",
          "name": "newOwner",
          "type": "address"
        }
      ],
      "name": "transferOwnership",
      "outputs": [],
      "stateMutability": "nonpayable",
      "type": "function"
    },
    {
      "inputs": [],
      "name": "underSettlement",
      "outputs": [
        {
          "internalType": "bool",
          "name": "",
          "type": "bool"
        }
      ],
      "stateMutability": "view",
      "type": "function"
    },
    {
      "inputs": [
        {
          "internalType": "address",
          "name": "",
          "type": "address"
        }
      ],
      "name": "userStates",
      "outputs": [
        {
          "internalType": "uint256",
          "name": "pendingAsset",
          "type": "uint256"
        },
        {
          "internalType": "uint8",
          "name": "nextCursor",
          "type": "uint8"
        },
        {
          "internalType": "uint232",
          "name": "totalRound",
          "type": "uint232"
        },
        {
          "internalType": "bool",
          "name": "hasState",
          "type": "bool"
        }
      ],
      "stateMutability": "view",
      "type": "function"
    },
    {
      "inputs": [
        {
          "internalType": "uint256",
          "name": "",
          "type": "uint256"
        }
      ],
      "name": "usersInvolved",
      "outputs": [
        {
          "internalType": "address",
          "name": "",
          "type": "address"
        }
      ],
      "stateMutability": "view",
      "type": "function"
    },
    {
      "inputs": [],
      "name": "vaultAddress",
      "outputs": [
        {
          "internalType": "address",
          "name": "",
          "type": "address"
        }
      ],
      "stateMutability": "view",
      "type": "function"
    },
    {
      "inputs": [
        {
          "internalType": "uint256",
          "name": "_amount",
          "type": "uint256"
        },
        {
          "internalType": "bool",
          "name": "_stableCoin",
          "type": "bool"
        }
      ],
      "name": "withraw",
      "outputs": [],
      "stateMutability": "nonpayable",
      "type": "function"
    },
    {
      "stateMutability": "payable",
      "type": "receive"
    }
  ],
  "transactionHash": "0x3a2c4c911c5766deba6d0affa26eb68c2c987b24bde4a61bb8325b166f13ea41",
  "args": [],
  "solcInputHash": "8474e35b853e611c5d70139c0961d073",
  "bytecode": "0x608060405234801561001057600080fd5b506138d3806100206000396000f3fe6080604052600436106102765760003560e01c806375218df71161014f578063a5d3e5b1116100c1578063db006a751161007a578063db006a7514610a5e578063dc8a234414610a7e578063dd62ed3e14610a93578063e5d455ce14610ad9578063f2fde38b14610af9578063f6326fb314610b1957600080fd5b8063a5d3e5b11461098d578063a9059cbb146109ba578063b08480d4146109da578063b6b55f25146109ef578063c2bb515f14610a0f578063c303957014610a3157600080fd5b806395d89b411161011357806395d89b4114610880578063992642e5146108955780639a1a28c2146108b5578063a2589ef9146108d5578063a457c2d7146108f5578063a49b41d41461091557600080fd5b806375218df7146107e957806376e7a478146108095780637d8999921461081f5780638a19c8bc1461084c5780638da5cb5b1461086257600080fd5b806338d52e0f116101e85780634d94f56d116101ac5780634d94f56d14610692578063511db114146106b25780635ce0d5a5146106d357806365235474146106e957806370a082311461079e578063715018a6146107d457600080fd5b806338d52e0f146105e7578063395093511461060d5780633ebeeab81461062d578063430bf08a1461064d5780634601c2a61461067257600080fd5b8063140e56091161023a578063140e56091461050a57806318160ddd146105365780631de245af1461054b57806323b872dd146105835780632bd4bbbf146105a3578063313ce567146105c557600080fd5b806306fdde03146102ba5780630720da52146102e55780630748248f1461043c578063095ea7b3146104665780630ecc535f1461048657600080fd5b366102b557604080513381523460208201527f88a5966d370b9919b20f3e2c13ff65706f196a4e32cc2c12bf57088f88525874910160405180910390a1005b600080fd5b3480156102c657600080fd5b506102cf610b21565b6040516102dc91906133ba565b60405180910390f35b3480156102f157600080fd5b506103d06103003660046132cd565b6040805161010081018252600080825260208201819052918101829052606081018290526080810182905260a0810182905260c0810182905260e0810191909152506000908152609d60209081526040808320548352609e825291829020825161010081018452815481526001820154928101929092526002810154928201929092526003820154606082015260049091015461ffff8116608083015260ff620100008204811660a0840152630100000082048116151560c084015264010000000090910416151560e082015290565b6040516102dc91906000610100820190508251825260208301516020830152604083015160408301526060830151606083015261ffff608084015116608083015260ff60a08401511660a083015260c0830151151560c083015260e0830151151560e083015292915050565b34801561044857600080fd5b5060a3546104569060ff1681565b60405190151581526020016102dc565b34801561047257600080fd5b5061045661048136600461313f565b610bb3565b34801561049257600080fd5b506104d86104a13660046130b8565b60a0602052600090815260409020805460089091015460ff808216916001600160e81b0361010082041691600160f01b9091041684565b6040805194855260ff90931660208501526001600160e81b0390911691830191909152151560608201526080016102dc565b34801561051657600080fd5b5033600090815260a060205260409020545b6040519081526020016102dc565b34801561054257600080fd5b50603554610528565b34801561055757600080fd5b5061056b6105663660046132cd565b610bca565b6040516001600160a01b0390911681526020016102dc565b34801561058f57600080fd5b5061045661059e366004613104565b610bf4565b3480156105af57600080fd5b506105c36105be3660046132fd565b610ca5565b005b3480156105d157600080fd5b5060975460405160ff90911681526020016102dc565b3480156105f357600080fd5b5060975461056b906201000090046001600160a01b031681565b34801561061957600080fd5b5061045661062836600461313f565b610e9a565b34801561063957600080fd5b506105c3610648366004613184565b610ed6565b34801561065957600080fd5b5060a35461056b9061010090046001600160a01b031681565b34801561067e57600080fd5b5061052861068d36600461332c565b611025565b34801561069e57600080fd5b506105c36106ad3660046132cd565b61103e565b3480156106be57600080fd5b5060985461045690600160a01b900460ff1681565b3480156106df57600080fd5b50610528609c5481565b3480156106f557600080fd5b506107586107043660046132cd565b609e60205260009081526040902080546001820154600283015460038401546004909401549293919290919061ffff81169060ff620100008204811691630100000081048216916401000000009091041688565b60408051988952602089019790975295870194909452606086019290925261ffff16608085015260ff1660a0840152151560c0830152151560e0820152610100016102dc565b3480156107aa57600080fd5b506105286107b93660046130b8565b6001600160a01b031660009081526033602052604090205490565b3480156107e057600080fd5b506105c3611202565b3480156107f557600080fd5b506105c36108043660046130b8565b611238565b34801561081557600080fd5b5061052861271081565b34801561082b57600080fd5b5061052861083a3660046130b8565b60a26020526000908152604090205481565b34801561085857600080fd5b50610528609b5481565b34801561086e57600080fd5b506065546001600160a01b031661056b565b34801561088c57600080fd5b506102cf6114e5565b3480156108a157600080fd5b5060985461056b906001600160a01b031681565b3480156108c157600080fd5b506105c36108d0366004613238565b6114f4565b3480156108e157600080fd5b506105c36108f03660046132cd565b61173a565b34801561090157600080fd5b5061045661091036600461313f565b611810565b34801561092157600080fd5b50609954609a54610955919060ff80821691610100810460010b9161ffff6301000000830416916501000000000090041685565b6040805195865260ff909416602086015260019290920b9284019290925261ffff90911660608301521515608082015260a0016102dc565b34801561099957600080fd5b506105286109a83660046132cd565b609d6020526000908152604090205481565b3480156109c657600080fd5b506104566109d536600461313f565b6118a9565b3480156109e657600080fd5b506105c36118b6565b3480156109fb57600080fd5b506105c3610a0a3660046132cd565b611958565b348015610a1b57600080fd5b50610a24611a42565b6040516102dc9190613362565b348015610a3d57600080fd5b50610528610a4c3660046130b8565b60a16020526000908152604090205481565b348015610a6a57600080fd5b506105c3610a793660046132cd565b611cdb565b348015610a8a57600080fd5b50610456611e45565b348015610a9f57600080fd5b50610528610aae3660046130d2565b6001600160a01b03918216600090815260346020908152604080832093909416825291909152205490565b348015610ae557600080fd5b506105c3610af4366004613184565b611e5e565b348015610b0557600080fd5b506105c3610b143660046130b8565b611edf565b6105c3611f77565b606060368054610b309061380d565b80601f0160208091040260200160405190810160405280929190818152602001828054610b5c9061380d565b8015610ba95780601f10610b7e57610100808354040283529160200191610ba9565b820191906000526020600020905b815481529060010190602001808311610b8c57829003601f168201915b5050505050905090565b6000610bc033848461205b565b5060015b92915050565b609f8181548110610bda57600080fd5b6000918252602090912001546001600160a01b0316905081565b6000610c01848484612177565b6001600160a01b038416600090815260346020908152604080832033845290915290205482811015610c8b5760405162461bcd60e51b815260206004820152602860248201527f45524332303a207472616e7366657220616d6f756e74206578636565647320616044820152676c6c6f77616e636560c01b60648201526084015b60405180910390fd5b610c98853385840361205b565b60019150505b9392505050565b8080610cb1575060a454155b610ccd5760405162461bcd60e51b8152600401610c82906134ef565b801580610cda575060a554155b610cf65760405162461bcd60e51b8152600401610c8290613414565b60a35460ff1615610d195760405162461bcd60e51b8152600401610c82906133ed565b6001609b5411610d595760405162461bcd60e51b815260206004820152600b60248201526a08539bc813585d1d5c995960aa1b6044820152606401610c82565b60008211610d795760405162461bcd60e51b8152600401610c82906134ce565b8015610dea5733600090815260a2602052604090205482811015610daf5760405162461bcd60e51b8152600401610c8290613526565b610db98184612346565b33600081815260a26020526040902091909155609854610de5916001600160a01b039091169085612352565b505050565b33600090815260a1602052604090205482811015610e1a5760405162461bcd60e51b8152600401610c8290613526565b610e248184612346565b33600090815260a16020526040902055609854600160a01b900460ff1615610e7957604051339084156108fc029085906000818181858888f19350505050158015610e73573d6000803e3d6000fd5b50505050565b609754610de5906201000090046001600160a01b03163385612352565b5050565b3360008181526034602090815260408083206001600160a01b03871684529091528120549091610bc0918590610ed19086906135fc565b61205b565b600054610100900460ff1680610eef575060005460ff16155b610f0b5760405162461bcd60e51b8152600401610c829061344b565b600054610100900460ff16158015610f2d576000805461ffff19166101011790555b6001600160a01b038216610f795760405162461bcd60e51b8152602060048201526013602482015272456d707479207661756c74206164647265737360681b6044820152606401610c82565b610f8388886123b5565b610f8b612434565b60978054609880546001600160a01b038981166001600160a81b0319909216919091178a82168015600160a01b029190911790925560ff8881166001600160b01b03199094166201000090930261ffff1916929092179290921761010091871682021790925560a38054610100600160a81b031916918516909202179055801561101b576000805461ff00191690555b5050505050505050565b33600090815260a060205260408120610c9e81846124af565b6065546001600160a01b031633146110685760405162461bcd60e51b8152600401610c8290613499565b60a454156110885760405162461bcd60e51b8152600401610c82906134ef565b60a554156110a85760405162461bcd60e51b8152600401610c8290613414565b60a35460ff16156110cb5760405162461bcd60e51b8152600401610c82906133ed565b60a3805460ff19166001179055609c819055609b54600711156110eb5750565b609b546000906110fd906007906137a7565b6111089060016135fc565b6000818152609e602090815260408083208151610100810183528154815260018201549381019390935260028101549183019190915260038101546060830152600481015461ffff8116608084015260ff620100008204811660a0850152630100000082048116151560c085015264010000000090910416151560e083015292935081908190611199908790612556565b60048701805463ff000000191663010000008315150217905560a483905560a683905560a582905560a7829055604051929550909350915085907f5fd55b58a9ef8c29a9db39dd9a05dec64993eb227ad0177941238778e9ea896290600090a250505050505b50565b6065546001600160a01b0316331461122c5760405162461bcd60e51b8152600401610c8290613499565b611236600061276e565b565b6065546001600160a01b031633146112625760405162461bcd60e51b8152600401610c8290613499565b60a35460ff166112a85760405162461bcd60e51b8152602060048201526011602482015270139bdd0818995a5b99c81cd95d1d1b1959607a1b6044820152606401610c82565b6000609b54116112b55750565b609b546000908152609e60205260409020609c546003820155609a5461130490612710906112fe906112f3906101009004600190810b900b83613550565b6003850154906127c0565b906127cc565b6002820155609a8054600483018054630100000090920461ffff1661ffff19831681178255925462ffffff1990921690921760ff909116620100000217905560018101546113539030906127d8565b609f5460005b818110156113e6576000609f828154811061138457634e487b7160e01b600052603260045260246000fd5b60009182526020808320909101546001600160a01b031680835260a09091526040909120805491925090156113c2576113c230838360000154612177565b80546113cf9082906128b7565b6000905550806113de81613848565b915050611359565b50816001015460a4541161148d57600061140f60a454846001015461234690919063ffffffff16565b9050801561148257609854600160a01b900460ff1615611465576040516001600160a01b0385169082156108fc029083906000818181858888f1935050505015801561145f573d6000803e3d6000fd5b50611482565b609754611482906201000090046001600160a01b03168583612352565b50600060a4556114a2565b600182015460a45461149e91612346565b60a4555b609b80546000908152609d6020526040808220439055915491517ffa513f17b83baf0c2da337ab931a96429f75c55f0ee2115b7acd007a1a35dd519190a2505050565b606060378054610b309061380d565b6065546001600160a01b0316331461151e5760405162461bcd60e51b8152600401610c8290613499565b609b5461152c9060016135fc565b609b819055508060996000820151816000015560208201518160010160006101000a81548160ff021916908360ff16021790555060408201518160010160016101000a81548161ffff021916908360010b61ffff16021790555060608201518160010160036101000a81548161ffff021916908361ffff16021790555060808201518160010160056101000a81548160ff0219169083151502179055509050506000604051806101000160405280609b548152602001600081526020016000815260200160008152602001836060015161ffff168152602001836020015160ff16815260200160001515815260200183608001511515815250905080609e6000609b5481526020019081526020016000206000820151816000015560208201518160010155604082015181600201556060820151816003015560808201518160040160006101000a81548161ffff021916908361ffff16021790555060a08201518160040160026101000a81548160ff021916908360ff16021790555060c08201518160040160036101000a81548160ff02191690831515021790555060e08201518160040160046101000a81548160ff021916908315150217905550905050600060a360006101000a81548160ff021916908315150217905550609b547f10f419fb017d3101d854d4433e414ff27f232bb2f4aae83d987ad0219efa6c9b60405160405180910390a25050565b60a35460ff161561175d5760405162461bcd60e51b8152600401610c82906133ed565b6001609b541161179d5760405162461bcd60e51b815260206004820152600b60248201526a08539bc813585d1d5c995960aa1b6044820152606401610c82565b600081116117bd5760405162461bcd60e51b8152600401610c82906134ce565b33600090815260a16020526040902054818110156117ed5760405162461bcd60e51b8152600401610c8290613526565b6117f78183612346565b33600090815260a16020526040902055610e968261296c565b3360009081526034602090815260408083206001600160a01b0386168452909152812054828110156118925760405162461bcd60e51b815260206004820152602560248201527f45524332303a2064656372656173656420616c6c6f77616e63652062656c6f77604482015264207a65726f60d81b6064820152608401610c82565b61189f338585840361205b565b5060019392505050565b6000610bc0338484612177565b6065546001600160a01b031633146118e05760405162461bcd60e51b8152600401610c8290613499565b60a45415806118fa575060a6546118f76001612aa1565b10155b6119165760405162461bcd60e51b8152600401610c82906134ef565b60a5541580611930575060a75461192d6000612aa1565b10155b61194c5760405162461bcd60e51b8152600401610c8290613414565b600060a481905560a555565b60a35460ff161561197b5760405162461bcd60e51b8152600401610c82906133ed565b6000609b54116119b85760405162461bcd60e51b81526020600482015260086024820152670854dd185c9d195960c21b6044820152606401610c82565b609854600160a01b900460ff16156119fb5760405162461bcd60e51b815260206004820152600660248201526502145524332360d41b6044820152606401610c82565b60008111611a1b5760405162461bcd60e51b8152600401610c82906134ce565b611a248161296c565b6097546111ff906201000090046001600160a01b0316333084612b78565b6065546060906001600160a01b03163314611a6f5760405162461bcd60e51b8152600401610c8290613499565b60a454158015611a7f575060a554155b15611ac7576040805160008082526020820190925290611ac1565b6040805180820190915260008082526020820152815260200190600190039081611a9a5790505b50905090565b60a454611b6057604080516001808252818301909252600091816020015b6040805180820190915260008082526020820152815260200190600190039081611ae55750506040805180820190915260a55481526098546001600160a01b031660208201528151919250908290600090611b5057634e487b7160e01b600052603260045260246000fd5b6020908102919091010152905090565b60a554611bf057604080516001808252818301909252600091816020015b6040805180820190915260008082526020820152815260200190600190039081611b7e579050506040805180820190915260a45481526097546201000090046001600160a01b031660208201528151919250908290600090611b5057634e487b7160e01b600052603260045260246000fd5b60408051600280825260608201909252600091816020015b6040805180820190915260008082526020820152815260200190600190039081611c08579050506040805180820190915260a45481526097546201000090046001600160a01b031660208201528151919250908290600090611c7a57634e487b7160e01b600052603260045260246000fd5b6020026020010181905250604051806040016040528060a5548152602001609860009054906101000a90046001600160a01b03166001600160a01b031681525081600181518110611b5057634e487b7160e01b600052603260045260246000fd5b60a35460ff1615611cfe5760405162461bcd60e51b8152600401610c82906133ed565b60008111611d1e5760405162461bcd60e51b8152600401610c82906134ce565b33600090815260a0602052604090208054821115611d725760405162461bcd60e51b81526020600482015260116024820152704578636565647320617661696c61626c6560781b6044820152606401610c82565b8054611d7e9083612346565b8155609b546000908152609e602052604090206001810154611da09084612346565b6001820155609854600160a01b900460ff1615611dea57604051339084156108fc029085906000818181858888f19350505050158015611de4573d6000803e3d6000fd5b50611e07565b609754611e07906201000090046001600160a01b03163385612352565b609b5460405184815233907fe5b754fb1abb7f01b499791d0b820ae3b6af3424ac1c59768edb53f4ec31a929906020015b60405180910390a3505050565b600060a4546000148015611e59575060a554155b905090565b600054610100900460ff1680611e77575060005460ff16155b611e935760405162461bcd60e51b8152600401610c829061344b565b600054610100900460ff16158015611eb5576000805461ffff19166101011790555b611ec488888888888888610ed6565b801561101b576000805461ff00191690555050505050505050565b6065546001600160a01b03163314611f095760405162461bcd60e51b8152600401610c8290613499565b6001600160a01b038116611f6e5760405162461bcd60e51b815260206004820152602660248201527f4f776e61626c653a206e6577206f776e657220697320746865207a65726f206160448201526564647265737360d01b6064820152608401610c82565b6111ff8161276e565b60a35460ff1615611f9a5760405162461bcd60e51b8152600401610c82906133ed565b6000609b5411611fd75760405162461bcd60e51b81526020600482015260086024820152670854dd185c9d195960c21b6044820152606401610c82565b609854600160a01b900460ff166120195760405162461bcd60e51b8152600401610c82906020808252600490820152630428aa8960e31b604082015260600190565b600034116120525760405162461bcd60e51b81526020600482015260066024820152652176616c756560d01b6044820152606401610c82565b6112363461296c565b6001600160a01b0383166120bd5760405162461bcd60e51b8152602060048201526024808201527f45524332303a20617070726f76652066726f6d20746865207a65726f206164646044820152637265737360e01b6064820152608401610c82565b6001600160a01b03821661211e5760405162461bcd60e51b815260206004820152602260248201527f45524332303a20617070726f766520746f20746865207a65726f206164647265604482015261737360f01b6064820152608401610c82565b6001600160a01b0383811660008181526034602090815260408083209487168084529482529182902085905590518481527f8c5be1e5ebec7d5bd14f71427d1e84f3dd0314c0f7b2291e5b200ac8c7c3b9259101611e38565b6001600160a01b0383166121db5760405162461bcd60e51b815260206004820152602560248201527f45524332303a207472616e736665722066726f6d20746865207a65726f206164604482015264647265737360d81b6064820152608401610c82565b6001600160a01b03821661223d5760405162461bcd60e51b815260206004820152602360248201527f45524332303a207472616e7366657220746f20746865207a65726f206164647260448201526265737360e81b6064820152608401610c82565b6001600160a01b038316600090815260336020526040902054818110156122b55760405162461bcd60e51b815260206004820152602660248201527f45524332303a207472616e7366657220616d6f756e7420657863656564732062604482015265616c616e636560d01b6064820152608401610c82565b6001600160a01b038085166000908152603360205260408082208585039055918516815290812080548492906122ec9084906135fc565b92505081905550826001600160a01b0316846001600160a01b03167fddf252ad1be2c89b69c2b068fc378daa952ba7f163c4a11628f55a4df523b3ef8460405161233891815260200190565b60405180910390a350505050565b6000610c9e82846137a7565b6040516001600160a01b038316602482015260448101829052610de590849063a9059cbb60e01b906064015b60408051601f198184030181529190526020810180516001600160e01b03166001600160e01b031990931692909217909152612bb0565b600054610100900460ff16806123ce575060005460ff16155b6123ea5760405162461bcd60e51b8152600401610c829061344b565b600054610100900460ff1615801561240c576000805461ffff19166101011790555b612414612c82565b61241e8383612cec565b8015610de5576000805461ff0019169055505050565b600054610100900460ff168061244d575060005460ff16155b6124695760405162461bcd60e51b8152600401610c829061344b565b600054610100900460ff1615801561248b576000805461ffff19166101011790555b612493612c82565b61249b612d81565b80156111ff576000805461ff001916905550565b600882015460009060ff83166101009091046001600160e81b0316116124d757506000610bc4565b600760ff8316106124e757600080fd5b600883015460009060019061250090859060ff16613766565b61250a9190613766565b905060008160000b121561252657612523600782613591565b90505b836001018160ff166007811061254c57634e487b7160e01b600052603260045260246000fd5b0154949350505050565b6080810151600090819081908190612575906127109061ffff16612de1565b6040860151909150861180156125f75760975460a08701516125f0916125a09160ff90911690613614565b6125ab90600a61369c565b6097546112fe906127109082906125cb90610100900460ff16600a61369c565b6125ea886125ea8e604001518f602001516127c090919063ffffffff16565b906127c0565b9350612617565b6126146127106112fe8489602001516127c090919063ffffffff16565b94505b609f5460005b81811015612761576000609f828154811061264857634e487b7160e01b600052603260045260246000fd5b60009182526020808320909101546001600160a01b031680835260a0909152604082209092509061268561267e600260076137be565b83906124af565b9050806126945750505061274f565b856126f45760208b01516000906126af906112fe8d856127c0565b6001600160a01b038516600090815260a160205260409020549091506126d59082612de1565b6001600160a01b038516600090815260a160205260409020555061274b565b60208b015160009061270a906112fe8c856127c0565b6001600160a01b038516600090815260a260205260409020549091506127309082612de1565b6001600160a01b038516600090815260a26020526040902055505b5050505b8061275981613848565b91505061261d565b5090925050509250925092565b606580546001600160a01b038381166001600160a01b0319831681179093556040519116919082907f8be0079c531659141344cd1fd0a4f28419497f9722a3daafe3b4186f6b6457e090600090a35050565b6000610c9e8284613747565b6000610c9e8284613639565b6001600160a01b03821661282e5760405162461bcd60e51b815260206004820152601f60248201527f45524332303a206d696e7420746f20746865207a65726f2061646472657373006044820152606401610c82565b806035600082825461284091906135fc565b90915550506001600160a01b0382166000908152603360205260408120805483929061286d9084906135fc565b90915550506040518181526001600160a01b038316906000907fddf252ad1be2c89b69c2b068fc378daa952ba7f163c4a11628f55a4df523b3ef9060200160405180910390a35050565b600882015460ff16816001840182600781106128e357634e487b7160e01b600052603260045260246000fd5b015560006128f3600160076137be565b60ff16821461290c576129078260016135fc565b61290f565b60005b60088501805460ff191660ff8316179081905590915061293e9061010090046001600160e81b031660016135d1565b8460080160016101000a8154816001600160e81b0302191690836001600160e81b0316021790555050505050565b609b546000908152609e60205260409020609954600182015461298f9084612de1565b11156129d05760405162461bcd60e51b815260206004820152601060248201526f4e6f7420656e6f7567682071756f746160801b6044820152606401610c82565b33600090815260a0602052604090206008810154600160f01b900460ff16612a4a5760088101805460ff60f01b1916600160f01b179055609f80546001810182556000919091527f0bc14066c33013fe88f66e314e4cf150b0b2d4d6451a1a51dbbd1c27cd11de280180546001600160a01b031916331790555b8054612a569084612de1565b81556001820154612a679084612de1565b6001830155609b5460405184815233907f90890809c654f11d6e72a28fa60149770a0d11ec6c92319d6ceb2bb0a4ea1a1590602001611e38565b60008115612b4357609854600160a01b900460ff1615612ac2575047919050565b6097546040516370a0823160e01b8152306004820152620100009091046001600160a01b0316906370a08231906024015b60206040518083038186803b158015612b0b57600080fd5b505afa158015612b1f573d6000803e3d6000fd5b505050506040513d601f19601f82011682018060405250810190610bc491906132e5565b6098546040516370a0823160e01b81523060048201526001600160a01b03909116906370a0823190602401612af3565b919050565b6040516001600160a01b0380851660248301528316604482015260648101829052610e739085906323b872dd60e01b9060840161237e565b6000612c05826040518060400160405280602081526020017f5361666545524332303a206c6f772d6c6576656c2063616c6c206661696c6564815250856001600160a01b0316612ded9092919063ffffffff16565b805190915015610de55780806020019051810190612c239190613168565b610de55760405162461bcd60e51b815260206004820152602a60248201527f5361666545524332303a204552433230206f7065726174696f6e20646964206e6044820152691bdd081cdd58d8d9595960b21b6064820152608401610c82565b600054610100900460ff1680612c9b575060005460ff16155b612cb75760405162461bcd60e51b8152600401610c829061344b565b600054610100900460ff1615801561249b576000805461ffff191661010117905580156111ff576000805461ff001916905550565b600054610100900460ff1680612d05575060005460ff16155b612d215760405162461bcd60e51b8152600401610c829061344b565b600054610100900460ff16158015612d43576000805461ffff19166101011790555b8251612d56906036906020860190612f65565b508151612d6a906037906020850190612f65565b508015610de5576000805461ff0019169055505050565b600054610100900460ff1680612d9a575060005460ff16155b612db65760405162461bcd60e51b8152600401610c829061344b565b600054610100900460ff16158015612dd8576000805461ffff19166101011790555b61249b3361276e565b6000610c9e82846135fc565b6060612dfc8484600085612e04565b949350505050565b606082471015612e655760405162461bcd60e51b815260206004820152602660248201527f416464726573733a20696e73756666696369656e742062616c616e636520666f6044820152651c8818d85b1b60d21b6064820152608401610c82565b843b612eb35760405162461bcd60e51b815260206004820152601d60248201527f416464726573733a2063616c6c20746f206e6f6e2d636f6e74726163740000006044820152606401610c82565b600080866001600160a01b03168587604051612ecf9190613346565b60006040518083038185875af1925050503d8060008114612f0c576040519150601f19603f3d011682016040523d82523d6000602084013e612f11565b606091505b5091509150612f21828286612f2c565b979650505050505050565b60608315612f3b575081610c9e565b825115612f4b5782518084602001fd5b8160405162461bcd60e51b8152600401610c8291906133ba565b828054612f719061380d565b90600052602060002090601f016020900481019282612f935760008555612fd9565b82601f10612fac57805160ff1916838001178555612fd9565b82800160010185558215612fd9579182015b82811115612fd9578251825591602001919060010190612fbe565b50612fe5929150612fe9565b5090565b5b80821115612fe55760008155600101612fea565b80356001600160a01b0381168114612b7357600080fd5b8035612b738161388f565b600082601f830112613030578081fd5b813567ffffffffffffffff8082111561304b5761304b613879565b604051601f8301601f19908116603f0116810190828211818310171561307357613073613879565b8160405283815286602085880101111561308b578485fd5b8360208701602083013792830160200193909352509392505050565b803560ff81168114612b7357600080fd5b6000602082840312156130c9578081fd5b610c9e82612ffe565b600080604083850312156130e4578081fd5b6130ed83612ffe565b91506130fb60208401612ffe565b90509250929050565b600080600060608486031215613118578081fd5b61312184612ffe565b925061312f60208501612ffe565b9150604084013590509250925092565b60008060408385031215613151578182fd5b61315a83612ffe565b946020939093013593505050565b600060208284031215613179578081fd5b8151610c9e8161388f565b600080600080600080600060e0888a03121561319e578283fd5b873567ffffffffffffffff808211156131b5578485fd5b6131c18b838c01613020565b985060208a01359150808211156131d6578485fd5b506131e38a828b01613020565b9650506131f260408901612ffe565b945061320060608901612ffe565b935061320e608089016130a7565b925061321c60a089016130a7565b915061322a60c08901612ffe565b905092959891949750929550565b600060a08284031215613249578081fd5b60405160a0810181811067ffffffffffffffff8211171561326c5761326c613879565b6040528235815261327f602084016130a7565b602082015260408301358060010b8114613297578283fd5b6040820152606083013561ffff811681146132b0578283fd5b60608201526132c160808401613015565b60808201529392505050565b6000602082840312156132de578081fd5b5035919050565b6000602082840312156132f6578081fd5b5051919050565b6000806040838503121561330f578182fd5b8235915060208301356133218161388f565b809150509250929050565b60006020828403121561333d578081fd5b610c9e826130a7565b600082516133588184602087016137e1565b9190910192915050565b602080825282518282018190526000919060409081850190868401855b828110156133ad578151805185528601516001600160a01b031686850152928401929085019060010161337f565b5091979650505050505050565b60208152600082518060208401526133d98160408501602087016137e1565b601f01601f19169190910160400192915050565b6020808252600d908201526c10995a5b99c81cd95d1d1b1959609a1b604082015260600190565b6020808252601e908201527f4d61747572656420537461626c6520436f696e206e6f742066696c6c65640000604082015260600190565b6020808252602e908201527f496e697469616c697a61626c653a20636f6e747261637420697320616c72656160408201526d191e481a5b9a5d1a585b1a5e995960921b606082015260800190565b6020808252818101527f4f776e61626c653a2063616c6c6572206973206e6f7420746865206f776e6572604082015260600190565b60208082526007908201526608585b5bdd5b9d60ca1b604082015260600190565b60208082526018908201527f4d617475726564204173736574206e6f742066696c6c65640000000000000000604082015260600190565b60208082526010908201526f45786365656420617661696c61626c6560801b604082015260600190565b600080821280156001600160ff1b038490038513161561357257613572613863565b600160ff1b839003841281161561358b5761358b613863565b50500190565b600081810b83820b82821282607f038213811516156135b2576135b2613863565b82607f190382128116156135c8576135c8613863565b50019392505050565b60006001600160e81b038281168482168083038211156135f3576135f3613863565b01949350505050565b6000821982111561360f5761360f613863565b500190565b600060ff821660ff84168060ff0382111561363157613631613863565b019392505050565b60008261365457634e487b7160e01b81526012600452602481fd5b500490565b600181815b8085111561369457816000190482111561367a5761367a613863565b8085161561368757918102915b93841c939080029061365e565b509250929050565b6000610c9e60ff8416836000826136b557506001610bc4565b816136c257506000610bc4565b81600181146136d857600281146136e2576136fe565b6001915050610bc4565b60ff8411156136f3576136f3613863565b50506001821b610bc4565b5060208310610133831016604e8410600b8410161715613721575081810a610bc4565b61372b8383613659565b806000190482111561373f5761373f613863565b029392505050565b600081600019048311821515161561376157613761613863565b500290565b600081810b83820b8281128015607f1983018412161561378857613788613863565b81607f01831381161561379d5761379d613863565b5090039392505050565b6000828210156137b9576137b9613863565b500390565b600060ff821660ff8416808210156137d8576137d8613863565b90039392505050565b60005b838110156137fc5781810151838201526020016137e4565b83811115610e735750506000910152565b600181811c9082168061382157607f821691505b6020821081141561384257634e487b7160e01b600052602260045260246000fd5b50919050565b600060001982141561385c5761385c613863565b5060010190565b634e487b7160e01b600052601160045260246000fd5b634e487b7160e01b600052604160045260246000fd5b80151581146111ff57600080fdfea2646970667358221220bd6dffdac70dbb87ef7db03f9ee15a9e33585dc61d4626feb4b0b9a214254f6c64736f6c63430008040033",
  "libraries": {
    "StructureData": "0x96D9788139D663bfcb01d7965EAa93D5ED3623E4"
  },
  "devdoc": {
    "kind": "dev",
    "methods": {
      "allowance(address,address)": {
        "details": "See {IERC20-allowance}."
      },
      "approve(address,uint256)": {
        "details": "See {IERC20-approve}. Requirements: - `spender` cannot be the zero address."
      },
      "balanceOf(address)": {
        "details": "See {IERC20-balanceOf}."
      },
      "decimals()": {
        "details": "Returns the number of decimals used to get its user representation. For example, if `decimals` equals `2`, a balance of `505` tokens should be displayed to a user as `5.05` (`505 / 10 ** 2`). Tokens usually opt for a value of 18, imitating the relationship between Ether and Wei. This is the value {ERC20} uses, unless this function is overridden; NOTE: This information is only used for _display_ purposes: it in no way affects any of the arithmetic of the contract, including {IERC20-balanceOf} and {IERC20-transfer}."
      },
      "decreaseAllowance(address,uint256)": {
        "details": "Atomically decreases the allowance granted to `spender` by the caller. This is an alternative to {approve} that can be used as a mitigation for problems described in {IERC20-approve}. Emits an {Approval} event indicating the updated allowance. Requirements: - `spender` cannot be the zero address. - `spender` must have allowance for the caller of at least `subtractedValue`."
      },
      "increaseAllowance(address,uint256)": {
        "details": "Atomically increases the allowance granted to `spender` by the caller. This is an alternative to {approve} that can be used as a mitigation for problems described in {IERC20-approve}. Emits an {Approval} event indicating the updated allowance. Requirements: - `spender` cannot be the zero address."
      },
      "name()": {
        "details": "Returns the name of the token."
      },
      "owner()": {
        "details": "Returns the address of the current owner."
      },
      "renounceOwnership()": {
        "details": "Leaves the contract without owner. It will not be possible to call `onlyOwner` functions anymore. Can only be called by the current owner. NOTE: Renouncing ownership will leave the contract without an owner, thereby removing any functionality that is only available to the owner."
      },
      "symbol()": {
        "details": "Returns the symbol of the token, usually a shorter version of the name."
      },
      "totalSupply()": {
        "details": "See {IERC20-totalSupply}."
      },
      "transfer(address,uint256)": {
        "details": "See {IERC20-transfer}. Requirements: - `recipient` cannot be the zero address. - the caller must have a balance of at least `amount`."
      },
      "transferFrom(address,address,uint256)": {
        "details": "See {IERC20-transferFrom}. Emits an {Approval} event indicating the updated allowance. This is not required by the EIP. See the note at the beginning of {ERC20}. Requirements: - `sender` and `recipient` cannot be the zero address. - `sender` must have a balance of at least `amount`. - the caller must have allowance for ``sender``'s tokens of at least `amount`."
      },
      "transferOwnership(address)": {
        "details": "Transfers ownership of the contract to a new account (`newOwner`). Can only be called by the current owner."
      }
    },
    "version": 1
  },
  "userdoc": {
    "kind": "user",
    "methods": {},
    "version": 1
  },
  "storageLayout": {
    "storage": [
      {
        "astId": 538,
        "contract": "contracts/PKKTHodlBoosterOption.sol:PKKTHodlBoosterOption",
        "label": "_initialized",
        "offset": 0,
        "slot": "0",
        "type": "t_bool"
      },
      {
        "astId": 541,
        "contract": "contracts/PKKTHodlBoosterOption.sol:PKKTHodlBoosterOption",
        "label": "_initializing",
        "offset": 1,
        "slot": "0",
        "type": "t_bool"
      },
      {
        "astId": 1297,
        "contract": "contracts/PKKTHodlBoosterOption.sol:PKKTHodlBoosterOption",
        "label": "__gap",
        "offset": 0,
        "slot": "1",
        "type": "t_array(t_uint256)50_storage"
      },
      {
        "astId": 597,
        "contract": "contracts/PKKTHodlBoosterOption.sol:PKKTHodlBoosterOption",
        "label": "_balances",
        "offset": 0,
        "slot": "51",
        "type": "t_mapping(t_address,t_uint256)"
      },
      {
        "astId": 603,
        "contract": "contracts/PKKTHodlBoosterOption.sol:PKKTHodlBoosterOption",
        "label": "_allowances",
        "offset": 0,
        "slot": "52",
        "type": "t_mapping(t_address,t_mapping(t_address,t_uint256))"
      },
      {
        "astId": 605,
        "contract": "contracts/PKKTHodlBoosterOption.sol:PKKTHodlBoosterOption",
        "label": "_totalSupply",
        "offset": 0,
        "slot": "53",
        "type": "t_uint256"
      },
      {
        "astId": 607,
        "contract": "contracts/PKKTHodlBoosterOption.sol:PKKTHodlBoosterOption",
        "label": "_name",
        "offset": 0,
        "slot": "54",
        "type": "t_string_storage"
      },
      {
        "astId": 609,
        "contract": "contracts/PKKTHodlBoosterOption.sol:PKKTHodlBoosterOption",
        "label": "_symbol",
        "offset": 0,
        "slot": "55",
        "type": "t_string_storage"
      },
      {
        "astId": 1150,
        "contract": "contracts/PKKTHodlBoosterOption.sol:PKKTHodlBoosterOption",
        "label": "__gap",
        "offset": 0,
        "slot": "56",
        "type": "t_array(t_uint256)45_storage"
      },
      {
        "astId": 418,
        "contract": "contracts/PKKTHodlBoosterOption.sol:PKKTHodlBoosterOption",
        "label": "_owner",
        "offset": 0,
        "slot": "101",
        "type": "t_address"
      },
      {
        "astId": 531,
        "contract": "contracts/PKKTHodlBoosterOption.sol:PKKTHodlBoosterOption",
        "label": "__gap",
        "offset": 0,
        "slot": "102",
        "type": "t_array(t_uint256)49_storage"
      },
      {
        "astId": 6138,
        "contract": "contracts/PKKTHodlBoosterOption.sol:PKKTHodlBoosterOption",
        "label": "assetAmountDecimals",
        "offset": 0,
        "slot": "151",
        "type": "t_uint8"
      },
      {
        "astId": 6140,
        "contract": "contracts/PKKTHodlBoosterOption.sol:PKKTHodlBoosterOption",
        "label": "stableCoinAmountDecimals",
        "offset": 1,
        "slot": "151",
        "type": "t_uint8"
      },
      {
        "astId": 6142,
        "contract": "contracts/PKKTHodlBoosterOption.sol:PKKTHodlBoosterOption",
        "label": "asset",
        "offset": 2,
        "slot": "151",
        "type": "t_address"
      },
      {
        "astId": 6144,
        "contract": "contracts/PKKTHodlBoosterOption.sol:PKKTHodlBoosterOption",
        "label": "stableCoin",
        "offset": 0,
        "slot": "152",
        "type": "t_address"
      },
      {
        "astId": 6146,
        "contract": "contracts/PKKTHodlBoosterOption.sol:PKKTHodlBoosterOption",
        "label": "isEth",
        "offset": 20,
        "slot": "152",
        "type": "t_bool"
      },
      {
        "astId": 6149,
        "contract": "contracts/PKKTHodlBoosterOption.sol:PKKTHodlBoosterOption",
        "label": "optionParameters",
        "offset": 0,
        "slot": "153",
        "type": "t_struct(OptionParameters)9701_storage"
      },
      {
        "astId": 6151,
        "contract": "contracts/PKKTHodlBoosterOption.sol:PKKTHodlBoosterOption",
        "label": "currentRound",
        "offset": 0,
        "slot": "155",
        "type": "t_uint256"
      },
      {
        "astId": 6153,
        "contract": "contracts/PKKTHodlBoosterOption.sol:PKKTHodlBoosterOption",
        "label": "previousUnderlyingPrice",
        "offset": 0,
        "slot": "156",
        "type": "t_uint256"
      },
      {
        "astId": 6157,
        "contract": "contracts/PKKTHodlBoosterOption.sol:PKKTHodlBoosterOption",
        "label": "optionHeights",
        "offset": 0,
        "slot": "157",
        "type": "t_mapping(t_uint256,t_uint256)"
      },
      {
        "astId": 6162,
        "contract": "contracts/PKKTHodlBoosterOption.sol:PKKTHodlBoosterOption",
        "label": "optionStates",
        "offset": 0,
        "slot": "158",
        "type": "t_mapping(t_uint256,t_struct(OptionState)9718_storage)"
      },
      {
        "astId": 6165,
        "contract": "contracts/PKKTHodlBoosterOption.sol:PKKTHodlBoosterOption",
        "label": "usersInvolved",
        "offset": 0,
        "slot": "159",
        "type": "t_array(t_address)dyn_storage"
      },
      {
        "astId": 6170,
        "contract": "contracts/PKKTHodlBoosterOption.sol:PKKTHodlBoosterOption",
        "label": "userStates",
        "offset": 0,
        "slot": "160",
        "type": "t_mapping(t_address,t_struct(UserState)9734_storage)"
      },
      {
        "astId": 6174,
        "contract": "contracts/PKKTHodlBoosterOption.sol:PKKTHodlBoosterOption",
        "label": "maturedAsset",
        "offset": 0,
        "slot": "161",
        "type": "t_mapping(t_address,t_uint256)"
      },
      {
        "astId": 6178,
        "contract": "contracts/PKKTHodlBoosterOption.sol:PKKTHodlBoosterOption",
        "label": "maturedStableCoin",
        "offset": 0,
        "slot": "162",
        "type": "t_mapping(t_address,t_uint256)"
      },
      {
        "astId": 6180,
        "contract": "contracts/PKKTHodlBoosterOption.sol:PKKTHodlBoosterOption",
        "label": "underSettlement",
        "offset": 0,
        "slot": "163",
        "type": "t_bool"
      },
      {
        "astId": 6183,
        "contract": "contracts/PKKTHodlBoosterOption.sol:PKKTHodlBoosterOption",
        "label": "vaultAddress",
        "offset": 1,
        "slot": "163",
        "type": "t_address"
      },
      {
        "astId": 6869,
        "contract": "contracts/PKKTHodlBoosterOption.sol:PKKTHodlBoosterOption",
        "label": "requestingAssetAmount",
        "offset": 0,
        "slot": "164",
        "type": "t_uint256"
      },
      {
        "astId": 6871,
        "contract": "contracts/PKKTHodlBoosterOption.sol:PKKTHodlBoosterOption",
        "label": "requestingStableCoinAmount",
        "offset": 0,
        "slot": "165",
        "type": "t_uint256"
      },
      {
        "astId": 6873,
        "contract": "contracts/PKKTHodlBoosterOption.sol:PKKTHodlBoosterOption",
        "label": "maturedAssetAmount",
        "offset": 0,
        "slot": "166",
        "type": "t_uint256"
      },
      {
        "astId": 6875,
        "contract": "contracts/PKKTHodlBoosterOption.sol:PKKTHodlBoosterOption",
        "label": "maturedStableCoinAmount",
        "offset": 0,
        "slot": "167",
        "type": "t_uint256"
      }
    ],
    "types": {
      "t_address": {
        "encoding": "inplace",
        "label": "address",
        "numberOfBytes": "20"
      },
      "t_array(t_address)dyn_storage": {
        "base": "t_address",
        "encoding": "dynamic_array",
        "label": "address[]",
        "numberOfBytes": "32"
      },
      "t_array(t_uint256)45_storage": {
        "base": "t_uint256",
        "encoding": "inplace",
        "label": "uint256[45]",
        "numberOfBytes": "1440"
      },
      "t_array(t_uint256)49_storage": {
        "base": "t_uint256",
        "encoding": "inplace",
        "label": "uint256[49]",
        "numberOfBytes": "1568"
      },
      "t_array(t_uint256)50_storage": {
        "base": "t_uint256",
        "encoding": "inplace",
        "label": "uint256[50]",
        "numberOfBytes": "1600"
      },
      "t_array(t_uint256)7_storage": {
        "base": "t_uint256",
        "encoding": "inplace",
        "label": "uint256[7]",
        "numberOfBytes": "224"
      },
      "t_bool": {
        "encoding": "inplace",
        "label": "bool",
        "numberOfBytes": "1"
      },
      "t_int16": {
        "encoding": "inplace",
        "label": "int16",
        "numberOfBytes": "2"
      },
      "t_mapping(t_address,t_mapping(t_address,t_uint256))": {
        "encoding": "mapping",
        "key": "t_address",
        "label": "mapping(address => mapping(address => uint256))",
        "numberOfBytes": "32",
        "value": "t_mapping(t_address,t_uint256)"
      },
      "t_mapping(t_address,t_struct(UserState)9734_storage)": {
        "encoding": "mapping",
        "key": "t_address",
        "label": "mapping(address => struct StructureData.UserState)",
        "numberOfBytes": "32",
        "value": "t_struct(UserState)9734_storage"
      },
      "t_mapping(t_address,t_uint256)": {
        "encoding": "mapping",
        "key": "t_address",
        "label": "mapping(address => uint256)",
        "numberOfBytes": "32",
        "value": "t_uint256"
      },
      "t_mapping(t_uint256,t_struct(OptionState)9718_storage)": {
        "encoding": "mapping",
        "key": "t_uint256",
        "label": "mapping(uint256 => struct StructureData.OptionState)",
        "numberOfBytes": "32",
        "value": "t_struct(OptionState)9718_storage"
      },
      "t_mapping(t_uint256,t_uint256)": {
        "encoding": "mapping",
        "key": "t_uint256",
        "label": "mapping(uint256 => uint256)",
        "numberOfBytes": "32",
        "value": "t_uint256"
      },
      "t_string_storage": {
        "encoding": "bytes",
        "label": "string",
        "numberOfBytes": "32"
      },
      "t_struct(OptionParameters)9701_storage": {
        "encoding": "inplace",
        "label": "struct StructureData.OptionParameters",
        "members": [
          {
            "astId": 9692,
            "contract": "contracts/PKKTHodlBoosterOption.sol:PKKTHodlBoosterOption",
            "label": "quota",
            "offset": 0,
            "slot": "0",
            "type": "t_uint256"
          },
          {
            "astId": 9694,
            "contract": "contracts/PKKTHodlBoosterOption.sol:PKKTHodlBoosterOption",
            "label": "pricePrecision",
            "offset": 0,
            "slot": "1",
            "type": "t_uint8"
          },
          {
            "astId": 9696,
            "contract": "contracts/PKKTHodlBoosterOption.sol:PKKTHodlBoosterOption",
            "label": "strikePriceRatio",
            "offset": 1,
            "slot": "1",
            "type": "t_int16"
          },
          {
            "astId": 9698,
            "contract": "contracts/PKKTHodlBoosterOption.sol:PKKTHodlBoosterOption",
            "label": "premiumRate",
            "offset": 3,
            "slot": "1",
            "type": "t_uint16"
          },
          {
            "astId": 9700,
            "contract": "contracts/PKKTHodlBoosterOption.sol:PKKTHodlBoosterOption",
            "label": "callOrPut",
            "offset": 5,
            "slot": "1",
            "type": "t_bool"
          }
        ],
        "numberOfBytes": "64"
      },
      "t_struct(OptionState)9718_storage": {
        "encoding": "inplace",
        "label": "struct StructureData.OptionState",
        "members": [
          {
            "astId": 9703,
            "contract": "contracts/PKKTHodlBoosterOption.sol:PKKTHodlBoosterOption",
            "label": "round",
            "offset": 0,
            "slot": "0",
            "type": "t_uint256"
          },
          {
            "astId": 9705,
            "contract": "contracts/PKKTHodlBoosterOption.sol:PKKTHodlBoosterOption",
            "label": "totalAmount",
            "offset": 0,
            "slot": "1",
            "type": "t_uint256"
          },
          {
            "astId": 9707,
            "contract": "contracts/PKKTHodlBoosterOption.sol:PKKTHodlBoosterOption",
            "label": "strikePrice",
            "offset": 0,
            "slot": "2",
            "type": "t_uint256"
          },
          {
            "astId": 9709,
            "contract": "contracts/PKKTHodlBoosterOption.sol:PKKTHodlBoosterOption",
            "label": "underlyingPrice",
            "offset": 0,
            "slot": "3",
            "type": "t_uint256"
          },
          {
            "astId": 9711,
            "contract": "contracts/PKKTHodlBoosterOption.sol:PKKTHodlBoosterOption",
            "label": "premiumRate",
            "offset": 0,
            "slot": "4",
            "type": "t_uint16"
          },
          {
            "astId": 9713,
            "contract": "contracts/PKKTHodlBoosterOption.sol:PKKTHodlBoosterOption",
            "label": "pricePrecision",
            "offset": 2,
            "slot": "4",
            "type": "t_uint8"
          },
          {
            "astId": 9715,
            "contract": "contracts/PKKTHodlBoosterOption.sol:PKKTHodlBoosterOption",
            "label": "executed",
            "offset": 3,
            "slot": "4",
            "type": "t_bool"
          },
          {
            "astId": 9717,
            "contract": "contracts/PKKTHodlBoosterOption.sol:PKKTHodlBoosterOption",
            "label": "callOrPut",
            "offset": 4,
            "slot": "4",
            "type": "t_bool"
          }
        ],
        "numberOfBytes": "160"
      },
      "t_struct(UserState)9734_storage": {
        "encoding": "inplace",
        "label": "struct StructureData.UserState",
        "members": [
          {
            "astId": 9723,
            "contract": "contracts/PKKTHodlBoosterOption.sol:PKKTHodlBoosterOption",
            "label": "pendingAsset",
            "offset": 0,
            "slot": "0",
            "type": "t_uint256"
          },
          {
            "astId": 9727,
            "contract": "contracts/PKKTHodlBoosterOption.sol:PKKTHodlBoosterOption",
            "label": "ongoingAsset",
            "offset": 0,
            "slot": "1",
            "type": "t_array(t_uint256)7_storage"
          },
          {
            "astId": 9729,
            "contract": "contracts/PKKTHodlBoosterOption.sol:PKKTHodlBoosterOption",
            "label": "nextCursor",
            "offset": 0,
            "slot": "8",
            "type": "t_uint8"
          },
          {
            "astId": 9731,
            "contract": "contracts/PKKTHodlBoosterOption.sol:PKKTHodlBoosterOption",
            "label": "totalRound",
            "offset": 1,
            "slot": "8",
            "type": "t_uint232"
          },
          {
            "astId": 9733,
            "contract": "contracts/PKKTHodlBoosterOption.sol:PKKTHodlBoosterOption",
            "label": "hasState",
            "offset": 30,
            "slot": "8",
            "type": "t_bool"
          }
        ],
        "numberOfBytes": "288"
      },
      "t_uint16": {
        "encoding": "inplace",
        "label": "uint16",
        "numberOfBytes": "2"
      },
      "t_uint232": {
        "encoding": "inplace",
        "label": "uint232",
        "numberOfBytes": "29"
      },
      "t_uint256": {
        "encoding": "inplace",
        "label": "uint256",
        "numberOfBytes": "32"
      },
      "t_uint8": {
        "encoding": "inplace",
        "label": "uint8",
        "numberOfBytes": "1"
      }
    }
  }
}