{
  "address": "0x70457f140341e4f9d646e0Ba62CF45e3c8437F95",
  "abi": [
    {
      "inputs": [
        {
          "internalType": "address",
          "name": "_settler",
          "type": "address"
        },
        {
          "components": [
            {
              "internalType": "uint8",
              "name": "callOptionId",
              "type": "uint8"
            },
            {
              "internalType": "uint8",
              "name": "putOptionId",
              "type": "uint8"
            },
            {
              "internalType": "uint8",
              "name": "depositAssetAmountDecimals",
              "type": "uint8"
            },
            {
              "internalType": "uint8",
              "name": "counterPartyAssetAmountDecimals",
              "type": "uint8"
            },
            {
              "internalType": "address",
              "name": "depositAsset",
              "type": "address"
            },
            {
              "internalType": "address",
              "name": "counterPartyAsset",
              "type": "address"
            }
          ],
          "internalType": "struct StructureData.OptionPairDefinition[]",
          "name": "_optionPairDefinitions",
          "type": "tuple[]"
        }
      ],
      "stateMutability": "nonpayable",
      "type": "constructor"
    },
    {
      "anonymous": false,
      "inputs": [
        {
          "indexed": true,
          "internalType": "uint8",
          "name": "optionId",
          "type": "uint8"
        },
        {
          "indexed": true,
          "internalType": "address",
          "name": "account",
          "type": "address"
        },
        {
          "indexed": true,
          "internalType": "uint16",
          "name": "round",
          "type": "uint16"
        },
        {
          "indexed": false,
          "internalType": "uint256",
          "name": "amount",
          "type": "uint256"
        }
      ],
      "name": "Deposit",
      "type": "event"
    },
    {
      "anonymous": false,
      "inputs": [
        {
          "indexed": true,
          "internalType": "bytes32",
          "name": "role",
          "type": "bytes32"
        },
        {
          "indexed": true,
          "internalType": "bytes32",
          "name": "previousAdminRole",
          "type": "bytes32"
        },
        {
          "indexed": true,
          "internalType": "bytes32",
          "name": "newAdminRole",
          "type": "bytes32"
        }
      ],
      "name": "RoleAdminChanged",
      "type": "event"
    },
    {
      "anonymous": false,
      "inputs": [
        {
          "indexed": true,
          "internalType": "bytes32",
          "name": "role",
          "type": "bytes32"
        },
        {
          "indexed": true,
          "internalType": "address",
          "name": "account",
          "type": "address"
        },
        {
          "indexed": true,
          "internalType": "address",
          "name": "sender",
          "type": "address"
        }
      ],
      "name": "RoleGranted",
      "type": "event"
    },
    {
      "anonymous": false,
      "inputs": [
        {
          "indexed": true,
          "internalType": "bytes32",
          "name": "role",
          "type": "bytes32"
        },
        {
          "indexed": true,
          "internalType": "address",
          "name": "account",
          "type": "address"
        },
        {
          "indexed": true,
          "internalType": "address",
          "name": "sender",
          "type": "address"
        }
      ],
      "name": "RoleRevoked",
      "type": "event"
    },
    {
      "anonymous": false,
      "inputs": [
        {
          "indexed": true,
          "internalType": "uint8",
          "name": "optionId",
          "type": "uint8"
        },
        {
          "indexed": true,
          "internalType": "address",
          "name": "account",
          "type": "address"
        },
        {
          "indexed": true,
          "internalType": "address",
          "name": "asset",
          "type": "address"
        },
        {
          "indexed": false,
          "internalType": "uint256",
          "name": "amount",
          "type": "uint256"
        }
      ],
      "name": "Withdraw",
      "type": "event"
    },
    {
      "inputs": [],
      "name": "DEFAULT_ADMIN_ROLE",
      "outputs": [
        {
          "internalType": "bytes32",
          "name": "",
          "type": "bytes32"
        }
      ],
      "stateMutability": "view",
      "type": "function"
    },
    {
      "inputs": [
        {
          "components": [
            {
              "internalType": "uint8",
              "name": "callOptionId",
              "type": "uint8"
            },
            {
              "internalType": "uint8",
              "name": "putOptionId",
              "type": "uint8"
            },
            {
              "internalType": "uint8",
              "name": "depositAssetAmountDecimals",
              "type": "uint8"
            },
            {
              "internalType": "uint8",
              "name": "counterPartyAssetAmountDecimals",
              "type": "uint8"
            },
            {
              "internalType": "address",
              "name": "depositAsset",
              "type": "address"
            },
            {
              "internalType": "address",
              "name": "counterPartyAsset",
              "type": "address"
            }
          ],
          "internalType": "struct StructureData.OptionPairDefinition[]",
          "name": "_optionPairDefinitions",
          "type": "tuple[]"
        }
      ],
      "name": "addOptionPairs",
      "outputs": [],
      "stateMutability": "nonpayable",
      "type": "function"
    },
    {
      "inputs": [
        {
          "internalType": "address",
          "name": "_asset",
          "type": "address"
        }
      ],
      "name": "balanceEnough",
      "outputs": [
        {
          "internalType": "bool",
          "name": "",
          "type": "bool"
        }
      ],
      "stateMutability": "view",
      "type": "function"
    },
    {
      "inputs": [
        {
          "internalType": "address",
          "name": "_trader",
          "type": "address"
        },
        {
          "internalType": "address[]",
          "name": "_assets",
          "type": "address[]"
        }
      ],
      "name": "batchWithdrawAssets",
      "outputs": [],
      "stateMutability": "nonpayable",
      "type": "function"
    },
    {
      "inputs": [
        {
          "internalType": "uint8",
          "name": "_optionId",
          "type": "uint8"
        },
        {
          "internalType": "uint256",
          "name": "_assetToTerminate",
          "type": "uint256"
        }
      ],
      "name": "cancelWithdraw",
      "outputs": [],
      "stateMutability": "nonpayable",
      "type": "function"
    },
    {
      "inputs": [],
      "name": "currentRound",
      "outputs": [
        {
          "internalType": "uint16",
          "name": "",
          "type": "uint16"
        }
      ],
      "stateMutability": "view",
      "type": "function"
    },
    {
      "inputs": [
        {
          "internalType": "uint8",
          "name": "_optionId",
          "type": "uint8"
        },
        {
          "internalType": "uint256",
          "name": "_amount",
          "type": "uint256"
        }
      ],
      "name": "deposit",
      "outputs": [],
      "stateMutability": "nonpayable",
      "type": "function"
    },
    {
      "inputs": [
        {
          "internalType": "uint8",
          "name": "_optionId",
          "type": "uint8"
        }
      ],
      "name": "depositETH",
      "outputs": [],
      "stateMutability": "payable",
      "type": "function"
    },
    {
      "inputs": [
        {
          "internalType": "uint8",
          "name": "",
          "type": "uint8"
        }
      ],
      "name": "executionAccountingResult",
      "outputs": [
        {
          "components": [
            {
              "internalType": "uint128",
              "name": "depositAmount",
              "type": "uint128"
            },
            {
              "internalType": "uint128",
              "name": "autoRollAmount",
              "type": "uint128"
            },
            {
              "internalType": "uint128",
              "name": "autoRollPremium",
              "type": "uint128"
            },
            {
              "internalType": "uint128",
              "name": "releasedAmount",
              "type": "uint128"
            },
            {
              "internalType": "uint128",
              "name": "releasedPremium",
              "type": "uint128"
            },
            {
              "internalType": "uint128",
              "name": "autoRollCounterPartyAmount",
              "type": "uint128"
            },
            {
              "internalType": "uint128",
              "name": "autoRollCounterPartyPremium",
              "type": "uint128"
            },
            {
              "internalType": "uint128",
              "name": "releasedCounterPartyAmount",
              "type": "uint128"
            },
            {
              "internalType": "uint128",
              "name": "releasedCounterPartyPremium",
              "type": "uint128"
            },
            {
              "internalType": "bool",
              "name": "executed",
              "type": "bool"
            }
          ],
          "internalType": "struct StructureData.SettlementAccountingResult",
          "name": "callOptionResult",
          "type": "tuple"
        },
        {
          "components": [
            {
              "internalType": "uint128",
              "name": "depositAmount",
              "type": "uint128"
            },
            {
              "internalType": "uint128",
              "name": "autoRollAmount",
              "type": "uint128"
            },
            {
              "internalType": "uint128",
              "name": "autoRollPremium",
              "type": "uint128"
            },
            {
              "internalType": "uint128",
              "name": "releasedAmount",
              "type": "uint128"
            },
            {
              "internalType": "uint128",
              "name": "releasedPremium",
              "type": "uint128"
            },
            {
              "internalType": "uint128",
              "name": "autoRollCounterPartyAmount",
              "type": "uint128"
            },
            {
              "internalType": "uint128",
              "name": "autoRollCounterPartyPremium",
              "type": "uint128"
            },
            {
              "internalType": "uint128",
              "name": "releasedCounterPartyAmount",
              "type": "uint128"
            },
            {
              "internalType": "uint128",
              "name": "releasedCounterPartyPremium",
              "type": "uint128"
            },
            {
              "internalType": "bool",
              "name": "executed",
              "type": "bool"
            }
          ],
          "internalType": "struct StructureData.SettlementAccountingResult",
          "name": "putOptionResult",
          "type": "tuple"
        },
        {
          "internalType": "enum StructureData.OptionExecution",
          "name": "execute",
          "type": "uint8"
        }
      ],
      "stateMutability": "view",
      "type": "function"
    },
    {
      "inputs": [
        {
          "internalType": "uint8",
          "name": "_optionId",
          "type": "uint8"
        }
      ],
      "name": "getAccountBalance",
      "outputs": [
        {
          "components": [
            {
              "internalType": "uint128",
              "name": "pendingDepositAssetAmount",
              "type": "uint128"
            },
            {
              "internalType": "uint128",
              "name": "lockedDepositAssetAmount",
              "type": "uint128"
            },
            {
              "internalType": "uint128",
              "name": "terminatingDepositAssetAmount",
              "type": "uint128"
            },
            {
              "internalType": "uint128",
              "name": "toTerminateDepositAssetAmount",
              "type": "uint128"
            },
            {
              "internalType": "uint128",
              "name": "releasedDepositAssetAmount",
              "type": "uint128"
            },
            {
              "internalType": "uint128",
              "name": "releasedCounterPartyAssetAmount",
              "type": "uint128"
            }
          ],
          "internalType": "struct StructureData.UserBalance",
          "name": "",
          "type": "tuple"
        }
      ],
      "stateMutability": "view",
      "type": "function"
    },
    {
      "inputs": [
        {
          "internalType": "uint8",
          "name": "_optionId",
          "type": "uint8"
        }
      ],
      "name": "getOptionSnapShot",
      "outputs": [
        {
          "components": [
            {
              "internalType": "uint128",
              "name": "totalPending",
              "type": "uint128"
            },
            {
              "internalType": "uint128",
              "name": "totalLocked",
              "type": "uint128"
            },
            {
              "internalType": "uint128",
              "name": "totalTerminating",
              "type": "uint128"
            },
            {
              "internalType": "uint128",
              "name": "totalToTerminate",
              "type": "uint128"
            },
            {
              "internalType": "uint128",
              "name": "totalReleasedDeposit",
              "type": "uint128"
            },
            {
              "internalType": "uint128",
              "name": "totalReleasedCounterParty",
              "type": "uint128"
            }
          ],
          "internalType": "struct StructureData.OptionSnapshot",
          "name": "",
          "type": "tuple"
        }
      ],
      "stateMutability": "view",
      "type": "function"
    },
    {
      "inputs": [
        {
          "internalType": "uint8",
          "name": "_optionId",
          "type": "uint8"
        },
        {
          "internalType": "uint16",
          "name": "_round",
          "type": "uint16"
        }
      ],
      "name": "getOptionStateByRound",
      "outputs": [
        {
          "components": [
            {
              "internalType": "uint128",
              "name": "totalAmount",
              "type": "uint128"
            },
            {
              "internalType": "uint128",
              "name": "totalTerminate",
              "type": "uint128"
            },
            {
              "internalType": "uint128",
              "name": "strikePrice",
              "type": "uint128"
            },
            {
              "internalType": "uint16",
              "name": "round",
              "type": "uint16"
            },
            {
              "internalType": "uint16",
              "name": "premiumRate",
              "type": "uint16"
            },
            {
              "internalType": "bool",
              "name": "executed",
              "type": "bool"
            },
            {
              "internalType": "bool",
              "name": "callOrPut",
              "type": "bool"
            }
          ],
          "internalType": "struct StructureData.OptionState",
          "name": "",
          "type": "tuple"
        }
      ],
      "stateMutability": "view",
      "type": "function"
    },
    {
      "inputs": [
        {
          "internalType": "bytes32",
          "name": "role",
          "type": "bytes32"
        }
      ],
      "name": "getRoleAdmin",
      "outputs": [
        {
          "internalType": "bytes32",
          "name": "",
          "type": "bytes32"
        }
      ],
      "stateMutability": "view",
      "type": "function"
    },
    {
      "inputs": [
        {
          "internalType": "bytes32",
          "name": "role",
          "type": "bytes32"
        },
        {
          "internalType": "address",
          "name": "account",
          "type": "address"
        }
      ],
      "name": "grantRole",
      "outputs": [],
      "stateMutability": "nonpayable",
      "type": "function"
    },
    {
      "inputs": [
        {
          "internalType": "bytes32",
          "name": "role",
          "type": "bytes32"
        },
        {
          "internalType": "address",
          "name": "account",
          "type": "address"
        }
      ],
      "name": "hasRole",
      "outputs": [
        {
          "internalType": "bool",
          "name": "",
          "type": "bool"
        }
      ],
      "stateMutability": "view",
      "type": "function"
    },
    {
      "inputs": [],
      "name": "initiateSettlement",
      "outputs": [],
      "stateMutability": "nonpayable",
      "type": "function"
    },
    {
      "inputs": [
        {
          "internalType": "uint8",
          "name": "_optionId",
          "type": "uint8"
        },
        {
          "internalType": "uint256",
          "name": "_assetToTerminate",
          "type": "uint256"
        }
      ],
      "name": "initiateWithraw",
      "outputs": [],
      "stateMutability": "nonpayable",
      "type": "function"
    },
    {
      "inputs": [],
      "name": "optionPairCount",
      "outputs": [
        {
          "internalType": "uint8",
          "name": "",
          "type": "uint8"
        }
      ],
      "stateMutability": "view",
      "type": "function"
    },
    {
      "inputs": [
        {
          "internalType": "uint8",
          "name": "",
          "type": "uint8"
        }
      ],
      "name": "optionPairs",
      "outputs": [
        {
          "internalType": "uint8",
          "name": "callOptionId",
          "type": "uint8"
        },
        {
          "internalType": "uint8",
          "name": "putOptionId",
          "type": "uint8"
        },
        {
          "internalType": "uint8",
          "name": "depositAssetAmountDecimals",
          "type": "uint8"
        },
        {
          "internalType": "uint8",
          "name": "counterPartyAssetAmountDecimals",
          "type": "uint8"
        },
        {
          "internalType": "address",
          "name": "depositAsset",
          "type": "address"
        },
        {
          "internalType": "address",
          "name": "counterPartyAsset",
          "type": "address"
        }
      ],
      "stateMutability": "view",
      "type": "function"
    },
    {
      "inputs": [
        {
          "internalType": "bytes32",
          "name": "role",
          "type": "bytes32"
        },
        {
          "internalType": "address",
          "name": "account",
          "type": "address"
        }
      ],
      "name": "renounceRole",
      "outputs": [],
      "stateMutability": "nonpayable",
      "type": "function"
    },
    {
      "inputs": [
        {
          "internalType": "bytes32",
          "name": "role",
          "type": "bytes32"
        },
        {
          "internalType": "address",
          "name": "account",
          "type": "address"
        }
      ],
      "name": "revokeRole",
      "outputs": [],
      "stateMutability": "nonpayable",
      "type": "function"
    },
    {
      "inputs": [
        {
          "internalType": "uint256[]",
          "name": "_parameters",
          "type": "uint256[]"
        }
      ],
      "name": "setOptionParameters",
      "outputs": [],
      "stateMutability": "nonpayable",
      "type": "function"
    },
    {
      "inputs": [
        {
          "internalType": "enum StructureData.OptionExecution[]",
          "name": "_execution",
          "type": "uint8[]"
        }
      ],
      "name": "settle",
      "outputs": [],
      "stateMutability": "nonpayable",
      "type": "function"
    },
    {
      "inputs": [
        {
          "internalType": "address",
          "name": "",
          "type": "address"
        }
      ],
      "name": "settlementCashflowResult",
      "outputs": [
        {
          "internalType": "uint128",
          "name": "newDepositAmount",
          "type": "uint128"
        },
        {
          "internalType": "uint128",
          "name": "newReleasedAmount",
          "type": "uint128"
        },
        {
          "internalType": "int128",
          "name": "leftOverAmount",
          "type": "int128"
        },
        {
          "internalType": "address",
          "name": "contractAddress",
          "type": "address"
        }
      ],
      "stateMutability": "view",
      "type": "function"
    },
    {
      "inputs": [
        {
          "internalType": "bytes4",
          "name": "interfaceId",
          "type": "bytes4"
        }
      ],
      "name": "supportsInterface",
      "outputs": [
        {
          "internalType": "bool",
          "name": "",
          "type": "bool"
        }
      ],
      "stateMutability": "view",
      "type": "function"
    },
    {
      "inputs": [],
      "name": "underSettlement",
      "outputs": [
        {
          "internalType": "bool",
          "name": "",
          "type": "bool"
        }
      ],
      "stateMutability": "view",
      "type": "function"
    },
    {
      "inputs": [
        {
          "internalType": "uint8",
          "name": "_optionId",
          "type": "uint8"
        },
        {
          "internalType": "uint256",
          "name": "_amount",
          "type": "uint256"
        },
        {
          "internalType": "address",
          "name": "_asset",
          "type": "address"
        }
      ],
      "name": "withdraw",
      "outputs": [],
      "stateMutability": "nonpayable",
      "type": "function"
    },
    {
      "inputs": [
        {
          "internalType": "address",
          "name": "_trader",
          "type": "address"
        },
        {
          "internalType": "address",
          "name": "_asset",
          "type": "address"
        }
      ],
      "name": "withdrawAsset",
      "outputs": [],
      "stateMutability": "nonpayable",
      "type": "function"
    },
    {
      "stateMutability": "payable",
      "type": "receive"
    }
  ],
  "transactionHash": "0x892641759d253e79ba11c0c280784ed9e960b82edda0fe956c7f6dd334cb63c8",
  "args": [
    "0x7FAa46FB04BB00de3F6D5E90d78b4a37f8E48cd4",
    [
      {
        "depositAssetAmountDecimals": 18,
        "counterPartyAssetAmountDecimals": 6,
        "depositAsset": "0x0000000000000000000000000000000000000000",
        "counterPartyAsset": "0x0f3210636461Ae2C7ADAEF4d1A8124EB0F3b63fA",
        "callOptionId": 0,
        "putOptionId": 0
      },
      {
        "depositAssetAmountDecimals": 8,
        "counterPartyAssetAmountDecimals": 6,
        "depositAsset": "0xE75e6098CE2d7F289b07ABB055321d690ed2912d",
        "counterPartyAsset": "0x0f3210636461Ae2C7ADAEF4d1A8124EB0F3b63fA",
        "callOptionId": 0,
        "putOptionId": 0
      }
    ]
  ],
  "solcInputHash": "52ac65ad2c3ebb12f3f7108bd158dc09",
  "bytecode": "0x60806040523480156200001157600080fd5b5060405162005c7538038062005c758339810160408190526200003491620007a4565b60018055816001600160a01b0381166200004d57600080fd5b6200005a6000336200009a565b620000867f6666bf5bfee463d10a7fc50448047f8a53b7762d7e28fbc5c643182785f3fd3f826200009a565b506200009281620000aa565b505062000b48565b620000a6828262000435565b5050565b620000b7600033620004d5565b805160025460075460ff63010000009092048216911660005b8381101562000408576000858281518110620000fc57634e487b7160e01b600052603260045260246000fd5b6020026020010151905083600262000115919062000a62565b6200012290600162000a18565b60ff168082526200013590600162000a18565b60ff1660208201528060046000866200014e8162000af9565b60ff91821683526020808401949094526040928301600020855181549587015194870151606088015160808901516001600160a01b0390811664010000000002600160201b600160c01b031992881663010000000263ff0000001994891662010000029490941663ffff0000199989166101000261ffff19909b1695891695909517999099179790971692909217171694909417845560a09094015160019093018054939092166001600160a01b03199093169290921790559094508316620002b65760808101516008600085620002268162000af9565b965060ff1660ff16815260200190815260200160002060006101000a8154816001600160a01b0302191690836001600160a01b031602179055508060a00151600860008580620002769062000af9565b965060ff1660ff16815260200190815260200160002060006101000a8154816001600160a01b0302191690836001600160a01b03160217905550620003f2565b60008060005b8560ff168160ff1610156200034257608084015160ff82166000908152600860205260409020546001600160a01b0390811691161415620002fc57600192505b60a084015160ff82166000908152600860205260409020546001600160a01b03908116911614156200032d57600191505b80620003398162000af9565b915050620002bc565b50816200039957608083015160086000876200035e8162000af9565b985060ff1660ff16815260200190815260200160002060006101000a8154816001600160a01b0302191690836001600160a01b031602179055505b80620003ef5760a08301516008600087620003b48162000af9565b985060ff1660ff16815260200190815260200160002060006101000a8154816001600160a01b0302191690836001600160a01b031602179055505b50505b5080620003ff8162000adb565b915050620000d0565b506002805463ff0000001916630100000060ff948516021790556007805460ff1916919092161790555050565b6000828152602081815260408083206001600160a01b038516845290915290205460ff16620000a6576000828152602081815260408083206001600160a01b03851684529091529020805460ff19166001179055620004913390565b6001600160a01b0316816001600160a01b0316837f2f8788117e7eff1d82e926ec794901d17c78024a50270940304540a733656f0d60405160405180910390a45050565b6000828152602081815260408083206001600160a01b038516845290915290205460ff16620000a6576200051f816001600160a01b031660146200057960201b620030ee1760201c565b62000535836020620030ee62000579821b17811c565b60405160200162000548929190620008f1565b60408051601f198184030181529082905262461bcd60e51b825262000570916004016200096a565b60405180910390fd5b606060006200058a83600262000a40565b62000597906002620009fd565b6001600160401b03811115620005bd57634e487b7160e01b600052604160045260246000fd5b6040519080825280601f01601f191660200182016040528015620005e8576020820181803683370190505b509050600360fc1b816000815181106200061257634e487b7160e01b600052603260045260246000fd5b60200101906001600160f81b031916908160001a905350600f60fb1b816001815181106200065057634e487b7160e01b600052603260045260246000fd5b60200101906001600160f81b031916908160001a90535060006200067684600262000a40565b62000683906001620009fd565b90505b60018111156200071d576f181899199a1a9b1b9c1cb0b131b232b360811b85600f1660108110620006c757634e487b7160e01b600052603260045260246000fd5b1a60f81b828281518110620006ec57634e487b7160e01b600052603260045260246000fd5b60200101906001600160f81b031916908160001a90535060049490941c93620007158162000ac1565b905062000686565b5083156200076e5760405162461bcd60e51b815260206004820181905260248201527f537472696e67733a20686578206c656e67746820696e73756666696369656e74604482015260640162000570565b9392505050565b80516001600160a01b03811681146200078d57600080fd5b919050565b805160ff811681146200078d57600080fd5b6000806040808486031215620007b8578283fd5b620007c38462000775565b602085810151919450906001600160401b0380821115620007e2578485fd5b818701915087601f830112620007f6578485fd5b8151818111156200080b576200080b62000b32565b6200081b848260051b01620009ca565b818152848101925083850160c0808402860187018c10156200083b578889fd5b8895505b83861015620008e05780828d03121562000857578889fd5b620008616200099f565b6200086c8362000792565b81526200087b88840162000792565b888201526200088c89840162000792565b8982015260606200089f81850162000792565b908201526080620008b284820162000775565b9082015260a0620008c584820162000775565b9082015285526001959095019493860193908101906200083f565b50979a909950975050505050505050565b7f416363657373436f6e74726f6c3a206163636f756e74200000000000000000008152600083516200092b81601785016020880162000a8e565b7001034b99036b4b9b9b4b733903937b6329607d1b60179184019182015283516200095e81602884016020880162000a8e565b01602801949350505050565b60208152600082518060208401526200098b81604085016020870162000a8e565b601f01601f19169190910160400192915050565b60405160c081016001600160401b0381118282101715620009c457620009c462000b32565b60405290565b604051601f8201601f191681016001600160401b0381118282101715620009f557620009f562000b32565b604052919050565b6000821982111562000a135762000a1362000b1c565b500190565b600060ff821660ff84168060ff0382111562000a385762000a3862000b1c565b019392505050565b600081600019048311821515161562000a5d5762000a5d62000b1c565b500290565b600060ff821660ff84168160ff048111821515161562000a865762000a8662000b1c565b029392505050565b60005b8381101562000aab57818101518382015260200162000a91565b8381111562000abb576000848401525b50505050565b60008162000ad35762000ad362000b1c565b506000190190565b600060001982141562000af25762000af262000b1c565b5060010190565b600060ff821660ff81141562000b135762000b1362000b1c565b60010192915050565b634e487b7160e01b600052601160045260246000fd5b634e487b7160e01b600052604160045260246000fd5b61511d8062000b586000396000f3fe6080604052600436106101bb5760003560e01c80636386bcc4116100ec57806391d148541161008a578063c78b432e11610064578063c78b432e14610b25578063d547741f14610b3a578063ddd0247514610b5a578063f4d4c9d714610b8d57600080fd5b806391d148541461098b578063a217fddf146109ab578063c5cfc5be146109c057600080fd5b806371018682116100c657806371018682146108845780637332655b146108a457806383eb772e146108c45780638a19c8bc1461095d57600080fd5b80636386bcc41461078a578063644d41ed146108375780636b37e4e31461085757600080fd5b806326b516991161015957806336568abe1161013357806336568abe1461032f5780634dd96f861461034f57806351fe669e1461036f57806355bf621f1461076a57600080fd5b806326b51699146102cf5780632f2ff15d146102ef57806332b76e861461030f57600080fd5b80631916285211610195578063191628521461023e578063222f6b831461025e578063248a9ca31461027e578063256d43d7146102bc57600080fd5b806301ffc9a7146101c757806302c178d7146101fc5780630748248f1461021e57600080fd5b366101c257005b600080fd5b3480156101d357600080fd5b506101e76101e2366004614799565b610bad565b60405190151581526020015b60405180910390f35b34801561020857600080fd5b5061021c610217366004614433565b610be4565b005b34801561022a57600080fd5b506002546101e79062010000900460ff1681565b34801561024a57600080fd5b5061021c6102593660046145b6565b610cf0565b34801561026a57600080fd5b5061021c6102793660046149c9565b61105a565b34801561028a57600080fd5b506102ae61029936600461475f565b60009081526020819052604090206001015490565b6040519081526020016101f3565b61021c6102ca366004614973565b611109565b3480156102db57600080fd5b5061021c6102ea366004614465565b6112a4565b3480156102fb57600080fd5b5061021c61030a366004614777565b611452565b34801561031b57600080fd5b5061021c61032a366004614517565b61147d565b34801561033b57600080fd5b5061021c61034a366004614777565b611c0c565b34801561035b57600080fd5b5061021c61036a3660046146be565b611c8a565b34801561037b57600080fd5b5061075b61038a366004614973565b600560205280600052604060002060009150905080600001604051806101400160405290816000820160009054906101000a90046001600160801b03166001600160801b03166001600160801b031681526020016000820160109054906101000a90046001600160801b03166001600160801b03166001600160801b031681526020016001820160009054906101000a90046001600160801b03166001600160801b03166001600160801b031681526020016001820160109054906101000a90046001600160801b03166001600160801b03166001600160801b031681526020016002820160009054906101000a90046001600160801b03166001600160801b03166001600160801b031681526020016002820160109054906101000a90046001600160801b03166001600160801b03166001600160801b031681526020016003820160009054906101000a90046001600160801b03166001600160801b03166001600160801b031681526020016003820160109054906101000a90046001600160801b03166001600160801b03166001600160801b031681526020016004820160009054906101000a90046001600160801b03166001600160801b03166001600160801b031681526020016004820160109054906101000a900460ff1615151515815250509080600501604051806101400160405290816000820160009054906101000a90046001600160801b03166001600160801b03166001600160801b031681526020016000820160109054906101000a90046001600160801b03166001600160801b03166001600160801b031681526020016001820160009054906101000a90046001600160801b03166001600160801b03166001600160801b031681526020016001820160109054906101000a90046001600160801b03166001600160801b03166001600160801b031681526020016002820160009054906101000a90046001600160801b03166001600160801b03166001600160801b031681526020016002820160109054906101000a90046001600160801b03166001600160801b03166001600160801b031681526020016003820160009054906101000a90046001600160801b03166001600160801b03166001600160801b031681526020016003820160109054906101000a90046001600160801b03166001600160801b03166001600160801b031681526020016004820160009054906101000a90046001600160801b03166001600160801b03166001600160801b031681526020016004820160109054906101000a900460ff1615151515815250509080600a0160009054906101000a900460ff16905083565b6040516101f393929190614ca3565b34801561077657600080fd5b5061021c6107853660046149f2565b611e0d565b34801561079657600080fd5b506107f26107a5366004614973565b6004602052600090815260409020805460019091015460ff8083169261010081048216926201000082048316926301000000830416916001600160a01b03600160201b9091048116911686565b6040805160ff9788168152958716602087015293861693850193909352931660608301526001600160a01b0392831660808301529190911660a082015260c0016101f3565b34801561084357600080fd5b506101e7610852366004614419565b611fb6565b34801561086357600080fd5b50610877610872366004614973565b6120ac565b6040516101f39190614c4b565b34801561089057600080fd5b5061087761089f366004614973565b612193565b3480156108b057600080fd5b5061021c6108bf3660046149c9565b612234565b3480156108d057600080fd5b506109206108df366004614419565b6003602052600090815260409020805460018201546002909201546001600160801b0380831693600160801b9093041691600f0b906001600160a01b031684565b604080516001600160801b039586168152949093166020850152600f9190910b918301919091526001600160a01b031660608201526080016101f3565b34801561096957600080fd5b506002546109789061ffff1681565b60405161ffff90911681526020016101f3565b34801561099757600080fd5b506101e76109a6366004614777565b6122b3565b3480156109b757600080fd5b506102ae600081565b3480156109cc57600080fd5b50610ab26109db36600461498d565b6040805160e081018252600080825260208201819052918101829052606081018290526080810182905260a0810182905260c08101919091525060ff918216600090815260066020908152604080832061ffff9485168452600201825291829020825160e08101845281546001600160801b038082168352600160801b9182900481169483019490945260019092015492831693810193909352810483166060830152600160901b81049092166080820152600160a01b82048316151560a0820152600160a81b909104909116151560c082015290565b6040516101f39190600060e0820190506001600160801b0380845116835280602085015116602084015280604085015116604084015250606083015161ffff8082166060850152806080860151166080850152505060a0830151151560a083015260c0830151151560c083015292915050565b348015610b3157600080fd5b5061021c6122dc565b348015610b4657600080fd5b5061021c610b55366004614777565b612f30565b348015610b6657600080fd5b50600254610b7b906301000000900460ff1681565b60405160ff90911681526020016101f3565b348015610b9957600080fd5b5061021c610ba83660046149c9565b612f56565b60006001600160e01b03198216637965db0b60e01b1480610bde57506301ffc9a760e01b6001600160e01b03198316145b92915050565b610bfc6000805160206150c8833981519152336132d7565b6001600160a01b038116600090815260096020526040812060018101549091600f91820b90910b13610c2d57600080fd5b6001810154604051631a4ca37b60e21b81526001600160a01b0380861660048301526001600160801b03600f9390930b9283166024830152841660448201527328D1E0e4460FB7e65DE364e613b3C29C0C0A0933906369328dec9060640160006040518083038186803b158015610ca357600080fd5b505af4158015610cb7573d6000803e3d6000fd5b5050506002830180546001600160801b03938416600160801b029316929092179091555060010180546001600160801b03191690555050565b610cfb6000336132d7565b805160025460075460ff63010000009092048216911660005b8381101561102d576000858281518110610d3e57634e487b7160e01b600052603260045260246000fd5b60200260200101519050836002610d559190614eb9565b610d60906001614e3f565b60ff16808252610d71906001614e3f565b60ff166020820152806004600086610d888161502b565b60ff91821683526020808401949094526040928301600020855181549587015194870151606088015160808901516001600160a01b03908116600160201b02640100000000600160c01b031992881663010000000263ff0000001994891662010000029490941663ffff0000199989166101000261ffff19909b1695891695909517999099179790971692909217171694909417845560a09094015160019093018054939092166001600160a01b03199093169290921790559094508316610eea5760808101516008600085610e5d8161502b565b965060ff1660ff16815260200190815260200160002060006101000a8154816001600160a01b0302191690836001600160a01b031602179055508060a00151600860008580610eab9061502b565b965060ff1660ff16815260200190815260200160002060006101000a8154816001600160a01b0302191690836001600160a01b0316021790555061101a565b60008060005b8560ff168160ff161015610f7057608084015160ff82166000908152600860205260409020546001600160a01b0390811691161415610f2e57600192505b60a084015160ff82166000908152600860205260409020546001600160a01b0390811691161415610f5e57600191505b80610f688161502b565b915050610ef0565b5081610fc45760808301516008600087610f898161502b565b985060ff1660ff16815260200190815260200160002060006101000a8154816001600160a01b0302191690836001600160a01b031602179055505b806110175760a08301516008600087610fdc8161502b565b985060ff1660ff16815260200190815260200160002060006101000a8154816001600160a01b0302191690836001600160a01b031602179055505b50505b508061102581615010565b915050610d14565b506002805463ff0000001916630100000060ff948516021790556007805460ff1916919092161790555050565b6110638261333b565b60ff828116600090815260066020526040908190206002549151638a229a5760e01b81526004810191909152336024820152604481018490526201000082049092161515606483015261ffff1660848201527328D1E0e4460FB7e65DE364e613b3C29C0C0A093390638a229a579060a4015b60006040518083038186803b1580156110ed57600080fd5b505af4158015611101573d6000803e3d6000fd5b505050505050565b60025461ffff1661114c5760405162461bcd60e51b81526020600482015260086024820152670854dd185c9d195960c21b60448201526064015b60405180910390fd5b6000341161115957600080fd5b6111628161333b565b60006004816002611174600186614faa565b61117e9190614e78565b60ff908116825260208201929092526040016000908120805490935090918481169116146111b95760018201546001600160a01b03166111cc565b8154600160201b90046001600160a01b03165b90506001600160a01b038116156111e257600080fd5b60ff8316600090815260066020526040808220600254915163c502f99160e01b81527328D1E0e4460FB7e65DE364e613b3C29C0C0A09339363c502f9919361123d939233923492909161ffff90911690600190600401614be2565b60006040518083038186803b15801561125557600080fd5b505af4158015611269573d6000803e3d6000fd5b505060025460405134815261ffff909116925033915060ff8616906000805160206150a88339815191529060200160405180910390a4505050565b6112bc6000805160206150c8833981519152336132d7565b805160005b8181101561144c576000600960008584815181106112ef57634e487b7160e01b600052603260045260246000fd5b60200260200101516001600160a01b03166001600160a01b03168152602001908152602001600020905060008160010160009054906101000a9004600f0b600f0b1361133a57600080fd5b60008160010160009054906101000a9004600f0b90507328D1E0e4460FB7e65DE364e613b3C29C0C0A09336369328dec87836001600160801b031688878151811061139557634e487b7160e01b600052603260045260246000fd5b60200260200101516040518463ffffffff1660e01b81526004016113d9939291906001600160a01b0393841681526020810192909252909116604082015260600190565b60006040518083038186803b1580156113f157600080fd5b505af4158015611405573d6000803e3d6000fd5b5050506002830180546001600160801b03938416600160801b029316929092179091555060010180546001600160801b03191690558061144481615010565b9150506112c1565b50505050565b60008281526020819052604090206001015461146e81336132d7565b611478838361337a565b505050565b6114956000805160206150c8833981519152336132d7565b60025462010000900460ff166114aa57600080fd5b80516002546301000000900460ff1681146114c457600080fd5b6002546000906114da9060019061ffff16614f70565b905060005b828160ff161015611bf2576000848260ff168151811061150f57634e487b7160e01b600052603260045260246000fd5b60209081029190910181015160ff80851660009081526004845260408082208054808516845260068752828420610100918290049095168452828420835161018081018552858152978801859052928701849052606087018490526080870184905260a0870184905260c0870184905260e0870184905286018390526101208601839052610140860183905261016086019290925292945092909190600060028401816115bd60018b614f70565b61ffff168152602081019190915260400160002080549091506001600160801b0316156118575784547328D1E0e4460FB7e65DE364e613b3C29C0C0A09339063aab69633908690849060019060ff6201000082048116916301000000900416828d600281111561163d57634e487b7160e01b600052602160045260246000fd5b6040516001600160e01b031960e08a901b16815260048101979097526024870195909552921515604486015260ff91821660648601521660848401521460a482015260c4016101806040518083038186803b15801561169b57600080fd5b505af41580156116af573d6000803e3d6000fd5b505050506040513d601f19601f820116820180604052508101906116d391906147c1565b805190925015611763576040828101518654600160201b90046001600160a01b03166000908152600960205291909120546117209161171b916001600160801b0316906133fe565b61340a565b8554600160201b90046001600160a01b0316600090815260096020526040902080546001600160801b0319166001600160801b03929092169190911790556117e1565b6060820151156117e15760a082015160018601546001600160a01b03166000908152600960205260409020546117a69161171b916001600160801b0316906133fe565b60018601546001600160a01b0316600090815260096020526040902080546001600160801b0319166001600160801b03929092169190911790555b600186600281111561180357634e487b7160e01b600052602160045260246000fd5b1415611836576118318482858860000160019054906101000a900460ff168660a00151876101600151613477565b611857565b8454604083015161010084015161185792879260ff909116918591906137ab565b6000600284018161186960018c614f70565b61ffff168152602081019190915260400160002080549091506001600160801b031615611afe5785547328D1E0e4460FB7e65DE364e613b3C29C0C0A09339063aab69633908690849060009060ff630100000082048116916201000090041660028e60028111156118ea57634e487b7160e01b600052602160045260246000fd5b6040516001600160e01b031960e08a901b16815260048101979097526024870195909552921515604486015260ff91821660648601521660848401521460a482015260c4016101806040518083038186803b15801561194857600080fd5b505af415801561195c573d6000803e3d6000fd5b505050506040513d601f19601f8201168201806040525081019061198091906147c1565b805190935015611a035760408084015160018801546001600160a01b03166000908152600960205291909120546119c49161171b916001600160801b0316906133fe565b60018701546001600160a01b0316600090815260096020526040902080546001600160801b0319166001600160801b0392909216919091179055611a89565b606083015115611a895760a08301518654600160201b90046001600160a01b0316600090815260096020526040902054611a4a9161171b916001600160801b0316906133fe565b8654600160201b90046001600160a01b0316600090815260096020526040902080546001600160801b0319166001600160801b03929092169190911790555b6002876002811115611aab57634e487b7160e01b600052602160045260246000fd5b1415611ad757855460a0840151610160850151611ad292879285928a9260ff169190613477565b611afe565b611afe848760000160019054906101000a900460ff168386604001518761010001516137ab565b6040516366aef26360e01b81526004810186905261ffff8a1660248201527328D1E0e4460FB7e65DE364e613b3C29C0C0A0933906366aef2639060440160006040518083038186803b158015611b5357600080fd5b505af4158015611b67573d6000803e3d6000fd5b50506040516366aef26360e01b81526004810187905261ffff8c1660248201527328D1E0e4460FB7e65DE364e613b3C29C0C0A093392506366aef263915060440160006040518083038186803b158015611bc057600080fd5b505af4158015611bd4573d6000803e3d6000fd5b50505050505050505050508080611bea9061502b565b9150506114df565b50611bfb613a02565b50506002805462ff00001916905550565b6001600160a01b0381163314611c7c5760405162461bcd60e51b815260206004820152602f60248201527f416363657373436f6e74726f6c3a2063616e206f6e6c792072656e6f756e636560448201526e103937b632b9903337b91039b2b63360891b6064820152608401611143565b611c868282613c7f565b5050565b611ca26000805160206150c8833981519152336132d7565b805160025462010000900460ff1615611cba57600080fd5b600254600161ffff90911611611ccf57600080fd5b600260039054906101000a900460ff166002611ceb9190614eb9565b60ff168114611cf957600080fd5b60005b818160ff161015611478576000838260ff1681518110611d2c57634e487b7160e01b600052603260045260246000fd5b60200260200101519050600060066000846001611d499190614e3f565b60ff168152602081019190915260400160009081206002805491019190611d769060019061ffff16614f70565b61ffff16815260208101919091526040908101600020905163338dfe2f60e21b815260048101849052602481018290529091507328D1E0e4460FB7e65DE364e613b3C29C0C0A09339063ce37f8bc9060440160006040518083038186803b158015611de057600080fd5b505af4158015611df4573d6000803e3d6000fd5b5050505050508080611e059061502b565b915050611cfc565b611e168361333b565b60006004816002611e28600188614faa565b611e329190614e78565b60ff908116825260208083019390935260409182016000908120888316808352600690955292902060025483549395507328D1E0e4460FB7e65DE364e613b3C29C0C0A093394637441e8bb94929333938a9361ffff16929116148015611eab575086546001600160a01b03898116600160201b90920416145b80611edb5750865460ff8b811661010090920416148015611edb575060018701546001600160a01b038981169116145b6040516001600160e01b031960e088901b16815260048101959095526001600160a01b039093166024850152604484019190915261ffff1660648301521515608482015260a40160006040518083038186803b158015611f3a57600080fd5b505af4158015611f4e573d6000803e3d6000fd5b50505050611f5f3384846000613ce4565b816001600160a01b0316336001600160a01b03168560ff167f9ac0ff79dc491174b021e6532a2fc734e82751bba8672e9183a76cb994a5f65a86604051611fa891815260200190565b60405180910390a450505050565b6001600160a01b03811660009081526009602052604081206001810154600f90810b9081900b8313611fec575060019392505050565b60405163b2838a7360e01b81526001600160a01b03851660048201523060248201527328D1E0e4460FB7e65DE364e613b3C29C0C0A09339063b2838a739060440160206040518083038186803b15801561204557600080fd5b505af4158015612059573d6000803e3d6000fd5b505050506040513d601f19601f8201168201806040525081019061207d919061495b565b61208b575060009392505050565b61209484613dd7565b61209d9061504b565b81600f0b121592505050919050565b6040805160c081018252600080825260208201819052918101829052606081018290526080810182905260a081019190915260ff82811660009081526006602052604090819020600254915163c975707360e01b815260048101919091526201000082049092161515602483015261ffff1660448201527328D1E0e4460FB7e65DE364e613b3C29C0C0A09339063c9757073906064015b60c06040518083038186803b15801561215b57600080fd5b505af415801561216f573d6000803e3d6000fd5b505050506040513d601f19601f82011682018060405250810190610bde919061485f565b6040805160c081018252600080825260208201819052918101829052606081018290526080810182905260a081019190915260ff828116600090815260066020526040908190206002549151634ed14a7f60e01b815260048101919091523360248201526201000082049092161515604483015261ffff1660648201527328D1E0e4460FB7e65DE364e613b3C29C0C0A093390634ed14a7f90608401612143565b61223d8261333b565b60ff828116600090815260066020526040908190206002549151630f681f9360e31b81526004810191909152336024820152604481018490526201000082049092161515606483015261ffff1660848201527328D1E0e4460FB7e65DE364e613b3C29C0C0A093390637b40fc989060a4016110d5565b6000918252602082815260408084206001600160a01b0393909316845291905290205460ff1690565b6122f46000805160206150c8833981519152336132d7565b60025462010000900460ff161561230a57600080fd5b60025461231c9061ffff166001614e01565b6002805462ffffff191661ffff92909216919091176201000017905560005b60025460ff630100000090910481169082161015612e305760ff8181166000908152600460208181526040808420805490951684526006909152808320600254915163161dd97560e31b815292830181905261ffff90911660248301526001604483015291907328D1E0e4460FB7e65DE364e613b3C29C0C0A09339063b0eecba89060640160206040518083038186803b1580156123d857600080fd5b505af41580156123ec573d6000803e3d6000fd5b505050506040513d601f19601f820116820180604052508101906124109190614941565b8354610100900460ff16600090815260066020526040808220600254915163161dd97560e31b81526004810182905261ffff9092166024830152604482018390529293507328D1E0e4460FB7e65DE364e613b3C29C0C0A09339063b0eecba89060640160206040518083038186803b15801561248b57600080fd5b505af415801561249f573d6000803e3d6000fd5b505050506040513d601f19601f820116820180604052508101906124c39190614941565b90506001600160801b03831615612554578454600160201b90046001600160a01b03166000908152600960205260409020546125179061171b906001600160801b03600160801b90910481169086166133fe565b85546001600160a01b03600160201b90910416600090815260096020526040902080546001600160801b03928316600160801b0292169190911790555b6001600160801b038116156125da5760018501546001600160a01b03166000908152600960205260409020546125a29061171b90600160801b90046001600160801b039081169084166133fe565b60018601546001600160a01b0316600090815260096020526040902080546001600160801b03928316600160801b0292169190911790555b6002805461ffff16116125f1575050505050612e1e565b8454600254604051631bb98a3360e01b81526000927328D1E0e4460FB7e65DE364e613b3C29C0C0A093392631bb98a339261264e928a9260019260ff62010000840481169363010000009004169161ffff16908990600401614c19565b6101406040518083038186803b15801561266757600080fd5b505af415801561267b573d6000803e3d6000fd5b505050506040513d601f19601f8201168201806040525081019061269f919061487a565b8654600254604051631bb98a3360e01b81529293506000927328D1E0e4460FB7e65DE364e613b3C29C0C0A093392631bb98a3392612701928992879260ff6301000000830481169362010000909304169161ffff909116908490600401614c19565b6101406040518083038186803b15801561271a57600080fd5b505af415801561272e573d6000803e3d6000fd5b505050506040513d601f19601f82011682018060405250810190612752919061487a565b9050600060405180606001604052808481526020018381526020016000600281111561278e57634e487b7160e01b600052602160045260246000fd5b9052905080600560006127a28c6003614eb9565b60ff168152602080820192909252604090810160002083518051818501516001600160801b03908116600160801b90810292821692909217845582850151606080850151831684029183169190911760018087019190915560808086015160a08088015186168702918616919091176002808a019190915560c08089015160e0808b015189168a029189169190911760038c0155610100808b015160048d0180546101209d8e015115158d026001600160881b0319918216938d16939093179290921790558f8f015180519f8101518b168c029f8b169f909f1760058e01558e8e0151988f01518a168b02988a169890981760068d0155948d0151938d0151881689029388169390931760078b01558b0151918b015186168702918616919091176008890155908901516009880180549a9097015115159095029890921693909216929092179590951790915591840151600a8201805492949193909260ff19169190849081111561292457634e487b7160e01b600052602160045260246000fd5b0217905550508854600254604051631bb98a3360e01b8152600093507328D1E0e4460FB7e65DE364e613b3C29C0C0A093392631bb98a339261298b928d9260019260ff6201000083048116936301000000909304169161ffff909116908490600401614c19565b6101406040518083038186803b1580156129a457600080fd5b505af41580156129b8573d6000803e3d6000fd5b505050506040513d601f19601f820116820180604052508101906129dc919061487a565b604080516060810182528281526020810186905291925081016001905291508160056000612a0b8d6003614eb9565b612a16906001614e3f565b60ff168152602080820192909252604090810160002083518051818501516001600160801b03908116600160801b90810292821692909217845582850151606080850151831684029183169190911760018087019190915560808086015160a08088015186168702918616919091176002808a019190915560c08089015160e0808b015189168a029189169190911760038c0155610100808b015160048d0180546101209d8e015115158d026001600160881b0319918216938d16939093179290921790558f8f015180519f8101518b168c029f8b169f909f1760058e01558e8e0151988f01518a168b02988a169890981760068d0155948d0151938d0151881689029388169390931760078b01558b0151918b015186168702918616919091176008890155908901516009880180549a9097015115159095029890921693909216929092179590951790915591840151600a8201805492949193909260ff191691908490811115612b9857634e487b7160e01b600052602160045260246000fd5b0217905550508954600254604051631bb98a3360e01b8152600093507328D1E0e4460FB7e65DE364e613b3C29C0C0A093392631bb98a3392612bff928c92879260ff6301000000830481169362010000909304169161ffff90911690600190600401614c19565b6101406040518083038186803b158015612c1857600080fd5b505af4158015612c2c573d6000803e3d6000fd5b505050506040513d601f19601f82011682018060405250810190612c50919061487a565b604080516060810182528781526020810183905291925081016002905292508260056000612c7f8e6003614eb9565b612c8a906002614e3f565b60ff168152602080820192909252604090810160002083518051818501516001600160801b03908116600160801b90810292821692909217845582850151606080850151831684029183169190911760018087019190915560808086015160a08088015186168702918616919091176002808a019190915560c08089015160e0808b015189168a029189169190911760038c0155610100808b015160048d0180546101209d8e015115158d026001600160881b0319918216938d16939093179290921790558f8f015180519f8101518b168c029f8b169f909f1760058e01558e8e0151988f01518a168b02988a169890981760068d0155948d0151938d0151881689029388169390931760078b01558b0151918b015186168702918616919091176008890155908901516009880180549a9097015115159095029890921693909216929092179590951790915591840151600a8201805492949193909260ff191691908490811115612e0c57634e487b7160e01b600052602160045260246000fd5b02179055505050505050505050505050505b80612e288161502b565b91505061233b565b5060025461ffff1660011415612e4e576002805462ff000019169055565b6002805461ffff161415612f2e5760015b600260039054906101000a900460ff166002612e7b9190614eb9565b60ff168160ff1611612f185760ff81166000908152600660205260409081902090516366aef26360e01b81526004810191909152600160248201527328D1E0e4460FB7e65DE364e613b3C29C0C0A0933906366aef2639060440160006040518083038186803b158015612eed57600080fd5b505af4158015612f01573d6000803e3d6000fd5b505050508080612f109061502b565b915050612e5f565b50612f21613a02565b6002805462ff0000191690555b565b600082815260208190526040902060010154612f4c81336132d7565b6114788383613c7f565b60025461ffff16612f945760405162461bcd60e51b81526020600482015260086024820152670854dd185c9d195960c21b6044820152606401611143565b612f9d8261333b565b60006004816002612faf600187614faa565b612fb99190614e78565b60ff90811682526020820192909252604001600090812080549093509091858116911614612ff45760018201546001600160a01b0316613007565b8154600160201b90046001600160a01b03165b90506001600160a01b03811661301c57600080fd5b60ff8416600090815260066020526040808220600254915163c502f99160e01b81527328D1E0e4460FB7e65DE364e613b3C29C0C0A09339363c502f99193613077939233928a92909161ffff90911690600190600401614be2565b60006040518083038186803b15801561308f57600080fd5b505af41580156130a3573d6000803e3d6000fd5b505060025460405186815261ffff909116925033915060ff8716906000805160206150a88339815191529060200160405180910390a461144c6001600160a01b038216333086613edb565b606060006130fd836002614e9a565b613108906002614e27565b67ffffffffffffffff81111561312e57634e487b7160e01b600052604160045260246000fd5b6040519080825280601f01601f191660200182016040528015613158576020820181803683370190505b509050600360fc1b8160008151811061318157634e487b7160e01b600052603260045260246000fd5b60200101906001600160f81b031916908160001a905350600f60fb1b816001815181106131be57634e487b7160e01b600052603260045260246000fd5b60200101906001600160f81b031916908160001a90535060006131e2846002614e9a565b6131ed906001614e27565b90505b6001811115613281576f181899199a1a9b1b9c1cb0b131b232b360811b85600f166010811061322f57634e487b7160e01b600052603260045260246000fd5b1a60f81b82828151811061325357634e487b7160e01b600052603260045260246000fd5b60200101906001600160f81b031916908160001a90535060049490941c9361327a81614ff9565b90506131f0565b5083156132d05760405162461bcd60e51b815260206004820181905260248201527f537472696e67733a20686578206c656e67746820696e73756666696369656e746044820152606401611143565b9392505050565b6132e182826122b3565b611c86576132f9816001600160a01b031660146130ee565b6133048360206130ee565b604051602001613315929190614b3a565b60408051601f198184030181529082905262461bcd60e51b825261114391600401614baf565b60ff81161580159061336e5750600260039054906101000a900460ff1660026133649190614eb9565b60ff168160ff1611155b61337757600080fd5b50565b61338482826122b3565b611c86576000828152602081815260408083206001600160a01b03851684529091529020805460ff191660011790556133ba3390565b6001600160a01b0316816001600160a01b0316837f2f8788117e7eff1d82e926ec794901d17c78024a50270940304540a733656f0d60405160405180910390a45050565b60006132d08284614e27565b60006001600160801b038211156134735760405162461bcd60e51b815260206004820152602760248201527f53616665436173743a2076616c756520646f65736e27742066697420696e20316044820152663238206269747360c81b6064820152608401611143565b5090565b8454600090613499906001600160801b0380821691600160801b900416613f35565b60018801549091506001600160801b0316158015906134b85750600082115b156135175760018601546134f49061171b906134e0908490600160901b900461ffff16613f41565b60018a01546001600160801b031690613f63565b6001880180546001600160801b0319166001600160801b03929092169190911790555b600387015460005b818110156137a057600089600301828154811061354c57634e487b7160e01b600052603260045260246000fd5b60009182526020808320909101546001600160a01b031680835260048d0190915260409091206001810154919250906001600160801b031661358f57505061378e565b60018101548a546000916135bd918a916001600160801b03600160801b918290048116929190910416613f7e565b905080156136045760038201546135e19061171b906001600160801b0316836133fe565b6003830180546001600160801b0319166001600160801b03929092169190911790555b6001820154600090613629906001600160801b0380821691600160801b900416613f35565b9050600061363889838a613f7e565b905080156137795760018d01546000908190613660908590600160901b900461ffff16613f41565b60028701549091506001600160801b031681106136985760028601546136919084906001600160801b031683613f7e565b915061369c565b8291505b7328D1E0e4460FB7e65DE364e613b3C29C0C0A093363c502f9918f8986866001600260009054906101000a900461ffff166136d79190614f70565b60006040518763ffffffff1660e01b81526004016136fa96959493929190614be2565b60006040518083038186803b15801561371257600080fd5b505af4158015613726573d6000803e3d6000fd5b505060025461373d92506001915061ffff16614f70565b61ffff16876001600160a01b03168e60ff166000805160206150a88339815191528660405161376e91815260200190565b60405180910390a450505b50505060010180546001600160801b03169055505b8061379881615010565b91505061351f565b505050505050505050565b82546000906137cd906001600160801b0380821691600160801b900416613f35565b600387015490915060005b818110156139f857600088600301828154811061380557634e487b7160e01b600052603260045260246000fd5b60009182526020808320909101546001600160a01b031680835260048c0190915260409091206001810154919250906001600160801b03166138485750506139e6565b60018101548854600091613876918a916001600160801b03600160801b918290048116929190910416613f7e565b905080156138c15760028201546138a19061171b90600160801b90046001600160801b0316836133fe565b6002830180546001600160801b03928316600160801b0292169190911790555b60018201546000906138f29089906138ec906001600160801b0380821691600160801b900416613f35565b89613f7e565b905080156139d2576002547328D1E0e4460FB7e65DE364e613b3C29C0C0A09339063c502f991908e90879085906000906139329060019061ffff16614f70565b60006040518763ffffffff1660e01b815260040161395596959493929190614be2565b60006040518083038186803b15801561396d57600080fd5b505af4158015613981573d6000803e3d6000fd5b505060025461399892506001915061ffff16614f70565b61ffff16846001600160a01b03168c60ff166000805160206150a8833981519152846040516139c991815260200190565b60405180910390a45b505060010180546001600160801b03169055505b806139f081615010565b9150506137d8565b5050505050505050565b60005b60075460ff90811690821610156133775760ff81166000908152600860209081526040808320546001600160a01b031680845260099092528220600280549293919261ffff1614613a885781546001600160801b0380821691600160801b900416613a6f85613dd7565b613a799190614ee2565b613a839190614db3565b613a8b565b60005b6001830154613a9d9190600f0b614db3565b6002830180546001600160801b0316905560405163b2838a7360e01b81526001600160a01b0385166004820152306024820152909150613b46907328D1E0e4460FB7e65DE364e613b3C29C0C0A09339063b2838a739060440160206040518083038186803b158015613b0e57600080fd5b505af4158015613b22573d6000803e3d6000fd5b505050506040513d601f19601f8201168201806040525081019061171b919061495b565b6001830180546001600160801b03928316600160801b029216919091179055613b7161171b84613fc6565b600283810180546001600160801b03199081166001600160801b0394851617909155604080516080810182528654600160801b808204871683529086166020808401918252600f89810b8587019081526001600160a01b038d811660608801818152600091825260039095529790972086519451948b16948b16860294909417845551600184018054909816910b89161790955593519390940180546001600160a01b031916939092169290921790558454909281811692613c3592041684614db3565b613c3f9190614ee2565b600184018054600f9290920b6001600160801b03166001600160801b03199092169190911790555050600090555080613c778161502b565b915050613a05565b613c8982826122b3565b15611c86576000828152602081815260408083206001600160a01b0385168085529252808320805460ff1916905551339285917ff6391f5c32d9c69d2a47ea670b442974b53935d1edc7fd64eb21e047a839171b9190a45050565b60026001541415613d375760405162461bcd60e51b815260206004820152601f60248201527f5265656e7472616e637947756172643a207265656e7472616e742063616c6c006044820152606401611143565b600260015580613d5357613d4a82611fb6565b613d5357600080fd5b604051631a4ca37b60e21b81526001600160a01b03808616600483015260248201859052831660448201527328D1E0e4460FB7e65DE364e613b3C29C0C0A0933906369328dec9060640160006040518083038186803b158015613db557600080fd5b505af4158015613dc9573d6000803e3d6000fd5b505060018055505050505050565b6001600160a01b0381166000908152600960205260408120613e16613dfb84613fc6565b6001830154600160801b90046001600160801b0316906133fe565b600282015460405163b2838a7360e01b81526001600160a01b0386166004820152306024820152613ed1916001600160801b0380821692613ecb92600160801b9004909116907328D1E0e4460FB7e65DE364e613b3C29C0C0A09339063b2838a739060440160206040518083038186803b158015613e9357600080fd5b505af4158015613ea7573d6000803e3d6000fd5b505050506040513d601f19601f82011682018060405250810190613ecb919061495b565b906133fe565b6132d09190614f31565b604080516001600160a01b0385811660248301528416604482015260648082018490528251808303909101815260849091019091526020810180516001600160e01b03166323b872dd60e01b17905261144c90859061414f565b60006132d08284614f93565b60006132d0612710613f5d613f568583614e27565b8690614221565b9061422d565b600081831015613f745760006132d0565b6132d08284614f93565b6000821580613f8b575081155b80613f94575083155b15613fa1575060006132d0565b81831015613fbc57613fb782613f5d8686614221565b613fbe565b835b949350505050565b600080805b60025460ff6301000000909104811690821610156141485760ff8116600090815260046020526040902080546001600160a01b03868116600160201b909204161480614026575060018101546001600160a01b038681169116145b1561413557805460ff81166000908152600660205260409020906140ab906001600160a01b03888116600160201b9092041614614074578154600160801b90046001600160801b03166140a4565b81546002805461ffff16600090815290840160205260409020546140a4916001600160801b0391821691166133fe565b85906133fe565b8254610100900460ff166000908152600660205260409020600184015491955090614130906001600160a01b038981169116146140f9578154600160801b90046001600160801b0316614129565b81546002805461ffff1660009081529084016020526040902054614129916001600160801b0391821691166133fe565b86906133fe565b945050505b50806141408161502b565b915050613fcb565b5092915050565b60006141a4826040518060400160405280602081526020017f5361666545524332303a206c6f772d6c6576656c2063616c6c206661696c6564815250856001600160a01b03166142399092919063ffffffff16565b80519091501561147857808060200190518101906141c29190614745565b6114785760405162461bcd60e51b815260206004820152602a60248201527f5361666545524332303a204552433230206f7065726174696f6e20646964206e6044820152691bdd081cdd58d8d9595960b21b6064820152608401611143565b60006132d08284614e9a565b60006132d08284614e64565b6060613fbe848460008585843b6142925760405162461bcd60e51b815260206004820152601d60248201527f416464726573733a2063616c6c20746f206e6f6e2d636f6e74726163740000006044820152606401611143565b600080866001600160a01b031685876040516142ae9190614b1e565b60006040518083038185875af1925050503d80600081146142eb576040519150601f19603f3d011682016040523d82523d6000602084013e6142f0565b606091505b509150915061430082828661430b565b979650505050505050565b6060831561431a5750816132d0565b82511561432a5782518084602001fd5b8160405162461bcd60e51b81526004016111439190614baf565b80356001600160a01b038116811461435b57600080fd5b919050565b8051801515811461435b57600080fd5b600060c08284031215614381578081fd5b614389614ced565b9050614394826143f1565b81526143a2602083016143f1565b60208201526143b3604083016143f1565b60408201526143c4606083016143f1565b60608201526143d5608083016143f1565b60808201526143e660a083016143f1565b60a082015292915050565b80516001600160801b038116811461435b57600080fd5b803560ff8116811461435b57600080fd5b60006020828403121561442a578081fd5b6132d082614344565b60008060408385031215614445578081fd5b61444e83614344565b915061445c60208401614344565b90509250929050565b60008060408385031215614477578182fd5b61448083614344565b915060208084013567ffffffffffffffff81111561449c578283fd5b8401601f810186136144ac578283fd5b80356144bf6144ba82614d8f565b614d5e565b80828252848201915084840189868560051b87010111156144de578687fd5b8694505b83851015614507576144f381614344565b8352600194909401939185019185016144e2565b5080955050505050509250929050565b60006020808385031215614529578182fd5b823567ffffffffffffffff81111561453f578283fd5b8301601f8101851361454f578283fd5b803561455d6144ba82614d8f565b80828252848201915084840188868560051b870101111561457c578687fd5b8694505b838510156145aa57803560038110614596578788fd5b835260019490940193918501918501614580565b50979650505050505050565b600060208083850312156145c8578182fd5b823567ffffffffffffffff8111156145de578283fd5b8301601f810185136145ee578283fd5b80356145fc6144ba82614d8f565b8181528381019083850160c0808502860187018a101561461a578788fd5b8795505b848610156146b05780828b031215614634578788fd5b61463c614ced565b61464583614408565b8152614652888401614408565b888201526040614663818501614408565b908201526060614674848201614408565b908201526080614685848201614344565b9082015260a0614696848201614344565b90820152845260019590950194928601929081019061461e565b509098975050505050505050565b600060208083850312156146d0578182fd5b823567ffffffffffffffff8111156146e6578283fd5b8301601f810185136146f6578283fd5b80356147046144ba82614d8f565b80828252848201915084840188868560051b8701011115614723578687fd5b8694505b838510156145aa578035835260019490940193918501918501614727565b600060208284031215614756578081fd5b6132d082614360565b600060208284031215614770578081fd5b5035919050565b60008060408385031215614789578182fd5b8235915061445c60208401614344565b6000602082840312156147aa578081fd5b81356001600160e01b0319811681146132d0578182fd5b600061018082840312156147d3578081fd5b6147db614d16565b825181526020830151602082015260408301516040820152606083015160608201526080830151608082015260a083015160a082015260c083015160c082015260e083015160e08201526101008084015181830152506101208084015181830152506101408084015181830152506101608084015181830152508091505092915050565b600060c08284031215614870578081fd5b6132d08383614370565b6000610140828403121561488c578081fd5b614894614d3a565b61489d836143f1565b81526148ab602084016143f1565b60208201526148bc604084016143f1565b60408201526148cd606084016143f1565b60608201526148de608084016143f1565b60808201526148ef60a084016143f1565b60a082015261490060c084016143f1565b60c082015261491160e084016143f1565b60e08201526101006149248185016143f1565b90820152610120614936848201614360565b908201529392505050565b600060208284031215614952578081fd5b6132d0826143f1565b60006020828403121561496c578081fd5b5051919050565b600060208284031215614984578081fd5b6132d082614408565b6000806040838503121561499f578182fd5b6149a883614408565b9150602083013561ffff811681146149be578182fd5b809150509250929050565b600080604083850312156149db578182fd5b6149e483614408565b946020939093013593505050565b600080600060608486031215614a06578081fd5b614a0f84614408565b925060208401359150614a2460408501614344565b90509250925092565b80516001600160801b031682526020810151614a5460208401826001600160801b03169052565b506040810151614a6f60408401826001600160801b03169052565b506060810151614a8a60608401826001600160801b03169052565b506080810151614aa560808401826001600160801b03169052565b5060a0810151614ac060a08401826001600160801b03169052565b5060c0810151614adb60c08401826001600160801b03169052565b5060e0810151614af660e08401826001600160801b03169052565b50610100818101516001600160801b031690830152610120808201518015158285015261144c565b60008251614b30818460208701614fcd565b9190910192915050565b7f416363657373436f6e74726f6c3a206163636f756e7420000000000000000000815260008351614b72816017850160208801614fcd565b7001034b99036b4b9b9b4b733903937b6329607d1b6017918401918201528351614ba3816028840160208801614fcd565b01602801949350505050565b6020815260008251806020840152614bce816040850160208701614fcd565b601f01601f19169190910160400192915050565b9586526001600160a01b039490941660208601526040850192909252606084015261ffff166080830152151560a082015260c00190565b958652931515602086015260ff92831660408601529116606084015261ffff166080830152151560a082015260c00190565b60c08101610bde82846001600160801b038082511683528060208301511660208401528060408301511660408401528060608301511660608401528060808301511660808401528060a08301511660a0840152505050565b6102a08101614cb28286614a2d565b614cc0610140830185614a2d565b60038310614cde57634e487b7160e01b600052602160045260246000fd5b82610280830152949350505050565b60405160c0810167ffffffffffffffff81118282101715614d1057614d10615091565b60405290565b604051610180810167ffffffffffffffff81118282101715614d1057614d10615091565b604051610140810167ffffffffffffffff81118282101715614d1057614d10615091565b604051601f8201601f1916810167ffffffffffffffff81118282101715614d8757614d87615091565b604052919050565b600067ffffffffffffffff821115614da957614da9615091565b5060051b60200190565b600081600f0b83600f0b8282128260016001607f1b0303821381151615614ddc57614ddc615065565b8260016001607f1b0319038212811615614df857614df8615065565b50019392505050565b600061ffff808316818516808303821115614e1e57614e1e615065565b01949350505050565b60008219821115614e3a57614e3a615065565b500190565b600060ff821660ff84168060ff03821115614e5c57614e5c615065565b019392505050565b600082614e7357614e7361507b565b500490565b600060ff831680614e8b57614e8b61507b565b8060ff84160491505092915050565b6000816000190483118215151615614eb457614eb4615065565b500290565b600060ff821660ff84168160ff0481118215151615614eda57614eda615065565b029392505050565b600081600f0b83600f0b8281128160016001607f1b031901831281151615614f0c57614f0c615065565b8160016001607f1b03018313811615614f2757614f27615065565b5090039392505050565b60008083128015600160ff1b850184121615614f4f57614f4f615065565b6001600160ff1b0384018313811615614f6a57614f6a615065565b50500390565b600061ffff83811690831681811015614f8b57614f8b615065565b039392505050565b600082821015614fa557614fa5615065565b500390565b600060ff821660ff841680821015614fc457614fc4615065565b90039392505050565b60005b83811015614fe8578181015183820152602001614fd0565b8381111561144c5750506000910152565b60008161500857615008615065565b506000190190565b600060001982141561502457615024615065565b5060010190565b600060ff821660ff81141561504257615042615065565b60010192915050565b6000600160ff1b82141561506157615061615065565b0390565b634e487b7160e01b600052601160045260246000fd5b634e487b7160e01b600052601260045260246000fd5b634e487b7160e01b600052604160045260246000fdfee963a73e630cb9812a026653bfb6b1e14ffa92f8c38b79f318f2637557ea9f126666bf5bfee463d10a7fc50448047f8a53b7762d7e28fbc5c643182785f3fd3fa26469706673582212205824fc181f46a7e6e155f5c805e0ea43ddeef12bebff0774cb49161791014c4864736f6c63430008040033",
  "deployedBytecode": "0x6080604052600436106101bb5760003560e01c80636386bcc4116100ec57806391d148541161008a578063c78b432e11610064578063c78b432e14610b25578063d547741f14610b3a578063ddd0247514610b5a578063f4d4c9d714610b8d57600080fd5b806391d148541461098b578063a217fddf146109ab578063c5cfc5be146109c057600080fd5b806371018682116100c657806371018682146108845780637332655b146108a457806383eb772e146108c45780638a19c8bc1461095d57600080fd5b80636386bcc41461078a578063644d41ed146108375780636b37e4e31461085757600080fd5b806326b516991161015957806336568abe1161013357806336568abe1461032f5780634dd96f861461034f57806351fe669e1461036f57806355bf621f1461076a57600080fd5b806326b51699146102cf5780632f2ff15d146102ef57806332b76e861461030f57600080fd5b80631916285211610195578063191628521461023e578063222f6b831461025e578063248a9ca31461027e578063256d43d7146102bc57600080fd5b806301ffc9a7146101c757806302c178d7146101fc5780630748248f1461021e57600080fd5b366101c257005b600080fd5b3480156101d357600080fd5b506101e76101e2366004614799565b610bad565b60405190151581526020015b60405180910390f35b34801561020857600080fd5b5061021c610217366004614433565b610be4565b005b34801561022a57600080fd5b506002546101e79062010000900460ff1681565b34801561024a57600080fd5b5061021c6102593660046145b6565b610cf0565b34801561026a57600080fd5b5061021c6102793660046149c9565b61105a565b34801561028a57600080fd5b506102ae61029936600461475f565b60009081526020819052604090206001015490565b6040519081526020016101f3565b61021c6102ca366004614973565b611109565b3480156102db57600080fd5b5061021c6102ea366004614465565b6112a4565b3480156102fb57600080fd5b5061021c61030a366004614777565b611452565b34801561031b57600080fd5b5061021c61032a366004614517565b61147d565b34801561033b57600080fd5b5061021c61034a366004614777565b611c0c565b34801561035b57600080fd5b5061021c61036a3660046146be565b611c8a565b34801561037b57600080fd5b5061075b61038a366004614973565b600560205280600052604060002060009150905080600001604051806101400160405290816000820160009054906101000a90046001600160801b03166001600160801b03166001600160801b031681526020016000820160109054906101000a90046001600160801b03166001600160801b03166001600160801b031681526020016001820160009054906101000a90046001600160801b03166001600160801b03166001600160801b031681526020016001820160109054906101000a90046001600160801b03166001600160801b03166001600160801b031681526020016002820160009054906101000a90046001600160801b03166001600160801b03166001600160801b031681526020016002820160109054906101000a90046001600160801b03166001600160801b03166001600160801b031681526020016003820160009054906101000a90046001600160801b03166001600160801b03166001600160801b031681526020016003820160109054906101000a90046001600160801b03166001600160801b03166001600160801b031681526020016004820160009054906101000a90046001600160801b03166001600160801b03166001600160801b031681526020016004820160109054906101000a900460ff1615151515815250509080600501604051806101400160405290816000820160009054906101000a90046001600160801b03166001600160801b03166001600160801b031681526020016000820160109054906101000a90046001600160801b03166001600160801b03166001600160801b031681526020016001820160009054906101000a90046001600160801b03166001600160801b03166001600160801b031681526020016001820160109054906101000a90046001600160801b03166001600160801b03166001600160801b031681526020016002820160009054906101000a90046001600160801b03166001600160801b03166001600160801b031681526020016002820160109054906101000a90046001600160801b03166001600160801b03166001600160801b031681526020016003820160009054906101000a90046001600160801b03166001600160801b03166001600160801b031681526020016003820160109054906101000a90046001600160801b03166001600160801b03166001600160801b031681526020016004820160009054906101000a90046001600160801b03166001600160801b03166001600160801b031681526020016004820160109054906101000a900460ff1615151515815250509080600a0160009054906101000a900460ff16905083565b6040516101f393929190614ca3565b34801561077657600080fd5b5061021c6107853660046149f2565b611e0d565b34801561079657600080fd5b506107f26107a5366004614973565b6004602052600090815260409020805460019091015460ff8083169261010081048216926201000082048316926301000000830416916001600160a01b03600160201b9091048116911686565b6040805160ff9788168152958716602087015293861693850193909352931660608301526001600160a01b0392831660808301529190911660a082015260c0016101f3565b34801561084357600080fd5b506101e7610852366004614419565b611fb6565b34801561086357600080fd5b50610877610872366004614973565b6120ac565b6040516101f39190614c4b565b34801561089057600080fd5b5061087761089f366004614973565b612193565b3480156108b057600080fd5b5061021c6108bf3660046149c9565b612234565b3480156108d057600080fd5b506109206108df366004614419565b6003602052600090815260409020805460018201546002909201546001600160801b0380831693600160801b9093041691600f0b906001600160a01b031684565b604080516001600160801b039586168152949093166020850152600f9190910b918301919091526001600160a01b031660608201526080016101f3565b34801561096957600080fd5b506002546109789061ffff1681565b60405161ffff90911681526020016101f3565b34801561099757600080fd5b506101e76109a6366004614777565b6122b3565b3480156109b757600080fd5b506102ae600081565b3480156109cc57600080fd5b50610ab26109db36600461498d565b6040805160e081018252600080825260208201819052918101829052606081018290526080810182905260a0810182905260c08101919091525060ff918216600090815260066020908152604080832061ffff9485168452600201825291829020825160e08101845281546001600160801b038082168352600160801b9182900481169483019490945260019092015492831693810193909352810483166060830152600160901b81049092166080820152600160a01b82048316151560a0820152600160a81b909104909116151560c082015290565b6040516101f39190600060e0820190506001600160801b0380845116835280602085015116602084015280604085015116604084015250606083015161ffff8082166060850152806080860151166080850152505060a0830151151560a083015260c0830151151560c083015292915050565b348015610b3157600080fd5b5061021c6122dc565b348015610b4657600080fd5b5061021c610b55366004614777565b612f30565b348015610b6657600080fd5b50600254610b7b906301000000900460ff1681565b60405160ff90911681526020016101f3565b348015610b9957600080fd5b5061021c610ba83660046149c9565b612f56565b60006001600160e01b03198216637965db0b60e01b1480610bde57506301ffc9a760e01b6001600160e01b03198316145b92915050565b610bfc6000805160206150c8833981519152336132d7565b6001600160a01b038116600090815260096020526040812060018101549091600f91820b90910b13610c2d57600080fd5b6001810154604051631a4ca37b60e21b81526001600160a01b0380861660048301526001600160801b03600f9390930b92831660248301528416604482015273__$e36f5330ef2566ea8a183e1e27b10de643$__906369328dec9060640160006040518083038186803b158015610ca357600080fd5b505af4158015610cb7573d6000803e3d6000fd5b5050506002830180546001600160801b03938416600160801b029316929092179091555060010180546001600160801b03191690555050565b610cfb6000336132d7565b805160025460075460ff63010000009092048216911660005b8381101561102d576000858281518110610d3e57634e487b7160e01b600052603260045260246000fd5b60200260200101519050836002610d559190614eb9565b610d60906001614e3f565b60ff16808252610d71906001614e3f565b60ff166020820152806004600086610d888161502b565b60ff91821683526020808401949094526040928301600020855181549587015194870151606088015160808901516001600160a01b03908116600160201b02640100000000600160c01b031992881663010000000263ff0000001994891662010000029490941663ffff0000199989166101000261ffff19909b1695891695909517999099179790971692909217171694909417845560a09094015160019093018054939092166001600160a01b03199093169290921790559094508316610eea5760808101516008600085610e5d8161502b565b965060ff1660ff16815260200190815260200160002060006101000a8154816001600160a01b0302191690836001600160a01b031602179055508060a00151600860008580610eab9061502b565b965060ff1660ff16815260200190815260200160002060006101000a8154816001600160a01b0302191690836001600160a01b0316021790555061101a565b60008060005b8560ff168160ff161015610f7057608084015160ff82166000908152600860205260409020546001600160a01b0390811691161415610f2e57600192505b60a084015160ff82166000908152600860205260409020546001600160a01b0390811691161415610f5e57600191505b80610f688161502b565b915050610ef0565b5081610fc45760808301516008600087610f898161502b565b985060ff1660ff16815260200190815260200160002060006101000a8154816001600160a01b0302191690836001600160a01b031602179055505b806110175760a08301516008600087610fdc8161502b565b985060ff1660ff16815260200190815260200160002060006101000a8154816001600160a01b0302191690836001600160a01b031602179055505b50505b508061102581615010565b915050610d14565b506002805463ff0000001916630100000060ff948516021790556007805460ff1916919092161790555050565b6110638261333b565b60ff828116600090815260066020526040908190206002549151638a229a5760e01b81526004810191909152336024820152604481018490526201000082049092161515606483015261ffff16608482015273__$e36f5330ef2566ea8a183e1e27b10de643$__90638a229a579060a4015b60006040518083038186803b1580156110ed57600080fd5b505af4158015611101573d6000803e3d6000fd5b505050505050565b60025461ffff1661114c5760405162461bcd60e51b81526020600482015260086024820152670854dd185c9d195960c21b60448201526064015b60405180910390fd5b6000341161115957600080fd5b6111628161333b565b60006004816002611174600186614faa565b61117e9190614e78565b60ff908116825260208201929092526040016000908120805490935090918481169116146111b95760018201546001600160a01b03166111cc565b8154600160201b90046001600160a01b03165b90506001600160a01b038116156111e257600080fd5b60ff8316600090815260066020526040808220600254915163c502f99160e01b815273__$e36f5330ef2566ea8a183e1e27b10de643$__9363c502f9919361123d939233923492909161ffff90911690600190600401614be2565b60006040518083038186803b15801561125557600080fd5b505af4158015611269573d6000803e3d6000fd5b505060025460405134815261ffff909116925033915060ff8616906000805160206150a88339815191529060200160405180910390a4505050565b6112bc6000805160206150c8833981519152336132d7565b805160005b8181101561144c576000600960008584815181106112ef57634e487b7160e01b600052603260045260246000fd5b60200260200101516001600160a01b03166001600160a01b03168152602001908152602001600020905060008160010160009054906101000a9004600f0b600f0b1361133a57600080fd5b60008160010160009054906101000a9004600f0b905073__$e36f5330ef2566ea8a183e1e27b10de643$__6369328dec87836001600160801b031688878151811061139557634e487b7160e01b600052603260045260246000fd5b60200260200101516040518463ffffffff1660e01b81526004016113d9939291906001600160a01b0393841681526020810192909252909116604082015260600190565b60006040518083038186803b1580156113f157600080fd5b505af4158015611405573d6000803e3d6000fd5b5050506002830180546001600160801b03938416600160801b029316929092179091555060010180546001600160801b03191690558061144481615010565b9150506112c1565b50505050565b60008281526020819052604090206001015461146e81336132d7565b611478838361337a565b505050565b6114956000805160206150c8833981519152336132d7565b60025462010000900460ff166114aa57600080fd5b80516002546301000000900460ff1681146114c457600080fd5b6002546000906114da9060019061ffff16614f70565b905060005b828160ff161015611bf2576000848260ff168151811061150f57634e487b7160e01b600052603260045260246000fd5b60209081029190910181015160ff80851660009081526004845260408082208054808516845260068752828420610100918290049095168452828420835161018081018552858152978801859052928701849052606087018490526080870184905260a0870184905260c0870184905260e0870184905286018390526101208601839052610140860183905261016086019290925292945092909190600060028401816115bd60018b614f70565b61ffff168152602081019190915260400160002080549091506001600160801b03161561185757845473__$e36f5330ef2566ea8a183e1e27b10de643$__9063aab69633908690849060019060ff6201000082048116916301000000900416828d600281111561163d57634e487b7160e01b600052602160045260246000fd5b6040516001600160e01b031960e08a901b16815260048101979097526024870195909552921515604486015260ff91821660648601521660848401521460a482015260c4016101806040518083038186803b15801561169b57600080fd5b505af41580156116af573d6000803e3d6000fd5b505050506040513d601f19601f820116820180604052508101906116d391906147c1565b805190925015611763576040828101518654600160201b90046001600160a01b03166000908152600960205291909120546117209161171b916001600160801b0316906133fe565b61340a565b8554600160201b90046001600160a01b0316600090815260096020526040902080546001600160801b0319166001600160801b03929092169190911790556117e1565b6060820151156117e15760a082015160018601546001600160a01b03166000908152600960205260409020546117a69161171b916001600160801b0316906133fe565b60018601546001600160a01b0316600090815260096020526040902080546001600160801b0319166001600160801b03929092169190911790555b600186600281111561180357634e487b7160e01b600052602160045260246000fd5b1415611836576118318482858860000160019054906101000a900460ff168660a00151876101600151613477565b611857565b8454604083015161010084015161185792879260ff909116918591906137ab565b6000600284018161186960018c614f70565b61ffff168152602081019190915260400160002080549091506001600160801b031615611afe57855473__$e36f5330ef2566ea8a183e1e27b10de643$__9063aab69633908690849060009060ff630100000082048116916201000090041660028e60028111156118ea57634e487b7160e01b600052602160045260246000fd5b6040516001600160e01b031960e08a901b16815260048101979097526024870195909552921515604486015260ff91821660648601521660848401521460a482015260c4016101806040518083038186803b15801561194857600080fd5b505af415801561195c573d6000803e3d6000fd5b505050506040513d601f19601f8201168201806040525081019061198091906147c1565b805190935015611a035760408084015160018801546001600160a01b03166000908152600960205291909120546119c49161171b916001600160801b0316906133fe565b60018701546001600160a01b0316600090815260096020526040902080546001600160801b0319166001600160801b0392909216919091179055611a89565b606083015115611a895760a08301518654600160201b90046001600160a01b0316600090815260096020526040902054611a4a9161171b916001600160801b0316906133fe565b8654600160201b90046001600160a01b0316600090815260096020526040902080546001600160801b0319166001600160801b03929092169190911790555b6002876002811115611aab57634e487b7160e01b600052602160045260246000fd5b1415611ad757855460a0840151610160850151611ad292879285928a9260ff169190613477565b611afe565b611afe848760000160019054906101000a900460ff168386604001518761010001516137ab565b6040516366aef26360e01b81526004810186905261ffff8a16602482015273__$e36f5330ef2566ea8a183e1e27b10de643$__906366aef2639060440160006040518083038186803b158015611b5357600080fd5b505af4158015611b67573d6000803e3d6000fd5b50506040516366aef26360e01b81526004810187905261ffff8c16602482015273__$e36f5330ef2566ea8a183e1e27b10de643$__92506366aef263915060440160006040518083038186803b158015611bc057600080fd5b505af4158015611bd4573d6000803e3d6000fd5b50505050505050505050508080611bea9061502b565b9150506114df565b50611bfb613a02565b50506002805462ff00001916905550565b6001600160a01b0381163314611c7c5760405162461bcd60e51b815260206004820152602f60248201527f416363657373436f6e74726f6c3a2063616e206f6e6c792072656e6f756e636560448201526e103937b632b9903337b91039b2b63360891b6064820152608401611143565b611c868282613c7f565b5050565b611ca26000805160206150c8833981519152336132d7565b805160025462010000900460ff1615611cba57600080fd5b600254600161ffff90911611611ccf57600080fd5b600260039054906101000a900460ff166002611ceb9190614eb9565b60ff168114611cf957600080fd5b60005b818160ff161015611478576000838260ff1681518110611d2c57634e487b7160e01b600052603260045260246000fd5b60200260200101519050600060066000846001611d499190614e3f565b60ff168152602081019190915260400160009081206002805491019190611d769060019061ffff16614f70565b61ffff16815260208101919091526040908101600020905163338dfe2f60e21b8152600481018490526024810182905290915073__$e36f5330ef2566ea8a183e1e27b10de643$__9063ce37f8bc9060440160006040518083038186803b158015611de057600080fd5b505af4158015611df4573d6000803e3d6000fd5b5050505050508080611e059061502b565b915050611cfc565b611e168361333b565b60006004816002611e28600188614faa565b611e329190614e78565b60ff9081168252602080830193909352604091820160009081208883168083526006909552929020600254835493955073__$e36f5330ef2566ea8a183e1e27b10de643$__94637441e8bb94929333938a9361ffff16929116148015611eab575086546001600160a01b03898116600160201b90920416145b80611edb5750865460ff8b811661010090920416148015611edb575060018701546001600160a01b038981169116145b6040516001600160e01b031960e088901b16815260048101959095526001600160a01b039093166024850152604484019190915261ffff1660648301521515608482015260a40160006040518083038186803b158015611f3a57600080fd5b505af4158015611f4e573d6000803e3d6000fd5b50505050611f5f3384846000613ce4565b816001600160a01b0316336001600160a01b03168560ff167f9ac0ff79dc491174b021e6532a2fc734e82751bba8672e9183a76cb994a5f65a86604051611fa891815260200190565b60405180910390a450505050565b6001600160a01b03811660009081526009602052604081206001810154600f90810b9081900b8313611fec575060019392505050565b60405163b2838a7360e01b81526001600160a01b038516600482015230602482015273__$e36f5330ef2566ea8a183e1e27b10de643$__9063b2838a739060440160206040518083038186803b15801561204557600080fd5b505af4158015612059573d6000803e3d6000fd5b505050506040513d601f19601f8201168201806040525081019061207d919061495b565b61208b575060009392505050565b61209484613dd7565b61209d9061504b565b81600f0b121592505050919050565b6040805160c081018252600080825260208201819052918101829052606081018290526080810182905260a081019190915260ff82811660009081526006602052604090819020600254915163c975707360e01b815260048101919091526201000082049092161515602483015261ffff16604482015273__$e36f5330ef2566ea8a183e1e27b10de643$__9063c9757073906064015b60c06040518083038186803b15801561215b57600080fd5b505af415801561216f573d6000803e3d6000fd5b505050506040513d601f19601f82011682018060405250810190610bde919061485f565b6040805160c081018252600080825260208201819052918101829052606081018290526080810182905260a081019190915260ff828116600090815260066020526040908190206002549151634ed14a7f60e01b815260048101919091523360248201526201000082049092161515604483015261ffff16606482015273__$e36f5330ef2566ea8a183e1e27b10de643$__90634ed14a7f90608401612143565b61223d8261333b565b60ff828116600090815260066020526040908190206002549151630f681f9360e31b81526004810191909152336024820152604481018490526201000082049092161515606483015261ffff16608482015273__$e36f5330ef2566ea8a183e1e27b10de643$__90637b40fc989060a4016110d5565b6000918252602082815260408084206001600160a01b0393909316845291905290205460ff1690565b6122f46000805160206150c8833981519152336132d7565b60025462010000900460ff161561230a57600080fd5b60025461231c9061ffff166001614e01565b6002805462ffffff191661ffff92909216919091176201000017905560005b60025460ff630100000090910481169082161015612e305760ff8181166000908152600460208181526040808420805490951684526006909152808320600254915163161dd97560e31b815292830181905261ffff909116602483015260016044830152919073__$e36f5330ef2566ea8a183e1e27b10de643$__9063b0eecba89060640160206040518083038186803b1580156123d857600080fd5b505af41580156123ec573d6000803e3d6000fd5b505050506040513d601f19601f820116820180604052508101906124109190614941565b8354610100900460ff16600090815260066020526040808220600254915163161dd97560e31b81526004810182905261ffff90921660248301526044820183905292935073__$e36f5330ef2566ea8a183e1e27b10de643$__9063b0eecba89060640160206040518083038186803b15801561248b57600080fd5b505af415801561249f573d6000803e3d6000fd5b505050506040513d601f19601f820116820180604052508101906124c39190614941565b90506001600160801b03831615612554578454600160201b90046001600160a01b03166000908152600960205260409020546125179061171b906001600160801b03600160801b90910481169086166133fe565b85546001600160a01b03600160201b90910416600090815260096020526040902080546001600160801b03928316600160801b0292169190911790555b6001600160801b038116156125da5760018501546001600160a01b03166000908152600960205260409020546125a29061171b90600160801b90046001600160801b039081169084166133fe565b60018601546001600160a01b0316600090815260096020526040902080546001600160801b03928316600160801b0292169190911790555b6002805461ffff16116125f1575050505050612e1e565b8454600254604051631bb98a3360e01b815260009273__$e36f5330ef2566ea8a183e1e27b10de643$__92631bb98a339261264e928a9260019260ff62010000840481169363010000009004169161ffff16908990600401614c19565b6101406040518083038186803b15801561266757600080fd5b505af415801561267b573d6000803e3d6000fd5b505050506040513d601f19601f8201168201806040525081019061269f919061487a565b8654600254604051631bb98a3360e01b815292935060009273__$e36f5330ef2566ea8a183e1e27b10de643$__92631bb98a3392612701928992879260ff6301000000830481169362010000909304169161ffff909116908490600401614c19565b6101406040518083038186803b15801561271a57600080fd5b505af415801561272e573d6000803e3d6000fd5b505050506040513d601f19601f82011682018060405250810190612752919061487a565b9050600060405180606001604052808481526020018381526020016000600281111561278e57634e487b7160e01b600052602160045260246000fd5b9052905080600560006127a28c6003614eb9565b60ff168152602080820192909252604090810160002083518051818501516001600160801b03908116600160801b90810292821692909217845582850151606080850151831684029183169190911760018087019190915560808086015160a08088015186168702918616919091176002808a019190915560c08089015160e0808b015189168a029189169190911760038c0155610100808b015160048d0180546101209d8e015115158d026001600160881b0319918216938d16939093179290921790558f8f015180519f8101518b168c029f8b169f909f1760058e01558e8e0151988f01518a168b02988a169890981760068d0155948d0151938d0151881689029388169390931760078b01558b0151918b015186168702918616919091176008890155908901516009880180549a9097015115159095029890921693909216929092179590951790915591840151600a8201805492949193909260ff19169190849081111561292457634e487b7160e01b600052602160045260246000fd5b0217905550508854600254604051631bb98a3360e01b81526000935073__$e36f5330ef2566ea8a183e1e27b10de643$__92631bb98a339261298b928d9260019260ff6201000083048116936301000000909304169161ffff909116908490600401614c19565b6101406040518083038186803b1580156129a457600080fd5b505af41580156129b8573d6000803e3d6000fd5b505050506040513d601f19601f820116820180604052508101906129dc919061487a565b604080516060810182528281526020810186905291925081016001905291508160056000612a0b8d6003614eb9565b612a16906001614e3f565b60ff168152602080820192909252604090810160002083518051818501516001600160801b03908116600160801b90810292821692909217845582850151606080850151831684029183169190911760018087019190915560808086015160a08088015186168702918616919091176002808a019190915560c08089015160e0808b015189168a029189169190911760038c0155610100808b015160048d0180546101209d8e015115158d026001600160881b0319918216938d16939093179290921790558f8f015180519f8101518b168c029f8b169f909f1760058e01558e8e0151988f01518a168b02988a169890981760068d0155948d0151938d0151881689029388169390931760078b01558b0151918b015186168702918616919091176008890155908901516009880180549a9097015115159095029890921693909216929092179590951790915591840151600a8201805492949193909260ff191691908490811115612b9857634e487b7160e01b600052602160045260246000fd5b0217905550508954600254604051631bb98a3360e01b81526000935073__$e36f5330ef2566ea8a183e1e27b10de643$__92631bb98a3392612bff928c92879260ff6301000000830481169362010000909304169161ffff90911690600190600401614c19565b6101406040518083038186803b158015612c1857600080fd5b505af4158015612c2c573d6000803e3d6000fd5b505050506040513d601f19601f82011682018060405250810190612c50919061487a565b604080516060810182528781526020810183905291925081016002905292508260056000612c7f8e6003614eb9565b612c8a906002614e3f565b60ff168152602080820192909252604090810160002083518051818501516001600160801b03908116600160801b90810292821692909217845582850151606080850151831684029183169190911760018087019190915560808086015160a08088015186168702918616919091176002808a019190915560c08089015160e0808b015189168a029189169190911760038c0155610100808b015160048d0180546101209d8e015115158d026001600160881b0319918216938d16939093179290921790558f8f015180519f8101518b168c029f8b169f909f1760058e01558e8e0151988f01518a168b02988a169890981760068d0155948d0151938d0151881689029388169390931760078b01558b0151918b015186168702918616919091176008890155908901516009880180549a9097015115159095029890921693909216929092179590951790915591840151600a8201805492949193909260ff191691908490811115612e0c57634e487b7160e01b600052602160045260246000fd5b02179055505050505050505050505050505b80612e288161502b565b91505061233b565b5060025461ffff1660011415612e4e576002805462ff000019169055565b6002805461ffff161415612f2e5760015b600260039054906101000a900460ff166002612e7b9190614eb9565b60ff168160ff1611612f185760ff81166000908152600660205260409081902090516366aef26360e01b815260048101919091526001602482015273__$e36f5330ef2566ea8a183e1e27b10de643$__906366aef2639060440160006040518083038186803b158015612eed57600080fd5b505af4158015612f01573d6000803e3d6000fd5b505050508080612f109061502b565b915050612e5f565b50612f21613a02565b6002805462ff0000191690555b565b600082815260208190526040902060010154612f4c81336132d7565b6114788383613c7f565b60025461ffff16612f945760405162461bcd60e51b81526020600482015260086024820152670854dd185c9d195960c21b6044820152606401611143565b612f9d8261333b565b60006004816002612faf600187614faa565b612fb99190614e78565b60ff90811682526020820192909252604001600090812080549093509091858116911614612ff45760018201546001600160a01b0316613007565b8154600160201b90046001600160a01b03165b90506001600160a01b03811661301c57600080fd5b60ff8416600090815260066020526040808220600254915163c502f99160e01b815273__$e36f5330ef2566ea8a183e1e27b10de643$__9363c502f99193613077939233928a92909161ffff90911690600190600401614be2565b60006040518083038186803b15801561308f57600080fd5b505af41580156130a3573d6000803e3d6000fd5b505060025460405186815261ffff909116925033915060ff8716906000805160206150a88339815191529060200160405180910390a461144c6001600160a01b038216333086613edb565b606060006130fd836002614e9a565b613108906002614e27565b67ffffffffffffffff81111561312e57634e487b7160e01b600052604160045260246000fd5b6040519080825280601f01601f191660200182016040528015613158576020820181803683370190505b509050600360fc1b8160008151811061318157634e487b7160e01b600052603260045260246000fd5b60200101906001600160f81b031916908160001a905350600f60fb1b816001815181106131be57634e487b7160e01b600052603260045260246000fd5b60200101906001600160f81b031916908160001a90535060006131e2846002614e9a565b6131ed906001614e27565b90505b6001811115613281576f181899199a1a9b1b9c1cb0b131b232b360811b85600f166010811061322f57634e487b7160e01b600052603260045260246000fd5b1a60f81b82828151811061325357634e487b7160e01b600052603260045260246000fd5b60200101906001600160f81b031916908160001a90535060049490941c9361327a81614ff9565b90506131f0565b5083156132d05760405162461bcd60e51b815260206004820181905260248201527f537472696e67733a20686578206c656e67746820696e73756666696369656e746044820152606401611143565b9392505050565b6132e182826122b3565b611c86576132f9816001600160a01b031660146130ee565b6133048360206130ee565b604051602001613315929190614b3a565b60408051601f198184030181529082905262461bcd60e51b825261114391600401614baf565b60ff81161580159061336e5750600260039054906101000a900460ff1660026133649190614eb9565b60ff168160ff1611155b61337757600080fd5b50565b61338482826122b3565b611c86576000828152602081815260408083206001600160a01b03851684529091529020805460ff191660011790556133ba3390565b6001600160a01b0316816001600160a01b0316837f2f8788117e7eff1d82e926ec794901d17c78024a50270940304540a733656f0d60405160405180910390a45050565b60006132d08284614e27565b60006001600160801b038211156134735760405162461bcd60e51b815260206004820152602760248201527f53616665436173743a2076616c756520646f65736e27742066697420696e20316044820152663238206269747360c81b6064820152608401611143565b5090565b8454600090613499906001600160801b0380821691600160801b900416613f35565b60018801549091506001600160801b0316158015906134b85750600082115b156135175760018601546134f49061171b906134e0908490600160901b900461ffff16613f41565b60018a01546001600160801b031690613f63565b6001880180546001600160801b0319166001600160801b03929092169190911790555b600387015460005b818110156137a057600089600301828154811061354c57634e487b7160e01b600052603260045260246000fd5b60009182526020808320909101546001600160a01b031680835260048d0190915260409091206001810154919250906001600160801b031661358f57505061378e565b60018101548a546000916135bd918a916001600160801b03600160801b918290048116929190910416613f7e565b905080156136045760038201546135e19061171b906001600160801b0316836133fe565b6003830180546001600160801b0319166001600160801b03929092169190911790555b6001820154600090613629906001600160801b0380821691600160801b900416613f35565b9050600061363889838a613f7e565b905080156137795760018d01546000908190613660908590600160901b900461ffff16613f41565b60028701549091506001600160801b031681106136985760028601546136919084906001600160801b031683613f7e565b915061369c565b8291505b73__$e36f5330ef2566ea8a183e1e27b10de643$__63c502f9918f8986866001600260009054906101000a900461ffff166136d79190614f70565b60006040518763ffffffff1660e01b81526004016136fa96959493929190614be2565b60006040518083038186803b15801561371257600080fd5b505af4158015613726573d6000803e3d6000fd5b505060025461373d92506001915061ffff16614f70565b61ffff16876001600160a01b03168e60ff166000805160206150a88339815191528660405161376e91815260200190565b60405180910390a450505b50505060010180546001600160801b03169055505b8061379881615010565b91505061351f565b505050505050505050565b82546000906137cd906001600160801b0380821691600160801b900416613f35565b600387015490915060005b818110156139f857600088600301828154811061380557634e487b7160e01b600052603260045260246000fd5b60009182526020808320909101546001600160a01b031680835260048c0190915260409091206001810154919250906001600160801b03166138485750506139e6565b60018101548854600091613876918a916001600160801b03600160801b918290048116929190910416613f7e565b905080156138c15760028201546138a19061171b90600160801b90046001600160801b0316836133fe565b6002830180546001600160801b03928316600160801b0292169190911790555b60018201546000906138f29089906138ec906001600160801b0380821691600160801b900416613f35565b89613f7e565b905080156139d25760025473__$e36f5330ef2566ea8a183e1e27b10de643$__9063c502f991908e90879085906000906139329060019061ffff16614f70565b60006040518763ffffffff1660e01b815260040161395596959493929190614be2565b60006040518083038186803b15801561396d57600080fd5b505af4158015613981573d6000803e3d6000fd5b505060025461399892506001915061ffff16614f70565b61ffff16846001600160a01b03168c60ff166000805160206150a8833981519152846040516139c991815260200190565b60405180910390a45b505060010180546001600160801b03169055505b806139f081615010565b9150506137d8565b5050505050505050565b60005b60075460ff90811690821610156133775760ff81166000908152600860209081526040808320546001600160a01b031680845260099092528220600280549293919261ffff1614613a885781546001600160801b0380821691600160801b900416613a6f85613dd7565b613a799190614ee2565b613a839190614db3565b613a8b565b60005b6001830154613a9d9190600f0b614db3565b6002830180546001600160801b0316905560405163b2838a7360e01b81526001600160a01b0385166004820152306024820152909150613b469073__$e36f5330ef2566ea8a183e1e27b10de643$__9063b2838a739060440160206040518083038186803b158015613b0e57600080fd5b505af4158015613b22573d6000803e3d6000fd5b505050506040513d601f19601f8201168201806040525081019061171b919061495b565b6001830180546001600160801b03928316600160801b029216919091179055613b7161171b84613fc6565b600283810180546001600160801b03199081166001600160801b0394851617909155604080516080810182528654600160801b808204871683529086166020808401918252600f89810b8587019081526001600160a01b038d811660608801818152600091825260039095529790972086519451948b16948b16860294909417845551600184018054909816910b89161790955593519390940180546001600160a01b031916939092169290921790558454909281811692613c3592041684614db3565b613c3f9190614ee2565b600184018054600f9290920b6001600160801b03166001600160801b03199092169190911790555050600090555080613c778161502b565b915050613a05565b613c8982826122b3565b15611c86576000828152602081815260408083206001600160a01b0385168085529252808320805460ff1916905551339285917ff6391f5c32d9c69d2a47ea670b442974b53935d1edc7fd64eb21e047a839171b9190a45050565b60026001541415613d375760405162461bcd60e51b815260206004820152601f60248201527f5265656e7472616e637947756172643a207265656e7472616e742063616c6c006044820152606401611143565b600260015580613d5357613d4a82611fb6565b613d5357600080fd5b604051631a4ca37b60e21b81526001600160a01b038086166004830152602482018590528316604482015273__$e36f5330ef2566ea8a183e1e27b10de643$__906369328dec9060640160006040518083038186803b158015613db557600080fd5b505af4158015613dc9573d6000803e3d6000fd5b505060018055505050505050565b6001600160a01b0381166000908152600960205260408120613e16613dfb84613fc6565b6001830154600160801b90046001600160801b0316906133fe565b600282015460405163b2838a7360e01b81526001600160a01b0386166004820152306024820152613ed1916001600160801b0380821692613ecb92600160801b90049091169073__$e36f5330ef2566ea8a183e1e27b10de643$__9063b2838a739060440160206040518083038186803b158015613e9357600080fd5b505af4158015613ea7573d6000803e3d6000fd5b505050506040513d601f19601f82011682018060405250810190613ecb919061495b565b906133fe565b6132d09190614f31565b604080516001600160a01b0385811660248301528416604482015260648082018490528251808303909101815260849091019091526020810180516001600160e01b03166323b872dd60e01b17905261144c90859061414f565b60006132d08284614f93565b60006132d0612710613f5d613f568583614e27565b8690614221565b9061422d565b600081831015613f745760006132d0565b6132d08284614f93565b6000821580613f8b575081155b80613f94575083155b15613fa1575060006132d0565b81831015613fbc57613fb782613f5d8686614221565b613fbe565b835b949350505050565b600080805b60025460ff6301000000909104811690821610156141485760ff8116600090815260046020526040902080546001600160a01b03868116600160201b909204161480614026575060018101546001600160a01b038681169116145b1561413557805460ff81166000908152600660205260409020906140ab906001600160a01b03888116600160201b9092041614614074578154600160801b90046001600160801b03166140a4565b81546002805461ffff16600090815290840160205260409020546140a4916001600160801b0391821691166133fe565b85906133fe565b8254610100900460ff166000908152600660205260409020600184015491955090614130906001600160a01b038981169116146140f9578154600160801b90046001600160801b0316614129565b81546002805461ffff1660009081529084016020526040902054614129916001600160801b0391821691166133fe565b86906133fe565b945050505b50806141408161502b565b915050613fcb565b5092915050565b60006141a4826040518060400160405280602081526020017f5361666545524332303a206c6f772d6c6576656c2063616c6c206661696c6564815250856001600160a01b03166142399092919063ffffffff16565b80519091501561147857808060200190518101906141c29190614745565b6114785760405162461bcd60e51b815260206004820152602a60248201527f5361666545524332303a204552433230206f7065726174696f6e20646964206e6044820152691bdd081cdd58d8d9595960b21b6064820152608401611143565b60006132d08284614e9a565b60006132d08284614e64565b6060613fbe848460008585843b6142925760405162461bcd60e51b815260206004820152601d60248201527f416464726573733a2063616c6c20746f206e6f6e2d636f6e74726163740000006044820152606401611143565b600080866001600160a01b031685876040516142ae9190614b1e565b60006040518083038185875af1925050503d80600081146142eb576040519150601f19603f3d011682016040523d82523d6000602084013e6142f0565b606091505b509150915061430082828661430b565b979650505050505050565b6060831561431a5750816132d0565b82511561432a5782518084602001fd5b8160405162461bcd60e51b81526004016111439190614baf565b80356001600160a01b038116811461435b57600080fd5b919050565b8051801515811461435b57600080fd5b600060c08284031215614381578081fd5b614389614ced565b9050614394826143f1565b81526143a2602083016143f1565b60208201526143b3604083016143f1565b60408201526143c4606083016143f1565b60608201526143d5608083016143f1565b60808201526143e660a083016143f1565b60a082015292915050565b80516001600160801b038116811461435b57600080fd5b803560ff8116811461435b57600080fd5b60006020828403121561442a578081fd5b6132d082614344565b60008060408385031215614445578081fd5b61444e83614344565b915061445c60208401614344565b90509250929050565b60008060408385031215614477578182fd5b61448083614344565b915060208084013567ffffffffffffffff81111561449c578283fd5b8401601f810186136144ac578283fd5b80356144bf6144ba82614d8f565b614d5e565b80828252848201915084840189868560051b87010111156144de578687fd5b8694505b83851015614507576144f381614344565b8352600194909401939185019185016144e2565b5080955050505050509250929050565b60006020808385031215614529578182fd5b823567ffffffffffffffff81111561453f578283fd5b8301601f8101851361454f578283fd5b803561455d6144ba82614d8f565b80828252848201915084840188868560051b870101111561457c578687fd5b8694505b838510156145aa57803560038110614596578788fd5b835260019490940193918501918501614580565b50979650505050505050565b600060208083850312156145c8578182fd5b823567ffffffffffffffff8111156145de578283fd5b8301601f810185136145ee578283fd5b80356145fc6144ba82614d8f565b8181528381019083850160c0808502860187018a101561461a578788fd5b8795505b848610156146b05780828b031215614634578788fd5b61463c614ced565b61464583614408565b8152614652888401614408565b888201526040614663818501614408565b908201526060614674848201614408565b908201526080614685848201614344565b9082015260a0614696848201614344565b90820152845260019590950194928601929081019061461e565b509098975050505050505050565b600060208083850312156146d0578182fd5b823567ffffffffffffffff8111156146e6578283fd5b8301601f810185136146f6578283fd5b80356147046144ba82614d8f565b80828252848201915084840188868560051b8701011115614723578687fd5b8694505b838510156145aa578035835260019490940193918501918501614727565b600060208284031215614756578081fd5b6132d082614360565b600060208284031215614770578081fd5b5035919050565b60008060408385031215614789578182fd5b8235915061445c60208401614344565b6000602082840312156147aa578081fd5b81356001600160e01b0319811681146132d0578182fd5b600061018082840312156147d3578081fd5b6147db614d16565b825181526020830151602082015260408301516040820152606083015160608201526080830151608082015260a083015160a082015260c083015160c082015260e083015160e08201526101008084015181830152506101208084015181830152506101408084015181830152506101608084015181830152508091505092915050565b600060c08284031215614870578081fd5b6132d08383614370565b6000610140828403121561488c578081fd5b614894614d3a565b61489d836143f1565b81526148ab602084016143f1565b60208201526148bc604084016143f1565b60408201526148cd606084016143f1565b60608201526148de608084016143f1565b60808201526148ef60a084016143f1565b60a082015261490060c084016143f1565b60c082015261491160e084016143f1565b60e08201526101006149248185016143f1565b90820152610120614936848201614360565b908201529392505050565b600060208284031215614952578081fd5b6132d0826143f1565b60006020828403121561496c578081fd5b5051919050565b600060208284031215614984578081fd5b6132d082614408565b6000806040838503121561499f578182fd5b6149a883614408565b9150602083013561ffff811681146149be578182fd5b809150509250929050565b600080604083850312156149db578182fd5b6149e483614408565b946020939093013593505050565b600080600060608486031215614a06578081fd5b614a0f84614408565b925060208401359150614a2460408501614344565b90509250925092565b80516001600160801b031682526020810151614a5460208401826001600160801b03169052565b506040810151614a6f60408401826001600160801b03169052565b506060810151614a8a60608401826001600160801b03169052565b506080810151614aa560808401826001600160801b03169052565b5060a0810151614ac060a08401826001600160801b03169052565b5060c0810151614adb60c08401826001600160801b03169052565b5060e0810151614af660e08401826001600160801b03169052565b50610100818101516001600160801b031690830152610120808201518015158285015261144c565b60008251614b30818460208701614fcd565b9190910192915050565b7f416363657373436f6e74726f6c3a206163636f756e7420000000000000000000815260008351614b72816017850160208801614fcd565b7001034b99036b4b9b9b4b733903937b6329607d1b6017918401918201528351614ba3816028840160208801614fcd565b01602801949350505050565b6020815260008251806020840152614bce816040850160208701614fcd565b601f01601f19169190910160400192915050565b9586526001600160a01b039490941660208601526040850192909252606084015261ffff166080830152151560a082015260c00190565b958652931515602086015260ff92831660408601529116606084015261ffff166080830152151560a082015260c00190565b60c08101610bde82846001600160801b038082511683528060208301511660208401528060408301511660408401528060608301511660608401528060808301511660808401528060a08301511660a0840152505050565b6102a08101614cb28286614a2d565b614cc0610140830185614a2d565b60038310614cde57634e487b7160e01b600052602160045260246000fd5b82610280830152949350505050565b60405160c0810167ffffffffffffffff81118282101715614d1057614d10615091565b60405290565b604051610180810167ffffffffffffffff81118282101715614d1057614d10615091565b604051610140810167ffffffffffffffff81118282101715614d1057614d10615091565b604051601f8201601f1916810167ffffffffffffffff81118282101715614d8757614d87615091565b604052919050565b600067ffffffffffffffff821115614da957614da9615091565b5060051b60200190565b600081600f0b83600f0b8282128260016001607f1b0303821381151615614ddc57614ddc615065565b8260016001607f1b0319038212811615614df857614df8615065565b50019392505050565b600061ffff808316818516808303821115614e1e57614e1e615065565b01949350505050565b60008219821115614e3a57614e3a615065565b500190565b600060ff821660ff84168060ff03821115614e5c57614e5c615065565b019392505050565b600082614e7357614e7361507b565b500490565b600060ff831680614e8b57614e8b61507b565b8060ff84160491505092915050565b6000816000190483118215151615614eb457614eb4615065565b500290565b600060ff821660ff84168160ff0481118215151615614eda57614eda615065565b029392505050565b600081600f0b83600f0b8281128160016001607f1b031901831281151615614f0c57614f0c615065565b8160016001607f1b03018313811615614f2757614f27615065565b5090039392505050565b60008083128015600160ff1b850184121615614f4f57614f4f615065565b6001600160ff1b0384018313811615614f6a57614f6a615065565b50500390565b600061ffff83811690831681811015614f8b57614f8b615065565b039392505050565b600082821015614fa557614fa5615065565b500390565b600060ff821660ff841680821015614fc457614fc4615065565b90039392505050565b60005b83811015614fe8578181015183820152602001614fd0565b8381111561144c5750506000910152565b60008161500857615008615065565b506000190190565b600060001982141561502457615024615065565b5060010190565b600060ff821660ff81141561504257615042615065565b60010192915050565b6000600160ff1b82141561506157615061615065565b0390565b634e487b7160e01b600052601160045260246000fd5b634e487b7160e01b600052601260045260246000fd5b634e487b7160e01b600052604160045260246000fdfee963a73e630cb9812a026653bfb6b1e14ffa92f8c38b79f318f2637557ea9f126666bf5bfee463d10a7fc50448047f8a53b7762d7e28fbc5c643182785f3fd3fa26469706673582212205824fc181f46a7e6e155f5c805e0ea43ddeef12bebff0774cb49161791014c4864736f6c63430008040033",
  "libraries": {
    "OptionLifecycle": "0x28D1E0e4460FB7e65DE364e613b3C29C0C0A0933"
  },
  "devdoc": {
    "kind": "dev",
    "methods": {
      "getRoleAdmin(bytes32)": {
        "details": "Returns the admin role that controls `role`. See {grantRole} and {revokeRole}. To change a role's admin, use {_setRoleAdmin}."
      },
      "grantRole(bytes32,address)": {
        "details": "Grants `role` to `account`. If `account` had not been already granted `role`, emits a {RoleGranted} event. Requirements: - the caller must have ``role``'s admin role."
      },
      "hasRole(bytes32,address)": {
        "details": "Returns `true` if `account` has been granted `role`."
      },
      "renounceRole(bytes32,address)": {
        "details": "Revokes `role` from the calling account. Roles are often managed via {grantRole} and {revokeRole}: this function's purpose is to provide a mechanism for accounts to lose their privileges if they are compromised (such as when a trusted device is misplaced). If the calling account had been granted `role`, emits a {RoleRevoked} event. Requirements: - the caller must be `account`."
      },
      "revokeRole(bytes32,address)": {
        "details": "Revokes `role` from `account`. If `account` had been granted `role`, emits a {RoleRevoked} event. Requirements: - the caller must have ``role``'s admin role."
      },
      "supportsInterface(bytes4)": {
        "details": "See {IERC165-supportsInterface}."
      }
    },
    "version": 1
  },
  "userdoc": {
    "kind": "user",
    "methods": {},
    "version": 1
  },
  "storageLayout": {
    "storage": [
      {
        "astId": 908,
        "contract": "contracts/PKKTHodlBoosterOption.sol:PKKTHodlBoosterOption",
        "label": "_roles",
        "offset": 0,
        "slot": "0",
        "type": "t_mapping(t_bytes32,t_struct(RoleData)903_storage)"
      },
      {
        "astId": 1378,
        "contract": "contracts/PKKTHodlBoosterOption.sol:PKKTHodlBoosterOption",
        "label": "_status",
        "offset": 0,
        "slot": "1",
        "type": "t_uint256"
      },
      {
        "astId": 3585,
        "contract": "contracts/PKKTHodlBoosterOption.sol:PKKTHodlBoosterOption",
        "label": "currentRound",
        "offset": 0,
        "slot": "2",
        "type": "t_uint16"
      },
      {
        "astId": 3587,
        "contract": "contracts/PKKTHodlBoosterOption.sol:PKKTHodlBoosterOption",
        "label": "underSettlement",
        "offset": 2,
        "slot": "2",
        "type": "t_bool"
      },
      {
        "astId": 3589,
        "contract": "contracts/PKKTHodlBoosterOption.sol:PKKTHodlBoosterOption",
        "label": "optionPairCount",
        "offset": 3,
        "slot": "2",
        "type": "t_uint8"
      },
      {
        "astId": 3594,
        "contract": "contracts/PKKTHodlBoosterOption.sol:PKKTHodlBoosterOption",
        "label": "settlementCashflowResult",
        "offset": 0,
        "slot": "3",
        "type": "t_mapping(t_address,t_struct(SettlementCashflowResult)12966_storage)"
      },
      {
        "astId": 3599,
        "contract": "contracts/PKKTHodlBoosterOption.sol:PKKTHodlBoosterOption",
        "label": "optionPairs",
        "offset": 0,
        "slot": "4",
        "type": "t_mapping(t_uint8,t_struct(OptionPairDefinition)12922_storage)"
      },
      {
        "astId": 3604,
        "contract": "contracts/PKKTHodlBoosterOption.sol:PKKTHodlBoosterOption",
        "label": "executionAccountingResult",
        "offset": 0,
        "slot": "5",
        "type": "t_mapping(t_uint8,t_struct(OptionPairExecutionAccountingResult)12957_storage)"
      },
      {
        "astId": 3609,
        "contract": "contracts/PKKTHodlBoosterOption.sol:PKKTHodlBoosterOption",
        "label": "optionData",
        "offset": 0,
        "slot": "6",
        "type": "t_mapping(t_uint8,t_struct(OptionData)12866_storage)"
      },
      {
        "astId": 3611,
        "contract": "contracts/PKKTHodlBoosterOption.sol:PKKTHodlBoosterOption",
        "label": "assetCount",
        "offset": 0,
        "slot": "7",
        "type": "t_uint8"
      },
      {
        "astId": 3615,
        "contract": "contracts/PKKTHodlBoosterOption.sol:PKKTHodlBoosterOption",
        "label": "asset",
        "offset": 0,
        "slot": "8",
        "type": "t_mapping(t_uint8,t_address)"
      },
      {
        "astId": 3620,
        "contract": "contracts/PKKTHodlBoosterOption.sol:PKKTHodlBoosterOption",
        "label": "assetData",
        "offset": 0,
        "slot": "9",
        "type": "t_mapping(t_address,t_struct(AssetData)12846_storage)"
      }
    ],
    "types": {
      "t_address": {
        "encoding": "inplace",
        "label": "address",
        "numberOfBytes": "20"
      },
      "t_array(t_address)dyn_storage": {
        "base": "t_address",
        "encoding": "dynamic_array",
        "label": "address[]",
        "numberOfBytes": "32"
      },
      "t_bool": {
        "encoding": "inplace",
        "label": "bool",
        "numberOfBytes": "1"
      },
      "t_bytes32": {
        "encoding": "inplace",
        "label": "bytes32",
        "numberOfBytes": "32"
      },
      "t_enum(OptionExecution)12947": {
        "encoding": "inplace",
        "label": "enum StructureData.OptionExecution",
        "numberOfBytes": "1"
      },
      "t_int128": {
        "encoding": "inplace",
        "label": "int128",
        "numberOfBytes": "16"
      },
      "t_mapping(t_address,t_bool)": {
        "encoding": "mapping",
        "key": "t_address",
        "label": "mapping(address => bool)",
        "numberOfBytes": "32",
        "value": "t_bool"
      },
      "t_mapping(t_address,t_struct(AssetData)12846_storage)": {
        "encoding": "mapping",
        "key": "t_address",
        "label": "mapping(address => struct StructureData.AssetData)",
        "numberOfBytes": "32",
        "value": "t_struct(AssetData)12846_storage"
      },
      "t_mapping(t_address,t_struct(SettlementCashflowResult)12966_storage)": {
        "encoding": "mapping",
        "key": "t_address",
        "label": "mapping(address => struct StructureData.SettlementCashflowResult)",
        "numberOfBytes": "32",
        "value": "t_struct(SettlementCashflowResult)12966_storage"
      },
      "t_mapping(t_address,t_struct(UserState)12883_storage)": {
        "encoding": "mapping",
        "key": "t_address",
        "label": "mapping(address => struct StructureData.UserState)",
        "numberOfBytes": "32",
        "value": "t_struct(UserState)12883_storage"
      },
      "t_mapping(t_bytes32,t_struct(RoleData)903_storage)": {
        "encoding": "mapping",
        "key": "t_bytes32",
        "label": "mapping(bytes32 => struct AccessControl.RoleData)",
        "numberOfBytes": "32",
        "value": "t_struct(RoleData)903_storage"
      },
      "t_mapping(t_uint16,t_struct(OptionState)12808_storage)": {
        "encoding": "mapping",
        "key": "t_uint16",
        "label": "mapping(uint16 => struct StructureData.OptionState)",
        "numberOfBytes": "32",
        "value": "t_struct(OptionState)12808_storage"
      },
      "t_mapping(t_uint8,t_address)": {
        "encoding": "mapping",
        "key": "t_uint8",
        "label": "mapping(uint8 => address)",
        "numberOfBytes": "32",
        "value": "t_address"
      },
      "t_mapping(t_uint8,t_struct(OptionData)12866_storage)": {
        "encoding": "mapping",
        "key": "t_uint8",
        "label": "mapping(uint8 => struct StructureData.OptionData)",
        "numberOfBytes": "32",
        "value": "t_struct(OptionData)12866_storage"
      },
      "t_mapping(t_uint8,t_struct(OptionPairDefinition)12922_storage)": {
        "encoding": "mapping",
        "key": "t_uint8",
        "label": "mapping(uint8 => struct StructureData.OptionPairDefinition)",
        "numberOfBytes": "32",
        "value": "t_struct(OptionPairDefinition)12922_storage"
      },
      "t_mapping(t_uint8,t_struct(OptionPairExecutionAccountingResult)12957_storage)": {
        "encoding": "mapping",
        "key": "t_uint8",
        "label": "mapping(uint8 => struct StructureData.OptionPairExecutionAccountingResult)",
        "numberOfBytes": "32",
        "value": "t_struct(OptionPairExecutionAccountingResult)12957_storage"
      },
      "t_struct(AssetData)12846_storage": {
        "encoding": "inplace",
        "label": "struct StructureData.AssetData",
        "members": [
          {
            "astId": 12835,
            "contract": "contracts/PKKTHodlBoosterOption.sol:PKKTHodlBoosterOption",
            "label": "releasedAmount",
            "offset": 0,
            "slot": "0",
            "type": "t_uint128"
          },
          {
            "astId": 12837,
            "contract": "contracts/PKKTHodlBoosterOption.sol:PKKTHodlBoosterOption",
            "label": "depositAmount",
            "offset": 16,
            "slot": "0",
            "type": "t_uint128"
          },
          {
            "astId": 12839,
            "contract": "contracts/PKKTHodlBoosterOption.sol:PKKTHodlBoosterOption",
            "label": "leftOverAmount",
            "offset": 0,
            "slot": "1",
            "type": "t_int128"
          },
          {
            "astId": 12841,
            "contract": "contracts/PKKTHodlBoosterOption.sol:PKKTHodlBoosterOption",
            "label": "balanceAfterSettle",
            "offset": 16,
            "slot": "1",
            "type": "t_uint128"
          },
          {
            "astId": 12843,
            "contract": "contracts/PKKTHodlBoosterOption.sol:PKKTHodlBoosterOption",
            "label": "withdrawableAfterSettle",
            "offset": 0,
            "slot": "2",
            "type": "t_uint128"
          },
          {
            "astId": 12845,
            "contract": "contracts/PKKTHodlBoosterOption.sol:PKKTHodlBoosterOption",
            "label": "traderWithdrawn",
            "offset": 16,
            "slot": "2",
            "type": "t_uint128"
          }
        ],
        "numberOfBytes": "96"
      },
      "t_struct(OptionData)12866_storage": {
        "encoding": "inplace",
        "label": "struct StructureData.OptionData",
        "members": [
          {
            "astId": 12848,
            "contract": "contracts/PKKTHodlBoosterOption.sol:PKKTHodlBoosterOption",
            "label": "totalReleasedDepositAssetAmount",
            "offset": 0,
            "slot": "0",
            "type": "t_uint128"
          },
          {
            "astId": 12850,
            "contract": "contracts/PKKTHodlBoosterOption.sol:PKKTHodlBoosterOption",
            "label": "totalReleasedCounterPartyAssetAmount",
            "offset": 16,
            "slot": "0",
            "type": "t_uint128"
          },
          {
            "astId": 12852,
            "contract": "contracts/PKKTHodlBoosterOption.sol:PKKTHodlBoosterOption",
            "label": "assetToTerminateForNextRound",
            "offset": 0,
            "slot": "1",
            "type": "t_uint128"
          },
          {
            "astId": 12857,
            "contract": "contracts/PKKTHodlBoosterOption.sol:PKKTHodlBoosterOption",
            "label": "optionStates",
            "offset": 0,
            "slot": "2",
            "type": "t_mapping(t_uint16,t_struct(OptionState)12808_storage)"
          },
          {
            "astId": 12860,
            "contract": "contracts/PKKTHodlBoosterOption.sol:PKKTHodlBoosterOption",
            "label": "usersInvolved",
            "offset": 0,
            "slot": "3",
            "type": "t_array(t_address)dyn_storage"
          },
          {
            "astId": 12865,
            "contract": "contracts/PKKTHodlBoosterOption.sol:PKKTHodlBoosterOption",
            "label": "userStates",
            "offset": 0,
            "slot": "4",
            "type": "t_mapping(t_address,t_struct(UserState)12883_storage)"
          }
        ],
        "numberOfBytes": "160"
      },
      "t_struct(OptionPairDefinition)12922_storage": {
        "encoding": "inplace",
        "label": "struct StructureData.OptionPairDefinition",
        "members": [
          {
            "astId": 12911,
            "contract": "contracts/PKKTHodlBoosterOption.sol:PKKTHodlBoosterOption",
            "label": "callOptionId",
            "offset": 0,
            "slot": "0",
            "type": "t_uint8"
          },
          {
            "astId": 12913,
            "contract": "contracts/PKKTHodlBoosterOption.sol:PKKTHodlBoosterOption",
            "label": "putOptionId",
            "offset": 1,
            "slot": "0",
            "type": "t_uint8"
          },
          {
            "astId": 12915,
            "contract": "contracts/PKKTHodlBoosterOption.sol:PKKTHodlBoosterOption",
            "label": "depositAssetAmountDecimals",
            "offset": 2,
            "slot": "0",
            "type": "t_uint8"
          },
          {
            "astId": 12917,
            "contract": "contracts/PKKTHodlBoosterOption.sol:PKKTHodlBoosterOption",
            "label": "counterPartyAssetAmountDecimals",
            "offset": 3,
            "slot": "0",
            "type": "t_uint8"
          },
          {
            "astId": 12919,
            "contract": "contracts/PKKTHodlBoosterOption.sol:PKKTHodlBoosterOption",
            "label": "depositAsset",
            "offset": 4,
            "slot": "0",
            "type": "t_address"
          },
          {
            "astId": 12921,
            "contract": "contracts/PKKTHodlBoosterOption.sol:PKKTHodlBoosterOption",
            "label": "counterPartyAsset",
            "offset": 0,
            "slot": "1",
            "type": "t_address"
          }
        ],
        "numberOfBytes": "64"
      },
      "t_struct(OptionPairExecutionAccountingResult)12957_storage": {
        "encoding": "inplace",
        "label": "struct StructureData.OptionPairExecutionAccountingResult",
        "members": [
          {
            "astId": 12950,
            "contract": "contracts/PKKTHodlBoosterOption.sol:PKKTHodlBoosterOption",
            "label": "callOptionResult",
            "offset": 0,
            "slot": "0",
            "type": "t_struct(SettlementAccountingResult)12943_storage"
          },
          {
            "astId": 12953,
            "contract": "contracts/PKKTHodlBoosterOption.sol:PKKTHodlBoosterOption",
            "label": "putOptionResult",
            "offset": 0,
            "slot": "5",
            "type": "t_struct(SettlementAccountingResult)12943_storage"
          },
          {
            "astId": 12956,
            "contract": "contracts/PKKTHodlBoosterOption.sol:PKKTHodlBoosterOption",
            "label": "execute",
            "offset": 0,
            "slot": "10",
            "type": "t_enum(OptionExecution)12947"
          }
        ],
        "numberOfBytes": "352"
      },
      "t_struct(OptionState)12808_storage": {
        "encoding": "inplace",
        "label": "struct StructureData.OptionState",
        "members": [
          {
            "astId": 12795,
            "contract": "contracts/PKKTHodlBoosterOption.sol:PKKTHodlBoosterOption",
            "label": "totalAmount",
            "offset": 0,
            "slot": "0",
            "type": "t_uint128"
          },
          {
            "astId": 12797,
            "contract": "contracts/PKKTHodlBoosterOption.sol:PKKTHodlBoosterOption",
            "label": "totalTerminate",
            "offset": 16,
            "slot": "0",
            "type": "t_uint128"
          },
          {
            "astId": 12799,
            "contract": "contracts/PKKTHodlBoosterOption.sol:PKKTHodlBoosterOption",
            "label": "strikePrice",
            "offset": 0,
            "slot": "1",
            "type": "t_uint128"
          },
          {
            "astId": 12801,
            "contract": "contracts/PKKTHodlBoosterOption.sol:PKKTHodlBoosterOption",
            "label": "round",
            "offset": 16,
            "slot": "1",
            "type": "t_uint16"
          },
          {
            "astId": 12803,
            "contract": "contracts/PKKTHodlBoosterOption.sol:PKKTHodlBoosterOption",
            "label": "premiumRate",
            "offset": 18,
            "slot": "1",
            "type": "t_uint16"
          },
          {
            "astId": 12805,
            "contract": "contracts/PKKTHodlBoosterOption.sol:PKKTHodlBoosterOption",
            "label": "executed",
            "offset": 20,
            "slot": "1",
            "type": "t_bool"
          },
          {
            "astId": 12807,
            "contract": "contracts/PKKTHodlBoosterOption.sol:PKKTHodlBoosterOption",
            "label": "callOrPut",
            "offset": 21,
            "slot": "1",
            "type": "t_bool"
          }
        ],
        "numberOfBytes": "64"
      },
      "t_struct(RoleData)903_storage": {
        "encoding": "inplace",
        "label": "struct AccessControl.RoleData",
        "members": [
          {
            "astId": 900,
            "contract": "contracts/PKKTHodlBoosterOption.sol:PKKTHodlBoosterOption",
            "label": "members",
            "offset": 0,
            "slot": "0",
            "type": "t_mapping(t_address,t_bool)"
          },
          {
            "astId": 902,
            "contract": "contracts/PKKTHodlBoosterOption.sol:PKKTHodlBoosterOption",
            "label": "adminRole",
            "offset": 0,
            "slot": "1",
            "type": "t_bytes32"
          }
        ],
        "numberOfBytes": "64"
      },
      "t_struct(SettlementAccountingResult)12943_storage": {
        "encoding": "inplace",
        "label": "struct StructureData.SettlementAccountingResult",
        "members": [
          {
            "astId": 12924,
            "contract": "contracts/PKKTHodlBoosterOption.sol:PKKTHodlBoosterOption",
            "label": "depositAmount",
            "offset": 0,
            "slot": "0",
            "type": "t_uint128"
          },
          {
            "astId": 12926,
            "contract": "contracts/PKKTHodlBoosterOption.sol:PKKTHodlBoosterOption",
            "label": "autoRollAmount",
            "offset": 16,
            "slot": "0",
            "type": "t_uint128"
          },
          {
            "astId": 12928,
            "contract": "contracts/PKKTHodlBoosterOption.sol:PKKTHodlBoosterOption",
            "label": "autoRollPremium",
            "offset": 0,
            "slot": "1",
            "type": "t_uint128"
          },
          {
            "astId": 12930,
            "contract": "contracts/PKKTHodlBoosterOption.sol:PKKTHodlBoosterOption",
            "label": "releasedAmount",
            "offset": 16,
            "slot": "1",
            "type": "t_uint128"
          },
          {
            "astId": 12932,
            "contract": "contracts/PKKTHodlBoosterOption.sol:PKKTHodlBoosterOption",
            "label": "releasedPremium",
            "offset": 0,
            "slot": "2",
            "type": "t_uint128"
          },
          {
            "astId": 12934,
            "contract": "contracts/PKKTHodlBoosterOption.sol:PKKTHodlBoosterOption",
            "label": "autoRollCounterPartyAmount",
            "offset": 16,
            "slot": "2",
            "type": "t_uint128"
          },
          {
            "astId": 12936,
            "contract": "contracts/PKKTHodlBoosterOption.sol:PKKTHodlBoosterOption",
            "label": "autoRollCounterPartyPremium",
            "offset": 0,
            "slot": "3",
            "type": "t_uint128"
          },
          {
            "astId": 12938,
            "contract": "contracts/PKKTHodlBoosterOption.sol:PKKTHodlBoosterOption",
            "label": "releasedCounterPartyAmount",
            "offset": 16,
            "slot": "3",
            "type": "t_uint128"
          },
          {
            "astId": 12940,
            "contract": "contracts/PKKTHodlBoosterOption.sol:PKKTHodlBoosterOption",
            "label": "releasedCounterPartyPremium",
            "offset": 0,
            "slot": "4",
            "type": "t_uint128"
          },
          {
            "astId": 12942,
            "contract": "contracts/PKKTHodlBoosterOption.sol:PKKTHodlBoosterOption",
            "label": "executed",
            "offset": 16,
            "slot": "4",
            "type": "t_bool"
          }
        ],
        "numberOfBytes": "160"
      },
      "t_struct(SettlementCashflowResult)12966_storage": {
        "encoding": "inplace",
        "label": "struct StructureData.SettlementCashflowResult",
        "members": [
          {
            "astId": 12959,
            "contract": "contracts/PKKTHodlBoosterOption.sol:PKKTHodlBoosterOption",
            "label": "newDepositAmount",
            "offset": 0,
            "slot": "0",
            "type": "t_uint128"
          },
          {
            "astId": 12961,
            "contract": "contracts/PKKTHodlBoosterOption.sol:PKKTHodlBoosterOption",
            "label": "newReleasedAmount",
            "offset": 16,
            "slot": "0",
            "type": "t_uint128"
          },
          {
            "astId": 12963,
            "contract": "contracts/PKKTHodlBoosterOption.sol:PKKTHodlBoosterOption",
            "label": "leftOverAmount",
            "offset": 0,
            "slot": "1",
            "type": "t_int128"
          },
          {
            "astId": 12965,
            "contract": "contracts/PKKTHodlBoosterOption.sol:PKKTHodlBoosterOption",
            "label": "contractAddress",
            "offset": 0,
            "slot": "2",
            "type": "t_address"
          }
        ],
        "numberOfBytes": "96"
      },
      "t_struct(UserState)12883_storage": {
        "encoding": "inplace",
        "label": "struct StructureData.UserState",
        "members": [
          {
            "astId": 12868,
            "contract": "contracts/PKKTHodlBoosterOption.sol:PKKTHodlBoosterOption",
            "label": "pendingAsset",
            "offset": 0,
            "slot": "0",
            "type": "t_uint128"
          },
          {
            "astId": 12870,
            "contract": "contracts/PKKTHodlBoosterOption.sol:PKKTHodlBoosterOption",
            "label": "tempLocked",
            "offset": 16,
            "slot": "0",
            "type": "t_uint128"
          },
          {
            "astId": 12872,
            "contract": "contracts/PKKTHodlBoosterOption.sol:PKKTHodlBoosterOption",
            "label": "ongoingAsset",
            "offset": 0,
            "slot": "1",
            "type": "t_uint128"
          },
          {
            "astId": 12874,
            "contract": "contracts/PKKTHodlBoosterOption.sol:PKKTHodlBoosterOption",
            "label": "assetToTerminate",
            "offset": 16,
            "slot": "1",
            "type": "t_uint128"
          },
          {
            "astId": 12876,
            "contract": "contracts/PKKTHodlBoosterOption.sol:PKKTHodlBoosterOption",
            "label": "assetToTerminateForNextRound",
            "offset": 0,
            "slot": "2",
            "type": "t_uint128"
          },
          {
            "astId": 12878,
            "contract": "contracts/PKKTHodlBoosterOption.sol:PKKTHodlBoosterOption",
            "label": "releasedDepositAssetAmount",
            "offset": 16,
            "slot": "2",
            "type": "t_uint128"
          },
          {
            "astId": 12880,
            "contract": "contracts/PKKTHodlBoosterOption.sol:PKKTHodlBoosterOption",
            "label": "releasedCounterPartyAssetAmount",
            "offset": 0,
            "slot": "3",
            "type": "t_uint128"
          },
          {
            "astId": 12882,
            "contract": "contracts/PKKTHodlBoosterOption.sol:PKKTHodlBoosterOption",
            "label": "hasState",
            "offset": 16,
            "slot": "3",
            "type": "t_bool"
          }
        ],
        "numberOfBytes": "128"
      },
      "t_uint128": {
        "encoding": "inplace",
        "label": "uint128",
        "numberOfBytes": "16"
      },
      "t_uint16": {
        "encoding": "inplace",
        "label": "uint16",
        "numberOfBytes": "2"
      },
      "t_uint256": {
        "encoding": "inplace",
        "label": "uint256",
        "numberOfBytes": "32"
      },
      "t_uint8": {
        "encoding": "inplace",
        "label": "uint8",
        "numberOfBytes": "1"
      }
    }
  }
}