{
  "address": "0x416dfA8D1A02b8Da0E48713Cd1Afa05049718813",
  "abi": [
    {
      "anonymous": false,
      "inputs": [
        {
          "indexed": true,
          "internalType": "address",
          "name": "account",
          "type": "address"
        },
        {
          "indexed": true,
          "internalType": "uint256",
          "name": "vid",
          "type": "uint256"
        },
        {
          "indexed": false,
          "internalType": "uint256",
          "name": "amount",
          "type": "uint256"
        }
      ],
      "name": "CancelWithdraw",
      "type": "event"
    },
    {
      "anonymous": false,
      "inputs": [
        {
          "indexed": true,
          "internalType": "address",
          "name": "account",
          "type": "address"
        },
        {
          "indexed": true,
          "internalType": "uint256",
          "name": "vid",
          "type": "uint256"
        },
        {
          "indexed": false,
          "internalType": "uint256",
          "name": "amount",
          "type": "uint256"
        }
      ],
      "name": "CompleteWithdraw",
      "type": "event"
    },
    {
      "anonymous": false,
      "inputs": [
        {
          "indexed": true,
          "internalType": "address",
          "name": "account",
          "type": "address"
        },
        {
          "indexed": true,
          "internalType": "uint256",
          "name": "vid",
          "type": "uint256"
        },
        {
          "indexed": false,
          "internalType": "uint256",
          "name": "amount",
          "type": "uint256"
        },
        {
          "indexed": false,
          "internalType": "bool",
          "name": "fromWallet",
          "type": "bool"
        }
      ],
      "name": "Deposit",
      "type": "event"
    },
    {
      "anonymous": false,
      "inputs": [
        {
          "indexed": true,
          "internalType": "address",
          "name": "account",
          "type": "address"
        },
        {
          "indexed": true,
          "internalType": "uint256",
          "name": "vid",
          "type": "uint256"
        },
        {
          "indexed": false,
          "internalType": "uint256",
          "name": "amount",
          "type": "uint256"
        }
      ],
      "name": "InitiateWithdraw",
      "type": "event"
    },
    {
      "anonymous": false,
      "inputs": [
        {
          "indexed": true,
          "internalType": "address",
          "name": "previousOwner",
          "type": "address"
        },
        {
          "indexed": true,
          "internalType": "address",
          "name": "newOwner",
          "type": "address"
        }
      ],
      "name": "OwnershipTransferred",
      "type": "event"
    },
    {
      "anonymous": false,
      "inputs": [
        {
          "indexed": true,
          "internalType": "address",
          "name": "account",
          "type": "address"
        },
        {
          "indexed": true,
          "internalType": "uint256",
          "name": "vid",
          "type": "uint256"
        },
        {
          "indexed": false,
          "internalType": "uint256",
          "name": "amount",
          "type": "uint256"
        }
      ],
      "name": "Redeem",
      "type": "event"
    },
    {
      "anonymous": false,
      "inputs": [
        {
          "indexed": true,
          "internalType": "address",
          "name": "user",
          "type": "address"
        },
        {
          "indexed": true,
          "internalType": "uint256",
          "name": "pid",
          "type": "uint256"
        },
        {
          "indexed": false,
          "internalType": "uint256",
          "name": "amount",
          "type": "uint256"
        }
      ],
      "name": "RewardsHarvested",
      "type": "event"
    },
    {
      "anonymous": false,
      "inputs": [
        {
          "indexed": true,
          "internalType": "bytes32",
          "name": "role",
          "type": "bytes32"
        },
        {
          "indexed": true,
          "internalType": "bytes32",
          "name": "previousAdminRole",
          "type": "bytes32"
        },
        {
          "indexed": true,
          "internalType": "bytes32",
          "name": "newAdminRole",
          "type": "bytes32"
        }
      ],
      "name": "RoleAdminChanged",
      "type": "event"
    },
    {
      "anonymous": false,
      "inputs": [
        {
          "indexed": true,
          "internalType": "bytes32",
          "name": "role",
          "type": "bytes32"
        },
        {
          "indexed": true,
          "internalType": "address",
          "name": "account",
          "type": "address"
        },
        {
          "indexed": true,
          "internalType": "address",
          "name": "sender",
          "type": "address"
        }
      ],
      "name": "RoleGranted",
      "type": "event"
    },
    {
      "anonymous": false,
      "inputs": [
        {
          "indexed": true,
          "internalType": "bytes32",
          "name": "role",
          "type": "bytes32"
        },
        {
          "indexed": true,
          "internalType": "address",
          "name": "account",
          "type": "address"
        },
        {
          "indexed": true,
          "internalType": "address",
          "name": "sender",
          "type": "address"
        }
      ],
      "name": "RoleRevoked",
      "type": "event"
    },
    {
      "inputs": [],
      "name": "DEFAULT_ADMIN_ROLE",
      "outputs": [
        {
          "internalType": "bytes32",
          "name": "",
          "type": "bytes32"
        }
      ],
      "stateMutability": "view",
      "type": "function"
    },
    {
      "inputs": [],
      "name": "TRADER_ROLE",
      "outputs": [
        {
          "internalType": "bytes32",
          "name": "",
          "type": "bytes32"
        }
      ],
      "stateMutability": "view",
      "type": "function"
    },
    {
      "inputs": [
        {
          "components": [
            {
              "internalType": "contract IERC20",
              "name": "underlying",
              "type": "address"
            },
            {
              "internalType": "uint8",
              "name": "decimals",
              "type": "uint8"
            }
          ],
          "internalType": "struct Vault.VaultSettings",
          "name": "_vault",
          "type": "tuple"
        },
        {
          "internalType": "bool",
          "name": "_withUpdate",
          "type": "bool"
        }
      ],
      "name": "add",
      "outputs": [],
      "stateMutability": "nonpayable",
      "type": "function"
    },
    {
      "inputs": [
        {
          "components": [
            {
              "internalType": "contract IERC20",
              "name": "underlying",
              "type": "address"
            },
            {
              "internalType": "uint8",
              "name": "decimals",
              "type": "uint8"
            }
          ],
          "internalType": "struct Vault.VaultSettings[]",
          "name": "_vaults",
          "type": "tuple[]"
        },
        {
          "internalType": "bool",
          "name": "_withUpdate",
          "type": "bool"
        }
      ],
      "name": "addMany",
      "outputs": [],
      "stateMutability": "nonpayable",
      "type": "function"
    },
    {
      "inputs": [
        {
          "internalType": "uint256",
          "name": "_vid",
          "type": "uint256"
        },
        {
          "internalType": "uint256",
          "name": "_amount",
          "type": "uint256"
        }
      ],
      "name": "cancelWithdraw",
      "outputs": [],
      "stateMutability": "nonpayable",
      "type": "function"
    },
    {
      "inputs": [
        {
          "internalType": "uint256",
          "name": "_vid",
          "type": "uint256"
        },
        {
          "internalType": "uint256",
          "name": "_amount",
          "type": "uint256"
        }
      ],
      "name": "completeWithdraw",
      "outputs": [],
      "stateMutability": "nonpayable",
      "type": "function"
    },
    {
      "inputs": [
        {
          "internalType": "uint256",
          "name": "_vid",
          "type": "uint256"
        },
        {
          "internalType": "uint256",
          "name": "_amount",
          "type": "uint256"
        }
      ],
      "name": "deposit",
      "outputs": [],
      "stateMutability": "nonpayable",
      "type": "function"
    },
    {
      "inputs": [],
      "name": "finishSettlement",
      "outputs": [],
      "stateMutability": "nonpayable",
      "type": "function"
    },
    {
      "inputs": [
        {
          "internalType": "bytes32",
          "name": "role",
          "type": "bytes32"
        }
      ],
      "name": "getRoleAdmin",
      "outputs": [
        {
          "internalType": "bytes32",
          "name": "",
          "type": "bytes32"
        }
      ],
      "stateMutability": "view",
      "type": "function"
    },
    {
      "inputs": [
        {
          "internalType": "bytes32",
          "name": "role",
          "type": "bytes32"
        },
        {
          "internalType": "address",
          "name": "account",
          "type": "address"
        }
      ],
      "name": "grantRole",
      "outputs": [],
      "stateMutability": "nonpayable",
      "type": "function"
    },
    {
      "inputs": [
        {
          "internalType": "uint256",
          "name": "_pid",
          "type": "uint256"
        }
      ],
      "name": "harvest",
      "outputs": [
        {
          "internalType": "uint256",
          "name": "",
          "type": "uint256"
        }
      ],
      "stateMutability": "nonpayable",
      "type": "function"
    },
    {
      "inputs": [
        {
          "internalType": "uint256[]",
          "name": "_pids",
          "type": "uint256[]"
        }
      ],
      "name": "harvestAll",
      "outputs": [],
      "stateMutability": "nonpayable",
      "type": "function"
    },
    {
      "inputs": [],
      "name": "harvestAllPools",
      "outputs": [],
      "stateMutability": "nonpayable",
      "type": "function"
    },
    {
      "inputs": [
        {
          "internalType": "bytes32",
          "name": "role",
          "type": "bytes32"
        },
        {
          "internalType": "address",
          "name": "account",
          "type": "address"
        }
      ],
      "name": "hasRole",
      "outputs": [
        {
          "internalType": "bool",
          "name": "",
          "type": "bool"
        }
      ],
      "stateMutability": "view",
      "type": "function"
    },
    {
      "inputs": [
        {
          "internalType": "contract PKKTToken",
          "name": "_pkkt",
          "type": "address"
        },
        {
          "internalType": "uint256",
          "name": "_pkktPerBlock",
          "type": "uint256"
        },
        {
          "internalType": "uint256",
          "name": "_startBlock",
          "type": "uint256"
        },
        {
          "internalType": "address",
          "name": "trader",
          "type": "address"
        }
      ],
      "name": "initialize",
      "outputs": [],
      "stateMutability": "nonpayable",
      "type": "function"
    },
    {
      "inputs": [
        {
          "internalType": "uint256",
          "name": "_pkktPerBlock",
          "type": "uint256"
        },
        {
          "internalType": "address",
          "name": "target",
          "type": "address"
        }
      ],
      "name": "initiateSettlement",
      "outputs": [],
      "stateMutability": "nonpayable",
      "type": "function"
    },
    {
      "inputs": [
        {
          "internalType": "uint256",
          "name": "_vid",
          "type": "uint256"
        },
        {
          "internalType": "uint256",
          "name": "_amount",
          "type": "uint256"
        }
      ],
      "name": "initiateWithdraw",
      "outputs": [],
      "stateMutability": "nonpayable",
      "type": "function"
    },
    {
      "inputs": [
        {
          "internalType": "address",
          "name": "",
          "type": "address"
        }
      ],
      "name": "isAdded",
      "outputs": [
        {
          "internalType": "bool",
          "name": "",
          "type": "bool"
        }
      ],
      "stateMutability": "view",
      "type": "function"
    },
    {
      "inputs": [],
      "name": "isSettelled",
      "outputs": [
        {
          "internalType": "bool",
          "name": "",
          "type": "bool"
        }
      ],
      "stateMutability": "view",
      "type": "function"
    },
    {
      "inputs": [],
      "name": "massUpdatePools",
      "outputs": [],
      "stateMutability": "nonpayable",
      "type": "function"
    },
    {
      "inputs": [
        {
          "internalType": "uint256",
          "name": "_vid",
          "type": "uint256"
        }
      ],
      "name": "maxCancelWithdraw",
      "outputs": [],
      "stateMutability": "nonpayable",
      "type": "function"
    },
    {
      "inputs": [
        {
          "internalType": "uint256",
          "name": "_vid",
          "type": "uint256"
        }
      ],
      "name": "maxCompleteWithdraw",
      "outputs": [],
      "stateMutability": "nonpayable",
      "type": "function"
    },
    {
      "inputs": [
        {
          "internalType": "uint256",
          "name": "_vid",
          "type": "uint256"
        }
      ],
      "name": "maxInitiateWithdraw",
      "outputs": [],
      "stateMutability": "nonpayable",
      "type": "function"
    },
    {
      "inputs": [
        {
          "internalType": "uint256",
          "name": "_vid",
          "type": "uint256"
        }
      ],
      "name": "maxRedeem",
      "outputs": [],
      "stateMutability": "nonpayable",
      "type": "function"
    },
    {
      "inputs": [
        {
          "internalType": "uint256",
          "name": "_vid",
          "type": "uint256"
        }
      ],
      "name": "maxRedeposit",
      "outputs": [],
      "stateMutability": "nonpayable",
      "type": "function"
    },
    {
      "inputs": [],
      "name": "normalizer",
      "outputs": [
        {
          "internalType": "uint256",
          "name": "",
          "type": "uint256"
        }
      ],
      "stateMutability": "view",
      "type": "function"
    },
    {
      "inputs": [],
      "name": "owner",
      "outputs": [
        {
          "internalType": "address",
          "name": "",
          "type": "address"
        }
      ],
      "stateMutability": "view",
      "type": "function"
    },
    {
      "inputs": [
        {
          "internalType": "uint256",
          "name": "_pid",
          "type": "uint256"
        },
        {
          "internalType": "address",
          "name": "_user",
          "type": "address"
        }
      ],
      "name": "pendingPKKT",
      "outputs": [
        {
          "internalType": "uint256",
          "name": "",
          "type": "uint256"
        }
      ],
      "stateMutability": "view",
      "type": "function"
    },
    {
      "inputs": [],
      "name": "pkkt",
      "outputs": [
        {
          "internalType": "contract PKKTToken",
          "name": "",
          "type": "address"
        }
      ],
      "stateMutability": "view",
      "type": "function"
    },
    {
      "inputs": [],
      "name": "pkktPerBlock",
      "outputs": [
        {
          "internalType": "uint256",
          "name": "",
          "type": "uint256"
        }
      ],
      "stateMutability": "view",
      "type": "function"
    },
    {
      "inputs": [],
      "name": "poolLength",
      "outputs": [
        {
          "internalType": "uint256",
          "name": "",
          "type": "uint256"
        }
      ],
      "stateMutability": "view",
      "type": "function"
    },
    {
      "inputs": [
        {
          "internalType": "uint256",
          "name": "_vid",
          "type": "uint256"
        },
        {
          "internalType": "uint256",
          "name": "_amount",
          "type": "uint256"
        }
      ],
      "name": "redeem",
      "outputs": [],
      "stateMutability": "nonpayable",
      "type": "function"
    },
    {
      "inputs": [
        {
          "internalType": "uint256",
          "name": "_vid",
          "type": "uint256"
        },
        {
          "internalType": "uint256",
          "name": "_amount",
          "type": "uint256"
        }
      ],
      "name": "redeposit",
      "outputs": [],
      "stateMutability": "nonpayable",
      "type": "function"
    },
    {
      "inputs": [],
      "name": "renounceOwnership",
      "outputs": [],
      "stateMutability": "nonpayable",
      "type": "function"
    },
    {
      "inputs": [
        {
          "internalType": "bytes32",
          "name": "role",
          "type": "bytes32"
        },
        {
          "internalType": "address",
          "name": "account",
          "type": "address"
        }
      ],
      "name": "renounceRole",
      "outputs": [],
      "stateMutability": "nonpayable",
      "type": "function"
    },
    {
      "inputs": [
        {
          "internalType": "bytes32",
          "name": "role",
          "type": "bytes32"
        },
        {
          "internalType": "address",
          "name": "account",
          "type": "address"
        }
      ],
      "name": "revokeRole",
      "outputs": [],
      "stateMutability": "nonpayable",
      "type": "function"
    },
    {
      "inputs": [
        {
          "internalType": "uint256",
          "name": "_pkktPerBlock",
          "type": "uint256"
        }
      ],
      "name": "setPKKTPerBlock",
      "outputs": [],
      "stateMutability": "nonpayable",
      "type": "function"
    },
    {
      "inputs": [
        {
          "internalType": "uint256",
          "name": "",
          "type": "uint256"
        }
      ],
      "name": "settlementResult",
      "outputs": [
        {
          "internalType": "int256",
          "name": "",
          "type": "int256"
        }
      ],
      "stateMutability": "view",
      "type": "function"
    },
    {
      "inputs": [],
      "name": "startBlock",
      "outputs": [
        {
          "internalType": "uint256",
          "name": "",
          "type": "uint256"
        }
      ],
      "stateMutability": "view",
      "type": "function"
    },
    {
      "inputs": [
        {
          "internalType": "bytes4",
          "name": "interfaceId",
          "type": "bytes4"
        }
      ],
      "name": "supportsInterface",
      "outputs": [
        {
          "internalType": "bool",
          "name": "",
          "type": "bool"
        }
      ],
      "stateMutability": "view",
      "type": "function"
    },
    {
      "inputs": [
        {
          "internalType": "address",
          "name": "newOwner",
          "type": "address"
        }
      ],
      "name": "transferOwnership",
      "outputs": [],
      "stateMutability": "nonpayable",
      "type": "function"
    },
    {
      "inputs": [
        {
          "internalType": "uint256",
          "name": "_pid",
          "type": "uint256"
        }
      ],
      "name": "updatePool",
      "outputs": [],
      "stateMutability": "nonpayable",
      "type": "function"
    },
    {
      "inputs": [
        {
          "internalType": "uint256",
          "name": "",
          "type": "uint256"
        },
        {
          "internalType": "address",
          "name": "",
          "type": "address"
        }
      ],
      "name": "userInfo",
      "outputs": [
        {
          "internalType": "uint256",
          "name": "pendingAmount",
          "type": "uint256"
        },
        {
          "internalType": "uint256",
          "name": "ongoingAmount",
          "type": "uint256"
        },
        {
          "internalType": "uint256",
          "name": "requestingAmount",
          "type": "uint256"
        },
        {
          "internalType": "uint256",
          "name": "maturedAmount",
          "type": "uint256"
        },
        {
          "internalType": "uint256",
          "name": "pendingPKKTReward",
          "type": "uint256"
        },
        {
          "internalType": "uint256",
          "name": "rewardDebt",
          "type": "uint256"
        },
        {
          "internalType": "uint256",
          "name": "pendingReward",
          "type": "uint256"
        },
        {
          "internalType": "bool",
          "name": "hasDeposit",
          "type": "bool"
        }
      ],
      "stateMutability": "view",
      "type": "function"
    },
    {
      "inputs": [
        {
          "internalType": "uint256",
          "name": "",
          "type": "uint256"
        }
      ],
      "name": "vaultInfo",
      "outputs": [
        {
          "internalType": "uint256",
          "name": "lastRewardBlock",
          "type": "uint256"
        },
        {
          "internalType": "uint256",
          "name": "accPKKTPerShare",
          "type": "uint256"
        },
        {
          "internalType": "uint256",
          "name": "totalPending",
          "type": "uint256"
        },
        {
          "internalType": "uint256",
          "name": "totalOngoing",
          "type": "uint256"
        },
        {
          "internalType": "uint256",
          "name": "totalRequesting",
          "type": "uint256"
        },
        {
          "internalType": "uint256",
          "name": "totalMatured",
          "type": "uint256"
        },
        {
          "internalType": "contract IERC20",
          "name": "underlying",
          "type": "address"
        },
        {
          "internalType": "uint8",
          "name": "decimals",
          "type": "uint8"
        }
      ],
      "stateMutability": "view",
      "type": "function"
    }
  ],
  "transactionHash": "0x8e0a701227f8321b06902534a2bcaf34dcf3c9a4ac17c626c7ce944a93ae936f",
  "args": [],
  "solcInputHash": "8474e35b853e611c5d70139c0961d073",
  "bytecode": "0x608060405234801561001057600080fd5b50613d48806100206000396000f3fe608060405234801561001057600080fd5b50600436106102735760003560e01c80638da5cb5b11610151578063c8914edb116100c3578063e2bbb15811610087578063e2bbb15814610637578063f09819081461064a578063f0a56fc81461065d578063f2fde38b14610672578063f77c49a614610685578063fa1f87d51461068e57600080fd5b8063c8914edb146105bb578063ce234106146105de578063d3e8b4a3146105fe578063d547741f14610611578063ddc632621461062457600080fd5b80639e3d87cd116101155780639e3d87cd14610563578063a10de6d614610576578063a217fddf14610589578063a28c525b14610591578063a919987b146105a4578063b08480d4146105b357600080fd5b80638da5cb5b1461043c578063905538e61461044d57806391d148541461045a578063929060d81461046d57806393f1a40b146104c757600080fd5b806336568abe116101ea578063630b5ba1116101ae578063630b5ba1146103e057806370980a5b146103e8578063715018a6146103fb57806373be9aec1461040357806379f1d067146104165780637cbc23731461042957600080fd5b806336568abe1461038b578063456afc481461039e57806348cd4cb1146103b15780634e6e9fdd146103ba57806351eb05a6146103cd57600080fd5b80631232a1691161023c5780631232a16914610309578063195a9dbd1461031c578063248a9ca31461032f5780632aabff15146103525780632f2ff15d1461036557806335ba2ba81461037857600080fd5b80625919c71461027857806301ffc9a71461028d57806305a62b5b146102b55780630778674e146102d6578063081e3eda14610301575b600080fd5b61028b610286366004613919565b610696565b005b6102a061029b366004613864565b610795565b60405190151581526020015b60405180910390f35b6102c86102c3366004613835565b6107cc565b6040519081526020016102ac565b6068546102e9906001600160a01b031681565b6040516001600160a01b0390911681526020016102ac565b60ce546102c8565b61028b610317366004613919565b6108a2565b61028b61032a36600461381d565b6108e9565b6102c861033d36600461381d565b6000908152609c602052604090206001015490565b61028b61036036600461376e565b610935565b61028b610373366004613835565b610983565b61028b6103863660046138d5565b6109a9565b61028b610399366004613835565b610d13565b61028b6103ac36600461381d565b610d8d565b6102c860695481565b61028b6103c8366004613919565b610dd5565b61028b6103db36600461381d565b610e1c565b61028b610e9a565b61028b6103f6366004613835565b610ecb565b61028b6111da565b61028b61041136600461381d565b611210565b61028b61042436600461381d565b611258565b61028b610437366004613919565b611306565b6033546001600160a01b03166102e9565b60cf546102a09060ff1681565b6102a0610468366004613835565b61136d565b61048061047b36600461381d565b611398565b604080519889526020890197909752958701949094526060860192909252608085015260a08401526001600160a01b031660c083015260ff1660e0820152610100016102ac565b6105266104d5366004613835565b60d06020908152600092835260408084209091529082529020805460018201546002830154600384015460048501546005860154600687015460079097015495969495939492939192909160ff1688565b604080519889526020890197909752958701949094526060860192909252608085015260a084015260c0830152151560e0820152610100016102ac565b61028b61057136600461388c565b6113fc565b61028b61058436600461381d565b6114cc565b6102c8600081565b61028b61059f366004613919565b611514565b6102c8670de0b6b3a764000081565b61028b61155b565b6102a06105c936600461369e565b60666020526000908152604090205460ff1681565b6102c86105ec36600461381d565b60d26020526000908152604090205481565b61028b61060c36600461381d565b611789565b61028b61061f366004613835565b6117d1565b6102c861063236600461381d565b6117f7565b61028b610645366004613919565b611a45565b61028b6106583660046136ba565b611bba565b6102c8600080516020613cf383398151915281565b61028b61068036600461369e565b611fbc565b6102c860655481565b61028b612057565b816106a060ce5490565b811061075c606780546106b290613c53565b80601f01602080910402602001604051908101604052809291908181526020018280546106de90613c53565b801561072b5780601f106107005761010080835404028352916020019161072b565b820191906000526020600020905b81548152906001019060200180831161070e57829003601f168201915b50505050506040518060400160405280600e81526020016d08191bd95cdb89dd08195e1a5cdd60921b815250612089565b906107835760405162461bcd60e51b815260040161077a91906139cb565b60405180910390fd5b5061079083836000612226565b505050565b60006001600160e01b03198216637965db0b60e01b14806107c657506301ffc9a760e01b6001600160e01b03198316145b92915050565b6000826107d860ce5490565b81106107ea606780546106b290613c53565b906108085760405162461bcd60e51b815260040161077a91906139cb565b506000610816856001612330565b9050600061082486866123d0565b602083015183519192509043118015610841575060008360400151115b156108525761084f83612441565b90505b61089761088c8360400151610886670de0b6b3a764000061088086886000015161249790919063ffffffff16565b906124a3565b906124af565b6020840151906124bb565b979650505050505050565b816108ac60ce5490565b81106108be606780546106b290613c53565b906108dc5760405162461bcd60e51b815260040161077a91906139cb565b50610790838360006124c7565b806108f360ce5490565b8110610905606780546106b290613c53565b906109235760405162461bcd60e51b815260040161077a91906139cb565b5061093182600060016125d9565b5050565b805160005b818110156107905761097283828151811061096557634e487b7160e01b600052603260045260246000fd5b60200260200101516117f7565b5061097c81613c88565b905061093a565b6000828152609c602052604090206001015461099f813361272e565b6107908383612792565b6033546001600160a01b031633146109d35760405162461bcd60e51b815260040161077a90613a77565b81516001600160a01b031660009081526066602052604090205460ff1615610a365760405162461bcd60e51b815260206004820152601660248201527515985d5b1d08185b1c9958591e481a5cc8185919195960521b604482015260640161077a565b81516040516370a0823160e01b81523060048201526000916001600160a01b0316906370a082319060240160206040518083038186803b158015610a7957600080fd5b505afa158015610a8d573d6000803e3d6000fd5b505050506040513d601f19601f82011682018060405250810190610ab19190613901565b90508015610b015760405162461bcd60e51b815260206004820152601b60248201527f5661756c742073686f756c64206e6f74206265656e207374616b650000000000604482015260640161077a565b8115610b0f57610b0f610e9a565b60006069544311610b2257606954610b24565b435b604080516101008101825282815260006020808301828152938301828152606084018381526080850184815260a086018581528c516001600160a01b0390811660c08901908152958e01805160ff90811660e08b0190815260ce80546001810182559a52995160079099027fd36cd1c74ef8d7326d8021b776c18fb5a5724b7f7bc93c2f42e43e10ef27d12a81019990995599517fd36cd1c74ef8d7326d8021b776c18fb5a5724b7f7bc93c2f42e43e10ef27d12b89015594517fd36cd1c74ef8d7326d8021b776c18fb5a5724b7f7bc93c2f42e43e10ef27d12c88015592517fd36cd1c74ef8d7326d8021b776c18fb5a5724b7f7bc93c2f42e43e10ef27d12d87015590517fd36cd1c74ef8d7326d8021b776c18fb5a5724b7f7bc93c2f42e43e10ef27d12e860155517fd36cd1c74ef8d7326d8021b776c18fb5a5724b7f7bc93c2f42e43e10ef27d12f85015591517fd36cd1c74ef8d7326d8021b776c18fb5a5724b7f7bc93c2f42e43e10ef27d130909301805494518616600160a01b026001600160a81b03199095169390921692909217929092179091555160d354929350811691161015610cea57602084015160d3805460ff191660ff9092169190911790555b505090516001600160a01b03166000908152606660205260409020805460ff1916600117905550565b6001600160a01b0381163314610d835760405162461bcd60e51b815260206004820152602f60248201527f416363657373436f6e74726f6c3a2063616e206f6e6c792072656e6f756e636560448201526e103937b632b9903337b91039b2b63360891b606482015260840161077a565b6109318282612818565b80610d9760ce5490565b8110610da9606780546106b290613c53565b90610dc75760405162461bcd60e51b815260040161077a91906139cb565b50610931826000600161287f565b81610ddf60ce5490565b8110610df1606780546106b290613c53565b90610e0f5760405162461bcd60e51b815260040161077a91906139cb565b50610790838360006125d9565b80610e2660ce5490565b8110610e38606780546106b290613c53565b90610e565760405162461bcd60e51b815260040161077a91906139cb565b506000610e64836001612330565b80519091504311610e7457505050565b6040810151610e88576107908360006129a5565b61079083610e9583612441565b6129a5565b6000610ea560ce5490565b905060005b8181101561093157610ebb81610e1c565b610ec481613c88565b9050610eaa565b600080516020613cf3833981519152610ee4813361272e565b610eec610e9a565b60cf805460ff1916905560ce5460005b818110156110e457600060ce8281548110610f2757634e487b7160e01b600052603260045260246000fd5b6000918252602080832085845260d18252604080852060d0909352842082546007909402909101945090929091908080805b8481101561109d576000866000898481548110610f8657634e487b7160e01b600052603260045260246000fd5b60009182526020808320909101546001600160a01b0316835282019290925260400190206002810154815491925090610fbf9087613b22565b610fc99190613bba565b94506000610ff08260020154610886846000015485600101546124bb90919063ffffffff16565b9050610ffc85826124bb565b945061104d8b8a858154811061102257634e487b7160e01b600052603260045260246000fd5b9060005260206000200160009054906101000a90046001600160a01b031684600101548460016129eb565b60018201819055600082556002820154600383015461106b916124bb565b6003830181905561107d9085906124bb565b60006002909301929092555091508061109581613c88565b915050610f59565b5060038701919091556000600287018190556004870181905560059096015585855260d2602052604090942093909355508291506110dc905081613c88565b915050610efc565b5060655484146110f7576110f784611258565b600160005b8281101561119157600081815260d2602052604081205490811215611124576000925061117e565b600081131561117e57600060ce838154811061115057634e487b7160e01b600052603260045260246000fd5b60009182526020909120600790910201600681015490915061117c906001600160a01b03168884612af1565b505b508061118981613c88565b9150506110fc565b5080156111d35760005b828110156111c457600081815260d26020526040812055806111bc81613c88565b91505061119b565b5060cf805460ff191660011790555b5050505050565b6033546001600160a01b031633146112045760405162461bcd60e51b815260040161077a90613a77565b61120e6000612b54565b565b8061121a60ce5490565b811061122c606780546106b290613c53565b9061124a5760405162461bcd60e51b815260040161077a91906139cb565b506109318260006001612226565b611270600080516020613cf38339815191523361136d565b806112945750336112896033546001600160a01b031690565b6001600160a01b0316145b6112f95760405162461bcd60e51b815260206004820152603060248201527f4f6e6c7920746865206f776e6572206f72207472616465722063616e2073657460448201526f102825a5aa103832b910313637b1b59760811b606482015260840161077a565b611301610e9a565b606555565b8161131060ce5490565b8110611322606780546106b290613c53565b906113405760405162461bcd60e51b815260040161077a91906139cb565b50600082116113615760405162461bcd60e51b815260040161077a90613aac565b61079083836000612ba6565b6000918252609c602090815260408084206001600160a01b0393909316845291905290205460ff1690565b60ce81815481106113a857600080fd5b6000918252602090912060079091020180546001820154600283015460038401546004850154600586015460069096015494965092949193909291906001600160a01b03811690600160a01b900460ff1688565b600054610100900460ff1680611415575060005460ff16155b6114315760405162461bcd60e51b815260040161077a90613a29565b600054610100900460ff16158015611453576000805461ffff19166101011790555b61147c856040518060400160405280600581526020016415985d5b1d60da1b8152508686612c9d565b611484612d92565b61148f600033612e15565b6114a7600080516020613cf383398151915283612e15565b60cf805460ff1916600117905580156111d3576000805461ff00191690555050505050565b806114d660ce5490565b81106114e8606780546106b290613c53565b906115065760405162461bcd60e51b815260040161077a91906139cb565b506109318260006001612ba6565b8161151e60ce5490565b8110611530606780546106b290613c53565b9061154e5760405162461bcd60e51b815260040161077a91906139cb565b506107908383600061287f565b600080516020613cf3833981519152611574813361272e565b60cf5460ff16156115c75760405162461bcd60e51b815260206004820152601b60248201527f536574746c656d656e7420616c72656164792066696e69736865640000000000604482015260640161077a565b60ce5460005b8181101561174a57600060ce82815481106115f857634e487b7160e01b600052603260045260246000fd5b6000918252602091829020604080516101008101825260079390930290910180548352600181015493830193909352600283015482820152600383015460608301526004808401546080840152600584015460a084018190526006909401546001600160a01b03811660c08501819052600160a01b90910460ff1660e085015291516370a0823160e01b81523091810191909152919350906370a082319060240160206040518083038186803b1580156116b157600080fd5b505afa1580156116c5573d6000803e3d6000fd5b505050506040513d601f19601f820116820180604052508101906116e99190613901565b10156117375760405162461bcd60e51b815260206004820152601d60248201527f4d61747572656420616d6f756e74206e6f742066756c6c66696c6c6564000000604482015260640161077a565b508061174281613c88565b9150506115cd565b5060005b8181101561177757600081815260d260205260408120558061176f81613c88565b91505061174e565b505060cf805460ff1916600117905550565b8061179360ce5490565b81106117a5606780546106b290613c53565b906117c35760405162461bcd60e51b815260040161077a91906139cb565b5061093182600060016124c7565b6000828152609c60205260409020600101546117ed813361272e565b6107908383612818565b60008161180360ce5490565b8110611815606780546106b290613c53565b906118335760405162461bcd60e51b815260040161077a91906139cb565b5061183d83610e1c565b600061184a846000612330565b9050600061185885336123d0565b9050600081602001519050600061189e826118988560400151610886670de0b6b3a76400006108808a602001518a6000015161249790919063ffffffff16565b906124bb565b600088815260d060209081526040808320338452909152812060060155905080156119ad576068546040516340c10f1960e01b8152306004820152602481018390526001600160a01b03909116906340c10f1990604401600060405180830381600087803b15801561190f57600080fd5b505af1158015611923573d6000803e3d6000fd5b505060685460405163a9059cbb60e01b8152336004820152602481018590526001600160a01b03909116925063a9059cbb9150604401602060405180830381600087803b15801561197357600080fd5b505af1158015611987573d6000803e3d6000fd5b505050506040513d601f19601f820116820180604052508101906119ab9190613801565b505b611a0287336119d9670de0b6b3a76400006108808960200151896000015161249790919063ffffffff16565b600092835260d0602090815260408085206001600160a01b039094168552929052912060050155565b604051818152879033907f16c3bcc96c5457e635fa03516bd0d9e0ac0dc9f66a71076c97f865793e44fe449060200160405180910390a394505050505b50919050565b81611a4f60ce5490565b8110611a61606780546106b290613c53565b90611a7f5760405162461bcd60e51b815260040161077a91906139cb565b5060008211611aa05760405162461bcd60e51b815260040161077a90613aac565b600060ce8481548110611ac357634e487b7160e01b600052603260045260246000fd5b6000918252602080832087845260d0825260408085203380875293529093206006600790930290930191820154919350611b08916001600160a01b0316903087612e1f565b600781015460ff16611b535760078101805460ff19166001908117909155600086815260d160209081526040822080549384018155825290200180546001600160a01b031916331790555b8054611b5f90856124bb565b81556002820154611b7090856124bb565b60028301556040805185815260016020820152869133917f6dbb6056a2fff319358e6dd7d0d72cb3baa992cdcc7e120fb0a32cd1601840e591015b60405180910390a35050505050565b6033546001600160a01b03163314611be45760405162461bcd60e51b815260040161077a90613a77565b60005b8251811015611d64576000838281518110611c1257634e487b7160e01b600052603260045260246000fd5b602090810291909101810151516001600160a01b0381166000908152606690925260409091205490915060ff1615611c855760405162461bcd60e51b815260206004820152601660248201527515985d5b1d08185b1c9958591e481a5cc8185919195960521b604482015260640161077a565b6040516370a0823160e01b81523060048201526000906001600160a01b038316906370a082319060240160206040518083038186803b158015611cc757600080fd5b505afa158015611cdb573d6000803e3d6000fd5b505050506040513d601f19601f82011682018060405250810190611cff9190613901565b90508015611d4f5760405162461bcd60e51b815260206004820152601a60248201527f5661756c742073686f756c64206e6f74206265207374616b6564000000000000604482015260640161077a565b50508080611d5c90613c88565b915050611be7565b508015611d7357611d73610e9a565b60005b8251811015610790576000838281518110611da157634e487b7160e01b600052603260045260246000fd5b6020026020010151905060006069544311611dbe57606954611dc0565b435b604080516101008101825282815260006020808301828152938301828152606084018381526080850184815260a086018581528a516001600160a01b0390811660c08901908152958c01805160ff90811660e08b0190815260ce80546001810182559a52995160079099027fd36cd1c74ef8d7326d8021b776c18fb5a5724b7f7bc93c2f42e43e10ef27d12a81019990995599517fd36cd1c74ef8d7326d8021b776c18fb5a5724b7f7bc93c2f42e43e10ef27d12b89015594517fd36cd1c74ef8d7326d8021b776c18fb5a5724b7f7bc93c2f42e43e10ef27d12c88015592517fd36cd1c74ef8d7326d8021b776c18fb5a5724b7f7bc93c2f42e43e10ef27d12d87015590517fd36cd1c74ef8d7326d8021b776c18fb5a5724b7f7bc93c2f42e43e10ef27d12e860155517fd36cd1c74ef8d7326d8021b776c18fb5a5724b7f7bc93c2f42e43e10ef27d12f85015591517fd36cd1c74ef8d7326d8021b776c18fb5a5724b7f7bc93c2f42e43e10ef27d130909301805494518616600160a01b026001600160a81b03199095169390921692909217929092179091555160d354929350811691161015611f8657602082015160d3805460ff191660ff9092169190911790555b50516001600160a01b03166000908152606660205260409020805460ff1916600117905580611fb481613c88565b915050611d76565b6033546001600160a01b03163314611fe65760405162461bcd60e51b815260040161077a90613a77565b6001600160a01b03811661204b5760405162461bcd60e51b815260206004820152602660248201527f4f776e61626c653a206e6577206f776e657220697320746865207a65726f206160448201526564647265737360d01b606482015260840161077a565b61205481612b54565b50565b600061206260ce5490565b905060005b8181101561093157612078816117f7565b5061208281613c88565b9050612067565b606060008251845161209b9190613b63565b67ffffffffffffffff8111156120c157634e487b7160e01b600052604160045260246000fd5b6040519080825280601f01601f1916602001820160405280156120eb576020820181803683370190505b509050806000805b865182101561217f5786828151811061211c57634e487b7160e01b600052603260045260246000fd5b01602001516001600160f81b031916838261213681613c88565b93508151811061215657634e487b7160e01b600052603260045260246000fd5b60200101906001600160f81b031916908160001a9053508161217781613c88565b9250506120f3565b600091505b855182101561221b57858261219881613c88565b9350815181106121b857634e487b7160e01b600052603260045260246000fd5b01602001516001600160f81b03191683826121d281613c88565b9350815181106121f257634e487b7160e01b600052603260045260246000fd5b60200101906001600160f81b031916908160001a9053508161221381613c88565b925050612184565b509095945050505050565b600082116122465760405162461bcd60e51b815260040161077a90613aac565b600060ce848154811061226957634e487b7160e01b600052603260045260246000fd5b6000918252602080832087845260d0825260408085203386529092529220600790910290910191508261229c57836122a2565b80600201545b9350836122b0575050505050565b80600201548411156122d45760405162461bcd60e51b815260040161077a906139fe565b60028101546122e390856124af565b600282015560048201546122f790856124af565b6004830155604051848152859033907f39e2e01794006bc1f63835af5c05db790beca4bfb40de3f02cc3ddf22dccc0fb90602001611bab565b61235b6040518060800160405280600081526020016000815260200160008152602001600081525090565b600060ce848154811061237e57634e487b7160e01b600052603260045260246000fd5b9060005260206000209060070201905060405180608001604052808260000154815260200182600101548152602001846123b95760006123bf565b82600301545b815260200185905291505092915050565b6123f460405180606001604052806000815260200160008152602001600081525090565b50600091825260d0602090815260408084206001600160a01b0393909316845291815291819020815160608101835260018201548152600682015493810193909352600501549082015290565b60008061246961245084612e5d565b60655485516124639190829043906124af565b90612497565b90506124906124858460400151836124a390919063ffffffff16565b6020850151906124bb565b9392505050565b60006124908284613b9b565b60006124908284613b7b565b60006124908284613bf9565b60006124908284613b63565b600060ce84815481106124ea57634e487b7160e01b600052603260045260246000fd5b6000918252602080832087845260d0825260408085203386529092529220600790910290910191508261251d5783612523565b80600301545b935083612531575050505050565b80600301548411156125555760405162461bcd60e51b815260040161077a906139fe565b805461256190856124bb565b8155600381015461257290856124af565b6003820155600282015461258690856124bb565b6002830155600582015461259a90856124af565b60058301556040805185815260006020820152869133917f6dbb6056a2fff319358e6dd7d0d72cb3baa992cdcc7e120fb0a32cd1601840e59101611bab565b60cf5460ff1661262b5760405162461bcd60e51b815260206004820152601a60248201527f536574746c6d656e74206e6f742066696e697368656420796574000000000000604482015260640161077a565b600060ce848154811061264e57634e487b7160e01b600052603260045260246000fd5b6000918252602080832087845260d082526040808520338652909252922060079091029091019150826126815783612687565b80600301545b935083612695575050505050565b80600301548411156126b95760405162461bcd60e51b815260040161077a906139fe565b60068201546126d2906001600160a01b03163386612af1565b60038101546126e190856124af565b600382015560058201546126f590856124af565b6005830155604051848152859033907fa7952fcf1aa05ca494ca81b36018d749ac933a4f76e87ccdcd31cc6a202a785e90602001611bab565b612738828261136d565b61093157612750816001600160a01b03166014612f3e565b61275b836020612f3e565b60405160200161276c929190613956565b60408051601f198184030181529082905262461bcd60e51b825261077a916004016139cb565b61279c828261136d565b610931576000828152609c602090815260408083206001600160a01b03851684529091529020805460ff191660011790556127d43390565b6001600160a01b0316816001600160a01b0316837f2f8788117e7eff1d82e926ec794901d17c78024a50270940304540a733656f0d60405160405180910390a45050565b612822828261136d565b15610931576000828152609c602090815260408083206001600160a01b0385168085529252808320805460ff1916905551339285917ff6391f5c32d9c69d2a47ea670b442974b53935d1edc7fd64eb21e047a839171b9190a45050565b6000821161289f5760405162461bcd60e51b815260040161077a90613aac565b600060ce84815481106128c257634e487b7160e01b600052603260045260246000fd5b6000918252602080832087845260d08252604080852033865290925290832060028101546001820154600790940290920194509291612900916124af565b90508361290d578461290f565b805b94508461291e57505050505050565b8085111561293e5760405162461bcd60e51b815260040161077a906139fe565b600282015461294d90866124bb565b6002830155600483015461296190866124bb565b6004840155604051858152869033907f0c53c82ad07e2d592d88ece3b066777dd60f1118e2a081b380efc4358f0d9e2a9060200160405180910390a3505050505050565b600060ce83815481106129c857634e487b7160e01b600052603260045260246000fd5b600091825260209091204360079092020190815590508115610790576001015550565b846129f560ce5490565b8110612a07606780546106b290613c53565b90612a255760405162461bcd60e51b815260040161077a91906139cb565b506000612a33876000612330565b90506000612a4188886123d0565b90508315612abf576000612a768260400151610886670de0b6b3a764000061088087602001518c61249790919063ffffffff16565b9050612abd8989612a948486602001516124bb90919063ffffffff16565b600092835260d0602090815260408085206001600160a01b039094168552929052912060060155565b505b612ae788886119d9670de0b6b3a764000061088087602001518b61249790919063ffffffff16565b5050505050505050565b6040516001600160a01b03831660248201526044810182905261079090849063a9059cbb60e01b906064015b60408051601f198184030181529190526020810180516001600160e01b03166001600160e01b031990931692909217909152613120565b603380546001600160a01b038381166001600160a01b0319831681179093556040519116919082907f8be0079c531659141344cd1fd0a4f28419497f9722a3daafe3b4186f6b6457e090600090a35050565b600060ce8481548110612bc957634e487b7160e01b600052603260045260246000fd5b6000918252602080832087845260d08252604080852033865290925292206007909102909101915082612bfc5783612bff565b80545b935083612c0d575050505050565b8054841115612c2e5760405162461bcd60e51b815260040161077a906139fe565b8054612c3a90856124af565b81556002820154612c4b90856124af565b60028301556006820154612c69906001600160a01b03163386612af1565b604051848152859033907fe5b754fb1abb7f01b499791d0b820ae3b6af3424ac1c59768edb53f4ec31a92990602001611bab565b600054610100900460ff1680612cb6575060005460ff16155b612cd25760405162461bcd60e51b815260040161077a90613a29565b600054610100900460ff16158015612cf4576000805461ffff19166101011790555b6001600160a01b038516612d395760405162461bcd60e51b815260206004820152600c60248201526b5a65726f206164647265737360a01b604482015260640161077a565b612d416131f2565b606880546001600160a01b0319166001600160a01b03871617905560658390558351612d7490606790602087019061358d565b50606982905580156111d3576000805461ff00191690555050505050565b600054610100900460ff1680612dab575060005460ff16155b612dc75760405162461bcd60e51b815260040161077a90613a29565b600054610100900460ff16158015612de9576000805461ffff19166101011790555b612df1613259565b612df9613259565b612e01613259565b8015612054576000805461ff001916905550565b6109318282612792565b6040516001600160a01b0380851660248301528316604482015260648101829052612e579085906323b872dd60e01b90608401612b1d565b50505050565b60008060ce836060015181548110612e8557634e487b7160e01b600052603260045260246000fd5b90600052602060002090600702019050612490612ea06132c3565b60d35460405163623d91e360e11b81526004810185905260ff909116602482015261088090670de0b6b3a76400009073C4064A7394AB5fbe6D66c162ec9F43F13f1fdFfa9063c47b23c69060440160206040518083038186803b158015612f0657600080fd5b505af4158015612f1a573d6000803e3d6000fd5b505050506040513d601f19601f820116820180604052508101906124639190613901565b60606000612f4d836002613b9b565b612f58906002613b63565b67ffffffffffffffff811115612f7e57634e487b7160e01b600052604160045260246000fd5b6040519080825280601f01601f191660200182016040528015612fa8576020820181803683370190505b509050600360fc1b81600081518110612fd157634e487b7160e01b600052603260045260246000fd5b60200101906001600160f81b031916908160001a905350600f60fb1b8160018151811061300e57634e487b7160e01b600052603260045260246000fd5b60200101906001600160f81b031916908160001a9053506000613032846002613b9b565b61303d906001613b63565b90505b60018111156130d1576f181899199a1a9b1b9c1cb0b131b232b360811b85600f166010811061307f57634e487b7160e01b600052603260045260246000fd5b1a60f81b8282815181106130a357634e487b7160e01b600052603260045260246000fd5b60200101906001600160f81b031916908160001a90535060049490941c936130ca81613c3c565b9050613040565b5083156124905760405162461bcd60e51b815260206004820181905260248201527f537472696e67733a20686578206c656e67746820696e73756666696369656e74604482015260640161077a565b6000613175826040518060400160405280602081526020017f5361666545524332303a206c6f772d6c6576656c2063616c6c206661696c6564815250856001600160a01b03166133c59092919063ffffffff16565b80519091501561079057808060200190518101906131939190613801565b6107905760405162461bcd60e51b815260206004820152602a60248201527f5361666545524332303a204552433230206f7065726174696f6e20646964206e6044820152691bdd081cdd58d8d9595960b21b606482015260840161077a565b600054610100900460ff168061320b575060005460ff16155b6132275760405162461bcd60e51b815260040161077a90613a29565b600054610100900460ff16158015613249576000805461ffff19166101011790555b613251613259565b612e016133dc565b600054610100900460ff1680613272575060005460ff16155b61328e5760405162461bcd60e51b815260040161077a90613a29565b600054610100900460ff16158015612e01576000805461ffff19166101011790558015612054576000805461ff001916905550565b60ce546000908190815b818110156133bd57600060ce82815481106132f857634e487b7160e01b600052603260045260246000fd5b6000918252602090912060d35460405163623d91e360e11b815260079093029091016004830181905260ff909116602483015291506133a79073C4064A7394AB5fbe6D66c162ec9F43F13f1fdFfa9063c47b23c69060440160206040518083038186803b15801561336857600080fd5b505af415801561337c573d6000803e3d6000fd5b505050506040513d601f19601f820116820180604052508101906133a09190613901565b85906124bb565b93505080806133b590613c88565b9150506132cd565b509092915050565b60606133d4848460008561343c565b949350505050565b600054610100900460ff16806133f5575060005460ff16155b6134115760405162461bcd60e51b815260040161077a90613a29565b600054610100900460ff16158015613433576000805461ffff19166101011790555b612e0133612b54565b60608247101561349d5760405162461bcd60e51b815260206004820152602660248201527f416464726573733a20696e73756666696369656e742062616c616e636520666f6044820152651c8818d85b1b60d21b606482015260840161077a565b843b6134eb5760405162461bcd60e51b815260206004820152601d60248201527f416464726573733a2063616c6c20746f206e6f6e2d636f6e7472616374000000604482015260640161077a565b600080866001600160a01b03168587604051613507919061393a565b60006040518083038185875af1925050503d8060008114613544576040519150601f19603f3d011682016040523d82523d6000602084013e613549565b606091505b509150915061089782828660608315613563575081612490565b8251156135735782518084602001fd5b8160405162461bcd60e51b815260040161077a91906139cb565b82805461359990613c53565b90600052602060002090601f0160209004810192826135bb5760008555613601565b82601f106135d457805160ff1916838001178555613601565b82800160010185558215613601579182015b828111156136015782518255916020019190600101906135e6565b5061360d929150613611565b5090565b5b8082111561360d5760008155600101613612565b803561363181613ce4565b919050565b600060408284031215613647578081fd5b6040516040810181811067ffffffffffffffff8211171561366a5761366a613cb9565b604052905080823561367b81613ccf565b8152602083013560ff8116811461369157600080fd5b6020919091015292915050565b6000602082840312156136af578081fd5b813561249081613ccf565b60008060408084860312156136cd578182fd5b833567ffffffffffffffff8111156136e3578283fd5b8401601f810186136136f3578283fd5b8035602061370861370383613afe565b613acd565b8083825282820191508285018a848660061b8801011115613727578788fd5b8795505b848610156137515761373d8b82613636565b83526001959095019491830191860161372b565b5096506137619050878201613626565b9450505050509250929050565b60006020808385031215613780578182fd5b823567ffffffffffffffff811115613796578283fd5b8301601f810185136137a6578283fd5b80356137b461370382613afe565b80828252848201915084840188868560051b87010111156137d3578687fd5b8694505b838510156137f55780358352600194909401939185019185016137d7565b50979650505050505050565b600060208284031215613812578081fd5b815161249081613ce4565b60006020828403121561382e578081fd5b5035919050565b60008060408385031215613847578182fd5b82359150602083013561385981613ccf565b809150509250929050565b600060208284031215613875578081fd5b81356001600160e01b031981168114612490578182fd5b600080600080608085870312156138a1578182fd5b84356138ac81613ccf565b9350602085013592506040850135915060608501356138ca81613ccf565b939692955090935050565b600080606083850312156138e7578182fd5b6138f18484613636565b9150604083013561385981613ce4565b600060208284031215613912578081fd5b5051919050565b6000806040838503121561392b578182fd5b50508035926020909101359150565b6000825161394c818460208701613c10565b9190910192915050565b7f416363657373436f6e74726f6c3a206163636f756e742000000000000000000081526000835161398e816017850160208801613c10565b7001034b99036b4b9b9b4b733903937b6329607d1b60179184019182015283516139bf816028840160208801613c10565b01602801949350505050565b60208152600082518060208401526139ea816040850160208701613c10565b601f01601f19169190910160400192915050565b6020808252601190820152704578636565647320617661696c61626c6560781b604082015260600190565b6020808252602e908201527f496e697469616c697a61626c653a20636f6e747261637420697320616c72656160408201526d191e481a5b9a5d1a585b1a5e995960921b606082015260800190565b6020808252818101527f4f776e61626c653a2063616c6c6572206973206e6f7420746865206f776e6572604082015260600190565b60208082526007908201526608585b5bdd5b9d60ca1b604082015260600190565b604051601f8201601f1916810167ffffffffffffffff81118282101715613af657613af6613cb9565b604052919050565b600067ffffffffffffffff821115613b1857613b18613cb9565b5060051b60200190565b600080821280156001600160ff1b0384900385131615613b4457613b44613ca3565b600160ff1b8390038412811615613b5d57613b5d613ca3565b50500190565b60008219821115613b7657613b76613ca3565b500190565b600082613b9657634e487b7160e01b81526012600452602481fd5b500490565b6000816000190483118215151615613bb557613bb5613ca3565b500290565b60008083128015600160ff1b850184121615613bd857613bd8613ca3565b6001600160ff1b0384018313811615613bf357613bf3613ca3565b50500390565b600082821015613c0b57613c0b613ca3565b500390565b60005b83811015613c2b578181015183820152602001613c13565b83811115612e575750506000910152565b600081613c4b57613c4b613ca3565b506000190190565b600181811c90821680613c6757607f821691505b60208210811415611a3f57634e487b7160e01b600052602260045260246000fd5b6000600019821415613c9c57613c9c613ca3565b5060010190565b634e487b7160e01b600052601160045260246000fd5b634e487b7160e01b600052604160045260246000fd5b6001600160a01b038116811461205457600080fd5b801515811461205457600080fdfefacaf2747a7486cf5730e9265973fb54447d3ace6e7e4711f6360826b0731941a264697066735822122095eb9bd007691706dce1c1c5c6f49b89af79dcafb61d490b582c237523bf5b7c64736f6c63430008040033",
  "deployedBytecode": "0x608060405234801561001057600080fd5b50600436106102735760003560e01c80638da5cb5b11610151578063c8914edb116100c3578063e2bbb15811610087578063e2bbb15814610637578063f09819081461064a578063f0a56fc81461065d578063f2fde38b14610672578063f77c49a614610685578063fa1f87d51461068e57600080fd5b8063c8914edb146105bb578063ce234106146105de578063d3e8b4a3146105fe578063d547741f14610611578063ddc632621461062457600080fd5b80639e3d87cd116101155780639e3d87cd14610563578063a10de6d614610576578063a217fddf14610589578063a28c525b14610591578063a919987b146105a4578063b08480d4146105b357600080fd5b80638da5cb5b1461043c578063905538e61461044d57806391d148541461045a578063929060d81461046d57806393f1a40b146104c757600080fd5b806336568abe116101ea578063630b5ba1116101ae578063630b5ba1146103e057806370980a5b146103e8578063715018a6146103fb57806373be9aec1461040357806379f1d067146104165780637cbc23731461042957600080fd5b806336568abe1461038b578063456afc481461039e57806348cd4cb1146103b15780634e6e9fdd146103ba57806351eb05a6146103cd57600080fd5b80631232a1691161023c5780631232a16914610309578063195a9dbd1461031c578063248a9ca31461032f5780632aabff15146103525780632f2ff15d1461036557806335ba2ba81461037857600080fd5b80625919c71461027857806301ffc9a71461028d57806305a62b5b146102b55780630778674e146102d6578063081e3eda14610301575b600080fd5b61028b610286366004613919565b610696565b005b6102a061029b366004613864565b610795565b60405190151581526020015b60405180910390f35b6102c86102c3366004613835565b6107cc565b6040519081526020016102ac565b6068546102e9906001600160a01b031681565b6040516001600160a01b0390911681526020016102ac565b60ce546102c8565b61028b610317366004613919565b6108a2565b61028b61032a36600461381d565b6108e9565b6102c861033d36600461381d565b6000908152609c602052604090206001015490565b61028b61036036600461376e565b610935565b61028b610373366004613835565b610983565b61028b6103863660046138d5565b6109a9565b61028b610399366004613835565b610d13565b61028b6103ac36600461381d565b610d8d565b6102c860695481565b61028b6103c8366004613919565b610dd5565b61028b6103db36600461381d565b610e1c565b61028b610e9a565b61028b6103f6366004613835565b610ecb565b61028b6111da565b61028b61041136600461381d565b611210565b61028b61042436600461381d565b611258565b61028b610437366004613919565b611306565b6033546001600160a01b03166102e9565b60cf546102a09060ff1681565b6102a0610468366004613835565b61136d565b61048061047b36600461381d565b611398565b604080519889526020890197909752958701949094526060860192909252608085015260a08401526001600160a01b031660c083015260ff1660e0820152610100016102ac565b6105266104d5366004613835565b60d06020908152600092835260408084209091529082529020805460018201546002830154600384015460048501546005860154600687015460079097015495969495939492939192909160ff1688565b604080519889526020890197909752958701949094526060860192909252608085015260a084015260c0830152151560e0820152610100016102ac565b61028b61057136600461388c565b6113fc565b61028b61058436600461381d565b6114cc565b6102c8600081565b61028b61059f366004613919565b611514565b6102c8670de0b6b3a764000081565b61028b61155b565b6102a06105c936600461369e565b60666020526000908152604090205460ff1681565b6102c86105ec36600461381d565b60d26020526000908152604090205481565b61028b61060c36600461381d565b611789565b61028b61061f366004613835565b6117d1565b6102c861063236600461381d565b6117f7565b61028b610645366004613919565b611a45565b61028b6106583660046136ba565b611bba565b6102c8600080516020613cf383398151915281565b61028b61068036600461369e565b611fbc565b6102c860655481565b61028b612057565b816106a060ce5490565b811061075c606780546106b290613c53565b80601f01602080910402602001604051908101604052809291908181526020018280546106de90613c53565b801561072b5780601f106107005761010080835404028352916020019161072b565b820191906000526020600020905b81548152906001019060200180831161070e57829003601f168201915b50505050506040518060400160405280600e81526020016d08191bd95cdb89dd08195e1a5cdd60921b815250612089565b906107835760405162461bcd60e51b815260040161077a91906139cb565b60405180910390fd5b5061079083836000612226565b505050565b60006001600160e01b03198216637965db0b60e01b14806107c657506301ffc9a760e01b6001600160e01b03198316145b92915050565b6000826107d860ce5490565b81106107ea606780546106b290613c53565b906108085760405162461bcd60e51b815260040161077a91906139cb565b506000610816856001612330565b9050600061082486866123d0565b602083015183519192509043118015610841575060008360400151115b156108525761084f83612441565b90505b61089761088c8360400151610886670de0b6b3a764000061088086886000015161249790919063ffffffff16565b906124a3565b906124af565b6020840151906124bb565b979650505050505050565b816108ac60ce5490565b81106108be606780546106b290613c53565b906108dc5760405162461bcd60e51b815260040161077a91906139cb565b50610790838360006124c7565b806108f360ce5490565b8110610905606780546106b290613c53565b906109235760405162461bcd60e51b815260040161077a91906139cb565b5061093182600060016125d9565b5050565b805160005b818110156107905761097283828151811061096557634e487b7160e01b600052603260045260246000fd5b60200260200101516117f7565b5061097c81613c88565b905061093a565b6000828152609c602052604090206001015461099f813361272e565b6107908383612792565b6033546001600160a01b031633146109d35760405162461bcd60e51b815260040161077a90613a77565b81516001600160a01b031660009081526066602052604090205460ff1615610a365760405162461bcd60e51b815260206004820152601660248201527515985d5b1d08185b1c9958591e481a5cc8185919195960521b604482015260640161077a565b81516040516370a0823160e01b81523060048201526000916001600160a01b0316906370a082319060240160206040518083038186803b158015610a7957600080fd5b505afa158015610a8d573d6000803e3d6000fd5b505050506040513d601f19601f82011682018060405250810190610ab19190613901565b90508015610b015760405162461bcd60e51b815260206004820152601b60248201527f5661756c742073686f756c64206e6f74206265656e207374616b650000000000604482015260640161077a565b8115610b0f57610b0f610e9a565b60006069544311610b2257606954610b24565b435b604080516101008101825282815260006020808301828152938301828152606084018381526080850184815260a086018581528c516001600160a01b0390811660c08901908152958e01805160ff90811660e08b0190815260ce80546001810182559a52995160079099027fd36cd1c74ef8d7326d8021b776c18fb5a5724b7f7bc93c2f42e43e10ef27d12a81019990995599517fd36cd1c74ef8d7326d8021b776c18fb5a5724b7f7bc93c2f42e43e10ef27d12b89015594517fd36cd1c74ef8d7326d8021b776c18fb5a5724b7f7bc93c2f42e43e10ef27d12c88015592517fd36cd1c74ef8d7326d8021b776c18fb5a5724b7f7bc93c2f42e43e10ef27d12d87015590517fd36cd1c74ef8d7326d8021b776c18fb5a5724b7f7bc93c2f42e43e10ef27d12e860155517fd36cd1c74ef8d7326d8021b776c18fb5a5724b7f7bc93c2f42e43e10ef27d12f85015591517fd36cd1c74ef8d7326d8021b776c18fb5a5724b7f7bc93c2f42e43e10ef27d130909301805494518616600160a01b026001600160a81b03199095169390921692909217929092179091555160d354929350811691161015610cea57602084015160d3805460ff191660ff9092169190911790555b505090516001600160a01b03166000908152606660205260409020805460ff1916600117905550565b6001600160a01b0381163314610d835760405162461bcd60e51b815260206004820152602f60248201527f416363657373436f6e74726f6c3a2063616e206f6e6c792072656e6f756e636560448201526e103937b632b9903337b91039b2b63360891b606482015260840161077a565b6109318282612818565b80610d9760ce5490565b8110610da9606780546106b290613c53565b90610dc75760405162461bcd60e51b815260040161077a91906139cb565b50610931826000600161287f565b81610ddf60ce5490565b8110610df1606780546106b290613c53565b90610e0f5760405162461bcd60e51b815260040161077a91906139cb565b50610790838360006125d9565b80610e2660ce5490565b8110610e38606780546106b290613c53565b90610e565760405162461bcd60e51b815260040161077a91906139cb565b506000610e64836001612330565b80519091504311610e7457505050565b6040810151610e88576107908360006129a5565b61079083610e9583612441565b6129a5565b6000610ea560ce5490565b905060005b8181101561093157610ebb81610e1c565b610ec481613c88565b9050610eaa565b600080516020613cf3833981519152610ee4813361272e565b610eec610e9a565b60cf805460ff1916905560ce5460005b818110156110e457600060ce8281548110610f2757634e487b7160e01b600052603260045260246000fd5b6000918252602080832085845260d18252604080852060d0909352842082546007909402909101945090929091908080805b8481101561109d576000866000898481548110610f8657634e487b7160e01b600052603260045260246000fd5b60009182526020808320909101546001600160a01b0316835282019290925260400190206002810154815491925090610fbf9087613b22565b610fc99190613bba565b94506000610ff08260020154610886846000015485600101546124bb90919063ffffffff16565b9050610ffc85826124bb565b945061104d8b8a858154811061102257634e487b7160e01b600052603260045260246000fd5b9060005260206000200160009054906101000a90046001600160a01b031684600101548460016129eb565b60018201819055600082556002820154600383015461106b916124bb565b6003830181905561107d9085906124bb565b60006002909301929092555091508061109581613c88565b915050610f59565b5060038701919091556000600287018190556004870181905560059096015585855260d2602052604090942093909355508291506110dc905081613c88565b915050610efc565b5060655484146110f7576110f784611258565b600160005b8281101561119157600081815260d2602052604081205490811215611124576000925061117e565b600081131561117e57600060ce838154811061115057634e487b7160e01b600052603260045260246000fd5b60009182526020909120600790910201600681015490915061117c906001600160a01b03168884612af1565b505b508061118981613c88565b9150506110fc565b5080156111d35760005b828110156111c457600081815260d26020526040812055806111bc81613c88565b91505061119b565b5060cf805460ff191660011790555b5050505050565b6033546001600160a01b031633146112045760405162461bcd60e51b815260040161077a90613a77565b61120e6000612b54565b565b8061121a60ce5490565b811061122c606780546106b290613c53565b9061124a5760405162461bcd60e51b815260040161077a91906139cb565b506109318260006001612226565b611270600080516020613cf38339815191523361136d565b806112945750336112896033546001600160a01b031690565b6001600160a01b0316145b6112f95760405162461bcd60e51b815260206004820152603060248201527f4f6e6c7920746865206f776e6572206f72207472616465722063616e2073657460448201526f102825a5aa103832b910313637b1b59760811b606482015260840161077a565b611301610e9a565b606555565b8161131060ce5490565b8110611322606780546106b290613c53565b906113405760405162461bcd60e51b815260040161077a91906139cb565b50600082116113615760405162461bcd60e51b815260040161077a90613aac565b61079083836000612ba6565b6000918252609c602090815260408084206001600160a01b0393909316845291905290205460ff1690565b60ce81815481106113a857600080fd5b6000918252602090912060079091020180546001820154600283015460038401546004850154600586015460069096015494965092949193909291906001600160a01b03811690600160a01b900460ff1688565b600054610100900460ff1680611415575060005460ff16155b6114315760405162461bcd60e51b815260040161077a90613a29565b600054610100900460ff16158015611453576000805461ffff19166101011790555b61147c856040518060400160405280600581526020016415985d5b1d60da1b8152508686612c9d565b611484612d92565b61148f600033612e15565b6114a7600080516020613cf383398151915283612e15565b60cf805460ff1916600117905580156111d3576000805461ff00191690555050505050565b806114d660ce5490565b81106114e8606780546106b290613c53565b906115065760405162461bcd60e51b815260040161077a91906139cb565b506109318260006001612ba6565b8161151e60ce5490565b8110611530606780546106b290613c53565b9061154e5760405162461bcd60e51b815260040161077a91906139cb565b506107908383600061287f565b600080516020613cf3833981519152611574813361272e565b60cf5460ff16156115c75760405162461bcd60e51b815260206004820152601b60248201527f536574746c656d656e7420616c72656164792066696e69736865640000000000604482015260640161077a565b60ce5460005b8181101561174a57600060ce82815481106115f857634e487b7160e01b600052603260045260246000fd5b6000918252602091829020604080516101008101825260079390930290910180548352600181015493830193909352600283015482820152600383015460608301526004808401546080840152600584015460a084018190526006909401546001600160a01b03811660c08501819052600160a01b90910460ff1660e085015291516370a0823160e01b81523091810191909152919350906370a082319060240160206040518083038186803b1580156116b157600080fd5b505afa1580156116c5573d6000803e3d6000fd5b505050506040513d601f19601f820116820180604052508101906116e99190613901565b10156117375760405162461bcd60e51b815260206004820152601d60248201527f4d61747572656420616d6f756e74206e6f742066756c6c66696c6c6564000000604482015260640161077a565b508061174281613c88565b9150506115cd565b5060005b8181101561177757600081815260d260205260408120558061176f81613c88565b91505061174e565b505060cf805460ff1916600117905550565b8061179360ce5490565b81106117a5606780546106b290613c53565b906117c35760405162461bcd60e51b815260040161077a91906139cb565b5061093182600060016124c7565b6000828152609c60205260409020600101546117ed813361272e565b6107908383612818565b60008161180360ce5490565b8110611815606780546106b290613c53565b906118335760405162461bcd60e51b815260040161077a91906139cb565b5061183d83610e1c565b600061184a846000612330565b9050600061185885336123d0565b9050600081602001519050600061189e826118988560400151610886670de0b6b3a76400006108808a602001518a6000015161249790919063ffffffff16565b906124bb565b600088815260d060209081526040808320338452909152812060060155905080156119ad576068546040516340c10f1960e01b8152306004820152602481018390526001600160a01b03909116906340c10f1990604401600060405180830381600087803b15801561190f57600080fd5b505af1158015611923573d6000803e3d6000fd5b505060685460405163a9059cbb60e01b8152336004820152602481018590526001600160a01b03909116925063a9059cbb9150604401602060405180830381600087803b15801561197357600080fd5b505af1158015611987573d6000803e3d6000fd5b505050506040513d601f19601f820116820180604052508101906119ab9190613801565b505b611a0287336119d9670de0b6b3a76400006108808960200151896000015161249790919063ffffffff16565b600092835260d0602090815260408085206001600160a01b039094168552929052912060050155565b604051818152879033907f16c3bcc96c5457e635fa03516bd0d9e0ac0dc9f66a71076c97f865793e44fe449060200160405180910390a394505050505b50919050565b81611a4f60ce5490565b8110611a61606780546106b290613c53565b90611a7f5760405162461bcd60e51b815260040161077a91906139cb565b5060008211611aa05760405162461bcd60e51b815260040161077a90613aac565b600060ce8481548110611ac357634e487b7160e01b600052603260045260246000fd5b6000918252602080832087845260d0825260408085203380875293529093206006600790930290930191820154919350611b08916001600160a01b0316903087612e1f565b600781015460ff16611b535760078101805460ff19166001908117909155600086815260d160209081526040822080549384018155825290200180546001600160a01b031916331790555b8054611b5f90856124bb565b81556002820154611b7090856124bb565b60028301556040805185815260016020820152869133917f6dbb6056a2fff319358e6dd7d0d72cb3baa992cdcc7e120fb0a32cd1601840e591015b60405180910390a35050505050565b6033546001600160a01b03163314611be45760405162461bcd60e51b815260040161077a90613a77565b60005b8251811015611d64576000838281518110611c1257634e487b7160e01b600052603260045260246000fd5b602090810291909101810151516001600160a01b0381166000908152606690925260409091205490915060ff1615611c855760405162461bcd60e51b815260206004820152601660248201527515985d5b1d08185b1c9958591e481a5cc8185919195960521b604482015260640161077a565b6040516370a0823160e01b81523060048201526000906001600160a01b038316906370a082319060240160206040518083038186803b158015611cc757600080fd5b505afa158015611cdb573d6000803e3d6000fd5b505050506040513d601f19601f82011682018060405250810190611cff9190613901565b90508015611d4f5760405162461bcd60e51b815260206004820152601a60248201527f5661756c742073686f756c64206e6f74206265207374616b6564000000000000604482015260640161077a565b50508080611d5c90613c88565b915050611be7565b508015611d7357611d73610e9a565b60005b8251811015610790576000838281518110611da157634e487b7160e01b600052603260045260246000fd5b6020026020010151905060006069544311611dbe57606954611dc0565b435b604080516101008101825282815260006020808301828152938301828152606084018381526080850184815260a086018581528a516001600160a01b0390811660c08901908152958c01805160ff90811660e08b0190815260ce80546001810182559a52995160079099027fd36cd1c74ef8d7326d8021b776c18fb5a5724b7f7bc93c2f42e43e10ef27d12a81019990995599517fd36cd1c74ef8d7326d8021b776c18fb5a5724b7f7bc93c2f42e43e10ef27d12b89015594517fd36cd1c74ef8d7326d8021b776c18fb5a5724b7f7bc93c2f42e43e10ef27d12c88015592517fd36cd1c74ef8d7326d8021b776c18fb5a5724b7f7bc93c2f42e43e10ef27d12d87015590517fd36cd1c74ef8d7326d8021b776c18fb5a5724b7f7bc93c2f42e43e10ef27d12e860155517fd36cd1c74ef8d7326d8021b776c18fb5a5724b7f7bc93c2f42e43e10ef27d12f85015591517fd36cd1c74ef8d7326d8021b776c18fb5a5724b7f7bc93c2f42e43e10ef27d130909301805494518616600160a01b026001600160a81b03199095169390921692909217929092179091555160d354929350811691161015611f8657602082015160d3805460ff191660ff9092169190911790555b50516001600160a01b03166000908152606660205260409020805460ff1916600117905580611fb481613c88565b915050611d76565b6033546001600160a01b03163314611fe65760405162461bcd60e51b815260040161077a90613a77565b6001600160a01b03811661204b5760405162461bcd60e51b815260206004820152602660248201527f4f776e61626c653a206e6577206f776e657220697320746865207a65726f206160448201526564647265737360d01b606482015260840161077a565b61205481612b54565b50565b600061206260ce5490565b905060005b8181101561093157612078816117f7565b5061208281613c88565b9050612067565b606060008251845161209b9190613b63565b67ffffffffffffffff8111156120c157634e487b7160e01b600052604160045260246000fd5b6040519080825280601f01601f1916602001820160405280156120eb576020820181803683370190505b509050806000805b865182101561217f5786828151811061211c57634e487b7160e01b600052603260045260246000fd5b01602001516001600160f81b031916838261213681613c88565b93508151811061215657634e487b7160e01b600052603260045260246000fd5b60200101906001600160f81b031916908160001a9053508161217781613c88565b9250506120f3565b600091505b855182101561221b57858261219881613c88565b9350815181106121b857634e487b7160e01b600052603260045260246000fd5b01602001516001600160f81b03191683826121d281613c88565b9350815181106121f257634e487b7160e01b600052603260045260246000fd5b60200101906001600160f81b031916908160001a9053508161221381613c88565b925050612184565b509095945050505050565b600082116122465760405162461bcd60e51b815260040161077a90613aac565b600060ce848154811061226957634e487b7160e01b600052603260045260246000fd5b6000918252602080832087845260d0825260408085203386529092529220600790910290910191508261229c57836122a2565b80600201545b9350836122b0575050505050565b80600201548411156122d45760405162461bcd60e51b815260040161077a906139fe565b60028101546122e390856124af565b600282015560048201546122f790856124af565b6004830155604051848152859033907f39e2e01794006bc1f63835af5c05db790beca4bfb40de3f02cc3ddf22dccc0fb90602001611bab565b61235b6040518060800160405280600081526020016000815260200160008152602001600081525090565b600060ce848154811061237e57634e487b7160e01b600052603260045260246000fd5b9060005260206000209060070201905060405180608001604052808260000154815260200182600101548152602001846123b95760006123bf565b82600301545b815260200185905291505092915050565b6123f460405180606001604052806000815260200160008152602001600081525090565b50600091825260d0602090815260408084206001600160a01b0393909316845291815291819020815160608101835260018201548152600682015493810193909352600501549082015290565b60008061246961245084612e5d565b60655485516124639190829043906124af565b90612497565b90506124906124858460400151836124a390919063ffffffff16565b6020850151906124bb565b9392505050565b60006124908284613b9b565b60006124908284613b7b565b60006124908284613bf9565b60006124908284613b63565b600060ce84815481106124ea57634e487b7160e01b600052603260045260246000fd5b6000918252602080832087845260d0825260408085203386529092529220600790910290910191508261251d5783612523565b80600301545b935083612531575050505050565b80600301548411156125555760405162461bcd60e51b815260040161077a906139fe565b805461256190856124bb565b8155600381015461257290856124af565b6003820155600282015461258690856124bb565b6002830155600582015461259a90856124af565b60058301556040805185815260006020820152869133917f6dbb6056a2fff319358e6dd7d0d72cb3baa992cdcc7e120fb0a32cd1601840e59101611bab565b60cf5460ff1661262b5760405162461bcd60e51b815260206004820152601a60248201527f536574746c6d656e74206e6f742066696e697368656420796574000000000000604482015260640161077a565b600060ce848154811061264e57634e487b7160e01b600052603260045260246000fd5b6000918252602080832087845260d082526040808520338652909252922060079091029091019150826126815783612687565b80600301545b935083612695575050505050565b80600301548411156126b95760405162461bcd60e51b815260040161077a906139fe565b60068201546126d2906001600160a01b03163386612af1565b60038101546126e190856124af565b600382015560058201546126f590856124af565b6005830155604051848152859033907fa7952fcf1aa05ca494ca81b36018d749ac933a4f76e87ccdcd31cc6a202a785e90602001611bab565b612738828261136d565b61093157612750816001600160a01b03166014612f3e565b61275b836020612f3e565b60405160200161276c929190613956565b60408051601f198184030181529082905262461bcd60e51b825261077a916004016139cb565b61279c828261136d565b610931576000828152609c602090815260408083206001600160a01b03851684529091529020805460ff191660011790556127d43390565b6001600160a01b0316816001600160a01b0316837f2f8788117e7eff1d82e926ec794901d17c78024a50270940304540a733656f0d60405160405180910390a45050565b612822828261136d565b15610931576000828152609c602090815260408083206001600160a01b0385168085529252808320805460ff1916905551339285917ff6391f5c32d9c69d2a47ea670b442974b53935d1edc7fd64eb21e047a839171b9190a45050565b6000821161289f5760405162461bcd60e51b815260040161077a90613aac565b600060ce84815481106128c257634e487b7160e01b600052603260045260246000fd5b6000918252602080832087845260d08252604080852033865290925290832060028101546001820154600790940290920194509291612900916124af565b90508361290d578461290f565b805b94508461291e57505050505050565b8085111561293e5760405162461bcd60e51b815260040161077a906139fe565b600282015461294d90866124bb565b6002830155600483015461296190866124bb565b6004840155604051858152869033907f0c53c82ad07e2d592d88ece3b066777dd60f1118e2a081b380efc4358f0d9e2a9060200160405180910390a3505050505050565b600060ce83815481106129c857634e487b7160e01b600052603260045260246000fd5b600091825260209091204360079092020190815590508115610790576001015550565b846129f560ce5490565b8110612a07606780546106b290613c53565b90612a255760405162461bcd60e51b815260040161077a91906139cb565b506000612a33876000612330565b90506000612a4188886123d0565b90508315612abf576000612a768260400151610886670de0b6b3a764000061088087602001518c61249790919063ffffffff16565b9050612abd8989612a948486602001516124bb90919063ffffffff16565b600092835260d0602090815260408085206001600160a01b039094168552929052912060060155565b505b612ae788886119d9670de0b6b3a764000061088087602001518b61249790919063ffffffff16565b5050505050505050565b6040516001600160a01b03831660248201526044810182905261079090849063a9059cbb60e01b906064015b60408051601f198184030181529190526020810180516001600160e01b03166001600160e01b031990931692909217909152613120565b603380546001600160a01b038381166001600160a01b0319831681179093556040519116919082907f8be0079c531659141344cd1fd0a4f28419497f9722a3daafe3b4186f6b6457e090600090a35050565b600060ce8481548110612bc957634e487b7160e01b600052603260045260246000fd5b6000918252602080832087845260d08252604080852033865290925292206007909102909101915082612bfc5783612bff565b80545b935083612c0d575050505050565b8054841115612c2e5760405162461bcd60e51b815260040161077a906139fe565b8054612c3a90856124af565b81556002820154612c4b90856124af565b60028301556006820154612c69906001600160a01b03163386612af1565b604051848152859033907fe5b754fb1abb7f01b499791d0b820ae3b6af3424ac1c59768edb53f4ec31a92990602001611bab565b600054610100900460ff1680612cb6575060005460ff16155b612cd25760405162461bcd60e51b815260040161077a90613a29565b600054610100900460ff16158015612cf4576000805461ffff19166101011790555b6001600160a01b038516612d395760405162461bcd60e51b815260206004820152600c60248201526b5a65726f206164647265737360a01b604482015260640161077a565b612d416131f2565b606880546001600160a01b0319166001600160a01b03871617905560658390558351612d7490606790602087019061358d565b50606982905580156111d3576000805461ff00191690555050505050565b600054610100900460ff1680612dab575060005460ff16155b612dc75760405162461bcd60e51b815260040161077a90613a29565b600054610100900460ff16158015612de9576000805461ffff19166101011790555b612df1613259565b612df9613259565b612e01613259565b8015612054576000805461ff001916905550565b6109318282612792565b6040516001600160a01b0380851660248301528316604482015260648101829052612e579085906323b872dd60e01b90608401612b1d565b50505050565b60008060ce836060015181548110612e8557634e487b7160e01b600052603260045260246000fd5b90600052602060002090600702019050612490612ea06132c3565b60d35460405163623d91e360e11b81526004810185905260ff909116602482015261088090670de0b6b3a76400009073__$06121d56a712ac8bdb9003c1a418388a36$__9063c47b23c69060440160206040518083038186803b158015612f0657600080fd5b505af4158015612f1a573d6000803e3d6000fd5b505050506040513d601f19601f820116820180604052508101906124639190613901565b60606000612f4d836002613b9b565b612f58906002613b63565b67ffffffffffffffff811115612f7e57634e487b7160e01b600052604160045260246000fd5b6040519080825280601f01601f191660200182016040528015612fa8576020820181803683370190505b509050600360fc1b81600081518110612fd157634e487b7160e01b600052603260045260246000fd5b60200101906001600160f81b031916908160001a905350600f60fb1b8160018151811061300e57634e487b7160e01b600052603260045260246000fd5b60200101906001600160f81b031916908160001a9053506000613032846002613b9b565b61303d906001613b63565b90505b60018111156130d1576f181899199a1a9b1b9c1cb0b131b232b360811b85600f166010811061307f57634e487b7160e01b600052603260045260246000fd5b1a60f81b8282815181106130a357634e487b7160e01b600052603260045260246000fd5b60200101906001600160f81b031916908160001a90535060049490941c936130ca81613c3c565b9050613040565b5083156124905760405162461bcd60e51b815260206004820181905260248201527f537472696e67733a20686578206c656e67746820696e73756666696369656e74604482015260640161077a565b6000613175826040518060400160405280602081526020017f5361666545524332303a206c6f772d6c6576656c2063616c6c206661696c6564815250856001600160a01b03166133c59092919063ffffffff16565b80519091501561079057808060200190518101906131939190613801565b6107905760405162461bcd60e51b815260206004820152602a60248201527f5361666545524332303a204552433230206f7065726174696f6e20646964206e6044820152691bdd081cdd58d8d9595960b21b606482015260840161077a565b600054610100900460ff168061320b575060005460ff16155b6132275760405162461bcd60e51b815260040161077a90613a29565b600054610100900460ff16158015613249576000805461ffff19166101011790555b613251613259565b612e016133dc565b600054610100900460ff1680613272575060005460ff16155b61328e5760405162461bcd60e51b815260040161077a90613a29565b600054610100900460ff16158015612e01576000805461ffff19166101011790558015612054576000805461ff001916905550565b60ce546000908190815b818110156133bd57600060ce82815481106132f857634e487b7160e01b600052603260045260246000fd5b6000918252602090912060d35460405163623d91e360e11b815260079093029091016004830181905260ff909116602483015291506133a79073__$06121d56a712ac8bdb9003c1a418388a36$__9063c47b23c69060440160206040518083038186803b15801561336857600080fd5b505af415801561337c573d6000803e3d6000fd5b505050506040513d601f19601f820116820180604052508101906133a09190613901565b85906124bb565b93505080806133b590613c88565b9150506132cd565b509092915050565b60606133d4848460008561343c565b949350505050565b600054610100900460ff16806133f5575060005460ff16155b6134115760405162461bcd60e51b815260040161077a90613a29565b600054610100900460ff16158015613433576000805461ffff19166101011790555b612e0133612b54565b60608247101561349d5760405162461bcd60e51b815260206004820152602660248201527f416464726573733a20696e73756666696369656e742062616c616e636520666f6044820152651c8818d85b1b60d21b606482015260840161077a565b843b6134eb5760405162461bcd60e51b815260206004820152601d60248201527f416464726573733a2063616c6c20746f206e6f6e2d636f6e7472616374000000604482015260640161077a565b600080866001600160a01b03168587604051613507919061393a565b60006040518083038185875af1925050503d8060008114613544576040519150601f19603f3d011682016040523d82523d6000602084013e613549565b606091505b509150915061089782828660608315613563575081612490565b8251156135735782518084602001fd5b8160405162461bcd60e51b815260040161077a91906139cb565b82805461359990613c53565b90600052602060002090601f0160209004810192826135bb5760008555613601565b82601f106135d457805160ff1916838001178555613601565b82800160010185558215613601579182015b828111156136015782518255916020019190600101906135e6565b5061360d929150613611565b5090565b5b8082111561360d5760008155600101613612565b803561363181613ce4565b919050565b600060408284031215613647578081fd5b6040516040810181811067ffffffffffffffff8211171561366a5761366a613cb9565b604052905080823561367b81613ccf565b8152602083013560ff8116811461369157600080fd5b6020919091015292915050565b6000602082840312156136af578081fd5b813561249081613ccf565b60008060408084860312156136cd578182fd5b833567ffffffffffffffff8111156136e3578283fd5b8401601f810186136136f3578283fd5b8035602061370861370383613afe565b613acd565b8083825282820191508285018a848660061b8801011115613727578788fd5b8795505b848610156137515761373d8b82613636565b83526001959095019491830191860161372b565b5096506137619050878201613626565b9450505050509250929050565b60006020808385031215613780578182fd5b823567ffffffffffffffff811115613796578283fd5b8301601f810185136137a6578283fd5b80356137b461370382613afe565b80828252848201915084840188868560051b87010111156137d3578687fd5b8694505b838510156137f55780358352600194909401939185019185016137d7565b50979650505050505050565b600060208284031215613812578081fd5b815161249081613ce4565b60006020828403121561382e578081fd5b5035919050565b60008060408385031215613847578182fd5b82359150602083013561385981613ccf565b809150509250929050565b600060208284031215613875578081fd5b81356001600160e01b031981168114612490578182fd5b600080600080608085870312156138a1578182fd5b84356138ac81613ccf565b9350602085013592506040850135915060608501356138ca81613ccf565b939692955090935050565b600080606083850312156138e7578182fd5b6138f18484613636565b9150604083013561385981613ce4565b600060208284031215613912578081fd5b5051919050565b6000806040838503121561392b578182fd5b50508035926020909101359150565b6000825161394c818460208701613c10565b9190910192915050565b7f416363657373436f6e74726f6c3a206163636f756e742000000000000000000081526000835161398e816017850160208801613c10565b7001034b99036b4b9b9b4b733903937b6329607d1b60179184019182015283516139bf816028840160208801613c10565b01602801949350505050565b60208152600082518060208401526139ea816040850160208701613c10565b601f01601f19169190910160400192915050565b6020808252601190820152704578636565647320617661696c61626c6560781b604082015260600190565b6020808252602e908201527f496e697469616c697a61626c653a20636f6e747261637420697320616c72656160408201526d191e481a5b9a5d1a585b1a5e995960921b606082015260800190565b6020808252818101527f4f776e61626c653a2063616c6c6572206973206e6f7420746865206f776e6572604082015260600190565b60208082526007908201526608585b5bdd5b9d60ca1b604082015260600190565b604051601f8201601f1916810167ffffffffffffffff81118282101715613af657613af6613cb9565b604052919050565b600067ffffffffffffffff821115613b1857613b18613cb9565b5060051b60200190565b600080821280156001600160ff1b0384900385131615613b4457613b44613ca3565b600160ff1b8390038412811615613b5d57613b5d613ca3565b50500190565b60008219821115613b7657613b76613ca3565b500190565b600082613b9657634e487b7160e01b81526012600452602481fd5b500490565b6000816000190483118215151615613bb557613bb5613ca3565b500290565b60008083128015600160ff1b850184121615613bd857613bd8613ca3565b6001600160ff1b0384018313811615613bf357613bf3613ca3565b50500390565b600082821015613c0b57613c0b613ca3565b500390565b60005b83811015613c2b578181015183820152602001613c13565b83811115612e575750506000910152565b600081613c4b57613c4b613ca3565b506000190190565b600181811c90821680613c6757607f821691505b60208210811415611a3f57634e487b7160e01b600052602260045260246000fd5b6000600019821415613c9c57613c9c613ca3565b5060010190565b634e487b7160e01b600052601160045260246000fd5b634e487b7160e01b600052604160045260246000fd5b6001600160a01b038116811461205457600080fd5b801515811461205457600080fdfefacaf2747a7486cf5730e9265973fb54447d3ace6e7e4711f6360826b0731941a264697066735822122095eb9bd007691706dce1c1c5c6f49b89af79dcafb61d490b582c237523bf5b7c64736f6c63430008040033",
  "libraries": {
    "Vault": "0xC4064A7394AB5fbe6D66c162ec9F43F13f1fdFfa"
  },
  "devdoc": {
    "kind": "dev",
    "methods": {
      "getRoleAdmin(bytes32)": {
        "details": "Returns the admin role that controls `role`. See {grantRole} and {revokeRole}. To change a role's admin, use {_setRoleAdmin}."
      },
      "grantRole(bytes32,address)": {
        "details": "Grants `role` to `account`. If `account` had not been already granted `role`, emits a {RoleGranted} event. Requirements: - the caller must have ``role``'s admin role."
      },
      "hasRole(bytes32,address)": {
        "details": "Returns `true` if `account` has been granted `role`."
      },
      "initialize(address,uint256,uint256,address)": {
        "params": {
          "_pkktPerBlock": "total number of PKKT rewarded to users",
          "trader": "address of trader who manages settlements"
        }
      },
      "owner()": {
        "details": "Returns the address of the current owner."
      },
      "renounceOwnership()": {
        "details": "Leaves the contract without owner. It will not be possible to call `onlyOwner` functions anymore. Can only be called by the current owner. NOTE: Renouncing ownership will leave the contract without an owner, thereby removing any functionality that is only available to the owner."
      },
      "renounceRole(bytes32,address)": {
        "details": "Revokes `role` from the calling account. Roles are often managed via {grantRole} and {revokeRole}: this function's purpose is to provide a mechanism for accounts to lose their privileges if they are compromised (such as when a trusted device is misplaced). If the calling account had been granted `role`, emits a {RoleRevoked} event. Requirements: - the caller must be `account`."
      },
      "revokeRole(bytes32,address)": {
        "details": "Revokes `role` from `account`. If `account` had been granted `role`, emits a {RoleRevoked} event. Requirements: - the caller must have ``role``'s admin role."
      },
      "supportsInterface(bytes4)": {
        "details": "See {IERC165-supportsInterface}."
      },
      "transferOwnership(address)": {
        "details": "Transfers ownership of the contract to a new account (`newOwner`). Can only be called by the current owner."
      }
    },
    "version": 1
  },
  "userdoc": {
    "kind": "user",
    "methods": {
      "initialize(address,uint256,uint256,address)": {
        "notice": "Initializes the contract with storage variables"
      }
    },
    "version": 1
  },
  "storageLayout": {
    "storage": [
      {
        "astId": 538,
        "contract": "contracts/PKKTVault.sol:PKKTVault",
        "label": "_initialized",
        "offset": 0,
        "slot": "0",
        "type": "t_bool"
      },
      {
        "astId": 541,
        "contract": "contracts/PKKTVault.sol:PKKTVault",
        "label": "_initializing",
        "offset": 1,
        "slot": "0",
        "type": "t_bool"
      },
      {
        "astId": 1297,
        "contract": "contracts/PKKTVault.sol:PKKTVault",
        "label": "__gap",
        "offset": 0,
        "slot": "1",
        "type": "t_array(t_uint256)50_storage"
      },
      {
        "astId": 418,
        "contract": "contracts/PKKTVault.sol:PKKTVault",
        "label": "_owner",
        "offset": 0,
        "slot": "51",
        "type": "t_address"
      },
      {
        "astId": 531,
        "contract": "contracts/PKKTVault.sol:PKKTVault",
        "label": "__gap",
        "offset": 0,
        "slot": "52",
        "type": "t_array(t_uint256)49_storage"
      },
      {
        "astId": 5473,
        "contract": "contracts/PKKTVault.sol:PKKTVault",
        "label": "pkktPerBlock",
        "offset": 0,
        "slot": "101",
        "type": "t_uint256"
      },
      {
        "astId": 5477,
        "contract": "contracts/PKKTVault.sol:PKKTVault",
        "label": "isAdded",
        "offset": 0,
        "slot": "102",
        "type": "t_mapping(t_address,t_bool)"
      },
      {
        "astId": 5479,
        "contract": "contracts/PKKTVault.sol:PKKTVault",
        "label": "itemName",
        "offset": 0,
        "slot": "103",
        "type": "t_string_storage"
      },
      {
        "astId": 5482,
        "contract": "contracts/PKKTVault.sol:PKKTVault",
        "label": "pkkt",
        "offset": 0,
        "slot": "104",
        "type": "t_contract(PKKTToken)7704"
      },
      {
        "astId": 5484,
        "contract": "contracts/PKKTVault.sol:PKKTVault",
        "label": "startBlock",
        "offset": 0,
        "slot": "105",
        "type": "t_uint256"
      },
      {
        "astId": 1546,
        "contract": "contracts/PKKTVault.sol:PKKTVault",
        "label": "__gap",
        "offset": 0,
        "slot": "106",
        "type": "t_array(t_uint256)50_storage"
      },
      {
        "astId": 48,
        "contract": "contracts/PKKTVault.sol:PKKTVault",
        "label": "_roles",
        "offset": 0,
        "slot": "156",
        "type": "t_mapping(t_bytes32,t_struct(RoleData)43_storage)"
      },
      {
        "astId": 333,
        "contract": "contracts/PKKTVault.sol:PKKTVault",
        "label": "__gap",
        "offset": 0,
        "slot": "157",
        "type": "t_array(t_uint256)49_storage"
      },
      {
        "astId": 7740,
        "contract": "contracts/PKKTVault.sol:PKKTVault",
        "label": "vaultInfo",
        "offset": 0,
        "slot": "206",
        "type": "t_array(t_struct(VaultInfo)10010_storage)dyn_storage"
      },
      {
        "astId": 7742,
        "contract": "contracts/PKKTVault.sol:PKKTVault",
        "label": "isSettelled",
        "offset": 0,
        "slot": "207",
        "type": "t_bool"
      },
      {
        "astId": 7749,
        "contract": "contracts/PKKTVault.sol:PKKTVault",
        "label": "userInfo",
        "offset": 0,
        "slot": "208",
        "type": "t_mapping(t_uint256,t_mapping(t_address,t_struct(UserInfo)9992_storage))"
      },
      {
        "astId": 7754,
        "contract": "contracts/PKKTVault.sol:PKKTVault",
        "label": "userAddresses",
        "offset": 0,
        "slot": "209",
        "type": "t_mapping(t_uint256,t_array(t_address)dyn_storage)"
      },
      {
        "astId": 7758,
        "contract": "contracts/PKKTVault.sol:PKKTVault",
        "label": "settlementResult",
        "offset": 0,
        "slot": "210",
        "type": "t_mapping(t_uint256,t_int256)"
      },
      {
        "astId": 7760,
        "contract": "contracts/PKKTVault.sol:PKKTVault",
        "label": "maxDecimals",
        "offset": 0,
        "slot": "211",
        "type": "t_uint8"
      }
    ],
    "types": {
      "t_address": {
        "encoding": "inplace",
        "label": "address",
        "numberOfBytes": "20"
      },
      "t_array(t_address)dyn_storage": {
        "base": "t_address",
        "encoding": "dynamic_array",
        "label": "address[]",
        "numberOfBytes": "32"
      },
      "t_array(t_struct(VaultInfo)10010_storage)dyn_storage": {
        "base": "t_struct(VaultInfo)10010_storage",
        "encoding": "dynamic_array",
        "label": "struct Vault.VaultInfo[]",
        "numberOfBytes": "32"
      },
      "t_array(t_uint256)49_storage": {
        "base": "t_uint256",
        "encoding": "inplace",
        "label": "uint256[49]",
        "numberOfBytes": "1568"
      },
      "t_array(t_uint256)50_storage": {
        "base": "t_uint256",
        "encoding": "inplace",
        "label": "uint256[50]",
        "numberOfBytes": "1600"
      },
      "t_bool": {
        "encoding": "inplace",
        "label": "bool",
        "numberOfBytes": "1"
      },
      "t_bytes32": {
        "encoding": "inplace",
        "label": "bytes32",
        "numberOfBytes": "32"
      },
      "t_contract(IERC20)2287": {
        "encoding": "inplace",
        "label": "contract IERC20",
        "numberOfBytes": "20"
      },
      "t_contract(PKKTToken)7704": {
        "encoding": "inplace",
        "label": "contract PKKTToken",
        "numberOfBytes": "20"
      },
      "t_int256": {
        "encoding": "inplace",
        "label": "int256",
        "numberOfBytes": "32"
      },
      "t_mapping(t_address,t_bool)": {
        "encoding": "mapping",
        "key": "t_address",
        "label": "mapping(address => bool)",
        "numberOfBytes": "32",
        "value": "t_bool"
      },
      "t_mapping(t_address,t_struct(UserInfo)9992_storage)": {
        "encoding": "mapping",
        "key": "t_address",
        "label": "mapping(address => struct Vault.UserInfo)",
        "numberOfBytes": "32",
        "value": "t_struct(UserInfo)9992_storage"
      },
      "t_mapping(t_bytes32,t_struct(RoleData)43_storage)": {
        "encoding": "mapping",
        "key": "t_bytes32",
        "label": "mapping(bytes32 => struct AccessControlUpgradeable.RoleData)",
        "numberOfBytes": "32",
        "value": "t_struct(RoleData)43_storage"
      },
      "t_mapping(t_uint256,t_array(t_address)dyn_storage)": {
        "encoding": "mapping",
        "key": "t_uint256",
        "label": "mapping(uint256 => address[])",
        "numberOfBytes": "32",
        "value": "t_array(t_address)dyn_storage"
      },
      "t_mapping(t_uint256,t_int256)": {
        "encoding": "mapping",
        "key": "t_uint256",
        "label": "mapping(uint256 => int256)",
        "numberOfBytes": "32",
        "value": "t_int256"
      },
      "t_mapping(t_uint256,t_mapping(t_address,t_struct(UserInfo)9992_storage))": {
        "encoding": "mapping",
        "key": "t_uint256",
        "label": "mapping(uint256 => mapping(address => struct Vault.UserInfo))",
        "numberOfBytes": "32",
        "value": "t_mapping(t_address,t_struct(UserInfo)9992_storage)"
      },
      "t_string_storage": {
        "encoding": "bytes",
        "label": "string",
        "numberOfBytes": "32"
      },
      "t_struct(RoleData)43_storage": {
        "encoding": "inplace",
        "label": "struct AccessControlUpgradeable.RoleData",
        "members": [
          {
            "astId": 40,
            "contract": "contracts/PKKTVault.sol:PKKTVault",
            "label": "members",
            "offset": 0,
            "slot": "0",
            "type": "t_mapping(t_address,t_bool)"
          },
          {
            "astId": 42,
            "contract": "contracts/PKKTVault.sol:PKKTVault",
            "label": "adminRole",
            "offset": 0,
            "slot": "1",
            "type": "t_bytes32"
          }
        ],
        "numberOfBytes": "64"
      },
      "t_struct(UserInfo)9992_storage": {
        "encoding": "inplace",
        "label": "struct Vault.UserInfo",
        "members": [
          {
            "astId": 9977,
            "contract": "contracts/PKKTVault.sol:PKKTVault",
            "label": "pendingAmount",
            "offset": 0,
            "slot": "0",
            "type": "t_uint256"
          },
          {
            "astId": 9979,
            "contract": "contracts/PKKTVault.sol:PKKTVault",
            "label": "ongoingAmount",
            "offset": 0,
            "slot": "1",
            "type": "t_uint256"
          },
          {
            "astId": 9981,
            "contract": "contracts/PKKTVault.sol:PKKTVault",
            "label": "requestingAmount",
            "offset": 0,
            "slot": "2",
            "type": "t_uint256"
          },
          {
            "astId": 9983,
            "contract": "contracts/PKKTVault.sol:PKKTVault",
            "label": "maturedAmount",
            "offset": 0,
            "slot": "3",
            "type": "t_uint256"
          },
          {
            "astId": 9985,
            "contract": "contracts/PKKTVault.sol:PKKTVault",
            "label": "pendingPKKTReward",
            "offset": 0,
            "slot": "4",
            "type": "t_uint256"
          },
          {
            "astId": 9987,
            "contract": "contracts/PKKTVault.sol:PKKTVault",
            "label": "rewardDebt",
            "offset": 0,
            "slot": "5",
            "type": "t_uint256"
          },
          {
            "astId": 9989,
            "contract": "contracts/PKKTVault.sol:PKKTVault",
            "label": "pendingReward",
            "offset": 0,
            "slot": "6",
            "type": "t_uint256"
          },
          {
            "astId": 9991,
            "contract": "contracts/PKKTVault.sol:PKKTVault",
            "label": "hasDeposit",
            "offset": 0,
            "slot": "7",
            "type": "t_bool"
          }
        ],
        "numberOfBytes": "256"
      },
      "t_struct(VaultInfo)10010_storage": {
        "encoding": "inplace",
        "label": "struct Vault.VaultInfo",
        "members": [
          {
            "astId": 9994,
            "contract": "contracts/PKKTVault.sol:PKKTVault",
            "label": "lastRewardBlock",
            "offset": 0,
            "slot": "0",
            "type": "t_uint256"
          },
          {
            "astId": 9996,
            "contract": "contracts/PKKTVault.sol:PKKTVault",
            "label": "accPKKTPerShare",
            "offset": 0,
            "slot": "1",
            "type": "t_uint256"
          },
          {
            "astId": 9998,
            "contract": "contracts/PKKTVault.sol:PKKTVault",
            "label": "totalPending",
            "offset": 0,
            "slot": "2",
            "type": "t_uint256"
          },
          {
            "astId": 10000,
            "contract": "contracts/PKKTVault.sol:PKKTVault",
            "label": "totalOngoing",
            "offset": 0,
            "slot": "3",
            "type": "t_uint256"
          },
          {
            "astId": 10002,
            "contract": "contracts/PKKTVault.sol:PKKTVault",
            "label": "totalRequesting",
            "offset": 0,
            "slot": "4",
            "type": "t_uint256"
          },
          {
            "astId": 10004,
            "contract": "contracts/PKKTVault.sol:PKKTVault",
            "label": "totalMatured",
            "offset": 0,
            "slot": "5",
            "type": "t_uint256"
          },
          {
            "astId": 10007,
            "contract": "contracts/PKKTVault.sol:PKKTVault",
            "label": "underlying",
            "offset": 0,
            "slot": "6",
            "type": "t_contract(IERC20)2287"
          },
          {
            "astId": 10009,
            "contract": "contracts/PKKTVault.sol:PKKTVault",
            "label": "decimals",
            "offset": 20,
            "slot": "6",
            "type": "t_uint8"
          }
        ],
        "numberOfBytes": "224"
      },
      "t_uint256": {
        "encoding": "inplace",
        "label": "uint256",
        "numberOfBytes": "32"
      },
      "t_uint8": {
        "encoding": "inplace",
        "label": "uint8",
        "numberOfBytes": "1"
      }
    }
  }
}