{
  "address": "0x13aA43920492c78a437B88C5DD3E3133a3B179b8",
  "abi": [
    {
      "inputs": [
        {
          "internalType": "address",
          "name": "_settler",
          "type": "address"
        },
        {
          "components": [
            {
              "internalType": "uint8",
              "name": "callOptionId",
              "type": "uint8"
            },
            {
              "internalType": "uint8",
              "name": "putOptionId",
              "type": "uint8"
            },
            {
              "internalType": "uint8",
              "name": "depositAssetAmountDecimals",
              "type": "uint8"
            },
            {
              "internalType": "uint8",
              "name": "counterPartyAssetAmountDecimals",
              "type": "uint8"
            },
            {
              "internalType": "address",
              "name": "depositAsset",
              "type": "address"
            },
            {
              "internalType": "address",
              "name": "counterPartyAsset",
              "type": "address"
            }
          ],
          "internalType": "struct StructureData.OptionPairDefinition[]",
          "name": "_optionPairDefinitions",
          "type": "tuple[]"
        }
      ],
      "stateMutability": "nonpayable",
      "type": "constructor"
    },
    {
      "anonymous": false,
      "inputs": [
        {
          "indexed": true,
          "internalType": "uint8",
          "name": "optionId",
          "type": "uint8"
        },
        {
          "indexed": true,
          "internalType": "address",
          "name": "account",
          "type": "address"
        },
        {
          "indexed": true,
          "internalType": "uint16",
          "name": "round",
          "type": "uint16"
        },
        {
          "indexed": false,
          "internalType": "uint256",
          "name": "amount",
          "type": "uint256"
        }
      ],
      "name": "Deposit",
      "type": "event"
    },
    {
      "anonymous": false,
      "inputs": [
        {
          "indexed": true,
          "internalType": "bytes32",
          "name": "role",
          "type": "bytes32"
        },
        {
          "indexed": true,
          "internalType": "bytes32",
          "name": "previousAdminRole",
          "type": "bytes32"
        },
        {
          "indexed": true,
          "internalType": "bytes32",
          "name": "newAdminRole",
          "type": "bytes32"
        }
      ],
      "name": "RoleAdminChanged",
      "type": "event"
    },
    {
      "anonymous": false,
      "inputs": [
        {
          "indexed": true,
          "internalType": "bytes32",
          "name": "role",
          "type": "bytes32"
        },
        {
          "indexed": true,
          "internalType": "address",
          "name": "account",
          "type": "address"
        },
        {
          "indexed": true,
          "internalType": "address",
          "name": "sender",
          "type": "address"
        }
      ],
      "name": "RoleGranted",
      "type": "event"
    },
    {
      "anonymous": false,
      "inputs": [
        {
          "indexed": true,
          "internalType": "bytes32",
          "name": "role",
          "type": "bytes32"
        },
        {
          "indexed": true,
          "internalType": "address",
          "name": "account",
          "type": "address"
        },
        {
          "indexed": true,
          "internalType": "address",
          "name": "sender",
          "type": "address"
        }
      ],
      "name": "RoleRevoked",
      "type": "event"
    },
    {
      "anonymous": false,
      "inputs": [
        {
          "indexed": true,
          "internalType": "uint8",
          "name": "optionId",
          "type": "uint8"
        },
        {
          "indexed": true,
          "internalType": "address",
          "name": "account",
          "type": "address"
        },
        {
          "indexed": true,
          "internalType": "address",
          "name": "asset",
          "type": "address"
        },
        {
          "indexed": false,
          "internalType": "uint256",
          "name": "amount",
          "type": "uint256"
        }
      ],
      "name": "Withdraw",
      "type": "event"
    },
    {
      "inputs": [],
      "name": "DEFAULT_ADMIN_ROLE",
      "outputs": [
        {
          "internalType": "bytes32",
          "name": "",
          "type": "bytes32"
        }
      ],
      "stateMutability": "view",
      "type": "function"
    },
    {
      "inputs": [
        {
          "components": [
            {
              "internalType": "uint8",
              "name": "callOptionId",
              "type": "uint8"
            },
            {
              "internalType": "uint8",
              "name": "putOptionId",
              "type": "uint8"
            },
            {
              "internalType": "uint8",
              "name": "depositAssetAmountDecimals",
              "type": "uint8"
            },
            {
              "internalType": "uint8",
              "name": "counterPartyAssetAmountDecimals",
              "type": "uint8"
            },
            {
              "internalType": "address",
              "name": "depositAsset",
              "type": "address"
            },
            {
              "internalType": "address",
              "name": "counterPartyAsset",
              "type": "address"
            }
          ],
          "internalType": "struct StructureData.OptionPairDefinition[]",
          "name": "_optionPairDefinitions",
          "type": "tuple[]"
        }
      ],
      "name": "addOptionPairs",
      "outputs": [],
      "stateMutability": "nonpayable",
      "type": "function"
    },
    {
      "inputs": [
        {
          "internalType": "address",
          "name": "_asset",
          "type": "address"
        }
      ],
      "name": "balanceEnough",
      "outputs": [
        {
          "internalType": "bool",
          "name": "",
          "type": "bool"
        }
      ],
      "stateMutability": "view",
      "type": "function"
    },
    {
      "inputs": [
        {
          "internalType": "address",
          "name": "_trader",
          "type": "address"
        },
        {
          "internalType": "address[]",
          "name": "_assets",
          "type": "address[]"
        }
      ],
      "name": "batchWithdrawAssets",
      "outputs": [],
      "stateMutability": "nonpayable",
      "type": "function"
    },
    {
      "inputs": [],
      "name": "canDepositEthAndUsdc",
      "outputs": [
        {
          "internalType": "bool",
          "name": "",
          "type": "bool"
        }
      ],
      "stateMutability": "view",
      "type": "function"
    },
    {
      "inputs": [],
      "name": "canDepositWbtcAndUsdc",
      "outputs": [
        {
          "internalType": "bool",
          "name": "",
          "type": "bool"
        }
      ],
      "stateMutability": "view",
      "type": "function"
    },
    {
      "inputs": [
        {
          "internalType": "uint8",
          "name": "_optionId",
          "type": "uint8"
        },
        {
          "internalType": "uint256",
          "name": "_assetToTerminate",
          "type": "uint256"
        }
      ],
      "name": "cancelWithdraw",
      "outputs": [],
      "stateMutability": "nonpayable",
      "type": "function"
    },
    {
      "inputs": [],
      "name": "currentRound",
      "outputs": [
        {
          "internalType": "uint16",
          "name": "",
          "type": "uint16"
        }
      ],
      "stateMutability": "view",
      "type": "function"
    },
    {
      "inputs": [
        {
          "internalType": "uint8",
          "name": "_optionId",
          "type": "uint8"
        },
        {
          "internalType": "uint256",
          "name": "_amount",
          "type": "uint256"
        }
      ],
      "name": "deposit",
      "outputs": [],
      "stateMutability": "nonpayable",
      "type": "function"
    },
    {
      "inputs": [
        {
          "internalType": "uint8",
          "name": "_optionId",
          "type": "uint8"
        }
      ],
      "name": "depositETH",
      "outputs": [],
      "stateMutability": "payable",
      "type": "function"
    },
    {
      "inputs": [
        {
          "internalType": "uint8",
          "name": "",
          "type": "uint8"
        }
      ],
      "name": "executionAccountingResult",
      "outputs": [
        {
          "components": [
            {
              "internalType": "uint128",
              "name": "depositAmount",
              "type": "uint128"
            },
            {
              "internalType": "uint128",
              "name": "autoRollAmount",
              "type": "uint128"
            },
            {
              "internalType": "uint128",
              "name": "autoRollPremium",
              "type": "uint128"
            },
            {
              "internalType": "uint128",
              "name": "releasedAmount",
              "type": "uint128"
            },
            {
              "internalType": "uint128",
              "name": "releasedPremium",
              "type": "uint128"
            },
            {
              "internalType": "uint128",
              "name": "autoRollCounterPartyAmount",
              "type": "uint128"
            },
            {
              "internalType": "uint128",
              "name": "autoRollCounterPartyPremium",
              "type": "uint128"
            },
            {
              "internalType": "uint128",
              "name": "releasedCounterPartyAmount",
              "type": "uint128"
            },
            {
              "internalType": "uint128",
              "name": "releasedCounterPartyPremium",
              "type": "uint128"
            },
            {
              "internalType": "bool",
              "name": "executed",
              "type": "bool"
            }
          ],
          "internalType": "struct StructureData.SettlementAccountingResult",
          "name": "callOptionResult",
          "type": "tuple"
        },
        {
          "components": [
            {
              "internalType": "uint128",
              "name": "depositAmount",
              "type": "uint128"
            },
            {
              "internalType": "uint128",
              "name": "autoRollAmount",
              "type": "uint128"
            },
            {
              "internalType": "uint128",
              "name": "autoRollPremium",
              "type": "uint128"
            },
            {
              "internalType": "uint128",
              "name": "releasedAmount",
              "type": "uint128"
            },
            {
              "internalType": "uint128",
              "name": "releasedPremium",
              "type": "uint128"
            },
            {
              "internalType": "uint128",
              "name": "autoRollCounterPartyAmount",
              "type": "uint128"
            },
            {
              "internalType": "uint128",
              "name": "autoRollCounterPartyPremium",
              "type": "uint128"
            },
            {
              "internalType": "uint128",
              "name": "releasedCounterPartyAmount",
              "type": "uint128"
            },
            {
              "internalType": "uint128",
              "name": "releasedCounterPartyPremium",
              "type": "uint128"
            },
            {
              "internalType": "bool",
              "name": "executed",
              "type": "bool"
            }
          ],
          "internalType": "struct StructureData.SettlementAccountingResult",
          "name": "putOptionResult",
          "type": "tuple"
        },
        {
          "internalType": "enum StructureData.OptionExecution",
          "name": "execute",
          "type": "uint8"
        }
      ],
      "stateMutability": "view",
      "type": "function"
    },
    {
      "inputs": [
        {
          "internalType": "uint8",
          "name": "_optionId",
          "type": "uint8"
        }
      ],
      "name": "getAccountBalance",
      "outputs": [
        {
          "components": [
            {
              "internalType": "uint128",
              "name": "pendingDepositAssetAmount",
              "type": "uint128"
            },
            {
              "internalType": "uint128",
              "name": "lockedDepositAssetAmount",
              "type": "uint128"
            },
            {
              "internalType": "uint128",
              "name": "terminatingDepositAssetAmount",
              "type": "uint128"
            },
            {
              "internalType": "uint128",
              "name": "toTerminateDepositAssetAmount",
              "type": "uint128"
            },
            {
              "internalType": "uint128",
              "name": "releasedDepositAssetAmount",
              "type": "uint128"
            },
            {
              "internalType": "uint128",
              "name": "releasedCounterPartyAssetAmount",
              "type": "uint128"
            }
          ],
          "internalType": "struct StructureData.UserBalance",
          "name": "",
          "type": "tuple"
        }
      ],
      "stateMutability": "view",
      "type": "function"
    },
    {
      "inputs": [
        {
          "internalType": "uint8",
          "name": "_optionId",
          "type": "uint8"
        }
      ],
      "name": "getOptionSnapShot",
      "outputs": [
        {
          "components": [
            {
              "internalType": "uint128",
              "name": "totalPending",
              "type": "uint128"
            },
            {
              "internalType": "uint128",
              "name": "totalLocked",
              "type": "uint128"
            },
            {
              "internalType": "uint128",
              "name": "totalTerminating",
              "type": "uint128"
            },
            {
              "internalType": "uint128",
              "name": "totalToTerminate",
              "type": "uint128"
            },
            {
              "internalType": "uint128",
              "name": "totalReleasedDeposit",
              "type": "uint128"
            },
            {
              "internalType": "uint128",
              "name": "totalReleasedCounterParty",
              "type": "uint128"
            }
          ],
          "internalType": "struct StructureData.OptionSnapshot",
          "name": "",
          "type": "tuple"
        }
      ],
      "stateMutability": "view",
      "type": "function"
    },
    {
      "inputs": [
        {
          "internalType": "uint8",
          "name": "_optionId",
          "type": "uint8"
        },
        {
          "internalType": "uint16",
          "name": "_round",
          "type": "uint16"
        }
      ],
      "name": "getOptionStateByRound",
      "outputs": [
        {
          "components": [
            {
              "internalType": "uint128",
              "name": "totalAmount",
              "type": "uint128"
            },
            {
              "internalType": "uint128",
              "name": "totalTerminate",
              "type": "uint128"
            },
            {
              "internalType": "uint128",
              "name": "strikePrice",
              "type": "uint128"
            },
            {
              "internalType": "uint16",
              "name": "round",
              "type": "uint16"
            },
            {
              "internalType": "uint16",
              "name": "premiumRate",
              "type": "uint16"
            },
            {
              "internalType": "bool",
              "name": "executed",
              "type": "bool"
            },
            {
              "internalType": "bool",
              "name": "callOrPut",
              "type": "bool"
            }
          ],
          "internalType": "struct StructureData.OptionState",
          "name": "",
          "type": "tuple"
        }
      ],
      "stateMutability": "view",
      "type": "function"
    },
    {
      "inputs": [
        {
          "internalType": "bytes32",
          "name": "role",
          "type": "bytes32"
        }
      ],
      "name": "getRoleAdmin",
      "outputs": [
        {
          "internalType": "bytes32",
          "name": "",
          "type": "bytes32"
        }
      ],
      "stateMutability": "view",
      "type": "function"
    },
    {
      "inputs": [
        {
          "internalType": "bytes32",
          "name": "role",
          "type": "bytes32"
        },
        {
          "internalType": "address",
          "name": "account",
          "type": "address"
        }
      ],
      "name": "grantRole",
      "outputs": [],
      "stateMutability": "nonpayable",
      "type": "function"
    },
    {
      "inputs": [
        {
          "internalType": "bytes32",
          "name": "role",
          "type": "bytes32"
        },
        {
          "internalType": "address",
          "name": "account",
          "type": "address"
        }
      ],
      "name": "hasRole",
      "outputs": [
        {
          "internalType": "bool",
          "name": "",
          "type": "bool"
        }
      ],
      "stateMutability": "view",
      "type": "function"
    },
    {
      "inputs": [],
      "name": "initiateSettlement",
      "outputs": [],
      "stateMutability": "nonpayable",
      "type": "function"
    },
    {
      "inputs": [
        {
          "internalType": "uint8",
          "name": "_optionId",
          "type": "uint8"
        },
        {
          "internalType": "uint256",
          "name": "_assetToTerminate",
          "type": "uint256"
        }
      ],
      "name": "initiateWithraw",
      "outputs": [],
      "stateMutability": "nonpayable",
      "type": "function"
    },
    {
      "inputs": [],
      "name": "optionPairCount",
      "outputs": [
        {
          "internalType": "uint8",
          "name": "",
          "type": "uint8"
        }
      ],
      "stateMutability": "view",
      "type": "function"
    },
    {
      "inputs": [
        {
          "internalType": "uint8",
          "name": "",
          "type": "uint8"
        }
      ],
      "name": "optionPairs",
      "outputs": [
        {
          "internalType": "uint8",
          "name": "callOptionId",
          "type": "uint8"
        },
        {
          "internalType": "uint8",
          "name": "putOptionId",
          "type": "uint8"
        },
        {
          "internalType": "uint8",
          "name": "depositAssetAmountDecimals",
          "type": "uint8"
        },
        {
          "internalType": "uint8",
          "name": "counterPartyAssetAmountDecimals",
          "type": "uint8"
        },
        {
          "internalType": "address",
          "name": "depositAsset",
          "type": "address"
        },
        {
          "internalType": "address",
          "name": "counterPartyAsset",
          "type": "address"
        }
      ],
      "stateMutability": "view",
      "type": "function"
    },
    {
      "inputs": [
        {
          "internalType": "bytes32",
          "name": "role",
          "type": "bytes32"
        },
        {
          "internalType": "address",
          "name": "account",
          "type": "address"
        }
      ],
      "name": "renounceRole",
      "outputs": [],
      "stateMutability": "nonpayable",
      "type": "function"
    },
    {
      "inputs": [
        {
          "internalType": "bytes32",
          "name": "role",
          "type": "bytes32"
        },
        {
          "internalType": "address",
          "name": "account",
          "type": "address"
        }
      ],
      "name": "revokeRole",
      "outputs": [],
      "stateMutability": "nonpayable",
      "type": "function"
    },
    {
      "inputs": [
        {
          "internalType": "uint256[]",
          "name": "_parameters",
          "type": "uint256[]"
        }
      ],
      "name": "setOptionParameters",
      "outputs": [],
      "stateMutability": "nonpayable",
      "type": "function"
    },
    {
      "inputs": [
        {
          "internalType": "enum StructureData.OptionExecution[]",
          "name": "_execution",
          "type": "uint8[]"
        }
      ],
      "name": "settle",
      "outputs": [],
      "stateMutability": "nonpayable",
      "type": "function"
    },
    {
      "inputs": [
        {
          "internalType": "address",
          "name": "",
          "type": "address"
        }
      ],
      "name": "settlementCashflowResult",
      "outputs": [
        {
          "internalType": "uint128",
          "name": "newDepositAmount",
          "type": "uint128"
        },
        {
          "internalType": "uint128",
          "name": "newReleasedAmount",
          "type": "uint128"
        },
        {
          "internalType": "int128",
          "name": "leftOverAmount",
          "type": "int128"
        },
        {
          "internalType": "address",
          "name": "contractAddress",
          "type": "address"
        }
      ],
      "stateMutability": "view",
      "type": "function"
    },
    {
      "inputs": [
        {
          "internalType": "bytes4",
          "name": "interfaceId",
          "type": "bytes4"
        }
      ],
      "name": "supportsInterface",
      "outputs": [
        {
          "internalType": "bool",
          "name": "",
          "type": "bool"
        }
      ],
      "stateMutability": "view",
      "type": "function"
    },
    {
      "inputs": [
        {
          "internalType": "uint8",
          "name": "pairId",
          "type": "uint8"
        }
      ],
      "name": "switchOptionPair",
      "outputs": [],
      "stateMutability": "nonpayable",
      "type": "function"
    },
    {
      "inputs": [],
      "name": "underSettlement",
      "outputs": [
        {
          "internalType": "bool",
          "name": "",
          "type": "bool"
        }
      ],
      "stateMutability": "view",
      "type": "function"
    },
    {
      "inputs": [
        {
          "internalType": "uint8",
          "name": "_optionId",
          "type": "uint8"
        },
        {
          "internalType": "uint256",
          "name": "_amount",
          "type": "uint256"
        },
        {
          "internalType": "address",
          "name": "_asset",
          "type": "address"
        }
      ],
      "name": "withdraw",
      "outputs": [],
      "stateMutability": "nonpayable",
      "type": "function"
    },
    {
      "inputs": [
        {
          "internalType": "address",
          "name": "_trader",
          "type": "address"
        },
        {
          "internalType": "address",
          "name": "_asset",
          "type": "address"
        }
      ],
      "name": "withdrawAsset",
      "outputs": [],
      "stateMutability": "nonpayable",
      "type": "function"
    },
    {
      "stateMutability": "payable",
      "type": "receive"
    }
  ],
  "transactionHash": "0x667b35c8e97dd2a151e22efd9ac01774139e4b9c843522ecf359333250563d25",
  "args": [
    "0x7FAa46FB04BB00de3F6D5E90d78b4a37f8E48cd4",
    [
      {
        "depositAssetAmountDecimals": 18,
        "counterPartyAssetAmountDecimals": 6,
        "depositAsset": "0x0000000000000000000000000000000000000000",
        "counterPartyAsset": "0x0f3210636461Ae2C7ADAEF4d1A8124EB0F3b63fA",
        "callOptionId": 0,
        "putOptionId": 0
      },
      {
        "depositAssetAmountDecimals": 8,
        "counterPartyAssetAmountDecimals": 6,
        "depositAsset": "0xE75e6098CE2d7F289b07ABB055321d690ed2912d",
        "counterPartyAsset": "0x0f3210636461Ae2C7ADAEF4d1A8124EB0F3b63fA",
        "callOptionId": 0,
        "putOptionId": 0
      }
    ]
  ],
  "solcInputHash": "f4f67ba8e19e0af1536913f27bfe5729",
  "bytecode": "0x60806040523480156200001157600080fd5b5060405162005f4c38038062005f4c8339810160408190526200003491620007b3565b60018055816001600160a01b0381166200004d57600080fd5b6200005a600033620000a9565b620000867f6666bf5bfee463d10a7fc50448047f8a53b7762d7e28fbc5c643182785f3fd3f82620000a9565b506200009281620000b9565b5050600a805461ffff191661010117905562000b57565b620000b5828262000444565b5050565b620000c6600033620004e4565b805160025460075460ff63010000009092048216911660005b83811015620004175760008582815181106200010b57634e487b7160e01b600052603260045260246000fd5b6020026020010151905083600262000124919062000a71565b6200013190600162000a27565b60ff168082526200014490600162000a27565b60ff1660208201528060046000866200015d8162000b08565b60ff91821683526020808401949094526040928301600020855181549587015194870151606088015160808901516001600160a01b0390811664010000000002600160201b600160c01b031992881663010000000263ff0000001994891662010000029490941663ffff0000199989166101000261ffff19909b1695891695909517999099179790971692909217171694909417845560a09094015160019093018054939092166001600160a01b03199093169290921790559094508316620002c55760808101516008600085620002358162000b08565b965060ff1660ff16815260200190815260200160002060006101000a8154816001600160a01b0302191690836001600160a01b031602179055508060a00151600860008580620002859062000b08565b965060ff1660ff16815260200190815260200160002060006101000a8154816001600160a01b0302191690836001600160a01b0316021790555062000401565b60008060005b8560ff168160ff1610156200035157608084015160ff82166000908152600860205260409020546001600160a01b03908116911614156200030b57600192505b60a084015160ff82166000908152600860205260409020546001600160a01b03908116911614156200033c57600191505b80620003488162000b08565b915050620002cb565b5081620003a857608083015160086000876200036d8162000b08565b985060ff1660ff16815260200190815260200160002060006101000a8154816001600160a01b0302191690836001600160a01b031602179055505b80620003fe5760a08301516008600087620003c38162000b08565b985060ff1660ff16815260200190815260200160002060006101000a8154816001600160a01b0302191690836001600160a01b031602179055505b50505b50806200040e8162000aea565b915050620000df565b506002805463ff0000001916630100000060ff948516021790556007805460ff1916919092161790555050565b6000828152602081815260408083206001600160a01b038516845290915290205460ff16620000b5576000828152602081815260408083206001600160a01b03851684529091529020805460ff19166001179055620004a03390565b6001600160a01b0316816001600160a01b0316837f2f8788117e7eff1d82e926ec794901d17c78024a50270940304540a733656f0d60405160405180910390a45050565b6000828152602081815260408083206001600160a01b038516845290915290205460ff16620000b5576200052e816001600160a01b031660146200058860201b620033b91760201c565b62000544836020620033b962000588821b17811c565b6040516020016200055792919062000900565b60408051601f198184030181529082905262461bcd60e51b82526200057f9160040162000979565b60405180910390fd5b606060006200059983600262000a4f565b620005a690600262000a0c565b6001600160401b03811115620005cc57634e487b7160e01b600052604160045260246000fd5b6040519080825280601f01601f191660200182016040528015620005f7576020820181803683370190505b509050600360fc1b816000815181106200062157634e487b7160e01b600052603260045260246000fd5b60200101906001600160f81b031916908160001a905350600f60fb1b816001815181106200065f57634e487b7160e01b600052603260045260246000fd5b60200101906001600160f81b031916908160001a90535060006200068584600262000a4f565b6200069290600162000a0c565b90505b60018111156200072c576f181899199a1a9b1b9c1cb0b131b232b360811b85600f1660108110620006d657634e487b7160e01b600052603260045260246000fd5b1a60f81b828281518110620006fb57634e487b7160e01b600052603260045260246000fd5b60200101906001600160f81b031916908160001a90535060049490941c93620007248162000ad0565b905062000695565b5083156200077d5760405162461bcd60e51b815260206004820181905260248201527f537472696e67733a20686578206c656e67746820696e73756666696369656e7460448201526064016200057f565b9392505050565b80516001600160a01b03811681146200079c57600080fd5b919050565b805160ff811681146200079c57600080fd5b6000806040808486031215620007c7578283fd5b620007d28462000784565b602085810151919450906001600160401b0380821115620007f1578485fd5b818701915087601f83011262000805578485fd5b8151818111156200081a576200081a62000b41565b6200082a848260051b01620009d9565b818152848101925083850160c0808402860187018c10156200084a578889fd5b8895505b83861015620008ef5780828d03121562000866578889fd5b62000870620009ae565b6200087b83620007a1565b81526200088a888401620007a1565b888201526200089b898401620007a1565b898201526060620008ae818501620007a1565b908201526080620008c184820162000784565b9082015260a0620008d484820162000784565b9082015285526001959095019493860193908101906200084e565b50979a909950975050505050505050565b7f416363657373436f6e74726f6c3a206163636f756e74200000000000000000008152600083516200093a81601785016020880162000a9d565b7001034b99036b4b9b9b4b733903937b6329607d1b60179184019182015283516200096d81602884016020880162000a9d565b01602801949350505050565b60208152600082518060208401526200099a81604085016020870162000a9d565b601f01601f19169190910160400192915050565b60405160c081016001600160401b0381118282101715620009d357620009d362000b41565b60405290565b604051601f8201601f191681016001600160401b038111828210171562000a045762000a0462000b41565b604052919050565b6000821982111562000a225762000a2262000b2b565b500190565b600060ff821660ff84168060ff0382111562000a475762000a4762000b2b565b019392505050565b600081600019048311821515161562000a6c5762000a6c62000b2b565b500290565b600060ff821660ff84168160ff048111821515161562000a955762000a9562000b2b565b029392505050565b60005b8381101562000aba57818101518382015260200162000aa0565b8381111562000aca576000848401525b50505050565b60008162000ae25762000ae262000b2b565b506000190190565b600060001982141562000b015762000b0162000b2b565b5060010190565b600060ff821660ff81141562000b225762000b2262000b2b565b60010192915050565b634e487b7160e01b600052601160045260246000fd5b634e487b7160e01b600052604160045260246000fd5b6153e58062000b676000396000f3fe6080604052600436106101dc5760003560e01c8063644d41ed1161010257806391d1485411610095578063c78b432e11610064578063c78b432e14610b9f578063d547741f14610bb4578063ddd0247514610bd4578063f4d4c9d714610c0757600080fd5b806391d14854146109e5578063a217fddf14610a05578063ac95045214610a1a578063c5cfc5be14610a3a57600080fd5b80637332655b116100d15780637332655b146108e457806377d841f71461090457806383eb772e1461091e5780638a19c8bc146109b757600080fd5b8063644d41ed14610858578063685207e4146108785780636b37e4e31461089757806371018682146108c457600080fd5b806326b516991161017a5780634dd96f86116101495780634dd96f861461037057806351fe669e1461039057806355bf621f1461078b5780636386bcc4146107ab57600080fd5b806326b51699146102f05780632f2ff15d1461031057806332b76e861461033057806336568abe1461035057600080fd5b806319162852116101b6578063191628521461025f578063222f6b831461027f578063248a9ca31461029f578063256d43d7146102dd57600080fd5b806301ffc9a7146101e857806302c178d71461021d5780630748248f1461023f57600080fd5b366101e357005b600080fd5b3480156101f457600080fd5b50610208610203366004614a61565b610c27565b60405190151581526020015b60405180910390f35b34801561022957600080fd5b5061023d6102383660046146fb565b610c5e565b005b34801561024b57600080fd5b506002546102089062010000900460ff1681565b34801561026b57600080fd5b5061023d61027a36600461487e565b610d6a565b34801561028b57600080fd5b5061023d61029a366004614c91565b6110d4565b3480156102ab57600080fd5b506102cf6102ba366004614a27565b60009081526020819052604090206001015490565b604051908152602001610214565b61023d6102eb366004614c3b565b611183565b3480156102fc57600080fd5b5061023d61030b36600461472d565b6113fe565b34801561031c57600080fd5b5061023d61032b366004614a3f565b6115ac565b34801561033c57600080fd5b5061023d61034b3660046147df565b6115d7565b34801561035c57600080fd5b5061023d61036b366004614a3f565b611d66565b34801561037c57600080fd5b5061023d61038b366004614986565b611de4565b34801561039c57600080fd5b5061077c6103ab366004614c3b565b600560205280600052604060002060009150905080600001604051806101400160405290816000820160009054906101000a90046001600160801b03166001600160801b03166001600160801b031681526020016000820160109054906101000a90046001600160801b03166001600160801b03166001600160801b031681526020016001820160009054906101000a90046001600160801b03166001600160801b03166001600160801b031681526020016001820160109054906101000a90046001600160801b03166001600160801b03166001600160801b031681526020016002820160009054906101000a90046001600160801b03166001600160801b03166001600160801b031681526020016002820160109054906101000a90046001600160801b03166001600160801b03166001600160801b031681526020016003820160009054906101000a90046001600160801b03166001600160801b03166001600160801b031681526020016003820160109054906101000a90046001600160801b03166001600160801b03166001600160801b031681526020016004820160009054906101000a90046001600160801b03166001600160801b03166001600160801b031681526020016004820160109054906101000a900460ff1615151515815250509080600501604051806101400160405290816000820160009054906101000a90046001600160801b03166001600160801b03166001600160801b031681526020016000820160109054906101000a90046001600160801b03166001600160801b03166001600160801b031681526020016001820160009054906101000a90046001600160801b03166001600160801b03166001600160801b031681526020016001820160109054906101000a90046001600160801b03166001600160801b03166001600160801b031681526020016002820160009054906101000a90046001600160801b03166001600160801b03166001600160801b031681526020016002820160109054906101000a90046001600160801b03166001600160801b03166001600160801b031681526020016003820160009054906101000a90046001600160801b03166001600160801b03166001600160801b031681526020016003820160109054906101000a90046001600160801b03166001600160801b03166001600160801b031681526020016004820160009054906101000a90046001600160801b03166001600160801b03166001600160801b031681526020016004820160109054906101000a900460ff1615151515815250509080600a0160009054906101000a900460ff16905083565b60405161021493929190614f6b565b34801561079757600080fd5b5061023d6107a6366004614cba565b611f67565b3480156107b757600080fd5b506108136107c6366004614c3b565b6004602052600090815260409020805460019091015460ff8083169261010081048216926201000082048316926301000000830416916001600160a01b03600160201b9091048116911686565b6040805160ff9788168152958716602087015293861693850193909352931660608301526001600160a01b0392831660808301529190911660a082015260c001610214565b34801561086457600080fd5b506102086108733660046146e1565b612102565b34801561088457600080fd5b50600a5461020890610100900460ff1681565b3480156108a357600080fd5b506108b76108b2366004614c3b565b6121f8565b6040516102149190614f13565b3480156108d057600080fd5b506108b76108df366004614c3b565b6122df565b3480156108f057600080fd5b5061023d6108ff366004614c91565b612380565b34801561091057600080fd5b50600a546102089060ff1681565b34801561092a57600080fd5b5061097a6109393660046146e1565b6003602052600090815260409020805460018201546002909201546001600160801b0380831693600160801b9093041691600f0b906001600160a01b031684565b604080516001600160801b039586168152949093166020850152600f9190910b918301919091526001600160a01b03166060820152608001610214565b3480156109c357600080fd5b506002546109d29061ffff1681565b60405161ffff9091168152602001610214565b3480156109f157600080fd5b50610208610a00366004614a3f565b6123ff565b348015610a1157600080fd5b506102cf600081565b348015610a2657600080fd5b5061023d610a35366004614c3b565b612428565b348015610a4657600080fd5b50610b2c610a55366004614c55565b6040805160e081018252600080825260208201819052918101829052606081018290526080810182905260a0810182905260c08101919091525060ff918216600090815260066020908152604080832061ffff9485168452600201825291829020825160e08101845281546001600160801b038082168352600160801b9182900481169483019490945260019092015492831693810193909352810483166060830152600160901b81049092166080820152600160a01b82048316151560a0820152600160a81b909104909116151560c082015290565b6040516102149190600060e0820190506001600160801b0380845116835280602085015116602084015280604085015116604084015250606083015161ffff8082166060850152806080860151166080850152505060a0830151151560a083015260c0830151151560c083015292915050565b348015610bab57600080fd5b5061023d612488565b348015610bc057600080fd5b5061023d610bcf366004614a3f565b6130dc565b348015610be057600080fd5b50600254610bf5906301000000900460ff1681565b60405160ff9091168152602001610214565b348015610c1357600080fd5b5061023d610c22366004614c91565b613102565b60006001600160e01b03198216637965db0b60e01b1480610c5857506301ffc9a760e01b6001600160e01b03198316145b92915050565b610c76600080516020615390833981519152336135a2565b6001600160a01b038116600090815260096020526040812060018101549091600f91820b90910b13610ca757600080fd5b6001810154604051631a4ca37b60e21b81526001600160a01b0380861660048301526001600160801b03600f9390930b9283166024830152841660448201527328D1E0e4460FB7e65DE364e613b3C29C0C0A0933906369328dec9060640160006040518083038186803b158015610d1d57600080fd5b505af4158015610d31573d6000803e3d6000fd5b5050506002830180546001600160801b03938416600160801b029316929092179091555060010180546001600160801b03191690555050565b610d756000336135a2565b805160025460075460ff63010000009092048216911660005b838110156110a7576000858281518110610db857634e487b7160e01b600052603260045260246000fd5b60200260200101519050836002610dcf9190615181565b610dda906001615107565b60ff16808252610deb906001615107565b60ff166020820152806004600086610e02816152f3565b60ff91821683526020808401949094526040928301600020855181549587015194870151606088015160808901516001600160a01b03908116600160201b02640100000000600160c01b031992881663010000000263ff0000001994891662010000029490941663ffff0000199989166101000261ffff19909b1695891695909517999099179790971692909217171694909417845560a09094015160019093018054939092166001600160a01b03199093169290921790559094508316610f645760808101516008600085610ed7816152f3565b965060ff1660ff16815260200190815260200160002060006101000a8154816001600160a01b0302191690836001600160a01b031602179055508060a00151600860008580610f25906152f3565b965060ff1660ff16815260200190815260200160002060006101000a8154816001600160a01b0302191690836001600160a01b03160217905550611094565b60008060005b8560ff168160ff161015610fea57608084015160ff82166000908152600860205260409020546001600160a01b0390811691161415610fa857600192505b60a084015160ff82166000908152600860205260409020546001600160a01b0390811691161415610fd857600191505b80610fe2816152f3565b915050610f6a565b508161103e5760808301516008600087611003816152f3565b985060ff1660ff16815260200190815260200160002060006101000a8154816001600160a01b0302191690836001600160a01b031602179055505b806110915760a08301516008600087611056816152f3565b985060ff1660ff16815260200190815260200160002060006101000a8154816001600160a01b0302191690836001600160a01b031602179055505b50505b508061109f816152d8565b915050610d8e565b506002805463ff0000001916630100000060ff948516021790556007805460ff1916919092161790555050565b6110dd82613606565b60ff828116600090815260066020526040908190206002549151638a229a5760e01b81526004810191909152336024820152604481018490526201000082049092161515606483015261ffff1660848201527328D1E0e4460FB7e65DE364e613b3C29C0C0A093390638a229a579060a4015b60006040518083038186803b15801561116757600080fd5b505af415801561117b573d6000803e3d6000fd5b505050505050565b808060ff166001148061119957508060ff166002145b156111f557600a5460ff166111f55760405162461bcd60e51b815260206004820152601a60248201527f63616e6e6f74206465706f73697420657468206f72207573646300000000000060448201526064015b60405180910390fd5b8060ff166003148061120a57508060ff166004145b1561126657600a54610100900460ff166112665760405162461bcd60e51b815260206004820152601b60248201527f63616e6e6f74206465706f7369742077627463206f722075736463000000000060448201526064016111ec565b60025461ffff166112a45760405162461bcd60e51b81526020600482015260086024820152670854dd185c9d195960c21b60448201526064016111ec565b600034116112b157600080fd5b6112ba82613606565b600060048160026112cc600187615272565b6112d69190615140565b60ff908116825260208201929092526040016000908120805490935090918581169116146113115760018201546001600160a01b0316611324565b8154600160201b90046001600160a01b03165b90506001600160a01b0381161561133a57600080fd5b60ff8416600090815260066020526040808220600254915163c502f99160e01b81527328D1E0e4460FB7e65DE364e613b3C29C0C0A09339363c502f99193611395939233923492909161ffff90911690600190600401614eaa565b60006040518083038186803b1580156113ad57600080fd5b505af41580156113c1573d6000803e3d6000fd5b505060025460405134815261ffff909116925033915060ff871690600080516020615370833981519152906020015b60405180910390a450505050565b611416600080516020615390833981519152336135a2565b805160005b818110156115a65760006009600085848151811061144957634e487b7160e01b600052603260045260246000fd5b60200260200101516001600160a01b03166001600160a01b03168152602001908152602001600020905060008160010160009054906101000a9004600f0b600f0b1361149457600080fd5b60008160010160009054906101000a9004600f0b90507328D1E0e4460FB7e65DE364e613b3C29C0C0A09336369328dec87836001600160801b03168887815181106114ef57634e487b7160e01b600052603260045260246000fd5b60200260200101516040518463ffffffff1660e01b8152600401611533939291906001600160a01b0393841681526020810192909252909116604082015260600190565b60006040518083038186803b15801561154b57600080fd5b505af415801561155f573d6000803e3d6000fd5b5050506002830180546001600160801b03938416600160801b029316929092179091555060010180546001600160801b03191690558061159e816152d8565b91505061141b565b50505050565b6000828152602081905260409020600101546115c881336135a2565b6115d28383613642565b505050565b6115ef600080516020615390833981519152336135a2565b60025462010000900460ff1661160457600080fd5b80516002546301000000900460ff16811461161e57600080fd5b6002546000906116349060019061ffff16615238565b905060005b828160ff161015611d4c576000848260ff168151811061166957634e487b7160e01b600052603260045260246000fd5b60209081029190910181015160ff80851660009081526004845260408082208054808516845260068752828420610100918290049095168452828420835161018081018552858152978801859052928701849052606087018490526080870184905260a0870184905260c0870184905260e08701849052860183905261012086018390526101408601839052610160860192909252929450929091906000600284018161171760018b615238565b61ffff168152602081019190915260400160002080549091506001600160801b0316156119b15784547328D1E0e4460FB7e65DE364e613b3C29C0C0A09339063aab69633908690849060019060ff6201000082048116916301000000900416828d600281111561179757634e487b7160e01b600052602160045260246000fd5b6040516001600160e01b031960e08a901b16815260048101979097526024870195909552921515604486015260ff91821660648601521660848401521460a482015260c4016101806040518083038186803b1580156117f557600080fd5b505af4158015611809573d6000803e3d6000fd5b505050506040513d601f19601f8201168201806040525081019061182d9190614a89565b8051909250156118bd576040828101518654600160201b90046001600160a01b031660009081526009602052919091205461187a91611875916001600160801b0316906136c6565b6136d2565b8554600160201b90046001600160a01b0316600090815260096020526040902080546001600160801b0319166001600160801b039290921691909117905561193b565b60608201511561193b5760a082015160018601546001600160a01b031660009081526009602052604090205461190091611875916001600160801b0316906136c6565b60018601546001600160a01b0316600090815260096020526040902080546001600160801b0319166001600160801b03929092169190911790555b600186600281111561195d57634e487b7160e01b600052602160045260246000fd5b14156119905761198b8482858860000160019054906101000a900460ff168660a0015187610160015161373f565b6119b1565b845460408301516101008401516119b192879260ff90911691859190613a73565b600060028401816119c360018c615238565b61ffff168152602081019190915260400160002080549091506001600160801b031615611c585785547328D1E0e4460FB7e65DE364e613b3C29C0C0A09339063aab69633908690849060009060ff630100000082048116916201000090041660028e6002811115611a4457634e487b7160e01b600052602160045260246000fd5b6040516001600160e01b031960e08a901b16815260048101979097526024870195909552921515604486015260ff91821660648601521660848401521460a482015260c4016101806040518083038186803b158015611aa257600080fd5b505af4158015611ab6573d6000803e3d6000fd5b505050506040513d601f19601f82011682018060405250810190611ada9190614a89565b805190935015611b5d5760408084015160018801546001600160a01b0316600090815260096020529190912054611b1e91611875916001600160801b0316906136c6565b60018701546001600160a01b0316600090815260096020526040902080546001600160801b0319166001600160801b0392909216919091179055611be3565b606083015115611be35760a08301518654600160201b90046001600160a01b0316600090815260096020526040902054611ba491611875916001600160801b0316906136c6565b8654600160201b90046001600160a01b0316600090815260096020526040902080546001600160801b0319166001600160801b03929092169190911790555b6002876002811115611c0557634e487b7160e01b600052602160045260246000fd5b1415611c3157855460a0840151610160850151611c2c92879285928a9260ff16919061373f565b611c58565b611c58848760000160019054906101000a900460ff16838660400151876101000151613a73565b6040516366aef26360e01b81526004810186905261ffff8a1660248201527328D1E0e4460FB7e65DE364e613b3C29C0C0A0933906366aef2639060440160006040518083038186803b158015611cad57600080fd5b505af4158015611cc1573d6000803e3d6000fd5b50506040516366aef26360e01b81526004810187905261ffff8c1660248201527328D1E0e4460FB7e65DE364e613b3C29C0C0A093392506366aef263915060440160006040518083038186803b158015611d1a57600080fd5b505af4158015611d2e573d6000803e3d6000fd5b50505050505050505050508080611d44906152f3565b915050611639565b50611d55613cca565b50506002805462ff00001916905550565b6001600160a01b0381163314611dd65760405162461bcd60e51b815260206004820152602f60248201527f416363657373436f6e74726f6c3a2063616e206f6e6c792072656e6f756e636560448201526e103937b632b9903337b91039b2b63360891b60648201526084016111ec565b611de08282613f47565b5050565b611dfc600080516020615390833981519152336135a2565b805160025462010000900460ff1615611e1457600080fd5b600254600161ffff90911611611e2957600080fd5b600260039054906101000a900460ff166002611e459190615181565b60ff168114611e5357600080fd5b60005b818160ff1610156115d2576000838260ff1681518110611e8657634e487b7160e01b600052603260045260246000fd5b60200260200101519050600060066000846001611ea39190615107565b60ff168152602081019190915260400160009081206002805491019190611ed09060019061ffff16615238565b61ffff16815260208101919091526040908101600020905163338dfe2f60e21b815260048101849052602481018290529091507328D1E0e4460FB7e65DE364e613b3C29C0C0A09339063ce37f8bc9060440160006040518083038186803b158015611f3a57600080fd5b505af4158015611f4e573d6000803e3d6000fd5b5050505050508080611f5f906152f3565b915050611e56565b611f7083613606565b60006004816002611f82600188615272565b611f8c9190615140565b60ff908116825260208083019390935260409182016000908120888316808352600690955292902060025483549395507328D1E0e4460FB7e65DE364e613b3C29C0C0A093394637441e8bb94929333938a9361ffff16929116148015612005575086546001600160a01b03898116600160201b90920416145b806120355750865460ff8b811661010090920416148015612035575060018701546001600160a01b038981169116145b6040516001600160e01b031960e088901b16815260048101959095526001600160a01b039093166024850152604484019190915261ffff1660648301521515608482015260a40160006040518083038186803b15801561209457600080fd5b505af41580156120a8573d6000803e3d6000fd5b505050506120b93384846000613fac565b816001600160a01b0316336001600160a01b03168560ff167f9ac0ff79dc491174b021e6532a2fc734e82751bba8672e9183a76cb994a5f65a866040516113f091815260200190565b6001600160a01b03811660009081526009602052604081206001810154600f90810b9081900b8313612138575060019392505050565b60405163b2838a7360e01b81526001600160a01b03851660048201523060248201527328D1E0e4460FB7e65DE364e613b3C29C0C0A09339063b2838a739060440160206040518083038186803b15801561219157600080fd5b505af41580156121a5573d6000803e3d6000fd5b505050506040513d601f19601f820116820180604052508101906121c99190614c23565b6121d7575060009392505050565b6121e08461409f565b6121e990615313565b81600f0b121592505050919050565b6040805160c081018252600080825260208201819052918101829052606081018290526080810182905260a081019190915260ff82811660009081526006602052604090819020600254915163c975707360e01b815260048101919091526201000082049092161515602483015261ffff1660448201527328D1E0e4460FB7e65DE364e613b3C29C0C0A09339063c9757073906064015b60c06040518083038186803b1580156122a757600080fd5b505af41580156122bb573d6000803e3d6000fd5b505050506040513d601f19601f82011682018060405250810190610c589190614b27565b6040805160c081018252600080825260208201819052918101829052606081018290526080810182905260a081019190915260ff828116600090815260066020526040908190206002549151634ed14a7f60e01b815260048101919091523360248201526201000082049092161515604483015261ffff1660648201527328D1E0e4460FB7e65DE364e613b3C29C0C0A093390634ed14a7f9060840161228f565b61238982613606565b60ff828116600090815260066020526040908190206002549151630f681f9360e31b81526004810191909152336024820152604481018490526201000082049092161515606483015261ffff1660848201527328D1E0e4460FB7e65DE364e613b3C29C0C0A093390637b40fc989060a40161114f565b6000918252602082815260408084206001600160a01b0393909316845291905290205460ff1690565b612440600080516020615390833981519152336135a2565b60ff811661245d57600a805460ff19811660ff9091161517905550565b8060ff166001141561248557600a805461ff001981166101009182900460ff16159091021790555b50565b6124a0600080516020615390833981519152336135a2565b60025462010000900460ff16156124b657600080fd5b6002546124c89061ffff1660016150c9565b6002805462ffffff191661ffff92909216919091176201000017905560005b60025460ff630100000090910481169082161015612fdc5760ff8181166000908152600460208181526040808420805490951684526006909152808320600254915163161dd97560e31b815292830181905261ffff90911660248301526001604483015291907328D1E0e4460FB7e65DE364e613b3C29C0C0A09339063b0eecba89060640160206040518083038186803b15801561258457600080fd5b505af4158015612598573d6000803e3d6000fd5b505050506040513d601f19601f820116820180604052508101906125bc9190614c09565b8354610100900460ff16600090815260066020526040808220600254915163161dd97560e31b81526004810182905261ffff9092166024830152604482018390529293507328D1E0e4460FB7e65DE364e613b3C29C0C0A09339063b0eecba89060640160206040518083038186803b15801561263757600080fd5b505af415801561264b573d6000803e3d6000fd5b505050506040513d601f19601f8201168201806040525081019061266f9190614c09565b90506001600160801b03831615612700578454600160201b90046001600160a01b03166000908152600960205260409020546126c390611875906001600160801b03600160801b90910481169086166136c6565b85546001600160a01b03600160201b90910416600090815260096020526040902080546001600160801b03928316600160801b0292169190911790555b6001600160801b038116156127865760018501546001600160a01b031660009081526009602052604090205461274e9061187590600160801b90046001600160801b039081169084166136c6565b60018601546001600160a01b0316600090815260096020526040902080546001600160801b03928316600160801b0292169190911790555b6002805461ffff161161279d575050505050612fca565b8454600254604051631bb98a3360e01b81526000927328D1E0e4460FB7e65DE364e613b3C29C0C0A093392631bb98a33926127fa928a9260019260ff62010000840481169363010000009004169161ffff16908990600401614ee1565b6101406040518083038186803b15801561281357600080fd5b505af4158015612827573d6000803e3d6000fd5b505050506040513d601f19601f8201168201806040525081019061284b9190614b42565b8654600254604051631bb98a3360e01b81529293506000927328D1E0e4460FB7e65DE364e613b3C29C0C0A093392631bb98a33926128ad928992879260ff6301000000830481169362010000909304169161ffff909116908490600401614ee1565b6101406040518083038186803b1580156128c657600080fd5b505af41580156128da573d6000803e3d6000fd5b505050506040513d601f19601f820116820180604052508101906128fe9190614b42565b9050600060405180606001604052808481526020018381526020016000600281111561293a57634e487b7160e01b600052602160045260246000fd5b90529050806005600061294e8c6003615181565b60ff168152602080820192909252604090810160002083518051818501516001600160801b03908116600160801b90810292821692909217845582850151606080850151831684029183169190911760018087019190915560808086015160a08088015186168702918616919091176002808a019190915560c08089015160e0808b015189168a029189169190911760038c0155610100808b015160048d0180546101209d8e015115158d026001600160881b0319918216938d16939093179290921790558f8f015180519f8101518b168c029f8b169f909f1760058e01558e8e0151988f01518a168b02988a169890981760068d0155948d0151938d0151881689029388169390931760078b01558b0151918b015186168702918616919091176008890155908901516009880180549a9097015115159095029890921693909216929092179590951790915591840151600a8201805492949193909260ff191691908490811115612ad057634e487b7160e01b600052602160045260246000fd5b0217905550508854600254604051631bb98a3360e01b8152600093507328D1E0e4460FB7e65DE364e613b3C29C0C0A093392631bb98a3392612b37928d9260019260ff6201000083048116936301000000909304169161ffff909116908490600401614ee1565b6101406040518083038186803b158015612b5057600080fd5b505af4158015612b64573d6000803e3d6000fd5b505050506040513d601f19601f82011682018060405250810190612b889190614b42565b604080516060810182528281526020810186905291925081016001905291508160056000612bb78d6003615181565b612bc2906001615107565b60ff168152602080820192909252604090810160002083518051818501516001600160801b03908116600160801b90810292821692909217845582850151606080850151831684029183169190911760018087019190915560808086015160a08088015186168702918616919091176002808a019190915560c08089015160e0808b015189168a029189169190911760038c0155610100808b015160048d0180546101209d8e015115158d026001600160881b0319918216938d16939093179290921790558f8f015180519f8101518b168c029f8b169f909f1760058e01558e8e0151988f01518a168b02988a169890981760068d0155948d0151938d0151881689029388169390931760078b01558b0151918b015186168702918616919091176008890155908901516009880180549a9097015115159095029890921693909216929092179590951790915591840151600a8201805492949193909260ff191691908490811115612d4457634e487b7160e01b600052602160045260246000fd5b0217905550508954600254604051631bb98a3360e01b8152600093507328D1E0e4460FB7e65DE364e613b3C29C0C0A093392631bb98a3392612dab928c92879260ff6301000000830481169362010000909304169161ffff90911690600190600401614ee1565b6101406040518083038186803b158015612dc457600080fd5b505af4158015612dd8573d6000803e3d6000fd5b505050506040513d601f19601f82011682018060405250810190612dfc9190614b42565b604080516060810182528781526020810183905291925081016002905292508260056000612e2b8e6003615181565b612e36906002615107565b60ff168152602080820192909252604090810160002083518051818501516001600160801b03908116600160801b90810292821692909217845582850151606080850151831684029183169190911760018087019190915560808086015160a08088015186168702918616919091176002808a019190915560c08089015160e0808b015189168a029189169190911760038c0155610100808b015160048d0180546101209d8e015115158d026001600160881b0319918216938d16939093179290921790558f8f015180519f8101518b168c029f8b169f909f1760058e01558e8e0151988f01518a168b02988a169890981760068d0155948d0151938d0151881689029388169390931760078b01558b0151918b015186168702918616919091176008890155908901516009880180549a9097015115159095029890921693909216929092179590951790915591840151600a8201805492949193909260ff191691908490811115612fb857634e487b7160e01b600052602160045260246000fd5b02179055505050505050505050505050505b80612fd4816152f3565b9150506124e7565b5060025461ffff1660011415612ffa576002805462ff000019169055565b6002805461ffff1614156130da5760015b600260039054906101000a900460ff1660026130279190615181565b60ff168160ff16116130c45760ff81166000908152600660205260409081902090516366aef26360e01b81526004810191909152600160248201527328D1E0e4460FB7e65DE364e613b3C29C0C0A0933906366aef2639060440160006040518083038186803b15801561309957600080fd5b505af41580156130ad573d6000803e3d6000fd5b5050505080806130bc906152f3565b91505061300b565b506130cd613cca565b6002805462ff0000191690555b565b6000828152602081905260409020600101546130f881336135a2565b6115d28383613f47565b818060ff166001148061311857508060ff166002145b1561316f57600a5460ff1661316f5760405162461bcd60e51b815260206004820152601a60248201527f63616e6e6f74206465706f73697420657468206f72207573646300000000000060448201526064016111ec565b8060ff166003148061318457508060ff166004145b156131e057600a54610100900460ff166131e05760405162461bcd60e51b815260206004820152601b60248201527f63616e6e6f74206465706f7369742077627463206f722075736463000000000060448201526064016111ec565b60025461ffff1661321e5760405162461bcd60e51b81526020600482015260086024820152670854dd185c9d195960c21b60448201526064016111ec565b600082116132585760405162461bcd60e51b815260206004820152600760248201526608585b5bdd5b9d60ca1b60448201526064016111ec565b61326183613606565b60006004816002613273600188615272565b61327d9190615140565b60ff908116825260208201929092526040016000908120805490935090918681169116146132b85760018201546001600160a01b03166132cb565b8154600160201b90046001600160a01b03165b90506001600160a01b0381166132e057600080fd5b60ff8516600090815260066020526040808220600254915163c502f99160e01b81527328D1E0e4460FB7e65DE364e613b3C29C0C0A09339363c502f9919361333b939233928b92909161ffff90911690600190600401614eaa565b60006040518083038186803b15801561335357600080fd5b505af4158015613367573d6000803e3d6000fd5b505060025460405187815261ffff909116925033915060ff8816906000805160206153708339815191529060200160405180910390a46133b26001600160a01b0382163330876141a3565b5050505050565b606060006133c8836002615162565b6133d39060026150ef565b67ffffffffffffffff8111156133f957634e487b7160e01b600052604160045260246000fd5b6040519080825280601f01601f191660200182016040528015613423576020820181803683370190505b509050600360fc1b8160008151811061344c57634e487b7160e01b600052603260045260246000fd5b60200101906001600160f81b031916908160001a905350600f60fb1b8160018151811061348957634e487b7160e01b600052603260045260246000fd5b60200101906001600160f81b031916908160001a90535060006134ad846002615162565b6134b89060016150ef565b90505b600181111561354c576f181899199a1a9b1b9c1cb0b131b232b360811b85600f16601081106134fa57634e487b7160e01b600052603260045260246000fd5b1a60f81b82828151811061351e57634e487b7160e01b600052603260045260246000fd5b60200101906001600160f81b031916908160001a90535060049490941c93613545816152c1565b90506134bb565b50831561359b5760405162461bcd60e51b815260206004820181905260248201527f537472696e67733a20686578206c656e67746820696e73756666696369656e7460448201526064016111ec565b9392505050565b6135ac82826123ff565b611de0576135c4816001600160a01b031660146133b9565b6135cf8360206133b9565b6040516020016135e0929190614e02565b60408051601f198184030181529082905262461bcd60e51b82526111ec91600401614e77565b60ff8116158015906136395750600260039054906101000a900460ff16600261362f9190615181565b60ff168160ff1611155b61248557600080fd5b61364c82826123ff565b611de0576000828152602081815260408083206001600160a01b03851684529091529020805460ff191660011790556136823390565b6001600160a01b0316816001600160a01b0316837f2f8788117e7eff1d82e926ec794901d17c78024a50270940304540a733656f0d60405160405180910390a45050565b600061359b82846150ef565b60006001600160801b0382111561373b5760405162461bcd60e51b815260206004820152602760248201527f53616665436173743a2076616c756520646f65736e27742066697420696e20316044820152663238206269747360c81b60648201526084016111ec565b5090565b8454600090613761906001600160801b0380821691600160801b9004166141fd565b60018801549091506001600160801b0316158015906137805750600082115b156137df5760018601546137bc90611875906137a8908490600160901b900461ffff16614209565b60018a01546001600160801b03169061422b565b6001880180546001600160801b0319166001600160801b03929092169190911790555b600387015460005b81811015613a6857600089600301828154811061381457634e487b7160e01b600052603260045260246000fd5b60009182526020808320909101546001600160a01b031680835260048d0190915260409091206001810154919250906001600160801b0316613857575050613a56565b60018101548a54600091613885918a916001600160801b03600160801b918290048116929190910416614246565b905080156138cc5760038201546138a990611875906001600160801b0316836136c6565b6003830180546001600160801b0319166001600160801b03929092169190911790555b60018201546000906138f1906001600160801b0380821691600160801b9004166141fd565b9050600061390089838a614246565b90508015613a415760018d01546000908190613928908590600160901b900461ffff16614209565b60028701549091506001600160801b031681106139605760028601546139599084906001600160801b031683614246565b9150613964565b8291505b7328D1E0e4460FB7e65DE364e613b3C29C0C0A093363c502f9918f8986866001600260009054906101000a900461ffff1661399f9190615238565b60006040518763ffffffff1660e01b81526004016139c296959493929190614eaa565b60006040518083038186803b1580156139da57600080fd5b505af41580156139ee573d6000803e3d6000fd5b5050600254613a0592506001915061ffff16615238565b61ffff16876001600160a01b03168e60ff1660008051602061537083398151915286604051613a3691815260200190565b60405180910390a450505b50505060010180546001600160801b03169055505b80613a60816152d8565b9150506137e7565b505050505050505050565b8254600090613a95906001600160801b0380821691600160801b9004166141fd565b600387015490915060005b81811015613cc0576000886003018281548110613acd57634e487b7160e01b600052603260045260246000fd5b60009182526020808320909101546001600160a01b031680835260048c0190915260409091206001810154919250906001600160801b0316613b10575050613cae565b60018101548854600091613b3e918a916001600160801b03600160801b918290048116929190910416614246565b90508015613b89576002820154613b699061187590600160801b90046001600160801b0316836136c6565b6002830180546001600160801b03928316600160801b0292169190911790555b6001820154600090613bba908990613bb4906001600160801b0380821691600160801b9004166141fd565b89614246565b90508015613c9a576002547328D1E0e4460FB7e65DE364e613b3C29C0C0A09339063c502f991908e9087908590600090613bfa9060019061ffff16615238565b60006040518763ffffffff1660e01b8152600401613c1d96959493929190614eaa565b60006040518083038186803b158015613c3557600080fd5b505af4158015613c49573d6000803e3d6000fd5b5050600254613c6092506001915061ffff16615238565b61ffff16846001600160a01b03168c60ff1660008051602061537083398151915284604051613c9191815260200190565b60405180910390a45b505060010180546001600160801b03169055505b80613cb8816152d8565b915050613aa0565b5050505050505050565b60005b60075460ff90811690821610156124855760ff81166000908152600860209081526040808320546001600160a01b031680845260099092528220600280549293919261ffff1614613d505781546001600160801b0380821691600160801b900416613d378561409f565b613d4191906151aa565b613d4b919061507b565b613d53565b60005b6001830154613d659190600f0b61507b565b6002830180546001600160801b0316905560405163b2838a7360e01b81526001600160a01b0385166004820152306024820152909150613e0e907328D1E0e4460FB7e65DE364e613b3C29C0C0A09339063b2838a739060440160206040518083038186803b158015613dd657600080fd5b505af4158015613dea573d6000803e3d6000fd5b505050506040513d601f19601f820116820180604052508101906118759190614c23565b6001830180546001600160801b03928316600160801b029216919091179055613e396118758461428e565b600283810180546001600160801b03199081166001600160801b0394851617909155604080516080810182528654600160801b808204871683529086166020808401918252600f89810b8587019081526001600160a01b038d811660608801818152600091825260039095529790972086519451948b16948b16860294909417845551600184018054909816910b89161790955593519390940180546001600160a01b031916939092169290921790558454909281811692613efd9204168461507b565b613f0791906151aa565b600184018054600f9290920b6001600160801b03166001600160801b03199092169190911790555050600090555080613f3f816152f3565b915050613ccd565b613f5182826123ff565b15611de0576000828152602081815260408083206001600160a01b0385168085529252808320805460ff1916905551339285917ff6391f5c32d9c69d2a47ea670b442974b53935d1edc7fd64eb21e047a839171b9190a45050565b60026001541415613fff5760405162461bcd60e51b815260206004820152601f60248201527f5265656e7472616e637947756172643a207265656e7472616e742063616c6c0060448201526064016111ec565b60026001558061401b5761401282612102565b61401b57600080fd5b604051631a4ca37b60e21b81526001600160a01b03808616600483015260248201859052831660448201527328D1E0e4460FB7e65DE364e613b3C29C0C0A0933906369328dec9060640160006040518083038186803b15801561407d57600080fd5b505af4158015614091573d6000803e3d6000fd5b505060018055505050505050565b6001600160a01b03811660009081526009602052604081206140de6140c38461428e565b6001830154600160801b90046001600160801b0316906136c6565b600282015460405163b2838a7360e01b81526001600160a01b0386166004820152306024820152614199916001600160801b038082169261419392600160801b9004909116907328D1E0e4460FB7e65DE364e613b3C29C0C0A09339063b2838a739060440160206040518083038186803b15801561415b57600080fd5b505af415801561416f573d6000803e3d6000fd5b505050506040513d601f19601f820116820180604052508101906141939190614c23565b906136c6565b61359b91906151f9565b604080516001600160a01b0385811660248301528416604482015260648082018490528251808303909101815260849091019091526020810180516001600160e01b03166323b872dd60e01b1790526115a6908590614417565b600061359b828461525b565b600061359b61271061422561421e85836150ef565b86906144e9565b906144f5565b60008183101561423c57600061359b565b61359b828461525b565b6000821580614253575081155b8061425c575083155b156142695750600061359b565b818310156142845761427f8261422586866144e9565b614286565b835b949350505050565b600080805b60025460ff6301000000909104811690821610156144105760ff8116600090815260046020526040902080546001600160a01b03868116600160201b9092041614806142ee575060018101546001600160a01b038681169116145b156143fd57805460ff8116600090815260066020526040902090614373906001600160a01b03888116600160201b909204161461433c578154600160801b90046001600160801b031661436c565b81546002805461ffff166000908152908401602052604090205461436c916001600160801b0391821691166136c6565b85906136c6565b8254610100900460ff1660009081526006602052604090206001840154919550906143f8906001600160a01b038981169116146143c1578154600160801b90046001600160801b03166143f1565b81546002805461ffff16600090815290840160205260409020546143f1916001600160801b0391821691166136c6565b86906136c6565b945050505b5080614408816152f3565b915050614293565b5092915050565b600061446c826040518060400160405280602081526020017f5361666545524332303a206c6f772d6c6576656c2063616c6c206661696c6564815250856001600160a01b03166145019092919063ffffffff16565b8051909150156115d2578080602001905181019061448a9190614a0d565b6115d25760405162461bcd60e51b815260206004820152602a60248201527f5361666545524332303a204552433230206f7065726174696f6e20646964206e6044820152691bdd081cdd58d8d9595960b21b60648201526084016111ec565b600061359b8284615162565b600061359b828461512c565b6060614286848460008585843b61455a5760405162461bcd60e51b815260206004820152601d60248201527f416464726573733a2063616c6c20746f206e6f6e2d636f6e747261637400000060448201526064016111ec565b600080866001600160a01b031685876040516145769190614de6565b60006040518083038185875af1925050503d80600081146145b3576040519150601f19603f3d011682016040523d82523d6000602084013e6145b8565b606091505b50915091506145c88282866145d3565b979650505050505050565b606083156145e257508161359b565b8251156145f25782518084602001fd5b8160405162461bcd60e51b81526004016111ec9190614e77565b80356001600160a01b038116811461462357600080fd5b919050565b8051801515811461462357600080fd5b600060c08284031215614649578081fd5b614651614fb5565b905061465c826146b9565b815261466a602083016146b9565b602082015261467b604083016146b9565b604082015261468c606083016146b9565b606082015261469d608083016146b9565b60808201526146ae60a083016146b9565b60a082015292915050565b80516001600160801b038116811461462357600080fd5b803560ff8116811461462357600080fd5b6000602082840312156146f2578081fd5b61359b8261460c565b6000806040838503121561470d578081fd5b6147168361460c565b91506147246020840161460c565b90509250929050565b6000806040838503121561473f578182fd5b6147488361460c565b915060208084013567ffffffffffffffff811115614764578283fd5b8401601f81018613614774578283fd5b803561478761478282615057565b615026565b80828252848201915084840189868560051b87010111156147a6578687fd5b8694505b838510156147cf576147bb8161460c565b8352600194909401939185019185016147aa565b5080955050505050509250929050565b600060208083850312156147f1578182fd5b823567ffffffffffffffff811115614807578283fd5b8301601f81018513614817578283fd5b803561482561478282615057565b80828252848201915084840188868560051b8701011115614844578687fd5b8694505b838510156148725780356003811061485e578788fd5b835260019490940193918501918501614848565b50979650505050505050565b60006020808385031215614890578182fd5b823567ffffffffffffffff8111156148a6578283fd5b8301601f810185136148b6578283fd5b80356148c461478282615057565b8181528381019083850160c0808502860187018a10156148e2578788fd5b8795505b848610156149785780828b0312156148fc578788fd5b614904614fb5565b61490d836146d0565b815261491a8884016146d0565b88820152604061492b8185016146d0565b90820152606061493c8482016146d0565b90820152608061494d84820161460c565b9082015260a061495e84820161460c565b9082015284526001959095019492860192908101906148e6565b509098975050505050505050565b60006020808385031215614998578182fd5b823567ffffffffffffffff8111156149ae578283fd5b8301601f810185136149be578283fd5b80356149cc61478282615057565b80828252848201915084840188868560051b87010111156149eb578687fd5b8694505b838510156148725780358352600194909401939185019185016149ef565b600060208284031215614a1e578081fd5b61359b82614628565b600060208284031215614a38578081fd5b5035919050565b60008060408385031215614a51578182fd5b823591506147246020840161460c565b600060208284031215614a72578081fd5b81356001600160e01b03198116811461359b578182fd5b60006101808284031215614a9b578081fd5b614aa3614fde565b825181526020830151602082015260408301516040820152606083015160608201526080830151608082015260a083015160a082015260c083015160c082015260e083015160e08201526101008084015181830152506101208084015181830152506101408084015181830152506101608084015181830152508091505092915050565b600060c08284031215614b38578081fd5b61359b8383614638565b60006101408284031215614b54578081fd5b614b5c615002565b614b65836146b9565b8152614b73602084016146b9565b6020820152614b84604084016146b9565b6040820152614b95606084016146b9565b6060820152614ba6608084016146b9565b6080820152614bb760a084016146b9565b60a0820152614bc860c084016146b9565b60c0820152614bd960e084016146b9565b60e0820152610100614bec8185016146b9565b90820152610120614bfe848201614628565b908201529392505050565b600060208284031215614c1a578081fd5b61359b826146b9565b600060208284031215614c34578081fd5b5051919050565b600060208284031215614c4c578081fd5b61359b826146d0565b60008060408385031215614c67578182fd5b614c70836146d0565b9150602083013561ffff81168114614c86578182fd5b809150509250929050565b60008060408385031215614ca3578182fd5b614cac836146d0565b946020939093013593505050565b600080600060608486031215614cce578081fd5b614cd7846146d0565b925060208401359150614cec6040850161460c565b90509250925092565b80516001600160801b031682526020810151614d1c60208401826001600160801b03169052565b506040810151614d3760408401826001600160801b03169052565b506060810151614d5260608401826001600160801b03169052565b506080810151614d6d60808401826001600160801b03169052565b5060a0810151614d8860a08401826001600160801b03169052565b5060c0810151614da360c08401826001600160801b03169052565b5060e0810151614dbe60e08401826001600160801b03169052565b50610100818101516001600160801b03169083015261012080820151801515828501526115a6565b60008251614df8818460208701615295565b9190910192915050565b7f416363657373436f6e74726f6c3a206163636f756e7420000000000000000000815260008351614e3a816017850160208801615295565b7001034b99036b4b9b9b4b733903937b6329607d1b6017918401918201528351614e6b816028840160208801615295565b01602801949350505050565b6020815260008251806020840152614e96816040850160208701615295565b601f01601f19169190910160400192915050565b9586526001600160a01b039490941660208601526040850192909252606084015261ffff166080830152151560a082015260c00190565b958652931515602086015260ff92831660408601529116606084015261ffff166080830152151560a082015260c00190565b60c08101610c5882846001600160801b038082511683528060208301511660208401528060408301511660408401528060608301511660608401528060808301511660808401528060a08301511660a0840152505050565b6102a08101614f7a8286614cf5565b614f88610140830185614cf5565b60038310614fa657634e487b7160e01b600052602160045260246000fd5b82610280830152949350505050565b60405160c0810167ffffffffffffffff81118282101715614fd857614fd8615359565b60405290565b604051610180810167ffffffffffffffff81118282101715614fd857614fd8615359565b604051610140810167ffffffffffffffff81118282101715614fd857614fd8615359565b604051601f8201601f1916810167ffffffffffffffff8111828210171561504f5761504f615359565b604052919050565b600067ffffffffffffffff82111561507157615071615359565b5060051b60200190565b600081600f0b83600f0b8282128260016001607f1b03038213811516156150a4576150a461532d565b8260016001607f1b03190382128116156150c0576150c061532d565b50019392505050565b600061ffff8083168185168083038211156150e6576150e661532d565b01949350505050565b600082198211156151025761510261532d565b500190565b600060ff821660ff84168060ff038211156151245761512461532d565b019392505050565b60008261513b5761513b615343565b500490565b600060ff83168061515357615153615343565b8060ff84160491505092915050565b600081600019048311821515161561517c5761517c61532d565b500290565b600060ff821660ff84168160ff04811182151516156151a2576151a261532d565b029392505050565b600081600f0b83600f0b8281128160016001607f1b0319018312811516156151d4576151d461532d565b8160016001607f1b030183138116156151ef576151ef61532d565b5090039392505050565b60008083128015600160ff1b8501841216156152175761521761532d565b6001600160ff1b03840183138116156152325761523261532d565b50500390565b600061ffff838116908316818110156152535761525361532d565b039392505050565b60008282101561526d5761526d61532d565b500390565b600060ff821660ff84168082101561528c5761528c61532d565b90039392505050565b60005b838110156152b0578181015183820152602001615298565b838111156115a65750506000910152565b6000816152d0576152d061532d565b506000190190565b60006000198214156152ec576152ec61532d565b5060010190565b600060ff821660ff81141561530a5761530a61532d565b60010192915050565b6000600160ff1b8214156153295761532961532d565b0390565b634e487b7160e01b600052601160045260246000fd5b634e487b7160e01b600052601260045260246000fd5b634e487b7160e01b600052604160045260246000fdfee963a73e630cb9812a026653bfb6b1e14ffa92f8c38b79f318f2637557ea9f126666bf5bfee463d10a7fc50448047f8a53b7762d7e28fbc5c643182785f3fd3fa2646970667358221220383d5d8a74d027f13d859e395b821f6c05831bd515edfe5a91a5e0606a83a94364736f6c63430008040033",
  "deployedBytecode": "0x6080604052600436106101dc5760003560e01c8063644d41ed1161010257806391d1485411610095578063c78b432e11610064578063c78b432e14610b9f578063d547741f14610bb4578063ddd0247514610bd4578063f4d4c9d714610c0757600080fd5b806391d14854146109e5578063a217fddf14610a05578063ac95045214610a1a578063c5cfc5be14610a3a57600080fd5b80637332655b116100d15780637332655b146108e457806377d841f71461090457806383eb772e1461091e5780638a19c8bc146109b757600080fd5b8063644d41ed14610858578063685207e4146108785780636b37e4e31461089757806371018682146108c457600080fd5b806326b516991161017a5780634dd96f86116101495780634dd96f861461037057806351fe669e1461039057806355bf621f1461078b5780636386bcc4146107ab57600080fd5b806326b51699146102f05780632f2ff15d1461031057806332b76e861461033057806336568abe1461035057600080fd5b806319162852116101b6578063191628521461025f578063222f6b831461027f578063248a9ca31461029f578063256d43d7146102dd57600080fd5b806301ffc9a7146101e857806302c178d71461021d5780630748248f1461023f57600080fd5b366101e357005b600080fd5b3480156101f457600080fd5b50610208610203366004614a61565b610c27565b60405190151581526020015b60405180910390f35b34801561022957600080fd5b5061023d6102383660046146fb565b610c5e565b005b34801561024b57600080fd5b506002546102089062010000900460ff1681565b34801561026b57600080fd5b5061023d61027a36600461487e565b610d6a565b34801561028b57600080fd5b5061023d61029a366004614c91565b6110d4565b3480156102ab57600080fd5b506102cf6102ba366004614a27565b60009081526020819052604090206001015490565b604051908152602001610214565b61023d6102eb366004614c3b565b611183565b3480156102fc57600080fd5b5061023d61030b36600461472d565b6113fe565b34801561031c57600080fd5b5061023d61032b366004614a3f565b6115ac565b34801561033c57600080fd5b5061023d61034b3660046147df565b6115d7565b34801561035c57600080fd5b5061023d61036b366004614a3f565b611d66565b34801561037c57600080fd5b5061023d61038b366004614986565b611de4565b34801561039c57600080fd5b5061077c6103ab366004614c3b565b600560205280600052604060002060009150905080600001604051806101400160405290816000820160009054906101000a90046001600160801b03166001600160801b03166001600160801b031681526020016000820160109054906101000a90046001600160801b03166001600160801b03166001600160801b031681526020016001820160009054906101000a90046001600160801b03166001600160801b03166001600160801b031681526020016001820160109054906101000a90046001600160801b03166001600160801b03166001600160801b031681526020016002820160009054906101000a90046001600160801b03166001600160801b03166001600160801b031681526020016002820160109054906101000a90046001600160801b03166001600160801b03166001600160801b031681526020016003820160009054906101000a90046001600160801b03166001600160801b03166001600160801b031681526020016003820160109054906101000a90046001600160801b03166001600160801b03166001600160801b031681526020016004820160009054906101000a90046001600160801b03166001600160801b03166001600160801b031681526020016004820160109054906101000a900460ff1615151515815250509080600501604051806101400160405290816000820160009054906101000a90046001600160801b03166001600160801b03166001600160801b031681526020016000820160109054906101000a90046001600160801b03166001600160801b03166001600160801b031681526020016001820160009054906101000a90046001600160801b03166001600160801b03166001600160801b031681526020016001820160109054906101000a90046001600160801b03166001600160801b03166001600160801b031681526020016002820160009054906101000a90046001600160801b03166001600160801b03166001600160801b031681526020016002820160109054906101000a90046001600160801b03166001600160801b03166001600160801b031681526020016003820160009054906101000a90046001600160801b03166001600160801b03166001600160801b031681526020016003820160109054906101000a90046001600160801b03166001600160801b03166001600160801b031681526020016004820160009054906101000a90046001600160801b03166001600160801b03166001600160801b031681526020016004820160109054906101000a900460ff1615151515815250509080600a0160009054906101000a900460ff16905083565b60405161021493929190614f6b565b34801561079757600080fd5b5061023d6107a6366004614cba565b611f67565b3480156107b757600080fd5b506108136107c6366004614c3b565b6004602052600090815260409020805460019091015460ff8083169261010081048216926201000082048316926301000000830416916001600160a01b03600160201b9091048116911686565b6040805160ff9788168152958716602087015293861693850193909352931660608301526001600160a01b0392831660808301529190911660a082015260c001610214565b34801561086457600080fd5b506102086108733660046146e1565b612102565b34801561088457600080fd5b50600a5461020890610100900460ff1681565b3480156108a357600080fd5b506108b76108b2366004614c3b565b6121f8565b6040516102149190614f13565b3480156108d057600080fd5b506108b76108df366004614c3b565b6122df565b3480156108f057600080fd5b5061023d6108ff366004614c91565b612380565b34801561091057600080fd5b50600a546102089060ff1681565b34801561092a57600080fd5b5061097a6109393660046146e1565b6003602052600090815260409020805460018201546002909201546001600160801b0380831693600160801b9093041691600f0b906001600160a01b031684565b604080516001600160801b039586168152949093166020850152600f9190910b918301919091526001600160a01b03166060820152608001610214565b3480156109c357600080fd5b506002546109d29061ffff1681565b60405161ffff9091168152602001610214565b3480156109f157600080fd5b50610208610a00366004614a3f565b6123ff565b348015610a1157600080fd5b506102cf600081565b348015610a2657600080fd5b5061023d610a35366004614c3b565b612428565b348015610a4657600080fd5b50610b2c610a55366004614c55565b6040805160e081018252600080825260208201819052918101829052606081018290526080810182905260a0810182905260c08101919091525060ff918216600090815260066020908152604080832061ffff9485168452600201825291829020825160e08101845281546001600160801b038082168352600160801b9182900481169483019490945260019092015492831693810193909352810483166060830152600160901b81049092166080820152600160a01b82048316151560a0820152600160a81b909104909116151560c082015290565b6040516102149190600060e0820190506001600160801b0380845116835280602085015116602084015280604085015116604084015250606083015161ffff8082166060850152806080860151166080850152505060a0830151151560a083015260c0830151151560c083015292915050565b348015610bab57600080fd5b5061023d612488565b348015610bc057600080fd5b5061023d610bcf366004614a3f565b6130dc565b348015610be057600080fd5b50600254610bf5906301000000900460ff1681565b60405160ff9091168152602001610214565b348015610c1357600080fd5b5061023d610c22366004614c91565b613102565b60006001600160e01b03198216637965db0b60e01b1480610c5857506301ffc9a760e01b6001600160e01b03198316145b92915050565b610c76600080516020615390833981519152336135a2565b6001600160a01b038116600090815260096020526040812060018101549091600f91820b90910b13610ca757600080fd5b6001810154604051631a4ca37b60e21b81526001600160a01b0380861660048301526001600160801b03600f9390930b92831660248301528416604482015273__$e36f5330ef2566ea8a183e1e27b10de643$__906369328dec9060640160006040518083038186803b158015610d1d57600080fd5b505af4158015610d31573d6000803e3d6000fd5b5050506002830180546001600160801b03938416600160801b029316929092179091555060010180546001600160801b03191690555050565b610d756000336135a2565b805160025460075460ff63010000009092048216911660005b838110156110a7576000858281518110610db857634e487b7160e01b600052603260045260246000fd5b60200260200101519050836002610dcf9190615181565b610dda906001615107565b60ff16808252610deb906001615107565b60ff166020820152806004600086610e02816152f3565b60ff91821683526020808401949094526040928301600020855181549587015194870151606088015160808901516001600160a01b03908116600160201b02640100000000600160c01b031992881663010000000263ff0000001994891662010000029490941663ffff0000199989166101000261ffff19909b1695891695909517999099179790971692909217171694909417845560a09094015160019093018054939092166001600160a01b03199093169290921790559094508316610f645760808101516008600085610ed7816152f3565b965060ff1660ff16815260200190815260200160002060006101000a8154816001600160a01b0302191690836001600160a01b031602179055508060a00151600860008580610f25906152f3565b965060ff1660ff16815260200190815260200160002060006101000a8154816001600160a01b0302191690836001600160a01b03160217905550611094565b60008060005b8560ff168160ff161015610fea57608084015160ff82166000908152600860205260409020546001600160a01b0390811691161415610fa857600192505b60a084015160ff82166000908152600860205260409020546001600160a01b0390811691161415610fd857600191505b80610fe2816152f3565b915050610f6a565b508161103e5760808301516008600087611003816152f3565b985060ff1660ff16815260200190815260200160002060006101000a8154816001600160a01b0302191690836001600160a01b031602179055505b806110915760a08301516008600087611056816152f3565b985060ff1660ff16815260200190815260200160002060006101000a8154816001600160a01b0302191690836001600160a01b031602179055505b50505b508061109f816152d8565b915050610d8e565b506002805463ff0000001916630100000060ff948516021790556007805460ff1916919092161790555050565b6110dd82613606565b60ff828116600090815260066020526040908190206002549151638a229a5760e01b81526004810191909152336024820152604481018490526201000082049092161515606483015261ffff16608482015273__$e36f5330ef2566ea8a183e1e27b10de643$__90638a229a579060a4015b60006040518083038186803b15801561116757600080fd5b505af415801561117b573d6000803e3d6000fd5b505050505050565b808060ff166001148061119957508060ff166002145b156111f557600a5460ff166111f55760405162461bcd60e51b815260206004820152601a60248201527f63616e6e6f74206465706f73697420657468206f72207573646300000000000060448201526064015b60405180910390fd5b8060ff166003148061120a57508060ff166004145b1561126657600a54610100900460ff166112665760405162461bcd60e51b815260206004820152601b60248201527f63616e6e6f74206465706f7369742077627463206f722075736463000000000060448201526064016111ec565b60025461ffff166112a45760405162461bcd60e51b81526020600482015260086024820152670854dd185c9d195960c21b60448201526064016111ec565b600034116112b157600080fd5b6112ba82613606565b600060048160026112cc600187615272565b6112d69190615140565b60ff908116825260208201929092526040016000908120805490935090918581169116146113115760018201546001600160a01b0316611324565b8154600160201b90046001600160a01b03165b90506001600160a01b0381161561133a57600080fd5b60ff8416600090815260066020526040808220600254915163c502f99160e01b815273__$e36f5330ef2566ea8a183e1e27b10de643$__9363c502f99193611395939233923492909161ffff90911690600190600401614eaa565b60006040518083038186803b1580156113ad57600080fd5b505af41580156113c1573d6000803e3d6000fd5b505060025460405134815261ffff909116925033915060ff871690600080516020615370833981519152906020015b60405180910390a450505050565b611416600080516020615390833981519152336135a2565b805160005b818110156115a65760006009600085848151811061144957634e487b7160e01b600052603260045260246000fd5b60200260200101516001600160a01b03166001600160a01b03168152602001908152602001600020905060008160010160009054906101000a9004600f0b600f0b1361149457600080fd5b60008160010160009054906101000a9004600f0b905073__$e36f5330ef2566ea8a183e1e27b10de643$__6369328dec87836001600160801b03168887815181106114ef57634e487b7160e01b600052603260045260246000fd5b60200260200101516040518463ffffffff1660e01b8152600401611533939291906001600160a01b0393841681526020810192909252909116604082015260600190565b60006040518083038186803b15801561154b57600080fd5b505af415801561155f573d6000803e3d6000fd5b5050506002830180546001600160801b03938416600160801b029316929092179091555060010180546001600160801b03191690558061159e816152d8565b91505061141b565b50505050565b6000828152602081905260409020600101546115c881336135a2565b6115d28383613642565b505050565b6115ef600080516020615390833981519152336135a2565b60025462010000900460ff1661160457600080fd5b80516002546301000000900460ff16811461161e57600080fd5b6002546000906116349060019061ffff16615238565b905060005b828160ff161015611d4c576000848260ff168151811061166957634e487b7160e01b600052603260045260246000fd5b60209081029190910181015160ff80851660009081526004845260408082208054808516845260068752828420610100918290049095168452828420835161018081018552858152978801859052928701849052606087018490526080870184905260a0870184905260c0870184905260e08701849052860183905261012086018390526101408601839052610160860192909252929450929091906000600284018161171760018b615238565b61ffff168152602081019190915260400160002080549091506001600160801b0316156119b157845473__$e36f5330ef2566ea8a183e1e27b10de643$__9063aab69633908690849060019060ff6201000082048116916301000000900416828d600281111561179757634e487b7160e01b600052602160045260246000fd5b6040516001600160e01b031960e08a901b16815260048101979097526024870195909552921515604486015260ff91821660648601521660848401521460a482015260c4016101806040518083038186803b1580156117f557600080fd5b505af4158015611809573d6000803e3d6000fd5b505050506040513d601f19601f8201168201806040525081019061182d9190614a89565b8051909250156118bd576040828101518654600160201b90046001600160a01b031660009081526009602052919091205461187a91611875916001600160801b0316906136c6565b6136d2565b8554600160201b90046001600160a01b0316600090815260096020526040902080546001600160801b0319166001600160801b039290921691909117905561193b565b60608201511561193b5760a082015160018601546001600160a01b031660009081526009602052604090205461190091611875916001600160801b0316906136c6565b60018601546001600160a01b0316600090815260096020526040902080546001600160801b0319166001600160801b03929092169190911790555b600186600281111561195d57634e487b7160e01b600052602160045260246000fd5b14156119905761198b8482858860000160019054906101000a900460ff168660a0015187610160015161373f565b6119b1565b845460408301516101008401516119b192879260ff90911691859190613a73565b600060028401816119c360018c615238565b61ffff168152602081019190915260400160002080549091506001600160801b031615611c5857855473__$e36f5330ef2566ea8a183e1e27b10de643$__9063aab69633908690849060009060ff630100000082048116916201000090041660028e6002811115611a4457634e487b7160e01b600052602160045260246000fd5b6040516001600160e01b031960e08a901b16815260048101979097526024870195909552921515604486015260ff91821660648601521660848401521460a482015260c4016101806040518083038186803b158015611aa257600080fd5b505af4158015611ab6573d6000803e3d6000fd5b505050506040513d601f19601f82011682018060405250810190611ada9190614a89565b805190935015611b5d5760408084015160018801546001600160a01b0316600090815260096020529190912054611b1e91611875916001600160801b0316906136c6565b60018701546001600160a01b0316600090815260096020526040902080546001600160801b0319166001600160801b0392909216919091179055611be3565b606083015115611be35760a08301518654600160201b90046001600160a01b0316600090815260096020526040902054611ba491611875916001600160801b0316906136c6565b8654600160201b90046001600160a01b0316600090815260096020526040902080546001600160801b0319166001600160801b03929092169190911790555b6002876002811115611c0557634e487b7160e01b600052602160045260246000fd5b1415611c3157855460a0840151610160850151611c2c92879285928a9260ff16919061373f565b611c58565b611c58848760000160019054906101000a900460ff16838660400151876101000151613a73565b6040516366aef26360e01b81526004810186905261ffff8a16602482015273__$e36f5330ef2566ea8a183e1e27b10de643$__906366aef2639060440160006040518083038186803b158015611cad57600080fd5b505af4158015611cc1573d6000803e3d6000fd5b50506040516366aef26360e01b81526004810187905261ffff8c16602482015273__$e36f5330ef2566ea8a183e1e27b10de643$__92506366aef263915060440160006040518083038186803b158015611d1a57600080fd5b505af4158015611d2e573d6000803e3d6000fd5b50505050505050505050508080611d44906152f3565b915050611639565b50611d55613cca565b50506002805462ff00001916905550565b6001600160a01b0381163314611dd65760405162461bcd60e51b815260206004820152602f60248201527f416363657373436f6e74726f6c3a2063616e206f6e6c792072656e6f756e636560448201526e103937b632b9903337b91039b2b63360891b60648201526084016111ec565b611de08282613f47565b5050565b611dfc600080516020615390833981519152336135a2565b805160025462010000900460ff1615611e1457600080fd5b600254600161ffff90911611611e2957600080fd5b600260039054906101000a900460ff166002611e459190615181565b60ff168114611e5357600080fd5b60005b818160ff1610156115d2576000838260ff1681518110611e8657634e487b7160e01b600052603260045260246000fd5b60200260200101519050600060066000846001611ea39190615107565b60ff168152602081019190915260400160009081206002805491019190611ed09060019061ffff16615238565b61ffff16815260208101919091526040908101600020905163338dfe2f60e21b8152600481018490526024810182905290915073__$e36f5330ef2566ea8a183e1e27b10de643$__9063ce37f8bc9060440160006040518083038186803b158015611f3a57600080fd5b505af4158015611f4e573d6000803e3d6000fd5b5050505050508080611f5f906152f3565b915050611e56565b611f7083613606565b60006004816002611f82600188615272565b611f8c9190615140565b60ff9081168252602080830193909352604091820160009081208883168083526006909552929020600254835493955073__$e36f5330ef2566ea8a183e1e27b10de643$__94637441e8bb94929333938a9361ffff16929116148015612005575086546001600160a01b03898116600160201b90920416145b806120355750865460ff8b811661010090920416148015612035575060018701546001600160a01b038981169116145b6040516001600160e01b031960e088901b16815260048101959095526001600160a01b039093166024850152604484019190915261ffff1660648301521515608482015260a40160006040518083038186803b15801561209457600080fd5b505af41580156120a8573d6000803e3d6000fd5b505050506120b93384846000613fac565b816001600160a01b0316336001600160a01b03168560ff167f9ac0ff79dc491174b021e6532a2fc734e82751bba8672e9183a76cb994a5f65a866040516113f091815260200190565b6001600160a01b03811660009081526009602052604081206001810154600f90810b9081900b8313612138575060019392505050565b60405163b2838a7360e01b81526001600160a01b038516600482015230602482015273__$e36f5330ef2566ea8a183e1e27b10de643$__9063b2838a739060440160206040518083038186803b15801561219157600080fd5b505af41580156121a5573d6000803e3d6000fd5b505050506040513d601f19601f820116820180604052508101906121c99190614c23565b6121d7575060009392505050565b6121e08461409f565b6121e990615313565b81600f0b121592505050919050565b6040805160c081018252600080825260208201819052918101829052606081018290526080810182905260a081019190915260ff82811660009081526006602052604090819020600254915163c975707360e01b815260048101919091526201000082049092161515602483015261ffff16604482015273__$e36f5330ef2566ea8a183e1e27b10de643$__9063c9757073906064015b60c06040518083038186803b1580156122a757600080fd5b505af41580156122bb573d6000803e3d6000fd5b505050506040513d601f19601f82011682018060405250810190610c589190614b27565b6040805160c081018252600080825260208201819052918101829052606081018290526080810182905260a081019190915260ff828116600090815260066020526040908190206002549151634ed14a7f60e01b815260048101919091523360248201526201000082049092161515604483015261ffff16606482015273__$e36f5330ef2566ea8a183e1e27b10de643$__90634ed14a7f9060840161228f565b61238982613606565b60ff828116600090815260066020526040908190206002549151630f681f9360e31b81526004810191909152336024820152604481018490526201000082049092161515606483015261ffff16608482015273__$e36f5330ef2566ea8a183e1e27b10de643$__90637b40fc989060a40161114f565b6000918252602082815260408084206001600160a01b0393909316845291905290205460ff1690565b612440600080516020615390833981519152336135a2565b60ff811661245d57600a805460ff19811660ff9091161517905550565b8060ff166001141561248557600a805461ff001981166101009182900460ff16159091021790555b50565b6124a0600080516020615390833981519152336135a2565b60025462010000900460ff16156124b657600080fd5b6002546124c89061ffff1660016150c9565b6002805462ffffff191661ffff92909216919091176201000017905560005b60025460ff630100000090910481169082161015612fdc5760ff8181166000908152600460208181526040808420805490951684526006909152808320600254915163161dd97560e31b815292830181905261ffff909116602483015260016044830152919073__$e36f5330ef2566ea8a183e1e27b10de643$__9063b0eecba89060640160206040518083038186803b15801561258457600080fd5b505af4158015612598573d6000803e3d6000fd5b505050506040513d601f19601f820116820180604052508101906125bc9190614c09565b8354610100900460ff16600090815260066020526040808220600254915163161dd97560e31b81526004810182905261ffff90921660248301526044820183905292935073__$e36f5330ef2566ea8a183e1e27b10de643$__9063b0eecba89060640160206040518083038186803b15801561263757600080fd5b505af415801561264b573d6000803e3d6000fd5b505050506040513d601f19601f8201168201806040525081019061266f9190614c09565b90506001600160801b03831615612700578454600160201b90046001600160a01b03166000908152600960205260409020546126c390611875906001600160801b03600160801b90910481169086166136c6565b85546001600160a01b03600160201b90910416600090815260096020526040902080546001600160801b03928316600160801b0292169190911790555b6001600160801b038116156127865760018501546001600160a01b031660009081526009602052604090205461274e9061187590600160801b90046001600160801b039081169084166136c6565b60018601546001600160a01b0316600090815260096020526040902080546001600160801b03928316600160801b0292169190911790555b6002805461ffff161161279d575050505050612fca565b8454600254604051631bb98a3360e01b815260009273__$e36f5330ef2566ea8a183e1e27b10de643$__92631bb98a33926127fa928a9260019260ff62010000840481169363010000009004169161ffff16908990600401614ee1565b6101406040518083038186803b15801561281357600080fd5b505af4158015612827573d6000803e3d6000fd5b505050506040513d601f19601f8201168201806040525081019061284b9190614b42565b8654600254604051631bb98a3360e01b815292935060009273__$e36f5330ef2566ea8a183e1e27b10de643$__92631bb98a33926128ad928992879260ff6301000000830481169362010000909304169161ffff909116908490600401614ee1565b6101406040518083038186803b1580156128c657600080fd5b505af41580156128da573d6000803e3d6000fd5b505050506040513d601f19601f820116820180604052508101906128fe9190614b42565b9050600060405180606001604052808481526020018381526020016000600281111561293a57634e487b7160e01b600052602160045260246000fd5b90529050806005600061294e8c6003615181565b60ff168152602080820192909252604090810160002083518051818501516001600160801b03908116600160801b90810292821692909217845582850151606080850151831684029183169190911760018087019190915560808086015160a08088015186168702918616919091176002808a019190915560c08089015160e0808b015189168a029189169190911760038c0155610100808b015160048d0180546101209d8e015115158d026001600160881b0319918216938d16939093179290921790558f8f015180519f8101518b168c029f8b169f909f1760058e01558e8e0151988f01518a168b02988a169890981760068d0155948d0151938d0151881689029388169390931760078b01558b0151918b015186168702918616919091176008890155908901516009880180549a9097015115159095029890921693909216929092179590951790915591840151600a8201805492949193909260ff191691908490811115612ad057634e487b7160e01b600052602160045260246000fd5b0217905550508854600254604051631bb98a3360e01b81526000935073__$e36f5330ef2566ea8a183e1e27b10de643$__92631bb98a3392612b37928d9260019260ff6201000083048116936301000000909304169161ffff909116908490600401614ee1565b6101406040518083038186803b158015612b5057600080fd5b505af4158015612b64573d6000803e3d6000fd5b505050506040513d601f19601f82011682018060405250810190612b889190614b42565b604080516060810182528281526020810186905291925081016001905291508160056000612bb78d6003615181565b612bc2906001615107565b60ff168152602080820192909252604090810160002083518051818501516001600160801b03908116600160801b90810292821692909217845582850151606080850151831684029183169190911760018087019190915560808086015160a08088015186168702918616919091176002808a019190915560c08089015160e0808b015189168a029189169190911760038c0155610100808b015160048d0180546101209d8e015115158d026001600160881b0319918216938d16939093179290921790558f8f015180519f8101518b168c029f8b169f909f1760058e01558e8e0151988f01518a168b02988a169890981760068d0155948d0151938d0151881689029388169390931760078b01558b0151918b015186168702918616919091176008890155908901516009880180549a9097015115159095029890921693909216929092179590951790915591840151600a8201805492949193909260ff191691908490811115612d4457634e487b7160e01b600052602160045260246000fd5b0217905550508954600254604051631bb98a3360e01b81526000935073__$e36f5330ef2566ea8a183e1e27b10de643$__92631bb98a3392612dab928c92879260ff6301000000830481169362010000909304169161ffff90911690600190600401614ee1565b6101406040518083038186803b158015612dc457600080fd5b505af4158015612dd8573d6000803e3d6000fd5b505050506040513d601f19601f82011682018060405250810190612dfc9190614b42565b604080516060810182528781526020810183905291925081016002905292508260056000612e2b8e6003615181565b612e36906002615107565b60ff168152602080820192909252604090810160002083518051818501516001600160801b03908116600160801b90810292821692909217845582850151606080850151831684029183169190911760018087019190915560808086015160a08088015186168702918616919091176002808a019190915560c08089015160e0808b015189168a029189169190911760038c0155610100808b015160048d0180546101209d8e015115158d026001600160881b0319918216938d16939093179290921790558f8f015180519f8101518b168c029f8b169f909f1760058e01558e8e0151988f01518a168b02988a169890981760068d0155948d0151938d0151881689029388169390931760078b01558b0151918b015186168702918616919091176008890155908901516009880180549a9097015115159095029890921693909216929092179590951790915591840151600a8201805492949193909260ff191691908490811115612fb857634e487b7160e01b600052602160045260246000fd5b02179055505050505050505050505050505b80612fd4816152f3565b9150506124e7565b5060025461ffff1660011415612ffa576002805462ff000019169055565b6002805461ffff1614156130da5760015b600260039054906101000a900460ff1660026130279190615181565b60ff168160ff16116130c45760ff81166000908152600660205260409081902090516366aef26360e01b815260048101919091526001602482015273__$e36f5330ef2566ea8a183e1e27b10de643$__906366aef2639060440160006040518083038186803b15801561309957600080fd5b505af41580156130ad573d6000803e3d6000fd5b5050505080806130bc906152f3565b91505061300b565b506130cd613cca565b6002805462ff0000191690555b565b6000828152602081905260409020600101546130f881336135a2565b6115d28383613f47565b818060ff166001148061311857508060ff166002145b1561316f57600a5460ff1661316f5760405162461bcd60e51b815260206004820152601a60248201527f63616e6e6f74206465706f73697420657468206f72207573646300000000000060448201526064016111ec565b8060ff166003148061318457508060ff166004145b156131e057600a54610100900460ff166131e05760405162461bcd60e51b815260206004820152601b60248201527f63616e6e6f74206465706f7369742077627463206f722075736463000000000060448201526064016111ec565b60025461ffff1661321e5760405162461bcd60e51b81526020600482015260086024820152670854dd185c9d195960c21b60448201526064016111ec565b600082116132585760405162461bcd60e51b815260206004820152600760248201526608585b5bdd5b9d60ca1b60448201526064016111ec565b61326183613606565b60006004816002613273600188615272565b61327d9190615140565b60ff908116825260208201929092526040016000908120805490935090918681169116146132b85760018201546001600160a01b03166132cb565b8154600160201b90046001600160a01b03165b90506001600160a01b0381166132e057600080fd5b60ff8516600090815260066020526040808220600254915163c502f99160e01b815273__$e36f5330ef2566ea8a183e1e27b10de643$__9363c502f9919361333b939233928b92909161ffff90911690600190600401614eaa565b60006040518083038186803b15801561335357600080fd5b505af4158015613367573d6000803e3d6000fd5b505060025460405187815261ffff909116925033915060ff8816906000805160206153708339815191529060200160405180910390a46133b26001600160a01b0382163330876141a3565b5050505050565b606060006133c8836002615162565b6133d39060026150ef565b67ffffffffffffffff8111156133f957634e487b7160e01b600052604160045260246000fd5b6040519080825280601f01601f191660200182016040528015613423576020820181803683370190505b509050600360fc1b8160008151811061344c57634e487b7160e01b600052603260045260246000fd5b60200101906001600160f81b031916908160001a905350600f60fb1b8160018151811061348957634e487b7160e01b600052603260045260246000fd5b60200101906001600160f81b031916908160001a90535060006134ad846002615162565b6134b89060016150ef565b90505b600181111561354c576f181899199a1a9b1b9c1cb0b131b232b360811b85600f16601081106134fa57634e487b7160e01b600052603260045260246000fd5b1a60f81b82828151811061351e57634e487b7160e01b600052603260045260246000fd5b60200101906001600160f81b031916908160001a90535060049490941c93613545816152c1565b90506134bb565b50831561359b5760405162461bcd60e51b815260206004820181905260248201527f537472696e67733a20686578206c656e67746820696e73756666696369656e7460448201526064016111ec565b9392505050565b6135ac82826123ff565b611de0576135c4816001600160a01b031660146133b9565b6135cf8360206133b9565b6040516020016135e0929190614e02565b60408051601f198184030181529082905262461bcd60e51b82526111ec91600401614e77565b60ff8116158015906136395750600260039054906101000a900460ff16600261362f9190615181565b60ff168160ff1611155b61248557600080fd5b61364c82826123ff565b611de0576000828152602081815260408083206001600160a01b03851684529091529020805460ff191660011790556136823390565b6001600160a01b0316816001600160a01b0316837f2f8788117e7eff1d82e926ec794901d17c78024a50270940304540a733656f0d60405160405180910390a45050565b600061359b82846150ef565b60006001600160801b0382111561373b5760405162461bcd60e51b815260206004820152602760248201527f53616665436173743a2076616c756520646f65736e27742066697420696e20316044820152663238206269747360c81b60648201526084016111ec565b5090565b8454600090613761906001600160801b0380821691600160801b9004166141fd565b60018801549091506001600160801b0316158015906137805750600082115b156137df5760018601546137bc90611875906137a8908490600160901b900461ffff16614209565b60018a01546001600160801b03169061422b565b6001880180546001600160801b0319166001600160801b03929092169190911790555b600387015460005b81811015613a6857600089600301828154811061381457634e487b7160e01b600052603260045260246000fd5b60009182526020808320909101546001600160a01b031680835260048d0190915260409091206001810154919250906001600160801b0316613857575050613a56565b60018101548a54600091613885918a916001600160801b03600160801b918290048116929190910416614246565b905080156138cc5760038201546138a990611875906001600160801b0316836136c6565b6003830180546001600160801b0319166001600160801b03929092169190911790555b60018201546000906138f1906001600160801b0380821691600160801b9004166141fd565b9050600061390089838a614246565b90508015613a415760018d01546000908190613928908590600160901b900461ffff16614209565b60028701549091506001600160801b031681106139605760028601546139599084906001600160801b031683614246565b9150613964565b8291505b73__$e36f5330ef2566ea8a183e1e27b10de643$__63c502f9918f8986866001600260009054906101000a900461ffff1661399f9190615238565b60006040518763ffffffff1660e01b81526004016139c296959493929190614eaa565b60006040518083038186803b1580156139da57600080fd5b505af41580156139ee573d6000803e3d6000fd5b5050600254613a0592506001915061ffff16615238565b61ffff16876001600160a01b03168e60ff1660008051602061537083398151915286604051613a3691815260200190565b60405180910390a450505b50505060010180546001600160801b03169055505b80613a60816152d8565b9150506137e7565b505050505050505050565b8254600090613a95906001600160801b0380821691600160801b9004166141fd565b600387015490915060005b81811015613cc0576000886003018281548110613acd57634e487b7160e01b600052603260045260246000fd5b60009182526020808320909101546001600160a01b031680835260048c0190915260409091206001810154919250906001600160801b0316613b10575050613cae565b60018101548854600091613b3e918a916001600160801b03600160801b918290048116929190910416614246565b90508015613b89576002820154613b699061187590600160801b90046001600160801b0316836136c6565b6002830180546001600160801b03928316600160801b0292169190911790555b6001820154600090613bba908990613bb4906001600160801b0380821691600160801b9004166141fd565b89614246565b90508015613c9a5760025473__$e36f5330ef2566ea8a183e1e27b10de643$__9063c502f991908e9087908590600090613bfa9060019061ffff16615238565b60006040518763ffffffff1660e01b8152600401613c1d96959493929190614eaa565b60006040518083038186803b158015613c3557600080fd5b505af4158015613c49573d6000803e3d6000fd5b5050600254613c6092506001915061ffff16615238565b61ffff16846001600160a01b03168c60ff1660008051602061537083398151915284604051613c9191815260200190565b60405180910390a45b505060010180546001600160801b03169055505b80613cb8816152d8565b915050613aa0565b5050505050505050565b60005b60075460ff90811690821610156124855760ff81166000908152600860209081526040808320546001600160a01b031680845260099092528220600280549293919261ffff1614613d505781546001600160801b0380821691600160801b900416613d378561409f565b613d4191906151aa565b613d4b919061507b565b613d53565b60005b6001830154613d659190600f0b61507b565b6002830180546001600160801b0316905560405163b2838a7360e01b81526001600160a01b0385166004820152306024820152909150613e0e9073__$e36f5330ef2566ea8a183e1e27b10de643$__9063b2838a739060440160206040518083038186803b158015613dd657600080fd5b505af4158015613dea573d6000803e3d6000fd5b505050506040513d601f19601f820116820180604052508101906118759190614c23565b6001830180546001600160801b03928316600160801b029216919091179055613e396118758461428e565b600283810180546001600160801b03199081166001600160801b0394851617909155604080516080810182528654600160801b808204871683529086166020808401918252600f89810b8587019081526001600160a01b038d811660608801818152600091825260039095529790972086519451948b16948b16860294909417845551600184018054909816910b89161790955593519390940180546001600160a01b031916939092169290921790558454909281811692613efd9204168461507b565b613f0791906151aa565b600184018054600f9290920b6001600160801b03166001600160801b03199092169190911790555050600090555080613f3f816152f3565b915050613ccd565b613f5182826123ff565b15611de0576000828152602081815260408083206001600160a01b0385168085529252808320805460ff1916905551339285917ff6391f5c32d9c69d2a47ea670b442974b53935d1edc7fd64eb21e047a839171b9190a45050565b60026001541415613fff5760405162461bcd60e51b815260206004820152601f60248201527f5265656e7472616e637947756172643a207265656e7472616e742063616c6c0060448201526064016111ec565b60026001558061401b5761401282612102565b61401b57600080fd5b604051631a4ca37b60e21b81526001600160a01b038086166004830152602482018590528316604482015273__$e36f5330ef2566ea8a183e1e27b10de643$__906369328dec9060640160006040518083038186803b15801561407d57600080fd5b505af4158015614091573d6000803e3d6000fd5b505060018055505050505050565b6001600160a01b03811660009081526009602052604081206140de6140c38461428e565b6001830154600160801b90046001600160801b0316906136c6565b600282015460405163b2838a7360e01b81526001600160a01b0386166004820152306024820152614199916001600160801b038082169261419392600160801b90049091169073__$e36f5330ef2566ea8a183e1e27b10de643$__9063b2838a739060440160206040518083038186803b15801561415b57600080fd5b505af415801561416f573d6000803e3d6000fd5b505050506040513d601f19601f820116820180604052508101906141939190614c23565b906136c6565b61359b91906151f9565b604080516001600160a01b0385811660248301528416604482015260648082018490528251808303909101815260849091019091526020810180516001600160e01b03166323b872dd60e01b1790526115a6908590614417565b600061359b828461525b565b600061359b61271061422561421e85836150ef565b86906144e9565b906144f5565b60008183101561423c57600061359b565b61359b828461525b565b6000821580614253575081155b8061425c575083155b156142695750600061359b565b818310156142845761427f8261422586866144e9565b614286565b835b949350505050565b600080805b60025460ff6301000000909104811690821610156144105760ff8116600090815260046020526040902080546001600160a01b03868116600160201b9092041614806142ee575060018101546001600160a01b038681169116145b156143fd57805460ff8116600090815260066020526040902090614373906001600160a01b03888116600160201b909204161461433c578154600160801b90046001600160801b031661436c565b81546002805461ffff166000908152908401602052604090205461436c916001600160801b0391821691166136c6565b85906136c6565b8254610100900460ff1660009081526006602052604090206001840154919550906143f8906001600160a01b038981169116146143c1578154600160801b90046001600160801b03166143f1565b81546002805461ffff16600090815290840160205260409020546143f1916001600160801b0391821691166136c6565b86906136c6565b945050505b5080614408816152f3565b915050614293565b5092915050565b600061446c826040518060400160405280602081526020017f5361666545524332303a206c6f772d6c6576656c2063616c6c206661696c6564815250856001600160a01b03166145019092919063ffffffff16565b8051909150156115d2578080602001905181019061448a9190614a0d565b6115d25760405162461bcd60e51b815260206004820152602a60248201527f5361666545524332303a204552433230206f7065726174696f6e20646964206e6044820152691bdd081cdd58d8d9595960b21b60648201526084016111ec565b600061359b8284615162565b600061359b828461512c565b6060614286848460008585843b61455a5760405162461bcd60e51b815260206004820152601d60248201527f416464726573733a2063616c6c20746f206e6f6e2d636f6e747261637400000060448201526064016111ec565b600080866001600160a01b031685876040516145769190614de6565b60006040518083038185875af1925050503d80600081146145b3576040519150601f19603f3d011682016040523d82523d6000602084013e6145b8565b606091505b50915091506145c88282866145d3565b979650505050505050565b606083156145e257508161359b565b8251156145f25782518084602001fd5b8160405162461bcd60e51b81526004016111ec9190614e77565b80356001600160a01b038116811461462357600080fd5b919050565b8051801515811461462357600080fd5b600060c08284031215614649578081fd5b614651614fb5565b905061465c826146b9565b815261466a602083016146b9565b602082015261467b604083016146b9565b604082015261468c606083016146b9565b606082015261469d608083016146b9565b60808201526146ae60a083016146b9565b60a082015292915050565b80516001600160801b038116811461462357600080fd5b803560ff8116811461462357600080fd5b6000602082840312156146f2578081fd5b61359b8261460c565b6000806040838503121561470d578081fd5b6147168361460c565b91506147246020840161460c565b90509250929050565b6000806040838503121561473f578182fd5b6147488361460c565b915060208084013567ffffffffffffffff811115614764578283fd5b8401601f81018613614774578283fd5b803561478761478282615057565b615026565b80828252848201915084840189868560051b87010111156147a6578687fd5b8694505b838510156147cf576147bb8161460c565b8352600194909401939185019185016147aa565b5080955050505050509250929050565b600060208083850312156147f1578182fd5b823567ffffffffffffffff811115614807578283fd5b8301601f81018513614817578283fd5b803561482561478282615057565b80828252848201915084840188868560051b8701011115614844578687fd5b8694505b838510156148725780356003811061485e578788fd5b835260019490940193918501918501614848565b50979650505050505050565b60006020808385031215614890578182fd5b823567ffffffffffffffff8111156148a6578283fd5b8301601f810185136148b6578283fd5b80356148c461478282615057565b8181528381019083850160c0808502860187018a10156148e2578788fd5b8795505b848610156149785780828b0312156148fc578788fd5b614904614fb5565b61490d836146d0565b815261491a8884016146d0565b88820152604061492b8185016146d0565b90820152606061493c8482016146d0565b90820152608061494d84820161460c565b9082015260a061495e84820161460c565b9082015284526001959095019492860192908101906148e6565b509098975050505050505050565b60006020808385031215614998578182fd5b823567ffffffffffffffff8111156149ae578283fd5b8301601f810185136149be578283fd5b80356149cc61478282615057565b80828252848201915084840188868560051b87010111156149eb578687fd5b8694505b838510156148725780358352600194909401939185019185016149ef565b600060208284031215614a1e578081fd5b61359b82614628565b600060208284031215614a38578081fd5b5035919050565b60008060408385031215614a51578182fd5b823591506147246020840161460c565b600060208284031215614a72578081fd5b81356001600160e01b03198116811461359b578182fd5b60006101808284031215614a9b578081fd5b614aa3614fde565b825181526020830151602082015260408301516040820152606083015160608201526080830151608082015260a083015160a082015260c083015160c082015260e083015160e08201526101008084015181830152506101208084015181830152506101408084015181830152506101608084015181830152508091505092915050565b600060c08284031215614b38578081fd5b61359b8383614638565b60006101408284031215614b54578081fd5b614b5c615002565b614b65836146b9565b8152614b73602084016146b9565b6020820152614b84604084016146b9565b6040820152614b95606084016146b9565b6060820152614ba6608084016146b9565b6080820152614bb760a084016146b9565b60a0820152614bc860c084016146b9565b60c0820152614bd960e084016146b9565b60e0820152610100614bec8185016146b9565b90820152610120614bfe848201614628565b908201529392505050565b600060208284031215614c1a578081fd5b61359b826146b9565b600060208284031215614c34578081fd5b5051919050565b600060208284031215614c4c578081fd5b61359b826146d0565b60008060408385031215614c67578182fd5b614c70836146d0565b9150602083013561ffff81168114614c86578182fd5b809150509250929050565b60008060408385031215614ca3578182fd5b614cac836146d0565b946020939093013593505050565b600080600060608486031215614cce578081fd5b614cd7846146d0565b925060208401359150614cec6040850161460c565b90509250925092565b80516001600160801b031682526020810151614d1c60208401826001600160801b03169052565b506040810151614d3760408401826001600160801b03169052565b506060810151614d5260608401826001600160801b03169052565b506080810151614d6d60808401826001600160801b03169052565b5060a0810151614d8860a08401826001600160801b03169052565b5060c0810151614da360c08401826001600160801b03169052565b5060e0810151614dbe60e08401826001600160801b03169052565b50610100818101516001600160801b03169083015261012080820151801515828501526115a6565b60008251614df8818460208701615295565b9190910192915050565b7f416363657373436f6e74726f6c3a206163636f756e7420000000000000000000815260008351614e3a816017850160208801615295565b7001034b99036b4b9b9b4b733903937b6329607d1b6017918401918201528351614e6b816028840160208801615295565b01602801949350505050565b6020815260008251806020840152614e96816040850160208701615295565b601f01601f19169190910160400192915050565b9586526001600160a01b039490941660208601526040850192909252606084015261ffff166080830152151560a082015260c00190565b958652931515602086015260ff92831660408601529116606084015261ffff166080830152151560a082015260c00190565b60c08101610c5882846001600160801b038082511683528060208301511660208401528060408301511660408401528060608301511660608401528060808301511660808401528060a08301511660a0840152505050565b6102a08101614f7a8286614cf5565b614f88610140830185614cf5565b60038310614fa657634e487b7160e01b600052602160045260246000fd5b82610280830152949350505050565b60405160c0810167ffffffffffffffff81118282101715614fd857614fd8615359565b60405290565b604051610180810167ffffffffffffffff81118282101715614fd857614fd8615359565b604051610140810167ffffffffffffffff81118282101715614fd857614fd8615359565b604051601f8201601f1916810167ffffffffffffffff8111828210171561504f5761504f615359565b604052919050565b600067ffffffffffffffff82111561507157615071615359565b5060051b60200190565b600081600f0b83600f0b8282128260016001607f1b03038213811516156150a4576150a461532d565b8260016001607f1b03190382128116156150c0576150c061532d565b50019392505050565b600061ffff8083168185168083038211156150e6576150e661532d565b01949350505050565b600082198211156151025761510261532d565b500190565b600060ff821660ff84168060ff038211156151245761512461532d565b019392505050565b60008261513b5761513b615343565b500490565b600060ff83168061515357615153615343565b8060ff84160491505092915050565b600081600019048311821515161561517c5761517c61532d565b500290565b600060ff821660ff84168160ff04811182151516156151a2576151a261532d565b029392505050565b600081600f0b83600f0b8281128160016001607f1b0319018312811516156151d4576151d461532d565b8160016001607f1b030183138116156151ef576151ef61532d565b5090039392505050565b60008083128015600160ff1b8501841216156152175761521761532d565b6001600160ff1b03840183138116156152325761523261532d565b50500390565b600061ffff838116908316818110156152535761525361532d565b039392505050565b60008282101561526d5761526d61532d565b500390565b600060ff821660ff84168082101561528c5761528c61532d565b90039392505050565b60005b838110156152b0578181015183820152602001615298565b838111156115a65750506000910152565b6000816152d0576152d061532d565b506000190190565b60006000198214156152ec576152ec61532d565b5060010190565b600060ff821660ff81141561530a5761530a61532d565b60010192915050565b6000600160ff1b8214156153295761532961532d565b0390565b634e487b7160e01b600052601160045260246000fd5b634e487b7160e01b600052601260045260246000fd5b634e487b7160e01b600052604160045260246000fdfee963a73e630cb9812a026653bfb6b1e14ffa92f8c38b79f318f2637557ea9f126666bf5bfee463d10a7fc50448047f8a53b7762d7e28fbc5c643182785f3fd3fa2646970667358221220383d5d8a74d027f13d859e395b821f6c05831bd515edfe5a91a5e0606a83a94364736f6c63430008040033",
  "libraries": {
    "OptionLifecycle": "0x28D1E0e4460FB7e65DE364e613b3C29C0C0A0933"
  },
  "devdoc": {
    "kind": "dev",
    "methods": {
      "getRoleAdmin(bytes32)": {
        "details": "Returns the admin role that controls `role`. See {grantRole} and {revokeRole}. To change a role's admin, use {_setRoleAdmin}."
      },
      "grantRole(bytes32,address)": {
        "details": "Grants `role` to `account`. If `account` had not been already granted `role`, emits a {RoleGranted} event. Requirements: - the caller must have ``role``'s admin role."
      },
      "hasRole(bytes32,address)": {
        "details": "Returns `true` if `account` has been granted `role`."
      },
      "renounceRole(bytes32,address)": {
        "details": "Revokes `role` from the calling account. Roles are often managed via {grantRole} and {revokeRole}: this function's purpose is to provide a mechanism for accounts to lose their privileges if they are compromised (such as when a trusted device is misplaced). If the calling account had been granted `role`, emits a {RoleRevoked} event. Requirements: - the caller must be `account`."
      },
      "revokeRole(bytes32,address)": {
        "details": "Revokes `role` from `account`. If `account` had been granted `role`, emits a {RoleRevoked} event. Requirements: - the caller must have ``role``'s admin role."
      },
      "supportsInterface(bytes4)": {
        "details": "See {IERC165-supportsInterface}."
      }
    },
    "version": 1
  },
  "userdoc": {
    "kind": "user",
    "methods": {},
    "version": 1
  },
  "storageLayout": {
    "storage": [
      {
        "astId": 908,
        "contract": "contracts/PKKTHodlBoosterOption.sol:PKKTHodlBoosterOption",
        "label": "_roles",
        "offset": 0,
        "slot": "0",
        "type": "t_mapping(t_bytes32,t_struct(RoleData)903_storage)"
      },
      {
        "astId": 1378,
        "contract": "contracts/PKKTHodlBoosterOption.sol:PKKTHodlBoosterOption",
        "label": "_status",
        "offset": 0,
        "slot": "1",
        "type": "t_uint256"
      },
      {
        "astId": 3585,
        "contract": "contracts/PKKTHodlBoosterOption.sol:PKKTHodlBoosterOption",
        "label": "currentRound",
        "offset": 0,
        "slot": "2",
        "type": "t_uint16"
      },
      {
        "astId": 3587,
        "contract": "contracts/PKKTHodlBoosterOption.sol:PKKTHodlBoosterOption",
        "label": "underSettlement",
        "offset": 2,
        "slot": "2",
        "type": "t_bool"
      },
      {
        "astId": 3589,
        "contract": "contracts/PKKTHodlBoosterOption.sol:PKKTHodlBoosterOption",
        "label": "optionPairCount",
        "offset": 3,
        "slot": "2",
        "type": "t_uint8"
      },
      {
        "astId": 3594,
        "contract": "contracts/PKKTHodlBoosterOption.sol:PKKTHodlBoosterOption",
        "label": "settlementCashflowResult",
        "offset": 0,
        "slot": "3",
        "type": "t_mapping(t_address,t_struct(SettlementCashflowResult)13058_storage)"
      },
      {
        "astId": 3599,
        "contract": "contracts/PKKTHodlBoosterOption.sol:PKKTHodlBoosterOption",
        "label": "optionPairs",
        "offset": 0,
        "slot": "4",
        "type": "t_mapping(t_uint8,t_struct(OptionPairDefinition)13014_storage)"
      },
      {
        "astId": 3604,
        "contract": "contracts/PKKTHodlBoosterOption.sol:PKKTHodlBoosterOption",
        "label": "executionAccountingResult",
        "offset": 0,
        "slot": "5",
        "type": "t_mapping(t_uint8,t_struct(OptionPairExecutionAccountingResult)13049_storage)"
      },
      {
        "astId": 3609,
        "contract": "contracts/PKKTHodlBoosterOption.sol:PKKTHodlBoosterOption",
        "label": "optionData",
        "offset": 0,
        "slot": "6",
        "type": "t_mapping(t_uint8,t_struct(OptionData)12958_storage)"
      },
      {
        "astId": 3611,
        "contract": "contracts/PKKTHodlBoosterOption.sol:PKKTHodlBoosterOption",
        "label": "assetCount",
        "offset": 0,
        "slot": "7",
        "type": "t_uint8"
      },
      {
        "astId": 3615,
        "contract": "contracts/PKKTHodlBoosterOption.sol:PKKTHodlBoosterOption",
        "label": "asset",
        "offset": 0,
        "slot": "8",
        "type": "t_mapping(t_uint8,t_address)"
      },
      {
        "astId": 3620,
        "contract": "contracts/PKKTHodlBoosterOption.sol:PKKTHodlBoosterOption",
        "label": "assetData",
        "offset": 0,
        "slot": "9",
        "type": "t_mapping(t_address,t_struct(AssetData)12938_storage)"
      },
      {
        "astId": 7169,
        "contract": "contracts/PKKTHodlBoosterOption.sol:PKKTHodlBoosterOption",
        "label": "canDepositEthAndUsdc",
        "offset": 0,
        "slot": "10",
        "type": "t_bool"
      },
      {
        "astId": 7171,
        "contract": "contracts/PKKTHodlBoosterOption.sol:PKKTHodlBoosterOption",
        "label": "canDepositWbtcAndUsdc",
        "offset": 1,
        "slot": "10",
        "type": "t_bool"
      }
    ],
    "types": {
      "t_address": {
        "encoding": "inplace",
        "label": "address",
        "numberOfBytes": "20"
      },
      "t_array(t_address)dyn_storage": {
        "base": "t_address",
        "encoding": "dynamic_array",
        "label": "address[]",
        "numberOfBytes": "32"
      },
      "t_bool": {
        "encoding": "inplace",
        "label": "bool",
        "numberOfBytes": "1"
      },
      "t_bytes32": {
        "encoding": "inplace",
        "label": "bytes32",
        "numberOfBytes": "32"
      },
      "t_enum(OptionExecution)13039": {
        "encoding": "inplace",
        "label": "enum StructureData.OptionExecution",
        "numberOfBytes": "1"
      },
      "t_int128": {
        "encoding": "inplace",
        "label": "int128",
        "numberOfBytes": "16"
      },
      "t_mapping(t_address,t_bool)": {
        "encoding": "mapping",
        "key": "t_address",
        "label": "mapping(address => bool)",
        "numberOfBytes": "32",
        "value": "t_bool"
      },
      "t_mapping(t_address,t_struct(AssetData)12938_storage)": {
        "encoding": "mapping",
        "key": "t_address",
        "label": "mapping(address => struct StructureData.AssetData)",
        "numberOfBytes": "32",
        "value": "t_struct(AssetData)12938_storage"
      },
      "t_mapping(t_address,t_struct(SettlementCashflowResult)13058_storage)": {
        "encoding": "mapping",
        "key": "t_address",
        "label": "mapping(address => struct StructureData.SettlementCashflowResult)",
        "numberOfBytes": "32",
        "value": "t_struct(SettlementCashflowResult)13058_storage"
      },
      "t_mapping(t_address,t_struct(UserState)12975_storage)": {
        "encoding": "mapping",
        "key": "t_address",
        "label": "mapping(address => struct StructureData.UserState)",
        "numberOfBytes": "32",
        "value": "t_struct(UserState)12975_storage"
      },
      "t_mapping(t_bytes32,t_struct(RoleData)903_storage)": {
        "encoding": "mapping",
        "key": "t_bytes32",
        "label": "mapping(bytes32 => struct AccessControl.RoleData)",
        "numberOfBytes": "32",
        "value": "t_struct(RoleData)903_storage"
      },
      "t_mapping(t_uint16,t_struct(OptionState)12900_storage)": {
        "encoding": "mapping",
        "key": "t_uint16",
        "label": "mapping(uint16 => struct StructureData.OptionState)",
        "numberOfBytes": "32",
        "value": "t_struct(OptionState)12900_storage"
      },
      "t_mapping(t_uint8,t_address)": {
        "encoding": "mapping",
        "key": "t_uint8",
        "label": "mapping(uint8 => address)",
        "numberOfBytes": "32",
        "value": "t_address"
      },
      "t_mapping(t_uint8,t_struct(OptionData)12958_storage)": {
        "encoding": "mapping",
        "key": "t_uint8",
        "label": "mapping(uint8 => struct StructureData.OptionData)",
        "numberOfBytes": "32",
        "value": "t_struct(OptionData)12958_storage"
      },
      "t_mapping(t_uint8,t_struct(OptionPairDefinition)13014_storage)": {
        "encoding": "mapping",
        "key": "t_uint8",
        "label": "mapping(uint8 => struct StructureData.OptionPairDefinition)",
        "numberOfBytes": "32",
        "value": "t_struct(OptionPairDefinition)13014_storage"
      },
      "t_mapping(t_uint8,t_struct(OptionPairExecutionAccountingResult)13049_storage)": {
        "encoding": "mapping",
        "key": "t_uint8",
        "label": "mapping(uint8 => struct StructureData.OptionPairExecutionAccountingResult)",
        "numberOfBytes": "32",
        "value": "t_struct(OptionPairExecutionAccountingResult)13049_storage"
      },
      "t_struct(AssetData)12938_storage": {
        "encoding": "inplace",
        "label": "struct StructureData.AssetData",
        "members": [
          {
            "astId": 12927,
            "contract": "contracts/PKKTHodlBoosterOption.sol:PKKTHodlBoosterOption",
            "label": "releasedAmount",
            "offset": 0,
            "slot": "0",
            "type": "t_uint128"
          },
          {
            "astId": 12929,
            "contract": "contracts/PKKTHodlBoosterOption.sol:PKKTHodlBoosterOption",
            "label": "depositAmount",
            "offset": 16,
            "slot": "0",
            "type": "t_uint128"
          },
          {
            "astId": 12931,
            "contract": "contracts/PKKTHodlBoosterOption.sol:PKKTHodlBoosterOption",
            "label": "leftOverAmount",
            "offset": 0,
            "slot": "1",
            "type": "t_int128"
          },
          {
            "astId": 12933,
            "contract": "contracts/PKKTHodlBoosterOption.sol:PKKTHodlBoosterOption",
            "label": "balanceAfterSettle",
            "offset": 16,
            "slot": "1",
            "type": "t_uint128"
          },
          {
            "astId": 12935,
            "contract": "contracts/PKKTHodlBoosterOption.sol:PKKTHodlBoosterOption",
            "label": "withdrawableAfterSettle",
            "offset": 0,
            "slot": "2",
            "type": "t_uint128"
          },
          {
            "astId": 12937,
            "contract": "contracts/PKKTHodlBoosterOption.sol:PKKTHodlBoosterOption",
            "label": "traderWithdrawn",
            "offset": 16,
            "slot": "2",
            "type": "t_uint128"
          }
        ],
        "numberOfBytes": "96"
      },
      "t_struct(OptionData)12958_storage": {
        "encoding": "inplace",
        "label": "struct StructureData.OptionData",
        "members": [
          {
            "astId": 12940,
            "contract": "contracts/PKKTHodlBoosterOption.sol:PKKTHodlBoosterOption",
            "label": "totalReleasedDepositAssetAmount",
            "offset": 0,
            "slot": "0",
            "type": "t_uint128"
          },
          {
            "astId": 12942,
            "contract": "contracts/PKKTHodlBoosterOption.sol:PKKTHodlBoosterOption",
            "label": "totalReleasedCounterPartyAssetAmount",
            "offset": 16,
            "slot": "0",
            "type": "t_uint128"
          },
          {
            "astId": 12944,
            "contract": "contracts/PKKTHodlBoosterOption.sol:PKKTHodlBoosterOption",
            "label": "assetToTerminateForNextRound",
            "offset": 0,
            "slot": "1",
            "type": "t_uint128"
          },
          {
            "astId": 12949,
            "contract": "contracts/PKKTHodlBoosterOption.sol:PKKTHodlBoosterOption",
            "label": "optionStates",
            "offset": 0,
            "slot": "2",
            "type": "t_mapping(t_uint16,t_struct(OptionState)12900_storage)"
          },
          {
            "astId": 12952,
            "contract": "contracts/PKKTHodlBoosterOption.sol:PKKTHodlBoosterOption",
            "label": "usersInvolved",
            "offset": 0,
            "slot": "3",
            "type": "t_array(t_address)dyn_storage"
          },
          {
            "astId": 12957,
            "contract": "contracts/PKKTHodlBoosterOption.sol:PKKTHodlBoosterOption",
            "label": "userStates",
            "offset": 0,
            "slot": "4",
            "type": "t_mapping(t_address,t_struct(UserState)12975_storage)"
          }
        ],
        "numberOfBytes": "160"
      },
      "t_struct(OptionPairDefinition)13014_storage": {
        "encoding": "inplace",
        "label": "struct StructureData.OptionPairDefinition",
        "members": [
          {
            "astId": 13003,
            "contract": "contracts/PKKTHodlBoosterOption.sol:PKKTHodlBoosterOption",
            "label": "callOptionId",
            "offset": 0,
            "slot": "0",
            "type": "t_uint8"
          },
          {
            "astId": 13005,
            "contract": "contracts/PKKTHodlBoosterOption.sol:PKKTHodlBoosterOption",
            "label": "putOptionId",
            "offset": 1,
            "slot": "0",
            "type": "t_uint8"
          },
          {
            "astId": 13007,
            "contract": "contracts/PKKTHodlBoosterOption.sol:PKKTHodlBoosterOption",
            "label": "depositAssetAmountDecimals",
            "offset": 2,
            "slot": "0",
            "type": "t_uint8"
          },
          {
            "astId": 13009,
            "contract": "contracts/PKKTHodlBoosterOption.sol:PKKTHodlBoosterOption",
            "label": "counterPartyAssetAmountDecimals",
            "offset": 3,
            "slot": "0",
            "type": "t_uint8"
          },
          {
            "astId": 13011,
            "contract": "contracts/PKKTHodlBoosterOption.sol:PKKTHodlBoosterOption",
            "label": "depositAsset",
            "offset": 4,
            "slot": "0",
            "type": "t_address"
          },
          {
            "astId": 13013,
            "contract": "contracts/PKKTHodlBoosterOption.sol:PKKTHodlBoosterOption",
            "label": "counterPartyAsset",
            "offset": 0,
            "slot": "1",
            "type": "t_address"
          }
        ],
        "numberOfBytes": "64"
      },
      "t_struct(OptionPairExecutionAccountingResult)13049_storage": {
        "encoding": "inplace",
        "label": "struct StructureData.OptionPairExecutionAccountingResult",
        "members": [
          {
            "astId": 13042,
            "contract": "contracts/PKKTHodlBoosterOption.sol:PKKTHodlBoosterOption",
            "label": "callOptionResult",
            "offset": 0,
            "slot": "0",
            "type": "t_struct(SettlementAccountingResult)13035_storage"
          },
          {
            "astId": 13045,
            "contract": "contracts/PKKTHodlBoosterOption.sol:PKKTHodlBoosterOption",
            "label": "putOptionResult",
            "offset": 0,
            "slot": "5",
            "type": "t_struct(SettlementAccountingResult)13035_storage"
          },
          {
            "astId": 13048,
            "contract": "contracts/PKKTHodlBoosterOption.sol:PKKTHodlBoosterOption",
            "label": "execute",
            "offset": 0,
            "slot": "10",
            "type": "t_enum(OptionExecution)13039"
          }
        ],
        "numberOfBytes": "352"
      },
      "t_struct(OptionState)12900_storage": {
        "encoding": "inplace",
        "label": "struct StructureData.OptionState",
        "members": [
          {
            "astId": 12887,
            "contract": "contracts/PKKTHodlBoosterOption.sol:PKKTHodlBoosterOption",
            "label": "totalAmount",
            "offset": 0,
            "slot": "0",
            "type": "t_uint128"
          },
          {
            "astId": 12889,
            "contract": "contracts/PKKTHodlBoosterOption.sol:PKKTHodlBoosterOption",
            "label": "totalTerminate",
            "offset": 16,
            "slot": "0",
            "type": "t_uint128"
          },
          {
            "astId": 12891,
            "contract": "contracts/PKKTHodlBoosterOption.sol:PKKTHodlBoosterOption",
            "label": "strikePrice",
            "offset": 0,
            "slot": "1",
            "type": "t_uint128"
          },
          {
            "astId": 12893,
            "contract": "contracts/PKKTHodlBoosterOption.sol:PKKTHodlBoosterOption",
            "label": "round",
            "offset": 16,
            "slot": "1",
            "type": "t_uint16"
          },
          {
            "astId": 12895,
            "contract": "contracts/PKKTHodlBoosterOption.sol:PKKTHodlBoosterOption",
            "label": "premiumRate",
            "offset": 18,
            "slot": "1",
            "type": "t_uint16"
          },
          {
            "astId": 12897,
            "contract": "contracts/PKKTHodlBoosterOption.sol:PKKTHodlBoosterOption",
            "label": "executed",
            "offset": 20,
            "slot": "1",
            "type": "t_bool"
          },
          {
            "astId": 12899,
            "contract": "contracts/PKKTHodlBoosterOption.sol:PKKTHodlBoosterOption",
            "label": "callOrPut",
            "offset": 21,
            "slot": "1",
            "type": "t_bool"
          }
        ],
        "numberOfBytes": "64"
      },
      "t_struct(RoleData)903_storage": {
        "encoding": "inplace",
        "label": "struct AccessControl.RoleData",
        "members": [
          {
            "astId": 900,
            "contract": "contracts/PKKTHodlBoosterOption.sol:PKKTHodlBoosterOption",
            "label": "members",
            "offset": 0,
            "slot": "0",
            "type": "t_mapping(t_address,t_bool)"
          },
          {
            "astId": 902,
            "contract": "contracts/PKKTHodlBoosterOption.sol:PKKTHodlBoosterOption",
            "label": "adminRole",
            "offset": 0,
            "slot": "1",
            "type": "t_bytes32"
          }
        ],
        "numberOfBytes": "64"
      },
      "t_struct(SettlementAccountingResult)13035_storage": {
        "encoding": "inplace",
        "label": "struct StructureData.SettlementAccountingResult",
        "members": [
          {
            "astId": 13016,
            "contract": "contracts/PKKTHodlBoosterOption.sol:PKKTHodlBoosterOption",
            "label": "depositAmount",
            "offset": 0,
            "slot": "0",
            "type": "t_uint128"
          },
          {
            "astId": 13018,
            "contract": "contracts/PKKTHodlBoosterOption.sol:PKKTHodlBoosterOption",
            "label": "autoRollAmount",
            "offset": 16,
            "slot": "0",
            "type": "t_uint128"
          },
          {
            "astId": 13020,
            "contract": "contracts/PKKTHodlBoosterOption.sol:PKKTHodlBoosterOption",
            "label": "autoRollPremium",
            "offset": 0,
            "slot": "1",
            "type": "t_uint128"
          },
          {
            "astId": 13022,
            "contract": "contracts/PKKTHodlBoosterOption.sol:PKKTHodlBoosterOption",
            "label": "releasedAmount",
            "offset": 16,
            "slot": "1",
            "type": "t_uint128"
          },
          {
            "astId": 13024,
            "contract": "contracts/PKKTHodlBoosterOption.sol:PKKTHodlBoosterOption",
            "label": "releasedPremium",
            "offset": 0,
            "slot": "2",
            "type": "t_uint128"
          },
          {
            "astId": 13026,
            "contract": "contracts/PKKTHodlBoosterOption.sol:PKKTHodlBoosterOption",
            "label": "autoRollCounterPartyAmount",
            "offset": 16,
            "slot": "2",
            "type": "t_uint128"
          },
          {
            "astId": 13028,
            "contract": "contracts/PKKTHodlBoosterOption.sol:PKKTHodlBoosterOption",
            "label": "autoRollCounterPartyPremium",
            "offset": 0,
            "slot": "3",
            "type": "t_uint128"
          },
          {
            "astId": 13030,
            "contract": "contracts/PKKTHodlBoosterOption.sol:PKKTHodlBoosterOption",
            "label": "releasedCounterPartyAmount",
            "offset": 16,
            "slot": "3",
            "type": "t_uint128"
          },
          {
            "astId": 13032,
            "contract": "contracts/PKKTHodlBoosterOption.sol:PKKTHodlBoosterOption",
            "label": "releasedCounterPartyPremium",
            "offset": 0,
            "slot": "4",
            "type": "t_uint128"
          },
          {
            "astId": 13034,
            "contract": "contracts/PKKTHodlBoosterOption.sol:PKKTHodlBoosterOption",
            "label": "executed",
            "offset": 16,
            "slot": "4",
            "type": "t_bool"
          }
        ],
        "numberOfBytes": "160"
      },
      "t_struct(SettlementCashflowResult)13058_storage": {
        "encoding": "inplace",
        "label": "struct StructureData.SettlementCashflowResult",
        "members": [
          {
            "astId": 13051,
            "contract": "contracts/PKKTHodlBoosterOption.sol:PKKTHodlBoosterOption",
            "label": "newDepositAmount",
            "offset": 0,
            "slot": "0",
            "type": "t_uint128"
          },
          {
            "astId": 13053,
            "contract": "contracts/PKKTHodlBoosterOption.sol:PKKTHodlBoosterOption",
            "label": "newReleasedAmount",
            "offset": 16,
            "slot": "0",
            "type": "t_uint128"
          },
          {
            "astId": 13055,
            "contract": "contracts/PKKTHodlBoosterOption.sol:PKKTHodlBoosterOption",
            "label": "leftOverAmount",
            "offset": 0,
            "slot": "1",
            "type": "t_int128"
          },
          {
            "astId": 13057,
            "contract": "contracts/PKKTHodlBoosterOption.sol:PKKTHodlBoosterOption",
            "label": "contractAddress",
            "offset": 0,
            "slot": "2",
            "type": "t_address"
          }
        ],
        "numberOfBytes": "96"
      },
      "t_struct(UserState)12975_storage": {
        "encoding": "inplace",
        "label": "struct StructureData.UserState",
        "members": [
          {
            "astId": 12960,
            "contract": "contracts/PKKTHodlBoosterOption.sol:PKKTHodlBoosterOption",
            "label": "pendingAsset",
            "offset": 0,
            "slot": "0",
            "type": "t_uint128"
          },
          {
            "astId": 12962,
            "contract": "contracts/PKKTHodlBoosterOption.sol:PKKTHodlBoosterOption",
            "label": "tempLocked",
            "offset": 16,
            "slot": "0",
            "type": "t_uint128"
          },
          {
            "astId": 12964,
            "contract": "contracts/PKKTHodlBoosterOption.sol:PKKTHodlBoosterOption",
            "label": "ongoingAsset",
            "offset": 0,
            "slot": "1",
            "type": "t_uint128"
          },
          {
            "astId": 12966,
            "contract": "contracts/PKKTHodlBoosterOption.sol:PKKTHodlBoosterOption",
            "label": "assetToTerminate",
            "offset": 16,
            "slot": "1",
            "type": "t_uint128"
          },
          {
            "astId": 12968,
            "contract": "contracts/PKKTHodlBoosterOption.sol:PKKTHodlBoosterOption",
            "label": "assetToTerminateForNextRound",
            "offset": 0,
            "slot": "2",
            "type": "t_uint128"
          },
          {
            "astId": 12970,
            "contract": "contracts/PKKTHodlBoosterOption.sol:PKKTHodlBoosterOption",
            "label": "releasedDepositAssetAmount",
            "offset": 16,
            "slot": "2",
            "type": "t_uint128"
          },
          {
            "astId": 12972,
            "contract": "contracts/PKKTHodlBoosterOption.sol:PKKTHodlBoosterOption",
            "label": "releasedCounterPartyAssetAmount",
            "offset": 0,
            "slot": "3",
            "type": "t_uint128"
          },
          {
            "astId": 12974,
            "contract": "contracts/PKKTHodlBoosterOption.sol:PKKTHodlBoosterOption",
            "label": "hasState",
            "offset": 16,
            "slot": "3",
            "type": "t_bool"
          }
        ],
        "numberOfBytes": "128"
      },
      "t_uint128": {
        "encoding": "inplace",
        "label": "uint128",
        "numberOfBytes": "16"
      },
      "t_uint16": {
        "encoding": "inplace",
        "label": "uint16",
        "numberOfBytes": "2"
      },
      "t_uint256": {
        "encoding": "inplace",
        "label": "uint256",
        "numberOfBytes": "32"
      },
      "t_uint8": {
        "encoding": "inplace",
        "label": "uint8",
        "numberOfBytes": "1"
      }
    }
  }
}