{
  "address": "0xfA34663A848f43700920D782bBfB12Bef7f5B31B",
  "abi": [
    {
      "inputs": [
        {
          "internalType": "address",
          "name": "_settler",
          "type": "address"
        },
        {
          "components": [
            {
              "internalType": "uint8",
              "name": "callOptionId",
              "type": "uint8"
            },
            {
              "internalType": "uint8",
              "name": "putOptionId",
              "type": "uint8"
            },
            {
              "internalType": "uint8",
              "name": "depositAssetAmountDecimals",
              "type": "uint8"
            },
            {
              "internalType": "uint8",
              "name": "counterPartyAssetAmountDecimals",
              "type": "uint8"
            },
            {
              "internalType": "address",
              "name": "depositAsset",
              "type": "address"
            },
            {
              "internalType": "address",
              "name": "counterPartyAsset",
              "type": "address"
            }
          ],
          "internalType": "struct StructureData.OptionPairDefinition[]",
          "name": "_optionPairDefinitions",
          "type": "tuple[]"
        }
      ],
      "stateMutability": "nonpayable",
      "type": "constructor"
    },
    {
      "anonymous": false,
      "inputs": [
        {
          "indexed": true,
          "internalType": "uint8",
          "name": "optionId",
          "type": "uint8"
        },
        {
          "indexed": true,
          "internalType": "address",
          "name": "account",
          "type": "address"
        },
        {
          "indexed": true,
          "internalType": "uint16",
          "name": "round",
          "type": "uint16"
        },
        {
          "indexed": false,
          "internalType": "uint256",
          "name": "amount",
          "type": "uint256"
        }
      ],
      "name": "Deposit",
      "type": "event"
    },
    {
      "anonymous": false,
      "inputs": [
        {
          "indexed": true,
          "internalType": "address",
          "name": "previousOwner",
          "type": "address"
        },
        {
          "indexed": true,
          "internalType": "address",
          "name": "newOwner",
          "type": "address"
        }
      ],
      "name": "OwnershipTransferred",
      "type": "event"
    },
    {
      "anonymous": false,
      "inputs": [
        {
          "indexed": true,
          "internalType": "address",
          "name": "previousSettler",
          "type": "address"
        },
        {
          "indexed": true,
          "internalType": "address",
          "name": "newSettler",
          "type": "address"
        }
      ],
      "name": "SettlerChanged",
      "type": "event"
    },
    {
      "anonymous": false,
      "inputs": [
        {
          "indexed": true,
          "internalType": "uint8",
          "name": "optionId",
          "type": "uint8"
        },
        {
          "indexed": true,
          "internalType": "address",
          "name": "account",
          "type": "address"
        },
        {
          "indexed": true,
          "internalType": "address",
          "name": "asset",
          "type": "address"
        },
        {
          "indexed": false,
          "internalType": "uint256",
          "name": "amount",
          "type": "uint256"
        }
      ],
      "name": "Withdraw",
      "type": "event"
    },
    {
      "inputs": [
        {
          "components": [
            {
              "internalType": "uint8",
              "name": "callOptionId",
              "type": "uint8"
            },
            {
              "internalType": "uint8",
              "name": "putOptionId",
              "type": "uint8"
            },
            {
              "internalType": "uint8",
              "name": "depositAssetAmountDecimals",
              "type": "uint8"
            },
            {
              "internalType": "uint8",
              "name": "counterPartyAssetAmountDecimals",
              "type": "uint8"
            },
            {
              "internalType": "address",
              "name": "depositAsset",
              "type": "address"
            },
            {
              "internalType": "address",
              "name": "counterPartyAsset",
              "type": "address"
            }
          ],
          "internalType": "struct StructureData.OptionPairDefinition[]",
          "name": "_optionPairDefinitions",
          "type": "tuple[]"
        }
      ],
      "name": "addOptionPairs",
      "outputs": [],
      "stateMutability": "nonpayable",
      "type": "function"
    },
    {
      "inputs": [
        {
          "internalType": "address",
          "name": "_asset",
          "type": "address"
        }
      ],
      "name": "balanceEnough",
      "outputs": [
        {
          "internalType": "bool",
          "name": "",
          "type": "bool"
        }
      ],
      "stateMutability": "view",
      "type": "function"
    },
    {
      "inputs": [
        {
          "internalType": "address",
          "name": "_trader",
          "type": "address"
        },
        {
          "internalType": "address[]",
          "name": "_assets",
          "type": "address[]"
        }
      ],
      "name": "batchWithdrawAssets",
      "outputs": [],
      "stateMutability": "nonpayable",
      "type": "function"
    },
    {
      "inputs": [],
      "name": "canDepositEthAndUsdc",
      "outputs": [
        {
          "internalType": "bool",
          "name": "",
          "type": "bool"
        }
      ],
      "stateMutability": "view",
      "type": "function"
    },
    {
      "inputs": [],
      "name": "canDepositWbtcAndUsdc",
      "outputs": [
        {
          "internalType": "bool",
          "name": "",
          "type": "bool"
        }
      ],
      "stateMutability": "view",
      "type": "function"
    },
    {
      "inputs": [
        {
          "internalType": "uint8",
          "name": "_optionId",
          "type": "uint8"
        },
        {
          "internalType": "uint256",
          "name": "_assetToTerminate",
          "type": "uint256"
        }
      ],
      "name": "cancelWithdraw",
      "outputs": [],
      "stateMutability": "nonpayable",
      "type": "function"
    },
    {
      "inputs": [],
      "name": "currentRound",
      "outputs": [
        {
          "internalType": "uint16",
          "name": "",
          "type": "uint16"
        }
      ],
      "stateMutability": "view",
      "type": "function"
    },
    {
      "inputs": [
        {
          "internalType": "uint8",
          "name": "_optionId",
          "type": "uint8"
        },
        {
          "internalType": "uint256",
          "name": "_amount",
          "type": "uint256"
        }
      ],
      "name": "deposit",
      "outputs": [],
      "stateMutability": "nonpayable",
      "type": "function"
    },
    {
      "inputs": [
        {
          "internalType": "uint8",
          "name": "_optionId",
          "type": "uint8"
        }
      ],
      "name": "depositETH",
      "outputs": [],
      "stateMutability": "payable",
      "type": "function"
    },
    {
      "inputs": [
        {
          "internalType": "uint8",
          "name": "",
          "type": "uint8"
        }
      ],
      "name": "executionAccountingResult",
      "outputs": [
        {
          "components": [
            {
              "internalType": "uint128",
              "name": "depositAmount",
              "type": "uint128"
            },
            {
              "internalType": "uint128",
              "name": "autoRollAmount",
              "type": "uint128"
            },
            {
              "internalType": "uint128",
              "name": "autoRollPremium",
              "type": "uint128"
            },
            {
              "internalType": "uint128",
              "name": "releasedAmount",
              "type": "uint128"
            },
            {
              "internalType": "uint128",
              "name": "releasedPremium",
              "type": "uint128"
            },
            {
              "internalType": "uint128",
              "name": "autoRollCounterPartyAmount",
              "type": "uint128"
            },
            {
              "internalType": "uint128",
              "name": "autoRollCounterPartyPremium",
              "type": "uint128"
            },
            {
              "internalType": "uint128",
              "name": "releasedCounterPartyAmount",
              "type": "uint128"
            },
            {
              "internalType": "uint128",
              "name": "releasedCounterPartyPremium",
              "type": "uint128"
            },
            {
              "internalType": "bool",
              "name": "executed",
              "type": "bool"
            }
          ],
          "internalType": "struct StructureData.SettlementAccountingResult",
          "name": "callOptionResult",
          "type": "tuple"
        },
        {
          "components": [
            {
              "internalType": "uint128",
              "name": "depositAmount",
              "type": "uint128"
            },
            {
              "internalType": "uint128",
              "name": "autoRollAmount",
              "type": "uint128"
            },
            {
              "internalType": "uint128",
              "name": "autoRollPremium",
              "type": "uint128"
            },
            {
              "internalType": "uint128",
              "name": "releasedAmount",
              "type": "uint128"
            },
            {
              "internalType": "uint128",
              "name": "releasedPremium",
              "type": "uint128"
            },
            {
              "internalType": "uint128",
              "name": "autoRollCounterPartyAmount",
              "type": "uint128"
            },
            {
              "internalType": "uint128",
              "name": "autoRollCounterPartyPremium",
              "type": "uint128"
            },
            {
              "internalType": "uint128",
              "name": "releasedCounterPartyAmount",
              "type": "uint128"
            },
            {
              "internalType": "uint128",
              "name": "releasedCounterPartyPremium",
              "type": "uint128"
            },
            {
              "internalType": "bool",
              "name": "executed",
              "type": "bool"
            }
          ],
          "internalType": "struct StructureData.SettlementAccountingResult",
          "name": "putOptionResult",
          "type": "tuple"
        },
        {
          "internalType": "enum StructureData.OptionExecution",
          "name": "execute",
          "type": "uint8"
        }
      ],
      "stateMutability": "view",
      "type": "function"
    },
    {
      "inputs": [
        {
          "internalType": "uint8",
          "name": "_optionId",
          "type": "uint8"
        }
      ],
      "name": "getAccountBalance",
      "outputs": [
        {
          "components": [
            {
              "internalType": "uint128",
              "name": "pendingDepositAssetAmount",
              "type": "uint128"
            },
            {
              "internalType": "uint128",
              "name": "lockedDepositAssetAmount",
              "type": "uint128"
            },
            {
              "internalType": "uint128",
              "name": "terminatingDepositAssetAmount",
              "type": "uint128"
            },
            {
              "internalType": "uint128",
              "name": "toTerminateDepositAssetAmount",
              "type": "uint128"
            },
            {
              "internalType": "uint128",
              "name": "releasedDepositAssetAmount",
              "type": "uint128"
            },
            {
              "internalType": "uint128",
              "name": "releasedCounterPartyAssetAmount",
              "type": "uint128"
            }
          ],
          "internalType": "struct StructureData.UserBalance",
          "name": "",
          "type": "tuple"
        }
      ],
      "stateMutability": "view",
      "type": "function"
    },
    {
      "inputs": [
        {
          "internalType": "uint8",
          "name": "_optionId",
          "type": "uint8"
        }
      ],
      "name": "getOptionSnapShot",
      "outputs": [
        {
          "components": [
            {
              "internalType": "uint128",
              "name": "totalPending",
              "type": "uint128"
            },
            {
              "internalType": "uint128",
              "name": "totalLocked",
              "type": "uint128"
            },
            {
              "internalType": "uint128",
              "name": "totalTerminating",
              "type": "uint128"
            },
            {
              "internalType": "uint128",
              "name": "totalToTerminate",
              "type": "uint128"
            },
            {
              "internalType": "uint128",
              "name": "totalReleasedDeposit",
              "type": "uint128"
            },
            {
              "internalType": "uint128",
              "name": "totalReleasedCounterParty",
              "type": "uint128"
            }
          ],
          "internalType": "struct StructureData.OptionSnapshot",
          "name": "",
          "type": "tuple"
        }
      ],
      "stateMutability": "view",
      "type": "function"
    },
    {
      "inputs": [
        {
          "internalType": "uint8",
          "name": "_optionId",
          "type": "uint8"
        },
        {
          "internalType": "uint16",
          "name": "_round",
          "type": "uint16"
        }
      ],
      "name": "getOptionStateByRound",
      "outputs": [
        {
          "components": [
            {
              "internalType": "uint128",
              "name": "totalAmount",
              "type": "uint128"
            },
            {
              "internalType": "uint128",
              "name": "totalTerminate",
              "type": "uint128"
            },
            {
              "internalType": "uint128",
              "name": "strikePrice",
              "type": "uint128"
            },
            {
              "internalType": "uint16",
              "name": "round",
              "type": "uint16"
            },
            {
              "internalType": "uint16",
              "name": "premiumRate",
              "type": "uint16"
            },
            {
              "internalType": "bool",
              "name": "executed",
              "type": "bool"
            },
            {
              "internalType": "bool",
              "name": "callOrPut",
              "type": "bool"
            }
          ],
          "internalType": "struct StructureData.OptionState",
          "name": "",
          "type": "tuple"
        }
      ],
      "stateMutability": "view",
      "type": "function"
    },
    {
      "inputs": [],
      "name": "initiateSettlement",
      "outputs": [],
      "stateMutability": "nonpayable",
      "type": "function"
    },
    {
      "inputs": [
        {
          "internalType": "uint8",
          "name": "_optionId",
          "type": "uint8"
        },
        {
          "internalType": "uint256",
          "name": "_assetToTerminate",
          "type": "uint256"
        }
      ],
      "name": "initiateWithraw",
      "outputs": [],
      "stateMutability": "nonpayable",
      "type": "function"
    },
    {
      "inputs": [],
      "name": "optionPairCount",
      "outputs": [
        {
          "internalType": "uint8",
          "name": "",
          "type": "uint8"
        }
      ],
      "stateMutability": "view",
      "type": "function"
    },
    {
      "inputs": [
        {
          "internalType": "uint8",
          "name": "",
          "type": "uint8"
        }
      ],
      "name": "optionPairs",
      "outputs": [
        {
          "internalType": "uint8",
          "name": "callOptionId",
          "type": "uint8"
        },
        {
          "internalType": "uint8",
          "name": "putOptionId",
          "type": "uint8"
        },
        {
          "internalType": "uint8",
          "name": "depositAssetAmountDecimals",
          "type": "uint8"
        },
        {
          "internalType": "uint8",
          "name": "counterPartyAssetAmountDecimals",
          "type": "uint8"
        },
        {
          "internalType": "address",
          "name": "depositAsset",
          "type": "address"
        },
        {
          "internalType": "address",
          "name": "counterPartyAsset",
          "type": "address"
        }
      ],
      "stateMutability": "view",
      "type": "function"
    },
    {
      "inputs": [],
      "name": "owner",
      "outputs": [
        {
          "internalType": "address",
          "name": "",
          "type": "address"
        }
      ],
      "stateMutability": "view",
      "type": "function"
    },
    {
      "inputs": [],
      "name": "renounceOwnership",
      "outputs": [],
      "stateMutability": "nonpayable",
      "type": "function"
    },
    {
      "inputs": [
        {
          "internalType": "uint256[]",
          "name": "_parameters",
          "type": "uint256[]"
        }
      ],
      "name": "setOptionParameters",
      "outputs": [],
      "stateMutability": "nonpayable",
      "type": "function"
    },
    {
      "inputs": [
        {
          "internalType": "address",
          "name": "_settler",
          "type": "address"
        }
      ],
      "name": "setSettler",
      "outputs": [],
      "stateMutability": "nonpayable",
      "type": "function"
    },
    {
      "inputs": [
        {
          "internalType": "enum StructureData.OptionExecution[]",
          "name": "_execution",
          "type": "uint8[]"
        }
      ],
      "name": "settle",
      "outputs": [],
      "stateMutability": "nonpayable",
      "type": "function"
    },
    {
      "inputs": [
        {
          "internalType": "address",
          "name": "",
          "type": "address"
        }
      ],
      "name": "settlementCashflowResult",
      "outputs": [
        {
          "internalType": "uint128",
          "name": "newDepositAmount",
          "type": "uint128"
        },
        {
          "internalType": "uint128",
          "name": "newReleasedAmount",
          "type": "uint128"
        },
        {
          "internalType": "int128",
          "name": "leftOverAmount",
          "type": "int128"
        },
        {
          "internalType": "address",
          "name": "contractAddress",
          "type": "address"
        }
      ],
      "stateMutability": "view",
      "type": "function"
    },
    {
      "inputs": [
        {
          "internalType": "uint8",
          "name": "pairId",
          "type": "uint8"
        }
      ],
      "name": "switchOptionPair",
      "outputs": [],
      "stateMutability": "nonpayable",
      "type": "function"
    },
    {
      "inputs": [
        {
          "internalType": "address",
          "name": "newOwner",
          "type": "address"
        }
      ],
      "name": "transferOwnership",
      "outputs": [],
      "stateMutability": "nonpayable",
      "type": "function"
    },
    {
      "inputs": [],
      "name": "underSettlement",
      "outputs": [
        {
          "internalType": "bool",
          "name": "",
          "type": "bool"
        }
      ],
      "stateMutability": "view",
      "type": "function"
    },
    {
      "inputs": [
        {
          "internalType": "uint8",
          "name": "_optionId",
          "type": "uint8"
        },
        {
          "internalType": "uint256",
          "name": "_amount",
          "type": "uint256"
        },
        {
          "internalType": "address",
          "name": "_asset",
          "type": "address"
        }
      ],
      "name": "withdraw",
      "outputs": [],
      "stateMutability": "nonpayable",
      "type": "function"
    },
    {
      "inputs": [
        {
          "internalType": "address",
          "name": "_trader",
          "type": "address"
        },
        {
          "internalType": "address",
          "name": "_asset",
          "type": "address"
        }
      ],
      "name": "withdrawAsset",
      "outputs": [],
      "stateMutability": "nonpayable",
      "type": "function"
    },
    {
      "stateMutability": "payable",
      "type": "receive"
    }
  ],
  "transactionHash": "0xc26d0a7ccb1f2b3f49f115c16ac721ecea38cbb554c89215af04d0af5f58815d",
  "args": [
    "0x0B1983a488Bcad8f16AaDa89BEd47CdCa4eECB42",
    [
      {
        "depositAssetAmountDecimals": 18,
        "counterPartyAssetAmountDecimals": 6,
        "depositAsset": "0x0000000000000000000000000000000000000000",
        "counterPartyAsset": "0x0f3210636461Ae2C7ADAEF4d1A8124EB0F3b63fA",
        "callOptionId": 0,
        "putOptionId": 0
      },
      {
        "depositAssetAmountDecimals": 8,
        "counterPartyAssetAmountDecimals": 6,
        "depositAsset": "0xE75e6098CE2d7F289b07ABB055321d690ed2912d",
        "counterPartyAsset": "0x0f3210636461Ae2C7ADAEF4d1A8124EB0F3b63fA",
        "callOptionId": 0,
        "putOptionId": 0
      }
    ]
  ],
  "solcInputHash": "29974b1415da715a6e2d54a60fb18ea4",
  "bytecode": "0x608060405260006009553480156200001657600080fd5b50604051620056b1380380620056b18339810160408190526200003991620004f8565b8162000045336200009b565b6001600160a01b0381166200005957600080fd5b600880546001600160a01b0319166001600160a01b03929092169190911790556200008481620000eb565b5050600a805461ffff191661010117905562000764565b600080546001600160a01b038381166001600160a01b0319831681178455604051919092169283917f8be0079c531659141344cd1fd0a4f28419497f9722a3daafe3b4186f6b6457e09190a35050565b6000546001600160a01b031633146200014a5760405162461bcd60e51b815260206004820181905260248201527f4f776e61626c653a2063616c6c6572206973206e6f7420746865206f776e6572604482015260640160405180910390fd5b80516000805460055460ff600160b81b9092048216929116905b838110156200049c5760008582815181106200019057634e487b7160e01b600052603260045260246000fd5b60200260200101519050836002620001a99190620006cb565b620001b6906001620006a3565b60ff16808252620001c9906001620006a3565b60ff166020820152806002600086620001e28162000715565b60ff91821683526020808401949094526040928301600020855181549587015194870151606088015160808901516001600160a01b0390811664010000000002600160201b600160c01b031992881663010000000263ff0000001994891662010000029490941663ffff0000199989166101000261ffff19909b1695891695909517999099179790971692909217171694909417845560a09094015160019093018054939092166001600160a01b031990931692909217905590945083166200034a5760808101516006600085620002ba8162000715565b965060ff1660ff16815260200190815260200160002060006101000a8154816001600160a01b0302191690836001600160a01b031602179055508060a001516006600085806200030a9062000715565b965060ff1660ff16815260200190815260200160002060006101000a8154816001600160a01b0302191690836001600160a01b0316021790555062000486565b60008060005b8560ff168160ff161015620003d657608084015160ff82166000908152600660205260409020546001600160a01b03908116911614156200039057600192505b60a084015160ff82166000908152600660205260409020546001600160a01b0390811691161415620003c157600191505b80620003cd8162000715565b91505062000350565b50816200042d5760808301516006600087620003f28162000715565b985060ff1660ff16815260200190815260200160002060006101000a8154816001600160a01b0302191690836001600160a01b031602179055505b80620004835760a08301516006600087620004488162000715565b985060ff1660ff16815260200190815260200160002060006101000a8154816001600160a01b0302191690836001600160a01b031602179055505b50505b50806200049381620006f7565b91505062000164565b506000805460ff60b81b1916600160b81b60ff948516021790556005805460ff1916919092161790555050565b80516001600160a01b0381168114620004e157600080fd5b919050565b805160ff81168114620004e157600080fd5b60008060408084860312156200050c578283fd5b6200051784620004c9565b602085810151919450906001600160401b038082111562000536578485fd5b818701915087601f8301126200054a578485fd5b8151818111156200055f576200055f6200074e565b6200056f848260051b0162000670565b818152848101925083850160c0808402860187018c10156200058f578889fd5b8895505b83861015620006345780828d031215620005ab578889fd5b620005b562000645565b620005c083620004e6565b8152620005cf888401620004e6565b88820152620005e0898401620004e6565b898201526060620005f3818501620004e6565b90820152608062000606848201620004c9565b9082015260a062000619848201620004c9565b90820152855260019590950194938601939081019062000593565b50979a909950975050505050505050565b60405160c081016001600160401b03811182821017156200066a576200066a6200074e565b60405290565b604051601f8201601f191681016001600160401b03811182821017156200069b576200069b6200074e565b604052919050565b600060ff821660ff84168060ff03821115620006c357620006c362000738565b019392505050565b600060ff821660ff84168160ff0481118215151615620006ef57620006ef62000738565b029392505050565b60006000198214156200070e576200070e62000738565b5060010190565b600060ff821660ff8114156200072f576200072f62000738565b60010192915050565b634e487b7160e01b600052601160045260246000fd5b634e487b7160e01b600052604160045260246000fd5b614f3d80620007746000396000f3fe6080604052600436106101bb5760003560e01c80636b37e4e3116100ec5780638da5cb5b1161008a578063c78b432e11610064578063c78b432e14610896578063ddd02475146108ab578063f2fde38b146108de578063f4d4c9d7146108fe57600080fd5b80638da5cb5b146106e5578063ac9504521461070d578063c5cfc5be1461072d57600080fd5b80637332655b116100c65780637332655b146105dc57806377d841f7146105fc57806383eb772e146106165780638a19c8bc146106b057600080fd5b80636b37e4e31461057a57806371018682146105a7578063715018a6146105c757600080fd5b806332b76e861161015957806355bf621f1161013357806355bf621f1461046e5780636386bcc41461048e578063644d41ed1461053b578063685207e41461055b57600080fd5b806332b76e86146102b25780634dd96f86146102d257806351fe669e146102f257600080fd5b80631916285211610195578063191628521461023f578063222f6b831461025f578063256d43d71461027f57806326b516991461029257600080fd5b806302c178d7146101c75780630748248f146101e957806307f19eba1461021f57600080fd5b366101c257005b600080fd5b3480156101d357600080fd5b506101e76101e23660046142ea565b61091e565b005b3480156101f557600080fd5b5060005461020a90600160b01b900460ff1681565b60405190151581526020015b60405180910390f35b34801561022b57600080fd5b506101e761023a3660046142d0565b610a6f565b34801561024b57600080fd5b506101e761025a36600461446d565b610aeb565b34801561026b57600080fd5b506101e761027a36600461481e565b610e75565b6101e761028d3660046147c8565b610f2b565b34801561029e57600080fd5b506101e76102ad36600461431c565b6111de565b3480156102be57600080fd5b506101e76102cd3660046143ce565b6113c8565b3480156102de57600080fd5b506101e76102ed366004614575565b611b70565b3480156102fe57600080fd5b5061045f61030d3660046147c8565b6003602081815260009283526040928390208351610140808201865282546001600160801b038082168452600160801b918290048116848701526001850154808216858a01528290048116606080860191909152600286015480831660808088019190915290849004831660a0808801919091529887015480841660c08089019190915290859004841660e0808901919091526004890154808616610100808b019190915260ff9188900482161515610120808c01919091528e51998a018f5260058c01548089168b5289900488169c8a019c909c5260068b01548088169e8a019e909e529c87900486169488019490945260078901548086169388019390935291859004841699860199909952600887015480841699860199909952978390048216978401979097526009850154908116978301979097529095048416151592850192909252600a01549092911683565b60405161021693929190614afa565b34801561047a57600080fd5b506101e7610489366004614847565b611d16565b34801561049a57600080fd5b506104f66104a93660046147c8565b6002602052600090815260409020805460019091015460ff8083169261010081048216926201000082048316926301000000830416916001600160a01b03600160201b9091048116911686565b6040805160ff9788168152958716602087015293861693850193909352931660608301526001600160a01b0392831660808301529190911660a082015260c001610216565b34801561054757600080fd5b5061020a6105563660046142d0565b611eb6565b34801561056757600080fd5b50600a5461020a90610100900460ff1681565b34801561058657600080fd5b5061059a6105953660046147c8565b611fac565b6040516102169190614aa2565b3480156105b357600080fd5b5061059a6105c23660046147c8565b6120a0565b3480156105d357600080fd5b506101e7612148565b3480156105e857600080fd5b506101e76105f736600461481e565b61217e565b34801561060857600080fd5b50600a5461020a9060ff1681565b34801561062257600080fd5b506106736106313660046142d0565b60016020819052600091825260409091208054918101546002909101546001600160801b0380841693600160801b90041691600f0b906001600160a01b031684565b604080516001600160801b039586168152949093166020850152600f9190910b918301919091526001600160a01b03166060820152608001610216565b3480156106bc57600080fd5b506000546106d290600160a01b900461ffff1681565b60405161ffff9091168152602001610216565b3480156106f157600080fd5b506000546040516001600160a01b039091168152602001610216565b34801561071957600080fd5b506101e76107283660046147c8565b612204565b34801561073957600080fd5b506108236107483660046147e2565b6040805160e081018252600080825260208201819052918101829052606081018290526080810182905260a0810182905260c08101919091525060ff808316600090815260046020908152604080832061ffff80871685526002909101835292819020815160e08101835281546001600160801b038082168352600160801b9182900481169583019590955260019092015493841692810192909252820483166060820152600160901b82049092166080830152600160a01b81048316151560a0830152600160a81b9004909116151560c082015292915050565b6040516102169190600060e0820190506001600160801b0380845116835280602085015116602084015280604085015116604084015250606083015161ffff8082166060850152806080860151166080850152505060a0830151151560a083015260c0830151151560c083015292915050565b3480156108a257600080fd5b506101e7612276565b3480156108b757600080fd5b506000546108cc90600160b81b900460ff1681565b60405160ff9091168152602001610216565b3480156108ea57600080fd5b506101e76108f93660046142d0565b612f30565b34801561090a57600080fd5b506101e761091936600461481e565b612fc8565b600954156109475760405162461bcd60e51b815260040161093e90614a19565b60405180910390fd5b60016009556008546001600160a01b031633146109765760405162461bcd60e51b815260040161093e906149c2565b6001600160a01b038116600090815260076020526040812060018101549091600f91820b90910b136109a757600080fd5b6001810154604051631a4ca37b60e21b81526001600160a01b0380861660048301526001600160801b03600f9390930b9283166024830152841660448201527312A78E459429fff2570E97D78Ff87F98a36B85Ab906369328dec9060640160006040518083038186803b158015610a1d57600080fd5b505af4158015610a31573d6000803e3d6000fd5b5050506002830180546001600160801b03938416600160801b029316929092179091555060010180546001600160801b031916905550506000600955565b6000546001600160a01b03163314610a995760405162461bcd60e51b815260040161093e906149e4565b600880546001600160a01b038381166001600160a01b0319831681179093556040519116919082907f57e8def7e592578c5fbf9abfe6d3897d7daf10cf7e179f320d944cf71a76493e90600090a35050565b6000546001600160a01b03163314610b155760405162461bcd60e51b815260040161093e906149e4565b80516000805460055460ff600160b81b9092048216929116905b83811015610e48576000858281518110610b5957634e487b7160e01b600052603260045260246000fd5b60200260200101519050836002610b709190614d10565b610b7b906001614c96565b60ff16808252610b8c906001614c96565b60ff166020820152806002600086610ba381614e6b565b60ff91821683526020808401949094526040928301600020855181549587015194870151606088015160808901516001600160a01b03908116600160201b02640100000000600160c01b031992881663010000000263ff0000001994891662010000029490941663ffff0000199989166101000261ffff19909b1695891695909517999099179790971692909217171694909417845560a09094015160019093018054939092166001600160a01b03199093169290921790559094508316610d055760808101516006600085610c7881614e6b565b965060ff1660ff16815260200190815260200160002060006101000a8154816001600160a01b0302191690836001600160a01b031602179055508060a00151600660008580610cc690614e6b565b965060ff1660ff16815260200190815260200160002060006101000a8154816001600160a01b0302191690836001600160a01b03160217905550610e35565b60008060005b8560ff168160ff161015610d8b57608084015160ff82166000908152600660205260409020546001600160a01b0390811691161415610d4957600192505b60a084015160ff82166000908152600660205260409020546001600160a01b0390811691161415610d7957600191505b80610d8381614e6b565b915050610d0b565b5081610ddf5760808301516006600087610da481614e6b565b985060ff1660ff16815260200190815260200160002060006101000a8154816001600160a01b0302191690836001600160a01b031602179055505b80610e325760a08301516006600087610df781614e6b565b985060ff1660ff16815260200190815260200160002060006101000a8154816001600160a01b0302191690836001600160a01b031602179055505b50505b5080610e4081614e50565b915050610b2f565b506000805460ff60b81b1916600160b81b60ff948516021790556005805460ff1916919092161790555050565b610e7e8261328e565b60ff828116600090815260046020819052604080832092549051638a229a5760e01b81529182019290925233602482015260448101849052600160b01b820490921615156064830152600160a01b900461ffff1660848201527312A78E459429fff2570E97D78Ff87F98a36B85Ab90638a229a579060a4015b60006040518083038186803b158015610f0f57600080fd5b505af4158015610f23573d6000803e3d6000fd5b505050505050565b808060ff1660011480610f4157508060ff166002145b15610f9857600a5460ff16610f985760405162461bcd60e51b815260206004820152601a60248201527f63616e6e6f74206465706f73697420657468206f722075736463000000000000604482015260640161093e565b8060ff1660031480610fad57508060ff166004145b1561100957600a54610100900460ff166110095760405162461bcd60e51b815260206004820152601b60248201527f63616e6e6f74206465706f7369742077627463206f7220757364630000000000604482015260640161093e565b600054600160a01b900461ffff1661104e5760405162461bcd60e51b81526020600482015260086024820152670854dd185c9d195960c21b604482015260640161093e565b600034116110895760405162461bcd60e51b81526020600482015260086024820152676e6f2076616c756560c01b604482015260640161093e565b6110928261328e565b6000600281816110a3600187614e01565b6110ad9190614ccf565b60ff908116825260208201929092526040016000908120805490935090918581169116146110e85760018201546001600160a01b03166110fb565b8154600160201b90046001600160a01b03165b90506001600160a01b0381161561111157600080fd5b60ff841660009081526004602081905260408083208354915163c502f99160e01b81527312A78E459429fff2570E97D78Ff87F98a36B85Ab9463c502f9919461116f943393349392600160a01b90920461ffff169160019101614a39565b60006040518083038186803b15801561118757600080fd5b505af415801561119b573d6000803e3d6000fd5b5050600054604051348152600160a01b90910461ffff16925033915060ff871690600080516020614ee8833981519152906020015b60405180910390a450505050565b600954156111fe5760405162461bcd60e51b815260040161093e90614a19565b60016009556008546001600160a01b0316331461122d5760405162461bcd60e51b815260040161093e906149c2565b805160005b818110156113bd5760006007600085848151811061126057634e487b7160e01b600052603260045260246000fd5b60200260200101516001600160a01b03166001600160a01b03168152602001908152602001600020905060008160010160009054906101000a9004600f0b600f0b136112ab57600080fd5b60008160010160009054906101000a9004600f0b90507312A78E459429fff2570E97D78Ff87F98a36B85Ab6369328dec87836001600160801b031688878151811061130657634e487b7160e01b600052603260045260246000fd5b60200260200101516040518463ffffffff1660e01b815260040161134a939291906001600160a01b0393841681526020810192909252909116604082015260600190565b60006040518083038186803b15801561136257600080fd5b505af4158015611376573d6000803e3d6000fd5b5050506002830180546001600160801b03938416600160801b029316929092179091555060010180546001600160801b0319169055806113b581614e50565b915050611232565b505060006009555050565b6008546001600160a01b031633146113f25760405162461bcd60e51b815260040161093e906149c2565b600054600160b01b900460ff1661140857600080fd5b8051600054600160b81b900460ff16811461142257600080fd5b6000805461143d90600190600160a01b900461ffff16614dc7565b905060005b828160ff161015611b55576000848260ff168151811061147257634e487b7160e01b600052603260045260246000fd5b60209081029190910181015160ff80851660009081526002845260408082208054808516845260048752828420610100918290049095168452828420835161018081018552858152978801859052928701849052606087018490526080870184905260a0870184905260c0870184905260e08701849052860183905261012086018390526101408601839052610160860192909252929450929091906000600284018161152060018b614dc7565b61ffff168152602081019190915260400160002080549091506001600160801b0316156117ba5784547312A78E459429fff2570E97D78Ff87F98a36B85Ab9063aab69633908690849060019060ff6201000082048116916301000000900416828d60028111156115a057634e487b7160e01b600052602160045260246000fd5b6040516001600160e01b031960e08a901b16815260048101979097526024870195909552921515604486015260ff91821660648601521660848401521460a482015260c4016101806040518083038186803b1580156115fe57600080fd5b505af4158015611612573d6000803e3d6000fd5b505050506040513d601f19601f820116820180604052508101906116369190614616565b8051909250156116c6576040828101518654600160201b90046001600160a01b03166000908152600760205291909120546116839161167e916001600160801b0316906132c6565b6132d9565b8554600160201b90046001600160a01b0316600090815260076020526040902080546001600160801b0319166001600160801b0392909216919091179055611744565b6060820151156117445760a082015160018601546001600160a01b03166000908152600760205260409020546117099161167e916001600160801b0316906132c6565b60018601546001600160a01b0316600090815260076020526040902080546001600160801b0319166001600160801b03929092169190911790555b600186600281111561176657634e487b7160e01b600052602160045260246000fd5b1415611799576117948482858860000160019054906101000a900460ff168660a00151876101600151613346565b6117ba565b845460408301516101008401516117ba92879260ff90911691859190613681565b600060028401816117cc60018c614dc7565b61ffff168152602081019190915260400160002080549091506001600160801b031615611a615785547312A78E459429fff2570E97D78Ff87F98a36B85Ab9063aab69633908690849060009060ff630100000082048116916201000090041660028e600281111561184d57634e487b7160e01b600052602160045260246000fd5b6040516001600160e01b031960e08a901b16815260048101979097526024870195909552921515604486015260ff91821660648601521660848401521460a482015260c4016101806040518083038186803b1580156118ab57600080fd5b505af41580156118bf573d6000803e3d6000fd5b505050506040513d601f19601f820116820180604052508101906118e39190614616565b8051909350156119665760408084015160018801546001600160a01b03166000908152600760205291909120546119279161167e916001600160801b0316906132c6565b60018701546001600160a01b0316600090815260076020526040902080546001600160801b0319166001600160801b03929092169190911790556119ec565b6060830151156119ec5760a08301518654600160201b90046001600160a01b03166000908152600760205260409020546119ad9161167e916001600160801b0316906132c6565b8654600160201b90046001600160a01b0316600090815260076020526040902080546001600160801b0319166001600160801b03929092169190911790555b6002876002811115611a0e57634e487b7160e01b600052602160045260246000fd5b1415611a3a57855460a0840151610160850151611a3592879285928a9260ff169190613346565b611a61565b611a61848760000160019054906101000a900460ff16838660400151876101000151613681565b6040516366aef26360e01b81526004810186905261ffff8a1660248201527312A78E459429fff2570E97D78Ff87F98a36B85Ab906366aef2639060440160006040518083038186803b158015611ab657600080fd5b505af4158015611aca573d6000803e3d6000fd5b50506040516366aef26360e01b81526004810187905261ffff8c1660248201527312A78E459429fff2570E97D78Ff87F98a36B85Ab92506366aef263915060440160006040518083038186803b158015611b2357600080fd5b505af4158015611b37573d6000803e3d6000fd5b50505050505050505050508080611b4d90614e6b565b915050611442565b50611b5e6138e3565b50506000805460ff60b01b1916905550565b6008546001600160a01b03163314611b9a5760405162461bcd60e51b815260040161093e906149c2565b8051600054600160b01b900460ff1615611bb357600080fd5b6000546001600160a01b90910461ffff1611611bce57600080fd5b600054611be690600160b81b900460ff166002614d10565b60ff168114611bf457600080fd5b60005b818160ff161015611d11576000838260ff1681518110611c2757634e487b7160e01b600052603260045260246000fd5b60200260200101519050600060046000846001611c449190614c96565b60ff1660ff16815260200190815260200160002060020160006001600060149054906101000a900461ffff16611c7a9190614dc7565b61ffff16815260208101919091526040908101600020905163338dfe2f60e21b815260048101849052602481018290529091507312A78E459429fff2570E97D78Ff87F98a36B85Ab9063ce37f8bc9060440160006040518083038186803b158015611ce457600080fd5b505af4158015611cf8573d6000803e3d6000fd5b5050505050508080611d0990614e6b565b915050611bf7565b505050565b611d1f8361328e565b600060028181611d30600188614e01565b611d3a9190614ccf565b60ff9081168252602080830193909352604091820160009081208883168083526004909552928120905483549395507312A78E459429fff2570E97D78Ff87F98a36B85Ab94637441e8bb94929333938a93600160a01b900461ffff16929116148015611db9575086546001600160a01b03898116600160201b90920416145b80611de95750865460ff8b811661010090920416148015611de9575060018701546001600160a01b038981169116145b6040516001600160e01b031960e088901b16815260048101959095526001600160a01b039093166024850152604484019190915261ffff1660648301521515608482015260a40160006040518083038186803b158015611e4857600080fd5b505af4158015611e5c573d6000803e3d6000fd5b50505050611e6d3384846000613b6d565b816001600160a01b0316336001600160a01b03168560ff167f9ac0ff79dc491174b021e6532a2fc734e82751bba8672e9183a76cb994a5f65a866040516111d091815260200190565b6001600160a01b03811660009081526007602052604081206001810154600f90810b9081900b8313611eec575060019392505050565b60405163b2838a7360e01b81526001600160a01b03851660048201523060248201527312A78E459429fff2570E97D78Ff87F98a36B85Ab9063b2838a739060440160206040518083038186803b158015611f4557600080fd5b505af4158015611f59573d6000803e3d6000fd5b505050506040513d601f19601f82011682018060405250810190611f7d91906147b0565b611f8b575060009392505050565b611f9484613c2e565b611f9d90614e8b565b81600f0b121592505050919050565b6040805160c081018252600080825260208201819052918101829052606081018290526080810182905260a081019190915260ff82811660009081526004602081905260408083209254905163c975707360e01b815291820192909252600160b01b820490921615156024830152600160a01b900461ffff1660448201527312A78E459429fff2570E97D78Ff87F98a36B85Ab9063c9757073906064015b60c06040518083038186803b15801561206257600080fd5b505af4158015612076573d6000803e3d6000fd5b505050506040513d601f19601f8201168201806040525081019061209a91906146b4565b92915050565b6040805160c081018252600080825260208201819052918101829052606081018290526080810182905260a081019190915260ff828116600090815260046020819052604080832092549051634ed14a7f60e01b815291820192909252336024820152600160b01b820490921615156044830152600160a01b900461ffff1660648201527312A78E459429fff2570E97D78Ff87F98a36B85Ab90634ed14a7f9060840161204a565b6000546001600160a01b031633146121725760405162461bcd60e51b815260040161093e906149e4565b61217c6000613d32565b565b6121878261328e565b60ff828116600090815260046020819052604080832092549051630f681f9360e31b81529182019290925233602482015260448101849052600160b01b820490921615156064830152600160a01b900461ffff1660848201527312A78E459429fff2570E97D78Ff87F98a36B85Ab90637b40fc989060a401610ef7565b6008546001600160a01b0316331461222e5760405162461bcd60e51b815260040161093e906149c2565b60ff811661224b57600a805460ff19811660ff9091161517905550565b8060ff166001141561227357600a805461ff001981166101009182900460ff16159091021790555b50565b6008546001600160a01b031633146122a05760405162461bcd60e51b815260040161093e906149c2565b600054600160b01b900460ff16156122b757600080fd5b6000546122d090600160a01b900461ffff166001614c58565b6000805460ff60b01b1961ffff93909316600160a01b029290921662ffffff60a01b1990921691909117600160b01b1781555b60005460ff600160b81b90910481169082161015612e265760ff8181166000908152600260209081526040808320805490941683526004918290528083208354915163161dd97560e31b8152928301819052600160a01b90910461ffff1660248301526001604483015291907312A78E459429fff2570E97D78Ff87F98a36B85Ab9063b0eecba89060640160206040518083038186803b1580156123a657600080fd5b505af41580156123ba573d6000803e3d6000fd5b505050506040513d601f19601f820116820180604052508101906123de9190614796565b8354610100900460ff1660009081526004602081905260408083208354915163161dd97560e31b8152928301819052600160a01b90910461ffff166024830152604482018390529293507312A78E459429fff2570E97D78Ff87F98a36B85Ab9063b0eecba89060640160206040518083038186803b15801561245f57600080fd5b505af4158015612473573d6000803e3d6000fd5b505050506040513d601f19601f820116820180604052508101906124979190614796565b90506001600160801b03831615612528578454600160201b90046001600160a01b03166000908152600760205260409020546124eb9061167e906001600160801b03600160801b90910481169086166132c6565b85546001600160a01b03600160201b90910416600090815260076020526040902080546001600160801b03928316600160801b0292169190911790555b6001600160801b038116156125ae5760018501546001600160a01b03166000908152600760205260409020546125769061167e90600160801b90046001600160801b039081169084166132c6565b60018601546001600160a01b0316600090815260076020526040902080546001600160801b03928316600160801b0292169190911790555b6000546002600160a01b90910461ffff16116125ce575050505050612e14565b845460008054604051631bb98a3360e01b815291927312A78E459429fff2570E97D78Ff87F98a36B85Ab92631bb98a3392612634928a9260019262010000830460ff90811693630100000090041691600160a01b90910461ffff16908990600401614a70565b6101406040518083038186803b15801561264d57600080fd5b505af4158015612661573d6000803e3d6000fd5b505050506040513d601f19601f8201168201806040525081019061268591906146cf565b865460008054604051631bb98a3360e01b815293945090927312A78E459429fff2570E97D78Ff87F98a36B85Ab92631bb98a33926126ee92899287926301000000820460ff90811693620100009093041691600160a01b90910461ffff16908490600401614a70565b6101406040518083038186803b15801561270757600080fd5b505af415801561271b573d6000803e3d6000fd5b505050506040513d601f19601f8201168201806040525081019061273f91906146cf565b9050600060405180606001604052808481526020018381526020016000600281111561277b57634e487b7160e01b600052602160045260246000fd5b90529050806003600061278e8c83614d10565b60ff168152602080820192909252604090810160002083518051818501516001600160801b03908116600160801b90810292821692909217845582850151606080850151831684029183169190911760018087019190915560808086015160a08088015186168702918616919091176002808a019190915560c08089015160e0808b015189168a029189169190911760038c0155610100808b015160048d0180546101209d8e015115158d026001600160881b0319918216938d16939093179290921790558f8f015180519f8101518b168c029f8b169f909f1760058e01558e8e0151988f01518a168b02988a169890981760068d0155948d0151938d0151881689029388169390931760078b01558b0151918b015186168702918616919091176008890155908901516009880180549a9097015115159095029890921693909216929092179590951790915591840151600a8201805492949193909260ff19169190849081111561291057634e487b7160e01b600052602160045260246000fd5b021790555050885460008054604051631bb98a3360e01b81529193507312A78E459429fff2570E97D78Ff87F98a36B85Ab92631bb98a339261297d928d9260019260ff6201000083048116936301000000909304169161ffff600160a01b90910416908490600401614a70565b6101406040518083038186803b15801561299657600080fd5b505af41580156129aa573d6000803e3d6000fd5b505050506040513d601f19601f820116820180604052508101906129ce91906146cf565b6040805160608101825282815260208101869052919250810160019052915081600360006129fc8d83614d10565b612a07906001614c96565b60ff168152602080820192909252604090810160002083518051818501516001600160801b03908116600160801b90810292821692909217845582850151606080850151831684029183169190911760018087019190915560808086015160a08088015186168702918616919091176002808a019190915560c08089015160e0808b015189168a029189169190911760038c0155610100808b015160048d0180546101209d8e015115158d026001600160881b0319918216938d16939093179290921790558f8f015180519f8101518b168c029f8b169f909f1760058e01558e8e0151988f01518a168b02988a169890981760068d0155948d0151938d0151881689029388169390931760078b01558b0151918b015186168702918616919091176008890155908901516009880180549a9097015115159095029890921693909216929092179590951790915591840151600a8201805492949193909260ff191691908490811115612b8957634e487b7160e01b600052602160045260246000fd5b021790555050895460008054604051631bb98a3360e01b81529193507312A78E459429fff2570E97D78Ff87F98a36B85Ab92631bb98a3392612bf6928c92879260ff6301000000830481169362010000909304169161ffff600160a01b9091041690600190600401614a70565b6101406040518083038186803b158015612c0f57600080fd5b505af4158015612c23573d6000803e3d6000fd5b505050506040513d601f19601f82011682018060405250810190612c4791906146cf565b604080516060810182528781526020810183905291925081016002905292508260036000612c758e83614d10565b612c80906002614c96565b60ff168152602080820192909252604090810160002083518051818501516001600160801b03908116600160801b90810292821692909217845582850151606080850151831684029183169190911760018087019190915560808086015160a08088015186168702918616919091176002808a019190915560c08089015160e0808b015189168a029189169190911760038c0155610100808b015160048d0180546101209d8e015115158d026001600160881b0319918216938d16939093179290921790558f8f015180519f8101518b168c029f8b169f909f1760058e01558e8e0151988f01518a168b02988a169890981760068d0155948d0151938d0151881689029388169390931760078b01558b0151918b015186168702918616919091176008890155908901516009880180549a9097015115159095029890921693909216929092179590951790915591840151600a8201805492949193909260ff191691908490811115612e0257634e487b7160e01b600052602160045260246000fd5b02179055505050505050505050505050505b80612e1e81614e6b565b915050612303565b50600054600160a01b900461ffff1660011415612e4c576000805460ff60b01b19169055565b600054600160a01b900461ffff166002141561217c5760015b600054612e7d90600160b81b900460ff166002614d10565b60ff168160ff1611612f185760ff8116600090815260046020819052604080832081516366aef26360e01b81529283015260016024830152517312A78E459429fff2570E97D78Ff87F98a36B85Ab926366aef2639260448082019391829003018186803b158015612eed57600080fd5b505af4158015612f01573d6000803e3d6000fd5b505050508080612f1090614e6b565b915050612e65565b50612f216138e3565b6000805460ff60b01b19169055565b6000546001600160a01b03163314612f5a5760405162461bcd60e51b815260040161093e906149e4565b6001600160a01b038116612fbf5760405162461bcd60e51b815260206004820152602660248201527f4f776e61626c653a206e6577206f776e657220697320746865207a65726f206160448201526564647265737360d01b606482015260840161093e565b61227381613d32565b818060ff1660011480612fde57508060ff166002145b1561303557600a5460ff166130355760405162461bcd60e51b815260206004820152601a60248201527f63616e6e6f74206465706f73697420657468206f722075736463000000000000604482015260640161093e565b8060ff166003148061304a57508060ff166004145b156130a657600a54610100900460ff166130a65760405162461bcd60e51b815260206004820152601b60248201527f63616e6e6f74206465706f7369742077627463206f7220757364630000000000604482015260640161093e565b600054600160a01b900461ffff166130eb5760405162461bcd60e51b81526020600482015260086024820152670854dd185c9d195960c21b604482015260640161093e565b600082116131255760405162461bcd60e51b815260206004820152600760248201526608585b5bdd5b9d60ca1b604482015260640161093e565b61312e8361328e565b60006002818161313f600188614e01565b6131499190614ccf565b60ff908116825260208201929092526040016000908120805490935090918681169116146131845760018201546001600160a01b0316613197565b8154600160201b90046001600160a01b03165b90506001600160a01b0381166131ac57600080fd5b60ff851660009081526004602081905260408083208354915163c502f99160e01b81527312A78E459429fff2570E97D78Ff87F98a36B85Ab9463c502f9919461320a9433938c9392600160a01b90920461ffff169160019101614a39565b60006040518083038186803b15801561322257600080fd5b505af4158015613236573d6000803e3d6000fd5b5050600054604051878152600160a01b90910461ffff16925033915060ff881690600080516020614ee88339815191529060200160405180910390a46132876001600160a01b038216333087613d82565b5050505050565b60ff8116158015906132bd57506000546132b390600160b81b900460ff166002614d10565b60ff168160ff1611155b61227357600080fd5b60006132d28284614c7e565b9392505050565b60006001600160801b038211156133425760405162461bcd60e51b815260206004820152602760248201527f53616665436173743a2076616c756520646f65736e27742066697420696e20316044820152663238206269747360c81b606482015260840161093e565b5090565b8454600090613368906001600160801b0380821691600160801b900416613de2565b60018801549091506001600160801b0316158015906133875750600082115b156133e65760018601546133c39061167e906133af908490600160901b900461ffff16613dee565b60018a01546001600160801b031690613e10565b6001880180546001600160801b0319166001600160801b03929092169190911790555b600387015460005b8181101561367657600089600301828154811061341b57634e487b7160e01b600052603260045260246000fd5b60009182526020808320909101546001600160a01b031680835260048d0190915260409091206001810154919250906001600160801b031661345e575050613664565b60018101548a5460009161348c918a916001600160801b03600160801b918290048116929190910416613e2b565b905080156134d35760038201546134b09061167e906001600160801b0316836132c6565b6003830180546001600160801b0319166001600160801b03929092169190911790555b60018201546000906134f8906001600160801b0380821691600160801b900416613de2565b9050600061350789838a613e2b565b9050801561364f5760018d0154600090819061352f908590600160901b900461ffff16613dee565b60028701549091506001600160801b031681106135675760028601546135609084906001600160801b031683613e2b565b915061356b565b8291505b7312A78E459429fff2570E97D78Ff87F98a36B85Ab63c502f9918f8986866001600060149054906101000a900461ffff166135a69190614dc7565b60006040518763ffffffff1660e01b81526004016135c996959493929190614a39565b60006040518083038186803b1580156135e157600080fd5b505af41580156135f5573d6000803e3d6000fd5b5050600054613613925060019150600160a01b900461ffff16614dc7565b61ffff16876001600160a01b03168e60ff16600080516020614ee88339815191528660405161364491815260200190565b60405180910390a450505b50505060010180546001600160801b03169055505b8061366e81614e50565b9150506133ee565b505050505050505050565b82546000906136a3906001600160801b0380821691600160801b900416613de2565b600387015490915060005b818110156138d95760008860030182815481106136db57634e487b7160e01b600052603260045260246000fd5b60009182526020808320909101546001600160a01b031680835260048c0190915260409091206001810154919250906001600160801b031661371e5750506138c7565b6001810154885460009161374c918a916001600160801b03600160801b918290048116929190910416613e2b565b905080156137975760028201546137779061167e90600160801b90046001600160801b0316836132c6565b6002830180546001600160801b03928316600160801b0292169190911790555b60018201546000906137c89089906137c2906001600160801b0380821691600160801b900416613de2565b89613e2b565b905080156138b3577312A78E459429fff2570E97D78Ff87F98a36B85Ab63c502f9918d868460006001600060149054906101000a900461ffff1661380c9190614dc7565b60006040518763ffffffff1660e01b815260040161382f96959493929190614a39565b60006040518083038186803b15801561384757600080fd5b505af415801561385b573d6000803e3d6000fd5b5050600054613879925060019150600160a01b900461ffff16614dc7565b61ffff16846001600160a01b03168c60ff16600080516020614ee8833981519152846040516138aa91815260200190565b60405180910390a45b505060010180546001600160801b03169055505b806138d181614e50565b9150506136ae565b5050505050505050565b60005b60055460ff90811690821610156122735760ff81166000908152600660209081526040808320546001600160a01b031680845260079092528220825491929091600160a01b900461ffff166002146139705781546001600160801b0380821691600160801b90041661395785613c2e565b6139619190614d39565b61396b9190614c0a565b613973565b60005b60018301546139859190600f0b614c0a565b6002830180546001600160801b0316905560405163b2838a7360e01b81526001600160a01b0385166004820152306024820152909150613a2e907312A78E459429fff2570E97D78Ff87F98a36B85Ab9063b2838a739060440160206040518083038186803b1580156139f657600080fd5b505af4158015613a0a573d6000803e3d6000fd5b505050506040513d601f19601f8201168201806040525081019061167e91906147b0565b6001830180546001600160801b03928316600160801b029216919091179055613a5961167e84613e73565b600283810180546001600160801b03199081166001600160801b0394851617909155604080516080810182528654600160801b808204871683529086166020808401918252600f89810b8587019081526001600160a01b038d811660608801818152600091825260019586905298902087519551958c16958c168702959095178555905192840180549098169290910b89169190911790955592519290940180546001600160a01b03191692909316919091179091558454909281811692613b2392041684614c0a565b613b2d9190614d39565b600184018054600f9290920b6001600160801b03166001600160801b03199092169190911790555050600090555080613b6581614e6b565b9150506138e6565b60095415613b8d5760405162461bcd60e51b815260040161093e90614a19565b600160095580613ba957613ba082611eb6565b613ba957600080fd5b604051631a4ca37b60e21b81526001600160a01b03808616600483015260248201859052831660448201527312A78E459429fff2570E97D78Ff87F98a36B85Ab906369328dec9060640160006040518083038186803b158015613c0b57600080fd5b505af4158015613c1f573d6000803e3d6000fd5b50506000600955505050505050565b6001600160a01b0381166000908152600760205260408120613c6d613c5284613e73565b6001830154600160801b90046001600160801b0316906132c6565b600282015460405163b2838a7360e01b81526001600160a01b0386166004820152306024820152613d28916001600160801b0380821692613d2292600160801b9004909116907312A78E459429fff2570E97D78Ff87F98a36B85Ab9063b2838a739060440160206040518083038186803b158015613cea57600080fd5b505af4158015613cfe573d6000803e3d6000fd5b505050506040513d601f19601f82011682018060405250810190613d2291906147b0565b906132c6565b6132d29190614d88565b600080546001600160a01b038381166001600160a01b0319831681178455604051919092169283917f8be0079c531659141344cd1fd0a4f28419497f9722a3daafe3b4186f6b6457e09190a35050565b604080516001600160a01b0385811660248301528416604482015260648082018490528251808303909101815260849091019091526020810180516001600160e01b03166323b872dd60e01b179052613ddc908590614006565b50505050565b60006132d28284614dea565b60006132d2612710613e0a613e038583614c7e565b86906140d8565b906140e4565b600081831015613e215760006132d2565b6132d28284614dea565b6000821580613e38575081155b80613e41575083155b15613e4e575060006132d2565b81831015613e6957613e6482613e0a86866140d8565b613e6b565b835b949350505050565b600080805b60005460ff600160b81b90910481169082161015613fff5760ff8116600090815260026020526040902080546001600160a01b03868116600160201b909204161480613ed3575060018101546001600160a01b038681169116145b15613fec57805460ff8116600090815260046020526040902090613f5d906001600160a01b03888116600160201b9092041614613f21578154600160801b90046001600160801b0316613f56565b815460008054600160a01b900461ffff168152600284016020526040902054613f56916001600160801b0391821691166132c6565b85906132c6565b8254610100900460ff166000908152600460205260409020600184015491955090613fe7906001600160a01b03898116911614613fab578154600160801b90046001600160801b0316613fe0565b815460008054600160a01b900461ffff168152600284016020526040902054613fe0916001600160801b0391821691166132c6565b86906132c6565b945050505b5080613ff781614e6b565b915050613e78565b5092915050565b600061405b826040518060400160405280602081526020017f5361666545524332303a206c6f772d6c6576656c2063616c6c206661696c6564815250856001600160a01b03166140f09092919063ffffffff16565b805190915015611d11578080602001905181019061407991906145fc565b611d115760405162461bcd60e51b815260206004820152602a60248201527f5361666545524332303a204552433230206f7065726174696f6e20646964206e6044820152691bdd081cdd58d8d9595960b21b606482015260840161093e565b60006132d28284614cf1565b60006132d28284614cbb565b6060613e6b848460008585843b6141495760405162461bcd60e51b815260206004820152601d60248201527f416464726573733a2063616c6c20746f206e6f6e2d636f6e7472616374000000604482015260640161093e565b600080866001600160a01b031685876040516141659190614973565b60006040518083038185875af1925050503d80600081146141a2576040519150601f19603f3d011682016040523d82523d6000602084013e6141a7565b606091505b50915091506141b78282866141c2565b979650505050505050565b606083156141d15750816132d2565b8251156141e15782518084602001fd5b8160405162461bcd60e51b815260040161093e919061498f565b80356001600160a01b038116811461421257600080fd5b919050565b8051801515811461421257600080fd5b600060c08284031215614238578081fd5b614240614b44565b905061424b826142a8565b8152614259602083016142a8565b602082015261426a604083016142a8565b604082015261427b606083016142a8565b606082015261428c608083016142a8565b608082015261429d60a083016142a8565b60a082015292915050565b80516001600160801b038116811461421257600080fd5b803560ff8116811461421257600080fd5b6000602082840312156142e1578081fd5b6132d2826141fb565b600080604083850312156142fc578081fd5b614305836141fb565b9150614313602084016141fb565b90509250929050565b6000806040838503121561432e578182fd5b614337836141fb565b915060208084013567ffffffffffffffff811115614353578283fd5b8401601f81018613614363578283fd5b803561437661437182614be6565b614bb5565b80828252848201915084840189868560051b8701011115614395578687fd5b8694505b838510156143be576143aa816141fb565b835260019490940193918501918501614399565b5080955050505050509250929050565b600060208083850312156143e0578182fd5b823567ffffffffffffffff8111156143f6578283fd5b8301601f81018513614406578283fd5b803561441461437182614be6565b80828252848201915084840188868560051b8701011115614433578687fd5b8694505b838510156144615780356003811061444d578788fd5b835260019490940193918501918501614437565b50979650505050505050565b6000602080838503121561447f578182fd5b823567ffffffffffffffff811115614495578283fd5b8301601f810185136144a5578283fd5b80356144b361437182614be6565b8181528381019083850160c0808502860187018a10156144d1578788fd5b8795505b848610156145675780828b0312156144eb578788fd5b6144f3614b44565b6144fc836142bf565b81526145098884016142bf565b88820152604061451a8185016142bf565b90820152606061452b8482016142bf565b90820152608061453c8482016141fb565b9082015260a061454d8482016141fb565b9082015284526001959095019492860192908101906144d5565b509098975050505050505050565b60006020808385031215614587578182fd5b823567ffffffffffffffff81111561459d578283fd5b8301601f810185136145ad578283fd5b80356145bb61437182614be6565b80828252848201915084840188868560051b87010111156145da578687fd5b8694505b838510156144615780358352600194909401939185019185016145de565b60006020828403121561460d578081fd5b6132d282614217565b60006101808284031215614628578081fd5b614630614b6d565b825181526020830151602082015260408301516040820152606083015160608201526080830151608082015260a083015160a082015260c083015160c082015260e083015160e08201526101008084015181830152506101208084015181830152506101408084015181830152506101608084015181830152508091505092915050565b600060c082840312156146c5578081fd5b6132d28383614227565b600061014082840312156146e1578081fd5b6146e9614b91565b6146f2836142a8565b8152614700602084016142a8565b6020820152614711604084016142a8565b6040820152614722606084016142a8565b6060820152614733608084016142a8565b608082015261474460a084016142a8565b60a082015261475560c084016142a8565b60c082015261476660e084016142a8565b60e08201526101006147798185016142a8565b9082015261012061478b848201614217565b908201529392505050565b6000602082840312156147a7578081fd5b6132d2826142a8565b6000602082840312156147c1578081fd5b5051919050565b6000602082840312156147d9578081fd5b6132d2826142bf565b600080604083850312156147f4578182fd5b6147fd836142bf565b9150602083013561ffff81168114614813578182fd5b809150509250929050565b60008060408385031215614830578182fd5b614839836142bf565b946020939093013593505050565b60008060006060848603121561485b578081fd5b614864846142bf565b925060208401359150614879604085016141fb565b90509250925092565b80516001600160801b0316825260208101516148a960208401826001600160801b03169052565b5060408101516148c460408401826001600160801b03169052565b5060608101516148df60608401826001600160801b03169052565b5060808101516148fa60808401826001600160801b03169052565b5060a081015161491560a08401826001600160801b03169052565b5060c081015161493060c08401826001600160801b03169052565b5060e081015161494b60e08401826001600160801b03169052565b50610100818101516001600160801b0316908301526101208082015180151582850152613ddc565b60008251614985818460208701614e24565b9190910192915050565b60208152600082518060208401526149ae816040850160208701614e24565b601f01601f19169190910160400192915050565b60208082526008908201526710b9b2ba3a3632b960c11b604082015260600190565b6020808252818101527f4f776e61626c653a2063616c6c6572206973206e6f7420746865206f776e6572604082015260600190565b6020808252600690820152651b1bd8dad95960d21b604082015260600190565b9586526001600160a01b039490941660208601526040850192909252606084015261ffff166080830152151560a082015260c00190565b958652931515602086015260ff92831660408601529116606084015261ffff166080830152151560a082015260c00190565b60c0810161209a82846001600160801b038082511683528060208301511660208401528060408301511660408401528060608301511660608401528060808301511660808401528060a08301511660a0840152505050565b6102a08101614b098286614882565b614b17610140830185614882565b60038310614b3557634e487b7160e01b600052602160045260246000fd5b82610280830152949350505050565b60405160c0810167ffffffffffffffff81118282101715614b6757614b67614ed1565b60405290565b604051610180810167ffffffffffffffff81118282101715614b6757614b67614ed1565b604051610140810167ffffffffffffffff81118282101715614b6757614b67614ed1565b604051601f8201601f1916810167ffffffffffffffff81118282101715614bde57614bde614ed1565b604052919050565b600067ffffffffffffffff821115614c0057614c00614ed1565b5060051b60200190565b600081600f0b83600f0b8282128260016001607f1b0303821381151615614c3357614c33614ea5565b8260016001607f1b0319038212811615614c4f57614c4f614ea5565b50019392505050565b600061ffff808316818516808303821115614c7557614c75614ea5565b01949350505050565b60008219821115614c9157614c91614ea5565b500190565b600060ff821660ff84168060ff03821115614cb357614cb3614ea5565b019392505050565b600082614cca57614cca614ebb565b500490565b600060ff831680614ce257614ce2614ebb565b8060ff84160491505092915050565b6000816000190483118215151615614d0b57614d0b614ea5565b500290565b600060ff821660ff84168160ff0481118215151615614d3157614d31614ea5565b029392505050565b600081600f0b83600f0b8281128160016001607f1b031901831281151615614d6357614d63614ea5565b8160016001607f1b03018313811615614d7e57614d7e614ea5565b5090039392505050565b60008083128015600160ff1b850184121615614da657614da6614ea5565b6001600160ff1b0384018313811615614dc157614dc1614ea5565b50500390565b600061ffff83811690831681811015614de257614de2614ea5565b039392505050565b600082821015614dfc57614dfc614ea5565b500390565b600060ff821660ff841680821015614e1b57614e1b614ea5565b90039392505050565b60005b83811015614e3f578181015183820152602001614e27565b83811115613ddc5750506000910152565b6000600019821415614e6457614e64614ea5565b5060010190565b600060ff821660ff811415614e8257614e82614ea5565b60010192915050565b6000600160ff1b821415614ea157614ea1614ea5565b0390565b634e487b7160e01b600052601160045260246000fd5b634e487b7160e01b600052601260045260246000fd5b634e487b7160e01b600052604160045260246000fdfee963a73e630cb9812a026653bfb6b1e14ffa92f8c38b79f318f2637557ea9f12a264697066735822122023fab994aa868b33b4706190bba7b79999351b85d36b7342bbf7b6ac1076d1c764736f6c63430008040033",
  "deployedBytecode": "0x6080604052600436106101bb5760003560e01c80636b37e4e3116100ec5780638da5cb5b1161008a578063c78b432e11610064578063c78b432e14610896578063ddd02475146108ab578063f2fde38b146108de578063f4d4c9d7146108fe57600080fd5b80638da5cb5b146106e5578063ac9504521461070d578063c5cfc5be1461072d57600080fd5b80637332655b116100c65780637332655b146105dc57806377d841f7146105fc57806383eb772e146106165780638a19c8bc146106b057600080fd5b80636b37e4e31461057a57806371018682146105a7578063715018a6146105c757600080fd5b806332b76e861161015957806355bf621f1161013357806355bf621f1461046e5780636386bcc41461048e578063644d41ed1461053b578063685207e41461055b57600080fd5b806332b76e86146102b25780634dd96f86146102d257806351fe669e146102f257600080fd5b80631916285211610195578063191628521461023f578063222f6b831461025f578063256d43d71461027f57806326b516991461029257600080fd5b806302c178d7146101c75780630748248f146101e957806307f19eba1461021f57600080fd5b366101c257005b600080fd5b3480156101d357600080fd5b506101e76101e23660046142ea565b61091e565b005b3480156101f557600080fd5b5060005461020a90600160b01b900460ff1681565b60405190151581526020015b60405180910390f35b34801561022b57600080fd5b506101e761023a3660046142d0565b610a6f565b34801561024b57600080fd5b506101e761025a36600461446d565b610aeb565b34801561026b57600080fd5b506101e761027a36600461481e565b610e75565b6101e761028d3660046147c8565b610f2b565b34801561029e57600080fd5b506101e76102ad36600461431c565b6111de565b3480156102be57600080fd5b506101e76102cd3660046143ce565b6113c8565b3480156102de57600080fd5b506101e76102ed366004614575565b611b70565b3480156102fe57600080fd5b5061045f61030d3660046147c8565b6003602081815260009283526040928390208351610140808201865282546001600160801b038082168452600160801b918290048116848701526001850154808216858a01528290048116606080860191909152600286015480831660808088019190915290849004831660a0808801919091529887015480841660c08089019190915290859004841660e0808901919091526004890154808616610100808b019190915260ff9188900482161515610120808c01919091528e51998a018f5260058c01548089168b5289900488169c8a019c909c5260068b01548088169e8a019e909e529c87900486169488019490945260078901548086169388019390935291859004841699860199909952600887015480841699860199909952978390048216978401979097526009850154908116978301979097529095048416151592850192909252600a01549092911683565b60405161021693929190614afa565b34801561047a57600080fd5b506101e7610489366004614847565b611d16565b34801561049a57600080fd5b506104f66104a93660046147c8565b6002602052600090815260409020805460019091015460ff8083169261010081048216926201000082048316926301000000830416916001600160a01b03600160201b9091048116911686565b6040805160ff9788168152958716602087015293861693850193909352931660608301526001600160a01b0392831660808301529190911660a082015260c001610216565b34801561054757600080fd5b5061020a6105563660046142d0565b611eb6565b34801561056757600080fd5b50600a5461020a90610100900460ff1681565b34801561058657600080fd5b5061059a6105953660046147c8565b611fac565b6040516102169190614aa2565b3480156105b357600080fd5b5061059a6105c23660046147c8565b6120a0565b3480156105d357600080fd5b506101e7612148565b3480156105e857600080fd5b506101e76105f736600461481e565b61217e565b34801561060857600080fd5b50600a5461020a9060ff1681565b34801561062257600080fd5b506106736106313660046142d0565b60016020819052600091825260409091208054918101546002909101546001600160801b0380841693600160801b90041691600f0b906001600160a01b031684565b604080516001600160801b039586168152949093166020850152600f9190910b918301919091526001600160a01b03166060820152608001610216565b3480156106bc57600080fd5b506000546106d290600160a01b900461ffff1681565b60405161ffff9091168152602001610216565b3480156106f157600080fd5b506000546040516001600160a01b039091168152602001610216565b34801561071957600080fd5b506101e76107283660046147c8565b612204565b34801561073957600080fd5b506108236107483660046147e2565b6040805160e081018252600080825260208201819052918101829052606081018290526080810182905260a0810182905260c08101919091525060ff808316600090815260046020908152604080832061ffff80871685526002909101835292819020815160e08101835281546001600160801b038082168352600160801b9182900481169583019590955260019092015493841692810192909252820483166060820152600160901b82049092166080830152600160a01b81048316151560a0830152600160a81b9004909116151560c082015292915050565b6040516102169190600060e0820190506001600160801b0380845116835280602085015116602084015280604085015116604084015250606083015161ffff8082166060850152806080860151166080850152505060a0830151151560a083015260c0830151151560c083015292915050565b3480156108a257600080fd5b506101e7612276565b3480156108b757600080fd5b506000546108cc90600160b81b900460ff1681565b60405160ff9091168152602001610216565b3480156108ea57600080fd5b506101e76108f93660046142d0565b612f30565b34801561090a57600080fd5b506101e761091936600461481e565b612fc8565b600954156109475760405162461bcd60e51b815260040161093e90614a19565b60405180910390fd5b60016009556008546001600160a01b031633146109765760405162461bcd60e51b815260040161093e906149c2565b6001600160a01b038116600090815260076020526040812060018101549091600f91820b90910b136109a757600080fd5b6001810154604051631a4ca37b60e21b81526001600160a01b0380861660048301526001600160801b03600f9390930b92831660248301528416604482015273__$e36f5330ef2566ea8a183e1e27b10de643$__906369328dec9060640160006040518083038186803b158015610a1d57600080fd5b505af4158015610a31573d6000803e3d6000fd5b5050506002830180546001600160801b03938416600160801b029316929092179091555060010180546001600160801b031916905550506000600955565b6000546001600160a01b03163314610a995760405162461bcd60e51b815260040161093e906149e4565b600880546001600160a01b038381166001600160a01b0319831681179093556040519116919082907f57e8def7e592578c5fbf9abfe6d3897d7daf10cf7e179f320d944cf71a76493e90600090a35050565b6000546001600160a01b03163314610b155760405162461bcd60e51b815260040161093e906149e4565b80516000805460055460ff600160b81b9092048216929116905b83811015610e48576000858281518110610b5957634e487b7160e01b600052603260045260246000fd5b60200260200101519050836002610b709190614d10565b610b7b906001614c96565b60ff16808252610b8c906001614c96565b60ff166020820152806002600086610ba381614e6b565b60ff91821683526020808401949094526040928301600020855181549587015194870151606088015160808901516001600160a01b03908116600160201b02640100000000600160c01b031992881663010000000263ff0000001994891662010000029490941663ffff0000199989166101000261ffff19909b1695891695909517999099179790971692909217171694909417845560a09094015160019093018054939092166001600160a01b03199093169290921790559094508316610d055760808101516006600085610c7881614e6b565b965060ff1660ff16815260200190815260200160002060006101000a8154816001600160a01b0302191690836001600160a01b031602179055508060a00151600660008580610cc690614e6b565b965060ff1660ff16815260200190815260200160002060006101000a8154816001600160a01b0302191690836001600160a01b03160217905550610e35565b60008060005b8560ff168160ff161015610d8b57608084015160ff82166000908152600660205260409020546001600160a01b0390811691161415610d4957600192505b60a084015160ff82166000908152600660205260409020546001600160a01b0390811691161415610d7957600191505b80610d8381614e6b565b915050610d0b565b5081610ddf5760808301516006600087610da481614e6b565b985060ff1660ff16815260200190815260200160002060006101000a8154816001600160a01b0302191690836001600160a01b031602179055505b80610e325760a08301516006600087610df781614e6b565b985060ff1660ff16815260200190815260200160002060006101000a8154816001600160a01b0302191690836001600160a01b031602179055505b50505b5080610e4081614e50565b915050610b2f565b506000805460ff60b81b1916600160b81b60ff948516021790556005805460ff1916919092161790555050565b610e7e8261328e565b60ff828116600090815260046020819052604080832092549051638a229a5760e01b81529182019290925233602482015260448101849052600160b01b820490921615156064830152600160a01b900461ffff16608482015273__$e36f5330ef2566ea8a183e1e27b10de643$__90638a229a579060a4015b60006040518083038186803b158015610f0f57600080fd5b505af4158015610f23573d6000803e3d6000fd5b505050505050565b808060ff1660011480610f4157508060ff166002145b15610f9857600a5460ff16610f985760405162461bcd60e51b815260206004820152601a60248201527f63616e6e6f74206465706f73697420657468206f722075736463000000000000604482015260640161093e565b8060ff1660031480610fad57508060ff166004145b1561100957600a54610100900460ff166110095760405162461bcd60e51b815260206004820152601b60248201527f63616e6e6f74206465706f7369742077627463206f7220757364630000000000604482015260640161093e565b600054600160a01b900461ffff1661104e5760405162461bcd60e51b81526020600482015260086024820152670854dd185c9d195960c21b604482015260640161093e565b600034116110895760405162461bcd60e51b81526020600482015260086024820152676e6f2076616c756560c01b604482015260640161093e565b6110928261328e565b6000600281816110a3600187614e01565b6110ad9190614ccf565b60ff908116825260208201929092526040016000908120805490935090918581169116146110e85760018201546001600160a01b03166110fb565b8154600160201b90046001600160a01b03165b90506001600160a01b0381161561111157600080fd5b60ff841660009081526004602081905260408083208354915163c502f99160e01b815273__$e36f5330ef2566ea8a183e1e27b10de643$__9463c502f9919461116f943393349392600160a01b90920461ffff169160019101614a39565b60006040518083038186803b15801561118757600080fd5b505af415801561119b573d6000803e3d6000fd5b5050600054604051348152600160a01b90910461ffff16925033915060ff871690600080516020614ee8833981519152906020015b60405180910390a450505050565b600954156111fe5760405162461bcd60e51b815260040161093e90614a19565b60016009556008546001600160a01b0316331461122d5760405162461bcd60e51b815260040161093e906149c2565b805160005b818110156113bd5760006007600085848151811061126057634e487b7160e01b600052603260045260246000fd5b60200260200101516001600160a01b03166001600160a01b03168152602001908152602001600020905060008160010160009054906101000a9004600f0b600f0b136112ab57600080fd5b60008160010160009054906101000a9004600f0b905073__$e36f5330ef2566ea8a183e1e27b10de643$__6369328dec87836001600160801b031688878151811061130657634e487b7160e01b600052603260045260246000fd5b60200260200101516040518463ffffffff1660e01b815260040161134a939291906001600160a01b0393841681526020810192909252909116604082015260600190565b60006040518083038186803b15801561136257600080fd5b505af4158015611376573d6000803e3d6000fd5b5050506002830180546001600160801b03938416600160801b029316929092179091555060010180546001600160801b0319169055806113b581614e50565b915050611232565b505060006009555050565b6008546001600160a01b031633146113f25760405162461bcd60e51b815260040161093e906149c2565b600054600160b01b900460ff1661140857600080fd5b8051600054600160b81b900460ff16811461142257600080fd5b6000805461143d90600190600160a01b900461ffff16614dc7565b905060005b828160ff161015611b55576000848260ff168151811061147257634e487b7160e01b600052603260045260246000fd5b60209081029190910181015160ff80851660009081526002845260408082208054808516845260048752828420610100918290049095168452828420835161018081018552858152978801859052928701849052606087018490526080870184905260a0870184905260c0870184905260e08701849052860183905261012086018390526101408601839052610160860192909252929450929091906000600284018161152060018b614dc7565b61ffff168152602081019190915260400160002080549091506001600160801b0316156117ba57845473__$e36f5330ef2566ea8a183e1e27b10de643$__9063aab69633908690849060019060ff6201000082048116916301000000900416828d60028111156115a057634e487b7160e01b600052602160045260246000fd5b6040516001600160e01b031960e08a901b16815260048101979097526024870195909552921515604486015260ff91821660648601521660848401521460a482015260c4016101806040518083038186803b1580156115fe57600080fd5b505af4158015611612573d6000803e3d6000fd5b505050506040513d601f19601f820116820180604052508101906116369190614616565b8051909250156116c6576040828101518654600160201b90046001600160a01b03166000908152600760205291909120546116839161167e916001600160801b0316906132c6565b6132d9565b8554600160201b90046001600160a01b0316600090815260076020526040902080546001600160801b0319166001600160801b0392909216919091179055611744565b6060820151156117445760a082015160018601546001600160a01b03166000908152600760205260409020546117099161167e916001600160801b0316906132c6565b60018601546001600160a01b0316600090815260076020526040902080546001600160801b0319166001600160801b03929092169190911790555b600186600281111561176657634e487b7160e01b600052602160045260246000fd5b1415611799576117948482858860000160019054906101000a900460ff168660a00151876101600151613346565b6117ba565b845460408301516101008401516117ba92879260ff90911691859190613681565b600060028401816117cc60018c614dc7565b61ffff168152602081019190915260400160002080549091506001600160801b031615611a6157855473__$e36f5330ef2566ea8a183e1e27b10de643$__9063aab69633908690849060009060ff630100000082048116916201000090041660028e600281111561184d57634e487b7160e01b600052602160045260246000fd5b6040516001600160e01b031960e08a901b16815260048101979097526024870195909552921515604486015260ff91821660648601521660848401521460a482015260c4016101806040518083038186803b1580156118ab57600080fd5b505af41580156118bf573d6000803e3d6000fd5b505050506040513d601f19601f820116820180604052508101906118e39190614616565b8051909350156119665760408084015160018801546001600160a01b03166000908152600760205291909120546119279161167e916001600160801b0316906132c6565b60018701546001600160a01b0316600090815260076020526040902080546001600160801b0319166001600160801b03929092169190911790556119ec565b6060830151156119ec5760a08301518654600160201b90046001600160a01b03166000908152600760205260409020546119ad9161167e916001600160801b0316906132c6565b8654600160201b90046001600160a01b0316600090815260076020526040902080546001600160801b0319166001600160801b03929092169190911790555b6002876002811115611a0e57634e487b7160e01b600052602160045260246000fd5b1415611a3a57855460a0840151610160850151611a3592879285928a9260ff169190613346565b611a61565b611a61848760000160019054906101000a900460ff16838660400151876101000151613681565b6040516366aef26360e01b81526004810186905261ffff8a16602482015273__$e36f5330ef2566ea8a183e1e27b10de643$__906366aef2639060440160006040518083038186803b158015611ab657600080fd5b505af4158015611aca573d6000803e3d6000fd5b50506040516366aef26360e01b81526004810187905261ffff8c16602482015273__$e36f5330ef2566ea8a183e1e27b10de643$__92506366aef263915060440160006040518083038186803b158015611b2357600080fd5b505af4158015611b37573d6000803e3d6000fd5b50505050505050505050508080611b4d90614e6b565b915050611442565b50611b5e6138e3565b50506000805460ff60b01b1916905550565b6008546001600160a01b03163314611b9a5760405162461bcd60e51b815260040161093e906149c2565b8051600054600160b01b900460ff1615611bb357600080fd5b6000546001600160a01b90910461ffff1611611bce57600080fd5b600054611be690600160b81b900460ff166002614d10565b60ff168114611bf457600080fd5b60005b818160ff161015611d11576000838260ff1681518110611c2757634e487b7160e01b600052603260045260246000fd5b60200260200101519050600060046000846001611c449190614c96565b60ff1660ff16815260200190815260200160002060020160006001600060149054906101000a900461ffff16611c7a9190614dc7565b61ffff16815260208101919091526040908101600020905163338dfe2f60e21b8152600481018490526024810182905290915073__$e36f5330ef2566ea8a183e1e27b10de643$__9063ce37f8bc9060440160006040518083038186803b158015611ce457600080fd5b505af4158015611cf8573d6000803e3d6000fd5b5050505050508080611d0990614e6b565b915050611bf7565b505050565b611d1f8361328e565b600060028181611d30600188614e01565b611d3a9190614ccf565b60ff90811682526020808301939093526040918201600090812088831680835260049095529281209054835493955073__$e36f5330ef2566ea8a183e1e27b10de643$__94637441e8bb94929333938a93600160a01b900461ffff16929116148015611db9575086546001600160a01b03898116600160201b90920416145b80611de95750865460ff8b811661010090920416148015611de9575060018701546001600160a01b038981169116145b6040516001600160e01b031960e088901b16815260048101959095526001600160a01b039093166024850152604484019190915261ffff1660648301521515608482015260a40160006040518083038186803b158015611e4857600080fd5b505af4158015611e5c573d6000803e3d6000fd5b50505050611e6d3384846000613b6d565b816001600160a01b0316336001600160a01b03168560ff167f9ac0ff79dc491174b021e6532a2fc734e82751bba8672e9183a76cb994a5f65a866040516111d091815260200190565b6001600160a01b03811660009081526007602052604081206001810154600f90810b9081900b8313611eec575060019392505050565b60405163b2838a7360e01b81526001600160a01b038516600482015230602482015273__$e36f5330ef2566ea8a183e1e27b10de643$__9063b2838a739060440160206040518083038186803b158015611f4557600080fd5b505af4158015611f59573d6000803e3d6000fd5b505050506040513d601f19601f82011682018060405250810190611f7d91906147b0565b611f8b575060009392505050565b611f9484613c2e565b611f9d90614e8b565b81600f0b121592505050919050565b6040805160c081018252600080825260208201819052918101829052606081018290526080810182905260a081019190915260ff82811660009081526004602081905260408083209254905163c975707360e01b815291820192909252600160b01b820490921615156024830152600160a01b900461ffff16604482015273__$e36f5330ef2566ea8a183e1e27b10de643$__9063c9757073906064015b60c06040518083038186803b15801561206257600080fd5b505af4158015612076573d6000803e3d6000fd5b505050506040513d601f19601f8201168201806040525081019061209a91906146b4565b92915050565b6040805160c081018252600080825260208201819052918101829052606081018290526080810182905260a081019190915260ff828116600090815260046020819052604080832092549051634ed14a7f60e01b815291820192909252336024820152600160b01b820490921615156044830152600160a01b900461ffff16606482015273__$e36f5330ef2566ea8a183e1e27b10de643$__90634ed14a7f9060840161204a565b6000546001600160a01b031633146121725760405162461bcd60e51b815260040161093e906149e4565b61217c6000613d32565b565b6121878261328e565b60ff828116600090815260046020819052604080832092549051630f681f9360e31b81529182019290925233602482015260448101849052600160b01b820490921615156064830152600160a01b900461ffff16608482015273__$e36f5330ef2566ea8a183e1e27b10de643$__90637b40fc989060a401610ef7565b6008546001600160a01b0316331461222e5760405162461bcd60e51b815260040161093e906149c2565b60ff811661224b57600a805460ff19811660ff9091161517905550565b8060ff166001141561227357600a805461ff001981166101009182900460ff16159091021790555b50565b6008546001600160a01b031633146122a05760405162461bcd60e51b815260040161093e906149c2565b600054600160b01b900460ff16156122b757600080fd5b6000546122d090600160a01b900461ffff166001614c58565b6000805460ff60b01b1961ffff93909316600160a01b029290921662ffffff60a01b1990921691909117600160b01b1781555b60005460ff600160b81b90910481169082161015612e265760ff8181166000908152600260209081526040808320805490941683526004918290528083208354915163161dd97560e31b8152928301819052600160a01b90910461ffff16602483015260016044830152919073__$e36f5330ef2566ea8a183e1e27b10de643$__9063b0eecba89060640160206040518083038186803b1580156123a657600080fd5b505af41580156123ba573d6000803e3d6000fd5b505050506040513d601f19601f820116820180604052508101906123de9190614796565b8354610100900460ff1660009081526004602081905260408083208354915163161dd97560e31b8152928301819052600160a01b90910461ffff1660248301526044820183905292935073__$e36f5330ef2566ea8a183e1e27b10de643$__9063b0eecba89060640160206040518083038186803b15801561245f57600080fd5b505af4158015612473573d6000803e3d6000fd5b505050506040513d601f19601f820116820180604052508101906124979190614796565b90506001600160801b03831615612528578454600160201b90046001600160a01b03166000908152600760205260409020546124eb9061167e906001600160801b03600160801b90910481169086166132c6565b85546001600160a01b03600160201b90910416600090815260076020526040902080546001600160801b03928316600160801b0292169190911790555b6001600160801b038116156125ae5760018501546001600160a01b03166000908152600760205260409020546125769061167e90600160801b90046001600160801b039081169084166132c6565b60018601546001600160a01b0316600090815260076020526040902080546001600160801b03928316600160801b0292169190911790555b6000546002600160a01b90910461ffff16116125ce575050505050612e14565b845460008054604051631bb98a3360e01b8152919273__$e36f5330ef2566ea8a183e1e27b10de643$__92631bb98a3392612634928a9260019262010000830460ff90811693630100000090041691600160a01b90910461ffff16908990600401614a70565b6101406040518083038186803b15801561264d57600080fd5b505af4158015612661573d6000803e3d6000fd5b505050506040513d601f19601f8201168201806040525081019061268591906146cf565b865460008054604051631bb98a3360e01b8152939450909273__$e36f5330ef2566ea8a183e1e27b10de643$__92631bb98a33926126ee92899287926301000000820460ff90811693620100009093041691600160a01b90910461ffff16908490600401614a70565b6101406040518083038186803b15801561270757600080fd5b505af415801561271b573d6000803e3d6000fd5b505050506040513d601f19601f8201168201806040525081019061273f91906146cf565b9050600060405180606001604052808481526020018381526020016000600281111561277b57634e487b7160e01b600052602160045260246000fd5b90529050806003600061278e8c83614d10565b60ff168152602080820192909252604090810160002083518051818501516001600160801b03908116600160801b90810292821692909217845582850151606080850151831684029183169190911760018087019190915560808086015160a08088015186168702918616919091176002808a019190915560c08089015160e0808b015189168a029189169190911760038c0155610100808b015160048d0180546101209d8e015115158d026001600160881b0319918216938d16939093179290921790558f8f015180519f8101518b168c029f8b169f909f1760058e01558e8e0151988f01518a168b02988a169890981760068d0155948d0151938d0151881689029388169390931760078b01558b0151918b015186168702918616919091176008890155908901516009880180549a9097015115159095029890921693909216929092179590951790915591840151600a8201805492949193909260ff19169190849081111561291057634e487b7160e01b600052602160045260246000fd5b021790555050885460008054604051631bb98a3360e01b815291935073__$e36f5330ef2566ea8a183e1e27b10de643$__92631bb98a339261297d928d9260019260ff6201000083048116936301000000909304169161ffff600160a01b90910416908490600401614a70565b6101406040518083038186803b15801561299657600080fd5b505af41580156129aa573d6000803e3d6000fd5b505050506040513d601f19601f820116820180604052508101906129ce91906146cf565b6040805160608101825282815260208101869052919250810160019052915081600360006129fc8d83614d10565b612a07906001614c96565b60ff168152602080820192909252604090810160002083518051818501516001600160801b03908116600160801b90810292821692909217845582850151606080850151831684029183169190911760018087019190915560808086015160a08088015186168702918616919091176002808a019190915560c08089015160e0808b015189168a029189169190911760038c0155610100808b015160048d0180546101209d8e015115158d026001600160881b0319918216938d16939093179290921790558f8f015180519f8101518b168c029f8b169f909f1760058e01558e8e0151988f01518a168b02988a169890981760068d0155948d0151938d0151881689029388169390931760078b01558b0151918b015186168702918616919091176008890155908901516009880180549a9097015115159095029890921693909216929092179590951790915591840151600a8201805492949193909260ff191691908490811115612b8957634e487b7160e01b600052602160045260246000fd5b021790555050895460008054604051631bb98a3360e01b815291935073__$e36f5330ef2566ea8a183e1e27b10de643$__92631bb98a3392612bf6928c92879260ff6301000000830481169362010000909304169161ffff600160a01b9091041690600190600401614a70565b6101406040518083038186803b158015612c0f57600080fd5b505af4158015612c23573d6000803e3d6000fd5b505050506040513d601f19601f82011682018060405250810190612c4791906146cf565b604080516060810182528781526020810183905291925081016002905292508260036000612c758e83614d10565b612c80906002614c96565b60ff168152602080820192909252604090810160002083518051818501516001600160801b03908116600160801b90810292821692909217845582850151606080850151831684029183169190911760018087019190915560808086015160a08088015186168702918616919091176002808a019190915560c08089015160e0808b015189168a029189169190911760038c0155610100808b015160048d0180546101209d8e015115158d026001600160881b0319918216938d16939093179290921790558f8f015180519f8101518b168c029f8b169f909f1760058e01558e8e0151988f01518a168b02988a169890981760068d0155948d0151938d0151881689029388169390931760078b01558b0151918b015186168702918616919091176008890155908901516009880180549a9097015115159095029890921693909216929092179590951790915591840151600a8201805492949193909260ff191691908490811115612e0257634e487b7160e01b600052602160045260246000fd5b02179055505050505050505050505050505b80612e1e81614e6b565b915050612303565b50600054600160a01b900461ffff1660011415612e4c576000805460ff60b01b19169055565b600054600160a01b900461ffff166002141561217c5760015b600054612e7d90600160b81b900460ff166002614d10565b60ff168160ff1611612f185760ff8116600090815260046020819052604080832081516366aef26360e01b815292830152600160248301525173__$e36f5330ef2566ea8a183e1e27b10de643$__926366aef2639260448082019391829003018186803b158015612eed57600080fd5b505af4158015612f01573d6000803e3d6000fd5b505050508080612f1090614e6b565b915050612e65565b50612f216138e3565b6000805460ff60b01b19169055565b6000546001600160a01b03163314612f5a5760405162461bcd60e51b815260040161093e906149e4565b6001600160a01b038116612fbf5760405162461bcd60e51b815260206004820152602660248201527f4f776e61626c653a206e6577206f776e657220697320746865207a65726f206160448201526564647265737360d01b606482015260840161093e565b61227381613d32565b818060ff1660011480612fde57508060ff166002145b1561303557600a5460ff166130355760405162461bcd60e51b815260206004820152601a60248201527f63616e6e6f74206465706f73697420657468206f722075736463000000000000604482015260640161093e565b8060ff166003148061304a57508060ff166004145b156130a657600a54610100900460ff166130a65760405162461bcd60e51b815260206004820152601b60248201527f63616e6e6f74206465706f7369742077627463206f7220757364630000000000604482015260640161093e565b600054600160a01b900461ffff166130eb5760405162461bcd60e51b81526020600482015260086024820152670854dd185c9d195960c21b604482015260640161093e565b600082116131255760405162461bcd60e51b815260206004820152600760248201526608585b5bdd5b9d60ca1b604482015260640161093e565b61312e8361328e565b60006002818161313f600188614e01565b6131499190614ccf565b60ff908116825260208201929092526040016000908120805490935090918681169116146131845760018201546001600160a01b0316613197565b8154600160201b90046001600160a01b03165b90506001600160a01b0381166131ac57600080fd5b60ff851660009081526004602081905260408083208354915163c502f99160e01b815273__$e36f5330ef2566ea8a183e1e27b10de643$__9463c502f9919461320a9433938c9392600160a01b90920461ffff169160019101614a39565b60006040518083038186803b15801561322257600080fd5b505af4158015613236573d6000803e3d6000fd5b5050600054604051878152600160a01b90910461ffff16925033915060ff881690600080516020614ee88339815191529060200160405180910390a46132876001600160a01b038216333087613d82565b5050505050565b60ff8116158015906132bd57506000546132b390600160b81b900460ff166002614d10565b60ff168160ff1611155b61227357600080fd5b60006132d28284614c7e565b9392505050565b60006001600160801b038211156133425760405162461bcd60e51b815260206004820152602760248201527f53616665436173743a2076616c756520646f65736e27742066697420696e20316044820152663238206269747360c81b606482015260840161093e565b5090565b8454600090613368906001600160801b0380821691600160801b900416613de2565b60018801549091506001600160801b0316158015906133875750600082115b156133e65760018601546133c39061167e906133af908490600160901b900461ffff16613dee565b60018a01546001600160801b031690613e10565b6001880180546001600160801b0319166001600160801b03929092169190911790555b600387015460005b8181101561367657600089600301828154811061341b57634e487b7160e01b600052603260045260246000fd5b60009182526020808320909101546001600160a01b031680835260048d0190915260409091206001810154919250906001600160801b031661345e575050613664565b60018101548a5460009161348c918a916001600160801b03600160801b918290048116929190910416613e2b565b905080156134d35760038201546134b09061167e906001600160801b0316836132c6565b6003830180546001600160801b0319166001600160801b03929092169190911790555b60018201546000906134f8906001600160801b0380821691600160801b900416613de2565b9050600061350789838a613e2b565b9050801561364f5760018d0154600090819061352f908590600160901b900461ffff16613dee565b60028701549091506001600160801b031681106135675760028601546135609084906001600160801b031683613e2b565b915061356b565b8291505b73__$e36f5330ef2566ea8a183e1e27b10de643$__63c502f9918f8986866001600060149054906101000a900461ffff166135a69190614dc7565b60006040518763ffffffff1660e01b81526004016135c996959493929190614a39565b60006040518083038186803b1580156135e157600080fd5b505af41580156135f5573d6000803e3d6000fd5b5050600054613613925060019150600160a01b900461ffff16614dc7565b61ffff16876001600160a01b03168e60ff16600080516020614ee88339815191528660405161364491815260200190565b60405180910390a450505b50505060010180546001600160801b03169055505b8061366e81614e50565b9150506133ee565b505050505050505050565b82546000906136a3906001600160801b0380821691600160801b900416613de2565b600387015490915060005b818110156138d95760008860030182815481106136db57634e487b7160e01b600052603260045260246000fd5b60009182526020808320909101546001600160a01b031680835260048c0190915260409091206001810154919250906001600160801b031661371e5750506138c7565b6001810154885460009161374c918a916001600160801b03600160801b918290048116929190910416613e2b565b905080156137975760028201546137779061167e90600160801b90046001600160801b0316836132c6565b6002830180546001600160801b03928316600160801b0292169190911790555b60018201546000906137c89089906137c2906001600160801b0380821691600160801b900416613de2565b89613e2b565b905080156138b35773__$e36f5330ef2566ea8a183e1e27b10de643$__63c502f9918d868460006001600060149054906101000a900461ffff1661380c9190614dc7565b60006040518763ffffffff1660e01b815260040161382f96959493929190614a39565b60006040518083038186803b15801561384757600080fd5b505af415801561385b573d6000803e3d6000fd5b5050600054613879925060019150600160a01b900461ffff16614dc7565b61ffff16846001600160a01b03168c60ff16600080516020614ee8833981519152846040516138aa91815260200190565b60405180910390a45b505060010180546001600160801b03169055505b806138d181614e50565b9150506136ae565b5050505050505050565b60005b60055460ff90811690821610156122735760ff81166000908152600660209081526040808320546001600160a01b031680845260079092528220825491929091600160a01b900461ffff166002146139705781546001600160801b0380821691600160801b90041661395785613c2e565b6139619190614d39565b61396b9190614c0a565b613973565b60005b60018301546139859190600f0b614c0a565b6002830180546001600160801b0316905560405163b2838a7360e01b81526001600160a01b0385166004820152306024820152909150613a2e9073__$e36f5330ef2566ea8a183e1e27b10de643$__9063b2838a739060440160206040518083038186803b1580156139f657600080fd5b505af4158015613a0a573d6000803e3d6000fd5b505050506040513d601f19601f8201168201806040525081019061167e91906147b0565b6001830180546001600160801b03928316600160801b029216919091179055613a5961167e84613e73565b600283810180546001600160801b03199081166001600160801b0394851617909155604080516080810182528654600160801b808204871683529086166020808401918252600f89810b8587019081526001600160a01b038d811660608801818152600091825260019586905298902087519551958c16958c168702959095178555905192840180549098169290910b89169190911790955592519290940180546001600160a01b03191692909316919091179091558454909281811692613b2392041684614c0a565b613b2d9190614d39565b600184018054600f9290920b6001600160801b03166001600160801b03199092169190911790555050600090555080613b6581614e6b565b9150506138e6565b60095415613b8d5760405162461bcd60e51b815260040161093e90614a19565b600160095580613ba957613ba082611eb6565b613ba957600080fd5b604051631a4ca37b60e21b81526001600160a01b038086166004830152602482018590528316604482015273__$e36f5330ef2566ea8a183e1e27b10de643$__906369328dec9060640160006040518083038186803b158015613c0b57600080fd5b505af4158015613c1f573d6000803e3d6000fd5b50506000600955505050505050565b6001600160a01b0381166000908152600760205260408120613c6d613c5284613e73565b6001830154600160801b90046001600160801b0316906132c6565b600282015460405163b2838a7360e01b81526001600160a01b0386166004820152306024820152613d28916001600160801b0380821692613d2292600160801b90049091169073__$e36f5330ef2566ea8a183e1e27b10de643$__9063b2838a739060440160206040518083038186803b158015613cea57600080fd5b505af4158015613cfe573d6000803e3d6000fd5b505050506040513d601f19601f82011682018060405250810190613d2291906147b0565b906132c6565b6132d29190614d88565b600080546001600160a01b038381166001600160a01b0319831681178455604051919092169283917f8be0079c531659141344cd1fd0a4f28419497f9722a3daafe3b4186f6b6457e09190a35050565b604080516001600160a01b0385811660248301528416604482015260648082018490528251808303909101815260849091019091526020810180516001600160e01b03166323b872dd60e01b179052613ddc908590614006565b50505050565b60006132d28284614dea565b60006132d2612710613e0a613e038583614c7e565b86906140d8565b906140e4565b600081831015613e215760006132d2565b6132d28284614dea565b6000821580613e38575081155b80613e41575083155b15613e4e575060006132d2565b81831015613e6957613e6482613e0a86866140d8565b613e6b565b835b949350505050565b600080805b60005460ff600160b81b90910481169082161015613fff5760ff8116600090815260026020526040902080546001600160a01b03868116600160201b909204161480613ed3575060018101546001600160a01b038681169116145b15613fec57805460ff8116600090815260046020526040902090613f5d906001600160a01b03888116600160201b9092041614613f21578154600160801b90046001600160801b0316613f56565b815460008054600160a01b900461ffff168152600284016020526040902054613f56916001600160801b0391821691166132c6565b85906132c6565b8254610100900460ff166000908152600460205260409020600184015491955090613fe7906001600160a01b03898116911614613fab578154600160801b90046001600160801b0316613fe0565b815460008054600160a01b900461ffff168152600284016020526040902054613fe0916001600160801b0391821691166132c6565b86906132c6565b945050505b5080613ff781614e6b565b915050613e78565b5092915050565b600061405b826040518060400160405280602081526020017f5361666545524332303a206c6f772d6c6576656c2063616c6c206661696c6564815250856001600160a01b03166140f09092919063ffffffff16565b805190915015611d11578080602001905181019061407991906145fc565b611d115760405162461bcd60e51b815260206004820152602a60248201527f5361666545524332303a204552433230206f7065726174696f6e20646964206e6044820152691bdd081cdd58d8d9595960b21b606482015260840161093e565b60006132d28284614cf1565b60006132d28284614cbb565b6060613e6b848460008585843b6141495760405162461bcd60e51b815260206004820152601d60248201527f416464726573733a2063616c6c20746f206e6f6e2d636f6e7472616374000000604482015260640161093e565b600080866001600160a01b031685876040516141659190614973565b60006040518083038185875af1925050503d80600081146141a2576040519150601f19603f3d011682016040523d82523d6000602084013e6141a7565b606091505b50915091506141b78282866141c2565b979650505050505050565b606083156141d15750816132d2565b8251156141e15782518084602001fd5b8160405162461bcd60e51b815260040161093e919061498f565b80356001600160a01b038116811461421257600080fd5b919050565b8051801515811461421257600080fd5b600060c08284031215614238578081fd5b614240614b44565b905061424b826142a8565b8152614259602083016142a8565b602082015261426a604083016142a8565b604082015261427b606083016142a8565b606082015261428c608083016142a8565b608082015261429d60a083016142a8565b60a082015292915050565b80516001600160801b038116811461421257600080fd5b803560ff8116811461421257600080fd5b6000602082840312156142e1578081fd5b6132d2826141fb565b600080604083850312156142fc578081fd5b614305836141fb565b9150614313602084016141fb565b90509250929050565b6000806040838503121561432e578182fd5b614337836141fb565b915060208084013567ffffffffffffffff811115614353578283fd5b8401601f81018613614363578283fd5b803561437661437182614be6565b614bb5565b80828252848201915084840189868560051b8701011115614395578687fd5b8694505b838510156143be576143aa816141fb565b835260019490940193918501918501614399565b5080955050505050509250929050565b600060208083850312156143e0578182fd5b823567ffffffffffffffff8111156143f6578283fd5b8301601f81018513614406578283fd5b803561441461437182614be6565b80828252848201915084840188868560051b8701011115614433578687fd5b8694505b838510156144615780356003811061444d578788fd5b835260019490940193918501918501614437565b50979650505050505050565b6000602080838503121561447f578182fd5b823567ffffffffffffffff811115614495578283fd5b8301601f810185136144a5578283fd5b80356144b361437182614be6565b8181528381019083850160c0808502860187018a10156144d1578788fd5b8795505b848610156145675780828b0312156144eb578788fd5b6144f3614b44565b6144fc836142bf565b81526145098884016142bf565b88820152604061451a8185016142bf565b90820152606061452b8482016142bf565b90820152608061453c8482016141fb565b9082015260a061454d8482016141fb565b9082015284526001959095019492860192908101906144d5565b509098975050505050505050565b60006020808385031215614587578182fd5b823567ffffffffffffffff81111561459d578283fd5b8301601f810185136145ad578283fd5b80356145bb61437182614be6565b80828252848201915084840188868560051b87010111156145da578687fd5b8694505b838510156144615780358352600194909401939185019185016145de565b60006020828403121561460d578081fd5b6132d282614217565b60006101808284031215614628578081fd5b614630614b6d565b825181526020830151602082015260408301516040820152606083015160608201526080830151608082015260a083015160a082015260c083015160c082015260e083015160e08201526101008084015181830152506101208084015181830152506101408084015181830152506101608084015181830152508091505092915050565b600060c082840312156146c5578081fd5b6132d28383614227565b600061014082840312156146e1578081fd5b6146e9614b91565b6146f2836142a8565b8152614700602084016142a8565b6020820152614711604084016142a8565b6040820152614722606084016142a8565b6060820152614733608084016142a8565b608082015261474460a084016142a8565b60a082015261475560c084016142a8565b60c082015261476660e084016142a8565b60e08201526101006147798185016142a8565b9082015261012061478b848201614217565b908201529392505050565b6000602082840312156147a7578081fd5b6132d2826142a8565b6000602082840312156147c1578081fd5b5051919050565b6000602082840312156147d9578081fd5b6132d2826142bf565b600080604083850312156147f4578182fd5b6147fd836142bf565b9150602083013561ffff81168114614813578182fd5b809150509250929050565b60008060408385031215614830578182fd5b614839836142bf565b946020939093013593505050565b60008060006060848603121561485b578081fd5b614864846142bf565b925060208401359150614879604085016141fb565b90509250925092565b80516001600160801b0316825260208101516148a960208401826001600160801b03169052565b5060408101516148c460408401826001600160801b03169052565b5060608101516148df60608401826001600160801b03169052565b5060808101516148fa60808401826001600160801b03169052565b5060a081015161491560a08401826001600160801b03169052565b5060c081015161493060c08401826001600160801b03169052565b5060e081015161494b60e08401826001600160801b03169052565b50610100818101516001600160801b0316908301526101208082015180151582850152613ddc565b60008251614985818460208701614e24565b9190910192915050565b60208152600082518060208401526149ae816040850160208701614e24565b601f01601f19169190910160400192915050565b60208082526008908201526710b9b2ba3a3632b960c11b604082015260600190565b6020808252818101527f4f776e61626c653a2063616c6c6572206973206e6f7420746865206f776e6572604082015260600190565b6020808252600690820152651b1bd8dad95960d21b604082015260600190565b9586526001600160a01b039490941660208601526040850192909252606084015261ffff166080830152151560a082015260c00190565b958652931515602086015260ff92831660408601529116606084015261ffff166080830152151560a082015260c00190565b60c0810161209a82846001600160801b038082511683528060208301511660208401528060408301511660408401528060608301511660608401528060808301511660808401528060a08301511660a0840152505050565b6102a08101614b098286614882565b614b17610140830185614882565b60038310614b3557634e487b7160e01b600052602160045260246000fd5b82610280830152949350505050565b60405160c0810167ffffffffffffffff81118282101715614b6757614b67614ed1565b60405290565b604051610180810167ffffffffffffffff81118282101715614b6757614b67614ed1565b604051610140810167ffffffffffffffff81118282101715614b6757614b67614ed1565b604051601f8201601f1916810167ffffffffffffffff81118282101715614bde57614bde614ed1565b604052919050565b600067ffffffffffffffff821115614c0057614c00614ed1565b5060051b60200190565b600081600f0b83600f0b8282128260016001607f1b0303821381151615614c3357614c33614ea5565b8260016001607f1b0319038212811615614c4f57614c4f614ea5565b50019392505050565b600061ffff808316818516808303821115614c7557614c75614ea5565b01949350505050565b60008219821115614c9157614c91614ea5565b500190565b600060ff821660ff84168060ff03821115614cb357614cb3614ea5565b019392505050565b600082614cca57614cca614ebb565b500490565b600060ff831680614ce257614ce2614ebb565b8060ff84160491505092915050565b6000816000190483118215151615614d0b57614d0b614ea5565b500290565b600060ff821660ff84168160ff0481118215151615614d3157614d31614ea5565b029392505050565b600081600f0b83600f0b8281128160016001607f1b031901831281151615614d6357614d63614ea5565b8160016001607f1b03018313811615614d7e57614d7e614ea5565b5090039392505050565b60008083128015600160ff1b850184121615614da657614da6614ea5565b6001600160ff1b0384018313811615614dc157614dc1614ea5565b50500390565b600061ffff83811690831681811015614de257614de2614ea5565b039392505050565b600082821015614dfc57614dfc614ea5565b500390565b600060ff821660ff841680821015614e1b57614e1b614ea5565b90039392505050565b60005b83811015614e3f578181015183820152602001614e27565b83811115613ddc5750506000910152565b6000600019821415614e6457614e64614ea5565b5060010190565b600060ff821660ff811415614e8257614e82614ea5565b60010192915050565b6000600160ff1b821415614ea157614ea1614ea5565b0390565b634e487b7160e01b600052601160045260246000fd5b634e487b7160e01b600052601260045260246000fd5b634e487b7160e01b600052604160045260246000fdfee963a73e630cb9812a026653bfb6b1e14ffa92f8c38b79f318f2637557ea9f12a264697066735822122023fab994aa868b33b4706190bba7b79999351b85d36b7342bbf7b6ac1076d1c764736f6c63430008040033",
  "libraries": {
    "OptionLifecycle": "0x12A78E459429fff2570E97D78Ff87F98a36B85Ab"
  },
  "devdoc": {
    "kind": "dev",
    "methods": {
      "owner()": {
        "details": "Returns the address of the current owner."
      },
      "renounceOwnership()": {
        "details": "Leaves the contract without owner. It will not be possible to call `onlyOwner` functions anymore. Can only be called by the current owner. NOTE: Renouncing ownership will leave the contract without an owner, thereby removing any functionality that is only available to the owner."
      },
      "transferOwnership(address)": {
        "details": "Transfers ownership of the contract to a new account (`newOwner`). Can only be called by the current owner."
      }
    },
    "version": 1
  },
  "userdoc": {
    "kind": "user",
    "methods": {},
    "version": 1
  },
  "storageLayout": {
    "storage": [
      {
        "astId": 891,
        "contract": "contracts/PKKTHodlBoosterOption.sol:PKKTHodlBoosterOption",
        "label": "_owner",
        "offset": 0,
        "slot": "0",
        "type": "t_address"
      },
      {
        "astId": 2969,
        "contract": "contracts/PKKTHodlBoosterOption.sol:PKKTHodlBoosterOption",
        "label": "currentRound",
        "offset": 20,
        "slot": "0",
        "type": "t_uint16"
      },
      {
        "astId": 2971,
        "contract": "contracts/PKKTHodlBoosterOption.sol:PKKTHodlBoosterOption",
        "label": "underSettlement",
        "offset": 22,
        "slot": "0",
        "type": "t_bool"
      },
      {
        "astId": 2973,
        "contract": "contracts/PKKTHodlBoosterOption.sol:PKKTHodlBoosterOption",
        "label": "optionPairCount",
        "offset": 23,
        "slot": "0",
        "type": "t_uint8"
      },
      {
        "astId": 2978,
        "contract": "contracts/PKKTHodlBoosterOption.sol:PKKTHodlBoosterOption",
        "label": "settlementCashflowResult",
        "offset": 0,
        "slot": "1",
        "type": "t_mapping(t_address,t_struct(SettlementCashflowResult)12461_storage)"
      },
      {
        "astId": 2983,
        "contract": "contracts/PKKTHodlBoosterOption.sol:PKKTHodlBoosterOption",
        "label": "optionPairs",
        "offset": 0,
        "slot": "2",
        "type": "t_mapping(t_uint8,t_struct(OptionPairDefinition)12417_storage)"
      },
      {
        "astId": 2988,
        "contract": "contracts/PKKTHodlBoosterOption.sol:PKKTHodlBoosterOption",
        "label": "executionAccountingResult",
        "offset": 0,
        "slot": "3",
        "type": "t_mapping(t_uint8,t_struct(OptionPairExecutionAccountingResult)12452_storage)"
      },
      {
        "astId": 2993,
        "contract": "contracts/PKKTHodlBoosterOption.sol:PKKTHodlBoosterOption",
        "label": "optionData",
        "offset": 0,
        "slot": "4",
        "type": "t_mapping(t_uint8,t_struct(OptionData)12361_storage)"
      },
      {
        "astId": 2995,
        "contract": "contracts/PKKTHodlBoosterOption.sol:PKKTHodlBoosterOption",
        "label": "assetCount",
        "offset": 0,
        "slot": "5",
        "type": "t_uint8"
      },
      {
        "astId": 2999,
        "contract": "contracts/PKKTHodlBoosterOption.sol:PKKTHodlBoosterOption",
        "label": "asset",
        "offset": 0,
        "slot": "6",
        "type": "t_mapping(t_uint8,t_address)"
      },
      {
        "astId": 3004,
        "contract": "contracts/PKKTHodlBoosterOption.sol:PKKTHodlBoosterOption",
        "label": "assetData",
        "offset": 0,
        "slot": "7",
        "type": "t_mapping(t_address,t_struct(AssetData)12341_storage)"
      },
      {
        "astId": 3006,
        "contract": "contracts/PKKTHodlBoosterOption.sol:PKKTHodlBoosterOption",
        "label": "settlerRoleAddress",
        "offset": 0,
        "slot": "8",
        "type": "t_address"
      },
      {
        "astId": 4504,
        "contract": "contracts/PKKTHodlBoosterOption.sol:PKKTHodlBoosterOption",
        "label": "locked",
        "offset": 0,
        "slot": "9",
        "type": "t_uint256"
      },
      {
        "astId": 6577,
        "contract": "contracts/PKKTHodlBoosterOption.sol:PKKTHodlBoosterOption",
        "label": "canDepositEthAndUsdc",
        "offset": 0,
        "slot": "10",
        "type": "t_bool"
      },
      {
        "astId": 6579,
        "contract": "contracts/PKKTHodlBoosterOption.sol:PKKTHodlBoosterOption",
        "label": "canDepositWbtcAndUsdc",
        "offset": 1,
        "slot": "10",
        "type": "t_bool"
      }
    ],
    "types": {
      "t_address": {
        "encoding": "inplace",
        "label": "address",
        "numberOfBytes": "20"
      },
      "t_array(t_address)dyn_storage": {
        "base": "t_address",
        "encoding": "dynamic_array",
        "label": "address[]",
        "numberOfBytes": "32"
      },
      "t_bool": {
        "encoding": "inplace",
        "label": "bool",
        "numberOfBytes": "1"
      },
      "t_enum(OptionExecution)12442": {
        "encoding": "inplace",
        "label": "enum StructureData.OptionExecution",
        "numberOfBytes": "1"
      },
      "t_int128": {
        "encoding": "inplace",
        "label": "int128",
        "numberOfBytes": "16"
      },
      "t_mapping(t_address,t_struct(AssetData)12341_storage)": {
        "encoding": "mapping",
        "key": "t_address",
        "label": "mapping(address => struct StructureData.AssetData)",
        "numberOfBytes": "32",
        "value": "t_struct(AssetData)12341_storage"
      },
      "t_mapping(t_address,t_struct(SettlementCashflowResult)12461_storage)": {
        "encoding": "mapping",
        "key": "t_address",
        "label": "mapping(address => struct StructureData.SettlementCashflowResult)",
        "numberOfBytes": "32",
        "value": "t_struct(SettlementCashflowResult)12461_storage"
      },
      "t_mapping(t_address,t_struct(UserState)12378_storage)": {
        "encoding": "mapping",
        "key": "t_address",
        "label": "mapping(address => struct StructureData.UserState)",
        "numberOfBytes": "32",
        "value": "t_struct(UserState)12378_storage"
      },
      "t_mapping(t_uint16,t_struct(OptionState)12303_storage)": {
        "encoding": "mapping",
        "key": "t_uint16",
        "label": "mapping(uint16 => struct StructureData.OptionState)",
        "numberOfBytes": "32",
        "value": "t_struct(OptionState)12303_storage"
      },
      "t_mapping(t_uint8,t_address)": {
        "encoding": "mapping",
        "key": "t_uint8",
        "label": "mapping(uint8 => address)",
        "numberOfBytes": "32",
        "value": "t_address"
      },
      "t_mapping(t_uint8,t_struct(OptionData)12361_storage)": {
        "encoding": "mapping",
        "key": "t_uint8",
        "label": "mapping(uint8 => struct StructureData.OptionData)",
        "numberOfBytes": "32",
        "value": "t_struct(OptionData)12361_storage"
      },
      "t_mapping(t_uint8,t_struct(OptionPairDefinition)12417_storage)": {
        "encoding": "mapping",
        "key": "t_uint8",
        "label": "mapping(uint8 => struct StructureData.OptionPairDefinition)",
        "numberOfBytes": "32",
        "value": "t_struct(OptionPairDefinition)12417_storage"
      },
      "t_mapping(t_uint8,t_struct(OptionPairExecutionAccountingResult)12452_storage)": {
        "encoding": "mapping",
        "key": "t_uint8",
        "label": "mapping(uint8 => struct StructureData.OptionPairExecutionAccountingResult)",
        "numberOfBytes": "32",
        "value": "t_struct(OptionPairExecutionAccountingResult)12452_storage"
      },
      "t_struct(AssetData)12341_storage": {
        "encoding": "inplace",
        "label": "struct StructureData.AssetData",
        "members": [
          {
            "astId": 12330,
            "contract": "contracts/PKKTHodlBoosterOption.sol:PKKTHodlBoosterOption",
            "label": "releasedAmount",
            "offset": 0,
            "slot": "0",
            "type": "t_uint128"
          },
          {
            "astId": 12332,
            "contract": "contracts/PKKTHodlBoosterOption.sol:PKKTHodlBoosterOption",
            "label": "depositAmount",
            "offset": 16,
            "slot": "0",
            "type": "t_uint128"
          },
          {
            "astId": 12334,
            "contract": "contracts/PKKTHodlBoosterOption.sol:PKKTHodlBoosterOption",
            "label": "leftOverAmount",
            "offset": 0,
            "slot": "1",
            "type": "t_int128"
          },
          {
            "astId": 12336,
            "contract": "contracts/PKKTHodlBoosterOption.sol:PKKTHodlBoosterOption",
            "label": "balanceAfterSettle",
            "offset": 16,
            "slot": "1",
            "type": "t_uint128"
          },
          {
            "astId": 12338,
            "contract": "contracts/PKKTHodlBoosterOption.sol:PKKTHodlBoosterOption",
            "label": "withdrawableAfterSettle",
            "offset": 0,
            "slot": "2",
            "type": "t_uint128"
          },
          {
            "astId": 12340,
            "contract": "contracts/PKKTHodlBoosterOption.sol:PKKTHodlBoosterOption",
            "label": "traderWithdrawn",
            "offset": 16,
            "slot": "2",
            "type": "t_uint128"
          }
        ],
        "numberOfBytes": "96"
      },
      "t_struct(OptionData)12361_storage": {
        "encoding": "inplace",
        "label": "struct StructureData.OptionData",
        "members": [
          {
            "astId": 12343,
            "contract": "contracts/PKKTHodlBoosterOption.sol:PKKTHodlBoosterOption",
            "label": "totalReleasedDepositAssetAmount",
            "offset": 0,
            "slot": "0",
            "type": "t_uint128"
          },
          {
            "astId": 12345,
            "contract": "contracts/PKKTHodlBoosterOption.sol:PKKTHodlBoosterOption",
            "label": "totalReleasedCounterPartyAssetAmount",
            "offset": 16,
            "slot": "0",
            "type": "t_uint128"
          },
          {
            "astId": 12347,
            "contract": "contracts/PKKTHodlBoosterOption.sol:PKKTHodlBoosterOption",
            "label": "assetToTerminateForNextRound",
            "offset": 0,
            "slot": "1",
            "type": "t_uint128"
          },
          {
            "astId": 12352,
            "contract": "contracts/PKKTHodlBoosterOption.sol:PKKTHodlBoosterOption",
            "label": "optionStates",
            "offset": 0,
            "slot": "2",
            "type": "t_mapping(t_uint16,t_struct(OptionState)12303_storage)"
          },
          {
            "astId": 12355,
            "contract": "contracts/PKKTHodlBoosterOption.sol:PKKTHodlBoosterOption",
            "label": "usersInvolved",
            "offset": 0,
            "slot": "3",
            "type": "t_array(t_address)dyn_storage"
          },
          {
            "astId": 12360,
            "contract": "contracts/PKKTHodlBoosterOption.sol:PKKTHodlBoosterOption",
            "label": "userStates",
            "offset": 0,
            "slot": "4",
            "type": "t_mapping(t_address,t_struct(UserState)12378_storage)"
          }
        ],
        "numberOfBytes": "160"
      },
      "t_struct(OptionPairDefinition)12417_storage": {
        "encoding": "inplace",
        "label": "struct StructureData.OptionPairDefinition",
        "members": [
          {
            "astId": 12406,
            "contract": "contracts/PKKTHodlBoosterOption.sol:PKKTHodlBoosterOption",
            "label": "callOptionId",
            "offset": 0,
            "slot": "0",
            "type": "t_uint8"
          },
          {
            "astId": 12408,
            "contract": "contracts/PKKTHodlBoosterOption.sol:PKKTHodlBoosterOption",
            "label": "putOptionId",
            "offset": 1,
            "slot": "0",
            "type": "t_uint8"
          },
          {
            "astId": 12410,
            "contract": "contracts/PKKTHodlBoosterOption.sol:PKKTHodlBoosterOption",
            "label": "depositAssetAmountDecimals",
            "offset": 2,
            "slot": "0",
            "type": "t_uint8"
          },
          {
            "astId": 12412,
            "contract": "contracts/PKKTHodlBoosterOption.sol:PKKTHodlBoosterOption",
            "label": "counterPartyAssetAmountDecimals",
            "offset": 3,
            "slot": "0",
            "type": "t_uint8"
          },
          {
            "astId": 12414,
            "contract": "contracts/PKKTHodlBoosterOption.sol:PKKTHodlBoosterOption",
            "label": "depositAsset",
            "offset": 4,
            "slot": "0",
            "type": "t_address"
          },
          {
            "astId": 12416,
            "contract": "contracts/PKKTHodlBoosterOption.sol:PKKTHodlBoosterOption",
            "label": "counterPartyAsset",
            "offset": 0,
            "slot": "1",
            "type": "t_address"
          }
        ],
        "numberOfBytes": "64"
      },
      "t_struct(OptionPairExecutionAccountingResult)12452_storage": {
        "encoding": "inplace",
        "label": "struct StructureData.OptionPairExecutionAccountingResult",
        "members": [
          {
            "astId": 12445,
            "contract": "contracts/PKKTHodlBoosterOption.sol:PKKTHodlBoosterOption",
            "label": "callOptionResult",
            "offset": 0,
            "slot": "0",
            "type": "t_struct(SettlementAccountingResult)12438_storage"
          },
          {
            "astId": 12448,
            "contract": "contracts/PKKTHodlBoosterOption.sol:PKKTHodlBoosterOption",
            "label": "putOptionResult",
            "offset": 0,
            "slot": "5",
            "type": "t_struct(SettlementAccountingResult)12438_storage"
          },
          {
            "astId": 12451,
            "contract": "contracts/PKKTHodlBoosterOption.sol:PKKTHodlBoosterOption",
            "label": "execute",
            "offset": 0,
            "slot": "10",
            "type": "t_enum(OptionExecution)12442"
          }
        ],
        "numberOfBytes": "352"
      },
      "t_struct(OptionState)12303_storage": {
        "encoding": "inplace",
        "label": "struct StructureData.OptionState",
        "members": [
          {
            "astId": 12290,
            "contract": "contracts/PKKTHodlBoosterOption.sol:PKKTHodlBoosterOption",
            "label": "totalAmount",
            "offset": 0,
            "slot": "0",
            "type": "t_uint128"
          },
          {
            "astId": 12292,
            "contract": "contracts/PKKTHodlBoosterOption.sol:PKKTHodlBoosterOption",
            "label": "totalTerminate",
            "offset": 16,
            "slot": "0",
            "type": "t_uint128"
          },
          {
            "astId": 12294,
            "contract": "contracts/PKKTHodlBoosterOption.sol:PKKTHodlBoosterOption",
            "label": "strikePrice",
            "offset": 0,
            "slot": "1",
            "type": "t_uint128"
          },
          {
            "astId": 12296,
            "contract": "contracts/PKKTHodlBoosterOption.sol:PKKTHodlBoosterOption",
            "label": "round",
            "offset": 16,
            "slot": "1",
            "type": "t_uint16"
          },
          {
            "astId": 12298,
            "contract": "contracts/PKKTHodlBoosterOption.sol:PKKTHodlBoosterOption",
            "label": "premiumRate",
            "offset": 18,
            "slot": "1",
            "type": "t_uint16"
          },
          {
            "astId": 12300,
            "contract": "contracts/PKKTHodlBoosterOption.sol:PKKTHodlBoosterOption",
            "label": "executed",
            "offset": 20,
            "slot": "1",
            "type": "t_bool"
          },
          {
            "astId": 12302,
            "contract": "contracts/PKKTHodlBoosterOption.sol:PKKTHodlBoosterOption",
            "label": "callOrPut",
            "offset": 21,
            "slot": "1",
            "type": "t_bool"
          }
        ],
        "numberOfBytes": "64"
      },
      "t_struct(SettlementAccountingResult)12438_storage": {
        "encoding": "inplace",
        "label": "struct StructureData.SettlementAccountingResult",
        "members": [
          {
            "astId": 12419,
            "contract": "contracts/PKKTHodlBoosterOption.sol:PKKTHodlBoosterOption",
            "label": "depositAmount",
            "offset": 0,
            "slot": "0",
            "type": "t_uint128"
          },
          {
            "astId": 12421,
            "contract": "contracts/PKKTHodlBoosterOption.sol:PKKTHodlBoosterOption",
            "label": "autoRollAmount",
            "offset": 16,
            "slot": "0",
            "type": "t_uint128"
          },
          {
            "astId": 12423,
            "contract": "contracts/PKKTHodlBoosterOption.sol:PKKTHodlBoosterOption",
            "label": "autoRollPremium",
            "offset": 0,
            "slot": "1",
            "type": "t_uint128"
          },
          {
            "astId": 12425,
            "contract": "contracts/PKKTHodlBoosterOption.sol:PKKTHodlBoosterOption",
            "label": "releasedAmount",
            "offset": 16,
            "slot": "1",
            "type": "t_uint128"
          },
          {
            "astId": 12427,
            "contract": "contracts/PKKTHodlBoosterOption.sol:PKKTHodlBoosterOption",
            "label": "releasedPremium",
            "offset": 0,
            "slot": "2",
            "type": "t_uint128"
          },
          {
            "astId": 12429,
            "contract": "contracts/PKKTHodlBoosterOption.sol:PKKTHodlBoosterOption",
            "label": "autoRollCounterPartyAmount",
            "offset": 16,
            "slot": "2",
            "type": "t_uint128"
          },
          {
            "astId": 12431,
            "contract": "contracts/PKKTHodlBoosterOption.sol:PKKTHodlBoosterOption",
            "label": "autoRollCounterPartyPremium",
            "offset": 0,
            "slot": "3",
            "type": "t_uint128"
          },
          {
            "astId": 12433,
            "contract": "contracts/PKKTHodlBoosterOption.sol:PKKTHodlBoosterOption",
            "label": "releasedCounterPartyAmount",
            "offset": 16,
            "slot": "3",
            "type": "t_uint128"
          },
          {
            "astId": 12435,
            "contract": "contracts/PKKTHodlBoosterOption.sol:PKKTHodlBoosterOption",
            "label": "releasedCounterPartyPremium",
            "offset": 0,
            "slot": "4",
            "type": "t_uint128"
          },
          {
            "astId": 12437,
            "contract": "contracts/PKKTHodlBoosterOption.sol:PKKTHodlBoosterOption",
            "label": "executed",
            "offset": 16,
            "slot": "4",
            "type": "t_bool"
          }
        ],
        "numberOfBytes": "160"
      },
      "t_struct(SettlementCashflowResult)12461_storage": {
        "encoding": "inplace",
        "label": "struct StructureData.SettlementCashflowResult",
        "members": [
          {
            "astId": 12454,
            "contract": "contracts/PKKTHodlBoosterOption.sol:PKKTHodlBoosterOption",
            "label": "newDepositAmount",
            "offset": 0,
            "slot": "0",
            "type": "t_uint128"
          },
          {
            "astId": 12456,
            "contract": "contracts/PKKTHodlBoosterOption.sol:PKKTHodlBoosterOption",
            "label": "newReleasedAmount",
            "offset": 16,
            "slot": "0",
            "type": "t_uint128"
          },
          {
            "astId": 12458,
            "contract": "contracts/PKKTHodlBoosterOption.sol:PKKTHodlBoosterOption",
            "label": "leftOverAmount",
            "offset": 0,
            "slot": "1",
            "type": "t_int128"
          },
          {
            "astId": 12460,
            "contract": "contracts/PKKTHodlBoosterOption.sol:PKKTHodlBoosterOption",
            "label": "contractAddress",
            "offset": 0,
            "slot": "2",
            "type": "t_address"
          }
        ],
        "numberOfBytes": "96"
      },
      "t_struct(UserState)12378_storage": {
        "encoding": "inplace",
        "label": "struct StructureData.UserState",
        "members": [
          {
            "astId": 12363,
            "contract": "contracts/PKKTHodlBoosterOption.sol:PKKTHodlBoosterOption",
            "label": "pendingAsset",
            "offset": 0,
            "slot": "0",
            "type": "t_uint128"
          },
          {
            "astId": 12365,
            "contract": "contracts/PKKTHodlBoosterOption.sol:PKKTHodlBoosterOption",
            "label": "tempLocked",
            "offset": 16,
            "slot": "0",
            "type": "t_uint128"
          },
          {
            "astId": 12367,
            "contract": "contracts/PKKTHodlBoosterOption.sol:PKKTHodlBoosterOption",
            "label": "ongoingAsset",
            "offset": 0,
            "slot": "1",
            "type": "t_uint128"
          },
          {
            "astId": 12369,
            "contract": "contracts/PKKTHodlBoosterOption.sol:PKKTHodlBoosterOption",
            "label": "assetToTerminate",
            "offset": 16,
            "slot": "1",
            "type": "t_uint128"
          },
          {
            "astId": 12371,
            "contract": "contracts/PKKTHodlBoosterOption.sol:PKKTHodlBoosterOption",
            "label": "assetToTerminateForNextRound",
            "offset": 0,
            "slot": "2",
            "type": "t_uint128"
          },
          {
            "astId": 12373,
            "contract": "contracts/PKKTHodlBoosterOption.sol:PKKTHodlBoosterOption",
            "label": "releasedDepositAssetAmount",
            "offset": 16,
            "slot": "2",
            "type": "t_uint128"
          },
          {
            "astId": 12375,
            "contract": "contracts/PKKTHodlBoosterOption.sol:PKKTHodlBoosterOption",
            "label": "releasedCounterPartyAssetAmount",
            "offset": 0,
            "slot": "3",
            "type": "t_uint128"
          },
          {
            "astId": 12377,
            "contract": "contracts/PKKTHodlBoosterOption.sol:PKKTHodlBoosterOption",
            "label": "hasState",
            "offset": 16,
            "slot": "3",
            "type": "t_bool"
          }
        ],
        "numberOfBytes": "128"
      },
      "t_uint128": {
        "encoding": "inplace",
        "label": "uint128",
        "numberOfBytes": "16"
      },
      "t_uint16": {
        "encoding": "inplace",
        "label": "uint16",
        "numberOfBytes": "2"
      },
      "t_uint256": {
        "encoding": "inplace",
        "label": "uint256",
        "numberOfBytes": "32"
      },
      "t_uint8": {
        "encoding": "inplace",
        "label": "uint8",
        "numberOfBytes": "1"
      }
    }
  }
}