{
  "address": "0x55719873fa21fA20f933E35aBa33663115F93Acb",
  "abi": [
    {
      "anonymous": false,
      "inputs": [
        {
          "indexed": true,
          "internalType": "address",
          "name": "user",
          "type": "address"
        },
        {
          "indexed": true,
          "internalType": "uint256",
          "name": "pid",
          "type": "uint256"
        },
        {
          "indexed": false,
          "internalType": "uint256",
          "name": "amount",
          "type": "uint256"
        }
      ],
      "name": "Deposit",
      "type": "event"
    },
    {
      "anonymous": false,
      "inputs": [
        {
          "indexed": true,
          "internalType": "address",
          "name": "user",
          "type": "address"
        },
        {
          "indexed": true,
          "internalType": "uint256",
          "name": "pid",
          "type": "uint256"
        },
        {
          "indexed": false,
          "internalType": "uint256",
          "name": "amount",
          "type": "uint256"
        }
      ],
      "name": "EmergencyWithdraw",
      "type": "event"
    },
    {
      "anonymous": false,
      "inputs": [
        {
          "indexed": true,
          "internalType": "address",
          "name": "previousOwner",
          "type": "address"
        },
        {
          "indexed": true,
          "internalType": "address",
          "name": "newOwner",
          "type": "address"
        }
      ],
      "name": "OwnershipTransferred",
      "type": "event"
    },
    {
      "anonymous": false,
      "inputs": [
        {
          "indexed": true,
          "internalType": "address",
          "name": "user",
          "type": "address"
        },
        {
          "indexed": true,
          "internalType": "uint256",
          "name": "pid",
          "type": "uint256"
        },
        {
          "indexed": false,
          "internalType": "uint256",
          "name": "amount",
          "type": "uint256"
        }
      ],
      "name": "RewardsHarvested",
      "type": "event"
    },
    {
      "anonymous": false,
      "inputs": [
        {
          "indexed": true,
          "internalType": "address",
          "name": "user",
          "type": "address"
        },
        {
          "indexed": true,
          "internalType": "uint256",
          "name": "pid",
          "type": "uint256"
        },
        {
          "indexed": false,
          "internalType": "uint256",
          "name": "amount",
          "type": "uint256"
        }
      ],
      "name": "Withdraw",
      "type": "event"
    },
    {
      "inputs": [
        {
          "components": [
            {
              "internalType": "contract IERC20",
              "name": "lpToken",
              "type": "address"
            },
            {
              "internalType": "uint256",
              "name": "allocPoint",
              "type": "uint256"
            }
          ],
          "internalType": "struct Pool.PoolSettings",
          "name": "_pool",
          "type": "tuple"
        },
        {
          "internalType": "bool",
          "name": "_withUpdate",
          "type": "bool"
        }
      ],
      "name": "add",
      "outputs": [],
      "stateMutability": "nonpayable",
      "type": "function"
    },
    {
      "inputs": [
        {
          "components": [
            {
              "internalType": "contract IERC20",
              "name": "lpToken",
              "type": "address"
            },
            {
              "internalType": "uint256",
              "name": "allocPoint",
              "type": "uint256"
            }
          ],
          "internalType": "struct Pool.PoolSettings[]",
          "name": "_pools",
          "type": "tuple[]"
        },
        {
          "internalType": "bool",
          "name": "_withUpdate",
          "type": "bool"
        }
      ],
      "name": "addMany",
      "outputs": [],
      "stateMutability": "nonpayable",
      "type": "function"
    },
    {
      "inputs": [
        {
          "internalType": "uint256",
          "name": "_pkktPoolId",
          "type": "uint256"
        }
      ],
      "name": "compoundReward",
      "outputs": [],
      "stateMutability": "nonpayable",
      "type": "function"
    },
    {
      "inputs": [
        {
          "internalType": "uint256",
          "name": "_pid",
          "type": "uint256"
        },
        {
          "internalType": "uint256",
          "name": "_amount",
          "type": "uint256"
        }
      ],
      "name": "deposit",
      "outputs": [],
      "stateMutability": "nonpayable",
      "type": "function"
    },
    {
      "inputs": [
        {
          "internalType": "uint256",
          "name": "_pid",
          "type": "uint256"
        }
      ],
      "name": "emergencyWithdraw",
      "outputs": [],
      "stateMutability": "nonpayable",
      "type": "function"
    },
    {
      "inputs": [
        {
          "internalType": "uint256",
          "name": "_pid",
          "type": "uint256"
        }
      ],
      "name": "harvest",
      "outputs": [
        {
          "internalType": "uint256",
          "name": "",
          "type": "uint256"
        }
      ],
      "stateMutability": "nonpayable",
      "type": "function"
    },
    {
      "inputs": [
        {
          "internalType": "uint256[]",
          "name": "_pids",
          "type": "uint256[]"
        }
      ],
      "name": "harvestAll",
      "outputs": [],
      "stateMutability": "nonpayable",
      "type": "function"
    },
    {
      "inputs": [],
      "name": "harvestAllPools",
      "outputs": [],
      "stateMutability": "nonpayable",
      "type": "function"
    },
    {
      "inputs": [
        {
          "internalType": "contract PKKTToken",
          "name": "_pkkt",
          "type": "address"
        },
        {
          "internalType": "uint256",
          "name": "_pkktPerBlock",
          "type": "uint256"
        },
        {
          "internalType": "uint256",
          "name": "_startBlock",
          "type": "uint256"
        }
      ],
      "name": "initialize",
      "outputs": [],
      "stateMutability": "nonpayable",
      "type": "function"
    },
    {
      "inputs": [
        {
          "internalType": "address",
          "name": "",
          "type": "address"
        }
      ],
      "name": "isAdded",
      "outputs": [
        {
          "internalType": "bool",
          "name": "",
          "type": "bool"
        }
      ],
      "stateMutability": "view",
      "type": "function"
    },
    {
      "inputs": [],
      "name": "massUpdatePools",
      "outputs": [],
      "stateMutability": "nonpayable",
      "type": "function"
    },
    {
      "inputs": [],
      "name": "normalizer",
      "outputs": [
        {
          "internalType": "uint256",
          "name": "",
          "type": "uint256"
        }
      ],
      "stateMutability": "view",
      "type": "function"
    },
    {
      "inputs": [],
      "name": "owner",
      "outputs": [
        {
          "internalType": "address",
          "name": "",
          "type": "address"
        }
      ],
      "stateMutability": "view",
      "type": "function"
    },
    {
      "inputs": [
        {
          "internalType": "uint256",
          "name": "_pid",
          "type": "uint256"
        },
        {
          "internalType": "address",
          "name": "_user",
          "type": "address"
        }
      ],
      "name": "pendingPKKT",
      "outputs": [
        {
          "internalType": "uint256",
          "name": "",
          "type": "uint256"
        }
      ],
      "stateMutability": "view",
      "type": "function"
    },
    {
      "inputs": [],
      "name": "pkkt",
      "outputs": [
        {
          "internalType": "contract PKKTToken",
          "name": "",
          "type": "address"
        }
      ],
      "stateMutability": "view",
      "type": "function"
    },
    {
      "inputs": [],
      "name": "pkktPerBlock",
      "outputs": [
        {
          "internalType": "uint256",
          "name": "",
          "type": "uint256"
        }
      ],
      "stateMutability": "view",
      "type": "function"
    },
    {
      "inputs": [
        {
          "internalType": "uint256",
          "name": "",
          "type": "uint256"
        }
      ],
      "name": "poolInfo",
      "outputs": [
        {
          "internalType": "contract IERC20",
          "name": "lpToken",
          "type": "address"
        },
        {
          "internalType": "uint256",
          "name": "allocPoint",
          "type": "uint256"
        },
        {
          "internalType": "uint256",
          "name": "lastRewardBlock",
          "type": "uint256"
        },
        {
          "internalType": "uint256",
          "name": "accPKKTPerShare",
          "type": "uint256"
        }
      ],
      "stateMutability": "view",
      "type": "function"
    },
    {
      "inputs": [],
      "name": "poolLength",
      "outputs": [
        {
          "internalType": "uint256",
          "name": "",
          "type": "uint256"
        }
      ],
      "stateMutability": "view",
      "type": "function"
    },
    {
      "inputs": [],
      "name": "renounceOwnership",
      "outputs": [],
      "stateMutability": "nonpayable",
      "type": "function"
    },
    {
      "inputs": [
        {
          "components": [
            {
              "internalType": "uint256",
              "name": "pid",
              "type": "uint256"
            },
            {
              "internalType": "uint256",
              "name": "allocPoint",
              "type": "uint256"
            }
          ],
          "internalType": "struct Pool.UpdatePoolParameters",
          "name": "_newSetting",
          "type": "tuple"
        },
        {
          "internalType": "bool",
          "name": "_withUpdate",
          "type": "bool"
        }
      ],
      "name": "set",
      "outputs": [],
      "stateMutability": "nonpayable",
      "type": "function"
    },
    {
      "inputs": [
        {
          "components": [
            {
              "internalType": "uint256",
              "name": "pid",
              "type": "uint256"
            },
            {
              "internalType": "uint256",
              "name": "allocPoint",
              "type": "uint256"
            }
          ],
          "internalType": "struct Pool.UpdatePoolParameters[]",
          "name": "_newSettings",
          "type": "tuple[]"
        },
        {
          "internalType": "bool",
          "name": "_withUpdate",
          "type": "bool"
        }
      ],
      "name": "setMany",
      "outputs": [],
      "stateMutability": "nonpayable",
      "type": "function"
    },
    {
      "inputs": [
        {
          "internalType": "uint256",
          "name": "_pkktPerBlock",
          "type": "uint256"
        }
      ],
      "name": "setPKKTPerBlock",
      "outputs": [],
      "stateMutability": "nonpayable",
      "type": "function"
    },
    {
      "inputs": [],
      "name": "startBlock",
      "outputs": [
        {
          "internalType": "uint256",
          "name": "",
          "type": "uint256"
        }
      ],
      "stateMutability": "view",
      "type": "function"
    },
    {
      "inputs": [],
      "name": "totalAllocPoint",
      "outputs": [
        {
          "internalType": "uint256",
          "name": "",
          "type": "uint256"
        }
      ],
      "stateMutability": "view",
      "type": "function"
    },
    {
      "inputs": [
        {
          "internalType": "address",
          "name": "newOwner",
          "type": "address"
        }
      ],
      "name": "transferOwnership",
      "outputs": [],
      "stateMutability": "nonpayable",
      "type": "function"
    },
    {
      "inputs": [
        {
          "internalType": "uint256",
          "name": "_pid",
          "type": "uint256"
        }
      ],
      "name": "updatePool",
      "outputs": [],
      "stateMutability": "nonpayable",
      "type": "function"
    },
    {
      "inputs": [
        {
          "internalType": "uint256",
          "name": "",
          "type": "uint256"
        },
        {
          "internalType": "address",
          "name": "",
          "type": "address"
        }
      ],
      "name": "userInfo",
      "outputs": [
        {
          "internalType": "uint256",
          "name": "amount",
          "type": "uint256"
        },
        {
          "internalType": "uint256",
          "name": "rewardDebt",
          "type": "uint256"
        },
        {
          "internalType": "uint256",
          "name": "pendingReward",
          "type": "uint256"
        }
      ],
      "stateMutability": "view",
      "type": "function"
    },
    {
      "inputs": [
        {
          "internalType": "uint256",
          "name": "_pid",
          "type": "uint256"
        },
        {
          "internalType": "uint256",
          "name": "_amount",
          "type": "uint256"
        },
        {
          "internalType": "bool",
          "name": "_harvestReward",
          "type": "bool"
        }
      ],
      "name": "withdraw",
      "outputs": [],
      "stateMutability": "nonpayable",
      "type": "function"
    }
  ],
  "transactionHash": "0x033bdce3e406f3a19f53d8a3efd4d40b05947ddd6fcd1e07b112834e6cdd630b",
  "args": [],
  "solcInputHash": "8474e35b853e611c5d70139c0961d073",
  "bytecode": "0x608060405234801561001057600080fd5b50612a9b806100206000396000f3fe608060405234801561001057600080fd5b50600436106101c45760003560e01c8063630b5ba1116100f9578063c8914edb11610097578063f2fde38b11610071578063f2fde38b1461040f578063f77c49a614610422578063f79830791461042b578063fa1f87d51461043e57600080fd5b8063c8914edb146103b6578063ddc63262146103e9578063e2bbb158146103fc57600080fd5b80637a1ac61e116100d35780637a1ac61e1461032e5780638da5cb5b1461034157806393f1a40b14610352578063a919987b146103a757600080fd5b8063630b5ba11461030b578063715018a61461031357806379f1d0671461031b57600080fd5b806333cfcd3b116101665780634060e257116101405780634060e257146102c957806348cd4cb1146102dc57806351eb05a6146102e55780635312ea8e146102f857600080fd5b806333cfcd3b1461029057806338f89e7a146102a35780633fdd1549146102b657600080fd5b80631526fe27116101a25780631526fe271461022257806317caf6f11461025f5780632aabff15146102685780632ddd5d0a1461027d57600080fd5b806305a62b5b146101c95780630778674e146101ef578063081e3eda1461021a575b600080fd5b6101dc6101d736600461276a565b610446565b6040519081526020015b60405180910390f35b606854610202906001600160a01b031681565b6040516001600160a01b0390911681526020016101e6565b606a546101dc565b61023561023036600461273a565b6105cf565b604080516001600160a01b03909516855260208501939093529183015260608201526080016101e6565b6101dc606c5481565b61027b6102763660046125e9565b610613565b005b61027b61028b366004612535565b610666565b61027b61029e3660046127af565b61081c565b61027b6102b136600461271e565b6109da565b61027b6102c43660046126e7565b610abf565b61027b6102d736600461273a565b610d67565b6101dc60695481565b61027b6102f336600461273a565b610e7a565b61027b61030636600461273a565b610efc565b61027b610fe9565b61027b61101a565b61027b61032936600461273a565b611050565b61027b61033c366004612698565b611087565b6033546001600160a01b0316610202565b61038c61036036600461276a565b606b60209081526000928352604080842090915290825290208054600182015460029092015490919083565b604080519384526020840192909252908201526060016101e6565b6101dc670de0b6b3a764000081565b6103d96103c4366004612498565b60666020526000908152604090205460ff1681565b60405190151581526020016101e6565b6101dc6103f736600461273a565b611122565b61027b61040a36600461278e565b61136a565b61027b61041d366004612498565b6114a7565b6101dc60655481565b61027b6104393660046124b4565b611542565b61027b61189f565b600082610452606a5490565b811061050e60678054610464906129c6565b80601f0160208091040260200160405190810160405280929190818152602001828054610490906129c6565b80156104dd5780601f106104b2576101008083540402835291602001916104dd565b820191906000526020600020905b8154815290600101906020018083116104c057829003601f168201915b50505050506040518060400160405280600e81526020016d08191bd95cdb89dd08195e1a5cdd60921b8152506118d1565b906105355760405162461bcd60e51b815260040161052c91906127f8565b60405180910390fd5b506000610543856001611a6e565b905060006105518686611b82565b60208301518351919250904311801561056e575060008360400151115b1561057f5761057c83611bf0565b90505b6105c46105b983604001516105b3670de0b6b3a76400006105ad868860000151611c4690919063ffffffff16565b90611c52565b90611c5e565b602084015190611c6a565b979650505050505050565b606a81815481106105df57600080fd5b600091825260209091206004909102018054600182015460028301546003909301546001600160a01b039092169350919084565b805160005b818110156106615761065083828151811061064357634e487b7160e01b600052603260045260246000fd5b6020026020010151611122565b5061065a816129fb565b9050610618565b505050565b6033546001600160a01b031633146106905760405162461bcd60e51b815260040161052c90612879565b60005b82518110156107285760008382815181106106be57634e487b7160e01b600052603260045260246000fd5b60200260200101519050606a805490508160000151106107155760405162461bcd60e51b8152602060048201526012602482015271141bdbdb08191bd95cdb89dd08195e1a5cdd60721b604482015260640161052c565b5080610720816129fb565b915050610693565b50801561073757610737610fe9565b60005b825181101561066157600083828151811061076557634e487b7160e01b600052603260045260246000fd5b602002602001015190506107c881602001516107c2606a84600001518154811061079f57634e487b7160e01b600052603260045260246000fd5b906000526020600020906004020160010154606c54611c5e90919063ffffffff16565b90611c6a565b606c5560208101518151606a805490919081106107f557634e487b7160e01b600052603260045260246000fd5b60009182526020909120600160049092020101555080610814816129fb565b91505061073a565b82610826606a5490565b811061083860678054610464906129c6565b906108565760405162461bcd60e51b815260040161052c91906127f8565b50600083116108915760405162461bcd60e51b815260206004820152600760248201526608585b5bdd5b9d60ca1b604482015260640161052c565b6000606a85815481106108b457634e487b7160e01b600052603260045260246000fd5b60009182526020808320888452606b82526040808520338652909252922080546004909202909201925085111561092d5760405162461bcd60e51b815260206004820152601b60248201527f77697468647261773a206578636565647320617661696c61626c650000000000604482015260640161052c565b6000848061093b5750815486145b1561094f5761094987611122565b5061095c565b61095887610e7a565b5060015b81546109769088903390610970818b611c5e565b85611c76565b81546109829087611c5e565b8255825461099a906001600160a01b03163388611d7c565b604051868152879033907ff279e6a1f5e320cca91135676d9cb6e44ca8a08c0b88342bcdb1144f6511b5689060200160405180910390a350505050505050565b6033546001600160a01b03163314610a045760405162461bcd60e51b815260040161052c90612879565b8151606a548110610a1b60678054610464906129c6565b90610a395760405162461bcd60e51b815260040161052c91906127f8565b508115610a4857610a48610fe9565b610a7883602001516107c2606a86600001518154811061079f57634e487b7160e01b600052603260045260246000fd5b606c5560208301518351606a80549091908110610aa557634e487b7160e01b600052603260045260246000fd5b906000526020600020906004020160010181905550505050565b6033546001600160a01b03163314610ae95760405162461bcd60e51b815260040161052c90612879565b81516001600160a01b031660009081526066602052604090205460ff1615610b4b5760405162461bcd60e51b8152602060048201526015602482015274141bdbdb08185b1c9958591e481a5cc81859191959605a1b604482015260640161052c565b81516040516370a0823160e01b81523060048201526000916001600160a01b0316906370a082319060240160206040518083038186803b158015610b8e57600080fd5b505afa158015610ba2573d6000803e3d6000fd5b505050506040513d601f19601f82011682018060405250810190610bc69190612752565b90508015610c125760405162461bcd60e51b8152602060048201526019602482015278141bdbdb081cda1bdd5b19081b9bdd081899481cdd185ad959603a1b604482015260640161052c565b8115610c2057610c20610fe9565b60006069544311610c3357606954610c35565b435b9050610c508460200151606c54611c6a90919063ffffffff16565b606c556040805160808101825285516001600160a01b039081168252602080880151818401908152838501958652600060608501818152606a80546001808201835591845296517f116fea137db6e131133e7f2bab296045d8f41cc5607279db17b218cab0929a51600490980297880180546001600160a01b03191691881691909117905592517f116fea137db6e131133e7f2bab296045d8f41cc5607279db17b218cab0929a5287015596517f116fea137db6e131133e7f2bab296045d8f41cc5607279db17b218cab0929a5386015595517f116fea137db6e131133e7f2bab296045d8f41cc5607279db17b218cab0929a5490940193909355965116835260669095529020805460ff19169093179092555050565b80610d71606a5490565b8110610d8360678054610464906129c6565b90610da15760405162461bcd60e51b815260040161052c91906127f8565b506000606a8381548110610dc557634e487b7160e01b600052603260045260246000fd5b600091825260209182902060408051608081018252600490930290910180546001600160a01b039081168085526001830154958501959095526002820154928401929092526003015460608301526068549193501614610e575760405162461bcd60e51b815260206004820152600d60248201526c1b9bdd081c1adadd081c1bdbdb609a1b604482015260640161052c565b6000610e6284611122565b90508015610e7457610e74848261136a565b50505050565b80610e84606a5490565b8110610e9660678054610464906129c6565b90610eb45760405162461bcd60e51b815260040161052c91906127f8565b506000610ec2836001611a6e565b80519091504311610ed257505050565b6040810151610ee657610661836000611ddf565b61066183610ef383611bf0565b611ddf565b5050565b80610f06606a5490565b8110610f1860678054610464906129c6565b90610f365760405162461bcd60e51b815260040161052c91906127f8565b506000606a8381548110610f5a57634e487b7160e01b600052603260045260246000fd5b60009182526020808320868452606b825260408085203380875293528420805485825560018201959095556004909302018054909450919291610faa916001600160a01b03919091169083611d7c565b604051818152859033907fbb757047c2b5f3974fe26b7c10f732e7bce710b0952a71082702781e62ae0595906020015b60405180910390a35050505050565b6000610ff4606a5490565b905060005b81811015610ef85761100a81610e7a565b611013816129fb565b9050610ff9565b6033546001600160a01b031633146110445760405162461bcd60e51b815260040161052c90612879565b61104e6000611e2b565b565b6033546001600160a01b0316331461107a5760405162461bcd60e51b815260040161052c90612879565b611082610fe9565b606555565b600054610100900460ff16806110a0575060005460ff16155b6110bc5760405162461bcd60e51b815260040161052c9061282b565b600054610100900460ff161580156110de576000805461ffff19166101011790555b6111068460405180604001604052806004815260200163141bdbdb60e21b8152508585611e7d565b6000606c558015610e74576000805461ff001916905550505050565b60008161112e606a5490565b811061114060678054610464906129c6565b9061115e5760405162461bcd60e51b815260040161052c91906127f8565b5061116883610e7a565b6000611175846000611a6e565b905060006111838533611b82565b905060008160200151905060006111c3826107c285604001516105b3670de0b6b3a76400006105ad8a602001518a60000151611c4690919063ffffffff16565b6000888152606b60209081526040808320338452909152812060020155905080156112d2576068546040516340c10f1960e01b8152306004820152602481018390526001600160a01b03909116906340c10f1990604401600060405180830381600087803b15801561123457600080fd5b505af1158015611248573d6000803e3d6000fd5b505060685460405163a9059cbb60e01b8152336004820152602481018590526001600160a01b03909116925063a9059cbb9150604401602060405180830381600087803b15801561129857600080fd5b505af11580156112ac573d6000803e3d6000fd5b505050506040513d601f19601f820116820180604052508101906112d0919061267c565b505b61132787336112fe670de0b6b3a76400006105ad89602001518960000151611c4690919063ffffffff16565b6000928352606b602090815260408085206001600160a01b039094168552929052912060010155565b604051818152879033907f16c3bcc96c5457e635fa03516bd0d9e0ac0dc9f66a71076c97f865793e44fe449060200160405180910390a394505050505b50919050565b81611374606a5490565b811061138660678054610464906129c6565b906113a45760405162461bcd60e51b815260040161052c91906127f8565b50600082116113df5760405162461bcd60e51b815260206004820152600760248201526608585b5bdd5b9d60ca1b604482015260640161052c565b6000606a848154811061140257634e487b7160e01b600052603260045260246000fd5b60009182526020808320878452606b8252604080852033865290925292206004909102909101915061143385610e7a565b805461144e90869033906114478189611c6a565b6001611c76565b805461145a9085611c6a565b81558154611473906001600160a01b0316333087611f72565b604051848152859033907f90890809c654f11d6e72a28fa60149770a0d11ec6c92319d6ceb2bb0a4ea1a1590602001610fda565b6033546001600160a01b031633146114d15760405162461bcd60e51b815260040161052c90612879565b6001600160a01b0381166115365760405162461bcd60e51b815260206004820152602660248201527f4f776e61626c653a206e6577206f776e657220697320746865207a65726f206160448201526564647265737360d01b606482015260840161052c565b61153f81611e2b565b50565b6033546001600160a01b0316331461156c5760405162461bcd60e51b815260040161052c90612879565b60005b828110156116f057600084848381811061159957634e487b7160e01b600052603260045260246000fd5b9050604002018036038101906115af91906126cc565b80516001600160a01b031660009081526066602052604090205490915060ff16156116145760405162461bcd60e51b8152602060048201526015602482015274141bdbdb08185b1c9958591e481a5cc81859191959605a1b604482015260640161052c565b80516040516370a0823160e01b81523060048201526000916001600160a01b0316906370a082319060240160206040518083038186803b15801561165757600080fd5b505afa15801561166b573d6000803e3d6000fd5b505050506040513d601f19601f8201168201806040525081019061168f9190612752565b905080156116db5760405162461bcd60e51b8152602060048201526019602482015278141bdbdb081cda1bdd5b19081b9bdd081899481cdd185ad959603a1b604482015260640161052c565b505080806116e8906129fb565b91505061156f565b5080156116ff576116ff610fe9565b6000606954431161171257606954611714565b435b905060005b8381101561189857600085858381811061174357634e487b7160e01b600052603260045260246000fd5b90506040020180360381019061175991906126cc565b90506117748160200151606c54611c6a90919063ffffffff16565b606c556040805160808101825282516001600160a01b039081168252602080850151818401908152838501888152600060608601818152606a80546001808201835591845297517f116fea137db6e131133e7f2bab296045d8f41cc5607279db17b218cab0929a51600490990298890180546001600160a01b03191691891691909117905593517f116fea137db6e131133e7f2bab296045d8f41cc5607279db17b218cab0929a5288015591517f116fea137db6e131133e7f2bab296045d8f41cc5607279db17b218cab0929a5387015590517f116fea137db6e131133e7f2bab296045d8f41cc5607279db17b218cab0929a5490950194909455945190911682526066905220805460ff1916909117905580611890816129fb565b915050611719565b5050505050565b60006118aa606a5490565b905060005b81811015610ef8576118c081611122565b506118ca816129fb565b90506118af565b60606000825184516118e3919061292c565b67ffffffffffffffff81111561190957634e487b7160e01b600052604160045260246000fd5b6040519080825280601f01601f191660200182016040528015611933576020820181803683370190505b509050806000805b86518210156119c75786828151811061196457634e487b7160e01b600052603260045260246000fd5b01602001516001600160f81b031916838261197e816129fb565b93508151811061199e57634e487b7160e01b600052603260045260246000fd5b60200101906001600160f81b031916908160001a905350816119bf816129fb565b92505061193b565b600091505b8551821015611a635785826119e0816129fb565b935081518110611a0057634e487b7160e01b600052603260045260246000fd5b01602001516001600160f81b0319168382611a1a816129fb565b935081518110611a3a57634e487b7160e01b600052603260045260246000fd5b60200101906001600160f81b031916908160001a90535081611a5b816129fb565b9250506119cc565b509095945050505050565b611a996040518060800160405280600081526020016000815260200160008152602001600081525090565b6000606a8481548110611abc57634e487b7160e01b600052603260045260246000fd5b906000526020600020906004020190506040518060800160405280826002015481526020018260030154815260200184611af7576000611b71565b82546040516370a0823160e01b81523060048201526001600160a01b03909116906370a082319060240160206040518083038186803b158015611b3957600080fd5b505afa158015611b4d573d6000803e3d6000fd5b505050506040513d601f19601f82011682018060405250810190611b719190612752565b815260200185905291505092915050565b611ba660405180606001604052806000815260200160008152602001600081525090565b506000918252606b602090815260408084206001600160a01b0393909316845291815291819020815160608101835281548152600282015493810193909352600101549082015290565b600080611c18611bff84611faa565b6065548551611c12919082904390611c5e565b90611c46565b9050611c3f611c34846040015183611c5290919063ffffffff16565b602085015190611c6a565b9392505050565b6000611c3f8284612964565b6000611c3f8284612944565b6000611c3f8284612983565b6000611c3f828461292c565b84611c80606a5490565b8110611c9260678054610464906129c6565b90611cb05760405162461bcd60e51b815260040161052c91906127f8565b506000611cbe876000611a6e565b90506000611ccc8888611b82565b90508315611d4a576000611d0182604001516105b3670de0b6b3a76400006105ad87602001518c611c4690919063ffffffff16565b9050611d488989611d1f848660200151611c6a90919063ffffffff16565b6000928352606b602090815260408085206001600160a01b039094168552929052912060020155565b505b611d7288886112fe670de0b6b3a76400006105ad87602001518b611c4690919063ffffffff16565b5050505050505050565b6040516001600160a01b03831660248201526044810182905261066190849063a9059cbb60e01b906064015b60408051601f198184030181529190526020810180516001600160e01b03166001600160e01b031990931692909217909152612007565b6000606a8381548110611e0257634e487b7160e01b600052603260045260246000fd5b906000526020600020906004020190504381600201819055506000821115610661576003015550565b603380546001600160a01b038381166001600160a01b0319831681179093556040519116919082907f8be0079c531659141344cd1fd0a4f28419497f9722a3daafe3b4186f6b6457e090600090a35050565b600054610100900460ff1680611e96575060005460ff16155b611eb25760405162461bcd60e51b815260040161052c9061282b565b600054610100900460ff16158015611ed4576000805461ffff19166101011790555b6001600160a01b038516611f195760405162461bcd60e51b815260206004820152600c60248201526b5a65726f206164647265737360a01b604482015260640161052c565b611f216120d9565b606880546001600160a01b0319166001600160a01b03871617905560658390558351611f54906067906020870190612386565b5060698290558015611898576000805461ff00191690555050505050565b6040516001600160a01b0380851660248301528316604482015260648101829052610e749085906323b872dd60e01b90608401611da8565b600080606a836060015181548110611fd257634e487b7160e01b600052603260045260246000fd5b90600052602060002090600402019050611c3f606c546105ad670de0b6b3a76400008460010154611c4690919063ffffffff16565b600061205c826040518060400160405280602081526020017f5361666545524332303a206c6f772d6c6576656c2063616c6c206661696c6564815250856001600160a01b03166121549092919063ffffffff16565b805190915015610661578080602001905181019061207a919061267c565b6106615760405162461bcd60e51b815260206004820152602a60248201527f5361666545524332303a204552433230206f7065726174696f6e20646964206e6044820152691bdd081cdd58d8d9595960b21b606482015260840161052c565b600054610100900460ff16806120f2575060005460ff16155b61210e5760405162461bcd60e51b815260040161052c9061282b565b600054610100900460ff16158015612130576000805461ffff19166101011790555b61213861216b565b6121406121d5565b801561153f576000805461ff001916905550565b60606121638484600085612235565b949350505050565b600054610100900460ff1680612184575060005460ff16155b6121a05760405162461bcd60e51b815260040161052c9061282b565b600054610100900460ff16158015612140576000805461ffff1916610101179055801561153f576000805461ff001916905550565b600054610100900460ff16806121ee575060005460ff16155b61220a5760405162461bcd60e51b815260040161052c9061282b565b600054610100900460ff1615801561222c576000805461ffff19166101011790555b61214033611e2b565b6060824710156122965760405162461bcd60e51b815260206004820152602660248201527f416464726573733a20696e73756666696369656e742062616c616e636520666f6044820152651c8818d85b1b60d21b606482015260840161052c565b843b6122e45760405162461bcd60e51b815260206004820152601d60248201527f416464726573733a2063616c6c20746f206e6f6e2d636f6e7472616374000000604482015260640161052c565b600080866001600160a01b0316858760405161230091906127dc565b60006040518083038185875af1925050503d806000811461233d576040519150601f19603f3d011682016040523d82523d6000602084013e612342565b606091505b50915091506105c48282866060831561235c575081611c3f565b82511561236c5782518084602001fd5b8160405162461bcd60e51b815260040161052c91906127f8565b828054612392906129c6565b90600052602060002090601f0160209004810192826123b457600085556123fa565b82601f106123cd57805160ff19168380011785556123fa565b828001600101855582156123fa579182015b828111156123fa5782518255916020019190600101906123df565b5061240692915061240a565b5090565b5b80821115612406576000815560010161240b565b803561242a81612a57565b919050565b600060408284031215612440578081fd5b6124486128ae565b9050813561245581612a42565b808252506020820135602082015292915050565b60006040828403121561247a578081fd5b6124826128ae565b9050813581526020820135602082015292915050565b6000602082840312156124a9578081fd5b8135611c3f81612a42565b6000806000604084860312156124c8578182fd5b833567ffffffffffffffff808211156124df578384fd5b818601915086601f8301126124f2578384fd5b813581811115612500578485fd5b8760208260061b8501011115612514578485fd5b6020928301955093505084013561252a81612a57565b809150509250925092565b6000806040808486031215612548578283fd5b833567ffffffffffffffff81111561255e578384fd5b8401601f8101861361256e578384fd5b8035602061258361257e83612908565b6128d7565b8083825282820191508285018a848660061b88010111156125a2578889fd5b8895505b848610156125cc576125b88b82612469565b8352600195909501949183019186016125a6565b5096506125dc905087820161241f565b9450505050509250929050565b600060208083850312156125fb578182fd5b823567ffffffffffffffff811115612611578283fd5b8301601f81018513612621578283fd5b803561262f61257e82612908565b80828252848201915084840188868560051b870101111561264e578687fd5b8694505b83851015612670578035835260019490940193918501918501612652565b50979650505050505050565b60006020828403121561268d578081fd5b8151611c3f81612a57565b6000806000606084860312156126ac578283fd5b83356126b781612a42565b95602085013595506040909401359392505050565b6000604082840312156126dd578081fd5b611c3f838361242f565b600080606083850312156126f9578182fd5b612703848461242f565b9150604083013561271381612a57565b809150509250929050565b60008060608385031215612730578182fd5b6127038484612469565b60006020828403121561274b578081fd5b5035919050565b600060208284031215612763578081fd5b5051919050565b6000806040838503121561277c578182fd5b82359150602083013561271381612a42565b600080604083850312156127a0578182fd5b50508035926020909101359150565b6000806000606084860312156127c3578081fd5b8335925060208401359150604084013561252a81612a57565b600082516127ee81846020870161299a565b9190910192915050565b602081526000825180602084015261281781604085016020870161299a565b601f01601f19169190910160400192915050565b6020808252602e908201527f496e697469616c697a61626c653a20636f6e747261637420697320616c72656160408201526d191e481a5b9a5d1a585b1a5e995960921b606082015260800190565b6020808252818101527f4f776e61626c653a2063616c6c6572206973206e6f7420746865206f776e6572604082015260600190565b6040805190810167ffffffffffffffff811182821017156128d1576128d1612a2c565b60405290565b604051601f8201601f1916810167ffffffffffffffff8111828210171561290057612900612a2c565b604052919050565b600067ffffffffffffffff82111561292257612922612a2c565b5060051b60200190565b6000821982111561293f5761293f612a16565b500190565b60008261295f57634e487b7160e01b81526012600452602481fd5b500490565b600081600019048311821515161561297e5761297e612a16565b500290565b60008282101561299557612995612a16565b500390565b60005b838110156129b557818101518382015260200161299d565b83811115610e745750506000910152565b600181811c908216806129da57607f821691505b6020821081141561136457634e487b7160e01b600052602260045260246000fd5b6000600019821415612a0f57612a0f612a16565b5060010190565b634e487b7160e01b600052601160045260246000fd5b634e487b7160e01b600052604160045260246000fd5b6001600160a01b038116811461153f57600080fd5b801515811461153f57600080fdfea26469706673582212209a4dee5d2b88bd8b51bd7b11e27593f880625d713f1943b6d1cd67644b1a426464736f6c63430008040033",
  "libraries": {
    "Pool": "0x2ed1dD0a3aC6E9c277961e745Ec73837d97790e7"
  },
  "devdoc": {
    "kind": "dev",
    "methods": {
      "initialize(address,uint256,uint256)": {
        "params": {
          "_pkktPerBlock": "total number of PKKT rewarded to users"
        }
      },
      "owner()": {
        "details": "Returns the address of the current owner."
      },
      "renounceOwnership()": {
        "details": "Leaves the contract without owner. It will not be possible to call `onlyOwner` functions anymore. Can only be called by the current owner. NOTE: Renouncing ownership will leave the contract without an owner, thereby removing any functionality that is only available to the owner."
      },
      "transferOwnership(address)": {
        "details": "Transfers ownership of the contract to a new account (`newOwner`). Can only be called by the current owner."
      }
    },
    "version": 1
  },
  "userdoc": {
    "kind": "user",
    "methods": {
      "initialize(address,uint256,uint256)": {
        "notice": "Initializes the contract with storage variables"
      }
    },
    "version": 1
  },
  "storageLayout": {
    "storage": [
      {
        "astId": 538,
        "contract": "contracts/PKKTFarm.sol:PKKTFarm",
        "label": "_initialized",
        "offset": 0,
        "slot": "0",
        "type": "t_bool"
      },
      {
        "astId": 541,
        "contract": "contracts/PKKTFarm.sol:PKKTFarm",
        "label": "_initializing",
        "offset": 1,
        "slot": "0",
        "type": "t_bool"
      },
      {
        "astId": 1297,
        "contract": "contracts/PKKTFarm.sol:PKKTFarm",
        "label": "__gap",
        "offset": 0,
        "slot": "1",
        "type": "t_array(t_uint256)50_storage"
      },
      {
        "astId": 418,
        "contract": "contracts/PKKTFarm.sol:PKKTFarm",
        "label": "_owner",
        "offset": 0,
        "slot": "51",
        "type": "t_address"
      },
      {
        "astId": 531,
        "contract": "contracts/PKKTFarm.sol:PKKTFarm",
        "label": "__gap",
        "offset": 0,
        "slot": "52",
        "type": "t_array(t_uint256)49_storage"
      },
      {
        "astId": 5473,
        "contract": "contracts/PKKTFarm.sol:PKKTFarm",
        "label": "pkktPerBlock",
        "offset": 0,
        "slot": "101",
        "type": "t_uint256"
      },
      {
        "astId": 5477,
        "contract": "contracts/PKKTFarm.sol:PKKTFarm",
        "label": "isAdded",
        "offset": 0,
        "slot": "102",
        "type": "t_mapping(t_address,t_bool)"
      },
      {
        "astId": 5479,
        "contract": "contracts/PKKTFarm.sol:PKKTFarm",
        "label": "itemName",
        "offset": 0,
        "slot": "103",
        "type": "t_string_storage"
      },
      {
        "astId": 5482,
        "contract": "contracts/PKKTFarm.sol:PKKTFarm",
        "label": "pkkt",
        "offset": 0,
        "slot": "104",
        "type": "t_contract(PKKTToken)7704"
      },
      {
        "astId": 5484,
        "contract": "contracts/PKKTFarm.sol:PKKTFarm",
        "label": "startBlock",
        "offset": 0,
        "slot": "105",
        "type": "t_uint256"
      },
      {
        "astId": 3195,
        "contract": "contracts/PKKTFarm.sol:PKKTFarm",
        "label": "poolInfo",
        "offset": 0,
        "slot": "106",
        "type": "t_array(t_struct(PoolInfo)9642_storage)dyn_storage"
      },
      {
        "astId": 3202,
        "contract": "contracts/PKKTFarm.sol:PKKTFarm",
        "label": "userInfo",
        "offset": 0,
        "slot": "107",
        "type": "t_mapping(t_uint256,t_mapping(t_address,t_struct(UserInfo)9632_storage))"
      },
      {
        "astId": 3204,
        "contract": "contracts/PKKTFarm.sol:PKKTFarm",
        "label": "totalAllocPoint",
        "offset": 0,
        "slot": "108",
        "type": "t_uint256"
      }
    ],
    "types": {
      "t_address": {
        "encoding": "inplace",
        "label": "address",
        "numberOfBytes": "20"
      },
      "t_array(t_struct(PoolInfo)9642_storage)dyn_storage": {
        "base": "t_struct(PoolInfo)9642_storage",
        "encoding": "dynamic_array",
        "label": "struct Pool.PoolInfo[]",
        "numberOfBytes": "32"
      },
      "t_array(t_uint256)49_storage": {
        "base": "t_uint256",
        "encoding": "inplace",
        "label": "uint256[49]",
        "numberOfBytes": "1568"
      },
      "t_array(t_uint256)50_storage": {
        "base": "t_uint256",
        "encoding": "inplace",
        "label": "uint256[50]",
        "numberOfBytes": "1600"
      },
      "t_bool": {
        "encoding": "inplace",
        "label": "bool",
        "numberOfBytes": "1"
      },
      "t_contract(IERC20)2287": {
        "encoding": "inplace",
        "label": "contract IERC20",
        "numberOfBytes": "20"
      },
      "t_contract(PKKTToken)7704": {
        "encoding": "inplace",
        "label": "contract PKKTToken",
        "numberOfBytes": "20"
      },
      "t_mapping(t_address,t_bool)": {
        "encoding": "mapping",
        "key": "t_address",
        "label": "mapping(address => bool)",
        "numberOfBytes": "32",
        "value": "t_bool"
      },
      "t_mapping(t_address,t_struct(UserInfo)9632_storage)": {
        "encoding": "mapping",
        "key": "t_address",
        "label": "mapping(address => struct Pool.UserInfo)",
        "numberOfBytes": "32",
        "value": "t_struct(UserInfo)9632_storage"
      },
      "t_mapping(t_uint256,t_mapping(t_address,t_struct(UserInfo)9632_storage))": {
        "encoding": "mapping",
        "key": "t_uint256",
        "label": "mapping(uint256 => mapping(address => struct Pool.UserInfo))",
        "numberOfBytes": "32",
        "value": "t_mapping(t_address,t_struct(UserInfo)9632_storage)"
      },
      "t_string_storage": {
        "encoding": "bytes",
        "label": "string",
        "numberOfBytes": "32"
      },
      "t_struct(PoolInfo)9642_storage": {
        "encoding": "inplace",
        "label": "struct Pool.PoolInfo",
        "members": [
          {
            "astId": 9635,
            "contract": "contracts/PKKTFarm.sol:PKKTFarm",
            "label": "lpToken",
            "offset": 0,
            "slot": "0",
            "type": "t_contract(IERC20)2287"
          },
          {
            "astId": 9637,
            "contract": "contracts/PKKTFarm.sol:PKKTFarm",
            "label": "allocPoint",
            "offset": 0,
            "slot": "1",
            "type": "t_uint256"
          },
          {
            "astId": 9639,
            "contract": "contracts/PKKTFarm.sol:PKKTFarm",
            "label": "lastRewardBlock",
            "offset": 0,
            "slot": "2",
            "type": "t_uint256"
          },
          {
            "astId": 9641,
            "contract": "contracts/PKKTFarm.sol:PKKTFarm",
            "label": "accPKKTPerShare",
            "offset": 0,
            "slot": "3",
            "type": "t_uint256"
          }
        ],
        "numberOfBytes": "128"
      },
      "t_struct(UserInfo)9632_storage": {
        "encoding": "inplace",
        "label": "struct Pool.UserInfo",
        "members": [
          {
            "astId": 9627,
            "contract": "contracts/PKKTFarm.sol:PKKTFarm",
            "label": "amount",
            "offset": 0,
            "slot": "0",
            "type": "t_uint256"
          },
          {
            "astId": 9629,
            "contract": "contracts/PKKTFarm.sol:PKKTFarm",
            "label": "rewardDebt",
            "offset": 0,
            "slot": "1",
            "type": "t_uint256"
          },
          {
            "astId": 9631,
            "contract": "contracts/PKKTFarm.sol:PKKTFarm",
            "label": "pendingReward",
            "offset": 0,
            "slot": "2",
            "type": "t_uint256"
          }
        ],
        "numberOfBytes": "96"
      },
      "t_uint256": {
        "encoding": "inplace",
        "label": "uint256",
        "numberOfBytes": "32"
      }
    }
  }
}