{
  "address": "0x96D9788139D663bfcb01d7965EAa93D5ED3623E4",
  "abi": [
    {
      "inputs": [],
      "name": "MATUREROUND",
      "outputs": [
        {
          "internalType": "uint8",
          "name": "",
          "type": "uint8"
        }
      ],
      "stateMutability": "view",
      "type": "function"
    }
  ],
  "transactionHash": "0xab745055fe9b3faca509d55233273041a767f0a6935a6632def13c4967f78af9",
  "args": [],
  "solcInputHash": "8474e35b853e611c5d70139c0961d073",
  "bytecode": "0x608b610038600b82828239805160001a607314602b57634e487b7160e01b600052600060045260246000fd5b30600052607381538281f3fe730000000000000000000000000000000000000000301460806040526004361060335760003560e01c8063f747e177146038575b600080fd5b603f600781565b60405160ff909116815260200160405180910390f3fea2646970667358221220bcedb87bc3416a377c577da3cf99585f528425cfa4d64a106fa85bf58769590d64736f6c63430008040033",
  "devdoc": {
    "kind": "dev",
    "methods": {},
    "version": 1
  },
  "userdoc": {
    "kind": "user",
    "methods": {},
    "version": 1
  },
  "storageLayout": {
    "storage": [],
    "types": null
  }
}