{
  "address": "0xFD6F7A6a5c21A3f503EBaE7a473639974379c351",
  "abi": [
    {
      "anonymous": false,
      "inputs": [
        {
          "indexed": true,
          "internalType": "address",
          "name": "owner",
          "type": "address"
        },
        {
          "indexed": true,
          "internalType": "address",
          "name": "spender",
          "type": "address"
        },
        {
          "indexed": false,
          "internalType": "uint256",
          "name": "value",
          "type": "uint256"
        }
      ],
      "name": "Approval",
      "type": "event"
    },
    {
      "anonymous": false,
      "inputs": [
        {
          "indexed": true,
          "internalType": "uint256",
          "name": "round",
          "type": "uint256"
        }
      ],
      "name": "CloseOption",
      "type": "event"
    },
    {
      "anonymous": false,
      "inputs": [
        {
          "indexed": true,
          "internalType": "uint256",
          "name": "round",
          "type": "uint256"
        }
      ],
      "name": "CommitOption",
      "type": "event"
    },
    {
      "anonymous": false,
      "inputs": [
        {
          "indexed": true,
          "internalType": "address",
          "name": "from",
          "type": "address"
        },
        {
          "indexed": true,
          "internalType": "address",
          "name": "account",
          "type": "address"
        },
        {
          "indexed": true,
          "internalType": "uint256",
          "name": "round",
          "type": "uint256"
        },
        {
          "indexed": false,
          "internalType": "uint256",
          "name": "amount",
          "type": "uint256"
        },
        {
          "indexed": false,
          "internalType": "address",
          "name": "option",
          "type": "address"
        }
      ],
      "name": "Deposit",
      "type": "event"
    },
    {
      "anonymous": false,
      "inputs": [
        {
          "indexed": true,
          "internalType": "uint256",
          "name": "round",
          "type": "uint256"
        }
      ],
      "name": "OpenOption",
      "type": "event"
    },
    {
      "anonymous": false,
      "inputs": [
        {
          "indexed": true,
          "internalType": "address",
          "name": "option",
          "type": "address"
        },
        {
          "indexed": false,
          "internalType": "string",
          "name": "name",
          "type": "string"
        }
      ],
      "name": "OptionCreated",
      "type": "event"
    },
    {
      "anonymous": false,
      "inputs": [
        {
          "indexed": false,
          "internalType": "address",
          "name": "from",
          "type": "address"
        },
        {
          "indexed": false,
          "internalType": "address",
          "name": "to",
          "type": "address"
        },
        {
          "indexed": false,
          "internalType": "uint256",
          "name": "premium",
          "type": "uint256"
        },
        {
          "indexed": false,
          "internalType": "uint256",
          "name": "round",
          "type": "uint256"
        }
      ],
      "name": "OptionTransfer",
      "type": "event"
    },
    {
      "anonymous": false,
      "inputs": [
        {
          "indexed": true,
          "internalType": "bytes32",
          "name": "role",
          "type": "bytes32"
        },
        {
          "indexed": true,
          "internalType": "bytes32",
          "name": "previousAdminRole",
          "type": "bytes32"
        },
        {
          "indexed": true,
          "internalType": "bytes32",
          "name": "newAdminRole",
          "type": "bytes32"
        }
      ],
      "name": "RoleAdminChanged",
      "type": "event"
    },
    {
      "anonymous": false,
      "inputs": [
        {
          "indexed": true,
          "internalType": "bytes32",
          "name": "role",
          "type": "bytes32"
        },
        {
          "indexed": true,
          "internalType": "address",
          "name": "account",
          "type": "address"
        },
        {
          "indexed": true,
          "internalType": "address",
          "name": "sender",
          "type": "address"
        }
      ],
      "name": "RoleGranted",
      "type": "event"
    },
    {
      "anonymous": false,
      "inputs": [
        {
          "indexed": true,
          "internalType": "bytes32",
          "name": "role",
          "type": "bytes32"
        },
        {
          "indexed": true,
          "internalType": "address",
          "name": "account",
          "type": "address"
        },
        {
          "indexed": true,
          "internalType": "address",
          "name": "sender",
          "type": "address"
        }
      ],
      "name": "RoleRevoked",
      "type": "event"
    },
    {
      "anonymous": false,
      "inputs": [
        {
          "indexed": true,
          "internalType": "address",
          "name": "from",
          "type": "address"
        },
        {
          "indexed": true,
          "internalType": "address",
          "name": "to",
          "type": "address"
        },
        {
          "indexed": false,
          "internalType": "uint256",
          "name": "value",
          "type": "uint256"
        }
      ],
      "name": "Transfer",
      "type": "event"
    },
    {
      "anonymous": false,
      "inputs": [
        {
          "indexed": true,
          "internalType": "address",
          "name": "account",
          "type": "address"
        },
        {
          "indexed": true,
          "internalType": "address",
          "name": "asset",
          "type": "address"
        },
        {
          "indexed": false,
          "internalType": "uint256",
          "name": "amount",
          "type": "uint256"
        }
      ],
      "name": "Withdraw",
      "type": "event"
    },
    {
      "inputs": [],
      "name": "DEFAULT_ADMIN_ROLE",
      "outputs": [
        {
          "internalType": "bytes32",
          "name": "",
          "type": "bytes32"
        }
      ],
      "stateMutability": "view",
      "type": "function"
    },
    {
      "inputs": [],
      "name": "OPTION_ROLE",
      "outputs": [
        {
          "internalType": "bytes32",
          "name": "",
          "type": "bytes32"
        }
      ],
      "stateMutability": "view",
      "type": "function"
    },
    {
      "inputs": [],
      "name": "RATIOMULTIPLIER",
      "outputs": [
        {
          "internalType": "uint256",
          "name": "",
          "type": "uint256"
        }
      ],
      "stateMutability": "view",
      "type": "function"
    },
    {
      "inputs": [],
      "name": "SETTLER_ROLE",
      "outputs": [
        {
          "internalType": "bytes32",
          "name": "",
          "type": "bytes32"
        }
      ],
      "stateMutability": "view",
      "type": "function"
    },
    {
      "inputs": [
        {
          "internalType": "address",
          "name": "owner",
          "type": "address"
        },
        {
          "internalType": "address",
          "name": "spender",
          "type": "address"
        }
      ],
      "name": "allowance",
      "outputs": [
        {
          "internalType": "uint256",
          "name": "",
          "type": "uint256"
        }
      ],
      "stateMutability": "view",
      "type": "function"
    },
    {
      "inputs": [
        {
          "internalType": "address",
          "name": "spender",
          "type": "address"
        },
        {
          "internalType": "uint256",
          "name": "amount",
          "type": "uint256"
        }
      ],
      "name": "approve",
      "outputs": [
        {
          "internalType": "bool",
          "name": "",
          "type": "bool"
        }
      ],
      "stateMutability": "nonpayable",
      "type": "function"
    },
    {
      "inputs": [
        {
          "internalType": "address",
          "name": "account",
          "type": "address"
        }
      ],
      "name": "balanceOf",
      "outputs": [
        {
          "internalType": "uint256",
          "name": "",
          "type": "uint256"
        }
      ],
      "stateMutability": "view",
      "type": "function"
    },
    {
      "inputs": [],
      "name": "callOrPut",
      "outputs": [
        {
          "internalType": "bool",
          "name": "",
          "type": "bool"
        }
      ],
      "stateMutability": "view",
      "type": "function"
    },
    {
      "inputs": [
        {
          "internalType": "uint256",
          "name": "_assetToTerminate",
          "type": "uint256"
        }
      ],
      "name": "cancelWithdraw",
      "outputs": [],
      "stateMutability": "nonpayable",
      "type": "function"
    },
    {
      "inputs": [
        {
          "internalType": "bool",
          "name": "_execute",
          "type": "bool"
        }
      ],
      "name": "closePrevious",
      "outputs": [
        {
          "components": [
            {
              "internalType": "uint256",
              "name": "releasedDepositAssetAmount",
              "type": "uint256"
            },
            {
              "internalType": "uint256",
              "name": "releasedDepositAssetPremiumAmount",
              "type": "uint256"
            },
            {
              "internalType": "uint256",
              "name": "releasedCounterPartyAssetAmount",
              "type": "uint256"
            },
            {
              "internalType": "uint256",
              "name": "releasedCounterPartyAssetPremiumAmount",
              "type": "uint256"
            },
            {
              "internalType": "uint256",
              "name": "autoRollDepositAssetAmount",
              "type": "uint256"
            },
            {
              "internalType": "uint256",
              "name": "autoRollDepositAssetPremiumAmount",
              "type": "uint256"
            },
            {
              "internalType": "uint256",
              "name": "autoRollCounterPartyAssetAmount",
              "type": "uint256"
            },
            {
              "internalType": "uint256",
              "name": "autoRollCounterPartyAssetPremiumAmount",
              "type": "uint256"
            },
            {
              "internalType": "uint256",
              "name": "round",
              "type": "uint256"
            }
          ],
          "internalType": "struct StructureData.MaturedState",
          "name": "_maturedState",
          "type": "tuple"
        },
        {
          "internalType": "uint256",
          "name": "_depositAmount",
          "type": "uint256"
        }
      ],
      "stateMutability": "nonpayable",
      "type": "function"
    },
    {
      "inputs": [
        {
          "components": [
            {
              "internalType": "address",
              "name": "option",
              "type": "address"
            },
            {
              "internalType": "uint256",
              "name": "strikePrice",
              "type": "uint256"
            },
            {
              "internalType": "uint8",
              "name": "pricePrecision",
              "type": "uint8"
            },
            {
              "internalType": "uint16",
              "name": "premiumRate",
              "type": "uint16"
            }
          ],
          "internalType": "struct StructureData.OptionParameters",
          "name": "_optionParameters",
          "type": "tuple"
        }
      ],
      "name": "commitCurrent",
      "outputs": [],
      "stateMutability": "nonpayable",
      "type": "function"
    },
    {
      "inputs": [
        {
          "internalType": "uint256",
          "name": "_amount",
          "type": "uint256"
        },
        {
          "internalType": "address",
          "name": "_asset",
          "type": "address"
        }
      ],
      "name": "completeWithdraw",
      "outputs": [],
      "stateMutability": "nonpayable",
      "type": "function"
    },
    {
      "inputs": [],
      "name": "counterParty",
      "outputs": [
        {
          "internalType": "address",
          "name": "",
          "type": "address"
        }
      ],
      "stateMutability": "view",
      "type": "function"
    },
    {
      "inputs": [],
      "name": "counterPartyAsset",
      "outputs": [
        {
          "internalType": "address",
          "name": "",
          "type": "address"
        }
      ],
      "stateMutability": "view",
      "type": "function"
    },
    {
      "inputs": [],
      "name": "counterPartyOption",
      "outputs": [
        {
          "internalType": "contract IPKKTStructureOption",
          "name": "",
          "type": "address"
        }
      ],
      "stateMutability": "view",
      "type": "function"
    },
    {
      "inputs": [],
      "name": "currentRound",
      "outputs": [
        {
          "internalType": "uint256",
          "name": "",
          "type": "uint256"
        }
      ],
      "stateMutability": "view",
      "type": "function"
    },
    {
      "inputs": [],
      "name": "decimals",
      "outputs": [
        {
          "internalType": "uint8",
          "name": "",
          "type": "uint8"
        }
      ],
      "stateMutability": "view",
      "type": "function"
    },
    {
      "inputs": [
        {
          "internalType": "address",
          "name": "spender",
          "type": "address"
        },
        {
          "internalType": "uint256",
          "name": "subtractedValue",
          "type": "uint256"
        }
      ],
      "name": "decreaseAllowance",
      "outputs": [
        {
          "internalType": "bool",
          "name": "",
          "type": "bool"
        }
      ],
      "stateMutability": "nonpayable",
      "type": "function"
    },
    {
      "inputs": [
        {
          "internalType": "uint256",
          "name": "_amount",
          "type": "uint256"
        }
      ],
      "name": "deposit",
      "outputs": [],
      "stateMutability": "nonpayable",
      "type": "function"
    },
    {
      "inputs": [],
      "name": "depositAsset",
      "outputs": [
        {
          "internalType": "address",
          "name": "",
          "type": "address"
        }
      ],
      "stateMutability": "view",
      "type": "function"
    },
    {
      "inputs": [],
      "name": "depositETH",
      "outputs": [],
      "stateMutability": "payable",
      "type": "function"
    },
    {
      "inputs": [
        {
          "internalType": "address[]",
          "name": "addresses",
          "type": "address[]"
        },
        {
          "internalType": "uint256[]",
          "name": "_amounts",
          "type": "uint256[]"
        }
      ],
      "name": "depositFromCounterParty",
      "outputs": [],
      "stateMutability": "nonpayable",
      "type": "function"
    },
    {
      "inputs": [
        {
          "internalType": "bool",
          "name": "_execute",
          "type": "bool"
        }
      ],
      "name": "dryRunSettlement",
      "outputs": [
        {
          "components": [
            {
              "internalType": "address",
              "name": "option",
              "type": "address"
            },
            {
              "internalType": "uint256",
              "name": "round",
              "type": "uint256"
            },
            {
              "internalType": "uint256",
              "name": "depositAmount",
              "type": "uint256"
            },
            {
              "internalType": "bool",
              "name": "executed",
              "type": "bool"
            },
            {
              "internalType": "uint256",
              "name": "autoRollAmount",
              "type": "uint256"
            },
            {
              "internalType": "uint256",
              "name": "autoRollPremium",
              "type": "uint256"
            },
            {
              "internalType": "uint256",
              "name": "releasedAmount",
              "type": "uint256"
            },
            {
              "internalType": "uint256",
              "name": "releasedPremium",
              "type": "uint256"
            },
            {
              "internalType": "uint256",
              "name": "autoRollCounterPartyAmount",
              "type": "uint256"
            },
            {
              "internalType": "uint256",
              "name": "autoRollCounterPartyPremium",
              "type": "uint256"
            },
            {
              "internalType": "uint256",
              "name": "releasedCounterPartyAmount",
              "type": "uint256"
            },
            {
              "internalType": "uint256",
              "name": "releasedCounterPartyPremium",
              "type": "uint256"
            }
          ],
          "internalType": "struct StructureData.SettlementAccountingResult",
          "name": "_result",
          "type": "tuple"
        }
      ],
      "stateMutability": "view",
      "type": "function"
    },
    {
      "inputs": [],
      "name": "getAccountBalance",
      "outputs": [
        {
          "components": [
            {
              "internalType": "uint256",
              "name": "pendingDepositAssetAmount",
              "type": "uint256"
            },
            {
              "internalType": "uint256",
              "name": "lockedDepositAssetAmount",
              "type": "uint256"
            },
            {
              "internalType": "uint256",
              "name": "ongoingDepositAssetAmount",
              "type": "uint256"
            },
            {
              "internalType": "uint256",
              "name": "releasedDepositAssetAmount",
              "type": "uint256"
            },
            {
              "internalType": "uint256",
              "name": "releasedCounterPartyAssetAmount",
              "type": "uint256"
            }
          ],
          "internalType": "struct StructureData.UserBalance",
          "name": "",
          "type": "tuple"
        }
      ],
      "stateMutability": "view",
      "type": "function"
    },
    {
      "inputs": [],
      "name": "getOptionSnapShot",
      "outputs": [
        {
          "components": [
            {
              "internalType": "uint256",
              "name": "totalPending",
              "type": "uint256"
            },
            {
              "internalType": "uint256",
              "name": "totalLocked",
              "type": "uint256"
            },
            {
              "internalType": "uint256",
              "name": "totalOngoing",
              "type": "uint256"
            },
            {
              "internalType": "uint256",
              "name": "totalReleasedDeposit",
              "type": "uint256"
            },
            {
              "internalType": "uint256",
              "name": "totalReleasedCounterParty",
              "type": "uint256"
            }
          ],
          "internalType": "struct StructureData.OptionSnapshot",
          "name": "",
          "type": "tuple"
        }
      ],
      "stateMutability": "view",
      "type": "function"
    },
    {
      "inputs": [
        {
          "internalType": "bytes32",
          "name": "role",
          "type": "bytes32"
        }
      ],
      "name": "getRoleAdmin",
      "outputs": [
        {
          "internalType": "bytes32",
          "name": "",
          "type": "bytes32"
        }
      ],
      "stateMutability": "view",
      "type": "function"
    },
    {
      "inputs": [
        {
          "internalType": "uint256",
          "name": "_blockHeight",
          "type": "uint256"
        }
      ],
      "name": "getRoundData",
      "outputs": [
        {
          "components": [
            {
              "internalType": "uint256",
              "name": "round",
              "type": "uint256"
            },
            {
              "internalType": "uint256",
              "name": "totalAmount",
              "type": "uint256"
            },
            {
              "internalType": "uint256",
              "name": "totalTerminate",
              "type": "uint256"
            },
            {
              "internalType": "uint256",
              "name": "strikePrice",
              "type": "uint256"
            },
            {
              "internalType": "uint16",
              "name": "premiumRate",
              "type": "uint16"
            },
            {
              "internalType": "uint8",
              "name": "pricePrecision",
              "type": "uint8"
            },
            {
              "internalType": "bool",
              "name": "executed",
              "type": "bool"
            },
            {
              "internalType": "bool",
              "name": "callOrPut",
              "type": "bool"
            }
          ],
          "internalType": "struct StructureData.OptionState",
          "name": "",
          "type": "tuple"
        }
      ],
      "stateMutability": "view",
      "type": "function"
    },
    {
      "inputs": [
        {
          "internalType": "address",
          "name": "_asset",
          "type": "address"
        }
      ],
      "name": "getWithdrawable",
      "outputs": [
        {
          "internalType": "uint256",
          "name": "",
          "type": "uint256"
        }
      ],
      "stateMutability": "view",
      "type": "function"
    },
    {
      "inputs": [
        {
          "internalType": "bytes32",
          "name": "role",
          "type": "bytes32"
        },
        {
          "internalType": "address",
          "name": "account",
          "type": "address"
        }
      ],
      "name": "grantRole",
      "outputs": [],
      "stateMutability": "nonpayable",
      "type": "function"
    },
    {
      "inputs": [
        {
          "internalType": "bytes32",
          "name": "role",
          "type": "bytes32"
        },
        {
          "internalType": "address",
          "name": "account",
          "type": "address"
        }
      ],
      "name": "hasRole",
      "outputs": [
        {
          "internalType": "bool",
          "name": "",
          "type": "bool"
        }
      ],
      "stateMutability": "view",
      "type": "function"
    },
    {
      "inputs": [
        {
          "internalType": "address",
          "name": "spender",
          "type": "address"
        },
        {
          "internalType": "uint256",
          "name": "addedValue",
          "type": "uint256"
        }
      ],
      "name": "increaseAllowance",
      "outputs": [
        {
          "internalType": "bool",
          "name": "",
          "type": "bool"
        }
      ],
      "stateMutability": "nonpayable",
      "type": "function"
    },
    {
      "inputs": [
        {
          "internalType": "string",
          "name": "name",
          "type": "string"
        },
        {
          "internalType": "string",
          "name": "symbol",
          "type": "string"
        },
        {
          "internalType": "address",
          "name": "_underlying",
          "type": "address"
        },
        {
          "internalType": "address",
          "name": "_stableCoin",
          "type": "address"
        },
        {
          "internalType": "uint8",
          "name": "_underlyingDecimals",
          "type": "uint8"
        },
        {
          "internalType": "uint8",
          "name": "_stableCoinDecimals",
          "type": "uint8"
        },
        {
          "internalType": "address",
          "name": "_vaultAddress",
          "type": "address"
        },
        {
          "internalType": "address",
          "name": "_settler",
          "type": "address"
        }
      ],
      "name": "initialize",
      "outputs": [],
      "stateMutability": "nonpayable",
      "type": "function"
    },
    {
      "inputs": [
        {
          "internalType": "uint256",
          "name": "_assetToTerminate",
          "type": "uint256"
        }
      ],
      "name": "initiateWithraw",
      "outputs": [],
      "stateMutability": "nonpayable",
      "type": "function"
    },
    {
      "inputs": [],
      "name": "isEth",
      "outputs": [
        {
          "internalType": "bool",
          "name": "",
          "type": "bool"
        }
      ],
      "stateMutability": "view",
      "type": "function"
    },
    {
      "inputs": [],
      "name": "maxCancelWithdraw",
      "outputs": [],
      "stateMutability": "nonpayable",
      "type": "function"
    },
    {
      "inputs": [],
      "name": "maxInitiateWithdraw",
      "outputs": [],
      "stateMutability": "nonpayable",
      "type": "function"
    },
    {
      "inputs": [],
      "name": "name",
      "outputs": [
        {
          "internalType": "string",
          "name": "",
          "type": "string"
        }
      ],
      "stateMutability": "view",
      "type": "function"
    },
    {
      "inputs": [
        {
          "internalType": "uint256",
          "name": "",
          "type": "uint256"
        }
      ],
      "name": "optionHeights",
      "outputs": [
        {
          "internalType": "uint256",
          "name": "",
          "type": "uint256"
        }
      ],
      "stateMutability": "view",
      "type": "function"
    },
    {
      "inputs": [
        {
          "internalType": "uint256",
          "name": "",
          "type": "uint256"
        }
      ],
      "name": "optionStates",
      "outputs": [
        {
          "internalType": "uint256",
          "name": "round",
          "type": "uint256"
        },
        {
          "internalType": "uint256",
          "name": "totalAmount",
          "type": "uint256"
        },
        {
          "internalType": "uint256",
          "name": "totalTerminate",
          "type": "uint256"
        },
        {
          "internalType": "uint256",
          "name": "strikePrice",
          "type": "uint256"
        },
        {
          "internalType": "uint16",
          "name": "premiumRate",
          "type": "uint16"
        },
        {
          "internalType": "uint8",
          "name": "pricePrecision",
          "type": "uint8"
        },
        {
          "internalType": "bool",
          "name": "executed",
          "type": "bool"
        },
        {
          "internalType": "bool",
          "name": "callOrPut",
          "type": "bool"
        }
      ],
      "stateMutability": "view",
      "type": "function"
    },
    {
      "inputs": [],
      "name": "optionVault",
      "outputs": [
        {
          "internalType": "contract IOptionVault",
          "name": "",
          "type": "address"
        }
      ],
      "stateMutability": "view",
      "type": "function"
    },
    {
      "inputs": [
        {
          "internalType": "uint256",
          "name": "_amount",
          "type": "uint256"
        }
      ],
      "name": "redeem",
      "outputs": [],
      "stateMutability": "nonpayable",
      "type": "function"
    },
    {
      "inputs": [
        {
          "internalType": "uint256",
          "name": "_amount",
          "type": "uint256"
        }
      ],
      "name": "redeposit",
      "outputs": [],
      "stateMutability": "nonpayable",
      "type": "function"
    },
    {
      "inputs": [
        {
          "internalType": "uint256",
          "name": "_amount",
          "type": "uint256"
        }
      ],
      "name": "redepositToCounterParty",
      "outputs": [],
      "stateMutability": "nonpayable",
      "type": "function"
    },
    {
      "inputs": [
        {
          "internalType": "bytes32",
          "name": "role",
          "type": "bytes32"
        },
        {
          "internalType": "address",
          "name": "account",
          "type": "address"
        }
      ],
      "name": "renounceRole",
      "outputs": [],
      "stateMutability": "nonpayable",
      "type": "function"
    },
    {
      "inputs": [
        {
          "internalType": "bytes32",
          "name": "role",
          "type": "bytes32"
        },
        {
          "internalType": "address",
          "name": "account",
          "type": "address"
        }
      ],
      "name": "revokeRole",
      "outputs": [],
      "stateMutability": "nonpayable",
      "type": "function"
    },
    {
      "inputs": [
        {
          "internalType": "uint256",
          "name": "_quota",
          "type": "uint256"
        }
      ],
      "name": "rollToNext",
      "outputs": [
        {
          "internalType": "uint256",
          "name": "_pendingAmount",
          "type": "uint256"
        }
      ],
      "stateMutability": "nonpayable",
      "type": "function"
    },
    {
      "inputs": [
        {
          "internalType": "address",
          "name": "_counterParty",
          "type": "address"
        }
      ],
      "name": "setCounterPartyOption",
      "outputs": [],
      "stateMutability": "nonpayable",
      "type": "function"
    },
    {
      "inputs": [
        {
          "internalType": "bytes4",
          "name": "interfaceId",
          "type": "bytes4"
        }
      ],
      "name": "supportsInterface",
      "outputs": [
        {
          "internalType": "bool",
          "name": "",
          "type": "bool"
        }
      ],
      "stateMutability": "view",
      "type": "function"
    },
    {
      "inputs": [],
      "name": "symbol",
      "outputs": [
        {
          "internalType": "string",
          "name": "",
          "type": "string"
        }
      ],
      "stateMutability": "view",
      "type": "function"
    },
    {
      "inputs": [],
      "name": "totalReleasedCounterPartyAssetAmount",
      "outputs": [
        {
          "internalType": "uint256",
          "name": "",
          "type": "uint256"
        }
      ],
      "stateMutability": "view",
      "type": "function"
    },
    {
      "inputs": [],
      "name": "totalReleasedDepositAssetAmount",
      "outputs": [
        {
          "internalType": "uint256",
          "name": "",
          "type": "uint256"
        }
      ],
      "stateMutability": "view",
      "type": "function"
    },
    {
      "inputs": [],
      "name": "totalSupply",
      "outputs": [
        {
          "internalType": "uint256",
          "name": "",
          "type": "uint256"
        }
      ],
      "stateMutability": "view",
      "type": "function"
    },
    {
      "inputs": [
        {
          "internalType": "address",
          "name": "recipient",
          "type": "address"
        },
        {
          "internalType": "uint256",
          "name": "amount",
          "type": "uint256"
        }
      ],
      "name": "transfer",
      "outputs": [
        {
          "internalType": "bool",
          "name": "",
          "type": "bool"
        }
      ],
      "stateMutability": "nonpayable",
      "type": "function"
    },
    {
      "inputs": [
        {
          "internalType": "address",
          "name": "sender",
          "type": "address"
        },
        {
          "internalType": "address",
          "name": "recipient",
          "type": "address"
        },
        {
          "internalType": "uint256",
          "name": "amount",
          "type": "uint256"
        }
      ],
      "name": "transferFrom",
      "outputs": [
        {
          "internalType": "bool",
          "name": "",
          "type": "bool"
        }
      ],
      "stateMutability": "nonpayable",
      "type": "function"
    },
    {
      "inputs": [],
      "name": "underSettlement",
      "outputs": [
        {
          "internalType": "bool",
          "name": "",
          "type": "bool"
        }
      ],
      "stateMutability": "view",
      "type": "function"
    },
    {
      "inputs": [
        {
          "internalType": "address",
          "name": "",
          "type": "address"
        }
      ],
      "name": "userStates",
      "outputs": [
        {
          "internalType": "uint256",
          "name": "pendingAsset",
          "type": "uint256"
        },
        {
          "internalType": "uint256",
          "name": "lockedAsset",
          "type": "uint256"
        },
        {
          "internalType": "uint8",
          "name": "nextCursor",
          "type": "uint8"
        },
        {
          "internalType": "uint232",
          "name": "totalRound",
          "type": "uint232"
        },
        {
          "internalType": "bool",
          "name": "hasState",
          "type": "bool"
        },
        {
          "internalType": "uint256",
          "name": "assetToTerminate",
          "type": "uint256"
        },
        {
          "internalType": "uint256",
          "name": "assetToTerminateForNextRound",
          "type": "uint256"
        }
      ],
      "stateMutability": "view",
      "type": "function"
    },
    {
      "inputs": [
        {
          "internalType": "uint256",
          "name": "",
          "type": "uint256"
        }
      ],
      "name": "usersInvolved",
      "outputs": [
        {
          "internalType": "address",
          "name": "",
          "type": "address"
        }
      ],
      "stateMutability": "view",
      "type": "function"
    },
    {
      "inputs": [],
      "name": "vaultAddress",
      "outputs": [
        {
          "internalType": "address",
          "name": "",
          "type": "address"
        }
      ],
      "stateMutability": "view",
      "type": "function"
    },
    {
      "inputs": [
        {
          "internalType": "uint256",
          "name": "_amount",
          "type": "uint256"
        },
        {
          "internalType": "address",
          "name": "_asset",
          "type": "address"
        }
      ],
      "name": "withdraw",
      "outputs": [],
      "stateMutability": "nonpayable",
      "type": "function"
    }
  ],
  "transactionHash": "0x84843f0f6bd15cc03ebdafe5754e510c815c360b6e2b9d28278e7af833cf9a1f",
  "args": [],
  "solcInputHash": "aff4cb8073ebd05dfd4c8648f1222ea8",
  "bytecode": "0x608060405234801561001057600080fd5b5061540a806100206000396000f3fe60806040526004361061038b5760003560e01c806365235474116101dc5780639f01f7ba11610102578063bb9662c8116100a0578063db006a751161006f578063db006a7514610d5a578063dd62ed3e14610d7a578063eef9f5a514610dc0578063f6326fb314610de657600080fd5b8063bb9662c814610cd4578063c515d7e714610cf4578063ccc41f2414610d14578063d547741f14610d3a57600080fd5b8063a457c2d7116100dc578063a457c2d714610c47578063a5d3e5b114610c67578063a9059cbb14610c94578063b6b55f2514610cb457600080fd5b80639f01f7ba14610bf2578063a217fddf14610c12578063a2589ef914610c2757600080fd5b80638a19c8bc1161017a57806392b4d26a1161014957806392b4d26a14610b8857806395d89b4114610b9d57806399f2c2da14610bb25780639e4cbd7d14610bd257600080fd5b80638a19c8bc14610b135780638cd8935914610b295780639020253914610b4957806391d1485414610b6857600080fd5b806370a08231116101b657806370a0823114610a855780637445e85c14610abb57806376e7a47814610add5780637ec2d95914610af357600080fd5b806365235474146109995780636896fabf14610a4e57806370349bfb14610a7057600080fd5b80631de245af116102c157806332cc6ae61161025f57806347276abf1161022e57806347276abf1461090f578063511db114146109435780635973ff3a14610964578063640575721461098457600080fd5b806332cc6ae61461089a57806336568abe146108ba57806339509351146108da578063430bf08a146108fa57600080fd5b8063248a9ca31161029b578063248a9ca3146108085780632c453bdf146108385780632f2ff15d14610858578063313ce5671461087857600080fd5b80631de245af146107a857806321c9445c146107c857806323b872dd146107e857600080fd5b80630e777b4b1161032e57806311c8556d1161030857806311c8556d146106a2578063135ad969146106da57806318160ddd14610707578063186a4a171461071c57600080fd5b80630e777b4b146105be5780630ecc535f146105de5780630fd491731461068c57600080fd5b80630720da521161036a5780630720da52146104095780630748248f14610560578063095ea7b31461057a5780630b2737e41461059a57600080fd5b8062f714ce1461039057806301ffc9a7146103b257806306fdde03146103e7575b600080fd5b34801561039c57600080fd5b506103b06103ab366004614adb565b610dee565b005b3480156103be57600080fd5b506103d26103cd366004614aff565b6110b6565b60405190151581526020015b60405180910390f35b3480156103f357600080fd5b506103fc6110ed565b6040516103de9190614da6565b34801561041557600080fd5b506104f4610424366004614ac3565b6040805161010081018252600080825260208201819052918101829052606081018290526080810182905260a0810182905260c0810182905260e081019190915250600090815260cd6020908152604080832054835260ce825291829020825161010081018452815481526001820154928101929092526002810154928201929092526003820154606082015260049091015461ffff8116608083015260ff620100008204811660a0840152630100000082048116151560c084015264010000000090910416151560e082015290565b6040516103de91906000610100820190508251825260208301516020830152604083015160408301526060830151606083015261ffff608084015116608083015260ff60a08401511660a083015260c0830151151560c083015260e0830151151560e083015292915050565b34801561056c57600080fd5b5060d1546103d29060ff1681565b34801561058657600080fd5b506103d261059536600461499d565b61117f565b3480156105a657600080fd5b506105b060d45481565b6040519081526020016103de565b3480156105ca57600080fd5b506103b06105d9366004614ac3565b611195565b3480156105ea57600080fd5b506106456105f93660046148ed565b60d060205260009081526040902080546001820154600383015460048401546005909401549293919260ff808316936001600160e81b0361010085041693600160f01b90049091169187565b60408051978852602088019690965260ff909416948601949094526001600160e81b0390911660608501521515608084015260a083019190915260c082015260e0016103de565b34801561069857600080fd5b506105b060d55481565b3480156106ae57600080fd5b5060d3546106c2906001600160a01b031681565b6040516001600160a01b0390911681526020016103de565b3480156106e657600080fd5b506106fa6106f5366004614a8b565b611359565b6040516103de9190614f95565b34801561071357600080fd5b506035546105b0565b34801561072857600080fd5b5061073c610737366004614a8b565b611622565b6040805183518152602080850151908201528382015191810191909152606080840151908201526080808401519082015260a0808401519082015260c0808401519082015260e080840151908201526101009283015192810192909252610120820152610140016103de565b3480156107b457600080fd5b506106c26107c3366004614ac3565b611848565b3480156107d457600080fd5b506103b06107e3366004614adb565b611872565b3480156107f457600080fd5b506103d261080336600461495d565b611a8f565b34801561081457600080fd5b506105b0610823366004614ac3565b60009081526097602052604090206001015490565b34801561084457600080fd5b5060d2546106c2906001600160a01b031681565b34801561086457600080fd5b506103b0610873366004614adb565b611b3b565b34801561088457600080fd5b5060c95460405160ff90911681526020016103de565b3480156108a657600080fd5b506105b06108b53660046148ed565b611b66565b3480156108c657600080fd5b506103b06108d5366004614adb565b611bfc565b3480156108e657600080fd5b506103d26108f536600461499d565b611c76565b34801561090657600080fd5b506106c2611cb2565b34801561091b57600080fd5b506105b07ffd0eee74c7609b4290ae42cfa22435eabf285017ea12017ed27c2e820eae6a7781565b34801561094f57600080fd5b5060ca546103d290600160a01b900460ff1681565b34801561097057600080fd5b506103b061097f3660046149c8565b611d34565b34801561099057600080fd5b506103b0611dd4565b3480156109a557600080fd5b50610a086109b4366004614ac3565b60ce60205260009081526040902080546001820154600283015460038401546004909401549293919290919061ffff81169060ff620100008204811691630100000081048216916401000000009091041688565b60408051988952602089019790975295870194909452606086019290925261ffff16608085015260ff1660a0840152151560c0830152151560e0820152610100016103de565b348015610a5a57600080fd5b50610a63611edb565b6040516103de9190614f5c565b348015610a7c57600080fd5b506103b0611f74565b348015610a9157600080fd5b506105b0610aa03660046148ed565b6001600160a01b031660009081526033602052604090205490565b348015610ac757600080fd5b506105b06000805160206153b583398151915281565b348015610ae957600080fd5b506105b061271081565b348015610aff57600080fd5b506103b0610b0e366004614b27565b612072565b348015610b1f57600080fd5b506105b060cc5481565b348015610b3557600080fd5b506105b0610b44366004614ac3565b6120f8565b348015610b5557600080fd5b5060d1546103d290610100900460ff1681565b348015610b7457600080fd5b506103d2610b83366004614adb565b61233d565b348015610b9457600080fd5b50610a63612368565b348015610ba957600080fd5b506103fc612470565b348015610bbe57600080fd5b506103b0610bcd366004614bf6565b61247f565b348015610bde57600080fd5b506103b0610bed366004614ac3565b6126fa565b348015610bfe57600080fd5b506103b0610c0d366004614ac3565b6128dc565b348015610c1e57600080fd5b506105b0600081565b348015610c3357600080fd5b506103b0610c42366004614ac3565b612a50565b348015610c5357600080fd5b506103d2610c6236600461499d565b612afc565b348015610c7357600080fd5b506105b0610c82366004614ac3565b60cd6020526000908152604090205481565b348015610ca057600080fd5b506103d2610caf36600461499d565b612b95565b348015610cc057600080fd5b506103b0610ccf366004614ac3565b612ba2565b348015610ce057600080fd5b5060ca546106c2906001600160a01b031681565b348015610d0057600080fd5b506103b0610d0f3660046148ed565b612c75565b348015610d2057600080fd5b5060c9546106c2906201000090046001600160a01b031681565b348015610d4657600080fd5b506103b0610d55366004614adb565b612d16565b348015610d6657600080fd5b506103b0610d75366004614ac3565b612d3c565b348015610d8657600080fd5b506105b0610d95366004614925565b6001600160a01b03918216600090815260346020908152604080832093909416825291909152205490565b348015610dcc57600080fd5b5060d1546106c2906201000090046001600160a01b031681565b6103b0612e84565b60008211610e175760405162461bcd60e51b8152600401610e0e90614eec565b60405180910390fd5b60d15460ff1615610e3a5760405162461bcd60e51b8152600401610e0e90614e27565b60c9546001600160a01b0382811662010000909204161480610e69575060ca546001600160a01b038281169116145b610ead5760405162461bcd60e51b8152602060048201526015602482015274496e76616c6964206173736574206164647265737360581b6044820152606401610e0e565b60c9546001600160a01b0382811662010000909204161415610fad5733600090815260d66020526040902054828111610f7c5733600090815260d06020526040812090610efa8584612f89565b90508082600001541015610f205760405162461bcd60e51b8152600401610e0e90614dfc565b33600090815260d6602052604081205560d454610f3d9084612f89565b60d4558154610f4c9082612f89565b825560cc54600090815260ce602052604090206001810154610f6e9083612f89565b60019091015550610fa79050565b610f868184612f89565b33600090815260d6602052604090205560d454610fa39084612f89565b60d4555b50611009565b33600090815260d7602052604090205482811015610fdd5760405162461bcd60e51b8152600401610e0e90614f0d565b610fe78184612f89565b33600090815260d7602052604090205560d5546110049084612f89565b60d555505b60d3546040516309777fbf60e11b81526001600160a01b03909116906312eeff7e9061104090339086908690600090600401614d06565b600060405180830381600087803b15801561105a57600080fd5b505af115801561106e573d6000803e3d6000fd5b50506040518481526001600160a01b03841692503391507f9b1bfa7fa9ee420a16e124f794c35ac9f90472acc99140eb2f6447c714cad8eb9060200160405180910390a35050565b60006001600160e01b03198216637965db0b60e01b14806110e757506301ffc9a760e01b6001600160e01b03198316145b92915050565b6060603680546110fc90615315565b80601f016020809104026020016040519081016040528092919081815260200182805461112890615315565b80156111755780601f1061114a57610100808354040283529160200191611175565b820191906000526020600020905b81548152906001019060200180831161115857829003601f168201915b5050505050905090565b600061118c338484612f95565b50600192915050565b600081116111da5760405162461bcd60e51b8152602060048201526012602482015271215f6173736574546f5465726d696e61746560701b6044820152606401610e0e565b33600090815260d06020526040902060d15460ff16156112a357600160cc54116112165760405162461bcd60e51b8152600401610e0e90614dd9565b600581015460009061122890846130b1565b6001830154909150808211156112505760405162461bcd60e51b8152600401610e0e90614dfc565b818360050181905550600060ce6000600160cc5461126e9190615298565b815260200190815260200160002090506112958582600201546130b190919063ffffffff16565b600290910155506113559050565b600260cc54116112c55760405162461bcd60e51b8152600401610e0e90614f37565b60048101546000906112d790846130b1565b905060006112e583826130bd565b9050808211156113075760405162461bcd60e51b8152600401610e0e90614dfc565b818360040181905550600060ce6000600260cc546113259190615298565b8152602001908152602001600020905061134c8582600201546130b190919063ffffffff16565b60029091015550505b5050565b6113c860405180610180016040528060006001600160a01b03168152602001600081526020016000815260200160001515815260200160008152602001600081526020016000815260200160008152602001600081526020016000815260200160008152602001600081525090565b6000805160206153b58339815191526113e18133613164565b60d15460ff166114035760405162461bcd60e51b8152600401610e0e90614ec1565b600160cc54116114495760405162461bcd60e51b81526020600482015260116024820152704e6f7468696e6720746f20736574746c6560781b6044820152606401610e0e565b600060ce6000600160cc5461145e9190615298565b815260200190815260200160002090506000604051806101800160405280306001600160a01b03168152602001600160cc5461149a9190615298565b815260200183600101548152602001861515815260200160008152602001600081526020016000815260200160008152602001600081526020016000815260200160008152602001600081525090506001806114f69190615105565b60ff1660cc54111561161857600060ce600060018060ff1660cc5461151b9190615298565b6115259190615298565b815260208082019290925260409081016000908120825161010081018452815481526001820154948101949094526002810154928401929092526003820154606084015260049091015461ffff8116608084015260ff620100008204811660a0850152630100000082048116151560c085015264010000000090910416151560e08301529091506115b687836131c8565b905086156115ef5760c081015161010084015260e081015161012084015260408101516101408401526060810151610160840152611615565b6080808201519084015260a08082015190840152805160c0840152602081015160e08401525b50505b9250505b50919050565b61162a6146fa565b60006000805160206153b58339815191526116458133613164565b60d15460ff166116675760405162461bcd60e51b8152600401610e0e90614ec1565b611672600180615105565b60ff1660cc54116116b25760405162461bcd60e51b815260206004820152600a6024820152691b9bc81b585d1d5c995960b21b6044820152606401610e0e565b600060018060ff1660cc546116c79190615298565b6116d19190615298565b600081815260ce602090815260408083208151610100810183528154815260018201549381019390935260028101549183019190915260038101546060830152600481015461ffff8116608084015260ff620100008204811660a0850152630100000082048116151560c085015264010000000090910416151560e083015292935061175e9088906131c8565b9050600060ce6000600160cc546117759190615298565b81526020019081526020016000209050878360040160036101000a81548160ff02191690831515021790555087156117d6576117ce82606001516117c8846040015160d5546130b190919063ffffffff16565b906130b1565b60d5556117f3565b6020820151825160d4546117ef92916117c891906130b1565b60d4555b60018301541561180c5761180c888460010154846133ae565b60405184907f5fd55b58a9ef8c29a9db39dd9a05dec64993eb227ad0177941238778e9ea896290600090a2600101549095509350505050915091565b60cf818154811061185857600080fd5b6000918252602090912001546001600160a01b0316905081565b600082116118925760405162461bcd60e51b8152600401610e0e90614eec565b60d15460ff16156118b55760405162461bcd60e51b8152600401610e0e90614e27565b600160cc54116118d75760405162461bcd60e51b8152600401610e0e90614e9c565b60c9546001600160a01b0382811662010000909204161480611906575060ca546001600160a01b038281169116145b61194a5760405162461bcd60e51b8152602060048201526015602482015274496e76616c6964206173736574206164647265737360581b6044820152606401610e0e565b60c9546001600160a01b03828116620100009092041614156119c65733600090815260d66020526040902054828110156119965760405162461bcd60e51b8152600401610e0e90614f0d565b6119a08184612f89565b33600090815260d6602052604090205560d4546119bd9084612f89565b60d45550611a22565b33600090815260d76020526040902054828110156119f65760405162461bcd60e51b8152600401610e0e90614f0d565b611a008184612f89565b33600090815260d7602052604090205560d554611a1d9084612f89565b60d555505b60d3546040516309777fbf60e11b81526001600160a01b03909116906312eeff7e90611a5990339086908690600090600401614d06565b600060405180830381600087803b158015611a7357600080fd5b505af1158015611a87573d6000803e3d6000fd5b505050505050565b6000611a9c848484613903565b6001600160a01b038416600090815260346020908152604080832033845290915290205482811015611b215760405162461bcd60e51b815260206004820152602860248201527f45524332303a207472616e7366657220616d6f756e74206578636565647320616044820152676c6c6f77616e636560c01b6064820152608401610e0e565b611b2e8533858403612f95565b60019150505b9392505050565b600082815260976020526040902060010154611b578133613164565b611b618383613ad1565b505050565b60c9546000906001600160a01b0383811662010000909204161415611ba65760d45460cc54600090815260ce60205260409020600101546110e7916130b1565b60ca546001600160a01b0383811691161415611bc457505060d55490565b60405162461bcd60e51b815260206004820152600d60248201526c1a5b9d985b1a5908185cdcd95d609a1b6044820152606401610e0e565b6001600160a01b0381163314611c6c5760405162461bcd60e51b815260206004820152602f60248201527f416363657373436f6e74726f6c3a2063616e206f6e6c792072656e6f756e636560448201526e103937b632b9903337b91039b2b63360891b6064820152608401610e0e565b6113558282613b57565b3360008181526034602090815260408083206001600160a01b0387168452909152812054909161118c918590611cad9086906150ed565b612f95565b60d354604080516338cc483160e01b815290516000926001600160a01b0316916338cc4831916004808301926020929190829003018186803b158015611cf757600080fd5b505afa158015611d0b573d6000803e3d6000fd5b505050506040513d601f19601f82011682018060405250810190611d2f9190614909565b905090565b60d2546001600160a01b03163314611da55760405162461bcd60e51b815260206004820152602e60248201527f4f6e6c7920636f756e746572207061727479206f7074696f6e2063616e20636160448201526d1b1b081d1a1a5cc81b595d1a1bd960921b6064820152608401610e0e565b60d15460009060ff16611dba5760cc54611dc9565b600160cc54611dc99190615298565b905060005b50505050565b33600090815260d06020526040902060d15460ff1615611e6357600160cc5411611e105760405162461bcd60e51b8152600401610e0e90614dd9565b600180820154600583015560cc5460009160ce918391611e2f91615298565b81526020019081526020016000209050611e5a826001015482600201546130b190919063ffffffff16565b60029091015550565b600260cc5411611e855760405162461bcd60e51b8152600401610e0e90614f37565b611e908160006130bd565b8160040181905550600060ce6000600260cc54611ead9190615298565b81526020019081526020016000209050611e5a826004015482600201546130b190919063ffffffff16565b50565b611f0d6040518060a0016040528060008152602001600081526020016000815260200160008152602001600081525090565b33600090815260d060209081526040808320815160a081018352815481526001820154938101939093529291908101611f4684846130bd565b815233600081815260d660209081526040808320548286015292825260d79052819020549101529392505050565b33600090815260d06020526040902060d15460ff161561200057600160cc5411611fb05760405162461bcd60e51b8152600401610e0e90614dd9565b600060ce6000600160cc54611fc59190615298565b81526020019081526020016000209050611ff082600501548260020154612f8990919063ffffffff16565b6002909101556000600582015550565b600260cc54116120225760405162461bcd60e51b8152600401610e0e90614f37565b600060ce6000600260cc546120379190615298565b8152602001908152602001600020905061206282600401548260020154612f8990919063ffffffff16565b6002909101556000600482015550565b600054610100900460ff168061208b575060005460ff16155b6120a75760405162461bcd60e51b8152600401610e0e90614e4e565b600054610100900460ff161580156120c9576000805461ffff19166101011790555b6120db8989898989898960018a613d1d565b80156120ed576000805461ff00191690555b505050505050505050565b60006000805160206153b58339815191526121138133613164565b60d15460ff16156121365760405162461bcd60e51b8152600401610e0e90614e27565b60d1805460ff1916600190811790915560cb84905560cc54612157916150ed565b60cc81815560408051610100808201835284825260006020808401828152848601838152606086018481526080870185815260a0880186815260c0890187815260d15460ff9990048916151560e08b019081529c885260ce909652989095208751815592516001808501919091559151600284015551600383015592516004909101805496519251985161ffff90921662ffffff19909716969096176201000092909416919091029290921764ffff000000191663010000009615159690960264ff0000000019169590951764010000000091151591909102179091559054909110156122c45760cf5460005b818110156122bd57600060cf828154811061226f57634e487b7160e01b600052603260045260246000fd5b60009182526020808320909101546001600160a01b031680835260d09091526040909120805491925090156122a657805460018201555b6000905550806122b58161534a565b915050612244565b50506122cf565b60d1805460ff191690555b60cc546040517f10f419fb017d3101d854d4433e414ff27f232bb2f4aae83d987ad0219efa6c9b90600090a2600160cc5411156123335760ce6000600160cc546123199190615298565b81526020019081526020016000206001015492505061161c565b5060009392505050565b60009182526097602090815260408084206001600160a01b0393909316845291905290205460ff1690565b61239a6040518060a0016040528060008152602001600081526020016000815260200160008152602001600081525090565b60cc54600090815260ce60208190526040822060d15490929190829060ff166123c55760cc546123d4565b600160cc546123d49190615298565b81526020810191909152604001600090812060d15490925060ce90829060ff1661240c57600160cc546124079190615298565b61241b565b600260cc5461241b9190615298565b8152602001908152602001600020905060006040518060a0016040528085600101548152602001846001015481526020018360010154815260200160d454815260200160d55481525090508094505050505090565b6060603780546110fc90615315565b6000805160206153b58339815191526124988133613164565b600160cc54116124d85760405162461bcd60e51b815260206004820152600b60248201526a1b9bdd081cdd185c9d195960aa1b6044820152606401610e0e565b600260cc54111580156124ee575060d15460ff16155b156125015760d1805460ff191660011790555b60d15460ff166125235760405162461bcd60e51b8152600401610e0e90614ec1565b6000600160cc546125349190615298565b600081815260ce602090815260409182902090860151600382015560608601516004820180549388015160ff16620100000262ffffff1990941661ffff9092169190911792909217909155600181015491925090612593903090613ef7565b60cf5460005b818110156126b057600060cf82815481106125c457634e487b7160e01b600052603260045260246000fd5b60009182526020808320909101546001600160a01b031680835260d090915260409091206001810154919250901561265f5761260530838360010154613903565b60048501548554604080513081526001600160a01b038616602082015261ffff9093169083015260608201527fe32540b403abb4ebf4396862a5996e4798b57d9312e048b14b0e0e5e3fb9eaeb9060800160405180910390a15b60058101541561267d57600581018054600483015560009055612685565b600060048201555b6001810154612695908290613fd6565b600060019091015550806126a88161534a565b915050612599565b50600083815260cd60205260408082204390555184917ffa513f17b83baf0c2da337ab931a96429f75c55f0ee2115b7acd007a1a35dd5191a2505060d1805460ff19169055505050565b60d15460ff161561271d5760405162461bcd60e51b8152600401610e0e90614e27565b600160cc541161273f5760405162461bcd60e51b8152600401610e0e90614e9c565b6000811161275f5760405162461bcd60e51b8152600401610e0e90614eec565b33600090815260d760205260409020548181101561278f5760405162461bcd60e51b8152600401610e0e90614f0d565b6127998183612f89565b33600090815260d7602052604090205560d4546127b69083612f89565b60d455604080516001808252818301909252600091602080830190803683375050604080516001808252818301909252929350600092915060208083019080368337019050509050338260008151811061282057634e487b7160e01b600052603260045260246000fd5b60200260200101906001600160a01b031690816001600160a01b031681525050838160008151811061286257634e487b7160e01b600052603260045260246000fd5b602090810291909101015260d154604051632cb9ff9d60e11b8152620100009091046001600160a01b031690635973ff3a906128a49085908590600401614d30565b600060405180830381600087803b1580156128be57600080fd5b505af11580156128d2573d6000803e3d6000fd5b5050505050505050565b600081116129215760405162461bcd60e51b8152602060048201526012602482015271215f6173736574546f5465726d696e61746560701b6044820152606401610e0e565b33600090815260d06020526040902060d15460ff16156129de57600160cc541161295d5760405162461bcd60e51b8152600401610e0e90614dd9565b80600501548211156129815760405162461bcd60e51b8152600401610e0e90614f0d565b60058101546129909083612f89565b8160050181905550600060ce6000600160cc546129ad9190615298565b815260200190815260200160002090506129d4838260020154612f8990919063ffffffff16565b6002909101555050565b600260cc5411612a005760405162461bcd60e51b8152600401610e0e90614f37565b8060040154821115612a245760405162461bcd60e51b8152600401610e0e90614f0d565b6004810154612a339083612f89565b8160040181905550600060ce6000600260cc546129ad9190615298565b600160cc5411612a725760405162461bcd60e51b8152600401610e0e90614e9c565b60008111612a925760405162461bcd60e51b8152600401610e0e90614eec565b33600090815260d6602052604090205481811015612ac25760405162461bcd60e51b8152600401610e0e90614f0d565b612acc8183612f89565b33600090815260d6602052604090205560d454612ae99083612f89565b60d481905550611355338360cc54613bbe565b3360009081526034602090815260408083206001600160a01b038616845290915281205482811015612b7e5760405162461bcd60e51b815260206004820152602560248201527f45524332303a2064656372656173656420616c6c6f77616e63652062656c6f77604482015264207a65726f60d81b6064820152608401610e0e565b612b8b3385858403612f95565b5060019392505050565b600061118c338484613903565b600060cc5411612bdf5760405162461bcd60e51b81526020600482015260086024820152670854dd185c9d195960c21b6044820152606401610e0e565b60ca54600160a01b900460ff1615612c225760405162461bcd60e51b815260206004820152600660248201526502145524332360d41b6044820152606401610e0e565b60008111612c425760405162461bcd60e51b8152600401610e0e90614eec565b612c4f338260cc54613bbe565b611ed833612c5b611cb2565b60c9546201000090046001600160a01b031691908461408a565b6000612c818133613164565b6001600160a01b038216301415612cda5760405162461bcd60e51b815260206004820181905260248201527f43616e6e6f74207365742073656c6620617320636f756e7465722070617274796044820152606401610e0e565b5060d1805462010000600160b01b031916620100006001600160a01b039390931692830217905560d280546001600160a01b0319169091179055565b600082815260976020526040902060010154612d328133613164565b611b618383613b57565b60008111612d5c5760405162461bcd60e51b8152600401610e0e90614eec565b33600090815260d0602052604090208054821115612d8c5760405162461bcd60e51b8152600401610e0e90614dfc565b8054612d989083612f89565b815560cc54600090815260ce602052604090206001810154612dba9084612f89565b60018083019190915560d35460c9546040516309777fbf60e11b81526001600160a01b03928316936312eeff7e93612e039333938a936201000090920490921691600401614d06565b600060405180830381600087803b158015612e1d57600080fd5b505af1158015612e31573d6000803e3d6000fd5b505060c954604051868152620100009091046001600160a01b031692503391507f9b1bfa7fa9ee420a16e124f794c35ac9f90472acc99140eb2f6447c714cad8eb906020015b60405180910390a3505050565b600060cc5411612ec15760405162461bcd60e51b81526020600482015260086024820152670854dd185c9d195960c21b6044820152606401610e0e565b60ca54600160a01b900460ff16612f035760405162461bcd60e51b8152600401610e0e906020808252600490820152630428aa8960e31b604082015260600190565b60003411612f3c5760405162461bcd60e51b81526020600482015260066024820152652176616c756560d01b6044820152606401610e0e565b612f49333460cc54613bbe565b612f51611cb2565b6001600160a01b03166108fc349081150290604051600060405180830381858888f19350505050158015611ed8573d6000803e3d6000fd5b6000611b348284615298565b6001600160a01b038316612ff75760405162461bcd60e51b8152602060048201526024808201527f45524332303a20617070726f76652066726f6d20746865207a65726f206164646044820152637265737360e01b6064820152608401610e0e565b6001600160a01b0382166130585760405162461bcd60e51b815260206004820152602260248201527f45524332303a20617070726f766520746f20746865207a65726f206164647265604482015261737360f01b6064820152608401610e0e565b6001600160a01b0383811660008181526034602090815260408083209487168084529482529182902085905590518481527f8c5be1e5ebec7d5bd14f71427d1e84f3dd0314c0f7b2291e5b200ac8c7c3b9259101612e77565b6000611b3482846150ed565b600382015460009060ff83166101009091046001600160e81b0316116130e5575060006110e7565b600160ff8316106130f557600080fd5b600383015460009060019061310e90859060ff16615257565b6131189190615257565b905060008160000b121561313457613131600182615082565b90505b836002018160ff166001811061315a57634e487b7160e01b600052603260045260246000fd5b0154949350505050565b61316e828261233d565b61135557613186816001600160a01b031660146140e4565b6131918360206140e4565b6040516020016131a2929190614c91565b60408051601f198184030181529082905262461bcd60e51b8252610e0e91600401614da6565b6131d06146fa565b6000604051806101200160405280600081526020016000815260200160008152602001600081526020016000815260200160008152602001600081526020016000815260200184600001518152509050831561331d5760c9546000906132849061323e9060ff16600a61518d565b61327e866060015161327e60c960019054906101000a900460ff168960a001516132689190615105565b61327390600a61518d565b60208a0151906142c6565b906142d2565b905060006132a961271061327e876080015161ffff16856142c690919063ffffffff16565b6040860151909150156132eb576132c982866040015187602001516142de565b8360400181815250506132e581866040015187602001516142de565b60608401525b60408301516132fb908390612f89565b60c08401526060830151613310908290612f89565b60e084015250611b349050565b60208301516080840151600090613341906127109061327e90859061ffff166142c6565b60408601519091501561337e5761336182866040015187602001516142de565b8352604085015160208601516133789183916142de565b60208401525b825161338b908390612f89565b608084015260208301516133a0908290612f89565b60a084015250509392505050565b60cf548361351b576000600160cc546133c79190615298565b602084015184519192506000916133dd916130b1565b905060005b8381101561351257600060cf828154811061340d57634e487b7160e01b600052603260045260246000fd5b60009182526020808320909101546001600160a01b031680835260d090915260408220909250906134528961344c61344585856130bd565b88906142d2565b906142c6565b9050806134685750600060049091015550613500565b600061348c8284600401546134876000876130bd90919063ffffffff16565b6142de565b905080156134d1576001600160a01b038416600090815260d660205260409020546134b790826130b1565b6001600160a01b038516600090815260d660205260409020555b60006134dd8383612f89565b905080156134f0576134f085828a613bbe565b6000846004018190555050505050505b8061350a8161534a565b9150506133e2565b50505050505050565b6000613538836060015184604001516130b190919063ffffffff16565b905060005b828110156136c957600060cf828154811061356857634e487b7160e01b600052603260045260246000fd5b60009182526020808320909101546001600160a01b031680835260d090915260408220909250906135a08861344c61344585856130bd565b9050806135b657506000600490910155506136b7565b60006135d58284600401546134876000876130bd90919063ffffffff16565b9050801561361a576001600160a01b038416600090815260d7602052604090205461360090826130b1565b6001600160a01b038516600090815260d760205260409020555b60006136268383612f89565b905080156136a75760d9805460018082019092557fcc6782fd46dd71c5f512301ab049782450b4eaf79fdac5443d93d274d39167860182905560d8805491820181556000527f5320ad99a619a90804cd2efe3a5cf0ac1ac5c41ad9ff2c61cf699efdad7710960180546001600160a01b0319166001600160a01b0387161790555b6000846004018190555050505050505b806136c18161534a565b91505061353d565b5060d954806136da57505050505050565b60008167ffffffffffffffff81111561370357634e487b7160e01b600052604160045260246000fd5b60405190808252806020026020018201604052801561372c578160200160208202803683370190505b50905060008267ffffffffffffffff81111561375857634e487b7160e01b600052604160045260246000fd5b604051908082528060200260200182016040528015613781578160200160208202803683370190505b50905060005b838110156138775760d881815481106137b057634e487b7160e01b600052603260045260246000fd5b9060005260206000200160009054906101000a90046001600160a01b03168382815181106137ee57634e487b7160e01b600052603260045260246000fd5b60200260200101906001600160a01b031690816001600160a01b03168152505060d9818154811061382f57634e487b7160e01b600052603260045260246000fd5b906000526020600020015482828151811061385a57634e487b7160e01b600052603260045260246000fd5b60209081029190910101528061386f8161534a565b915050613787565b5061388460d86000614746565b61389060d96000614746565b60d154604051632cb9ff9d60e11b8152620100009091046001600160a01b031690635973ff3a906138c79085908590600401614d30565b600060405180830381600087803b1580156138e157600080fd5b505af11580156138f5573d6000803e3d6000fd5b505050505050505050505050565b6001600160a01b0383166139675760405162461bcd60e51b815260206004820152602560248201527f45524332303a207472616e736665722066726f6d20746865207a65726f206164604482015264647265737360d81b6064820152608401610e0e565b6001600160a01b0382166139c95760405162461bcd60e51b815260206004820152602360248201527f45524332303a207472616e7366657220746f20746865207a65726f206164647260448201526265737360e81b6064820152608401610e0e565b6001600160a01b03831660009081526033602052604090205481811015613a415760405162461bcd60e51b815260206004820152602660248201527f45524332303a207472616e7366657220616d6f756e7420657863656564732062604482015265616c616e636560d01b6064820152608401610e0e565b6001600160a01b03808516600090815260336020526040808220858503905591851681529081208054849290613a789084906150ed565b92505081905550826001600160a01b0316846001600160a01b03167fddf252ad1be2c89b69c2b068fc378daa952ba7f163c4a11628f55a4df523b3ef84604051613ac491815260200190565b60405180910390a3611dce565b613adb828261233d565b6113555760008281526097602090815260408083206001600160a01b03851684529091529020805460ff19166001179055613b133390565b6001600160a01b0316816001600160a01b0316837f2f8788117e7eff1d82e926ec794901d17c78024a50270940304540a733656f0d60405160405180910390a45050565b613b61828261233d565b156113555760008281526097602090815260408083206001600160a01b0385168085529252808320805460ff1916905551339285917ff6391f5c32d9c69d2a47ea670b442974b53935d1edc7fd64eb21e047a839171b9190a45050565b600081815260ce6020526040902060cb546001820154613bde90856130b1565b1115613c1f5760405162461bcd60e51b815260206004820152601060248201526f4e6f7420656e6f7567682071756f746160801b6044820152606401610e0e565b6001600160a01b038416600090815260d0602052604090206003810154600160f01b900460ff16613cad5760038101805460ff60f01b1916600160f01b17905560cf80546001810182556000919091527facb8d954e2cfef495862221e91bd7523613cf8808827cb33edfe4904cc51bf290180546001600160a01b0387166001600160a01b03199091161790555b8054613cb990856130b1565b81556001820154613cca90856130b1565b60018301556040805185815230602082015284916001600160a01b0388169133917ff5dd9317b9e63ac316ce44acc85f670b54b339cfa3e9076e1dd55065b922314b910160405180910390a45050505050565b600054610100900460ff1680613d36575060005460ff16155b613d525760405162461bcd60e51b8152600401610e0e90614e4e565b600054610100900460ff16158015613d74576000805461ffff19166101011790555b6001600160a01b038416613dc05760405162461bcd60e51b8152602060048201526013602482015272456d707479207661756c74206164647265737360681b6044820152606401610e0e565b613dca8a8a614312565b613dd2614391565b613ddd600033614414565b613df56000805160206153b583398151915283614414565b613e0d6000805160206153b583398151915285614414565b60c9805460ca80546001600160a01b038b81166001600160a81b0319909216919091178c82168015600160a01b029190911790925560ff8a81166001600160b01b03199094166201000090930261ffff1916929092179290921761010091891682021790925560d380546001600160a01b03191691871691909117905560d1805461ff00191685151590920291909117905560405130907f8f61f0def895309a310dec5facf78f589cf18d834f0ba4030a5e68e32180ec9790613ed1908c90614da6565b60405180910390a28015613eeb576000805461ff00191690555b50505050505050505050565b6001600160a01b038216613f4d5760405162461bcd60e51b815260206004820152601f60248201527f45524332303a206d696e7420746f20746865207a65726f2061646472657373006044820152606401610e0e565b8060356000828254613f5f91906150ed565b90915550506001600160a01b03821660009081526033602052604081208054839290613f8c9084906150ed565b90915550506040518181526001600160a01b038316906000907fddf252ad1be2c89b69c2b068fc378daa952ba7f163c4a11628f55a4df523b3ef9060200160405180910390a35050565b600382015460ff168160028401826001811061400257634e487b7160e01b600052603260045260246000fd5b015560006140116001806152af565b60ff16821461402a576140258260016150ed565b61402d565b60005b60038501805460ff191660ff8316179081905590915061405c9061010090046001600160e81b031660016150c2565b8460030160016101000a8154816001600160e81b0302191690836001600160e81b0316021790555050505050565b604080516001600160a01b0385811660248301528416604482015260648082018490528251808303909101815260849091019091526020810180516001600160e01b03166323b872dd60e01b179052611dce90859061441e565b606060006140f3836002615238565b6140fe9060026150ed565b67ffffffffffffffff81111561412457634e487b7160e01b600052604160045260246000fd5b6040519080825280601f01601f19166020018201604052801561414e576020820181803683370190505b509050600360fc1b8160008151811061417757634e487b7160e01b600052603260045260246000fd5b60200101906001600160f81b031916908160001a905350600f60fb1b816001815181106141b457634e487b7160e01b600052603260045260246000fd5b60200101906001600160f81b031916908160001a90535060006141d8846002615238565b6141e39060016150ed565b90505b6001811115614277576f181899199a1a9b1b9c1cb0b131b232b360811b85600f166010811061422557634e487b7160e01b600052603260045260246000fd5b1a60f81b82828151811061424957634e487b7160e01b600052603260045260246000fd5b60200101906001600160f81b031916908160001a90535060049490941c93614270816152fe565b90506141e6565b508315611b345760405162461bcd60e51b815260206004820181905260248201527f537472696e67733a20686578206c656e67746820696e73756666696369656e746044820152606401610e0e565b6000611b348284615238565b6000611b34828461512a565b6000826142ed57506000611b34565b81831015614308576143038261327e86866142c6565b61430a565b835b949350505050565b600054610100900460ff168061432b575060005460ff16155b6143475760405162461bcd60e51b8152600401610e0e90614e4e565b600054610100900460ff16158015614369576000805461ffff19166101011790555b6143716144f0565b61437b838361455a565b8015611b61576000805461ff0019169055505050565b600054610100900460ff16806143aa575060005460ff16155b6143c65760405162461bcd60e51b8152600401610e0e90614e4e565b600054610100900460ff161580156143e8576000805461ffff19166101011790555b6143f06144f0565b6143f86144f0565b6144006144f0565b8015611ed8576000805461ff001916905550565b6113558282613ad1565b6000614473826040518060400160405280602081526020017f5361666545524332303a206c6f772d6c6576656c2063616c6c206661696c6564815250856001600160a01b03166145ef9092919063ffffffff16565b805190915015611b6157808060200190518101906144919190614aa7565b611b615760405162461bcd60e51b815260206004820152602a60248201527f5361666545524332303a204552433230206f7065726174696f6e20646964206e6044820152691bdd081cdd58d8d9595960b21b6064820152608401610e0e565b600054610100900460ff1680614509575060005460ff16155b6145255760405162461bcd60e51b8152600401610e0e90614e4e565b600054610100900460ff16158015614400576000805461ffff19166101011790558015611ed8576000805461ff001916905550565b600054610100900460ff1680614573575060005460ff16155b61458f5760405162461bcd60e51b8152600401610e0e90614e4e565b600054610100900460ff161580156145b1576000805461ffff19166101011790555b82516145c4906036906020860190614764565b5081516145d8906037906020850190614764565b508015611b61576000805461ff0019169055505050565b606061430a848460008585843b6146485760405162461bcd60e51b815260206004820152601d60248201527f416464726573733a2063616c6c20746f206e6f6e2d636f6e74726163740000006044820152606401610e0e565b600080866001600160a01b031685876040516146649190614c75565b60006040518083038185875af1925050503d80600081146146a1576040519150601f19603f3d011682016040523d82523d6000602084013e6146a6565b606091505b50915091506146b68282866146c1565b979650505050505050565b606083156146d0575081611b34565b8251156146e05782518084602001fd5b8160405162461bcd60e51b8152600401610e0e9190614da6565b6040518061012001604052806000815260200160008152602001600081526020016000815260200160008152602001600081526020016000815260200160008152602001600081525090565b5080546000825590600052602060002090810190611ed891906147e8565b82805461477090615315565b90600052602060002090601f01602090048101928261479257600085556147d8565b82601f106147ab57805160ff19168380011785556147d8565b828001600101855582156147d8579182015b828111156147d85782518255916020019190600101906147bd565b506147e49291506147e8565b5090565b5b808211156147e457600081556001016147e9565b600082601f83011261480d578081fd5b8135602061482261481d8361505e565b61502d565b80838252828201915082860187848660051b8901011115614841578586fd5b855b8581101561485f57813584529284019290840190600101614843565b5090979650505050505050565b600082601f83011261487c578081fd5b813567ffffffffffffffff8111156148965761489661537b565b6148a9601f8201601f191660200161502d565b8181528460208386010111156148bd578283fd5b816020850160208301379081016020019190915292915050565b803560ff811681146148e857600080fd5b919050565b6000602082840312156148fe578081fd5b8135611b3481615391565b60006020828403121561491a578081fd5b8151611b3481615391565b60008060408385031215614937578081fd5b823561494281615391565b9150602083013561495281615391565b809150509250929050565b600080600060608486031215614971578081fd5b833561497c81615391565b9250602084013561498c81615391565b929592945050506040919091013590565b600080604083850312156149af578182fd5b82356149ba81615391565b946020939093013593505050565b600080604083850312156149da578182fd5b823567ffffffffffffffff808211156149f1578384fd5b818501915085601f830112614a04578384fd5b81356020614a1461481d8361505e565b8083825282820191508286018a848660051b8901011115614a33578889fd5b8896505b84871015614a5e578035614a4a81615391565b835260019690960195918301918301614a37565b5096505086013592505080821115614a74578283fd5b50614a81858286016147fd565b9150509250929050565b600060208284031215614a9c578081fd5b8135611b34816153a6565b600060208284031215614ab8578081fd5b8151611b34816153a6565b600060208284031215614ad4578081fd5b5035919050565b60008060408385031215614aed578182fd5b82359150602083013561495281615391565b600060208284031215614b10578081fd5b81356001600160e01b031981168114611b34578182fd5b600080600080600080600080610100898b031215614b43578586fd5b883567ffffffffffffffff80821115614b5a578788fd5b614b668c838d0161486c565b995060208b0135915080821115614b7b578788fd5b50614b888b828c0161486c565b9750506040890135614b9981615391565b95506060890135614ba981615391565b9450614bb760808a016148d7565b9350614bc560a08a016148d7565b925060c0890135614bd581615391565b915060e0890135614be581615391565b809150509295985092959890939650565b600060808284031215614c07578081fd5b6040516080810181811067ffffffffffffffff82111715614c2a57614c2a61537b565b6040528235614c3881615391565b815260208381013590820152614c50604084016148d7565b6040820152606083013561ffff81168114614c69578283fd5b60608201529392505050565b60008251614c878184602087016152d2565b9190910192915050565b7f416363657373436f6e74726f6c3a206163636f756e7420000000000000000000815260008351614cc98160178501602088016152d2565b7001034b99036b4b9b9b4b733903937b6329607d1b6017918401918201528351614cfa8160288401602088016152d2565b01602801949350505050565b6001600160a01b039485168152602081019390935292166040820152901515606082015260800190565b604080825283519082018190526000906020906060840190828701845b82811015614d725781516001600160a01b031684529284019290840190600101614d4d565b50505083810382850152845180825285830191830190845b8181101561485f57835183529284019291840191600101614d8a565b6020815260008251806020840152614dc58160408501602087016152d2565b601f01601f19169190910160400192915050565b602080825260099082015268139bc81b1bd8dad95960ba1b604082015260600190565b6020808252601190820152704578636565647320617661696c61626c6560781b604082015260600190565b6020808252600d908201526c10995a5b99c81cd95d1d1b1959609a1b604082015260600190565b6020808252602e908201527f496e697469616c697a61626c653a20636f6e747261637420697320616c72656160408201526d191e481a5b9a5d1a585b1a5e995960921b606082015260800190565b6020808252600b908201526a08539bc813585d1d5c995960aa1b604082015260600190565b602080825260119082015270139bdd0818995a5b99c81cd95d1d1b1959607a1b604082015260600190565b60208082526007908201526608585b5bdd5b9d60ca1b604082015260600190565b60208082526010908201526f45786365656420617661696c61626c6560801b604082015260600190565b6020808252600b908201526a4e6f206f6e20676f696e6760a81b604082015260600190565b60a081016110e7828480518252602081015160208301526040810151604083015260608101516060830152608081015160808301525050565b81516001600160a01b03168152610180810160208301516020830152604083015160408301526060830151614fce606084018215159052565b506080830151608083015260a083015160a083015260c083015160c083015260e083015160e083015261010080840151818401525061012080840151818401525061014080840151818401525061016080840151818401525092915050565b604051601f8201601f1916810167ffffffffffffffff811182821017156150565761505661537b565b604052919050565b600067ffffffffffffffff8211156150785761507861537b565b5060051b60200190565b600081810b83820b82821282607f038213811516156150a3576150a3615365565b82607f190382128116156150b9576150b9615365565b50019392505050565b60006001600160e81b038281168482168083038211156150e4576150e4615365565b01949350505050565b6000821982111561510057615100615365565b500190565b600060ff821660ff84168060ff0382111561512257615122615365565b019392505050565b60008261514557634e487b7160e01b81526012600452602481fd5b500490565b600181815b8085111561518557816000190482111561516b5761516b615365565b8085161561517857918102915b93841c939080029061514f565b509250929050565b6000611b3460ff8416836000826151a6575060016110e7565b816151b3575060006110e7565b81600181146151c957600281146151d3576151ef565b60019150506110e7565b60ff8411156151e4576151e4615365565b50506001821b6110e7565b5060208310610133831016604e8410600b8410161715615212575081810a6110e7565b61521c838361514a565b806000190482111561523057615230615365565b029392505050565b600081600019048311821515161561525257615252615365565b500290565b600081810b83820b8281128015607f1983018412161561527957615279615365565b81607f01831381161561528e5761528e615365565b5090039392505050565b6000828210156152aa576152aa615365565b500390565b600060ff821660ff8416808210156152c9576152c9615365565b90039392505050565b60005b838110156152ed5781810151838201526020016152d5565b83811115611dce5750506000910152565b60008161530d5761530d615365565b506000190190565b600181811c9082168061532957607f821691505b6020821081141561161c57634e487b7160e01b600052602260045260246000fd5b600060001982141561535e5761535e615365565b5060010190565b634e487b7160e01b600052601160045260246000fd5b634e487b7160e01b600052604160045260246000fd5b6001600160a01b0381168114611ed857600080fd5b8015158114611ed857600080fdfe6666bf5bfee463d10a7fc50448047f8a53b7762d7e28fbc5c643182785f3fd3fa264697066735822122028872348a3dbc0664c43ab24fd487008dd9978fb752919a7b74256d3a42fa9b764736f6c63430008040033",
  "libraries": {
    "StructureData": "0x19cEcCd6942ad38562Ee10bAfd44776ceB67e923"
  },
  "devdoc": {
    "kind": "dev",
    "methods": {
      "allowance(address,address)": {
        "details": "See {IERC20-allowance}."
      },
      "approve(address,uint256)": {
        "details": "See {IERC20-approve}. Requirements: - `spender` cannot be the zero address."
      },
      "balanceOf(address)": {
        "details": "See {IERC20-balanceOf}."
      },
      "decimals()": {
        "details": "Returns the number of decimals used to get its user representation. For example, if `decimals` equals `2`, a balance of `505` tokens should be displayed to a user as `5.05` (`505 / 10 ** 2`). Tokens usually opt for a value of 18, imitating the relationship between Ether and Wei. This is the value {ERC20} uses, unless this function is overridden; NOTE: This information is only used for _display_ purposes: it in no way affects any of the arithmetic of the contract, including {IERC20-balanceOf} and {IERC20-transfer}."
      },
      "decreaseAllowance(address,uint256)": {
        "details": "Atomically decreases the allowance granted to `spender` by the caller. This is an alternative to {approve} that can be used as a mitigation for problems described in {IERC20-approve}. Emits an {Approval} event indicating the updated allowance. Requirements: - `spender` cannot be the zero address. - `spender` must have allowance for the caller of at least `subtractedValue`."
      },
      "getRoleAdmin(bytes32)": {
        "details": "Returns the admin role that controls `role`. See {grantRole} and {revokeRole}. To change a role's admin, use {_setRoleAdmin}."
      },
      "grantRole(bytes32,address)": {
        "details": "Grants `role` to `account`. If `account` had not been already granted `role`, emits a {RoleGranted} event. Requirements: - the caller must have ``role``'s admin role."
      },
      "hasRole(bytes32,address)": {
        "details": "Returns `true` if `account` has been granted `role`."
      },
      "increaseAllowance(address,uint256)": {
        "details": "Atomically increases the allowance granted to `spender` by the caller. This is an alternative to {approve} that can be used as a mitigation for problems described in {IERC20-approve}. Emits an {Approval} event indicating the updated allowance. Requirements: - `spender` cannot be the zero address."
      },
      "name()": {
        "details": "Returns the name of the token."
      },
      "renounceRole(bytes32,address)": {
        "details": "Revokes `role` from the calling account. Roles are often managed via {grantRole} and {revokeRole}: this function's purpose is to provide a mechanism for accounts to lose their privileges if they are compromised (such as when a trusted device is misplaced). If the calling account had been granted `role`, emits a {RoleRevoked} event. Requirements: - the caller must be `account`."
      },
      "revokeRole(bytes32,address)": {
        "details": "Revokes `role` from `account`. If `account` had been granted `role`, emits a {RoleRevoked} event. Requirements: - the caller must have ``role``'s admin role."
      },
      "supportsInterface(bytes4)": {
        "details": "See {IERC165-supportsInterface}."
      },
      "symbol()": {
        "details": "Returns the symbol of the token, usually a shorter version of the name."
      },
      "totalSupply()": {
        "details": "See {IERC20-totalSupply}."
      },
      "transfer(address,uint256)": {
        "details": "See {IERC20-transfer}. Requirements: - `recipient` cannot be the zero address. - the caller must have a balance of at least `amount`."
      },
      "transferFrom(address,address,uint256)": {
        "details": "See {IERC20-transferFrom}. Emits an {Approval} event indicating the updated allowance. This is not required by the EIP. See the note at the beginning of {ERC20}. Requirements: - `sender` and `recipient` cannot be the zero address. - `sender` must have a balance of at least `amount`. - the caller must have allowance for ``sender``'s tokens of at least `amount`."
      }
    },
    "version": 1
  },
  "userdoc": {
    "kind": "user",
    "methods": {},
    "version": 1
  },
  "storageLayout": {
    "storage": [
      {
        "astId": 538,
        "contract": "contracts/Options/PKKTHodlBoosterCallOption.sol:PKKTHodlBoosterCallOption",
        "label": "_initialized",
        "offset": 0,
        "slot": "0",
        "type": "t_bool"
      },
      {
        "astId": 541,
        "contract": "contracts/Options/PKKTHodlBoosterCallOption.sol:PKKTHodlBoosterCallOption",
        "label": "_initializing",
        "offset": 1,
        "slot": "0",
        "type": "t_bool"
      },
      {
        "astId": 1297,
        "contract": "contracts/Options/PKKTHodlBoosterCallOption.sol:PKKTHodlBoosterCallOption",
        "label": "__gap",
        "offset": 0,
        "slot": "1",
        "type": "t_array(t_uint256)50_storage"
      },
      {
        "astId": 597,
        "contract": "contracts/Options/PKKTHodlBoosterCallOption.sol:PKKTHodlBoosterCallOption",
        "label": "_balances",
        "offset": 0,
        "slot": "51",
        "type": "t_mapping(t_address,t_uint256)"
      },
      {
        "astId": 603,
        "contract": "contracts/Options/PKKTHodlBoosterCallOption.sol:PKKTHodlBoosterCallOption",
        "label": "_allowances",
        "offset": 0,
        "slot": "52",
        "type": "t_mapping(t_address,t_mapping(t_address,t_uint256))"
      },
      {
        "astId": 605,
        "contract": "contracts/Options/PKKTHodlBoosterCallOption.sol:PKKTHodlBoosterCallOption",
        "label": "_totalSupply",
        "offset": 0,
        "slot": "53",
        "type": "t_uint256"
      },
      {
        "astId": 607,
        "contract": "contracts/Options/PKKTHodlBoosterCallOption.sol:PKKTHodlBoosterCallOption",
        "label": "_name",
        "offset": 0,
        "slot": "54",
        "type": "t_string_storage"
      },
      {
        "astId": 609,
        "contract": "contracts/Options/PKKTHodlBoosterCallOption.sol:PKKTHodlBoosterCallOption",
        "label": "_symbol",
        "offset": 0,
        "slot": "55",
        "type": "t_string_storage"
      },
      {
        "astId": 1150,
        "contract": "contracts/Options/PKKTHodlBoosterCallOption.sol:PKKTHodlBoosterCallOption",
        "label": "__gap",
        "offset": 0,
        "slot": "56",
        "type": "t_array(t_uint256)45_storage"
      },
      {
        "astId": 1546,
        "contract": "contracts/Options/PKKTHodlBoosterCallOption.sol:PKKTHodlBoosterCallOption",
        "label": "__gap",
        "offset": 0,
        "slot": "101",
        "type": "t_array(t_uint256)50_storage"
      },
      {
        "astId": 48,
        "contract": "contracts/Options/PKKTHodlBoosterCallOption.sol:PKKTHodlBoosterCallOption",
        "label": "_roles",
        "offset": 0,
        "slot": "151",
        "type": "t_mapping(t_bytes32,t_struct(RoleData)43_storage)"
      },
      {
        "astId": 333,
        "contract": "contracts/Options/PKKTHodlBoosterCallOption.sol:PKKTHodlBoosterCallOption",
        "label": "__gap",
        "offset": 0,
        "slot": "152",
        "type": "t_array(t_uint256)49_storage"
      },
      {
        "astId": 5338,
        "contract": "contracts/Options/PKKTHodlBoosterCallOption.sol:PKKTHodlBoosterCallOption",
        "label": "depositAssetAmountDecimals",
        "offset": 0,
        "slot": "201",
        "type": "t_uint8"
      },
      {
        "astId": 5340,
        "contract": "contracts/Options/PKKTHodlBoosterCallOption.sol:PKKTHodlBoosterCallOption",
        "label": "counterPartyAssetAmountDecimals",
        "offset": 1,
        "slot": "201",
        "type": "t_uint8"
      },
      {
        "astId": 5342,
        "contract": "contracts/Options/PKKTHodlBoosterCallOption.sol:PKKTHodlBoosterCallOption",
        "label": "depositAsset",
        "offset": 2,
        "slot": "201",
        "type": "t_address"
      },
      {
        "astId": 5344,
        "contract": "contracts/Options/PKKTHodlBoosterCallOption.sol:PKKTHodlBoosterCallOption",
        "label": "counterPartyAsset",
        "offset": 0,
        "slot": "202",
        "type": "t_address"
      },
      {
        "astId": 5346,
        "contract": "contracts/Options/PKKTHodlBoosterCallOption.sol:PKKTHodlBoosterCallOption",
        "label": "isEth",
        "offset": 20,
        "slot": "202",
        "type": "t_bool"
      },
      {
        "astId": 5348,
        "contract": "contracts/Options/PKKTHodlBoosterCallOption.sol:PKKTHodlBoosterCallOption",
        "label": "quota",
        "offset": 0,
        "slot": "203",
        "type": "t_uint256"
      },
      {
        "astId": 5350,
        "contract": "contracts/Options/PKKTHodlBoosterCallOption.sol:PKKTHodlBoosterCallOption",
        "label": "currentRound",
        "offset": 0,
        "slot": "204",
        "type": "t_uint256"
      },
      {
        "astId": 5354,
        "contract": "contracts/Options/PKKTHodlBoosterCallOption.sol:PKKTHodlBoosterCallOption",
        "label": "optionHeights",
        "offset": 0,
        "slot": "205",
        "type": "t_mapping(t_uint256,t_uint256)"
      },
      {
        "astId": 5359,
        "contract": "contracts/Options/PKKTHodlBoosterCallOption.sol:PKKTHodlBoosterCallOption",
        "label": "optionStates",
        "offset": 0,
        "slot": "206",
        "type": "t_mapping(t_uint256,t_struct(OptionState)13202_storage)"
      },
      {
        "astId": 5362,
        "contract": "contracts/Options/PKKTHodlBoosterCallOption.sol:PKKTHodlBoosterCallOption",
        "label": "usersInvolved",
        "offset": 0,
        "slot": "207",
        "type": "t_array(t_address)dyn_storage"
      },
      {
        "astId": 5367,
        "contract": "contracts/Options/PKKTHodlBoosterCallOption.sol:PKKTHodlBoosterCallOption",
        "label": "userStates",
        "offset": 0,
        "slot": "208",
        "type": "t_mapping(t_address,t_struct(UserState)13243_storage)"
      },
      {
        "astId": 5369,
        "contract": "contracts/Options/PKKTHodlBoosterCallOption.sol:PKKTHodlBoosterCallOption",
        "label": "underSettlement",
        "offset": 0,
        "slot": "209",
        "type": "t_bool"
      },
      {
        "astId": 5371,
        "contract": "contracts/Options/PKKTHodlBoosterCallOption.sol:PKKTHodlBoosterCallOption",
        "label": "callOrPut",
        "offset": 1,
        "slot": "209",
        "type": "t_bool"
      },
      {
        "astId": 5374,
        "contract": "contracts/Options/PKKTHodlBoosterCallOption.sol:PKKTHodlBoosterCallOption",
        "label": "counterPartyOption",
        "offset": 2,
        "slot": "209",
        "type": "t_contract(IPKKTStructureOption)13065"
      },
      {
        "astId": 5376,
        "contract": "contracts/Options/PKKTHodlBoosterCallOption.sol:PKKTHodlBoosterCallOption",
        "label": "counterParty",
        "offset": 0,
        "slot": "210",
        "type": "t_address"
      },
      {
        "astId": 5379,
        "contract": "contracts/Options/PKKTHodlBoosterCallOption.sol:PKKTHodlBoosterCallOption",
        "label": "optionVault",
        "offset": 0,
        "slot": "211",
        "type": "t_contract(IOptionVault)12961"
      },
      {
        "astId": 5381,
        "contract": "contracts/Options/PKKTHodlBoosterCallOption.sol:PKKTHodlBoosterCallOption",
        "label": "totalReleasedDepositAssetAmount",
        "offset": 0,
        "slot": "212",
        "type": "t_uint256"
      },
      {
        "astId": 5383,
        "contract": "contracts/Options/PKKTHodlBoosterCallOption.sol:PKKTHodlBoosterCallOption",
        "label": "totalReleasedCounterPartyAssetAmount",
        "offset": 0,
        "slot": "213",
        "type": "t_uint256"
      },
      {
        "astId": 5387,
        "contract": "contracts/Options/PKKTHodlBoosterCallOption.sol:PKKTHodlBoosterCallOption",
        "label": "releasedDepositAssetAmount",
        "offset": 0,
        "slot": "214",
        "type": "t_mapping(t_address,t_uint256)"
      },
      {
        "astId": 5391,
        "contract": "contracts/Options/PKKTHodlBoosterCallOption.sol:PKKTHodlBoosterCallOption",
        "label": "releasedCounterPartyAssetAmount",
        "offset": 0,
        "slot": "215",
        "type": "t_mapping(t_address,t_uint256)"
      },
      {
        "astId": 7726,
        "contract": "contracts/Options/PKKTHodlBoosterCallOption.sol:PKKTHodlBoosterCallOption",
        "label": "autoRolledUsers",
        "offset": 0,
        "slot": "216",
        "type": "t_array(t_address)dyn_storage"
      },
      {
        "astId": 7729,
        "contract": "contracts/Options/PKKTHodlBoosterCallOption.sol:PKKTHodlBoosterCallOption",
        "label": "autoRolledAmounts",
        "offset": 0,
        "slot": "217",
        "type": "t_array(t_uint256)dyn_storage"
      }
    ],
    "types": {
      "t_address": {
        "encoding": "inplace",
        "label": "address",
        "numberOfBytes": "20"
      },
      "t_array(t_address)dyn_storage": {
        "base": "t_address",
        "encoding": "dynamic_array",
        "label": "address[]",
        "numberOfBytes": "32"
      },
      "t_array(t_uint256)1_storage": {
        "base": "t_uint256",
        "encoding": "inplace",
        "label": "uint256[1]",
        "numberOfBytes": "32"
      },
      "t_array(t_uint256)45_storage": {
        "base": "t_uint256",
        "encoding": "inplace",
        "label": "uint256[45]",
        "numberOfBytes": "1440"
      },
      "t_array(t_uint256)49_storage": {
        "base": "t_uint256",
        "encoding": "inplace",
        "label": "uint256[49]",
        "numberOfBytes": "1568"
      },
      "t_array(t_uint256)50_storage": {
        "base": "t_uint256",
        "encoding": "inplace",
        "label": "uint256[50]",
        "numberOfBytes": "1600"
      },
      "t_array(t_uint256)dyn_storage": {
        "base": "t_uint256",
        "encoding": "dynamic_array",
        "label": "uint256[]",
        "numberOfBytes": "32"
      },
      "t_bool": {
        "encoding": "inplace",
        "label": "bool",
        "numberOfBytes": "1"
      },
      "t_bytes32": {
        "encoding": "inplace",
        "label": "bytes32",
        "numberOfBytes": "32"
      },
      "t_contract(IOptionVault)12961": {
        "encoding": "inplace",
        "label": "contract IOptionVault",
        "numberOfBytes": "20"
      },
      "t_contract(IPKKTStructureOption)13065": {
        "encoding": "inplace",
        "label": "contract IPKKTStructureOption",
        "numberOfBytes": "20"
      },
      "t_mapping(t_address,t_bool)": {
        "encoding": "mapping",
        "key": "t_address",
        "label": "mapping(address => bool)",
        "numberOfBytes": "32",
        "value": "t_bool"
      },
      "t_mapping(t_address,t_mapping(t_address,t_uint256))": {
        "encoding": "mapping",
        "key": "t_address",
        "label": "mapping(address => mapping(address => uint256))",
        "numberOfBytes": "32",
        "value": "t_mapping(t_address,t_uint256)"
      },
      "t_mapping(t_address,t_struct(UserState)13243_storage)": {
        "encoding": "mapping",
        "key": "t_address",
        "label": "mapping(address => struct StructureData.UserState)",
        "numberOfBytes": "32",
        "value": "t_struct(UserState)13243_storage"
      },
      "t_mapping(t_address,t_uint256)": {
        "encoding": "mapping",
        "key": "t_address",
        "label": "mapping(address => uint256)",
        "numberOfBytes": "32",
        "value": "t_uint256"
      },
      "t_mapping(t_bytes32,t_struct(RoleData)43_storage)": {
        "encoding": "mapping",
        "key": "t_bytes32",
        "label": "mapping(bytes32 => struct AccessControlUpgradeable.RoleData)",
        "numberOfBytes": "32",
        "value": "t_struct(RoleData)43_storage"
      },
      "t_mapping(t_uint256,t_struct(OptionState)13202_storage)": {
        "encoding": "mapping",
        "key": "t_uint256",
        "label": "mapping(uint256 => struct StructureData.OptionState)",
        "numberOfBytes": "32",
        "value": "t_struct(OptionState)13202_storage"
      },
      "t_mapping(t_uint256,t_uint256)": {
        "encoding": "mapping",
        "key": "t_uint256",
        "label": "mapping(uint256 => uint256)",
        "numberOfBytes": "32",
        "value": "t_uint256"
      },
      "t_string_storage": {
        "encoding": "bytes",
        "label": "string",
        "numberOfBytes": "32"
      },
      "t_struct(OptionState)13202_storage": {
        "encoding": "inplace",
        "label": "struct StructureData.OptionState",
        "members": [
          {
            "astId": 13187,
            "contract": "contracts/Options/PKKTHodlBoosterCallOption.sol:PKKTHodlBoosterCallOption",
            "label": "round",
            "offset": 0,
            "slot": "0",
            "type": "t_uint256"
          },
          {
            "astId": 13189,
            "contract": "contracts/Options/PKKTHodlBoosterCallOption.sol:PKKTHodlBoosterCallOption",
            "label": "totalAmount",
            "offset": 0,
            "slot": "1",
            "type": "t_uint256"
          },
          {
            "astId": 13191,
            "contract": "contracts/Options/PKKTHodlBoosterCallOption.sol:PKKTHodlBoosterCallOption",
            "label": "totalTerminate",
            "offset": 0,
            "slot": "2",
            "type": "t_uint256"
          },
          {
            "astId": 13193,
            "contract": "contracts/Options/PKKTHodlBoosterCallOption.sol:PKKTHodlBoosterCallOption",
            "label": "strikePrice",
            "offset": 0,
            "slot": "3",
            "type": "t_uint256"
          },
          {
            "astId": 13195,
            "contract": "contracts/Options/PKKTHodlBoosterCallOption.sol:PKKTHodlBoosterCallOption",
            "label": "premiumRate",
            "offset": 0,
            "slot": "4",
            "type": "t_uint16"
          },
          {
            "astId": 13197,
            "contract": "contracts/Options/PKKTHodlBoosterCallOption.sol:PKKTHodlBoosterCallOption",
            "label": "pricePrecision",
            "offset": 2,
            "slot": "4",
            "type": "t_uint8"
          },
          {
            "astId": 13199,
            "contract": "contracts/Options/PKKTHodlBoosterCallOption.sol:PKKTHodlBoosterCallOption",
            "label": "executed",
            "offset": 3,
            "slot": "4",
            "type": "t_bool"
          },
          {
            "astId": 13201,
            "contract": "contracts/Options/PKKTHodlBoosterCallOption.sol:PKKTHodlBoosterCallOption",
            "label": "callOrPut",
            "offset": 4,
            "slot": "4",
            "type": "t_bool"
          }
        ],
        "numberOfBytes": "160"
      },
      "t_struct(RoleData)43_storage": {
        "encoding": "inplace",
        "label": "struct AccessControlUpgradeable.RoleData",
        "members": [
          {
            "astId": 40,
            "contract": "contracts/Options/PKKTHodlBoosterCallOption.sol:PKKTHodlBoosterCallOption",
            "label": "members",
            "offset": 0,
            "slot": "0",
            "type": "t_mapping(t_address,t_bool)"
          },
          {
            "astId": 42,
            "contract": "contracts/Options/PKKTHodlBoosterCallOption.sol:PKKTHodlBoosterCallOption",
            "label": "adminRole",
            "offset": 0,
            "slot": "1",
            "type": "t_bytes32"
          }
        ],
        "numberOfBytes": "64"
      },
      "t_struct(UserState)13243_storage": {
        "encoding": "inplace",
        "label": "struct StructureData.UserState",
        "members": [
          {
            "astId": 13226,
            "contract": "contracts/Options/PKKTHodlBoosterCallOption.sol:PKKTHodlBoosterCallOption",
            "label": "pendingAsset",
            "offset": 0,
            "slot": "0",
            "type": "t_uint256"
          },
          {
            "astId": 13228,
            "contract": "contracts/Options/PKKTHodlBoosterCallOption.sol:PKKTHodlBoosterCallOption",
            "label": "lockedAsset",
            "offset": 0,
            "slot": "1",
            "type": "t_uint256"
          },
          {
            "astId": 13232,
            "contract": "contracts/Options/PKKTHodlBoosterCallOption.sol:PKKTHodlBoosterCallOption",
            "label": "ongoingAsset",
            "offset": 0,
            "slot": "2",
            "type": "t_array(t_uint256)1_storage"
          },
          {
            "astId": 13234,
            "contract": "contracts/Options/PKKTHodlBoosterCallOption.sol:PKKTHodlBoosterCallOption",
            "label": "nextCursor",
            "offset": 0,
            "slot": "3",
            "type": "t_uint8"
          },
          {
            "astId": 13236,
            "contract": "contracts/Options/PKKTHodlBoosterCallOption.sol:PKKTHodlBoosterCallOption",
            "label": "totalRound",
            "offset": 1,
            "slot": "3",
            "type": "t_uint232"
          },
          {
            "astId": 13238,
            "contract": "contracts/Options/PKKTHodlBoosterCallOption.sol:PKKTHodlBoosterCallOption",
            "label": "hasState",
            "offset": 30,
            "slot": "3",
            "type": "t_bool"
          },
          {
            "astId": 13240,
            "contract": "contracts/Options/PKKTHodlBoosterCallOption.sol:PKKTHodlBoosterCallOption",
            "label": "assetToTerminate",
            "offset": 0,
            "slot": "4",
            "type": "t_uint256"
          },
          {
            "astId": 13242,
            "contract": "contracts/Options/PKKTHodlBoosterCallOption.sol:PKKTHodlBoosterCallOption",
            "label": "assetToTerminateForNextRound",
            "offset": 0,
            "slot": "5",
            "type": "t_uint256"
          }
        ],
        "numberOfBytes": "192"
      },
      "t_uint16": {
        "encoding": "inplace",
        "label": "uint16",
        "numberOfBytes": "2"
      },
      "t_uint232": {
        "encoding": "inplace",
        "label": "uint232",
        "numberOfBytes": "29"
      },
      "t_uint256": {
        "encoding": "inplace",
        "label": "uint256",
        "numberOfBytes": "32"
      },
      "t_uint8": {
        "encoding": "inplace",
        "label": "uint8",
        "numberOfBytes": "1"
      }
    }
  }
}