{
  "address": "0x5c74c94173F05dA1720953407cbb920F3DF9f887",
  "abi": [
    {
      "anonymous": false,
      "inputs": [
        {
          "indexed": true,
          "internalType": "address",
          "name": "owner",
          "type": "address"
        },
        {
          "indexed": true,
          "internalType": "address",
          "name": "spender",
          "type": "address"
        },
        {
          "indexed": false,
          "internalType": "uint256",
          "name": "value",
          "type": "uint256"
        }
      ],
      "name": "Approval",
      "type": "event"
    },
    {
      "anonymous": false,
      "inputs": [
        {
          "indexed": true,
          "internalType": "uint256",
          "name": "round",
          "type": "uint256"
        }
      ],
      "name": "CloseOption",
      "type": "event"
    },
    {
      "anonymous": false,
      "inputs": [
        {
          "indexed": true,
          "internalType": "uint256",
          "name": "round",
          "type": "uint256"
        }
      ],
      "name": "CommitOption",
      "type": "event"
    },
    {
      "anonymous": false,
      "inputs": [
        {
          "indexed": true,
          "internalType": "address",
          "name": "from",
          "type": "address"
        },
        {
          "indexed": true,
          "internalType": "address",
          "name": "account",
          "type": "address"
        },
        {
          "indexed": true,
          "internalType": "uint256",
          "name": "round",
          "type": "uint256"
        },
        {
          "indexed": false,
          "internalType": "uint256",
          "name": "amount",
          "type": "uint256"
        },
        {
          "indexed": false,
          "internalType": "address",
          "name": "option",
          "type": "address"
        }
      ],
      "name": "Deposit",
      "type": "event"
    },
    {
      "anonymous": false,
      "inputs": [
        {
          "indexed": true,
          "internalType": "uint256",
          "name": "round",
          "type": "uint256"
        }
      ],
      "name": "OpenOption",
      "type": "event"
    },
    {
      "anonymous": false,
      "inputs": [
        {
          "indexed": true,
          "internalType": "address",
          "name": "option",
          "type": "address"
        },
        {
          "indexed": false,
          "internalType": "string",
          "name": "name",
          "type": "string"
        }
      ],
      "name": "OptionCreated",
      "type": "event"
    },
    {
      "anonymous": false,
      "inputs": [
        {
          "indexed": false,
          "internalType": "address",
          "name": "from",
          "type": "address"
        },
        {
          "indexed": false,
          "internalType": "address",
          "name": "to",
          "type": "address"
        },
        {
          "indexed": false,
          "internalType": "uint256",
          "name": "premium",
          "type": "uint256"
        },
        {
          "indexed": false,
          "internalType": "uint256",
          "name": "round",
          "type": "uint256"
        }
      ],
      "name": "OptionTransfer",
      "type": "event"
    },
    {
      "anonymous": false,
      "inputs": [
        {
          "indexed": true,
          "internalType": "address",
          "name": "previousOwner",
          "type": "address"
        },
        {
          "indexed": true,
          "internalType": "address",
          "name": "newOwner",
          "type": "address"
        }
      ],
      "name": "OwnershipTransferred",
      "type": "event"
    },
    {
      "anonymous": false,
      "inputs": [
        {
          "indexed": true,
          "internalType": "address",
          "name": "from",
          "type": "address"
        },
        {
          "indexed": true,
          "internalType": "address",
          "name": "to",
          "type": "address"
        },
        {
          "indexed": false,
          "internalType": "uint256",
          "name": "value",
          "type": "uint256"
        }
      ],
      "name": "Transfer",
      "type": "event"
    },
    {
      "anonymous": false,
      "inputs": [
        {
          "indexed": true,
          "internalType": "address",
          "name": "account",
          "type": "address"
        },
        {
          "indexed": true,
          "internalType": "address",
          "name": "asset",
          "type": "address"
        },
        {
          "indexed": false,
          "internalType": "uint256",
          "name": "amount",
          "type": "uint256"
        }
      ],
      "name": "Withdraw",
      "type": "event"
    },
    {
      "inputs": [],
      "name": "RATIOMULTIPLIER",
      "outputs": [
        {
          "internalType": "uint256",
          "name": "",
          "type": "uint256"
        }
      ],
      "stateMutability": "view",
      "type": "function"
    },
    {
      "inputs": [
        {
          "internalType": "address",
          "name": "owner",
          "type": "address"
        },
        {
          "internalType": "address",
          "name": "spender",
          "type": "address"
        }
      ],
      "name": "allowance",
      "outputs": [
        {
          "internalType": "uint256",
          "name": "",
          "type": "uint256"
        }
      ],
      "stateMutability": "view",
      "type": "function"
    },
    {
      "inputs": [
        {
          "internalType": "address",
          "name": "spender",
          "type": "address"
        },
        {
          "internalType": "uint256",
          "name": "amount",
          "type": "uint256"
        }
      ],
      "name": "approve",
      "outputs": [
        {
          "internalType": "bool",
          "name": "",
          "type": "bool"
        }
      ],
      "stateMutability": "nonpayable",
      "type": "function"
    },
    {
      "inputs": [
        {
          "internalType": "address",
          "name": "account",
          "type": "address"
        }
      ],
      "name": "balanceOf",
      "outputs": [
        {
          "internalType": "uint256",
          "name": "",
          "type": "uint256"
        }
      ],
      "stateMutability": "view",
      "type": "function"
    },
    {
      "inputs": [],
      "name": "callOrPut",
      "outputs": [
        {
          "internalType": "bool",
          "name": "",
          "type": "bool"
        }
      ],
      "stateMutability": "view",
      "type": "function"
    },
    {
      "inputs": [
        {
          "internalType": "uint256",
          "name": "_assetToTerminate",
          "type": "uint256"
        }
      ],
      "name": "cancelWithdraw",
      "outputs": [],
      "stateMutability": "nonpayable",
      "type": "function"
    },
    {
      "inputs": [
        {
          "internalType": "bool",
          "name": "_execute",
          "type": "bool"
        }
      ],
      "name": "closePrevious",
      "outputs": [],
      "stateMutability": "nonpayable",
      "type": "function"
    },
    {
      "inputs": [
        {
          "components": [
            {
              "internalType": "uint256",
              "name": "strikePrice",
              "type": "uint256"
            },
            {
              "internalType": "uint8",
              "name": "pricePrecision",
              "type": "uint8"
            },
            {
              "internalType": "uint16",
              "name": "premiumRate",
              "type": "uint16"
            }
          ],
          "internalType": "struct StructureData.OptionParameters",
          "name": "_optionParameters",
          "type": "tuple"
        }
      ],
      "name": "commitCurrent",
      "outputs": [],
      "stateMutability": "nonpayable",
      "type": "function"
    },
    {
      "inputs": [
        {
          "internalType": "uint256",
          "name": "_amount",
          "type": "uint256"
        },
        {
          "internalType": "address",
          "name": "_asset",
          "type": "address"
        }
      ],
      "name": "completeWithdraw",
      "outputs": [],
      "stateMutability": "nonpayable",
      "type": "function"
    },
    {
      "inputs": [],
      "name": "counterParty",
      "outputs": [
        {
          "internalType": "address",
          "name": "",
          "type": "address"
        }
      ],
      "stateMutability": "view",
      "type": "function"
    },
    {
      "inputs": [],
      "name": "counterPartyAsset",
      "outputs": [
        {
          "internalType": "address",
          "name": "",
          "type": "address"
        }
      ],
      "stateMutability": "view",
      "type": "function"
    },
    {
      "inputs": [],
      "name": "counterPartyOption",
      "outputs": [
        {
          "internalType": "contract IPKKTStructureOption",
          "name": "",
          "type": "address"
        }
      ],
      "stateMutability": "view",
      "type": "function"
    },
    {
      "inputs": [],
      "name": "currentRound",
      "outputs": [
        {
          "internalType": "uint256",
          "name": "",
          "type": "uint256"
        }
      ],
      "stateMutability": "view",
      "type": "function"
    },
    {
      "inputs": [],
      "name": "decimals",
      "outputs": [
        {
          "internalType": "uint8",
          "name": "",
          "type": "uint8"
        }
      ],
      "stateMutability": "view",
      "type": "function"
    },
    {
      "inputs": [
        {
          "internalType": "address",
          "name": "spender",
          "type": "address"
        },
        {
          "internalType": "uint256",
          "name": "subtractedValue",
          "type": "uint256"
        }
      ],
      "name": "decreaseAllowance",
      "outputs": [
        {
          "internalType": "bool",
          "name": "",
          "type": "bool"
        }
      ],
      "stateMutability": "nonpayable",
      "type": "function"
    },
    {
      "inputs": [
        {
          "internalType": "uint256",
          "name": "_amount",
          "type": "uint256"
        }
      ],
      "name": "deposit",
      "outputs": [],
      "stateMutability": "nonpayable",
      "type": "function"
    },
    {
      "inputs": [],
      "name": "depositAsset",
      "outputs": [
        {
          "internalType": "address",
          "name": "",
          "type": "address"
        }
      ],
      "stateMutability": "view",
      "type": "function"
    },
    {
      "inputs": [],
      "name": "depositETH",
      "outputs": [],
      "stateMutability": "payable",
      "type": "function"
    },
    {
      "inputs": [
        {
          "internalType": "address[]",
          "name": "addresses",
          "type": "address[]"
        },
        {
          "internalType": "uint256[]",
          "name": "_amounts",
          "type": "uint256[]"
        }
      ],
      "name": "depositFromCounterParty",
      "outputs": [],
      "stateMutability": "nonpayable",
      "type": "function"
    },
    {
      "inputs": [],
      "name": "getAccountBalance",
      "outputs": [
        {
          "components": [
            {
              "internalType": "uint256",
              "name": "pendingDepositAssetAmount",
              "type": "uint256"
            },
            {
              "internalType": "uint256",
              "name": "lockedDepositAssetAmount",
              "type": "uint256"
            },
            {
              "internalType": "uint256",
              "name": "ongoingDepositAssetAmount",
              "type": "uint256"
            },
            {
              "internalType": "uint256",
              "name": "maturedDepositAssetAmount",
              "type": "uint256"
            },
            {
              "internalType": "uint256",
              "name": "maturedCounterPartyAssetAmount",
              "type": "uint256"
            }
          ],
          "internalType": "struct StructureData.UserBalance",
          "name": "",
          "type": "tuple"
        }
      ],
      "stateMutability": "view",
      "type": "function"
    },
    {
      "inputs": [],
      "name": "getOptionSnapShot",
      "outputs": [
        {
          "components": [
            {
              "internalType": "uint256",
              "name": "totalPending",
              "type": "uint256"
            },
            {
              "internalType": "uint256",
              "name": "totalLocked",
              "type": "uint256"
            },
            {
              "internalType": "uint256",
              "name": "totalOngoing",
              "type": "uint256"
            },
            {
              "internalType": "uint256",
              "name": "totalMaturedDeposit",
              "type": "uint256"
            },
            {
              "internalType": "uint256",
              "name": "totalMaturedCounterParty",
              "type": "uint256"
            }
          ],
          "internalType": "struct StructureData.OptionSnapshot",
          "name": "",
          "type": "tuple"
        }
      ],
      "stateMutability": "view",
      "type": "function"
    },
    {
      "inputs": [
        {
          "internalType": "uint256",
          "name": "_blockHeight",
          "type": "uint256"
        }
      ],
      "name": "getRoundData",
      "outputs": [
        {
          "components": [
            {
              "internalType": "uint256",
              "name": "round",
              "type": "uint256"
            },
            {
              "internalType": "uint256",
              "name": "totalAmount",
              "type": "uint256"
            },
            {
              "internalType": "uint256",
              "name": "strikePrice",
              "type": "uint256"
            },
            {
              "internalType": "uint16",
              "name": "premiumRate",
              "type": "uint16"
            },
            {
              "internalType": "uint8",
              "name": "pricePrecision",
              "type": "uint8"
            },
            {
              "internalType": "bool",
              "name": "executed",
              "type": "bool"
            },
            {
              "internalType": "bool",
              "name": "callOrPut",
              "type": "bool"
            }
          ],
          "internalType": "struct StructureData.OptionState",
          "name": "",
          "type": "tuple"
        }
      ],
      "stateMutability": "view",
      "type": "function"
    },
    {
      "inputs": [
        {
          "internalType": "address",
          "name": "spender",
          "type": "address"
        },
        {
          "internalType": "uint256",
          "name": "addedValue",
          "type": "uint256"
        }
      ],
      "name": "increaseAllowance",
      "outputs": [
        {
          "internalType": "bool",
          "name": "",
          "type": "bool"
        }
      ],
      "stateMutability": "nonpayable",
      "type": "function"
    },
    {
      "inputs": [
        {
          "internalType": "string",
          "name": "name",
          "type": "string"
        },
        {
          "internalType": "string",
          "name": "symbol",
          "type": "string"
        },
        {
          "internalType": "address",
          "name": "_underlying",
          "type": "address"
        },
        {
          "internalType": "address",
          "name": "_stableCoin",
          "type": "address"
        },
        {
          "internalType": "uint8",
          "name": "_underlyingDecimals",
          "type": "uint8"
        },
        {
          "internalType": "uint8",
          "name": "_stableCoinDecimals",
          "type": "uint8"
        },
        {
          "internalType": "address",
          "name": "_vaultAddress",
          "type": "address"
        }
      ],
      "name": "initialize",
      "outputs": [],
      "stateMutability": "nonpayable",
      "type": "function"
    },
    {
      "inputs": [
        {
          "internalType": "uint256",
          "name": "_assetToTerminate",
          "type": "uint256"
        }
      ],
      "name": "initiateWithraw",
      "outputs": [],
      "stateMutability": "nonpayable",
      "type": "function"
    },
    {
      "inputs": [],
      "name": "isEth",
      "outputs": [
        {
          "internalType": "bool",
          "name": "",
          "type": "bool"
        }
      ],
      "stateMutability": "view",
      "type": "function"
    },
    {
      "inputs": [],
      "name": "maxCancelWithdraw",
      "outputs": [],
      "stateMutability": "nonpayable",
      "type": "function"
    },
    {
      "inputs": [],
      "name": "maxInitiateWithdraw",
      "outputs": [],
      "stateMutability": "nonpayable",
      "type": "function"
    },
    {
      "inputs": [],
      "name": "name",
      "outputs": [
        {
          "internalType": "string",
          "name": "",
          "type": "string"
        }
      ],
      "stateMutability": "view",
      "type": "function"
    },
    {
      "inputs": [
        {
          "internalType": "uint256",
          "name": "",
          "type": "uint256"
        }
      ],
      "name": "optionHeights",
      "outputs": [
        {
          "internalType": "uint256",
          "name": "",
          "type": "uint256"
        }
      ],
      "stateMutability": "view",
      "type": "function"
    },
    {
      "inputs": [
        {
          "internalType": "uint256",
          "name": "",
          "type": "uint256"
        }
      ],
      "name": "optionStates",
      "outputs": [
        {
          "internalType": "uint256",
          "name": "round",
          "type": "uint256"
        },
        {
          "internalType": "uint256",
          "name": "totalAmount",
          "type": "uint256"
        },
        {
          "internalType": "uint256",
          "name": "strikePrice",
          "type": "uint256"
        },
        {
          "internalType": "uint16",
          "name": "premiumRate",
          "type": "uint16"
        },
        {
          "internalType": "uint8",
          "name": "pricePrecision",
          "type": "uint8"
        },
        {
          "internalType": "bool",
          "name": "executed",
          "type": "bool"
        },
        {
          "internalType": "bool",
          "name": "callOrPut",
          "type": "bool"
        }
      ],
      "stateMutability": "view",
      "type": "function"
    },
    {
      "inputs": [],
      "name": "optionVault",
      "outputs": [
        {
          "internalType": "contract IOptionVault",
          "name": "",
          "type": "address"
        }
      ],
      "stateMutability": "view",
      "type": "function"
    },
    {
      "inputs": [],
      "name": "owner",
      "outputs": [
        {
          "internalType": "address",
          "name": "",
          "type": "address"
        }
      ],
      "stateMutability": "view",
      "type": "function"
    },
    {
      "inputs": [
        {
          "internalType": "uint256",
          "name": "_amount",
          "type": "uint256"
        }
      ],
      "name": "redeem",
      "outputs": [],
      "stateMutability": "nonpayable",
      "type": "function"
    },
    {
      "inputs": [
        {
          "internalType": "uint256",
          "name": "_amount",
          "type": "uint256"
        }
      ],
      "name": "redeposit",
      "outputs": [],
      "stateMutability": "nonpayable",
      "type": "function"
    },
    {
      "inputs": [
        {
          "internalType": "uint256",
          "name": "_amount",
          "type": "uint256"
        }
      ],
      "name": "redepositToCounterParty",
      "outputs": [],
      "stateMutability": "nonpayable",
      "type": "function"
    },
    {
      "inputs": [],
      "name": "renounceOwnership",
      "outputs": [],
      "stateMutability": "nonpayable",
      "type": "function"
    },
    {
      "inputs": [
        {
          "internalType": "uint256",
          "name": "_quota",
          "type": "uint256"
        }
      ],
      "name": "rollToNext",
      "outputs": [],
      "stateMutability": "nonpayable",
      "type": "function"
    },
    {
      "inputs": [
        {
          "internalType": "address",
          "name": "_counterParty",
          "type": "address"
        }
      ],
      "name": "setCounterPartyOption",
      "outputs": [],
      "stateMutability": "nonpayable",
      "type": "function"
    },
    {
      "inputs": [],
      "name": "symbol",
      "outputs": [
        {
          "internalType": "string",
          "name": "",
          "type": "string"
        }
      ],
      "stateMutability": "view",
      "type": "function"
    },
    {
      "inputs": [],
      "name": "totalMaturedCounterPartyAssetAmount",
      "outputs": [
        {
          "internalType": "uint256",
          "name": "",
          "type": "uint256"
        }
      ],
      "stateMutability": "view",
      "type": "function"
    },
    {
      "inputs": [],
      "name": "totalMaturedDepositAssetAmount",
      "outputs": [
        {
          "internalType": "uint256",
          "name": "",
          "type": "uint256"
        }
      ],
      "stateMutability": "view",
      "type": "function"
    },
    {
      "inputs": [],
      "name": "totalSupply",
      "outputs": [
        {
          "internalType": "uint256",
          "name": "",
          "type": "uint256"
        }
      ],
      "stateMutability": "view",
      "type": "function"
    },
    {
      "inputs": [
        {
          "internalType": "address",
          "name": "recipient",
          "type": "address"
        },
        {
          "internalType": "uint256",
          "name": "amount",
          "type": "uint256"
        }
      ],
      "name": "transfer",
      "outputs": [
        {
          "internalType": "bool",
          "name": "",
          "type": "bool"
        }
      ],
      "stateMutability": "nonpayable",
      "type": "function"
    },
    {
      "inputs": [
        {
          "internalType": "address",
          "name": "sender",
          "type": "address"
        },
        {
          "internalType": "address",
          "name": "recipient",
          "type": "address"
        },
        {
          "internalType": "uint256",
          "name": "amount",
          "type": "uint256"
        }
      ],
      "name": "transferFrom",
      "outputs": [
        {
          "internalType": "bool",
          "name": "",
          "type": "bool"
        }
      ],
      "stateMutability": "nonpayable",
      "type": "function"
    },
    {
      "inputs": [
        {
          "internalType": "address",
          "name": "newOwner",
          "type": "address"
        }
      ],
      "name": "transferOwnership",
      "outputs": [],
      "stateMutability": "nonpayable",
      "type": "function"
    },
    {
      "inputs": [],
      "name": "underSettlement",
      "outputs": [
        {
          "internalType": "bool",
          "name": "",
          "type": "bool"
        }
      ],
      "stateMutability": "view",
      "type": "function"
    },
    {
      "inputs": [
        {
          "internalType": "address",
          "name": "",
          "type": "address"
        }
      ],
      "name": "userStates",
      "outputs": [
        {
          "internalType": "uint256",
          "name": "pendingAsset",
          "type": "uint256"
        },
        {
          "internalType": "uint256",
          "name": "lockedAsset",
          "type": "uint256"
        },
        {
          "internalType": "uint8",
          "name": "nextCursor",
          "type": "uint8"
        },
        {
          "internalType": "uint232",
          "name": "totalRound",
          "type": "uint232"
        },
        {
          "internalType": "bool",
          "name": "hasState",
          "type": "bool"
        },
        {
          "internalType": "uint256",
          "name": "assetToTerminate",
          "type": "uint256"
        },
        {
          "internalType": "uint256",
          "name": "assetToTerminateForNextRound",
          "type": "uint256"
        }
      ],
      "stateMutability": "view",
      "type": "function"
    },
    {
      "inputs": [
        {
          "internalType": "uint256",
          "name": "",
          "type": "uint256"
        }
      ],
      "name": "usersInvolved",
      "outputs": [
        {
          "internalType": "address",
          "name": "",
          "type": "address"
        }
      ],
      "stateMutability": "view",
      "type": "function"
    },
    {
      "inputs": [],
      "name": "vaultAddress",
      "outputs": [
        {
          "internalType": "address",
          "name": "",
          "type": "address"
        }
      ],
      "stateMutability": "view",
      "type": "function"
    },
    {
      "inputs": [
        {
          "internalType": "uint256",
          "name": "_amount",
          "type": "uint256"
        },
        {
          "internalType": "address",
          "name": "_asset",
          "type": "address"
        }
      ],
      "name": "withdraw",
      "outputs": [],
      "stateMutability": "nonpayable",
      "type": "function"
    }
  ],
  "transactionHash": "0x42970d4426861de56ccbeed209b2b68b0360c48adde7dc9f48ff8734e3f7f383",
  "args": [],
  "solcInputHash": "6269986a1671df6734f8a3f93df8d0ab",
  "bytecode": "0x608060405234801561001057600080fd5b506146c4806100206000396000f3fe6080604052600436106102e35760003560e01c806370349bfb11610190578063a457c2d7116100dc578063ccc41f2411610095578063e5d455ce1161006f578063e5d455ce14610b0a578063eef9f5a514610b2a578063f2fde38b14610b50578063f6326fb314610b7057600080fd5b8063ccc41f2414610a7e578063db006a7514610aa4578063dd62ed3e14610ac457600080fd5b8063a457c2d7146109b1578063a5d3e5b1146109d1578063a9059cbb146109fe578063b6b55f2514610a1e578063bb9662c814610a3e578063c515d7e714610a5e57600080fd5b80638da5cb5b1161014957806395d89b411161012357806395d89b411461093c5780639e4cbd7d146109515780639f01f7ba14610971578063a2589ef91461099157600080fd5b80638da5cb5b146108ea578063902025391461090857806392b4d26a1461092757600080fd5b806370349bfb1461083e57806370a0823114610853578063715018a61461088957806376e7a4781461089e5780638a19c8bc146108b45780638cd89359146108ca57600080fd5b806321c9445c1161024f578063511db114116102085780635973ff3a116101e25780635973ff3a14610741578063640575721461076157806365235474146107765780636896fabf1461081c57600080fd5b8063511db114146106f457806355839d941461071557806356786bfd1461072b57600080fd5b806321c9445c1461063d57806323b872dd1461065d5780632c453bdf1461067d578063313ce5671461069d57806339509351146106bf578063430bf08a146106df57600080fd5b80630ecc535f116102a15780630ecc535f146104d857806311c8556d14610586578063161f50b0146105be57806318160ddd146105de578063186a4a17146105fd5780631de245af1461061d57600080fd5b8062f714ce146102e857806306fdde031461030a5780630720da52146103355780630748248f1461046e578063095ea7b3146104985780630e777b4b146104b8575b600080fd5b3480156102f457600080fd5b5061030861030336600461402a565b610b78565b005b34801561031657600080fd5b5061031f610e1c565b60405161032c91906140e0565b60405180910390f35b34801561034157600080fd5b5061040d610350366004614012565b6040805160e081018252600080825260208201819052918101829052606081018290526080810182905260a0810182905260c0810191909152506000908152609b60209081526040808320548352609c825291829020825160e0810184528154815260018201549281019290925260028101549282019290925260039091015461ffff8116606083015260ff62010000820481166080840152630100000082048116151560a084015264010000000090910416151560c082015290565b60405161032c9190600060e08201905082518252602083015160208301526040830151604083015261ffff606084015116606083015260ff608084015116608083015260a0830151151560a083015260c0830151151560c083015292915050565b34801561047a57600080fd5b50609f546104889060ff1681565b604051901515815260200161032c565b3480156104a457600080fd5b506104886104b3366004613dc4565b610eae565b3480156104c457600080fd5b506103086104d3366004614012565b610ec5565b3480156104e457600080fd5b5061053f6104f3366004613d14565b609e60205260009081526040902080546001820154600383015460048401546005909401549293919260ff808316936001600160e81b0361010085041693600160f01b90049091169187565b60408051978852602088019690965260ff909416948601949094526001600160e81b0390911660608501521515608084015260a083019190915260c082015260e00161032c565b34801561059257600080fd5b5060a1546105a6906001600160a01b031681565b6040516001600160a01b03909116815260200161032c565b3480156105ca57600080fd5b506103086105d9366004613fa6565b610fb4565b3480156105ea57600080fd5b506035545b60405190815260200161032c565b34801561060957600080fd5b50610308610618366004613eb2565b6112ac565b34801561062957600080fd5b506105a6610638366004614012565b6114c8565b34801561064957600080fd5b5061030861065836600461402a565b6114f2565b34801561066957600080fd5b50610488610678366004613d84565b6116f2565b34801561068957600080fd5b5060a0546105a6906001600160a01b031681565b3480156106a957600080fd5b5060975460405160ff909116815260200161032c565b3480156106cb57600080fd5b506104886106da366004613dc4565b61179e565b3480156106eb57600080fd5b506105a66117da565b34801561070057600080fd5b5060985461048890600160a01b900460ff1681565b34801561072157600080fd5b506105ef60a25481565b34801561073757600080fd5b506105ef60a35481565b34801561074d57600080fd5b5061030861075c366004613def565b61185c565b34801561076d57600080fd5b506103086118fb565b34801561078257600080fd5b506107dd610791366004614012565b609c6020526000908152604090208054600182015460028301546003909301549192909161ffff81169060ff620100008204811691630100000081048216916401000000009091041687565b6040805197885260208801969096529486019390935261ffff909116606085015260ff166080840152151560a0830152151560c082015260e00161032c565b34801561082857600080fd5b50610831611934565b60405161032c9190614258565b34801561084a57600080fd5b506103086119cd565b34801561085f57600080fd5b506105ef61086e366004613d14565b6001600160a01b031660009081526033602052604090205490565b34801561089557600080fd5b506103086119fa565b3480156108aa57600080fd5b506105ef61271081565b3480156108c057600080fd5b506105ef609a5481565b3480156108d657600080fd5b506103086108e5366004614012565b611a30565b3480156108f657600080fd5b506065546001600160a01b03166105a6565b34801561091457600080fd5b50609f5461048890610100900460ff1681565b34801561093357600080fd5b50610831611bf7565b34801561094857600080fd5b5061031f611cff565b34801561095d57600080fd5b5061030861096c366004614012565b611d0e565b34801561097d57600080fd5b5061030861098c366004614012565b611ee3565b34801561099d57600080fd5b506103086109ac366004614012565b611fb9565b3480156109bd57600080fd5b506104886109cc366004613dc4565b612057565b3480156109dd57600080fd5b506105ef6109ec366004614012565b609b6020526000908152604090205481565b348015610a0a57600080fd5b50610488610a19366004613dc4565b6120f0565b348015610a2a57600080fd5b50610308610a39366004614012565b6120fd565b348015610a4a57600080fd5b506098546105a6906001600160a01b031681565b348015610a6a57600080fd5b50610308610a79366004613d14565b6121d0565b348015610a8a57600080fd5b506097546105a6906201000090046001600160a01b031681565b348015610ab057600080fd5b50610308610abf366004614012565b612264565b348015610ad057600080fd5b506105ef610adf366004613d4c565b6001600160a01b03918216600090815260346020908152604080832093909416825291909152205490565b348015610b1657600080fd5b50610308610b25366004613eea565b6123aa565b348015610b3657600080fd5b50609f546105a6906201000090046001600160a01b031681565b348015610b5c57600080fd5b50610308610b6b366004613d14565b61242d565b6103086124c5565b60008211610ba15760405162461bcd60e51b8152600401610b989061420d565b60405180910390fd5b609f5460ff1615610bc45760405162461bcd60e51b8152600401610b989061413e565b6097546001600160a01b0382811662010000909204161480610bf357506098546001600160a01b038281169116145b610c375760405162461bcd60e51b8152602060048201526015602482015274496e76616c6964206173736574206164647265737360581b6044820152606401610b98565b6097546001600160a01b0382811662010000909204161415610d205733600090815260a46020526040902054828111610cff57336000908152609e60205260409020610c8384836125ca565b81541015610ca35760405162461bcd60e51b8152600401610b9890614113565b33600090815260a46020526040812055610cc8610cc085846125ca565b8254906125ca565b8155609a546000908152609c60205260409020610cf3610ce886856125ca565b6001830154906125ca565b60019091015550610d1a565b610d0981846125ca565b33600090815260a460205260409020555b50610d6c565b33600090815260a5602052604090205482811015610d505760405162461bcd60e51b8152600401610b989061422e565b610d5a81846125ca565b33600090815260a56020526040902055505b60a154604051631a4ca37b60e21b8152336004820152602481018490526001600160a01b038381166044830152909116906369328dec90606401600060405180830381600087803b158015610dc057600080fd5b505af1158015610dd4573d6000803e3d6000fd5b50506040518481526001600160a01b03841692503391507f9b1bfa7fa9ee420a16e124f794c35ac9f90472acc99140eb2f6447c714cad8eb9060200160405180910390a35050565b606060368054610e2b906145e9565b80601f0160208091040260200160405190810160405280929190818152602001828054610e57906145e9565b8015610ea45780601f10610e7957610100808354040283529160200191610ea4565b820191906000526020600020905b815481529060010190602001808311610e8757829003601f168201915b5050505050905090565b6000610ebb3384846125d6565b5060015b92915050565b60008111610f0a5760405162461bcd60e51b8152602060048201526012602482015271215f6173736574546f5465726d696e61746560701b6044820152606401610b98565b336000908152609e60205260409020600181015415610f67576005810154600090610f3590846126f2565b600183015490915080821115610f5d5760405162461bcd60e51b8152600401610b9890614113565b5060058201555050565b6004810154600090610f7990846126f2565b90506000610f8783826126fe565b905080821115610fa95760405162461bcd60e51b8152600401610b9890614113565b5060048201555b5050565b6065546001600160a01b03163314610fde5760405162461bcd60e51b8152600401610b98906141d8565b6001609a5411610ff557609f805460ff1916905550565b6002609a541115801561100b5750609f5460ff16155b1561101e57609f805460ff191660011790555b609f5460ff166110645760405162461bcd60e51b8152602060048201526011602482015270139bdd0818995a5b99c81cd95d1d1b1959607a1b6044820152606401610b98565b60006001609a546110759190614583565b6000818152609c60205260409081902060a15460975460985493516307653fb360e01b815294955091936001600160a01b03918216936307653fb3936110cb938793620100009092048116921690600401614291565b600060405180830381600087803b1580156110e557600080fd5b505af11580156110f9573d6000803e3d6000fd5b50508451600284015550506040830151600382018054602086015160ff16620100000262ffffff1990911661ffff9093169290921791909117905560018101546111449030906127a5565b609d5460005b81811015611261576000609d828154811061117557634e487b7160e01b600052603260045260246000fd5b60009182526020808320909101546001600160a01b0316808352609e909152604090912060018101549192509015611210576111b630838360010154612884565b60038501548554604080513081526001600160a01b038616602082015261ffff9093169083015260608201527fe32540b403abb4ebf4396862a5996e4798b57d9312e048b14b0e0e5e3fb9eaeb9060800160405180910390a15b60058101541561122e57600581018054600483015560009055611236565b600060048201555b6001810154611246908290612a52565b6000600190910155508061125981614624565b91505061114a565b50436000908152609b60205260408082208590555184917ffa513f17b83baf0c2da337ab931a96429f75c55f0ee2115b7acd007a1a35dd5191a25050609f805460ff19169055505b50565b6065546001600160a01b031633146112d65760405162461bcd60e51b8152600401610b98906141d8565b609f5460ff16156112f95760405162461bcd60e51b8152600401610b989061413e565b609f805460ff1916600190811790915561131390806143f0565b60ff16609a54116113215750565b600060018060ff16609a546113369190614583565b6113409190614583565b6000818152609c60209081526040808320815160e08101835281548152600182015493810193909352600281015491830191909152600381015461ffff8116606084015260ff62010000820481166080850152630100000082048116151560a085015264010000000090910416151560c08301529293506113c2908590612b06565b60a1546097546098546040805163193ef4d360e01b815285516004820152602086015160248201529085015115156044820152606085015160648201526001600160a01b03620100009093048316608482015290821660a4820152929350169063193ef4d39060c401600060405180830381600087803b15801561144557600080fd5b505af1158015611459573d6000803e3d6000fd5b505050604082015160038401805491151563010000000263ff0000001990921691909117905550600182015415611497576114978160400151612d72565b60405183907f5fd55b58a9ef8c29a9db39dd9a05dec64993eb227ad0177941238778e9ea896290600090a250505050565b609d81815481106114d857600080fd5b6000918252602090912001546001600160a01b0316905081565b600082116115125760405162461bcd60e51b8152600401610b989061420d565b609f5460ff16156115355760405162461bcd60e51b8152600401610b989061413e565b6001609a54116115575760405162461bcd60e51b8152600401610b98906141b3565b6097546001600160a01b038281166201000090920416148061158657506098546001600160a01b038281169116145b6115ca5760405162461bcd60e51b8152602060048201526015602482015274496e76616c6964206173736574206164647265737360581b6044820152606401610b98565b6097546001600160a01b03828116620100009092041614156116365733600090815260a46020526040902054828110156116165760405162461bcd60e51b8152600401610b989061422e565b61162081846125ca565b33600090815260a4602052604090205550611682565b33600090815260a56020526040902054828110156116665760405162461bcd60e51b8152600401610b989061422e565b61167081846125ca565b33600090815260a56020526040902055505b60a154604051631a4ca37b60e21b8152336004820152602481018490526001600160a01b038381166044830152909116906369328dec90606401600060405180830381600087803b1580156116d657600080fd5b505af11580156116ea573d6000803e3d6000fd5b505050505050565b60006116ff848484612884565b6001600160a01b0384166000908152603460209081526040808320338452909152902054828110156117845760405162461bcd60e51b815260206004820152602860248201527f45524332303a207472616e7366657220616d6f756e74206578636565647320616044820152676c6c6f77616e636560c01b6064820152608401610b98565b61179185338584036125d6565b60019150505b9392505050565b3360008181526034602090815260408083206001600160a01b03871684529091528120549091610ebb9185906117d59086906143d8565b6125d6565b60a154604080516338cc483160e01b815290516000926001600160a01b0316916338cc4831916004808301926020929190829003018186803b15801561181f57600080fd5b505afa158015611833573d6000803e3d6000fd5b505050506040513d601f19601f820116820180604052508101906118579190613d30565b905090565b60a0546001600160a01b031633146118cc5760405162461bcd60e51b815260206004820152602d60248201527f4f6e6c7920636f756e7465727061727479206f7074696f6e2063616e2063616c60448201526c1b081d1a1a5cc81b595d1a1bd9609a1b6064820152608401610b98565b609f5460009060ff166118e157609a546118f0565b6001609a546118f09190614583565b905060005b50505050565b336000908152609e60205260409020600181015415611921576001810154600582015550565b61192c8160006126fe565b600482015550565b6119666040518060a0016040528060008152602001600081526020016000815260200160008152602001600081525090565b336000908152609e60209081526040808320815160a08101835281548152600182015493810193909352929190810161199f84846126fe565b815233600081815260a460209081526040808320548286015292825260a59052819020549101529392505050565b336000908152609e602052604090206001810154156119f0576000600582015550565b6000600482015550565b6065546001600160a01b03163314611a245760405162461bcd60e51b8152600401610b98906141d8565b611a2e6000613437565b565b6065546001600160a01b03163314611a5a5760405162461bcd60e51b8152600401610b98906141d8565b609d5460005b81811015611ad9576000609d8281548110611a8b57634e487b7160e01b600052603260045260246000fd5b60009182526020808320909101546001600160a01b0316808352609e909152604090912080549192509015611ac257805460018201555b600090555080611ad181614624565b915050611a60565b5060998290556040805160e081018252609a54808252600060208301819052928201839052606082018390526080820183905260a0820192909252609f54610100900460ff16151560c082015290611b329060016143d8565b609a8181556000918252609c6020908152604080842085518155918501516001830155808501516002830155606085015160039092018054608087015160a088015160c089015115156401000000000264ff00000000199115156301000000029190911664ffff0000001960ff909316620100000262ffffff1990941661ffff90971696909617929092171693909317929092179091559054905190917f10f419fb017d3101d854d4433e414ff27f232bb2f4aae83d987ad0219efa6c9b91a2505050565b611c296040518060a0016040528060008152602001600081526020016000815260200160008152602001600081525090565b609a546000908152609c602081905260408220609f5490929190829060ff16611c5457609a54611c63565b6001609a54611c639190614583565b815260208101919091526040016000908120609f54909250609c90829060ff16611c9b576001609a54611c969190614583565b611caa565b6002609a54611caa9190614583565b8152602001908152602001600020905060006040518060a0016040528085600101548152602001846001015481526020018360010154815260200160a254815260200160a35481525090508094505050505090565b606060378054610e2b906145e9565b609f5460ff1615611d315760405162461bcd60e51b8152600401610b989061413e565b6001609a5411611d535760405162461bcd60e51b8152600401610b98906141b3565b60008111611d735760405162461bcd60e51b8152600401610b989061420d565b33600090815260a5602052604090205481811015611da35760405162461bcd60e51b8152600401610b989061422e565b611dad81836125ca565b33600090815260a560205260408082209290925581516001808252818401909352909181602001602082028036833750506040805160018082528183019092529293506000929150602080830190803683370190505090503382600081518110611e2757634e487b7160e01b600052603260045260246000fd5b60200260200101906001600160a01b031690816001600160a01b0316815250508381600081518110611e6957634e487b7160e01b600052603260045260246000fd5b6020908102919091010152609f54604051632cb9ff9d60e11b8152620100009091046001600160a01b031690635973ff3a90611eab908590859060040161406a565b600060405180830381600087803b158015611ec557600080fd5b505af1158015611ed9573d6000803e3d6000fd5b5050505050505050565b60008111611f285760405162461bcd60e51b8152602060048201526012602482015271215f6173736574546f5465726d696e61746560701b6044820152606401610b98565b336000908152609e60205260409020600181015415611f7d578060050154821115611f655760405162461bcd60e51b8152600401610b989061422e565b6005810154611f7490836125ca565b60058201555050565b8060040154821115611fa15760405162461bcd60e51b8152600401610b989061422e565b6004810154611fb090836125ca565b60048201555050565b6001609a5411611fdb5760405162461bcd60e51b8152600401610b98906141b3565b60008111611ffb5760405162461bcd60e51b8152600401610b989061420d565b33600090815260a460205260409020548181101561202b5760405162461bcd60e51b8152600401610b989061422e565b61203581836125ca565b33600081815260a46020526040902091909155609a54610fb0919084906132d5565b3360009081526034602090815260408083206001600160a01b0386168452909152812054828110156120d95760405162461bcd60e51b815260206004820152602560248201527f45524332303a2064656372656173656420616c6c6f77616e63652062656c6f77604482015264207a65726f60d81b6064820152608401610b98565b6120e633858584036125d6565b5060019392505050565b6000610ebb338484612884565b6000609a541161213a5760405162461bcd60e51b81526020600482015260086024820152670854dd185c9d195960c21b6044820152606401610b98565b609854600160a01b900460ff161561217d5760405162461bcd60e51b815260206004820152600660248201526502145524332360d41b6044820152606401610b98565b6000811161219d5760405162461bcd60e51b8152600401610b989061420d565b6121aa3382609a546132d5565b6112a9336121b66117da565b6097546201000090046001600160a01b0316919084613489565b6001600160a01b0381163014156122295760405162461bcd60e51b815260206004820181905260248201527f43616e6e6f74207365742073656c6620617320636f756e7465722070617274796044820152606401610b98565b609f805462010000600160b01b031916620100006001600160a01b039390931692830217905560a080546001600160a01b0319169091179055565b600081116122845760405162461bcd60e51b8152600401610b989061420d565b336000908152609e6020526040902080548211156122b45760405162461bcd60e51b8152600401610b9890614113565b80546122c090836125ca565b8155609a546000908152609c6020526040902060018101546122e290846125ca565b600182015560a154609754604051631a4ca37b60e21b8152336004820152602481018690526001600160a01b0362010000909204821660448201529116906369328dec90606401600060405180830381600087803b15801561234357600080fd5b505af1158015612357573d6000803e3d6000fd5b5050609754604051868152620100009091046001600160a01b031692503391507f9b1bfa7fa9ee420a16e124f794c35ac9f90472acc99140eb2f6447c714cad8eb906020015b60405180910390a3505050565b600054610100900460ff16806123c3575060005460ff16155b6123df5760405162461bcd60e51b8152600401610b9890614165565b600054610100900460ff16158015612401576000805461ffff19166101011790555b6124128888878987898860016134e3565b8015611ed9576000805461ff00191690555050505050505050565b6065546001600160a01b031633146124575760405162461bcd60e51b8152600401610b98906141d8565b6001600160a01b0381166124bc5760405162461bcd60e51b815260206004820152602660248201527f4f776e61626c653a206e6577206f776e657220697320746865207a65726f206160448201526564647265737360d01b6064820152608401610b98565b6112a981613437565b6000609a54116125025760405162461bcd60e51b81526020600482015260086024820152670854dd185c9d195960c21b6044820152606401610b98565b609854600160a01b900460ff166125445760405162461bcd60e51b8152600401610b98906020808252600490820152630428aa8960e31b604082015260600190565b6000341161257d5760405162461bcd60e51b81526020600482015260066024820152652176616c756560d01b6044820152606401610b98565b61258a3334609a546132d5565b6125926117da565b6001600160a01b03166108fc349081150290604051600060405180830381858888f193505050501580156112a9573d6000803e3d6000fd5b60006117978284614583565b6001600160a01b0383166126385760405162461bcd60e51b8152602060048201526024808201527f45524332303a20617070726f76652066726f6d20746865207a65726f206164646044820152637265737360e01b6064820152608401610b98565b6001600160a01b0382166126995760405162461bcd60e51b815260206004820152602260248201527f45524332303a20617070726f766520746f20746865207a65726f206164647265604482015261737360f01b6064820152608401610b98565b6001600160a01b0383811660008181526034602090815260408083209487168084529482529182902085905590518481527f8c5be1e5ebec7d5bd14f71427d1e84f3dd0314c0f7b2291e5b200ac8c7c3b925910161239d565b600061179782846143d8565b600382015460009060ff83166101009091046001600160e81b03161161272657506000610ebf565b600160ff83161061273657600080fd5b600383015460009060019061274f90859060ff16614542565b6127599190614542565b905060008160000b12156127755761277260018261436d565b90505b836002018160ff166001811061279b57634e487b7160e01b600052603260045260246000fd5b0154949350505050565b6001600160a01b0382166127fb5760405162461bcd60e51b815260206004820152601f60248201527f45524332303a206d696e7420746f20746865207a65726f2061646472657373006044820152606401610b98565b806035600082825461280d91906143d8565b90915550506001600160a01b0382166000908152603360205260408120805483929061283a9084906143d8565b90915550506040518181526001600160a01b038316906000907fddf252ad1be2c89b69c2b068fc378daa952ba7f163c4a11628f55a4df523b3ef9060200160405180910390a35050565b6001600160a01b0383166128e85760405162461bcd60e51b815260206004820152602560248201527f45524332303a207472616e736665722066726f6d20746865207a65726f206164604482015264647265737360d81b6064820152608401610b98565b6001600160a01b03821661294a5760405162461bcd60e51b815260206004820152602360248201527f45524332303a207472616e7366657220746f20746865207a65726f206164647260448201526265737360e81b6064820152608401610b98565b6001600160a01b038316600090815260336020526040902054818110156129c25760405162461bcd60e51b815260206004820152602660248201527f45524332303a207472616e7366657220616d6f756e7420657863656564732062604482015265616c616e636560d01b6064820152608401610b98565b6001600160a01b038085166000908152603360205260408082208585039055918516815290812080548492906129f99084906143d8565b92505081905550826001600160a01b0316846001600160a01b03167fddf252ad1be2c89b69c2b068fc378daa952ba7f163c4a11628f55a4df523b3ef84604051612a4591815260200190565b60405180910390a36118f5565b600382015460ff1681600284018260018110612a7e57634e487b7160e01b600052603260045260246000fd5b01556000612a8d60018061459a565b60ff168214612aa657612aa18260016143d8565b612aa9565b60005b60038501805460ff191660ff83161790819055909150612ad89061010090046001600160e81b031660016143ad565b8460030160016101000a8154816001600160e81b0302191690836001600160e81b0316021790555050505050565b612b3360405180608001604052806000815260200160008152602001600015158152602001600081525090565b6000604051806080016040528060008152602001600081526020018515158152602001846000015181525090506000612b7f846060015161ffff166127106126f290919063ffffffff16565b90508415612bfc57609754612bf290612b9c9060ff16600a614478565b612bec612710612bec8860400151612bec609760019054906101000a900460ff168b60800151612bcc91906143f0565b612bd790600a614478565b60208c0151612be6908a613686565b90613686565b90613692565b6020830152612c1c565b612c19612710612bec83876020015161368690919063ffffffff16565b82525b609d5460005b81811015612d67576000609d8281548110612c4d57634e487b7160e01b600052603260045260246000fd5b60009182526020808320909101546001600160a01b0316808352609e9091526040822090925090612c89612c8260018061459a565b83906126fe565b905080612cbc5750506001600160a01b0316600090815260a66020908152604080832083905560a7909152812055612d55565b8915612d10576000612ce38a60200151612bec848b6020015161368690919063ffffffff16565b6001600160a01b038516600090815260a7602090815260408083209390935560a690529081205550612d51565b60208901518751600091612d2891612bec9085613686565b6001600160a01b038516600090815260a6602090815260408083209390935560a7905290812055505b5050505b80612d5f81614624565b915050612c22565b509195945050505050565b609d5460008083612ee65760006001609a54612d8e9190614583565b905060005b84811015612ece576000609d8281548110612dbe57634e487b7160e01b600052603260045260246000fd5b60009182526020808320909101546001600160a01b0316808352609e8252604080842060a6909352909220549192509080612e025750600060049091015550612ebc565b6000612e26828460040154612e216000876126fe90919063ffffffff16565b61369e565b90508015612e77576001600160a01b038416600090815260a46020526040902054612e5190826126f2565b6001600160a01b038516600090815260a46020526040902055612e7488826126f2565b97505b6000612e8383836125ca565b90508015612e9657612e968584896132d5565b5050506001600160a01b03909116600090815260a6602052604081208190556004909101555b80612ec681614624565b915050612d93565b5060a254612edc90846126f2565b60a2555050505050565b60005b8381101561308d576000609d8281548110612f1457634e487b7160e01b600052603260045260246000fd5b60009182526020808320909101546001600160a01b0316808352609e8252604080842060a7909352909220549192509080612f58575060006004909101555061307b565b6000612f77828460040154612e216000876126fe90919063ffffffff16565b90508015612fc8576001600160a01b038416600090815260a56020526040902054612fa290826126f2565b6001600160a01b038516600090815260a56020526040902055612fc586826126f2565b95505b6000612fd483836125ca565b905080156130555760a9805460018082019092557fdc471888e6136f84c49e531e9c9240dc4e3fba66da9d3a49e2af6202133683e00182905560a8805491820181556000527fbee89403b5bf0e626c2f71adb366311c697013df53107181a963adc459ef4d990180546001600160a01b0319166001600160a01b0387161790555b5050506001600160a01b03909116600090815260a7602052604081208190556004909101555b8061308581614624565b915050612ee9565b5060a35461309b90826126f2565b60a35560a954806130ad575050505050565b60008167ffffffffffffffff8111156130d657634e487b7160e01b600052604160045260246000fd5b6040519080825280602002602001820160405280156130ff578160200160208202803683370190505b50905060008267ffffffffffffffff81111561312b57634e487b7160e01b600052604160045260246000fd5b604051908082528060200260200182016040528015613154578160200160208202803683370190505b50905060005b8381101561324a5760a8818154811061318357634e487b7160e01b600052603260045260246000fd5b9060005260206000200160009054906101000a90046001600160a01b03168382815181106131c157634e487b7160e01b600052603260045260246000fd5b60200260200101906001600160a01b031690816001600160a01b03168152505060a9818154811061320257634e487b7160e01b600052603260045260246000fd5b906000526020600020015482828151811061322d57634e487b7160e01b600052603260045260246000fd5b60209081029190910101528061324281614624565b91505061315a565b5061325760a86000613b6d565b61326360a96000613b6d565b609f54604051632cb9ff9d60e11b8152620100009091046001600160a01b031690635973ff3a9061329a908590859060040161406a565b600060405180830381600087803b1580156132b457600080fd5b505af11580156132c8573d6000803e3d6000fd5b5050505050505050505050565b609a546000908152609c6020526040902060995460018201546132f890856126f2565b11156133395760405162461bcd60e51b815260206004820152601060248201526f4e6f7420656e6f7567682071756f746160801b6044820152606401610b98565b6001600160a01b0384166000908152609e602052604090206003810154600160f01b900460ff166133c75760038101805460ff60f01b1916600160f01b179055609d80546001810182556000919091527fd26e832454299e9fabb89e0e5fffdc046d4e14431bc1bf607ffb2e8a1ddecf7b0180546001600160a01b0387166001600160a01b03199091161790555b80546133d390856126f2565b815560018201546133e490856126f2565b60018301556040805185815230602082015284916001600160a01b0388169133917ff5dd9317b9e63ac316ce44acc85f670b54b339cfa3e9076e1dd55065b922314b910160405180910390a45050505050565b606580546001600160a01b038381166001600160a01b0319831681179093556040519116919082907f8be0079c531659141344cd1fd0a4f28419497f9722a3daafe3b4186f6b6457e090600090a35050565b604080516001600160a01b0385811660248301528416604482015260648082018490528251808303909101815260849091019091526020810180516001600160e01b03166323b872dd60e01b1790526118f59085906136d2565b600054610100900460ff16806134fc575060005460ff16155b6135185760405162461bcd60e51b8152600401610b9890614165565b600054610100900460ff1615801561353a576000805461ffff19166101011790555b6001600160a01b0383166135865760405162461bcd60e51b8152602060048201526013602482015272456d707479207661756c74206164647265737360681b6044820152606401610b98565b61359089896137a4565b613598613823565b60978054609880546001600160a01b038a81166001600160a81b0319909216919091178b82168015600160a01b029190911790925560ff8981166001600160b01b03199094166201000090930261ffff1916929092179290921761010091881682021790925560a180546001600160a01b031916918616919091179055609f805461ff00191684151590920291909117905560405130907f8f61f0def895309a310dec5facf78f589cf18d834f0ba4030a5e68e32180ec979061365c908b906140e0565b60405180910390a28015613676576000805461ff00191690555b505050505050505050565b505050565b60006117978284614523565b60006117978284614415565b6000826136ad57506000611797565b818310156136c8576136c382612bec8686613686565b6136ca565b835b949350505050565b6000613727826040518060400160405280602081526020017f5361666545524332303a206c6f772d6c6576656c2063616c6c206661696c6564815250856001600160a01b031661389e9092919063ffffffff16565b80519091501561368157808060200190518101906137459190613ece565b6136815760405162461bcd60e51b815260206004820152602a60248201527f5361666545524332303a204552433230206f7065726174696f6e20646964206e6044820152691bdd081cdd58d8d9595960b21b6064820152608401610b98565b600054610100900460ff16806137bd575060005460ff16155b6137d95760405162461bcd60e51b8152600401610b9890614165565b600054610100900460ff161580156137fb576000805461ffff19166101011790555b6138036138ad565b61380d8383613917565b8015613681576000805461ff0019169055505050565b600054610100900460ff168061383c575060005460ff16155b6138585760405162461bcd60e51b8152600401610b9890614165565b600054610100900460ff1615801561387a576000805461ffff19166101011790555b6138826138ad565b61388a6139ac565b80156112a9576000805461ff001916905550565b60606136ca8484600085613a0c565b600054610100900460ff16806138c6575060005460ff16155b6138e25760405162461bcd60e51b8152600401610b9890614165565b600054610100900460ff1615801561388a576000805461ffff191661010117905580156112a9576000805461ff001916905550565b600054610100900460ff1680613930575060005460ff16155b61394c5760405162461bcd60e51b8152600401610b9890614165565b600054610100900460ff1615801561396e576000805461ffff19166101011790555b8251613981906036906020860190613b8b565b508151613995906037906020850190613b8b565b508015613681576000805461ff0019169055505050565b600054610100900460ff16806139c5575060005460ff16155b6139e15760405162461bcd60e51b8152600401610b9890614165565b600054610100900460ff16158015613a03576000805461ffff19166101011790555b61388a33613437565b606082471015613a6d5760405162461bcd60e51b815260206004820152602660248201527f416464726573733a20696e73756666696369656e742062616c616e636520666f6044820152651c8818d85b1b60d21b6064820152608401610b98565b843b613abb5760405162461bcd60e51b815260206004820152601d60248201527f416464726573733a2063616c6c20746f206e6f6e2d636f6e74726163740000006044820152606401610b98565b600080866001600160a01b03168587604051613ad7919061404e565b60006040518083038185875af1925050503d8060008114613b14576040519150601f19603f3d011682016040523d82523d6000602084013e613b19565b606091505b5091509150613b29828286613b34565b979650505050505050565b60608315613b43575081611797565b825115613b535782518084602001fd5b8160405162461bcd60e51b8152600401610b9891906140e0565b50805460008255906000526020600020908101906112a99190613c0f565b828054613b97906145e9565b90600052602060002090601f016020900481019282613bb95760008555613bff565b82601f10613bd257805160ff1916838001178555613bff565b82800160010185558215613bff579182015b82811115613bff578251825591602001919060010190613be4565b50613c0b929150613c0f565b5090565b5b80821115613c0b5760008155600101613c10565b600082601f830112613c34578081fd5b81356020613c49613c4483614349565b614318565b80838252828201915082860187848660051b8901011115613c68578586fd5b855b85811015613c8657813584529284019290840190600101613c6a565b5090979650505050505050565b600082601f830112613ca3578081fd5b813567ffffffffffffffff811115613cbd57613cbd614655565b613cd0601f8201601f1916602001614318565b818152846020838601011115613ce4578283fd5b816020850160208301379081016020019190915292915050565b803560ff81168114613d0f57600080fd5b919050565b600060208284031215613d25578081fd5b81356117978161466b565b600060208284031215613d41578081fd5b81516117978161466b565b60008060408385031215613d5e578081fd5b8235613d698161466b565b91506020830135613d798161466b565b809150509250929050565b600080600060608486031215613d98578081fd5b8335613da38161466b565b92506020840135613db38161466b565b929592945050506040919091013590565b60008060408385031215613dd6578182fd5b8235613de18161466b565b946020939093013593505050565b60008060408385031215613e01578182fd5b823567ffffffffffffffff80821115613e18578384fd5b818501915085601f830112613e2b578384fd5b81356020613e3b613c4483614349565b8083825282820191508286018a848660051b8901011115613e5a578889fd5b8896505b84871015613e85578035613e718161466b565b835260019690960195918301918301613e5e565b5096505086013592505080821115613e9b578283fd5b50613ea885828601613c24565b9150509250929050565b600060208284031215613ec3578081fd5b813561179781614680565b600060208284031215613edf578081fd5b815161179781614680565b600080600080600080600060e0888a031215613f04578283fd5b873567ffffffffffffffff80821115613f1b578485fd5b613f278b838c01613c93565b985060208a0135915080821115613f3c578485fd5b50613f498a828b01613c93565b9650506040880135613f5a8161466b565b94506060880135613f6a8161466b565b9350613f7860808901613cfe565b9250613f8660a08901613cfe565b915060c0880135613f968161466b565b8091505092959891949750929550565b600060608284031215613fb7578081fd5b6040516060810181811067ffffffffffffffff82111715613fda57613fda614655565b60405282358152613fed60208401613cfe565b6020820152604083013561ffff81168114614006578283fd5b60408201529392505050565b600060208284031215614023578081fd5b5035919050565b6000806040838503121561403c578182fd5b823591506020830135613d798161466b565b600082516140608184602087016145bd565b9190910192915050565b604080825283519082018190526000906020906060840190828701845b828110156140ac5781516001600160a01b031684529284019290840190600101614087565b50505083810382850152845180825285830191830190845b81811015613c86578351835292840192918401916001016140c4565b60208152600082518060208401526140ff8160408501602087016145bd565b601f01601f19169190910160400192915050565b6020808252601190820152704578636565647320617661696c61626c6560781b604082015260600190565b6020808252600d908201526c10995a5b99c81cd95d1d1b1959609a1b604082015260600190565b6020808252602e908201527f496e697469616c697a61626c653a20636f6e747261637420697320616c72656160408201526d191e481a5b9a5d1a585b1a5e995960921b606082015260800190565b6020808252600b908201526a08539bc813585d1d5c995960aa1b604082015260600190565b6020808252818101527f4f776e61626c653a2063616c6c6572206973206e6f7420746865206f776e6572604082015260600190565b60208082526007908201526608585b5bdd5b9d60ca1b604082015260600190565b60208082526010908201526f45786365656420617661696c61626c6560801b604082015260600190565b60a08101610ebf828480518252602081015160208301526040810151604083015260608101516060830152608081015160808301525050565b835481526001840154602082015260028401546040820152600384015461ffff8116606083015260ff601082901c1660808301526101208201906142df60a0840160ff8360181c1615159052565b6142f360c0840160ff8360201c1615159052565b506001600160a01b03841660e08301526001600160a01b0383166101008301526136ca565b604051601f8201601f1916810167ffffffffffffffff8111828210171561434157614341614655565b604052919050565b600067ffffffffffffffff82111561436357614363614655565b5060051b60200190565b600081810b83820b82821282607f0382138115161561438e5761438e61463f565b82607f190382128116156143a4576143a461463f565b50019392505050565b60006001600160e81b038281168482168083038211156143cf576143cf61463f565b01949350505050565b600082198211156143eb576143eb61463f565b500190565b600060ff821660ff84168060ff0382111561440d5761440d61463f565b019392505050565b60008261443057634e487b7160e01b81526012600452602481fd5b500490565b600181815b808511156144705781600019048211156144565761445661463f565b8085161561446357918102915b93841c939080029061443a565b509250929050565b600061179760ff84168360008261449157506001610ebf565b8161449e57506000610ebf565b81600181146144b457600281146144be576144da565b6001915050610ebf565b60ff8411156144cf576144cf61463f565b50506001821b610ebf565b5060208310610133831016604e8410600b84101617156144fd575081810a610ebf565b6145078383614435565b806000190482111561451b5761451b61463f565b029392505050565b600081600019048311821515161561453d5761453d61463f565b500290565b600081810b83820b8281128015607f198301841216156145645761456461463f565b81607f0183138116156145795761457961463f565b5090039392505050565b6000828210156145955761459561463f565b500390565b600060ff821660ff8416808210156145b4576145b461463f565b90039392505050565b60005b838110156145d85781810151838201526020016145c0565b838111156118f55750506000910152565b600181811c908216806145fd57607f821691505b6020821081141561461e57634e487b7160e01b600052602260045260246000fd5b50919050565b60006000198214156146385761463861463f565b5060010190565b634e487b7160e01b600052601160045260246000fd5b634e487b7160e01b600052604160045260246000fd5b6001600160a01b03811681146112a957600080fd5b80151581146112a957600080fdfea2646970667358221220c88cb47e6632561f64bc22555afc29a7f590f3f4d50ee3b8550e3142f8d9af1c64736f6c63430008040033",
  "libraries": {
    "StructureData": "0x2B0d36FACD61B71CC05ab8F3D2355ec3631C0dd5"
  },
  "devdoc": {
    "kind": "dev",
    "methods": {
      "allowance(address,address)": {
        "details": "See {IERC20-allowance}."
      },
      "approve(address,uint256)": {
        "details": "See {IERC20-approve}. Requirements: - `spender` cannot be the zero address."
      },
      "balanceOf(address)": {
        "details": "See {IERC20-balanceOf}."
      },
      "decimals()": {
        "details": "Returns the number of decimals used to get its user representation. For example, if `decimals` equals `2`, a balance of `505` tokens should be displayed to a user as `5.05` (`505 / 10 ** 2`). Tokens usually opt for a value of 18, imitating the relationship between Ether and Wei. This is the value {ERC20} uses, unless this function is overridden; NOTE: This information is only used for _display_ purposes: it in no way affects any of the arithmetic of the contract, including {IERC20-balanceOf} and {IERC20-transfer}."
      },
      "decreaseAllowance(address,uint256)": {
        "details": "Atomically decreases the allowance granted to `spender` by the caller. This is an alternative to {approve} that can be used as a mitigation for problems described in {IERC20-approve}. Emits an {Approval} event indicating the updated allowance. Requirements: - `spender` cannot be the zero address. - `spender` must have allowance for the caller of at least `subtractedValue`."
      },
      "increaseAllowance(address,uint256)": {
        "details": "Atomically increases the allowance granted to `spender` by the caller. This is an alternative to {approve} that can be used as a mitigation for problems described in {IERC20-approve}. Emits an {Approval} event indicating the updated allowance. Requirements: - `spender` cannot be the zero address."
      },
      "name()": {
        "details": "Returns the name of the token."
      },
      "owner()": {
        "details": "Returns the address of the current owner."
      },
      "renounceOwnership()": {
        "details": "Leaves the contract without owner. It will not be possible to call `onlyOwner` functions anymore. Can only be called by the current owner. NOTE: Renouncing ownership will leave the contract without an owner, thereby removing any functionality that is only available to the owner."
      },
      "symbol()": {
        "details": "Returns the symbol of the token, usually a shorter version of the name."
      },
      "totalSupply()": {
        "details": "See {IERC20-totalSupply}."
      },
      "transfer(address,uint256)": {
        "details": "See {IERC20-transfer}. Requirements: - `recipient` cannot be the zero address. - the caller must have a balance of at least `amount`."
      },
      "transferFrom(address,address,uint256)": {
        "details": "See {IERC20-transferFrom}. Emits an {Approval} event indicating the updated allowance. This is not required by the EIP. See the note at the beginning of {ERC20}. Requirements: - `sender` and `recipient` cannot be the zero address. - `sender` must have a balance of at least `amount`. - the caller must have allowance for ``sender``'s tokens of at least `amount`."
      },
      "transferOwnership(address)": {
        "details": "Transfers ownership of the contract to a new account (`newOwner`). Can only be called by the current owner."
      }
    },
    "version": 1
  },
  "userdoc": {
    "kind": "user",
    "methods": {},
    "version": 1
  },
  "storageLayout": {
    "storage": [
      {
        "astId": 538,
        "contract": "contracts/Options/PKKTHodlBoosterPutOption.sol:PKKTHodlBoosterPutOption",
        "label": "_initialized",
        "offset": 0,
        "slot": "0",
        "type": "t_bool"
      },
      {
        "astId": 541,
        "contract": "contracts/Options/PKKTHodlBoosterPutOption.sol:PKKTHodlBoosterPutOption",
        "label": "_initializing",
        "offset": 1,
        "slot": "0",
        "type": "t_bool"
      },
      {
        "astId": 1297,
        "contract": "contracts/Options/PKKTHodlBoosterPutOption.sol:PKKTHodlBoosterPutOption",
        "label": "__gap",
        "offset": 0,
        "slot": "1",
        "type": "t_array(t_uint256)50_storage"
      },
      {
        "astId": 597,
        "contract": "contracts/Options/PKKTHodlBoosterPutOption.sol:PKKTHodlBoosterPutOption",
        "label": "_balances",
        "offset": 0,
        "slot": "51",
        "type": "t_mapping(t_address,t_uint256)"
      },
      {
        "astId": 603,
        "contract": "contracts/Options/PKKTHodlBoosterPutOption.sol:PKKTHodlBoosterPutOption",
        "label": "_allowances",
        "offset": 0,
        "slot": "52",
        "type": "t_mapping(t_address,t_mapping(t_address,t_uint256))"
      },
      {
        "astId": 605,
        "contract": "contracts/Options/PKKTHodlBoosterPutOption.sol:PKKTHodlBoosterPutOption",
        "label": "_totalSupply",
        "offset": 0,
        "slot": "53",
        "type": "t_uint256"
      },
      {
        "astId": 607,
        "contract": "contracts/Options/PKKTHodlBoosterPutOption.sol:PKKTHodlBoosterPutOption",
        "label": "_name",
        "offset": 0,
        "slot": "54",
        "type": "t_string_storage"
      },
      {
        "astId": 609,
        "contract": "contracts/Options/PKKTHodlBoosterPutOption.sol:PKKTHodlBoosterPutOption",
        "label": "_symbol",
        "offset": 0,
        "slot": "55",
        "type": "t_string_storage"
      },
      {
        "astId": 1150,
        "contract": "contracts/Options/PKKTHodlBoosterPutOption.sol:PKKTHodlBoosterPutOption",
        "label": "__gap",
        "offset": 0,
        "slot": "56",
        "type": "t_array(t_uint256)45_storage"
      },
      {
        "astId": 418,
        "contract": "contracts/Options/PKKTHodlBoosterPutOption.sol:PKKTHodlBoosterPutOption",
        "label": "_owner",
        "offset": 0,
        "slot": "101",
        "type": "t_address"
      },
      {
        "astId": 531,
        "contract": "contracts/Options/PKKTHodlBoosterPutOption.sol:PKKTHodlBoosterPutOption",
        "label": "__gap",
        "offset": 0,
        "slot": "102",
        "type": "t_array(t_uint256)49_storage"
      },
      {
        "astId": 4860,
        "contract": "contracts/Options/PKKTHodlBoosterPutOption.sol:PKKTHodlBoosterPutOption",
        "label": "depositAssetAmountDecimals",
        "offset": 0,
        "slot": "151",
        "type": "t_uint8"
      },
      {
        "astId": 4862,
        "contract": "contracts/Options/PKKTHodlBoosterPutOption.sol:PKKTHodlBoosterPutOption",
        "label": "counterPartyAssetAmountDecimals",
        "offset": 1,
        "slot": "151",
        "type": "t_uint8"
      },
      {
        "astId": 4864,
        "contract": "contracts/Options/PKKTHodlBoosterPutOption.sol:PKKTHodlBoosterPutOption",
        "label": "depositAsset",
        "offset": 2,
        "slot": "151",
        "type": "t_address"
      },
      {
        "astId": 4866,
        "contract": "contracts/Options/PKKTHodlBoosterPutOption.sol:PKKTHodlBoosterPutOption",
        "label": "counterPartyAsset",
        "offset": 0,
        "slot": "152",
        "type": "t_address"
      },
      {
        "astId": 4868,
        "contract": "contracts/Options/PKKTHodlBoosterPutOption.sol:PKKTHodlBoosterPutOption",
        "label": "isEth",
        "offset": 20,
        "slot": "152",
        "type": "t_bool"
      },
      {
        "astId": 4870,
        "contract": "contracts/Options/PKKTHodlBoosterPutOption.sol:PKKTHodlBoosterPutOption",
        "label": "quota",
        "offset": 0,
        "slot": "153",
        "type": "t_uint256"
      },
      {
        "astId": 4872,
        "contract": "contracts/Options/PKKTHodlBoosterPutOption.sol:PKKTHodlBoosterPutOption",
        "label": "currentRound",
        "offset": 0,
        "slot": "154",
        "type": "t_uint256"
      },
      {
        "astId": 4876,
        "contract": "contracts/Options/PKKTHodlBoosterPutOption.sol:PKKTHodlBoosterPutOption",
        "label": "optionHeights",
        "offset": 0,
        "slot": "155",
        "type": "t_mapping(t_uint256,t_uint256)"
      },
      {
        "astId": 4881,
        "contract": "contracts/Options/PKKTHodlBoosterPutOption.sol:PKKTHodlBoosterPutOption",
        "label": "optionStates",
        "offset": 0,
        "slot": "156",
        "type": "t_mapping(t_uint256,t_struct(OptionState)12182_storage)"
      },
      {
        "astId": 4884,
        "contract": "contracts/Options/PKKTHodlBoosterPutOption.sol:PKKTHodlBoosterPutOption",
        "label": "usersInvolved",
        "offset": 0,
        "slot": "157",
        "type": "t_array(t_address)dyn_storage"
      },
      {
        "astId": 4889,
        "contract": "contracts/Options/PKKTHodlBoosterPutOption.sol:PKKTHodlBoosterPutOption",
        "label": "userStates",
        "offset": 0,
        "slot": "158",
        "type": "t_mapping(t_address,t_struct(UserState)12213_storage)"
      },
      {
        "astId": 4891,
        "contract": "contracts/Options/PKKTHodlBoosterPutOption.sol:PKKTHodlBoosterPutOption",
        "label": "underSettlement",
        "offset": 0,
        "slot": "159",
        "type": "t_bool"
      },
      {
        "astId": 4893,
        "contract": "contracts/Options/PKKTHodlBoosterPutOption.sol:PKKTHodlBoosterPutOption",
        "label": "callOrPut",
        "offset": 1,
        "slot": "159",
        "type": "t_bool"
      },
      {
        "astId": 4896,
        "contract": "contracts/Options/PKKTHodlBoosterPutOption.sol:PKKTHodlBoosterPutOption",
        "label": "counterPartyOption",
        "offset": 2,
        "slot": "159",
        "type": "t_contract(IPKKTStructureOption)12102"
      },
      {
        "astId": 4898,
        "contract": "contracts/Options/PKKTHodlBoosterPutOption.sol:PKKTHodlBoosterPutOption",
        "label": "counterParty",
        "offset": 0,
        "slot": "160",
        "type": "t_address"
      },
      {
        "astId": 4901,
        "contract": "contracts/Options/PKKTHodlBoosterPutOption.sol:PKKTHodlBoosterPutOption",
        "label": "optionVault",
        "offset": 0,
        "slot": "161",
        "type": "t_contract(IOptionVault)12010"
      },
      {
        "astId": 4903,
        "contract": "contracts/Options/PKKTHodlBoosterPutOption.sol:PKKTHodlBoosterPutOption",
        "label": "totalMaturedDepositAssetAmount",
        "offset": 0,
        "slot": "162",
        "type": "t_uint256"
      },
      {
        "astId": 4905,
        "contract": "contracts/Options/PKKTHodlBoosterPutOption.sol:PKKTHodlBoosterPutOption",
        "label": "totalMaturedCounterPartyAssetAmount",
        "offset": 0,
        "slot": "163",
        "type": "t_uint256"
      },
      {
        "astId": 4909,
        "contract": "contracts/Options/PKKTHodlBoosterPutOption.sol:PKKTHodlBoosterPutOption",
        "label": "maturedDepositAssetAmount",
        "offset": 0,
        "slot": "164",
        "type": "t_mapping(t_address,t_uint256)"
      },
      {
        "astId": 4913,
        "contract": "contracts/Options/PKKTHodlBoosterPutOption.sol:PKKTHodlBoosterPutOption",
        "label": "maturedCounterPartyAssetAmount",
        "offset": 0,
        "slot": "165",
        "type": "t_mapping(t_address,t_uint256)"
      },
      {
        "astId": 4917,
        "contract": "contracts/Options/PKKTHodlBoosterPutOption.sol:PKKTHodlBoosterPutOption",
        "label": "pendingMaturedDepositAssetAmount",
        "offset": 0,
        "slot": "166",
        "type": "t_mapping(t_address,t_uint256)"
      },
      {
        "astId": 4921,
        "contract": "contracts/Options/PKKTHodlBoosterPutOption.sol:PKKTHodlBoosterPutOption",
        "label": "pendingMaturedCounterPartyAssetAmount",
        "offset": 0,
        "slot": "167",
        "type": "t_mapping(t_address,t_uint256)"
      },
      {
        "astId": 6252,
        "contract": "contracts/Options/PKKTHodlBoosterPutOption.sol:PKKTHodlBoosterPutOption",
        "label": "autoRolledUsers",
        "offset": 0,
        "slot": "168",
        "type": "t_array(t_address)dyn_storage"
      },
      {
        "astId": 6255,
        "contract": "contracts/Options/PKKTHodlBoosterPutOption.sol:PKKTHodlBoosterPutOption",
        "label": "autoRolledAmounts",
        "offset": 0,
        "slot": "169",
        "type": "t_array(t_uint256)dyn_storage"
      }
    ],
    "types": {
      "t_address": {
        "encoding": "inplace",
        "label": "address",
        "numberOfBytes": "20"
      },
      "t_array(t_address)dyn_storage": {
        "base": "t_address",
        "encoding": "dynamic_array",
        "label": "address[]",
        "numberOfBytes": "32"
      },
      "t_array(t_uint256)1_storage": {
        "base": "t_uint256",
        "encoding": "inplace",
        "label": "uint256[1]",
        "numberOfBytes": "32"
      },
      "t_array(t_uint256)45_storage": {
        "base": "t_uint256",
        "encoding": "inplace",
        "label": "uint256[45]",
        "numberOfBytes": "1440"
      },
      "t_array(t_uint256)49_storage": {
        "base": "t_uint256",
        "encoding": "inplace",
        "label": "uint256[49]",
        "numberOfBytes": "1568"
      },
      "t_array(t_uint256)50_storage": {
        "base": "t_uint256",
        "encoding": "inplace",
        "label": "uint256[50]",
        "numberOfBytes": "1600"
      },
      "t_array(t_uint256)dyn_storage": {
        "base": "t_uint256",
        "encoding": "dynamic_array",
        "label": "uint256[]",
        "numberOfBytes": "32"
      },
      "t_bool": {
        "encoding": "inplace",
        "label": "bool",
        "numberOfBytes": "1"
      },
      "t_contract(IOptionVault)12010": {
        "encoding": "inplace",
        "label": "contract IOptionVault",
        "numberOfBytes": "20"
      },
      "t_contract(IPKKTStructureOption)12102": {
        "encoding": "inplace",
        "label": "contract IPKKTStructureOption",
        "numberOfBytes": "20"
      },
      "t_mapping(t_address,t_mapping(t_address,t_uint256))": {
        "encoding": "mapping",
        "key": "t_address",
        "label": "mapping(address => mapping(address => uint256))",
        "numberOfBytes": "32",
        "value": "t_mapping(t_address,t_uint256)"
      },
      "t_mapping(t_address,t_struct(UserState)12213_storage)": {
        "encoding": "mapping",
        "key": "t_address",
        "label": "mapping(address => struct StructureData.UserState)",
        "numberOfBytes": "32",
        "value": "t_struct(UserState)12213_storage"
      },
      "t_mapping(t_address,t_uint256)": {
        "encoding": "mapping",
        "key": "t_address",
        "label": "mapping(address => uint256)",
        "numberOfBytes": "32",
        "value": "t_uint256"
      },
      "t_mapping(t_uint256,t_struct(OptionState)12182_storage)": {
        "encoding": "mapping",
        "key": "t_uint256",
        "label": "mapping(uint256 => struct StructureData.OptionState)",
        "numberOfBytes": "32",
        "value": "t_struct(OptionState)12182_storage"
      },
      "t_mapping(t_uint256,t_uint256)": {
        "encoding": "mapping",
        "key": "t_uint256",
        "label": "mapping(uint256 => uint256)",
        "numberOfBytes": "32",
        "value": "t_uint256"
      },
      "t_string_storage": {
        "encoding": "bytes",
        "label": "string",
        "numberOfBytes": "32"
      },
      "t_struct(OptionState)12182_storage": {
        "encoding": "inplace",
        "label": "struct StructureData.OptionState",
        "members": [
          {
            "astId": 12169,
            "contract": "contracts/Options/PKKTHodlBoosterPutOption.sol:PKKTHodlBoosterPutOption",
            "label": "round",
            "offset": 0,
            "slot": "0",
            "type": "t_uint256"
          },
          {
            "astId": 12171,
            "contract": "contracts/Options/PKKTHodlBoosterPutOption.sol:PKKTHodlBoosterPutOption",
            "label": "totalAmount",
            "offset": 0,
            "slot": "1",
            "type": "t_uint256"
          },
          {
            "astId": 12173,
            "contract": "contracts/Options/PKKTHodlBoosterPutOption.sol:PKKTHodlBoosterPutOption",
            "label": "strikePrice",
            "offset": 0,
            "slot": "2",
            "type": "t_uint256"
          },
          {
            "astId": 12175,
            "contract": "contracts/Options/PKKTHodlBoosterPutOption.sol:PKKTHodlBoosterPutOption",
            "label": "premiumRate",
            "offset": 0,
            "slot": "3",
            "type": "t_uint16"
          },
          {
            "astId": 12177,
            "contract": "contracts/Options/PKKTHodlBoosterPutOption.sol:PKKTHodlBoosterPutOption",
            "label": "pricePrecision",
            "offset": 2,
            "slot": "3",
            "type": "t_uint8"
          },
          {
            "astId": 12179,
            "contract": "contracts/Options/PKKTHodlBoosterPutOption.sol:PKKTHodlBoosterPutOption",
            "label": "executed",
            "offset": 3,
            "slot": "3",
            "type": "t_bool"
          },
          {
            "astId": 12181,
            "contract": "contracts/Options/PKKTHodlBoosterPutOption.sol:PKKTHodlBoosterPutOption",
            "label": "callOrPut",
            "offset": 4,
            "slot": "3",
            "type": "t_bool"
          }
        ],
        "numberOfBytes": "128"
      },
      "t_struct(UserState)12213_storage": {
        "encoding": "inplace",
        "label": "struct StructureData.UserState",
        "members": [
          {
            "astId": 12196,
            "contract": "contracts/Options/PKKTHodlBoosterPutOption.sol:PKKTHodlBoosterPutOption",
            "label": "pendingAsset",
            "offset": 0,
            "slot": "0",
            "type": "t_uint256"
          },
          {
            "astId": 12198,
            "contract": "contracts/Options/PKKTHodlBoosterPutOption.sol:PKKTHodlBoosterPutOption",
            "label": "lockedAsset",
            "offset": 0,
            "slot": "1",
            "type": "t_uint256"
          },
          {
            "astId": 12202,
            "contract": "contracts/Options/PKKTHodlBoosterPutOption.sol:PKKTHodlBoosterPutOption",
            "label": "ongoingAsset",
            "offset": 0,
            "slot": "2",
            "type": "t_array(t_uint256)1_storage"
          },
          {
            "astId": 12204,
            "contract": "contracts/Options/PKKTHodlBoosterPutOption.sol:PKKTHodlBoosterPutOption",
            "label": "nextCursor",
            "offset": 0,
            "slot": "3",
            "type": "t_uint8"
          },
          {
            "astId": 12206,
            "contract": "contracts/Options/PKKTHodlBoosterPutOption.sol:PKKTHodlBoosterPutOption",
            "label": "totalRound",
            "offset": 1,
            "slot": "3",
            "type": "t_uint232"
          },
          {
            "astId": 12208,
            "contract": "contracts/Options/PKKTHodlBoosterPutOption.sol:PKKTHodlBoosterPutOption",
            "label": "hasState",
            "offset": 30,
            "slot": "3",
            "type": "t_bool"
          },
          {
            "astId": 12210,
            "contract": "contracts/Options/PKKTHodlBoosterPutOption.sol:PKKTHodlBoosterPutOption",
            "label": "assetToTerminate",
            "offset": 0,
            "slot": "4",
            "type": "t_uint256"
          },
          {
            "astId": 12212,
            "contract": "contracts/Options/PKKTHodlBoosterPutOption.sol:PKKTHodlBoosterPutOption",
            "label": "assetToTerminateForNextRound",
            "offset": 0,
            "slot": "5",
            "type": "t_uint256"
          }
        ],
        "numberOfBytes": "192"
      },
      "t_uint16": {
        "encoding": "inplace",
        "label": "uint16",
        "numberOfBytes": "2"
      },
      "t_uint232": {
        "encoding": "inplace",
        "label": "uint232",
        "numberOfBytes": "29"
      },
      "t_uint256": {
        "encoding": "inplace",
        "label": "uint256",
        "numberOfBytes": "32"
      },
      "t_uint8": {
        "encoding": "inplace",
        "label": "uint8",
        "numberOfBytes": "1"
      }
    }
  }
}