{
  "address": "0x95775fD3Afb1F4072794CA4ddA27F2444BCf8Ac3",
  "abi": [
    {
      "inputs": [
        {
          "internalType": "address",
          "name": "_settler",
          "type": "address"
        }
      ],
      "stateMutability": "nonpayable",
      "type": "constructor"
    },
    {
      "anonymous": false,
      "inputs": [
        {
          "indexed": true,
          "internalType": "address",
          "name": "source",
          "type": "address"
        },
        {
          "indexed": false,
          "internalType": "uint256",
          "name": "amount",
          "type": "uint256"
        }
      ],
      "name": "Received",
      "type": "event"
    },
    {
      "anonymous": false,
      "inputs": [
        {
          "indexed": true,
          "internalType": "bytes32",
          "name": "role",
          "type": "bytes32"
        },
        {
          "indexed": true,
          "internalType": "bytes32",
          "name": "previousAdminRole",
          "type": "bytes32"
        },
        {
          "indexed": true,
          "internalType": "bytes32",
          "name": "newAdminRole",
          "type": "bytes32"
        }
      ],
      "name": "RoleAdminChanged",
      "type": "event"
    },
    {
      "anonymous": false,
      "inputs": [
        {
          "indexed": true,
          "internalType": "bytes32",
          "name": "role",
          "type": "bytes32"
        },
        {
          "indexed": true,
          "internalType": "address",
          "name": "account",
          "type": "address"
        },
        {
          "indexed": true,
          "internalType": "address",
          "name": "sender",
          "type": "address"
        }
      ],
      "name": "RoleGranted",
      "type": "event"
    },
    {
      "anonymous": false,
      "inputs": [
        {
          "indexed": true,
          "internalType": "bytes32",
          "name": "role",
          "type": "bytes32"
        },
        {
          "indexed": true,
          "internalType": "address",
          "name": "account",
          "type": "address"
        },
        {
          "indexed": true,
          "internalType": "address",
          "name": "sender",
          "type": "address"
        }
      ],
      "name": "RoleRevoked",
      "type": "event"
    },
    {
      "inputs": [],
      "name": "DEFAULT_ADMIN_ROLE",
      "outputs": [
        {
          "internalType": "bytes32",
          "name": "",
          "type": "bytes32"
        }
      ],
      "stateMutability": "view",
      "type": "function"
    },
    {
      "inputs": [
        {
          "internalType": "address",
          "name": "_optionContract",
          "type": "address"
        }
      ],
      "name": "addOption",
      "outputs": [],
      "stateMutability": "nonpayable",
      "type": "function"
    },
    {
      "inputs": [
        {
          "components": [
            {
              "internalType": "address",
              "name": "callOption",
              "type": "address"
            },
            {
              "internalType": "address",
              "name": "putOption",
              "type": "address"
            },
            {
              "internalType": "address",
              "name": "callOptionDeposit",
              "type": "address"
            },
            {
              "internalType": "address",
              "name": "putOptionDeposit",
              "type": "address"
            }
          ],
          "internalType": "struct StructureData.OptionPairDefinition",
          "name": "_pair",
          "type": "tuple"
        }
      ],
      "name": "addOptionPair",
      "outputs": [],
      "stateMutability": "nonpayable",
      "type": "function"
    },
    {
      "inputs": [
        {
          "internalType": "address",
          "name": "_asset",
          "type": "address"
        }
      ],
      "name": "balanceEnough",
      "outputs": [
        {
          "internalType": "bool",
          "name": "",
          "type": "bool"
        }
      ],
      "stateMutability": "view",
      "type": "function"
    },
    {
      "inputs": [],
      "name": "currentRound",
      "outputs": [
        {
          "internalType": "uint256",
          "name": "",
          "type": "uint256"
        }
      ],
      "stateMutability": "view",
      "type": "function"
    },
    {
      "inputs": [
        {
          "internalType": "uint8",
          "name": "",
          "type": "uint8"
        }
      ],
      "name": "executionAccountingResult",
      "outputs": [
        {
          "components": [
            {
              "internalType": "uint256",
              "name": "round",
              "type": "uint256"
            },
            {
              "internalType": "uint256",
              "name": "depositAmount",
              "type": "uint256"
            },
            {
              "internalType": "uint256",
              "name": "autoRollAmount",
              "type": "uint256"
            },
            {
              "internalType": "uint256",
              "name": "autoRollPremium",
              "type": "uint256"
            },
            {
              "internalType": "uint256",
              "name": "releasedAmount",
              "type": "uint256"
            },
            {
              "internalType": "uint256",
              "name": "releasedPremium",
              "type": "uint256"
            },
            {
              "internalType": "uint256",
              "name": "autoRollCounterPartyAmount",
              "type": "uint256"
            },
            {
              "internalType": "uint256",
              "name": "autoRollCounterPartyPremium",
              "type": "uint256"
            },
            {
              "internalType": "uint256",
              "name": "releasedCounterPartyAmount",
              "type": "uint256"
            },
            {
              "internalType": "uint256",
              "name": "releasedCounterPartyPremium",
              "type": "uint256"
            },
            {
              "internalType": "address",
              "name": "option",
              "type": "address"
            },
            {
              "internalType": "bool",
              "name": "executed",
              "type": "bool"
            }
          ],
          "internalType": "struct StructureData.SettlementAccountingResult",
          "name": "callOptionResult",
          "type": "tuple"
        },
        {
          "components": [
            {
              "internalType": "uint256",
              "name": "round",
              "type": "uint256"
            },
            {
              "internalType": "uint256",
              "name": "depositAmount",
              "type": "uint256"
            },
            {
              "internalType": "uint256",
              "name": "autoRollAmount",
              "type": "uint256"
            },
            {
              "internalType": "uint256",
              "name": "autoRollPremium",
              "type": "uint256"
            },
            {
              "internalType": "uint256",
              "name": "releasedAmount",
              "type": "uint256"
            },
            {
              "internalType": "uint256",
              "name": "releasedPremium",
              "type": "uint256"
            },
            {
              "internalType": "uint256",
              "name": "autoRollCounterPartyAmount",
              "type": "uint256"
            },
            {
              "internalType": "uint256",
              "name": "autoRollCounterPartyPremium",
              "type": "uint256"
            },
            {
              "internalType": "uint256",
              "name": "releasedCounterPartyAmount",
              "type": "uint256"
            },
            {
              "internalType": "uint256",
              "name": "releasedCounterPartyPremium",
              "type": "uint256"
            },
            {
              "internalType": "address",
              "name": "option",
              "type": "address"
            },
            {
              "internalType": "bool",
              "name": "executed",
              "type": "bool"
            }
          ],
          "internalType": "struct StructureData.SettlementAccountingResult",
          "name": "putOptionResult",
          "type": "tuple"
        },
        {
          "internalType": "enum StructureData.OptionExecution",
          "name": "execute",
          "type": "uint8"
        }
      ],
      "stateMutability": "view",
      "type": "function"
    },
    {
      "inputs": [],
      "name": "getAddress",
      "outputs": [
        {
          "internalType": "address",
          "name": "",
          "type": "address"
        }
      ],
      "stateMutability": "view",
      "type": "function"
    },
    {
      "inputs": [
        {
          "internalType": "bytes32",
          "name": "role",
          "type": "bytes32"
        }
      ],
      "name": "getRoleAdmin",
      "outputs": [
        {
          "internalType": "bytes32",
          "name": "",
          "type": "bytes32"
        }
      ],
      "stateMutability": "view",
      "type": "function"
    },
    {
      "inputs": [
        {
          "internalType": "bytes32",
          "name": "role",
          "type": "bytes32"
        },
        {
          "internalType": "address",
          "name": "account",
          "type": "address"
        }
      ],
      "name": "grantRole",
      "outputs": [],
      "stateMutability": "nonpayable",
      "type": "function"
    },
    {
      "inputs": [
        {
          "internalType": "bytes32",
          "name": "role",
          "type": "bytes32"
        },
        {
          "internalType": "address",
          "name": "account",
          "type": "address"
        }
      ],
      "name": "hasRole",
      "outputs": [
        {
          "internalType": "bool",
          "name": "",
          "type": "bool"
        }
      ],
      "stateMutability": "view",
      "type": "function"
    },
    {
      "inputs": [],
      "name": "initiateSettlement",
      "outputs": [],
      "stateMutability": "nonpayable",
      "type": "function"
    },
    {
      "inputs": [
        {
          "internalType": "address",
          "name": "_optionContract",
          "type": "address"
        }
      ],
      "name": "removeOption",
      "outputs": [],
      "stateMutability": "nonpayable",
      "type": "function"
    },
    {
      "inputs": [
        {
          "components": [
            {
              "internalType": "address",
              "name": "callOption",
              "type": "address"
            },
            {
              "internalType": "address",
              "name": "putOption",
              "type": "address"
            },
            {
              "internalType": "address",
              "name": "callOptionDeposit",
              "type": "address"
            },
            {
              "internalType": "address",
              "name": "putOptionDeposit",
              "type": "address"
            }
          ],
          "internalType": "struct StructureData.OptionPairDefinition",
          "name": "_pair",
          "type": "tuple"
        }
      ],
      "name": "removeOptionPair",
      "outputs": [],
      "stateMutability": "nonpayable",
      "type": "function"
    },
    {
      "inputs": [
        {
          "internalType": "bytes32",
          "name": "role",
          "type": "bytes32"
        },
        {
          "internalType": "address",
          "name": "account",
          "type": "address"
        }
      ],
      "name": "renounceRole",
      "outputs": [],
      "stateMutability": "nonpayable",
      "type": "function"
    },
    {
      "inputs": [
        {
          "internalType": "bytes32",
          "name": "role",
          "type": "bytes32"
        },
        {
          "internalType": "address",
          "name": "account",
          "type": "address"
        }
      ],
      "name": "revokeRole",
      "outputs": [],
      "stateMutability": "nonpayable",
      "type": "function"
    },
    {
      "inputs": [
        {
          "components": [
            {
              "internalType": "uint256",
              "name": "strikePrice",
              "type": "uint256"
            },
            {
              "internalType": "address",
              "name": "option",
              "type": "address"
            },
            {
              "internalType": "uint8",
              "name": "pricePrecision",
              "type": "uint8"
            },
            {
              "internalType": "uint16",
              "name": "premiumRate",
              "type": "uint16"
            }
          ],
          "internalType": "struct StructureData.OptionParameters[]",
          "name": "_parameters",
          "type": "tuple[]"
        }
      ],
      "name": "setOptionParameters",
      "outputs": [],
      "stateMutability": "nonpayable",
      "type": "function"
    },
    {
      "inputs": [
        {
          "components": [
            {
              "internalType": "address",
              "name": "callOption",
              "type": "address"
            },
            {
              "internalType": "address",
              "name": "putOption",
              "type": "address"
            },
            {
              "internalType": "enum StructureData.OptionExecution",
              "name": "execute",
              "type": "uint8"
            }
          ],
          "internalType": "struct StructureData.OptionPairExecution[]",
          "name": "_execution",
          "type": "tuple[]"
        }
      ],
      "name": "settle",
      "outputs": [],
      "stateMutability": "nonpayable",
      "type": "function"
    },
    {
      "inputs": [
        {
          "internalType": "address",
          "name": "",
          "type": "address"
        }
      ],
      "name": "settlementCashflowResult",
      "outputs": [
        {
          "internalType": "uint256",
          "name": "newDepositAmount",
          "type": "uint256"
        },
        {
          "internalType": "uint256",
          "name": "newReleasedAmount",
          "type": "uint256"
        },
        {
          "internalType": "int256",
          "name": "leftOverAmount",
          "type": "int256"
        },
        {
          "internalType": "address",
          "name": "contractAddress",
          "type": "address"
        }
      ],
      "stateMutability": "view",
      "type": "function"
    },
    {
      "inputs": [
        {
          "internalType": "bytes4",
          "name": "interfaceId",
          "type": "bytes4"
        }
      ],
      "name": "supportsInterface",
      "outputs": [
        {
          "internalType": "bool",
          "name": "",
          "type": "bool"
        }
      ],
      "stateMutability": "view",
      "type": "function"
    },
    {
      "inputs": [
        {
          "internalType": "address",
          "name": "_target",
          "type": "address"
        },
        {
          "internalType": "uint256",
          "name": "_amount",
          "type": "uint256"
        },
        {
          "internalType": "address",
          "name": "_contractAddress",
          "type": "address"
        },
        {
          "internalType": "bool",
          "name": "_redeem",
          "type": "bool"
        }
      ],
      "name": "withdraw",
      "outputs": [],
      "stateMutability": "nonpayable",
      "type": "function"
    },
    {
      "inputs": [
        {
          "internalType": "address",
          "name": "_trader",
          "type": "address"
        },
        {
          "internalType": "address",
          "name": "_asset",
          "type": "address"
        }
      ],
      "name": "withdrawAsset",
      "outputs": [],
      "stateMutability": "nonpayable",
      "type": "function"
    },
    {
      "stateMutability": "payable",
      "type": "receive"
    }
  ],
  "transactionHash": "0x98dbc8bb3487104eae193ed9bb2e0f0e3998c80dc3c135eea210a7fbfcbe1c91",
  "args": [
    "0x70997970C51812dc3A010C7d01b50e0d17dc79C8"
  ],
  "solcInputHash": "4d1fa2e9fd4fdb5284870d53517b87d0",
  "bytecode": "0x6080604052600019600e553480156200001757600080fd5b506040516200380f3803806200380f8339810160408190526200003a916200012a565b620000476000336200007a565b620000737f6666bf5bfee463d10a7fc50448047f8a53b7762d7e28fbc5c643182785f3fd3f826200007a565b506200015a565b6200008682826200008a565b5050565b6000828152602081815260408083206001600160a01b038516845290915290205460ff1662000086576000828152602081815260408083206001600160a01b03851684529091529020805460ff19166001179055620000e63390565b6001600160a01b0316816001600160a01b0316837f2f8788117e7eff1d82e926ec794901d17c78024a50270940304540a733656f0d60405160405180910390a45050565b6000602082840312156200013c578081fd5b81516001600160a01b038116811462000153578182fd5b9392505050565b6136a5806200016a6000396000f3fe60806040526004361061012e5760003560e01c806338cc4831116100ab57806383eb772e1161006f57806383eb772e146105325780638a19c8bc146105a657806391d14854146105bc578063a217fddf146105dc578063c78b432e146105f1578063d547741f1461060657600080fd5b806338cc4831146102e457806351fe669e146102ff578063644d41ed146104d25780636cc1e201146104f257806375fb0ec81461051257600080fd5b806312eeff7e116100f257806312eeff7e14610226578063248a9ca3146102465780632f2ff15d1461028457806332cc8664146102a457806336568abe146102c457600080fd5b806301ffc9a71461016f57806302c178d7146101a457806307717cfc146101c657806307f42e60146101e65780631098ed7d1461020657600080fd5b3661016a5760405134815233907f88a5966d370b9919b20f3e2c13ff65706f196a4e32cc2c12bf57088f885258749060200160405180910390a2005b600080fd5b34801561017b57600080fd5b5061018f61018a366004612ff2565b610626565b60405190151581526020015b60405180910390f35b3480156101b057600080fd5b506101c46101bf366004612d46565b61065d565b005b3480156101d257600080fd5b506101c46101e1366004613094565b61071c565b3480156101f257600080fd5b506101c4610201366004612d2a565b6107d6565b34801561021257600080fd5b506101c4610221366004612eb3565b610810565b34801561023257600080fd5b506101c4610241366004612d7e565b610950565b34801561025257600080fd5b50610276610261366004612fb6565b60009081526020819052604090206001015490565b60405190815260200161019b565b34801561029057600080fd5b506101c461029f366004612fce565b6109f1565b3480156102b057600080fd5b506101c46102bf366004613094565b610a17565b3480156102d057600080fd5b506101c46102df366004612fce565b610d0c565b3480156102f057600080fd5b5060405130815260200161019b565b34801561030b57600080fd5b506104c361031a3660046131d7565b600d602052806000526040600020600091509050806000016040518061018001604052908160008201548152602001600182015481526020016002820154815260200160038201548152602001600482015481526020016005820154815260200160068201548152602001600782015481526020016008820154815260200160098201548152602001600a820160009054906101000a90046001600160a01b03166001600160a01b03166001600160a01b03168152602001600a820160149054906101000a900460ff1615151515815250509080600b016040518061018001604052908160008201548152602001600182015481526020016002820154815260200160038201548152602001600482015481526020016005820154815260200160068201548152602001600782015481526020016008820154815260200160098201548152602001600a820160009054906101000a90046001600160a01b03166001600160a01b03166001600160a01b03168152602001600a820160149054906101000a900460ff161515151581525050908060160160009054906101000a900460ff16905083565b60405161019b93929190613347565b3480156104de57600080fd5b5061018f6104ed366004612d2a565b610d86565b3480156104fe57600080fd5b506101c461050d366004612dd0565b610dea565b34801561051e57600080fd5b506101c461052d366004612d2a565b6116cf565b34801561053e57600080fd5b5061057d61054d366004612d2a565b6004602052600090815260409020805460018201546002830154600390930154919290916001600160a01b031684565b604080519485526020850193909352918301526001600160a01b0316606082015260800161019b565b3480156105b257600080fd5b5061027660015481565b3480156105c857600080fd5b5061018f6105d7366004612fce565b611705565b3480156105e857600080fd5b50610276600081565b3480156105fd57600080fd5b506101c461172e565b34801561061257600080fd5b506101c4610621366004612fce565b612233565b60006001600160e01b03198216637965db0b60e01b148061065757506301ffc9a760e01b6001600160e01b03198316145b92915050565b6000805160206136508339815191526106768133612259565b6001600160a01b0382166000908152600760205260408120549081136106d95760405162461bcd60e51b81526020600482015260136024820152726e6f7468696e6720746f20776974686472617760681b60448201526064015b60405180910390fd5b6001600160a01b0383166000908152600a602052604090208190556106ff8482856122bd565b50506001600160a01b031660009081526007602052604081205550565b60006107288133612259565b8151610733906116cf565b61074082602001516116cf565b60005b60025460ff90811690821610156107d15760ff81166000908152600c60205260409020835181546001600160a01b0390811691161480156107985750602084015160018201546001600160a01b039081169116145b156107be5780546001600160a01b03199081168255600190910180549091169055505050565b50806107c9816135dd565b915050610743565b505050565b60006107e28133612259565b61080c7ffd0eee74c7609b4290ae42cfa22435eabf285017ea12017ed27c2e820eae6a7783612315565b5050565b6000805160206136508339815191526108298133612259565b81516001805414156108745780156108745760405162461bcd60e51b815260206004820152600e60248201526d1b9bdd1a1a5b99c81d1bc81cd95d60921b60448201526064016106d0565b60005b8181101561094a5760008482815181106108a157634e487b7160e01b600052603260045260246000fd5b602090810291909101810151908101805160408051630c07447960e21b81528451600482015292516001600160a01b0390811660248501529084015160ff166044840152606084015161ffff166064840152929350919091169063301d11e490608401600060405180830381600087803b15801561091e57600080fd5b505af1158015610932573d6000803e3d6000fd5b50505050508080610942906135c2565b915050610877565b50505050565b7ffd0eee74c7609b4290ae42cfa22435eabf285017ea12017ed27c2e820eae6a7761097b8133612259565b816109df5761098983610d86565b6109df5760405162461bcd60e51b815260206004820152602160248201527f52656c656173656420616d6f756e74206e6f7420617661696c61626c652079656044820152601d60fa1b60648201526084016106d0565b6109ea8585856122bd565b5050505050565b600082815260208190526040902060010154610a0d8133612259565b6107d1838361231b565b6000610a238133612259565b8151610a2e906107d6565b610a3b82602001516107d6565b600b805460ff9081166000908152600c60209081526040808320875181546001600160a01b03199081166001600160a01b03928316178355938901516001830180548616918316919091179055918801516002820180548516918416919091179055606088015160039091018054909316911617905582549091169190610ac1836135dd565b82546101009290920a60ff8181021990931691831602179091556002541615159050610bae576040828101516002805460ff9081166000908152600360205293842080546001600160a01b0319166001600160a01b0390941693909317909255805490911691610b30836135dd565b82546101009290920a60ff8181021990931691831602179091556060840151600280548316600090815260036020526040812080546001600160a01b0319166001600160a01b039094169390931790925580549092169250610b91836135dd565b91906101000a81548160ff021916908360ff160217905550505050565b60008060005b60025460ff9081169082161015610c385760408086015160ff83166000908152600360205291909120546001600160a01b0390811691161415610bf657600192505b606085015160ff82166000908152600360205260409020546001600160a01b0390811691161415610c2657600191505b80610c30816135dd565b915050610bb4565b5081610ca1576040848101516002805460ff9081166000908152600360205293842080546001600160a01b0319166001600160a01b0390941693909317909255805490911691610c87836135dd565b91906101000a81548160ff021916908360ff160217905550505b8061094a5760608401516002805460ff908116600090815260036020526040812080546001600160a01b0319166001600160a01b039095169490941790935581541691610ced836135dd565b91906101000a81548160ff021916908360ff1602179055505050505050565b6001600160a01b0381163314610d7c5760405162461bcd60e51b815260206004820152602f60248201527f416363657373436f6e74726f6c3a2063616e206f6e6c792072656e6f756e636560448201526e103937b632b9903337b91039b2b63360891b60648201526084016106d0565b61080c828261239f565b6001600160a01b038116600090815260076020526040812054818112610daf5750600192915050565b6000610dba84612404565b905080610dcb575060009392505050565b6000610dd6856124a8565b610de0908461347a565b1215949350505050565b600080516020613650833981519152610e038133612259565b8151600154600210610e50578015610e505760405162461bcd60e51b815260206004820152601060248201526f1b9bc81b585d1d5c9959081c9bdd5b9960821b60448201526064016106d0565b60005b818110156113ba576000848281518110610e7d57634e487b7160e01b600052603260045260246000fd5b60200260200101519050600080610e9c8360000151846020015161253a565b8451602086015192945090925090610eb2612cb7565b610eba612cb7565b600087604001516002811115610ee057634e487b7160e01b600052602160045260246000fd5b1415610fe65760405163186a4a1760e01b8152600060048201526001600160a01b0385169063186a4a179060240161012060405180830381600087803b158015610f2957600080fd5b505af1158015610f3d573d6000803e3d6000fd5b505050506040513d601f19601f82011682018060405250810190610f61919061301a565b60405163186a4a1760e01b8152600060048201529092506001600160a01b0384169063186a4a179060240161012060405180830381600087803b158015610fa757600080fd5b505af1158015610fbb573d6000803e3d6000fd5b505050506040513d601f19601f82011682018060405250810190610fdf919061301a565b905061110e565b60018760400151600281111561100c57634e487b7160e01b600052602160045260246000fd5b141561110e5760405163186a4a1760e01b8152600160048201526001600160a01b0385169063186a4a179060240161012060405180830381600087803b15801561105557600080fd5b505af1158015611069573d6000803e3d6000fd5b505050506040513d601f19601f8201168201806040525081019061108d919061301a565b60405163186a4a1760e01b8152600060048201529092506001600160a01b0384169063186a4a179060240161012060405180830381600087803b1580156110d357600080fd5b505af11580156110e7573d6000803e3d6000fd5b505050506040513d601f19601f8201168201806040525081019061110b919061301a565b90505b60028760400151600281111561113457634e487b7160e01b600052602160045260246000fd5b14156112365760405163186a4a1760e01b8152600060048201526001600160a01b0385169063186a4a179060240161012060405180830381600087803b15801561117d57600080fd5b505af1158015611191573d6000803e3d6000fd5b505050506040513d601f19601f820116820180604052508101906111b5919061301a565b60405163186a4a1760e01b8152600160048201529092506001600160a01b0384169063186a4a179060240161012060405180830381600087803b1580156111fb57600080fd5b505af115801561120f573d6000803e3d6000fd5b505050506040513d601f19601f82011682018060405250810190611233919061301a565b90505b815115611294576001600160a01b038616600090815260056020908152604090912054908301518351611275919061126f90849061264a565b9061264a565b6001600160a01b038816600090815260056020526040902055506112ee565b6040820151156112ee576001600160a01b038516600090815260056020526040908190205460608401519184015190916112d39161126f90849061264a565b6001600160a01b038716600090815260056020526040902055505b805115611346576001600160a01b038516600090815260056020908152604090912054908201518251611327919061126f90849061264a565b6001600160a01b038716600090815260056020526040902055506113a0565b6040810151156113a0576001600160a01b038616600090815260056020526040908190205460608301519183015190916113859161126f90849061264a565b6001600160a01b038816600090815260056020526040902055505b5050505050505080806113b2906135c2565b915050610e53565b5060018054111561151f5760005b600b5460ff908116908216101561151d5760ff81166000908152600c6020908152604091829020825160808101845281546001600160a01b03908116808352600184015482169483019490945260028301548116948201949094526003909101549092166060830152158015611449575060208101516001600160a01b0316155b15611454575061150b565b805160208201516040805163c02337df60e01b815290516001600160a01b0384169163c02337df91600480830192600092919082900301818387803b15801561149c57600080fd5b505af11580156114b0573d6000803e3d6000fd5b50505050806001600160a01b031663c02337df6040518163ffffffff1660e01b8152600401600060405180830381600087803b1580156114ef57600080fd5b505af1158015611503573d6000803e3d6000fd5b505050505050505b80611515816135dd565b9150506113c8565b505b60005b60025460ff908116908216101561094a5760ff81166000908152600360209081526040808320546001600160a01b031680845260058352818420546006845282852054600790945291842054600154919492939290916002146115a357838361158a876124a8565b6115949190613540565b61159e919061347a565b6115a6565b60005b90506115b2818361347a565b6001600160a01b0386166000908152600a602052604081205591506115d685612404565b6001600160a01b0386166000908152600860205260409020556115f88561265d565b6001600160a01b0386811660008181526009602090815260408083209590955584516080810186528881528082018a8152818701898152606083018681529585526004845287852083518155915160018301555160028201559351600390940180546001600160a01b0319169490951693909317909355600583528381208190556006909252918120558461168d858561347a565b6116979190613540565b6001600160a01b03909616600090815260076020526040902095909555508493506116c792508391506135dd9050565b915050611522565b60006116db8133612259565b61080c7ffd0eee74c7609b4290ae42cfa22435eabf285017ea12017ed27c2e820eae6a7783612233565b6000918252602082815260408084206001600160a01b0393909316845291905290205460ff1690565b6000805160206136508339815191526117478133612259565b60018054611754916134bb565b60015560005b600b5460ff908116908216101561080c5760ff81166000908152600c6020908152604091829020825160808101845281546001600160a01b039081168083526001840154821694830194909452600283015481169482019490945260039091015490921660608301521580156117db575060208101516001600160a01b0316155b156117e65750612221565b80516020820151600e54604051638cd8935960e01b81526000916001600160a01b03851691638cd89359916118219160040190815260200190565b602060405180830381600087803b15801561183b57600080fd5b505af115801561184f573d6000803e3d6000fd5b505050506040513d601f19601f8201168201806040525081019061187391906131bf565b90506000826001600160a01b0316638cd89359600e546040518263ffffffff1660e01b81526004016118a791815260200190565b602060405180830381600087803b1580156118c157600080fd5b505af11580156118d5573d6000803e3d6000fd5b505050506040513d601f19601f820116820180604052508101906118f991906131bf565b90508115611942576040808601516001600160a01b0316600090815260066020522054611926908361264a565b6040808701516001600160a01b03166000908152600660205220555b801561198d5760608501516001600160a01b031660009081526006602052604090205461196f908261264a565b60608601516001600160a01b03166000908152600660205260409020555b6002600154116119a1575050505050612221565b60405163135ad96960e01b8152600060048201819052906001600160a01b0386169063135ad969906024016101806040518083038186803b1580156119e557600080fd5b505afa1580156119f9573d6000803e3d6000fd5b505050506040513d601f19601f82011682018060405250810190611a1d9190613118565b60405163135ad96960e01b81526000600482018190529192506001600160a01b0386169063135ad969906024016101806040518083038186803b158015611a6357600080fd5b505afa158015611a77573d6000803e3d6000fd5b505050506040513d601f19601f82011682018060405250810190611a9b9190613118565b90506000604051806060016040528084815260200183815260200160006002811115611ad757634e487b7160e01b600052602160045260246000fd5b9052905080600d6000611aeb8c6003613517565b60ff1660ff168152602001908152602001600020600082015181600001600082015181600001556020820151816001015560408201518160020155606082015181600301556080820151816004015560a0820151816005015560c0820151816006015560e082015181600701556101008201518160080155610120820151816009015561014082015181600a0160006101000a8154816001600160a01b0302191690836001600160a01b0316021790555061016082015181600a0160146101000a81548160ff0219169083151502179055505050602082015181600b01600082015181600001556020820151816001015560408201518160020155606082015181600301556080820151816004015560a0820151816005015560c0820151816006015560e082015181600701556101008201518160080155610120820151816009015561014082015181600a0160006101000a8154816001600160a01b0302191690836001600160a01b0316021790555061016082015181600a0160146101000a81548160ff021916908315150217905550505060408201518160160160006101000a81548160ff02191690836002811115611cb757634e487b7160e01b600052602160045260246000fd5b02179055505060405163135ad96960e01b815260016004820152600091506001600160a01b0389169063135ad969906024016101806040518083038186803b158015611d0257600080fd5b505afa158015611d16573d6000803e3d6000fd5b505050506040513d601f19601f82011682018060405250810190611d3a9190613118565b90506000604051806060016040528083815260200185815260200160016002811115611d7657634e487b7160e01b600052602160045260246000fd5b9052905080600d6000611d8a8e6003613517565b611d959060016134d3565b60ff1660ff168152602001908152602001600020600082015181600001600082015181600001556020820151816001015560408201518160020155606082015181600301556080820151816004015560a0820151816005015560c0820151816006015560e082015181600701556101008201518160080155610120820151816009015561014082015181600a0160006101000a8154816001600160a01b0302191690836001600160a01b0316021790555061016082015181600a0160146101000a81548160ff0219169083151502179055505050602082015181600b01600082015181600001556020820151816001015560408201518160020155606082015181600301556080820151816004015560a0820151816005015560c0820151816006015560e082015181600701556101008201518160080155610120820151816009015561014082015181600a0160006101000a8154816001600160a01b0302191690836001600160a01b0316021790555061016082015181600a0160146101000a81548160ff021916908315150217905550505060408201518160160160006101000a81548160ff02191690836002811115611f6157634e487b7160e01b600052602160045260246000fd5b02179055505060405163135ad96960e01b815260016004820152600091506001600160a01b038a169063135ad969906024016101806040518083038186803b158015611fac57600080fd5b505afa158015611fc0573d6000803e3d6000fd5b505050506040513d601f19601f82011682018060405250810190611fe49190613118565b90506000604051806060016040528088815260200183815260200160028081111561201f57634e487b7160e01b600052602160045260246000fd5b815250905080600d60008f60036120369190613517565b6120419060026134d3565b60ff1660ff168152602001908152602001600020600082015181600001600082015181600001556020820151816001015560408201518160020155606082015181600301556080820151816004015560a0820151816005015560c0820151816006015560e082015181600701556101008201518160080155610120820151816009015561014082015181600a0160006101000a8154816001600160a01b0302191690836001600160a01b0316021790555061016082015181600a0160146101000a81548160ff0219169083151502179055505050602082015181600b01600082015181600001556020820151816001015560408201518160020155606082015181600301556080820151816004015560a0820151816005015560c0820151816006015560e082015181600701556101008201518160080155610120820151816009015561014082015181600a0160006101000a8154816001600160a01b0302191690836001600160a01b0316021790555061016082015181600a0160146101000a81548160ff021916908315150217905550505060408201518160160160006101000a81548160ff0219169083600281111561220d57634e487b7160e01b600052602160045260246000fd5b021790555050505050505050505050505050505b8061222b816135dd565b91505061175a565b60008281526020819052604090206001015461224f8133612259565b6107d1838361239f565b6122638282611705565b61080c5761227b816001600160a01b03166014612850565b612286836020612850565b60405160200161229792919061329f565b60408051601f198184030181529082905262461bcd60e51b82526106d091600401613314565b6001600160a01b038116612301576040516001600160a01b0384169083156108fc029084906000818181858888f1935050505015801561094a573d6000803e3d6000fd5b6107d16001600160a01b0382168484612a32565b61080c82825b6123258282611705565b61080c576000828152602081815260408083206001600160a01b03851684529091529020805460ff1916600117905561235b3390565b6001600160a01b0316816001600160a01b0316837f2f8788117e7eff1d82e926ec794901d17c78024a50270940304540a733656f0d60405160405180910390a45050565b6123a98282611705565b1561080c576000828152602081815260408083206001600160a01b0385168085529252808320805460ff1916905551339285917ff6391f5c32d9c69d2a47ea670b442974b53935d1edc7fd64eb21e047a839171b9190a45050565b60006001600160a01b0382161561249c576001600160a01b0382166370a08231306040516001600160e01b031960e084901b1681526001600160a01b03909116600482015260240160206040518083038186803b15801561246457600080fd5b505afa158015612478573d6000803e3d6000fd5b505050506040513d601f19601f8201168201806040525081019061065791906131bf565b5050303190565b919050565b6000806124b483612404565b6001600160a01b038416600090815260086020908152604080832054600990925282205492935091906124e68661265d565b6001600160a01b0387166000908152600a60205260408120549192508361250d848761347a565b6125179190613540565b9050816125248288613540565b61252e919061347a565b98975050505050505050565b60008060005b600b5460ff90811690821610156125fa5760ff81166000908152600c6020908152604091829020825160808101845281546001600160a01b0390811680835260018401548216948301949094526002830154811694820194909452600390910154831660608201529187161480156125cd5750846001600160a01b031681602001516001600160a01b0316145b156125e75780604001518160600151935093505050612643565b50806125f2816135dd565b915050612540565b5060405162461bcd60e51b815260206004820152601c60248201527f696e76616c69642063616c6c4f7074696f6e2f7075744f7074696f6e0000000060448201526064016106d0565b9250929050565b600061265682846134bb565b9392505050565b600080805b600b5460ff90811690821610156128495760ff81166000908152600c6020908152604091829020825160808101845281546001600160a01b039081168083526001840154821694830194909452600283015481169482019490945260039091015490921660608301521580156126e3575060208101516001600160a01b0316155b156126ee5750612837565b846001600160a01b031681604001516001600160a01b031614806127275750846001600160a01b031681606001516001600160a01b0316145b15612835576020810151604051631966357360e11b81526001600160a01b0387811660048301526128329216906332cc6ae69060240160206040518083038186803b15801561277557600080fd5b505afa158015612789573d6000803e3d6000fd5b505050506040513d601f19601f820116820180604052508101906127ad91906131bf565b8251604051631966357360e11b81526001600160a01b03898116600483015261126f9216906332cc6ae69060240160206040518083038186803b1580156127f357600080fd5b505afa158015612807573d6000803e3d6000fd5b505050506040513d601f19601f8201168201806040525081019061282b91906131bf565b869061264a565b92505b505b80612841816135dd565b915050612662565b5092915050565b6060600061285f8360026134f8565b61286a9060026134bb565b67ffffffffffffffff81111561289057634e487b7160e01b600052604160045260246000fd5b6040519080825280601f01601f1916602001820160405280156128ba576020820181803683370190505b509050600360fc1b816000815181106128e357634e487b7160e01b600052603260045260246000fd5b60200101906001600160f81b031916908160001a905350600f60fb1b8160018151811061292057634e487b7160e01b600052603260045260246000fd5b60200101906001600160f81b031916908160001a90535060006129448460026134f8565b61294f9060016134bb565b90505b60018111156129e3576f181899199a1a9b1b9c1cb0b131b232b360811b85600f166010811061299157634e487b7160e01b600052603260045260246000fd5b1a60f81b8282815181106129b557634e487b7160e01b600052603260045260246000fd5b60200101906001600160f81b031916908160001a90535060049490941c936129dc816135ab565b9050612952565b5083156126565760405162461bcd60e51b815260206004820181905260248201527f537472696e67733a20686578206c656e67746820696e73756666696369656e7460448201526064016106d0565b604080516001600160a01b03848116602483015260448083018590528351808403909101815260649092018352602080830180516001600160e01b031663a9059cbb60e01b17905283518085019094528084527f5361666545524332303a206c6f772d6c6576656c2063616c6c206661696c6564908401526107d192869291600091612ac2918516908490612b3f565b8051909150156107d15780806020019051810190612ae09190612f9a565b6107d15760405162461bcd60e51b815260206004820152602a60248201527f5361666545524332303a204552433230206f7065726174696f6e20646964206e6044820152691bdd081cdd58d8d9595960b21b60648201526084016106d0565b6060612b4e8484600085612b56565b949350505050565b606082471015612bb75760405162461bcd60e51b815260206004820152602660248201527f416464726573733a20696e73756666696369656e742062616c616e636520666f6044820152651c8818d85b1b60d21b60648201526084016106d0565b843b612c055760405162461bcd60e51b815260206004820152601d60248201527f416464726573733a2063616c6c20746f206e6f6e2d636f6e747261637400000060448201526064016106d0565b600080866001600160a01b03168587604051612c219190613283565b60006040518083038185875af1925050503d8060008114612c5e576040519150601f19603f3d011682016040523d82523d6000602084013e612c63565b606091505b5091509150612c73828286612c7e565b979650505050505050565b60608315612c8d575081612656565b825115612c9d5782518084602001fd5b8160405162461bcd60e51b81526004016106d09190613314565b6040518061012001604052806000815260200160008152602001600081526020016000815260200160008152602001600081526020016000815260200160008152602001600081525090565b80516124a381613629565b80516124a381613641565b803560ff811681146124a357600080fd5b600060208284031215612d3b578081fd5b813561265681613629565b60008060408385031215612d58578081fd5b8235612d6381613629565b91506020830135612d7381613629565b809150509250929050565b60008060008060808587031215612d93578182fd5b8435612d9e81613629565b9350602085013592506040850135612db581613629565b91506060850135612dc581613641565b939692955090935050565b60006020808385031215612de2578182fd5b823567ffffffffffffffff811115612df8578283fd5b8301601f81018513612e08578283fd5b8035612e1b612e1682613456565b613425565b818152838101908385016060808502860187018a1015612e39578788fd5b8795505b84861015612ea55780828b031215612e53578788fd5b612e5b613391565b8235612e6681613629565b815282880135612e7581613629565b8189015260408381013560038110612e8b578a8bfd5b908201528452600195909501949286019290810190612e3d565b509098975050505050505050565b60006020808385031215612ec5578182fd5b823567ffffffffffffffff811115612edb578283fd5b8301601f81018513612eeb578283fd5b8035612ef9612e1682613456565b80828252848201915084840188868560071b8701011115612f18578687fd5b8694505b83851015612f8e57608080828b031215612f34578788fd5b612f3c6133ba565b8235815287830135612f4d81613629565b818901526040612f5e848201612d19565b9082015260608381013561ffff81168114612f77578a8bfd5b908201528452600195909501949286019201612f1c565b50979650505050505050565b600060208284031215612fab578081fd5b815161265681613641565b600060208284031215612fc7578081fd5b5035919050565b60008060408385031215612fe0578182fd5b823591506020830135612d7381613629565b600060208284031215613003578081fd5b81356001600160e01b031981168114612656578182fd5b6000610120828403121561302c578081fd5b6130346133dd565b825181526020830151602082015260408301516040820152606083015160608201526080830151608082015260a083015160a082015260c083015160c082015260e083015160e08201526101008084015181830152508091505092915050565b6000608082840312156130a5578081fd5b6040516080810181811067ffffffffffffffff821117156130c8576130c8613613565b60405282356130d681613629565b815260208301356130e681613629565b602082015260408301356130f981613629565b6040820152606083013561310c81613629565b60608201529392505050565b6000610180828403121561312a578081fd5b613132613401565b825181526020830151602082015260408301516040820152606083015160608201526080830151608082015260a083015160a082015260c083015160c082015260e083015160e08201526101008084015181830152506101208084015181830152506101406131a2818501612d03565b908201526101606131b4848201612d0e565b908201529392505050565b6000602082840312156131d0578081fd5b5051919050565b6000602082840312156131e8578081fd5b61265682612d19565b805182526020810151602083015260408101516040830152606081015160608301526080810151608083015260a081015160a083015260c081015160c083015260e081015160e08301526101008082015181840152506101208082015181840152506101408082015161326e828501826001600160a01b03169052565b5050610160818101518015158483015261094a565b6000825161329581846020870161357f565b9190910192915050565b7f416363657373436f6e74726f6c3a206163636f756e74200000000000000000008152600083516132d781601785016020880161357f565b7001034b99036b4b9b9b4b733903937b6329607d1b601791840191820152835161330881602884016020880161357f565b01602801949350505050565b602081526000825180602084015261333381604085016020870161357f565b601f01601f19169190910160400192915050565b610320810161335682866131f1565b6133646101808301856131f1565b6003831061338257634e487b7160e01b600052602160045260246000fd5b82610300830152949350505050565b6040516060810167ffffffffffffffff811182821017156133b4576133b4613613565b60405290565b6040516080810167ffffffffffffffff811182821017156133b4576133b4613613565b604051610120810167ffffffffffffffff811182821017156133b4576133b4613613565b604051610180810167ffffffffffffffff811182821017156133b4576133b4613613565b604051601f8201601f1916810167ffffffffffffffff8111828210171561344e5761344e613613565b604052919050565b600067ffffffffffffffff82111561347057613470613613565b5060051b60200190565b600080821280156001600160ff1b038490038513161561349c5761349c6135fd565b600160ff1b83900384128116156134b5576134b56135fd565b50500190565b600082198211156134ce576134ce6135fd565b500190565b600060ff821660ff84168060ff038211156134f0576134f06135fd565b019392505050565b6000816000190483118215151615613512576135126135fd565b500290565b600060ff821660ff84168160ff0481118215151615613538576135386135fd565b029392505050565b60008083128015600160ff1b85018412161561355e5761355e6135fd565b6001600160ff1b0384018313811615613579576135796135fd565b50500390565b60005b8381101561359a578181015183820152602001613582565b8381111561094a5750506000910152565b6000816135ba576135ba6135fd565b506000190190565b60006000198214156135d6576135d66135fd565b5060010190565b600060ff821660ff8114156135f4576135f46135fd565b60010192915050565b634e487b7160e01b600052601160045260246000fd5b634e487b7160e01b600052604160045260246000fd5b6001600160a01b038116811461363e57600080fd5b50565b801515811461363e57600080fdfe6666bf5bfee463d10a7fc50448047f8a53b7762d7e28fbc5c643182785f3fd3fa26469706673582212200ef4000e927e4eb3daf23dc4d38dbe604ee76e90e006f188ea4d6a41b1dbbe1a64736f6c63430008040033",
  "devdoc": {
    "kind": "dev",
    "methods": {
      "getRoleAdmin(bytes32)": {
        "details": "Returns the admin role that controls `role`. See {grantRole} and {revokeRole}. To change a role's admin, use {_setRoleAdmin}."
      },
      "grantRole(bytes32,address)": {
        "details": "Grants `role` to `account`. If `account` had not been already granted `role`, emits a {RoleGranted} event. Requirements: - the caller must have ``role``'s admin role."
      },
      "hasRole(bytes32,address)": {
        "details": "Returns `true` if `account` has been granted `role`."
      },
      "renounceRole(bytes32,address)": {
        "details": "Revokes `role` from the calling account. Roles are often managed via {grantRole} and {revokeRole}: this function's purpose is to provide a mechanism for accounts to lose their privileges if they are compromised (such as when a trusted device is misplaced). If the calling account had been granted `role`, emits a {RoleRevoked} event. Requirements: - the caller must be `account`."
      },
      "revokeRole(bytes32,address)": {
        "details": "Revokes `role` from `account`. If `account` had been granted `role`, emits a {RoleRevoked} event. Requirements: - the caller must have ``role``'s admin role."
      },
      "supportsInterface(bytes4)": {
        "details": "See {IERC165-supportsInterface}."
      }
    },
    "version": 1
  },
  "userdoc": {
    "kind": "user",
    "methods": {},
    "version": 1
  },
  "storageLayout": {
    "storage": [
      {
        "astId": 1642,
        "contract": "contracts/OptionVault.sol:OptionVault",
        "label": "_roles",
        "offset": 0,
        "slot": "0",
        "type": "t_mapping(t_bytes32,t_struct(RoleData)1637_storage)"
      },
      {
        "astId": 3878,
        "contract": "contracts/OptionVault.sol:OptionVault",
        "label": "currentRound",
        "offset": 0,
        "slot": "1",
        "type": "t_uint256"
      },
      {
        "astId": 3880,
        "contract": "contracts/OptionVault.sol:OptionVault",
        "label": "assetCount",
        "offset": 0,
        "slot": "2",
        "type": "t_uint8"
      },
      {
        "astId": 3884,
        "contract": "contracts/OptionVault.sol:OptionVault",
        "label": "asset",
        "offset": 0,
        "slot": "3",
        "type": "t_mapping(t_uint8,t_address)"
      },
      {
        "astId": 3889,
        "contract": "contracts/OptionVault.sol:OptionVault",
        "label": "settlementCashflowResult",
        "offset": 0,
        "slot": "4",
        "type": "t_mapping(t_address,t_struct(SettlementCashflowResult)13909_storage)"
      },
      {
        "astId": 3893,
        "contract": "contracts/OptionVault.sol:OptionVault",
        "label": "releasedAmount",
        "offset": 0,
        "slot": "5",
        "type": "t_mapping(t_address,t_uint256)"
      },
      {
        "astId": 3897,
        "contract": "contracts/OptionVault.sol:OptionVault",
        "label": "depositAmount",
        "offset": 0,
        "slot": "6",
        "type": "t_mapping(t_address,t_uint256)"
      },
      {
        "astId": 3901,
        "contract": "contracts/OptionVault.sol:OptionVault",
        "label": "leftOverAmount",
        "offset": 0,
        "slot": "7",
        "type": "t_mapping(t_address,t_int256)"
      },
      {
        "astId": 3905,
        "contract": "contracts/OptionVault.sol:OptionVault",
        "label": "assetBalanceAfterSettle",
        "offset": 0,
        "slot": "8",
        "type": "t_mapping(t_address,t_uint256)"
      },
      {
        "astId": 3909,
        "contract": "contracts/OptionVault.sol:OptionVault",
        "label": "assetWithdrawableAfterSettle",
        "offset": 0,
        "slot": "9",
        "type": "t_mapping(t_address,t_uint256)"
      },
      {
        "astId": 3913,
        "contract": "contracts/OptionVault.sol:OptionVault",
        "label": "assetTraderWithdrawn",
        "offset": 0,
        "slot": "10",
        "type": "t_mapping(t_address,t_uint256)"
      },
      {
        "astId": 3915,
        "contract": "contracts/OptionVault.sol:OptionVault",
        "label": "optionPairCount",
        "offset": 0,
        "slot": "11",
        "type": "t_uint8"
      },
      {
        "astId": 3920,
        "contract": "contracts/OptionVault.sol:OptionVault",
        "label": "optionPairs",
        "offset": 0,
        "slot": "12",
        "type": "t_mapping(t_uint8,t_struct(OptionPairDefinition)13853_storage)"
      },
      {
        "astId": 3925,
        "contract": "contracts/OptionVault.sol:OptionVault",
        "label": "executionAccountingResult",
        "offset": 0,
        "slot": "13",
        "type": "t_mapping(t_uint8,t_struct(OptionPairExecutionAccountingResult)13892_storage)"
      },
      {
        "astId": 4261,
        "contract": "contracts/OptionVault.sol:OptionVault",
        "label": "MAX_INT",
        "offset": 0,
        "slot": "14",
        "type": "t_uint256"
      }
    ],
    "types": {
      "t_address": {
        "encoding": "inplace",
        "label": "address",
        "numberOfBytes": "20"
      },
      "t_bool": {
        "encoding": "inplace",
        "label": "bool",
        "numberOfBytes": "1"
      },
      "t_bytes32": {
        "encoding": "inplace",
        "label": "bytes32",
        "numberOfBytes": "32"
      },
      "t_enum(OptionExecution)13882": {
        "encoding": "inplace",
        "label": "enum StructureData.OptionExecution",
        "numberOfBytes": "1"
      },
      "t_int256": {
        "encoding": "inplace",
        "label": "int256",
        "numberOfBytes": "32"
      },
      "t_mapping(t_address,t_bool)": {
        "encoding": "mapping",
        "key": "t_address",
        "label": "mapping(address => bool)",
        "numberOfBytes": "32",
        "value": "t_bool"
      },
      "t_mapping(t_address,t_int256)": {
        "encoding": "mapping",
        "key": "t_address",
        "label": "mapping(address => int256)",
        "numberOfBytes": "32",
        "value": "t_int256"
      },
      "t_mapping(t_address,t_struct(SettlementCashflowResult)13909_storage)": {
        "encoding": "mapping",
        "key": "t_address",
        "label": "mapping(address => struct StructureData.SettlementCashflowResult)",
        "numberOfBytes": "32",
        "value": "t_struct(SettlementCashflowResult)13909_storage"
      },
      "t_mapping(t_address,t_uint256)": {
        "encoding": "mapping",
        "key": "t_address",
        "label": "mapping(address => uint256)",
        "numberOfBytes": "32",
        "value": "t_uint256"
      },
      "t_mapping(t_bytes32,t_struct(RoleData)1637_storage)": {
        "encoding": "mapping",
        "key": "t_bytes32",
        "label": "mapping(bytes32 => struct AccessControl.RoleData)",
        "numberOfBytes": "32",
        "value": "t_struct(RoleData)1637_storage"
      },
      "t_mapping(t_uint8,t_address)": {
        "encoding": "mapping",
        "key": "t_uint8",
        "label": "mapping(uint8 => address)",
        "numberOfBytes": "32",
        "value": "t_address"
      },
      "t_mapping(t_uint8,t_struct(OptionPairDefinition)13853_storage)": {
        "encoding": "mapping",
        "key": "t_uint8",
        "label": "mapping(uint8 => struct StructureData.OptionPairDefinition)",
        "numberOfBytes": "32",
        "value": "t_struct(OptionPairDefinition)13853_storage"
      },
      "t_mapping(t_uint8,t_struct(OptionPairExecutionAccountingResult)13892_storage)": {
        "encoding": "mapping",
        "key": "t_uint8",
        "label": "mapping(uint8 => struct StructureData.OptionPairExecutionAccountingResult)",
        "numberOfBytes": "32",
        "value": "t_struct(OptionPairExecutionAccountingResult)13892_storage"
      },
      "t_struct(OptionPairDefinition)13853_storage": {
        "encoding": "inplace",
        "label": "struct StructureData.OptionPairDefinition",
        "members": [
          {
            "astId": 13846,
            "contract": "contracts/OptionVault.sol:OptionVault",
            "label": "callOption",
            "offset": 0,
            "slot": "0",
            "type": "t_address"
          },
          {
            "astId": 13848,
            "contract": "contracts/OptionVault.sol:OptionVault",
            "label": "putOption",
            "offset": 0,
            "slot": "1",
            "type": "t_address"
          },
          {
            "astId": 13850,
            "contract": "contracts/OptionVault.sol:OptionVault",
            "label": "callOptionDeposit",
            "offset": 0,
            "slot": "2",
            "type": "t_address"
          },
          {
            "astId": 13852,
            "contract": "contracts/OptionVault.sol:OptionVault",
            "label": "putOptionDeposit",
            "offset": 0,
            "slot": "3",
            "type": "t_address"
          }
        ],
        "numberOfBytes": "128"
      },
      "t_struct(OptionPairExecutionAccountingResult)13892_storage": {
        "encoding": "inplace",
        "label": "struct StructureData.OptionPairExecutionAccountingResult",
        "members": [
          {
            "astId": 13885,
            "contract": "contracts/OptionVault.sol:OptionVault",
            "label": "callOptionResult",
            "offset": 0,
            "slot": "0",
            "type": "t_struct(SettlementAccountingResult)13878_storage"
          },
          {
            "astId": 13888,
            "contract": "contracts/OptionVault.sol:OptionVault",
            "label": "putOptionResult",
            "offset": 0,
            "slot": "11",
            "type": "t_struct(SettlementAccountingResult)13878_storage"
          },
          {
            "astId": 13891,
            "contract": "contracts/OptionVault.sol:OptionVault",
            "label": "execute",
            "offset": 0,
            "slot": "22",
            "type": "t_enum(OptionExecution)13882"
          }
        ],
        "numberOfBytes": "736"
      },
      "t_struct(RoleData)1637_storage": {
        "encoding": "inplace",
        "label": "struct AccessControl.RoleData",
        "members": [
          {
            "astId": 1634,
            "contract": "contracts/OptionVault.sol:OptionVault",
            "label": "members",
            "offset": 0,
            "slot": "0",
            "type": "t_mapping(t_address,t_bool)"
          },
          {
            "astId": 1636,
            "contract": "contracts/OptionVault.sol:OptionVault",
            "label": "adminRole",
            "offset": 0,
            "slot": "1",
            "type": "t_bytes32"
          }
        ],
        "numberOfBytes": "64"
      },
      "t_struct(SettlementAccountingResult)13878_storage": {
        "encoding": "inplace",
        "label": "struct StructureData.SettlementAccountingResult",
        "members": [
          {
            "astId": 13855,
            "contract": "contracts/OptionVault.sol:OptionVault",
            "label": "round",
            "offset": 0,
            "slot": "0",
            "type": "t_uint256"
          },
          {
            "astId": 13857,
            "contract": "contracts/OptionVault.sol:OptionVault",
            "label": "depositAmount",
            "offset": 0,
            "slot": "1",
            "type": "t_uint256"
          },
          {
            "astId": 13859,
            "contract": "contracts/OptionVault.sol:OptionVault",
            "label": "autoRollAmount",
            "offset": 0,
            "slot": "2",
            "type": "t_uint256"
          },
          {
            "astId": 13861,
            "contract": "contracts/OptionVault.sol:OptionVault",
            "label": "autoRollPremium",
            "offset": 0,
            "slot": "3",
            "type": "t_uint256"
          },
          {
            "astId": 13863,
            "contract": "contracts/OptionVault.sol:OptionVault",
            "label": "releasedAmount",
            "offset": 0,
            "slot": "4",
            "type": "t_uint256"
          },
          {
            "astId": 13865,
            "contract": "contracts/OptionVault.sol:OptionVault",
            "label": "releasedPremium",
            "offset": 0,
            "slot": "5",
            "type": "t_uint256"
          },
          {
            "astId": 13867,
            "contract": "contracts/OptionVault.sol:OptionVault",
            "label": "autoRollCounterPartyAmount",
            "offset": 0,
            "slot": "6",
            "type": "t_uint256"
          },
          {
            "astId": 13869,
            "contract": "contracts/OptionVault.sol:OptionVault",
            "label": "autoRollCounterPartyPremium",
            "offset": 0,
            "slot": "7",
            "type": "t_uint256"
          },
          {
            "astId": 13871,
            "contract": "contracts/OptionVault.sol:OptionVault",
            "label": "releasedCounterPartyAmount",
            "offset": 0,
            "slot": "8",
            "type": "t_uint256"
          },
          {
            "astId": 13873,
            "contract": "contracts/OptionVault.sol:OptionVault",
            "label": "releasedCounterPartyPremium",
            "offset": 0,
            "slot": "9",
            "type": "t_uint256"
          },
          {
            "astId": 13875,
            "contract": "contracts/OptionVault.sol:OptionVault",
            "label": "option",
            "offset": 0,
            "slot": "10",
            "type": "t_address"
          },
          {
            "astId": 13877,
            "contract": "contracts/OptionVault.sol:OptionVault",
            "label": "executed",
            "offset": 20,
            "slot": "10",
            "type": "t_bool"
          }
        ],
        "numberOfBytes": "352"
      },
      "t_struct(SettlementCashflowResult)13909_storage": {
        "encoding": "inplace",
        "label": "struct StructureData.SettlementCashflowResult",
        "members": [
          {
            "astId": 13902,
            "contract": "contracts/OptionVault.sol:OptionVault",
            "label": "newDepositAmount",
            "offset": 0,
            "slot": "0",
            "type": "t_uint256"
          },
          {
            "astId": 13904,
            "contract": "contracts/OptionVault.sol:OptionVault",
            "label": "newReleasedAmount",
            "offset": 0,
            "slot": "1",
            "type": "t_uint256"
          },
          {
            "astId": 13906,
            "contract": "contracts/OptionVault.sol:OptionVault",
            "label": "leftOverAmount",
            "offset": 0,
            "slot": "2",
            "type": "t_int256"
          },
          {
            "astId": 13908,
            "contract": "contracts/OptionVault.sol:OptionVault",
            "label": "contractAddress",
            "offset": 0,
            "slot": "3",
            "type": "t_address"
          }
        ],
        "numberOfBytes": "128"
      },
      "t_uint256": {
        "encoding": "inplace",
        "label": "uint256",
        "numberOfBytes": "32"
      },
      "t_uint8": {
        "encoding": "inplace",
        "label": "uint8",
        "numberOfBytes": "1"
      }
    }
  }
}