{
  "address": "0x5302E909d1e93e30F05B5D6Eea766363D14F9892",
  "abi": [
    {
      "inputs": [
        {
          "internalType": "address",
          "name": "_settler",
          "type": "address"
        }
      ],
      "stateMutability": "nonpayable",
      "type": "constructor"
    },
    {
      "anonymous": false,
      "inputs": [
        {
          "indexed": true,
          "internalType": "address",
          "name": "source",
          "type": "address"
        },
        {
          "indexed": false,
          "internalType": "uint256",
          "name": "amount",
          "type": "uint256"
        }
      ],
      "name": "Received",
      "type": "event"
    },
    {
      "anonymous": false,
      "inputs": [
        {
          "indexed": true,
          "internalType": "bytes32",
          "name": "role",
          "type": "bytes32"
        },
        {
          "indexed": true,
          "internalType": "bytes32",
          "name": "previousAdminRole",
          "type": "bytes32"
        },
        {
          "indexed": true,
          "internalType": "bytes32",
          "name": "newAdminRole",
          "type": "bytes32"
        }
      ],
      "name": "RoleAdminChanged",
      "type": "event"
    },
    {
      "anonymous": false,
      "inputs": [
        {
          "indexed": true,
          "internalType": "bytes32",
          "name": "role",
          "type": "bytes32"
        },
        {
          "indexed": true,
          "internalType": "address",
          "name": "account",
          "type": "address"
        },
        {
          "indexed": true,
          "internalType": "address",
          "name": "sender",
          "type": "address"
        }
      ],
      "name": "RoleGranted",
      "type": "event"
    },
    {
      "anonymous": false,
      "inputs": [
        {
          "indexed": true,
          "internalType": "bytes32",
          "name": "role",
          "type": "bytes32"
        },
        {
          "indexed": true,
          "internalType": "address",
          "name": "account",
          "type": "address"
        },
        {
          "indexed": true,
          "internalType": "address",
          "name": "sender",
          "type": "address"
        }
      ],
      "name": "RoleRevoked",
      "type": "event"
    },
    {
      "inputs": [],
      "name": "DEFAULT_ADMIN_ROLE",
      "outputs": [
        {
          "internalType": "bytes32",
          "name": "",
          "type": "bytes32"
        }
      ],
      "stateMutability": "view",
      "type": "function"
    },
    {
      "inputs": [],
      "name": "OPTION_ROLE",
      "outputs": [
        {
          "internalType": "bytes32",
          "name": "",
          "type": "bytes32"
        }
      ],
      "stateMutability": "view",
      "type": "function"
    },
    {
      "inputs": [],
      "name": "SETTLER_ROLE",
      "outputs": [
        {
          "internalType": "bytes32",
          "name": "",
          "type": "bytes32"
        }
      ],
      "stateMutability": "view",
      "type": "function"
    },
    {
      "inputs": [
        {
          "internalType": "address",
          "name": "_optionContract",
          "type": "address"
        }
      ],
      "name": "addOption",
      "outputs": [],
      "stateMutability": "nonpayable",
      "type": "function"
    },
    {
      "inputs": [
        {
          "components": [
            {
              "internalType": "address",
              "name": "callOption",
              "type": "address"
            },
            {
              "internalType": "address",
              "name": "putOption",
              "type": "address"
            },
            {
              "internalType": "address",
              "name": "callOptionDeposit",
              "type": "address"
            },
            {
              "internalType": "address",
              "name": "putOptionDeposit",
              "type": "address"
            }
          ],
          "internalType": "struct StructureData.OptionPairDefinition",
          "name": "_pair",
          "type": "tuple"
        }
      ],
      "name": "addOptionPair",
      "outputs": [],
      "stateMutability": "nonpayable",
      "type": "function"
    },
    {
      "inputs": [
        {
          "internalType": "address",
          "name": "_asset",
          "type": "address"
        }
      ],
      "name": "balanceEnough",
      "outputs": [
        {
          "internalType": "bool",
          "name": "",
          "type": "bool"
        }
      ],
      "stateMutability": "view",
      "type": "function"
    },
    {
      "inputs": [],
      "name": "currentRound",
      "outputs": [
        {
          "internalType": "uint256",
          "name": "",
          "type": "uint256"
        }
      ],
      "stateMutability": "view",
      "type": "function"
    },
    {
      "inputs": [
        {
          "internalType": "uint256",
          "name": "",
          "type": "uint256"
        }
      ],
      "name": "executionAccountingResult",
      "outputs": [
        {
          "components": [
            {
              "internalType": "address",
              "name": "option",
              "type": "address"
            },
            {
              "internalType": "uint256",
              "name": "round",
              "type": "uint256"
            },
            {
              "internalType": "uint256",
              "name": "depositAmount",
              "type": "uint256"
            },
            {
              "internalType": "bool",
              "name": "executed",
              "type": "bool"
            },
            {
              "internalType": "uint256",
              "name": "autoRollAmount",
              "type": "uint256"
            },
            {
              "internalType": "uint256",
              "name": "autoRollPremium",
              "type": "uint256"
            },
            {
              "internalType": "uint256",
              "name": "releasedAmount",
              "type": "uint256"
            },
            {
              "internalType": "uint256",
              "name": "releasedPremium",
              "type": "uint256"
            },
            {
              "internalType": "uint256",
              "name": "autoRollCounterPartyAmount",
              "type": "uint256"
            },
            {
              "internalType": "uint256",
              "name": "autoRollCounterPartyPremium",
              "type": "uint256"
            },
            {
              "internalType": "uint256",
              "name": "releasedCounterPartyAmount",
              "type": "uint256"
            },
            {
              "internalType": "uint256",
              "name": "releasedCounterPartyPremium",
              "type": "uint256"
            }
          ],
          "internalType": "struct StructureData.SettlementAccountingResult",
          "name": "callOptionResult",
          "type": "tuple"
        },
        {
          "components": [
            {
              "internalType": "address",
              "name": "option",
              "type": "address"
            },
            {
              "internalType": "uint256",
              "name": "round",
              "type": "uint256"
            },
            {
              "internalType": "uint256",
              "name": "depositAmount",
              "type": "uint256"
            },
            {
              "internalType": "bool",
              "name": "executed",
              "type": "bool"
            },
            {
              "internalType": "uint256",
              "name": "autoRollAmount",
              "type": "uint256"
            },
            {
              "internalType": "uint256",
              "name": "autoRollPremium",
              "type": "uint256"
            },
            {
              "internalType": "uint256",
              "name": "releasedAmount",
              "type": "uint256"
            },
            {
              "internalType": "uint256",
              "name": "releasedPremium",
              "type": "uint256"
            },
            {
              "internalType": "uint256",
              "name": "autoRollCounterPartyAmount",
              "type": "uint256"
            },
            {
              "internalType": "uint256",
              "name": "autoRollCounterPartyPremium",
              "type": "uint256"
            },
            {
              "internalType": "uint256",
              "name": "releasedCounterPartyAmount",
              "type": "uint256"
            },
            {
              "internalType": "uint256",
              "name": "releasedCounterPartyPremium",
              "type": "uint256"
            }
          ],
          "internalType": "struct StructureData.SettlementAccountingResult",
          "name": "putOptionResult",
          "type": "tuple"
        },
        {
          "internalType": "enum StructureData.OptionExecution",
          "name": "execute",
          "type": "uint8"
        }
      ],
      "stateMutability": "view",
      "type": "function"
    },
    {
      "inputs": [],
      "name": "getAddress",
      "outputs": [
        {
          "internalType": "address",
          "name": "",
          "type": "address"
        }
      ],
      "stateMutability": "view",
      "type": "function"
    },
    {
      "inputs": [
        {
          "internalType": "bytes32",
          "name": "role",
          "type": "bytes32"
        }
      ],
      "name": "getRoleAdmin",
      "outputs": [
        {
          "internalType": "bytes32",
          "name": "",
          "type": "bytes32"
        }
      ],
      "stateMutability": "view",
      "type": "function"
    },
    {
      "inputs": [
        {
          "internalType": "bytes32",
          "name": "role",
          "type": "bytes32"
        },
        {
          "internalType": "address",
          "name": "account",
          "type": "address"
        }
      ],
      "name": "grantRole",
      "outputs": [],
      "stateMutability": "nonpayable",
      "type": "function"
    },
    {
      "inputs": [
        {
          "internalType": "bytes32",
          "name": "role",
          "type": "bytes32"
        },
        {
          "internalType": "address",
          "name": "account",
          "type": "address"
        }
      ],
      "name": "hasRole",
      "outputs": [
        {
          "internalType": "bool",
          "name": "",
          "type": "bool"
        }
      ],
      "stateMutability": "view",
      "type": "function"
    },
    {
      "inputs": [],
      "name": "initiateSettlement",
      "outputs": [],
      "stateMutability": "nonpayable",
      "type": "function"
    },
    {
      "inputs": [
        {
          "internalType": "address",
          "name": "_optionContract",
          "type": "address"
        }
      ],
      "name": "removeOption",
      "outputs": [],
      "stateMutability": "nonpayable",
      "type": "function"
    },
    {
      "inputs": [
        {
          "components": [
            {
              "internalType": "address",
              "name": "callOption",
              "type": "address"
            },
            {
              "internalType": "address",
              "name": "putOption",
              "type": "address"
            },
            {
              "internalType": "address",
              "name": "callOptionDeposit",
              "type": "address"
            },
            {
              "internalType": "address",
              "name": "putOptionDeposit",
              "type": "address"
            }
          ],
          "internalType": "struct StructureData.OptionPairDefinition",
          "name": "_pair",
          "type": "tuple"
        }
      ],
      "name": "removeOptionPair",
      "outputs": [],
      "stateMutability": "nonpayable",
      "type": "function"
    },
    {
      "inputs": [
        {
          "internalType": "bytes32",
          "name": "role",
          "type": "bytes32"
        },
        {
          "internalType": "address",
          "name": "account",
          "type": "address"
        }
      ],
      "name": "renounceRole",
      "outputs": [],
      "stateMutability": "nonpayable",
      "type": "function"
    },
    {
      "inputs": [
        {
          "internalType": "bytes32",
          "name": "role",
          "type": "bytes32"
        },
        {
          "internalType": "address",
          "name": "account",
          "type": "address"
        }
      ],
      "name": "revokeRole",
      "outputs": [],
      "stateMutability": "nonpayable",
      "type": "function"
    },
    {
      "inputs": [
        {
          "components": [
            {
              "internalType": "address",
              "name": "option",
              "type": "address"
            },
            {
              "internalType": "uint256",
              "name": "strikePrice",
              "type": "uint256"
            },
            {
              "internalType": "uint8",
              "name": "pricePrecision",
              "type": "uint8"
            },
            {
              "internalType": "uint16",
              "name": "premiumRate",
              "type": "uint16"
            }
          ],
          "internalType": "struct StructureData.OptionParameters[]",
          "name": "_parameters",
          "type": "tuple[]"
        }
      ],
      "name": "setOptionParameters",
      "outputs": [],
      "stateMutability": "nonpayable",
      "type": "function"
    },
    {
      "inputs": [
        {
          "components": [
            {
              "internalType": "address",
              "name": "callOption",
              "type": "address"
            },
            {
              "internalType": "address",
              "name": "putOption",
              "type": "address"
            },
            {
              "internalType": "enum StructureData.OptionExecution",
              "name": "execute",
              "type": "uint8"
            }
          ],
          "internalType": "struct StructureData.OptionPairExecution[]",
          "name": "_execution",
          "type": "tuple[]"
        }
      ],
      "name": "settle",
      "outputs": [],
      "stateMutability": "nonpayable",
      "type": "function"
    },
    {
      "inputs": [
        {
          "internalType": "address",
          "name": "",
          "type": "address"
        }
      ],
      "name": "settlementCashflowResult",
      "outputs": [
        {
          "internalType": "address",
          "name": "contractAddress",
          "type": "address"
        },
        {
          "internalType": "uint256",
          "name": "newDepositAmount",
          "type": "uint256"
        },
        {
          "internalType": "uint256",
          "name": "newReleasedAmount",
          "type": "uint256"
        },
        {
          "internalType": "int256",
          "name": "leftOverAmount",
          "type": "int256"
        }
      ],
      "stateMutability": "view",
      "type": "function"
    },
    {
      "inputs": [
        {
          "internalType": "bytes4",
          "name": "interfaceId",
          "type": "bytes4"
        }
      ],
      "name": "supportsInterface",
      "outputs": [
        {
          "internalType": "bool",
          "name": "",
          "type": "bool"
        }
      ],
      "stateMutability": "view",
      "type": "function"
    },
    {
      "inputs": [
        {
          "internalType": "address",
          "name": "_target",
          "type": "address"
        },
        {
          "internalType": "uint256",
          "name": "_amount",
          "type": "uint256"
        },
        {
          "internalType": "address",
          "name": "_contractAddress",
          "type": "address"
        },
        {
          "internalType": "bool",
          "name": "_redeem",
          "type": "bool"
        }
      ],
      "name": "withdraw",
      "outputs": [],
      "stateMutability": "nonpayable",
      "type": "function"
    },
    {
      "inputs": [
        {
          "internalType": "address",
          "name": "_trader",
          "type": "address"
        },
        {
          "internalType": "address",
          "name": "_asset",
          "type": "address"
        }
      ],
      "name": "withdrawAsset",
      "outputs": [],
      "stateMutability": "nonpayable",
      "type": "function"
    },
    {
      "stateMutability": "payable",
      "type": "receive"
    }
  ],
  "transactionHash": "0xc5fde99c6af32905919fefddaa59f29aebcc801f22068793ca0d2c0f962a897e",
  "args": [
    "0x70997970C51812dc3A010C7d01b50e0d17dc79C8"
  ],
  "solcInputHash": "3ecf9754b966a91ca355dcd053ab70bf",
  "bytecode": "0x6080604052600019600d553480156200001757600080fd5b5060405162003848380380620038488339810160408190526200003a916200012a565b620000476000336200007a565b620000737f6666bf5bfee463d10a7fc50448047f8a53b7762d7e28fbc5c643182785f3fd3f826200007a565b506200015a565b6200008682826200008a565b5050565b6000828152602081815260408083206001600160a01b038516845290915290205460ff1662000086576000828152602081815260408083206001600160a01b03851684529091529020805460ff19166001179055620000e63390565b6001600160a01b0316816001600160a01b0316837f2f8788117e7eff1d82e926ec794901d17c78024a50270940304540a733656f0d60405160405180910390a45050565b6000602082840312156200013c578081fd5b81516001600160a01b038116811462000153578182fd5b9392505050565b6136de806200016a6000396000f3fe6080604052600436106101445760003560e01c806347276abf116100b65780638a19c8bc1161006f5780638a19c8bc1461042f57806391d1485414610445578063a217fddf14610465578063c78b432e1461047a578063d547741f1461048f578063f42196b8146104af57600080fd5b806347276abf14610315578063644d41ed146103375780636cc1e201146103575780637445e85c1461037757806375fb0ec81461039957806383eb772e146103b957600080fd5b806322c5582f1161010857806322c5582f1461023c578063248a9ca31461025c5780632f2ff15d1461029a57806332cc8664146102ba57806336568abe146102da57806338cc4831146102fa57600080fd5b806301ffc9a71461018557806302c178d7146101ba57806307717cfc146101dc57806307f42e60146101fc57806312eeff7e1461021c57600080fd5b366101805760405134815233907f88a5966d370b9919b20f3e2c13ff65706f196a4e32cc2c12bf57088f885258749060200160405180910390a2005b600080fd5b34801561019157600080fd5b506101a56101a036600461309e565b6104de565b60405190151581526020015b60405180910390f35b3480156101c657600080fd5b506101da6101d5366004612deb565b610515565b005b3480156101e857600080fd5b506101da6101f7366004613140565b6105d4565b34801561020857600080fd5b506101da610217366004612dcf565b6106ad565b34801561022857600080fd5b506101da610237366004612e23565b6106d5565b34801561024857600080fd5b506101da610257366004612f58565b610764565b34801561026857600080fd5b5061028c610277366004613062565b60009081526020819052604090206001015490565b6040519081526020016101b1565b3480156102a657600080fd5b506101da6102b536600461307a565b61089d565b3480156102c657600080fd5b506101da6102d5366004613140565b6108c8565b3480156102e657600080fd5b506101da6102f536600461307a565b6109fa565b34801561030657600080fd5b506040513081526020016101b1565b34801561032157600080fd5b5061028c60008051602061366983398151915281565b34801561034357600080fd5b506101a5610352366004612dcf565b610a74565b34801561036357600080fd5b506101da610372366004612e75565b610ad8565b34801561038357600080fd5b5061028c60008051602061368983398151915281565b3480156103a557600080fd5b506101da6103b4366004612dcf565b6113ee565b3480156103c557600080fd5b506104056103d4366004612dcf565b60046020526000908152604090208054600182015460028301546003909301546001600160a01b0390921692909184565b604080516001600160a01b03909516855260208501939093529183015260608201526080016101b1565b34801561043b57600080fd5b5061028c60015481565b34801561045157600080fd5b506101a561046036600461307a565b611412565b34801561047157600080fd5b5061028c600081565b34801561048657600080fd5b506101da61143b565b34801561049b57600080fd5b506101da6104aa36600461307a565b611f70565b3480156104bb57600080fd5b506104cf6104ca366004613062565b611f96565b6040516101b1939291906133d1565b60006001600160e01b03198216637965db0b60e01b148061050f57506301ffc9a760e01b6001600160e01b03198316145b92915050565b60008051602061368983398151915261052e813361214f565b6001600160a01b0382166000908152600760205260408120549081136105915760405162461bcd60e51b81526020600482015260136024820152726e6f7468696e6720746f20776974686472617760681b60448201526064015b60405180910390fd5b6001600160a01b0383166000908152600a602052604090208190556105b78482856121b3565b50506001600160a01b031660009081526007602052604081205550565b60006105e0813361214f565b81516105eb906113ee565b6105f882602001516113ee565b600b5460005b818110156106a7576000600b828154811061062957634e487b7160e01b600052603260045260246000fd5b60009182526020909120865160049092020180549092506001600160a01b03908116911614801561066e5750602085015160018201546001600160a01b039081169116145b156106945780546001600160a01b031990811682556001909101805490911690556106a7565b508061069f816135fe565b9150506105fe565b50505050565b60006106b9813361214f565b6106d16000805160206136698339815191528361220b565b5050565b6000805160206136698339815191526106ee813361214f565b81610752576106fc83610a74565b6107525760405162461bcd60e51b815260206004820152602160248201527f52656c656173656420616d6f756e74206e6f7420617661696c61626c652079656044820152601d60fa1b6064820152608401610588565b61075d8585856121b3565b5050505050565b60008051602061368983398151915261077d813361214f565b81516001805414156107c85780156107c85760405162461bcd60e51b815260206004820152600e60248201526d1b9bdd1a1a5b99c81d1bc81cd95d60921b6044820152606401610588565b60005b818110156106a75760008482815181106107f557634e487b7160e01b600052603260045260246000fd5b602090810291909101810151805160408051633dd0755f60e11b815283516001600160a01b0390811660048301529484015160248201529083015160ff166044820152606083015161ffff1660648201529193509190911690637ba0eabe90608401600060405180830381600087803b15801561087157600080fd5b505af1158015610885573d6000803e3d6000fd5b50505050508080610895906135fe565b9150506107cb565b6000828152602081905260409020600101546108b9813361214f565b6108c38383612211565b505050565b60006108d4813361214f565b81516108df906106ad565b6108ec82602001516106ad565b600b805460018101825560009190915282517f0175b7a638427703f0dbe7bb9bbf987a2551717b34e79f33b5b1008d1fa01db9600490920291820180546001600160a01b03199081166001600160a01b039384161790915560208501517f0175b7a638427703f0dbe7bb9bbf987a2551717b34e79f33b5b1008d1fa01dba84018054831691841691909117905560408501517f0175b7a638427703f0dbe7bb9bbf987a2551717b34e79f33b5b1008d1fa01dbb84018054831682851617905560608601517f0175b7a638427703f0dbe7bb9bbf987a2551717b34e79f33b5b1008d1fa01dbc909401805490921693909216929092179091556109ed90612295565b6106d18260600151612295565b6001600160a01b0381163314610a6a5760405162461bcd60e51b815260206004820152602f60248201527f416363657373436f6e74726f6c3a2063616e206f6e6c792072656e6f756e636560448201526e103937b632b9903337b91039b2b63360891b6064820152608401610588565b6106d1828261231e565b6001600160a01b038116600090815260076020526040812054818112610a9d5750600192915050565b6000610aa884612383565b905080610ab9575060009392505050565b6000610ac485612427565b610ace9084613504565b1215949350505050565b600080516020613689833981519152610af1813361214f565b8151600154600210610b3e578015610b3e5760405162461bcd60e51b815260206004820152601060248201526f1b9bc81b585d1d5c9959081c9bdd5b9960821b6044820152606401610588565b60005b818110156110a8576000848281518110610b6b57634e487b7160e01b600052603260045260246000fd5b60200260200101519050600080610b8a836000015184602001516124b9565b8451602086015192945090925090610ba0612c70565b610ba8612c70565b600087604001516002811115610bce57634e487b7160e01b600052602160045260246000fd5b1415610cd45760405163186a4a1760e01b8152600060048201526001600160a01b0385169063186a4a179060240161012060405180830381600087803b158015610c1757600080fd5b505af1158015610c2b573d6000803e3d6000fd5b505050506040513d601f19601f82011682018060405250810190610c4f91906130c6565b60405163186a4a1760e01b8152600060048201529092506001600160a01b0384169063186a4a179060240161012060405180830381600087803b158015610c9557600080fd5b505af1158015610ca9573d6000803e3d6000fd5b505050506040513d601f19601f82011682018060405250810190610ccd91906130c6565b9050610dfc565b600187604001516002811115610cfa57634e487b7160e01b600052602160045260246000fd5b1415610dfc5760405163186a4a1760e01b8152600160048201526001600160a01b0385169063186a4a179060240161012060405180830381600087803b158015610d4357600080fd5b505af1158015610d57573d6000803e3d6000fd5b505050506040513d601f19601f82011682018060405250810190610d7b91906130c6565b60405163186a4a1760e01b8152600060048201529092506001600160a01b0384169063186a4a179060240161012060405180830381600087803b158015610dc157600080fd5b505af1158015610dd5573d6000803e3d6000fd5b505050506040513d601f19601f82011682018060405250810190610df991906130c6565b90505b600287604001516002811115610e2257634e487b7160e01b600052602160045260246000fd5b1415610f245760405163186a4a1760e01b8152600060048201526001600160a01b0385169063186a4a179060240161012060405180830381600087803b158015610e6b57600080fd5b505af1158015610e7f573d6000803e3d6000fd5b505050506040513d601f19601f82011682018060405250810190610ea391906130c6565b60405163186a4a1760e01b8152600160048201529092506001600160a01b0384169063186a4a179060240161012060405180830381600087803b158015610ee957600080fd5b505af1158015610efd573d6000803e3d6000fd5b505050506040513d601f19601f82011682018060405250810190610f2191906130c6565b90505b815115610f82576001600160a01b038616600090815260056020908152604090912054908301518351610f639190610f5d9084906125e7565b906125e7565b6001600160a01b03881660009081526005602052604090205550610fdc565b604082015115610fdc576001600160a01b03851660009081526005602052604090819020546060840151918401519091610fc191610f5d9084906125e7565b6001600160a01b038716600090815260056020526040902055505b805115611034576001600160a01b0385166000908152600560209081526040909120549082015182516110159190610f5d9084906125e7565b6001600160a01b0387166000908152600560205260409020555061108e565b60408101511561108e576001600160a01b0386166000908152600560205260409081902054606083015191830151909161107391610f5d9084906125e7565b6001600160a01b038816600090815260056020526040902055505b5050505050505080806110a0906135fe565b915050610b41565b5060018054111561122857600b5460005b81811015611225576000600b82815481106110e457634e487b7160e01b600052603260045260246000fd5b600091825260209182902060408051608081018252600490930290910180546001600160a01b0390811680855260018301548216958501959095526002820154811692840192909252600301541660608201529150158015611151575060208101516001600160a01b0316155b1561115c5750611213565b805160208201516040805163c02337df60e01b815290516001600160a01b0384169163c02337df91600480830192600092919082900301818387803b1580156111a457600080fd5b505af11580156111b8573d6000803e3d6000fd5b50505050806001600160a01b031663c02337df6040518163ffffffff1660e01b8152600401600060405180830381600087803b1580156111f757600080fd5b505af115801561120b573d6000803e3d6000fd5b505050505050505b8061121d816135fe565b9150506110b9565b50505b60025460005b8181101561075d5760006002828154811061125957634e487b7160e01b600052603260045260246000fd5b60009182526020808320909101546001600160a01b0316808352600582526040808420546006845281852054600790945290842054600154929550909390916002146112c35783836112aa87612427565b6112b4919061357c565b6112be9190613504565b6112c6565b60005b90506112d28183613504565b6001600160a01b0386166000908152600a602052604081205591506112f685612383565b6001600160a01b038616600090815260086020526040902055611318856125fa565b6001600160a01b0386811660008181526009602090815260408083209590955584516080810186528381528082018981528187018b8152606083018a815295855260048452878520835181546001600160a01b031916981697909717875590516001870155516002860155925160039094019390935560058352838120819055600690925291812055846113ac8585613504565b6113b6919061357c565b6001600160a01b03909616600090815260076020526040902095909555508493506113e692508391506135fe9050565b91505061122e565b60006113fa813361214f565b6106d160008051602061366983398151915283611f70565b6000918252602082815260408084206001600160a01b0393909316845291905290205460ff1690565b600080516020613689833981519152611454813361214f565b6001805461146191613545565b6001818155101561147857611478600c6000612cbc565b600b5460005b818110156108c3576000600b82815481106114a957634e487b7160e01b600052603260045260246000fd5b600091825260209182902060408051608081018252600490930290910180546001600160a01b0390811680855260018301548216958501959095526002820154811692840192909252600301541660608201529150158015611516575060208101516001600160a01b0316155b156115215750611f5e565b80516020820151600d54604051638cd8935960e01b81526000916001600160a01b03851691638cd893599161155c9160040190815260200190565b602060405180830381600087803b15801561157657600080fd5b505af115801561158a573d6000803e3d6000fd5b505050506040513d601f19601f820116820180604052508101906115ae919061326b565b90506000826001600160a01b0316638cd89359600d546040518263ffffffff1660e01b81526004016115e291815260200190565b602060405180830381600087803b1580156115fc57600080fd5b505af1158015611610573d6000803e3d6000fd5b505050506040513d601f19601f82011682018060405250810190611634919061326b565b9050811561167d576040808601516001600160a01b031660009081526006602052205461166190836125e7565b6040808701516001600160a01b03166000908152600660205220555b80156116c85760608501516001600160a01b03166000908152600660205260409020546116aa90826125e7565b60608601516001600160a01b03166000908152600660205260409020555b6002600154116116dc575050505050611f5e565b60405163135ad96960e01b8152600060048201819052906001600160a01b0386169063135ad969906024016101806040518083038186803b15801561172057600080fd5b505afa158015611734573d6000803e3d6000fd5b505050506040513d601f19601f8201168201806040525081019061175891906131c4565b60405163135ad96960e01b81526000600482018190529192506001600160a01b0386169063135ad969906024016101806040518083038186803b15801561179e57600080fd5b505afa1580156117b2573d6000803e3d6000fd5b505050506040513d601f19601f820116820180604052508101906117d691906131c4565b9050600060405180606001604052808481526020018381526020016000600281111561181257634e487b7160e01b600052602160045260246000fd5b8152509050600c81908060018154018082558091505060019003906000526020600020906019020160009091909190915060008201518160000160008201518160000160006101000a8154816001600160a01b0302191690836001600160a01b03160217905550602082015181600101556040820151816002015560608201518160030160006101000a81548160ff0219169083151502179055506080820151816004015560a0820151816005015560c0820151816006015560e082015181600701556101008201518160080155610120820151816009015561014082015181600a015561016082015181600b01555050602082015181600c0160008201518160000160006101000a8154816001600160a01b0302191690836001600160a01b03160217905550602082015181600101556040820151816002015560608201518160030160006101000a81548160ff0219169083151502179055506080820151816004015560a0820151816005015560c0820151816006015560e082015181600701556101008201518160080155610120820151816009015561014082015181600a015561016082015181600b0155505060408201518160180160006101000a81548160ff021916908360028111156119fb57634e487b7160e01b600052602160045260246000fd5b02179055505060405163135ad96960e01b815260016004820152600091506001600160a01b0389169063135ad969906024016101806040518083038186803b158015611a4657600080fd5b505afa158015611a5a573d6000803e3d6000fd5b505050506040513d601f19601f82011682018060405250810190611a7e91906131c4565b90506000604051806060016040528083815260200185815260200160016002811115611aba57634e487b7160e01b600052602160045260246000fd5b8152509050600c81908060018154018082558091505060019003906000526020600020906019020160009091909190915060008201518160000160008201518160000160006101000a8154816001600160a01b0302191690836001600160a01b03160217905550602082015181600101556040820151816002015560608201518160030160006101000a81548160ff0219169083151502179055506080820151816004015560a0820151816005015560c0820151816006015560e082015181600701556101008201518160080155610120820151816009015561014082015181600a015561016082015181600b01555050602082015181600c0160008201518160000160006101000a8154816001600160a01b0302191690836001600160a01b03160217905550602082015181600101556040820151816002015560608201518160030160006101000a81548160ff0219169083151502179055506080820151816004015560a0820151816005015560c0820151816006015560e082015181600701556101008201518160080155610120820151816009015561014082015181600a015561016082015181600b0155505060408201518160180160006101000a81548160ff02191690836002811115611ca357634e487b7160e01b600052602160045260246000fd5b02179055505060405163135ad96960e01b815260016004820152600091506001600160a01b038a169063135ad969906024016101806040518083038186803b158015611cee57600080fd5b505afa158015611d02573d6000803e3d6000fd5b505050506040513d601f19601f82011682018060405250810190611d2691906131c4565b905060006040518060600160405280888152602001838152602001600280811115611d6157634e487b7160e01b600052602160045260246000fd5b8152509050600c81908060018154018082558091505060019003906000526020600020906019020160009091909190915060008201518160000160008201518160000160006101000a8154816001600160a01b0302191690836001600160a01b03160217905550602082015181600101556040820151816002015560608201518160030160006101000a81548160ff0219169083151502179055506080820151816004015560a0820151816005015560c0820151816006015560e082015181600701556101008201518160080155610120820151816009015561014082015181600a015561016082015181600b01555050602082015181600c0160008201518160000160006101000a8154816001600160a01b0302191690836001600160a01b03160217905550602082015181600101556040820151816002015560608201518160030160006101000a81548160ff0219169083151502179055506080820151816004015560a0820151816005015560c0820151816006015560e082015181600701556101008201518160080155610120820151816009015561014082015181600a015561016082015181600b0155505060408201518160180160006101000a81548160ff02191690836002811115611f4a57634e487b7160e01b600052602160045260246000fd5b021790555050505050505050505050505050505b80611f68816135fe565b91505061147e565b600082815260208190526040902060010154611f8c813361214f565b6108c3838361231e565b600c8181548110611fa657600080fd5b906000526020600020906019020160009150905080600001604051806101800160405290816000820160009054906101000a90046001600160a01b03166001600160a01b03166001600160a01b0316815260200160018201548152602001600282015481526020016003820160009054906101000a900460ff16151515158152602001600482015481526020016005820154815260200160068201548152602001600782015481526020016008820154815260200160098201548152602001600a8201548152602001600b820154815250509080600c01604051806101800160405290816000820160009054906101000a90046001600160a01b03166001600160a01b03166001600160a01b0316815260200160018201548152602001600282015481526020016003820160009054906101000a900460ff16151515158152602001600482015481526020016005820154815260200160068201548152602001600782015481526020016008820154815260200160098201548152602001600a8201548152602001600b82015481525050908060180160009054906101000a900460ff16905083565b6121598282611412565b6106d157612171816001600160a01b03166014612809565b61217c836020612809565b60405160200161218d929190613329565b60408051601f198184030181529082905262461bcd60e51b82526105889160040161339e565b6001600160a01b0381166121f7576040516001600160a01b0384169083156108fc029084906000818181858888f193505050501580156106a7573d6000803e3d6000fd5b6108c36001600160a01b03821684846129eb565b6106d182825b61221b8282611412565b6106d1576000828152602081815260408083206001600160a01b03851684529091529020805460ff191660011790556122513390565b6001600160a01b0316816001600160a01b0316837f2f8788117e7eff1d82e926ec794901d17c78024a50270940304540a733656f0d60405160405180910390a45050565b6001600160a01b03811660009081526003602052604090205460ff1661231b576001600160a01b0381166000818152600360205260408120805460ff191660019081179091556002805491820181559091527f405787fa12a823e0f2b7631cc41b3ba8828b3321ca811111fa75cd3aa3bb5ace0180546001600160a01b03191690911790555b50565b6123288282611412565b156106d1576000828152602081815260408083206001600160a01b0385168085529252808320805460ff1916905551339285917ff6391f5c32d9c69d2a47ea670b442974b53935d1edc7fd64eb21e047a839171b9190a45050565b60006001600160a01b0382161561241b576001600160a01b0382166370a08231306040516001600160e01b031960e084901b1681526001600160a01b03909116600482015260240160206040518083038186803b1580156123e357600080fd5b505afa1580156123f7573d6000803e3d6000fd5b505050506040513d601f19601f8201168201806040525081019061050f919061326b565b5050303190565b919050565b60008061243383612383565b6001600160a01b03841660009081526008602090815260408083205460099092528220549293509190612465866125fa565b6001600160a01b0387166000908152600a60205260408120549192508361248c8487613504565b612496919061357c565b9050816124a3828861357c565b6124ad9190613504565b98975050505050505050565b600b546000908190815b81811015612597576000600b82815481106124ee57634e487b7160e01b600052603260045260246000fd5b600091825260209182902060408051608081018252600490930290910180546001600160a01b0390811680855260018301548216958501959095526002820154811692840192909252600301548116606083015290925088161480156125695750856001600160a01b031681602001516001600160a01b0316145b156125845780604001518160600151945094505050506125e0565b508061258f816135fe565b9150506124c3565b5060405162461bcd60e51b815260206004820152601c60248201527f696e76616c69642063616c6c4f7074696f6e2f7075744f7074696f6e000000006044820152606401610588565b9250929050565b60006125f38284613545565b9392505050565b600b5460009081805b82811015612801576000600b828154811061262e57634e487b7160e01b600052603260045260246000fd5b600091825260209182902060408051608081018252600490930290910180546001600160a01b039081168085526001830154821695850195909552600282015481169284019290925260030154166060820152915015801561269b575060208101516001600160a01b0316155b156126a657506127ef565b856001600160a01b031681604001516001600160a01b031614806126df5750856001600160a01b031681606001516001600160a01b0316145b156127ed576020810151604051631966357360e11b81526001600160a01b0388811660048301526127ea9216906332cc6ae69060240160206040518083038186803b15801561272d57600080fd5b505afa158015612741573d6000803e3d6000fd5b505050506040513d601f19601f82011682018060405250810190612765919061326b565b8251604051631966357360e11b81526001600160a01b038a81166004830152610f5d9216906332cc6ae69060240160206040518083038186803b1580156127ab57600080fd5b505afa1580156127bf573d6000803e3d6000fd5b505050506040513d601f19601f820116820180604052508101906127e3919061326b565b86906125e7565b92505b505b806127f9816135fe565b915050612603565b509392505050565b6060600061281883600261355d565b612823906002613545565b67ffffffffffffffff81111561284957634e487b7160e01b600052604160045260246000fd5b6040519080825280601f01601f191660200182016040528015612873576020820181803683370190505b509050600360fc1b8160008151811061289c57634e487b7160e01b600052603260045260246000fd5b60200101906001600160f81b031916908160001a905350600f60fb1b816001815181106128d957634e487b7160e01b600052603260045260246000fd5b60200101906001600160f81b031916908160001a90535060006128fd84600261355d565b612908906001613545565b90505b600181111561299c576f181899199a1a9b1b9c1cb0b131b232b360811b85600f166010811061294a57634e487b7160e01b600052603260045260246000fd5b1a60f81b82828151811061296e57634e487b7160e01b600052603260045260246000fd5b60200101906001600160f81b031916908160001a90535060049490941c93612995816135e7565b905061290b565b5083156125f35760405162461bcd60e51b815260206004820181905260248201527f537472696e67733a20686578206c656e67746820696e73756666696369656e746044820152606401610588565b604080516001600160a01b03848116602483015260448083018590528351808403909101815260649092018352602080830180516001600160e01b031663a9059cbb60e01b17905283518085019094528084527f5361666545524332303a206c6f772d6c6576656c2063616c6c206661696c6564908401526108c392869291600091612a7b918516908490612af8565b8051909150156108c35780806020019051810190612a999190613046565b6108c35760405162461bcd60e51b815260206004820152602a60248201527f5361666545524332303a204552433230206f7065726174696f6e20646964206e6044820152691bdd081cdd58d8d9595960b21b6064820152608401610588565b6060612b078484600085612b0f565b949350505050565b606082471015612b705760405162461bcd60e51b815260206004820152602660248201527f416464726573733a20696e73756666696369656e742062616c616e636520666f6044820152651c8818d85b1b60d21b6064820152608401610588565b843b612bbe5760405162461bcd60e51b815260206004820152601d60248201527f416464726573733a2063616c6c20746f206e6f6e2d636f6e74726163740000006044820152606401610588565b600080866001600160a01b03168587604051612bda919061330d565b60006040518083038185875af1925050503d8060008114612c17576040519150601f19603f3d011682016040523d82523d6000602084013e612c1c565b606091505b5091509150612c2c828286612c37565b979650505050505050565b60608315612c465750816125f3565b825115612c565782518084602001fd5b8160405162461bcd60e51b8152600401610588919061339e565b6040518061012001604052806000815260200160008152602001600081526020016000815260200160008152602001600081526020016000815260200160008152602001600081525090565b508054600082556019029060005260206000209081019061231b91905b80821115612db55780546001600160a01b031990811682556000600183018190556002830181905560038301805460ff19908116909155600484018290556005840182905560068401829055600784018290556008840182905560098401829055600a8401829055600b8401829055600c84018054909316909255600d8301819055600e8301819055600f83018054831690556010830181905560118301819055601283018190556013830181905560148301819055601583018190556016830181905560178301556018820180549091169055601901612cd9565b5090565b805161242281613645565b80516124228161365a565b600060208284031215612de0578081fd5b81356125f381613645565b60008060408385031215612dfd578081fd5b8235612e0881613645565b91506020830135612e1881613645565b809150509250929050565b60008060008060808587031215612e38578182fd5b8435612e4381613645565b9350602085013592506040850135612e5a81613645565b91506060850135612e6a8161365a565b939692955090935050565b60006020808385031215612e87578182fd5b823567ffffffffffffffff811115612e9d578283fd5b8301601f81018513612ead578283fd5b8035612ec0612ebb826134e0565b6134af565b818152838101908385016060808502860187018a1015612ede578788fd5b8795505b84861015612f4a5780828b031215612ef8578788fd5b612f0061341b565b8235612f0b81613645565b815282880135612f1a81613645565b8189015260408381013560038110612f30578a8bfd5b908201528452600195909501949286019290810190612ee2565b509098975050505050505050565b60006020808385031215612f6a578182fd5b823567ffffffffffffffff811115612f80578283fd5b8301601f81018513612f90578283fd5b8035612f9e612ebb826134e0565b80828252848201915084840188868560071b8701011115612fbd578687fd5b8694505b8385101561303a57608080828b031215612fd9578788fd5b612fe1613444565b8235612fec81613645565b8152828801358882015260408084013560ff8116811461300a578a8bfd5b9082015260608381013561ffff81168114613023578a8bfd5b908201528452600195909501949286019201612fc1565b50979650505050505050565b600060208284031215613057578081fd5b81516125f38161365a565b600060208284031215613073578081fd5b5035919050565b6000806040838503121561308c578182fd5b823591506020830135612e1881613645565b6000602082840312156130af578081fd5b81356001600160e01b0319811681146125f3578182fd5b600061012082840312156130d8578081fd5b6130e0613467565b825181526020830151602082015260408301516040820152606083015160608201526080830151608082015260a083015160a082015260c083015160c082015260e083015160e08201526101008084015181830152508091505092915050565b600060808284031215613151578081fd5b6040516080810181811067ffffffffffffffff821117156131745761317461362f565b604052823561318281613645565b8152602083013561319281613645565b602082015260408301356131a581613645565b604082015260608301356131b881613645565b60608201529392505050565b600061018082840312156131d6578081fd5b6131de61348b565b6131e783612db9565b8152602083015160208201526040830151604082015261320960608401612dc4565b60608201526080838101519082015260a0808401519082015260c0808401519082015260e08084015190820152610100808401519082015261012080840151908201526101408084015190820152610160928301519281019290925250919050565b60006020828403121561327c578081fd5b5051919050565b80516001600160a01b03168252602081015160208301526040810151604083015260608101516132b7606084018215159052565b506080818101519083015260a0808201519083015260c0808201519083015260e0808201519083015261010080820151908301526101208082015190830152610140808201519083015261016090810151910152565b6000825161331f8184602087016135bb565b9190910192915050565b7f416363657373436f6e74726f6c3a206163636f756e74200000000000000000008152600083516133618160178501602088016135bb565b7001034b99036b4b9b9b4b733903937b6329607d1b60179184019182015283516133928160288401602088016135bb565b01602801949350505050565b60208152600082518060208401526133bd8160408501602087016135bb565b601f01601f19169190910160400192915050565b61032081016133e08286613283565b6133ee610180830185613283565b6003831061340c57634e487b7160e01b600052602160045260246000fd5b82610300830152949350505050565b6040516060810167ffffffffffffffff8111828210171561343e5761343e61362f565b60405290565b6040516080810167ffffffffffffffff8111828210171561343e5761343e61362f565b604051610120810167ffffffffffffffff8111828210171561343e5761343e61362f565b604051610180810167ffffffffffffffff8111828210171561343e5761343e61362f565b604051601f8201601f1916810167ffffffffffffffff811182821017156134d8576134d861362f565b604052919050565b600067ffffffffffffffff8211156134fa576134fa61362f565b5060051b60200190565b600080821280156001600160ff1b038490038513161561352657613526613619565b600160ff1b839003841281161561353f5761353f613619565b50500190565b6000821982111561355857613558613619565b500190565b600081600019048311821515161561357757613577613619565b500290565b60008083128015600160ff1b85018412161561359a5761359a613619565b6001600160ff1b03840183138116156135b5576135b5613619565b50500390565b60005b838110156135d65781810151838201526020016135be565b838111156106a75750506000910152565b6000816135f6576135f6613619565b506000190190565b600060001982141561361257613612613619565b5060010190565b634e487b7160e01b600052601160045260246000fd5b634e487b7160e01b600052604160045260246000fd5b6001600160a01b038116811461231b57600080fd5b801515811461231b57600080fdfefd0eee74c7609b4290ae42cfa22435eabf285017ea12017ed27c2e820eae6a776666bf5bfee463d10a7fc50448047f8a53b7762d7e28fbc5c643182785f3fd3fa2646970667358221220442676ba259ea9ea34f82af72d1aa9899ae31eec7ce209007bb17cd773a06cbc64736f6c63430008040033",
  "devdoc": {
    "kind": "dev",
    "methods": {
      "getRoleAdmin(bytes32)": {
        "details": "Returns the admin role that controls `role`. See {grantRole} and {revokeRole}. To change a role's admin, use {_setRoleAdmin}."
      },
      "grantRole(bytes32,address)": {
        "details": "Grants `role` to `account`. If `account` had not been already granted `role`, emits a {RoleGranted} event. Requirements: - the caller must have ``role``'s admin role."
      },
      "hasRole(bytes32,address)": {
        "details": "Returns `true` if `account` has been granted `role`."
      },
      "renounceRole(bytes32,address)": {
        "details": "Revokes `role` from the calling account. Roles are often managed via {grantRole} and {revokeRole}: this function's purpose is to provide a mechanism for accounts to lose their privileges if they are compromised (such as when a trusted device is misplaced). If the calling account had been granted `role`, emits a {RoleRevoked} event. Requirements: - the caller must be `account`."
      },
      "revokeRole(bytes32,address)": {
        "details": "Revokes `role` from `account`. If `account` had been granted `role`, emits a {RoleRevoked} event. Requirements: - the caller must have ``role``'s admin role."
      },
      "supportsInterface(bytes4)": {
        "details": "See {IERC165-supportsInterface}."
      }
    },
    "version": 1
  },
  "userdoc": {
    "kind": "user",
    "methods": {},
    "version": 1
  },
  "storageLayout": {
    "storage": [
      {
        "astId": 1642,
        "contract": "contracts/OptionVault.sol:OptionVault",
        "label": "_roles",
        "offset": 0,
        "slot": "0",
        "type": "t_mapping(t_bytes32,t_struct(RoleData)1637_storage)"
      },
      {
        "astId": 3878,
        "contract": "contracts/OptionVault.sol:OptionVault",
        "label": "currentRound",
        "offset": 0,
        "slot": "1",
        "type": "t_uint256"
      },
      {
        "astId": 3881,
        "contract": "contracts/OptionVault.sol:OptionVault",
        "label": "asset",
        "offset": 0,
        "slot": "2",
        "type": "t_array(t_address)dyn_storage"
      },
      {
        "astId": 3885,
        "contract": "contracts/OptionVault.sol:OptionVault",
        "label": "assetExistence",
        "offset": 0,
        "slot": "3",
        "type": "t_mapping(t_address,t_bool)"
      },
      {
        "astId": 3890,
        "contract": "contracts/OptionVault.sol:OptionVault",
        "label": "settlementCashflowResult",
        "offset": 0,
        "slot": "4",
        "type": "t_mapping(t_address,t_struct(SettlementCashflowResult)14090_storage)"
      },
      {
        "astId": 3894,
        "contract": "contracts/OptionVault.sol:OptionVault",
        "label": "releasedAmount",
        "offset": 0,
        "slot": "5",
        "type": "t_mapping(t_address,t_uint256)"
      },
      {
        "astId": 3898,
        "contract": "contracts/OptionVault.sol:OptionVault",
        "label": "depositAmount",
        "offset": 0,
        "slot": "6",
        "type": "t_mapping(t_address,t_uint256)"
      },
      {
        "astId": 3902,
        "contract": "contracts/OptionVault.sol:OptionVault",
        "label": "leftOverAmount",
        "offset": 0,
        "slot": "7",
        "type": "t_mapping(t_address,t_int256)"
      },
      {
        "astId": 3906,
        "contract": "contracts/OptionVault.sol:OptionVault",
        "label": "assetBalanceAfterSettle",
        "offset": 0,
        "slot": "8",
        "type": "t_mapping(t_address,t_uint256)"
      },
      {
        "astId": 3910,
        "contract": "contracts/OptionVault.sol:OptionVault",
        "label": "assetWithdrawableAfterSettle",
        "offset": 0,
        "slot": "9",
        "type": "t_mapping(t_address,t_uint256)"
      },
      {
        "astId": 3914,
        "contract": "contracts/OptionVault.sol:OptionVault",
        "label": "assetTraderWithdrawn",
        "offset": 0,
        "slot": "10",
        "type": "t_mapping(t_address,t_uint256)"
      },
      {
        "astId": 3918,
        "contract": "contracts/OptionVault.sol:OptionVault",
        "label": "optionPairs",
        "offset": 0,
        "slot": "11",
        "type": "t_array(t_struct(OptionPairDefinition)14034_storage)dyn_storage"
      },
      {
        "astId": 3922,
        "contract": "contracts/OptionVault.sol:OptionVault",
        "label": "executionAccountingResult",
        "offset": 0,
        "slot": "12",
        "type": "t_array(t_struct(OptionPairExecutionAccountingResult)14073_storage)dyn_storage"
      },
      {
        "astId": 4202,
        "contract": "contracts/OptionVault.sol:OptionVault",
        "label": "MAX_INT",
        "offset": 0,
        "slot": "13",
        "type": "t_uint256"
      }
    ],
    "types": {
      "t_address": {
        "encoding": "inplace",
        "label": "address",
        "numberOfBytes": "20"
      },
      "t_array(t_address)dyn_storage": {
        "base": "t_address",
        "encoding": "dynamic_array",
        "label": "address[]",
        "numberOfBytes": "32"
      },
      "t_array(t_struct(OptionPairDefinition)14034_storage)dyn_storage": {
        "base": "t_struct(OptionPairDefinition)14034_storage",
        "encoding": "dynamic_array",
        "label": "struct StructureData.OptionPairDefinition[]",
        "numberOfBytes": "32"
      },
      "t_array(t_struct(OptionPairExecutionAccountingResult)14073_storage)dyn_storage": {
        "base": "t_struct(OptionPairExecutionAccountingResult)14073_storage",
        "encoding": "dynamic_array",
        "label": "struct StructureData.OptionPairExecutionAccountingResult[]",
        "numberOfBytes": "32"
      },
      "t_bool": {
        "encoding": "inplace",
        "label": "bool",
        "numberOfBytes": "1"
      },
      "t_bytes32": {
        "encoding": "inplace",
        "label": "bytes32",
        "numberOfBytes": "32"
      },
      "t_enum(OptionExecution)14063": {
        "encoding": "inplace",
        "label": "enum StructureData.OptionExecution",
        "numberOfBytes": "1"
      },
      "t_int256": {
        "encoding": "inplace",
        "label": "int256",
        "numberOfBytes": "32"
      },
      "t_mapping(t_address,t_bool)": {
        "encoding": "mapping",
        "key": "t_address",
        "label": "mapping(address => bool)",
        "numberOfBytes": "32",
        "value": "t_bool"
      },
      "t_mapping(t_address,t_int256)": {
        "encoding": "mapping",
        "key": "t_address",
        "label": "mapping(address => int256)",
        "numberOfBytes": "32",
        "value": "t_int256"
      },
      "t_mapping(t_address,t_struct(SettlementCashflowResult)14090_storage)": {
        "encoding": "mapping",
        "key": "t_address",
        "label": "mapping(address => struct StructureData.SettlementCashflowResult)",
        "numberOfBytes": "32",
        "value": "t_struct(SettlementCashflowResult)14090_storage"
      },
      "t_mapping(t_address,t_uint256)": {
        "encoding": "mapping",
        "key": "t_address",
        "label": "mapping(address => uint256)",
        "numberOfBytes": "32",
        "value": "t_uint256"
      },
      "t_mapping(t_bytes32,t_struct(RoleData)1637_storage)": {
        "encoding": "mapping",
        "key": "t_bytes32",
        "label": "mapping(bytes32 => struct AccessControl.RoleData)",
        "numberOfBytes": "32",
        "value": "t_struct(RoleData)1637_storage"
      },
      "t_struct(OptionPairDefinition)14034_storage": {
        "encoding": "inplace",
        "label": "struct StructureData.OptionPairDefinition",
        "members": [
          {
            "astId": 14027,
            "contract": "contracts/OptionVault.sol:OptionVault",
            "label": "callOption",
            "offset": 0,
            "slot": "0",
            "type": "t_address"
          },
          {
            "astId": 14029,
            "contract": "contracts/OptionVault.sol:OptionVault",
            "label": "putOption",
            "offset": 0,
            "slot": "1",
            "type": "t_address"
          },
          {
            "astId": 14031,
            "contract": "contracts/OptionVault.sol:OptionVault",
            "label": "callOptionDeposit",
            "offset": 0,
            "slot": "2",
            "type": "t_address"
          },
          {
            "astId": 14033,
            "contract": "contracts/OptionVault.sol:OptionVault",
            "label": "putOptionDeposit",
            "offset": 0,
            "slot": "3",
            "type": "t_address"
          }
        ],
        "numberOfBytes": "128"
      },
      "t_struct(OptionPairExecutionAccountingResult)14073_storage": {
        "encoding": "inplace",
        "label": "struct StructureData.OptionPairExecutionAccountingResult",
        "members": [
          {
            "astId": 14066,
            "contract": "contracts/OptionVault.sol:OptionVault",
            "label": "callOptionResult",
            "offset": 0,
            "slot": "0",
            "type": "t_struct(SettlementAccountingResult)14059_storage"
          },
          {
            "astId": 14069,
            "contract": "contracts/OptionVault.sol:OptionVault",
            "label": "putOptionResult",
            "offset": 0,
            "slot": "12",
            "type": "t_struct(SettlementAccountingResult)14059_storage"
          },
          {
            "astId": 14072,
            "contract": "contracts/OptionVault.sol:OptionVault",
            "label": "execute",
            "offset": 0,
            "slot": "24",
            "type": "t_enum(OptionExecution)14063"
          }
        ],
        "numberOfBytes": "800"
      },
      "t_struct(RoleData)1637_storage": {
        "encoding": "inplace",
        "label": "struct AccessControl.RoleData",
        "members": [
          {
            "astId": 1634,
            "contract": "contracts/OptionVault.sol:OptionVault",
            "label": "members",
            "offset": 0,
            "slot": "0",
            "type": "t_mapping(t_address,t_bool)"
          },
          {
            "astId": 1636,
            "contract": "contracts/OptionVault.sol:OptionVault",
            "label": "adminRole",
            "offset": 0,
            "slot": "1",
            "type": "t_bytes32"
          }
        ],
        "numberOfBytes": "64"
      },
      "t_struct(SettlementAccountingResult)14059_storage": {
        "encoding": "inplace",
        "label": "struct StructureData.SettlementAccountingResult",
        "members": [
          {
            "astId": 14036,
            "contract": "contracts/OptionVault.sol:OptionVault",
            "label": "option",
            "offset": 0,
            "slot": "0",
            "type": "t_address"
          },
          {
            "astId": 14038,
            "contract": "contracts/OptionVault.sol:OptionVault",
            "label": "round",
            "offset": 0,
            "slot": "1",
            "type": "t_uint256"
          },
          {
            "astId": 14040,
            "contract": "contracts/OptionVault.sol:OptionVault",
            "label": "depositAmount",
            "offset": 0,
            "slot": "2",
            "type": "t_uint256"
          },
          {
            "astId": 14042,
            "contract": "contracts/OptionVault.sol:OptionVault",
            "label": "executed",
            "offset": 0,
            "slot": "3",
            "type": "t_bool"
          },
          {
            "astId": 14044,
            "contract": "contracts/OptionVault.sol:OptionVault",
            "label": "autoRollAmount",
            "offset": 0,
            "slot": "4",
            "type": "t_uint256"
          },
          {
            "astId": 14046,
            "contract": "contracts/OptionVault.sol:OptionVault",
            "label": "autoRollPremium",
            "offset": 0,
            "slot": "5",
            "type": "t_uint256"
          },
          {
            "astId": 14048,
            "contract": "contracts/OptionVault.sol:OptionVault",
            "label": "releasedAmount",
            "offset": 0,
            "slot": "6",
            "type": "t_uint256"
          },
          {
            "astId": 14050,
            "contract": "contracts/OptionVault.sol:OptionVault",
            "label": "releasedPremium",
            "offset": 0,
            "slot": "7",
            "type": "t_uint256"
          },
          {
            "astId": 14052,
            "contract": "contracts/OptionVault.sol:OptionVault",
            "label": "autoRollCounterPartyAmount",
            "offset": 0,
            "slot": "8",
            "type": "t_uint256"
          },
          {
            "astId": 14054,
            "contract": "contracts/OptionVault.sol:OptionVault",
            "label": "autoRollCounterPartyPremium",
            "offset": 0,
            "slot": "9",
            "type": "t_uint256"
          },
          {
            "astId": 14056,
            "contract": "contracts/OptionVault.sol:OptionVault",
            "label": "releasedCounterPartyAmount",
            "offset": 0,
            "slot": "10",
            "type": "t_uint256"
          },
          {
            "astId": 14058,
            "contract": "contracts/OptionVault.sol:OptionVault",
            "label": "releasedCounterPartyPremium",
            "offset": 0,
            "slot": "11",
            "type": "t_uint256"
          }
        ],
        "numberOfBytes": "384"
      },
      "t_struct(SettlementCashflowResult)14090_storage": {
        "encoding": "inplace",
        "label": "struct StructureData.SettlementCashflowResult",
        "members": [
          {
            "astId": 14083,
            "contract": "contracts/OptionVault.sol:OptionVault",
            "label": "contractAddress",
            "offset": 0,
            "slot": "0",
            "type": "t_address"
          },
          {
            "astId": 14085,
            "contract": "contracts/OptionVault.sol:OptionVault",
            "label": "newDepositAmount",
            "offset": 0,
            "slot": "1",
            "type": "t_uint256"
          },
          {
            "astId": 14087,
            "contract": "contracts/OptionVault.sol:OptionVault",
            "label": "newReleasedAmount",
            "offset": 0,
            "slot": "2",
            "type": "t_uint256"
          },
          {
            "astId": 14089,
            "contract": "contracts/OptionVault.sol:OptionVault",
            "label": "leftOverAmount",
            "offset": 0,
            "slot": "3",
            "type": "t_int256"
          }
        ],
        "numberOfBytes": "128"
      },
      "t_uint256": {
        "encoding": "inplace",
        "label": "uint256",
        "numberOfBytes": "32"
      }
    }
  }
}