{
  "address": "0x99dBE4AEa58E518C50a1c04aE9b48C9F6354612f",
  "abi": [
    {
      "inputs": [],
      "name": "MATUREROUND",
      "outputs": [
        {
          "internalType": "uint8",
          "name": "",
          "type": "uint8"
        }
      ],
      "stateMutability": "view",
      "type": "function"
    }
  ],
  "transactionHash": "0xd29faaa6f08518c8f61ccbbe443a9e4b87c55fa1b5421f6113d83bd126715b22",
  "args": [],
  "solcInputHash": "13a8c0b9b4927cc65a0fa596a6ec647d",
  "bytecode": "0x608b610038600b82828239805160001a607314602b57634e487b7160e01b600052600060045260246000fd5b30600052607381538281f3fe730000000000000000000000000000000000000000301460806040526004361060335760003560e01c8063f747e177146038575b600080fd5b603f600181565b60405160ff909116815260200160405180910390f3fea2646970667358221220f5e35cd05955e0035731a144f8a2d26f88c0eae70fcdaf310469b6c4c25bdd2d64736f6c63430008040033",
  "devdoc": {
    "kind": "dev",
    "methods": {},
    "version": 1
  },
  "userdoc": {
    "kind": "user",
    "methods": {},
    "version": 1
  },
  "storageLayout": {
    "storage": [],
    "types": null
  }
}