{
  "address": "0xc96304e3c037f81dA488ed9dEa1D8F2a48278a75",
  "abi": [
    {
      "inputs": [],
      "name": "MATUREROUND",
      "outputs": [
        {
          "internalType": "uint8",
          "name": "",
          "type": "uint8"
        }
      ],
      "stateMutability": "view",
      "type": "function"
    }
  ],
  "transactionHash": "0x3ec450189ff6554d7f40980fd757aff7976396be7d4c679ea448f3798352225a",
  "args": [],
  "solcInputHash": "7d69c30e7365c7d7ac5fe4ffeeb2fb6a",
  "bytecode": "0x608b610038600b82828239805160001a607314602b57634e487b7160e01b600052600060045260246000fd5b30600052607381538281f3fe730000000000000000000000000000000000000000301460806040526004361060335760003560e01c8063f747e177146038575b600080fd5b603f600181565b60405160ff909116815260200160405180910390f3fea264697066735822122087765bf70b36ae18be1aa38ae49b2e1a34e75503d10fd7802afb2d7031e6232464736f6c63430008040033",
  "devdoc": {
    "kind": "dev",
    "methods": {},
    "version": 1
  },
  "userdoc": {
    "kind": "user",
    "methods": {},
    "version": 1
  },
  "storageLayout": {
    "storage": [],
    "types": null
  }
}