{
  "address": "0x07882Ae1ecB7429a84f1D53048d35c4bB2056877",
  "abi": [
    {
      "inputs": [],
      "name": "MATUREROUND",
      "outputs": [
        {
          "internalType": "uint8",
          "name": "",
          "type": "uint8"
        }
      ],
      "stateMutability": "view",
      "type": "function"
    }
  ],
  "transactionHash": "0x3b9280f3b3a557fc2629193c02ecfd1710886d671b500bc2c51d15ed1816ab9c",
  "args": [],
  "solcInputHash": "fb10e7a77efd2658909775850a25bcb0",
  "bytecode": "0x608b610038600b82828239805160001a607314602b57634e487b7160e01b600052600060045260246000fd5b30600052607381538281f3fe730000000000000000000000000000000000000000301460806040526004361060335760003560e01c8063f747e177146038575b600080fd5b603f600181565b60405160ff909116815260200160405180910390f3fea2646970667358221220f5e35cd05955e0035731a144f8a2d26f88c0eae70fcdaf310469b6c4c25bdd2d64736f6c63430008040033",
  "devdoc": {
    "kind": "dev",
    "methods": {},
    "version": 1
  },
  "userdoc": {
    "kind": "user",
    "methods": {},
    "version": 1
  },
  "storageLayout": {
    "storage": [],
    "types": null
  }
}