{
  "address": "0xd9fEc8238711935D6c8d79Bef2B9546ef23FC046",
  "abi": [
    {
      "inputs": [],
      "name": "MATUREROUND",
      "outputs": [
        {
          "internalType": "uint8",
          "name": "",
          "type": "uint8"
        }
      ],
      "stateMutability": "view",
      "type": "function"
    },
    {
      "inputs": [],
      "name": "OPTION_ROLE",
      "outputs": [
        {
          "internalType": "bytes32",
          "name": "",
          "type": "bytes32"
        }
      ],
      "stateMutability": "view",
      "type": "function"
    },
    {
      "inputs": [],
      "name": "SETTLER_ROLE",
      "outputs": [
        {
          "internalType": "bytes32",
          "name": "",
          "type": "bytes32"
        }
      ],
      "stateMutability": "view",
      "type": "function"
    }
  ],
  "transactionHash": "0x037001d359a880e18026d5483f6b896d3e3092eecdfb5621a025d6b2f1c8e48b",
  "args": [],
  "solcInputHash": "4d1fa2e9fd4fdb5284870d53517b87d0",
  "bytecode": "0x60f9610039600b82828239805160001a60731461002c57634e487b7160e01b600052600060045260246000fd5b30600052607381538281f3fe730000000000000000000000000000000000000000301460806040526004361060475760003560e01c806347276abf14604c5780637445e85c146085578063f747e1771460ab575b600080fd5b60727ffd0eee74c7609b4290ae42cfa22435eabf285017ea12017ed27c2e820eae6a7781565b6040519081526020015b60405180910390f35b60727f6666bf5bfee463d10a7fc50448047f8a53b7762d7e28fbc5c643182785f3fd3f81565b60b2600181565b60405160ff9091168152602001607c56fea2646970667358221220208ccb9fa9af5a71444461c317cbab39229a7052f8d080acf732cdca3a4d471964736f6c63430008040033",
  "devdoc": {
    "kind": "dev",
    "methods": {},
    "version": 1
  },
  "userdoc": {
    "kind": "user",
    "methods": {},
    "version": 1
  },
  "storageLayout": {
    "storage": [],
    "types": null
  }
}