{
  "address": "0xB06c856C8eaBd1d8321b687E188204C1018BC4E5",
  "abi": [
    {
      "inputs": [],
      "name": "MATUREROUND",
      "outputs": [
        {
          "internalType": "uint8",
          "name": "",
          "type": "uint8"
        }
      ],
      "stateMutability": "view",
      "type": "function"
    }
  ],
  "transactionHash": "0xc11e1e69c95cf3726f64df1e70187f073b5eea1a8d6629b1884686c3c3779124",
  "args": [],
  "solcInputHash": "3ecf9754b966a91ca355dcd053ab70bf",
  "bytecode": "0x608b610038600b82828239805160001a607314602b57634e487b7160e01b600052600060045260246000fd5b30600052607381538281f3fe730000000000000000000000000000000000000000301460806040526004361060335760003560e01c8063f747e177146038575b600080fd5b603f600181565b60405160ff909116815260200160405180910390f3fea2646970667358221220ddcec76055e9a78bb6785497a3046713cd83e945a94b07e162622f5a5a86089664736f6c63430008040033",
  "devdoc": {
    "kind": "dev",
    "methods": {},
    "version": 1
  },
  "userdoc": {
    "kind": "user",
    "methods": {},
    "version": 1
  },
  "storageLayout": {
    "storage": [],
    "types": null
  }
}