{
  "address": "0xA7c59f010700930003b33aB25a7a0679C860f29c",
  "abi": [
    {
      "anonymous": false,
      "inputs": [
        {
          "indexed": true,
          "internalType": "address",
          "name": "owner",
          "type": "address"
        },
        {
          "indexed": true,
          "internalType": "address",
          "name": "spender",
          "type": "address"
        },
        {
          "indexed": false,
          "internalType": "uint256",
          "name": "value",
          "type": "uint256"
        }
      ],
      "name": "Approval",
      "type": "event"
    },
    {
      "anonymous": false,
      "inputs": [
        {
          "indexed": true,
          "internalType": "uint256",
          "name": "round",
          "type": "uint256"
        }
      ],
      "name": "CloseOption",
      "type": "event"
    },
    {
      "anonymous": false,
      "inputs": [
        {
          "indexed": true,
          "internalType": "uint256",
          "name": "round",
          "type": "uint256"
        }
      ],
      "name": "CommitOption",
      "type": "event"
    },
    {
      "anonymous": false,
      "inputs": [
        {
          "indexed": true,
          "internalType": "address",
          "name": "account",
          "type": "address"
        },
        {
          "indexed": true,
          "internalType": "uint256",
          "name": "round",
          "type": "uint256"
        },
        {
          "indexed": false,
          "internalType": "uint256",
          "name": "amount",
          "type": "uint256"
        }
      ],
      "name": "Deposit",
      "type": "event"
    },
    {
      "anonymous": false,
      "inputs": [
        {
          "indexed": true,
          "internalType": "uint256",
          "name": "round",
          "type": "uint256"
        }
      ],
      "name": "OpenOption",
      "type": "event"
    },
    {
      "anonymous": false,
      "inputs": [
        {
          "indexed": true,
          "internalType": "address",
          "name": "previousOwner",
          "type": "address"
        },
        {
          "indexed": true,
          "internalType": "address",
          "name": "newOwner",
          "type": "address"
        }
      ],
      "name": "OwnershipTransferred",
      "type": "event"
    },
    {
      "anonymous": false,
      "inputs": [
        {
          "indexed": true,
          "internalType": "address",
          "name": "account",
          "type": "address"
        },
        {
          "indexed": true,
          "internalType": "uint256",
          "name": "round",
          "type": "uint256"
        },
        {
          "indexed": false,
          "internalType": "uint256",
          "name": "amount",
          "type": "uint256"
        }
      ],
      "name": "Redeem",
      "type": "event"
    },
    {
      "anonymous": false,
      "inputs": [
        {
          "indexed": true,
          "internalType": "address",
          "name": "from",
          "type": "address"
        },
        {
          "indexed": true,
          "internalType": "address",
          "name": "to",
          "type": "address"
        },
        {
          "indexed": false,
          "internalType": "uint256",
          "name": "value",
          "type": "uint256"
        }
      ],
      "name": "Transfer",
      "type": "event"
    },
    {
      "inputs": [],
      "name": "RATIOMULTIPLIER",
      "outputs": [
        {
          "internalType": "uint256",
          "name": "",
          "type": "uint256"
        }
      ],
      "stateMutability": "view",
      "type": "function"
    },
    {
      "inputs": [
        {
          "internalType": "address",
          "name": "owner",
          "type": "address"
        },
        {
          "internalType": "address",
          "name": "spender",
          "type": "address"
        }
      ],
      "name": "allowance",
      "outputs": [
        {
          "internalType": "uint256",
          "name": "",
          "type": "uint256"
        }
      ],
      "stateMutability": "view",
      "type": "function"
    },
    {
      "inputs": [
        {
          "internalType": "address",
          "name": "spender",
          "type": "address"
        },
        {
          "internalType": "uint256",
          "name": "amount",
          "type": "uint256"
        }
      ],
      "name": "approve",
      "outputs": [
        {
          "internalType": "bool",
          "name": "",
          "type": "bool"
        }
      ],
      "stateMutability": "nonpayable",
      "type": "function"
    },
    {
      "inputs": [
        {
          "internalType": "address",
          "name": "account",
          "type": "address"
        }
      ],
      "name": "balanceOf",
      "outputs": [
        {
          "internalType": "uint256",
          "name": "",
          "type": "uint256"
        }
      ],
      "stateMutability": "view",
      "type": "function"
    },
    {
      "inputs": [],
      "name": "callOrPut",
      "outputs": [
        {
          "internalType": "bool",
          "name": "",
          "type": "bool"
        }
      ],
      "stateMutability": "view",
      "type": "function"
    },
    {
      "inputs": [
        {
          "internalType": "uint256",
          "name": "_underlyingPrice",
          "type": "uint256"
        }
      ],
      "name": "closePrevious",
      "outputs": [],
      "stateMutability": "nonpayable",
      "type": "function"
    },
    {
      "inputs": [],
      "name": "commitCurrent",
      "outputs": [],
      "stateMutability": "nonpayable",
      "type": "function"
    },
    {
      "inputs": [
        {
          "internalType": "uint256",
          "name": "_amount",
          "type": "uint256"
        },
        {
          "internalType": "address",
          "name": "_asset",
          "type": "address"
        }
      ],
      "name": "completeWithdraw",
      "outputs": [],
      "stateMutability": "nonpayable",
      "type": "function"
    },
    {
      "inputs": [],
      "name": "counterParty",
      "outputs": [
        {
          "internalType": "address",
          "name": "",
          "type": "address"
        }
      ],
      "stateMutability": "view",
      "type": "function"
    },
    {
      "inputs": [],
      "name": "counterPartyAsset",
      "outputs": [
        {
          "internalType": "address",
          "name": "",
          "type": "address"
        }
      ],
      "stateMutability": "view",
      "type": "function"
    },
    {
      "inputs": [],
      "name": "counterPartyOption",
      "outputs": [
        {
          "internalType": "contract IPKKTStructureOption",
          "name": "",
          "type": "address"
        }
      ],
      "stateMutability": "view",
      "type": "function"
    },
    {
      "inputs": [],
      "name": "currentRound",
      "outputs": [
        {
          "internalType": "uint256",
          "name": "",
          "type": "uint256"
        }
      ],
      "stateMutability": "view",
      "type": "function"
    },
    {
      "inputs": [],
      "name": "decimals",
      "outputs": [
        {
          "internalType": "uint8",
          "name": "",
          "type": "uint8"
        }
      ],
      "stateMutability": "view",
      "type": "function"
    },
    {
      "inputs": [
        {
          "internalType": "address",
          "name": "spender",
          "type": "address"
        },
        {
          "internalType": "uint256",
          "name": "subtractedValue",
          "type": "uint256"
        }
      ],
      "name": "decreaseAllowance",
      "outputs": [
        {
          "internalType": "bool",
          "name": "",
          "type": "bool"
        }
      ],
      "stateMutability": "nonpayable",
      "type": "function"
    },
    {
      "inputs": [
        {
          "internalType": "uint256",
          "name": "_amount",
          "type": "uint256"
        }
      ],
      "name": "deposit",
      "outputs": [],
      "stateMutability": "nonpayable",
      "type": "function"
    },
    {
      "inputs": [],
      "name": "depositAsset",
      "outputs": [
        {
          "internalType": "address",
          "name": "",
          "type": "address"
        }
      ],
      "stateMutability": "view",
      "type": "function"
    },
    {
      "inputs": [],
      "name": "depositETH",
      "outputs": [],
      "stateMutability": "payable",
      "type": "function"
    },
    {
      "inputs": [
        {
          "internalType": "address[]",
          "name": "addresses",
          "type": "address[]"
        },
        {
          "internalType": "uint256[]",
          "name": "_amounts",
          "type": "uint256[]"
        }
      ],
      "name": "depositFromCounterParty",
      "outputs": [],
      "stateMutability": "nonpayable",
      "type": "function"
    },
    {
      "inputs": [],
      "name": "getMatured",
      "outputs": [
        {
          "components": [
            {
              "internalType": "uint256",
              "name": "amount",
              "type": "uint256"
            },
            {
              "internalType": "address",
              "name": "asset",
              "type": "address"
            }
          ],
          "internalType": "struct StructureData.MaturedAmount[]",
          "name": "result",
          "type": "tuple[]"
        }
      ],
      "stateMutability": "view",
      "type": "function"
    },
    {
      "inputs": [
        {
          "internalType": "uint8",
          "name": "_backwardRound",
          "type": "uint8"
        }
      ],
      "name": "getOngoingAsset",
      "outputs": [
        {
          "internalType": "uint256",
          "name": "",
          "type": "uint256"
        }
      ],
      "stateMutability": "view",
      "type": "function"
    },
    {
      "inputs": [],
      "name": "getPendingAsset",
      "outputs": [
        {
          "internalType": "uint256",
          "name": "",
          "type": "uint256"
        }
      ],
      "stateMutability": "view",
      "type": "function"
    },
    {
      "inputs": [
        {
          "internalType": "uint256",
          "name": "_blockHeight",
          "type": "uint256"
        }
      ],
      "name": "getRoundData",
      "outputs": [
        {
          "components": [
            {
              "internalType": "uint256",
              "name": "round",
              "type": "uint256"
            },
            {
              "internalType": "uint256",
              "name": "totalAmount",
              "type": "uint256"
            },
            {
              "internalType": "uint256",
              "name": "strikePrice",
              "type": "uint256"
            },
            {
              "internalType": "uint256",
              "name": "underlyingPrice",
              "type": "uint256"
            },
            {
              "internalType": "uint16",
              "name": "premiumRate",
              "type": "uint16"
            },
            {
              "internalType": "uint8",
              "name": "pricePrecision",
              "type": "uint8"
            },
            {
              "internalType": "bool",
              "name": "executed",
              "type": "bool"
            },
            {
              "internalType": "bool",
              "name": "callOrPut",
              "type": "bool"
            }
          ],
          "internalType": "struct StructureData.OptionState",
          "name": "",
          "type": "tuple"
        }
      ],
      "stateMutability": "view",
      "type": "function"
    },
    {
      "inputs": [
        {
          "internalType": "address",
          "name": "spender",
          "type": "address"
        },
        {
          "internalType": "uint256",
          "name": "addedValue",
          "type": "uint256"
        }
      ],
      "name": "increaseAllowance",
      "outputs": [
        {
          "internalType": "bool",
          "name": "",
          "type": "bool"
        }
      ],
      "stateMutability": "nonpayable",
      "type": "function"
    },
    {
      "inputs": [
        {
          "internalType": "string",
          "name": "name",
          "type": "string"
        },
        {
          "internalType": "string",
          "name": "symbol",
          "type": "string"
        },
        {
          "internalType": "address",
          "name": "_underlying",
          "type": "address"
        },
        {
          "internalType": "address",
          "name": "_stableCoin",
          "type": "address"
        },
        {
          "internalType": "uint8",
          "name": "_underlyingDecimals",
          "type": "uint8"
        },
        {
          "internalType": "uint8",
          "name": "_stableCoinDecimals",
          "type": "uint8"
        },
        {
          "internalType": "address",
          "name": "_vaultAddress",
          "type": "address"
        }
      ],
      "name": "initialize",
      "outputs": [],
      "stateMutability": "nonpayable",
      "type": "function"
    },
    {
      "inputs": [
        {
          "internalType": "uint256",
          "name": "_assetToTerminate",
          "type": "uint256"
        }
      ],
      "name": "initiateWithraw",
      "outputs": [],
      "stateMutability": "nonpayable",
      "type": "function"
    },
    {
      "inputs": [],
      "name": "isEth",
      "outputs": [
        {
          "internalType": "bool",
          "name": "",
          "type": "bool"
        }
      ],
      "stateMutability": "view",
      "type": "function"
    },
    {
      "inputs": [],
      "name": "name",
      "outputs": [
        {
          "internalType": "string",
          "name": "",
          "type": "string"
        }
      ],
      "stateMutability": "view",
      "type": "function"
    },
    {
      "inputs": [
        {
          "internalType": "uint256",
          "name": "",
          "type": "uint256"
        }
      ],
      "name": "optionHeights",
      "outputs": [
        {
          "internalType": "uint256",
          "name": "",
          "type": "uint256"
        }
      ],
      "stateMutability": "view",
      "type": "function"
    },
    {
      "inputs": [],
      "name": "optionParameters",
      "outputs": [
        {
          "internalType": "uint256",
          "name": "quota",
          "type": "uint256"
        },
        {
          "internalType": "uint8",
          "name": "pricePrecision",
          "type": "uint8"
        },
        {
          "internalType": "int16",
          "name": "strikePriceRatio",
          "type": "int16"
        },
        {
          "internalType": "uint16",
          "name": "premiumRate",
          "type": "uint16"
        }
      ],
      "stateMutability": "view",
      "type": "function"
    },
    {
      "inputs": [
        {
          "internalType": "uint256",
          "name": "",
          "type": "uint256"
        }
      ],
      "name": "optionStates",
      "outputs": [
        {
          "internalType": "uint256",
          "name": "round",
          "type": "uint256"
        },
        {
          "internalType": "uint256",
          "name": "totalAmount",
          "type": "uint256"
        },
        {
          "internalType": "uint256",
          "name": "strikePrice",
          "type": "uint256"
        },
        {
          "internalType": "uint256",
          "name": "underlyingPrice",
          "type": "uint256"
        },
        {
          "internalType": "uint16",
          "name": "premiumRate",
          "type": "uint16"
        },
        {
          "internalType": "uint8",
          "name": "pricePrecision",
          "type": "uint8"
        },
        {
          "internalType": "bool",
          "name": "executed",
          "type": "bool"
        },
        {
          "internalType": "bool",
          "name": "callOrPut",
          "type": "bool"
        }
      ],
      "stateMutability": "view",
      "type": "function"
    },
    {
      "inputs": [],
      "name": "optionVault",
      "outputs": [
        {
          "internalType": "contract IOptionVault",
          "name": "",
          "type": "address"
        }
      ],
      "stateMutability": "view",
      "type": "function"
    },
    {
      "inputs": [],
      "name": "owner",
      "outputs": [
        {
          "internalType": "address",
          "name": "",
          "type": "address"
        }
      ],
      "stateMutability": "view",
      "type": "function"
    },
    {
      "inputs": [],
      "name": "previousUnderlyingPrice",
      "outputs": [
        {
          "internalType": "uint256",
          "name": "",
          "type": "uint256"
        }
      ],
      "stateMutability": "view",
      "type": "function"
    },
    {
      "inputs": [
        {
          "internalType": "uint256",
          "name": "_amount",
          "type": "uint256"
        }
      ],
      "name": "redeem",
      "outputs": [],
      "stateMutability": "nonpayable",
      "type": "function"
    },
    {
      "inputs": [
        {
          "internalType": "uint256",
          "name": "_amount",
          "type": "uint256"
        }
      ],
      "name": "redeposit",
      "outputs": [],
      "stateMutability": "nonpayable",
      "type": "function"
    },
    {
      "inputs": [
        {
          "internalType": "uint256",
          "name": "_amount",
          "type": "uint256"
        }
      ],
      "name": "redepositToCounterParty",
      "outputs": [],
      "stateMutability": "nonpayable",
      "type": "function"
    },
    {
      "inputs": [],
      "name": "renounceOwnership",
      "outputs": [],
      "stateMutability": "nonpayable",
      "type": "function"
    },
    {
      "inputs": [
        {
          "components": [
            {
              "internalType": "uint256",
              "name": "quota",
              "type": "uint256"
            },
            {
              "internalType": "uint8",
              "name": "pricePrecision",
              "type": "uint8"
            },
            {
              "internalType": "int16",
              "name": "strikePriceRatio",
              "type": "int16"
            },
            {
              "internalType": "uint16",
              "name": "premiumRate",
              "type": "uint16"
            }
          ],
          "internalType": "struct StructureData.OptionParameters",
          "name": "_optionParameters",
          "type": "tuple"
        }
      ],
      "name": "rollToNext",
      "outputs": [],
      "stateMutability": "nonpayable",
      "type": "function"
    },
    {
      "inputs": [
        {
          "internalType": "address",
          "name": "_counterParty",
          "type": "address"
        }
      ],
      "name": "setCounterPartyOption",
      "outputs": [],
      "stateMutability": "nonpayable",
      "type": "function"
    },
    {
      "inputs": [],
      "name": "symbol",
      "outputs": [
        {
          "internalType": "string",
          "name": "",
          "type": "string"
        }
      ],
      "stateMutability": "view",
      "type": "function"
    },
    {
      "inputs": [],
      "name": "totalSupply",
      "outputs": [
        {
          "internalType": "uint256",
          "name": "",
          "type": "uint256"
        }
      ],
      "stateMutability": "view",
      "type": "function"
    },
    {
      "inputs": [
        {
          "internalType": "address",
          "name": "recipient",
          "type": "address"
        },
        {
          "internalType": "uint256",
          "name": "amount",
          "type": "uint256"
        }
      ],
      "name": "transfer",
      "outputs": [
        {
          "internalType": "bool",
          "name": "",
          "type": "bool"
        }
      ],
      "stateMutability": "nonpayable",
      "type": "function"
    },
    {
      "inputs": [
        {
          "internalType": "address",
          "name": "sender",
          "type": "address"
        },
        {
          "internalType": "address",
          "name": "recipient",
          "type": "address"
        },
        {
          "internalType": "uint256",
          "name": "amount",
          "type": "uint256"
        }
      ],
      "name": "transferFrom",
      "outputs": [
        {
          "internalType": "bool",
          "name": "",
          "type": "bool"
        }
      ],
      "stateMutability": "nonpayable",
      "type": "function"
    },
    {
      "inputs": [
        {
          "internalType": "address",
          "name": "newOwner",
          "type": "address"
        }
      ],
      "name": "transferOwnership",
      "outputs": [],
      "stateMutability": "nonpayable",
      "type": "function"
    },
    {
      "inputs": [],
      "name": "underSettlement",
      "outputs": [
        {
          "internalType": "bool",
          "name": "",
          "type": "bool"
        }
      ],
      "stateMutability": "view",
      "type": "function"
    },
    {
      "inputs": [
        {
          "internalType": "address",
          "name": "",
          "type": "address"
        }
      ],
      "name": "userStates",
      "outputs": [
        {
          "internalType": "uint256",
          "name": "pendingAsset",
          "type": "uint256"
        },
        {
          "internalType": "uint8",
          "name": "nextCursor",
          "type": "uint8"
        },
        {
          "internalType": "uint232",
          "name": "totalRound",
          "type": "uint232"
        },
        {
          "internalType": "bool",
          "name": "hasState",
          "type": "bool"
        },
        {
          "internalType": "uint256",
          "name": "assetToTerminate",
          "type": "uint256"
        }
      ],
      "stateMutability": "view",
      "type": "function"
    },
    {
      "inputs": [
        {
          "internalType": "uint256",
          "name": "",
          "type": "uint256"
        }
      ],
      "name": "usersInvolved",
      "outputs": [
        {
          "internalType": "address",
          "name": "",
          "type": "address"
        }
      ],
      "stateMutability": "view",
      "type": "function"
    },
    {
      "inputs": [],
      "name": "vaultAddress",
      "outputs": [
        {
          "internalType": "address",
          "name": "",
          "type": "address"
        }
      ],
      "stateMutability": "view",
      "type": "function"
    }
  ],
  "transactionHash": "0xa7a4693365b5bc252c312b98d548033d37c62f10e25085d5021e15e8afb849ca",
  "args": [],
  "solcInputHash": "fb10e7a77efd2658909775850a25bcb0",
  "bytecode": "0x608060405234801561001057600080fd5b506143ad806100206000396000f3fe6080604052600436106102935760003560e01c806376e7a4781161015a578063bb9662c8116100c1578063ded39ec91161007a578063ded39ec914610a90578063e040661814610ab0578063e5d455ce14610ad2578063eef9f5a514610af2578063f2fde38b14610b18578063f6326fb314610b3857600080fd5b8063bb9662c8146109af578063c02337df146109cf578063c515d7e7146109e4578063ccc41f2414610a04578063db006a7514610a2a578063dd62ed3e14610a4a57600080fd5b8063a2589ef911610113578063a2589ef91461089e578063a457c2d7146108be578063a49b41d4146108de578063a5d3e5b114610942578063a9059cbb1461096f578063b6b55f251461098f57600080fd5b806376e7a478146108005780638a19c8bc146108165780638da5cb5b1461082c578063902025391461084a57806395d89b41146108695780639e4cbd7d1461087e57600080fd5b80632c453bdf116101fe578063511db114116101b7578063511db114146106a95780635973ff3a146106ca5780635ce0d5a5146106ea578063652354741461070057806370a08231146107b5578063715018a6146107eb57600080fd5b80632c453bdf146105f2578063313ce567146106125780633950935114610634578063430bf08a146106545780634601c2a6146106695780634d94f56d1461068957600080fd5b806311c8556d1161025057806311c8556d14610519578063140e56091461055157806318160ddd1461057d5780631de245af1461059257806321c9445c146105b257806323b872dd146105d257600080fd5b806306fdde03146102985780630720da52146102c35780630748248f1461041a578063095ea7b3146104445780630e777b4b146104645780630ecc535f14610486575b600080fd5b3480156102a457600080fd5b506102ad610b40565b6040516102ba9190613def565b60405180910390f35b3480156102cf57600080fd5b506103ae6102de366004613caf565b6040805161010081018252600080825260208201819052918101829052606081018290526080810182905260a0810182905260c0810182905260e0810191909152506000908152609d60209081526040808320548352609e825291829020825161010081018452815481526001820154928101929092526002810154928201929092526003820154606082015260049091015461ffff8116608083015260ff620100008204811660a0840152630100000082048116151560c084015264010000000090910416151560e082015290565b6040516102ba91906000610100820190508251825260208301516020830152604083015160408301526060830151606083015261ffff608084015116608083015260ff60a08401511660a083015260c0830151151560c083015260e0830151151560e083015292915050565b34801561042657600080fd5b5060a1546104349060ff1681565b60405190151581526020016102ba565b34801561045057600080fd5b5061043461045f366004613a61565b610bd2565b34801561047057600080fd5b5061048461047f366004613caf565b610be9565b005b34801561049257600080fd5b506104e16104a13660046139b1565b60a060205260009081526040902080546002820154600390920154909160ff808216926001600160e81b0361010084041692600160f01b90049091169085565b6040805195865260ff90941660208601526001600160e81b03909216928401929092529015156060830152608082015260a0016102ba565b34801561052557600080fd5b5060a354610539906001600160a01b031681565b6040516001600160a01b0390911681526020016102ba565b34801561055d57600080fd5b5033600090815260a060205260409020545b6040519081526020016102ba565b34801561058957600080fd5b5060355461056f565b34801561059e57600080fd5b506105396105ad366004613caf565b610cb2565b3480156105be57600080fd5b506104846105cd366004613cc7565b610cdc565b3480156105de57600080fd5b506104346105ed366004613a21565b610edc565b3480156105fe57600080fd5b5060a254610539906001600160a01b031681565b34801561061e57600080fd5b5060975460405160ff90911681526020016102ba565b34801561064057600080fd5b5061043461064f366004613a61565b610f88565b34801561066057600080fd5b50610539610fc4565b34801561067557600080fd5b5061056f610684366004613ceb565b611046565b34801561069557600080fd5b506104846106a4366004613caf565b61105f565b3480156106b557600080fd5b5060985461043490600160a01b900460ff1681565b3480156106d657600080fd5b506104846106e5366004613a8c565b611263565b3480156106f657600080fd5b5061056f609c5481565b34801561070c57600080fd5b5061076f61071b366004613caf565b609e60205260009081526040902080546001820154600283015460038401546004909401549293919290919061ffff81169060ff620100008204811691630100000081048216916401000000009091041688565b60408051988952602089019790975295870194909452606086019290925261ffff16608085015260ff1660a0840152151560c0830152151560e0820152610100016102ba565b3480156107c157600080fd5b5061056f6107d03660046139b1565b6001600160a01b031660009081526033602052604090205490565b3480156107f757600080fd5b506104846112dc565b34801561080c57600080fd5b5061056f61271081565b34801561082257600080fd5b5061056f609b5481565b34801561083857600080fd5b506065546001600160a01b0316610539565b34801561085657600080fd5b5060a15461043490610100900460ff1681565b34801561087557600080fd5b506102ad611312565b34801561088a57600080fd5b50610484610899366004613caf565b611321565b3480156108aa57600080fd5b506104846108b9366004613caf565b6114f6565b3480156108ca57600080fd5b506104346108d9366004613a61565b6115b2565b3480156108ea57600080fd5b50609954609a54610912919060ff811690610100810460010b906301000000900461ffff1684565b6040516102ba949392919093845260ff92909216602084015260010b604083015261ffff16606082015260800190565b34801561094e57600080fd5b5061056f61095d366004613caf565b609d6020526000908152604090205481565b34801561097b57600080fd5b5061043461098a366004613a61565b61164b565b34801561099b57600080fd5b506104846109aa366004613caf565b611658565b3480156109bb57600080fd5b50609854610539906001600160a01b031681565b3480156109db57600080fd5b5061048461174b565b3480156109f057600080fd5b506104846109ff3660046139b1565b611a0a565b348015610a1057600080fd5b50609754610539906201000090046001600160a01b031681565b348015610a3657600080fd5b50610484610a45366004613caf565b611a9e565b348015610a5657600080fd5b5061056f610a653660046139e9565b6001600160a01b03918216600090815260346020908152604080832093909416825291909152205490565b348015610a9c57600080fd5b50610484610aab366004613c2b565b611c27565b348015610abc57600080fd5b50610ac5611e58565b6040516102ba9190613d97565b348015610ade57600080fd5b50610484610aed366004613b6f565b6120d0565b348015610afe57600080fd5b5060a154610539906201000090046001600160a01b031681565b348015610b2457600080fd5b50610484610b333660046139b1565b612153565b6104846121eb565b606060368054610b4f906142e0565b80601f0160208091040260200160405190810160405280929190818152602001828054610b7b906142e0565b8015610bc85780601f10610b9d57610100808354040283529160200191610bc8565b820191906000526020600020905b815481529060010190602001808311610bab57829003601f168201915b5050505050905090565b6000610bdf338484612310565b5060015b92915050565b60008111610c335760405162461bcd60e51b8152602060048201526012602482015271215f6173736574546f5465726d696e61746560701b60448201526064015b60405180910390fd5b33600090815260a0602052604081206003810154909190610c54908461242c565b90506000610c628382612438565b905080821115610ca85760405162461bcd60e51b81526020600482015260116024820152704578636565647320617661696c61626c6560781b6044820152606401610c2a565b5060039091015550565b609f8181548110610cc257600080fd5b6000918252602090912001546001600160a01b0316905081565b60008211610cfc5760405162461bcd60e51b8152600401610c2a90613ef1565b60a15460ff1615610d1f5760405162461bcd60e51b8152600401610c2a90613e22565b6001609b5411610d415760405162461bcd60e51b8152600401610c2a90613e97565b6097546001600160a01b0382811662010000909204161480610d7057506098546001600160a01b038281169116145b610db45760405162461bcd60e51b8152602060048201526015602482015274496e76616c6964206173736574206164647265737360581b6044820152606401610c2a565b6097546001600160a01b0382811662010000909204161415610e205733600090815260a4602052604090205482811015610e005760405162461bcd60e51b8152600401610c2a90613f12565b610e0a81846124df565b33600090815260a4602052604090205550610e6c565b33600090815260a5602052604090205482811015610e505760405162461bcd60e51b8152600401610c2a90613f12565b610e5a81846124df565b33600090815260a56020526040902055505b60a354604051631a4ca37b60e21b8152336004820152602481018490526001600160a01b038381166044830152909116906369328dec90606401600060405180830381600087803b158015610ec057600080fd5b505af1158015610ed4573d6000803e3d6000fd5b505050505050565b6000610ee98484846124eb565b6001600160a01b038416600090815260346020908152604080832033845290915290205482811015610f6e5760405162461bcd60e51b815260206004820152602860248201527f45524332303a207472616e7366657220616d6f756e74206578636565647320616044820152676c6c6f77616e636560c01b6064820152608401610c2a565b610f7b8533858403612310565b60019150505b9392505050565b3360008181526034602090815260408083206001600160a01b03871684529091528120549091610bdf918590610fbf9086906140cf565b612310565b60a354604080516338cc483160e01b815290516000926001600160a01b0316916338cc4831916004808301926020929190829003018186803b15801561100957600080fd5b505afa15801561101d573d6000803e3d6000fd5b505050506040513d601f19601f8201168201806040525081019061104191906139cd565b905090565b33600090815260a060205260408120610f818184612438565b6065546001600160a01b031633146110895760405162461bcd60e51b8152600401610c2a90613ebc565b60a15460ff16156110ac5760405162461bcd60e51b8152600401610c2a90613e22565b60a1805460ff19166001179055609c819055609b546110c85750565b609b546001106110d55750565b609b546000906110e79060019061427a565b6000818152609e602090815260408083208151610100810183528154815260018201549381019390935260028101549183019190915260038101546060830152600481015461ffff8116608084015260ff620100008204811660a0850152630100000082048116151560c085015264010000000090910416151560e08301529293506111749085906126bb565b60a3546097546098546040805163193ef4d360e01b815285516004820152602086015160248201529085015115156044820152606085015160648201526001600160a01b03620100009093048316608482015290821660a4820152929350169063193ef4d39060c401600060405180830381600087803b1580156111f757600080fd5b505af115801561120b573d6000803e3d6000fd5b50505060408083015160048501805491151563010000000263ff00000019909216919091179055518491507f5fd55b58a9ef8c29a9db39dd9a05dec64993eb227ad0177941238778e9ea896290600090a25050505b50565b60a2546001600160a01b031633146112d35760405162461bcd60e51b815260206004820152602d60248201527f4f6e6c7920636f756e7465727061727479206f7074696f6e2063616e2063616c60448201526c1b081d1a1a5cc81b595d1a1bd9609a1b6064820152608401610c2a565b5050565b505050565b6065546001600160a01b031633146113065760405162461bcd60e51b8152600401610c2a90613ebc565b6113106000612a78565b565b606060378054610b4f906142e0565b60a15460ff16156113445760405162461bcd60e51b8152600401610c2a90613e22565b6001609b54116113665760405162461bcd60e51b8152600401610c2a90613e97565b600081116113865760405162461bcd60e51b8152600401610c2a90613ef1565b33600090815260a56020526040902054818110156113b65760405162461bcd60e51b8152600401610c2a90613f12565b6113c081836124df565b33600090815260a56020526040808220929092558151600180825281840190935290918160200160208202803683375050604080516001808252818301909252929350600092915060208083019080368337019050509050338260008151811061143a57634e487b7160e01b600052603260045260246000fd5b60200260200101906001600160a01b031690816001600160a01b031681525050838160008151811061147c57634e487b7160e01b600052603260045260246000fd5b602090810291909101015260a154604051632cb9ff9d60e11b8152620100009091046001600160a01b031690635973ff3a906114be9085908590600401613d21565b600060405180830381600087803b1580156114d857600080fd5b505af11580156114ec573d6000803e3d6000fd5b5050505050505050565b60a15460ff16156115195760405162461bcd60e51b8152600401610c2a90613e22565b6001609b541161153b5760405162461bcd60e51b8152600401610c2a90613e97565b6000811161155b5760405162461bcd60e51b8152600401610c2a90613ef1565b33600090815260a460205260409020548181101561158b5760405162461bcd60e51b8152600401610c2a90613f12565b61159581836124df565b33600081815260a460205260409020919091556112d39083612926565b3360009081526034602090815260408083206001600160a01b0386168452909152812054828110156116345760405162461bcd60e51b815260206004820152602560248201527f45524332303a2064656372656173656420616c6c6f77616e63652062656c6f77604482015264207a65726f60d81b6064820152608401610c2a565b6116413385858403612310565b5060019392505050565b6000610bdf3384846124eb565b60a15460ff161561167b5760405162461bcd60e51b8152600401610c2a90613e22565b6000609b54116116b85760405162461bcd60e51b81526020600482015260086024820152670854dd185c9d195960c21b6044820152606401610c2a565b609854600160a01b900460ff16156116fb5760405162461bcd60e51b815260206004820152600660248201526502145524332360d41b6044820152606401610c2a565b6000811161171b5760405162461bcd60e51b8152600401610c2a90613ef1565b6117253382612926565b61126033611731610fc4565b6097546201000090046001600160a01b0316919084612aca565b6065546001600160a01b031633146117755760405162461bcd60e51b8152600401610c2a90613ebc565b60a15460ff166117bb5760405162461bcd60e51b8152602060048201526011602482015270139bdd0818995a5b99c81cd95d1d1b1959607a1b6044820152606401610c2a565b6000609b54116117c757565b609b5460011015611821576000609e6000600160ff16609b546117ea919061427a565b8152602001908152602001600020905060008160010154111561181f57600481015461181f906301000000900460ff16612b24565b505b609b546000908152609e60205260409081902060a354609754609854935163042abd7d60e51b815292936001600160a01b0392831693638557afa09361187893879362010000909104821692911690600401613f3c565b600060405180830381600087803b15801561189257600080fd5b505af11580156118a6573d6000803e3d6000fd5b5050609c5460038401555050609a546118e890612710906118e2906118d7906101009004600190810b900b83614023565b60038501549061302c565b90613038565b6002820155609a8054600483018054630100000090920461ffff1661ffff19831681178255925462ffffff1990921690921760ff90911662010000021790556001810154611937903090613044565b609f5460005b818110156119ca576000609f828154811061196857634e487b7160e01b600052603260045260246000fd5b60009182526020808320909101546001600160a01b031680835260a09091526040909120805491925090156119a6576119a6308383600001546124eb565b80546119b3908290613123565b6000905550806119c28161431b565b91505061193d565b50609b54436000908152609d6020526040808220839055517ffa513f17b83baf0c2da337ab931a96429f75c55f0ee2115b7acd007a1a35dd519190a25050565b6001600160a01b038116301415611a635760405162461bcd60e51b815260206004820181905260248201527f43616e6e6f74207365742073656c6620617320636f756e7465722070617274796044820152606401610c2a565b60a1805462010000600160b01b031916620100006001600160a01b039390931692830217905560a280546001600160a01b0319169091179055565b60a15460ff1615611ac15760405162461bcd60e51b8152600401610c2a90613e22565b60008111611ae15760405162461bcd60e51b8152600401610c2a90613ef1565b33600090815260a0602052604090208054821115611b355760405162461bcd60e51b81526020600482015260116024820152704578636565647320617661696c61626c6560781b6044820152606401610c2a565b8054611b4190836124df565b8155609b546000908152609e602052604090206001810154611b6390846124df565b600182015560a354609754604051631a4ca37b60e21b8152336004820152602481018690526001600160a01b0362010000909204821660448201529116906369328dec90606401600060405180830381600087803b158015611bc457600080fd5b505af1158015611bd8573d6000803e3d6000fd5b50505050609b54336001600160a01b03167fe5b754fb1abb7f01b499791d0b820ae3b6af3424ac1c59768edb53f4ec31a92985604051611c1a91815260200190565b60405180910390a3505050565b6065546001600160a01b03163314611c515760405162461bcd60e51b8152600401610c2a90613ebc565b609b54611c5f9060016140cf565b609b819055508060996000820151816000015560208201518160010160006101000a81548160ff021916908360ff16021790555060408201518160010160016101000a81548161ffff021916908360010b61ffff16021790555060608201518160010160036101000a81548161ffff021916908361ffff1602179055509050506000604051806101000160405280609b548152602001600081526020016000815260200160008152602001836060015161ffff168152602001836020015160ff16815260200160001515815260200160a160019054906101000a900460ff161515815250905080609e6000609b5481526020019081526020016000206000820151816000015560208201518160010155604082015181600201556060820151816003015560808201518160040160006101000a81548161ffff021916908361ffff16021790555060a08201518160040160026101000a81548160ff021916908360ff16021790555060c08201518160040160036101000a81548160ff02191690831515021790555060e08201518160040160046101000a81548160ff021916908315150217905550905050600060a160006101000a81548160ff021916908315150217905550609b547f10f419fb017d3101d854d4433e414ff27f232bb2f4aae83d987ad0219efa6c9b60405160405180910390a25050565b33600090815260a4602090815260408083205460a5909252909120546060919081158015611e84575080155b15611ece576040805160008082526020820190925290611ec6565b6040805180820190915260008082526020820152815260200190600190039081611e9f5790505b509250505090565b81611f615760408051600180825281830190925290816020015b6040805180820190915260008082526020820152815260200190600190039081611ee8575050604080518082019091528281526098546001600160a01b031660208201528151919450908490600090611f5157634e487b7160e01b600052603260045260246000fd5b6020026020010181905250505090565b80611feb5760408051600180825281830190925290816020015b6040805180820190915260008082526020820152815260200190600190039081611f7b57905050604080518082019091528381526097546201000090046001600160a01b031660208201528151919450908490600090611f5157634e487b7160e01b600052603260045260246000fd5b6040805160028082526060820190925290816020015b604080518082019091526000808252602082015281526020019060019003908161200157905050604080518082019091528381526097546201000090046001600160a01b03166020820152815191945090849060009061207157634e487b7160e01b600052603260045260246000fd5b60200260200101819052506040518060400160405280828152602001609860009054906101000a90046001600160a01b03166001600160a01b031681525083600181518110611f5157634e487b7160e01b600052603260045260246000fd5b600054610100900460ff16806120e9575060005460ff16155b6121055760405162461bcd60e51b8152600401610c2a90613e49565b600054610100900460ff16158015612127576000805461ffff19166101011790555b6121388888888888888860016131d8565b80156114ec576000805461ff00191690555050505050505050565b6065546001600160a01b0316331461217d5760405162461bcd60e51b8152600401610c2a90613ebc565b6001600160a01b0381166121e25760405162461bcd60e51b815260206004820152602660248201527f4f776e61626c653a206e6577206f776e657220697320746865207a65726f206160448201526564647265737360d01b6064820152608401610c2a565b61126081612a78565b60a15460ff161561220e5760405162461bcd60e51b8152600401610c2a90613e22565b6000609b541161224b5760405162461bcd60e51b81526020600482015260086024820152670854dd185c9d195960c21b6044820152606401610c2a565b609854600160a01b900460ff1661228d5760405162461bcd60e51b8152600401610c2a906020808252600490820152630428aa8960e31b604082015260600190565b600034116122c65760405162461bcd60e51b81526020600482015260066024820152652176616c756560d01b6044820152606401610c2a565b6122d03334612926565b6122d8610fc4565b6001600160a01b03166108fc349081150290604051600060405180830381858888f19350505050158015611260573d6000803e3d6000fd5b6001600160a01b0383166123725760405162461bcd60e51b8152602060048201526024808201527f45524332303a20617070726f76652066726f6d20746865207a65726f206164646044820152637265737360e01b6064820152608401610c2a565b6001600160a01b0382166123d35760405162461bcd60e51b815260206004820152602260248201527f45524332303a20617070726f766520746f20746865207a65726f206164647265604482015261737360f01b6064820152608401610c2a565b6001600160a01b0383811660008181526034602090815260408083209487168084529482529182902085905590518481527f8c5be1e5ebec7d5bd14f71427d1e84f3dd0314c0f7b2291e5b200ac8c7c3b9259101611c1a565b6000610f8182846140cf565b600282015460009060ff83166101009091046001600160e81b03161161246057506000610be3565b600160ff83161061247057600080fd5b600283015460009060019061248990859060ff16614239565b6124939190614239565b905060008160000b12156124af576124ac600182614064565b90505b836001018160ff16600181106124d557634e487b7160e01b600052603260045260246000fd5b0154949350505050565b6000610f81828461427a565b6001600160a01b03831661254f5760405162461bcd60e51b815260206004820152602560248201527f45524332303a207472616e736665722066726f6d20746865207a65726f206164604482015264647265737360d81b6064820152608401610c2a565b6001600160a01b0382166125b15760405162461bcd60e51b815260206004820152602360248201527f45524332303a207472616e7366657220746f20746865207a65726f206164647260448201526265737360e81b6064820152608401610c2a565b6001600160a01b038316600090815260336020526040902054818110156126295760405162461bcd60e51b815260206004820152602660248201527f45524332303a207472616e7366657220616d6f756e7420657863656564732062604482015265616c616e636560d01b6064820152608401610c2a565b6001600160a01b038085166000908152603360205260408082208585039055918516815290812080548492906126609084906140cf565b92505081905550826001600160a01b0316846001600160a01b03167fddf252ad1be2c89b69c2b068fc378daa952ba7f163c4a11628f55a4df523b3ef846040516126ac91815260200190565b60405180910390a35b50505050565b6126e860405180608001604052806000815260200160008152602001600015158152602001600081525090565b604080516080808201835260008083526020830181905292820183905284516060830152840151909190612723906127109061ffff1661242c565b604080860151871190840181905290915080156127af5760975460a08601516127a5916127559160ff909116906140e7565b61276090600a61416f565b6097546118e29061271090829061278090610100900460ff16600a61416f565b61279f8861279f8d604001518e6020015161302c90919063ffffffff16565b9061302c565b60208401526127cf565b6127cc6127106118e284886020015161302c90919063ffffffff16565b83525b609f5460005b8181101561291a576000609f828154811061280057634e487b7160e01b600052603260045260246000fd5b60009182526020808320909101546001600160a01b031680835260a0909152604082209092509061283c612835600180614291565b8390612438565b90508061286f5750506001600160a01b0316600090815260a66020908152604080832083905560a7909152812055612908565b85156128c35760006128968b602001516118e2848c6020015161302c90919063ffffffff16565b6001600160a01b038516600090815260a7602090815260408083209390935560a690529081205550612904565b60208a015188516000916128db916118e2908561302c565b6001600160a01b038516600090815260a6602090815260408083209390935560a7905290812055505b5050505b806129128161431b565b9150506127d5565b50929695505050505050565b609b546000908152609e602052604090206099546001820154612949908461242c565b111561298a5760405162461bcd60e51b815260206004820152601060248201526f4e6f7420656e6f7567682071756f746160801b6044820152606401610c2a565b6001600160a01b038316600090815260a0602052604090206002810154600160f01b900460ff16612a185760028101805460ff60f01b1916600160f01b179055609f80546001810182556000919091527f0bc14066c33013fe88f66e314e4cf150b0b2d4d6451a1a51dbbd1c27cd11de280180546001600160a01b0386166001600160a01b03199091161790555b8054612a24908461242c565b81556001820154612a35908461242c565b6001830155609b546040518481526001600160a01b038616907f90890809c654f11d6e72a28fa60149770a0d11ec6c92319d6ceb2bb0a4ea1a15906020016126ac565b606580546001600160a01b038381166001600160a01b0319831681179093556040519116919082907f8be0079c531659141344cd1fd0a4f28419497f9722a3daafe3b4186f6b6457e090600090a35050565b604080516001600160a01b0385811660248301528416604482015260648082018490528251808303909101815260849091019091526020810180516001600160e01b03166323b872dd60e01b1790526126b590859061333b565b609f5481612c5d5760005b818110156112d7576000609f8281548110612b5a57634e487b7160e01b600052603260045260246000fd5b60009182526020808320909101546001600160a01b031680835260a08252604080842060a6909352909220549192509080612b9e5750600060039091015550612c4b565b6000612bc2828460030154612bbd60008761243890919063ffffffff16565b61340d565b90508015612c07576001600160a01b038416600090815260a46020526040902054612bed908261242c565b6001600160a01b038516600090815260a460205260409020555b6000612c1383836124df565b90508015612c2557612c258584612926565b5050506001600160a01b03909116600090815260a6602052604081208190556003909101555b80612c558161431b565b915050612b2f565b60005b81811015612df8576000609f8281548110612c8b57634e487b7160e01b600052603260045260246000fd5b60009182526020808320909101546001600160a01b031680835260a08252604080842060a7909352909220549192509080612ccf5750600060039091015550612de6565b6000612cee828460030154612bbd60008761243890919063ffffffff16565b90508015612d33576001600160a01b038416600090815260a56020526040902054612d19908261242c565b6001600160a01b038516600090815260a560205260409020555b6000612d3f83836124df565b90508015612dc05760a9805460018082019092557fdc471888e6136f84c49e531e9c9240dc4e3fba66da9d3a49e2af6202133683e00182905560a8805491820181556000527fbee89403b5bf0e626c2f71adb366311c697013df53107181a963adc459ef4d990180546001600160a01b0319166001600160a01b0387161790555b5050506001600160a01b03909116600090815260a7602052604081208190556003909101555b80612df08161431b565b915050612c60565b5060a95480612e0657505050565b60008167ffffffffffffffff811115612e2f57634e487b7160e01b600052604160045260246000fd5b604051908082528060200260200182016040528015612e58578160200160208202803683370190505b50905060008267ffffffffffffffff811115612e8457634e487b7160e01b600052604160045260246000fd5b604051908082528060200260200182016040528015612ead578160200160208202803683370190505b50905060005b83811015612fa35760a88181548110612edc57634e487b7160e01b600052603260045260246000fd5b9060005260206000200160009054906101000a90046001600160a01b0316838281518110612f1a57634e487b7160e01b600052603260045260246000fd5b60200260200101906001600160a01b031690816001600160a01b03168152505060a98181548110612f5b57634e487b7160e01b600052603260045260246000fd5b9060005260206000200154828281518110612f8657634e487b7160e01b600052603260045260246000fd5b602090810291909101015280612f9b8161431b565b915050612eb3565b50612fb060a8600061380a565b612fbc60a9600061380a565b60a154604051632cb9ff9d60e11b8152620100009091046001600160a01b031690635973ff3a90612ff39085908590600401613d21565b600060405180830381600087803b15801561300d57600080fd5b505af1158015613021573d6000803e3d6000fd5b505050505050505050565b6000610f81828461421a565b6000610f81828461410c565b6001600160a01b03821661309a5760405162461bcd60e51b815260206004820152601f60248201527f45524332303a206d696e7420746f20746865207a65726f2061646472657373006044820152606401610c2a565b80603560008282546130ac91906140cf565b90915550506001600160a01b038216600090815260336020526040812080548392906130d99084906140cf565b90915550506040518181526001600160a01b038316906000907fddf252ad1be2c89b69c2b068fc378daa952ba7f163c4a11628f55a4df523b3ef9060200160405180910390a35050565b600282015460ff16816001808501908390811061315057634e487b7160e01b600052603260045260246000fd5b0155600061315f600180614291565b60ff168214613178576131738260016140cf565b61317b565b60005b60028501805460ff191660ff831617908190559091506131aa9061010090046001600160e81b031660016140a4565b8460020160016101000a8154816001600160e81b0302191690836001600160e81b0316021790555050505050565b600054610100900460ff16806131f1575060005460ff16155b61320d5760405162461bcd60e51b8152600401610c2a90613e49565b600054610100900460ff1615801561322f576000805461ffff19166101011790555b6001600160a01b03831661327b5760405162461bcd60e51b8152602060048201526013602482015272456d707479207661756c74206164647265737360681b6044820152606401610c2a565b6132858989613441565b61328d6134c0565b60978054609880546001600160a01b038a81166001600160a81b0319909216919091178b82168015600160a01b029190911790925560ff8981166001600160b01b03199094166201000090930261ffff1916929092179290921761010091881682021790925560a380546001600160a01b03191691861691909117905560a1805461ff0019168415159092029190911790558015613021576000805461ff0019169055505050505050505050565b6000613390826040518060400160405280602081526020017f5361666545524332303a206c6f772d6c6576656c2063616c6c206661696c6564815250856001600160a01b031661353b9092919063ffffffff16565b8051909150156112d757808060200190518101906133ae9190613b4f565b6112d75760405162461bcd60e51b815260206004820152602a60248201527f5361666545524332303a204552433230206f7065726174696f6e20646964206e6044820152691bdd081cdd58d8d9595960b21b6064820152608401610c2a565b60008261341c57506000610f81565b8183101561343757613432826118e2868661302c565b613439565b835b949350505050565b600054610100900460ff168061345a575060005460ff16155b6134765760405162461bcd60e51b8152600401610c2a90613e49565b600054610100900460ff16158015613498576000805461ffff19166101011790555b6134a061354a565b6134aa83836135b4565b80156112d7576000805461ff0019169055505050565b600054610100900460ff16806134d9575060005460ff16155b6134f55760405162461bcd60e51b8152600401610c2a90613e49565b600054610100900460ff16158015613517576000805461ffff19166101011790555b61351f61354a565b613527613649565b8015611260576000805461ff001916905550565b606061343984846000856136a9565b600054610100900460ff1680613563575060005460ff16155b61357f5760405162461bcd60e51b8152600401610c2a90613e49565b600054610100900460ff16158015613527576000805461ffff19166101011790558015611260576000805461ff001916905550565b600054610100900460ff16806135cd575060005460ff16155b6135e95760405162461bcd60e51b8152600401610c2a90613e49565b600054610100900460ff1615801561360b576000805461ffff19166101011790555b825161361e906036906020860190613828565b508151613632906037906020850190613828565b5080156112d7576000805461ff0019169055505050565b600054610100900460ff1680613662575060005460ff16155b61367e5760405162461bcd60e51b8152600401610c2a90613e49565b600054610100900460ff161580156136a0576000805461ffff19166101011790555b61352733612a78565b60608247101561370a5760405162461bcd60e51b815260206004820152602660248201527f416464726573733a20696e73756666696369656e742062616c616e636520666f6044820152651c8818d85b1b60d21b6064820152608401610c2a565b843b6137585760405162461bcd60e51b815260206004820152601d60248201527f416464726573733a2063616c6c20746f206e6f6e2d636f6e74726163740000006044820152606401610c2a565b600080866001600160a01b031685876040516137749190613d05565b60006040518083038185875af1925050503d80600081146137b1576040519150601f19603f3d011682016040523d82523d6000602084013e6137b6565b606091505b50915091506137c68282866137d1565b979650505050505050565b606083156137e0575081610f81565b8251156137f05782518084602001fd5b8160405162461bcd60e51b8152600401610c2a9190613def565b508054600082559060005260206000209081019061126091906138ac565b828054613834906142e0565b90600052602060002090601f016020900481019282613856576000855561389c565b82601f1061386f57805160ff191683800117855561389c565b8280016001018555821561389c579182015b8281111561389c578251825591602001919060010190613881565b506138a89291506138ac565b5090565b5b808211156138a857600081556001016138ad565b600082601f8301126138d1578081fd5b813560206138e66138e183613fff565b613fce565b80838252828201915082860187848660051b8901011115613905578586fd5b855b8581101561392357813584529284019290840190600101613907565b5090979650505050505050565b600082601f830112613940578081fd5b813567ffffffffffffffff81111561395a5761395a61434c565b61396d601f8201601f1916602001613fce565b818152846020838601011115613981578283fd5b816020850160208301379081016020019190915292915050565b803560ff811681146139ac57600080fd5b919050565b6000602082840312156139c2578081fd5b8135610f8181614362565b6000602082840312156139de578081fd5b8151610f8181614362565b600080604083850312156139fb578081fd5b8235613a0681614362565b91506020830135613a1681614362565b809150509250929050565b600080600060608486031215613a35578081fd5b8335613a4081614362565b92506020840135613a5081614362565b929592945050506040919091013590565b60008060408385031215613a73578182fd5b8235613a7e81614362565b946020939093013593505050565b60008060408385031215613a9e578182fd5b823567ffffffffffffffff80821115613ab5578384fd5b818501915085601f830112613ac8578384fd5b81356020613ad86138e183613fff565b8083825282820191508286018a848660051b8901011115613af7578889fd5b8896505b84871015613b22578035613b0e81614362565b835260019690960195918301918301613afb565b5096505086013592505080821115613b38578283fd5b50613b45858286016138c1565b9150509250929050565b600060208284031215613b60578081fd5b81518015158114610f81578182fd5b600080600080600080600060e0888a031215613b89578283fd5b873567ffffffffffffffff80821115613ba0578485fd5b613bac8b838c01613930565b985060208a0135915080821115613bc1578485fd5b50613bce8a828b01613930565b9650506040880135613bdf81614362565b94506060880135613bef81614362565b9350613bfd6080890161399b565b9250613c0b60a0890161399b565b915060c0880135613c1b81614362565b8091505092959891949750929550565b600060808284031215613c3c578081fd5b6040516080810181811067ffffffffffffffff82111715613c5f57613c5f61434c565b60405282358152613c726020840161399b565b602082015260408301358060010b8114613c8a578283fd5b6040820152606083013561ffff81168114613ca3578283fd5b60608201529392505050565b600060208284031215613cc0578081fd5b5035919050565b60008060408385031215613cd9578182fd5b823591506020830135613a1681614362565b600060208284031215613cfc578081fd5b610f818261399b565b60008251613d178184602087016142b4565b9190910192915050565b604080825283519082018190526000906020906060840190828701845b82811015613d635781516001600160a01b031684529284019290840190600101613d3e565b50505083810382850152845180825285830191830190845b8181101561392357835183529284019291840191600101613d7b565b602080825282518282018190526000919060409081850190868401855b82811015613de2578151805185528601516001600160a01b0316868501529284019290850190600101613db4565b5091979650505050505050565b6020815260008251806020840152613e0e8160408501602087016142b4565b601f01601f19169190910160400192915050565b6020808252600d908201526c10995a5b99c81cd95d1d1b1959609a1b604082015260600190565b6020808252602e908201527f496e697469616c697a61626c653a20636f6e747261637420697320616c72656160408201526d191e481a5b9a5d1a585b1a5e995960921b606082015260800190565b6020808252600b908201526a08539bc813585d1d5c995960aa1b604082015260600190565b6020808252818101527f4f776e61626c653a2063616c6c6572206973206e6f7420746865206f776e6572604082015260600190565b60208082526007908201526608585b5bdd5b9d60ca1b604082015260600190565b60208082526010908201526f45786365656420617661696c61626c6560801b604082015260600190565b83548152600184015460208201526002840154604082015260038401546060820152600484015461ffff81166080830152610140820190601081901c60ff1660a0840152613f9460c0840160ff8360181c1615159052565b613fa860e0840160ff8360201c1615159052565b506001600160a01b0384166101008301526001600160a01b038316610120830152613439565b604051601f8201601f1916810167ffffffffffffffff81118282101715613ff757613ff761434c565b604052919050565b600067ffffffffffffffff8211156140195761401961434c565b5060051b60200190565b600080821280156001600160ff1b038490038513161561404557614045614336565b600160ff1b839003841281161561405e5761405e614336565b50500190565b600081810b83820b82821282607f0382138115161561408557614085614336565b82607f1903821281161561409b5761409b614336565b50019392505050565b60006001600160e81b038281168482168083038211156140c6576140c6614336565b01949350505050565b600082198211156140e2576140e2614336565b500190565b600060ff821660ff84168060ff0382111561410457614104614336565b019392505050565b60008261412757634e487b7160e01b81526012600452602481fd5b500490565b600181815b8085111561416757816000190482111561414d5761414d614336565b8085161561415a57918102915b93841c9390800290614131565b509250929050565b6000610f8160ff84168360008261418857506001610be3565b8161419557506000610be3565b81600181146141ab57600281146141b5576141d1565b6001915050610be3565b60ff8411156141c6576141c6614336565b50506001821b610be3565b5060208310610133831016604e8410600b84101617156141f4575081810a610be3565b6141fe838361412c565b806000190482111561421257614212614336565b029392505050565b600081600019048311821515161561423457614234614336565b500290565b600081810b83820b8281128015607f1983018412161561425b5761425b614336565b81607f01831381161561427057614270614336565b5090039392505050565b60008282101561428c5761428c614336565b500390565b600060ff821660ff8416808210156142ab576142ab614336565b90039392505050565b60005b838110156142cf5781810151838201526020016142b7565b838111156126b55750506000910152565b600181811c908216806142f457607f821691505b6020821081141561431557634e487b7160e01b600052602260045260246000fd5b50919050565b600060001982141561432f5761432f614336565b5060010190565b634e487b7160e01b600052601160045260246000fd5b634e487b7160e01b600052604160045260246000fd5b6001600160a01b038116811461126057600080fdfea26469706673582212207b92651006f715d5f7a623b642b6df4af3820840dd0b1d3382b7d0761a16031a64736f6c63430008040033",
  "libraries": {
    "StructureData": "0x07882Ae1ecB7429a84f1D53048d35c4bB2056877"
  },
  "devdoc": {
    "kind": "dev",
    "methods": {
      "allowance(address,address)": {
        "details": "See {IERC20-allowance}."
      },
      "approve(address,uint256)": {
        "details": "See {IERC20-approve}. Requirements: - `spender` cannot be the zero address."
      },
      "balanceOf(address)": {
        "details": "See {IERC20-balanceOf}."
      },
      "decimals()": {
        "details": "Returns the number of decimals used to get its user representation. For example, if `decimals` equals `2`, a balance of `505` tokens should be displayed to a user as `5.05` (`505 / 10 ** 2`). Tokens usually opt for a value of 18, imitating the relationship between Ether and Wei. This is the value {ERC20} uses, unless this function is overridden; NOTE: This information is only used for _display_ purposes: it in no way affects any of the arithmetic of the contract, including {IERC20-balanceOf} and {IERC20-transfer}."
      },
      "decreaseAllowance(address,uint256)": {
        "details": "Atomically decreases the allowance granted to `spender` by the caller. This is an alternative to {approve} that can be used as a mitigation for problems described in {IERC20-approve}. Emits an {Approval} event indicating the updated allowance. Requirements: - `spender` cannot be the zero address. - `spender` must have allowance for the caller of at least `subtractedValue`."
      },
      "increaseAllowance(address,uint256)": {
        "details": "Atomically increases the allowance granted to `spender` by the caller. This is an alternative to {approve} that can be used as a mitigation for problems described in {IERC20-approve}. Emits an {Approval} event indicating the updated allowance. Requirements: - `spender` cannot be the zero address."
      },
      "name()": {
        "details": "Returns the name of the token."
      },
      "owner()": {
        "details": "Returns the address of the current owner."
      },
      "renounceOwnership()": {
        "details": "Leaves the contract without owner. It will not be possible to call `onlyOwner` functions anymore. Can only be called by the current owner. NOTE: Renouncing ownership will leave the contract without an owner, thereby removing any functionality that is only available to the owner."
      },
      "symbol()": {
        "details": "Returns the symbol of the token, usually a shorter version of the name."
      },
      "totalSupply()": {
        "details": "See {IERC20-totalSupply}."
      },
      "transfer(address,uint256)": {
        "details": "See {IERC20-transfer}. Requirements: - `recipient` cannot be the zero address. - the caller must have a balance of at least `amount`."
      },
      "transferFrom(address,address,uint256)": {
        "details": "See {IERC20-transferFrom}. Emits an {Approval} event indicating the updated allowance. This is not required by the EIP. See the note at the beginning of {ERC20}. Requirements: - `sender` and `recipient` cannot be the zero address. - `sender` must have a balance of at least `amount`. - the caller must have allowance for ``sender``'s tokens of at least `amount`."
      },
      "transferOwnership(address)": {
        "details": "Transfers ownership of the contract to a new account (`newOwner`). Can only be called by the current owner."
      }
    },
    "version": 1
  },
  "userdoc": {
    "kind": "user",
    "methods": {},
    "version": 1
  },
  "storageLayout": {
    "storage": [
      {
        "astId": 538,
        "contract": "contracts/Options/PKKTHodlBoosterCallOption.sol:PKKTHodlBoosterCallOption",
        "label": "_initialized",
        "offset": 0,
        "slot": "0",
        "type": "t_bool"
      },
      {
        "astId": 541,
        "contract": "contracts/Options/PKKTHodlBoosterCallOption.sol:PKKTHodlBoosterCallOption",
        "label": "_initializing",
        "offset": 1,
        "slot": "0",
        "type": "t_bool"
      },
      {
        "astId": 1297,
        "contract": "contracts/Options/PKKTHodlBoosterCallOption.sol:PKKTHodlBoosterCallOption",
        "label": "__gap",
        "offset": 0,
        "slot": "1",
        "type": "t_array(t_uint256)50_storage"
      },
      {
        "astId": 597,
        "contract": "contracts/Options/PKKTHodlBoosterCallOption.sol:PKKTHodlBoosterCallOption",
        "label": "_balances",
        "offset": 0,
        "slot": "51",
        "type": "t_mapping(t_address,t_uint256)"
      },
      {
        "astId": 603,
        "contract": "contracts/Options/PKKTHodlBoosterCallOption.sol:PKKTHodlBoosterCallOption",
        "label": "_allowances",
        "offset": 0,
        "slot": "52",
        "type": "t_mapping(t_address,t_mapping(t_address,t_uint256))"
      },
      {
        "astId": 605,
        "contract": "contracts/Options/PKKTHodlBoosterCallOption.sol:PKKTHodlBoosterCallOption",
        "label": "_totalSupply",
        "offset": 0,
        "slot": "53",
        "type": "t_uint256"
      },
      {
        "astId": 607,
        "contract": "contracts/Options/PKKTHodlBoosterCallOption.sol:PKKTHodlBoosterCallOption",
        "label": "_name",
        "offset": 0,
        "slot": "54",
        "type": "t_string_storage"
      },
      {
        "astId": 609,
        "contract": "contracts/Options/PKKTHodlBoosterCallOption.sol:PKKTHodlBoosterCallOption",
        "label": "_symbol",
        "offset": 0,
        "slot": "55",
        "type": "t_string_storage"
      },
      {
        "astId": 1150,
        "contract": "contracts/Options/PKKTHodlBoosterCallOption.sol:PKKTHodlBoosterCallOption",
        "label": "__gap",
        "offset": 0,
        "slot": "56",
        "type": "t_array(t_uint256)45_storage"
      },
      {
        "astId": 418,
        "contract": "contracts/Options/PKKTHodlBoosterCallOption.sol:PKKTHodlBoosterCallOption",
        "label": "_owner",
        "offset": 0,
        "slot": "101",
        "type": "t_address"
      },
      {
        "astId": 531,
        "contract": "contracts/Options/PKKTHodlBoosterCallOption.sol:PKKTHodlBoosterCallOption",
        "label": "__gap",
        "offset": 0,
        "slot": "102",
        "type": "t_array(t_uint256)49_storage"
      },
      {
        "astId": 4853,
        "contract": "contracts/Options/PKKTHodlBoosterCallOption.sol:PKKTHodlBoosterCallOption",
        "label": "depositAssetAmountDecimals",
        "offset": 0,
        "slot": "151",
        "type": "t_uint8"
      },
      {
        "astId": 4855,
        "contract": "contracts/Options/PKKTHodlBoosterCallOption.sol:PKKTHodlBoosterCallOption",
        "label": "counterPartyAssetAmountDecimals",
        "offset": 1,
        "slot": "151",
        "type": "t_uint8"
      },
      {
        "astId": 4857,
        "contract": "contracts/Options/PKKTHodlBoosterCallOption.sol:PKKTHodlBoosterCallOption",
        "label": "depositAsset",
        "offset": 2,
        "slot": "151",
        "type": "t_address"
      },
      {
        "astId": 4859,
        "contract": "contracts/Options/PKKTHodlBoosterCallOption.sol:PKKTHodlBoosterCallOption",
        "label": "counterPartyAsset",
        "offset": 0,
        "slot": "152",
        "type": "t_address"
      },
      {
        "astId": 4861,
        "contract": "contracts/Options/PKKTHodlBoosterCallOption.sol:PKKTHodlBoosterCallOption",
        "label": "isEth",
        "offset": 20,
        "slot": "152",
        "type": "t_bool"
      },
      {
        "astId": 4864,
        "contract": "contracts/Options/PKKTHodlBoosterCallOption.sol:PKKTHodlBoosterCallOption",
        "label": "optionParameters",
        "offset": 0,
        "slot": "153",
        "type": "t_struct(OptionParameters)11769_storage"
      },
      {
        "astId": 4866,
        "contract": "contracts/Options/PKKTHodlBoosterCallOption.sol:PKKTHodlBoosterCallOption",
        "label": "currentRound",
        "offset": 0,
        "slot": "155",
        "type": "t_uint256"
      },
      {
        "astId": 4868,
        "contract": "contracts/Options/PKKTHodlBoosterCallOption.sol:PKKTHodlBoosterCallOption",
        "label": "previousUnderlyingPrice",
        "offset": 0,
        "slot": "156",
        "type": "t_uint256"
      },
      {
        "astId": 4872,
        "contract": "contracts/Options/PKKTHodlBoosterCallOption.sol:PKKTHodlBoosterCallOption",
        "label": "optionHeights",
        "offset": 0,
        "slot": "157",
        "type": "t_mapping(t_uint256,t_uint256)"
      },
      {
        "astId": 4877,
        "contract": "contracts/Options/PKKTHodlBoosterCallOption.sol:PKKTHodlBoosterCallOption",
        "label": "optionStates",
        "offset": 0,
        "slot": "158",
        "type": "t_mapping(t_uint256,t_struct(OptionState)11786_storage)"
      },
      {
        "astId": 4880,
        "contract": "contracts/Options/PKKTHodlBoosterCallOption.sol:PKKTHodlBoosterCallOption",
        "label": "usersInvolved",
        "offset": 0,
        "slot": "159",
        "type": "t_array(t_address)dyn_storage"
      },
      {
        "astId": 4885,
        "contract": "contracts/Options/PKKTHodlBoosterCallOption.sol:PKKTHodlBoosterCallOption",
        "label": "userStates",
        "offset": 0,
        "slot": "160",
        "type": "t_mapping(t_address,t_struct(UserState)11813_storage)"
      },
      {
        "astId": 4887,
        "contract": "contracts/Options/PKKTHodlBoosterCallOption.sol:PKKTHodlBoosterCallOption",
        "label": "underSettlement",
        "offset": 0,
        "slot": "161",
        "type": "t_bool"
      },
      {
        "astId": 4889,
        "contract": "contracts/Options/PKKTHodlBoosterCallOption.sol:PKKTHodlBoosterCallOption",
        "label": "callOrPut",
        "offset": 1,
        "slot": "161",
        "type": "t_bool"
      },
      {
        "astId": 4892,
        "contract": "contracts/Options/PKKTHodlBoosterCallOption.sol:PKKTHodlBoosterCallOption",
        "label": "counterPartyOption",
        "offset": 2,
        "slot": "161",
        "type": "t_contract(IPKKTStructureOption)11702"
      },
      {
        "astId": 4894,
        "contract": "contracts/Options/PKKTHodlBoosterCallOption.sol:PKKTHodlBoosterCallOption",
        "label": "counterParty",
        "offset": 0,
        "slot": "162",
        "type": "t_address"
      },
      {
        "astId": 4897,
        "contract": "contracts/Options/PKKTHodlBoosterCallOption.sol:PKKTHodlBoosterCallOption",
        "label": "optionVault",
        "offset": 0,
        "slot": "163",
        "type": "t_contract(IOptionVault)11621"
      },
      {
        "astId": 4901,
        "contract": "contracts/Options/PKKTHodlBoosterCallOption.sol:PKKTHodlBoosterCallOption",
        "label": "maturedDepositAssetAmount",
        "offset": 0,
        "slot": "164",
        "type": "t_mapping(t_address,t_uint256)"
      },
      {
        "astId": 4905,
        "contract": "contracts/Options/PKKTHodlBoosterCallOption.sol:PKKTHodlBoosterCallOption",
        "label": "maturedCounterPartyAssetAmount",
        "offset": 0,
        "slot": "165",
        "type": "t_mapping(t_address,t_uint256)"
      },
      {
        "astId": 4909,
        "contract": "contracts/Options/PKKTHodlBoosterCallOption.sol:PKKTHodlBoosterCallOption",
        "label": "pendingMaturedDepositAssetAmount",
        "offset": 0,
        "slot": "166",
        "type": "t_mapping(t_address,t_uint256)"
      },
      {
        "astId": 4913,
        "contract": "contracts/Options/PKKTHodlBoosterCallOption.sol:PKKTHodlBoosterCallOption",
        "label": "pendingMaturedCounterPartyAssetAmount",
        "offset": 0,
        "slot": "167",
        "type": "t_mapping(t_address,t_uint256)"
      },
      {
        "astId": 5953,
        "contract": "contracts/Options/PKKTHodlBoosterCallOption.sol:PKKTHodlBoosterCallOption",
        "label": "autoRolledUsers",
        "offset": 0,
        "slot": "168",
        "type": "t_array(t_address)dyn_storage"
      },
      {
        "astId": 5956,
        "contract": "contracts/Options/PKKTHodlBoosterCallOption.sol:PKKTHodlBoosterCallOption",
        "label": "autoRolledAmounts",
        "offset": 0,
        "slot": "169",
        "type": "t_array(t_uint256)dyn_storage"
      }
    ],
    "types": {
      "t_address": {
        "encoding": "inplace",
        "label": "address",
        "numberOfBytes": "20"
      },
      "t_array(t_address)dyn_storage": {
        "base": "t_address",
        "encoding": "dynamic_array",
        "label": "address[]",
        "numberOfBytes": "32"
      },
      "t_array(t_uint256)1_storage": {
        "base": "t_uint256",
        "encoding": "inplace",
        "label": "uint256[1]",
        "numberOfBytes": "32"
      },
      "t_array(t_uint256)45_storage": {
        "base": "t_uint256",
        "encoding": "inplace",
        "label": "uint256[45]",
        "numberOfBytes": "1440"
      },
      "t_array(t_uint256)49_storage": {
        "base": "t_uint256",
        "encoding": "inplace",
        "label": "uint256[49]",
        "numberOfBytes": "1568"
      },
      "t_array(t_uint256)50_storage": {
        "base": "t_uint256",
        "encoding": "inplace",
        "label": "uint256[50]",
        "numberOfBytes": "1600"
      },
      "t_array(t_uint256)dyn_storage": {
        "base": "t_uint256",
        "encoding": "dynamic_array",
        "label": "uint256[]",
        "numberOfBytes": "32"
      },
      "t_bool": {
        "encoding": "inplace",
        "label": "bool",
        "numberOfBytes": "1"
      },
      "t_contract(IOptionVault)11621": {
        "encoding": "inplace",
        "label": "contract IOptionVault",
        "numberOfBytes": "20"
      },
      "t_contract(IPKKTStructureOption)11702": {
        "encoding": "inplace",
        "label": "contract IPKKTStructureOption",
        "numberOfBytes": "20"
      },
      "t_int16": {
        "encoding": "inplace",
        "label": "int16",
        "numberOfBytes": "2"
      },
      "t_mapping(t_address,t_mapping(t_address,t_uint256))": {
        "encoding": "mapping",
        "key": "t_address",
        "label": "mapping(address => mapping(address => uint256))",
        "numberOfBytes": "32",
        "value": "t_mapping(t_address,t_uint256)"
      },
      "t_mapping(t_address,t_struct(UserState)11813_storage)": {
        "encoding": "mapping",
        "key": "t_address",
        "label": "mapping(address => struct StructureData.UserState)",
        "numberOfBytes": "32",
        "value": "t_struct(UserState)11813_storage"
      },
      "t_mapping(t_address,t_uint256)": {
        "encoding": "mapping",
        "key": "t_address",
        "label": "mapping(address => uint256)",
        "numberOfBytes": "32",
        "value": "t_uint256"
      },
      "t_mapping(t_uint256,t_struct(OptionState)11786_storage)": {
        "encoding": "mapping",
        "key": "t_uint256",
        "label": "mapping(uint256 => struct StructureData.OptionState)",
        "numberOfBytes": "32",
        "value": "t_struct(OptionState)11786_storage"
      },
      "t_mapping(t_uint256,t_uint256)": {
        "encoding": "mapping",
        "key": "t_uint256",
        "label": "mapping(uint256 => uint256)",
        "numberOfBytes": "32",
        "value": "t_uint256"
      },
      "t_string_storage": {
        "encoding": "bytes",
        "label": "string",
        "numberOfBytes": "32"
      },
      "t_struct(OptionParameters)11769_storage": {
        "encoding": "inplace",
        "label": "struct StructureData.OptionParameters",
        "members": [
          {
            "astId": 11762,
            "contract": "contracts/Options/PKKTHodlBoosterCallOption.sol:PKKTHodlBoosterCallOption",
            "label": "quota",
            "offset": 0,
            "slot": "0",
            "type": "t_uint256"
          },
          {
            "astId": 11764,
            "contract": "contracts/Options/PKKTHodlBoosterCallOption.sol:PKKTHodlBoosterCallOption",
            "label": "pricePrecision",
            "offset": 0,
            "slot": "1",
            "type": "t_uint8"
          },
          {
            "astId": 11766,
            "contract": "contracts/Options/PKKTHodlBoosterCallOption.sol:PKKTHodlBoosterCallOption",
            "label": "strikePriceRatio",
            "offset": 1,
            "slot": "1",
            "type": "t_int16"
          },
          {
            "astId": 11768,
            "contract": "contracts/Options/PKKTHodlBoosterCallOption.sol:PKKTHodlBoosterCallOption",
            "label": "premiumRate",
            "offset": 3,
            "slot": "1",
            "type": "t_uint16"
          }
        ],
        "numberOfBytes": "64"
      },
      "t_struct(OptionState)11786_storage": {
        "encoding": "inplace",
        "label": "struct StructureData.OptionState",
        "members": [
          {
            "astId": 11771,
            "contract": "contracts/Options/PKKTHodlBoosterCallOption.sol:PKKTHodlBoosterCallOption",
            "label": "round",
            "offset": 0,
            "slot": "0",
            "type": "t_uint256"
          },
          {
            "astId": 11773,
            "contract": "contracts/Options/PKKTHodlBoosterCallOption.sol:PKKTHodlBoosterCallOption",
            "label": "totalAmount",
            "offset": 0,
            "slot": "1",
            "type": "t_uint256"
          },
          {
            "astId": 11775,
            "contract": "contracts/Options/PKKTHodlBoosterCallOption.sol:PKKTHodlBoosterCallOption",
            "label": "strikePrice",
            "offset": 0,
            "slot": "2",
            "type": "t_uint256"
          },
          {
            "astId": 11777,
            "contract": "contracts/Options/PKKTHodlBoosterCallOption.sol:PKKTHodlBoosterCallOption",
            "label": "underlyingPrice",
            "offset": 0,
            "slot": "3",
            "type": "t_uint256"
          },
          {
            "astId": 11779,
            "contract": "contracts/Options/PKKTHodlBoosterCallOption.sol:PKKTHodlBoosterCallOption",
            "label": "premiumRate",
            "offset": 0,
            "slot": "4",
            "type": "t_uint16"
          },
          {
            "astId": 11781,
            "contract": "contracts/Options/PKKTHodlBoosterCallOption.sol:PKKTHodlBoosterCallOption",
            "label": "pricePrecision",
            "offset": 2,
            "slot": "4",
            "type": "t_uint8"
          },
          {
            "astId": 11783,
            "contract": "contracts/Options/PKKTHodlBoosterCallOption.sol:PKKTHodlBoosterCallOption",
            "label": "executed",
            "offset": 3,
            "slot": "4",
            "type": "t_bool"
          },
          {
            "astId": 11785,
            "contract": "contracts/Options/PKKTHodlBoosterCallOption.sol:PKKTHodlBoosterCallOption",
            "label": "callOrPut",
            "offset": 4,
            "slot": "4",
            "type": "t_bool"
          }
        ],
        "numberOfBytes": "160"
      },
      "t_struct(UserState)11813_storage": {
        "encoding": "inplace",
        "label": "struct StructureData.UserState",
        "members": [
          {
            "astId": 11800,
            "contract": "contracts/Options/PKKTHodlBoosterCallOption.sol:PKKTHodlBoosterCallOption",
            "label": "pendingAsset",
            "offset": 0,
            "slot": "0",
            "type": "t_uint256"
          },
          {
            "astId": 11804,
            "contract": "contracts/Options/PKKTHodlBoosterCallOption.sol:PKKTHodlBoosterCallOption",
            "label": "ongoingAsset",
            "offset": 0,
            "slot": "1",
            "type": "t_array(t_uint256)1_storage"
          },
          {
            "astId": 11806,
            "contract": "contracts/Options/PKKTHodlBoosterCallOption.sol:PKKTHodlBoosterCallOption",
            "label": "nextCursor",
            "offset": 0,
            "slot": "2",
            "type": "t_uint8"
          },
          {
            "astId": 11808,
            "contract": "contracts/Options/PKKTHodlBoosterCallOption.sol:PKKTHodlBoosterCallOption",
            "label": "totalRound",
            "offset": 1,
            "slot": "2",
            "type": "t_uint232"
          },
          {
            "astId": 11810,
            "contract": "contracts/Options/PKKTHodlBoosterCallOption.sol:PKKTHodlBoosterCallOption",
            "label": "hasState",
            "offset": 30,
            "slot": "2",
            "type": "t_bool"
          },
          {
            "astId": 11812,
            "contract": "contracts/Options/PKKTHodlBoosterCallOption.sol:PKKTHodlBoosterCallOption",
            "label": "assetToTerminate",
            "offset": 0,
            "slot": "3",
            "type": "t_uint256"
          }
        ],
        "numberOfBytes": "128"
      },
      "t_uint16": {
        "encoding": "inplace",
        "label": "uint16",
        "numberOfBytes": "2"
      },
      "t_uint232": {
        "encoding": "inplace",
        "label": "uint232",
        "numberOfBytes": "29"
      },
      "t_uint256": {
        "encoding": "inplace",
        "label": "uint256",
        "numberOfBytes": "32"
      },
      "t_uint8": {
        "encoding": "inplace",
        "label": "uint8",
        "numberOfBytes": "1"
      }
    }
  }
}