{
  "address": "0xAD523115cd35a8d4E60B3C0953E0E0ac10418309",
  "abi": [
    {
      "anonymous": false,
      "inputs": [
        {
          "indexed": true,
          "internalType": "address",
          "name": "owner",
          "type": "address"
        },
        {
          "indexed": true,
          "internalType": "address",
          "name": "spender",
          "type": "address"
        },
        {
          "indexed": false,
          "internalType": "uint256",
          "name": "value",
          "type": "uint256"
        }
      ],
      "name": "Approval",
      "type": "event"
    },
    {
      "anonymous": false,
      "inputs": [
        {
          "indexed": true,
          "internalType": "uint256",
          "name": "round",
          "type": "uint256"
        }
      ],
      "name": "CloseOption",
      "type": "event"
    },
    {
      "anonymous": false,
      "inputs": [
        {
          "indexed": true,
          "internalType": "uint256",
          "name": "round",
          "type": "uint256"
        }
      ],
      "name": "CommitOption",
      "type": "event"
    },
    {
      "anonymous": false,
      "inputs": [
        {
          "indexed": true,
          "internalType": "address",
          "name": "from",
          "type": "address"
        },
        {
          "indexed": true,
          "internalType": "address",
          "name": "account",
          "type": "address"
        },
        {
          "indexed": true,
          "internalType": "uint256",
          "name": "round",
          "type": "uint256"
        },
        {
          "indexed": false,
          "internalType": "uint256",
          "name": "amount",
          "type": "uint256"
        },
        {
          "indexed": false,
          "internalType": "address",
          "name": "option",
          "type": "address"
        }
      ],
      "name": "Deposit",
      "type": "event"
    },
    {
      "anonymous": false,
      "inputs": [
        {
          "indexed": true,
          "internalType": "uint256",
          "name": "round",
          "type": "uint256"
        }
      ],
      "name": "OpenOption",
      "type": "event"
    },
    {
      "anonymous": false,
      "inputs": [
        {
          "indexed": true,
          "internalType": "address",
          "name": "option",
          "type": "address"
        },
        {
          "indexed": false,
          "internalType": "string",
          "name": "name",
          "type": "string"
        }
      ],
      "name": "OptionCreated",
      "type": "event"
    },
    {
      "anonymous": false,
      "inputs": [
        {
          "indexed": false,
          "internalType": "address",
          "name": "from",
          "type": "address"
        },
        {
          "indexed": false,
          "internalType": "address",
          "name": "to",
          "type": "address"
        },
        {
          "indexed": false,
          "internalType": "uint256",
          "name": "premium",
          "type": "uint256"
        },
        {
          "indexed": false,
          "internalType": "uint256",
          "name": "round",
          "type": "uint256"
        }
      ],
      "name": "OptionTransfer",
      "type": "event"
    },
    {
      "anonymous": false,
      "inputs": [
        {
          "indexed": true,
          "internalType": "bytes32",
          "name": "role",
          "type": "bytes32"
        },
        {
          "indexed": true,
          "internalType": "bytes32",
          "name": "previousAdminRole",
          "type": "bytes32"
        },
        {
          "indexed": true,
          "internalType": "bytes32",
          "name": "newAdminRole",
          "type": "bytes32"
        }
      ],
      "name": "RoleAdminChanged",
      "type": "event"
    },
    {
      "anonymous": false,
      "inputs": [
        {
          "indexed": true,
          "internalType": "bytes32",
          "name": "role",
          "type": "bytes32"
        },
        {
          "indexed": true,
          "internalType": "address",
          "name": "account",
          "type": "address"
        },
        {
          "indexed": true,
          "internalType": "address",
          "name": "sender",
          "type": "address"
        }
      ],
      "name": "RoleGranted",
      "type": "event"
    },
    {
      "anonymous": false,
      "inputs": [
        {
          "indexed": true,
          "internalType": "bytes32",
          "name": "role",
          "type": "bytes32"
        },
        {
          "indexed": true,
          "internalType": "address",
          "name": "account",
          "type": "address"
        },
        {
          "indexed": true,
          "internalType": "address",
          "name": "sender",
          "type": "address"
        }
      ],
      "name": "RoleRevoked",
      "type": "event"
    },
    {
      "anonymous": false,
      "inputs": [
        {
          "indexed": true,
          "internalType": "address",
          "name": "from",
          "type": "address"
        },
        {
          "indexed": true,
          "internalType": "address",
          "name": "to",
          "type": "address"
        },
        {
          "indexed": false,
          "internalType": "uint256",
          "name": "value",
          "type": "uint256"
        }
      ],
      "name": "Transfer",
      "type": "event"
    },
    {
      "anonymous": false,
      "inputs": [
        {
          "indexed": true,
          "internalType": "address",
          "name": "account",
          "type": "address"
        },
        {
          "indexed": true,
          "internalType": "address",
          "name": "asset",
          "type": "address"
        },
        {
          "indexed": false,
          "internalType": "uint256",
          "name": "amount",
          "type": "uint256"
        }
      ],
      "name": "Withdraw",
      "type": "event"
    },
    {
      "inputs": [],
      "name": "DEFAULT_ADMIN_ROLE",
      "outputs": [
        {
          "internalType": "bytes32",
          "name": "",
          "type": "bytes32"
        }
      ],
      "stateMutability": "view",
      "type": "function"
    },
    {
      "inputs": [],
      "name": "OPTION_ROLE",
      "outputs": [
        {
          "internalType": "bytes32",
          "name": "",
          "type": "bytes32"
        }
      ],
      "stateMutability": "view",
      "type": "function"
    },
    {
      "inputs": [],
      "name": "SETTLER_ROLE",
      "outputs": [
        {
          "internalType": "bytes32",
          "name": "",
          "type": "bytes32"
        }
      ],
      "stateMutability": "view",
      "type": "function"
    },
    {
      "inputs": [
        {
          "internalType": "address",
          "name": "owner",
          "type": "address"
        },
        {
          "internalType": "address",
          "name": "spender",
          "type": "address"
        }
      ],
      "name": "allowance",
      "outputs": [
        {
          "internalType": "uint256",
          "name": "",
          "type": "uint256"
        }
      ],
      "stateMutability": "view",
      "type": "function"
    },
    {
      "inputs": [
        {
          "internalType": "address",
          "name": "spender",
          "type": "address"
        },
        {
          "internalType": "uint256",
          "name": "amount",
          "type": "uint256"
        }
      ],
      "name": "approve",
      "outputs": [
        {
          "internalType": "bool",
          "name": "",
          "type": "bool"
        }
      ],
      "stateMutability": "nonpayable",
      "type": "function"
    },
    {
      "inputs": [
        {
          "internalType": "address",
          "name": "account",
          "type": "address"
        }
      ],
      "name": "balanceOf",
      "outputs": [
        {
          "internalType": "uint256",
          "name": "",
          "type": "uint256"
        }
      ],
      "stateMutability": "view",
      "type": "function"
    },
    {
      "inputs": [],
      "name": "callOrPut",
      "outputs": [
        {
          "internalType": "bool",
          "name": "",
          "type": "bool"
        }
      ],
      "stateMutability": "view",
      "type": "function"
    },
    {
      "inputs": [
        {
          "internalType": "uint256",
          "name": "_assetToTerminate",
          "type": "uint256"
        }
      ],
      "name": "cancelWithdraw",
      "outputs": [],
      "stateMutability": "nonpayable",
      "type": "function"
    },
    {
      "inputs": [
        {
          "internalType": "bool",
          "name": "_execute",
          "type": "bool"
        }
      ],
      "name": "closePrevious",
      "outputs": [
        {
          "components": [
            {
              "internalType": "uint256",
              "name": "releasedDepositAssetAmount",
              "type": "uint256"
            },
            {
              "internalType": "uint256",
              "name": "releasedDepositAssetPremiumAmount",
              "type": "uint256"
            },
            {
              "internalType": "uint256",
              "name": "releasedCounterPartyAssetAmount",
              "type": "uint256"
            },
            {
              "internalType": "uint256",
              "name": "releasedCounterPartyAssetPremiumAmount",
              "type": "uint256"
            },
            {
              "internalType": "uint256",
              "name": "autoRollDepositAssetAmount",
              "type": "uint256"
            },
            {
              "internalType": "uint256",
              "name": "autoRollDepositAssetPremiumAmount",
              "type": "uint256"
            },
            {
              "internalType": "uint256",
              "name": "autoRollCounterPartyAssetAmount",
              "type": "uint256"
            },
            {
              "internalType": "uint256",
              "name": "autoRollCounterPartyAssetPremiumAmount",
              "type": "uint256"
            },
            {
              "internalType": "uint256",
              "name": "round",
              "type": "uint256"
            }
          ],
          "internalType": "struct StructureData.MaturedState",
          "name": "_maturedState",
          "type": "tuple"
        }
      ],
      "stateMutability": "nonpayable",
      "type": "function"
    },
    {
      "inputs": [],
      "name": "commitCurrent",
      "outputs": [],
      "stateMutability": "nonpayable",
      "type": "function"
    },
    {
      "inputs": [
        {
          "internalType": "uint256",
          "name": "_amount",
          "type": "uint256"
        },
        {
          "internalType": "address",
          "name": "_asset",
          "type": "address"
        }
      ],
      "name": "completeWithdraw",
      "outputs": [],
      "stateMutability": "nonpayable",
      "type": "function"
    },
    {
      "inputs": [],
      "name": "counterParty",
      "outputs": [
        {
          "internalType": "address",
          "name": "",
          "type": "address"
        }
      ],
      "stateMutability": "view",
      "type": "function"
    },
    {
      "inputs": [],
      "name": "counterPartyAsset",
      "outputs": [
        {
          "internalType": "address",
          "name": "",
          "type": "address"
        }
      ],
      "stateMutability": "view",
      "type": "function"
    },
    {
      "inputs": [],
      "name": "counterPartyAssetAmountDecimals",
      "outputs": [
        {
          "internalType": "uint8",
          "name": "",
          "type": "uint8"
        }
      ],
      "stateMutability": "view",
      "type": "function"
    },
    {
      "inputs": [],
      "name": "counterPartyOption",
      "outputs": [
        {
          "internalType": "contract IPKKTStructureOption",
          "name": "",
          "type": "address"
        }
      ],
      "stateMutability": "view",
      "type": "function"
    },
    {
      "inputs": [],
      "name": "currentRound",
      "outputs": [
        {
          "internalType": "uint256",
          "name": "",
          "type": "uint256"
        }
      ],
      "stateMutability": "view",
      "type": "function"
    },
    {
      "inputs": [],
      "name": "decimals",
      "outputs": [
        {
          "internalType": "uint8",
          "name": "",
          "type": "uint8"
        }
      ],
      "stateMutability": "view",
      "type": "function"
    },
    {
      "inputs": [
        {
          "internalType": "address",
          "name": "spender",
          "type": "address"
        },
        {
          "internalType": "uint256",
          "name": "subtractedValue",
          "type": "uint256"
        }
      ],
      "name": "decreaseAllowance",
      "outputs": [
        {
          "internalType": "bool",
          "name": "",
          "type": "bool"
        }
      ],
      "stateMutability": "nonpayable",
      "type": "function"
    },
    {
      "inputs": [
        {
          "internalType": "uint256",
          "name": "_amount",
          "type": "uint256"
        }
      ],
      "name": "deposit",
      "outputs": [],
      "stateMutability": "nonpayable",
      "type": "function"
    },
    {
      "inputs": [],
      "name": "depositAsset",
      "outputs": [
        {
          "internalType": "address",
          "name": "",
          "type": "address"
        }
      ],
      "stateMutability": "view",
      "type": "function"
    },
    {
      "inputs": [],
      "name": "depositAssetAmountDecimals",
      "outputs": [
        {
          "internalType": "uint8",
          "name": "",
          "type": "uint8"
        }
      ],
      "stateMutability": "view",
      "type": "function"
    },
    {
      "inputs": [],
      "name": "depositETH",
      "outputs": [],
      "stateMutability": "payable",
      "type": "function"
    },
    {
      "inputs": [
        {
          "internalType": "address[]",
          "name": "addresses",
          "type": "address[]"
        },
        {
          "internalType": "uint256[]",
          "name": "_amounts",
          "type": "uint256[]"
        },
        {
          "internalType": "uint256[]",
          "name": "_terminates",
          "type": "uint256[]"
        }
      ],
      "name": "depositFromCounterParty",
      "outputs": [],
      "stateMutability": "nonpayable",
      "type": "function"
    },
    {
      "inputs": [
        {
          "internalType": "bool",
          "name": "_execute",
          "type": "bool"
        }
      ],
      "name": "dryRunSettlement",
      "outputs": [
        {
          "components": [
            {
              "internalType": "address",
              "name": "option",
              "type": "address"
            },
            {
              "internalType": "uint256",
              "name": "round",
              "type": "uint256"
            },
            {
              "internalType": "uint256",
              "name": "depositAmount",
              "type": "uint256"
            },
            {
              "internalType": "bool",
              "name": "executed",
              "type": "bool"
            },
            {
              "internalType": "uint256",
              "name": "autoRollAmount",
              "type": "uint256"
            },
            {
              "internalType": "uint256",
              "name": "autoRollPremium",
              "type": "uint256"
            },
            {
              "internalType": "uint256",
              "name": "releasedAmount",
              "type": "uint256"
            },
            {
              "internalType": "uint256",
              "name": "releasedPremium",
              "type": "uint256"
            },
            {
              "internalType": "uint256",
              "name": "autoRollCounterPartyAmount",
              "type": "uint256"
            },
            {
              "internalType": "uint256",
              "name": "autoRollCounterPartyPremium",
              "type": "uint256"
            },
            {
              "internalType": "uint256",
              "name": "releasedCounterPartyAmount",
              "type": "uint256"
            },
            {
              "internalType": "uint256",
              "name": "releasedCounterPartyPremium",
              "type": "uint256"
            }
          ],
          "internalType": "struct StructureData.SettlementAccountingResult",
          "name": "_result",
          "type": "tuple"
        }
      ],
      "stateMutability": "view",
      "type": "function"
    },
    {
      "inputs": [],
      "name": "getAccountBalance",
      "outputs": [
        {
          "components": [
            {
              "internalType": "uint256",
              "name": "pendingDepositAssetAmount",
              "type": "uint256"
            },
            {
              "internalType": "uint256",
              "name": "lockedDepositAssetAmount",
              "type": "uint256"
            },
            {
              "internalType": "uint256",
              "name": "releasedDepositAssetAmount",
              "type": "uint256"
            },
            {
              "internalType": "uint256",
              "name": "releasedCounterPartyAssetAmount",
              "type": "uint256"
            }
          ],
          "internalType": "struct StructureData.UserBalance",
          "name": "",
          "type": "tuple"
        }
      ],
      "stateMutability": "view",
      "type": "function"
    },
    {
      "inputs": [],
      "name": "getOptionSnapShot",
      "outputs": [
        {
          "components": [
            {
              "internalType": "uint256",
              "name": "totalPending",
              "type": "uint256"
            },
            {
              "internalType": "uint256",
              "name": "totalLocked",
              "type": "uint256"
            },
            {
              "internalType": "uint256",
              "name": "totalReleasedDeposit",
              "type": "uint256"
            },
            {
              "internalType": "uint256",
              "name": "totalReleasedCounterParty",
              "type": "uint256"
            }
          ],
          "internalType": "struct StructureData.OptionSnapshot",
          "name": "",
          "type": "tuple"
        }
      ],
      "stateMutability": "view",
      "type": "function"
    },
    {
      "inputs": [
        {
          "internalType": "bytes32",
          "name": "role",
          "type": "bytes32"
        }
      ],
      "name": "getRoleAdmin",
      "outputs": [
        {
          "internalType": "bytes32",
          "name": "",
          "type": "bytes32"
        }
      ],
      "stateMutability": "view",
      "type": "function"
    },
    {
      "inputs": [
        {
          "internalType": "uint256",
          "name": "_blockHeight",
          "type": "uint256"
        }
      ],
      "name": "getRoundData",
      "outputs": [
        {
          "components": [
            {
              "internalType": "uint256",
              "name": "round",
              "type": "uint256"
            },
            {
              "internalType": "uint256",
              "name": "totalAmount",
              "type": "uint256"
            },
            {
              "internalType": "uint256",
              "name": "totalTerminate",
              "type": "uint256"
            },
            {
              "internalType": "uint256",
              "name": "strikePrice",
              "type": "uint256"
            },
            {
              "internalType": "uint16",
              "name": "premiumRate",
              "type": "uint16"
            },
            {
              "internalType": "uint8",
              "name": "pricePrecision",
              "type": "uint8"
            },
            {
              "internalType": "bool",
              "name": "executed",
              "type": "bool"
            },
            {
              "internalType": "bool",
              "name": "callOrPut",
              "type": "bool"
            }
          ],
          "internalType": "struct StructureData.OptionState",
          "name": "",
          "type": "tuple"
        }
      ],
      "stateMutability": "view",
      "type": "function"
    },
    {
      "inputs": [
        {
          "internalType": "address",
          "name": "_asset",
          "type": "address"
        }
      ],
      "name": "getWithdrawable",
      "outputs": [
        {
          "internalType": "uint256",
          "name": "",
          "type": "uint256"
        }
      ],
      "stateMutability": "view",
      "type": "function"
    },
    {
      "inputs": [
        {
          "internalType": "bytes32",
          "name": "role",
          "type": "bytes32"
        },
        {
          "internalType": "address",
          "name": "account",
          "type": "address"
        }
      ],
      "name": "grantRole",
      "outputs": [],
      "stateMutability": "nonpayable",
      "type": "function"
    },
    {
      "inputs": [
        {
          "internalType": "bytes32",
          "name": "role",
          "type": "bytes32"
        },
        {
          "internalType": "address",
          "name": "account",
          "type": "address"
        }
      ],
      "name": "hasRole",
      "outputs": [
        {
          "internalType": "bool",
          "name": "",
          "type": "bool"
        }
      ],
      "stateMutability": "view",
      "type": "function"
    },
    {
      "inputs": [
        {
          "internalType": "address",
          "name": "spender",
          "type": "address"
        },
        {
          "internalType": "uint256",
          "name": "addedValue",
          "type": "uint256"
        }
      ],
      "name": "increaseAllowance",
      "outputs": [
        {
          "internalType": "bool",
          "name": "",
          "type": "bool"
        }
      ],
      "stateMutability": "nonpayable",
      "type": "function"
    },
    {
      "inputs": [
        {
          "internalType": "string",
          "name": "name",
          "type": "string"
        },
        {
          "internalType": "string",
          "name": "symbol",
          "type": "string"
        },
        {
          "internalType": "address",
          "name": "_depositAsset",
          "type": "address"
        },
        {
          "internalType": "address",
          "name": "_counterPartyAsset",
          "type": "address"
        },
        {
          "internalType": "uint8",
          "name": "_depositAssetAmountDecimals",
          "type": "uint8"
        },
        {
          "internalType": "uint8",
          "name": "_counterPartyAssetAmountDecimals",
          "type": "uint8"
        },
        {
          "internalType": "address",
          "name": "_vaultAddress",
          "type": "address"
        },
        {
          "internalType": "bool",
          "name": "_callOrPut",
          "type": "bool"
        },
        {
          "internalType": "address",
          "name": "_settler",
          "type": "address"
        }
      ],
      "name": "initialize",
      "outputs": [],
      "stateMutability": "nonpayable",
      "type": "function"
    },
    {
      "inputs": [
        {
          "internalType": "uint256",
          "name": "_assetToTerminate",
          "type": "uint256"
        }
      ],
      "name": "initiateWithraw",
      "outputs": [],
      "stateMutability": "nonpayable",
      "type": "function"
    },
    {
      "inputs": [],
      "name": "isEth",
      "outputs": [
        {
          "internalType": "bool",
          "name": "",
          "type": "bool"
        }
      ],
      "stateMutability": "view",
      "type": "function"
    },
    {
      "inputs": [],
      "name": "maxCancelWithdraw",
      "outputs": [],
      "stateMutability": "nonpayable",
      "type": "function"
    },
    {
      "inputs": [],
      "name": "maxInitiateWithdraw",
      "outputs": [],
      "stateMutability": "nonpayable",
      "type": "function"
    },
    {
      "inputs": [],
      "name": "name",
      "outputs": [
        {
          "internalType": "string",
          "name": "",
          "type": "string"
        }
      ],
      "stateMutability": "view",
      "type": "function"
    },
    {
      "inputs": [
        {
          "internalType": "uint256",
          "name": "",
          "type": "uint256"
        }
      ],
      "name": "optionHeights",
      "outputs": [
        {
          "internalType": "uint256",
          "name": "",
          "type": "uint256"
        }
      ],
      "stateMutability": "view",
      "type": "function"
    },
    {
      "inputs": [
        {
          "internalType": "uint256",
          "name": "",
          "type": "uint256"
        }
      ],
      "name": "optionStates",
      "outputs": [
        {
          "internalType": "uint256",
          "name": "round",
          "type": "uint256"
        },
        {
          "internalType": "uint256",
          "name": "totalAmount",
          "type": "uint256"
        },
        {
          "internalType": "uint256",
          "name": "totalTerminate",
          "type": "uint256"
        },
        {
          "internalType": "uint256",
          "name": "strikePrice",
          "type": "uint256"
        },
        {
          "internalType": "uint16",
          "name": "premiumRate",
          "type": "uint16"
        },
        {
          "internalType": "uint8",
          "name": "pricePrecision",
          "type": "uint8"
        },
        {
          "internalType": "bool",
          "name": "executed",
          "type": "bool"
        },
        {
          "internalType": "bool",
          "name": "callOrPut",
          "type": "bool"
        }
      ],
      "stateMutability": "view",
      "type": "function"
    },
    {
      "inputs": [],
      "name": "optionVault",
      "outputs": [
        {
          "internalType": "contract IOptionVault",
          "name": "",
          "type": "address"
        }
      ],
      "stateMutability": "view",
      "type": "function"
    },
    {
      "inputs": [
        {
          "internalType": "uint256",
          "name": "_amount",
          "type": "uint256"
        }
      ],
      "name": "redeem",
      "outputs": [],
      "stateMutability": "nonpayable",
      "type": "function"
    },
    {
      "inputs": [
        {
          "internalType": "uint256",
          "name": "_amount",
          "type": "uint256"
        }
      ],
      "name": "redeposit",
      "outputs": [],
      "stateMutability": "nonpayable",
      "type": "function"
    },
    {
      "inputs": [
        {
          "internalType": "uint256",
          "name": "_amount",
          "type": "uint256"
        }
      ],
      "name": "redepositToCounterParty",
      "outputs": [],
      "stateMutability": "nonpayable",
      "type": "function"
    },
    {
      "inputs": [
        {
          "internalType": "bytes32",
          "name": "role",
          "type": "bytes32"
        },
        {
          "internalType": "address",
          "name": "account",
          "type": "address"
        }
      ],
      "name": "renounceRole",
      "outputs": [],
      "stateMutability": "nonpayable",
      "type": "function"
    },
    {
      "inputs": [
        {
          "internalType": "bytes32",
          "name": "role",
          "type": "bytes32"
        },
        {
          "internalType": "address",
          "name": "account",
          "type": "address"
        }
      ],
      "name": "revokeRole",
      "outputs": [],
      "stateMutability": "nonpayable",
      "type": "function"
    },
    {
      "inputs": [
        {
          "internalType": "uint256",
          "name": "_quota",
          "type": "uint256"
        }
      ],
      "name": "rollToNext",
      "outputs": [
        {
          "internalType": "uint256",
          "name": "_pendingAmount",
          "type": "uint256"
        }
      ],
      "stateMutability": "nonpayable",
      "type": "function"
    },
    {
      "inputs": [
        {
          "internalType": "address",
          "name": "_counterParty",
          "type": "address"
        }
      ],
      "name": "setCounterPartyOption",
      "outputs": [],
      "stateMutability": "nonpayable",
      "type": "function"
    },
    {
      "inputs": [
        {
          "components": [
            {
              "internalType": "address",
              "name": "option",
              "type": "address"
            },
            {
              "internalType": "uint256",
              "name": "strikePrice",
              "type": "uint256"
            },
            {
              "internalType": "uint8",
              "name": "pricePrecision",
              "type": "uint8"
            },
            {
              "internalType": "uint16",
              "name": "premiumRate",
              "type": "uint16"
            }
          ],
          "internalType": "struct StructureData.OptionParameters",
          "name": "_optionParameters",
          "type": "tuple"
        }
      ],
      "name": "setOptionParameters",
      "outputs": [],
      "stateMutability": "nonpayable",
      "type": "function"
    },
    {
      "inputs": [
        {
          "internalType": "bytes4",
          "name": "interfaceId",
          "type": "bytes4"
        }
      ],
      "name": "supportsInterface",
      "outputs": [
        {
          "internalType": "bool",
          "name": "",
          "type": "bool"
        }
      ],
      "stateMutability": "view",
      "type": "function"
    },
    {
      "inputs": [],
      "name": "symbol",
      "outputs": [
        {
          "internalType": "string",
          "name": "",
          "type": "string"
        }
      ],
      "stateMutability": "view",
      "type": "function"
    },
    {
      "inputs": [],
      "name": "totalReleasedCounterPartyAssetAmount",
      "outputs": [
        {
          "internalType": "uint256",
          "name": "",
          "type": "uint256"
        }
      ],
      "stateMutability": "view",
      "type": "function"
    },
    {
      "inputs": [],
      "name": "totalReleasedDepositAssetAmount",
      "outputs": [
        {
          "internalType": "uint256",
          "name": "",
          "type": "uint256"
        }
      ],
      "stateMutability": "view",
      "type": "function"
    },
    {
      "inputs": [],
      "name": "totalSupply",
      "outputs": [
        {
          "internalType": "uint256",
          "name": "",
          "type": "uint256"
        }
      ],
      "stateMutability": "view",
      "type": "function"
    },
    {
      "inputs": [
        {
          "internalType": "address",
          "name": "recipient",
          "type": "address"
        },
        {
          "internalType": "uint256",
          "name": "amount",
          "type": "uint256"
        }
      ],
      "name": "transfer",
      "outputs": [
        {
          "internalType": "bool",
          "name": "",
          "type": "bool"
        }
      ],
      "stateMutability": "nonpayable",
      "type": "function"
    },
    {
      "inputs": [
        {
          "internalType": "address",
          "name": "sender",
          "type": "address"
        },
        {
          "internalType": "address",
          "name": "recipient",
          "type": "address"
        },
        {
          "internalType": "uint256",
          "name": "amount",
          "type": "uint256"
        }
      ],
      "name": "transferFrom",
      "outputs": [
        {
          "internalType": "bool",
          "name": "",
          "type": "bool"
        }
      ],
      "stateMutability": "nonpayable",
      "type": "function"
    },
    {
      "inputs": [],
      "name": "underSettlement",
      "outputs": [
        {
          "internalType": "bool",
          "name": "",
          "type": "bool"
        }
      ],
      "stateMutability": "view",
      "type": "function"
    },
    {
      "inputs": [
        {
          "internalType": "address",
          "name": "",
          "type": "address"
        }
      ],
      "name": "userStates",
      "outputs": [
        {
          "internalType": "uint256",
          "name": "pendingAsset",
          "type": "uint256"
        },
        {
          "internalType": "uint256",
          "name": "tempLocked",
          "type": "uint256"
        },
        {
          "internalType": "uint8",
          "name": "nextCursor",
          "type": "uint8"
        },
        {
          "internalType": "uint232",
          "name": "totalRound",
          "type": "uint232"
        },
        {
          "internalType": "bool",
          "name": "hasState",
          "type": "bool"
        },
        {
          "internalType": "uint256",
          "name": "assetToTerminate",
          "type": "uint256"
        },
        {
          "internalType": "uint256",
          "name": "assetToTerminateForNextRound",
          "type": "uint256"
        }
      ],
      "stateMutability": "view",
      "type": "function"
    },
    {
      "inputs": [
        {
          "internalType": "uint256",
          "name": "",
          "type": "uint256"
        }
      ],
      "name": "usersInvolved",
      "outputs": [
        {
          "internalType": "address",
          "name": "",
          "type": "address"
        }
      ],
      "stateMutability": "view",
      "type": "function"
    },
    {
      "inputs": [],
      "name": "vaultAddress",
      "outputs": [
        {
          "internalType": "address",
          "name": "",
          "type": "address"
        }
      ],
      "stateMutability": "view",
      "type": "function"
    },
    {
      "inputs": [
        {
          "internalType": "uint256",
          "name": "_amount",
          "type": "uint256"
        },
        {
          "internalType": "address",
          "name": "_asset",
          "type": "address"
        }
      ],
      "name": "withdraw",
      "outputs": [],
      "stateMutability": "nonpayable",
      "type": "function"
    }
  ],
  "transactionHash": "0x9cb9e35b4290d4a55af5161bbb0067fd00873012709108c0b3da7b63a2e0277e",
  "args": [],
  "solcInputHash": "3ecf9754b966a91ca355dcd053ab70bf",
  "bytecode": "0x608060405234801561001057600080fd5b50615fbb80620000216000396000f3fe6080604052600436106103a15760003560e01c80636896fabf116101e7578063a217fddf1161010d578063c02337df116100a0578063db006a751161006f578063db006a7514610ce9578063dd62ed3e14610d09578063eef9f5a514610d4f578063f6326fb314610d7657600080fd5b8063c02337df14610c6e578063c515d7e714610c83578063ccc41f2414610ca3578063d547741f14610cc957600080fd5b8063a9059cbb116100dc578063a9059cbb14610bee578063aac5001d14610c0e578063b6b55f2514610c2e578063bb9662c814610c4e57600080fd5b8063a217fddf14610b6c578063a2589ef914610b81578063a457c2d714610ba1578063a5d3e5b114610bc157600080fd5b80638a19c8bc1161018557806392b4d26a1161015457806392b4d26a14610b0257806395d89b4114610b175780639e4cbd7d14610b2c5780639f01f7ba14610b4c57600080fd5b80638a19c8bc14610a8c5780638cd8935914610aa25780639020253914610ac257806391d1485414610ae257600080fd5b806370a08231116101c157806370a08231146109f45780637445e85c14610a2a5780637a95adc714610a4c5780637ba0eabe14610a6c57600080fd5b80636896fabf1461099e5780636a2af820146109c057806370349bfb146109df57600080fd5b806321c9445c116102cc57806336568abe1161026a57806347276abf1161023957806347276abf1461087f578063511db114146108b357806364057572146108d457806365235474146108e957600080fd5b806336568abe14610810578063395093511461083057806341b9f32914610850578063430bf08a1461086a57600080fd5b80632c453bdf116102a65780632c453bdf146107895780632f2ff15d146107aa578063313ce567146107ca57806332cc6ae6146107f057600080fd5b806321c9445c1461071957806323b872dd14610739578063248a9ca31461075957600080fd5b80630e777b4b11610344578063135ad96911610313578063135ad9691461062a57806318160ddd14610657578063186a4a171461066c5780631de245af146106f957600080fd5b80630e777b4b1461050b5780630ecc535f1461052b5780630fd49173146105da57806311c8556d146105f157600080fd5b80630720da52116103805780630720da521461041f5780630748248f146104ab578063095ea7b3146104c65780630b2737e4146104e657600080fd5b8062f714ce146103a657806301ffc9a7146103c857806306fdde03146103fd575b600080fd5b3480156103b257600080fd5b506103c66103c1366004615642565b610d7e565b005b3480156103d457600080fd5b506103e86103e3366004615666565b61107f565b60405190151581526020015b60405180910390f35b34801561040957600080fd5b506104126110b6565b6040516103f49190615951565b34801561042b57600080fd5b5061043f61043a36600461562a565b611148565b6040516103f491906000610100820190508251825260208301516020830152604083015160408301526060830151606083015261ffff608084015116608083015260ff60a08401511660a083015260c0830151151560c083015260e0830151151560e083015292915050565b3480156104b757600080fd5b50610103546103e89060ff1681565b3480156104d257600080fd5b506103e86104e13660046154e1565b6111d6565b3480156104f257600080fd5b506104fd6101065481565b6040519081526020016103f4565b34801561051757600080fd5b506103c661052636600461562a565b6111ec565b34801561053757600080fd5b50610593610546366004615431565b61010260205260009081526040902080546001820154600383015460048401546005909401549293919260ff808316936001600160e81b0361010085041693600160f01b90049091169187565b60408051978852602088019690965260ff909416948601949094526001600160e81b0390911660608501521515608084015260a083019190915260c082015260e0016103f4565b3480156105e657600080fd5b506104fd6101075481565b3480156105fd57600080fd5b5061010554610612906001600160a01b031681565b6040516001600160a01b0390911681526020016103f4565b34801561063657600080fd5b5061064a6106453660046155f2565b61141a565b6040516103f49190615b46565b34801561066357600080fd5b506035546104fd565b34801561067857600080fd5b5061068c6106873660046155f2565b6116e5565b6040516103f49190600061012082019050825182526020830151602083015260408301516040830152606083015160608301526080830151608083015260a083015160a083015260c083015160c083015260e083015160e083015261010080840151818401525092915050565b34801561070557600080fd5b5061061261071436600461562a565b611949565b34801561072557600080fd5b506103c6610734366004615642565b611974565b34801561074557600080fd5b506103e86107543660046154a1565b611bc5565b34801561076557600080fd5b506104fd61077436600461562a565b60009081526097602052604090206001015490565b34801561079557600080fd5b5061010454610612906001600160a01b031681565b3480156107b657600080fd5b506103c66107c5366004615642565b611c71565b3480156107d657600080fd5b5060fb5460ff165b60405160ff90911681526020016103f4565b3480156107fc57600080fd5b506104fd61080b366004615431565b611c97565b34801561081c57600080fd5b506103c661082b366004615642565b611d30565b34801561083c57600080fd5b506103e861084b3660046154e1565b611daa565b34801561085c57600080fd5b5060fb546107de9060ff1681565b34801561087657600080fd5b50610612611de6565b34801561088b57600080fd5b506104fd7ffd0eee74c7609b4290ae42cfa22435eabf285017ea12017ed27c2e820eae6a7781565b3480156108bf57600080fd5b5060fc546103e890600160a01b900460ff1681565b3480156108e057600080fd5b506103c6611e69565b3480156108f557600080fd5b5061095861090436600461562a565b61010060205260009081526040902080546001820154600283015460038401546004909401549293919290919061ffff81169060ff62010000820481169163010000008104821691600160201b9091041688565b60408051988952602089019790975295870194909452606086019290925261ffff16608085015260ff1660a0840152151560c0830152151560e0820152610100016103f4565b3480156109aa57600080fd5b506109b3612022565b6040516103f49190615b1b565b3480156109cc57600080fd5b5060fb546107de90610100900460ff1681565b3480156109eb57600080fd5b506103c6612113565b348015610a0057600080fd5b506104fd610a0f366004615431565b6001600160a01b031660009081526033602052604090205490565b348015610a3657600080fd5b506104fd600080516020615f6683398151915281565b348015610a5857600080fd5b506103c6610a6736600461550c565b61221e565b348015610a7857600080fd5b506103c6610a87366004615768565b6122bc565b348015610a9857600080fd5b506104fd60fe5481565b348015610aae57600080fd5b506104fd610abd36600461562a565b6123f0565b348015610ace57600080fd5b50610103546103e890610100900460ff1681565b348015610aee57600080fd5b506103e8610afd366004615642565b6126b0565b348015610b0e57600080fd5b506109b36126db565b348015610b2357600080fd5b50610412612978565b348015610b3857600080fd5b506103c6610b4736600461562a565b612987565b348015610b5857600080fd5b506103c6610b6736600461562a565b612bc4565b348015610b7857600080fd5b506104fd600081565b348015610b8d57600080fd5b506103c6610b9c36600461562a565b612d2e565b348015610bad57600080fd5b506103e8610bbc3660046154e1565b612e11565b348015610bcd57600080fd5b506104fd610bdc36600461562a565b60ff6020526000908152604090205481565b348015610bfa57600080fd5b506103e8610c093660046154e1565b612eaa565b348015610c1a57600080fd5b506103c6610c2936600461568e565b612eb7565b348015610c3a57600080fd5b506103c6610c4936600461562a565b61309b565b348015610c5a57600080fd5b5060fc54610612906001600160a01b031681565b348015610c7a57600080fd5b506103c661319d565b348015610c8f57600080fd5b506103c6610c9e366004615431565b61341d565b348015610caf57600080fd5b5060fb54610612906201000090046001600160a01b031681565b348015610cd557600080fd5b506103c6610ce4366004615642565b6134c0565b348015610cf557600080fd5b506103c6610d0436600461562a565b6134e6565b348015610d1557600080fd5b506104fd610d24366004615469565b6001600160a01b03918216600090815260346020908152604080832093909416825291909152205490565b348015610d5b57600080fd5b5061010354610612906201000090046001600160a01b031681565b6103c661365a565b600260c9541415610daa5760405162461bcd60e51b8152600401610da190615ae4565b60405180910390fd5b600260c95581610dcc5760405162461bcd60e51b8152600401610da190615a74565b6101035460ff1615610df05760405162461bcd60e51b8152600401610da1906159af565b60fb546001600160a01b0382811662010000909204161480610e1f575060fc546001600160a01b038281169116145b610e635760405162461bcd60e51b8152602060048201526015602482015274496e76616c6964206173736574206164647265737360581b6044820152606401610da1565b60fb546001600160a01b0382811662010000909204161415610f6c573360009081526101086020526040902054828111610f38573360009081526101026020526040812090610eb28584613786565b90508082600001541015610ed85760405162461bcd60e51b8152600401610da190615984565b336000908152610108602052604081205561010654610ef79084613786565b610106558154610f079082613786565b825560fe546000908152610100602052604090206001810154610f2a9083613786565b60019091015550610f669050565b610f428184613786565b336000908152610108602052604090205561010654610f619084613786565b610106555b50610fcc565b336000908152610109602052604090205482811015610f9d5760405162461bcd60e51b8152600401610da190615a95565b610fa78184613786565b336000908152610109602052604090205561010754610fc69084613786565b61010755505b610105546040516309777fbf60e11b81526001600160a01b03909116906312eeff7e90611004903390869086906000906004016158b2565b600060405180830381600087803b15801561101e57600080fd5b505af1158015611032573d6000803e3d6000fd5b50506040518481526001600160a01b03841692503391507f9b1bfa7fa9ee420a16e124f794c35ac9f90472acc99140eb2f6447c714cad8eb9060200160405180910390a35050600160c955565b60006001600160e01b03198216637965db0b60e01b14806110b057506301ffc9a760e01b6001600160e01b03198316145b92915050565b6060603680546110c590615ec6565b80601f01602080910402602001604051908101604052809291908181526020018280546110f190615ec6565b801561113e5780601f106111135761010080835404028352916020019161113e565b820191906000526020600020905b81548152906001019060200180831161112157829003601f168201915b5050505050905090565b6111506151d8565b50600090815260ff60208181526040808420548452610100808352938190208151948501825280548552600181015492850192909252600282015490840152600381015460608401526004015461ffff81166080840152620100008104821660a0840152630100000081048216151560c0840152600160201b900416151560e082015290565b60006111e3338484613792565b50600192915050565b600081116112315760405162461bcd60e51b8152602060048201526012602482015271215f6173736574546f5465726d696e61746560701b6044820152606401610da1565b600160fe54116112535760405162461bcd60e51b8152600401610da190615abf565b336000908152610102602052604090206101035460ff161561138557600581015460009061128190846138b6565b905060fe54600214156113035781600101548111156112b25760405162461bcd60e51b8152600401610da190615984565b80826005018190555060006101006000600160fe546112d19190615e49565b815260200190815260200160002090506112f88482600201546138b690919063ffffffff16565b600290910155505050565b60006101006000600260fe546113199190615e49565b815260208101919091526040016000908120600481015490925061134290859061ffff166138c2565b9050808311156113645760405162461bcd60e51b8152600401610da190615984565b6005840183905561010a5461137990866138b6565b61010a5550505b505050565b600481015460009061139790846138b6565b905060006113a5838261392c565b9050808211156113c75760405162461bcd60e51b8152600401610da190615984565b81836004018190555060006101006000600160fe546113e69190615e49565b8152602001908152602001600020905061140d8582600201546138b690919063ffffffff16565b60029091015550505b5050565b61148960405180610180016040528060006001600160a01b03168152602001600081526020016000815260200160001515815260200160008152602001600081526020016000815260200160008152602001600081526020016000815260200160008152602001600081525090565b600080516020615f668339815191526114a281336139d3565b6101035460ff166114c55760405162461bcd60e51b8152600401610da190615a49565b600160fe541161150b5760405162461bcd60e51b81526020600482015260116024820152704e6f7468696e6720746f20736574746c6560781b6044820152606401610da1565b60006101006000600160fe546115219190615e49565b815260200190815260200160002090506000604051806101800160405280306001600160a01b03168152602001600160fe5461155d9190615e49565b815260200183600101548152602001861515815260200160008152602001600081526020016000815260200160008152602001600081526020016000815260200160008152602001600081525090506001806115b99190615cb6565b60ff1660fe5411156116db576000610100600060018060ff1660fe546115df9190615e49565b6115e99190615e49565b815260208082019290925260409081016000908120825161010081018452815481526001820154948101949094526002810154928401929092526003820154606084015260049091015461ffff8116608084015260ff620100008204811660a0850152630100000082048116151560c0850152600160201b90910416151560e08301529091506116798783613a37565b905086156116b25760c081015161010084015260e0810151610120840152604081015161014084015260608101516101608401526116d8565b6080808201519084015260a08082015190840152805160c0840152602081015160e08401525b50505b9250505b50919050565b6116ed615228565b600080516020615f6683398151915261170681336139d3565b6101035460ff166117295760405162461bcd60e51b8152600401610da190615a49565b611734600180615cb6565b60ff1660fe54116117745760405162461bcd60e51b815260206004820152600a6024820152691b9bc81b585d1d5c995960b21b6044820152606401610da1565b600060018060ff1660fe546117899190615e49565b6117939190615e49565b600081815261010060208181526040808420815193840182528054845260018101549284019290925260028201549083015260038101546060830152600481015461ffff8116608084015260ff620100008204811660a0850152630100000082048116151560c0850152600160201b90910416151560e083015292935061181b908790613a37565b6004830180548815801563010000000263ff00000019909216919091179091559091506118735761186a81606001516118648360400151610107546138b690919063ffffffff16565b906138b6565b61010755611892565b602081015181516101065461188d929161186491906138b6565b610106555b600182015415611915576040805161010081018252835481526001840154602082015260028401549181019190915260038301546060820152600483015461ffff8116608083015260ff620100008204811660a0840152630100000082048116151560c0840152600160201b90910416151560e082015261191590879083613c7d565b60405183907f5fd55b58a9ef8c29a9db39dd9a05dec64993eb227ad0177941238778e9ea896290600090a295945050505050565b610101818154811061195a57600080fd5b6000918252602090912001546001600160a01b0316905081565b600260c95414156119975760405162461bcd60e51b8152600401610da190615ae4565b600260c955816119b95760405162461bcd60e51b8152600401610da190615a74565b6101035460ff16156119dd5760405162461bcd60e51b8152600401610da1906159af565b600160fe54116119ff5760405162461bcd60e51b8152600401610da190615a24565b60fb546001600160a01b0382811662010000909204161480611a2e575060fc546001600160a01b038281169116145b611a725760405162461bcd60e51b8152602060048201526015602482015274496e76616c6964206173736574206164647265737360581b6044820152606401610da1565b60fb546001600160a01b0382811662010000909204161415611af257336000908152610108602052604090205482811015611abf5760405162461bcd60e51b8152600401610da190615a95565b611ac98184613786565b336000908152610108602052604090205561010654611ae89084613786565b6101065550611b52565b336000908152610109602052604090205482811015611b235760405162461bcd60e51b8152600401610da190615a95565b611b2d8184613786565b336000908152610109602052604090205561010754611b4c9084613786565b61010755505b610105546040516309777fbf60e11b81526001600160a01b03909116906312eeff7e90611b8a903390869086906000906004016158b2565b600060405180830381600087803b158015611ba457600080fd5b505af1158015611bb8573d6000803e3d6000fd5b5050600160c95550505050565b6000611bd28484846143c2565b6001600160a01b038416600090815260346020908152604080832033845290915290205482811015611c575760405162461bcd60e51b815260206004820152602860248201527f45524332303a207472616e7366657220616d6f756e74206578636565647320616044820152676c6c6f77616e636560c01b6064820152608401610da1565b611c648533858403613792565b60019150505b9392505050565b600082815260976020526040902060010154611c8d81336139d3565b6113808383614591565b60fb546000906001600160a01b0383811662010000909204161415611cd9576101065460fe54600090815261010060205260409020600101546110b0916138b6565b60fc546001600160a01b0383811691161415611cf85750506101075490565b60405162461bcd60e51b815260206004820152600d60248201526c1a5b9d985b1a5908185cdcd95d609a1b6044820152606401610da1565b6001600160a01b0381163314611da05760405162461bcd60e51b815260206004820152602f60248201527f416363657373436f6e74726f6c3a2063616e206f6e6c792072656e6f756e636560448201526e103937b632b9903337b91039b2b63360891b6064820152608401610da1565b6114168282614617565b3360008181526034602090815260408083206001600160a01b038716845290915281205490916111e3918590611de1908690615c9e565b613792565b61010554604080516338cc483160e01b815290516000926001600160a01b0316916338cc4831916004808301926020929190829003018186803b158015611e2c57600080fd5b505afa158015611e40573d6000803e3d6000fd5b505050506040513d601f19601f82011682018060405250810190611e64919061544d565b905090565b600160fe5411611e8b5760405162461bcd60e51b8152600401610da190615abf565b336000908152610102602052604090206101035460ff1615611faa5760fe5460021415611f28576000611ecf8260050154836001015461378690919063ffffffff16565b9050801561141657600180830154600584015560fe54600091610100918391611ef791615e49565b81526020019081526020016000209050611f1e8282600201546138b690919063ffffffff16565b6002909101555050565b60006101006000600260fe54611f3e9190615e49565b8152602081019190915260400160009081206004810154909250611f6790849061ffff166138c2565b90506000611f8284600501548361378690919063ffffffff16565b90508015611fa4576005840182905561010a54611f9f90836138b6565b61010a555b50505050565b6000611fb6828261392c565b90506000611fd183600401548361378690919063ffffffff16565b905080156113805781836004018190555060006101006000600160fe54611ff89190615e49565b815260200190815260200160002090506112f88282600201546138b690919063ffffffff16565b50565b61204d6040518060800160405280600081526020016000815260200160008152602001600081525090565b33600081815261010260209081526040808320815160808101835281548152808401859052858552610108845282852054818401529484526101099092529091205460608301526101035490919060ff16156120fd57600260fe5411156120ee576120e46101006000600260fe546120c59190615e49565b8152602081019190915260400160002060040154839061ffff166138c2565b60208201526110b0565b600182015460208201526110b0565b61210882600061392c565b602082015292915050565b600160fe54116121355760405162461bcd60e51b8152600401610da190615abf565b336000908152610102602052604090206101035460ff16156121cd5760fe54600214156121ad5760006101006000600160fe546121729190615e49565b8152602001908152602001600020905061219d8260050154826002015461378690919063ffffffff16565b6002909101556000600582015550565b600581015461010a546121bf91613786565b61010a556000600582015550565b60006101006000600160fe546121e39190615e49565b8152602001908152602001600020905061220e8260040154826002015461378690919063ffffffff16565b6002909101556000600482015550565b610104546001600160a01b031633146122905760405162461bcd60e51b815260206004820152602e60248201527f4f6e6c7920636f756e746572207061727479206f7074696f6e2063616e20636160448201526d1b1b081d1a1a5cc81b595d1a1bd960921b6064820152608401610da1565b6101035460009060ff166122a65760fe546122b5565b600160fe546122b59190615e49565b5050505050565b600080516020615f668339815191526122d581336139d3565b600160fe54116123155760405162461bcd60e51b815260206004820152600b60248201526a1b9bdd081cdd185c9d195960aa1b6044820152606401610da1565b6101035460ff16156123395760405162461bcd60e51b8152600401610da1906159af565b6000600160fe5461234a9190615e49565b600081815261010060205260409020600381015491925090156123af5760405162461bcd60e51b815260206004820152601860248201527f537472696b6520507269636520616c72656164792073657400000000000000006044820152606401610da1565b6020840151600382015560608401516004909101805460409095015160ff16620100000262ffffff1990951661ffff90921691909117939093179092555050565b6000600080516020615f6683398151915261240b81336139d3565b6101035460ff161561242f5760405162461bcd60e51b8152600401610da1906159af565b600160fe5411156124a65760006101006000600160fe546124509190615e49565b815260200190815260200160002060030154116124a65760405162461bcd60e51b815260206004820152601460248201527314dd1c9a5ad948141c9a58d9481b9bdd081cd95d60621b6044820152606401610da1565b610103805460ff1916600190811790915560fd84905560fe546124c891615c9e565b60fe81815560408051610100808201835284825260006020808401828152848601838152606086018481526080870185815260a0880186815260c089018781526101035489900460ff908116151560e08c019081529d89529890965298909520875181559251600184810191909155915160028401555160038301559251600490910180549651925198511515600160201b0264ff00000000199915156301000000029990991664ffff0000001993909516620100000262ffffff1990971661ffff929092169190911795909517169190911794909417909155905490911015612635576101015460005b8181101561262e57600061010182815481106125df57634e487b7160e01b600052603260045260246000fd5b60009182526020808320909101546001600160a01b031680835261010290915260409091208054919250901561261757805460018201555b60009055508061262681615efb565b9150506125b3565b5050612641565b610103805460ff191690555b60fe546040517f10f419fb017d3101d854d4433e414ff27f232bb2f4aae83d987ad0219efa6c9b90600090a2600160fe5411156126a6576101006000600160fe5461268c9190615e49565b8152602001908152602001600020600101549250506116df565b5060009392505050565b60009182526097602090815260408084206001600160a01b0393909316845291905290205460ff1690565b6127066040518060800160405280600081526020016000815260200160008152602001600081525090565b60fe546000908152610100602052604090206127206151d8565b6127286151d8565b60408051608081018252600185015481526000602082015261010654918101919091526101075460608201526101035460ff16156128ca576101006000600160fe546127749190615e49565b815260208082019290925260409081016000208151610100810183528154815260018201549381019390935260028082015492840192909252600381015460608401526004015461ffff8116608084015260ff620100008204811660a0850152630100000082048116151560c0850152600160201b90910416151560e083015260fe5491945010156128bb576101006000600260fe546128149190615e49565b81526020808201929092526040908101600020815161010081018352815481526001820154938101849052600282015492810192909252600381015460608301526004015461ffff81166080830181905260ff620100008304811660a0850152630100000083048116151560c0850152600160201b909204909116151560e08301529093506128b1916128a69161482a565b6020850151906138b6565b6020820152612970565b60208084015190820152612970565b600160fe541115612970576101006000600160fe546128e99190615e49565b815260208082019290925260409081016000208151610100810183528154815260018201548185018190526002830154938201939093526003820154606082015260049091015461ffff8116608083015260ff620100008204811660a0840152630100000082048116151560c0840152600160201b90910416151560e08201529183015291505b949350505050565b6060603780546110c590615ec6565b6101035460ff16156129ab5760405162461bcd60e51b8152600401610da1906159af565b600160fe54116129cd5760405162461bcd60e51b8152600401610da190615a24565b600081116129ed5760405162461bcd60e51b8152600401610da190615a74565b336000908152610109602052604090205481811015612a1e5760405162461bcd60e51b8152600401610da190615a95565b612a288183613786565b336000908152610109602052604090205561010654612a479083613786565b6101065560408051600180825281830190925260009160208083019080368337505060408051600180825281830190925292935060009291506020808301908036833750506040805160018082528183019092529293506000929150602080830190803683370190505090503383600081518110612ad557634e487b7160e01b600052603260045260246000fd5b60200260200101906001600160a01b031690816001600160a01b0316815250508482600081518110612b1757634e487b7160e01b600052603260045260246000fd5b602002602001018181525050600081600081518110612b4657634e487b7160e01b600052603260045260246000fd5b602090810291909101015261010354604051637a95adc760e01b8152620100009091046001600160a01b031690637a95adc790612b8b908690869086906004016158dc565b600060405180830381600087803b158015612ba557600080fd5b505af1158015612bb9573d6000803e3d6000fd5b505050505050505050565b60008111612c095760405162461bcd60e51b8152602060048201526012602482015271215f6173736574546f5465726d696e61746560701b6044820152606401610da1565b600160fe5411612c2b5760405162461bcd60e51b8152600401610da190615abf565b336000908152610102602052604090206101035460ff1615612cdd578060050154821115612c6b5760405162461bcd60e51b8152600401610da190615a95565b6005810154612c7a9083613786565b600582015560fe5460021415612cc75760006101006000600160fe54612ca09190615e49565b81526020019081526020016000209050611f1e83826002015461378690919063ffffffff16565b61010a54612cd59083613786565b61010a555050565b8060040154821115612d015760405162461bcd60e51b8152600401610da190615a95565b6004810154612d109083613786565b816004018190555060006101006000600160fe54612ca09190615e49565b600260c9541415612d515760405162461bcd60e51b8152600401610da190615ae4565b600260c95560fe54600110612d785760405162461bcd60e51b8152600401610da190615a24565b60008111612d985760405162461bcd60e51b8152600401610da190615a74565b336000908152610108602052604090205481811015612dc95760405162461bcd60e51b8152600401610da190615a95565b612dd38183613786565b336000908152610108602052604090205561010654612df29083613786565b61010681905550612e08338360fe54600061467e565b5050600160c955565b3360009081526034602090815260408083206001600160a01b038616845290915281205482811015612e935760405162461bcd60e51b815260206004820152602560248201527f45524332303a2064656372656173656420616c6c6f77616e63652062656c6f77604482015264207a65726f60d81b6064820152608401610da1565b612ea03385858403613792565b5060019392505050565b60006111e33384846143c2565b600054610100900460ff1680612ed0575060005460ff16155b612eec5760405162461bcd60e51b8152600401610da1906159d6565b600054610100900460ff16158015612f0e576000805461ffff19166101011790555b6001600160a01b038416612f5a5760405162461bcd60e51b8152602060048201526013602482015272456d707479207661756c74206164647265737360681b6044820152606401610da1565b612f62614846565b612f6c8a8a6148b9565b612f74614938565b612f7f6000336149a7565b612f97600080516020615f66833981519152836149a7565b612faf600080516020615f66833981519152856149a7565b60fb805460fc80546001600160a01b038b81166001600160a81b0319909216919091178c82168015600160a01b029190911790925560ff8a81166001600160b01b03199094166201000090930261ffff1916929092179290921761010091891682021790925561010580546001600160a01b031916918716919091179055610103805461ff00191685151590920291909117905560405130907f8f61f0def895309a310dec5facf78f589cf18d834f0ba4030a5e68e32180ec9790613075908c90615951565b60405180910390a2801561308f576000805461ff00191690555b50505050505050505050565b600260c95414156130be5760405162461bcd60e51b8152600401610da190615ae4565b600260c95560fe546130fd5760405162461bcd60e51b81526020600482015260086024820152670854dd185c9d195960c21b6044820152606401610da1565b60fc54600160a01b900460ff16156131405760405162461bcd60e51b815260206004820152600660248201526502145524332360d41b6044820152606401610da1565b600081116131605760405162461bcd60e51b8152600401610da190615a74565b61316f338260fe54600061467e565b6131953361317b611de6565b60fb546201000090046001600160a01b03169190846149b1565b50600160c955565b600080516020615f668339815191526131b681336139d3565b600260c95414156131d95760405162461bcd60e51b8152600401610da190615ae4565b600260c95560fe5460011061321e5760405162461bcd60e51b815260206004820152600b60248201526a1b9bdd081cdd185c9d195960aa1b6044820152606401610da1565b600260fe541115801561323557506101035460ff16155b1561324957610103805460ff191660011790555b6101035460ff1661326c5760405162461bcd60e51b8152600401610da190615a49565b6000600160fe5461327d9190615e49565b6000818152610100602052604090206001810154919250906132a0903090614a0b565b6101015460005b818110156133c057600061010182815481106132d357634e487b7160e01b600052603260045260246000fd5b60009182526020808320909101546001600160a01b031680835261010290915260409091206001810154919250901561336f57613315308383600101546143c2565b60048501548554604080513081526001600160a01b038616602082015261ffff9093169083015260608201527fe32540b403abb4ebf4396862a5996e4798b57d9312e048b14b0e0e5e3fb9eaeb9060800160405180910390a15b60058101541561338d57600581018054600483015560009055613395565b600060048201555b60018101546133a5908290614aea565b600060019091015550806133b881615efb565b9150506132a7565b5061010a8054600284015560009081905583815260ff60205260408082204390555184917ffa513f17b83baf0c2da337ab931a96429f75c55f0ee2115b7acd007a1a35dd5191a25050610103805460ff191690555050600160c955565b600061342981336139d3565b6001600160a01b0382163014156134825760405162461bcd60e51b815260206004820181905260248201527f43616e6e6f74207365742073656c6620617320636f756e7465722070617274796044820152606401610da1565b50610103805462010000600160b01b031916620100006001600160a01b039390931692830217905561010480546001600160a01b0319169091179055565b6000828152609760205260409020600101546134dc81336139d3565b6113808383614617565b600260c95414156135095760405162461bcd60e51b8152600401610da190615ae4565b600260c9558061352b5760405162461bcd60e51b8152600401610da190615a74565b33600090815261010260205260409020805482111561355c5760405162461bcd60e51b8152600401610da190615984565b80546135689083613786565b815560fe54600090815261010060205260409020600181015461358b9084613786565b6001808301919091556101055460fb546040516309777fbf60e11b81526001600160a01b03928316936312eeff7e936135d59333938a9362010000909204909216916004016158b2565b600060405180830381600087803b1580156135ef57600080fd5b505af1158015613603573d6000803e3d6000fd5b505060fb54604051868152620100009091046001600160a01b031692503391507f9b1bfa7fa9ee420a16e124f794c35ac9f90472acc99140eb2f6447c714cad8eb9060200160405180910390a35050600160c95550565b600260c954141561367d5760405162461bcd60e51b8152600401610da190615ae4565b600260c95560fe546136bc5760405162461bcd60e51b81526020600482015260086024820152670854dd185c9d195960c21b6044820152606401610da1565b60fc54600160a01b900460ff166136fe5760405162461bcd60e51b8152600401610da1906020808252600490820152630428aa8960e31b604082015260600190565b600034116137375760405162461bcd60e51b81526020600482015260066024820152652176616c756560d01b6044820152606401610da1565b613746333460fe54600061467e565b61374e611de6565b6001600160a01b03166108fc349081150290604051600060405180830381858888f19350505050158015613195573d6000803e3d6000fd5b6000611c6a8284615e49565b6001600160a01b0383166137f45760405162461bcd60e51b8152602060048201526024808201527f45524332303a20617070726f76652066726f6d20746865207a65726f206164646044820152637265737360e01b6064820152608401610da1565b6001600160a01b0382166138555760405162461bcd60e51b815260206004820152602260248201527f45524332303a20617070726f766520746f20746865207a65726f206164647265604482015261737360f01b6064820152608401610da1565b6001600160a01b0383811660008181526034602090815260408083209487168084529482529182902085905590518481527f8c5be1e5ebec7d5bd14f71427d1e84f3dd0314c0f7b2291e5b200ac8c7c3b925910160405180910390a3505050565b6000611c6a8284615c9e565b6000806138d084600061392c565b9050806138e357505060018201546110b0565b60048401546138f3908290613786565b90508360010154600014156139145761390c818461482a565b9150506110b0565b612970613921828561482a565b6001860154906138b6565b600382015460009060ff83166101009091046001600160e81b031611613954575060006110b0565b600160ff83161061396457600080fd5b600383015460009060019061397d90859060ff16615e08565b6139879190615e08565b905060008160000b12156139a3576139a0600182615c33565b90505b836002018160ff16600181106139c957634e487b7160e01b600052603260045260246000fd5b0154949350505050565b6139dd82826126b0565b611416576139f5816001600160a01b03166014614b9e565b613a00836020614b9e565b604051602001613a1192919061583d565b60408051601f198184030181529082905262461bcd60e51b8252610da191600401615951565b613a3f615228565b60006040518061012001604052806000815260200160008152602001600081526020016000815260200160008152602001600081526020016000815260200160008152602001846000015181525090508315613bf45761010354600090610100900460ff16613b085760fb54613b0390613abd9060ff16600a615d3e565b613afd8660600151613afd60fb60019054906101000a900460ff168960a00151613ae79190615cb6565b613af290600a615d3e565b60208a015190614d80565b90614d8c565b613b61565b60fb5460a0850151613b6191613b239160ff90911690615cb6565b613b2e90600a615d3e565b60fb54613afd90613b4890610100900460ff16600a615d3e565b60608801516020890151613b5b91614d80565b90614d80565b90506000613b80856080015161ffff1683614d9890919063ffffffff16565b604086015190915015613bc257613ba08286604001518760200151614daa565b836040018181525050613bbc8186604001518760200151614daa565b60608401525b6040830151613bd2908390613786565b60c08401526060830151613be7908290613786565b60e084015250611c6a9050565b60208301516080840151600090613c1090839061ffff16614d98565b604086015190915015613c4d57613c308286604001518760200151614daa565b835260408501516020860151613c47918391614daa565b60208401525b8251613c5a908390613786565b60808401526020830151613c6f908290613786565b60a084015250509392505050565b6101015460408301516020840151600091613c989190613786565b905084613e14576000600160fe54613cb09190615e49565b60208501518551919250600091613cc6916138b6565b90506000613ce58660a0015187608001516138b690919063ffffffff16565b905060005b85811015612bb95760006101018281548110613d1657634e487b7160e01b600052603260045260246000fd5b60009182526020808320909101546001600160a01b03168083526101029091526040822090925090613d48828261392c565b905080613d5e5750600060049091015550613e02565b6000613d738784600401548e60400151614daa565b90508015613dba576001600160a01b03841660009081526101086020526040902054613d9f90826138b6565b6001600160a01b038516600090815261010860205260409020555b6000613ddd87613dd786600401548661378690919063ffffffff16565b8c614daa565b90508015613df257613df285828b600061467e565b6000846004018190555050505050505b80613e0c81615efb565b915050613cea565b6000613e31846060015185604001516138b690919063ffffffff16565b90506000613e508560e001518660c001516138b690919063ffffffff16565b9050600061010a54118015613e655750600081115b15613eb3576000613e87876080015161ffff168561482a90919063ffffffff16565b905061010a548110613e9e57600061010a55613eb1565b61010a54613eac9082613786565b61010a555b505b60005b848110156140cd5760006101018281548110613ee257634e487b7160e01b600052603260045260246000fd5b60009182526020808320909101546001600160a01b03168083526101029091526040822090925090613f14828261392c565b905080613f2a57506000600490910155506140bb565b6000613f3f8784600401548d60400151614daa565b90508015613f86576001600160a01b03841660009081526101096020526040902054613f6b90826138b6565b6001600160a01b038516600090815261010960205260409020555b6004830154613f96908390613786565b91506000613fa587848b614daa565b905080156140ab5761010c805460018082019092557f7bb4d7b0eaf94112c5cb7345d79f45887f7ebc12d67faa4efd6cf1d7c430cd340182905561010b8054918201815560009081527fc4a0eda7235d7f6fd09c1e1f9f82dc3264d0d2f064cb41576c42a996a7be289290910180546001600160a01b0319166001600160a01b03881617905560808d015161403f90869061ffff16614df0565b50905080156140765760006140658e6080015161ffff168661482a90919063ffffffff16565b9050614072838383614daa565b9150505b61010d80546001810182556000919091527fd37d5aab611bd3c946977441ea77c3eceb623a7966962fbc75015048e8640bfb01555b6000846004018190555050505050505b806140c581615efb565b915050613eb6565b5061010c54806140e1575050505050505050565b60008167ffffffffffffffff81111561410a57634e487b7160e01b600052604160045260246000fd5b604051908082528060200260200182016040528015614133578160200160208202803683370190505b50905060008267ffffffffffffffff81111561415f57634e487b7160e01b600052604160045260246000fd5b604051908082528060200260200182016040528015614188578160200160208202803683370190505b50905060008367ffffffffffffffff8111156141b457634e487b7160e01b600052604160045260246000fd5b6040519080825280602002602001820160405280156141dd578160200160208202803683370190505b50905060005b8481101561432e5761010b818154811061420d57634e487b7160e01b600052603260045260246000fd5b9060005260206000200160009054906101000a90046001600160a01b031684828151811061424b57634e487b7160e01b600052603260045260246000fd5b60200260200101906001600160a01b031690816001600160a01b03168152505061010c818154811061428d57634e487b7160e01b600052603260045260246000fd5b90600052602060002001548382815181106142b857634e487b7160e01b600052603260045260246000fd5b60200260200101818152505061010d81815481106142e657634e487b7160e01b600052603260045260246000fd5b906000526020600020015482828151811061431157634e487b7160e01b600052603260045260246000fd5b60209081029190910101528061432681615efb565b9150506141e3565b5061433c61010b6000615274565b61434961010c6000615274565b61010354604051637a95adc760e01b8152620100009091046001600160a01b031690637a95adc790614383908690869086906004016158dc565b600060405180830381600087803b15801561439d57600080fd5b505af11580156143b1573d6000803e3d6000fd5b505050505050505050505050505050565b6001600160a01b0383166144265760405162461bcd60e51b815260206004820152602560248201527f45524332303a207472616e736665722066726f6d20746865207a65726f206164604482015264647265737360d81b6064820152608401610da1565b6001600160a01b0382166144885760405162461bcd60e51b815260206004820152602360248201527f45524332303a207472616e7366657220746f20746865207a65726f206164647260448201526265737360e81b6064820152608401610da1565b6001600160a01b038316600090815260336020526040902054818110156145005760405162461bcd60e51b815260206004820152602660248201527f45524332303a207472616e7366657220616d6f756e7420657863656564732062604482015265616c616e636560d01b6064820152608401610da1565b6001600160a01b03808516600090815260336020526040808220858503905591851681529081208054849290614537908490615c9e565b92505081905550826001600160a01b0316846001600160a01b03167fddf252ad1be2c89b69c2b068fc378daa952ba7f163c4a11628f55a4df523b3ef8460405161458391815260200190565b60405180910390a350505050565b61459b82826126b0565b6114165760008281526097602090815260408083206001600160a01b03851684529091529020805460ff191660011790556145d33390565b6001600160a01b0316816001600160a01b0316837f2f8788117e7eff1d82e926ec794901d17c78024a50270940304540a733656f0d60405160405180910390a45050565b61462182826126b0565b156114165760008281526097602090815260408083206001600160a01b0385168085529252808320805460ff1916905551339285917ff6391f5c32d9c69d2a47ea670b442974b53935d1edc7fd64eb21e047a839171b9190a45050565b60008281526101006020526040902060fd54600182015461469f90866138b6565b11156146e05760405162461bcd60e51b815260206004820152601060248201526f4e6f7420656e6f7567682071756f746160801b6044820152606401610da1565b6001600160a01b0385166000908152610102602052604090206003810154600160f01b900460ff166147705760038101805460ff60f01b1916600160f01b17905561010180546001810182556000919091527f109ea3cebb188b9c1b9fc5bb3920be60dfdc8699098dff92f3d80daaca7476890180546001600160a01b0388166001600160a01b03199091161790555b60fe5484146147b857600181015461478890866138b6565b6001820155600581015461479c90846138b6565b600582015561010a546147af90846138b6565b61010a556147c7565b80546147c490866138b6565b81555b60018201546147d690866138b6565b60018301556040805186815230602082015285916001600160a01b0389169133917ff5dd9317b9e63ac316ce44acc85f670b54b339cfa3e9076e1dd55065b922314b910160405180910390a4505050505050565b6000611c6a612710613afd61483f82866138b6565b8690614d80565b600054610100900460ff168061485f575060005460ff16155b61487b5760405162461bcd60e51b8152600401610da1906159d6565b600054610100900460ff1615801561489d576000805461ffff19166101011790555b6148a5614e8c565b801561201f576000805461ff001916905550565b600054610100900460ff16806148d2575060005460ff16155b6148ee5760405162461bcd60e51b8152600401610da1906159d6565b600054610100900460ff16158015614910576000805461ffff19166101011790555b614918614efc565b6149228383614f66565b8015611380576000805461ff0019169055505050565b600054610100900460ff1680614951575060005460ff16155b61496d5760405162461bcd60e51b8152600401610da1906159d6565b600054610100900460ff1615801561498f576000805461ffff19166101011790555b614997614efc565b61499f614efc565b6148a5614efc565b6114168282614591565b604080516001600160a01b0385811660248301528416604482015260648082018490528251808303909101815260849091019091526020810180516001600160e01b03166323b872dd60e01b179052611fa4908590614ffb565b6001600160a01b038216614a615760405162461bcd60e51b815260206004820152601f60248201527f45524332303a206d696e7420746f20746865207a65726f2061646472657373006044820152606401610da1565b8060356000828254614a739190615c9e565b90915550506001600160a01b03821660009081526033602052604081208054839290614aa0908490615c9e565b90915550506040518181526001600160a01b038316906000907fddf252ad1be2c89b69c2b068fc378daa952ba7f163c4a11628f55a4df523b3ef9060200160405180910390a35050565b600382015460ff1681600284018260018110614b1657634e487b7160e01b600052603260045260246000fd5b01556000614b25600180615e60565b60ff168214614b3e57614b39826001615c9e565b614b41565b60005b60038501805460ff191660ff83161790819055909150614b709061010090046001600160e81b03166001615c73565b8460030160016101000a8154816001600160e81b0302191690836001600160e81b0316021790555050505050565b60606000614bad836002615de9565b614bb8906002615c9e565b67ffffffffffffffff811115614bde57634e487b7160e01b600052604160045260246000fd5b6040519080825280601f01601f191660200182016040528015614c08576020820181803683370190505b509050600360fc1b81600081518110614c3157634e487b7160e01b600052603260045260246000fd5b60200101906001600160f81b031916908160001a905350600f60fb1b81600181518110614c6e57634e487b7160e01b600052603260045260246000fd5b60200101906001600160f81b031916908160001a9053506000614c92846002615de9565b614c9d906001615c9e565b90505b6001811115614d31576f181899199a1a9b1b9c1cb0b131b232b360811b85600f1660108110614cdf57634e487b7160e01b600052603260045260246000fd5b1a60f81b828281518110614d0357634e487b7160e01b600052603260045260246000fd5b60200101906001600160f81b031916908160001a90535060049490941c93614d2a81615eaf565b9050614ca0565b508315611c6a5760405162461bcd60e51b815260206004820181905260248201527f537472696e67733a20686578206c656e67746820696e73756666696369656e746044820152606401610da1565b6000611c6a8284615de9565b6000611c6a8284615cdb565b6000611c6a612710613afd8585614d80565b6000821580614db7575081155b80614dc0575083155b15614dcd57506000611c6a565b81831015614de857614de382613afd8686614d80565b612970565b509192915050565b600080836001015460001415614e0e57505060058201546000614e85565b6000614e1b85600061392c565b905080614e32575050506005820154600090614e85565b6004850154614e42908290613786565b90506000614e50828661482a565b905080866005015411614e6d575050505060058201546000614e85565b60058601548190614e7e9082613786565b9350935050505b9250929050565b600054610100900460ff1680614ea5575060005460ff16155b614ec15760405162461bcd60e51b8152600401610da1906159d6565b600054610100900460ff16158015614ee3576000805461ffff19166101011790555b600160c955801561201f576000805461ff001916905550565b600054610100900460ff1680614f15575060005460ff16155b614f315760405162461bcd60e51b8152600401610da1906159d6565b600054610100900460ff161580156148a5576000805461ffff1916610101179055801561201f576000805461ff001916905550565b600054610100900460ff1680614f7f575060005460ff16155b614f9b5760405162461bcd60e51b8152600401610da1906159d6565b600054610100900460ff16158015614fbd576000805461ffff19166101011790555b8251614fd0906036906020860190615292565b508151614fe4906037906020850190615292565b508015611380576000805461ff0019169055505050565b6000615050826040518060400160405280602081526020017f5361666545524332303a206c6f772d6c6576656c2063616c6c206661696c6564815250856001600160a01b03166150cd9092919063ffffffff16565b805190915015611380578080602001905181019061506e919061560e565b6113805760405162461bcd60e51b815260206004820152602a60248201527f5361666545524332303a204552433230206f7065726174696f6e20646964206e6044820152691bdd081cdd58d8d9595960b21b6064820152608401610da1565b6060612970848460008585843b6151265760405162461bcd60e51b815260206004820152601d60248201527f416464726573733a2063616c6c20746f206e6f6e2d636f6e74726163740000006044820152606401610da1565b600080866001600160a01b031685876040516151429190615821565b60006040518083038185875af1925050503d806000811461517f576040519150601f19603f3d011682016040523d82523d6000602084013e615184565b606091505b509150915061519482828661519f565b979650505050505050565b606083156151ae575081611c6a565b8251156151be5782518084602001fd5b8160405162461bcd60e51b8152600401610da19190615951565b60405180610100016040528060008152602001600081526020016000815260200160008152602001600061ffff168152602001600060ff1681526020016000151581526020016000151581525090565b6040518061012001604052806000815260200160008152602001600081526020016000815260200160008152602001600081526020016000815260200160008152602001600081525090565b508054600082559060005260206000209081019061201f9190615316565b82805461529e90615ec6565b90600052602060002090601f0160209004810192826152c05760008555615306565b82601f106152d957805160ff1916838001178555615306565b82800160010185558215615306579182015b828111156153065782518255916020019190600101906152eb565b50615312929150615316565b5090565b5b808211156153125760008155600101615317565b803561533681615f42565b919050565b600082601f83011261534b578081fd5b8135602061536061535b83615c0f565b615bde565b80838252828201915082860187848660051b890101111561537f578586fd5b855b8581101561539d57813584529284019290840190600101615381565b5090979650505050505050565b803561533681615f57565b600082601f8301126153c5578081fd5b813567ffffffffffffffff8111156153df576153df615f2c565b6153f2601f8201601f1916602001615bde565b818152846020838601011115615406578283fd5b816020850160208301379081016020019190915292915050565b803560ff8116811461533657600080fd5b600060208284031215615442578081fd5b8135611c6a81615f42565b60006020828403121561545e578081fd5b8151611c6a81615f42565b6000806040838503121561547b578081fd5b823561548681615f42565b9150602083013561549681615f42565b809150509250929050565b6000806000606084860312156154b5578081fd5b83356154c081615f42565b925060208401356154d081615f42565b929592945050506040919091013590565b600080604083850312156154f3578182fd5b82356154fe81615f42565b946020939093013593505050565b600080600060608486031215615520578283fd5b833567ffffffffffffffff80821115615537578485fd5b818601915086601f83011261554a578485fd5b8135602061555a61535b83615c0f565b8083825282820191508286018b848660051b890101111561557957898afd5b8996505b848710156155a457803561559081615f42565b83526001969096019591830191830161557d565b50975050870135925050808211156155ba578384fd5b6155c68783880161533b565b935060408601359150808211156155db578283fd5b506155e88682870161533b565b9150509250925092565b600060208284031215615603578081fd5b8135611c6a81615f57565b60006020828403121561561f578081fd5b8151611c6a81615f57565b60006020828403121561563b578081fd5b5035919050565b60008060408385031215615654578182fd5b82359150602083013561549681615f42565b600060208284031215615677578081fd5b81356001600160e01b031981168114611c6a578182fd5b60008060008060008060008060006101208a8c0312156156ac578687fd5b893567ffffffffffffffff808211156156c3578889fd5b6156cf8d838e016153b5565b9a5060208c01359150808211156156e4578889fd5b506156f18c828d016153b5565b98505060408a013561570281615f42565b965060608a013561571281615f42565b955061572060808b01615420565b945061572e60a08b01615420565b935061573c60c08b0161532b565b925061574a60e08b016153aa565b91506157596101008b0161532b565b90509295985092959850929598565b600060808284031215615779578081fd5b6040516080810181811067ffffffffffffffff8211171561579c5761579c615f2c565b60405282356157aa81615f42565b8152602083810135908201526157c260408401615420565b6040820152606083013561ffff811681146157db578283fd5b60608201529392505050565b6000815180845260208085019450808401835b83811015615816578151875295820195908201906001016157fa565b509495945050505050565b60008251615833818460208701615e83565b9190910192915050565b7f416363657373436f6e74726f6c3a206163636f756e7420000000000000000000815260008351615875816017850160208801615e83565b7001034b99036b4b9b9b4b733903937b6329607d1b60179184019182015283516158a6816028840160208801615e83565b01602801949350505050565b6001600160a01b039485168152602081019390935292166040820152901515606082015260800190565b606080825284519082018190526000906020906080840190828801845b8281101561591e5781516001600160a01b0316845292840192908401906001016158f9565b5050508381038285015261593281876157e7565b915050828103604084015261594781856157e7565b9695505050505050565b6020815260008251806020840152615970816040850160208701615e83565b601f01601f19169190910160400192915050565b6020808252601190820152704578636565647320617661696c61626c6560781b604082015260600190565b6020808252600d908201526c10995a5b99c81cd95d1d1b1959609a1b604082015260600190565b6020808252602e908201527f496e697469616c697a61626c653a20636f6e747261637420697320616c72656160408201526d191e481a5b9a5d1a585b1a5e995960921b606082015260800190565b6020808252600b908201526a08539bc813585d1d5c995960aa1b604082015260600190565b602080825260119082015270139bdd0818995a5b99c81cd95d1d1b1959607a1b604082015260600190565b60208082526007908201526608585b5bdd5b9d60ca1b604082015260600190565b60208082526010908201526f45786365656420617661696c61626c6560801b604082015260600190565b6020808252600b908201526a4e6f206f6e20676f696e6760a81b604082015260600190565b6020808252601f908201527f5265656e7472616e637947756172643a207265656e7472616e742063616c6c00604082015260600190565b81518152602080830151908201526040808301519082015260608083015190820152608081016110b0565b81516001600160a01b03168152610180810160208301516020830152604083015160408301526060830151615b7f606084018215159052565b506080830151608083015260a083015160a083015260c083015160c083015260e083015160e083015261010080840151818401525061012080840151818401525061014080840151818401525061016080840151818401525092915050565b604051601f8201601f1916810167ffffffffffffffff81118282101715615c0757615c07615f2c565b604052919050565b600067ffffffffffffffff821115615c2957615c29615f2c565b5060051b60200190565b600081810b83820b82821282607f03821381151615615c5457615c54615f16565b82607f19038212811615615c6a57615c6a615f16565b50019392505050565b60006001600160e81b03828116848216808303821115615c9557615c95615f16565b01949350505050565b60008219821115615cb157615cb1615f16565b500190565b600060ff821660ff84168060ff03821115615cd357615cd3615f16565b019392505050565b600082615cf657634e487b7160e01b81526012600452602481fd5b500490565b600181815b80851115615d36578160001904821115615d1c57615d1c615f16565b80851615615d2957918102915b93841c9390800290615d00565b509250929050565b6000611c6a60ff841683600082615d57575060016110b0565b81615d64575060006110b0565b8160018114615d7a5760028114615d8457615da0565b60019150506110b0565b60ff841115615d9557615d95615f16565b50506001821b6110b0565b5060208310610133831016604e8410600b8410161715615dc3575081810a6110b0565b615dcd8383615cfb565b8060001904821115615de157615de1615f16565b029392505050565b6000816000190483118215151615615e0357615e03615f16565b500290565b600081810b83820b8281128015607f19830184121615615e2a57615e2a615f16565b81607f018313811615615e3f57615e3f615f16565b5090039392505050565b600082821015615e5b57615e5b615f16565b500390565b600060ff821660ff841680821015615e7a57615e7a615f16565b90039392505050565b60005b83811015615e9e578181015183820152602001615e86565b83811115611fa45750506000910152565b600081615ebe57615ebe615f16565b506000190190565b600181811c90821680615eda57607f821691505b602082108114156116df57634e487b7160e01b600052602260045260246000fd5b6000600019821415615f0f57615f0f615f16565b5060010190565b634e487b7160e01b600052601160045260246000fd5b634e487b7160e01b600052604160045260246000fd5b6001600160a01b038116811461201f57600080fd5b801515811461201f57600080fdfe6666bf5bfee463d10a7fc50448047f8a53b7762d7e28fbc5c643182785f3fd3fa2646970667358221220cc5db925a6842f53cbb2c41bf435a9054f03e7dc65dfdb92b47beb61d2e30a8b64736f6c63430008040033",
  "libraries": {
    "StructureData": true
  },
  "devdoc": {
    "kind": "dev",
    "methods": {
      "allowance(address,address)": {
        "details": "See {IERC20-allowance}."
      },
      "approve(address,uint256)": {
        "details": "See {IERC20-approve}. Requirements: - `spender` cannot be the zero address."
      },
      "balanceOf(address)": {
        "details": "See {IERC20-balanceOf}."
      },
      "decimals()": {
        "details": "Returns the number of decimals used to get its user representation. For example, if `decimals` equals `2`, a balance of `505` tokens should be displayed to a user as `5.05` (`505 / 10 ** 2`). Tokens usually opt for a value of 18, imitating the relationship between Ether and Wei. This is the value {ERC20} uses, unless this function is overridden; NOTE: This information is only used for _display_ purposes: it in no way affects any of the arithmetic of the contract, including {IERC20-balanceOf} and {IERC20-transfer}."
      },
      "decreaseAllowance(address,uint256)": {
        "details": "Atomically decreases the allowance granted to `spender` by the caller. This is an alternative to {approve} that can be used as a mitigation for problems described in {IERC20-approve}. Emits an {Approval} event indicating the updated allowance. Requirements: - `spender` cannot be the zero address. - `spender` must have allowance for the caller of at least `subtractedValue`."
      },
      "getRoleAdmin(bytes32)": {
        "details": "Returns the admin role that controls `role`. See {grantRole} and {revokeRole}. To change a role's admin, use {_setRoleAdmin}."
      },
      "grantRole(bytes32,address)": {
        "details": "Grants `role` to `account`. If `account` had not been already granted `role`, emits a {RoleGranted} event. Requirements: - the caller must have ``role``'s admin role."
      },
      "hasRole(bytes32,address)": {
        "details": "Returns `true` if `account` has been granted `role`."
      },
      "increaseAllowance(address,uint256)": {
        "details": "Atomically increases the allowance granted to `spender` by the caller. This is an alternative to {approve} that can be used as a mitigation for problems described in {IERC20-approve}. Emits an {Approval} event indicating the updated allowance. Requirements: - `spender` cannot be the zero address."
      },
      "name()": {
        "details": "Returns the name of the token."
      },
      "renounceRole(bytes32,address)": {
        "details": "Revokes `role` from the calling account. Roles are often managed via {grantRole} and {revokeRole}: this function's purpose is to provide a mechanism for accounts to lose their privileges if they are compromised (such as when a trusted device is misplaced). If the calling account had been granted `role`, emits a {RoleRevoked} event. Requirements: - the caller must be `account`."
      },
      "revokeRole(bytes32,address)": {
        "details": "Revokes `role` from `account`. If `account` had been granted `role`, emits a {RoleRevoked} event. Requirements: - the caller must have ``role``'s admin role."
      },
      "supportsInterface(bytes4)": {
        "details": "See {IERC165-supportsInterface}."
      },
      "symbol()": {
        "details": "Returns the symbol of the token, usually a shorter version of the name."
      },
      "totalSupply()": {
        "details": "See {IERC20-totalSupply}."
      },
      "transfer(address,uint256)": {
        "details": "See {IERC20-transfer}. Requirements: - `recipient` cannot be the zero address. - the caller must have a balance of at least `amount`."
      },
      "transferFrom(address,address,uint256)": {
        "details": "See {IERC20-transferFrom}. Emits an {Approval} event indicating the updated allowance. This is not required by the EIP. See the note at the beginning of {ERC20}. Requirements: - `sender` and `recipient` cannot be the zero address. - `sender` must have a balance of at least `amount`. - the caller must have allowance for ``sender``'s tokens of at least `amount`."
      }
    },
    "version": 1
  },
  "userdoc": {
    "kind": "user",
    "methods": {},
    "version": 1
  },
  "storageLayout": {
    "storage": [
      {
        "astId": 538,
        "contract": "contracts/PKKTHodlBoosterOption.sol:PKKTHodlBoosterOption",
        "label": "_initialized",
        "offset": 0,
        "slot": "0",
        "type": "t_bool"
      },
      {
        "astId": 541,
        "contract": "contracts/PKKTHodlBoosterOption.sol:PKKTHodlBoosterOption",
        "label": "_initializing",
        "offset": 1,
        "slot": "0",
        "type": "t_bool"
      },
      {
        "astId": 1355,
        "contract": "contracts/PKKTHodlBoosterOption.sol:PKKTHodlBoosterOption",
        "label": "__gap",
        "offset": 0,
        "slot": "1",
        "type": "t_array(t_uint256)50_storage"
      },
      {
        "astId": 655,
        "contract": "contracts/PKKTHodlBoosterOption.sol:PKKTHodlBoosterOption",
        "label": "_balances",
        "offset": 0,
        "slot": "51",
        "type": "t_mapping(t_address,t_uint256)"
      },
      {
        "astId": 661,
        "contract": "contracts/PKKTHodlBoosterOption.sol:PKKTHodlBoosterOption",
        "label": "_allowances",
        "offset": 0,
        "slot": "52",
        "type": "t_mapping(t_address,t_mapping(t_address,t_uint256))"
      },
      {
        "astId": 663,
        "contract": "contracts/PKKTHodlBoosterOption.sol:PKKTHodlBoosterOption",
        "label": "_totalSupply",
        "offset": 0,
        "slot": "53",
        "type": "t_uint256"
      },
      {
        "astId": 665,
        "contract": "contracts/PKKTHodlBoosterOption.sol:PKKTHodlBoosterOption",
        "label": "_name",
        "offset": 0,
        "slot": "54",
        "type": "t_string_storage"
      },
      {
        "astId": 667,
        "contract": "contracts/PKKTHodlBoosterOption.sol:PKKTHodlBoosterOption",
        "label": "_symbol",
        "offset": 0,
        "slot": "55",
        "type": "t_string_storage"
      },
      {
        "astId": 1208,
        "contract": "contracts/PKKTHodlBoosterOption.sol:PKKTHodlBoosterOption",
        "label": "__gap",
        "offset": 0,
        "slot": "56",
        "type": "t_array(t_uint256)45_storage"
      },
      {
        "astId": 1604,
        "contract": "contracts/PKKTHodlBoosterOption.sol:PKKTHodlBoosterOption",
        "label": "__gap",
        "offset": 0,
        "slot": "101",
        "type": "t_array(t_uint256)50_storage"
      },
      {
        "astId": 48,
        "contract": "contracts/PKKTHodlBoosterOption.sol:PKKTHodlBoosterOption",
        "label": "_roles",
        "offset": 0,
        "slot": "151",
        "type": "t_mapping(t_bytes32,t_struct(RoleData)43_storage)"
      },
      {
        "astId": 333,
        "contract": "contracts/PKKTHodlBoosterOption.sol:PKKTHodlBoosterOption",
        "label": "__gap",
        "offset": 0,
        "slot": "152",
        "type": "t_array(t_uint256)49_storage"
      },
      {
        "astId": 592,
        "contract": "contracts/PKKTHodlBoosterOption.sol:PKKTHodlBoosterOption",
        "label": "_status",
        "offset": 0,
        "slot": "201",
        "type": "t_uint256"
      },
      {
        "astId": 635,
        "contract": "contracts/PKKTHodlBoosterOption.sol:PKKTHodlBoosterOption",
        "label": "__gap",
        "offset": 0,
        "slot": "202",
        "type": "t_array(t_uint256)49_storage"
      },
      {
        "astId": 7392,
        "contract": "contracts/PKKTHodlBoosterOption.sol:PKKTHodlBoosterOption",
        "label": "depositAssetAmountDecimals",
        "offset": 0,
        "slot": "251",
        "type": "t_uint8"
      },
      {
        "astId": 7394,
        "contract": "contracts/PKKTHodlBoosterOption.sol:PKKTHodlBoosterOption",
        "label": "counterPartyAssetAmountDecimals",
        "offset": 1,
        "slot": "251",
        "type": "t_uint8"
      },
      {
        "astId": 7396,
        "contract": "contracts/PKKTHodlBoosterOption.sol:PKKTHodlBoosterOption",
        "label": "depositAsset",
        "offset": 2,
        "slot": "251",
        "type": "t_address"
      },
      {
        "astId": 7398,
        "contract": "contracts/PKKTHodlBoosterOption.sol:PKKTHodlBoosterOption",
        "label": "counterPartyAsset",
        "offset": 0,
        "slot": "252",
        "type": "t_address"
      },
      {
        "astId": 7400,
        "contract": "contracts/PKKTHodlBoosterOption.sol:PKKTHodlBoosterOption",
        "label": "isEth",
        "offset": 20,
        "slot": "252",
        "type": "t_bool"
      },
      {
        "astId": 7402,
        "contract": "contracts/PKKTHodlBoosterOption.sol:PKKTHodlBoosterOption",
        "label": "quota",
        "offset": 0,
        "slot": "253",
        "type": "t_uint256"
      },
      {
        "astId": 7404,
        "contract": "contracts/PKKTHodlBoosterOption.sol:PKKTHodlBoosterOption",
        "label": "currentRound",
        "offset": 0,
        "slot": "254",
        "type": "t_uint256"
      },
      {
        "astId": 7408,
        "contract": "contracts/PKKTHodlBoosterOption.sol:PKKTHodlBoosterOption",
        "label": "optionHeights",
        "offset": 0,
        "slot": "255",
        "type": "t_mapping(t_uint256,t_uint256)"
      },
      {
        "astId": 7413,
        "contract": "contracts/PKKTHodlBoosterOption.sol:PKKTHodlBoosterOption",
        "label": "optionStates",
        "offset": 0,
        "slot": "256",
        "type": "t_mapping(t_uint256,t_struct(OptionState)13718_storage)"
      },
      {
        "astId": 7416,
        "contract": "contracts/PKKTHodlBoosterOption.sol:PKKTHodlBoosterOption",
        "label": "usersInvolved",
        "offset": 0,
        "slot": "257",
        "type": "t_array(t_address)dyn_storage"
      },
      {
        "astId": 7421,
        "contract": "contracts/PKKTHodlBoosterOption.sol:PKKTHodlBoosterOption",
        "label": "userStates",
        "offset": 0,
        "slot": "258",
        "type": "t_mapping(t_address,t_struct(UserState)13759_storage)"
      },
      {
        "astId": 7423,
        "contract": "contracts/PKKTHodlBoosterOption.sol:PKKTHodlBoosterOption",
        "label": "underSettlement",
        "offset": 0,
        "slot": "259",
        "type": "t_bool"
      },
      {
        "astId": 7425,
        "contract": "contracts/PKKTHodlBoosterOption.sol:PKKTHodlBoosterOption",
        "label": "callOrPut",
        "offset": 1,
        "slot": "259",
        "type": "t_bool"
      },
      {
        "astId": 7428,
        "contract": "contracts/PKKTHodlBoosterOption.sol:PKKTHodlBoosterOption",
        "label": "counterPartyOption",
        "offset": 2,
        "slot": "259",
        "type": "t_contract(IPKKTStructureOption)13572"
      },
      {
        "astId": 7430,
        "contract": "contracts/PKKTHodlBoosterOption.sol:PKKTHodlBoosterOption",
        "label": "counterParty",
        "offset": 0,
        "slot": "260",
        "type": "t_address"
      },
      {
        "astId": 7433,
        "contract": "contracts/PKKTHodlBoosterOption.sol:PKKTHodlBoosterOption",
        "label": "optionVault",
        "offset": 0,
        "slot": "261",
        "type": "t_contract(IOptionVault)13465"
      },
      {
        "astId": 7435,
        "contract": "contracts/PKKTHodlBoosterOption.sol:PKKTHodlBoosterOption",
        "label": "totalReleasedDepositAssetAmount",
        "offset": 0,
        "slot": "262",
        "type": "t_uint256"
      },
      {
        "astId": 7437,
        "contract": "contracts/PKKTHodlBoosterOption.sol:PKKTHodlBoosterOption",
        "label": "totalReleasedCounterPartyAssetAmount",
        "offset": 0,
        "slot": "263",
        "type": "t_uint256"
      },
      {
        "astId": 7441,
        "contract": "contracts/PKKTHodlBoosterOption.sol:PKKTHodlBoosterOption",
        "label": "releasedDepositAssetAmount",
        "offset": 0,
        "slot": "264",
        "type": "t_mapping(t_address,t_uint256)"
      },
      {
        "astId": 7445,
        "contract": "contracts/PKKTHodlBoosterOption.sol:PKKTHodlBoosterOption",
        "label": "releasedCounterPartyAssetAmount",
        "offset": 0,
        "slot": "265",
        "type": "t_mapping(t_address,t_uint256)"
      },
      {
        "astId": 7447,
        "contract": "contracts/PKKTHodlBoosterOption.sol:PKKTHodlBoosterOption",
        "label": "assetToTerminateForNextRound",
        "offset": 0,
        "slot": "266",
        "type": "t_uint256"
      },
      {
        "astId": 10138,
        "contract": "contracts/PKKTHodlBoosterOption.sol:PKKTHodlBoosterOption",
        "label": "autoRolledUsers",
        "offset": 0,
        "slot": "267",
        "type": "t_array(t_address)dyn_storage"
      },
      {
        "astId": 10141,
        "contract": "contracts/PKKTHodlBoosterOption.sol:PKKTHodlBoosterOption",
        "label": "autoRolledAmounts",
        "offset": 0,
        "slot": "268",
        "type": "t_array(t_uint256)dyn_storage"
      },
      {
        "astId": 10144,
        "contract": "contracts/PKKTHodlBoosterOption.sol:PKKTHodlBoosterOption",
        "label": "toTerminateAmounts",
        "offset": 0,
        "slot": "269",
        "type": "t_array(t_uint256)dyn_storage"
      }
    ],
    "types": {
      "t_address": {
        "encoding": "inplace",
        "label": "address",
        "numberOfBytes": "20"
      },
      "t_array(t_address)dyn_storage": {
        "base": "t_address",
        "encoding": "dynamic_array",
        "label": "address[]",
        "numberOfBytes": "32"
      },
      "t_array(t_uint256)1_storage": {
        "base": "t_uint256",
        "encoding": "inplace",
        "label": "uint256[1]",
        "numberOfBytes": "32"
      },
      "t_array(t_uint256)45_storage": {
        "base": "t_uint256",
        "encoding": "inplace",
        "label": "uint256[45]",
        "numberOfBytes": "1440"
      },
      "t_array(t_uint256)49_storage": {
        "base": "t_uint256",
        "encoding": "inplace",
        "label": "uint256[49]",
        "numberOfBytes": "1568"
      },
      "t_array(t_uint256)50_storage": {
        "base": "t_uint256",
        "encoding": "inplace",
        "label": "uint256[50]",
        "numberOfBytes": "1600"
      },
      "t_array(t_uint256)dyn_storage": {
        "base": "t_uint256",
        "encoding": "dynamic_array",
        "label": "uint256[]",
        "numberOfBytes": "32"
      },
      "t_bool": {
        "encoding": "inplace",
        "label": "bool",
        "numberOfBytes": "1"
      },
      "t_bytes32": {
        "encoding": "inplace",
        "label": "bytes32",
        "numberOfBytes": "32"
      },
      "t_contract(IOptionVault)13465": {
        "encoding": "inplace",
        "label": "contract IOptionVault",
        "numberOfBytes": "20"
      },
      "t_contract(IPKKTStructureOption)13572": {
        "encoding": "inplace",
        "label": "contract IPKKTStructureOption",
        "numberOfBytes": "20"
      },
      "t_mapping(t_address,t_bool)": {
        "encoding": "mapping",
        "key": "t_address",
        "label": "mapping(address => bool)",
        "numberOfBytes": "32",
        "value": "t_bool"
      },
      "t_mapping(t_address,t_mapping(t_address,t_uint256))": {
        "encoding": "mapping",
        "key": "t_address",
        "label": "mapping(address => mapping(address => uint256))",
        "numberOfBytes": "32",
        "value": "t_mapping(t_address,t_uint256)"
      },
      "t_mapping(t_address,t_struct(UserState)13759_storage)": {
        "encoding": "mapping",
        "key": "t_address",
        "label": "mapping(address => struct StructureData.UserState)",
        "numberOfBytes": "32",
        "value": "t_struct(UserState)13759_storage"
      },
      "t_mapping(t_address,t_uint256)": {
        "encoding": "mapping",
        "key": "t_address",
        "label": "mapping(address => uint256)",
        "numberOfBytes": "32",
        "value": "t_uint256"
      },
      "t_mapping(t_bytes32,t_struct(RoleData)43_storage)": {
        "encoding": "mapping",
        "key": "t_bytes32",
        "label": "mapping(bytes32 => struct AccessControlUpgradeable.RoleData)",
        "numberOfBytes": "32",
        "value": "t_struct(RoleData)43_storage"
      },
      "t_mapping(t_uint256,t_struct(OptionState)13718_storage)": {
        "encoding": "mapping",
        "key": "t_uint256",
        "label": "mapping(uint256 => struct StructureData.OptionState)",
        "numberOfBytes": "32",
        "value": "t_struct(OptionState)13718_storage"
      },
      "t_mapping(t_uint256,t_uint256)": {
        "encoding": "mapping",
        "key": "t_uint256",
        "label": "mapping(uint256 => uint256)",
        "numberOfBytes": "32",
        "value": "t_uint256"
      },
      "t_string_storage": {
        "encoding": "bytes",
        "label": "string",
        "numberOfBytes": "32"
      },
      "t_struct(OptionState)13718_storage": {
        "encoding": "inplace",
        "label": "struct StructureData.OptionState",
        "members": [
          {
            "astId": 13703,
            "contract": "contracts/PKKTHodlBoosterOption.sol:PKKTHodlBoosterOption",
            "label": "round",
            "offset": 0,
            "slot": "0",
            "type": "t_uint256"
          },
          {
            "astId": 13705,
            "contract": "contracts/PKKTHodlBoosterOption.sol:PKKTHodlBoosterOption",
            "label": "totalAmount",
            "offset": 0,
            "slot": "1",
            "type": "t_uint256"
          },
          {
            "astId": 13707,
            "contract": "contracts/PKKTHodlBoosterOption.sol:PKKTHodlBoosterOption",
            "label": "totalTerminate",
            "offset": 0,
            "slot": "2",
            "type": "t_uint256"
          },
          {
            "astId": 13709,
            "contract": "contracts/PKKTHodlBoosterOption.sol:PKKTHodlBoosterOption",
            "label": "strikePrice",
            "offset": 0,
            "slot": "3",
            "type": "t_uint256"
          },
          {
            "astId": 13711,
            "contract": "contracts/PKKTHodlBoosterOption.sol:PKKTHodlBoosterOption",
            "label": "premiumRate",
            "offset": 0,
            "slot": "4",
            "type": "t_uint16"
          },
          {
            "astId": 13713,
            "contract": "contracts/PKKTHodlBoosterOption.sol:PKKTHodlBoosterOption",
            "label": "pricePrecision",
            "offset": 2,
            "slot": "4",
            "type": "t_uint8"
          },
          {
            "astId": 13715,
            "contract": "contracts/PKKTHodlBoosterOption.sol:PKKTHodlBoosterOption",
            "label": "executed",
            "offset": 3,
            "slot": "4",
            "type": "t_bool"
          },
          {
            "astId": 13717,
            "contract": "contracts/PKKTHodlBoosterOption.sol:PKKTHodlBoosterOption",
            "label": "callOrPut",
            "offset": 4,
            "slot": "4",
            "type": "t_bool"
          }
        ],
        "numberOfBytes": "160"
      },
      "t_struct(RoleData)43_storage": {
        "encoding": "inplace",
        "label": "struct AccessControlUpgradeable.RoleData",
        "members": [
          {
            "astId": 40,
            "contract": "contracts/PKKTHodlBoosterOption.sol:PKKTHodlBoosterOption",
            "label": "members",
            "offset": 0,
            "slot": "0",
            "type": "t_mapping(t_address,t_bool)"
          },
          {
            "astId": 42,
            "contract": "contracts/PKKTHodlBoosterOption.sol:PKKTHodlBoosterOption",
            "label": "adminRole",
            "offset": 0,
            "slot": "1",
            "type": "t_bytes32"
          }
        ],
        "numberOfBytes": "64"
      },
      "t_struct(UserState)13759_storage": {
        "encoding": "inplace",
        "label": "struct StructureData.UserState",
        "members": [
          {
            "astId": 13742,
            "contract": "contracts/PKKTHodlBoosterOption.sol:PKKTHodlBoosterOption",
            "label": "pendingAsset",
            "offset": 0,
            "slot": "0",
            "type": "t_uint256"
          },
          {
            "astId": 13744,
            "contract": "contracts/PKKTHodlBoosterOption.sol:PKKTHodlBoosterOption",
            "label": "tempLocked",
            "offset": 0,
            "slot": "1",
            "type": "t_uint256"
          },
          {
            "astId": 13748,
            "contract": "contracts/PKKTHodlBoosterOption.sol:PKKTHodlBoosterOption",
            "label": "ongoingAsset",
            "offset": 0,
            "slot": "2",
            "type": "t_array(t_uint256)1_storage"
          },
          {
            "astId": 13750,
            "contract": "contracts/PKKTHodlBoosterOption.sol:PKKTHodlBoosterOption",
            "label": "nextCursor",
            "offset": 0,
            "slot": "3",
            "type": "t_uint8"
          },
          {
            "astId": 13752,
            "contract": "contracts/PKKTHodlBoosterOption.sol:PKKTHodlBoosterOption",
            "label": "totalRound",
            "offset": 1,
            "slot": "3",
            "type": "t_uint232"
          },
          {
            "astId": 13754,
            "contract": "contracts/PKKTHodlBoosterOption.sol:PKKTHodlBoosterOption",
            "label": "hasState",
            "offset": 30,
            "slot": "3",
            "type": "t_bool"
          },
          {
            "astId": 13756,
            "contract": "contracts/PKKTHodlBoosterOption.sol:PKKTHodlBoosterOption",
            "label": "assetToTerminate",
            "offset": 0,
            "slot": "4",
            "type": "t_uint256"
          },
          {
            "astId": 13758,
            "contract": "contracts/PKKTHodlBoosterOption.sol:PKKTHodlBoosterOption",
            "label": "assetToTerminateForNextRound",
            "offset": 0,
            "slot": "5",
            "type": "t_uint256"
          }
        ],
        "numberOfBytes": "192"
      },
      "t_uint16": {
        "encoding": "inplace",
        "label": "uint16",
        "numberOfBytes": "2"
      },
      "t_uint232": {
        "encoding": "inplace",
        "label": "uint232",
        "numberOfBytes": "29"
      },
      "t_uint256": {
        "encoding": "inplace",
        "label": "uint256",
        "numberOfBytes": "32"
      },
      "t_uint8": {
        "encoding": "inplace",
        "label": "uint8",
        "numberOfBytes": "1"
      }
    }
  }
}