{
  "address": "0x1c85638e118b37167e9298c2268758e058DdfDA0",
  "abi": [
    {
      "anonymous": false,
      "inputs": [
        {
          "indexed": true,
          "internalType": "address",
          "name": "owner",
          "type": "address"
        },
        {
          "indexed": true,
          "internalType": "address",
          "name": "spender",
          "type": "address"
        },
        {
          "indexed": false,
          "internalType": "uint256",
          "name": "value",
          "type": "uint256"
        }
      ],
      "name": "Approval",
      "type": "event"
    },
    {
      "anonymous": false,
      "inputs": [
        {
          "indexed": true,
          "internalType": "uint256",
          "name": "round",
          "type": "uint256"
        }
      ],
      "name": "CloseOption",
      "type": "event"
    },
    {
      "anonymous": false,
      "inputs": [
        {
          "indexed": true,
          "internalType": "uint256",
          "name": "round",
          "type": "uint256"
        }
      ],
      "name": "CommitOption",
      "type": "event"
    },
    {
      "anonymous": false,
      "inputs": [
        {
          "indexed": true,
          "internalType": "address",
          "name": "from",
          "type": "address"
        },
        {
          "indexed": true,
          "internalType": "address",
          "name": "account",
          "type": "address"
        },
        {
          "indexed": true,
          "internalType": "uint256",
          "name": "round",
          "type": "uint256"
        },
        {
          "indexed": false,
          "internalType": "uint256",
          "name": "amount",
          "type": "uint256"
        },
        {
          "indexed": false,
          "internalType": "address",
          "name": "option",
          "type": "address"
        }
      ],
      "name": "Deposit",
      "type": "event"
    },
    {
      "anonymous": false,
      "inputs": [
        {
          "indexed": true,
          "internalType": "uint256",
          "name": "round",
          "type": "uint256"
        }
      ],
      "name": "OpenOption",
      "type": "event"
    },
    {
      "anonymous": false,
      "inputs": [
        {
          "indexed": true,
          "internalType": "address",
          "name": "option",
          "type": "address"
        },
        {
          "indexed": false,
          "internalType": "string",
          "name": "name",
          "type": "string"
        }
      ],
      "name": "OptionCreated",
      "type": "event"
    },
    {
      "anonymous": false,
      "inputs": [
        {
          "indexed": false,
          "internalType": "address",
          "name": "from",
          "type": "address"
        },
        {
          "indexed": false,
          "internalType": "address",
          "name": "to",
          "type": "address"
        },
        {
          "indexed": false,
          "internalType": "uint256",
          "name": "premium",
          "type": "uint256"
        },
        {
          "indexed": false,
          "internalType": "uint256",
          "name": "round",
          "type": "uint256"
        }
      ],
      "name": "OptionTransfer",
      "type": "event"
    },
    {
      "anonymous": false,
      "inputs": [
        {
          "indexed": true,
          "internalType": "bytes32",
          "name": "role",
          "type": "bytes32"
        },
        {
          "indexed": true,
          "internalType": "bytes32",
          "name": "previousAdminRole",
          "type": "bytes32"
        },
        {
          "indexed": true,
          "internalType": "bytes32",
          "name": "newAdminRole",
          "type": "bytes32"
        }
      ],
      "name": "RoleAdminChanged",
      "type": "event"
    },
    {
      "anonymous": false,
      "inputs": [
        {
          "indexed": true,
          "internalType": "bytes32",
          "name": "role",
          "type": "bytes32"
        },
        {
          "indexed": true,
          "internalType": "address",
          "name": "account",
          "type": "address"
        },
        {
          "indexed": true,
          "internalType": "address",
          "name": "sender",
          "type": "address"
        }
      ],
      "name": "RoleGranted",
      "type": "event"
    },
    {
      "anonymous": false,
      "inputs": [
        {
          "indexed": true,
          "internalType": "bytes32",
          "name": "role",
          "type": "bytes32"
        },
        {
          "indexed": true,
          "internalType": "address",
          "name": "account",
          "type": "address"
        },
        {
          "indexed": true,
          "internalType": "address",
          "name": "sender",
          "type": "address"
        }
      ],
      "name": "RoleRevoked",
      "type": "event"
    },
    {
      "anonymous": false,
      "inputs": [
        {
          "indexed": true,
          "internalType": "address",
          "name": "from",
          "type": "address"
        },
        {
          "indexed": true,
          "internalType": "address",
          "name": "to",
          "type": "address"
        },
        {
          "indexed": false,
          "internalType": "uint256",
          "name": "value",
          "type": "uint256"
        }
      ],
      "name": "Transfer",
      "type": "event"
    },
    {
      "anonymous": false,
      "inputs": [
        {
          "indexed": true,
          "internalType": "address",
          "name": "account",
          "type": "address"
        },
        {
          "indexed": true,
          "internalType": "address",
          "name": "asset",
          "type": "address"
        },
        {
          "indexed": false,
          "internalType": "uint256",
          "name": "amount",
          "type": "uint256"
        }
      ],
      "name": "Withdraw",
      "type": "event"
    },
    {
      "inputs": [],
      "name": "DEFAULT_ADMIN_ROLE",
      "outputs": [
        {
          "internalType": "bytes32",
          "name": "",
          "type": "bytes32"
        }
      ],
      "stateMutability": "view",
      "type": "function"
    },
    {
      "inputs": [],
      "name": "OPTION_ROLE",
      "outputs": [
        {
          "internalType": "bytes32",
          "name": "",
          "type": "bytes32"
        }
      ],
      "stateMutability": "view",
      "type": "function"
    },
    {
      "inputs": [],
      "name": "RATIOMULTIPLIER",
      "outputs": [
        {
          "internalType": "uint256",
          "name": "",
          "type": "uint256"
        }
      ],
      "stateMutability": "view",
      "type": "function"
    },
    {
      "inputs": [],
      "name": "SETTLER_ROLE",
      "outputs": [
        {
          "internalType": "bytes32",
          "name": "",
          "type": "bytes32"
        }
      ],
      "stateMutability": "view",
      "type": "function"
    },
    {
      "inputs": [
        {
          "internalType": "address",
          "name": "owner",
          "type": "address"
        },
        {
          "internalType": "address",
          "name": "spender",
          "type": "address"
        }
      ],
      "name": "allowance",
      "outputs": [
        {
          "internalType": "uint256",
          "name": "",
          "type": "uint256"
        }
      ],
      "stateMutability": "view",
      "type": "function"
    },
    {
      "inputs": [
        {
          "internalType": "address",
          "name": "spender",
          "type": "address"
        },
        {
          "internalType": "uint256",
          "name": "amount",
          "type": "uint256"
        }
      ],
      "name": "approve",
      "outputs": [
        {
          "internalType": "bool",
          "name": "",
          "type": "bool"
        }
      ],
      "stateMutability": "nonpayable",
      "type": "function"
    },
    {
      "inputs": [
        {
          "internalType": "address",
          "name": "account",
          "type": "address"
        }
      ],
      "name": "balanceOf",
      "outputs": [
        {
          "internalType": "uint256",
          "name": "",
          "type": "uint256"
        }
      ],
      "stateMutability": "view",
      "type": "function"
    },
    {
      "inputs": [],
      "name": "callOrPut",
      "outputs": [
        {
          "internalType": "bool",
          "name": "",
          "type": "bool"
        }
      ],
      "stateMutability": "view",
      "type": "function"
    },
    {
      "inputs": [
        {
          "internalType": "uint256",
          "name": "_assetToTerminate",
          "type": "uint256"
        }
      ],
      "name": "cancelWithdraw",
      "outputs": [],
      "stateMutability": "nonpayable",
      "type": "function"
    },
    {
      "inputs": [
        {
          "internalType": "bool",
          "name": "_execute",
          "type": "bool"
        }
      ],
      "name": "closePrevious",
      "outputs": [
        {
          "components": [
            {
              "internalType": "uint256",
              "name": "releasedDepositAssetAmount",
              "type": "uint256"
            },
            {
              "internalType": "uint256",
              "name": "releasedDepositAssetPremiumAmount",
              "type": "uint256"
            },
            {
              "internalType": "uint256",
              "name": "releasedCounterPartyAssetAmount",
              "type": "uint256"
            },
            {
              "internalType": "uint256",
              "name": "releasedCounterPartyAssetPremiumAmount",
              "type": "uint256"
            },
            {
              "internalType": "uint256",
              "name": "autoRollDepositAssetAmount",
              "type": "uint256"
            },
            {
              "internalType": "uint256",
              "name": "autoRollDepositAssetPremiumAmount",
              "type": "uint256"
            },
            {
              "internalType": "uint256",
              "name": "autoRollCounterPartyAssetAmount",
              "type": "uint256"
            },
            {
              "internalType": "uint256",
              "name": "autoRollCounterPartyAssetPremiumAmount",
              "type": "uint256"
            },
            {
              "internalType": "uint256",
              "name": "round",
              "type": "uint256"
            }
          ],
          "internalType": "struct StructureData.MaturedState",
          "name": "_maturedState",
          "type": "tuple"
        }
      ],
      "stateMutability": "nonpayable",
      "type": "function"
    },
    {
      "inputs": [
        {
          "components": [
            {
              "internalType": "address",
              "name": "option",
              "type": "address"
            },
            {
              "internalType": "uint256",
              "name": "strikePrice",
              "type": "uint256"
            },
            {
              "internalType": "uint8",
              "name": "pricePrecision",
              "type": "uint8"
            },
            {
              "internalType": "uint16",
              "name": "premiumRate",
              "type": "uint16"
            }
          ],
          "internalType": "struct StructureData.OptionParameters",
          "name": "_optionParameters",
          "type": "tuple"
        }
      ],
      "name": "commitCurrent",
      "outputs": [],
      "stateMutability": "nonpayable",
      "type": "function"
    },
    {
      "inputs": [
        {
          "internalType": "uint256",
          "name": "_amount",
          "type": "uint256"
        },
        {
          "internalType": "address",
          "name": "_asset",
          "type": "address"
        }
      ],
      "name": "completeWithdraw",
      "outputs": [],
      "stateMutability": "nonpayable",
      "type": "function"
    },
    {
      "inputs": [],
      "name": "counterParty",
      "outputs": [
        {
          "internalType": "address",
          "name": "",
          "type": "address"
        }
      ],
      "stateMutability": "view",
      "type": "function"
    },
    {
      "inputs": [],
      "name": "counterPartyAsset",
      "outputs": [
        {
          "internalType": "address",
          "name": "",
          "type": "address"
        }
      ],
      "stateMutability": "view",
      "type": "function"
    },
    {
      "inputs": [],
      "name": "counterPartyOption",
      "outputs": [
        {
          "internalType": "contract IPKKTStructureOption",
          "name": "",
          "type": "address"
        }
      ],
      "stateMutability": "view",
      "type": "function"
    },
    {
      "inputs": [],
      "name": "currentRound",
      "outputs": [
        {
          "internalType": "uint256",
          "name": "",
          "type": "uint256"
        }
      ],
      "stateMutability": "view",
      "type": "function"
    },
    {
      "inputs": [],
      "name": "decimals",
      "outputs": [
        {
          "internalType": "uint8",
          "name": "",
          "type": "uint8"
        }
      ],
      "stateMutability": "view",
      "type": "function"
    },
    {
      "inputs": [
        {
          "internalType": "address",
          "name": "spender",
          "type": "address"
        },
        {
          "internalType": "uint256",
          "name": "subtractedValue",
          "type": "uint256"
        }
      ],
      "name": "decreaseAllowance",
      "outputs": [
        {
          "internalType": "bool",
          "name": "",
          "type": "bool"
        }
      ],
      "stateMutability": "nonpayable",
      "type": "function"
    },
    {
      "inputs": [
        {
          "internalType": "uint256",
          "name": "_amount",
          "type": "uint256"
        }
      ],
      "name": "deposit",
      "outputs": [],
      "stateMutability": "nonpayable",
      "type": "function"
    },
    {
      "inputs": [],
      "name": "depositAsset",
      "outputs": [
        {
          "internalType": "address",
          "name": "",
          "type": "address"
        }
      ],
      "stateMutability": "view",
      "type": "function"
    },
    {
      "inputs": [],
      "name": "depositETH",
      "outputs": [],
      "stateMutability": "payable",
      "type": "function"
    },
    {
      "inputs": [
        {
          "internalType": "address[]",
          "name": "addresses",
          "type": "address[]"
        },
        {
          "internalType": "uint256[]",
          "name": "_amounts",
          "type": "uint256[]"
        }
      ],
      "name": "depositFromCounterParty",
      "outputs": [],
      "stateMutability": "nonpayable",
      "type": "function"
    },
    {
      "inputs": [
        {
          "internalType": "bool",
          "name": "_execute",
          "type": "bool"
        }
      ],
      "name": "dryRunSettlement",
      "outputs": [
        {
          "components": [
            {
              "internalType": "address",
              "name": "option",
              "type": "address"
            },
            {
              "internalType": "uint256",
              "name": "round",
              "type": "uint256"
            },
            {
              "internalType": "uint256",
              "name": "depositAmount",
              "type": "uint256"
            },
            {
              "internalType": "bool",
              "name": "executed",
              "type": "bool"
            },
            {
              "internalType": "uint256",
              "name": "autoRollAmount",
              "type": "uint256"
            },
            {
              "internalType": "uint256",
              "name": "autoRollPremium",
              "type": "uint256"
            },
            {
              "internalType": "uint256",
              "name": "releasedAmount",
              "type": "uint256"
            },
            {
              "internalType": "uint256",
              "name": "releasedPremium",
              "type": "uint256"
            },
            {
              "internalType": "uint256",
              "name": "autoRollCounterPartyAmount",
              "type": "uint256"
            },
            {
              "internalType": "uint256",
              "name": "autoRollCounterPartyPremium",
              "type": "uint256"
            },
            {
              "internalType": "uint256",
              "name": "releasedCounterPartyAmount",
              "type": "uint256"
            },
            {
              "internalType": "uint256",
              "name": "releasedCounterPartyPremium",
              "type": "uint256"
            }
          ],
          "internalType": "struct StructureData.SettlementAccountingResult",
          "name": "_result",
          "type": "tuple"
        }
      ],
      "stateMutability": "view",
      "type": "function"
    },
    {
      "inputs": [],
      "name": "getAccountBalance",
      "outputs": [
        {
          "components": [
            {
              "internalType": "uint256",
              "name": "pendingDepositAssetAmount",
              "type": "uint256"
            },
            {
              "internalType": "uint256",
              "name": "lockedDepositAssetAmount",
              "type": "uint256"
            },
            {
              "internalType": "uint256",
              "name": "ongoingDepositAssetAmount",
              "type": "uint256"
            },
            {
              "internalType": "uint256",
              "name": "releasedDepositAssetAmount",
              "type": "uint256"
            },
            {
              "internalType": "uint256",
              "name": "releasedCounterPartyAssetAmount",
              "type": "uint256"
            }
          ],
          "internalType": "struct StructureData.UserBalance",
          "name": "",
          "type": "tuple"
        }
      ],
      "stateMutability": "view",
      "type": "function"
    },
    {
      "inputs": [],
      "name": "getOptionSnapShot",
      "outputs": [
        {
          "components": [
            {
              "internalType": "uint256",
              "name": "totalPending",
              "type": "uint256"
            },
            {
              "internalType": "uint256",
              "name": "totalLocked",
              "type": "uint256"
            },
            {
              "internalType": "uint256",
              "name": "totalOngoing",
              "type": "uint256"
            },
            {
              "internalType": "uint256",
              "name": "totalReleasedDeposit",
              "type": "uint256"
            },
            {
              "internalType": "uint256",
              "name": "totalReleasedCounterParty",
              "type": "uint256"
            }
          ],
          "internalType": "struct StructureData.OptionSnapshot",
          "name": "",
          "type": "tuple"
        }
      ],
      "stateMutability": "view",
      "type": "function"
    },
    {
      "inputs": [
        {
          "internalType": "bytes32",
          "name": "role",
          "type": "bytes32"
        }
      ],
      "name": "getRoleAdmin",
      "outputs": [
        {
          "internalType": "bytes32",
          "name": "",
          "type": "bytes32"
        }
      ],
      "stateMutability": "view",
      "type": "function"
    },
    {
      "inputs": [
        {
          "internalType": "uint256",
          "name": "_blockHeight",
          "type": "uint256"
        }
      ],
      "name": "getRoundData",
      "outputs": [
        {
          "components": [
            {
              "internalType": "uint256",
              "name": "round",
              "type": "uint256"
            },
            {
              "internalType": "uint256",
              "name": "totalAmount",
              "type": "uint256"
            },
            {
              "internalType": "uint256",
              "name": "totalTerminate",
              "type": "uint256"
            },
            {
              "internalType": "uint256",
              "name": "strikePrice",
              "type": "uint256"
            },
            {
              "internalType": "uint16",
              "name": "premiumRate",
              "type": "uint16"
            },
            {
              "internalType": "uint8",
              "name": "pricePrecision",
              "type": "uint8"
            },
            {
              "internalType": "bool",
              "name": "executed",
              "type": "bool"
            },
            {
              "internalType": "bool",
              "name": "callOrPut",
              "type": "bool"
            }
          ],
          "internalType": "struct StructureData.OptionState",
          "name": "",
          "type": "tuple"
        }
      ],
      "stateMutability": "view",
      "type": "function"
    },
    {
      "inputs": [
        {
          "internalType": "address",
          "name": "_asset",
          "type": "address"
        }
      ],
      "name": "getWithdrawable",
      "outputs": [
        {
          "internalType": "uint256",
          "name": "",
          "type": "uint256"
        }
      ],
      "stateMutability": "view",
      "type": "function"
    },
    {
      "inputs": [
        {
          "internalType": "bytes32",
          "name": "role",
          "type": "bytes32"
        },
        {
          "internalType": "address",
          "name": "account",
          "type": "address"
        }
      ],
      "name": "grantRole",
      "outputs": [],
      "stateMutability": "nonpayable",
      "type": "function"
    },
    {
      "inputs": [
        {
          "internalType": "bytes32",
          "name": "role",
          "type": "bytes32"
        },
        {
          "internalType": "address",
          "name": "account",
          "type": "address"
        }
      ],
      "name": "hasRole",
      "outputs": [
        {
          "internalType": "bool",
          "name": "",
          "type": "bool"
        }
      ],
      "stateMutability": "view",
      "type": "function"
    },
    {
      "inputs": [
        {
          "internalType": "address",
          "name": "spender",
          "type": "address"
        },
        {
          "internalType": "uint256",
          "name": "addedValue",
          "type": "uint256"
        }
      ],
      "name": "increaseAllowance",
      "outputs": [
        {
          "internalType": "bool",
          "name": "",
          "type": "bool"
        }
      ],
      "stateMutability": "nonpayable",
      "type": "function"
    },
    {
      "inputs": [
        {
          "internalType": "string",
          "name": "name",
          "type": "string"
        },
        {
          "internalType": "string",
          "name": "symbol",
          "type": "string"
        },
        {
          "internalType": "address",
          "name": "_underlying",
          "type": "address"
        },
        {
          "internalType": "address",
          "name": "_stableCoin",
          "type": "address"
        },
        {
          "internalType": "uint8",
          "name": "_underlyingDecimals",
          "type": "uint8"
        },
        {
          "internalType": "uint8",
          "name": "_stableCoinDecimals",
          "type": "uint8"
        },
        {
          "internalType": "address",
          "name": "_vaultAddress",
          "type": "address"
        },
        {
          "internalType": "address",
          "name": "_settler",
          "type": "address"
        }
      ],
      "name": "initialize",
      "outputs": [],
      "stateMutability": "nonpayable",
      "type": "function"
    },
    {
      "inputs": [
        {
          "internalType": "uint256",
          "name": "_assetToTerminate",
          "type": "uint256"
        }
      ],
      "name": "initiateWithraw",
      "outputs": [],
      "stateMutability": "nonpayable",
      "type": "function"
    },
    {
      "inputs": [],
      "name": "isEth",
      "outputs": [
        {
          "internalType": "bool",
          "name": "",
          "type": "bool"
        }
      ],
      "stateMutability": "view",
      "type": "function"
    },
    {
      "inputs": [],
      "name": "maxCancelWithdraw",
      "outputs": [],
      "stateMutability": "nonpayable",
      "type": "function"
    },
    {
      "inputs": [],
      "name": "maxInitiateWithdraw",
      "outputs": [],
      "stateMutability": "nonpayable",
      "type": "function"
    },
    {
      "inputs": [],
      "name": "name",
      "outputs": [
        {
          "internalType": "string",
          "name": "",
          "type": "string"
        }
      ],
      "stateMutability": "view",
      "type": "function"
    },
    {
      "inputs": [
        {
          "internalType": "uint256",
          "name": "",
          "type": "uint256"
        }
      ],
      "name": "optionHeights",
      "outputs": [
        {
          "internalType": "uint256",
          "name": "",
          "type": "uint256"
        }
      ],
      "stateMutability": "view",
      "type": "function"
    },
    {
      "inputs": [
        {
          "internalType": "uint256",
          "name": "",
          "type": "uint256"
        }
      ],
      "name": "optionStates",
      "outputs": [
        {
          "internalType": "uint256",
          "name": "round",
          "type": "uint256"
        },
        {
          "internalType": "uint256",
          "name": "totalAmount",
          "type": "uint256"
        },
        {
          "internalType": "uint256",
          "name": "totalTerminate",
          "type": "uint256"
        },
        {
          "internalType": "uint256",
          "name": "strikePrice",
          "type": "uint256"
        },
        {
          "internalType": "uint16",
          "name": "premiumRate",
          "type": "uint16"
        },
        {
          "internalType": "uint8",
          "name": "pricePrecision",
          "type": "uint8"
        },
        {
          "internalType": "bool",
          "name": "executed",
          "type": "bool"
        },
        {
          "internalType": "bool",
          "name": "callOrPut",
          "type": "bool"
        }
      ],
      "stateMutability": "view",
      "type": "function"
    },
    {
      "inputs": [],
      "name": "optionVault",
      "outputs": [
        {
          "internalType": "contract IOptionVault",
          "name": "",
          "type": "address"
        }
      ],
      "stateMutability": "view",
      "type": "function"
    },
    {
      "inputs": [
        {
          "internalType": "uint256",
          "name": "_amount",
          "type": "uint256"
        }
      ],
      "name": "redeem",
      "outputs": [],
      "stateMutability": "nonpayable",
      "type": "function"
    },
    {
      "inputs": [
        {
          "internalType": "uint256",
          "name": "_amount",
          "type": "uint256"
        }
      ],
      "name": "redeposit",
      "outputs": [],
      "stateMutability": "nonpayable",
      "type": "function"
    },
    {
      "inputs": [
        {
          "internalType": "uint256",
          "name": "_amount",
          "type": "uint256"
        }
      ],
      "name": "redepositToCounterParty",
      "outputs": [],
      "stateMutability": "nonpayable",
      "type": "function"
    },
    {
      "inputs": [
        {
          "internalType": "bytes32",
          "name": "role",
          "type": "bytes32"
        },
        {
          "internalType": "address",
          "name": "account",
          "type": "address"
        }
      ],
      "name": "renounceRole",
      "outputs": [],
      "stateMutability": "nonpayable",
      "type": "function"
    },
    {
      "inputs": [
        {
          "internalType": "bytes32",
          "name": "role",
          "type": "bytes32"
        },
        {
          "internalType": "address",
          "name": "account",
          "type": "address"
        }
      ],
      "name": "revokeRole",
      "outputs": [],
      "stateMutability": "nonpayable",
      "type": "function"
    },
    {
      "inputs": [
        {
          "internalType": "uint256",
          "name": "_quota",
          "type": "uint256"
        }
      ],
      "name": "rollToNext",
      "outputs": [
        {
          "internalType": "uint256",
          "name": "_pendingAmount",
          "type": "uint256"
        }
      ],
      "stateMutability": "nonpayable",
      "type": "function"
    },
    {
      "inputs": [
        {
          "internalType": "address",
          "name": "_counterParty",
          "type": "address"
        }
      ],
      "name": "setCounterPartyOption",
      "outputs": [],
      "stateMutability": "nonpayable",
      "type": "function"
    },
    {
      "inputs": [
        {
          "internalType": "bytes4",
          "name": "interfaceId",
          "type": "bytes4"
        }
      ],
      "name": "supportsInterface",
      "outputs": [
        {
          "internalType": "bool",
          "name": "",
          "type": "bool"
        }
      ],
      "stateMutability": "view",
      "type": "function"
    },
    {
      "inputs": [],
      "name": "symbol",
      "outputs": [
        {
          "internalType": "string",
          "name": "",
          "type": "string"
        }
      ],
      "stateMutability": "view",
      "type": "function"
    },
    {
      "inputs": [],
      "name": "totalReleasedCounterPartyAssetAmount",
      "outputs": [
        {
          "internalType": "uint256",
          "name": "",
          "type": "uint256"
        }
      ],
      "stateMutability": "view",
      "type": "function"
    },
    {
      "inputs": [],
      "name": "totalReleasedDepositAssetAmount",
      "outputs": [
        {
          "internalType": "uint256",
          "name": "",
          "type": "uint256"
        }
      ],
      "stateMutability": "view",
      "type": "function"
    },
    {
      "inputs": [],
      "name": "totalSupply",
      "outputs": [
        {
          "internalType": "uint256",
          "name": "",
          "type": "uint256"
        }
      ],
      "stateMutability": "view",
      "type": "function"
    },
    {
      "inputs": [
        {
          "internalType": "address",
          "name": "recipient",
          "type": "address"
        },
        {
          "internalType": "uint256",
          "name": "amount",
          "type": "uint256"
        }
      ],
      "name": "transfer",
      "outputs": [
        {
          "internalType": "bool",
          "name": "",
          "type": "bool"
        }
      ],
      "stateMutability": "nonpayable",
      "type": "function"
    },
    {
      "inputs": [
        {
          "internalType": "address",
          "name": "sender",
          "type": "address"
        },
        {
          "internalType": "address",
          "name": "recipient",
          "type": "address"
        },
        {
          "internalType": "uint256",
          "name": "amount",
          "type": "uint256"
        }
      ],
      "name": "transferFrom",
      "outputs": [
        {
          "internalType": "bool",
          "name": "",
          "type": "bool"
        }
      ],
      "stateMutability": "nonpayable",
      "type": "function"
    },
    {
      "inputs": [],
      "name": "underSettlement",
      "outputs": [
        {
          "internalType": "bool",
          "name": "",
          "type": "bool"
        }
      ],
      "stateMutability": "view",
      "type": "function"
    },
    {
      "inputs": [
        {
          "internalType": "address",
          "name": "",
          "type": "address"
        }
      ],
      "name": "userStates",
      "outputs": [
        {
          "internalType": "uint256",
          "name": "pendingAsset",
          "type": "uint256"
        },
        {
          "internalType": "uint256",
          "name": "lockedAsset",
          "type": "uint256"
        },
        {
          "internalType": "uint8",
          "name": "nextCursor",
          "type": "uint8"
        },
        {
          "internalType": "uint232",
          "name": "totalRound",
          "type": "uint232"
        },
        {
          "internalType": "bool",
          "name": "hasState",
          "type": "bool"
        },
        {
          "internalType": "uint256",
          "name": "assetToTerminate",
          "type": "uint256"
        },
        {
          "internalType": "uint256",
          "name": "assetToTerminateForNextRound",
          "type": "uint256"
        }
      ],
      "stateMutability": "view",
      "type": "function"
    },
    {
      "inputs": [
        {
          "internalType": "uint256",
          "name": "",
          "type": "uint256"
        }
      ],
      "name": "usersInvolved",
      "outputs": [
        {
          "internalType": "address",
          "name": "",
          "type": "address"
        }
      ],
      "stateMutability": "view",
      "type": "function"
    },
    {
      "inputs": [],
      "name": "vaultAddress",
      "outputs": [
        {
          "internalType": "address",
          "name": "",
          "type": "address"
        }
      ],
      "stateMutability": "view",
      "type": "function"
    },
    {
      "inputs": [
        {
          "internalType": "uint256",
          "name": "_amount",
          "type": "uint256"
        },
        {
          "internalType": "address",
          "name": "_asset",
          "type": "address"
        }
      ],
      "name": "withdraw",
      "outputs": [],
      "stateMutability": "nonpayable",
      "type": "function"
    }
  ],
  "transactionHash": "0xe4a1595175de2783d9cba6b2585bfc596cb480ee9adef3d57248edecc681ef10",
  "args": [],
  "solcInputHash": "1fe38b6e05871b303d85d110cd23c58b",
  "bytecode": "0x608060405234801561001057600080fd5b506153fb806100206000396000f3fe60806040526004361061038b5760003560e01c806365235474116101dc5780639f01f7ba11610102578063bb9662c8116100a0578063db006a751161006f578063db006a7514610d5b578063dd62ed3e14610d7b578063eef9f5a514610dc1578063f6326fb314610de757600080fd5b8063bb9662c814610cd5578063c515d7e714610cf5578063ccc41f2414610d15578063d547741f14610d3b57600080fd5b8063a457c2d7116100dc578063a457c2d714610c48578063a5d3e5b114610c68578063a9059cbb14610c95578063b6b55f2514610cb557600080fd5b80639f01f7ba14610bf3578063a217fddf14610c13578063a2589ef914610c2857600080fd5b80638a19c8bc1161017a57806392b4d26a1161014957806392b4d26a14610b8957806395d89b4114610b9e57806399f2c2da14610bb35780639e4cbd7d14610bd357600080fd5b80638a19c8bc14610b145780638cd8935914610b2a5780639020253914610b4a57806391d1485414610b6957600080fd5b806370a08231116101b657806370a0823114610a865780637445e85c14610abc57806376e7a47814610ade5780637ec2d95914610af457600080fd5b8063652354741461099a5780636896fabf14610a4f57806370349bfb14610a7157600080fd5b80631de245af116102c157806332cc6ae61161025f57806347276abf1161022e57806347276abf14610910578063511db114146109445780635973ff3a14610965578063640575721461098557600080fd5b806332cc6ae61461089b57806336568abe146108bb57806339509351146108db578063430bf08a146108fb57600080fd5b8063248a9ca31161029b578063248a9ca3146108095780632c453bdf146108395780632f2ff15d14610859578063313ce5671461087957600080fd5b80631de245af146107a957806321c9445c146107c957806323b872dd146107e957600080fd5b80630e777b4b1161032e57806311c8556d1161030857806311c8556d146106a2578063135ad969146106da57806318160ddd14610707578063186a4a171461071c57600080fd5b80630e777b4b146105be5780630ecc535f146105de5780630fd491731461068c57600080fd5b80630720da521161036a5780630720da52146104095780630748248f14610560578063095ea7b31461057a5780630b2737e41461059a57600080fd5b8062f714ce1461039057806301ffc9a7146103b257806306fdde03146103e7575b600080fd5b34801561039c57600080fd5b506103b06103ab366004614acc565b610def565b005b3480156103be57600080fd5b506103d26103cd366004614af0565b6110b7565b60405190151581526020015b60405180910390f35b3480156103f357600080fd5b506103fc6110ee565b6040516103de9190614d97565b34801561041557600080fd5b506104f4610424366004614ab4565b6040805161010081018252600080825260208201819052918101829052606081018290526080810182905260a0810182905260c0810182905260e081019190915250600090815260cd6020908152604080832054835260ce825291829020825161010081018452815481526001820154928101929092526002810154928201929092526003820154606082015260049091015461ffff8116608083015260ff620100008204811660a0840152630100000082048116151560c084015264010000000090910416151560e082015290565b6040516103de91906000610100820190508251825260208301516020830152604083015160408301526060830151606083015261ffff608084015116608083015260ff60a08401511660a083015260c0830151151560c083015260e0830151151560e083015292915050565b34801561056c57600080fd5b5060d1546103d29060ff1681565b34801561058657600080fd5b506103d261059536600461498e565b611180565b3480156105a657600080fd5b506105b060d45481565b6040519081526020016103de565b3480156105ca57600080fd5b506103b06105d9366004614ab4565b611196565b3480156105ea57600080fd5b506106456105f93660046148de565b60d060205260009081526040902080546001820154600383015460048401546005909401549293919260ff808316936001600160e81b0361010085041693600160f01b90049091169187565b60408051978852602088019690965260ff909416948601949094526001600160e81b0390911660608501521515608084015260a083019190915260c082015260e0016103de565b34801561069857600080fd5b506105b060d55481565b3480156106ae57600080fd5b5060d3546106c2906001600160a01b031681565b6040516001600160a01b0390911681526020016103de565b3480156106e657600080fd5b506106fa6106f5366004614a7c565b61135a565b6040516103de9190614f86565b34801561071357600080fd5b506035546105b0565b34801561072857600080fd5b5061073c610737366004614a7c565b611623565b6040516103de9190600061012082019050825182526020830151602083015260408301516040830152606083015160608301526080830151608083015260a083015160a083015260c083015160c083015260e083015160e083015261010080840151818401525092915050565b3480156107b557600080fd5b506106c26107c4366004614ab4565b61181d565b3480156107d557600080fd5b506103b06107e4366004614acc565b611847565b3480156107f557600080fd5b506103d261080436600461494e565b611a64565b34801561081557600080fd5b506105b0610824366004614ab4565b60009081526097602052604090206001015490565b34801561084557600080fd5b5060d2546106c2906001600160a01b031681565b34801561086557600080fd5b506103b0610874366004614acc565b611b10565b34801561088557600080fd5b5060c95460405160ff90911681526020016103de565b3480156108a757600080fd5b506105b06108b63660046148de565b611b3b565b3480156108c757600080fd5b506103b06108d6366004614acc565b611bd1565b3480156108e757600080fd5b506103d26108f636600461498e565b611c4b565b34801561090757600080fd5b506106c2611c87565b34801561091c57600080fd5b506105b07ffd0eee74c7609b4290ae42cfa22435eabf285017ea12017ed27c2e820eae6a7781565b34801561095057600080fd5b5060ca546103d290600160a01b900460ff1681565b34801561097157600080fd5b506103b06109803660046149b9565b611d09565b34801561099157600080fd5b506103b0611da9565b3480156109a657600080fd5b50610a096109b5366004614ab4565b60ce60205260009081526040902080546001820154600283015460038401546004909401549293919290919061ffff81169060ff620100008204811691630100000081048216916401000000009091041688565b60408051988952602089019790975295870194909452606086019290925261ffff16608085015260ff1660a0840152151560c0830152151560e0820152610100016103de565b348015610a5b57600080fd5b50610a64611eb0565b6040516103de9190614f4d565b348015610a7d57600080fd5b506103b0611f49565b348015610a9257600080fd5b506105b0610aa13660046148de565b6001600160a01b031660009081526033602052604090205490565b348015610ac857600080fd5b506105b06000805160206153a683398151915281565b348015610aea57600080fd5b506105b061271081565b348015610b0057600080fd5b506103b0610b0f366004614b18565b612047565b348015610b2057600080fd5b506105b060cc5481565b348015610b3657600080fd5b506105b0610b45366004614ab4565b6120cd565b348015610b5657600080fd5b5060d1546103d290610100900460ff1681565b348015610b7557600080fd5b506103d2610b84366004614acc565b612312565b348015610b9557600080fd5b50610a6461233d565b348015610baa57600080fd5b506103fc612445565b348015610bbf57600080fd5b506103b0610bce366004614be7565b612454565b348015610bdf57600080fd5b506103b0610bee366004614ab4565b6126cf565b348015610bff57600080fd5b506103b0610c0e366004614ab4565b6128b1565b348015610c1f57600080fd5b506105b0600081565b348015610c3457600080fd5b506103b0610c43366004614ab4565b612a25565b348015610c5457600080fd5b506103d2610c6336600461498e565b612ad1565b348015610c7457600080fd5b506105b0610c83366004614ab4565b60cd6020526000908152604090205481565b348015610ca157600080fd5b506103d2610cb036600461498e565b612b6a565b348015610cc157600080fd5b506103b0610cd0366004614ab4565b612b77565b348015610ce157600080fd5b5060ca546106c2906001600160a01b031681565b348015610d0157600080fd5b506103b0610d103660046148de565b612c4a565b348015610d2157600080fd5b5060c9546106c2906201000090046001600160a01b031681565b348015610d4757600080fd5b506103b0610d56366004614acc565b612ceb565b348015610d6757600080fd5b506103b0610d76366004614ab4565b612d11565b348015610d8757600080fd5b506105b0610d96366004614916565b6001600160a01b03918216600090815260346020908152604080832093909416825291909152205490565b348015610dcd57600080fd5b5060d1546106c2906201000090046001600160a01b031681565b6103b0612e59565b60008211610e185760405162461bcd60e51b8152600401610e0f90614edd565b60405180910390fd5b60d15460ff1615610e3b5760405162461bcd60e51b8152600401610e0f90614e18565b60c9546001600160a01b0382811662010000909204161480610e6a575060ca546001600160a01b038281169116145b610eae5760405162461bcd60e51b8152602060048201526015602482015274496e76616c6964206173736574206164647265737360581b6044820152606401610e0f565b60c9546001600160a01b0382811662010000909204161415610fae5733600090815260d66020526040902054828111610f7d5733600090815260d06020526040812090610efb8584612f5e565b90508082600001541015610f215760405162461bcd60e51b8152600401610e0f90614ded565b33600090815260d6602052604081205560d454610f3e9084612f5e565b60d4558154610f4d9082612f5e565b825560cc54600090815260ce602052604090206001810154610f6f9083612f5e565b60019091015550610fa89050565b610f878184612f5e565b33600090815260d6602052604090205560d454610fa49084612f5e565b60d4555b5061100a565b33600090815260d7602052604090205482811015610fde5760405162461bcd60e51b8152600401610e0f90614efe565b610fe88184612f5e565b33600090815260d7602052604090205560d5546110059084612f5e565b60d555505b60d3546040516309777fbf60e11b81526001600160a01b03909116906312eeff7e9061104190339086908690600090600401614cf7565b600060405180830381600087803b15801561105b57600080fd5b505af115801561106f573d6000803e3d6000fd5b50506040518481526001600160a01b03841692503391507f9b1bfa7fa9ee420a16e124f794c35ac9f90472acc99140eb2f6447c714cad8eb9060200160405180910390a35050565b60006001600160e01b03198216637965db0b60e01b14806110e857506301ffc9a760e01b6001600160e01b03198316145b92915050565b6060603680546110fd90615306565b80601f016020809104026020016040519081016040528092919081815260200182805461112990615306565b80156111765780601f1061114b57610100808354040283529160200191611176565b820191906000526020600020905b81548152906001019060200180831161115957829003601f168201915b5050505050905090565b600061118d338484612f6a565b50600192915050565b600081116111db5760405162461bcd60e51b8152602060048201526012602482015271215f6173736574546f5465726d696e61746560701b6044820152606401610e0f565b33600090815260d06020526040902060d15460ff16156112a457600160cc54116112175760405162461bcd60e51b8152600401610e0f90614dca565b60058101546000906112299084613086565b6001830154909150808211156112515760405162461bcd60e51b8152600401610e0f90614ded565b818360050181905550600060ce6000600160cc5461126f9190615289565b8152602001908152602001600020905061129685826002015461308690919063ffffffff16565b600290910155506113569050565b600260cc54116112c65760405162461bcd60e51b8152600401610e0f90614f28565b60048101546000906112d89084613086565b905060006112e68382613092565b9050808211156113085760405162461bcd60e51b8152600401610e0f90614ded565b818360040181905550600060ce6000600260cc546113269190615289565b8152602001908152602001600020905061134d85826002015461308690919063ffffffff16565b60029091015550505b5050565b6113c960405180610180016040528060006001600160a01b03168152602001600081526020016000815260200160001515815260200160008152602001600081526020016000815260200160008152602001600081526020016000815260200160008152602001600081525090565b6000805160206153a68339815191526113e28133613139565b60d15460ff166114045760405162461bcd60e51b8152600401610e0f90614eb2565b600160cc541161144a5760405162461bcd60e51b81526020600482015260116024820152704e6f7468696e6720746f20736574746c6560781b6044820152606401610e0f565b600060ce6000600160cc5461145f9190615289565b815260200190815260200160002090506000604051806101800160405280306001600160a01b03168152602001600160cc5461149b9190615289565b815260200183600101548152602001861515815260200160008152602001600081526020016000815260200160008152602001600081526020016000815260200160008152602001600081525090506001806114f791906150f6565b60ff1660cc54111561161957600060ce600060018060ff1660cc5461151c9190615289565b6115269190615289565b815260208082019290925260409081016000908120825161010081018452815481526001820154948101949094526002810154928401929092526003820154606084015260049091015461ffff8116608084015260ff620100008204811660a0850152630100000082048116151560c085015264010000000090910416151560e08301529091506115b7878361319d565b905086156115f05760c081015161010084015260e081015161012084015260408101516101408401526060810151610160840152611616565b6080808201519084015260a08082015190840152805160c0840152602081015160e08401525b50505b9250505b50919050565b61162b6146eb565b6000805160206153a68339815191526116448133613139565b60d15460ff166116665760405162461bcd60e51b8152600401610e0f90614eb2565b6116716001806150f6565b60ff1660cc54116116b15760405162461bcd60e51b815260206004820152600a6024820152691b9bc81b585d1d5c995960b21b6044820152606401610e0f565b600060018060ff1660cc546116c69190615289565b6116d09190615289565b600081815260ce602090815260408083208151610100810183528154815260018201549381019390935260028101549183019190915260038101546060830152600481015461ffff8116608084015260ff620100008204811660a0850152630100000082048116151560c085015264010000000090910416151560e083015292935061175d90879061319d565b6004830180548815801563010000000263ff00000019909216919091179091559091506117b3576117ab81606001516117a5836040015160d55461308690919063ffffffff16565b90613086565b60d5556117d0565b6020810151815160d4546117cc92916117a59190613086565b60d4555b6001820154156117e9576117e986836001015483613383565b60405183907f5fd55b58a9ef8c29a9db39dd9a05dec64993eb227ad0177941238778e9ea896290600090a295945050505050565b60cf818154811061182d57600080fd5b6000918252602090912001546001600160a01b0316905081565b600082116118675760405162461bcd60e51b8152600401610e0f90614edd565b60d15460ff161561188a5760405162461bcd60e51b8152600401610e0f90614e18565b600160cc54116118ac5760405162461bcd60e51b8152600401610e0f90614e8d565b60c9546001600160a01b03828116620100009092041614806118db575060ca546001600160a01b038281169116145b61191f5760405162461bcd60e51b8152602060048201526015602482015274496e76616c6964206173736574206164647265737360581b6044820152606401610e0f565b60c9546001600160a01b038281166201000090920416141561199b5733600090815260d660205260409020548281101561196b5760405162461bcd60e51b8152600401610e0f90614efe565b6119758184612f5e565b33600090815260d6602052604090205560d4546119929084612f5e565b60d455506119f7565b33600090815260d76020526040902054828110156119cb5760405162461bcd60e51b8152600401610e0f90614efe565b6119d58184612f5e565b33600090815260d7602052604090205560d5546119f29084612f5e565b60d555505b60d3546040516309777fbf60e11b81526001600160a01b03909116906312eeff7e90611a2e90339086908690600090600401614cf7565b600060405180830381600087803b158015611a4857600080fd5b505af1158015611a5c573d6000803e3d6000fd5b505050505050565b6000611a718484846138e0565b6001600160a01b038416600090815260346020908152604080832033845290915290205482811015611af65760405162461bcd60e51b815260206004820152602860248201527f45524332303a207472616e7366657220616d6f756e74206578636565647320616044820152676c6c6f77616e636560c01b6064820152608401610e0f565b611b038533858403612f6a565b60019150505b9392505050565b600082815260976020526040902060010154611b2c8133613139565b611b368383613aae565b505050565b60c9546000906001600160a01b0383811662010000909204161415611b7b5760d45460cc54600090815260ce60205260409020600101546110e891613086565b60ca546001600160a01b0383811691161415611b9957505060d55490565b60405162461bcd60e51b815260206004820152600d60248201526c1a5b9d985b1a5908185cdcd95d609a1b6044820152606401610e0f565b6001600160a01b0381163314611c415760405162461bcd60e51b815260206004820152602f60248201527f416363657373436f6e74726f6c3a2063616e206f6e6c792072656e6f756e636560448201526e103937b632b9903337b91039b2b63360891b6064820152608401610e0f565b6113568282613b34565b3360008181526034602090815260408083206001600160a01b0387168452909152812054909161118d918590611c829086906150de565b612f6a565b60d354604080516338cc483160e01b815290516000926001600160a01b0316916338cc4831916004808301926020929190829003018186803b158015611ccc57600080fd5b505afa158015611ce0573d6000803e3d6000fd5b505050506040513d601f19601f82011682018060405250810190611d0491906148fa565b905090565b60d2546001600160a01b03163314611d7a5760405162461bcd60e51b815260206004820152602e60248201527f4f6e6c7920636f756e746572207061727479206f7074696f6e2063616e20636160448201526d1b1b081d1a1a5cc81b595d1a1bd960921b6064820152608401610e0f565b60d15460009060ff16611d8f5760cc54611d9e565b600160cc54611d9e9190615289565b905060005b50505050565b33600090815260d06020526040902060d15460ff1615611e3857600160cc5411611de55760405162461bcd60e51b8152600401610e0f90614dca565b600180820154600583015560cc5460009160ce918391611e0491615289565b81526020019081526020016000209050611e2f8260010154826002015461308690919063ffffffff16565b60029091015550565b600260cc5411611e5a5760405162461bcd60e51b8152600401610e0f90614f28565b611e65816000613092565b8160040181905550600060ce6000600260cc54611e829190615289565b81526020019081526020016000209050611e2f8260040154826002015461308690919063ffffffff16565b50565b611ee26040518060a0016040528060008152602001600081526020016000815260200160008152602001600081525090565b33600090815260d060209081526040808320815160a081018352815481526001820154938101939093529291908101611f1b8484613092565b815233600081815260d660209081526040808320548286015292825260d79052819020549101529392505050565b33600090815260d06020526040902060d15460ff1615611fd557600160cc5411611f855760405162461bcd60e51b8152600401610e0f90614dca565b600060ce6000600160cc54611f9a9190615289565b81526020019081526020016000209050611fc582600501548260020154612f5e90919063ffffffff16565b6002909101556000600582015550565b600260cc5411611ff75760405162461bcd60e51b8152600401610e0f90614f28565b600060ce6000600260cc5461200c9190615289565b8152602001908152602001600020905061203782600401548260020154612f5e90919063ffffffff16565b6002909101556000600482015550565b600054610100900460ff1680612060575060005460ff16155b61207c5760405162461bcd60e51b8152600401610e0f90614e3f565b600054610100900460ff1615801561209e576000805461ffff19166101011790555b6120b08989888a888a8960018a613cfa565b80156120c2576000805461ff00191690555b505050505050505050565b60006000805160206153a68339815191526120e88133613139565b60d15460ff161561210b5760405162461bcd60e51b8152600401610e0f90614e18565b60d1805460ff1916600190811790915560cb84905560cc5461212c916150de565b60cc81815560408051610100808201835284825260006020808401828152848601838152606086018481526080870185815260a0880186815260c0890187815260d15460ff9990048916151560e08b019081529c885260ce909652989095208751815592516001808501919091559151600284015551600383015592516004909101805496519251985161ffff90921662ffffff19909716969096176201000092909416919091029290921764ffff000000191663010000009615159690960264ff0000000019169590951764010000000091151591909102179091559054909110156122995760cf5460005b8181101561229257600060cf828154811061224457634e487b7160e01b600052603260045260246000fd5b60009182526020808320909101546001600160a01b031680835260d090915260409091208054919250901561227b57805460018201555b60009055508061228a8161533b565b915050612219565b50506122a4565b60d1805460ff191690555b60cc546040517f10f419fb017d3101d854d4433e414ff27f232bb2f4aae83d987ad0219efa6c9b90600090a2600160cc5411156123085760ce6000600160cc546122ee9190615289565b81526020019081526020016000206001015492505061161d565b5060009392505050565b60009182526097602090815260408084206001600160a01b0393909316845291905290205460ff1690565b61236f6040518060a0016040528060008152602001600081526020016000815260200160008152602001600081525090565b60cc54600090815260ce60208190526040822060d15490929190829060ff1661239a5760cc546123a9565b600160cc546123a99190615289565b81526020810191909152604001600090812060d15490925060ce90829060ff166123e157600160cc546123dc9190615289565b6123f0565b600260cc546123f09190615289565b8152602001908152602001600020905060006040518060a0016040528085600101548152602001846001015481526020018360010154815260200160d454815260200160d55481525090508094505050505090565b6060603780546110fd90615306565b6000805160206153a683398151915261246d8133613139565b600160cc54116124ad5760405162461bcd60e51b815260206004820152600b60248201526a1b9bdd081cdd185c9d195960aa1b6044820152606401610e0f565b600260cc54111580156124c3575060d15460ff16155b156124d65760d1805460ff191660011790555b60d15460ff166124f85760405162461bcd60e51b8152600401610e0f90614eb2565b6000600160cc546125099190615289565b600081815260ce602090815260409182902090860151600382015560608601516004820180549388015160ff16620100000262ffffff1990941661ffff9092169190911792909217909155600181015491925090612568903090613ed4565b60cf5460005b8181101561268557600060cf828154811061259957634e487b7160e01b600052603260045260246000fd5b60009182526020808320909101546001600160a01b031680835260d0909152604090912060018101549192509015612634576125da308383600101546138e0565b60048501548554604080513081526001600160a01b038616602082015261ffff9093169083015260608201527fe32540b403abb4ebf4396862a5996e4798b57d9312e048b14b0e0e5e3fb9eaeb9060800160405180910390a15b6005810154156126525760058101805460048301556000905561265a565b600060048201555b600181015461266a908290613fb3565b6000600190910155508061267d8161533b565b91505061256e565b50600083815260cd60205260408082204390555184917ffa513f17b83baf0c2da337ab931a96429f75c55f0ee2115b7acd007a1a35dd5191a2505060d1805460ff19169055505050565b60d15460ff16156126f25760405162461bcd60e51b8152600401610e0f90614e18565b600160cc54116127145760405162461bcd60e51b8152600401610e0f90614e8d565b600081116127345760405162461bcd60e51b8152600401610e0f90614edd565b33600090815260d76020526040902054818110156127645760405162461bcd60e51b8152600401610e0f90614efe565b61276e8183612f5e565b33600090815260d7602052604090205560d45461278b9083612f5e565b60d45560408051600180825281830190925260009160208083019080368337505060408051600180825281830190925292935060009291506020808301908036833701905050905033826000815181106127f557634e487b7160e01b600052603260045260246000fd5b60200260200101906001600160a01b031690816001600160a01b031681525050838160008151811061283757634e487b7160e01b600052603260045260246000fd5b602090810291909101015260d154604051632cb9ff9d60e11b8152620100009091046001600160a01b031690635973ff3a906128799085908590600401614d21565b600060405180830381600087803b15801561289357600080fd5b505af11580156128a7573d6000803e3d6000fd5b5050505050505050565b600081116128f65760405162461bcd60e51b8152602060048201526012602482015271215f6173736574546f5465726d696e61746560701b6044820152606401610e0f565b33600090815260d06020526040902060d15460ff16156129b357600160cc54116129325760405162461bcd60e51b8152600401610e0f90614dca565b80600501548211156129565760405162461bcd60e51b8152600401610e0f90614efe565b60058101546129659083612f5e565b8160050181905550600060ce6000600160cc546129829190615289565b815260200190815260200160002090506129a9838260020154612f5e90919063ffffffff16565b6002909101555050565b600260cc54116129d55760405162461bcd60e51b8152600401610e0f90614f28565b80600401548211156129f95760405162461bcd60e51b8152600401610e0f90614efe565b6004810154612a089083612f5e565b8160040181905550600060ce6000600260cc546129829190615289565b600160cc5411612a475760405162461bcd60e51b8152600401610e0f90614e8d565b60008111612a675760405162461bcd60e51b8152600401610e0f90614edd565b33600090815260d6602052604090205481811015612a975760405162461bcd60e51b8152600401610e0f90614efe565b612aa18183612f5e565b33600090815260d6602052604090205560d454612abe9083612f5e565b60d481905550611356338360cc54613b9b565b3360009081526034602090815260408083206001600160a01b038616845290915281205482811015612b535760405162461bcd60e51b815260206004820152602560248201527f45524332303a2064656372656173656420616c6c6f77616e63652062656c6f77604482015264207a65726f60d81b6064820152608401610e0f565b612b603385858403612f6a565b5060019392505050565b600061118d3384846138e0565b600060cc5411612bb45760405162461bcd60e51b81526020600482015260086024820152670854dd185c9d195960c21b6044820152606401610e0f565b60ca54600160a01b900460ff1615612bf75760405162461bcd60e51b815260206004820152600660248201526502145524332360d41b6044820152606401610e0f565b60008111612c175760405162461bcd60e51b8152600401610e0f90614edd565b612c24338260cc54613b9b565b611ead33612c30611c87565b60c9546201000090046001600160a01b0316919084614067565b6000612c568133613139565b6001600160a01b038216301415612caf5760405162461bcd60e51b815260206004820181905260248201527f43616e6e6f74207365742073656c6620617320636f756e7465722070617274796044820152606401610e0f565b5060d1805462010000600160b01b031916620100006001600160a01b039390931692830217905560d280546001600160a01b0319169091179055565b600082815260976020526040902060010154612d078133613139565b611b368383613b34565b60008111612d315760405162461bcd60e51b8152600401610e0f90614edd565b33600090815260d0602052604090208054821115612d615760405162461bcd60e51b8152600401610e0f90614ded565b8054612d6d9083612f5e565b815560cc54600090815260ce602052604090206001810154612d8f9084612f5e565b60018083019190915560d35460c9546040516309777fbf60e11b81526001600160a01b03928316936312eeff7e93612dd89333938a936201000090920490921691600401614cf7565b600060405180830381600087803b158015612df257600080fd5b505af1158015612e06573d6000803e3d6000fd5b505060c954604051868152620100009091046001600160a01b031692503391507f9b1bfa7fa9ee420a16e124f794c35ac9f90472acc99140eb2f6447c714cad8eb906020015b60405180910390a3505050565b600060cc5411612e965760405162461bcd60e51b81526020600482015260086024820152670854dd185c9d195960c21b6044820152606401610e0f565b60ca54600160a01b900460ff16612ed85760405162461bcd60e51b8152600401610e0f906020808252600490820152630428aa8960e31b604082015260600190565b60003411612f115760405162461bcd60e51b81526020600482015260066024820152652176616c756560d01b6044820152606401610e0f565b612f1e333460cc54613b9b565b612f26611c87565b6001600160a01b03166108fc349081150290604051600060405180830381858888f19350505050158015611ead573d6000803e3d6000fd5b6000611b098284615289565b6001600160a01b038316612fcc5760405162461bcd60e51b8152602060048201526024808201527f45524332303a20617070726f76652066726f6d20746865207a65726f206164646044820152637265737360e01b6064820152608401610e0f565b6001600160a01b03821661302d5760405162461bcd60e51b815260206004820152602260248201527f45524332303a20617070726f766520746f20746865207a65726f206164647265604482015261737360f01b6064820152608401610e0f565b6001600160a01b0383811660008181526034602090815260408083209487168084529482529182902085905590518481527f8c5be1e5ebec7d5bd14f71427d1e84f3dd0314c0f7b2291e5b200ac8c7c3b9259101612e4c565b6000611b0982846150de565b600382015460009060ff83166101009091046001600160e81b0316116130ba575060006110e8565b600160ff8316106130ca57600080fd5b60038301546000906001906130e390859060ff16615248565b6130ed9190615248565b905060008160000b121561310957613106600182615073565b90505b836002018160ff166001811061312f57634e487b7160e01b600052603260045260246000fd5b0154949350505050565b6131438282612312565b6113565761315b816001600160a01b031660146140c1565b6131668360206140c1565b604051602001613177929190614c82565b60408051601f198184030181529082905262461bcd60e51b8252610e0f91600401614d97565b6131a56146eb565b600060405180610120016040528060008152602001600081526020016000815260200160008152602001600081526020016000815260200160008152602001600081526020018460000151815250905083156132f25760c954600090613259906132139060ff16600a61517e565b613253866060015161325360c960019054906101000a900460ff168960a0015161323d91906150f6565b61324890600a61517e565b60208a0151906142a3565b906142af565b9050600061327e612710613253876080015161ffff16856142a390919063ffffffff16565b6040860151909150156132c05761329e82866040015187602001516142bb565b8360400181815250506132ba81866040015187602001516142bb565b60608401525b60408301516132d0908390612f5e565b60c084015260608301516132e5908290612f5e565b60e084015250611b099050565b60208301516080840151600090613316906127109061325390859061ffff166142a3565b6040860151909150156133535761333682866040015187602001516142bb565b83526040850151602086015161334d9183916142bb565b60208401525b8251613360908390612f5e565b60808401526020830151613375908290612f5e565b60a084015250509392505050565b60cf54836134eb576000600160cc5461339c9190615289565b602084015184519192506000916133b291613086565b905060005b838110156134e257600060cf82815481106133e257634e487b7160e01b600052603260045260246000fd5b60009182526020808320909101546001600160a01b031680835260d090915260408220909250906134138282613092565b9050600081156134305761342b82613253888d6142a3565b613433565b60005b90508061344a5750506000600490910155506134d0565b600061345b828560040154856142bb565b905080156134a0576001600160a01b038516600090815260d660205260409020546134869082613086565b6001600160a01b038616600090815260d660205260409020555b60006134ac8383612f5e565b905080156134bf576134bf86828b613b9b565b600085600401819055505050505050505b806134da8161533b565b9150506133b7565b50505050505050565b60006135088360600151846040015161308690919063ffffffff16565b905060005b828110156136a657600060cf828154811061353857634e487b7160e01b600052603260045260246000fd5b60009182526020808320909101546001600160a01b031680835260d090915260408220909250906135698282613092565b9050600081156135865761358182613253888c6142a3565b613589565b60005b9050806135a0575050600060049091015550613694565b60006135b1828560040154856142bb565b905080156135f6576001600160a01b038516600090815260d760205260409020546135dc9082613086565b6001600160a01b038616600090815260d760205260409020555b60006136028383612f5e565b905080156136835760d9805460018082019092557fcc6782fd46dd71c5f512301ab049782450b4eaf79fdac5443d93d274d39167860182905560d8805491820181556000527f5320ad99a619a90804cd2efe3a5cf0ac1ac5c41ad9ff2c61cf699efdad7710960180546001600160a01b0319166001600160a01b0388161790555b600085600401819055505050505050505b8061369e8161533b565b91505061350d565b5060d954806136b757505050505050565b60008167ffffffffffffffff8111156136e057634e487b7160e01b600052604160045260246000fd5b604051908082528060200260200182016040528015613709578160200160208202803683370190505b50905060008267ffffffffffffffff81111561373557634e487b7160e01b600052604160045260246000fd5b60405190808252806020026020018201604052801561375e578160200160208202803683370190505b50905060005b838110156138545760d8818154811061378d57634e487b7160e01b600052603260045260246000fd5b9060005260206000200160009054906101000a90046001600160a01b03168382815181106137cb57634e487b7160e01b600052603260045260246000fd5b60200260200101906001600160a01b031690816001600160a01b03168152505060d9818154811061380c57634e487b7160e01b600052603260045260246000fd5b906000526020600020015482828151811061383757634e487b7160e01b600052603260045260246000fd5b60209081029190910101528061384c8161533b565b915050613764565b5061386160d86000614737565b61386d60d96000614737565b60d154604051632cb9ff9d60e11b8152620100009091046001600160a01b031690635973ff3a906138a49085908590600401614d21565b600060405180830381600087803b1580156138be57600080fd5b505af11580156138d2573d6000803e3d6000fd5b505050505050505050505050565b6001600160a01b0383166139445760405162461bcd60e51b815260206004820152602560248201527f45524332303a207472616e736665722066726f6d20746865207a65726f206164604482015264647265737360d81b6064820152608401610e0f565b6001600160a01b0382166139a65760405162461bcd60e51b815260206004820152602360248201527f45524332303a207472616e7366657220746f20746865207a65726f206164647260448201526265737360e81b6064820152608401610e0f565b6001600160a01b03831660009081526033602052604090205481811015613a1e5760405162461bcd60e51b815260206004820152602660248201527f45524332303a207472616e7366657220616d6f756e7420657863656564732062604482015265616c616e636560d01b6064820152608401610e0f565b6001600160a01b03808516600090815260336020526040808220858503905591851681529081208054849290613a559084906150de565b92505081905550826001600160a01b0316846001600160a01b03167fddf252ad1be2c89b69c2b068fc378daa952ba7f163c4a11628f55a4df523b3ef84604051613aa191815260200190565b60405180910390a3611da3565b613ab88282612312565b6113565760008281526097602090815260408083206001600160a01b03851684529091529020805460ff19166001179055613af03390565b6001600160a01b0316816001600160a01b0316837f2f8788117e7eff1d82e926ec794901d17c78024a50270940304540a733656f0d60405160405180910390a45050565b613b3e8282612312565b156113565760008281526097602090815260408083206001600160a01b0385168085529252808320805460ff1916905551339285917ff6391f5c32d9c69d2a47ea670b442974b53935d1edc7fd64eb21e047a839171b9190a45050565b600081815260ce6020526040902060cb546001820154613bbb9085613086565b1115613bfc5760405162461bcd60e51b815260206004820152601060248201526f4e6f7420656e6f7567682071756f746160801b6044820152606401610e0f565b6001600160a01b038416600090815260d0602052604090206003810154600160f01b900460ff16613c8a5760038101805460ff60f01b1916600160f01b17905560cf80546001810182556000919091527facb8d954e2cfef495862221e91bd7523613cf8808827cb33edfe4904cc51bf290180546001600160a01b0387166001600160a01b03199091161790555b8054613c969085613086565b81556001820154613ca79085613086565b60018301556040805185815230602082015284916001600160a01b0388169133917ff5dd9317b9e63ac316ce44acc85f670b54b339cfa3e9076e1dd55065b922314b910160405180910390a45050505050565b600054610100900460ff1680613d13575060005460ff16155b613d2f5760405162461bcd60e51b8152600401610e0f90614e3f565b600054610100900460ff16158015613d51576000805461ffff19166101011790555b6001600160a01b038416613d9d5760405162461bcd60e51b8152602060048201526013602482015272456d707479207661756c74206164647265737360681b6044820152606401610e0f565b613da78a8a614303565b613daf614382565b613dba600033614405565b613dd26000805160206153a683398151915283614405565b613dea6000805160206153a683398151915285614405565b60c9805460ca80546001600160a01b038b81166001600160a81b0319909216919091178c82168015600160a01b029190911790925560ff8a81166001600160b01b03199094166201000090930261ffff1916929092179290921761010091891682021790925560d380546001600160a01b03191691871691909117905560d1805461ff00191685151590920291909117905560405130907f8f61f0def895309a310dec5facf78f589cf18d834f0ba4030a5e68e32180ec9790613eae908c90614d97565b60405180910390a28015613ec8576000805461ff00191690555b50505050505050505050565b6001600160a01b038216613f2a5760405162461bcd60e51b815260206004820152601f60248201527f45524332303a206d696e7420746f20746865207a65726f2061646472657373006044820152606401610e0f565b8060356000828254613f3c91906150de565b90915550506001600160a01b03821660009081526033602052604081208054839290613f699084906150de565b90915550506040518181526001600160a01b038316906000907fddf252ad1be2c89b69c2b068fc378daa952ba7f163c4a11628f55a4df523b3ef9060200160405180910390a35050565b600382015460ff1681600284018260018110613fdf57634e487b7160e01b600052603260045260246000fd5b01556000613fee6001806152a0565b60ff168214614007576140028260016150de565b61400a565b60005b60038501805460ff191660ff831617908190559091506140399061010090046001600160e81b031660016150b3565b8460030160016101000a8154816001600160e81b0302191690836001600160e81b0316021790555050505050565b604080516001600160a01b0385811660248301528416604482015260648082018490528251808303909101815260849091019091526020810180516001600160e01b03166323b872dd60e01b179052611da390859061440f565b606060006140d0836002615229565b6140db9060026150de565b67ffffffffffffffff81111561410157634e487b7160e01b600052604160045260246000fd5b6040519080825280601f01601f19166020018201604052801561412b576020820181803683370190505b509050600360fc1b8160008151811061415457634e487b7160e01b600052603260045260246000fd5b60200101906001600160f81b031916908160001a905350600f60fb1b8160018151811061419157634e487b7160e01b600052603260045260246000fd5b60200101906001600160f81b031916908160001a90535060006141b5846002615229565b6141c09060016150de565b90505b6001811115614254576f181899199a1a9b1b9c1cb0b131b232b360811b85600f166010811061420257634e487b7160e01b600052603260045260246000fd5b1a60f81b82828151811061422657634e487b7160e01b600052603260045260246000fd5b60200101906001600160f81b031916908160001a90535060049490941c9361424d816152ef565b90506141c3565b508315611b095760405162461bcd60e51b815260206004820181905260248201527f537472696e67733a20686578206c656e67746820696e73756666696369656e746044820152606401610e0f565b6000611b098284615229565b6000611b09828461511b565b60008215806142c8575081155b806142d1575083155b156142de57506000611b09565b818310156142f9576142f48261325386866142a3565b6142fb565b835b949350505050565b600054610100900460ff168061431c575060005460ff16155b6143385760405162461bcd60e51b8152600401610e0f90614e3f565b600054610100900460ff1615801561435a576000805461ffff19166101011790555b6143626144e1565b61436c838361454b565b8015611b36576000805461ff0019169055505050565b600054610100900460ff168061439b575060005460ff16155b6143b75760405162461bcd60e51b8152600401610e0f90614e3f565b600054610100900460ff161580156143d9576000805461ffff19166101011790555b6143e16144e1565b6143e96144e1565b6143f16144e1565b8015611ead576000805461ff001916905550565b6113568282613aae565b6000614464826040518060400160405280602081526020017f5361666545524332303a206c6f772d6c6576656c2063616c6c206661696c6564815250856001600160a01b03166145e09092919063ffffffff16565b805190915015611b3657808060200190518101906144829190614a98565b611b365760405162461bcd60e51b815260206004820152602a60248201527f5361666545524332303a204552433230206f7065726174696f6e20646964206e6044820152691bdd081cdd58d8d9595960b21b6064820152608401610e0f565b600054610100900460ff16806144fa575060005460ff16155b6145165760405162461bcd60e51b8152600401610e0f90614e3f565b600054610100900460ff161580156143f1576000805461ffff19166101011790558015611ead576000805461ff001916905550565b600054610100900460ff1680614564575060005460ff16155b6145805760405162461bcd60e51b8152600401610e0f90614e3f565b600054610100900460ff161580156145a2576000805461ffff19166101011790555b82516145b5906036906020860190614755565b5081516145c9906037906020850190614755565b508015611b36576000805461ff0019169055505050565b60606142fb848460008585843b6146395760405162461bcd60e51b815260206004820152601d60248201527f416464726573733a2063616c6c20746f206e6f6e2d636f6e74726163740000006044820152606401610e0f565b600080866001600160a01b031685876040516146559190614c66565b60006040518083038185875af1925050503d8060008114614692576040519150601f19603f3d011682016040523d82523d6000602084013e614697565b606091505b50915091506146a78282866146b2565b979650505050505050565b606083156146c1575081611b09565b8251156146d15782518084602001fd5b8160405162461bcd60e51b8152600401610e0f9190614d97565b6040518061012001604052806000815260200160008152602001600081526020016000815260200160008152602001600081526020016000815260200160008152602001600081525090565b5080546000825590600052602060002090810190611ead91906147d9565b82805461476190615306565b90600052602060002090601f01602090048101928261478357600085556147c9565b82601f1061479c57805160ff19168380011785556147c9565b828001600101855582156147c9579182015b828111156147c95782518255916020019190600101906147ae565b506147d59291506147d9565b5090565b5b808211156147d557600081556001016147da565b600082601f8301126147fe578081fd5b8135602061481361480e8361504f565b61501e565b80838252828201915082860187848660051b8901011115614832578586fd5b855b8581101561485057813584529284019290840190600101614834565b5090979650505050505050565b600082601f83011261486d578081fd5b813567ffffffffffffffff8111156148875761488761536c565b61489a601f8201601f191660200161501e565b8181528460208386010111156148ae578283fd5b816020850160208301379081016020019190915292915050565b803560ff811681146148d957600080fd5b919050565b6000602082840312156148ef578081fd5b8135611b0981615382565b60006020828403121561490b578081fd5b8151611b0981615382565b60008060408385031215614928578081fd5b823561493381615382565b9150602083013561494381615382565b809150509250929050565b600080600060608486031215614962578081fd5b833561496d81615382565b9250602084013561497d81615382565b929592945050506040919091013590565b600080604083850312156149a0578182fd5b82356149ab81615382565b946020939093013593505050565b600080604083850312156149cb578182fd5b823567ffffffffffffffff808211156149e2578384fd5b818501915085601f8301126149f5578384fd5b81356020614a0561480e8361504f565b8083825282820191508286018a848660051b8901011115614a24578889fd5b8896505b84871015614a4f578035614a3b81615382565b835260019690960195918301918301614a28565b5096505086013592505080821115614a65578283fd5b50614a72858286016147ee565b9150509250929050565b600060208284031215614a8d578081fd5b8135611b0981615397565b600060208284031215614aa9578081fd5b8151611b0981615397565b600060208284031215614ac5578081fd5b5035919050565b60008060408385031215614ade578182fd5b82359150602083013561494381615382565b600060208284031215614b01578081fd5b81356001600160e01b031981168114611b09578182fd5b600080600080600080600080610100898b031215614b34578586fd5b883567ffffffffffffffff80821115614b4b578788fd5b614b578c838d0161485d565b995060208b0135915080821115614b6c578788fd5b50614b798b828c0161485d565b9750506040890135614b8a81615382565b95506060890135614b9a81615382565b9450614ba860808a016148c8565b9350614bb660a08a016148c8565b925060c0890135614bc681615382565b915060e0890135614bd681615382565b809150509295985092959890939650565b600060808284031215614bf8578081fd5b6040516080810181811067ffffffffffffffff82111715614c1b57614c1b61536c565b6040528235614c2981615382565b815260208381013590820152614c41604084016148c8565b6040820152606083013561ffff81168114614c5a578283fd5b60608201529392505050565b60008251614c788184602087016152c3565b9190910192915050565b7f416363657373436f6e74726f6c3a206163636f756e7420000000000000000000815260008351614cba8160178501602088016152c3565b7001034b99036b4b9b9b4b733903937b6329607d1b6017918401918201528351614ceb8160288401602088016152c3565b01602801949350505050565b6001600160a01b039485168152602081019390935292166040820152901515606082015260800190565b604080825283519082018190526000906020906060840190828701845b82811015614d635781516001600160a01b031684529284019290840190600101614d3e565b50505083810382850152845180825285830191830190845b8181101561485057835183529284019291840191600101614d7b565b6020815260008251806020840152614db68160408501602087016152c3565b601f01601f19169190910160400192915050565b602080825260099082015268139bc81b1bd8dad95960ba1b604082015260600190565b6020808252601190820152704578636565647320617661696c61626c6560781b604082015260600190565b6020808252600d908201526c10995a5b99c81cd95d1d1b1959609a1b604082015260600190565b6020808252602e908201527f496e697469616c697a61626c653a20636f6e747261637420697320616c72656160408201526d191e481a5b9a5d1a585b1a5e995960921b606082015260800190565b6020808252600b908201526a08539bc813585d1d5c995960aa1b604082015260600190565b602080825260119082015270139bdd0818995a5b99c81cd95d1d1b1959607a1b604082015260600190565b60208082526007908201526608585b5bdd5b9d60ca1b604082015260600190565b60208082526010908201526f45786365656420617661696c61626c6560801b604082015260600190565b6020808252600b908201526a4e6f206f6e20676f696e6760a81b604082015260600190565b60a081016110e8828480518252602081015160208301526040810151604083015260608101516060830152608081015160808301525050565b81516001600160a01b03168152610180810160208301516020830152604083015160408301526060830151614fbf606084018215159052565b506080830151608083015260a083015160a083015260c083015160c083015260e083015160e083015261010080840151818401525061012080840151818401525061014080840151818401525061016080840151818401525092915050565b604051601f8201601f1916810167ffffffffffffffff811182821017156150475761504761536c565b604052919050565b600067ffffffffffffffff8211156150695761506961536c565b5060051b60200190565b600081810b83820b82821282607f0382138115161561509457615094615356565b82607f190382128116156150aa576150aa615356565b50019392505050565b60006001600160e81b038281168482168083038211156150d5576150d5615356565b01949350505050565b600082198211156150f1576150f1615356565b500190565b600060ff821660ff84168060ff0382111561511357615113615356565b019392505050565b60008261513657634e487b7160e01b81526012600452602481fd5b500490565b600181815b8085111561517657816000190482111561515c5761515c615356565b8085161561516957918102915b93841c9390800290615140565b509250929050565b6000611b0960ff841683600082615197575060016110e8565b816151a4575060006110e8565b81600181146151ba57600281146151c4576151e0565b60019150506110e8565b60ff8411156151d5576151d5615356565b50506001821b6110e8565b5060208310610133831016604e8410600b8410161715615203575081810a6110e8565b61520d838361513b565b806000190482111561522157615221615356565b029392505050565b600081600019048311821515161561524357615243615356565b500290565b600081810b83820b8281128015607f1983018412161561526a5761526a615356565b81607f01831381161561527f5761527f615356565b5090039392505050565b60008282101561529b5761529b615356565b500390565b600060ff821660ff8416808210156152ba576152ba615356565b90039392505050565b60005b838110156152de5781810151838201526020016152c6565b83811115611da35750506000910152565b6000816152fe576152fe615356565b506000190190565b600181811c9082168061531a57607f821691505b6020821081141561161d57634e487b7160e01b600052602260045260246000fd5b600060001982141561534f5761534f615356565b5060010190565b634e487b7160e01b600052601160045260246000fd5b634e487b7160e01b600052604160045260246000fd5b6001600160a01b0381168114611ead57600080fd5b8015158114611ead57600080fdfe6666bf5bfee463d10a7fc50448047f8a53b7762d7e28fbc5c643182785f3fd3fa264697066735822122079cf81b016087b0256830a4df5bb0f5884d9cc2e7f09b686440dd2ea655a239264736f6c63430008040033",
  "libraries": {
    "StructureData": "0x2B0d36FACD61B71CC05ab8F3D2355ec3631C0dd5"
  },
  "devdoc": {
    "kind": "dev",
    "methods": {
      "allowance(address,address)": {
        "details": "See {IERC20-allowance}."
      },
      "approve(address,uint256)": {
        "details": "See {IERC20-approve}. Requirements: - `spender` cannot be the zero address."
      },
      "balanceOf(address)": {
        "details": "See {IERC20-balanceOf}."
      },
      "decimals()": {
        "details": "Returns the number of decimals used to get its user representation. For example, if `decimals` equals `2`, a balance of `505` tokens should be displayed to a user as `5.05` (`505 / 10 ** 2`). Tokens usually opt for a value of 18, imitating the relationship between Ether and Wei. This is the value {ERC20} uses, unless this function is overridden; NOTE: This information is only used for _display_ purposes: it in no way affects any of the arithmetic of the contract, including {IERC20-balanceOf} and {IERC20-transfer}."
      },
      "decreaseAllowance(address,uint256)": {
        "details": "Atomically decreases the allowance granted to `spender` by the caller. This is an alternative to {approve} that can be used as a mitigation for problems described in {IERC20-approve}. Emits an {Approval} event indicating the updated allowance. Requirements: - `spender` cannot be the zero address. - `spender` must have allowance for the caller of at least `subtractedValue`."
      },
      "getRoleAdmin(bytes32)": {
        "details": "Returns the admin role that controls `role`. See {grantRole} and {revokeRole}. To change a role's admin, use {_setRoleAdmin}."
      },
      "grantRole(bytes32,address)": {
        "details": "Grants `role` to `account`. If `account` had not been already granted `role`, emits a {RoleGranted} event. Requirements: - the caller must have ``role``'s admin role."
      },
      "hasRole(bytes32,address)": {
        "details": "Returns `true` if `account` has been granted `role`."
      },
      "increaseAllowance(address,uint256)": {
        "details": "Atomically increases the allowance granted to `spender` by the caller. This is an alternative to {approve} that can be used as a mitigation for problems described in {IERC20-approve}. Emits an {Approval} event indicating the updated allowance. Requirements: - `spender` cannot be the zero address."
      },
      "name()": {
        "details": "Returns the name of the token."
      },
      "renounceRole(bytes32,address)": {
        "details": "Revokes `role` from the calling account. Roles are often managed via {grantRole} and {revokeRole}: this function's purpose is to provide a mechanism for accounts to lose their privileges if they are compromised (such as when a trusted device is misplaced). If the calling account had been granted `role`, emits a {RoleRevoked} event. Requirements: - the caller must be `account`."
      },
      "revokeRole(bytes32,address)": {
        "details": "Revokes `role` from `account`. If `account` had been granted `role`, emits a {RoleRevoked} event. Requirements: - the caller must have ``role``'s admin role."
      },
      "supportsInterface(bytes4)": {
        "details": "See {IERC165-supportsInterface}."
      },
      "symbol()": {
        "details": "Returns the symbol of the token, usually a shorter version of the name."
      },
      "totalSupply()": {
        "details": "See {IERC20-totalSupply}."
      },
      "transfer(address,uint256)": {
        "details": "See {IERC20-transfer}. Requirements: - `recipient` cannot be the zero address. - the caller must have a balance of at least `amount`."
      },
      "transferFrom(address,address,uint256)": {
        "details": "See {IERC20-transferFrom}. Emits an {Approval} event indicating the updated allowance. This is not required by the EIP. See the note at the beginning of {ERC20}. Requirements: - `sender` and `recipient` cannot be the zero address. - `sender` must have a balance of at least `amount`. - the caller must have allowance for ``sender``'s tokens of at least `amount`."
      }
    },
    "version": 1
  },
  "userdoc": {
    "kind": "user",
    "methods": {},
    "version": 1
  },
  "storageLayout": {
    "storage": [
      {
        "astId": 538,
        "contract": "contracts/Options/PKKTHodlBoosterPutOption.sol:PKKTHodlBoosterPutOption",
        "label": "_initialized",
        "offset": 0,
        "slot": "0",
        "type": "t_bool"
      },
      {
        "astId": 541,
        "contract": "contracts/Options/PKKTHodlBoosterPutOption.sol:PKKTHodlBoosterPutOption",
        "label": "_initializing",
        "offset": 1,
        "slot": "0",
        "type": "t_bool"
      },
      {
        "astId": 1297,
        "contract": "contracts/Options/PKKTHodlBoosterPutOption.sol:PKKTHodlBoosterPutOption",
        "label": "__gap",
        "offset": 0,
        "slot": "1",
        "type": "t_array(t_uint256)50_storage"
      },
      {
        "astId": 597,
        "contract": "contracts/Options/PKKTHodlBoosterPutOption.sol:PKKTHodlBoosterPutOption",
        "label": "_balances",
        "offset": 0,
        "slot": "51",
        "type": "t_mapping(t_address,t_uint256)"
      },
      {
        "astId": 603,
        "contract": "contracts/Options/PKKTHodlBoosterPutOption.sol:PKKTHodlBoosterPutOption",
        "label": "_allowances",
        "offset": 0,
        "slot": "52",
        "type": "t_mapping(t_address,t_mapping(t_address,t_uint256))"
      },
      {
        "astId": 605,
        "contract": "contracts/Options/PKKTHodlBoosterPutOption.sol:PKKTHodlBoosterPutOption",
        "label": "_totalSupply",
        "offset": 0,
        "slot": "53",
        "type": "t_uint256"
      },
      {
        "astId": 607,
        "contract": "contracts/Options/PKKTHodlBoosterPutOption.sol:PKKTHodlBoosterPutOption",
        "label": "_name",
        "offset": 0,
        "slot": "54",
        "type": "t_string_storage"
      },
      {
        "astId": 609,
        "contract": "contracts/Options/PKKTHodlBoosterPutOption.sol:PKKTHodlBoosterPutOption",
        "label": "_symbol",
        "offset": 0,
        "slot": "55",
        "type": "t_string_storage"
      },
      {
        "astId": 1150,
        "contract": "contracts/Options/PKKTHodlBoosterPutOption.sol:PKKTHodlBoosterPutOption",
        "label": "__gap",
        "offset": 0,
        "slot": "56",
        "type": "t_array(t_uint256)45_storage"
      },
      {
        "astId": 1546,
        "contract": "contracts/Options/PKKTHodlBoosterPutOption.sol:PKKTHodlBoosterPutOption",
        "label": "__gap",
        "offset": 0,
        "slot": "101",
        "type": "t_array(t_uint256)50_storage"
      },
      {
        "astId": 48,
        "contract": "contracts/Options/PKKTHodlBoosterPutOption.sol:PKKTHodlBoosterPutOption",
        "label": "_roles",
        "offset": 0,
        "slot": "151",
        "type": "t_mapping(t_bytes32,t_struct(RoleData)43_storage)"
      },
      {
        "astId": 333,
        "contract": "contracts/Options/PKKTHodlBoosterPutOption.sol:PKKTHodlBoosterPutOption",
        "label": "__gap",
        "offset": 0,
        "slot": "152",
        "type": "t_array(t_uint256)49_storage"
      },
      {
        "astId": 5304,
        "contract": "contracts/Options/PKKTHodlBoosterPutOption.sol:PKKTHodlBoosterPutOption",
        "label": "depositAssetAmountDecimals",
        "offset": 0,
        "slot": "201",
        "type": "t_uint8"
      },
      {
        "astId": 5306,
        "contract": "contracts/Options/PKKTHodlBoosterPutOption.sol:PKKTHodlBoosterPutOption",
        "label": "counterPartyAssetAmountDecimals",
        "offset": 1,
        "slot": "201",
        "type": "t_uint8"
      },
      {
        "astId": 5308,
        "contract": "contracts/Options/PKKTHodlBoosterPutOption.sol:PKKTHodlBoosterPutOption",
        "label": "depositAsset",
        "offset": 2,
        "slot": "201",
        "type": "t_address"
      },
      {
        "astId": 5310,
        "contract": "contracts/Options/PKKTHodlBoosterPutOption.sol:PKKTHodlBoosterPutOption",
        "label": "counterPartyAsset",
        "offset": 0,
        "slot": "202",
        "type": "t_address"
      },
      {
        "astId": 5312,
        "contract": "contracts/Options/PKKTHodlBoosterPutOption.sol:PKKTHodlBoosterPutOption",
        "label": "isEth",
        "offset": 20,
        "slot": "202",
        "type": "t_bool"
      },
      {
        "astId": 5314,
        "contract": "contracts/Options/PKKTHodlBoosterPutOption.sol:PKKTHodlBoosterPutOption",
        "label": "quota",
        "offset": 0,
        "slot": "203",
        "type": "t_uint256"
      },
      {
        "astId": 5316,
        "contract": "contracts/Options/PKKTHodlBoosterPutOption.sol:PKKTHodlBoosterPutOption",
        "label": "currentRound",
        "offset": 0,
        "slot": "204",
        "type": "t_uint256"
      },
      {
        "astId": 5320,
        "contract": "contracts/Options/PKKTHodlBoosterPutOption.sol:PKKTHodlBoosterPutOption",
        "label": "optionHeights",
        "offset": 0,
        "slot": "205",
        "type": "t_mapping(t_uint256,t_uint256)"
      },
      {
        "astId": 5325,
        "contract": "contracts/Options/PKKTHodlBoosterPutOption.sol:PKKTHodlBoosterPutOption",
        "label": "optionStates",
        "offset": 0,
        "slot": "206",
        "type": "t_mapping(t_uint256,t_struct(OptionState)13162_storage)"
      },
      {
        "astId": 5328,
        "contract": "contracts/Options/PKKTHodlBoosterPutOption.sol:PKKTHodlBoosterPutOption",
        "label": "usersInvolved",
        "offset": 0,
        "slot": "207",
        "type": "t_array(t_address)dyn_storage"
      },
      {
        "astId": 5333,
        "contract": "contracts/Options/PKKTHodlBoosterPutOption.sol:PKKTHodlBoosterPutOption",
        "label": "userStates",
        "offset": 0,
        "slot": "208",
        "type": "t_mapping(t_address,t_struct(UserState)13203_storage)"
      },
      {
        "astId": 5335,
        "contract": "contracts/Options/PKKTHodlBoosterPutOption.sol:PKKTHodlBoosterPutOption",
        "label": "underSettlement",
        "offset": 0,
        "slot": "209",
        "type": "t_bool"
      },
      {
        "astId": 5337,
        "contract": "contracts/Options/PKKTHodlBoosterPutOption.sol:PKKTHodlBoosterPutOption",
        "label": "callOrPut",
        "offset": 1,
        "slot": "209",
        "type": "t_bool"
      },
      {
        "astId": 5340,
        "contract": "contracts/Options/PKKTHodlBoosterPutOption.sol:PKKTHodlBoosterPutOption",
        "label": "counterPartyOption",
        "offset": 2,
        "slot": "209",
        "type": "t_contract(IPKKTStructureOption)13025"
      },
      {
        "astId": 5342,
        "contract": "contracts/Options/PKKTHodlBoosterPutOption.sol:PKKTHodlBoosterPutOption",
        "label": "counterParty",
        "offset": 0,
        "slot": "210",
        "type": "t_address"
      },
      {
        "astId": 5345,
        "contract": "contracts/Options/PKKTHodlBoosterPutOption.sol:PKKTHodlBoosterPutOption",
        "label": "optionVault",
        "offset": 0,
        "slot": "211",
        "type": "t_contract(IOptionVault)12921"
      },
      {
        "astId": 5347,
        "contract": "contracts/Options/PKKTHodlBoosterPutOption.sol:PKKTHodlBoosterPutOption",
        "label": "totalReleasedDepositAssetAmount",
        "offset": 0,
        "slot": "212",
        "type": "t_uint256"
      },
      {
        "astId": 5349,
        "contract": "contracts/Options/PKKTHodlBoosterPutOption.sol:PKKTHodlBoosterPutOption",
        "label": "totalReleasedCounterPartyAssetAmount",
        "offset": 0,
        "slot": "213",
        "type": "t_uint256"
      },
      {
        "astId": 5353,
        "contract": "contracts/Options/PKKTHodlBoosterPutOption.sol:PKKTHodlBoosterPutOption",
        "label": "releasedDepositAssetAmount",
        "offset": 0,
        "slot": "214",
        "type": "t_mapping(t_address,t_uint256)"
      },
      {
        "astId": 5357,
        "contract": "contracts/Options/PKKTHodlBoosterPutOption.sol:PKKTHodlBoosterPutOption",
        "label": "releasedCounterPartyAssetAmount",
        "offset": 0,
        "slot": "215",
        "type": "t_mapping(t_address,t_uint256)"
      },
      {
        "astId": 7676,
        "contract": "contracts/Options/PKKTHodlBoosterPutOption.sol:PKKTHodlBoosterPutOption",
        "label": "autoRolledUsers",
        "offset": 0,
        "slot": "216",
        "type": "t_array(t_address)dyn_storage"
      },
      {
        "astId": 7679,
        "contract": "contracts/Options/PKKTHodlBoosterPutOption.sol:PKKTHodlBoosterPutOption",
        "label": "autoRolledAmounts",
        "offset": 0,
        "slot": "217",
        "type": "t_array(t_uint256)dyn_storage"
      }
    ],
    "types": {
      "t_address": {
        "encoding": "inplace",
        "label": "address",
        "numberOfBytes": "20"
      },
      "t_array(t_address)dyn_storage": {
        "base": "t_address",
        "encoding": "dynamic_array",
        "label": "address[]",
        "numberOfBytes": "32"
      },
      "t_array(t_uint256)1_storage": {
        "base": "t_uint256",
        "encoding": "inplace",
        "label": "uint256[1]",
        "numberOfBytes": "32"
      },
      "t_array(t_uint256)45_storage": {
        "base": "t_uint256",
        "encoding": "inplace",
        "label": "uint256[45]",
        "numberOfBytes": "1440"
      },
      "t_array(t_uint256)49_storage": {
        "base": "t_uint256",
        "encoding": "inplace",
        "label": "uint256[49]",
        "numberOfBytes": "1568"
      },
      "t_array(t_uint256)50_storage": {
        "base": "t_uint256",
        "encoding": "inplace",
        "label": "uint256[50]",
        "numberOfBytes": "1600"
      },
      "t_array(t_uint256)dyn_storage": {
        "base": "t_uint256",
        "encoding": "dynamic_array",
        "label": "uint256[]",
        "numberOfBytes": "32"
      },
      "t_bool": {
        "encoding": "inplace",
        "label": "bool",
        "numberOfBytes": "1"
      },
      "t_bytes32": {
        "encoding": "inplace",
        "label": "bytes32",
        "numberOfBytes": "32"
      },
      "t_contract(IOptionVault)12921": {
        "encoding": "inplace",
        "label": "contract IOptionVault",
        "numberOfBytes": "20"
      },
      "t_contract(IPKKTStructureOption)13025": {
        "encoding": "inplace",
        "label": "contract IPKKTStructureOption",
        "numberOfBytes": "20"
      },
      "t_mapping(t_address,t_bool)": {
        "encoding": "mapping",
        "key": "t_address",
        "label": "mapping(address => bool)",
        "numberOfBytes": "32",
        "value": "t_bool"
      },
      "t_mapping(t_address,t_mapping(t_address,t_uint256))": {
        "encoding": "mapping",
        "key": "t_address",
        "label": "mapping(address => mapping(address => uint256))",
        "numberOfBytes": "32",
        "value": "t_mapping(t_address,t_uint256)"
      },
      "t_mapping(t_address,t_struct(UserState)13203_storage)": {
        "encoding": "mapping",
        "key": "t_address",
        "label": "mapping(address => struct StructureData.UserState)",
        "numberOfBytes": "32",
        "value": "t_struct(UserState)13203_storage"
      },
      "t_mapping(t_address,t_uint256)": {
        "encoding": "mapping",
        "key": "t_address",
        "label": "mapping(address => uint256)",
        "numberOfBytes": "32",
        "value": "t_uint256"
      },
      "t_mapping(t_bytes32,t_struct(RoleData)43_storage)": {
        "encoding": "mapping",
        "key": "t_bytes32",
        "label": "mapping(bytes32 => struct AccessControlUpgradeable.RoleData)",
        "numberOfBytes": "32",
        "value": "t_struct(RoleData)43_storage"
      },
      "t_mapping(t_uint256,t_struct(OptionState)13162_storage)": {
        "encoding": "mapping",
        "key": "t_uint256",
        "label": "mapping(uint256 => struct StructureData.OptionState)",
        "numberOfBytes": "32",
        "value": "t_struct(OptionState)13162_storage"
      },
      "t_mapping(t_uint256,t_uint256)": {
        "encoding": "mapping",
        "key": "t_uint256",
        "label": "mapping(uint256 => uint256)",
        "numberOfBytes": "32",
        "value": "t_uint256"
      },
      "t_string_storage": {
        "encoding": "bytes",
        "label": "string",
        "numberOfBytes": "32"
      },
      "t_struct(OptionState)13162_storage": {
        "encoding": "inplace",
        "label": "struct StructureData.OptionState",
        "members": [
          {
            "astId": 13147,
            "contract": "contracts/Options/PKKTHodlBoosterPutOption.sol:PKKTHodlBoosterPutOption",
            "label": "round",
            "offset": 0,
            "slot": "0",
            "type": "t_uint256"
          },
          {
            "astId": 13149,
            "contract": "contracts/Options/PKKTHodlBoosterPutOption.sol:PKKTHodlBoosterPutOption",
            "label": "totalAmount",
            "offset": 0,
            "slot": "1",
            "type": "t_uint256"
          },
          {
            "astId": 13151,
            "contract": "contracts/Options/PKKTHodlBoosterPutOption.sol:PKKTHodlBoosterPutOption",
            "label": "totalTerminate",
            "offset": 0,
            "slot": "2",
            "type": "t_uint256"
          },
          {
            "astId": 13153,
            "contract": "contracts/Options/PKKTHodlBoosterPutOption.sol:PKKTHodlBoosterPutOption",
            "label": "strikePrice",
            "offset": 0,
            "slot": "3",
            "type": "t_uint256"
          },
          {
            "astId": 13155,
            "contract": "contracts/Options/PKKTHodlBoosterPutOption.sol:PKKTHodlBoosterPutOption",
            "label": "premiumRate",
            "offset": 0,
            "slot": "4",
            "type": "t_uint16"
          },
          {
            "astId": 13157,
            "contract": "contracts/Options/PKKTHodlBoosterPutOption.sol:PKKTHodlBoosterPutOption",
            "label": "pricePrecision",
            "offset": 2,
            "slot": "4",
            "type": "t_uint8"
          },
          {
            "astId": 13159,
            "contract": "contracts/Options/PKKTHodlBoosterPutOption.sol:PKKTHodlBoosterPutOption",
            "label": "executed",
            "offset": 3,
            "slot": "4",
            "type": "t_bool"
          },
          {
            "astId": 13161,
            "contract": "contracts/Options/PKKTHodlBoosterPutOption.sol:PKKTHodlBoosterPutOption",
            "label": "callOrPut",
            "offset": 4,
            "slot": "4",
            "type": "t_bool"
          }
        ],
        "numberOfBytes": "160"
      },
      "t_struct(RoleData)43_storage": {
        "encoding": "inplace",
        "label": "struct AccessControlUpgradeable.RoleData",
        "members": [
          {
            "astId": 40,
            "contract": "contracts/Options/PKKTHodlBoosterPutOption.sol:PKKTHodlBoosterPutOption",
            "label": "members",
            "offset": 0,
            "slot": "0",
            "type": "t_mapping(t_address,t_bool)"
          },
          {
            "astId": 42,
            "contract": "contracts/Options/PKKTHodlBoosterPutOption.sol:PKKTHodlBoosterPutOption",
            "label": "adminRole",
            "offset": 0,
            "slot": "1",
            "type": "t_bytes32"
          }
        ],
        "numberOfBytes": "64"
      },
      "t_struct(UserState)13203_storage": {
        "encoding": "inplace",
        "label": "struct StructureData.UserState",
        "members": [
          {
            "astId": 13186,
            "contract": "contracts/Options/PKKTHodlBoosterPutOption.sol:PKKTHodlBoosterPutOption",
            "label": "pendingAsset",
            "offset": 0,
            "slot": "0",
            "type": "t_uint256"
          },
          {
            "astId": 13188,
            "contract": "contracts/Options/PKKTHodlBoosterPutOption.sol:PKKTHodlBoosterPutOption",
            "label": "lockedAsset",
            "offset": 0,
            "slot": "1",
            "type": "t_uint256"
          },
          {
            "astId": 13192,
            "contract": "contracts/Options/PKKTHodlBoosterPutOption.sol:PKKTHodlBoosterPutOption",
            "label": "ongoingAsset",
            "offset": 0,
            "slot": "2",
            "type": "t_array(t_uint256)1_storage"
          },
          {
            "astId": 13194,
            "contract": "contracts/Options/PKKTHodlBoosterPutOption.sol:PKKTHodlBoosterPutOption",
            "label": "nextCursor",
            "offset": 0,
            "slot": "3",
            "type": "t_uint8"
          },
          {
            "astId": 13196,
            "contract": "contracts/Options/PKKTHodlBoosterPutOption.sol:PKKTHodlBoosterPutOption",
            "label": "totalRound",
            "offset": 1,
            "slot": "3",
            "type": "t_uint232"
          },
          {
            "astId": 13198,
            "contract": "contracts/Options/PKKTHodlBoosterPutOption.sol:PKKTHodlBoosterPutOption",
            "label": "hasState",
            "offset": 30,
            "slot": "3",
            "type": "t_bool"
          },
          {
            "astId": 13200,
            "contract": "contracts/Options/PKKTHodlBoosterPutOption.sol:PKKTHodlBoosterPutOption",
            "label": "assetToTerminate",
            "offset": 0,
            "slot": "4",
            "type": "t_uint256"
          },
          {
            "astId": 13202,
            "contract": "contracts/Options/PKKTHodlBoosterPutOption.sol:PKKTHodlBoosterPutOption",
            "label": "assetToTerminateForNextRound",
            "offset": 0,
            "slot": "5",
            "type": "t_uint256"
          }
        ],
        "numberOfBytes": "192"
      },
      "t_uint16": {
        "encoding": "inplace",
        "label": "uint16",
        "numberOfBytes": "2"
      },
      "t_uint232": {
        "encoding": "inplace",
        "label": "uint232",
        "numberOfBytes": "29"
      },
      "t_uint256": {
        "encoding": "inplace",
        "label": "uint256",
        "numberOfBytes": "32"
      },
      "t_uint8": {
        "encoding": "inplace",
        "label": "uint8",
        "numberOfBytes": "1"
      }
    }
  }
}