{
  "address": "0x46b142DD1E924FAb83eCc3c08e4D46E82f005e0E",
  "abi": [
    {
      "anonymous": false,
      "inputs": [
        {
          "indexed": true,
          "internalType": "address",
          "name": "owner",
          "type": "address"
        },
        {
          "indexed": true,
          "internalType": "address",
          "name": "spender",
          "type": "address"
        },
        {
          "indexed": false,
          "internalType": "uint256",
          "name": "value",
          "type": "uint256"
        }
      ],
      "name": "Approval",
      "type": "event"
    },
    {
      "anonymous": false,
      "inputs": [
        {
          "indexed": true,
          "internalType": "uint256",
          "name": "round",
          "type": "uint256"
        }
      ],
      "name": "CloseOption",
      "type": "event"
    },
    {
      "anonymous": false,
      "inputs": [
        {
          "indexed": true,
          "internalType": "uint256",
          "name": "round",
          "type": "uint256"
        }
      ],
      "name": "CommitOption",
      "type": "event"
    },
    {
      "anonymous": false,
      "inputs": [
        {
          "indexed": true,
          "internalType": "address",
          "name": "from",
          "type": "address"
        },
        {
          "indexed": true,
          "internalType": "address",
          "name": "account",
          "type": "address"
        },
        {
          "indexed": true,
          "internalType": "uint256",
          "name": "round",
          "type": "uint256"
        },
        {
          "indexed": false,
          "internalType": "uint256",
          "name": "amount",
          "type": "uint256"
        },
        {
          "indexed": false,
          "internalType": "address",
          "name": "option",
          "type": "address"
        }
      ],
      "name": "Deposit",
      "type": "event"
    },
    {
      "anonymous": false,
      "inputs": [
        {
          "indexed": true,
          "internalType": "uint256",
          "name": "round",
          "type": "uint256"
        }
      ],
      "name": "OpenOption",
      "type": "event"
    },
    {
      "anonymous": false,
      "inputs": [
        {
          "indexed": true,
          "internalType": "address",
          "name": "option",
          "type": "address"
        },
        {
          "indexed": false,
          "internalType": "string",
          "name": "name",
          "type": "string"
        }
      ],
      "name": "OptionCreated",
      "type": "event"
    },
    {
      "anonymous": false,
      "inputs": [
        {
          "indexed": false,
          "internalType": "address",
          "name": "from",
          "type": "address"
        },
        {
          "indexed": false,
          "internalType": "address",
          "name": "to",
          "type": "address"
        },
        {
          "indexed": false,
          "internalType": "uint256",
          "name": "premium",
          "type": "uint256"
        },
        {
          "indexed": false,
          "internalType": "uint256",
          "name": "round",
          "type": "uint256"
        }
      ],
      "name": "OptionTransfer",
      "type": "event"
    },
    {
      "anonymous": false,
      "inputs": [
        {
          "indexed": true,
          "internalType": "bytes32",
          "name": "role",
          "type": "bytes32"
        },
        {
          "indexed": true,
          "internalType": "bytes32",
          "name": "previousAdminRole",
          "type": "bytes32"
        },
        {
          "indexed": true,
          "internalType": "bytes32",
          "name": "newAdminRole",
          "type": "bytes32"
        }
      ],
      "name": "RoleAdminChanged",
      "type": "event"
    },
    {
      "anonymous": false,
      "inputs": [
        {
          "indexed": true,
          "internalType": "bytes32",
          "name": "role",
          "type": "bytes32"
        },
        {
          "indexed": true,
          "internalType": "address",
          "name": "account",
          "type": "address"
        },
        {
          "indexed": true,
          "internalType": "address",
          "name": "sender",
          "type": "address"
        }
      ],
      "name": "RoleGranted",
      "type": "event"
    },
    {
      "anonymous": false,
      "inputs": [
        {
          "indexed": true,
          "internalType": "bytes32",
          "name": "role",
          "type": "bytes32"
        },
        {
          "indexed": true,
          "internalType": "address",
          "name": "account",
          "type": "address"
        },
        {
          "indexed": true,
          "internalType": "address",
          "name": "sender",
          "type": "address"
        }
      ],
      "name": "RoleRevoked",
      "type": "event"
    },
    {
      "anonymous": false,
      "inputs": [
        {
          "indexed": true,
          "internalType": "address",
          "name": "from",
          "type": "address"
        },
        {
          "indexed": true,
          "internalType": "address",
          "name": "to",
          "type": "address"
        },
        {
          "indexed": false,
          "internalType": "uint256",
          "name": "value",
          "type": "uint256"
        }
      ],
      "name": "Transfer",
      "type": "event"
    },
    {
      "anonymous": false,
      "inputs": [
        {
          "indexed": true,
          "internalType": "address",
          "name": "account",
          "type": "address"
        },
        {
          "indexed": true,
          "internalType": "address",
          "name": "asset",
          "type": "address"
        },
        {
          "indexed": false,
          "internalType": "uint256",
          "name": "amount",
          "type": "uint256"
        }
      ],
      "name": "Withdraw",
      "type": "event"
    },
    {
      "inputs": [],
      "name": "DEFAULT_ADMIN_ROLE",
      "outputs": [
        {
          "internalType": "bytes32",
          "name": "",
          "type": "bytes32"
        }
      ],
      "stateMutability": "view",
      "type": "function"
    },
    {
      "inputs": [],
      "name": "OPTION_ROLE",
      "outputs": [
        {
          "internalType": "bytes32",
          "name": "",
          "type": "bytes32"
        }
      ],
      "stateMutability": "view",
      "type": "function"
    },
    {
      "inputs": [],
      "name": "RATIOMULTIPLIER",
      "outputs": [
        {
          "internalType": "uint256",
          "name": "",
          "type": "uint256"
        }
      ],
      "stateMutability": "view",
      "type": "function"
    },
    {
      "inputs": [],
      "name": "SETTLER_ROLE",
      "outputs": [
        {
          "internalType": "bytes32",
          "name": "",
          "type": "bytes32"
        }
      ],
      "stateMutability": "view",
      "type": "function"
    },
    {
      "inputs": [
        {
          "internalType": "address",
          "name": "owner",
          "type": "address"
        },
        {
          "internalType": "address",
          "name": "spender",
          "type": "address"
        }
      ],
      "name": "allowance",
      "outputs": [
        {
          "internalType": "uint256",
          "name": "",
          "type": "uint256"
        }
      ],
      "stateMutability": "view",
      "type": "function"
    },
    {
      "inputs": [
        {
          "internalType": "address",
          "name": "spender",
          "type": "address"
        },
        {
          "internalType": "uint256",
          "name": "amount",
          "type": "uint256"
        }
      ],
      "name": "approve",
      "outputs": [
        {
          "internalType": "bool",
          "name": "",
          "type": "bool"
        }
      ],
      "stateMutability": "nonpayable",
      "type": "function"
    },
    {
      "inputs": [
        {
          "internalType": "address",
          "name": "account",
          "type": "address"
        }
      ],
      "name": "balanceOf",
      "outputs": [
        {
          "internalType": "uint256",
          "name": "",
          "type": "uint256"
        }
      ],
      "stateMutability": "view",
      "type": "function"
    },
    {
      "inputs": [],
      "name": "callOrPut",
      "outputs": [
        {
          "internalType": "bool",
          "name": "",
          "type": "bool"
        }
      ],
      "stateMutability": "view",
      "type": "function"
    },
    {
      "inputs": [
        {
          "internalType": "uint256",
          "name": "_assetToTerminate",
          "type": "uint256"
        }
      ],
      "name": "cancelWithdraw",
      "outputs": [],
      "stateMutability": "nonpayable",
      "type": "function"
    },
    {
      "inputs": [
        {
          "internalType": "bool",
          "name": "_execute",
          "type": "bool"
        }
      ],
      "name": "closePrevious",
      "outputs": [
        {
          "components": [
            {
              "internalType": "uint256",
              "name": "releasedDepositAssetAmount",
              "type": "uint256"
            },
            {
              "internalType": "uint256",
              "name": "releasedDepositAssetPremiumAmount",
              "type": "uint256"
            },
            {
              "internalType": "uint256",
              "name": "releasedCounterPartyAssetAmount",
              "type": "uint256"
            },
            {
              "internalType": "uint256",
              "name": "releasedCounterPartyAssetPremiumAmount",
              "type": "uint256"
            },
            {
              "internalType": "uint256",
              "name": "autoRollDepositAssetAmount",
              "type": "uint256"
            },
            {
              "internalType": "uint256",
              "name": "autoRollDepositAssetPremiumAmount",
              "type": "uint256"
            },
            {
              "internalType": "uint256",
              "name": "autoRollCounterPartyAssetAmount",
              "type": "uint256"
            },
            {
              "internalType": "uint256",
              "name": "autoRollCounterPartyAssetPremiumAmount",
              "type": "uint256"
            },
            {
              "internalType": "uint256",
              "name": "round",
              "type": "uint256"
            }
          ],
          "internalType": "struct StructureData.MaturedState",
          "name": "_maturedState",
          "type": "tuple"
        }
      ],
      "stateMutability": "nonpayable",
      "type": "function"
    },
    {
      "inputs": [],
      "name": "commitCurrent",
      "outputs": [],
      "stateMutability": "nonpayable",
      "type": "function"
    },
    {
      "inputs": [
        {
          "internalType": "uint256",
          "name": "_amount",
          "type": "uint256"
        },
        {
          "internalType": "address",
          "name": "_asset",
          "type": "address"
        }
      ],
      "name": "completeWithdraw",
      "outputs": [],
      "stateMutability": "nonpayable",
      "type": "function"
    },
    {
      "inputs": [],
      "name": "counterParty",
      "outputs": [
        {
          "internalType": "address",
          "name": "",
          "type": "address"
        }
      ],
      "stateMutability": "view",
      "type": "function"
    },
    {
      "inputs": [],
      "name": "counterPartyAsset",
      "outputs": [
        {
          "internalType": "address",
          "name": "",
          "type": "address"
        }
      ],
      "stateMutability": "view",
      "type": "function"
    },
    {
      "inputs": [],
      "name": "counterPartyAssetAmountDecimals",
      "outputs": [
        {
          "internalType": "uint8",
          "name": "",
          "type": "uint8"
        }
      ],
      "stateMutability": "view",
      "type": "function"
    },
    {
      "inputs": [],
      "name": "counterPartyOption",
      "outputs": [
        {
          "internalType": "contract IPKKTStructureOption",
          "name": "",
          "type": "address"
        }
      ],
      "stateMutability": "view",
      "type": "function"
    },
    {
      "inputs": [],
      "name": "currentRound",
      "outputs": [
        {
          "internalType": "uint256",
          "name": "",
          "type": "uint256"
        }
      ],
      "stateMutability": "view",
      "type": "function"
    },
    {
      "inputs": [],
      "name": "decimals",
      "outputs": [
        {
          "internalType": "uint8",
          "name": "",
          "type": "uint8"
        }
      ],
      "stateMutability": "view",
      "type": "function"
    },
    {
      "inputs": [
        {
          "internalType": "address",
          "name": "spender",
          "type": "address"
        },
        {
          "internalType": "uint256",
          "name": "subtractedValue",
          "type": "uint256"
        }
      ],
      "name": "decreaseAllowance",
      "outputs": [
        {
          "internalType": "bool",
          "name": "",
          "type": "bool"
        }
      ],
      "stateMutability": "nonpayable",
      "type": "function"
    },
    {
      "inputs": [
        {
          "internalType": "uint256",
          "name": "_amount",
          "type": "uint256"
        }
      ],
      "name": "deposit",
      "outputs": [],
      "stateMutability": "nonpayable",
      "type": "function"
    },
    {
      "inputs": [],
      "name": "depositAsset",
      "outputs": [
        {
          "internalType": "address",
          "name": "",
          "type": "address"
        }
      ],
      "stateMutability": "view",
      "type": "function"
    },
    {
      "inputs": [],
      "name": "depositAssetAmountDecimals",
      "outputs": [
        {
          "internalType": "uint8",
          "name": "",
          "type": "uint8"
        }
      ],
      "stateMutability": "view",
      "type": "function"
    },
    {
      "inputs": [],
      "name": "depositETH",
      "outputs": [],
      "stateMutability": "payable",
      "type": "function"
    },
    {
      "inputs": [
        {
          "internalType": "address[]",
          "name": "addresses",
          "type": "address[]"
        },
        {
          "internalType": "uint256[]",
          "name": "_amounts",
          "type": "uint256[]"
        }
      ],
      "name": "depositFromCounterParty",
      "outputs": [],
      "stateMutability": "nonpayable",
      "type": "function"
    },
    {
      "inputs": [
        {
          "internalType": "bool",
          "name": "_execute",
          "type": "bool"
        }
      ],
      "name": "dryRunSettlement",
      "outputs": [
        {
          "components": [
            {
              "internalType": "address",
              "name": "option",
              "type": "address"
            },
            {
              "internalType": "uint256",
              "name": "round",
              "type": "uint256"
            },
            {
              "internalType": "uint256",
              "name": "depositAmount",
              "type": "uint256"
            },
            {
              "internalType": "bool",
              "name": "executed",
              "type": "bool"
            },
            {
              "internalType": "uint256",
              "name": "autoRollAmount",
              "type": "uint256"
            },
            {
              "internalType": "uint256",
              "name": "autoRollPremium",
              "type": "uint256"
            },
            {
              "internalType": "uint256",
              "name": "releasedAmount",
              "type": "uint256"
            },
            {
              "internalType": "uint256",
              "name": "releasedPremium",
              "type": "uint256"
            },
            {
              "internalType": "uint256",
              "name": "autoRollCounterPartyAmount",
              "type": "uint256"
            },
            {
              "internalType": "uint256",
              "name": "autoRollCounterPartyPremium",
              "type": "uint256"
            },
            {
              "internalType": "uint256",
              "name": "releasedCounterPartyAmount",
              "type": "uint256"
            },
            {
              "internalType": "uint256",
              "name": "releasedCounterPartyPremium",
              "type": "uint256"
            }
          ],
          "internalType": "struct StructureData.SettlementAccountingResult",
          "name": "_result",
          "type": "tuple"
        }
      ],
      "stateMutability": "view",
      "type": "function"
    },
    {
      "inputs": [],
      "name": "getAccountBalance",
      "outputs": [
        {
          "components": [
            {
              "internalType": "uint256",
              "name": "pendingDepositAssetAmount",
              "type": "uint256"
            },
            {
              "internalType": "uint256",
              "name": "lockedDepositAssetAmount",
              "type": "uint256"
            },
            {
              "internalType": "uint256",
              "name": "ongoingDepositAssetAmount",
              "type": "uint256"
            },
            {
              "internalType": "uint256",
              "name": "releasedDepositAssetAmount",
              "type": "uint256"
            },
            {
              "internalType": "uint256",
              "name": "releasedCounterPartyAssetAmount",
              "type": "uint256"
            }
          ],
          "internalType": "struct StructureData.UserBalance",
          "name": "",
          "type": "tuple"
        }
      ],
      "stateMutability": "view",
      "type": "function"
    },
    {
      "inputs": [],
      "name": "getOptionSnapShot",
      "outputs": [
        {
          "components": [
            {
              "internalType": "uint256",
              "name": "totalPending",
              "type": "uint256"
            },
            {
              "internalType": "uint256",
              "name": "totalLocked",
              "type": "uint256"
            },
            {
              "internalType": "uint256",
              "name": "totalOngoing",
              "type": "uint256"
            },
            {
              "internalType": "uint256",
              "name": "totalReleasedDeposit",
              "type": "uint256"
            },
            {
              "internalType": "uint256",
              "name": "totalReleasedCounterParty",
              "type": "uint256"
            }
          ],
          "internalType": "struct StructureData.OptionSnapshot",
          "name": "",
          "type": "tuple"
        }
      ],
      "stateMutability": "view",
      "type": "function"
    },
    {
      "inputs": [
        {
          "internalType": "bytes32",
          "name": "role",
          "type": "bytes32"
        }
      ],
      "name": "getRoleAdmin",
      "outputs": [
        {
          "internalType": "bytes32",
          "name": "",
          "type": "bytes32"
        }
      ],
      "stateMutability": "view",
      "type": "function"
    },
    {
      "inputs": [
        {
          "internalType": "uint256",
          "name": "_blockHeight",
          "type": "uint256"
        }
      ],
      "name": "getRoundData",
      "outputs": [
        {
          "components": [
            {
              "internalType": "uint256",
              "name": "round",
              "type": "uint256"
            },
            {
              "internalType": "uint256",
              "name": "totalAmount",
              "type": "uint256"
            },
            {
              "internalType": "uint256",
              "name": "totalTerminate",
              "type": "uint256"
            },
            {
              "internalType": "uint256",
              "name": "strikePrice",
              "type": "uint256"
            },
            {
              "internalType": "uint16",
              "name": "premiumRate",
              "type": "uint16"
            },
            {
              "internalType": "uint8",
              "name": "pricePrecision",
              "type": "uint8"
            },
            {
              "internalType": "bool",
              "name": "executed",
              "type": "bool"
            },
            {
              "internalType": "bool",
              "name": "callOrPut",
              "type": "bool"
            }
          ],
          "internalType": "struct StructureData.OptionState",
          "name": "",
          "type": "tuple"
        }
      ],
      "stateMutability": "view",
      "type": "function"
    },
    {
      "inputs": [
        {
          "internalType": "address",
          "name": "_asset",
          "type": "address"
        }
      ],
      "name": "getWithdrawable",
      "outputs": [
        {
          "internalType": "uint256",
          "name": "",
          "type": "uint256"
        }
      ],
      "stateMutability": "view",
      "type": "function"
    },
    {
      "inputs": [
        {
          "internalType": "bytes32",
          "name": "role",
          "type": "bytes32"
        },
        {
          "internalType": "address",
          "name": "account",
          "type": "address"
        }
      ],
      "name": "grantRole",
      "outputs": [],
      "stateMutability": "nonpayable",
      "type": "function"
    },
    {
      "inputs": [
        {
          "internalType": "bytes32",
          "name": "role",
          "type": "bytes32"
        },
        {
          "internalType": "address",
          "name": "account",
          "type": "address"
        }
      ],
      "name": "hasRole",
      "outputs": [
        {
          "internalType": "bool",
          "name": "",
          "type": "bool"
        }
      ],
      "stateMutability": "view",
      "type": "function"
    },
    {
      "inputs": [
        {
          "internalType": "address",
          "name": "spender",
          "type": "address"
        },
        {
          "internalType": "uint256",
          "name": "addedValue",
          "type": "uint256"
        }
      ],
      "name": "increaseAllowance",
      "outputs": [
        {
          "internalType": "bool",
          "name": "",
          "type": "bool"
        }
      ],
      "stateMutability": "nonpayable",
      "type": "function"
    },
    {
      "inputs": [
        {
          "internalType": "string",
          "name": "name",
          "type": "string"
        },
        {
          "internalType": "string",
          "name": "symbol",
          "type": "string"
        },
        {
          "internalType": "address",
          "name": "_depositAsset",
          "type": "address"
        },
        {
          "internalType": "address",
          "name": "_counterPartyAsset",
          "type": "address"
        },
        {
          "internalType": "uint8",
          "name": "_depositAssetAmountDecimals",
          "type": "uint8"
        },
        {
          "internalType": "uint8",
          "name": "_counterPartyAssetAmountDecimals",
          "type": "uint8"
        },
        {
          "internalType": "address",
          "name": "_vaultAddress",
          "type": "address"
        },
        {
          "internalType": "bool",
          "name": "_callOrPut",
          "type": "bool"
        },
        {
          "internalType": "address",
          "name": "_settler",
          "type": "address"
        }
      ],
      "name": "initialize",
      "outputs": [],
      "stateMutability": "nonpayable",
      "type": "function"
    },
    {
      "inputs": [
        {
          "internalType": "uint256",
          "name": "_assetToTerminate",
          "type": "uint256"
        }
      ],
      "name": "initiateWithraw",
      "outputs": [],
      "stateMutability": "nonpayable",
      "type": "function"
    },
    {
      "inputs": [],
      "name": "isEth",
      "outputs": [
        {
          "internalType": "bool",
          "name": "",
          "type": "bool"
        }
      ],
      "stateMutability": "view",
      "type": "function"
    },
    {
      "inputs": [],
      "name": "maxCancelWithdraw",
      "outputs": [],
      "stateMutability": "nonpayable",
      "type": "function"
    },
    {
      "inputs": [],
      "name": "maxInitiateWithdraw",
      "outputs": [],
      "stateMutability": "nonpayable",
      "type": "function"
    },
    {
      "inputs": [],
      "name": "name",
      "outputs": [
        {
          "internalType": "string",
          "name": "",
          "type": "string"
        }
      ],
      "stateMutability": "view",
      "type": "function"
    },
    {
      "inputs": [
        {
          "internalType": "uint256",
          "name": "",
          "type": "uint256"
        }
      ],
      "name": "optionHeights",
      "outputs": [
        {
          "internalType": "uint256",
          "name": "",
          "type": "uint256"
        }
      ],
      "stateMutability": "view",
      "type": "function"
    },
    {
      "inputs": [
        {
          "internalType": "uint256",
          "name": "",
          "type": "uint256"
        }
      ],
      "name": "optionStates",
      "outputs": [
        {
          "internalType": "uint256",
          "name": "round",
          "type": "uint256"
        },
        {
          "internalType": "uint256",
          "name": "totalAmount",
          "type": "uint256"
        },
        {
          "internalType": "uint256",
          "name": "totalTerminate",
          "type": "uint256"
        },
        {
          "internalType": "uint256",
          "name": "strikePrice",
          "type": "uint256"
        },
        {
          "internalType": "uint16",
          "name": "premiumRate",
          "type": "uint16"
        },
        {
          "internalType": "uint8",
          "name": "pricePrecision",
          "type": "uint8"
        },
        {
          "internalType": "bool",
          "name": "executed",
          "type": "bool"
        },
        {
          "internalType": "bool",
          "name": "callOrPut",
          "type": "bool"
        }
      ],
      "stateMutability": "view",
      "type": "function"
    },
    {
      "inputs": [],
      "name": "optionVault",
      "outputs": [
        {
          "internalType": "contract IOptionVault",
          "name": "",
          "type": "address"
        }
      ],
      "stateMutability": "view",
      "type": "function"
    },
    {
      "inputs": [
        {
          "internalType": "uint256",
          "name": "_amount",
          "type": "uint256"
        }
      ],
      "name": "redeem",
      "outputs": [],
      "stateMutability": "nonpayable",
      "type": "function"
    },
    {
      "inputs": [
        {
          "internalType": "uint256",
          "name": "_amount",
          "type": "uint256"
        }
      ],
      "name": "redeposit",
      "outputs": [],
      "stateMutability": "nonpayable",
      "type": "function"
    },
    {
      "inputs": [
        {
          "internalType": "uint256",
          "name": "_amount",
          "type": "uint256"
        }
      ],
      "name": "redepositToCounterParty",
      "outputs": [],
      "stateMutability": "nonpayable",
      "type": "function"
    },
    {
      "inputs": [
        {
          "internalType": "bytes32",
          "name": "role",
          "type": "bytes32"
        },
        {
          "internalType": "address",
          "name": "account",
          "type": "address"
        }
      ],
      "name": "renounceRole",
      "outputs": [],
      "stateMutability": "nonpayable",
      "type": "function"
    },
    {
      "inputs": [
        {
          "internalType": "bytes32",
          "name": "role",
          "type": "bytes32"
        },
        {
          "internalType": "address",
          "name": "account",
          "type": "address"
        }
      ],
      "name": "revokeRole",
      "outputs": [],
      "stateMutability": "nonpayable",
      "type": "function"
    },
    {
      "inputs": [
        {
          "internalType": "uint256",
          "name": "_quota",
          "type": "uint256"
        }
      ],
      "name": "rollToNext",
      "outputs": [
        {
          "internalType": "uint256",
          "name": "_pendingAmount",
          "type": "uint256"
        }
      ],
      "stateMutability": "nonpayable",
      "type": "function"
    },
    {
      "inputs": [
        {
          "internalType": "address",
          "name": "_counterParty",
          "type": "address"
        }
      ],
      "name": "setCounterPartyOption",
      "outputs": [],
      "stateMutability": "nonpayable",
      "type": "function"
    },
    {
      "inputs": [
        {
          "components": [
            {
              "internalType": "address",
              "name": "option",
              "type": "address"
            },
            {
              "internalType": "uint256",
              "name": "strikePrice",
              "type": "uint256"
            },
            {
              "internalType": "uint8",
              "name": "pricePrecision",
              "type": "uint8"
            },
            {
              "internalType": "uint16",
              "name": "premiumRate",
              "type": "uint16"
            }
          ],
          "internalType": "struct StructureData.OptionParameters",
          "name": "_optionParameters",
          "type": "tuple"
        }
      ],
      "name": "setOptionParameters",
      "outputs": [],
      "stateMutability": "nonpayable",
      "type": "function"
    },
    {
      "inputs": [
        {
          "internalType": "bytes4",
          "name": "interfaceId",
          "type": "bytes4"
        }
      ],
      "name": "supportsInterface",
      "outputs": [
        {
          "internalType": "bool",
          "name": "",
          "type": "bool"
        }
      ],
      "stateMutability": "view",
      "type": "function"
    },
    {
      "inputs": [],
      "name": "symbol",
      "outputs": [
        {
          "internalType": "string",
          "name": "",
          "type": "string"
        }
      ],
      "stateMutability": "view",
      "type": "function"
    },
    {
      "inputs": [],
      "name": "totalReleasedCounterPartyAssetAmount",
      "outputs": [
        {
          "internalType": "uint256",
          "name": "",
          "type": "uint256"
        }
      ],
      "stateMutability": "view",
      "type": "function"
    },
    {
      "inputs": [],
      "name": "totalReleasedDepositAssetAmount",
      "outputs": [
        {
          "internalType": "uint256",
          "name": "",
          "type": "uint256"
        }
      ],
      "stateMutability": "view",
      "type": "function"
    },
    {
      "inputs": [],
      "name": "totalSupply",
      "outputs": [
        {
          "internalType": "uint256",
          "name": "",
          "type": "uint256"
        }
      ],
      "stateMutability": "view",
      "type": "function"
    },
    {
      "inputs": [
        {
          "internalType": "address",
          "name": "recipient",
          "type": "address"
        },
        {
          "internalType": "uint256",
          "name": "amount",
          "type": "uint256"
        }
      ],
      "name": "transfer",
      "outputs": [
        {
          "internalType": "bool",
          "name": "",
          "type": "bool"
        }
      ],
      "stateMutability": "nonpayable",
      "type": "function"
    },
    {
      "inputs": [
        {
          "internalType": "address",
          "name": "sender",
          "type": "address"
        },
        {
          "internalType": "address",
          "name": "recipient",
          "type": "address"
        },
        {
          "internalType": "uint256",
          "name": "amount",
          "type": "uint256"
        }
      ],
      "name": "transferFrom",
      "outputs": [
        {
          "internalType": "bool",
          "name": "",
          "type": "bool"
        }
      ],
      "stateMutability": "nonpayable",
      "type": "function"
    },
    {
      "inputs": [],
      "name": "underSettlement",
      "outputs": [
        {
          "internalType": "bool",
          "name": "",
          "type": "bool"
        }
      ],
      "stateMutability": "view",
      "type": "function"
    },
    {
      "inputs": [
        {
          "internalType": "address",
          "name": "",
          "type": "address"
        }
      ],
      "name": "userStates",
      "outputs": [
        {
          "internalType": "uint256",
          "name": "pendingAsset",
          "type": "uint256"
        },
        {
          "internalType": "uint256",
          "name": "lockedAsset",
          "type": "uint256"
        },
        {
          "internalType": "uint8",
          "name": "nextCursor",
          "type": "uint8"
        },
        {
          "internalType": "uint232",
          "name": "totalRound",
          "type": "uint232"
        },
        {
          "internalType": "bool",
          "name": "hasState",
          "type": "bool"
        },
        {
          "internalType": "uint256",
          "name": "assetToTerminate",
          "type": "uint256"
        },
        {
          "internalType": "uint256",
          "name": "assetToTerminateForNextRound",
          "type": "uint256"
        }
      ],
      "stateMutability": "view",
      "type": "function"
    },
    {
      "inputs": [
        {
          "internalType": "uint256",
          "name": "",
          "type": "uint256"
        }
      ],
      "name": "usersInvolved",
      "outputs": [
        {
          "internalType": "address",
          "name": "",
          "type": "address"
        }
      ],
      "stateMutability": "view",
      "type": "function"
    },
    {
      "inputs": [],
      "name": "vaultAddress",
      "outputs": [
        {
          "internalType": "address",
          "name": "",
          "type": "address"
        }
      ],
      "stateMutability": "view",
      "type": "function"
    },
    {
      "inputs": [
        {
          "internalType": "uint256",
          "name": "_amount",
          "type": "uint256"
        },
        {
          "internalType": "address",
          "name": "_asset",
          "type": "address"
        }
      ],
      "name": "withdraw",
      "outputs": [],
      "stateMutability": "nonpayable",
      "type": "function"
    }
  ],
  "transactionHash": "0xa97245ff5a2f5cfdfb01ec63d4462b04c983e3365ef9b1308587bd3fdc1e9c48",
  "args": [],
  "solcInputHash": "39dac7b7e15464a94896fcb316e3bb5b",
  "bytecode": "0x608060405234801561001057600080fd5b5061584f80620000216000396000f3fe6080604052600436106103ac5760003560e01c80636896fabf116101e7578063a217fddf1161010d578063c02337df116100a0578063db006a751161006f578063db006a7514610dce578063dd62ed3e14610dee578063eef9f5a514610e34578063f6326fb314610e5b57600080fd5b8063c02337df14610d53578063c515d7e714610d68578063ccc41f2414610d88578063d547741f14610dae57600080fd5b8063a9059cbb116100dc578063a9059cbb14610cd3578063aac5001d14610cf3578063b6b55f2514610d13578063bb9662c814610d3357600080fd5b8063a217fddf14610c51578063a2589ef914610c66578063a457c2d714610c86578063a5d3e5b114610ca657600080fd5b80638a19c8bc1161018557806392b4d26a1161015457806392b4d26a14610be757806395d89b4114610bfc5780639e4cbd7d14610c115780639f01f7ba14610c3157600080fd5b80638a19c8bc14610b715780638cd8935914610b875780639020253914610ba757806391d1485414610bc757600080fd5b806370a08231116101c157806370a0823114610ae35780637445e85c14610b1957806376e7a47814610b3b5780637ba0eabe14610b5157600080fd5b80636896fabf14610a8d5780636a2af82014610aaf57806370349bfb14610ace57600080fd5b806321c9445c116102d7578063395093511161026a578063511db11411610239578063511db114146109815780635973ff3a146109a257806364057572146109c257806365235474146109d757600080fd5b806339509351146108fe57806341b9f3291461091e578063430bf08a1461093857806347276abf1461094d57600080fd5b80632f2ff15d116102a65780632f2ff15d14610878578063313ce5671461089857806332cc6ae6146108be57806336568abe146108de57600080fd5b806321c9445c146107e757806323b872dd14610807578063248a9ca3146108275780632c453bdf1461085757600080fd5b80630e777b4b1161034f578063135ad9691161031e578063135ad969146106f857806318160ddd14610725578063186a4a171461073a5780631de245af146107c757600080fd5b80630e777b4b146105d95780630ecc535f146105f95780630fd49173146106a857806311c8556d146106bf57600080fd5b80630720da521161038b5780630720da521461042a5780630748248f14610579578063095ea7b3146105945780630b2737e4146105b457600080fd5b8062f714ce146103b157806301ffc9a7146103d357806306fdde0314610408575b600080fd5b3480156103bd57600080fd5b506103d16103cc366004614f01565b610e63565b005b3480156103df57600080fd5b506103f36103ee366004614f25565b611164565b60405190151581526020015b60405180910390f35b34801561041457600080fd5b5061041d61119b565b6040516103ff91906151d7565b34801561043657600080fd5b5061050d610445366004614ee9565b6040805161010081018252600080825260208201819052918101829052606081018290526080810182905260a0810182905260c0810182905260e081019190915250600090815260ff60208181526040808420548452610100808352938190208151948501825280548552600181015492850192909252600282015490840152600381015460608401526004015461ffff81166080840152620100008104821660a0840152630100000081048216151560c0840152640100000000900416151560e082015290565b6040516103ff91906000610100820190508251825260208301516020830152604083015160408301526060830151606083015261ffff608084015116608083015260ff60a08401511660a083015260c0830151151560c083015260e0830151151560e083015292915050565b34801561058557600080fd5b50610103546103f39060ff1681565b3480156105a057600080fd5b506103f36105af366004614dc3565b61122d565b3480156105c057600080fd5b506105cb6101065481565b6040519081526020016103ff565b3480156105e557600080fd5b506103d16105f4366004614ee9565b611243565b34801561060557600080fd5b50610661610614366004614d13565b61010260205260009081526040902080546001820154600383015460048401546005909401549293919260ff808316936001600160e81b0361010085041693600160f01b90049091169187565b60408051978852602088019690965260ff909416948601949094526001600160e81b0390911660608501521515608084015260a083019190915260c082015260e0016103ff565b3480156106b457600080fd5b506105cb6101075481565b3480156106cb57600080fd5b50610105546106e0906001600160a01b031681565b6040516001600160a01b0390911681526020016103ff565b34801561070457600080fd5b50610718610713366004614eb1565b61139b565b6040516103ff91906153da565b34801561073157600080fd5b506035546105cb565b34801561074657600080fd5b5061075a610755366004614eb1565b611667565b6040516103ff9190600061012082019050825182526020830151602083015260408301516040830152606083015160608301526080830151608083015260a083015160a083015260c083015160c083015260e083015160e083015261010080840151818401525092915050565b3480156107d357600080fd5b506106e06107e2366004614ee9565b6118cd565b3480156107f357600080fd5b506103d1610802366004614f01565b6118f8565b34801561081357600080fd5b506103f3610822366004614d83565b611b49565b34801561083357600080fd5b506105cb610842366004614ee9565b60009081526097602052604090206001015490565b34801561086357600080fd5b50610104546106e0906001600160a01b031681565b34801561088457600080fd5b506103d1610893366004614f01565b611bf5565b3480156108a457600080fd5b5060fb5460ff165b60405160ff90911681526020016103ff565b3480156108ca57600080fd5b506105cb6108d9366004614d13565b611c20565b3480156108ea57600080fd5b506103d16108f9366004614f01565b611cb9565b34801561090a57600080fd5b506103f3610919366004614dc3565b611d37565b34801561092a57600080fd5b5060fb546108ac9060ff1681565b34801561094457600080fd5b506106e0611d73565b34801561095957600080fd5b506105cb7ffd0eee74c7609b4290ae42cfa22435eabf285017ea12017ed27c2e820eae6a7781565b34801561098d57600080fd5b5060fc546103f390600160a01b900460ff1681565b3480156109ae57600080fd5b506103d16109bd366004614dee565b611df6565b3480156109ce57600080fd5b506103d1611e98565b3480156109e357600080fd5b50610a476109f2366004614ee9565b61010060205260009081526040902080546001820154600283015460038401546004909401549293919290919061ffff81169060ff620100008204811691630100000081048216916401000000009091041688565b60408051988952602089019790975295870194909452606086019290925261ffff16608085015260ff1660a0840152151560c0830152151560e0820152610100016103ff565b348015610a9957600080fd5b50610aa2611f81565b6040516103ff91906153a1565b348015610abb57600080fd5b5060fb546108ac90610100900460ff1681565b348015610ada57600080fd5b506103d161201d565b348015610aef57600080fd5b506105cb610afe366004614d13565b6001600160a01b031660009081526033602052604090205490565b348015610b2557600080fd5b506105cb6000805160206157fa83398151915281565b348015610b4757600080fd5b506105cb61271081565b348015610b5d57600080fd5b506103d1610b6c366004615027565b6120fd565b348015610b7d57600080fd5b506105cb60fe5481565b348015610b9357600080fd5b506105cb610ba2366004614ee9565b612231565b348015610bb357600080fd5b50610103546103f390610100900460ff1681565b348015610bd357600080fd5b506103f3610be2366004614f01565b6124f2565b348015610bf357600080fd5b50610aa261251d565b348015610c0857600080fd5b5061041d612648565b348015610c1d57600080fd5b506103d1610c2c366004614ee9565b612657565b348015610c3d57600080fd5b506103d1610c4c366004614ee9565b61283f565b348015610c5d57600080fd5b506105cb600081565b348015610c7257600080fd5b506103d1610c81366004614ee9565b612975565b348015610c9257600080fd5b506103f3610ca1366004614dc3565b612a56565b348015610cb257600080fd5b506105cb610cc1366004614ee9565b60ff6020526000908152604090205481565b348015610cdf57600080fd5b506103f3610cee366004614dc3565b612aef565b348015610cff57600080fd5b506103d1610d0e366004614f4d565b612afc565b348015610d1f57600080fd5b506103d1610d2e366004614ee9565b612ce0565b348015610d3f57600080fd5b5060fc546106e0906001600160a01b031681565b348015610d5f57600080fd5b506103d1612de0565b348015610d7457600080fd5b506103d1610d83366004614d13565b613052565b348015610d9457600080fd5b5060fb546106e0906201000090046001600160a01b031681565b348015610dba57600080fd5b506103d1610dc9366004614f01565b6130f5565b348015610dda57600080fd5b506103d1610de9366004614ee9565b61311b565b348015610dfa57600080fd5b506105cb610e09366004614d4b565b6001600160a01b03918216600090815260346020908152604080832093909416825291909152205490565b348015610e4057600080fd5b50610103546106e0906201000090046001600160a01b031681565b6103d161328f565b600260c9541415610e8f5760405162461bcd60e51b8152600401610e869061536a565b60405180910390fd5b600260c95581610eb15760405162461bcd60e51b8152600401610e86906152fa565b6101035460ff1615610ed55760405162461bcd60e51b8152600401610e8690615235565b60fb546001600160a01b0382811662010000909204161480610f04575060fc546001600160a01b038281169116145b610f485760405162461bcd60e51b8152602060048201526015602482015274496e76616c6964206173736574206164647265737360581b6044820152606401610e86565b60fb546001600160a01b038281166201000090920416141561105157336000908152610108602052604090205482811161101d573360009081526101026020526040812090610f9785846133b9565b90508082600001541015610fbd5760405162461bcd60e51b8152600401610e869061520a565b336000908152610108602052604081205561010654610fdc90846133b9565b610106558154610fec90826133b9565b825560fe54600090815261010060205260409020600181015461100f90836133b9565b6001909101555061104b9050565b61102781846133b9565b33600090815261010860205260409020556101065461104690846133b9565b610106555b506110b1565b3360009081526101096020526040902054828110156110825760405162461bcd60e51b8152600401610e869061531b565b61108c81846133b9565b3360009081526101096020526040902055610107546110ab90846133b9565b61010755505b610105546040516309777fbf60e11b81526001600160a01b03909116906312eeff7e906110e990339086908690600090600401615137565b600060405180830381600087803b15801561110357600080fd5b505af1158015611117573d6000803e3d6000fd5b50506040518481526001600160a01b03841692503391507f9b1bfa7fa9ee420a16e124f794c35ac9f90472acc99140eb2f6447c714cad8eb9060200160405180910390a35050600160c955565b60006001600160e01b03198216637965db0b60e01b148061119557506301ffc9a760e01b6001600160e01b03198316145b92915050565b6060603680546111aa9061575a565b80601f01602080910402602001604051908101604052809291908181526020018280546111d69061575a565b80156112235780601f106111f857610100808354040283529160200191611223565b820191906000526020600020905b81548152906001019060200180831161120657829003601f168201915b5050505050905090565b600061123a3384846133c5565b50600192915050565b600081116112885760405162461bcd60e51b8152602060048201526012602482015271215f6173736574546f5465726d696e61746560701b6044820152606401610e86565b600160fe54116112aa5760405162461bcd60e51b8152600401610e8690615345565b336000908152610102602052604090206101035460ff161561130b5760058101546000906112d890846134e9565b6001830154909150808211156113005760405162461bcd60e51b8152600401610e869061520a565b506005820155611354565b600481015460009061131d90846134e9565b9050600061132b83826134f5565b90508082111561134d5760405162461bcd60e51b8152600401610e869061520a565b5060048201555b60006101006000600160fe5461136a91906156dd565b815260200190815260200160002090506113918382600201546134e990919063ffffffff16565b6002909101555050565b61140a60405180610180016040528060006001600160a01b03168152602001600081526020016000815260200160001515815260200160008152602001600081526020016000815260200160008152602001600081526020016000815260200160008152602001600081525090565b6000805160206157fa833981519152611423813361359c565b6101035460ff166114465760405162461bcd60e51b8152600401610e86906152cf565b600160fe541161148c5760405162461bcd60e51b81526020600482015260116024820152704e6f7468696e6720746f20736574746c6560781b6044820152606401610e86565b60006101006000600160fe546114a291906156dd565b815260200190815260200160002090506000604051806101800160405280306001600160a01b03168152602001600160fe546114de91906156dd565b8152602001836001015481526020018615158152602001600081526020016000815260200160008152602001600081526020016000815260200160008152602001600081526020016000815250905060018061153a919061554a565b60ff1660fe54111561165d576000610100600060018060ff1660fe5461156091906156dd565b61156a91906156dd565b815260208082019290925260409081016000908120825161010081018452815481526001820154948101949094526002810154928401929092526003820154606084015260049091015461ffff8116608084015260ff620100008204811660a0850152630100000082048116151560c085015264010000000090910416151560e08301529091506115fb8783613600565b905086156116345760c081015161010084015260e08101516101208401526040810151610140840152606081015161016084015261165a565b6080808201519084015260a08082015190840152805160c0840152602081015160e08401525b50505b9250505b50919050565b61166f614b0a565b6000805160206157fa833981519152611688813361359c565b6101035460ff166116ab5760405162461bcd60e51b8152600401610e86906152cf565b6116b660018061554a565b60ff1660fe54116116f65760405162461bcd60e51b815260206004820152600a6024820152691b9bc81b585d1d5c995960b21b6044820152606401610e86565b600060018060ff1660fe5461170b91906156dd565b61171591906156dd565b600081815261010060208181526040808420815193840182528054845260018101549284019290925260028201549083015260038101546060830152600481015461ffff8116608084015260ff620100008204811660a0850152630100000082048116151560c085015264010000000090910416151560e083015292935061179e908790613600565b6004830180548815801563010000000263ff00000019909216919091179091559091506117f6576117ed81606001516117e78360400151610107546134e990919063ffffffff16565b906134e9565b61010755611815565b602081015181516101065461181092916117e791906134e9565b610106555b600182015415611899576040805161010081018252835481526001840154602082015260028401549181019190915260038301546060820152600483015461ffff8116608083015260ff620100008204811660a0840152630100000082048116151560c084015264010000000090910416151560e082015261189990879083613854565b60405183907f5fd55b58a9ef8c29a9db39dd9a05dec64993eb227ad0177941238778e9ea896290600090a295945050505050565b61010181815481106118de57600080fd5b6000918252602090912001546001600160a01b0316905081565b600260c954141561191b5760405162461bcd60e51b8152600401610e869061536a565b600260c9558161193d5760405162461bcd60e51b8152600401610e86906152fa565b6101035460ff16156119615760405162461bcd60e51b8152600401610e8690615235565b600160fe54116119835760405162461bcd60e51b8152600401610e86906152aa565b60fb546001600160a01b03828116620100009092041614806119b2575060fc546001600160a01b038281169116145b6119f65760405162461bcd60e51b8152602060048201526015602482015274496e76616c6964206173736574206164647265737360581b6044820152606401610e86565b60fb546001600160a01b0382811662010000909204161415611a7657336000908152610108602052604090205482811015611a435760405162461bcd60e51b8152600401610e869061531b565b611a4d81846133b9565b336000908152610108602052604090205561010654611a6c90846133b9565b6101065550611ad6565b336000908152610109602052604090205482811015611aa75760405162461bcd60e51b8152600401610e869061531b565b611ab181846133b9565b336000908152610109602052604090205561010754611ad090846133b9565b61010755505b610105546040516309777fbf60e11b81526001600160a01b03909116906312eeff7e90611b0e90339086908690600090600401615137565b600060405180830381600087803b158015611b2857600080fd5b505af1158015611b3c573d6000803e3d6000fd5b5050600160c95550505050565b6000611b56848484613e07565b6001600160a01b038416600090815260346020908152604080832033845290915290205482811015611bdb5760405162461bcd60e51b815260206004820152602860248201527f45524332303a207472616e7366657220616d6f756e74206578636565647320616044820152676c6c6f77616e636560c01b6064820152608401610e86565b611be885338584036133c5565b60019150505b9392505050565b600082815260976020526040902060010154611c11813361359c565b611c1b8383613fd5565b505050565b60fb546000906001600160a01b0383811662010000909204161415611c62576101065460fe5460009081526101006020526040902060010154611195916134e9565b60fc546001600160a01b0383811691161415611c815750506101075490565b60405162461bcd60e51b815260206004820152600d60248201526c1a5b9d985b1a5908185cdcd95d609a1b6044820152606401610e86565b6001600160a01b0381163314611d295760405162461bcd60e51b815260206004820152602f60248201527f416363657373436f6e74726f6c3a2063616e206f6e6c792072656e6f756e636560448201526e103937b632b9903337b91039b2b63360891b6064820152608401610e86565b611d33828261405b565b5050565b3360008181526034602090815260408083206001600160a01b0387168452909152812054909161123a918590611d6e908690615532565b6133c5565b61010554604080516338cc483160e01b815290516000926001600160a01b0316916338cc4831916004808301926020929190829003018186803b158015611db957600080fd5b505afa158015611dcd573d6000803e3d6000fd5b505050506040513d601f19601f82011682018060405250810190611df19190614d2f565b905090565b610104546001600160a01b03163314611e685760405162461bcd60e51b815260206004820152602e60248201527f4f6e6c7920636f756e746572207061727479206f7074696f6e2063616e20636160448201526d1b1b081d1a1a5cc81b595d1a1bd960921b6064820152608401610e86565b6101035460009060ff16611e7e5760fe54611e8d565b600160fe54611e8d91906156dd565b905060005b50505050565b600160fe5411611eba5760405162461bcd60e51b8152600401610e8690615345565b336000908152610102602052604090206101035460ff1615611f2a57600180820154600583015560fe54600091610100918391611ef6916156dd565b81526020019081526020016000209050611f21826001015482600201546134e990919063ffffffff16565b60029091015550565b611f358160006134f5565b816004018190555060006101006000600160fe54611f5391906156dd565b81526020019081526020016000209050611f21826004015482600201546134e990919063ffffffff16565b50565b611fb36040518060a0016040528060008152602001600081526020016000815260200160008152602001600081525090565b33600090815261010260209081526040808320815160a081018352815481526001820154938101939093529291908101611fed84846134f5565b81523360008181526101086020908152604080832054828601529282526101099052819020549101529392505050565b600160fe541161203f5760405162461bcd60e51b8152600401610e8690615345565b336000908152610102602052604090206101035460ff16156120ac5760006101006000600160fe5461207191906156dd565b8152602001908152602001600020905061209c826005015482600201546133b990919063ffffffff16565b6002909101556000600582015550565b60006101006000600160fe546120c291906156dd565b815260200190815260200160002090506120ed826004015482600201546133b990919063ffffffff16565b6002909101556000600482015550565b6000805160206157fa833981519152612116813361359c565b600160fe54116121565760405162461bcd60e51b815260206004820152600b60248201526a1b9bdd081cdd185c9d195960aa1b6044820152606401610e86565b6101035460ff161561217a5760405162461bcd60e51b8152600401610e8690615235565b6000600160fe5461218b91906156dd565b600081815261010060205260409020600381015491925090156121f05760405162461bcd60e51b815260206004820152601860248201527f537472696b6520507269636520616c72656164792073657400000000000000006044820152606401610e86565b6020840151600382015560608401516004909101805460409095015160ff16620100000262ffffff1990951661ffff90921691909117939093179092555050565b60006000805160206157fa83398151915261224c813361359c565b6101035460ff16156122705760405162461bcd60e51b8152600401610e8690615235565b600160fe5411156122e75760006101006000600160fe5461229191906156dd565b815260200190815260200160002060030154116122e75760405162461bcd60e51b815260206004820152601460248201527314dd1c9a5ad948141c9a58d9481b9bdd081cd95d60621b6044820152606401610e86565b610103805460ff1916600190811790915560fd84905560fe5461230991615532565b60fe81815560408051610100808201835284825260006020808401828152848601838152606086018481526080870185815260a0880186815260c089018781526101035489900460ff908116151560e08c019081529d895298909652989095208751815592516001848101919091559151600284015551600383015592516004909101805496519251985115156401000000000264ff00000000199915156301000000029990991664ffff0000001993909516620100000262ffffff1990971661ffff929092169190911795909517169190911794909417909155905490911015612477576101015460005b81811015612470576000610101828154811061242157634e487b7160e01b600052603260045260246000fd5b60009182526020808320909101546001600160a01b031680835261010290915260409091208054919250901561245957805460018201555b6000905550806124688161578f565b9150506123f5565b5050612483565b610103805460ff191690555b60fe546040517f10f419fb017d3101d854d4433e414ff27f232bb2f4aae83d987ad0219efa6c9b90600090a2600160fe5411156124e8576101006000600160fe546124ce91906156dd565b815260200190815260200160002060010154925050611661565b5060009392505050565b60009182526097602090815260408084206001600160a01b0393909316845291905290205460ff1690565b61254f6040518060a0016040528060008152602001600081526020016000815260200160008152602001600081525090565b60fe5460009081526101006020819052604082206101035490929190829060ff1661257c5760fe5461258b565b600160fe5461258b91906156dd565b8152602081019190915260400160009081206101035490925061010090829060ff166125c557600160fe546125c091906156dd565b6125d4565b600260fe546125d491906156dd565b8152602001908152602001600020905060006040518060a001604052808560010154815260200161010360009054906101000a900460ff1661261757600061261d565b84600101545b8152602001836001015481526020016101065481526020016101075481525090508094505050505090565b6060603780546111aa9061575a565b6101035460ff161561267b5760405162461bcd60e51b8152600401610e8690615235565b600160fe541161269d5760405162461bcd60e51b8152600401610e86906152aa565b600081116126bd5760405162461bcd60e51b8152600401610e86906152fa565b3360009081526101096020526040902054818110156126ee5760405162461bcd60e51b8152600401610e869061531b565b6126f881836133b9565b33600090815261010960205260409020556101065461271790836133b9565b61010655604080516001808252818301909252600091602080830190803683375050604080516001808252818301909252929350600092915060208083019080368337019050509050338260008151811061278257634e487b7160e01b600052603260045260246000fd5b60200260200101906001600160a01b031690816001600160a01b03168152505083816000815181106127c457634e487b7160e01b600052603260045260246000fd5b602090810291909101015261010354604051632cb9ff9d60e11b8152620100009091046001600160a01b031690635973ff3a906128079085908590600401615161565b600060405180830381600087803b15801561282157600080fd5b505af1158015612835573d6000803e3d6000fd5b5050505050505050565b600081116128845760405162461bcd60e51b8152602060048201526012602482015271215f6173736574546f5465726d696e61746560701b6044820152606401610e86565b600160fe54116128a65760405162461bcd60e51b8152600401610e8690615345565b336000908152610102602052604090206101035460ff16156128ff5780600501548211156128e65760405162461bcd60e51b8152600401610e869061531b565b60058101546128f590836133b9565b6005820155612938565b80600401548211156129235760405162461bcd60e51b8152600401610e869061531b565b600481015461293290836133b9565b60048201555b60006101006000600160fe5461294e91906156dd565b815260200190815260200160002090506113918382600201546133b990919063ffffffff16565b600260c95414156129985760405162461bcd60e51b8152600401610e869061536a565b600260c95560fe546001106129bf5760405162461bcd60e51b8152600401610e86906152aa565b600081116129df5760405162461bcd60e51b8152600401610e86906152fa565b336000908152610108602052604090205481811015612a105760405162461bcd60e51b8152600401610e869061531b565b612a1a81836133b9565b336000908152610108602052604090205561010654612a3990836133b9565b61010681905550612a4d338360fe546140c2565b5050600160c955565b3360009081526034602090815260408083206001600160a01b038616845290915281205482811015612ad85760405162461bcd60e51b815260206004820152602560248201527f45524332303a2064656372656173656420616c6c6f77616e63652062656c6f77604482015264207a65726f60d81b6064820152608401610e86565b612ae533858584036133c5565b5060019392505050565b600061123a338484613e07565b600054610100900460ff1680612b15575060005460ff16155b612b315760405162461bcd60e51b8152600401610e869061525c565b600054610100900460ff16158015612b53576000805461ffff19166101011790555b6001600160a01b038416612b9f5760405162461bcd60e51b8152602060048201526013602482015272456d707479207661756c74206164647265737360681b6044820152606401610e86565b612ba7614224565b612bb18a8a614297565b612bb9614316565b612bc4600033614385565b612bdc6000805160206157fa83398151915283614385565b612bf46000805160206157fa83398151915285614385565b60fb805460fc80546001600160a01b038b81166001600160a81b0319909216919091178c82168015600160a01b029190911790925560ff8a81166001600160b01b03199094166201000090930261ffff1916929092179290921761010091891682021790925561010580546001600160a01b031916918716919091179055610103805461ff00191685151590920291909117905560405130907f8f61f0def895309a310dec5facf78f589cf18d834f0ba4030a5e68e32180ec9790612cba908c906151d7565b60405180910390a28015612cd4576000805461ff00191690555b50505050505050505050565b600260c9541415612d035760405162461bcd60e51b8152600401610e869061536a565b600260c95560fe54612d425760405162461bcd60e51b81526020600482015260086024820152670854dd185c9d195960c21b6044820152606401610e86565b60fc54600160a01b900460ff1615612d855760405162461bcd60e51b815260206004820152600660248201526502145524332360d41b6044820152606401610e86565b60008111612da55760405162461bcd60e51b8152600401610e86906152fa565b612db2338260fe546140c2565b612dd833612dbe611d73565b60fb546201000090046001600160a01b031691908461438f565b50600160c955565b6000805160206157fa833981519152612df9813361359c565b600260c9541415612e1c5760405162461bcd60e51b8152600401610e869061536a565b600260c95560fe54600110612e615760405162461bcd60e51b815260206004820152600b60248201526a1b9bdd081cdd185c9d195960aa1b6044820152606401610e86565b600260fe5411158015612e7857506101035460ff16155b15612e8c57610103805460ff191660011790555b6101035460ff16612eaf5760405162461bcd60e51b8152600401610e86906152cf565b6000600160fe54612ec091906156dd565b600081815261010060205260409020600181015491925090612ee39030906143e9565b6101015460005b818110156130035760006101018281548110612f1657634e487b7160e01b600052603260045260246000fd5b60009182526020808320909101546001600160a01b0316808352610102909152604090912060018101549192509015612fb257612f5830838360010154613e07565b60048501548554604080513081526001600160a01b038616602082015261ffff9093169083015260608201527fe32540b403abb4ebf4396862a5996e4798b57d9312e048b14b0e0e5e3fb9eaeb9060800160405180910390a15b600581015415612fd057600581018054600483015560009055612fd8565b600060048201555b6001810154612fe89082906144c8565b60006001909101555080612ffb8161578f565b915050612eea565b50600083815260ff60205260408082204390555184917ffa513f17b83baf0c2da337ab931a96429f75c55f0ee2115b7acd007a1a35dd5191a25050610103805460ff191690555050600160c955565b600061305e813361359c565b6001600160a01b0382163014156130b75760405162461bcd60e51b815260206004820181905260248201527f43616e6e6f74207365742073656c6620617320636f756e7465722070617274796044820152606401610e86565b50610103805462010000600160b01b031916620100006001600160a01b039390931692830217905561010480546001600160a01b0319169091179055565b600082815260976020526040902060010154613111813361359c565b611c1b838361405b565b600260c954141561313e5760405162461bcd60e51b8152600401610e869061536a565b600260c955806131605760405162461bcd60e51b8152600401610e86906152fa565b3360009081526101026020526040902080548211156131915760405162461bcd60e51b8152600401610e869061520a565b805461319d90836133b9565b815560fe5460009081526101006020526040902060018101546131c090846133b9565b6001808301919091556101055460fb546040516309777fbf60e11b81526001600160a01b03928316936312eeff7e9361320a9333938a936201000090920490921691600401615137565b600060405180830381600087803b15801561322457600080fd5b505af1158015613238573d6000803e3d6000fd5b505060fb54604051868152620100009091046001600160a01b031692503391507f9b1bfa7fa9ee420a16e124f794c35ac9f90472acc99140eb2f6447c714cad8eb9060200160405180910390a35050600160c95550565b600260c95414156132b25760405162461bcd60e51b8152600401610e869061536a565b600260c95560fe546132f15760405162461bcd60e51b81526020600482015260086024820152670854dd185c9d195960c21b6044820152606401610e86565b60fc54600160a01b900460ff166133335760405162461bcd60e51b8152600401610e86906020808252600490820152630428aa8960e31b604082015260600190565b6000341161336c5760405162461bcd60e51b81526020600482015260066024820152652176616c756560d01b6044820152606401610e86565b613379333460fe546140c2565b613381611d73565b6001600160a01b03166108fc349081150290604051600060405180830381858888f19350505050158015612dd8573d6000803e3d6000fd5b6000611bee82846156dd565b6001600160a01b0383166134275760405162461bcd60e51b8152602060048201526024808201527f45524332303a20617070726f76652066726f6d20746865207a65726f206164646044820152637265737360e01b6064820152608401610e86565b6001600160a01b0382166134885760405162461bcd60e51b815260206004820152602260248201527f45524332303a20617070726f766520746f20746865207a65726f206164647265604482015261737360f01b6064820152608401610e86565b6001600160a01b0383811660008181526034602090815260408083209487168084529482529182902085905590518481527f8c5be1e5ebec7d5bd14f71427d1e84f3dd0314c0f7b2291e5b200ac8c7c3b925910160405180910390a3505050565b6000611bee8284615532565b600382015460009060ff83166101009091046001600160e81b03161161351d57506000611195565b600160ff83161061352d57600080fd5b600383015460009060019061354690859060ff1661569c565b613550919061569c565b905060008160000b121561356c576135696001826154c7565b90505b836002018160ff166001811061359257634e487b7160e01b600052603260045260246000fd5b0154949350505050565b6135a682826124f2565b611d33576135be816001600160a01b0316601461457c565b6135c983602061457c565b6040516020016135da9291906150c2565b60408051601f198184030181529082905262461bcd60e51b8252610e86916004016151d7565b613608614b0a565b600060405180610120016040528060008152602001600081526020016000815260200160008152602001600081526020016000815260200160008152602001600081526020018460000151815250905083156137c35761010354600090610100900460ff166136d15760fb546136cc906136869060ff16600a6155d2565b6136c686606001516136c660fb60019054906101000a900460ff168960a001516136b0919061554a565b6136bb90600a6155d2565b60208a01519061475e565b9061476a565b61372a565b60fb5460a085015161372a916136ec9160ff9091169061554a565b6136f790600a6155d2565b60fb546136c69061371190610100900460ff16600a6155d2565b606088015160208901516137249161475e565b9061475e565b9050600061374f6127106136c6876080015161ffff168561475e90919063ffffffff16565b6040860151909150156137915761376f8286604001518760200151614776565b83604001818152505061378b8186604001518760200151614776565b60608401525b60408301516137a19083906133b9565b60c084015260608301516137b69082906133b9565b60e084015250611bee9050565b602083015160808401516000906137e790612710906136c690859061ffff1661475e565b604086015190915015613824576138078286604001518760200151614776565b83526040850151602086015161381e918391614776565b60208401525b82516138319083906133b9565b608084015260208301516138469082906133b9565b60a084015250509392505050565b610101546040830151602084015160009161386f91906133b9565b9050846139f4576000600160fe5461388791906156dd565b6020850151855191925060009161389d916134e9565b905060006138bc8660a0015187608001516134e990919063ffffffff16565b905060005b858110156139e957600061010182815481106138ed57634e487b7160e01b600052603260045260246000fd5b60009182526020808320909101546001600160a01b0316808352610102909152604082209092509061391f82826134f5565b90508061393557506000600490910155506139d7565b600061394a8784600401548e60400151614776565b90508015613991576001600160a01b0384166000908152610108602052604090205461397690826134e9565b6001600160a01b038516600090815261010860205260409020555b60006139b4876139ae8660040154866133b990919063ffffffff16565b8c614776565b905080156139c7576139c785828b6140c2565b6000846004018190555050505050505b806139e18161578f565b9150506138c1565b505050505050505050565b6000613a11846060015185604001516134e990919063ffffffff16565b60e0850151909150600090613a2690806134e9565b905060005b84811015613bc35760006101018281548110613a5757634e487b7160e01b600052603260045260246000fd5b60009182526020808320909101546001600160a01b03168083526101029091526040822090925090613a8982826134f5565b905080613a9f5750600060049091015550613bb1565b6000613ab48784600401548d60400151614776565b90508015613afb576001600160a01b03841660009081526101096020526040902054613ae090826134e9565b6001600160a01b038516600090815261010960205260409020555b6000613b1e87613b188660040154866133b990919063ffffffff16565b8b614776565b90508015613ba15761010b805460018082019092557fc4a0eda7235d7f6fd09c1e1f9f82dc3264d0d2f064cb41576c42a996a7be28920182905561010a805491820181556000527fc588bd85af64879c0999911852d2549e38c750e7e4e194eb8891b0913e93b12c0180546001600160a01b0319166001600160a01b0387161790555b6000846004018190555050505050505b80613bbb8161578f565b915050613a2b565b5061010b5480613bd7575050505050505050565b60008167ffffffffffffffff811115613c0057634e487b7160e01b600052604160045260246000fd5b604051908082528060200260200182016040528015613c29578160200160208202803683370190505b50905060008267ffffffffffffffff811115613c5557634e487b7160e01b600052604160045260246000fd5b604051908082528060200260200182016040528015613c7e578160200160208202803683370190505b50905060005b83811015613d765761010a8181548110613cae57634e487b7160e01b600052603260045260246000fd5b9060005260206000200160009054906101000a90046001600160a01b0316838281518110613cec57634e487b7160e01b600052603260045260246000fd5b60200260200101906001600160a01b031690816001600160a01b03168152505061010b8181548110613d2e57634e487b7160e01b600052603260045260246000fd5b9060005260206000200154828281518110613d5957634e487b7160e01b600052603260045260246000fd5b602090810291909101015280613d6e8161578f565b915050613c84565b50613d8461010a6000614b56565b613d9161010b6000614b56565b61010354604051632cb9ff9d60e11b8152620100009091046001600160a01b031690635973ff3a90613dc99085908590600401615161565b600060405180830381600087803b158015613de357600080fd5b505af1158015613df7573d6000803e3d6000fd5b5050505050505050505050505050565b6001600160a01b038316613e6b5760405162461bcd60e51b815260206004820152602560248201527f45524332303a207472616e736665722066726f6d20746865207a65726f206164604482015264647265737360d81b6064820152608401610e86565b6001600160a01b038216613ecd5760405162461bcd60e51b815260206004820152602360248201527f45524332303a207472616e7366657220746f20746865207a65726f206164647260448201526265737360e81b6064820152608401610e86565b6001600160a01b03831660009081526033602052604090205481811015613f455760405162461bcd60e51b815260206004820152602660248201527f45524332303a207472616e7366657220616d6f756e7420657863656564732062604482015265616c616e636560d01b6064820152608401610e86565b6001600160a01b03808516600090815260336020526040808220858503905591851681529081208054849290613f7c908490615532565b92505081905550826001600160a01b0316846001600160a01b03167fddf252ad1be2c89b69c2b068fc378daa952ba7f163c4a11628f55a4df523b3ef84604051613fc891815260200190565b60405180910390a3611e92565b613fdf82826124f2565b611d335760008281526097602090815260408083206001600160a01b03851684529091529020805460ff191660011790556140173390565b6001600160a01b0316816001600160a01b0316837f2f8788117e7eff1d82e926ec794901d17c78024a50270940304540a733656f0d60405160405180910390a45050565b61406582826124f2565b15611d335760008281526097602090815260408083206001600160a01b0385168085529252808320805460ff1916905551339285917ff6391f5c32d9c69d2a47ea670b442974b53935d1edc7fd64eb21e047a839171b9190a45050565b60008181526101006020526040902060fd5460018201546140e390856134e9565b11156141245760405162461bcd60e51b815260206004820152601060248201526f4e6f7420656e6f7567682071756f746160801b6044820152606401610e86565b6001600160a01b0384166000908152610102602052604090206003810154600160f01b900460ff166141b45760038101805460ff60f01b1916600160f01b17905561010180546001810182556000919091527f109ea3cebb188b9c1b9fc5bb3920be60dfdc8699098dff92f3d80daaca7476890180546001600160a01b0387166001600160a01b03199091161790555b80546141c090856134e9565b815560018201546141d190856134e9565b60018301556040805185815230602082015284916001600160a01b0388169133917ff5dd9317b9e63ac316ce44acc85f670b54b339cfa3e9076e1dd55065b922314b910160405180910390a45050505050565b600054610100900460ff168061423d575060005460ff16155b6142595760405162461bcd60e51b8152600401610e869061525c565b600054610100900460ff1615801561427b576000805461ffff19166101011790555b6142836147be565b8015611f7e576000805461ff001916905550565b600054610100900460ff16806142b0575060005460ff16155b6142cc5760405162461bcd60e51b8152600401610e869061525c565b600054610100900460ff161580156142ee576000805461ffff19166101011790555b6142f661482e565b6143008383614898565b8015611c1b576000805461ff0019169055505050565b600054610100900460ff168061432f575060005460ff16155b61434b5760405162461bcd60e51b8152600401610e869061525c565b600054610100900460ff1615801561436d576000805461ffff19166101011790555b61437561482e565b61437d61482e565b61428361482e565b611d338282613fd5565b604080516001600160a01b0385811660248301528416604482015260648082018490528251808303909101815260849091019091526020810180516001600160e01b03166323b872dd60e01b179052611e9290859061492d565b6001600160a01b03821661443f5760405162461bcd60e51b815260206004820152601f60248201527f45524332303a206d696e7420746f20746865207a65726f2061646472657373006044820152606401610e86565b80603560008282546144519190615532565b90915550506001600160a01b0382166000908152603360205260408120805483929061447e908490615532565b90915550506040518181526001600160a01b038316906000907fddf252ad1be2c89b69c2b068fc378daa952ba7f163c4a11628f55a4df523b3ef9060200160405180910390a35050565b600382015460ff16816002840182600181106144f457634e487b7160e01b600052603260045260246000fd5b015560006145036001806156f4565b60ff16821461451c57614517826001615532565b61451f565b60005b60038501805460ff191660ff8316179081905590915061454e9061010090046001600160e81b03166001615507565b8460030160016101000a8154816001600160e81b0302191690836001600160e81b0316021790555050505050565b6060600061458b83600261567d565b614596906002615532565b67ffffffffffffffff8111156145bc57634e487b7160e01b600052604160045260246000fd5b6040519080825280601f01601f1916602001820160405280156145e6576020820181803683370190505b509050600360fc1b8160008151811061460f57634e487b7160e01b600052603260045260246000fd5b60200101906001600160f81b031916908160001a905350600f60fb1b8160018151811061464c57634e487b7160e01b600052603260045260246000fd5b60200101906001600160f81b031916908160001a905350600061467084600261567d565b61467b906001615532565b90505b600181111561470f576f181899199a1a9b1b9c1cb0b131b232b360811b85600f16601081106146bd57634e487b7160e01b600052603260045260246000fd5b1a60f81b8282815181106146e157634e487b7160e01b600052603260045260246000fd5b60200101906001600160f81b031916908160001a90535060049490941c9361470881615743565b905061467e565b508315611bee5760405162461bcd60e51b815260206004820181905260248201527f537472696e67733a20686578206c656e67746820696e73756666696369656e746044820152606401610e86565b6000611bee828461567d565b6000611bee828461556f565b6000821580614783575081155b8061478c575083155b1561479957506000611bee565b818310156147b4576147af826136c6868661475e565b6147b6565b835b949350505050565b600054610100900460ff16806147d7575060005460ff16155b6147f35760405162461bcd60e51b8152600401610e869061525c565b600054610100900460ff16158015614815576000805461ffff19166101011790555b600160c9558015611f7e576000805461ff001916905550565b600054610100900460ff1680614847575060005460ff16155b6148635760405162461bcd60e51b8152600401610e869061525c565b600054610100900460ff16158015614283576000805461ffff19166101011790558015611f7e576000805461ff001916905550565b600054610100900460ff16806148b1575060005460ff16155b6148cd5760405162461bcd60e51b8152600401610e869061525c565b600054610100900460ff161580156148ef576000805461ffff19166101011790555b8251614902906036906020860190614b74565b508151614916906037906020850190614b74565b508015611c1b576000805461ff0019169055505050565b6000614982826040518060400160405280602081526020017f5361666545524332303a206c6f772d6c6576656c2063616c6c206661696c6564815250856001600160a01b03166149ff9092919063ffffffff16565b805190915015611c1b57808060200190518101906149a09190614ecd565b611c1b5760405162461bcd60e51b815260206004820152602a60248201527f5361666545524332303a204552433230206f7065726174696f6e20646964206e6044820152691bdd081cdd58d8d9595960b21b6064820152608401610e86565b60606147b6848460008585843b614a585760405162461bcd60e51b815260206004820152601d60248201527f416464726573733a2063616c6c20746f206e6f6e2d636f6e74726163740000006044820152606401610e86565b600080866001600160a01b03168587604051614a7491906150a6565b60006040518083038185875af1925050503d8060008114614ab1576040519150601f19603f3d011682016040523d82523d6000602084013e614ab6565b606091505b5091509150614ac6828286614ad1565b979650505050505050565b60608315614ae0575081611bee565b825115614af05782518084602001fd5b8160405162461bcd60e51b8152600401610e8691906151d7565b6040518061012001604052806000815260200160008152602001600081526020016000815260200160008152602001600081526020016000815260200160008152602001600081525090565b5080546000825590600052602060002090810190611f7e9190614bf8565b828054614b809061575a565b90600052602060002090601f016020900481019282614ba25760008555614be8565b82601f10614bbb57805160ff1916838001178555614be8565b82800160010185558215614be8579182015b82811115614be8578251825591602001919060010190614bcd565b50614bf4929150614bf8565b5090565b5b80821115614bf45760008155600101614bf9565b8035614c18816157d6565b919050565b600082601f830112614c2d578081fd5b81356020614c42614c3d836154a3565b615472565b80838252828201915082860187848660051b8901011115614c61578586fd5b855b85811015614c7f57813584529284019290840190600101614c63565b5090979650505050505050565b8035614c18816157eb565b600082601f830112614ca7578081fd5b813567ffffffffffffffff811115614cc157614cc16157c0565b614cd4601f8201601f1916602001615472565b818152846020838601011115614ce8578283fd5b816020850160208301379081016020019190915292915050565b803560ff81168114614c1857600080fd5b600060208284031215614d24578081fd5b8135611bee816157d6565b600060208284031215614d40578081fd5b8151611bee816157d6565b60008060408385031215614d5d578081fd5b8235614d68816157d6565b91506020830135614d78816157d6565b809150509250929050565b600080600060608486031215614d97578081fd5b8335614da2816157d6565b92506020840135614db2816157d6565b929592945050506040919091013590565b60008060408385031215614dd5578182fd5b8235614de0816157d6565b946020939093013593505050565b60008060408385031215614e00578182fd5b823567ffffffffffffffff80821115614e17578384fd5b818501915085601f830112614e2a578384fd5b81356020614e3a614c3d836154a3565b8083825282820191508286018a848660051b8901011115614e59578889fd5b8896505b84871015614e84578035614e70816157d6565b835260019690960195918301918301614e5d565b5096505086013592505080821115614e9a578283fd5b50614ea785828601614c1d565b9150509250929050565b600060208284031215614ec2578081fd5b8135611bee816157eb565b600060208284031215614ede578081fd5b8151611bee816157eb565b600060208284031215614efa578081fd5b5035919050565b60008060408385031215614f13578182fd5b823591506020830135614d78816157d6565b600060208284031215614f36578081fd5b81356001600160e01b031981168114611bee578182fd5b60008060008060008060008060006101208a8c031215614f6b578687fd5b893567ffffffffffffffff80821115614f82578889fd5b614f8e8d838e01614c97565b9a5060208c0135915080821115614fa3578889fd5b50614fb08c828d01614c97565b98505060408a0135614fc1816157d6565b965060608a0135614fd1816157d6565b9550614fdf60808b01614d02565b9450614fed60a08b01614d02565b9350614ffb60c08b01614c0d565b925061500960e08b01614c8c565b91506150186101008b01614c0d565b90509295985092959850929598565b600060808284031215615038578081fd5b6040516080810181811067ffffffffffffffff8211171561505b5761505b6157c0565b6040528235615069816157d6565b81526020838101359082015261508160408401614d02565b6040820152606083013561ffff8116811461509a578283fd5b60608201529392505050565b600082516150b8818460208701615717565b9190910192915050565b7f416363657373436f6e74726f6c3a206163636f756e74200000000000000000008152600083516150fa816017850160208801615717565b7001034b99036b4b9b9b4b733903937b6329607d1b601791840191820152835161512b816028840160208801615717565b01602801949350505050565b6001600160a01b039485168152602081019390935292166040820152901515606082015260800190565b604080825283519082018190526000906020906060840190828701845b828110156151a35781516001600160a01b03168452928401929084019060010161517e565b50505083810382850152845180825285830191830190845b81811015614c7f578351835292840192918401916001016151bb565b60208152600082518060208401526151f6816040850160208701615717565b601f01601f19169190910160400192915050565b6020808252601190820152704578636565647320617661696c61626c6560781b604082015260600190565b6020808252600d908201526c10995a5b99c81cd95d1d1b1959609a1b604082015260600190565b6020808252602e908201527f496e697469616c697a61626c653a20636f6e747261637420697320616c72656160408201526d191e481a5b9a5d1a585b1a5e995960921b606082015260800190565b6020808252600b908201526a08539bc813585d1d5c995960aa1b604082015260600190565b602080825260119082015270139bdd0818995a5b99c81cd95d1d1b1959607a1b604082015260600190565b60208082526007908201526608585b5bdd5b9d60ca1b604082015260600190565b60208082526010908201526f45786365656420617661696c61626c6560801b604082015260600190565b6020808252600b908201526a4e6f206f6e20676f696e6760a81b604082015260600190565b6020808252601f908201527f5265656e7472616e637947756172643a207265656e7472616e742063616c6c00604082015260600190565b60a08101611195828480518252602081015160208301526040810151604083015260608101516060830152608081015160808301525050565b81516001600160a01b03168152610180810160208301516020830152604083015160408301526060830151615413606084018215159052565b506080830151608083015260a083015160a083015260c083015160c083015260e083015160e083015261010080840151818401525061012080840151818401525061014080840151818401525061016080840151818401525092915050565b604051601f8201601f1916810167ffffffffffffffff8111828210171561549b5761549b6157c0565b604052919050565b600067ffffffffffffffff8211156154bd576154bd6157c0565b5060051b60200190565b600081810b83820b82821282607f038213811516156154e8576154e86157aa565b82607f190382128116156154fe576154fe6157aa565b50019392505050565b60006001600160e81b03828116848216808303821115615529576155296157aa565b01949350505050565b60008219821115615545576155456157aa565b500190565b600060ff821660ff84168060ff03821115615567576155676157aa565b019392505050565b60008261558a57634e487b7160e01b81526012600452602481fd5b500490565b600181815b808511156155ca5781600019048211156155b0576155b06157aa565b808516156155bd57918102915b93841c9390800290615594565b509250929050565b6000611bee60ff8416836000826155eb57506001611195565b816155f857506000611195565b816001811461560e576002811461561857615634565b6001915050611195565b60ff841115615629576156296157aa565b50506001821b611195565b5060208310610133831016604e8410600b8410161715615657575081810a611195565b615661838361558f565b8060001904821115615675576156756157aa565b029392505050565b6000816000190483118215151615615697576156976157aa565b500290565b600081810b83820b8281128015607f198301841216156156be576156be6157aa565b81607f0183138116156156d3576156d36157aa565b5090039392505050565b6000828210156156ef576156ef6157aa565b500390565b600060ff821660ff84168082101561570e5761570e6157aa565b90039392505050565b60005b8381101561573257818101518382015260200161571a565b83811115611e925750506000910152565b600081615752576157526157aa565b506000190190565b600181811c9082168061576e57607f821691505b6020821081141561166157634e487b7160e01b600052602260045260246000fd5b60006000198214156157a3576157a36157aa565b5060010190565b634e487b7160e01b600052601160045260246000fd5b634e487b7160e01b600052604160045260246000fd5b6001600160a01b0381168114611f7e57600080fd5b8015158114611f7e57600080fdfe6666bf5bfee463d10a7fc50448047f8a53b7762d7e28fbc5c643182785f3fd3fa26469706673582212209b64d302790f6471b8417bcfb703a2954fdc7d55e4f0b7c5ba57f0bffeb3900c64736f6c63430008040033",
  "libraries": {
    "StructureData": true
  },
  "devdoc": {
    "kind": "dev",
    "methods": {
      "allowance(address,address)": {
        "details": "See {IERC20-allowance}."
      },
      "approve(address,uint256)": {
        "details": "See {IERC20-approve}. Requirements: - `spender` cannot be the zero address."
      },
      "balanceOf(address)": {
        "details": "See {IERC20-balanceOf}."
      },
      "decimals()": {
        "details": "Returns the number of decimals used to get its user representation. For example, if `decimals` equals `2`, a balance of `505` tokens should be displayed to a user as `5.05` (`505 / 10 ** 2`). Tokens usually opt for a value of 18, imitating the relationship between Ether and Wei. This is the value {ERC20} uses, unless this function is overridden; NOTE: This information is only used for _display_ purposes: it in no way affects any of the arithmetic of the contract, including {IERC20-balanceOf} and {IERC20-transfer}."
      },
      "decreaseAllowance(address,uint256)": {
        "details": "Atomically decreases the allowance granted to `spender` by the caller. This is an alternative to {approve} that can be used as a mitigation for problems described in {IERC20-approve}. Emits an {Approval} event indicating the updated allowance. Requirements: - `spender` cannot be the zero address. - `spender` must have allowance for the caller of at least `subtractedValue`."
      },
      "getRoleAdmin(bytes32)": {
        "details": "Returns the admin role that controls `role`. See {grantRole} and {revokeRole}. To change a role's admin, use {_setRoleAdmin}."
      },
      "grantRole(bytes32,address)": {
        "details": "Grants `role` to `account`. If `account` had not been already granted `role`, emits a {RoleGranted} event. Requirements: - the caller must have ``role``'s admin role."
      },
      "hasRole(bytes32,address)": {
        "details": "Returns `true` if `account` has been granted `role`."
      },
      "increaseAllowance(address,uint256)": {
        "details": "Atomically increases the allowance granted to `spender` by the caller. This is an alternative to {approve} that can be used as a mitigation for problems described in {IERC20-approve}. Emits an {Approval} event indicating the updated allowance. Requirements: - `spender` cannot be the zero address."
      },
      "name()": {
        "details": "Returns the name of the token."
      },
      "renounceRole(bytes32,address)": {
        "details": "Revokes `role` from the calling account. Roles are often managed via {grantRole} and {revokeRole}: this function's purpose is to provide a mechanism for accounts to lose their privileges if they are compromised (such as when a trusted device is misplaced). If the calling account had been granted `role`, emits a {RoleRevoked} event. Requirements: - the caller must be `account`."
      },
      "revokeRole(bytes32,address)": {
        "details": "Revokes `role` from `account`. If `account` had been granted `role`, emits a {RoleRevoked} event. Requirements: - the caller must have ``role``'s admin role."
      },
      "supportsInterface(bytes4)": {
        "details": "See {IERC165-supportsInterface}."
      },
      "symbol()": {
        "details": "Returns the symbol of the token, usually a shorter version of the name."
      },
      "totalSupply()": {
        "details": "See {IERC20-totalSupply}."
      },
      "transfer(address,uint256)": {
        "details": "See {IERC20-transfer}. Requirements: - `recipient` cannot be the zero address. - the caller must have a balance of at least `amount`."
      },
      "transferFrom(address,address,uint256)": {
        "details": "See {IERC20-transferFrom}. Emits an {Approval} event indicating the updated allowance. This is not required by the EIP. See the note at the beginning of {ERC20}. Requirements: - `sender` and `recipient` cannot be the zero address. - `sender` must have a balance of at least `amount`. - the caller must have allowance for ``sender``'s tokens of at least `amount`."
      }
    },
    "version": 1
  },
  "userdoc": {
    "kind": "user",
    "methods": {},
    "version": 1
  },
  "storageLayout": {
    "storage": [
      {
        "astId": 538,
        "contract": "contracts/PKKTHodlBoosterOption.sol:PKKTHodlBoosterOption",
        "label": "_initialized",
        "offset": 0,
        "slot": "0",
        "type": "t_bool"
      },
      {
        "astId": 541,
        "contract": "contracts/PKKTHodlBoosterOption.sol:PKKTHodlBoosterOption",
        "label": "_initializing",
        "offset": 1,
        "slot": "0",
        "type": "t_bool"
      },
      {
        "astId": 1355,
        "contract": "contracts/PKKTHodlBoosterOption.sol:PKKTHodlBoosterOption",
        "label": "__gap",
        "offset": 0,
        "slot": "1",
        "type": "t_array(t_uint256)50_storage"
      },
      {
        "astId": 655,
        "contract": "contracts/PKKTHodlBoosterOption.sol:PKKTHodlBoosterOption",
        "label": "_balances",
        "offset": 0,
        "slot": "51",
        "type": "t_mapping(t_address,t_uint256)"
      },
      {
        "astId": 661,
        "contract": "contracts/PKKTHodlBoosterOption.sol:PKKTHodlBoosterOption",
        "label": "_allowances",
        "offset": 0,
        "slot": "52",
        "type": "t_mapping(t_address,t_mapping(t_address,t_uint256))"
      },
      {
        "astId": 663,
        "contract": "contracts/PKKTHodlBoosterOption.sol:PKKTHodlBoosterOption",
        "label": "_totalSupply",
        "offset": 0,
        "slot": "53",
        "type": "t_uint256"
      },
      {
        "astId": 665,
        "contract": "contracts/PKKTHodlBoosterOption.sol:PKKTHodlBoosterOption",
        "label": "_name",
        "offset": 0,
        "slot": "54",
        "type": "t_string_storage"
      },
      {
        "astId": 667,
        "contract": "contracts/PKKTHodlBoosterOption.sol:PKKTHodlBoosterOption",
        "label": "_symbol",
        "offset": 0,
        "slot": "55",
        "type": "t_string_storage"
      },
      {
        "astId": 1208,
        "contract": "contracts/PKKTHodlBoosterOption.sol:PKKTHodlBoosterOption",
        "label": "__gap",
        "offset": 0,
        "slot": "56",
        "type": "t_array(t_uint256)45_storage"
      },
      {
        "astId": 1604,
        "contract": "contracts/PKKTHodlBoosterOption.sol:PKKTHodlBoosterOption",
        "label": "__gap",
        "offset": 0,
        "slot": "101",
        "type": "t_array(t_uint256)50_storage"
      },
      {
        "astId": 48,
        "contract": "contracts/PKKTHodlBoosterOption.sol:PKKTHodlBoosterOption",
        "label": "_roles",
        "offset": 0,
        "slot": "151",
        "type": "t_mapping(t_bytes32,t_struct(RoleData)43_storage)"
      },
      {
        "astId": 333,
        "contract": "contracts/PKKTHodlBoosterOption.sol:PKKTHodlBoosterOption",
        "label": "__gap",
        "offset": 0,
        "slot": "152",
        "type": "t_array(t_uint256)49_storage"
      },
      {
        "astId": 592,
        "contract": "contracts/PKKTHodlBoosterOption.sol:PKKTHodlBoosterOption",
        "label": "_status",
        "offset": 0,
        "slot": "201",
        "type": "t_uint256"
      },
      {
        "astId": 635,
        "contract": "contracts/PKKTHodlBoosterOption.sol:PKKTHodlBoosterOption",
        "label": "__gap",
        "offset": 0,
        "slot": "202",
        "type": "t_array(t_uint256)49_storage"
      },
      {
        "astId": 7392,
        "contract": "contracts/PKKTHodlBoosterOption.sol:PKKTHodlBoosterOption",
        "label": "depositAssetAmountDecimals",
        "offset": 0,
        "slot": "251",
        "type": "t_uint8"
      },
      {
        "astId": 7394,
        "contract": "contracts/PKKTHodlBoosterOption.sol:PKKTHodlBoosterOption",
        "label": "counterPartyAssetAmountDecimals",
        "offset": 1,
        "slot": "251",
        "type": "t_uint8"
      },
      {
        "astId": 7396,
        "contract": "contracts/PKKTHodlBoosterOption.sol:PKKTHodlBoosterOption",
        "label": "depositAsset",
        "offset": 2,
        "slot": "251",
        "type": "t_address"
      },
      {
        "astId": 7398,
        "contract": "contracts/PKKTHodlBoosterOption.sol:PKKTHodlBoosterOption",
        "label": "counterPartyAsset",
        "offset": 0,
        "slot": "252",
        "type": "t_address"
      },
      {
        "astId": 7400,
        "contract": "contracts/PKKTHodlBoosterOption.sol:PKKTHodlBoosterOption",
        "label": "isEth",
        "offset": 20,
        "slot": "252",
        "type": "t_bool"
      },
      {
        "astId": 7402,
        "contract": "contracts/PKKTHodlBoosterOption.sol:PKKTHodlBoosterOption",
        "label": "quota",
        "offset": 0,
        "slot": "253",
        "type": "t_uint256"
      },
      {
        "astId": 7404,
        "contract": "contracts/PKKTHodlBoosterOption.sol:PKKTHodlBoosterOption",
        "label": "currentRound",
        "offset": 0,
        "slot": "254",
        "type": "t_uint256"
      },
      {
        "astId": 7408,
        "contract": "contracts/PKKTHodlBoosterOption.sol:PKKTHodlBoosterOption",
        "label": "optionHeights",
        "offset": 0,
        "slot": "255",
        "type": "t_mapping(t_uint256,t_uint256)"
      },
      {
        "astId": 7413,
        "contract": "contracts/PKKTHodlBoosterOption.sol:PKKTHodlBoosterOption",
        "label": "optionStates",
        "offset": 0,
        "slot": "256",
        "type": "t_mapping(t_uint256,t_struct(OptionState)13266_storage)"
      },
      {
        "astId": 7416,
        "contract": "contracts/PKKTHodlBoosterOption.sol:PKKTHodlBoosterOption",
        "label": "usersInvolved",
        "offset": 0,
        "slot": "257",
        "type": "t_array(t_address)dyn_storage"
      },
      {
        "astId": 7421,
        "contract": "contracts/PKKTHodlBoosterOption.sol:PKKTHodlBoosterOption",
        "label": "userStates",
        "offset": 0,
        "slot": "258",
        "type": "t_mapping(t_address,t_struct(UserState)13307_storage)"
      },
      {
        "astId": 7423,
        "contract": "contracts/PKKTHodlBoosterOption.sol:PKKTHodlBoosterOption",
        "label": "underSettlement",
        "offset": 0,
        "slot": "259",
        "type": "t_bool"
      },
      {
        "astId": 7425,
        "contract": "contracts/PKKTHodlBoosterOption.sol:PKKTHodlBoosterOption",
        "label": "callOrPut",
        "offset": 1,
        "slot": "259",
        "type": "t_bool"
      },
      {
        "astId": 7428,
        "contract": "contracts/PKKTHodlBoosterOption.sol:PKKTHodlBoosterOption",
        "label": "counterPartyOption",
        "offset": 2,
        "slot": "259",
        "type": "t_contract(IPKKTStructureOption)13129"
      },
      {
        "astId": 7430,
        "contract": "contracts/PKKTHodlBoosterOption.sol:PKKTHodlBoosterOption",
        "label": "counterParty",
        "offset": 0,
        "slot": "260",
        "type": "t_address"
      },
      {
        "astId": 7433,
        "contract": "contracts/PKKTHodlBoosterOption.sol:PKKTHodlBoosterOption",
        "label": "optionVault",
        "offset": 0,
        "slot": "261",
        "type": "t_contract(IOptionVault)13025"
      },
      {
        "astId": 7435,
        "contract": "contracts/PKKTHodlBoosterOption.sol:PKKTHodlBoosterOption",
        "label": "totalReleasedDepositAssetAmount",
        "offset": 0,
        "slot": "262",
        "type": "t_uint256"
      },
      {
        "astId": 7437,
        "contract": "contracts/PKKTHodlBoosterOption.sol:PKKTHodlBoosterOption",
        "label": "totalReleasedCounterPartyAssetAmount",
        "offset": 0,
        "slot": "263",
        "type": "t_uint256"
      },
      {
        "astId": 7441,
        "contract": "contracts/PKKTHodlBoosterOption.sol:PKKTHodlBoosterOption",
        "label": "releasedDepositAssetAmount",
        "offset": 0,
        "slot": "264",
        "type": "t_mapping(t_address,t_uint256)"
      },
      {
        "astId": 7445,
        "contract": "contracts/PKKTHodlBoosterOption.sol:PKKTHodlBoosterOption",
        "label": "releasedCounterPartyAssetAmount",
        "offset": 0,
        "slot": "265",
        "type": "t_mapping(t_address,t_uint256)"
      },
      {
        "astId": 9796,
        "contract": "contracts/PKKTHodlBoosterOption.sol:PKKTHodlBoosterOption",
        "label": "autoRolledUsers",
        "offset": 0,
        "slot": "266",
        "type": "t_array(t_address)dyn_storage"
      },
      {
        "astId": 9799,
        "contract": "contracts/PKKTHodlBoosterOption.sol:PKKTHodlBoosterOption",
        "label": "autoRolledAmounts",
        "offset": 0,
        "slot": "267",
        "type": "t_array(t_uint256)dyn_storage"
      }
    ],
    "types": {
      "t_address": {
        "encoding": "inplace",
        "label": "address",
        "numberOfBytes": "20"
      },
      "t_array(t_address)dyn_storage": {
        "base": "t_address",
        "encoding": "dynamic_array",
        "label": "address[]",
        "numberOfBytes": "32"
      },
      "t_array(t_uint256)1_storage": {
        "base": "t_uint256",
        "encoding": "inplace",
        "label": "uint256[1]",
        "numberOfBytes": "32"
      },
      "t_array(t_uint256)45_storage": {
        "base": "t_uint256",
        "encoding": "inplace",
        "label": "uint256[45]",
        "numberOfBytes": "1440"
      },
      "t_array(t_uint256)49_storage": {
        "base": "t_uint256",
        "encoding": "inplace",
        "label": "uint256[49]",
        "numberOfBytes": "1568"
      },
      "t_array(t_uint256)50_storage": {
        "base": "t_uint256",
        "encoding": "inplace",
        "label": "uint256[50]",
        "numberOfBytes": "1600"
      },
      "t_array(t_uint256)dyn_storage": {
        "base": "t_uint256",
        "encoding": "dynamic_array",
        "label": "uint256[]",
        "numberOfBytes": "32"
      },
      "t_bool": {
        "encoding": "inplace",
        "label": "bool",
        "numberOfBytes": "1"
      },
      "t_bytes32": {
        "encoding": "inplace",
        "label": "bytes32",
        "numberOfBytes": "32"
      },
      "t_contract(IOptionVault)13025": {
        "encoding": "inplace",
        "label": "contract IOptionVault",
        "numberOfBytes": "20"
      },
      "t_contract(IPKKTStructureOption)13129": {
        "encoding": "inplace",
        "label": "contract IPKKTStructureOption",
        "numberOfBytes": "20"
      },
      "t_mapping(t_address,t_bool)": {
        "encoding": "mapping",
        "key": "t_address",
        "label": "mapping(address => bool)",
        "numberOfBytes": "32",
        "value": "t_bool"
      },
      "t_mapping(t_address,t_mapping(t_address,t_uint256))": {
        "encoding": "mapping",
        "key": "t_address",
        "label": "mapping(address => mapping(address => uint256))",
        "numberOfBytes": "32",
        "value": "t_mapping(t_address,t_uint256)"
      },
      "t_mapping(t_address,t_struct(UserState)13307_storage)": {
        "encoding": "mapping",
        "key": "t_address",
        "label": "mapping(address => struct StructureData.UserState)",
        "numberOfBytes": "32",
        "value": "t_struct(UserState)13307_storage"
      },
      "t_mapping(t_address,t_uint256)": {
        "encoding": "mapping",
        "key": "t_address",
        "label": "mapping(address => uint256)",
        "numberOfBytes": "32",
        "value": "t_uint256"
      },
      "t_mapping(t_bytes32,t_struct(RoleData)43_storage)": {
        "encoding": "mapping",
        "key": "t_bytes32",
        "label": "mapping(bytes32 => struct AccessControlUpgradeable.RoleData)",
        "numberOfBytes": "32",
        "value": "t_struct(RoleData)43_storage"
      },
      "t_mapping(t_uint256,t_struct(OptionState)13266_storage)": {
        "encoding": "mapping",
        "key": "t_uint256",
        "label": "mapping(uint256 => struct StructureData.OptionState)",
        "numberOfBytes": "32",
        "value": "t_struct(OptionState)13266_storage"
      },
      "t_mapping(t_uint256,t_uint256)": {
        "encoding": "mapping",
        "key": "t_uint256",
        "label": "mapping(uint256 => uint256)",
        "numberOfBytes": "32",
        "value": "t_uint256"
      },
      "t_string_storage": {
        "encoding": "bytes",
        "label": "string",
        "numberOfBytes": "32"
      },
      "t_struct(OptionState)13266_storage": {
        "encoding": "inplace",
        "label": "struct StructureData.OptionState",
        "members": [
          {
            "astId": 13251,
            "contract": "contracts/PKKTHodlBoosterOption.sol:PKKTHodlBoosterOption",
            "label": "round",
            "offset": 0,
            "slot": "0",
            "type": "t_uint256"
          },
          {
            "astId": 13253,
            "contract": "contracts/PKKTHodlBoosterOption.sol:PKKTHodlBoosterOption",
            "label": "totalAmount",
            "offset": 0,
            "slot": "1",
            "type": "t_uint256"
          },
          {
            "astId": 13255,
            "contract": "contracts/PKKTHodlBoosterOption.sol:PKKTHodlBoosterOption",
            "label": "totalTerminate",
            "offset": 0,
            "slot": "2",
            "type": "t_uint256"
          },
          {
            "astId": 13257,
            "contract": "contracts/PKKTHodlBoosterOption.sol:PKKTHodlBoosterOption",
            "label": "strikePrice",
            "offset": 0,
            "slot": "3",
            "type": "t_uint256"
          },
          {
            "astId": 13259,
            "contract": "contracts/PKKTHodlBoosterOption.sol:PKKTHodlBoosterOption",
            "label": "premiumRate",
            "offset": 0,
            "slot": "4",
            "type": "t_uint16"
          },
          {
            "astId": 13261,
            "contract": "contracts/PKKTHodlBoosterOption.sol:PKKTHodlBoosterOption",
            "label": "pricePrecision",
            "offset": 2,
            "slot": "4",
            "type": "t_uint8"
          },
          {
            "astId": 13263,
            "contract": "contracts/PKKTHodlBoosterOption.sol:PKKTHodlBoosterOption",
            "label": "executed",
            "offset": 3,
            "slot": "4",
            "type": "t_bool"
          },
          {
            "astId": 13265,
            "contract": "contracts/PKKTHodlBoosterOption.sol:PKKTHodlBoosterOption",
            "label": "callOrPut",
            "offset": 4,
            "slot": "4",
            "type": "t_bool"
          }
        ],
        "numberOfBytes": "160"
      },
      "t_struct(RoleData)43_storage": {
        "encoding": "inplace",
        "label": "struct AccessControlUpgradeable.RoleData",
        "members": [
          {
            "astId": 40,
            "contract": "contracts/PKKTHodlBoosterOption.sol:PKKTHodlBoosterOption",
            "label": "members",
            "offset": 0,
            "slot": "0",
            "type": "t_mapping(t_address,t_bool)"
          },
          {
            "astId": 42,
            "contract": "contracts/PKKTHodlBoosterOption.sol:PKKTHodlBoosterOption",
            "label": "adminRole",
            "offset": 0,
            "slot": "1",
            "type": "t_bytes32"
          }
        ],
        "numberOfBytes": "64"
      },
      "t_struct(UserState)13307_storage": {
        "encoding": "inplace",
        "label": "struct StructureData.UserState",
        "members": [
          {
            "astId": 13290,
            "contract": "contracts/PKKTHodlBoosterOption.sol:PKKTHodlBoosterOption",
            "label": "pendingAsset",
            "offset": 0,
            "slot": "0",
            "type": "t_uint256"
          },
          {
            "astId": 13292,
            "contract": "contracts/PKKTHodlBoosterOption.sol:PKKTHodlBoosterOption",
            "label": "lockedAsset",
            "offset": 0,
            "slot": "1",
            "type": "t_uint256"
          },
          {
            "astId": 13296,
            "contract": "contracts/PKKTHodlBoosterOption.sol:PKKTHodlBoosterOption",
            "label": "ongoingAsset",
            "offset": 0,
            "slot": "2",
            "type": "t_array(t_uint256)1_storage"
          },
          {
            "astId": 13298,
            "contract": "contracts/PKKTHodlBoosterOption.sol:PKKTHodlBoosterOption",
            "label": "nextCursor",
            "offset": 0,
            "slot": "3",
            "type": "t_uint8"
          },
          {
            "astId": 13300,
            "contract": "contracts/PKKTHodlBoosterOption.sol:PKKTHodlBoosterOption",
            "label": "totalRound",
            "offset": 1,
            "slot": "3",
            "type": "t_uint232"
          },
          {
            "astId": 13302,
            "contract": "contracts/PKKTHodlBoosterOption.sol:PKKTHodlBoosterOption",
            "label": "hasState",
            "offset": 30,
            "slot": "3",
            "type": "t_bool"
          },
          {
            "astId": 13304,
            "contract": "contracts/PKKTHodlBoosterOption.sol:PKKTHodlBoosterOption",
            "label": "assetToTerminate",
            "offset": 0,
            "slot": "4",
            "type": "t_uint256"
          },
          {
            "astId": 13306,
            "contract": "contracts/PKKTHodlBoosterOption.sol:PKKTHodlBoosterOption",
            "label": "assetToTerminateForNextRound",
            "offset": 0,
            "slot": "5",
            "type": "t_uint256"
          }
        ],
        "numberOfBytes": "192"
      },
      "t_uint16": {
        "encoding": "inplace",
        "label": "uint16",
        "numberOfBytes": "2"
      },
      "t_uint232": {
        "encoding": "inplace",
        "label": "uint232",
        "numberOfBytes": "29"
      },
      "t_uint256": {
        "encoding": "inplace",
        "label": "uint256",
        "numberOfBytes": "32"
      },
      "t_uint8": {
        "encoding": "inplace",
        "label": "uint8",
        "numberOfBytes": "1"
      }
    }
  }
}