{
  "address": "0x003De26CEdCd59320F2d656f2C59E95c917c46Bf",
  "abi": [
    {
      "anonymous": false,
      "inputs": [
        {
          "indexed": true,
          "internalType": "uint8",
          "name": "optionId",
          "type": "uint8"
        },
        {
          "indexed": true,
          "internalType": "address",
          "name": "account",
          "type": "address"
        },
        {
          "indexed": true,
          "internalType": "uint16",
          "name": "round",
          "type": "uint16"
        },
        {
          "indexed": false,
          "internalType": "uint256",
          "name": "amount",
          "type": "uint256"
        }
      ],
      "name": "Deposit",
      "type": "event"
    },
    {
      "anonymous": false,
      "inputs": [
        {
          "indexed": true,
          "internalType": "address",
          "name": "previousOwner",
          "type": "address"
        },
        {
          "indexed": true,
          "internalType": "address",
          "name": "newOwner",
          "type": "address"
        }
      ],
      "name": "OwnershipTransferred",
      "type": "event"
    },
    {
      "anonymous": false,
      "inputs": [
        {
          "indexed": true,
          "internalType": "address",
          "name": "previousSettler",
          "type": "address"
        },
        {
          "indexed": true,
          "internalType": "address",
          "name": "newSettler",
          "type": "address"
        }
      ],
      "name": "SettlerChanged",
      "type": "event"
    },
    {
      "anonymous": false,
      "inputs": [
        {
          "indexed": true,
          "internalType": "uint8",
          "name": "optionId",
          "type": "uint8"
        },
        {
          "indexed": true,
          "internalType": "address",
          "name": "account",
          "type": "address"
        },
        {
          "indexed": true,
          "internalType": "address",
          "name": "asset",
          "type": "address"
        },
        {
          "indexed": false,
          "internalType": "uint256",
          "name": "amount",
          "type": "uint256"
        }
      ],
      "name": "Withdraw",
      "type": "event"
    },
    {
      "inputs": [
        {
          "components": [
            {
              "internalType": "uint8",
              "name": "callOptionId",
              "type": "uint8"
            },
            {
              "internalType": "uint8",
              "name": "putOptionId",
              "type": "uint8"
            },
            {
              "internalType": "uint8",
              "name": "depositAssetAmountDecimals",
              "type": "uint8"
            },
            {
              "internalType": "uint8",
              "name": "counterPartyAssetAmountDecimals",
              "type": "uint8"
            },
            {
              "internalType": "address",
              "name": "depositAsset",
              "type": "address"
            },
            {
              "internalType": "address",
              "name": "counterPartyAsset",
              "type": "address"
            },
            {
              "internalType": "bool",
              "name": "manualDepositDisabled",
              "type": "bool"
            }
          ],
          "internalType": "struct StructureData.OptionPairDefinition[]",
          "name": "_optionPairDefinitions",
          "type": "tuple[]"
        }
      ],
      "name": "addOptionPairs",
      "outputs": [],
      "stateMutability": "nonpayable",
      "type": "function"
    },
    {
      "inputs": [
        {
          "internalType": "address",
          "name": "_asset",
          "type": "address"
        }
      ],
      "name": "balanceEnough",
      "outputs": [
        {
          "internalType": "bool",
          "name": "",
          "type": "bool"
        }
      ],
      "stateMutability": "view",
      "type": "function"
    },
    {
      "inputs": [
        {
          "internalType": "address",
          "name": "_trader",
          "type": "address"
        },
        {
          "internalType": "address[]",
          "name": "_assets",
          "type": "address[]"
        }
      ],
      "name": "batchWithdrawAssets",
      "outputs": [],
      "stateMutability": "nonpayable",
      "type": "function"
    },
    {
      "inputs": [
        {
          "internalType": "uint8",
          "name": "_optionId",
          "type": "uint8"
        },
        {
          "internalType": "uint256",
          "name": "_assetToTerminate",
          "type": "uint256"
        }
      ],
      "name": "cancelWithdraw",
      "outputs": [],
      "stateMutability": "nonpayable",
      "type": "function"
    },
    {
      "inputs": [],
      "name": "currentRound",
      "outputs": [
        {
          "internalType": "uint16",
          "name": "",
          "type": "uint16"
        }
      ],
      "stateMutability": "view",
      "type": "function"
    },
    {
      "inputs": [
        {
          "internalType": "uint8",
          "name": "_optionId",
          "type": "uint8"
        },
        {
          "internalType": "uint256",
          "name": "_amount",
          "type": "uint256"
        }
      ],
      "name": "deposit",
      "outputs": [],
      "stateMutability": "nonpayable",
      "type": "function"
    },
    {
      "inputs": [
        {
          "internalType": "uint8",
          "name": "_optionId",
          "type": "uint8"
        }
      ],
      "name": "depositETH",
      "outputs": [],
      "stateMutability": "payable",
      "type": "function"
    },
    {
      "inputs": [
        {
          "internalType": "uint8",
          "name": "",
          "type": "uint8"
        }
      ],
      "name": "executionAccountingResult",
      "outputs": [
        {
          "components": [
            {
              "internalType": "uint128",
              "name": "depositAmount",
              "type": "uint128"
            },
            {
              "internalType": "uint128",
              "name": "autoRollAmount",
              "type": "uint128"
            },
            {
              "internalType": "uint128",
              "name": "autoRollPremium",
              "type": "uint128"
            },
            {
              "internalType": "uint128",
              "name": "releasedAmount",
              "type": "uint128"
            },
            {
              "internalType": "uint128",
              "name": "releasedPremium",
              "type": "uint128"
            },
            {
              "internalType": "uint128",
              "name": "autoRollCounterPartyAmount",
              "type": "uint128"
            },
            {
              "internalType": "uint128",
              "name": "autoRollCounterPartyPremium",
              "type": "uint128"
            },
            {
              "internalType": "uint128",
              "name": "releasedCounterPartyAmount",
              "type": "uint128"
            },
            {
              "internalType": "uint128",
              "name": "releasedCounterPartyPremium",
              "type": "uint128"
            },
            {
              "internalType": "bool",
              "name": "executed",
              "type": "bool"
            }
          ],
          "internalType": "struct StructureData.SettlementAccountingResult",
          "name": "callOptionResult",
          "type": "tuple"
        },
        {
          "components": [
            {
              "internalType": "uint128",
              "name": "depositAmount",
              "type": "uint128"
            },
            {
              "internalType": "uint128",
              "name": "autoRollAmount",
              "type": "uint128"
            },
            {
              "internalType": "uint128",
              "name": "autoRollPremium",
              "type": "uint128"
            },
            {
              "internalType": "uint128",
              "name": "releasedAmount",
              "type": "uint128"
            },
            {
              "internalType": "uint128",
              "name": "releasedPremium",
              "type": "uint128"
            },
            {
              "internalType": "uint128",
              "name": "autoRollCounterPartyAmount",
              "type": "uint128"
            },
            {
              "internalType": "uint128",
              "name": "autoRollCounterPartyPremium",
              "type": "uint128"
            },
            {
              "internalType": "uint128",
              "name": "releasedCounterPartyAmount",
              "type": "uint128"
            },
            {
              "internalType": "uint128",
              "name": "releasedCounterPartyPremium",
              "type": "uint128"
            },
            {
              "internalType": "bool",
              "name": "executed",
              "type": "bool"
            }
          ],
          "internalType": "struct StructureData.SettlementAccountingResult",
          "name": "putOptionResult",
          "type": "tuple"
        },
        {
          "internalType": "enum StructureData.OptionExecution",
          "name": "execute",
          "type": "uint8"
        }
      ],
      "stateMutability": "view",
      "type": "function"
    },
    {
      "inputs": [
        {
          "internalType": "uint8",
          "name": "_optionId",
          "type": "uint8"
        }
      ],
      "name": "getAccountBalance",
      "outputs": [
        {
          "components": [
            {
              "internalType": "uint128",
              "name": "pendingDepositAssetAmount",
              "type": "uint128"
            },
            {
              "internalType": "uint128",
              "name": "lockedDepositAssetAmount",
              "type": "uint128"
            },
            {
              "internalType": "uint128",
              "name": "terminatingDepositAssetAmount",
              "type": "uint128"
            },
            {
              "internalType": "uint128",
              "name": "toTerminateDepositAssetAmount",
              "type": "uint128"
            },
            {
              "internalType": "uint128",
              "name": "releasedDepositAssetAmount",
              "type": "uint128"
            },
            {
              "internalType": "uint128",
              "name": "releasedCounterPartyAssetAmount",
              "type": "uint128"
            }
          ],
          "internalType": "struct StructureData.UserBalance",
          "name": "",
          "type": "tuple"
        }
      ],
      "stateMutability": "view",
      "type": "function"
    },
    {
      "inputs": [
        {
          "internalType": "uint8",
          "name": "_optionId",
          "type": "uint8"
        }
      ],
      "name": "getOptionSnapShot",
      "outputs": [
        {
          "components": [
            {
              "internalType": "uint128",
              "name": "totalPending",
              "type": "uint128"
            },
            {
              "internalType": "uint128",
              "name": "totalLocked",
              "type": "uint128"
            },
            {
              "internalType": "uint128",
              "name": "totalTerminating",
              "type": "uint128"
            },
            {
              "internalType": "uint128",
              "name": "totalToTerminate",
              "type": "uint128"
            },
            {
              "internalType": "uint128",
              "name": "totalReleasedDeposit",
              "type": "uint128"
            },
            {
              "internalType": "uint128",
              "name": "totalReleasedCounterParty",
              "type": "uint128"
            }
          ],
          "internalType": "struct StructureData.OptionSnapshot",
          "name": "",
          "type": "tuple"
        }
      ],
      "stateMutability": "view",
      "type": "function"
    },
    {
      "inputs": [
        {
          "internalType": "uint8",
          "name": "_optionId",
          "type": "uint8"
        },
        {
          "internalType": "uint16",
          "name": "_round",
          "type": "uint16"
        }
      ],
      "name": "getOptionStateByRound",
      "outputs": [
        {
          "components": [
            {
              "internalType": "uint128",
              "name": "totalAmount",
              "type": "uint128"
            },
            {
              "internalType": "uint128",
              "name": "totalTerminate",
              "type": "uint128"
            },
            {
              "internalType": "uint128",
              "name": "strikePrice",
              "type": "uint128"
            },
            {
              "internalType": "uint16",
              "name": "round",
              "type": "uint16"
            },
            {
              "internalType": "uint16",
              "name": "premiumRate",
              "type": "uint16"
            },
            {
              "internalType": "bool",
              "name": "executed",
              "type": "bool"
            },
            {
              "internalType": "bool",
              "name": "callOrPut",
              "type": "bool"
            }
          ],
          "internalType": "struct StructureData.OptionState",
          "name": "",
          "type": "tuple"
        }
      ],
      "stateMutability": "view",
      "type": "function"
    },
    {
      "inputs": [
        {
          "internalType": "address",
          "name": "_owner",
          "type": "address"
        },
        {
          "internalType": "address",
          "name": "_settler",
          "type": "address"
        },
        {
          "components": [
            {
              "internalType": "uint8",
              "name": "callOptionId",
              "type": "uint8"
            },
            {
              "internalType": "uint8",
              "name": "putOptionId",
              "type": "uint8"
            },
            {
              "internalType": "uint8",
              "name": "depositAssetAmountDecimals",
              "type": "uint8"
            },
            {
              "internalType": "uint8",
              "name": "counterPartyAssetAmountDecimals",
              "type": "uint8"
            },
            {
              "internalType": "address",
              "name": "depositAsset",
              "type": "address"
            },
            {
              "internalType": "address",
              "name": "counterPartyAsset",
              "type": "address"
            },
            {
              "internalType": "bool",
              "name": "manualDepositDisabled",
              "type": "bool"
            }
          ],
          "internalType": "struct StructureData.OptionPairDefinition[]",
          "name": "_optionPairDefinitions",
          "type": "tuple[]"
        }
      ],
      "name": "initialize",
      "outputs": [],
      "stateMutability": "nonpayable",
      "type": "function"
    },
    {
      "inputs": [],
      "name": "initiateSettlement",
      "outputs": [],
      "stateMutability": "nonpayable",
      "type": "function"
    },
    {
      "inputs": [
        {
          "internalType": "uint8",
          "name": "_optionId",
          "type": "uint8"
        },
        {
          "internalType": "uint256",
          "name": "_assetToTerminate",
          "type": "uint256"
        }
      ],
      "name": "initiateWithraw",
      "outputs": [],
      "stateMutability": "nonpayable",
      "type": "function"
    },
    {
      "inputs": [],
      "name": "optionPairCount",
      "outputs": [
        {
          "internalType": "uint8",
          "name": "",
          "type": "uint8"
        }
      ],
      "stateMutability": "view",
      "type": "function"
    },
    {
      "inputs": [
        {
          "internalType": "uint8",
          "name": "",
          "type": "uint8"
        }
      ],
      "name": "optionPairs",
      "outputs": [
        {
          "internalType": "uint8",
          "name": "callOptionId",
          "type": "uint8"
        },
        {
          "internalType": "uint8",
          "name": "putOptionId",
          "type": "uint8"
        },
        {
          "internalType": "uint8",
          "name": "depositAssetAmountDecimals",
          "type": "uint8"
        },
        {
          "internalType": "uint8",
          "name": "counterPartyAssetAmountDecimals",
          "type": "uint8"
        },
        {
          "internalType": "address",
          "name": "depositAsset",
          "type": "address"
        },
        {
          "internalType": "address",
          "name": "counterPartyAsset",
          "type": "address"
        },
        {
          "internalType": "bool",
          "name": "manualDepositDisabled",
          "type": "bool"
        }
      ],
      "stateMutability": "view",
      "type": "function"
    },
    {
      "inputs": [],
      "name": "owner",
      "outputs": [
        {
          "internalType": "address",
          "name": "",
          "type": "address"
        }
      ],
      "stateMutability": "view",
      "type": "function"
    },
    {
      "inputs": [],
      "name": "renounceOwnership",
      "outputs": [],
      "stateMutability": "nonpayable",
      "type": "function"
    },
    {
      "inputs": [
        {
          "internalType": "uint256[]",
          "name": "_parameters",
          "type": "uint256[]"
        }
      ],
      "name": "setOptionParameters",
      "outputs": [],
      "stateMutability": "nonpayable",
      "type": "function"
    },
    {
      "inputs": [
        {
          "internalType": "address",
          "name": "_settler",
          "type": "address"
        }
      ],
      "name": "setSettler",
      "outputs": [],
      "stateMutability": "nonpayable",
      "type": "function"
    },
    {
      "inputs": [
        {
          "internalType": "enum StructureData.OptionExecution[]",
          "name": "_execution",
          "type": "uint8[]"
        }
      ],
      "name": "settle",
      "outputs": [],
      "stateMutability": "nonpayable",
      "type": "function"
    },
    {
      "inputs": [
        {
          "internalType": "address",
          "name": "",
          "type": "address"
        }
      ],
      "name": "settlementCashflowResult",
      "outputs": [
        {
          "internalType": "uint128",
          "name": "newDepositAmount",
          "type": "uint128"
        },
        {
          "internalType": "uint128",
          "name": "newReleasedAmount",
          "type": "uint128"
        },
        {
          "internalType": "int128",
          "name": "leftOverAmount",
          "type": "int128"
        },
        {
          "internalType": "address",
          "name": "contractAddress",
          "type": "address"
        }
      ],
      "stateMutability": "view",
      "type": "function"
    },
    {
      "inputs": [
        {
          "internalType": "uint8",
          "name": "_pairId",
          "type": "uint8"
        }
      ],
      "name": "toggleOptionPairDeposit",
      "outputs": [],
      "stateMutability": "nonpayable",
      "type": "function"
    },
    {
      "inputs": [
        {
          "internalType": "address",
          "name": "newOwner",
          "type": "address"
        }
      ],
      "name": "transferOwnership",
      "outputs": [],
      "stateMutability": "nonpayable",
      "type": "function"
    },
    {
      "inputs": [],
      "name": "underSettlement",
      "outputs": [
        {
          "internalType": "bool",
          "name": "",
          "type": "bool"
        }
      ],
      "stateMutability": "view",
      "type": "function"
    },
    {
      "inputs": [
        {
          "internalType": "uint8",
          "name": "_optionId",
          "type": "uint8"
        },
        {
          "internalType": "uint256",
          "name": "_amount",
          "type": "uint256"
        },
        {
          "internalType": "address",
          "name": "_asset",
          "type": "address"
        }
      ],
      "name": "withdraw",
      "outputs": [],
      "stateMutability": "nonpayable",
      "type": "function"
    },
    {
      "inputs": [
        {
          "internalType": "address",
          "name": "_trader",
          "type": "address"
        },
        {
          "internalType": "address",
          "name": "_asset",
          "type": "address"
        }
      ],
      "name": "withdrawAsset",
      "outputs": [],
      "stateMutability": "nonpayable",
      "type": "function"
    },
    {
      "stateMutability": "payable",
      "type": "receive"
    }
  ],
  "transactionHash": "0xbaac3db60a6f948df49d659d8293342ec61317ef8bc2ebc76103a3436d6dbf69",
  "args": [],
  "solcInputHash": "1c7891ab4fc5bb9a2c7431cac13df3c0",
  "bytecode": "0x608060405234801561001057600080fd5b506151fa806100206000396000f3fe6080604052600436106101a05760003560e01c80636386bcc4116100ec5780638a19c8bc1161008a578063c78b432e11610064578063c78b432e14610871578063ddd0247514610886578063f2fde38b146108b9578063f4d4c9d7146108d957600080fd5b80638a19c8bc146106ab5780638da5cb5b146106e0578063c5cfc5be1461070857600080fd5b806371018682116100c657806371018682146105bd578063715018a6146105dd5780637332655b146105f257806383eb772e1461061257600080fd5b80636386bcc4146104ad578063644d41ed146105705780636b37e4e31461059057600080fd5b806326b516991161015957806351fe669e1161013357806351fe669e146102d757806355bf621f1461044d5780635d3e0e4d1461046d5780635edae4db1461048d57600080fd5b806326b516991461027757806332b76e86146102975780634dd96f86146102b757600080fd5b806302c178d7146101ac5780630748248f146101ce57806307f19eba1461020457806310a1f8b414610224578063222f6b8314610244578063256d43d71461026457600080fd5b366101a757005b600080fd5b3480156101b857600080fd5b506101cc6101c73660046145c7565b6108f9565b005b3480156101da57600080fd5b506066546101ef90600160c01b900460ff1681565b60405190151581526020015b60405180910390f35b34801561021057600080fd5b506101cc61021f3660046145ad565b610a4a565b34801561023057600080fd5b506101cc61023f3660046145f9565b610a80565b34801561025057600080fd5b506101cc61025f366004614a7f565b610b4f565b6101cc610272366004614a29565b610c37565b34801561028357600080fd5b506101cc610292366004614655565b610e8c565b3480156102a357600080fd5b506101cc6102b2366004614702565b611076565b3480156102c357600080fd5b506101cc6102d23660046147d4565b611820565b3480156102e357600080fd5b5061043e6102f2366004614a29565b606a602090815260009182526040918290208251610140808201855282546001600160801b038082168452600160801b918290048116848701526001850154808216858901528290048116606080860191909152600286015480831660808088019190915290849004831660a080880191909152600388015480851660c0808a019190915290869004851660e0808a019190915260048a0154808716610100808c01919091529088900460ff9081161515610120808d01919091528e519a8b018f5260058d0154808a168c528a900489169d8b019d909d5260068c01548089169e8b019e909e529c88900487169589019590955260078a01548087169489019490945292869004851691870191909152600888015480851691870191909152849004831690850152600986015491821690840152048516151593810193909352600a9091015490921683565b6040516101fb93929190614da9565b34801561045957600080fd5b506101cc610468366004614aa8565b6119c6565b34801561047957600080fd5b506101cc610488366004614a29565b611ba7565b34801561049957600080fd5b506101cc6104a83660046147a1565b611c07565b3480156104b957600080fd5b506105226104c8366004614a29565b6069602052600090815260409020805460019091015460ff808316926101008104821692620100008204831692630100000083048116926001600160a01b03600160201b90910481169290811691600160a01b9091041687565b6040805160ff98891681529688166020880152948716948601949094529490911660608401526001600160a01b03908116608084015290921660a082015290151560c082015260e0016101fb565b34801561057c57600080fd5b506101ef61058b3660046145ad565b611c3a565b34801561059c57600080fd5b506105b06105ab366004614a29565b611d30565b6040516101fb9190614d51565b3480156105c957600080fd5b506105b06105d8366004614a29565b611e25565b3480156105e957600080fd5b506101cc611ece565b3480156105fe57600080fd5b506101cc61060d366004614a7f565b611f04565b34801561061e57600080fd5b5061066e61062d3660046145ad565b6067602052600090815260409020805460018201546002909201546001600160801b0380831693600160801b9093041691600f0b906001600160a01b031684565b604080516001600160801b039586168152949093166020850152600f9190910b918301919091526001600160a01b031660608201526080016101fb565b3480156106b757600080fd5b506066546106cd90600160b01b900461ffff1681565b60405161ffff90911681526020016101fb565b3480156106ec57600080fd5b506033546040516001600160a01b0390911681526020016101fb565b34801561071457600080fd5b506107fe610723366004614a43565b6040805160e081018252600080825260208201819052918101829052606081018290526080810182905260a0810182905260c08101919091525060ff8083166000908152606b6020908152604080832061ffff80871685526002909101835292819020815160e08101835281546001600160801b038082168352600160801b9182900481169583019590955260019092015493841692810192909252820483166060820152600160901b82049092166080830152600160a01b81048316151560a0830152600160a81b9004909116151560c082015292915050565b6040516101fb9190600060e0820190506001600160801b0380845116835280602085015116602084015280604085015116604084015250606083015161ffff8082166060850152806080860151166080850152505060a0830151151560a083015260c0830151151560c083015292915050565b34801561087d57600080fd5b506101cc611fbb565b34801561089257600080fd5b506066546108a790600160a01b900460ff1681565b60405160ff90911681526020016101fb565b3480156108c557600080fd5b506101cc6108d43660046145ad565b612c7e565b3480156108e557600080fd5b506101cc6108f4366004614a7f565b612d16565b606554156109225760405162461bcd60e51b815260040161091990614cc8565b60405180910390fd5b60016065556066546001600160a01b031633146109515760405162461bcd60e51b815260040161091990614c23565b6001600160a01b038116600090815260686020526040812060018101549091600f91820b90910b1361098257600080fd5b6001810154604051631a4ca37b60e21b81526001600160a01b0380861660048301526001600160801b03600f9390930b928316602483015284166044820152730435b0d6EDF2e9A5D223047143c165937a997B59906369328dec9060640160006040518083038186803b1580156109f857600080fd5b505af4158015610a0c573d6000803e3d6000fd5b5050506002830180546001600160801b03938416600160801b029316929092179091555060010180546001600160801b031916905550506000606555565b6033546001600160a01b03163314610a745760405162461bcd60e51b815260040161091990614c93565b610a7d81612f7f565b50565b600054610100900460ff1680610a99575060005460ff16155b610ab55760405162461bcd60e51b815260040161091990614c45565b600054610100900460ff16158015610ad7576000805461ffff19166101011790555b610adf612fd1565b6001600160a01b038416610af257600080fd5b6001600160a01b038316610b0557600080fd5b610b0e84612c7e565b606680546001600160a01b0319166001600160a01b0385161790556000606555610b378261304c565b8015610b49576000805461ff00191690555b50505050565b8160ff811615801590610b7f5750606654610b7590600160a01b900460ff166002614fbf565b60ff168160ff1611155b610b8857600080fd5b60ff8381166000908152606b6020526040908190206066549151638a229a5760e01b8152600481019190915233602482015260448101859052600160c01b820490921615156064830152600160b01b900461ffff166084820152730435b0d6EDF2e9A5D223047143c165937a997B5990638a229a579060a4015b60006040518083038186803b158015610c1a57600080fd5b505af4158015610c2e573d6000803e3d6000fd5b50505050505050565b8060ff811615801590610c675750606654610c5d90600160a01b900460ff166002614fbf565b60ff168160ff1611155b610c7057600080fd5b606654600160b01b900461ffff16610cb55760405162461bcd60e51b81526020600482015260086024820152670854dd185c9d195960c21b6044820152606401610919565b60003411610cf05760405162461bcd60e51b81526020600482015260086024820152676e6f2076616c756560c01b6044820152606401610919565b60006069816002610d026001876150b0565b610d0c9190614f7e565b60ff908116825260208201929092526040016000206001810154909250600160a01b90041615610d705760405162461bcd60e51b815260206004820152600f60248201526e11195c1bdcda5d111a5cd8589b1959608a1b6044820152606401610919565b805460009060ff858116911614610d945760018201546001600160a01b0316610da7565b8154600160201b90046001600160a01b03165b90506001600160a01b03811615610dbd57600080fd5b60ff84166000908152606b6020526040808220606654915163c502f99160e01b8152730435b0d6EDF2e9A5D223047143c165937a997B599363c502f99193610e1e9392339234929091600160b01b90910461ffff1690600190600401614ce8565b60006040518083038186803b158015610e3657600080fd5b505af4158015610e4a573d6000803e3d6000fd5b5050606654604051348152600160b01b90910461ffff16925033915060ff8716906000805160206151a58339815191529060200160405180910390a450505050565b60655415610eac5760405162461bcd60e51b815260040161091990614cc8565b60016065556066546001600160a01b03163314610edb5760405162461bcd60e51b815260040161091990614c23565b805160005b8181101561106b57600060686000858481518110610f0e57634e487b7160e01b600052603260045260246000fd5b60200260200101516001600160a01b03166001600160a01b03168152602001908152602001600020905060008160010160009054906101000a9004600f0b600f0b13610f5957600080fd5b60008160010160009054906101000a9004600f0b9050730435b0d6EDF2e9A5D223047143c165937a997B596369328dec87836001600160801b0316888781518110610fb457634e487b7160e01b600052603260045260246000fd5b60200260200101516040518463ffffffff1660e01b8152600401610ff8939291906001600160a01b0393841681526020810192909252909116604082015260600190565b60006040518083038186803b15801561101057600080fd5b505af4158015611024573d6000803e3d6000fd5b5050506002830180546001600160801b03938416600160801b029316929092179091555060010180546001600160801b031916905580611063816150ff565b915050610ee0565b505060006065555050565b6066546001600160a01b031633146110a05760405162461bcd60e51b815260040161091990614c23565b606654600160c01b900460ff166110b657600080fd5b8051606654600160a01b900460ff1681146110d057600080fd5b6066546000906110ed90600190600160b01b900461ffff16615076565b905060005b828160ff161015611805576000848260ff168151811061112257634e487b7160e01b600052603260045260246000fd5b60209081029190910181015160ff808516600090815260698452604080822080548085168452606b8752828420610100918290049095168452828420835161018081018552858152978801859052928701849052606087018490526080870184905260a0870184905260c0870184905260e0870184905286018390526101208601839052610140860183905261016086019290925292945092909190600060028401816111d060018b615076565b61ffff168152602081019190915260400160002080549091506001600160801b03161561146a578454730435b0d6EDF2e9A5D223047143c165937a997B599063aab69633908690849060019060ff6201000082048116916301000000900416828d600281111561125057634e487b7160e01b600052602160045260246000fd5b6040516001600160e01b031960e08a901b16815260048101979097526024870195909552921515604486015260ff91821660648601521660848401521460a482015260c4016101806040518083038186803b1580156112ae57600080fd5b505af41580156112c2573d6000803e3d6000fd5b505050506040513d601f19601f820116820180604052508101906112e69190614877565b805190925015611376576040828101518654600160201b90046001600160a01b03166000908152606860205291909120546113339161132e916001600160801b0316906133c8565b6133db565b8554600160201b90046001600160a01b0316600090815260686020526040902080546001600160801b0319166001600160801b03929092169190911790556113f4565b6060820151156113f45760a082015160018601546001600160a01b03166000908152606860205260409020546113b99161132e916001600160801b0316906133c8565b60018601546001600160a01b0316600090815260686020526040902080546001600160801b0319166001600160801b03929092169190911790555b600186600281111561141657634e487b7160e01b600052602160045260246000fd5b1415611449576114448482858860000160019054906101000a900460ff168660a00151876101600151613448565b61146a565b8454604083015161010084015161146a92879260ff90911691859190613783565b6000600284018161147c60018c615076565b61ffff168152602081019190915260400160002080549091506001600160801b031615611711578554730435b0d6EDF2e9A5D223047143c165937a997B599063aab69633908690849060009060ff630100000082048116916201000090041660028e60028111156114fd57634e487b7160e01b600052602160045260246000fd5b6040516001600160e01b031960e08a901b16815260048101979097526024870195909552921515604486015260ff91821660648601521660848401521460a482015260c4016101806040518083038186803b15801561155b57600080fd5b505af415801561156f573d6000803e3d6000fd5b505050506040513d601f19601f820116820180604052508101906115939190614877565b8051909350156116165760408084015160018801546001600160a01b03166000908152606860205291909120546115d79161132e916001600160801b0316906133c8565b60018701546001600160a01b0316600090815260686020526040902080546001600160801b0319166001600160801b039290921691909117905561169c565b60608301511561169c5760a08301518654600160201b90046001600160a01b031660009081526068602052604090205461165d9161132e916001600160801b0316906133c8565b8654600160201b90046001600160a01b0316600090815260686020526040902080546001600160801b0319166001600160801b03929092169190911790555b60028760028111156116be57634e487b7160e01b600052602160045260246000fd5b14156116ea57855460a08401516101608501516116e592879285928a9260ff169190613448565b611711565b611711848760000160019054906101000a900460ff16838660400151876101000151613783565b6040516366aef26360e01b81526004810186905261ffff8a166024820152730435b0d6EDF2e9A5D223047143c165937a997B59906366aef2639060440160006040518083038186803b15801561176657600080fd5b505af415801561177a573d6000803e3d6000fd5b50506040516366aef26360e01b81526004810187905261ffff8c166024820152730435b0d6EDF2e9A5D223047143c165937a997B5992506366aef263915060440160006040518083038186803b1580156117d357600080fd5b505af41580156117e7573d6000803e3d6000fd5b505050505050505050505080806117fd9061511a565b9150506110f2565b5061180e6139e5565b50506066805460ff60c01b1916905550565b6066546001600160a01b0316331461184a5760405162461bcd60e51b815260040161091990614c23565b8051606654600160c01b900460ff161561186357600080fd5b6066546001600160b01b90910461ffff161161187e57600080fd5b60665461189690600160a01b900460ff166002614fbf565b60ff1681146118a457600080fd5b60005b818160ff1610156119c1576000838260ff16815181106118d757634e487b7160e01b600052603260045260246000fd5b602002602001015190506000606b60008460016118f49190614f45565b60ff1660ff16815260200190815260200160002060020160006001606660169054906101000a900461ffff1661192a9190615076565b61ffff16815260208101919091526040908101600020905163338dfe2f60e21b81526004810184905260248101829052909150730435b0d6EDF2e9A5D223047143c165937a997B599063ce37f8bc9060440160006040518083038186803b15801561199457600080fd5b505af41580156119a8573d6000803e3d6000fd5b50505050505080806119b99061511a565b9150506118a7565b505050565b8260ff8116158015906119f657506066546119ec90600160a01b900460ff166002614fbf565b60ff168160ff1611155b6119ff57600080fd5b60006069816002611a116001896150b0565b611a1b9190614f7e565b60ff908116825260208083019390935260409182016000908120898316808352606b9095529290206066548354939550730435b0d6EDF2e9A5D223047143c165937a997B5994637441e8bb94929333938b93600160b01b900461ffff16929116148015611a9b575086546001600160a01b038a8116600160201b90920416145b80611acb5750865460ff8c811661010090920416148015611acb575060018701546001600160a01b038a81169116145b6040516001600160e01b031960e088901b16815260048101959095526001600160a01b039093166024850152604484019190915261ffff1660648301521515608482015260a40160006040518083038186803b158015611b2a57600080fd5b505af4158015611b3e573d6000803e3d6000fd5b50505050611b4f3385856000613c71565b826001600160a01b0316336001600160a01b03168660ff167f9ac0ff79dc491174b021e6532a2fc734e82751bba8672e9183a76cb994a5f65a87604051611b9891815260200190565b60405180910390a45050505050565b6066546001600160a01b03163314611bd15760405162461bcd60e51b815260040161091990614c23565b60ff9081166000908152606960205260409020600101805460ff60a01b198116600160a01b918290049093161502919091179055565b6033546001600160a01b03163314611c315760405162461bcd60e51b815260040161091990614c93565b610a7d8161304c565b6001600160a01b03811660009081526068602052604081206001810154600f90810b9081900b8313611c70575060019392505050565b60405163b2838a7360e01b81526001600160a01b0385166004820152306024820152730435b0d6EDF2e9A5D223047143c165937a997B599063b2838a739060440160206040518083038186803b158015611cc957600080fd5b505af4158015611cdd573d6000803e3d6000fd5b505050506040513d601f19601f82011682018060405250810190611d019190614a11565b611d0f575060009392505050565b611d1884613d32565b611d219061513a565b81600f0b121592505050919050565b6040805160c081018252600080825260208201819052918101829052606081018290526080810182905260a081019190915260ff8281166000908152606b602052604090819020606654915163c975707360e01b81526004810191909152600160c01b820490921615156024830152600160b01b900461ffff166044820152730435b0d6EDF2e9A5D223047143c165937a997B599063c9757073906064015b60c06040518083038186803b158015611de757600080fd5b505af4158015611dfb573d6000803e3d6000fd5b505050506040513d601f19601f82011682018060405250810190611e1f9190614915565b92915050565b6040805160c081018252600080825260208201819052918101829052606081018290526080810182905260a081019190915260ff8281166000908152606b6020526040908190206066549151634ed14a7f60e01b81526004810191909152336024820152600160c01b820490921615156044830152600160b01b900461ffff166064820152730435b0d6EDF2e9A5D223047143c165937a997B5990634ed14a7f90608401611dcf565b6033546001600160a01b03163314611ef85760405162461bcd60e51b815260040161091990614c93565b611f026000613e36565b565b8160ff811615801590611f345750606654611f2a90600160a01b900460ff166002614fbf565b60ff168160ff1611155b611f3d57600080fd5b60ff8381166000908152606b6020526040908190206066549151630f681f9360e31b8152600481019190915233602482015260448101859052600160c01b820490921615156064830152600160b01b900461ffff166084820152730435b0d6EDF2e9A5D223047143c165937a997B5990637b40fc989060a401610c02565b6066546001600160a01b03163314611fe55760405162461bcd60e51b815260040161091990614c23565b606654600160c01b900460ff1615611ffc57600080fd5b60665461201590600160b01b900461ffff166001614f07565b6066805460ff60c01b1961ffff93909316600160b01b029290921662ffffff60b01b1990921691909117600160c01b17905560005b60665460ff600160a01b90910481169082161015612b725760ff818116600090815260696020908152604080832080549094168352606b909152808220606654915163161dd97560e31b815260048101829052600160b01b90920461ffff166024830152600160448301529190730435b0d6EDF2e9A5D223047143c165937a997B599063b0eecba89060640160206040518083038186803b1580156120ee57600080fd5b505af4158015612102573d6000803e3d6000fd5b505050506040513d601f19601f8201168201806040525081019061212691906149f7565b8354610100900460ff166000908152606b6020526040808220606654915163161dd97560e31b815260048101829052600160b01b90920461ffff16602483015260448201839052929350730435b0d6EDF2e9A5D223047143c165937a997B599063b0eecba89060640160206040518083038186803b1580156121a757600080fd5b505af41580156121bb573d6000803e3d6000fd5b505050506040513d601f19601f820116820180604052508101906121df91906149f7565b90506001600160801b03831615612270578454600160201b90046001600160a01b03166000908152606860205260409020546122339061132e906001600160801b03600160801b90910481169086166133c8565b85546001600160a01b03600160201b90910416600090815260686020526040902080546001600160801b03928316600160801b0292169190911790555b6001600160801b038116156122f65760018501546001600160a01b03166000908152606860205260409020546122be9061132e90600160801b90046001600160801b039081169084166133c8565b60018601546001600160a01b0316600090815260686020526040902080546001600160801b03928316600160801b0292169190911790555b6066546002600160b01b90910461ffff1611612316575050505050612b60565b8454606654604051631bb98a3360e01b8152600092730435b0d6EDF2e9A5D223047143c165937a997B5992631bb98a339261237b928a9260019260ff62010000840481169363010000009004169161ffff600160b01b90910416908990600401614d1f565b6101406040518083038186803b15801561239457600080fd5b505af41580156123a8573d6000803e3d6000fd5b505050506040513d601f19601f820116820180604052508101906123cc9190614930565b8654606654604051631bb98a3360e01b8152929350600092730435b0d6EDF2e9A5D223047143c165937a997B5992631bb98a339261243592899287926301000000820460ff90811693620100009093041691600160b01b90910461ffff16908490600401614d1f565b6101406040518083038186803b15801561244e57600080fd5b505af4158015612462573d6000803e3d6000fd5b505050506040513d601f19601f820116820180604052508101906124869190614930565b905060006040518060600160405280848152602001838152602001600060028111156124c257634e487b7160e01b600052602160045260246000fd5b9052905080606a60006124d68c6003614fbf565b60ff168152602080820192909252604090810160002083518051818501516001600160801b03908116600160801b90810292821692909217845582850151606080850151831684029183169190911760018087019190915560808086015160a08088015186168702918616919091176002808a019190915560c08089015160e0808b015189168a029189169190911760038c0155610100808b015160048d0180546101209d8e015115158d026001600160881b0319918216938d16939093179290921790558f8f015180519f8101518b168c029f8b169f909f1760058e01558e8e0151988f01518a168b02988a169890981760068d0155948d0151938d0151881689029388169390931760078b01558b0151918b015186168702918616919091176008890155908901516009880180549a9097015115159095029890921693909216929092179590951790915591840151600a8201805492949193909260ff19169190849081111561265857634e487b7160e01b600052602160045260246000fd5b0217905550508854606654604051631bb98a3360e01b815260009350730435b0d6EDF2e9A5D223047143c165937a997B5992631bb98a33926126c6928d9260019262010000820460ff9081169363010000009093041691600160b01b90910461ffff16908490600401614d1f565b6101406040518083038186803b1580156126df57600080fd5b505af41580156126f3573d6000803e3d6000fd5b505050506040513d601f19601f820116820180604052508101906127179190614930565b6040805160608101825282815260208101869052919250810160019052915081606a60006127468d6003614fbf565b612751906001614f45565b60ff168152602080820192909252604090810160002083518051818501516001600160801b03908116600160801b90810292821692909217845582850151606080850151831684029183169190911760018087019190915560808086015160a08088015186168702918616919091176002808a019190915560c08089015160e0808b015189168a029189169190911760038c0155610100808b015160048d0180546101209d8e015115158d026001600160881b0319918216938d16939093179290921790558f8f015180519f8101518b168c029f8b169f909f1760058e01558e8e0151988f01518a168b02988a169890981760068d0155948d0151938d0151881689029388169390931760078b01558b0151918b015186168702918616919091176008890155908901516009880180549a9097015115159095029890921693909216929092179590951790915591840151600a8201805492949193909260ff1916919084908111156128d357634e487b7160e01b600052602160045260246000fd5b0217905550508954606654604051631bb98a3360e01b815260009350730435b0d6EDF2e9A5D223047143c165937a997B5992631bb98a3392612941928c9287926301000000820460ff90811693620100009093041691600160b01b90910461ffff1690600190600401614d1f565b6101406040518083038186803b15801561295a57600080fd5b505af415801561296e573d6000803e3d6000fd5b505050506040513d601f19601f820116820180604052508101906129929190614930565b6040805160608101825287815260208101839052919250810160029052925082606a60006129c18e6003614fbf565b6129cc906002614f45565b60ff168152602080820192909252604090810160002083518051818501516001600160801b03908116600160801b90810292821692909217845582850151606080850151831684029183169190911760018087019190915560808086015160a08088015186168702918616919091176002808a019190915560c08089015160e0808b015189168a029189169190911760038c0155610100808b015160048d0180546101209d8e015115158d026001600160881b0319918216938d16939093179290921790558f8f015180519f8101518b168c029f8b169f909f1760058e01558e8e0151988f01518a168b02988a169890981760068d0155948d0151938d0151881689029388169390931760078b01558b0151918b015186168702918616919091176008890155908901516009880180549a9097015115159095029890921693909216929092179590951790915591840151600a8201805492949193909260ff191691908490811115612b4e57634e487b7160e01b600052602160045260246000fd5b02179055505050505050505050505050505b80612b6a8161511a565b91505061204a565b50606654600160b01b900461ffff1660011415612b98576066805460ff60c01b19169055565b606654600160b01b900461ffff1660021415611f025760015b606654612bc990600160a01b900460ff166002614fbf565b60ff168160ff1611612c665760ff81166000908152606b60205260409081902090516366aef26360e01b8152600481019190915260016024820152730435b0d6EDF2e9A5D223047143c165937a997B59906366aef2639060440160006040518083038186803b158015612c3b57600080fd5b505af4158015612c4f573d6000803e3d6000fd5b505050508080612c5e9061511a565b915050612bb1565b50612c6f6139e5565b6066805460ff60c01b19169055565b6033546001600160a01b03163314612ca85760405162461bcd60e51b815260040161091990614c93565b6001600160a01b038116612d0d5760405162461bcd60e51b815260206004820152602660248201527f4f776e61626c653a206e6577206f776e657220697320746865207a65726f206160448201526564647265737360d01b6064820152608401610919565b610a7d81613e36565b8160ff811615801590612d465750606654612d3c90600160a01b900460ff166002614fbf565b60ff168160ff1611155b612d4f57600080fd5b606654600160b01b900461ffff16612d945760405162461bcd60e51b81526020600482015260086024820152670854dd185c9d195960c21b6044820152606401610919565b60008211612dce5760405162461bcd60e51b815260206004820152600760248201526608585b5bdd5b9d60ca1b6044820152606401610919565b60006069816002612de06001886150b0565b612dea9190614f7e565b60ff908116825260208201929092526040016000206001810154909250600160a01b90041615612e4e5760405162461bcd60e51b815260206004820152600f60248201526e11195c1bdcda5d111a5cd8589b1959608a1b6044820152606401610919565b805460009060ff868116911614612e725760018201546001600160a01b0316612e85565b8154600160201b90046001600160a01b03165b90506001600160a01b038116612e9a57600080fd5b60ff85166000908152606b6020526040808220606654915163c502f99160e01b8152730435b0d6EDF2e9A5D223047143c165937a997B599363c502f99193612efb939233928b929091600160b01b90910461ffff1690600190600401614ce8565b60006040518083038186803b158015612f1357600080fd5b505af4158015612f27573d6000803e3d6000fd5b5050606654604051878152600160b01b90910461ffff16925033915060ff8816906000805160206151a58339815191529060200160405180910390a4612f786001600160a01b038216333087613e88565b5050505050565b606680546001600160a01b038381166001600160a01b0319831681179093556040519116919082907f57e8def7e592578c5fbf9abfe6d3897d7daf10cf7e179f320d944cf71a76493e90600090a35050565b600054610100900460ff1680612fea575060005460ff16155b6130065760405162461bcd60e51b815260040161091990614c45565b600054610100900460ff16158015613028576000805461ffff19166101011790555b613030613ee2565b613038613f4c565b8015610a7d576000805461ff001916905550565b805160665460ff600160a01b8204811691600160a81b90041660005b8381101561339157600085828151811061309257634e487b7160e01b600052603260045260246000fd5b602002602001015190508360026130a99190614fbf565b6130b4906001614f45565b60ff168082526130c5906001614f45565b60ff1660208201528060696000866130dc8161511a565b60ff91821683526020808401949094526040928301600020855181549587015194870151606088015160808901516001600160a01b03908116600160201b02640100000000600160c01b031992881663010000000263ff0000001994891662010000029490941663ffff0000199989166101000261ffff19909b1695891695909517999099179790971692909217171694909417845560a08501516001909401805460c0909601511515600160a01b026001600160a81b031990961694909316939093179390931790559450831661324e576080810151606c6000856131c18161511a565b965060ff1660ff16815260200190815260200160002060006101000a8154816001600160a01b0302191690836001600160a01b031602179055508060a00151606c6000858061320f9061511a565b965060ff1660ff16815260200190815260200160002060006101000a8154816001600160a01b0302191690836001600160a01b0316021790555061337e565b60008060005b8560ff168160ff1610156132d457608084015160ff82166000908152606c60205260409020546001600160a01b039081169116141561329257600192505b60a084015160ff82166000908152606c60205260409020546001600160a01b03908116911614156132c257600191505b806132cc8161511a565b915050613254565b5081613328576080830151606c6000876132ed8161511a565b985060ff1660ff16815260200190815260200160002060006101000a8154816001600160a01b0302191690836001600160a01b031602179055505b8061337b5760a0830151606c6000876133408161511a565b985060ff1660ff16815260200190815260200160002060006101000a8154816001600160a01b0302191690836001600160a01b031602179055505b50505b5080613389816150ff565b915050613068565b506066805461ffff60a01b1916600160a01b60ff9485160260ff60a81b191617600160a81b92909316919091029190911790555050565b60006133d48284614f2d565b9392505050565b60006001600160801b038211156134445760405162461bcd60e51b815260206004820152602760248201527f53616665436173743a2076616c756520646f65736e27742066697420696e20316044820152663238206269747360c81b6064820152608401610919565b5090565b845460009061346a906001600160801b0380821691600160801b900416613fac565b60018801549091506001600160801b0316158015906134895750600082115b156134e85760018601546134c59061132e906134b1908490600160901b900461ffff16613fb8565b60018a01546001600160801b031690613fda565b6001880180546001600160801b0319166001600160801b03929092169190911790555b600387015460005b8181101561377857600089600301828154811061351d57634e487b7160e01b600052603260045260246000fd5b60009182526020808320909101546001600160a01b031680835260048d0190915260409091206001810154919250906001600160801b0316613560575050613766565b60018101548a5460009161358e918a916001600160801b03600160801b918290048116929190910416613ff5565b905080156135d55760038201546135b29061132e906001600160801b0316836133c8565b6003830180546001600160801b0319166001600160801b03929092169190911790555b60018201546000906135fa906001600160801b0380821691600160801b900416613fac565b9050600061360989838a613ff5565b905080156137515760018d01546000908190613631908590600160901b900461ffff16613fb8565b60028701549091506001600160801b031681106136695760028601546136629084906001600160801b031683613ff5565b915061366d565b8291505b730435b0d6EDF2e9A5D223047143c165937a997B5963c502f9918f8986866001606660169054906101000a900461ffff166136a89190615076565b60006040518763ffffffff1660e01b81526004016136cb96959493929190614ce8565b60006040518083038186803b1580156136e357600080fd5b505af41580156136f7573d6000803e3d6000fd5b5050606654613715925060019150600160b01b900461ffff16615076565b61ffff16876001600160a01b03168e60ff166000805160206151a58339815191528660405161374691815260200190565b60405180910390a450505b50505060010180546001600160801b03169055505b80613770816150ff565b9150506134f0565b505050505050505050565b82546000906137a5906001600160801b0380821691600160801b900416613fac565b600387015490915060005b818110156139db5760008860030182815481106137dd57634e487b7160e01b600052603260045260246000fd5b60009182526020808320909101546001600160a01b031680835260048c0190915260409091206001810154919250906001600160801b03166138205750506139c9565b6001810154885460009161384e918a916001600160801b03600160801b918290048116929190910416613ff5565b905080156138995760028201546138799061132e90600160801b90046001600160801b0316836133c8565b6002830180546001600160801b03928316600160801b0292169190911790555b60018201546000906138ca9089906138c4906001600160801b0380821691600160801b900416613fac565b89613ff5565b905080156139b557730435b0d6EDF2e9A5D223047143c165937a997B5963c502f9918d868460006001606660169054906101000a900461ffff1661390e9190615076565b60006040518763ffffffff1660e01b815260040161393196959493929190614ce8565b60006040518083038186803b15801561394957600080fd5b505af415801561395d573d6000803e3d6000fd5b505060665461397b925060019150600160b01b900461ffff16615076565b61ffff16846001600160a01b03168c60ff166000805160206151a5833981519152846040516139ac91815260200190565b60405180910390a45b505060010180546001600160801b03169055505b806139d3816150ff565b9150506137b0565b5050505050505050565b60005b60665460ff600160a81b90910481169082161015610a7d5760ff81166000908152606c60209081526040808320546001600160a01b03168084526068909252822060665491929091600160b01b900461ffff16600214613a7a5781546001600160801b0380821691600160801b900416613a6185613d32565b613a6b9190614fe8565b613a759190614eb9565b613a7d565b60005b6001830154613a8f9190600f0b614eb9565b6002830180546001600160801b0316905560405163b2838a7360e01b81526001600160a01b0385166004820152306024820152909150613b3890730435b0d6EDF2e9A5D223047143c165937a997B599063b2838a739060440160206040518083038186803b158015613b0057600080fd5b505af4158015613b14573d6000803e3d6000fd5b505050506040513d601f19601f8201168201806040525081019061132e9190614a11565b6001830180546001600160801b03928316600160801b029216919091179055613b6361132e8461403d565b600283810180546001600160801b03199081166001600160801b0394851617909155604080516080810182528654600160801b808204871683529086166020808401918252600f89810b8587019081526001600160a01b038d811660608801818152600091825260679095529790972086519451948b16948b16860294909417845551600184018054909816910b89161790955593519390940180546001600160a01b031916939092169290921790558454909281811692613c2792041684614eb9565b613c319190614fe8565b600184018054600f9290920b6001600160801b03166001600160801b03199092169190911790555050600090555080613c698161511a565b9150506139e8565b60655415613c915760405162461bcd60e51b815260040161091990614cc8565b600160655580613cad57613ca482611c3a565b613cad57600080fd5b604051631a4ca37b60e21b81526001600160a01b0380861660048301526024820185905283166044820152730435b0d6EDF2e9A5D223047143c165937a997B59906369328dec9060640160006040518083038186803b158015613d0f57600080fd5b505af4158015613d23573d6000803e3d6000fd5b50506000606555505050505050565b6001600160a01b0381166000908152606860205260408120613d71613d568461403d565b6001830154600160801b90046001600160801b0316906133c8565b600282015460405163b2838a7360e01b81526001600160a01b0386166004820152306024820152613e2c916001600160801b0380821692613e2692600160801b900490911690730435b0d6EDF2e9A5D223047143c165937a997B599063b2838a739060440160206040518083038186803b158015613dee57600080fd5b505af4158015613e02573d6000803e3d6000fd5b505050506040513d601f19601f82011682018060405250810190613e269190614a11565b906133c8565b6133d49190615037565b603380546001600160a01b038381166001600160a01b0319831681179093556040519116919082907f8be0079c531659141344cd1fd0a4f28419497f9722a3daafe3b4186f6b6457e090600090a35050565b604080516001600160a01b0385811660248301528416604482015260648082018490528251808303909101815260849091019091526020810180516001600160e01b03166323b872dd60e01b179052610b499085906141d4565b600054610100900460ff1680613efb575060005460ff16155b613f175760405162461bcd60e51b815260040161091990614c45565b600054610100900460ff16158015613038576000805461ffff19166101011790558015610a7d576000805461ff001916905550565b600054610100900460ff1680613f65575060005460ff16155b613f815760405162461bcd60e51b815260040161091990614c45565b600054610100900460ff16158015613fa3576000805461ffff19166101011790555b61303833613e36565b60006133d48284615099565b60006133d4612710613fd4613fcd8583614f2d565b86906142a6565b906142b2565b600081831015613feb5760006133d4565b6133d48284615099565b6000821580614002575081155b8061400b575083155b15614018575060006133d4565b818310156140335761402e82613fd486866142a6565b614035565b835b949350505050565b600080805b60665460ff600160a01b909104811690821610156141cd5760ff8116600090815260696020526040902080546001600160a01b03868116600160201b90920416148061409d575060018101546001600160a01b038681169116145b156141ba57805460ff81166000908152606b6020526040902090614129906001600160a01b03888116600160201b90920416146140eb578154600160801b90046001600160801b0316614122565b8154606654600160b01b900461ffff166000908152600284016020526040902054614122916001600160801b0391821691166133c8565b85906133c8565b8254610100900460ff166000908152606b602052604090206001840154919550906141b5906001600160a01b03898116911614614177578154600160801b90046001600160801b03166141ae565b8154606654600160b01b900461ffff1660009081526002840160205260409020546141ae916001600160801b0391821691166133c8565b86906133c8565b945050505b50806141c58161511a565b915050614042565b5092915050565b6000614229826040518060400160405280602081526020017f5361666545524332303a206c6f772d6c6576656c2063616c6c206661696c6564815250856001600160a01b03166142be9092919063ffffffff16565b8051909150156119c15780806020019051810190614247919061485b565b6119c15760405162461bcd60e51b815260206004820152602a60248201527f5361666545524332303a204552433230206f7065726174696f6e20646964206e6044820152691bdd081cdd58d8d9595960b21b6064820152608401610919565b60006133d48284614fa0565b60006133d48284614f6a565b6060614035848460008585843b6143175760405162461bcd60e51b815260206004820152601d60248201527f416464726573733a2063616c6c20746f206e6f6e2d636f6e74726163740000006044820152606401610919565b600080866001600160a01b031685876040516143339190614bd4565b60006040518083038185875af1925050503d8060008114614370576040519150601f19603f3d011682016040523d82523d6000602084013e614375565b606091505b5091509150614385828286614390565b979650505050505050565b6060831561439f5750816133d4565b8251156143af5782518084602001fd5b8160405162461bcd60e51b81526004016109199190614bf0565b80356001600160a01b03811681146143e057600080fd5b919050565b600082601f8301126143f5578081fd5b8135602061440a61440583614e95565b614e64565b8281528181019085830160e080860288018501891015614428578687fd5b865b868110156144cb5781838b031215614440578788fd5b614448614df3565b6144518461459c565b815261445e87850161459c565b87820152604061446f81860161459c565b90820152606061448085820161459c565b9082015260806144918582016143c9565b9082015260a06144a28582016143c9565b9082015260c0848101356144b581615196565b908201528552938501939181019160010161442a565b509198975050505050505050565b80516143e081615196565b600060c082840312156144f5578081fd5b60405160c0810181811067ffffffffffffffff8211171561451857614518615180565b60405290508061452783614585565b815261453560208401614585565b602082015261454660408401614585565b604082015261455760608401614585565b606082015261456860808401614585565b608082015261457960a08401614585565b60a08201525092915050565b80516001600160801b03811681146143e057600080fd5b803560ff811681146143e057600080fd5b6000602082840312156145be578081fd5b6133d4826143c9565b600080604083850312156145d9578081fd5b6145e2836143c9565b91506145f0602084016143c9565b90509250929050565b60008060006060848603121561460d578081fd5b614616846143c9565b9250614624602085016143c9565b9150604084013567ffffffffffffffff81111561463f578182fd5b61464b868287016143e5565b9150509250925092565b60008060408385031215614667578182fd5b614670836143c9565b915060208084013567ffffffffffffffff81111561468c578283fd5b8401601f8101861361469c578283fd5b80356146aa61440582614e95565b80828252848201915084840189868560051b87010111156146c9578687fd5b8694505b838510156146f2576146de816143c9565b8352600194909401939185019185016146cd565b5080955050505050509250929050565b60006020808385031215614714578182fd5b823567ffffffffffffffff81111561472a578283fd5b8301601f8101851361473a578283fd5b803561474861440582614e95565b80828252848201915084840188868560051b8701011115614767578687fd5b8694505b8385101561479557803560038110614781578788fd5b83526001949094019391850191850161476b565b50979650505050505050565b6000602082840312156147b2578081fd5b813567ffffffffffffffff8111156147c8578182fd5b614035848285016143e5565b600060208083850312156147e6578182fd5b823567ffffffffffffffff8111156147fc578283fd5b8301601f8101851361480c578283fd5b803561481a61440582614e95565b80828252848201915084840188868560051b8701011115614839578687fd5b8694505b8385101561479557803583526001949094019391850191850161483d565b60006020828403121561486c578081fd5b81516133d481615196565b60006101808284031215614889578081fd5b614891614e1c565b825181526020830151602082015260408301516040820152606083015160608201526080830151608082015260a083015160a082015260c083015160c082015260e083015160e08201526101008084015181830152506101208084015181830152506101408084015181830152506101608084015181830152508091505092915050565b600060c08284031215614926578081fd5b6133d483836144e4565b60006101408284031215614942578081fd5b61494a614e40565b61495383614585565b815261496160208401614585565b602082015261497260408401614585565b604082015261498360608401614585565b606082015261499460808401614585565b60808201526149a560a08401614585565b60a08201526149b660c08401614585565b60c08201526149c760e08401614585565b60e08201526101006149da818501614585565b908201526101206149ec8482016144d9565b908201529392505050565b600060208284031215614a08578081fd5b6133d482614585565b600060208284031215614a22578081fd5b5051919050565b600060208284031215614a3a578081fd5b6133d48261459c565b60008060408385031215614a55578182fd5b614a5e8361459c565b9150602083013561ffff81168114614a74578182fd5b809150509250929050565b60008060408385031215614a91578182fd5b614a9a8361459c565b946020939093013593505050565b600080600060608486031215614abc578081fd5b614ac58461459c565b925060208401359150614ada604085016143c9565b90509250925092565b80516001600160801b031682526020810151614b0a60208401826001600160801b03169052565b506040810151614b2560408401826001600160801b03169052565b506060810151614b4060608401826001600160801b03169052565b506080810151614b5b60808401826001600160801b03169052565b5060a0810151614b7660a08401826001600160801b03169052565b5060c0810151614b9160c08401826001600160801b03169052565b5060e0810151614bac60e08401826001600160801b03169052565b50610100818101516001600160801b0316908301526101208082015180151582850152610b49565b60008251614be68184602087016150d3565b9190910192915050565b6020815260008251806020840152614c0f8160408501602087016150d3565b601f01601f19169190910160400192915050565b60208082526008908201526710b9b2ba3a3632b960c11b604082015260600190565b6020808252602e908201527f496e697469616c697a61626c653a20636f6e747261637420697320616c72656160408201526d191e481a5b9a5d1a585b1a5e995960921b606082015260800190565b6020808252818101527f4f776e61626c653a2063616c6c6572206973206e6f7420746865206f776e6572604082015260600190565b6020808252600690820152651b1bd8dad95960d21b604082015260600190565b9586526001600160a01b039490941660208601526040850192909252606084015261ffff166080830152151560a082015260c00190565b958652931515602086015260ff92831660408601529116606084015261ffff166080830152151560a082015260c00190565b60c08101611e1f82846001600160801b038082511683528060208301511660208401528060408301511660408401528060608301511660608401528060808301511660808401528060a08301511660a0840152505050565b6102a08101614db88286614ae3565b614dc6610140830185614ae3565b60038310614de457634e487b7160e01b600052602160045260246000fd5b82610280830152949350505050565b60405160e0810167ffffffffffffffff81118282101715614e1657614e16615180565b60405290565b604051610180810167ffffffffffffffff81118282101715614e1657614e16615180565b604051610140810167ffffffffffffffff81118282101715614e1657614e16615180565b604051601f8201601f1916810167ffffffffffffffff81118282101715614e8d57614e8d615180565b604052919050565b600067ffffffffffffffff821115614eaf57614eaf615180565b5060051b60200190565b600081600f0b83600f0b8282128260016001607f1b0303821381151615614ee257614ee2615154565b8260016001607f1b0319038212811615614efe57614efe615154565b50019392505050565b600061ffff808316818516808303821115614f2457614f24615154565b01949350505050565b60008219821115614f4057614f40615154565b500190565b600060ff821660ff84168060ff03821115614f6257614f62615154565b019392505050565b600082614f7957614f7961516a565b500490565b600060ff831680614f9157614f9161516a565b8060ff84160491505092915050565b6000816000190483118215151615614fba57614fba615154565b500290565b600060ff821660ff84168160ff0481118215151615614fe057614fe0615154565b029392505050565b600081600f0b83600f0b8281128160016001607f1b03190183128115161561501257615012615154565b8160016001607f1b0301831381161561502d5761502d615154565b5090039392505050565b60008083128015600160ff1b85018412161561505557615055615154565b6001600160ff1b038401831381161561507057615070615154565b50500390565b600061ffff8381169083168181101561509157615091615154565b039392505050565b6000828210156150ab576150ab615154565b500390565b600060ff821660ff8416808210156150ca576150ca615154565b90039392505050565b60005b838110156150ee5781810151838201526020016150d6565b83811115610b495750506000910152565b600060001982141561511357615113615154565b5060010190565b600060ff821660ff81141561513157615131615154565b60010192915050565b6000600160ff1b82141561515057615150615154565b0390565b634e487b7160e01b600052601160045260246000fd5b634e487b7160e01b600052601260045260246000fd5b634e487b7160e01b600052604160045260246000fd5b8015158114610a7d57600080fdfee963a73e630cb9812a026653bfb6b1e14ffa92f8c38b79f318f2637557ea9f12a26469706673582212207b036530a2b5c68cc0e8ce82761bfe6e4153b43d1b5518525c17fb2d0d3445da64736f6c63430008040033",
  "deployedBytecode": "0x6080604052600436106101a05760003560e01c80636386bcc4116100ec5780638a19c8bc1161008a578063c78b432e11610064578063c78b432e14610871578063ddd0247514610886578063f2fde38b146108b9578063f4d4c9d7146108d957600080fd5b80638a19c8bc146106ab5780638da5cb5b146106e0578063c5cfc5be1461070857600080fd5b806371018682116100c657806371018682146105bd578063715018a6146105dd5780637332655b146105f257806383eb772e1461061257600080fd5b80636386bcc4146104ad578063644d41ed146105705780636b37e4e31461059057600080fd5b806326b516991161015957806351fe669e1161013357806351fe669e146102d757806355bf621f1461044d5780635d3e0e4d1461046d5780635edae4db1461048d57600080fd5b806326b516991461027757806332b76e86146102975780634dd96f86146102b757600080fd5b806302c178d7146101ac5780630748248f146101ce57806307f19eba1461020457806310a1f8b414610224578063222f6b8314610244578063256d43d71461026457600080fd5b366101a757005b600080fd5b3480156101b857600080fd5b506101cc6101c73660046145c7565b6108f9565b005b3480156101da57600080fd5b506066546101ef90600160c01b900460ff1681565b60405190151581526020015b60405180910390f35b34801561021057600080fd5b506101cc61021f3660046145ad565b610a4a565b34801561023057600080fd5b506101cc61023f3660046145f9565b610a80565b34801561025057600080fd5b506101cc61025f366004614a7f565b610b4f565b6101cc610272366004614a29565b610c37565b34801561028357600080fd5b506101cc610292366004614655565b610e8c565b3480156102a357600080fd5b506101cc6102b2366004614702565b611076565b3480156102c357600080fd5b506101cc6102d23660046147d4565b611820565b3480156102e357600080fd5b5061043e6102f2366004614a29565b606a602090815260009182526040918290208251610140808201855282546001600160801b038082168452600160801b918290048116848701526001850154808216858901528290048116606080860191909152600286015480831660808088019190915290849004831660a080880191909152600388015480851660c0808a019190915290869004851660e0808a019190915260048a0154808716610100808c01919091529088900460ff9081161515610120808d01919091528e519a8b018f5260058d0154808a168c528a900489169d8b019d909d5260068c01548089169e8b019e909e529c88900487169589019590955260078a01548087169489019490945292869004851691870191909152600888015480851691870191909152849004831690850152600986015491821690840152048516151593810193909352600a9091015490921683565b6040516101fb93929190614da9565b34801561045957600080fd5b506101cc610468366004614aa8565b6119c6565b34801561047957600080fd5b506101cc610488366004614a29565b611ba7565b34801561049957600080fd5b506101cc6104a83660046147a1565b611c07565b3480156104b957600080fd5b506105226104c8366004614a29565b6069602052600090815260409020805460019091015460ff808316926101008104821692620100008204831692630100000083048116926001600160a01b03600160201b90910481169290811691600160a01b9091041687565b6040805160ff98891681529688166020880152948716948601949094529490911660608401526001600160a01b03908116608084015290921660a082015290151560c082015260e0016101fb565b34801561057c57600080fd5b506101ef61058b3660046145ad565b611c3a565b34801561059c57600080fd5b506105b06105ab366004614a29565b611d30565b6040516101fb9190614d51565b3480156105c957600080fd5b506105b06105d8366004614a29565b611e25565b3480156105e957600080fd5b506101cc611ece565b3480156105fe57600080fd5b506101cc61060d366004614a7f565b611f04565b34801561061e57600080fd5b5061066e61062d3660046145ad565b6067602052600090815260409020805460018201546002909201546001600160801b0380831693600160801b9093041691600f0b906001600160a01b031684565b604080516001600160801b039586168152949093166020850152600f9190910b918301919091526001600160a01b031660608201526080016101fb565b3480156106b757600080fd5b506066546106cd90600160b01b900461ffff1681565b60405161ffff90911681526020016101fb565b3480156106ec57600080fd5b506033546040516001600160a01b0390911681526020016101fb565b34801561071457600080fd5b506107fe610723366004614a43565b6040805160e081018252600080825260208201819052918101829052606081018290526080810182905260a0810182905260c08101919091525060ff8083166000908152606b6020908152604080832061ffff80871685526002909101835292819020815160e08101835281546001600160801b038082168352600160801b9182900481169583019590955260019092015493841692810192909252820483166060820152600160901b82049092166080830152600160a01b81048316151560a0830152600160a81b9004909116151560c082015292915050565b6040516101fb9190600060e0820190506001600160801b0380845116835280602085015116602084015280604085015116604084015250606083015161ffff8082166060850152806080860151166080850152505060a0830151151560a083015260c0830151151560c083015292915050565b34801561087d57600080fd5b506101cc611fbb565b34801561089257600080fd5b506066546108a790600160a01b900460ff1681565b60405160ff90911681526020016101fb565b3480156108c557600080fd5b506101cc6108d43660046145ad565b612c7e565b3480156108e557600080fd5b506101cc6108f4366004614a7f565b612d16565b606554156109225760405162461bcd60e51b815260040161091990614cc8565b60405180910390fd5b60016065556066546001600160a01b031633146109515760405162461bcd60e51b815260040161091990614c23565b6001600160a01b038116600090815260686020526040812060018101549091600f91820b90910b1361098257600080fd5b6001810154604051631a4ca37b60e21b81526001600160a01b0380861660048301526001600160801b03600f9390930b92831660248301528416604482015273__$e36f5330ef2566ea8a183e1e27b10de643$__906369328dec9060640160006040518083038186803b1580156109f857600080fd5b505af4158015610a0c573d6000803e3d6000fd5b5050506002830180546001600160801b03938416600160801b029316929092179091555060010180546001600160801b031916905550506000606555565b6033546001600160a01b03163314610a745760405162461bcd60e51b815260040161091990614c93565b610a7d81612f7f565b50565b600054610100900460ff1680610a99575060005460ff16155b610ab55760405162461bcd60e51b815260040161091990614c45565b600054610100900460ff16158015610ad7576000805461ffff19166101011790555b610adf612fd1565b6001600160a01b038416610af257600080fd5b6001600160a01b038316610b0557600080fd5b610b0e84612c7e565b606680546001600160a01b0319166001600160a01b0385161790556000606555610b378261304c565b8015610b49576000805461ff00191690555b50505050565b8160ff811615801590610b7f5750606654610b7590600160a01b900460ff166002614fbf565b60ff168160ff1611155b610b8857600080fd5b60ff8381166000908152606b6020526040908190206066549151638a229a5760e01b8152600481019190915233602482015260448101859052600160c01b820490921615156064830152600160b01b900461ffff16608482015273__$e36f5330ef2566ea8a183e1e27b10de643$__90638a229a579060a4015b60006040518083038186803b158015610c1a57600080fd5b505af4158015610c2e573d6000803e3d6000fd5b50505050505050565b8060ff811615801590610c675750606654610c5d90600160a01b900460ff166002614fbf565b60ff168160ff1611155b610c7057600080fd5b606654600160b01b900461ffff16610cb55760405162461bcd60e51b81526020600482015260086024820152670854dd185c9d195960c21b6044820152606401610919565b60003411610cf05760405162461bcd60e51b81526020600482015260086024820152676e6f2076616c756560c01b6044820152606401610919565b60006069816002610d026001876150b0565b610d0c9190614f7e565b60ff908116825260208201929092526040016000206001810154909250600160a01b90041615610d705760405162461bcd60e51b815260206004820152600f60248201526e11195c1bdcda5d111a5cd8589b1959608a1b6044820152606401610919565b805460009060ff858116911614610d945760018201546001600160a01b0316610da7565b8154600160201b90046001600160a01b03165b90506001600160a01b03811615610dbd57600080fd5b60ff84166000908152606b6020526040808220606654915163c502f99160e01b815273__$e36f5330ef2566ea8a183e1e27b10de643$__9363c502f99193610e1e9392339234929091600160b01b90910461ffff1690600190600401614ce8565b60006040518083038186803b158015610e3657600080fd5b505af4158015610e4a573d6000803e3d6000fd5b5050606654604051348152600160b01b90910461ffff16925033915060ff8716906000805160206151a58339815191529060200160405180910390a450505050565b60655415610eac5760405162461bcd60e51b815260040161091990614cc8565b60016065556066546001600160a01b03163314610edb5760405162461bcd60e51b815260040161091990614c23565b805160005b8181101561106b57600060686000858481518110610f0e57634e487b7160e01b600052603260045260246000fd5b60200260200101516001600160a01b03166001600160a01b03168152602001908152602001600020905060008160010160009054906101000a9004600f0b600f0b13610f5957600080fd5b60008160010160009054906101000a9004600f0b905073__$e36f5330ef2566ea8a183e1e27b10de643$__6369328dec87836001600160801b0316888781518110610fb457634e487b7160e01b600052603260045260246000fd5b60200260200101516040518463ffffffff1660e01b8152600401610ff8939291906001600160a01b0393841681526020810192909252909116604082015260600190565b60006040518083038186803b15801561101057600080fd5b505af4158015611024573d6000803e3d6000fd5b5050506002830180546001600160801b03938416600160801b029316929092179091555060010180546001600160801b031916905580611063816150ff565b915050610ee0565b505060006065555050565b6066546001600160a01b031633146110a05760405162461bcd60e51b815260040161091990614c23565b606654600160c01b900460ff166110b657600080fd5b8051606654600160a01b900460ff1681146110d057600080fd5b6066546000906110ed90600190600160b01b900461ffff16615076565b905060005b828160ff161015611805576000848260ff168151811061112257634e487b7160e01b600052603260045260246000fd5b60209081029190910181015160ff808516600090815260698452604080822080548085168452606b8752828420610100918290049095168452828420835161018081018552858152978801859052928701849052606087018490526080870184905260a0870184905260c0870184905260e0870184905286018390526101208601839052610140860183905261016086019290925292945092909190600060028401816111d060018b615076565b61ffff168152602081019190915260400160002080549091506001600160801b03161561146a57845473__$e36f5330ef2566ea8a183e1e27b10de643$__9063aab69633908690849060019060ff6201000082048116916301000000900416828d600281111561125057634e487b7160e01b600052602160045260246000fd5b6040516001600160e01b031960e08a901b16815260048101979097526024870195909552921515604486015260ff91821660648601521660848401521460a482015260c4016101806040518083038186803b1580156112ae57600080fd5b505af41580156112c2573d6000803e3d6000fd5b505050506040513d601f19601f820116820180604052508101906112e69190614877565b805190925015611376576040828101518654600160201b90046001600160a01b03166000908152606860205291909120546113339161132e916001600160801b0316906133c8565b6133db565b8554600160201b90046001600160a01b0316600090815260686020526040902080546001600160801b0319166001600160801b03929092169190911790556113f4565b6060820151156113f45760a082015160018601546001600160a01b03166000908152606860205260409020546113b99161132e916001600160801b0316906133c8565b60018601546001600160a01b0316600090815260686020526040902080546001600160801b0319166001600160801b03929092169190911790555b600186600281111561141657634e487b7160e01b600052602160045260246000fd5b1415611449576114448482858860000160019054906101000a900460ff168660a00151876101600151613448565b61146a565b8454604083015161010084015161146a92879260ff90911691859190613783565b6000600284018161147c60018c615076565b61ffff168152602081019190915260400160002080549091506001600160801b03161561171157855473__$e36f5330ef2566ea8a183e1e27b10de643$__9063aab69633908690849060009060ff630100000082048116916201000090041660028e60028111156114fd57634e487b7160e01b600052602160045260246000fd5b6040516001600160e01b031960e08a901b16815260048101979097526024870195909552921515604486015260ff91821660648601521660848401521460a482015260c4016101806040518083038186803b15801561155b57600080fd5b505af415801561156f573d6000803e3d6000fd5b505050506040513d601f19601f820116820180604052508101906115939190614877565b8051909350156116165760408084015160018801546001600160a01b03166000908152606860205291909120546115d79161132e916001600160801b0316906133c8565b60018701546001600160a01b0316600090815260686020526040902080546001600160801b0319166001600160801b039290921691909117905561169c565b60608301511561169c5760a08301518654600160201b90046001600160a01b031660009081526068602052604090205461165d9161132e916001600160801b0316906133c8565b8654600160201b90046001600160a01b0316600090815260686020526040902080546001600160801b0319166001600160801b03929092169190911790555b60028760028111156116be57634e487b7160e01b600052602160045260246000fd5b14156116ea57855460a08401516101608501516116e592879285928a9260ff169190613448565b611711565b611711848760000160019054906101000a900460ff16838660400151876101000151613783565b6040516366aef26360e01b81526004810186905261ffff8a16602482015273__$e36f5330ef2566ea8a183e1e27b10de643$__906366aef2639060440160006040518083038186803b15801561176657600080fd5b505af415801561177a573d6000803e3d6000fd5b50506040516366aef26360e01b81526004810187905261ffff8c16602482015273__$e36f5330ef2566ea8a183e1e27b10de643$__92506366aef263915060440160006040518083038186803b1580156117d357600080fd5b505af41580156117e7573d6000803e3d6000fd5b505050505050505050505080806117fd9061511a565b9150506110f2565b5061180e6139e5565b50506066805460ff60c01b1916905550565b6066546001600160a01b0316331461184a5760405162461bcd60e51b815260040161091990614c23565b8051606654600160c01b900460ff161561186357600080fd5b6066546001600160b01b90910461ffff161161187e57600080fd5b60665461189690600160a01b900460ff166002614fbf565b60ff1681146118a457600080fd5b60005b818160ff1610156119c1576000838260ff16815181106118d757634e487b7160e01b600052603260045260246000fd5b602002602001015190506000606b60008460016118f49190614f45565b60ff1660ff16815260200190815260200160002060020160006001606660169054906101000a900461ffff1661192a9190615076565b61ffff16815260208101919091526040908101600020905163338dfe2f60e21b8152600481018490526024810182905290915073__$e36f5330ef2566ea8a183e1e27b10de643$__9063ce37f8bc9060440160006040518083038186803b15801561199457600080fd5b505af41580156119a8573d6000803e3d6000fd5b50505050505080806119b99061511a565b9150506118a7565b505050565b8260ff8116158015906119f657506066546119ec90600160a01b900460ff166002614fbf565b60ff168160ff1611155b6119ff57600080fd5b60006069816002611a116001896150b0565b611a1b9190614f7e565b60ff908116825260208083019390935260409182016000908120898316808352606b909552929020606654835493955073__$e36f5330ef2566ea8a183e1e27b10de643$__94637441e8bb94929333938b93600160b01b900461ffff16929116148015611a9b575086546001600160a01b038a8116600160201b90920416145b80611acb5750865460ff8c811661010090920416148015611acb575060018701546001600160a01b038a81169116145b6040516001600160e01b031960e088901b16815260048101959095526001600160a01b039093166024850152604484019190915261ffff1660648301521515608482015260a40160006040518083038186803b158015611b2a57600080fd5b505af4158015611b3e573d6000803e3d6000fd5b50505050611b4f3385856000613c71565b826001600160a01b0316336001600160a01b03168660ff167f9ac0ff79dc491174b021e6532a2fc734e82751bba8672e9183a76cb994a5f65a87604051611b9891815260200190565b60405180910390a45050505050565b6066546001600160a01b03163314611bd15760405162461bcd60e51b815260040161091990614c23565b60ff9081166000908152606960205260409020600101805460ff60a01b198116600160a01b918290049093161502919091179055565b6033546001600160a01b03163314611c315760405162461bcd60e51b815260040161091990614c93565b610a7d8161304c565b6001600160a01b03811660009081526068602052604081206001810154600f90810b9081900b8313611c70575060019392505050565b60405163b2838a7360e01b81526001600160a01b038516600482015230602482015273__$e36f5330ef2566ea8a183e1e27b10de643$__9063b2838a739060440160206040518083038186803b158015611cc957600080fd5b505af4158015611cdd573d6000803e3d6000fd5b505050506040513d601f19601f82011682018060405250810190611d019190614a11565b611d0f575060009392505050565b611d1884613d32565b611d219061513a565b81600f0b121592505050919050565b6040805160c081018252600080825260208201819052918101829052606081018290526080810182905260a081019190915260ff8281166000908152606b602052604090819020606654915163c975707360e01b81526004810191909152600160c01b820490921615156024830152600160b01b900461ffff16604482015273__$e36f5330ef2566ea8a183e1e27b10de643$__9063c9757073906064015b60c06040518083038186803b158015611de757600080fd5b505af4158015611dfb573d6000803e3d6000fd5b505050506040513d601f19601f82011682018060405250810190611e1f9190614915565b92915050565b6040805160c081018252600080825260208201819052918101829052606081018290526080810182905260a081019190915260ff8281166000908152606b6020526040908190206066549151634ed14a7f60e01b81526004810191909152336024820152600160c01b820490921615156044830152600160b01b900461ffff16606482015273__$e36f5330ef2566ea8a183e1e27b10de643$__90634ed14a7f90608401611dcf565b6033546001600160a01b03163314611ef85760405162461bcd60e51b815260040161091990614c93565b611f026000613e36565b565b8160ff811615801590611f345750606654611f2a90600160a01b900460ff166002614fbf565b60ff168160ff1611155b611f3d57600080fd5b60ff8381166000908152606b6020526040908190206066549151630f681f9360e31b8152600481019190915233602482015260448101859052600160c01b820490921615156064830152600160b01b900461ffff16608482015273__$e36f5330ef2566ea8a183e1e27b10de643$__90637b40fc989060a401610c02565b6066546001600160a01b03163314611fe55760405162461bcd60e51b815260040161091990614c23565b606654600160c01b900460ff1615611ffc57600080fd5b60665461201590600160b01b900461ffff166001614f07565b6066805460ff60c01b1961ffff93909316600160b01b029290921662ffffff60b01b1990921691909117600160c01b17905560005b60665460ff600160a01b90910481169082161015612b725760ff818116600090815260696020908152604080832080549094168352606b909152808220606654915163161dd97560e31b815260048101829052600160b01b90920461ffff16602483015260016044830152919073__$e36f5330ef2566ea8a183e1e27b10de643$__9063b0eecba89060640160206040518083038186803b1580156120ee57600080fd5b505af4158015612102573d6000803e3d6000fd5b505050506040513d601f19601f8201168201806040525081019061212691906149f7565b8354610100900460ff166000908152606b6020526040808220606654915163161dd97560e31b815260048101829052600160b01b90920461ffff1660248301526044820183905292935073__$e36f5330ef2566ea8a183e1e27b10de643$__9063b0eecba89060640160206040518083038186803b1580156121a757600080fd5b505af41580156121bb573d6000803e3d6000fd5b505050506040513d601f19601f820116820180604052508101906121df91906149f7565b90506001600160801b03831615612270578454600160201b90046001600160a01b03166000908152606860205260409020546122339061132e906001600160801b03600160801b90910481169086166133c8565b85546001600160a01b03600160201b90910416600090815260686020526040902080546001600160801b03928316600160801b0292169190911790555b6001600160801b038116156122f65760018501546001600160a01b03166000908152606860205260409020546122be9061132e90600160801b90046001600160801b039081169084166133c8565b60018601546001600160a01b0316600090815260686020526040902080546001600160801b03928316600160801b0292169190911790555b6066546002600160b01b90910461ffff1611612316575050505050612b60565b8454606654604051631bb98a3360e01b815260009273__$e36f5330ef2566ea8a183e1e27b10de643$__92631bb98a339261237b928a9260019260ff62010000840481169363010000009004169161ffff600160b01b90910416908990600401614d1f565b6101406040518083038186803b15801561239457600080fd5b505af41580156123a8573d6000803e3d6000fd5b505050506040513d601f19601f820116820180604052508101906123cc9190614930565b8654606654604051631bb98a3360e01b815292935060009273__$e36f5330ef2566ea8a183e1e27b10de643$__92631bb98a339261243592899287926301000000820460ff90811693620100009093041691600160b01b90910461ffff16908490600401614d1f565b6101406040518083038186803b15801561244e57600080fd5b505af4158015612462573d6000803e3d6000fd5b505050506040513d601f19601f820116820180604052508101906124869190614930565b905060006040518060600160405280848152602001838152602001600060028111156124c257634e487b7160e01b600052602160045260246000fd5b9052905080606a60006124d68c6003614fbf565b60ff168152602080820192909252604090810160002083518051818501516001600160801b03908116600160801b90810292821692909217845582850151606080850151831684029183169190911760018087019190915560808086015160a08088015186168702918616919091176002808a019190915560c08089015160e0808b015189168a029189169190911760038c0155610100808b015160048d0180546101209d8e015115158d026001600160881b0319918216938d16939093179290921790558f8f015180519f8101518b168c029f8b169f909f1760058e01558e8e0151988f01518a168b02988a169890981760068d0155948d0151938d0151881689029388169390931760078b01558b0151918b015186168702918616919091176008890155908901516009880180549a9097015115159095029890921693909216929092179590951790915591840151600a8201805492949193909260ff19169190849081111561265857634e487b7160e01b600052602160045260246000fd5b0217905550508854606654604051631bb98a3360e01b81526000935073__$e36f5330ef2566ea8a183e1e27b10de643$__92631bb98a33926126c6928d9260019262010000820460ff9081169363010000009093041691600160b01b90910461ffff16908490600401614d1f565b6101406040518083038186803b1580156126df57600080fd5b505af41580156126f3573d6000803e3d6000fd5b505050506040513d601f19601f820116820180604052508101906127179190614930565b6040805160608101825282815260208101869052919250810160019052915081606a60006127468d6003614fbf565b612751906001614f45565b60ff168152602080820192909252604090810160002083518051818501516001600160801b03908116600160801b90810292821692909217845582850151606080850151831684029183169190911760018087019190915560808086015160a08088015186168702918616919091176002808a019190915560c08089015160e0808b015189168a029189169190911760038c0155610100808b015160048d0180546101209d8e015115158d026001600160881b0319918216938d16939093179290921790558f8f015180519f8101518b168c029f8b169f909f1760058e01558e8e0151988f01518a168b02988a169890981760068d0155948d0151938d0151881689029388169390931760078b01558b0151918b015186168702918616919091176008890155908901516009880180549a9097015115159095029890921693909216929092179590951790915591840151600a8201805492949193909260ff1916919084908111156128d357634e487b7160e01b600052602160045260246000fd5b0217905550508954606654604051631bb98a3360e01b81526000935073__$e36f5330ef2566ea8a183e1e27b10de643$__92631bb98a3392612941928c9287926301000000820460ff90811693620100009093041691600160b01b90910461ffff1690600190600401614d1f565b6101406040518083038186803b15801561295a57600080fd5b505af415801561296e573d6000803e3d6000fd5b505050506040513d601f19601f820116820180604052508101906129929190614930565b6040805160608101825287815260208101839052919250810160029052925082606a60006129c18e6003614fbf565b6129cc906002614f45565b60ff168152602080820192909252604090810160002083518051818501516001600160801b03908116600160801b90810292821692909217845582850151606080850151831684029183169190911760018087019190915560808086015160a08088015186168702918616919091176002808a019190915560c08089015160e0808b015189168a029189169190911760038c0155610100808b015160048d0180546101209d8e015115158d026001600160881b0319918216938d16939093179290921790558f8f015180519f8101518b168c029f8b169f909f1760058e01558e8e0151988f01518a168b02988a169890981760068d0155948d0151938d0151881689029388169390931760078b01558b0151918b015186168702918616919091176008890155908901516009880180549a9097015115159095029890921693909216929092179590951790915591840151600a8201805492949193909260ff191691908490811115612b4e57634e487b7160e01b600052602160045260246000fd5b02179055505050505050505050505050505b80612b6a8161511a565b91505061204a565b50606654600160b01b900461ffff1660011415612b98576066805460ff60c01b19169055565b606654600160b01b900461ffff1660021415611f025760015b606654612bc990600160a01b900460ff166002614fbf565b60ff168160ff1611612c665760ff81166000908152606b60205260409081902090516366aef26360e01b815260048101919091526001602482015273__$e36f5330ef2566ea8a183e1e27b10de643$__906366aef2639060440160006040518083038186803b158015612c3b57600080fd5b505af4158015612c4f573d6000803e3d6000fd5b505050508080612c5e9061511a565b915050612bb1565b50612c6f6139e5565b6066805460ff60c01b19169055565b6033546001600160a01b03163314612ca85760405162461bcd60e51b815260040161091990614c93565b6001600160a01b038116612d0d5760405162461bcd60e51b815260206004820152602660248201527f4f776e61626c653a206e6577206f776e657220697320746865207a65726f206160448201526564647265737360d01b6064820152608401610919565b610a7d81613e36565b8160ff811615801590612d465750606654612d3c90600160a01b900460ff166002614fbf565b60ff168160ff1611155b612d4f57600080fd5b606654600160b01b900461ffff16612d945760405162461bcd60e51b81526020600482015260086024820152670854dd185c9d195960c21b6044820152606401610919565b60008211612dce5760405162461bcd60e51b815260206004820152600760248201526608585b5bdd5b9d60ca1b6044820152606401610919565b60006069816002612de06001886150b0565b612dea9190614f7e565b60ff908116825260208201929092526040016000206001810154909250600160a01b90041615612e4e5760405162461bcd60e51b815260206004820152600f60248201526e11195c1bdcda5d111a5cd8589b1959608a1b6044820152606401610919565b805460009060ff868116911614612e725760018201546001600160a01b0316612e85565b8154600160201b90046001600160a01b03165b90506001600160a01b038116612e9a57600080fd5b60ff85166000908152606b6020526040808220606654915163c502f99160e01b815273__$e36f5330ef2566ea8a183e1e27b10de643$__9363c502f99193612efb939233928b929091600160b01b90910461ffff1690600190600401614ce8565b60006040518083038186803b158015612f1357600080fd5b505af4158015612f27573d6000803e3d6000fd5b5050606654604051878152600160b01b90910461ffff16925033915060ff8816906000805160206151a58339815191529060200160405180910390a4612f786001600160a01b038216333087613e88565b5050505050565b606680546001600160a01b038381166001600160a01b0319831681179093556040519116919082907f57e8def7e592578c5fbf9abfe6d3897d7daf10cf7e179f320d944cf71a76493e90600090a35050565b600054610100900460ff1680612fea575060005460ff16155b6130065760405162461bcd60e51b815260040161091990614c45565b600054610100900460ff16158015613028576000805461ffff19166101011790555b613030613ee2565b613038613f4c565b8015610a7d576000805461ff001916905550565b805160665460ff600160a01b8204811691600160a81b90041660005b8381101561339157600085828151811061309257634e487b7160e01b600052603260045260246000fd5b602002602001015190508360026130a99190614fbf565b6130b4906001614f45565b60ff168082526130c5906001614f45565b60ff1660208201528060696000866130dc8161511a565b60ff91821683526020808401949094526040928301600020855181549587015194870151606088015160808901516001600160a01b03908116600160201b02640100000000600160c01b031992881663010000000263ff0000001994891662010000029490941663ffff0000199989166101000261ffff19909b1695891695909517999099179790971692909217171694909417845560a08501516001909401805460c0909601511515600160a01b026001600160a81b031990961694909316939093179390931790559450831661324e576080810151606c6000856131c18161511a565b965060ff1660ff16815260200190815260200160002060006101000a8154816001600160a01b0302191690836001600160a01b031602179055508060a00151606c6000858061320f9061511a565b965060ff1660ff16815260200190815260200160002060006101000a8154816001600160a01b0302191690836001600160a01b0316021790555061337e565b60008060005b8560ff168160ff1610156132d457608084015160ff82166000908152606c60205260409020546001600160a01b039081169116141561329257600192505b60a084015160ff82166000908152606c60205260409020546001600160a01b03908116911614156132c257600191505b806132cc8161511a565b915050613254565b5081613328576080830151606c6000876132ed8161511a565b985060ff1660ff16815260200190815260200160002060006101000a8154816001600160a01b0302191690836001600160a01b031602179055505b8061337b5760a0830151606c6000876133408161511a565b985060ff1660ff16815260200190815260200160002060006101000a8154816001600160a01b0302191690836001600160a01b031602179055505b50505b5080613389816150ff565b915050613068565b506066805461ffff60a01b1916600160a01b60ff9485160260ff60a81b191617600160a81b92909316919091029190911790555050565b60006133d48284614f2d565b9392505050565b60006001600160801b038211156134445760405162461bcd60e51b815260206004820152602760248201527f53616665436173743a2076616c756520646f65736e27742066697420696e20316044820152663238206269747360c81b6064820152608401610919565b5090565b845460009061346a906001600160801b0380821691600160801b900416613fac565b60018801549091506001600160801b0316158015906134895750600082115b156134e85760018601546134c59061132e906134b1908490600160901b900461ffff16613fb8565b60018a01546001600160801b031690613fda565b6001880180546001600160801b0319166001600160801b03929092169190911790555b600387015460005b8181101561377857600089600301828154811061351d57634e487b7160e01b600052603260045260246000fd5b60009182526020808320909101546001600160a01b031680835260048d0190915260409091206001810154919250906001600160801b0316613560575050613766565b60018101548a5460009161358e918a916001600160801b03600160801b918290048116929190910416613ff5565b905080156135d55760038201546135b29061132e906001600160801b0316836133c8565b6003830180546001600160801b0319166001600160801b03929092169190911790555b60018201546000906135fa906001600160801b0380821691600160801b900416613fac565b9050600061360989838a613ff5565b905080156137515760018d01546000908190613631908590600160901b900461ffff16613fb8565b60028701549091506001600160801b031681106136695760028601546136629084906001600160801b031683613ff5565b915061366d565b8291505b73__$e36f5330ef2566ea8a183e1e27b10de643$__63c502f9918f8986866001606660169054906101000a900461ffff166136a89190615076565b60006040518763ffffffff1660e01b81526004016136cb96959493929190614ce8565b60006040518083038186803b1580156136e357600080fd5b505af41580156136f7573d6000803e3d6000fd5b5050606654613715925060019150600160b01b900461ffff16615076565b61ffff16876001600160a01b03168e60ff166000805160206151a58339815191528660405161374691815260200190565b60405180910390a450505b50505060010180546001600160801b03169055505b80613770816150ff565b9150506134f0565b505050505050505050565b82546000906137a5906001600160801b0380821691600160801b900416613fac565b600387015490915060005b818110156139db5760008860030182815481106137dd57634e487b7160e01b600052603260045260246000fd5b60009182526020808320909101546001600160a01b031680835260048c0190915260409091206001810154919250906001600160801b03166138205750506139c9565b6001810154885460009161384e918a916001600160801b03600160801b918290048116929190910416613ff5565b905080156138995760028201546138799061132e90600160801b90046001600160801b0316836133c8565b6002830180546001600160801b03928316600160801b0292169190911790555b60018201546000906138ca9089906138c4906001600160801b0380821691600160801b900416613fac565b89613ff5565b905080156139b55773__$e36f5330ef2566ea8a183e1e27b10de643$__63c502f9918d868460006001606660169054906101000a900461ffff1661390e9190615076565b60006040518763ffffffff1660e01b815260040161393196959493929190614ce8565b60006040518083038186803b15801561394957600080fd5b505af415801561395d573d6000803e3d6000fd5b505060665461397b925060019150600160b01b900461ffff16615076565b61ffff16846001600160a01b03168c60ff166000805160206151a5833981519152846040516139ac91815260200190565b60405180910390a45b505060010180546001600160801b03169055505b806139d3816150ff565b9150506137b0565b5050505050505050565b60005b60665460ff600160a81b90910481169082161015610a7d5760ff81166000908152606c60209081526040808320546001600160a01b03168084526068909252822060665491929091600160b01b900461ffff16600214613a7a5781546001600160801b0380821691600160801b900416613a6185613d32565b613a6b9190614fe8565b613a759190614eb9565b613a7d565b60005b6001830154613a8f9190600f0b614eb9565b6002830180546001600160801b0316905560405163b2838a7360e01b81526001600160a01b0385166004820152306024820152909150613b389073__$e36f5330ef2566ea8a183e1e27b10de643$__9063b2838a739060440160206040518083038186803b158015613b0057600080fd5b505af4158015613b14573d6000803e3d6000fd5b505050506040513d601f19601f8201168201806040525081019061132e9190614a11565b6001830180546001600160801b03928316600160801b029216919091179055613b6361132e8461403d565b600283810180546001600160801b03199081166001600160801b0394851617909155604080516080810182528654600160801b808204871683529086166020808401918252600f89810b8587019081526001600160a01b038d811660608801818152600091825260679095529790972086519451948b16948b16860294909417845551600184018054909816910b89161790955593519390940180546001600160a01b031916939092169290921790558454909281811692613c2792041684614eb9565b613c319190614fe8565b600184018054600f9290920b6001600160801b03166001600160801b03199092169190911790555050600090555080613c698161511a565b9150506139e8565b60655415613c915760405162461bcd60e51b815260040161091990614cc8565b600160655580613cad57613ca482611c3a565b613cad57600080fd5b604051631a4ca37b60e21b81526001600160a01b038086166004830152602482018590528316604482015273__$e36f5330ef2566ea8a183e1e27b10de643$__906369328dec9060640160006040518083038186803b158015613d0f57600080fd5b505af4158015613d23573d6000803e3d6000fd5b50506000606555505050505050565b6001600160a01b0381166000908152606860205260408120613d71613d568461403d565b6001830154600160801b90046001600160801b0316906133c8565b600282015460405163b2838a7360e01b81526001600160a01b0386166004820152306024820152613e2c916001600160801b0380821692613e2692600160801b90049091169073__$e36f5330ef2566ea8a183e1e27b10de643$__9063b2838a739060440160206040518083038186803b158015613dee57600080fd5b505af4158015613e02573d6000803e3d6000fd5b505050506040513d601f19601f82011682018060405250810190613e269190614a11565b906133c8565b6133d49190615037565b603380546001600160a01b038381166001600160a01b0319831681179093556040519116919082907f8be0079c531659141344cd1fd0a4f28419497f9722a3daafe3b4186f6b6457e090600090a35050565b604080516001600160a01b0385811660248301528416604482015260648082018490528251808303909101815260849091019091526020810180516001600160e01b03166323b872dd60e01b179052610b499085906141d4565b600054610100900460ff1680613efb575060005460ff16155b613f175760405162461bcd60e51b815260040161091990614c45565b600054610100900460ff16158015613038576000805461ffff19166101011790558015610a7d576000805461ff001916905550565b600054610100900460ff1680613f65575060005460ff16155b613f815760405162461bcd60e51b815260040161091990614c45565b600054610100900460ff16158015613fa3576000805461ffff19166101011790555b61303833613e36565b60006133d48284615099565b60006133d4612710613fd4613fcd8583614f2d565b86906142a6565b906142b2565b600081831015613feb5760006133d4565b6133d48284615099565b6000821580614002575081155b8061400b575083155b15614018575060006133d4565b818310156140335761402e82613fd486866142a6565b614035565b835b949350505050565b600080805b60665460ff600160a01b909104811690821610156141cd5760ff8116600090815260696020526040902080546001600160a01b03868116600160201b90920416148061409d575060018101546001600160a01b038681169116145b156141ba57805460ff81166000908152606b6020526040902090614129906001600160a01b03888116600160201b90920416146140eb578154600160801b90046001600160801b0316614122565b8154606654600160b01b900461ffff166000908152600284016020526040902054614122916001600160801b0391821691166133c8565b85906133c8565b8254610100900460ff166000908152606b602052604090206001840154919550906141b5906001600160a01b03898116911614614177578154600160801b90046001600160801b03166141ae565b8154606654600160b01b900461ffff1660009081526002840160205260409020546141ae916001600160801b0391821691166133c8565b86906133c8565b945050505b50806141c58161511a565b915050614042565b5092915050565b6000614229826040518060400160405280602081526020017f5361666545524332303a206c6f772d6c6576656c2063616c6c206661696c6564815250856001600160a01b03166142be9092919063ffffffff16565b8051909150156119c15780806020019051810190614247919061485b565b6119c15760405162461bcd60e51b815260206004820152602a60248201527f5361666545524332303a204552433230206f7065726174696f6e20646964206e6044820152691bdd081cdd58d8d9595960b21b6064820152608401610919565b60006133d48284614fa0565b60006133d48284614f6a565b6060614035848460008585843b6143175760405162461bcd60e51b815260206004820152601d60248201527f416464726573733a2063616c6c20746f206e6f6e2d636f6e74726163740000006044820152606401610919565b600080866001600160a01b031685876040516143339190614bd4565b60006040518083038185875af1925050503d8060008114614370576040519150601f19603f3d011682016040523d82523d6000602084013e614375565b606091505b5091509150614385828286614390565b979650505050505050565b6060831561439f5750816133d4565b8251156143af5782518084602001fd5b8160405162461bcd60e51b81526004016109199190614bf0565b80356001600160a01b03811681146143e057600080fd5b919050565b600082601f8301126143f5578081fd5b8135602061440a61440583614e95565b614e64565b8281528181019085830160e080860288018501891015614428578687fd5b865b868110156144cb5781838b031215614440578788fd5b614448614df3565b6144518461459c565b815261445e87850161459c565b87820152604061446f81860161459c565b90820152606061448085820161459c565b9082015260806144918582016143c9565b9082015260a06144a28582016143c9565b9082015260c0848101356144b581615196565b908201528552938501939181019160010161442a565b509198975050505050505050565b80516143e081615196565b600060c082840312156144f5578081fd5b60405160c0810181811067ffffffffffffffff8211171561451857614518615180565b60405290508061452783614585565b815261453560208401614585565b602082015261454660408401614585565b604082015261455760608401614585565b606082015261456860808401614585565b608082015261457960a08401614585565b60a08201525092915050565b80516001600160801b03811681146143e057600080fd5b803560ff811681146143e057600080fd5b6000602082840312156145be578081fd5b6133d4826143c9565b600080604083850312156145d9578081fd5b6145e2836143c9565b91506145f0602084016143c9565b90509250929050565b60008060006060848603121561460d578081fd5b614616846143c9565b9250614624602085016143c9565b9150604084013567ffffffffffffffff81111561463f578182fd5b61464b868287016143e5565b9150509250925092565b60008060408385031215614667578182fd5b614670836143c9565b915060208084013567ffffffffffffffff81111561468c578283fd5b8401601f8101861361469c578283fd5b80356146aa61440582614e95565b80828252848201915084840189868560051b87010111156146c9578687fd5b8694505b838510156146f2576146de816143c9565b8352600194909401939185019185016146cd565b5080955050505050509250929050565b60006020808385031215614714578182fd5b823567ffffffffffffffff81111561472a578283fd5b8301601f8101851361473a578283fd5b803561474861440582614e95565b80828252848201915084840188868560051b8701011115614767578687fd5b8694505b8385101561479557803560038110614781578788fd5b83526001949094019391850191850161476b565b50979650505050505050565b6000602082840312156147b2578081fd5b813567ffffffffffffffff8111156147c8578182fd5b614035848285016143e5565b600060208083850312156147e6578182fd5b823567ffffffffffffffff8111156147fc578283fd5b8301601f8101851361480c578283fd5b803561481a61440582614e95565b80828252848201915084840188868560051b8701011115614839578687fd5b8694505b8385101561479557803583526001949094019391850191850161483d565b60006020828403121561486c578081fd5b81516133d481615196565b60006101808284031215614889578081fd5b614891614e1c565b825181526020830151602082015260408301516040820152606083015160608201526080830151608082015260a083015160a082015260c083015160c082015260e083015160e08201526101008084015181830152506101208084015181830152506101408084015181830152506101608084015181830152508091505092915050565b600060c08284031215614926578081fd5b6133d483836144e4565b60006101408284031215614942578081fd5b61494a614e40565b61495383614585565b815261496160208401614585565b602082015261497260408401614585565b604082015261498360608401614585565b606082015261499460808401614585565b60808201526149a560a08401614585565b60a08201526149b660c08401614585565b60c08201526149c760e08401614585565b60e08201526101006149da818501614585565b908201526101206149ec8482016144d9565b908201529392505050565b600060208284031215614a08578081fd5b6133d482614585565b600060208284031215614a22578081fd5b5051919050565b600060208284031215614a3a578081fd5b6133d48261459c565b60008060408385031215614a55578182fd5b614a5e8361459c565b9150602083013561ffff81168114614a74578182fd5b809150509250929050565b60008060408385031215614a91578182fd5b614a9a8361459c565b946020939093013593505050565b600080600060608486031215614abc578081fd5b614ac58461459c565b925060208401359150614ada604085016143c9565b90509250925092565b80516001600160801b031682526020810151614b0a60208401826001600160801b03169052565b506040810151614b2560408401826001600160801b03169052565b506060810151614b4060608401826001600160801b03169052565b506080810151614b5b60808401826001600160801b03169052565b5060a0810151614b7660a08401826001600160801b03169052565b5060c0810151614b9160c08401826001600160801b03169052565b5060e0810151614bac60e08401826001600160801b03169052565b50610100818101516001600160801b0316908301526101208082015180151582850152610b49565b60008251614be68184602087016150d3565b9190910192915050565b6020815260008251806020840152614c0f8160408501602087016150d3565b601f01601f19169190910160400192915050565b60208082526008908201526710b9b2ba3a3632b960c11b604082015260600190565b6020808252602e908201527f496e697469616c697a61626c653a20636f6e747261637420697320616c72656160408201526d191e481a5b9a5d1a585b1a5e995960921b606082015260800190565b6020808252818101527f4f776e61626c653a2063616c6c6572206973206e6f7420746865206f776e6572604082015260600190565b6020808252600690820152651b1bd8dad95960d21b604082015260600190565b9586526001600160a01b039490941660208601526040850192909252606084015261ffff166080830152151560a082015260c00190565b958652931515602086015260ff92831660408601529116606084015261ffff166080830152151560a082015260c00190565b60c08101611e1f82846001600160801b038082511683528060208301511660208401528060408301511660408401528060608301511660608401528060808301511660808401528060a08301511660a0840152505050565b6102a08101614db88286614ae3565b614dc6610140830185614ae3565b60038310614de457634e487b7160e01b600052602160045260246000fd5b82610280830152949350505050565b60405160e0810167ffffffffffffffff81118282101715614e1657614e16615180565b60405290565b604051610180810167ffffffffffffffff81118282101715614e1657614e16615180565b604051610140810167ffffffffffffffff81118282101715614e1657614e16615180565b604051601f8201601f1916810167ffffffffffffffff81118282101715614e8d57614e8d615180565b604052919050565b600067ffffffffffffffff821115614eaf57614eaf615180565b5060051b60200190565b600081600f0b83600f0b8282128260016001607f1b0303821381151615614ee257614ee2615154565b8260016001607f1b0319038212811615614efe57614efe615154565b50019392505050565b600061ffff808316818516808303821115614f2457614f24615154565b01949350505050565b60008219821115614f4057614f40615154565b500190565b600060ff821660ff84168060ff03821115614f6257614f62615154565b019392505050565b600082614f7957614f7961516a565b500490565b600060ff831680614f9157614f9161516a565b8060ff84160491505092915050565b6000816000190483118215151615614fba57614fba615154565b500290565b600060ff821660ff84168160ff0481118215151615614fe057614fe0615154565b029392505050565b600081600f0b83600f0b8281128160016001607f1b03190183128115161561501257615012615154565b8160016001607f1b0301831381161561502d5761502d615154565b5090039392505050565b60008083128015600160ff1b85018412161561505557615055615154565b6001600160ff1b038401831381161561507057615070615154565b50500390565b600061ffff8381169083168181101561509157615091615154565b039392505050565b6000828210156150ab576150ab615154565b500390565b600060ff821660ff8416808210156150ca576150ca615154565b90039392505050565b60005b838110156150ee5781810151838201526020016150d6565b83811115610b495750506000910152565b600060001982141561511357615113615154565b5060010190565b600060ff821660ff81141561513157615131615154565b60010192915050565b6000600160ff1b82141561515057615150615154565b0390565b634e487b7160e01b600052601160045260246000fd5b634e487b7160e01b600052601260045260246000fd5b634e487b7160e01b600052604160045260246000fd5b8015158114610a7d57600080fdfee963a73e630cb9812a026653bfb6b1e14ffa92f8c38b79f318f2637557ea9f12a26469706673582212207b036530a2b5c68cc0e8ce82761bfe6e4153b43d1b5518525c17fb2d0d3445da64736f6c63430008040033",
  "libraries": {
    "OptionLifecycle": "0x0435b0d6EDF2e9A5D223047143c165937a997B59"
  },
  "devdoc": {
    "kind": "dev",
    "methods": {
      "owner()": {
        "details": "Returns the address of the current owner."
      },
      "renounceOwnership()": {
        "details": "Leaves the contract without owner. It will not be possible to call `onlyOwner` functions anymore. Can only be called by the current owner. NOTE: Renouncing ownership will leave the contract without an owner, thereby removing any functionality that is only available to the owner."
      },
      "transferOwnership(address)": {
        "details": "Transfers ownership of the contract to a new account (`newOwner`). Can only be called by the current owner."
      }
    },
    "version": 1
  },
  "userdoc": {
    "kind": "user",
    "methods": {},
    "version": 1
  },
  "storageLayout": {
    "storage": [
      {
        "astId": 130,
        "contract": "contracts/HodlBoosterOptionUpgradeable.sol:HodlBoosterOptionUpgradeable",
        "label": "_initialized",
        "offset": 0,
        "slot": "0",
        "type": "t_bool"
      },
      {
        "astId": 133,
        "contract": "contracts/HodlBoosterOptionUpgradeable.sol:HodlBoosterOptionUpgradeable",
        "label": "_initializing",
        "offset": 1,
        "slot": "0",
        "type": "t_bool"
      },
      {
        "astId": 213,
        "contract": "contracts/HodlBoosterOptionUpgradeable.sol:HodlBoosterOptionUpgradeable",
        "label": "__gap",
        "offset": 0,
        "slot": "1",
        "type": "t_array(t_uint256)50_storage"
      },
      {
        "astId": 10,
        "contract": "contracts/HodlBoosterOptionUpgradeable.sol:HodlBoosterOptionUpgradeable",
        "label": "_owner",
        "offset": 0,
        "slot": "51",
        "type": "t_address"
      },
      {
        "astId": 123,
        "contract": "contracts/HodlBoosterOptionUpgradeable.sol:HodlBoosterOptionUpgradeable",
        "label": "__gap",
        "offset": 0,
        "slot": "52",
        "type": "t_array(t_uint256)49_storage"
      },
      {
        "astId": 7276,
        "contract": "contracts/HodlBoosterOptionUpgradeable.sol:HodlBoosterOptionUpgradeable",
        "label": "locked",
        "offset": 0,
        "slot": "101",
        "type": "t_uint256"
      },
      {
        "astId": 7278,
        "contract": "contracts/HodlBoosterOptionUpgradeable.sol:HodlBoosterOptionUpgradeable",
        "label": "settlerRoleAddress",
        "offset": 0,
        "slot": "102",
        "type": "t_address"
      },
      {
        "astId": 7280,
        "contract": "contracts/HodlBoosterOptionUpgradeable.sol:HodlBoosterOptionUpgradeable",
        "label": "optionPairCount",
        "offset": 20,
        "slot": "102",
        "type": "t_uint8"
      },
      {
        "astId": 7282,
        "contract": "contracts/HodlBoosterOptionUpgradeable.sol:HodlBoosterOptionUpgradeable",
        "label": "assetCount",
        "offset": 21,
        "slot": "102",
        "type": "t_uint8"
      },
      {
        "astId": 7284,
        "contract": "contracts/HodlBoosterOptionUpgradeable.sol:HodlBoosterOptionUpgradeable",
        "label": "currentRound",
        "offset": 22,
        "slot": "102",
        "type": "t_uint16"
      },
      {
        "astId": 7286,
        "contract": "contracts/HodlBoosterOptionUpgradeable.sol:HodlBoosterOptionUpgradeable",
        "label": "underSettlement",
        "offset": 24,
        "slot": "102",
        "type": "t_bool"
      },
      {
        "astId": 7291,
        "contract": "contracts/HodlBoosterOptionUpgradeable.sol:HodlBoosterOptionUpgradeable",
        "label": "settlementCashflowResult",
        "offset": 0,
        "slot": "103",
        "type": "t_mapping(t_address,t_struct(SettlementCashflowResult)7015_storage)"
      },
      {
        "astId": 7296,
        "contract": "contracts/HodlBoosterOptionUpgradeable.sol:HodlBoosterOptionUpgradeable",
        "label": "assetData",
        "offset": 0,
        "slot": "104",
        "type": "t_mapping(t_address,t_struct(AssetData)6893_storage)"
      },
      {
        "astId": 7301,
        "contract": "contracts/HodlBoosterOptionUpgradeable.sol:HodlBoosterOptionUpgradeable",
        "label": "optionPairs",
        "offset": 0,
        "slot": "105",
        "type": "t_mapping(t_uint8,t_struct(OptionPairDefinition)6971_storage)"
      },
      {
        "astId": 7306,
        "contract": "contracts/HodlBoosterOptionUpgradeable.sol:HodlBoosterOptionUpgradeable",
        "label": "executionAccountingResult",
        "offset": 0,
        "slot": "106",
        "type": "t_mapping(t_uint8,t_struct(OptionPairExecutionAccountingResult)7006_storage)"
      },
      {
        "astId": 7311,
        "contract": "contracts/HodlBoosterOptionUpgradeable.sol:HodlBoosterOptionUpgradeable",
        "label": "optionData",
        "offset": 0,
        "slot": "107",
        "type": "t_mapping(t_uint8,t_struct(OptionData)6913_storage)"
      },
      {
        "astId": 7315,
        "contract": "contracts/HodlBoosterOptionUpgradeable.sol:HodlBoosterOptionUpgradeable",
        "label": "asset",
        "offset": 0,
        "slot": "108",
        "type": "t_mapping(t_uint8,t_address)"
      }
    ],
    "types": {
      "t_address": {
        "encoding": "inplace",
        "label": "address",
        "numberOfBytes": "20"
      },
      "t_array(t_address)dyn_storage": {
        "base": "t_address",
        "encoding": "dynamic_array",
        "label": "address[]",
        "numberOfBytes": "32"
      },
      "t_array(t_uint256)49_storage": {
        "base": "t_uint256",
        "encoding": "inplace",
        "label": "uint256[49]",
        "numberOfBytes": "1568"
      },
      "t_array(t_uint256)50_storage": {
        "base": "t_uint256",
        "encoding": "inplace",
        "label": "uint256[50]",
        "numberOfBytes": "1600"
      },
      "t_bool": {
        "encoding": "inplace",
        "label": "bool",
        "numberOfBytes": "1"
      },
      "t_enum(OptionExecution)6996": {
        "encoding": "inplace",
        "label": "enum StructureData.OptionExecution",
        "numberOfBytes": "1"
      },
      "t_int128": {
        "encoding": "inplace",
        "label": "int128",
        "numberOfBytes": "16"
      },
      "t_mapping(t_address,t_struct(AssetData)6893_storage)": {
        "encoding": "mapping",
        "key": "t_address",
        "label": "mapping(address => struct StructureData.AssetData)",
        "numberOfBytes": "32",
        "value": "t_struct(AssetData)6893_storage"
      },
      "t_mapping(t_address,t_struct(SettlementCashflowResult)7015_storage)": {
        "encoding": "mapping",
        "key": "t_address",
        "label": "mapping(address => struct StructureData.SettlementCashflowResult)",
        "numberOfBytes": "32",
        "value": "t_struct(SettlementCashflowResult)7015_storage"
      },
      "t_mapping(t_address,t_struct(UserState)6930_storage)": {
        "encoding": "mapping",
        "key": "t_address",
        "label": "mapping(address => struct StructureData.UserState)",
        "numberOfBytes": "32",
        "value": "t_struct(UserState)6930_storage"
      },
      "t_mapping(t_uint16,t_struct(OptionState)6855_storage)": {
        "encoding": "mapping",
        "key": "t_uint16",
        "label": "mapping(uint16 => struct StructureData.OptionState)",
        "numberOfBytes": "32",
        "value": "t_struct(OptionState)6855_storage"
      },
      "t_mapping(t_uint8,t_address)": {
        "encoding": "mapping",
        "key": "t_uint8",
        "label": "mapping(uint8 => address)",
        "numberOfBytes": "32",
        "value": "t_address"
      },
      "t_mapping(t_uint8,t_struct(OptionData)6913_storage)": {
        "encoding": "mapping",
        "key": "t_uint8",
        "label": "mapping(uint8 => struct StructureData.OptionData)",
        "numberOfBytes": "32",
        "value": "t_struct(OptionData)6913_storage"
      },
      "t_mapping(t_uint8,t_struct(OptionPairDefinition)6971_storage)": {
        "encoding": "mapping",
        "key": "t_uint8",
        "label": "mapping(uint8 => struct StructureData.OptionPairDefinition)",
        "numberOfBytes": "32",
        "value": "t_struct(OptionPairDefinition)6971_storage"
      },
      "t_mapping(t_uint8,t_struct(OptionPairExecutionAccountingResult)7006_storage)": {
        "encoding": "mapping",
        "key": "t_uint8",
        "label": "mapping(uint8 => struct StructureData.OptionPairExecutionAccountingResult)",
        "numberOfBytes": "32",
        "value": "t_struct(OptionPairExecutionAccountingResult)7006_storage"
      },
      "t_struct(AssetData)6893_storage": {
        "encoding": "inplace",
        "label": "struct StructureData.AssetData",
        "members": [
          {
            "astId": 6882,
            "contract": "contracts/HodlBoosterOptionUpgradeable.sol:HodlBoosterOptionUpgradeable",
            "label": "releasedAmount",
            "offset": 0,
            "slot": "0",
            "type": "t_uint128"
          },
          {
            "astId": 6884,
            "contract": "contracts/HodlBoosterOptionUpgradeable.sol:HodlBoosterOptionUpgradeable",
            "label": "depositAmount",
            "offset": 16,
            "slot": "0",
            "type": "t_uint128"
          },
          {
            "astId": 6886,
            "contract": "contracts/HodlBoosterOptionUpgradeable.sol:HodlBoosterOptionUpgradeable",
            "label": "leftOverAmount",
            "offset": 0,
            "slot": "1",
            "type": "t_int128"
          },
          {
            "astId": 6888,
            "contract": "contracts/HodlBoosterOptionUpgradeable.sol:HodlBoosterOptionUpgradeable",
            "label": "balanceAfterSettle",
            "offset": 16,
            "slot": "1",
            "type": "t_uint128"
          },
          {
            "astId": 6890,
            "contract": "contracts/HodlBoosterOptionUpgradeable.sol:HodlBoosterOptionUpgradeable",
            "label": "withdrawableAfterSettle",
            "offset": 0,
            "slot": "2",
            "type": "t_uint128"
          },
          {
            "astId": 6892,
            "contract": "contracts/HodlBoosterOptionUpgradeable.sol:HodlBoosterOptionUpgradeable",
            "label": "traderWithdrawn",
            "offset": 16,
            "slot": "2",
            "type": "t_uint128"
          }
        ],
        "numberOfBytes": "96"
      },
      "t_struct(OptionData)6913_storage": {
        "encoding": "inplace",
        "label": "struct StructureData.OptionData",
        "members": [
          {
            "astId": 6895,
            "contract": "contracts/HodlBoosterOptionUpgradeable.sol:HodlBoosterOptionUpgradeable",
            "label": "totalReleasedDepositAssetAmount",
            "offset": 0,
            "slot": "0",
            "type": "t_uint128"
          },
          {
            "astId": 6897,
            "contract": "contracts/HodlBoosterOptionUpgradeable.sol:HodlBoosterOptionUpgradeable",
            "label": "totalReleasedCounterPartyAssetAmount",
            "offset": 16,
            "slot": "0",
            "type": "t_uint128"
          },
          {
            "astId": 6899,
            "contract": "contracts/HodlBoosterOptionUpgradeable.sol:HodlBoosterOptionUpgradeable",
            "label": "assetToTerminateForNextRound",
            "offset": 0,
            "slot": "1",
            "type": "t_uint128"
          },
          {
            "astId": 6904,
            "contract": "contracts/HodlBoosterOptionUpgradeable.sol:HodlBoosterOptionUpgradeable",
            "label": "optionStates",
            "offset": 0,
            "slot": "2",
            "type": "t_mapping(t_uint16,t_struct(OptionState)6855_storage)"
          },
          {
            "astId": 6907,
            "contract": "contracts/HodlBoosterOptionUpgradeable.sol:HodlBoosterOptionUpgradeable",
            "label": "usersInvolved",
            "offset": 0,
            "slot": "3",
            "type": "t_array(t_address)dyn_storage"
          },
          {
            "astId": 6912,
            "contract": "contracts/HodlBoosterOptionUpgradeable.sol:HodlBoosterOptionUpgradeable",
            "label": "userStates",
            "offset": 0,
            "slot": "4",
            "type": "t_mapping(t_address,t_struct(UserState)6930_storage)"
          }
        ],
        "numberOfBytes": "160"
      },
      "t_struct(OptionPairDefinition)6971_storage": {
        "encoding": "inplace",
        "label": "struct StructureData.OptionPairDefinition",
        "members": [
          {
            "astId": 6958,
            "contract": "contracts/HodlBoosterOptionUpgradeable.sol:HodlBoosterOptionUpgradeable",
            "label": "callOptionId",
            "offset": 0,
            "slot": "0",
            "type": "t_uint8"
          },
          {
            "astId": 6960,
            "contract": "contracts/HodlBoosterOptionUpgradeable.sol:HodlBoosterOptionUpgradeable",
            "label": "putOptionId",
            "offset": 1,
            "slot": "0",
            "type": "t_uint8"
          },
          {
            "astId": 6962,
            "contract": "contracts/HodlBoosterOptionUpgradeable.sol:HodlBoosterOptionUpgradeable",
            "label": "depositAssetAmountDecimals",
            "offset": 2,
            "slot": "0",
            "type": "t_uint8"
          },
          {
            "astId": 6964,
            "contract": "contracts/HodlBoosterOptionUpgradeable.sol:HodlBoosterOptionUpgradeable",
            "label": "counterPartyAssetAmountDecimals",
            "offset": 3,
            "slot": "0",
            "type": "t_uint8"
          },
          {
            "astId": 6966,
            "contract": "contracts/HodlBoosterOptionUpgradeable.sol:HodlBoosterOptionUpgradeable",
            "label": "depositAsset",
            "offset": 4,
            "slot": "0",
            "type": "t_address"
          },
          {
            "astId": 6968,
            "contract": "contracts/HodlBoosterOptionUpgradeable.sol:HodlBoosterOptionUpgradeable",
            "label": "counterPartyAsset",
            "offset": 0,
            "slot": "1",
            "type": "t_address"
          },
          {
            "astId": 6970,
            "contract": "contracts/HodlBoosterOptionUpgradeable.sol:HodlBoosterOptionUpgradeable",
            "label": "manualDepositDisabled",
            "offset": 20,
            "slot": "1",
            "type": "t_bool"
          }
        ],
        "numberOfBytes": "64"
      },
      "t_struct(OptionPairExecutionAccountingResult)7006_storage": {
        "encoding": "inplace",
        "label": "struct StructureData.OptionPairExecutionAccountingResult",
        "members": [
          {
            "astId": 6999,
            "contract": "contracts/HodlBoosterOptionUpgradeable.sol:HodlBoosterOptionUpgradeable",
            "label": "callOptionResult",
            "offset": 0,
            "slot": "0",
            "type": "t_struct(SettlementAccountingResult)6992_storage"
          },
          {
            "astId": 7002,
            "contract": "contracts/HodlBoosterOptionUpgradeable.sol:HodlBoosterOptionUpgradeable",
            "label": "putOptionResult",
            "offset": 0,
            "slot": "5",
            "type": "t_struct(SettlementAccountingResult)6992_storage"
          },
          {
            "astId": 7005,
            "contract": "contracts/HodlBoosterOptionUpgradeable.sol:HodlBoosterOptionUpgradeable",
            "label": "execute",
            "offset": 0,
            "slot": "10",
            "type": "t_enum(OptionExecution)6996"
          }
        ],
        "numberOfBytes": "352"
      },
      "t_struct(OptionState)6855_storage": {
        "encoding": "inplace",
        "label": "struct StructureData.OptionState",
        "members": [
          {
            "astId": 6842,
            "contract": "contracts/HodlBoosterOptionUpgradeable.sol:HodlBoosterOptionUpgradeable",
            "label": "totalAmount",
            "offset": 0,
            "slot": "0",
            "type": "t_uint128"
          },
          {
            "astId": 6844,
            "contract": "contracts/HodlBoosterOptionUpgradeable.sol:HodlBoosterOptionUpgradeable",
            "label": "totalTerminate",
            "offset": 16,
            "slot": "0",
            "type": "t_uint128"
          },
          {
            "astId": 6846,
            "contract": "contracts/HodlBoosterOptionUpgradeable.sol:HodlBoosterOptionUpgradeable",
            "label": "strikePrice",
            "offset": 0,
            "slot": "1",
            "type": "t_uint128"
          },
          {
            "astId": 6848,
            "contract": "contracts/HodlBoosterOptionUpgradeable.sol:HodlBoosterOptionUpgradeable",
            "label": "round",
            "offset": 16,
            "slot": "1",
            "type": "t_uint16"
          },
          {
            "astId": 6850,
            "contract": "contracts/HodlBoosterOptionUpgradeable.sol:HodlBoosterOptionUpgradeable",
            "label": "premiumRate",
            "offset": 18,
            "slot": "1",
            "type": "t_uint16"
          },
          {
            "astId": 6852,
            "contract": "contracts/HodlBoosterOptionUpgradeable.sol:HodlBoosterOptionUpgradeable",
            "label": "executed",
            "offset": 20,
            "slot": "1",
            "type": "t_bool"
          },
          {
            "astId": 6854,
            "contract": "contracts/HodlBoosterOptionUpgradeable.sol:HodlBoosterOptionUpgradeable",
            "label": "callOrPut",
            "offset": 21,
            "slot": "1",
            "type": "t_bool"
          }
        ],
        "numberOfBytes": "64"
      },
      "t_struct(SettlementAccountingResult)6992_storage": {
        "encoding": "inplace",
        "label": "struct StructureData.SettlementAccountingResult",
        "members": [
          {
            "astId": 6973,
            "contract": "contracts/HodlBoosterOptionUpgradeable.sol:HodlBoosterOptionUpgradeable",
            "label": "depositAmount",
            "offset": 0,
            "slot": "0",
            "type": "t_uint128"
          },
          {
            "astId": 6975,
            "contract": "contracts/HodlBoosterOptionUpgradeable.sol:HodlBoosterOptionUpgradeable",
            "label": "autoRollAmount",
            "offset": 16,
            "slot": "0",
            "type": "t_uint128"
          },
          {
            "astId": 6977,
            "contract": "contracts/HodlBoosterOptionUpgradeable.sol:HodlBoosterOptionUpgradeable",
            "label": "autoRollPremium",
            "offset": 0,
            "slot": "1",
            "type": "t_uint128"
          },
          {
            "astId": 6979,
            "contract": "contracts/HodlBoosterOptionUpgradeable.sol:HodlBoosterOptionUpgradeable",
            "label": "releasedAmount",
            "offset": 16,
            "slot": "1",
            "type": "t_uint128"
          },
          {
            "astId": 6981,
            "contract": "contracts/HodlBoosterOptionUpgradeable.sol:HodlBoosterOptionUpgradeable",
            "label": "releasedPremium",
            "offset": 0,
            "slot": "2",
            "type": "t_uint128"
          },
          {
            "astId": 6983,
            "contract": "contracts/HodlBoosterOptionUpgradeable.sol:HodlBoosterOptionUpgradeable",
            "label": "autoRollCounterPartyAmount",
            "offset": 16,
            "slot": "2",
            "type": "t_uint128"
          },
          {
            "astId": 6985,
            "contract": "contracts/HodlBoosterOptionUpgradeable.sol:HodlBoosterOptionUpgradeable",
            "label": "autoRollCounterPartyPremium",
            "offset": 0,
            "slot": "3",
            "type": "t_uint128"
          },
          {
            "astId": 6987,
            "contract": "contracts/HodlBoosterOptionUpgradeable.sol:HodlBoosterOptionUpgradeable",
            "label": "releasedCounterPartyAmount",
            "offset": 16,
            "slot": "3",
            "type": "t_uint128"
          },
          {
            "astId": 6989,
            "contract": "contracts/HodlBoosterOptionUpgradeable.sol:HodlBoosterOptionUpgradeable",
            "label": "releasedCounterPartyPremium",
            "offset": 0,
            "slot": "4",
            "type": "t_uint128"
          },
          {
            "astId": 6991,
            "contract": "contracts/HodlBoosterOptionUpgradeable.sol:HodlBoosterOptionUpgradeable",
            "label": "executed",
            "offset": 16,
            "slot": "4",
            "type": "t_bool"
          }
        ],
        "numberOfBytes": "160"
      },
      "t_struct(SettlementCashflowResult)7015_storage": {
        "encoding": "inplace",
        "label": "struct StructureData.SettlementCashflowResult",
        "members": [
          {
            "astId": 7008,
            "contract": "contracts/HodlBoosterOptionUpgradeable.sol:HodlBoosterOptionUpgradeable",
            "label": "newDepositAmount",
            "offset": 0,
            "slot": "0",
            "type": "t_uint128"
          },
          {
            "astId": 7010,
            "contract": "contracts/HodlBoosterOptionUpgradeable.sol:HodlBoosterOptionUpgradeable",
            "label": "newReleasedAmount",
            "offset": 16,
            "slot": "0",
            "type": "t_uint128"
          },
          {
            "astId": 7012,
            "contract": "contracts/HodlBoosterOptionUpgradeable.sol:HodlBoosterOptionUpgradeable",
            "label": "leftOverAmount",
            "offset": 0,
            "slot": "1",
            "type": "t_int128"
          },
          {
            "astId": 7014,
            "contract": "contracts/HodlBoosterOptionUpgradeable.sol:HodlBoosterOptionUpgradeable",
            "label": "contractAddress",
            "offset": 0,
            "slot": "2",
            "type": "t_address"
          }
        ],
        "numberOfBytes": "96"
      },
      "t_struct(UserState)6930_storage": {
        "encoding": "inplace",
        "label": "struct StructureData.UserState",
        "members": [
          {
            "astId": 6915,
            "contract": "contracts/HodlBoosterOptionUpgradeable.sol:HodlBoosterOptionUpgradeable",
            "label": "pendingAsset",
            "offset": 0,
            "slot": "0",
            "type": "t_uint128"
          },
          {
            "astId": 6917,
            "contract": "contracts/HodlBoosterOptionUpgradeable.sol:HodlBoosterOptionUpgradeable",
            "label": "tempLocked",
            "offset": 16,
            "slot": "0",
            "type": "t_uint128"
          },
          {
            "astId": 6919,
            "contract": "contracts/HodlBoosterOptionUpgradeable.sol:HodlBoosterOptionUpgradeable",
            "label": "ongoingAsset",
            "offset": 0,
            "slot": "1",
            "type": "t_uint128"
          },
          {
            "astId": 6921,
            "contract": "contracts/HodlBoosterOptionUpgradeable.sol:HodlBoosterOptionUpgradeable",
            "label": "assetToTerminate",
            "offset": 16,
            "slot": "1",
            "type": "t_uint128"
          },
          {
            "astId": 6923,
            "contract": "contracts/HodlBoosterOptionUpgradeable.sol:HodlBoosterOptionUpgradeable",
            "label": "assetToTerminateForNextRound",
            "offset": 0,
            "slot": "2",
            "type": "t_uint128"
          },
          {
            "astId": 6925,
            "contract": "contracts/HodlBoosterOptionUpgradeable.sol:HodlBoosterOptionUpgradeable",
            "label": "releasedDepositAssetAmount",
            "offset": 16,
            "slot": "2",
            "type": "t_uint128"
          },
          {
            "astId": 6927,
            "contract": "contracts/HodlBoosterOptionUpgradeable.sol:HodlBoosterOptionUpgradeable",
            "label": "releasedCounterPartyAssetAmount",
            "offset": 0,
            "slot": "3",
            "type": "t_uint128"
          },
          {
            "astId": 6929,
            "contract": "contracts/HodlBoosterOptionUpgradeable.sol:HodlBoosterOptionUpgradeable",
            "label": "hasState",
            "offset": 16,
            "slot": "3",
            "type": "t_bool"
          }
        ],
        "numberOfBytes": "128"
      },
      "t_uint128": {
        "encoding": "inplace",
        "label": "uint128",
        "numberOfBytes": "16"
      },
      "t_uint16": {
        "encoding": "inplace",
        "label": "uint16",
        "numberOfBytes": "2"
      },
      "t_uint256": {
        "encoding": "inplace",
        "label": "uint256",
        "numberOfBytes": "32"
      },
      "t_uint8": {
        "encoding": "inplace",
        "label": "uint8",
        "numberOfBytes": "1"
      }
    }
  }
}