{
  "address": "0x24e7a8eb101581C0dd6e184EeC82a16dcbf7F419",
  "abi": [
    {
      "anonymous": false,
      "inputs": [
        {
          "indexed": true,
          "internalType": "address",
          "name": "oldAdmin",
          "type": "address"
        },
        {
          "indexed": true,
          "internalType": "address",
          "name": "newAdmin",
          "type": "address"
        }
      ],
      "name": "AdminChanged",
      "type": "event"
    },
    {
      "anonymous": false,
      "inputs": [
        {
          "indexed": true,
          "internalType": "uint8",
          "name": "optionId",
          "type": "uint8"
        },
        {
          "indexed": true,
          "internalType": "address",
          "name": "account",
          "type": "address"
        },
        {
          "indexed": true,
          "internalType": "uint16",
          "name": "round",
          "type": "uint16"
        },
        {
          "indexed": false,
          "internalType": "uint256",
          "name": "amount",
          "type": "uint256"
        }
      ],
      "name": "Deposit",
      "type": "event"
    },
    {
      "anonymous": false,
      "inputs": [
        {
          "indexed": true,
          "internalType": "address",
          "name": "oldManager",
          "type": "address"
        },
        {
          "indexed": true,
          "internalType": "address",
          "name": "newManager",
          "type": "address"
        }
      ],
      "name": "ManagerChanged",
      "type": "event"
    },
    {
      "anonymous": false,
      "inputs": [
        {
          "indexed": true,
          "internalType": "address",
          "name": "previousOwner",
          "type": "address"
        },
        {
          "indexed": true,
          "internalType": "address",
          "name": "newOwner",
          "type": "address"
        }
      ],
      "name": "OwnershipTransferred",
      "type": "event"
    },
    {
      "anonymous": false,
      "inputs": [
        {
          "indexed": true,
          "internalType": "uint8",
          "name": "optionId",
          "type": "uint8"
        },
        {
          "indexed": true,
          "internalType": "address",
          "name": "account",
          "type": "address"
        },
        {
          "indexed": true,
          "internalType": "address",
          "name": "asset",
          "type": "address"
        },
        {
          "indexed": false,
          "internalType": "uint256",
          "name": "amount",
          "type": "uint256"
        }
      ],
      "name": "Withdraw",
      "type": "event"
    },
    {
      "inputs": [
        {
          "components": [
            {
              "internalType": "uint8",
              "name": "callOptionId",
              "type": "uint8"
            },
            {
              "internalType": "uint8",
              "name": "putOptionId",
              "type": "uint8"
            },
            {
              "internalType": "uint8",
              "name": "depositAssetAmountDecimals",
              "type": "uint8"
            },
            {
              "internalType": "uint8",
              "name": "counterPartyAssetAmountDecimals",
              "type": "uint8"
            },
            {
              "internalType": "address",
              "name": "depositAsset",
              "type": "address"
            },
            {
              "internalType": "address",
              "name": "counterPartyAsset",
              "type": "address"
            },
            {
              "internalType": "bool",
              "name": "manualDepositDisabled",
              "type": "bool"
            }
          ],
          "internalType": "struct StructureData.OptionPairDefinition[]",
          "name": "_optionPairDefinitions",
          "type": "tuple[]"
        }
      ],
      "name": "addOptionPairs",
      "outputs": [],
      "stateMutability": "nonpayable",
      "type": "function"
    },
    {
      "inputs": [],
      "name": "adminRoleAddress",
      "outputs": [
        {
          "internalType": "address",
          "name": "",
          "type": "address"
        }
      ],
      "stateMutability": "view",
      "type": "function"
    },
    {
      "inputs": [
        {
          "internalType": "address",
          "name": "_asset",
          "type": "address"
        }
      ],
      "name": "balanceEnough",
      "outputs": [
        {
          "internalType": "bool",
          "name": "",
          "type": "bool"
        }
      ],
      "stateMutability": "view",
      "type": "function"
    },
    {
      "inputs": [
        {
          "internalType": "uint8",
          "name": "_optionId",
          "type": "uint8"
        },
        {
          "internalType": "uint256",
          "name": "_assetToTerminate",
          "type": "uint256"
        }
      ],
      "name": "cancelWithdraw",
      "outputs": [],
      "stateMutability": "nonpayable",
      "type": "function"
    },
    {
      "inputs": [],
      "name": "currentRound",
      "outputs": [
        {
          "internalType": "uint16",
          "name": "",
          "type": "uint16"
        }
      ],
      "stateMutability": "view",
      "type": "function"
    },
    {
      "inputs": [
        {
          "internalType": "uint8",
          "name": "_optionId",
          "type": "uint8"
        },
        {
          "internalType": "uint256",
          "name": "_amount",
          "type": "uint256"
        }
      ],
      "name": "deposit",
      "outputs": [],
      "stateMutability": "nonpayable",
      "type": "function"
    },
    {
      "inputs": [
        {
          "internalType": "uint8",
          "name": "_optionId",
          "type": "uint8"
        }
      ],
      "name": "depositETH",
      "outputs": [],
      "stateMutability": "payable",
      "type": "function"
    },
    {
      "inputs": [
        {
          "internalType": "uint8",
          "name": "",
          "type": "uint8"
        }
      ],
      "name": "executionAccountingResult",
      "outputs": [
        {
          "components": [
            {
              "internalType": "uint128",
              "name": "depositAmount",
              "type": "uint128"
            },
            {
              "internalType": "uint128",
              "name": "autoRollAmount",
              "type": "uint128"
            },
            {
              "internalType": "uint128",
              "name": "autoRollPremium",
              "type": "uint128"
            },
            {
              "internalType": "uint128",
              "name": "releasedAmount",
              "type": "uint128"
            },
            {
              "internalType": "uint128",
              "name": "releasedPremium",
              "type": "uint128"
            },
            {
              "internalType": "uint128",
              "name": "autoRollCounterPartyAmount",
              "type": "uint128"
            },
            {
              "internalType": "uint128",
              "name": "autoRollCounterPartyPremium",
              "type": "uint128"
            },
            {
              "internalType": "uint128",
              "name": "releasedCounterPartyAmount",
              "type": "uint128"
            },
            {
              "internalType": "uint128",
              "name": "releasedCounterPartyPremium",
              "type": "uint128"
            },
            {
              "internalType": "bool",
              "name": "executed",
              "type": "bool"
            }
          ],
          "internalType": "struct StructureData.SettlementAccountingResult",
          "name": "callOptionResult",
          "type": "tuple"
        },
        {
          "components": [
            {
              "internalType": "uint128",
              "name": "depositAmount",
              "type": "uint128"
            },
            {
              "internalType": "uint128",
              "name": "autoRollAmount",
              "type": "uint128"
            },
            {
              "internalType": "uint128",
              "name": "autoRollPremium",
              "type": "uint128"
            },
            {
              "internalType": "uint128",
              "name": "releasedAmount",
              "type": "uint128"
            },
            {
              "internalType": "uint128",
              "name": "releasedPremium",
              "type": "uint128"
            },
            {
              "internalType": "uint128",
              "name": "autoRollCounterPartyAmount",
              "type": "uint128"
            },
            {
              "internalType": "uint128",
              "name": "autoRollCounterPartyPremium",
              "type": "uint128"
            },
            {
              "internalType": "uint128",
              "name": "releasedCounterPartyAmount",
              "type": "uint128"
            },
            {
              "internalType": "uint128",
              "name": "releasedCounterPartyPremium",
              "type": "uint128"
            },
            {
              "internalType": "bool",
              "name": "executed",
              "type": "bool"
            }
          ],
          "internalType": "struct StructureData.SettlementAccountingResult",
          "name": "putOptionResult",
          "type": "tuple"
        },
        {
          "internalType": "enum StructureData.OptionExecution",
          "name": "execute",
          "type": "uint8"
        }
      ],
      "stateMutability": "view",
      "type": "function"
    },
    {
      "inputs": [
        {
          "internalType": "uint8",
          "name": "_optionId",
          "type": "uint8"
        }
      ],
      "name": "getAccountBalance",
      "outputs": [
        {
          "components": [
            {
              "internalType": "uint128",
              "name": "pendingDepositAssetAmount",
              "type": "uint128"
            },
            {
              "internalType": "uint128",
              "name": "lockedDepositAssetAmount",
              "type": "uint128"
            },
            {
              "internalType": "uint128",
              "name": "terminatingDepositAssetAmount",
              "type": "uint128"
            },
            {
              "internalType": "uint128",
              "name": "toTerminateDepositAssetAmount",
              "type": "uint128"
            },
            {
              "internalType": "uint128",
              "name": "releasedDepositAssetAmount",
              "type": "uint128"
            },
            {
              "internalType": "uint128",
              "name": "releasedCounterPartyAssetAmount",
              "type": "uint128"
            }
          ],
          "internalType": "struct StructureData.UserBalance",
          "name": "",
          "type": "tuple"
        }
      ],
      "stateMutability": "view",
      "type": "function"
    },
    {
      "inputs": [
        {
          "internalType": "uint8",
          "name": "_optionId",
          "type": "uint8"
        }
      ],
      "name": "getOptionSnapShot",
      "outputs": [
        {
          "components": [
            {
              "internalType": "uint128",
              "name": "totalPending",
              "type": "uint128"
            },
            {
              "internalType": "uint128",
              "name": "totalLocked",
              "type": "uint128"
            },
            {
              "internalType": "uint128",
              "name": "totalTerminating",
              "type": "uint128"
            },
            {
              "internalType": "uint128",
              "name": "totalToTerminate",
              "type": "uint128"
            },
            {
              "internalType": "uint128",
              "name": "totalReleasedDeposit",
              "type": "uint128"
            },
            {
              "internalType": "uint128",
              "name": "totalReleasedCounterParty",
              "type": "uint128"
            }
          ],
          "internalType": "struct StructureData.OptionSnapshot",
          "name": "",
          "type": "tuple"
        }
      ],
      "stateMutability": "view",
      "type": "function"
    },
    {
      "inputs": [
        {
          "internalType": "uint8",
          "name": "_optionId",
          "type": "uint8"
        },
        {
          "internalType": "uint16",
          "name": "_round",
          "type": "uint16"
        }
      ],
      "name": "getOptionStateByRound",
      "outputs": [
        {
          "components": [
            {
              "internalType": "uint128",
              "name": "totalAmount",
              "type": "uint128"
            },
            {
              "internalType": "uint128",
              "name": "totalTerminate",
              "type": "uint128"
            },
            {
              "internalType": "uint128",
              "name": "strikePrice",
              "type": "uint128"
            },
            {
              "internalType": "uint16",
              "name": "round",
              "type": "uint16"
            },
            {
              "internalType": "uint16",
              "name": "premiumRate",
              "type": "uint16"
            },
            {
              "internalType": "bool",
              "name": "executed",
              "type": "bool"
            },
            {
              "internalType": "bool",
              "name": "callOrPut",
              "type": "bool"
            }
          ],
          "internalType": "struct StructureData.OptionState",
          "name": "",
          "type": "tuple"
        }
      ],
      "stateMutability": "view",
      "type": "function"
    },
    {
      "inputs": [
        {
          "internalType": "address",
          "name": "_owner",
          "type": "address"
        },
        {
          "internalType": "address",
          "name": "_admin",
          "type": "address"
        },
        {
          "internalType": "address",
          "name": "_manager",
          "type": "address"
        },
        {
          "components": [
            {
              "internalType": "uint8",
              "name": "callOptionId",
              "type": "uint8"
            },
            {
              "internalType": "uint8",
              "name": "putOptionId",
              "type": "uint8"
            },
            {
              "internalType": "uint8",
              "name": "depositAssetAmountDecimals",
              "type": "uint8"
            },
            {
              "internalType": "uint8",
              "name": "counterPartyAssetAmountDecimals",
              "type": "uint8"
            },
            {
              "internalType": "address",
              "name": "depositAsset",
              "type": "address"
            },
            {
              "internalType": "address",
              "name": "counterPartyAsset",
              "type": "address"
            },
            {
              "internalType": "bool",
              "name": "manualDepositDisabled",
              "type": "bool"
            }
          ],
          "internalType": "struct StructureData.OptionPairDefinition[]",
          "name": "_optionPairDefinitions",
          "type": "tuple[]"
        }
      ],
      "name": "initialize",
      "outputs": [],
      "stateMutability": "nonpayable",
      "type": "function"
    },
    {
      "inputs": [],
      "name": "initiateSettlement",
      "outputs": [],
      "stateMutability": "nonpayable",
      "type": "function"
    },
    {
      "inputs": [
        {
          "internalType": "uint8",
          "name": "_optionId",
          "type": "uint8"
        },
        {
          "internalType": "uint256",
          "name": "_assetToTerminate",
          "type": "uint256"
        }
      ],
      "name": "initiateWithraw",
      "outputs": [],
      "stateMutability": "nonpayable",
      "type": "function"
    },
    {
      "inputs": [],
      "name": "managerRoleAddress",
      "outputs": [
        {
          "internalType": "address",
          "name": "",
          "type": "address"
        }
      ],
      "stateMutability": "view",
      "type": "function"
    },
    {
      "inputs": [],
      "name": "optionPairCount",
      "outputs": [
        {
          "internalType": "uint8",
          "name": "",
          "type": "uint8"
        }
      ],
      "stateMutability": "view",
      "type": "function"
    },
    {
      "inputs": [
        {
          "internalType": "uint8",
          "name": "",
          "type": "uint8"
        }
      ],
      "name": "optionPairs",
      "outputs": [
        {
          "internalType": "uint8",
          "name": "callOptionId",
          "type": "uint8"
        },
        {
          "internalType": "uint8",
          "name": "putOptionId",
          "type": "uint8"
        },
        {
          "internalType": "uint8",
          "name": "depositAssetAmountDecimals",
          "type": "uint8"
        },
        {
          "internalType": "uint8",
          "name": "counterPartyAssetAmountDecimals",
          "type": "uint8"
        },
        {
          "internalType": "address",
          "name": "depositAsset",
          "type": "address"
        },
        {
          "internalType": "address",
          "name": "counterPartyAsset",
          "type": "address"
        },
        {
          "internalType": "bool",
          "name": "manualDepositDisabled",
          "type": "bool"
        }
      ],
      "stateMutability": "view",
      "type": "function"
    },
    {
      "inputs": [],
      "name": "owner",
      "outputs": [
        {
          "internalType": "address",
          "name": "",
          "type": "address"
        }
      ],
      "stateMutability": "view",
      "type": "function"
    },
    {
      "inputs": [],
      "name": "renounceOwnership",
      "outputs": [],
      "stateMutability": "nonpayable",
      "type": "function"
    },
    {
      "inputs": [],
      "name": "sendBackAssets",
      "outputs": [],
      "stateMutability": "payable",
      "type": "function"
    },
    {
      "inputs": [
        {
          "internalType": "address",
          "name": "_admin",
          "type": "address"
        }
      ],
      "name": "setAdmin",
      "outputs": [],
      "stateMutability": "nonpayable",
      "type": "function"
    },
    {
      "inputs": [
        {
          "internalType": "address",
          "name": "_manager",
          "type": "address"
        }
      ],
      "name": "setManager",
      "outputs": [],
      "stateMutability": "nonpayable",
      "type": "function"
    },
    {
      "inputs": [
        {
          "internalType": "uint256[]",
          "name": "_parameters",
          "type": "uint256[]"
        }
      ],
      "name": "setOptionParameters",
      "outputs": [],
      "stateMutability": "nonpayable",
      "type": "function"
    },
    {
      "inputs": [
        {
          "internalType": "enum StructureData.OptionExecution[]",
          "name": "_execution",
          "type": "uint8[]"
        }
      ],
      "name": "settle",
      "outputs": [],
      "stateMutability": "nonpayable",
      "type": "function"
    },
    {
      "inputs": [
        {
          "internalType": "address",
          "name": "",
          "type": "address"
        }
      ],
      "name": "settlementCashflowResult",
      "outputs": [
        {
          "internalType": "uint128",
          "name": "newDepositAmount",
          "type": "uint128"
        },
        {
          "internalType": "uint128",
          "name": "newReleasedAmount",
          "type": "uint128"
        },
        {
          "internalType": "int128",
          "name": "leftOverAmount",
          "type": "int128"
        },
        {
          "internalType": "address",
          "name": "contractAddress",
          "type": "address"
        }
      ],
      "stateMutability": "view",
      "type": "function"
    },
    {
      "inputs": [
        {
          "internalType": "uint8",
          "name": "_pairId",
          "type": "uint8"
        }
      ],
      "name": "toggleOptionPairDeposit",
      "outputs": [],
      "stateMutability": "nonpayable",
      "type": "function"
    },
    {
      "inputs": [
        {
          "internalType": "address",
          "name": "newOwner",
          "type": "address"
        }
      ],
      "name": "transferOwnership",
      "outputs": [],
      "stateMutability": "nonpayable",
      "type": "function"
    },
    {
      "inputs": [],
      "name": "underSettlement",
      "outputs": [
        {
          "internalType": "bool",
          "name": "",
          "type": "bool"
        }
      ],
      "stateMutability": "view",
      "type": "function"
    },
    {
      "inputs": [
        {
          "internalType": "uint8",
          "name": "_optionId",
          "type": "uint8"
        },
        {
          "internalType": "uint256",
          "name": "_amount",
          "type": "uint256"
        },
        {
          "internalType": "address",
          "name": "_asset",
          "type": "address"
        }
      ],
      "name": "withdraw",
      "outputs": [],
      "stateMutability": "nonpayable",
      "type": "function"
    },
    {
      "inputs": [],
      "name": "withdrawAssets",
      "outputs": [],
      "stateMutability": "nonpayable",
      "type": "function"
    }
  ],
  "transactionHash": "0x9b8f0e724129c24bb1e54c1d9feb1203ef47f81538e5ac1e55e141109063bb1c",
  "args": [],
  "solcInputHash": "f2f2bc8059285ab9fff770d545de0fdb",
  "bytecode": "0x608060405234801561001057600080fd5b50614de6806100206000396000f3fe6080604052600436106101cd5760003560e01c8063715018a6116100f7578063ac4b8a6411610095578063d0ebdbe711610064578063d0ebdbe7146108f5578063ddd0247514610915578063f2fde38b14610948578063f4d4c9d71461096857600080fd5b8063ac4b8a6414610737578063c42f3f9414610757578063c5cfc5be14610777578063c78b432e146108e057600080fd5b806383eb772e116100d157806383eb772e1461062f5780638a19c8bc146106c85780638da5cb5b146106fd5780639e3dce861461072f57600080fd5b8063715018a6146105da5780637332655b146105ef578063748d188b1461060f57600080fd5b806355bf621f1161016f578063644d41ed1161013e578063644d41ed1461052b5780636b37e4e31461056d578063704b6c021461059a57806371018682146105ba57600080fd5b806355bf621f146104085780635d3e0e4d146104285780635edae4db146104485780636386bcc41461046857600080fd5b806332b76e86116101ab57806332b76e861461023d57806336687e0f1461025d5780634dd96f861461027257806351fe669e1461029257600080fd5b80630748248f146101d2578063222f6b8314610208578063256d43d71461022a575b600080fd5b3480156101de57600080fd5b506067546101f390600160c01b900460ff1681565b60405190151581526020015b60405180910390f35b34801561021457600080fd5b5061022861022336600461467f565b610988565b005b610228610238366004614629565b610a70565b34801561024957600080fd5b5061022861025836600461431a565b610cdf565b34801561026957600080fd5b50610228611489565b34801561027e57600080fd5b5061022861028d3660046143ec565b611605565b34801561029e57600080fd5b506103f96102ad366004614629565b606b602090815260009182526040918290208251610140808201855282546001600160801b038082168452600160801b918290048116848701526001850154808216858901528290048116606080860191909152600286015480831660808088019190915290849004831660a080880191909152600388015480851660c0808a019190915290869004851660e0808a019190915260048a0154808716610100808c01919091529088900460ff9081161515610120808d01919091528e519a8b018f5260058d0154808a168c528a900489169d8b019d909d5260068c01548089169e8b019e909e529c88900487169589019590955260078a01548087169489019490945292869004851691870191909152600888015480851691870191909152849004831690850152600986015491821690840152048516151593810193909352600a9091015490921683565b6040516101ff939291906149c9565b34801561041457600080fd5b506102286104233660046146a8565b6117ab565b34801561043457600080fd5b50610228610443366004614629565b61198c565b34801561045457600080fd5b506102286104633660046143b9565b6119ec565b34801561047457600080fd5b506104dd610483366004614629565b606a602052600090815260409020805460019091015460ff808316926101008104821692620100008204831692630100000083048116926001600160a01b03600160201b90910481169290811691600160a01b9091041687565b6040805160ff98891681529688166020880152948716948601949094529490911660608401526001600160a01b03908116608084015290921660a082015290151560c082015260e0016101ff565b34801561053757600080fd5b506101f3610546366004614293565b6001600160a01b0316600090815260696020526040812060010154600f90810b900b121590565b34801561057957600080fd5b5061058d610588366004614629565b611a22565b6040516101ff9190614971565b3480156105a657600080fd5b506102286105b5366004614293565b611b17565b3480156105c657600080fd5b5061058d6105d5366004614629565b611b4a565b3480156105e657600080fd5b50610228611bf3565b3480156105fb57600080fd5b5061022861060a36600461467f565b611c29565b34801561061b57600080fd5b5061022861062a3660046142ad565b611ce0565b34801561063b57600080fd5b5061068b61064a366004614293565b6068602052600090815260409020805460018201546002909201546001600160801b0380831693600160801b9093041691600f0b906001600160a01b031684565b604080516001600160801b039586168152949093166020850152600f9190910b918301919091526001600160a01b031660608201526080016101ff565b3480156106d457600080fd5b506067546106ea90600160b01b900461ffff1681565b60405161ffff90911681526020016101ff565b34801561070957600080fd5b506033546001600160a01b03165b6040516001600160a01b0390911681526020016101ff565b610228611dd8565b34801561074357600080fd5b50606654610717906001600160a01b031681565b34801561076357600080fd5b50606754610717906001600160a01b031681565b34801561078357600080fd5b5061086d610792366004614643565b6040805160e081018252600080825260208201819052918101829052606081018290526080810182905260a0810182905260c08101919091525060ff8083166000908152606c6020908152604080832061ffff80871685526002909101835292819020815160e08101835281546001600160801b038082168352600160801b9182900481169583019590955260019092015493841692810192909252820483166060820152600160901b82049092166080830152600160a01b81048316151560a0830152600160a81b9004909116151560c082015292915050565b6040516101ff9190600060e0820190506001600160801b0380845116835280602085015116602084015280604085015116604084015250606083015161ffff8082166060850152806080860151166080850152505060a0830151151560a083015260c0830151151560c083015292915050565b3480156108ec57600080fd5b50610228611fc9565b34801561090157600080fd5b50610228610910366004614293565b612c8c565b34801561092157600080fd5b5060675461093690600160a01b900460ff1681565b60405160ff90911681526020016101ff565b34801561095457600080fd5b50610228610963366004614293565b612cbf565b34801561097457600080fd5b5061022861098336600461467f565b612d57565b8160ff8116158015906109b857506067546109ae90600160a01b900460ff166002614bdf565b60ff168160ff1611155b6109c157600080fd5b60ff8381166000908152606c6020526040908190206067549151638a229a5760e01b8152600481019190915233602482015260448101859052600160c01b820490921615156064830152600160b01b900461ffff166084820152731EB69103a625085be89785Fe7555fC767d9F6D7F90638a229a579060a4015b60006040518083038186803b158015610a5357600080fd5b505af4158015610a67573d6000803e3d6000fd5b50505050505050565b8060ff811615801590610aa05750606754610a9690600160a01b900460ff166002614bdf565b60ff168160ff1611155b610aa957600080fd5b606754600160b01b900461ffff16610af35760405162461bcd60e51b81526020600482015260086024820152670854dd185c9d195960c21b60448201526064015b60405180910390fd5b60003411610b2e5760405162461bcd60e51b81526020600482015260086024820152676e6f2076616c756560c01b6044820152606401610aea565b6000606a816002610b40600187614c91565b610b4a9190614b9e565b60ff908116825260208201929092526040016000206001810154909250600160a01b90041615610bae5760405162461bcd60e51b815260206004820152600f60248201526e11195c1bdcda5d111a5cd8589b1959608a1b6044820152606401610aea565b805460009060ff858116911614610bd25760018201546001600160a01b0316610be5565b8154600160201b90046001600160a01b03165b90506001600160a01b03811673eeeeeeeeeeeeeeeeeeeeeeeeeeeeeeeeeeeeeeee14610c1057600080fd5b60ff84166000908152606c6020526040808220606754915163c502f99160e01b8152731EB69103a625085be89785Fe7555fC767d9F6D7F9363c502f99193610c719392339234929091600160b01b90910461ffff1690600190600401614908565b60006040518083038186803b158015610c8957600080fd5b505af4158015610c9d573d6000803e3d6000fd5b5050606754604051348152600160b01b90910461ffff16925033915060ff871690600080516020614d918339815191529060200160405180910390a450505050565b6066546001600160a01b03163314610d095760405162461bcd60e51b8152600401610aea906148e6565b606754600160c01b900460ff16610d1f57600080fd5b8051606754600160a01b900460ff168114610d3957600080fd5b606754600090610d5690600190600160b01b900461ffff16614c57565b905060005b828160ff16101561146e576000848260ff1681518110610d8b57634e487b7160e01b600052603260045260246000fd5b60209081029190910181015160ff8085166000908152606a8452604080822080548085168452606c8752828420610100918290049095168452828420835161018081018552858152978801859052928701849052606087018490526080870184905260a0870184905260c0870184905260e087018490528601839052610120860183905261014086018390526101608601929092529294509290919060006002840181610e3960018b614c57565b61ffff168152602081019190915260400160002080549091506001600160801b0316156110d3578454731EB69103a625085be89785Fe7555fC767d9F6D7F9063aab69633908690849060019060ff6201000082048116916301000000900416828d6002811115610eb957634e487b7160e01b600052602160045260246000fd5b6040516001600160e01b031960e08a901b16815260048101979097526024870195909552921515604486015260ff91821660648601521660848401521460a482015260c4016101806040518083038186803b158015610f1757600080fd5b505af4158015610f2b573d6000803e3d6000fd5b505050506040513d601f19601f82011682018060405250810190610f4f919061448f565b805190925015610fdf576040828101518654600160201b90046001600160a01b0316600090815260696020529190912054610f9c91610f97916001600160801b031690612fd0565b612fe3565b8554600160201b90046001600160a01b0316600090815260696020526040902080546001600160801b0319166001600160801b039290921691909117905561105d565b60608201511561105d5760a082015160018601546001600160a01b031660009081526069602052604090205461102291610f97916001600160801b031690612fd0565b60018601546001600160a01b0316600090815260696020526040902080546001600160801b0319166001600160801b03929092169190911790555b600186600281111561107f57634e487b7160e01b600052602160045260246000fd5b14156110b2576110ad8482858860000160019054906101000a900460ff168660a00151876101600151613050565b6110d3565b845460408301516101008401516110d392879260ff9091169185919061338b565b600060028401816110e560018c614c57565b61ffff168152602081019190915260400160002080549091506001600160801b03161561137a578554731EB69103a625085be89785Fe7555fC767d9F6D7F9063aab69633908690849060009060ff630100000082048116916201000090041660028e600281111561116657634e487b7160e01b600052602160045260246000fd5b6040516001600160e01b031960e08a901b16815260048101979097526024870195909552921515604486015260ff91821660648601521660848401521460a482015260c4016101806040518083038186803b1580156111c457600080fd5b505af41580156111d8573d6000803e3d6000fd5b505050506040513d601f19601f820116820180604052508101906111fc919061448f565b80519093501561127f5760408084015160018801546001600160a01b031660009081526069602052919091205461124091610f97916001600160801b031690612fd0565b60018701546001600160a01b0316600090815260696020526040902080546001600160801b0319166001600160801b0392909216919091179055611305565b6060830151156113055760a08301518654600160201b90046001600160a01b03166000908152606960205260409020546112c691610f97916001600160801b031690612fd0565b8654600160201b90046001600160a01b0316600090815260696020526040902080546001600160801b0319166001600160801b03929092169190911790555b600287600281111561132757634e487b7160e01b600052602160045260246000fd5b141561135357855460a084015161016085015161134e92879285928a9260ff169190613050565b61137a565b61137a848760000160019054906101000a900460ff1683866040015187610100015161338b565b6040516366aef26360e01b81526004810186905261ffff8a166024820152731EB69103a625085be89785Fe7555fC767d9F6D7F906366aef2639060440160006040518083038186803b1580156113cf57600080fd5b505af41580156113e3573d6000803e3d6000fd5b50506040516366aef26360e01b81526004810187905261ffff8c166024820152731EB69103a625085be89785Fe7555fC767d9F6D7F92506366aef263915060440160006040518083038186803b15801561143c57600080fd5b505af4158015611450573d6000803e3d6000fd5b5050505050505050505050808061146690614cfb565b915050610d5b565b506114776135ed565b50506067805460ff60c01b1916905550565b606554156114a95760405162461bcd60e51b8152600401610aea906148c6565b60016065556066546001600160a01b031633146114d85760405162461bcd60e51b8152600401610aea906148e6565b60005b60675460ff600160a81b909104811690821610156115fd5760ff81166000908152606d60209081526040808320546001600160a01b031683526069909152812060018101549091600f91820b90910b1361153557506115eb565b600181015460ff83166000908152606d602052604090819020549051631a4ca37b60e21b81523360048201526001600160801b03600f9390930b92831660248201526001600160a01b039091166044820152731EB69103a625085be89785Fe7555fC767d9F6D7F906369328dec9060640160006040518083038186803b1580156115be57600080fd5b505af41580156115d2573d6000803e3d6000fd5b505050600190920180546001600160801b031916905550505b806115f581614cfb565b9150506114db565b506000606555565b6067546001600160a01b0316331461162f5760405162461bcd60e51b8152600401610aea90614823565b8051606754600160c01b900460ff161561164857600080fd5b6067546001600160b01b90910461ffff161161166357600080fd5b60675461167b90600160a01b900460ff166002614bdf565b60ff16811461168957600080fd5b60005b818160ff1610156117a6576000838260ff16815181106116bc57634e487b7160e01b600052603260045260246000fd5b602002602001015190506000606c60008460016116d99190614b65565b60ff1660ff16815260200190815260200160002060020160006001606760169054906101000a900461ffff1661170f9190614c57565b61ffff16815260208101919091526040908101600020905163338dfe2f60e21b81526004810184905260248101829052909150731EB69103a625085be89785Fe7555fC767d9F6D7F9063ce37f8bc9060440160006040518083038186803b15801561177957600080fd5b505af415801561178d573d6000803e3d6000fd5b505050505050808061179e90614cfb565b91505061168c565b505050565b8260ff8116158015906117db57506067546117d190600160a01b900460ff166002614bdf565b60ff168160ff1611155b6117e457600080fd5b6000606a8160026117f6600189614c91565b6118009190614b9e565b60ff908116825260208083019390935260409182016000908120898316808352606c9095529290206067548354939550731EB69103a625085be89785Fe7555fC767d9F6D7F94637441e8bb94929333938b93600160b01b900461ffff16929116148015611880575086546001600160a01b038a8116600160201b90920416145b806118b05750865460ff8c8116610100909204161480156118b0575060018701546001600160a01b038a81169116145b6040516001600160e01b031960e088901b16815260048101959095526001600160a01b039093166024850152604484019190915261ffff1660648301521515608482015260a40160006040518083038186803b15801561190f57600080fd5b505af4158015611923573d6000803e3d6000fd5b505050506119343385856000613735565b826001600160a01b0316336001600160a01b03168660ff167f9ac0ff79dc491174b021e6532a2fc734e82751bba8672e9183a76cb994a5f65a8760405161197d91815260200190565b60405180910390a45050505050565b6067546001600160a01b031633146119b65760405162461bcd60e51b8152600401610aea90614823565b60ff9081166000908152606a60205260409020600101805460ff60a01b198116600160a01b918290049093161502919091179055565b6067546001600160a01b03163314611a165760405162461bcd60e51b8152600401610aea90614823565b611a1f81613812565b50565b6040805160c081018252600080825260208201819052918101829052606081018290526080810182905260a081019190915260ff8281166000908152606c602052604090819020606754915163c975707360e01b81526004810191909152600160c01b820490921615156024830152600160b01b900461ffff166044820152731EB69103a625085be89785Fe7555fC767d9F6D7F9063c9757073906064015b60c06040518083038186803b158015611ad957600080fd5b505af4158015611aed573d6000803e3d6000fd5b505050506040513d601f19601f82011682018060405250810190611b11919061452d565b92915050565b6033546001600160a01b03163314611b415760405162461bcd60e51b8152600401610aea90614891565b611a1f81613b8e565b6040805160c081018252600080825260208201819052918101829052606081018290526080810182905260a081019190915260ff8281166000908152606c6020526040908190206067549151634ed14a7f60e01b81526004810191909152336024820152600160c01b820490921615156044830152600160b01b900461ffff166064820152731EB69103a625085be89785Fe7555fC767d9F6D7F90634ed14a7f90608401611ac1565b6033546001600160a01b03163314611c1d5760405162461bcd60e51b8152600401610aea90614891565b611c276000613be0565b565b8160ff811615801590611c595750606754611c4f90600160a01b900460ff166002614bdf565b60ff168160ff1611155b611c6257600080fd5b60ff8381166000908152606c6020526040908190206067549151630f681f9360e31b8152600481019190915233602482015260448101859052600160c01b820490921615156064830152600160b01b900461ffff166084820152731EB69103a625085be89785Fe7555fC767d9F6D7F90637b40fc989060a401610a3b565b600054610100900460ff1680611cf9575060005460ff16155b611d155760405162461bcd60e51b8152600401610aea90614843565b600054610100900460ff16158015611d37576000805461ffff19166101011790555b611d3f613c32565b6001600160a01b038516611d5257600080fd5b6001600160a01b038416611d6557600080fd5b6001600160a01b038316611d7857600080fd5b611d8185612cbf565b606780546001600160a01b038087166001600160a01b03199283161790925560668054928616929091169190911790556000606555611dbf82613812565b8015611dd1576000805461ff00191690555b5050505050565b60655415611df85760405162461bcd60e51b8152600401610aea906148c6565b60016065556066546001600160a01b03163314611e275760405162461bcd60e51b8152600401610aea906148e6565b60005b60675460ff600160a81b909104811690821610156115fd5760ff81166000908152606d60209081526040808320546001600160a01b031683526069909152812060018101549091600f91820b90910b12611e845750611fb7565b6001810154600090611e9890600f0b614d1b565b60ff84166000908152606d60205260409020549091506001600160a01b031673eeeeeeeeeeeeeeeeeeeeeeeeeeeeeeeeeeeeeeee1415611f735734816001600160801b03161015611f1c5760405162461bcd60e51b815260206004820152600e60248201526d09cdee840cadcdeeaced040cae8d60931b6044820152606401610aea565b34816001600160801b03161115611f6e57336108fc611f44346001600160801b038516614c7a565b6040518115909202916000818181858888f19350505050158015611f6c573d6000803e3d6000fd5b505b611fa4565b60ff83166000908152606d6020526040902054611fa4906001600160a01b031633306001600160801b038516613cad565b5060010180546001600160801b03191690555b80611fc181614cfb565b915050611e2a565b6067546001600160a01b03163314611ff35760405162461bcd60e51b8152600401610aea90614823565b606754600160c01b900460ff161561200a57600080fd5b60675461202390600160b01b900461ffff166001614b27565b6067805460ff60c01b1961ffff93909316600160b01b029290921662ffffff60b01b1990921691909117600160c01b17905560005b60675460ff600160a01b90910481169082161015612b805760ff8181166000908152606a6020908152604080832080549094168352606c909152808220606754915163161dd97560e31b815260048101829052600160b01b90920461ffff166024830152600160448301529190731EB69103a625085be89785Fe7555fC767d9F6D7F9063b0eecba89060640160206040518083038186803b1580156120fc57600080fd5b505af4158015612110573d6000803e3d6000fd5b505050506040513d601f19601f82011682018060405250810190612134919061460f565b8354610100900460ff166000908152606c6020526040808220606754915163161dd97560e31b815260048101829052600160b01b90920461ffff16602483015260448201839052929350731EB69103a625085be89785Fe7555fC767d9F6D7F9063b0eecba89060640160206040518083038186803b1580156121b557600080fd5b505af41580156121c9573d6000803e3d6000fd5b505050506040513d601f19601f820116820180604052508101906121ed919061460f565b90506001600160801b0383161561227e578454600160201b90046001600160a01b031660009081526069602052604090205461224190610f97906001600160801b03600160801b9091048116908616612fd0565b85546001600160a01b03600160201b90910416600090815260696020526040902080546001600160801b03928316600160801b0292169190911790555b6001600160801b038116156123045760018501546001600160a01b03166000908152606960205260409020546122cc90610f9790600160801b90046001600160801b03908116908416612fd0565b60018601546001600160a01b0316600090815260696020526040902080546001600160801b03928316600160801b0292169190911790555b6067546002600160b01b90910461ffff1611612324575050505050612b6e565b8454606754604051631bb98a3360e01b8152600092731EB69103a625085be89785Fe7555fC767d9F6D7F92631bb98a3392612389928a9260019260ff62010000840481169363010000009004169161ffff600160b01b9091041690899060040161493f565b6101406040518083038186803b1580156123a257600080fd5b505af41580156123b6573d6000803e3d6000fd5b505050506040513d601f19601f820116820180604052508101906123da9190614548565b8654606754604051631bb98a3360e01b8152929350600092731EB69103a625085be89785Fe7555fC767d9F6D7F92631bb98a339261244392899287926301000000820460ff90811693620100009093041691600160b01b90910461ffff1690849060040161493f565b6101406040518083038186803b15801561245c57600080fd5b505af4158015612470573d6000803e3d6000fd5b505050506040513d601f19601f820116820180604052508101906124949190614548565b905060006040518060600160405280848152602001838152602001600060028111156124d057634e487b7160e01b600052602160045260246000fd5b9052905080606b60006124e48c6003614bdf565b60ff168152602080820192909252604090810160002083518051818501516001600160801b03908116600160801b90810292821692909217845582850151606080850151831684029183169190911760018087019190915560808086015160a08088015186168702918616919091176002808a019190915560c08089015160e0808b015189168a029189169190911760038c0155610100808b015160048d0180546101209d8e015115158d026001600160881b0319918216938d16939093179290921790558f8f015180519f8101518b168c029f8b169f909f1760058e01558e8e0151988f01518a168b02988a169890981760068d0155948d0151938d0151881689029388169390931760078b01558b0151918b015186168702918616919091176008890155908901516009880180549a9097015115159095029890921693909216929092179590951790915591840151600a8201805492949193909260ff19169190849081111561266657634e487b7160e01b600052602160045260246000fd5b0217905550508854606754604051631bb98a3360e01b815260009350731EB69103a625085be89785Fe7555fC767d9F6D7F92631bb98a33926126d4928d9260019262010000820460ff9081169363010000009093041691600160b01b90910461ffff1690849060040161493f565b6101406040518083038186803b1580156126ed57600080fd5b505af4158015612701573d6000803e3d6000fd5b505050506040513d601f19601f820116820180604052508101906127259190614548565b6040805160608101825282815260208101869052919250810160019052915081606b60006127548d6003614bdf565b61275f906001614b65565b60ff168152602080820192909252604090810160002083518051818501516001600160801b03908116600160801b90810292821692909217845582850151606080850151831684029183169190911760018087019190915560808086015160a08088015186168702918616919091176002808a019190915560c08089015160e0808b015189168a029189169190911760038c0155610100808b015160048d0180546101209d8e015115158d026001600160881b0319918216938d16939093179290921790558f8f015180519f8101518b168c029f8b169f909f1760058e01558e8e0151988f01518a168b02988a169890981760068d0155948d0151938d0151881689029388169390931760078b01558b0151918b015186168702918616919091176008890155908901516009880180549a9097015115159095029890921693909216929092179590951790915591840151600a8201805492949193909260ff1916919084908111156128e157634e487b7160e01b600052602160045260246000fd5b0217905550508954606754604051631bb98a3360e01b815260009350731EB69103a625085be89785Fe7555fC767d9F6D7F92631bb98a339261294f928c9287926301000000820460ff90811693620100009093041691600160b01b90910461ffff169060019060040161493f565b6101406040518083038186803b15801561296857600080fd5b505af415801561297c573d6000803e3d6000fd5b505050506040513d601f19601f820116820180604052508101906129a09190614548565b6040805160608101825287815260208101839052919250810160029052925082606b60006129cf8e6003614bdf565b6129da906002614b65565b60ff168152602080820192909252604090810160002083518051818501516001600160801b03908116600160801b90810292821692909217845582850151606080850151831684029183169190911760018087019190915560808086015160a08088015186168702918616919091176002808a019190915560c08089015160e0808b015189168a029189169190911760038c0155610100808b015160048d0180546101209d8e015115158d026001600160881b0319918216938d16939093179290921790558f8f015180519f8101518b168c029f8b169f909f1760058e01558e8e0151988f01518a168b02988a169890981760068d0155948d0151938d0151881689029388169390931760078b01558b0151918b015186168702918616919091176008890155908901516009880180549a9097015115159095029890921693909216929092179590951790915591840151600a8201805492949193909260ff191691908490811115612b5c57634e487b7160e01b600052602160045260246000fd5b02179055505050505050505050505050505b80612b7881614cfb565b915050612058565b50606754600160b01b900461ffff1660011415612ba6576067805460ff60c01b19169055565b606754600160b01b900461ffff1660021415611c275760015b606754612bd790600160a01b900460ff166002614bdf565b60ff168160ff1611612c745760ff81166000908152606c60205260409081902090516366aef26360e01b8152600481019190915260016024820152731EB69103a625085be89785Fe7555fC767d9F6D7F906366aef2639060440160006040518083038186803b158015612c4957600080fd5b505af4158015612c5d573d6000803e3d6000fd5b505050508080612c6c90614cfb565b915050612bbf565b50612c7d6135ed565b6067805460ff60c01b19169055565b6033546001600160a01b03163314612cb65760405162461bcd60e51b8152600401610aea90614891565b611a1f81613d0d565b6033546001600160a01b03163314612ce95760405162461bcd60e51b8152600401610aea90614891565b6001600160a01b038116612d4e5760405162461bcd60e51b815260206004820152602660248201527f4f776e61626c653a206e6577206f776e657220697320746865207a65726f206160448201526564647265737360d01b6064820152608401610aea565b611a1f81613be0565b8160ff811615801590612d875750606754612d7d90600160a01b900460ff166002614bdf565b60ff168160ff1611155b612d9057600080fd5b606754600160b01b900461ffff16612dd55760405162461bcd60e51b81526020600482015260086024820152670854dd185c9d195960c21b6044820152606401610aea565b60008211612e0f5760405162461bcd60e51b815260206004820152600760248201526608585b5bdd5b9d60ca1b6044820152606401610aea565b6000606a816002612e21600188614c91565b612e2b9190614b9e565b60ff908116825260208201929092526040016000206001810154909250600160a01b90041615612e8f5760405162461bcd60e51b815260206004820152600f60248201526e11195c1bdcda5d111a5cd8589b1959608a1b6044820152606401610aea565b805460009060ff868116911614612eb35760018201546001600160a01b0316612ec6565b8154600160201b90046001600160a01b03165b90506001600160a01b03811673eeeeeeeeeeeeeeeeeeeeeeeeeeeeeeeeeeeeeeee1415612ef257600080fd5b60ff85166000908152606c6020526040808220606754915163c502f99160e01b8152731EB69103a625085be89785Fe7555fC767d9F6D7F9363c502f99193612f53939233928b929091600160b01b90910461ffff1690600190600401614908565b60006040518083038186803b158015612f6b57600080fd5b505af4158015612f7f573d6000803e3d6000fd5b5050606754604051878152600160b01b90910461ffff16925033915060ff881690600080516020614d918339815191529060200160405180910390a4611dd16001600160a01b038216333087613cad565b6000612fdc8284614b4d565b9392505050565b60006001600160801b0382111561304c5760405162461bcd60e51b815260206004820152602760248201527f53616665436173743a2076616c756520646f65736e27742066697420696e20316044820152663238206269747360c81b6064820152608401610aea565b5090565b8454600090613072906001600160801b0380821691600160801b900416613d5f565b60018801549091506001600160801b0316158015906130915750600082115b156130f05760018601546130cd90610f97906130b9908490600160901b900461ffff16613d6b565b60018a01546001600160801b031690613d8d565b6001880180546001600160801b0319166001600160801b03929092169190911790555b600387015460005b8181101561338057600089600301828154811061312557634e487b7160e01b600052603260045260246000fd5b60009182526020808320909101546001600160a01b031680835260048d0190915260409091206001810154919250906001600160801b031661316857505061336e565b60018101548a54600091613196918a916001600160801b03600160801b918290048116929190910416613da8565b905080156131dd5760038201546131ba90610f97906001600160801b031683612fd0565b6003830180546001600160801b0319166001600160801b03929092169190911790555b6001820154600090613202906001600160801b0380821691600160801b900416613d5f565b9050600061321189838a613da8565b905080156133595760018d01546000908190613239908590600160901b900461ffff16613d6b565b60028701549091506001600160801b0316811061327157600286015461326a9084906001600160801b031683613da8565b9150613275565b8291505b731EB69103a625085be89785Fe7555fC767d9F6D7F63c502f9918f8986866001606760169054906101000a900461ffff166132b09190614c57565b60006040518763ffffffff1660e01b81526004016132d396959493929190614908565b60006040518083038186803b1580156132eb57600080fd5b505af41580156132ff573d6000803e3d6000fd5b505060675461331d925060019150600160b01b900461ffff16614c57565b61ffff16876001600160a01b03168e60ff16600080516020614d918339815191528660405161334e91815260200190565b60405180910390a450505b50505060010180546001600160801b03169055505b8061337881614ce0565b9150506130f8565b505050505050505050565b82546000906133ad906001600160801b0380821691600160801b900416613d5f565b600387015490915060005b818110156135e35760008860030182815481106133e557634e487b7160e01b600052603260045260246000fd5b60009182526020808320909101546001600160a01b031680835260048c0190915260409091206001810154919250906001600160801b03166134285750506135d1565b60018101548854600091613456918a916001600160801b03600160801b918290048116929190910416613da8565b905080156134a157600282015461348190610f9790600160801b90046001600160801b031683612fd0565b6002830180546001600160801b03928316600160801b0292169190911790555b60018201546000906134d29089906134cc906001600160801b0380821691600160801b900416613d5f565b89613da8565b905080156135bd57731EB69103a625085be89785Fe7555fC767d9F6D7F63c502f9918d868460006001606760169054906101000a900461ffff166135169190614c57565b60006040518763ffffffff1660e01b815260040161353996959493929190614908565b60006040518083038186803b15801561355157600080fd5b505af4158015613565573d6000803e3d6000fd5b5050606754613583925060019150600160b01b900461ffff16614c57565b61ffff16846001600160a01b03168c60ff16600080516020614d91833981519152846040516135b491815260200190565b60405180910390a45b505060010180546001600160801b03169055505b806135db81614ce0565b9150506133b8565b5050505050505050565b60005b60675460ff600160a81b90910481169082161015611a1f5760ff81166000908152606d60209081526040808320546001600160a01b039081168085526069845282852083516080810185528154600160801b8082046001600160801b03908116845291821683890190815260018086018054600f90810b810b878c01908152606088018a81528a8f526068909d529a909c20865193519386169386168502939093178355985190820180546001600160801b031916918c0b85169190911790559751600290980180546001600160a01b031916989096169790971790945581549454929691959094808516946136ec949290910416910b614ad9565b6136f69190614c08565b600183018054600f9290920b6001600160801b03166001600160801b03199092169190911790555060009055508061372d81614cfb565b9150506135f0565b606554156137555760405162461bcd60e51b8152600401610aea906148c6565b60016065558061378d576001600160a01b038216600090815260696020526040812060010154600f90810b900b121561378d57600080fd5b604051631a4ca37b60e21b81526001600160a01b0380861660048301526024820185905283166044820152731EB69103a625085be89785Fe7555fC767d9F6D7F906369328dec9060640160006040518083038186803b1580156137ef57600080fd5b505af4158015613803573d6000803e3d6000fd5b50506000606555505050505050565b805160675460ff600160a01b8204811691600160a81b90041660005b83811015613b5757600085828151811061385857634e487b7160e01b600052603260045260246000fd5b6020026020010151905083600261386f9190614bdf565b61387a906001614b65565b60ff1680825261388b906001614b65565b60ff16602082015280606a6000866138a281614cfb565b60ff91821683526020808401949094526040928301600020855181549587015194870151606088015160808901516001600160a01b03908116600160201b02640100000000600160c01b031992881663010000000263ff0000001994891662010000029490941663ffff0000199989166101000261ffff19909b1695891695909517999099179790971692909217171694909417845560a08501516001909401805460c0909601511515600160a01b026001600160a81b0319909616949093169390931793909317905594508316613a14576080810151606d60008561398781614cfb565b965060ff1660ff16815260200190815260200160002060006101000a8154816001600160a01b0302191690836001600160a01b031602179055508060a00151606d600085806139d590614cfb565b965060ff1660ff16815260200190815260200160002060006101000a8154816001600160a01b0302191690836001600160a01b03160217905550613b44565b60008060005b8560ff168160ff161015613a9a57608084015160ff82166000908152606d60205260409020546001600160a01b0390811691161415613a5857600192505b60a084015160ff82166000908152606d60205260409020546001600160a01b0390811691161415613a8857600191505b80613a9281614cfb565b915050613a1a565b5081613aee576080830151606d600087613ab381614cfb565b985060ff1660ff16815260200190815260200160002060006101000a8154816001600160a01b0302191690836001600160a01b031602179055505b80613b415760a0830151606d600087613b0681614cfb565b985060ff1660ff16815260200190815260200160002060006101000a8154816001600160a01b0302191690836001600160a01b031602179055505b50505b5080613b4f81614ce0565b91505061382e565b506067805461ffff60a01b1916600160a01b60ff9485160260ff60a81b191617600160a81b92909316919091029190911790555050565b606780546001600160a01b038381166001600160a01b0319831681179093556040519116919082907f7e644d79422f17c01e4894b5f4f588d331ebfa28653d42ae832dc59e38c9798f90600090a35050565b603380546001600160a01b038381166001600160a01b0319831681179093556040519116919082907f8be0079c531659141344cd1fd0a4f28419497f9722a3daafe3b4186f6b6457e090600090a35050565b600054610100900460ff1680613c4b575060005460ff16155b613c675760405162461bcd60e51b8152600401610aea90614843565b600054610100900460ff16158015613c89576000805461ffff19166101011790555b613c91613df0565b613c99613e5a565b8015611a1f576000805461ff001916905550565b604080516001600160a01b0385811660248301528416604482015260648082018490528251808303909101815260849091019091526020810180516001600160e01b03166323b872dd60e01b179052613d07908590613eba565b50505050565b606680546001600160a01b038381166001600160a01b0319831681179093556040519116919082907f605c2dbf762e5f7d60a546d42e7205dcb1b011ebc62a61736a57c9089d3a435090600090a35050565b6000612fdc8284614c7a565b6000612fdc612710613d87613d808583614b4d565b8690613f8c565b90613f98565b600081831015613d9e576000612fdc565b612fdc8284614c7a565b6000821580613db5575081155b80613dbe575083155b15613dcb57506000612fdc565b81831015613de657613de182613d878686613f8c565b613de8565b835b949350505050565b600054610100900460ff1680613e09575060005460ff16155b613e255760405162461bcd60e51b8152600401610aea90614843565b600054610100900460ff16158015613c99576000805461ffff19166101011790558015611a1f576000805461ff001916905550565b600054610100900460ff1680613e73575060005460ff16155b613e8f5760405162461bcd60e51b8152600401610aea90614843565b600054610100900460ff16158015613eb1576000805461ffff19166101011790555b613c9933613be0565b6000613f0f826040518060400160405280602081526020017f5361666545524332303a206c6f772d6c6576656c2063616c6c206661696c6564815250856001600160a01b0316613fa49092919063ffffffff16565b8051909150156117a65780806020019051810190613f2d9190614473565b6117a65760405162461bcd60e51b815260206004820152602a60248201527f5361666545524332303a204552433230206f7065726174696f6e20646964206e6044820152691bdd081cdd58d8d9595960b21b6064820152608401610aea565b6000612fdc8284614bc0565b6000612fdc8284614b8a565b6060613de8848460008585843b613ffd5760405162461bcd60e51b815260206004820152601d60248201527f416464726573733a2063616c6c20746f206e6f6e2d636f6e74726163740000006044820152606401610aea565b600080866001600160a01b0316858760405161401991906147d4565b60006040518083038185875af1925050503d8060008114614056576040519150601f19603f3d011682016040523d82523d6000602084013e61405b565b606091505b509150915061406b828286614076565b979650505050505050565b60608315614085575081612fdc565b8251156140955782518084602001fd5b8160405162461bcd60e51b8152600401610aea91906147f0565b80356001600160a01b03811681146140c657600080fd5b919050565b600082601f8301126140db578081fd5b813560206140f06140eb83614ab5565b614a84565b8281528181019085830160e08086028801850189101561410e578687fd5b865b868110156141b15781838b031215614126578788fd5b61412e614a13565b61413784614282565b8152614144878501614282565b878201526040614155818601614282565b908201526060614166858201614282565b9082015260806141778582016140af565b9082015260a06141888582016140af565b9082015260c08481013561419b81614d82565b9082015285529385019391810191600101614110565b509198975050505050505050565b80516140c681614d82565b600060c082840312156141db578081fd5b60405160c0810181811067ffffffffffffffff821117156141fe576141fe614d6c565b60405290508061420d8361426b565b815261421b6020840161426b565b602082015261422c6040840161426b565b604082015261423d6060840161426b565b606082015261424e6080840161426b565b608082015261425f60a0840161426b565b60a08201525092915050565b80516001600160801b03811681146140c657600080fd5b803560ff811681146140c657600080fd5b6000602082840312156142a4578081fd5b612fdc826140af565b600080600080608085870312156142c2578283fd5b6142cb856140af565b93506142d9602086016140af565b92506142e7604086016140af565b9150606085013567ffffffffffffffff811115614302578182fd5b61430e878288016140cb565b91505092959194509250565b6000602080838503121561432c578182fd5b823567ffffffffffffffff811115614342578283fd5b8301601f81018513614352578283fd5b80356143606140eb82614ab5565b80828252848201915084840188868560051b870101111561437f578687fd5b8694505b838510156143ad57803560038110614399578788fd5b835260019490940193918501918501614383565b50979650505050505050565b6000602082840312156143ca578081fd5b813567ffffffffffffffff8111156143e0578182fd5b613de8848285016140cb565b600060208083850312156143fe578182fd5b823567ffffffffffffffff811115614414578283fd5b8301601f81018513614424578283fd5b80356144326140eb82614ab5565b80828252848201915084840188868560051b8701011115614451578687fd5b8694505b838510156143ad578035835260019490940193918501918501614455565b600060208284031215614484578081fd5b8151612fdc81614d82565b600061018082840312156144a1578081fd5b6144a9614a3c565b825181526020830151602082015260408301516040820152606083015160608201526080830151608082015260a083015160a082015260c083015160c082015260e083015160e08201526101008084015181830152506101208084015181830152506101408084015181830152506101608084015181830152508091505092915050565b600060c0828403121561453e578081fd5b612fdc83836141ca565b6000610140828403121561455a578081fd5b614562614a60565b61456b8361426b565b81526145796020840161426b565b602082015261458a6040840161426b565b604082015261459b6060840161426b565b60608201526145ac6080840161426b565b60808201526145bd60a0840161426b565b60a08201526145ce60c0840161426b565b60c08201526145df60e0840161426b565b60e08201526101006145f281850161426b565b908201526101206146048482016141bf565b908201529392505050565b600060208284031215614620578081fd5b612fdc8261426b565b60006020828403121561463a578081fd5b612fdc82614282565b60008060408385031215614655578182fd5b61465e83614282565b9150602083013561ffff81168114614674578182fd5b809150509250929050565b60008060408385031215614691578182fd5b61469a83614282565b946020939093013593505050565b6000806000606084860312156146bc578081fd5b6146c584614282565b9250602084013591506146da604085016140af565b90509250925092565b80516001600160801b03168252602081015161470a60208401826001600160801b03169052565b50604081015161472560408401826001600160801b03169052565b50606081015161474060608401826001600160801b03169052565b50608081015161475b60808401826001600160801b03169052565b5060a081015161477660a08401826001600160801b03169052565b5060c081015161479160c08401826001600160801b03169052565b5060e08101516147ac60e08401826001600160801b03169052565b50610100818101516001600160801b0316908301526101208082015180151582850152613d07565b600082516147e6818460208701614cb4565b9190910192915050565b602081526000825180602084015261480f816040850160208701614cb4565b601f01601f19169190910160400192915050565b60208082526006908201526510b0b236b4b760d11b604082015260600190565b6020808252602e908201527f496e697469616c697a61626c653a20636f6e747261637420697320616c72656160408201526d191e481a5b9a5d1a585b1a5e995960921b606082015260800190565b6020808252818101527f4f776e61626c653a2063616c6c6572206973206e6f7420746865206f776e6572604082015260600190565b6020808252600690820152651b1bd8dad95960d21b604082015260600190565b60208082526008908201526710b6b0b730b3b2b960c11b604082015260600190565b9586526001600160a01b039490941660208601526040850192909252606084015261ffff166080830152151560a082015260c00190565b958652931515602086015260ff92831660408601529116606084015261ffff166080830152151560a082015260c00190565b60c08101611b1182846001600160801b038082511683528060208301511660208401528060408301511660408401528060608301511660608401528060808301511660808401528060a08301511660a0840152505050565b6102a081016149d882866146e3565b6149e66101408301856146e3565b60038310614a0457634e487b7160e01b600052602160045260246000fd5b82610280830152949350505050565b60405160e0810167ffffffffffffffff81118282101715614a3657614a36614d6c565b60405290565b604051610180810167ffffffffffffffff81118282101715614a3657614a36614d6c565b604051610140810167ffffffffffffffff81118282101715614a3657614a36614d6c565b604051601f8201601f1916810167ffffffffffffffff81118282101715614aad57614aad614d6c565b604052919050565b600067ffffffffffffffff821115614acf57614acf614d6c565b5060051b60200190565b600081600f0b83600f0b8282128260016001607f1b0303821381151615614b0257614b02614d40565b8260016001607f1b0319038212811615614b1e57614b1e614d40565b50019392505050565b600061ffff808316818516808303821115614b4457614b44614d40565b01949350505050565b60008219821115614b6057614b60614d40565b500190565b600060ff821660ff84168060ff03821115614b8257614b82614d40565b019392505050565b600082614b9957614b99614d56565b500490565b600060ff831680614bb157614bb1614d56565b8060ff84160491505092915050565b6000816000190483118215151615614bda57614bda614d40565b500290565b600060ff821660ff84168160ff0481118215151615614c0057614c00614d40565b029392505050565b600081600f0b83600f0b8281128160016001607f1b031901831281151615614c3257614c32614d40565b8160016001607f1b03018313811615614c4d57614c4d614d40565b5090039392505050565b600061ffff83811690831681811015614c7257614c72614d40565b039392505050565b600082821015614c8c57614c8c614d40565b500390565b600060ff821660ff841680821015614cab57614cab614d40565b90039392505050565b60005b83811015614ccf578181015183820152602001614cb7565b83811115613d075750506000910152565b6000600019821415614cf457614cf4614d40565b5060010190565b600060ff821660ff811415614d1257614d12614d40565b60010192915050565b600081600f0b60016001607f1b0319811415614d3957614d39614d40565b9003919050565b634e487b7160e01b600052601160045260246000fd5b634e487b7160e01b600052601260045260246000fd5b634e487b7160e01b600052604160045260246000fd5b8015158114611a1f57600080fdfee963a73e630cb9812a026653bfb6b1e14ffa92f8c38b79f318f2637557ea9f12a26469706673582212205a8cc729b5b992f65076db27274a962021fc1c651f1cc771db5d06c0b632372564736f6c63430008040033",
  "deployedBytecode": "0x6080604052600436106101cd5760003560e01c8063715018a6116100f7578063ac4b8a6411610095578063d0ebdbe711610064578063d0ebdbe7146108f5578063ddd0247514610915578063f2fde38b14610948578063f4d4c9d71461096857600080fd5b8063ac4b8a6414610737578063c42f3f9414610757578063c5cfc5be14610777578063c78b432e146108e057600080fd5b806383eb772e116100d157806383eb772e1461062f5780638a19c8bc146106c85780638da5cb5b146106fd5780639e3dce861461072f57600080fd5b8063715018a6146105da5780637332655b146105ef578063748d188b1461060f57600080fd5b806355bf621f1161016f578063644d41ed1161013e578063644d41ed1461052b5780636b37e4e31461056d578063704b6c021461059a57806371018682146105ba57600080fd5b806355bf621f146104085780635d3e0e4d146104285780635edae4db146104485780636386bcc41461046857600080fd5b806332b76e86116101ab57806332b76e861461023d57806336687e0f1461025d5780634dd96f861461027257806351fe669e1461029257600080fd5b80630748248f146101d2578063222f6b8314610208578063256d43d71461022a575b600080fd5b3480156101de57600080fd5b506067546101f390600160c01b900460ff1681565b60405190151581526020015b60405180910390f35b34801561021457600080fd5b5061022861022336600461467f565b610988565b005b610228610238366004614629565b610a70565b34801561024957600080fd5b5061022861025836600461431a565b610cdf565b34801561026957600080fd5b50610228611489565b34801561027e57600080fd5b5061022861028d3660046143ec565b611605565b34801561029e57600080fd5b506103f96102ad366004614629565b606b602090815260009182526040918290208251610140808201855282546001600160801b038082168452600160801b918290048116848701526001850154808216858901528290048116606080860191909152600286015480831660808088019190915290849004831660a080880191909152600388015480851660c0808a019190915290869004851660e0808a019190915260048a0154808716610100808c01919091529088900460ff9081161515610120808d01919091528e519a8b018f5260058d0154808a168c528a900489169d8b019d909d5260068c01548089169e8b019e909e529c88900487169589019590955260078a01548087169489019490945292869004851691870191909152600888015480851691870191909152849004831690850152600986015491821690840152048516151593810193909352600a9091015490921683565b6040516101ff939291906149c9565b34801561041457600080fd5b506102286104233660046146a8565b6117ab565b34801561043457600080fd5b50610228610443366004614629565b61198c565b34801561045457600080fd5b506102286104633660046143b9565b6119ec565b34801561047457600080fd5b506104dd610483366004614629565b606a602052600090815260409020805460019091015460ff808316926101008104821692620100008204831692630100000083048116926001600160a01b03600160201b90910481169290811691600160a01b9091041687565b6040805160ff98891681529688166020880152948716948601949094529490911660608401526001600160a01b03908116608084015290921660a082015290151560c082015260e0016101ff565b34801561053757600080fd5b506101f3610546366004614293565b6001600160a01b0316600090815260696020526040812060010154600f90810b900b121590565b34801561057957600080fd5b5061058d610588366004614629565b611a22565b6040516101ff9190614971565b3480156105a657600080fd5b506102286105b5366004614293565b611b17565b3480156105c657600080fd5b5061058d6105d5366004614629565b611b4a565b3480156105e657600080fd5b50610228611bf3565b3480156105fb57600080fd5b5061022861060a36600461467f565b611c29565b34801561061b57600080fd5b5061022861062a3660046142ad565b611ce0565b34801561063b57600080fd5b5061068b61064a366004614293565b6068602052600090815260409020805460018201546002909201546001600160801b0380831693600160801b9093041691600f0b906001600160a01b031684565b604080516001600160801b039586168152949093166020850152600f9190910b918301919091526001600160a01b031660608201526080016101ff565b3480156106d457600080fd5b506067546106ea90600160b01b900461ffff1681565b60405161ffff90911681526020016101ff565b34801561070957600080fd5b506033546001600160a01b03165b6040516001600160a01b0390911681526020016101ff565b610228611dd8565b34801561074357600080fd5b50606654610717906001600160a01b031681565b34801561076357600080fd5b50606754610717906001600160a01b031681565b34801561078357600080fd5b5061086d610792366004614643565b6040805160e081018252600080825260208201819052918101829052606081018290526080810182905260a0810182905260c08101919091525060ff8083166000908152606c6020908152604080832061ffff80871685526002909101835292819020815160e08101835281546001600160801b038082168352600160801b9182900481169583019590955260019092015493841692810192909252820483166060820152600160901b82049092166080830152600160a01b81048316151560a0830152600160a81b9004909116151560c082015292915050565b6040516101ff9190600060e0820190506001600160801b0380845116835280602085015116602084015280604085015116604084015250606083015161ffff8082166060850152806080860151166080850152505060a0830151151560a083015260c0830151151560c083015292915050565b3480156108ec57600080fd5b50610228611fc9565b34801561090157600080fd5b50610228610910366004614293565b612c8c565b34801561092157600080fd5b5060675461093690600160a01b900460ff1681565b60405160ff90911681526020016101ff565b34801561095457600080fd5b50610228610963366004614293565b612cbf565b34801561097457600080fd5b5061022861098336600461467f565b612d57565b8160ff8116158015906109b857506067546109ae90600160a01b900460ff166002614bdf565b60ff168160ff1611155b6109c157600080fd5b60ff8381166000908152606c6020526040908190206067549151638a229a5760e01b8152600481019190915233602482015260448101859052600160c01b820490921615156064830152600160b01b900461ffff16608482015273__$e36f5330ef2566ea8a183e1e27b10de643$__90638a229a579060a4015b60006040518083038186803b158015610a5357600080fd5b505af4158015610a67573d6000803e3d6000fd5b50505050505050565b8060ff811615801590610aa05750606754610a9690600160a01b900460ff166002614bdf565b60ff168160ff1611155b610aa957600080fd5b606754600160b01b900461ffff16610af35760405162461bcd60e51b81526020600482015260086024820152670854dd185c9d195960c21b60448201526064015b60405180910390fd5b60003411610b2e5760405162461bcd60e51b81526020600482015260086024820152676e6f2076616c756560c01b6044820152606401610aea565b6000606a816002610b40600187614c91565b610b4a9190614b9e565b60ff908116825260208201929092526040016000206001810154909250600160a01b90041615610bae5760405162461bcd60e51b815260206004820152600f60248201526e11195c1bdcda5d111a5cd8589b1959608a1b6044820152606401610aea565b805460009060ff858116911614610bd25760018201546001600160a01b0316610be5565b8154600160201b90046001600160a01b03165b90506001600160a01b03811673eeeeeeeeeeeeeeeeeeeeeeeeeeeeeeeeeeeeeeee14610c1057600080fd5b60ff84166000908152606c6020526040808220606754915163c502f99160e01b815273__$e36f5330ef2566ea8a183e1e27b10de643$__9363c502f99193610c719392339234929091600160b01b90910461ffff1690600190600401614908565b60006040518083038186803b158015610c8957600080fd5b505af4158015610c9d573d6000803e3d6000fd5b5050606754604051348152600160b01b90910461ffff16925033915060ff871690600080516020614d918339815191529060200160405180910390a450505050565b6066546001600160a01b03163314610d095760405162461bcd60e51b8152600401610aea906148e6565b606754600160c01b900460ff16610d1f57600080fd5b8051606754600160a01b900460ff168114610d3957600080fd5b606754600090610d5690600190600160b01b900461ffff16614c57565b905060005b828160ff16101561146e576000848260ff1681518110610d8b57634e487b7160e01b600052603260045260246000fd5b60209081029190910181015160ff8085166000908152606a8452604080822080548085168452606c8752828420610100918290049095168452828420835161018081018552858152978801859052928701849052606087018490526080870184905260a0870184905260c0870184905260e087018490528601839052610120860183905261014086018390526101608601929092529294509290919060006002840181610e3960018b614c57565b61ffff168152602081019190915260400160002080549091506001600160801b0316156110d357845473__$e36f5330ef2566ea8a183e1e27b10de643$__9063aab69633908690849060019060ff6201000082048116916301000000900416828d6002811115610eb957634e487b7160e01b600052602160045260246000fd5b6040516001600160e01b031960e08a901b16815260048101979097526024870195909552921515604486015260ff91821660648601521660848401521460a482015260c4016101806040518083038186803b158015610f1757600080fd5b505af4158015610f2b573d6000803e3d6000fd5b505050506040513d601f19601f82011682018060405250810190610f4f919061448f565b805190925015610fdf576040828101518654600160201b90046001600160a01b0316600090815260696020529190912054610f9c91610f97916001600160801b031690612fd0565b612fe3565b8554600160201b90046001600160a01b0316600090815260696020526040902080546001600160801b0319166001600160801b039290921691909117905561105d565b60608201511561105d5760a082015160018601546001600160a01b031660009081526069602052604090205461102291610f97916001600160801b031690612fd0565b60018601546001600160a01b0316600090815260696020526040902080546001600160801b0319166001600160801b03929092169190911790555b600186600281111561107f57634e487b7160e01b600052602160045260246000fd5b14156110b2576110ad8482858860000160019054906101000a900460ff168660a00151876101600151613050565b6110d3565b845460408301516101008401516110d392879260ff9091169185919061338b565b600060028401816110e560018c614c57565b61ffff168152602081019190915260400160002080549091506001600160801b03161561137a57855473__$e36f5330ef2566ea8a183e1e27b10de643$__9063aab69633908690849060009060ff630100000082048116916201000090041660028e600281111561116657634e487b7160e01b600052602160045260246000fd5b6040516001600160e01b031960e08a901b16815260048101979097526024870195909552921515604486015260ff91821660648601521660848401521460a482015260c4016101806040518083038186803b1580156111c457600080fd5b505af41580156111d8573d6000803e3d6000fd5b505050506040513d601f19601f820116820180604052508101906111fc919061448f565b80519093501561127f5760408084015160018801546001600160a01b031660009081526069602052919091205461124091610f97916001600160801b031690612fd0565b60018701546001600160a01b0316600090815260696020526040902080546001600160801b0319166001600160801b0392909216919091179055611305565b6060830151156113055760a08301518654600160201b90046001600160a01b03166000908152606960205260409020546112c691610f97916001600160801b031690612fd0565b8654600160201b90046001600160a01b0316600090815260696020526040902080546001600160801b0319166001600160801b03929092169190911790555b600287600281111561132757634e487b7160e01b600052602160045260246000fd5b141561135357855460a084015161016085015161134e92879285928a9260ff169190613050565b61137a565b61137a848760000160019054906101000a900460ff1683866040015187610100015161338b565b6040516366aef26360e01b81526004810186905261ffff8a16602482015273__$e36f5330ef2566ea8a183e1e27b10de643$__906366aef2639060440160006040518083038186803b1580156113cf57600080fd5b505af41580156113e3573d6000803e3d6000fd5b50506040516366aef26360e01b81526004810187905261ffff8c16602482015273__$e36f5330ef2566ea8a183e1e27b10de643$__92506366aef263915060440160006040518083038186803b15801561143c57600080fd5b505af4158015611450573d6000803e3d6000fd5b5050505050505050505050808061146690614cfb565b915050610d5b565b506114776135ed565b50506067805460ff60c01b1916905550565b606554156114a95760405162461bcd60e51b8152600401610aea906148c6565b60016065556066546001600160a01b031633146114d85760405162461bcd60e51b8152600401610aea906148e6565b60005b60675460ff600160a81b909104811690821610156115fd5760ff81166000908152606d60209081526040808320546001600160a01b031683526069909152812060018101549091600f91820b90910b1361153557506115eb565b600181015460ff83166000908152606d602052604090819020549051631a4ca37b60e21b81523360048201526001600160801b03600f9390930b92831660248201526001600160a01b03909116604482015273__$e36f5330ef2566ea8a183e1e27b10de643$__906369328dec9060640160006040518083038186803b1580156115be57600080fd5b505af41580156115d2573d6000803e3d6000fd5b505050600190920180546001600160801b031916905550505b806115f581614cfb565b9150506114db565b506000606555565b6067546001600160a01b0316331461162f5760405162461bcd60e51b8152600401610aea90614823565b8051606754600160c01b900460ff161561164857600080fd5b6067546001600160b01b90910461ffff161161166357600080fd5b60675461167b90600160a01b900460ff166002614bdf565b60ff16811461168957600080fd5b60005b818160ff1610156117a6576000838260ff16815181106116bc57634e487b7160e01b600052603260045260246000fd5b602002602001015190506000606c60008460016116d99190614b65565b60ff1660ff16815260200190815260200160002060020160006001606760169054906101000a900461ffff1661170f9190614c57565b61ffff16815260208101919091526040908101600020905163338dfe2f60e21b8152600481018490526024810182905290915073__$e36f5330ef2566ea8a183e1e27b10de643$__9063ce37f8bc9060440160006040518083038186803b15801561177957600080fd5b505af415801561178d573d6000803e3d6000fd5b505050505050808061179e90614cfb565b91505061168c565b505050565b8260ff8116158015906117db57506067546117d190600160a01b900460ff166002614bdf565b60ff168160ff1611155b6117e457600080fd5b6000606a8160026117f6600189614c91565b6118009190614b9e565b60ff908116825260208083019390935260409182016000908120898316808352606c909552929020606754835493955073__$e36f5330ef2566ea8a183e1e27b10de643$__94637441e8bb94929333938b93600160b01b900461ffff16929116148015611880575086546001600160a01b038a8116600160201b90920416145b806118b05750865460ff8c8116610100909204161480156118b0575060018701546001600160a01b038a81169116145b6040516001600160e01b031960e088901b16815260048101959095526001600160a01b039093166024850152604484019190915261ffff1660648301521515608482015260a40160006040518083038186803b15801561190f57600080fd5b505af4158015611923573d6000803e3d6000fd5b505050506119343385856000613735565b826001600160a01b0316336001600160a01b03168660ff167f9ac0ff79dc491174b021e6532a2fc734e82751bba8672e9183a76cb994a5f65a8760405161197d91815260200190565b60405180910390a45050505050565b6067546001600160a01b031633146119b65760405162461bcd60e51b8152600401610aea90614823565b60ff9081166000908152606a60205260409020600101805460ff60a01b198116600160a01b918290049093161502919091179055565b6067546001600160a01b03163314611a165760405162461bcd60e51b8152600401610aea90614823565b611a1f81613812565b50565b6040805160c081018252600080825260208201819052918101829052606081018290526080810182905260a081019190915260ff8281166000908152606c602052604090819020606754915163c975707360e01b81526004810191909152600160c01b820490921615156024830152600160b01b900461ffff16604482015273__$e36f5330ef2566ea8a183e1e27b10de643$__9063c9757073906064015b60c06040518083038186803b158015611ad957600080fd5b505af4158015611aed573d6000803e3d6000fd5b505050506040513d601f19601f82011682018060405250810190611b11919061452d565b92915050565b6033546001600160a01b03163314611b415760405162461bcd60e51b8152600401610aea90614891565b611a1f81613b8e565b6040805160c081018252600080825260208201819052918101829052606081018290526080810182905260a081019190915260ff8281166000908152606c6020526040908190206067549151634ed14a7f60e01b81526004810191909152336024820152600160c01b820490921615156044830152600160b01b900461ffff16606482015273__$e36f5330ef2566ea8a183e1e27b10de643$__90634ed14a7f90608401611ac1565b6033546001600160a01b03163314611c1d5760405162461bcd60e51b8152600401610aea90614891565b611c276000613be0565b565b8160ff811615801590611c595750606754611c4f90600160a01b900460ff166002614bdf565b60ff168160ff1611155b611c6257600080fd5b60ff8381166000908152606c6020526040908190206067549151630f681f9360e31b8152600481019190915233602482015260448101859052600160c01b820490921615156064830152600160b01b900461ffff16608482015273__$e36f5330ef2566ea8a183e1e27b10de643$__90637b40fc989060a401610a3b565b600054610100900460ff1680611cf9575060005460ff16155b611d155760405162461bcd60e51b8152600401610aea90614843565b600054610100900460ff16158015611d37576000805461ffff19166101011790555b611d3f613c32565b6001600160a01b038516611d5257600080fd5b6001600160a01b038416611d6557600080fd5b6001600160a01b038316611d7857600080fd5b611d8185612cbf565b606780546001600160a01b038087166001600160a01b03199283161790925560668054928616929091169190911790556000606555611dbf82613812565b8015611dd1576000805461ff00191690555b5050505050565b60655415611df85760405162461bcd60e51b8152600401610aea906148c6565b60016065556066546001600160a01b03163314611e275760405162461bcd60e51b8152600401610aea906148e6565b60005b60675460ff600160a81b909104811690821610156115fd5760ff81166000908152606d60209081526040808320546001600160a01b031683526069909152812060018101549091600f91820b90910b12611e845750611fb7565b6001810154600090611e9890600f0b614d1b565b60ff84166000908152606d60205260409020549091506001600160a01b031673eeeeeeeeeeeeeeeeeeeeeeeeeeeeeeeeeeeeeeee1415611f735734816001600160801b03161015611f1c5760405162461bcd60e51b815260206004820152600e60248201526d09cdee840cadcdeeaced040cae8d60931b6044820152606401610aea565b34816001600160801b03161115611f6e57336108fc611f44346001600160801b038516614c7a565b6040518115909202916000818181858888f19350505050158015611f6c573d6000803e3d6000fd5b505b611fa4565b60ff83166000908152606d6020526040902054611fa4906001600160a01b031633306001600160801b038516613cad565b5060010180546001600160801b03191690555b80611fc181614cfb565b915050611e2a565b6067546001600160a01b03163314611ff35760405162461bcd60e51b8152600401610aea90614823565b606754600160c01b900460ff161561200a57600080fd5b60675461202390600160b01b900461ffff166001614b27565b6067805460ff60c01b1961ffff93909316600160b01b029290921662ffffff60b01b1990921691909117600160c01b17905560005b60675460ff600160a01b90910481169082161015612b805760ff8181166000908152606a6020908152604080832080549094168352606c909152808220606754915163161dd97560e31b815260048101829052600160b01b90920461ffff16602483015260016044830152919073__$e36f5330ef2566ea8a183e1e27b10de643$__9063b0eecba89060640160206040518083038186803b1580156120fc57600080fd5b505af4158015612110573d6000803e3d6000fd5b505050506040513d601f19601f82011682018060405250810190612134919061460f565b8354610100900460ff166000908152606c6020526040808220606754915163161dd97560e31b815260048101829052600160b01b90920461ffff1660248301526044820183905292935073__$e36f5330ef2566ea8a183e1e27b10de643$__9063b0eecba89060640160206040518083038186803b1580156121b557600080fd5b505af41580156121c9573d6000803e3d6000fd5b505050506040513d601f19601f820116820180604052508101906121ed919061460f565b90506001600160801b0383161561227e578454600160201b90046001600160a01b031660009081526069602052604090205461224190610f97906001600160801b03600160801b9091048116908616612fd0565b85546001600160a01b03600160201b90910416600090815260696020526040902080546001600160801b03928316600160801b0292169190911790555b6001600160801b038116156123045760018501546001600160a01b03166000908152606960205260409020546122cc90610f9790600160801b90046001600160801b03908116908416612fd0565b60018601546001600160a01b0316600090815260696020526040902080546001600160801b03928316600160801b0292169190911790555b6067546002600160b01b90910461ffff1611612324575050505050612b6e565b8454606754604051631bb98a3360e01b815260009273__$e36f5330ef2566ea8a183e1e27b10de643$__92631bb98a3392612389928a9260019260ff62010000840481169363010000009004169161ffff600160b01b9091041690899060040161493f565b6101406040518083038186803b1580156123a257600080fd5b505af41580156123b6573d6000803e3d6000fd5b505050506040513d601f19601f820116820180604052508101906123da9190614548565b8654606754604051631bb98a3360e01b815292935060009273__$e36f5330ef2566ea8a183e1e27b10de643$__92631bb98a339261244392899287926301000000820460ff90811693620100009093041691600160b01b90910461ffff1690849060040161493f565b6101406040518083038186803b15801561245c57600080fd5b505af4158015612470573d6000803e3d6000fd5b505050506040513d601f19601f820116820180604052508101906124949190614548565b905060006040518060600160405280848152602001838152602001600060028111156124d057634e487b7160e01b600052602160045260246000fd5b9052905080606b60006124e48c6003614bdf565b60ff168152602080820192909252604090810160002083518051818501516001600160801b03908116600160801b90810292821692909217845582850151606080850151831684029183169190911760018087019190915560808086015160a08088015186168702918616919091176002808a019190915560c08089015160e0808b015189168a029189169190911760038c0155610100808b015160048d0180546101209d8e015115158d026001600160881b0319918216938d16939093179290921790558f8f015180519f8101518b168c029f8b169f909f1760058e01558e8e0151988f01518a168b02988a169890981760068d0155948d0151938d0151881689029388169390931760078b01558b0151918b015186168702918616919091176008890155908901516009880180549a9097015115159095029890921693909216929092179590951790915591840151600a8201805492949193909260ff19169190849081111561266657634e487b7160e01b600052602160045260246000fd5b0217905550508854606754604051631bb98a3360e01b81526000935073__$e36f5330ef2566ea8a183e1e27b10de643$__92631bb98a33926126d4928d9260019262010000820460ff9081169363010000009093041691600160b01b90910461ffff1690849060040161493f565b6101406040518083038186803b1580156126ed57600080fd5b505af4158015612701573d6000803e3d6000fd5b505050506040513d601f19601f820116820180604052508101906127259190614548565b6040805160608101825282815260208101869052919250810160019052915081606b60006127548d6003614bdf565b61275f906001614b65565b60ff168152602080820192909252604090810160002083518051818501516001600160801b03908116600160801b90810292821692909217845582850151606080850151831684029183169190911760018087019190915560808086015160a08088015186168702918616919091176002808a019190915560c08089015160e0808b015189168a029189169190911760038c0155610100808b015160048d0180546101209d8e015115158d026001600160881b0319918216938d16939093179290921790558f8f015180519f8101518b168c029f8b169f909f1760058e01558e8e0151988f01518a168b02988a169890981760068d0155948d0151938d0151881689029388169390931760078b01558b0151918b015186168702918616919091176008890155908901516009880180549a9097015115159095029890921693909216929092179590951790915591840151600a8201805492949193909260ff1916919084908111156128e157634e487b7160e01b600052602160045260246000fd5b0217905550508954606754604051631bb98a3360e01b81526000935073__$e36f5330ef2566ea8a183e1e27b10de643$__92631bb98a339261294f928c9287926301000000820460ff90811693620100009093041691600160b01b90910461ffff169060019060040161493f565b6101406040518083038186803b15801561296857600080fd5b505af415801561297c573d6000803e3d6000fd5b505050506040513d601f19601f820116820180604052508101906129a09190614548565b6040805160608101825287815260208101839052919250810160029052925082606b60006129cf8e6003614bdf565b6129da906002614b65565b60ff168152602080820192909252604090810160002083518051818501516001600160801b03908116600160801b90810292821692909217845582850151606080850151831684029183169190911760018087019190915560808086015160a08088015186168702918616919091176002808a019190915560c08089015160e0808b015189168a029189169190911760038c0155610100808b015160048d0180546101209d8e015115158d026001600160881b0319918216938d16939093179290921790558f8f015180519f8101518b168c029f8b169f909f1760058e01558e8e0151988f01518a168b02988a169890981760068d0155948d0151938d0151881689029388169390931760078b01558b0151918b015186168702918616919091176008890155908901516009880180549a9097015115159095029890921693909216929092179590951790915591840151600a8201805492949193909260ff191691908490811115612b5c57634e487b7160e01b600052602160045260246000fd5b02179055505050505050505050505050505b80612b7881614cfb565b915050612058565b50606754600160b01b900461ffff1660011415612ba6576067805460ff60c01b19169055565b606754600160b01b900461ffff1660021415611c275760015b606754612bd790600160a01b900460ff166002614bdf565b60ff168160ff1611612c745760ff81166000908152606c60205260409081902090516366aef26360e01b815260048101919091526001602482015273__$e36f5330ef2566ea8a183e1e27b10de643$__906366aef2639060440160006040518083038186803b158015612c4957600080fd5b505af4158015612c5d573d6000803e3d6000fd5b505050508080612c6c90614cfb565b915050612bbf565b50612c7d6135ed565b6067805460ff60c01b19169055565b6033546001600160a01b03163314612cb65760405162461bcd60e51b8152600401610aea90614891565b611a1f81613d0d565b6033546001600160a01b03163314612ce95760405162461bcd60e51b8152600401610aea90614891565b6001600160a01b038116612d4e5760405162461bcd60e51b815260206004820152602660248201527f4f776e61626c653a206e6577206f776e657220697320746865207a65726f206160448201526564647265737360d01b6064820152608401610aea565b611a1f81613be0565b8160ff811615801590612d875750606754612d7d90600160a01b900460ff166002614bdf565b60ff168160ff1611155b612d9057600080fd5b606754600160b01b900461ffff16612dd55760405162461bcd60e51b81526020600482015260086024820152670854dd185c9d195960c21b6044820152606401610aea565b60008211612e0f5760405162461bcd60e51b815260206004820152600760248201526608585b5bdd5b9d60ca1b6044820152606401610aea565b6000606a816002612e21600188614c91565b612e2b9190614b9e565b60ff908116825260208201929092526040016000206001810154909250600160a01b90041615612e8f5760405162461bcd60e51b815260206004820152600f60248201526e11195c1bdcda5d111a5cd8589b1959608a1b6044820152606401610aea565b805460009060ff868116911614612eb35760018201546001600160a01b0316612ec6565b8154600160201b90046001600160a01b03165b90506001600160a01b03811673eeeeeeeeeeeeeeeeeeeeeeeeeeeeeeeeeeeeeeee1415612ef257600080fd5b60ff85166000908152606c6020526040808220606754915163c502f99160e01b815273__$e36f5330ef2566ea8a183e1e27b10de643$__9363c502f99193612f53939233928b929091600160b01b90910461ffff1690600190600401614908565b60006040518083038186803b158015612f6b57600080fd5b505af4158015612f7f573d6000803e3d6000fd5b5050606754604051878152600160b01b90910461ffff16925033915060ff881690600080516020614d918339815191529060200160405180910390a4611dd16001600160a01b038216333087613cad565b6000612fdc8284614b4d565b9392505050565b60006001600160801b0382111561304c5760405162461bcd60e51b815260206004820152602760248201527f53616665436173743a2076616c756520646f65736e27742066697420696e20316044820152663238206269747360c81b6064820152608401610aea565b5090565b8454600090613072906001600160801b0380821691600160801b900416613d5f565b60018801549091506001600160801b0316158015906130915750600082115b156130f05760018601546130cd90610f97906130b9908490600160901b900461ffff16613d6b565b60018a01546001600160801b031690613d8d565b6001880180546001600160801b0319166001600160801b03929092169190911790555b600387015460005b8181101561338057600089600301828154811061312557634e487b7160e01b600052603260045260246000fd5b60009182526020808320909101546001600160a01b031680835260048d0190915260409091206001810154919250906001600160801b031661316857505061336e565b60018101548a54600091613196918a916001600160801b03600160801b918290048116929190910416613da8565b905080156131dd5760038201546131ba90610f97906001600160801b031683612fd0565b6003830180546001600160801b0319166001600160801b03929092169190911790555b6001820154600090613202906001600160801b0380821691600160801b900416613d5f565b9050600061321189838a613da8565b905080156133595760018d01546000908190613239908590600160901b900461ffff16613d6b565b60028701549091506001600160801b0316811061327157600286015461326a9084906001600160801b031683613da8565b9150613275565b8291505b73__$e36f5330ef2566ea8a183e1e27b10de643$__63c502f9918f8986866001606760169054906101000a900461ffff166132b09190614c57565b60006040518763ffffffff1660e01b81526004016132d396959493929190614908565b60006040518083038186803b1580156132eb57600080fd5b505af41580156132ff573d6000803e3d6000fd5b505060675461331d925060019150600160b01b900461ffff16614c57565b61ffff16876001600160a01b03168e60ff16600080516020614d918339815191528660405161334e91815260200190565b60405180910390a450505b50505060010180546001600160801b03169055505b8061337881614ce0565b9150506130f8565b505050505050505050565b82546000906133ad906001600160801b0380821691600160801b900416613d5f565b600387015490915060005b818110156135e35760008860030182815481106133e557634e487b7160e01b600052603260045260246000fd5b60009182526020808320909101546001600160a01b031680835260048c0190915260409091206001810154919250906001600160801b03166134285750506135d1565b60018101548854600091613456918a916001600160801b03600160801b918290048116929190910416613da8565b905080156134a157600282015461348190610f9790600160801b90046001600160801b031683612fd0565b6002830180546001600160801b03928316600160801b0292169190911790555b60018201546000906134d29089906134cc906001600160801b0380821691600160801b900416613d5f565b89613da8565b905080156135bd5773__$e36f5330ef2566ea8a183e1e27b10de643$__63c502f9918d868460006001606760169054906101000a900461ffff166135169190614c57565b60006040518763ffffffff1660e01b815260040161353996959493929190614908565b60006040518083038186803b15801561355157600080fd5b505af4158015613565573d6000803e3d6000fd5b5050606754613583925060019150600160b01b900461ffff16614c57565b61ffff16846001600160a01b03168c60ff16600080516020614d91833981519152846040516135b491815260200190565b60405180910390a45b505060010180546001600160801b03169055505b806135db81614ce0565b9150506133b8565b5050505050505050565b60005b60675460ff600160a81b90910481169082161015611a1f5760ff81166000908152606d60209081526040808320546001600160a01b039081168085526069845282852083516080810185528154600160801b8082046001600160801b03908116845291821683890190815260018086018054600f90810b810b878c01908152606088018a81528a8f526068909d529a909c20865193519386169386168502939093178355985190820180546001600160801b031916918c0b85169190911790559751600290980180546001600160a01b031916989096169790971790945581549454929691959094808516946136ec949290910416910b614ad9565b6136f69190614c08565b600183018054600f9290920b6001600160801b03166001600160801b03199092169190911790555060009055508061372d81614cfb565b9150506135f0565b606554156137555760405162461bcd60e51b8152600401610aea906148c6565b60016065558061378d576001600160a01b038216600090815260696020526040812060010154600f90810b900b121561378d57600080fd5b604051631a4ca37b60e21b81526001600160a01b038086166004830152602482018590528316604482015273__$e36f5330ef2566ea8a183e1e27b10de643$__906369328dec9060640160006040518083038186803b1580156137ef57600080fd5b505af4158015613803573d6000803e3d6000fd5b50506000606555505050505050565b805160675460ff600160a01b8204811691600160a81b90041660005b83811015613b5757600085828151811061385857634e487b7160e01b600052603260045260246000fd5b6020026020010151905083600261386f9190614bdf565b61387a906001614b65565b60ff1680825261388b906001614b65565b60ff16602082015280606a6000866138a281614cfb565b60ff91821683526020808401949094526040928301600020855181549587015194870151606088015160808901516001600160a01b03908116600160201b02640100000000600160c01b031992881663010000000263ff0000001994891662010000029490941663ffff0000199989166101000261ffff19909b1695891695909517999099179790971692909217171694909417845560a08501516001909401805460c0909601511515600160a01b026001600160a81b0319909616949093169390931793909317905594508316613a14576080810151606d60008561398781614cfb565b965060ff1660ff16815260200190815260200160002060006101000a8154816001600160a01b0302191690836001600160a01b031602179055508060a00151606d600085806139d590614cfb565b965060ff1660ff16815260200190815260200160002060006101000a8154816001600160a01b0302191690836001600160a01b03160217905550613b44565b60008060005b8560ff168160ff161015613a9a57608084015160ff82166000908152606d60205260409020546001600160a01b0390811691161415613a5857600192505b60a084015160ff82166000908152606d60205260409020546001600160a01b0390811691161415613a8857600191505b80613a9281614cfb565b915050613a1a565b5081613aee576080830151606d600087613ab381614cfb565b985060ff1660ff16815260200190815260200160002060006101000a8154816001600160a01b0302191690836001600160a01b031602179055505b80613b415760a0830151606d600087613b0681614cfb565b985060ff1660ff16815260200190815260200160002060006101000a8154816001600160a01b0302191690836001600160a01b031602179055505b50505b5080613b4f81614ce0565b91505061382e565b506067805461ffff60a01b1916600160a01b60ff9485160260ff60a81b191617600160a81b92909316919091029190911790555050565b606780546001600160a01b038381166001600160a01b0319831681179093556040519116919082907f7e644d79422f17c01e4894b5f4f588d331ebfa28653d42ae832dc59e38c9798f90600090a35050565b603380546001600160a01b038381166001600160a01b0319831681179093556040519116919082907f8be0079c531659141344cd1fd0a4f28419497f9722a3daafe3b4186f6b6457e090600090a35050565b600054610100900460ff1680613c4b575060005460ff16155b613c675760405162461bcd60e51b8152600401610aea90614843565b600054610100900460ff16158015613c89576000805461ffff19166101011790555b613c91613df0565b613c99613e5a565b8015611a1f576000805461ff001916905550565b604080516001600160a01b0385811660248301528416604482015260648082018490528251808303909101815260849091019091526020810180516001600160e01b03166323b872dd60e01b179052613d07908590613eba565b50505050565b606680546001600160a01b038381166001600160a01b0319831681179093556040519116919082907f605c2dbf762e5f7d60a546d42e7205dcb1b011ebc62a61736a57c9089d3a435090600090a35050565b6000612fdc8284614c7a565b6000612fdc612710613d87613d808583614b4d565b8690613f8c565b90613f98565b600081831015613d9e576000612fdc565b612fdc8284614c7a565b6000821580613db5575081155b80613dbe575083155b15613dcb57506000612fdc565b81831015613de657613de182613d878686613f8c565b613de8565b835b949350505050565b600054610100900460ff1680613e09575060005460ff16155b613e255760405162461bcd60e51b8152600401610aea90614843565b600054610100900460ff16158015613c99576000805461ffff19166101011790558015611a1f576000805461ff001916905550565b600054610100900460ff1680613e73575060005460ff16155b613e8f5760405162461bcd60e51b8152600401610aea90614843565b600054610100900460ff16158015613eb1576000805461ffff19166101011790555b613c9933613be0565b6000613f0f826040518060400160405280602081526020017f5361666545524332303a206c6f772d6c6576656c2063616c6c206661696c6564815250856001600160a01b0316613fa49092919063ffffffff16565b8051909150156117a65780806020019051810190613f2d9190614473565b6117a65760405162461bcd60e51b815260206004820152602a60248201527f5361666545524332303a204552433230206f7065726174696f6e20646964206e6044820152691bdd081cdd58d8d9595960b21b6064820152608401610aea565b6000612fdc8284614bc0565b6000612fdc8284614b8a565b6060613de8848460008585843b613ffd5760405162461bcd60e51b815260206004820152601d60248201527f416464726573733a2063616c6c20746f206e6f6e2d636f6e74726163740000006044820152606401610aea565b600080866001600160a01b0316858760405161401991906147d4565b60006040518083038185875af1925050503d8060008114614056576040519150601f19603f3d011682016040523d82523d6000602084013e61405b565b606091505b509150915061406b828286614076565b979650505050505050565b60608315614085575081612fdc565b8251156140955782518084602001fd5b8160405162461bcd60e51b8152600401610aea91906147f0565b80356001600160a01b03811681146140c657600080fd5b919050565b600082601f8301126140db578081fd5b813560206140f06140eb83614ab5565b614a84565b8281528181019085830160e08086028801850189101561410e578687fd5b865b868110156141b15781838b031215614126578788fd5b61412e614a13565b61413784614282565b8152614144878501614282565b878201526040614155818601614282565b908201526060614166858201614282565b9082015260806141778582016140af565b9082015260a06141888582016140af565b9082015260c08481013561419b81614d82565b9082015285529385019391810191600101614110565b509198975050505050505050565b80516140c681614d82565b600060c082840312156141db578081fd5b60405160c0810181811067ffffffffffffffff821117156141fe576141fe614d6c565b60405290508061420d8361426b565b815261421b6020840161426b565b602082015261422c6040840161426b565b604082015261423d6060840161426b565b606082015261424e6080840161426b565b608082015261425f60a0840161426b565b60a08201525092915050565b80516001600160801b03811681146140c657600080fd5b803560ff811681146140c657600080fd5b6000602082840312156142a4578081fd5b612fdc826140af565b600080600080608085870312156142c2578283fd5b6142cb856140af565b93506142d9602086016140af565b92506142e7604086016140af565b9150606085013567ffffffffffffffff811115614302578182fd5b61430e878288016140cb565b91505092959194509250565b6000602080838503121561432c578182fd5b823567ffffffffffffffff811115614342578283fd5b8301601f81018513614352578283fd5b80356143606140eb82614ab5565b80828252848201915084840188868560051b870101111561437f578687fd5b8694505b838510156143ad57803560038110614399578788fd5b835260019490940193918501918501614383565b50979650505050505050565b6000602082840312156143ca578081fd5b813567ffffffffffffffff8111156143e0578182fd5b613de8848285016140cb565b600060208083850312156143fe578182fd5b823567ffffffffffffffff811115614414578283fd5b8301601f81018513614424578283fd5b80356144326140eb82614ab5565b80828252848201915084840188868560051b8701011115614451578687fd5b8694505b838510156143ad578035835260019490940193918501918501614455565b600060208284031215614484578081fd5b8151612fdc81614d82565b600061018082840312156144a1578081fd5b6144a9614a3c565b825181526020830151602082015260408301516040820152606083015160608201526080830151608082015260a083015160a082015260c083015160c082015260e083015160e08201526101008084015181830152506101208084015181830152506101408084015181830152506101608084015181830152508091505092915050565b600060c0828403121561453e578081fd5b612fdc83836141ca565b6000610140828403121561455a578081fd5b614562614a60565b61456b8361426b565b81526145796020840161426b565b602082015261458a6040840161426b565b604082015261459b6060840161426b565b60608201526145ac6080840161426b565b60808201526145bd60a0840161426b565b60a08201526145ce60c0840161426b565b60c08201526145df60e0840161426b565b60e08201526101006145f281850161426b565b908201526101206146048482016141bf565b908201529392505050565b600060208284031215614620578081fd5b612fdc8261426b565b60006020828403121561463a578081fd5b612fdc82614282565b60008060408385031215614655578182fd5b61465e83614282565b9150602083013561ffff81168114614674578182fd5b809150509250929050565b60008060408385031215614691578182fd5b61469a83614282565b946020939093013593505050565b6000806000606084860312156146bc578081fd5b6146c584614282565b9250602084013591506146da604085016140af565b90509250925092565b80516001600160801b03168252602081015161470a60208401826001600160801b03169052565b50604081015161472560408401826001600160801b03169052565b50606081015161474060608401826001600160801b03169052565b50608081015161475b60808401826001600160801b03169052565b5060a081015161477660a08401826001600160801b03169052565b5060c081015161479160c08401826001600160801b03169052565b5060e08101516147ac60e08401826001600160801b03169052565b50610100818101516001600160801b0316908301526101208082015180151582850152613d07565b600082516147e6818460208701614cb4565b9190910192915050565b602081526000825180602084015261480f816040850160208701614cb4565b601f01601f19169190910160400192915050565b60208082526006908201526510b0b236b4b760d11b604082015260600190565b6020808252602e908201527f496e697469616c697a61626c653a20636f6e747261637420697320616c72656160408201526d191e481a5b9a5d1a585b1a5e995960921b606082015260800190565b6020808252818101527f4f776e61626c653a2063616c6c6572206973206e6f7420746865206f776e6572604082015260600190565b6020808252600690820152651b1bd8dad95960d21b604082015260600190565b60208082526008908201526710b6b0b730b3b2b960c11b604082015260600190565b9586526001600160a01b039490941660208601526040850192909252606084015261ffff166080830152151560a082015260c00190565b958652931515602086015260ff92831660408601529116606084015261ffff166080830152151560a082015260c00190565b60c08101611b1182846001600160801b038082511683528060208301511660208401528060408301511660408401528060608301511660608401528060808301511660808401528060a08301511660a0840152505050565b6102a081016149d882866146e3565b6149e66101408301856146e3565b60038310614a0457634e487b7160e01b600052602160045260246000fd5b82610280830152949350505050565b60405160e0810167ffffffffffffffff81118282101715614a3657614a36614d6c565b60405290565b604051610180810167ffffffffffffffff81118282101715614a3657614a36614d6c565b604051610140810167ffffffffffffffff81118282101715614a3657614a36614d6c565b604051601f8201601f1916810167ffffffffffffffff81118282101715614aad57614aad614d6c565b604052919050565b600067ffffffffffffffff821115614acf57614acf614d6c565b5060051b60200190565b600081600f0b83600f0b8282128260016001607f1b0303821381151615614b0257614b02614d40565b8260016001607f1b0319038212811615614b1e57614b1e614d40565b50019392505050565b600061ffff808316818516808303821115614b4457614b44614d40565b01949350505050565b60008219821115614b6057614b60614d40565b500190565b600060ff821660ff84168060ff03821115614b8257614b82614d40565b019392505050565b600082614b9957614b99614d56565b500490565b600060ff831680614bb157614bb1614d56565b8060ff84160491505092915050565b6000816000190483118215151615614bda57614bda614d40565b500290565b600060ff821660ff84168160ff0481118215151615614c0057614c00614d40565b029392505050565b600081600f0b83600f0b8281128160016001607f1b031901831281151615614c3257614c32614d40565b8160016001607f1b03018313811615614c4d57614c4d614d40565b5090039392505050565b600061ffff83811690831681811015614c7257614c72614d40565b039392505050565b600082821015614c8c57614c8c614d40565b500390565b600060ff821660ff841680821015614cab57614cab614d40565b90039392505050565b60005b83811015614ccf578181015183820152602001614cb7565b83811115613d075750506000910152565b6000600019821415614cf457614cf4614d40565b5060010190565b600060ff821660ff811415614d1257614d12614d40565b60010192915050565b600081600f0b60016001607f1b0319811415614d3957614d39614d40565b9003919050565b634e487b7160e01b600052601160045260246000fd5b634e487b7160e01b600052601260045260246000fd5b634e487b7160e01b600052604160045260246000fd5b8015158114611a1f57600080fdfee963a73e630cb9812a026653bfb6b1e14ffa92f8c38b79f318f2637557ea9f12a26469706673582212205a8cc729b5b992f65076db27274a962021fc1c651f1cc771db5d06c0b632372564736f6c63430008040033",
  "libraries": {
    "OptionLifecycle": "0x1EB69103a625085be89785Fe7555fC767d9F6D7F"
  },
  "devdoc": {
    "kind": "dev",
    "methods": {
      "owner()": {
        "details": "Returns the address of the current owner."
      },
      "renounceOwnership()": {
        "details": "Leaves the contract without owner. It will not be possible to call `onlyOwner` functions anymore. Can only be called by the current owner. NOTE: Renouncing ownership will leave the contract without an owner, thereby removing any functionality that is only available to the owner."
      },
      "transferOwnership(address)": {
        "details": "Transfers ownership of the contract to a new account (`newOwner`). Can only be called by the current owner."
      }
    },
    "version": 1
  },
  "userdoc": {
    "kind": "user",
    "methods": {},
    "version": 1
  },
  "storageLayout": {
    "storage": [
      {
        "astId": 130,
        "contract": "contracts/HodlBoosterOptionUpgradeable.sol:HodlBoosterOptionUpgradeable",
        "label": "_initialized",
        "offset": 0,
        "slot": "0",
        "type": "t_bool"
      },
      {
        "astId": 133,
        "contract": "contracts/HodlBoosterOptionUpgradeable.sol:HodlBoosterOptionUpgradeable",
        "label": "_initializing",
        "offset": 1,
        "slot": "0",
        "type": "t_bool"
      },
      {
        "astId": 213,
        "contract": "contracts/HodlBoosterOptionUpgradeable.sol:HodlBoosterOptionUpgradeable",
        "label": "__gap",
        "offset": 0,
        "slot": "1",
        "type": "t_array(t_uint256)50_storage"
      },
      {
        "astId": 10,
        "contract": "contracts/HodlBoosterOptionUpgradeable.sol:HodlBoosterOptionUpgradeable",
        "label": "_owner",
        "offset": 0,
        "slot": "51",
        "type": "t_address"
      },
      {
        "astId": 123,
        "contract": "contracts/HodlBoosterOptionUpgradeable.sol:HodlBoosterOptionUpgradeable",
        "label": "__gap",
        "offset": 0,
        "slot": "52",
        "type": "t_array(t_uint256)49_storage"
      },
      {
        "astId": 7109,
        "contract": "contracts/HodlBoosterOptionUpgradeable.sol:HodlBoosterOptionUpgradeable",
        "label": "locked",
        "offset": 0,
        "slot": "101",
        "type": "t_uint256"
      },
      {
        "astId": 7111,
        "contract": "contracts/HodlBoosterOptionUpgradeable.sol:HodlBoosterOptionUpgradeable",
        "label": "managerRoleAddress",
        "offset": 0,
        "slot": "102",
        "type": "t_address"
      },
      {
        "astId": 7113,
        "contract": "contracts/HodlBoosterOptionUpgradeable.sol:HodlBoosterOptionUpgradeable",
        "label": "adminRoleAddress",
        "offset": 0,
        "slot": "103",
        "type": "t_address"
      },
      {
        "astId": 7115,
        "contract": "contracts/HodlBoosterOptionUpgradeable.sol:HodlBoosterOptionUpgradeable",
        "label": "optionPairCount",
        "offset": 20,
        "slot": "103",
        "type": "t_uint8"
      },
      {
        "astId": 7117,
        "contract": "contracts/HodlBoosterOptionUpgradeable.sol:HodlBoosterOptionUpgradeable",
        "label": "assetCount",
        "offset": 21,
        "slot": "103",
        "type": "t_uint8"
      },
      {
        "astId": 7119,
        "contract": "contracts/HodlBoosterOptionUpgradeable.sol:HodlBoosterOptionUpgradeable",
        "label": "currentRound",
        "offset": 22,
        "slot": "103",
        "type": "t_uint16"
      },
      {
        "astId": 7121,
        "contract": "contracts/HodlBoosterOptionUpgradeable.sol:HodlBoosterOptionUpgradeable",
        "label": "underSettlement",
        "offset": 24,
        "slot": "103",
        "type": "t_bool"
      },
      {
        "astId": 7126,
        "contract": "contracts/HodlBoosterOptionUpgradeable.sol:HodlBoosterOptionUpgradeable",
        "label": "settlementCashflowResult",
        "offset": 0,
        "slot": "104",
        "type": "t_mapping(t_address,t_struct(SettlementCashflowResult)6848_storage)"
      },
      {
        "astId": 7131,
        "contract": "contracts/HodlBoosterOptionUpgradeable.sol:HodlBoosterOptionUpgradeable",
        "label": "assetData",
        "offset": 0,
        "slot": "105",
        "type": "t_mapping(t_address,t_struct(AssetData)6726_storage)"
      },
      {
        "astId": 7136,
        "contract": "contracts/HodlBoosterOptionUpgradeable.sol:HodlBoosterOptionUpgradeable",
        "label": "optionPairs",
        "offset": 0,
        "slot": "106",
        "type": "t_mapping(t_uint8,t_struct(OptionPairDefinition)6804_storage)"
      },
      {
        "astId": 7141,
        "contract": "contracts/HodlBoosterOptionUpgradeable.sol:HodlBoosterOptionUpgradeable",
        "label": "executionAccountingResult",
        "offset": 0,
        "slot": "107",
        "type": "t_mapping(t_uint8,t_struct(OptionPairExecutionAccountingResult)6839_storage)"
      },
      {
        "astId": 7146,
        "contract": "contracts/HodlBoosterOptionUpgradeable.sol:HodlBoosterOptionUpgradeable",
        "label": "optionData",
        "offset": 0,
        "slot": "108",
        "type": "t_mapping(t_uint8,t_struct(OptionData)6746_storage)"
      },
      {
        "astId": 7150,
        "contract": "contracts/HodlBoosterOptionUpgradeable.sol:HodlBoosterOptionUpgradeable",
        "label": "asset",
        "offset": 0,
        "slot": "109",
        "type": "t_mapping(t_uint8,t_address)"
      }
    ],
    "types": {
      "t_address": {
        "encoding": "inplace",
        "label": "address",
        "numberOfBytes": "20"
      },
      "t_array(t_address)dyn_storage": {
        "base": "t_address",
        "encoding": "dynamic_array",
        "label": "address[]",
        "numberOfBytes": "32"
      },
      "t_array(t_uint256)49_storage": {
        "base": "t_uint256",
        "encoding": "inplace",
        "label": "uint256[49]",
        "numberOfBytes": "1568"
      },
      "t_array(t_uint256)50_storage": {
        "base": "t_uint256",
        "encoding": "inplace",
        "label": "uint256[50]",
        "numberOfBytes": "1600"
      },
      "t_bool": {
        "encoding": "inplace",
        "label": "bool",
        "numberOfBytes": "1"
      },
      "t_enum(OptionExecution)6829": {
        "encoding": "inplace",
        "label": "enum StructureData.OptionExecution",
        "numberOfBytes": "1"
      },
      "t_int128": {
        "encoding": "inplace",
        "label": "int128",
        "numberOfBytes": "16"
      },
      "t_mapping(t_address,t_struct(AssetData)6726_storage)": {
        "encoding": "mapping",
        "key": "t_address",
        "label": "mapping(address => struct StructureData.AssetData)",
        "numberOfBytes": "32",
        "value": "t_struct(AssetData)6726_storage"
      },
      "t_mapping(t_address,t_struct(SettlementCashflowResult)6848_storage)": {
        "encoding": "mapping",
        "key": "t_address",
        "label": "mapping(address => struct StructureData.SettlementCashflowResult)",
        "numberOfBytes": "32",
        "value": "t_struct(SettlementCashflowResult)6848_storage"
      },
      "t_mapping(t_address,t_struct(UserState)6763_storage)": {
        "encoding": "mapping",
        "key": "t_address",
        "label": "mapping(address => struct StructureData.UserState)",
        "numberOfBytes": "32",
        "value": "t_struct(UserState)6763_storage"
      },
      "t_mapping(t_uint16,t_struct(OptionState)6694_storage)": {
        "encoding": "mapping",
        "key": "t_uint16",
        "label": "mapping(uint16 => struct StructureData.OptionState)",
        "numberOfBytes": "32",
        "value": "t_struct(OptionState)6694_storage"
      },
      "t_mapping(t_uint8,t_address)": {
        "encoding": "mapping",
        "key": "t_uint8",
        "label": "mapping(uint8 => address)",
        "numberOfBytes": "32",
        "value": "t_address"
      },
      "t_mapping(t_uint8,t_struct(OptionData)6746_storage)": {
        "encoding": "mapping",
        "key": "t_uint8",
        "label": "mapping(uint8 => struct StructureData.OptionData)",
        "numberOfBytes": "32",
        "value": "t_struct(OptionData)6746_storage"
      },
      "t_mapping(t_uint8,t_struct(OptionPairDefinition)6804_storage)": {
        "encoding": "mapping",
        "key": "t_uint8",
        "label": "mapping(uint8 => struct StructureData.OptionPairDefinition)",
        "numberOfBytes": "32",
        "value": "t_struct(OptionPairDefinition)6804_storage"
      },
      "t_mapping(t_uint8,t_struct(OptionPairExecutionAccountingResult)6839_storage)": {
        "encoding": "mapping",
        "key": "t_uint8",
        "label": "mapping(uint8 => struct StructureData.OptionPairExecutionAccountingResult)",
        "numberOfBytes": "32",
        "value": "t_struct(OptionPairExecutionAccountingResult)6839_storage"
      },
      "t_struct(AssetData)6726_storage": {
        "encoding": "inplace",
        "label": "struct StructureData.AssetData",
        "members": [
          {
            "astId": 6721,
            "contract": "contracts/HodlBoosterOptionUpgradeable.sol:HodlBoosterOptionUpgradeable",
            "label": "releasedAmount",
            "offset": 0,
            "slot": "0",
            "type": "t_uint128"
          },
          {
            "astId": 6723,
            "contract": "contracts/HodlBoosterOptionUpgradeable.sol:HodlBoosterOptionUpgradeable",
            "label": "depositAmount",
            "offset": 16,
            "slot": "0",
            "type": "t_uint128"
          },
          {
            "astId": 6725,
            "contract": "contracts/HodlBoosterOptionUpgradeable.sol:HodlBoosterOptionUpgradeable",
            "label": "leftOverAmount",
            "offset": 0,
            "slot": "1",
            "type": "t_int128"
          }
        ],
        "numberOfBytes": "64"
      },
      "t_struct(OptionData)6746_storage": {
        "encoding": "inplace",
        "label": "struct StructureData.OptionData",
        "members": [
          {
            "astId": 6728,
            "contract": "contracts/HodlBoosterOptionUpgradeable.sol:HodlBoosterOptionUpgradeable",
            "label": "totalReleasedDepositAssetAmount",
            "offset": 0,
            "slot": "0",
            "type": "t_uint128"
          },
          {
            "astId": 6730,
            "contract": "contracts/HodlBoosterOptionUpgradeable.sol:HodlBoosterOptionUpgradeable",
            "label": "totalReleasedCounterPartyAssetAmount",
            "offset": 16,
            "slot": "0",
            "type": "t_uint128"
          },
          {
            "astId": 6732,
            "contract": "contracts/HodlBoosterOptionUpgradeable.sol:HodlBoosterOptionUpgradeable",
            "label": "assetToTerminateForNextRound",
            "offset": 0,
            "slot": "1",
            "type": "t_uint128"
          },
          {
            "astId": 6737,
            "contract": "contracts/HodlBoosterOptionUpgradeable.sol:HodlBoosterOptionUpgradeable",
            "label": "optionStates",
            "offset": 0,
            "slot": "2",
            "type": "t_mapping(t_uint16,t_struct(OptionState)6694_storage)"
          },
          {
            "astId": 6740,
            "contract": "contracts/HodlBoosterOptionUpgradeable.sol:HodlBoosterOptionUpgradeable",
            "label": "usersInvolved",
            "offset": 0,
            "slot": "3",
            "type": "t_array(t_address)dyn_storage"
          },
          {
            "astId": 6745,
            "contract": "contracts/HodlBoosterOptionUpgradeable.sol:HodlBoosterOptionUpgradeable",
            "label": "userStates",
            "offset": 0,
            "slot": "4",
            "type": "t_mapping(t_address,t_struct(UserState)6763_storage)"
          }
        ],
        "numberOfBytes": "160"
      },
      "t_struct(OptionPairDefinition)6804_storage": {
        "encoding": "inplace",
        "label": "struct StructureData.OptionPairDefinition",
        "members": [
          {
            "astId": 6791,
            "contract": "contracts/HodlBoosterOptionUpgradeable.sol:HodlBoosterOptionUpgradeable",
            "label": "callOptionId",
            "offset": 0,
            "slot": "0",
            "type": "t_uint8"
          },
          {
            "astId": 6793,
            "contract": "contracts/HodlBoosterOptionUpgradeable.sol:HodlBoosterOptionUpgradeable",
            "label": "putOptionId",
            "offset": 1,
            "slot": "0",
            "type": "t_uint8"
          },
          {
            "astId": 6795,
            "contract": "contracts/HodlBoosterOptionUpgradeable.sol:HodlBoosterOptionUpgradeable",
            "label": "depositAssetAmountDecimals",
            "offset": 2,
            "slot": "0",
            "type": "t_uint8"
          },
          {
            "astId": 6797,
            "contract": "contracts/HodlBoosterOptionUpgradeable.sol:HodlBoosterOptionUpgradeable",
            "label": "counterPartyAssetAmountDecimals",
            "offset": 3,
            "slot": "0",
            "type": "t_uint8"
          },
          {
            "astId": 6799,
            "contract": "contracts/HodlBoosterOptionUpgradeable.sol:HodlBoosterOptionUpgradeable",
            "label": "depositAsset",
            "offset": 4,
            "slot": "0",
            "type": "t_address"
          },
          {
            "astId": 6801,
            "contract": "contracts/HodlBoosterOptionUpgradeable.sol:HodlBoosterOptionUpgradeable",
            "label": "counterPartyAsset",
            "offset": 0,
            "slot": "1",
            "type": "t_address"
          },
          {
            "astId": 6803,
            "contract": "contracts/HodlBoosterOptionUpgradeable.sol:HodlBoosterOptionUpgradeable",
            "label": "manualDepositDisabled",
            "offset": 20,
            "slot": "1",
            "type": "t_bool"
          }
        ],
        "numberOfBytes": "64"
      },
      "t_struct(OptionPairExecutionAccountingResult)6839_storage": {
        "encoding": "inplace",
        "label": "struct StructureData.OptionPairExecutionAccountingResult",
        "members": [
          {
            "astId": 6832,
            "contract": "contracts/HodlBoosterOptionUpgradeable.sol:HodlBoosterOptionUpgradeable",
            "label": "callOptionResult",
            "offset": 0,
            "slot": "0",
            "type": "t_struct(SettlementAccountingResult)6825_storage"
          },
          {
            "astId": 6835,
            "contract": "contracts/HodlBoosterOptionUpgradeable.sol:HodlBoosterOptionUpgradeable",
            "label": "putOptionResult",
            "offset": 0,
            "slot": "5",
            "type": "t_struct(SettlementAccountingResult)6825_storage"
          },
          {
            "astId": 6838,
            "contract": "contracts/HodlBoosterOptionUpgradeable.sol:HodlBoosterOptionUpgradeable",
            "label": "execute",
            "offset": 0,
            "slot": "10",
            "type": "t_enum(OptionExecution)6829"
          }
        ],
        "numberOfBytes": "352"
      },
      "t_struct(OptionState)6694_storage": {
        "encoding": "inplace",
        "label": "struct StructureData.OptionState",
        "members": [
          {
            "astId": 6681,
            "contract": "contracts/HodlBoosterOptionUpgradeable.sol:HodlBoosterOptionUpgradeable",
            "label": "totalAmount",
            "offset": 0,
            "slot": "0",
            "type": "t_uint128"
          },
          {
            "astId": 6683,
            "contract": "contracts/HodlBoosterOptionUpgradeable.sol:HodlBoosterOptionUpgradeable",
            "label": "totalTerminate",
            "offset": 16,
            "slot": "0",
            "type": "t_uint128"
          },
          {
            "astId": 6685,
            "contract": "contracts/HodlBoosterOptionUpgradeable.sol:HodlBoosterOptionUpgradeable",
            "label": "strikePrice",
            "offset": 0,
            "slot": "1",
            "type": "t_uint128"
          },
          {
            "astId": 6687,
            "contract": "contracts/HodlBoosterOptionUpgradeable.sol:HodlBoosterOptionUpgradeable",
            "label": "round",
            "offset": 16,
            "slot": "1",
            "type": "t_uint16"
          },
          {
            "astId": 6689,
            "contract": "contracts/HodlBoosterOptionUpgradeable.sol:HodlBoosterOptionUpgradeable",
            "label": "premiumRate",
            "offset": 18,
            "slot": "1",
            "type": "t_uint16"
          },
          {
            "astId": 6691,
            "contract": "contracts/HodlBoosterOptionUpgradeable.sol:HodlBoosterOptionUpgradeable",
            "label": "executed",
            "offset": 20,
            "slot": "1",
            "type": "t_bool"
          },
          {
            "astId": 6693,
            "contract": "contracts/HodlBoosterOptionUpgradeable.sol:HodlBoosterOptionUpgradeable",
            "label": "callOrPut",
            "offset": 21,
            "slot": "1",
            "type": "t_bool"
          }
        ],
        "numberOfBytes": "64"
      },
      "t_struct(SettlementAccountingResult)6825_storage": {
        "encoding": "inplace",
        "label": "struct StructureData.SettlementAccountingResult",
        "members": [
          {
            "astId": 6806,
            "contract": "contracts/HodlBoosterOptionUpgradeable.sol:HodlBoosterOptionUpgradeable",
            "label": "depositAmount",
            "offset": 0,
            "slot": "0",
            "type": "t_uint128"
          },
          {
            "astId": 6808,
            "contract": "contracts/HodlBoosterOptionUpgradeable.sol:HodlBoosterOptionUpgradeable",
            "label": "autoRollAmount",
            "offset": 16,
            "slot": "0",
            "type": "t_uint128"
          },
          {
            "astId": 6810,
            "contract": "contracts/HodlBoosterOptionUpgradeable.sol:HodlBoosterOptionUpgradeable",
            "label": "autoRollPremium",
            "offset": 0,
            "slot": "1",
            "type": "t_uint128"
          },
          {
            "astId": 6812,
            "contract": "contracts/HodlBoosterOptionUpgradeable.sol:HodlBoosterOptionUpgradeable",
            "label": "releasedAmount",
            "offset": 16,
            "slot": "1",
            "type": "t_uint128"
          },
          {
            "astId": 6814,
            "contract": "contracts/HodlBoosterOptionUpgradeable.sol:HodlBoosterOptionUpgradeable",
            "label": "releasedPremium",
            "offset": 0,
            "slot": "2",
            "type": "t_uint128"
          },
          {
            "astId": 6816,
            "contract": "contracts/HodlBoosterOptionUpgradeable.sol:HodlBoosterOptionUpgradeable",
            "label": "autoRollCounterPartyAmount",
            "offset": 16,
            "slot": "2",
            "type": "t_uint128"
          },
          {
            "astId": 6818,
            "contract": "contracts/HodlBoosterOptionUpgradeable.sol:HodlBoosterOptionUpgradeable",
            "label": "autoRollCounterPartyPremium",
            "offset": 0,
            "slot": "3",
            "type": "t_uint128"
          },
          {
            "astId": 6820,
            "contract": "contracts/HodlBoosterOptionUpgradeable.sol:HodlBoosterOptionUpgradeable",
            "label": "releasedCounterPartyAmount",
            "offset": 16,
            "slot": "3",
            "type": "t_uint128"
          },
          {
            "astId": 6822,
            "contract": "contracts/HodlBoosterOptionUpgradeable.sol:HodlBoosterOptionUpgradeable",
            "label": "releasedCounterPartyPremium",
            "offset": 0,
            "slot": "4",
            "type": "t_uint128"
          },
          {
            "astId": 6824,
            "contract": "contracts/HodlBoosterOptionUpgradeable.sol:HodlBoosterOptionUpgradeable",
            "label": "executed",
            "offset": 16,
            "slot": "4",
            "type": "t_bool"
          }
        ],
        "numberOfBytes": "160"
      },
      "t_struct(SettlementCashflowResult)6848_storage": {
        "encoding": "inplace",
        "label": "struct StructureData.SettlementCashflowResult",
        "members": [
          {
            "astId": 6841,
            "contract": "contracts/HodlBoosterOptionUpgradeable.sol:HodlBoosterOptionUpgradeable",
            "label": "newDepositAmount",
            "offset": 0,
            "slot": "0",
            "type": "t_uint128"
          },
          {
            "astId": 6843,
            "contract": "contracts/HodlBoosterOptionUpgradeable.sol:HodlBoosterOptionUpgradeable",
            "label": "newReleasedAmount",
            "offset": 16,
            "slot": "0",
            "type": "t_uint128"
          },
          {
            "astId": 6845,
            "contract": "contracts/HodlBoosterOptionUpgradeable.sol:HodlBoosterOptionUpgradeable",
            "label": "leftOverAmount",
            "offset": 0,
            "slot": "1",
            "type": "t_int128"
          },
          {
            "astId": 6847,
            "contract": "contracts/HodlBoosterOptionUpgradeable.sol:HodlBoosterOptionUpgradeable",
            "label": "contractAddress",
            "offset": 0,
            "slot": "2",
            "type": "t_address"
          }
        ],
        "numberOfBytes": "96"
      },
      "t_struct(UserState)6763_storage": {
        "encoding": "inplace",
        "label": "struct StructureData.UserState",
        "members": [
          {
            "astId": 6748,
            "contract": "contracts/HodlBoosterOptionUpgradeable.sol:HodlBoosterOptionUpgradeable",
            "label": "pendingAsset",
            "offset": 0,
            "slot": "0",
            "type": "t_uint128"
          },
          {
            "astId": 6750,
            "contract": "contracts/HodlBoosterOptionUpgradeable.sol:HodlBoosterOptionUpgradeable",
            "label": "tempLocked",
            "offset": 16,
            "slot": "0",
            "type": "t_uint128"
          },
          {
            "astId": 6752,
            "contract": "contracts/HodlBoosterOptionUpgradeable.sol:HodlBoosterOptionUpgradeable",
            "label": "ongoingAsset",
            "offset": 0,
            "slot": "1",
            "type": "t_uint128"
          },
          {
            "astId": 6754,
            "contract": "contracts/HodlBoosterOptionUpgradeable.sol:HodlBoosterOptionUpgradeable",
            "label": "assetToTerminate",
            "offset": 16,
            "slot": "1",
            "type": "t_uint128"
          },
          {
            "astId": 6756,
            "contract": "contracts/HodlBoosterOptionUpgradeable.sol:HodlBoosterOptionUpgradeable",
            "label": "assetToTerminateForNextRound",
            "offset": 0,
            "slot": "2",
            "type": "t_uint128"
          },
          {
            "astId": 6758,
            "contract": "contracts/HodlBoosterOptionUpgradeable.sol:HodlBoosterOptionUpgradeable",
            "label": "releasedDepositAssetAmount",
            "offset": 16,
            "slot": "2",
            "type": "t_uint128"
          },
          {
            "astId": 6760,
            "contract": "contracts/HodlBoosterOptionUpgradeable.sol:HodlBoosterOptionUpgradeable",
            "label": "releasedCounterPartyAssetAmount",
            "offset": 0,
            "slot": "3",
            "type": "t_uint128"
          },
          {
            "astId": 6762,
            "contract": "contracts/HodlBoosterOptionUpgradeable.sol:HodlBoosterOptionUpgradeable",
            "label": "hasState",
            "offset": 16,
            "slot": "3",
            "type": "t_bool"
          }
        ],
        "numberOfBytes": "128"
      },
      "t_uint128": {
        "encoding": "inplace",
        "label": "uint128",
        "numberOfBytes": "16"
      },
      "t_uint16": {
        "encoding": "inplace",
        "label": "uint16",
        "numberOfBytes": "2"
      },
      "t_uint256": {
        "encoding": "inplace",
        "label": "uint256",
        "numberOfBytes": "32"
      },
      "t_uint8": {
        "encoding": "inplace",
        "label": "uint8",
        "numberOfBytes": "1"
      }
    }
  }
}