{
  "address": "0xF600AD9c330753499a12A39F81F1859A9b9697A2",
  "abi": [
    {
      "inputs": [],
      "name": "PERIOD",
      "outputs": [
        {
          "internalType": "uint256",
          "name": "",
          "type": "uint256"
        }
      ],
      "stateMutability": "view",
      "type": "function"
    },
    {
      "inputs": [],
      "name": "PERIOD_QA",
      "outputs": [
        {
          "internalType": "uint256",
          "name": "",
          "type": "uint256"
        }
      ],
      "stateMutability": "view",
      "type": "function"
    },
    {
      "inputs": [],
      "name": "PERIOD_TEST",
      "outputs": [
        {
          "internalType": "uint256",
          "name": "",
          "type": "uint256"
        }
      ],
      "stateMutability": "view",
      "type": "function"
    },
    {
      "inputs": [],
      "name": "ROUND_PRICE_DECIMALS",
      "outputs": [
        {
          "internalType": "uint256",
          "name": "",
          "type": "uint256"
        }
      ],
      "stateMutability": "view",
      "type": "function"
    }
  ],
  "transactionHash": "0x7161e860559242217cbd365f28817a9c33df17bd135a4cb623ac8dcfbdd16616",
  "args": [],
  "solcInputHash": "beffe41991a2b3ff464f9e748f491151",
  "bytecode": "0x611f8761003a600b82828239805160001a60731461002d57634e487b7160e01b600052600060045260246000fd5b30600052607381538281f3fe73000000000000000000000000000000000000000030146080604052600436106100d95760003560e01c8063a8a328e711610096578063e98cf58811610070578063e98cf5881461021c578063f38f29dd1461023c578063f6d4a1951461026e578063fdf2718c1461028e57600080fd5b8063a8a328e714610188578063b4d1d7951461020a578063cba7ca121461021457600080fd5b80632abd708c146100de57806333a907b91461010757806347e529611461011d57806369328dec1461013f5780637522e6441461015f578063805fb9641461017f575b600080fd5b6100f16100ec366004611bda565b6102ae565b6040516100fe9190611cfd565b60405180910390f35b61010f603c81565b6040519081526020016100fe565b81801561012957600080fd5b5061013d610138366004611bf2565b610557565b005b81801561014b57600080fd5b5061013d61015a366004611b7f565b61098d565b81801561016b57600080fd5b5061013d61017a366004611bf2565b610a29565b61010f610e1081565b61019b610196366004611c26565b610c46565b6040516100fe9190600060e0820190506001600160801b038084511683528060208501511660208401528060408501511660408401528060608501511660608401528060808501511660808401528060a08501511660a08401525061ffff60c08401511660c083015292915050565b61010f62093a8081565b61010f600881565b81801561022857600080fd5b5061013d610237366004611bda565b610ee4565b61024f61024a366004611bda565b6111ed565b6040805163ffffffff909316835261ffff9091166020830152016100fe565b81801561027a57600080fd5b5061013d610289366004611bf2565b611316565b81801561029a57600080fd5b5061013d6102a9366004611bf2565b6115ce565b6102b6611ad2565b6040805160e08101825283546001600160801b038082168352600160801b918290048116602080850191909152600187015463ffffffff811685870181905261ffff600160201b8304811660608089019190915266010000000000009093048516608080890191909152885160a08181018b5260028d0154808916835289900488168288015260038d0154808916838d015289900484168287015260048d01546001600160a01b0390811683850152818b01929092528a519081018b5260058d0154808916825289900488169681019690965260068c015496871699860199909952959094049093169082015260078701549094169184019190915260c0820192909252904210806103d557506001830154600160201b900461ffff16155b156103e05792915050565b6000806103ec856111ed565b60018701549193509150600160201b900461ffff165b8161ffff168110156105365760a0808501805160408051938401815287516001600160801b03168452600060208501819052908401819052606084018190526080840152919052600182118015610466575060c0850151516001600160801b031615155b8015610481575060c0850151608001516001600160a01b0316155b156105185760c08501516020810151905160a0870151516000926104bf926001600160801b03918216926104b99290811691166117b0565b906117c5565b90506104ca816117d1565b60a08601516001600160801b0380831690915260c0870151602090810151908801516000926104fd9291811691166117b0565b9050610508816117d1565b6001600160801b03166020870152505b60c085018190526000855261052e826001611d78565b915050610402565b506000835263ffffffff909116604083015261ffff16606082015292915050565b61056083610ee4565b600183810154600160201b900461ffff16116105b75760405162461bcd60e51b81526020600482015260116024820152704e6f7468696e6720746f2072656465656d60781b60448201526064015b60405180910390fd5b6001600160a01b0382166000908152600984016020526040902060018401546105ee9085908390600160201b900461ffff16610c46565b6001600160a01b038416600090815260098601602090815260408083208451928501516001600160801b03938416600160801b9185168202178255918501516060860151908416908416830281811760018401819055608088015160a0890151908716908716860217600285015560c09097015160038401805461ffff191661ffff90921691909117905591965093946106929491841690911792919004166117c5565b60028301549091506000906106bf906001600160801b03600160801b82048116916104b9918691166117b0565b9050808411156107085760405162461bcd60e51b81526020600482015260146024820152734e6f7420656e6f75676820746f2072656465656d60601b60448201526064016105ae565b60018601546000906002600160201b90910461ffff161161072a57600061076d565b6001870154600888019060009061074e90600290600160201b900461ffff16611eba565b61ffff1681526020810191909152604001600020546001600160801b03165b6001600160801b03169050806108f35782851161081a5760018401546000906107a7908790600160801b90046001600160801b03166117b0565b90506107b2816117d1565b6001850180546001600160801b03808416600160801b9081029282169290921790925560058a01546000926107ea928a9204166117b0565b90506107f5816117d1565b6005890180546001600160801b03928316600160801b02921691909117905550610984565b60006108268487611edd565b600186018054600160801b6001600160801b0391821681810217909255600288015492935060009261085c9285929104166117b0565b9050610867816117d1565b6002860180546001600160801b03908116600160801b84831681029190911790925560058b015461089b92900416866117b0565b60058a0180546001600160801b03908116600160801b93821684021790915560028b01546108cc92900416836117b0565b60028a0180546001600160801b03928316600160801b029216919091179055506109849050565b6002840154600090610916908790600160801b90046001600160801b03166117b0565b9050610921816117d1565b600285810180546001600160801b03908116600160801b858316810291909117909255918a0154600092610958928a9204166117b0565b9050610963816117d1565b6002890180546001600160801b03928316600160801b029216919091179055505b50505050505050565b600082116109c65760405162461bcd60e51b81526004016105ae9060208082526004908201526308585b5d60e21b604082015260600190565b6001600160a01b038116610a10576040516001600160a01b0384169083156108fc029084906000818181858888f19350505050158015610a0a573d6000803e3d6000fd5b50505050565b610a246001600160a01b038216848461181e565b505050565b610a3283610ee4565b6001600160a01b038216600090815260098401602052604090206001840154610a699085908390600160201b900461ffff16610c46565b6001600160a01b03841660009081526009860160209081526040918290208351918401516001600160801b03928316600160801b9184168202178083559385015160608601519084169084168202176001830155608085015160a0860151908416908416820217600283015560c09094015160038201805461ffff191661ffff909216919091179055935091900416828110610b5157610b0981846117c5565b82546001600160801b03908116600160801b92821683021784558654610b3292900416846117c5565b85546001600160801b03918216600160801b0291161790945550505050565b6000610b5d84836117c5565b83549091506001600160801b0316811115610bb35760405162461bcd60e51b81526020600482015260166024820152754e6f7420656e6f75676820746f20776974686472617760501b60448201526064016105ae565b8554610bcf90600160801b90046001600160801b0316836117c5565b86546001600160801b03918216600160801b029082168181178955610bf9929190911617826117c5565b86546001600160801b0319166001600160801b03918216178755835416808455610c2390826117c5565b83546001600160801b0319166001600160801b0391909116179092555050505050565b6040805160e081018252600080825260208201819052918101829052606081018290526080810182905260a0810182905260c081019190915260028301546001840154600385015485546001600160801b038085169484821694600160801b908190048316949181900483169361ffff909216928281169291909104165b8861ffff16831015610db9576000968615610d7257600060088d0181610ceb600288611edd565b61ffff1681526020810191909152604001600020546001600160801b031690508015610d5457610d30610d206008600a611df3565b610d2a8a84611870565b9061187c565b97508615610d5457610d51610d476008600a611df3565b610d2a8984611870565b96505b610d5e83886117b0565b9250610d6a88886117c5565b985060009650505b8215610d8957610d8288846117b0565b9750600092505b8015610d9d57955092935060009285610da6565b60009650600095505b610db1846001611d78565b935050610cc4565b8515610e5757600060088c0181610dd1600287611edd565b61ffff1681526020810191909152604001600020546001600160801b031690508015610e5557610e06610d476008600a611df3565b96508515610e2a57610e27610e1d6008600a611df3565b610d2a8884611870565b95505b610e38866104b98a8a6117b0565b9750600096508515610e5557610e4e82876117b0565b9150600095505b505b610e60826117d1565b610e69816117d1565b610e72866117d1565b610e7b856117d1565b610e84876117d1565b610e8d846117d1565b6040805160e0810182526001600160801b03938416815291831660208301529582169581019590955292831660608501525092811660808301529190911660a082015261ffff831660c082015290505b9392505050565b60018101544263ffffffff9091161180610f0b57506001810154600160201b900461ffff16155b15610f135750565b600080610f1f836111ed565b600185015485546001600160801b031981168755929450909250600160201b900461ffff16906001600160801b03165b8261ffff168210156111b9576040805160a080820183526002880180546001600160801b038082168552600160801b91829004811660208087019190915260038c018054808416888a015293840461ffff1660608089019190915260048e0180546001600160a01b0381166080808c01919091528b51998a018c529b909516808952600094890185905299880184905290870183905295909801819052959092556001600160901b0319169094556001600160a01b031990931690925590600183118015611029575060058601546001600160801b031615155b8015611040575060078601546001600160a01b0316155b1561112e5760058601546002870154600091611075916001600160801b03600160801b83048116926104b992821691166117b0565b9050611080816117d1565b6002870180546001600160801b0319166001600160801b0383811691909117909155600588015488546000926110c492600160801b928390048216929004166117b0565b90506110cf816117d1565b87546001600160801b03808316600160801b029116178855600060088901816110f9600189611edd565b61ffff168152602081019190915260400160002080546001600160801b0319166001600160801b039290921691909117905550505b805160208201516001600160801b03918216600160801b918316820217600589015560408301516006890180546060860151929094166001600160901b03199094169390931761ffff90911690910217905560808101516007870180546001600160a01b0319166001600160a01b039092169190911790556111b1836001611d78565b925050610f4f565b50506001909201805461ffff909316600160201b0265ffffffffffff1990931663ffffffff90921691909117919091179055565b600181015460009081904263ffffffff909116118061121957506001830154600160201b900461ffff16155b1561123b5750506001015463ffffffff811691600160201b90910461ffff1690565b600183015463ffffffff811690600160201b900461ffff165b42821161130c576001850154600160b01b900460ff166112825761127b62093a80836117b0565b91506112b2565b600185810154600160b01b900460ff1614156112a45761127b610e10836117b0565b6112af603c836117b0565b91505b63ffffffff8211156112fa5760405162461bcd60e51b815260206004820152601160248201527013dd995c999b1bddc818dd5d13d999905d607a1b60448201526064016105ae565b8061130481611f20565b915050611254565b9094909350915050565b61131f83610ee4565b600183810154600160201b900461ffff161161137d5760405162461bcd60e51b815260206004820152601860248201527f4e6f7468696e6720746f2063616e63656c2072656465656d000000000000000060448201526064016105ae565b6001600160a01b0382166000908152600984016020526040902060018401546113b49085908390600160201b900461ffff16610c46565b6001600160a01b03841660009081526009860160209081526040918290208351918401516001600160801b03928316600160801b918416820217825592840151606085015190831690831684021760018201819055608085015160a08601519084169084168502176002830181905560c09095015160038301805461ffff191661ffff909216919091179055909450829004811692919091041661145882826117b0565b8411156114a75760405162461bcd60e51b815260206004820152601b60248201527f4e6f7420656e6f75676820746f2063616e63656c2072656465656d000000000060448201526064016105ae565b818411611511576114b882856117c5565b6001840180546001600160801b03908116600160801b93821684021790915560058801546114e992900416856117c5565b600590960180546001600160801b03978816600160801b029716969096179095555050505050565b6001830180546001600160801b03908116909155600587015461153d91600160801b90910416836117c5565b6005870180546001600160801b03928316600160801b029216919091179055600061156885846117c5565b905061157482826117c5565b600285810180546001600160801b03908116600160801b948216850217909155908901546115a592900416826117c5565b600290970180546001600160801b03988916600160801b02981697909717909655505050505050565b6115d783610ee4565b6001600160a01b03821660009081526009840160205260409020600184015461160e9085908390600160201b900461ffff16610c46565b6001600160a01b038416600090815260098601602090815260408083208451928501516001600160801b03938416600160801b91851682021782559185015160608601519084169084168302176001820155608085015160a086015190841690841683021760028083019190915560c09095015160038201805461ffff191661ffff909216919091179055600589015494890154895491965093946116d2949281048416936104b993918116926116cc9282169183918b91166117b0565b906117b0565b82549091506000906116ee9085906001600160801b03166117b0565b6001870154909150660100000000000090046001600160801b031682111561174b5760405162461bcd60e51b815260206004820152601060248201526f4578636565647320636170616369747960801b60448201526064016105ae565b611754816117d1565b82546001600160801b0319166001600160801b038281169190911784558654600091611782918791166117b0565b905061178d816117d1565b86546001600160801b0319166001600160801b0391909116179095555050505050565b60006117bc8284611d78565b90505b92915050565b60006117bc8284611edd565b6001600160801b0381111561181b5760405162461bcd60e51b815260206004820152601060248201526f09eeccae4ccd8deee40ead2dce86264760831b60448201526064016105ae565b50565b604080516001600160a01b038416602482015260448082018490528251808303909101815260649091019091526020810180516001600160e01b031663a9059cbb60e01b179052610a24908490611888565b60006117bc8284611e9b565b60006117bc8284611d90565b60006118dd826040518060400160405280602081526020017f5361666545524332303a206c6f772d6c6576656c2063616c6c206661696c6564815250856001600160a01b031661195a9092919063ffffffff16565b805190915015610a2457808060200190518101906118fb9190611bba565b610a245760405162461bcd60e51b815260206004820152602a60248201527f5361666545524332303a204552433230206f7065726174696f6e20646964206e6044820152691bdd081cdd58d8d9595960b21b60648201526084016105ae565b60606119698484600085611971565b949350505050565b6060824710156119d25760405162461bcd60e51b815260206004820152602660248201527f416464726573733a20696e73756666696369656e742062616c616e636520666f6044820152651c8818d85b1b60d21b60648201526084016105ae565b843b611a205760405162461bcd60e51b815260206004820152601d60248201527f416464726573733a2063616c6c20746f206e6f6e2d636f6e747261637400000060448201526064016105ae565b600080866001600160a01b03168587604051611a3c9190611cae565b60006040518083038185875af1925050503d8060008114611a79576040519150601f19603f3d011682016040523d82523d6000602084013e611a7e565b606091505b5091509150611a8e828286611a99565b979650505050505050565b60608315611aa8575081610edd565b825115611ab85782518084602001fd5b8160405162461bcd60e51b81526004016105ae9190611cca565b6040805160e08101825260008082526020820181905291810182905260608101829052608081019190915260a08101611b326040805160a08101825260008082526020820181905291810182905260608101829052608081019190915290565b81526040805160a0810182526000808252602082810182905292820181905260608201819052608082015291015290565b80356001600160a01b0381168114611b7a57600080fd5b919050565b600080600060608486031215611b93578283fd5b611b9c84611b63565b925060208401359150611bb160408501611b63565b90509250925092565b600060208284031215611bcb578081fd5b81518015158114610edd578182fd5b600060208284031215611beb578081fd5b5035919050565b600080600060608486031215611c06578283fd5b83359250611c1660208501611b63565b9150604084013590509250925092565b600080600060608486031215611c3a578283fd5b8335925060208401359150604084013561ffff81168114611c59578182fd5b809150509250925092565b80516001600160801b0390811683526020808301518216908401526040808301519091169083015260608082015161ffff16908301526080908101516001600160a01b0316910152565b60008251611cc0818460208701611ef4565b9190910192915050565b6020815260008251806020840152611ce9816040850160208701611ef4565b601f01601f19169190910160400192915050565b60006101e0820190506001600160801b0380845116835280602085015116602084015263ffffffff604085015116604084015261ffff60608501511660608401528060808501511660808401525060a0830151611d5d60a0840182611c64565b5060c0830151611d71610140840182611c64565b5092915050565b60008219821115611d8b57611d8b611f3b565b500190565b600082611dab57634e487b7160e01b81526012600452602481fd5b500490565b600181815b80851115611deb578160001904821115611dd157611dd1611f3b565b80851615611dde57918102915b93841c9390800290611db5565b509250929050565b60006117bc8383600082611e09575060016117bf565b81611e16575060006117bf565b8160018114611e2c5760028114611e3657611e52565b60019150506117bf565b60ff841115611e4757611e47611f3b565b50506001821b6117bf565b5060208310610133831016604e8410600b8410161715611e75575081810a6117bf565b611e7f8383611db0565b8060001904821115611e9357611e93611f3b565b029392505050565b6000816000190483118215151615611eb557611eb5611f3b565b500290565b600061ffff83811690831681811015611ed557611ed5611f3b565b039392505050565b600082821015611eef57611eef611f3b565b500390565b60005b83811015611f0f578181015183820152602001611ef7565b83811115610a0a5750506000910152565b6000600019821415611f3457611f34611f3b565b5060010190565b634e487b7160e01b600052601160045260246000fdfea264697066735822122052b0cfd5fe52ffb8429c2f5f8cb702788b30c821029174267d7368bf0c579d0964736f6c63430008040033",
  "devdoc": {
    "kind": "dev",
    "methods": {},
    "version": 1
  },
  "userdoc": {
    "kind": "user",
    "methods": {},
    "version": 1
  },
  "storageLayout": {
    "storage": [],
    "types": null
  }
}