{
  "address": "0x84D8abC1C8f8d59De2BDd7F64187B59b0b9C90a0",
  "abi": [
    {
      "inputs": [],
      "name": "PERIOD",
      "outputs": [
        {
          "internalType": "uint256",
          "name": "",
          "type": "uint256"
        }
      ],
      "stateMutability": "view",
      "type": "function"
    },
    {
      "inputs": [],
      "name": "PERIOD_QA",
      "outputs": [
        {
          "internalType": "uint256",
          "name": "",
          "type": "uint256"
        }
      ],
      "stateMutability": "view",
      "type": "function"
    },
    {
      "inputs": [],
      "name": "PERIOD_TEST",
      "outputs": [
        {
          "internalType": "uint256",
          "name": "",
          "type": "uint256"
        }
      ],
      "stateMutability": "view",
      "type": "function"
    },
    {
      "inputs": [],
      "name": "ROUND_PRICE_DECIMALS",
      "outputs": [
        {
          "internalType": "uint256",
          "name": "",
          "type": "uint256"
        }
      ],
      "stateMutability": "view",
      "type": "function"
    }
  ],
  "transactionHash": "0x92623477eb1db32f306400020afe8bce2294eeab85161a586a52dff267be562e",
  "args": [],
  "solcInputHash": "72a85492fe839aaa1ce7600126b34de0",
  "bytecode": "0x61208561003a600b82828239805160001a60731461002d57634e487b7160e01b600052600060045260246000fd5b30600052607381538281f3fe73000000000000000000000000000000000000000030146080604052600436106100d95760003560e01c8063a8a328e711610096578063e98cf58811610070578063e98cf5881461021c578063f38f29dd1461023c578063f6d4a1951461026e578063fdf2718c1461028e57600080fd5b8063a8a328e714610188578063b4d1d7951461020a578063cba7ca121461021457600080fd5b80632abd708c146100de57806333a907b91461010757806347e529611461011d57806369328dec1461013f5780637522e6441461015f578063805fb9641461017f575b600080fd5b6100f16100ec366004611cd3565b6102ae565b6040516100fe9190611dfb565b60405180910390f35b61010f603c81565b6040519081526020016100fe565b81801561012957600080fd5b5061013d610138366004611ceb565b6105b4565b005b81801561014b57600080fd5b5061013d61015a366004611c78565b6109ea565b81801561016b57600080fd5b5061013d61017a366004611ceb565b610a9d565b61010f610e1081565b61019b610196366004611d1f565b610cba565b6040516100fe9190600060e0820190506001600160801b038084511683528060208501511660208401528060408501511660408401528060608501511660608401528060808501511660808401528060a08501511660a08401525061ffff60c08401511660c083015292915050565b61010f62093a8081565b61010f600881565b81801561022857600080fd5b5061013d610237366004611cd3565b610f58565b61024f61024a366004611cd3565b6112c8565b6040805163ffffffff909316835261ffff9091166020830152016100fe565b81801561027a57600080fd5b5061013d610289366004611ceb565b6113f1565b81801561029a57600080fd5b5061013d6102a9366004611ceb565b6116a9565b6102b6611bcb565b6040805160e08101825283546001600160801b038082168352600160801b918290048116602080850191909152600187015463ffffffff811685870181905261ffff600160201b83041660608088019190915266010000000000009092048416608080880191909152875160a08181018a5260028c0154808816835288900487168287015260038c0154808816838c01526001600160681b039089900481168387015260048d01546001600160a01b0390811684860152828b01939093528a519182018b5260058d0154808916835289900488169682019690965260068c015496871699810199909952959094049092169086015260078701549092169084015260c0820192909252904210806103da57506001830154600160201b900461ffff16155b156103e55792915050565b6000806103f1856112c8565b60018701549193509150600160201b900461ffff165b8161ffff168110156105935760a0808501805160408051938401815287516001600160801b0316845260006020850181905290840181905260608401819052608084015291905260018211801561046b575060c0850151516001600160801b031615155b156105755760c0850151608001516000906001600160a01b031615610498578560c001516060015161049b565b60005b60c0870151519091506000906104c3906001600160801b03166001600160681b03841661188b565b905060006104f4836001600160681b03168960c00151602001516001600160801b031661188b90919063ffffffff16565b9050600061052682610520858c60a00151600001516001600160801b03166118b290919063ffffffff16565b906118be565b9050610531816118ca565b60a08901516001600160801b0380831690915260208a01516000916105579116846118b2565b9050610562816118ca565b6001600160801b031660208a0152505050505b60c085018190526000855261058b826001611e76565b915050610407565b506000835263ffffffff909116604083015261ffff16606082015292915050565b6105bd83610f58565b600183810154600160201b900461ffff16116106145760405162461bcd60e51b81526020600482015260116024820152704e6f7468696e6720746f2072656465656d60781b60448201526064015b60405180910390fd5b6001600160a01b03821660009081526009840160205260409020600184015461064b9085908390600160201b900461ffff16610cba565b6001600160a01b038416600090815260098601602090815260408083208451928501516001600160801b03938416600160801b9185168202178255918501516060860151908416908416830281811760018401819055608088015160a0890151908716908716860217600285015560c09097015160038401805461ffff191661ffff90921691909117905591965093946106ef9491841690911792919004166118be565b600283015490915060009061071c906001600160801b03600160801b8204811691610520918691166118b2565b9050808411156107655760405162461bcd60e51b81526020600482015260146024820152734e6f7420656e6f75676820746f2072656465656d60601b604482015260640161060b565b60018601546000906002600160201b90910461ffff16116107875760006107ca565b600187015460088801906000906107ab90600290600160201b900461ffff16611fb8565b61ffff1681526020810191909152604001600020546001600160801b03165b6001600160801b031690508061095057828511610877576001840154600090610804908790600160801b90046001600160801b03166118b2565b905061080f816118ca565b6001850180546001600160801b03808416600160801b9081029282169290921790925560058a0154600092610847928a9204166118b2565b9050610852816118ca565b6005890180546001600160801b03928316600160801b029216919091179055506109e1565b60006108838487611fdb565b600186018054600160801b6001600160801b039182168181021790925560028801549293506000926108b99285929104166118b2565b90506108c4816118ca565b6002860180546001600160801b03908116600160801b84831681029190911790925560058b01546108f892900416866118b2565b60058a0180546001600160801b03908116600160801b93821684021790915560028b015461092992900416836118b2565b60028a0180546001600160801b03928316600160801b029216919091179055506109e19050565b6002840154600090610973908790600160801b90046001600160801b03166118b2565b905061097e816118ca565b600285810180546001600160801b03908116600160801b858316810291909117909255918a01546000926109b5928a9204166118b2565b90506109c0816118ca565b6002890180546001600160801b03928316600160801b029216919091179055505b50505050505050565b60008211610a235760405162461bcd60e51b815260040161060b9060208082526004908201526308585b5d60e21b604082015260600190565b6001600160a01b03811673eeeeeeeeeeeeeeeeeeeeeeeeeeeeeeeeeeeeeeee1415610a84576040516001600160a01b0384169083156108fc029084906000818181858888f19350505050158015610a7e573d6000803e3d6000fd5b50505050565b610a986001600160a01b0382168484611917565b505050565b610aa683610f58565b6001600160a01b038216600090815260098401602052604090206001840154610add9085908390600160201b900461ffff16610cba565b6001600160a01b03841660009081526009860160209081526040918290208351918401516001600160801b03928316600160801b9184168202178083559385015160608601519084169084168202176001830155608085015160a0860151908416908416820217600283015560c09094015160038201805461ffff191661ffff909216919091179055935091900416828110610bc557610b7d81846118be565b82546001600160801b03908116600160801b92821683021784558654610ba692900416846118be565b85546001600160801b03918216600160801b0291161790945550505050565b6000610bd184836118be565b83549091506001600160801b0316811115610c275760405162461bcd60e51b81526020600482015260166024820152754e6f7420656e6f75676820746f20776974686472617760501b604482015260640161060b565b8554610c4390600160801b90046001600160801b0316836118be565b86546001600160801b03918216600160801b029082168181178955610c6d929190911617826118be565b86546001600160801b0319166001600160801b03918216178755835416808455610c9790826118be565b83546001600160801b0319166001600160801b0391909116179092555050505050565b6040805160e081018252600080825260208201819052918101829052606081018290526080810182905260a0810182905260c081019190915260028301546001840154600385015485546001600160801b038085169484821694600160801b908190048316949181900483169361ffff909216928281169291909104165b8861ffff16831015610e2d576000968615610de657600060088d0181610d5f600288611fdb565b61ffff1681526020810191909152604001600020546001600160801b031690508015610dc857610da4610d946008600a611ef1565b610d9e8a84611969565b90611975565b97508615610dc857610dc5610dbb6008600a611ef1565b610d9e8984611969565b96505b610dd283886118b2565b9250610dde88886118be565b985060009650505b8215610dfd57610df688846118b2565b9750600092505b8015610e1157955092935060009285610e1a565b60009650600095505b610e25846001611e76565b935050610d38565b8515610ecb57600060088c0181610e45600287611fdb565b61ffff1681526020810191909152604001600020546001600160801b031690508015610ec957610e7a610dbb6008600a611ef1565b96508515610e9e57610e9b610e916008600a611ef1565b610d9e8884611969565b95505b610eac866105208a8a6118b2565b9750600096508515610ec957610ec282876118b2565b9150600095505b505b610ed4826118ca565b610edd816118ca565b610ee6866118ca565b610eef856118ca565b610ef8876118ca565b610f01846118ca565b6040805160e0810182526001600160801b03938416815291831660208301529582169581019590955292831660608501525092811660808301529190911660a082015261ffff831660c082015290505b9392505050565b60018101544263ffffffff9091161180610f7f57506001810154600160201b900461ffff16155b15610f875750565b600080610f93836112c8565b600185015485546001600160801b031981168755929450909250600160201b900461ffff16906001600160801b03165b8261ffff16821015611294576040805160a080820183526002880180546001600160801b038082168552600160801b91829004811660208087019190915260038c018054808416888a01529384046001600160681b031660608089019190915260048e0180546001600160a01b0381166080808c01919091528b51998a018c529b909516808952600094890185905299880184905290870183905295909801819052959092556001600160e81b0319169094556001600160a01b0319909316909255906001831180156110a2575060058601546001600160801b031615155b156112045760078601546000906001600160a01b0316156110d7576006870154600160801b90046001600160681b03166110da565b60005b6005880154909150600090611101906001600160801b03166001600160681b03841661188b565b600589015490915060009061112f90600160801b90046001600160801b03166001600160681b03851661188b565b60028a0154909150600090611153908390610520906001600160801b0316866118b2565b905061115e816118ca565b60028a0180546001600160801b0319166001600160801b03838116919091179091558a5460009161119791600160801b900416846118b2565b90506111a2816118ca565b8a546001600160801b03808316600160801b029116178b55600060088c01816111cc60018c611fdb565b61ffff168152602081019190915260400160002080546001600160801b0319166001600160801b039290921691909117905550505050505b805160208201516001600160801b03918216600160801b918316820217600589015560408301516006890180546060860151929094166001600160e81b0319909416939093176001600160681b0390911690910217905560808101516007870180546001600160a01b0319166001600160a01b0390921691909117905561128c836001611e76565b925050610fc3565b50506001909201805461ffff909316600160201b0265ffffffffffff1990931663ffffffff90921691909117919091179055565b600181015460009081904263ffffffff90911611806112f457506001830154600160201b900461ffff16155b156113165750506001015463ffffffff811691600160201b90910461ffff1690565b600183015463ffffffff811690600160201b900461ffff165b4282116113e7576001850154600160b01b900460ff1661135d5761135662093a80836118b2565b915061138d565b600185810154600160b01b900460ff16141561137f57611356610e10836118b2565b61138a603c836118b2565b91505b63ffffffff8211156113d55760405162461bcd60e51b815260206004820152601160248201527013dd995c999b1bddc818dd5d13d999905d607a1b604482015260640161060b565b806113df8161201e565b91505061132f565b9094909350915050565b6113fa83610f58565b600183810154600160201b900461ffff16116114585760405162461bcd60e51b815260206004820152601860248201527f4e6f7468696e6720746f2063616e63656c2072656465656d0000000000000000604482015260640161060b565b6001600160a01b03821660009081526009840160205260409020600184015461148f9085908390600160201b900461ffff16610cba565b6001600160a01b03841660009081526009860160209081526040918290208351918401516001600160801b03928316600160801b918416820217825592840151606085015190831690831684021760018201819055608085015160a08601519084169084168502176002830181905560c09095015160038301805461ffff191661ffff909216919091179055909450829004811692919091041661153382826118b2565b8411156115825760405162461bcd60e51b815260206004820152601b60248201527f4e6f7420656e6f75676820746f2063616e63656c2072656465656d0000000000604482015260640161060b565b8184116115ec5761159382856118be565b6001840180546001600160801b03908116600160801b93821684021790915560058801546115c492900416856118be565b600590960180546001600160801b03978816600160801b029716969096179095555050505050565b6001830180546001600160801b03908116909155600587015461161891600160801b90910416836118be565b6005870180546001600160801b03928316600160801b029216919091179055600061164385846118be565b905061164f82826118be565b600285810180546001600160801b03908116600160801b9482168502179091559089015461168092900416826118be565b600290970180546001600160801b03988916600160801b02981697909717909655505050505050565b6116b283610f58565b6001600160a01b0382166000908152600984016020526040902060018401546116e99085908390600160201b900461ffff16610cba565b6001600160a01b038416600090815260098601602090815260408083208451928501516001600160801b03938416600160801b91851682021782559185015160608601519084169084168302176001820155608085015160a086015190841690841683021760028083019190915560c09095015160038201805461ffff191661ffff909216919091179055600589015494890154895491965093946117ad9492810484169361052093918116926117a79282169183918b91166118b2565b906118b2565b82549091506000906117c99085906001600160801b03166118b2565b6001870154909150660100000000000090046001600160801b03168211156118265760405162461bcd60e51b815260206004820152601060248201526f4578636565647320636170616369747960801b604482015260640161060b565b61182f816118ca565b82546001600160801b0319166001600160801b03828116919091178455865460009161185d918791166118b2565b9050611868816118ca565b86546001600160801b0319166001600160801b0391909116179095555050505050565b60006118a96305f5e100610d9e6118a28583611e76565b8690611969565b90505b92915050565b60006118a98284611e76565b60006118a98284611fdb565b6001600160801b038111156119145760405162461bcd60e51b815260206004820152601060248201526f09eeccae4ccd8deee40ead2dce86264760831b604482015260640161060b565b50565b604080516001600160a01b038416602482015260448082018490528251808303909101815260649091019091526020810180516001600160e01b031663a9059cbb60e01b179052610a98908490611981565b60006118a98284611f99565b60006118a98284611e8e565b60006119d6826040518060400160405280602081526020017f5361666545524332303a206c6f772d6c6576656c2063616c6c206661696c6564815250856001600160a01b0316611a539092919063ffffffff16565b805190915015610a9857808060200190518101906119f49190611cb3565b610a985760405162461bcd60e51b815260206004820152602a60248201527f5361666545524332303a204552433230206f7065726174696f6e20646964206e6044820152691bdd081cdd58d8d9595960b21b606482015260840161060b565b6060611a628484600085611a6a565b949350505050565b606082471015611acb5760405162461bcd60e51b815260206004820152602660248201527f416464726573733a20696e73756666696369656e742062616c616e636520666f6044820152651c8818d85b1b60d21b606482015260840161060b565b843b611b195760405162461bcd60e51b815260206004820152601d60248201527f416464726573733a2063616c6c20746f206e6f6e2d636f6e7472616374000000604482015260640161060b565b600080866001600160a01b03168587604051611b359190611dac565b60006040518083038185875af1925050503d8060008114611b72576040519150601f19603f3d011682016040523d82523d6000602084013e611b77565b606091505b5091509150611b87828286611b92565b979650505050505050565b60608315611ba1575081610f51565b825115611bb15782518084602001fd5b8160405162461bcd60e51b815260040161060b9190611dc8565b6040805160e08101825260008082526020820181905291810182905260608101829052608081019190915260a08101611c2b6040805160a08101825260008082526020820181905291810182905260608101829052608081019190915290565b81526040805160a0810182526000808252602082810182905292820181905260608201819052608082015291015290565b80356001600160a01b0381168114611c7357600080fd5b919050565b600080600060608486031215611c8c578283fd5b611c9584611c5c565b925060208401359150611caa60408501611c5c565b90509250925092565b600060208284031215611cc4578081fd5b81518015158114610f51578182fd5b600060208284031215611ce4578081fd5b5035919050565b600080600060608486031215611cff578283fd5b83359250611d0f60208501611c5c565b9150604084013590509250925092565b600080600060608486031215611d33578283fd5b8335925060208401359150604084013561ffff81168114611d52578182fd5b809150509250925092565b80516001600160801b039081168352602080830151821690840152604080830151909116908301526060808201516001600160681b0316908301526080908101516001600160a01b0316910152565b60008251611dbe818460208701611ff2565b9190910192915050565b6020815260008251806020840152611de7816040850160208701611ff2565b601f01601f19169190910160400192915050565b60006101e0820190506001600160801b0380845116835280602085015116602084015263ffffffff604085015116604084015261ffff60608501511660608401528060808501511660808401525060a0830151611e5b60a0840182611d5d565b5060c0830151611e6f610140840182611d5d565b5092915050565b60008219821115611e8957611e89612039565b500190565b600082611ea957634e487b7160e01b81526012600452602481fd5b500490565b600181815b80851115611ee9578160001904821115611ecf57611ecf612039565b80851615611edc57918102915b93841c9390800290611eb3565b509250929050565b60006118a98383600082611f07575060016118ac565b81611f14575060006118ac565b8160018114611f2a5760028114611f3457611f50565b60019150506118ac565b60ff841115611f4557611f45612039565b50506001821b6118ac565b5060208310610133831016604e8410600b8410161715611f73575081810a6118ac565b611f7d8383611eae565b8060001904821115611f9157611f91612039565b029392505050565b6000816000190483118215151615611fb357611fb3612039565b500290565b600061ffff83811690831681811015611fd357611fd3612039565b039392505050565b600082821015611fed57611fed612039565b500390565b60005b8381101561200d578181015183820152602001611ff5565b83811115610a7e5750506000910152565b600060001982141561203257612032612039565b5060010190565b634e487b7160e01b600052601160045260246000fdfea2646970667358221220a39737c981bf3a4ae8f38f8603ce856b96477ba3fd61c51d8075811ac6fc9c2964736f6c63430008040033",
  "devdoc": {
    "kind": "dev",
    "methods": {},
    "version": 1
  },
  "userdoc": {
    "kind": "user",
    "methods": {},
    "version": 1
  },
  "storageLayout": {
    "storage": [],
    "types": null
  }
}