{
  "address": "0xD718A114c6959043da3aeF5980e820252710F431",
  "abi": [
    {
      "anonymous": false,
      "inputs": [
        {
          "indexed": true,
          "internalType": "address",
          "name": "_account",
          "type": "address"
        },
        {
          "indexed": true,
          "internalType": "uint8",
          "name": "_vaultId",
          "type": "uint8"
        },
        {
          "indexed": false,
          "internalType": "uint256",
          "name": "_redeemAmount",
          "type": "uint256"
        },
        {
          "indexed": false,
          "internalType": "uint16",
          "name": "_round",
          "type": "uint16"
        }
      ],
      "name": "CancelWithdraw",
      "type": "event"
    },
    {
      "anonymous": false,
      "inputs": [
        {
          "indexed": true,
          "internalType": "address",
          "name": "_account",
          "type": "address"
        },
        {
          "indexed": true,
          "internalType": "uint8",
          "name": "_vaultId",
          "type": "uint8"
        },
        {
          "indexed": false,
          "internalType": "uint256",
          "name": "_amount",
          "type": "uint256"
        },
        {
          "indexed": false,
          "internalType": "uint16",
          "name": "_round",
          "type": "uint16"
        }
      ],
      "name": "Deposit",
      "type": "event"
    },
    {
      "anonymous": false,
      "inputs": [
        {
          "indexed": true,
          "internalType": "address",
          "name": "_account",
          "type": "address"
        },
        {
          "indexed": true,
          "internalType": "uint8",
          "name": "_vaultId",
          "type": "uint8"
        },
        {
          "indexed": false,
          "internalType": "uint256",
          "name": "_redeemAmount",
          "type": "uint256"
        },
        {
          "indexed": false,
          "internalType": "uint16",
          "name": "_round",
          "type": "uint16"
        }
      ],
      "name": "InitiateWithdraw",
      "type": "event"
    },
    {
      "anonymous": false,
      "inputs": [
        {
          "indexed": true,
          "internalType": "uint8",
          "name": "_vaultId",
          "type": "uint8"
        },
        {
          "indexed": true,
          "internalType": "uint16",
          "name": "_currentRound",
          "type": "uint16"
        },
        {
          "indexed": true,
          "internalType": "address",
          "name": "_buyerAddress",
          "type": "address"
        },
        {
          "indexed": false,
          "internalType": "uint256",
          "name": "_amount",
          "type": "uint256"
        },
        {
          "indexed": false,
          "internalType": "uint128",
          "name": "_strike",
          "type": "uint128"
        },
        {
          "indexed": false,
          "internalType": "uint104",
          "name": "_premiumRate",
          "type": "uint104"
        }
      ],
      "name": "OptionBought",
      "type": "event"
    },
    {
      "anonymous": false,
      "inputs": [
        {
          "indexed": true,
          "internalType": "uint8",
          "name": "_vaultId",
          "type": "uint8"
        },
        {
          "indexed": true,
          "internalType": "uint16",
          "name": "_currentRound",
          "type": "uint16"
        },
        {
          "indexed": false,
          "internalType": "uint128",
          "name": "_expiryLevel",
          "type": "uint128"
        },
        {
          "indexed": false,
          "internalType": "uint256",
          "name": "_optionHolderValue",
          "type": "uint256"
        }
      ],
      "name": "OptionExpired",
      "type": "event"
    },
    {
      "anonymous": false,
      "inputs": [
        {
          "indexed": true,
          "internalType": "address",
          "name": "previousOwner",
          "type": "address"
        },
        {
          "indexed": true,
          "internalType": "address",
          "name": "newOwner",
          "type": "address"
        }
      ],
      "name": "OwnershipTransferred",
      "type": "event"
    },
    {
      "anonymous": false,
      "inputs": [
        {
          "indexed": true,
          "internalType": "address",
          "name": "_account",
          "type": "address"
        },
        {
          "indexed": true,
          "internalType": "uint8",
          "name": "_vaultId",
          "type": "uint8"
        },
        {
          "indexed": false,
          "internalType": "uint256",
          "name": "_amount",
          "type": "uint256"
        },
        {
          "indexed": false,
          "internalType": "uint16",
          "name": "_round",
          "type": "uint16"
        }
      ],
      "name": "Withdraw",
      "type": "event"
    },
    {
      "inputs": [
        {
          "internalType": "address[]",
          "name": "_whitelistAddresses",
          "type": "address[]"
        }
      ],
      "name": "addToWhitelist",
      "outputs": [],
      "stateMutability": "nonpayable",
      "type": "function"
    },
    {
      "inputs": [
        {
          "components": [
            {
              "internalType": "uint8",
              "name": "vaultId",
              "type": "uint8"
            },
            {
              "internalType": "uint8",
              "name": "assetAmountDecimals",
              "type": "uint8"
            },
            {
              "internalType": "address",
              "name": "asset",
              "type": "address"
            },
            {
              "internalType": "address",
              "name": "underlying",
              "type": "address"
            },
            {
              "internalType": "bool",
              "name": "callOrPut",
              "type": "bool"
            }
          ],
          "internalType": "struct StructureData.VaultDefinition[]",
          "name": "_vaultDefinitions",
          "type": "tuple[]"
        }
      ],
      "name": "addVaults",
      "outputs": [],
      "stateMutability": "nonpayable",
      "type": "function"
    },
    {
      "inputs": [
        {
          "internalType": "uint8[]",
          "name": "_vaultIds",
          "type": "uint8[]"
        }
      ],
      "name": "buyOptions",
      "outputs": [],
      "stateMutability": "payable",
      "type": "function"
    },
    {
      "inputs": [
        {
          "internalType": "uint8",
          "name": "_vaultId",
          "type": "uint8"
        },
        {
          "internalType": "uint256",
          "name": "_redeemAmount",
          "type": "uint256"
        }
      ],
      "name": "cancelWithdraw",
      "outputs": [],
      "stateMutability": "nonpayable",
      "type": "function"
    },
    {
      "inputs": [],
      "name": "collectOptionHolderValues",
      "outputs": [],
      "stateMutability": "nonpayable",
      "type": "function"
    },
    {
      "inputs": [
        {
          "internalType": "uint8",
          "name": "_vaultId",
          "type": "uint8"
        },
        {
          "internalType": "uint256",
          "name": "_amount",
          "type": "uint256"
        }
      ],
      "name": "deposit",
      "outputs": [],
      "stateMutability": "nonpayable",
      "type": "function"
    },
    {
      "inputs": [
        {
          "internalType": "uint8",
          "name": "_vaultId",
          "type": "uint8"
        }
      ],
      "name": "depositETH",
      "outputs": [],
      "stateMutability": "payable",
      "type": "function"
    },
    {
      "inputs": [
        {
          "components": [
            {
              "internalType": "uint128",
              "name": "expiryLevel",
              "type": "uint128"
            },
            {
              "internalType": "uint8",
              "name": "vaultId",
              "type": "uint8"
            }
          ],
          "internalType": "struct StructureData.ExpiredOptionParameters[]",
          "name": "_expiryParameters",
          "type": "tuple[]"
        }
      ],
      "name": "expireOptions",
      "outputs": [],
      "stateMutability": "nonpayable",
      "type": "function"
    },
    {
      "inputs": [],
      "name": "expiredHistory",
      "outputs": [
        {
          "components": [
            {
              "internalType": "uint128",
              "name": "amount",
              "type": "uint128"
            },
            {
              "internalType": "uint128",
              "name": "strike",
              "type": "uint128"
            },
            {
              "internalType": "uint128",
              "name": "expiryLevel",
              "type": "uint128"
            },
            {
              "internalType": "uint128",
              "name": "optionHolderValue",
              "type": "uint128"
            },
            {
              "internalType": "uint16",
              "name": "round",
              "type": "uint16"
            },
            {
              "internalType": "uint104",
              "name": "premiumRate",
              "type": "uint104"
            },
            {
              "internalType": "uint8",
              "name": "vaultId",
              "type": "uint8"
            }
          ],
          "internalType": "struct StructureData.ExpiredVaultState[]",
          "name": "",
          "type": "tuple[]"
        }
      ],
      "stateMutability": "view",
      "type": "function"
    },
    {
      "inputs": [
        {
          "internalType": "uint8",
          "name": "_vaultId",
          "type": "uint8"
        }
      ],
      "name": "getUserState",
      "outputs": [
        {
          "components": [
            {
              "internalType": "uint128",
              "name": "pending",
              "type": "uint128"
            },
            {
              "internalType": "uint128",
              "name": "redeemed",
              "type": "uint128"
            },
            {
              "internalType": "uint128",
              "name": "expiredAmount",
              "type": "uint128"
            },
            {
              "internalType": "uint128",
              "name": "expiredQueuedRedeemAmount",
              "type": "uint128"
            },
            {
              "internalType": "uint128",
              "name": "onGoingAmount",
              "type": "uint128"
            },
            {
              "internalType": "uint128",
              "name": "onGoingQueuedRedeemAmount",
              "type": "uint128"
            },
            {
              "internalType": "uint16",
              "name": "lastUpdateRound",
              "type": "uint16"
            }
          ],
          "internalType": "struct StructureData.UserState",
          "name": "",
          "type": "tuple"
        }
      ],
      "stateMutability": "view",
      "type": "function"
    },
    {
      "inputs": [
        {
          "internalType": "uint8",
          "name": "_vaultId",
          "type": "uint8"
        }
      ],
      "name": "getVaultState",
      "outputs": [
        {
          "components": [
            {
              "internalType": "uint128",
              "name": "totalPending",
              "type": "uint128"
            },
            {
              "internalType": "uint128",
              "name": "totalRedeemed",
              "type": "uint128"
            },
            {
              "internalType": "uint32",
              "name": "cutOffAt",
              "type": "uint32"
            },
            {
              "internalType": "uint16",
              "name": "currentRound",
              "type": "uint16"
            },
            {
              "internalType": "uint128",
              "name": "maxCapacity",
              "type": "uint128"
            },
            {
              "components": [
                {
                  "internalType": "uint128",
                  "name": "amount",
                  "type": "uint128"
                },
                {
                  "internalType": "uint128",
                  "name": "queuedRedeemAmount",
                  "type": "uint128"
                },
                {
                  "internalType": "uint128",
                  "name": "strike",
                  "type": "uint128"
                },
                {
                  "internalType": "uint104",
                  "name": "premiumRate",
                  "type": "uint104"
                },
                {
                  "internalType": "address",
                  "name": "buyerAddress",
                  "type": "address"
                }
              ],
              "internalType": "struct StructureData.OptionState",
              "name": "onGoing",
              "type": "tuple"
            },
            {
              "components": [
                {
                  "internalType": "uint128",
                  "name": "amount",
                  "type": "uint128"
                },
                {
                  "internalType": "uint128",
                  "name": "queuedRedeemAmount",
                  "type": "uint128"
                },
                {
                  "internalType": "uint128",
                  "name": "strike",
                  "type": "uint128"
                },
                {
                  "internalType": "uint104",
                  "name": "premiumRate",
                  "type": "uint104"
                },
                {
                  "internalType": "address",
                  "name": "buyerAddress",
                  "type": "address"
                }
              ],
              "internalType": "struct StructureData.OptionState",
              "name": "expired",
              "type": "tuple"
            }
          ],
          "internalType": "struct StructureData.VaultSnapShot",
          "name": "",
          "type": "tuple"
        }
      ],
      "stateMutability": "view",
      "type": "function"
    },
    {
      "inputs": [
        {
          "internalType": "address",
          "name": "_owner",
          "type": "address"
        },
        {
          "internalType": "address",
          "name": "_manager",
          "type": "address"
        },
        {
          "components": [
            {
              "internalType": "uint8",
              "name": "vaultId",
              "type": "uint8"
            },
            {
              "internalType": "uint8",
              "name": "assetAmountDecimals",
              "type": "uint8"
            },
            {
              "internalType": "address",
              "name": "asset",
              "type": "address"
            },
            {
              "internalType": "address",
              "name": "underlying",
              "type": "address"
            },
            {
              "internalType": "bool",
              "name": "callOrPut",
              "type": "bool"
            }
          ],
          "internalType": "struct StructureData.VaultDefinition[]",
          "name": "_vaultDefinitions",
          "type": "tuple[]"
        }
      ],
      "name": "initialize",
      "outputs": [],
      "stateMutability": "nonpayable",
      "type": "function"
    },
    {
      "inputs": [
        {
          "internalType": "uint8",
          "name": "_vaultId",
          "type": "uint8"
        },
        {
          "internalType": "uint256",
          "name": "_redeemAmount",
          "type": "uint256"
        }
      ],
      "name": "initiateWithraw",
      "outputs": [],
      "stateMutability": "nonpayable",
      "type": "function"
    },
    {
      "inputs": [
        {
          "components": [
            {
              "internalType": "uint8",
              "name": "vaultId",
              "type": "uint8"
            },
            {
              "internalType": "uint128",
              "name": "maxCapacity",
              "type": "uint128"
            },
            {
              "internalType": "uint8",
              "name": "environment",
              "type": "uint8"
            }
          ],
          "internalType": "struct StructureData.KickOffOptionParameters[]",
          "name": "_kickoffs",
          "type": "tuple[]"
        }
      ],
      "name": "kickOffOptions",
      "outputs": [],
      "stateMutability": "nonpayable",
      "type": "function"
    },
    {
      "inputs": [],
      "name": "managerRoleAddress",
      "outputs": [
        {
          "internalType": "address",
          "name": "",
          "type": "address"
        }
      ],
      "stateMutability": "view",
      "type": "function"
    },
    {
      "inputs": [],
      "name": "optionHolderValues",
      "outputs": [
        {
          "components": [
            {
              "internalType": "address",
              "name": "asset",
              "type": "address"
            },
            {
              "internalType": "uint256",
              "name": "amount",
              "type": "uint256"
            }
          ],
          "internalType": "struct StructureData.CollectableValue[]",
          "name": "",
          "type": "tuple[]"
        }
      ],
      "stateMutability": "view",
      "type": "function"
    },
    {
      "inputs": [],
      "name": "owner",
      "outputs": [
        {
          "internalType": "address",
          "name": "",
          "type": "address"
        }
      ],
      "stateMutability": "view",
      "type": "function"
    },
    {
      "inputs": [
        {
          "internalType": "address[]",
          "name": "_delistAddresses",
          "type": "address[]"
        }
      ],
      "name": "removeFromWhitelist",
      "outputs": [],
      "stateMutability": "nonpayable",
      "type": "function"
    },
    {
      "inputs": [],
      "name": "renounceOwnership",
      "outputs": [],
      "stateMutability": "nonpayable",
      "type": "function"
    },
    {
      "inputs": [
        {
          "components": [
            {
              "internalType": "uint128",
              "name": "strike",
              "type": "uint128"
            },
            {
              "internalType": "uint104",
              "name": "premiumRate",
              "type": "uint104"
            },
            {
              "internalType": "uint8",
              "name": "vaultId",
              "type": "uint8"
            }
          ],
          "internalType": "struct StructureData.OnGoingOptionParameters[]",
          "name": "_ongoingParameters",
          "type": "tuple[]"
        }
      ],
      "name": "sellOptions",
      "outputs": [],
      "stateMutability": "nonpayable",
      "type": "function"
    },
    {
      "inputs": [
        {
          "components": [
            {
              "internalType": "uint8",
              "name": "vaultId",
              "type": "uint8"
            },
            {
              "internalType": "uint128",
              "name": "maxCapacity",
              "type": "uint128"
            }
          ],
          "internalType": "struct StructureData.CapacityParameters[]",
          "name": "_capacities",
          "type": "tuple[]"
        }
      ],
      "name": "setCapacities",
      "outputs": [],
      "stateMutability": "nonpayable",
      "type": "function"
    },
    {
      "inputs": [
        {
          "internalType": "address",
          "name": "_manager",
          "type": "address"
        }
      ],
      "name": "setManager",
      "outputs": [],
      "stateMutability": "nonpayable",
      "type": "function"
    },
    {
      "inputs": [
        {
          "internalType": "address",
          "name": "newOwner",
          "type": "address"
        }
      ],
      "name": "transferOwnership",
      "outputs": [],
      "stateMutability": "nonpayable",
      "type": "function"
    },
    {
      "inputs": [],
      "name": "vaultCount",
      "outputs": [
        {
          "internalType": "uint8",
          "name": "",
          "type": "uint8"
        }
      ],
      "stateMutability": "view",
      "type": "function"
    },
    {
      "inputs": [
        {
          "internalType": "uint8",
          "name": "",
          "type": "uint8"
        }
      ],
      "name": "vaultDefinitions",
      "outputs": [
        {
          "internalType": "uint8",
          "name": "vaultId",
          "type": "uint8"
        },
        {
          "internalType": "uint8",
          "name": "assetAmountDecimals",
          "type": "uint8"
        },
        {
          "internalType": "address",
          "name": "asset",
          "type": "address"
        },
        {
          "internalType": "address",
          "name": "underlying",
          "type": "address"
        },
        {
          "internalType": "bool",
          "name": "callOrPut",
          "type": "bool"
        }
      ],
      "stateMutability": "view",
      "type": "function"
    },
    {
      "inputs": [],
      "name": "whitelistTraders",
      "outputs": [
        {
          "internalType": "address[]",
          "name": "",
          "type": "address[]"
        }
      ],
      "stateMutability": "view",
      "type": "function"
    },
    {
      "inputs": [
        {
          "internalType": "uint8",
          "name": "_vaultId",
          "type": "uint8"
        },
        {
          "internalType": "uint256",
          "name": "_amount",
          "type": "uint256"
        }
      ],
      "name": "withdraw",
      "outputs": [],
      "stateMutability": "nonpayable",
      "type": "function"
    }
  ],
  "transactionHash": "0x4dee8ee9e2d399e5d06f6780286826cfecea008134753b94ac9e07bffee006fa",
  "args": [],
  "solcInputHash": "72a85492fe839aaa1ce7600126b34de0",
  "bytecode": "0x608060405234801561001057600080fd5b506146ea806100206000396000f3fe60806040526004361061019c5760003560e01c806390828295116100ec578063d0ebdbe71161008a578063f4d4c9d711610064578063f4d4c9d71461058a578063f6316859146105aa578063fc382695146105bd578063fc9b0333146105dd57600080fd5b8063d0ebdbe7146104ae578063d5da2bab146104ce578063f2fde38b1461056a57600080fd5b8063ad70c3c7116100c6578063ad70c3c71461042a578063c4173ba91461044a578063c62f673b1461046c578063ca0502a41461048e57600080fd5b806390828295146103b7578063a7c6a100146103d7578063ac4b8a641461040a57600080fd5b80632e862d2911610159578063715018a611610133578063715018a6146103305780637332655b146103455780637f649783146103655780638da5cb5b1461038557600080fd5b80632e862d29146102d05780633f489914146102f0578063548db1741461031057600080fd5b806306a45d3f146101a157806315dc9bd8146101d75780631b358049146101f9578063222f6b831461020e578063256d43d71461022e57806326161ec614610241575b600080fd5b3480156101ad57600080fd5b506101c16101bc366004613fb9565b6105ff565b6040516101ce91906142c4565b60405180910390f35b3480156101e357600080fd5b506101f76101f2366004613a3c565b6106e0565b005b34801561020557600080fd5b506101f7610851565b34801561021a57600080fd5b506101f7610229366004613fd3565b6109c4565b6101f761023c366004613fb9565b610ad7565b34801561024d57600080fd5b5061026161025c366004613fb9565b610cea565b6040516101ce9190600060e0820190506001600160801b038084511683528060208501511660208401528060408501511660408401528060608501511660608401528060808501511660808401528060a08501511660a08401525061ffff60c08401511660c083015292915050565b3480156102dc57600080fd5b506101f76102eb366004613d4a565b610ea0565b3480156102fc57600080fd5b506101f761030b366004613fd3565b610ed6565b34801561031c57600080fd5b506101f761032b3660046139a1565b6110a4565b34801561033c57600080fd5b506101f7611144565b34801561035157600080fd5b506101f7610360366004613fd3565b61117a565b34801561037157600080fd5b506101f76103803660046139a1565b611284565b34801561039157600080fd5b506033546001600160a01b03165b6040516001600160a01b0390911681526020016101ce565b3480156103c357600080fd5b506101f76103d2366004613c80565b611403565b3480156103e357600080fd5b506066546103f890600160a01b900460ff1681565b60405160ff90911681526020016101ce565b34801561041657600080fd5b5060665461039f906001600160a01b031681565b34801561043657600080fd5b506101f7610445366004613af3565b611659565b34801561045657600080fd5b5061045f611c57565b6040516101ce9190614067565b34801561047857600080fd5b50610481611dfa565b6040516101ce919061410c565b34801561049a57600080fd5b506101f76104a9366004613baa565b6122eb565b3480156104ba57600080fd5b506101f76104c9366004613926565b6124eb565b3480156104da57600080fd5b5061052f6104e9366004613fb9565b6067602052600090815260409020805460019091015460ff8083169261010081048216926001600160a01b036201000090920482169291811691600160a01b9091041685565b6040805160ff96871681529590941660208601526001600160a01b03928316938501939093521660608301521515608082015260a0016101ce565b34801561057657600080fd5b506101f7610585366004613926565b61251e565b34801561059657600080fd5b506101f76105a5366004613fd3565b6125b6565b6101f76105b8366004613d7c565b6127de565b3480156105c957600080fd5b506101f76105d8366004613942565b612d62565b3480156105e957600080fd5b506105f2612e0c565b6040516101ce91906140b4565b6106076136fe565b606654829060ff600160a01b9091048116908216106106415760405162461bcd60e51b815260040161063890614279565b60405180910390fd5b60ff8316600090815260696020526040908190209051630aaf5c2360e21b8152600481018290527384D8abC1C8f8d59De2BDd7F64187B59b0b9C90a090632abd708c906024016101e06040518083038186803b1580156106a057600080fd5b505af41580156106b4573d6000803e3d6000fd5b505050506040513d601f19601f820116820180604052508101906106d89190613edb565b949350505050565b6066546001600160a01b0316331461070a5760405162461bcd60e51b8152600401610638906142a2565b60005b815181101561084d57600082828151811061073857634e487b7160e01b600052603260045260246000fd5b602090810291909101810151805160ff1660009081526069909252604082206005810154600282015482549395509193926107a1926001600160801b03600160801b840481169361079b9390821692610795929182169116612fc4565b90612fc4565b90612fd9565b905082602001516001600160801b03168111156107f85760405162461bcd60e51b815260206004820152601560248201527413585e0810d85c081b195cdcc81d1a185b881d1d9b605a1b6044820152606401610638565b50602090910151600190910180546001600160801b0390921666010000000000000275ffffffffffffffffffffffffffffffff000000000000199092169190911790558061084581614600565b91505061070d565b5050565b336000908152606c602052604090205460ff1661089f5760405162461bcd60e51b815260206004820152600c60248201526b085dda1a5d195b1a5cdd195960a21b6044820152606401610638565b606554156108bf5760405162461bcd60e51b815260040161063890614259565b6001606555336000908152606b60205260408120905b606654600160a81b900460ff168110156109bb5760ff81166000908152606860209081526040808320546001600160a01b0316808452918590529091205480156109a6576001600160a01b0382166000818152602086905260408082209190915551631a4ca37b60e21b81523360048201526024810183905260448101919091527384D8abC1C8f8d59De2BDd7F64187B59b0b9C90a0906369328dec9060640160006040518083038186803b15801561098d57600080fd5b505af41580156109a1573d6000803e3d6000fd5b505050505b505080806109b390614600565b9150506108d5565b50506000606555565b606654829060ff600160a01b9091048116908216106109f55760405162461bcd60e51b815260040161063890614279565b60ff831660009081526069602052604090819020905163f6d4a19560e01b81527384D8abC1C8f8d59De2BDd7F64187B59b0b9C90a09163f6d4a19591610a42919033908790600401614338565b60006040518083038186803b158015610a5a57600080fd5b505af4158015610a6e573d6000803e3d6000fd5b5050505060ff8316600081815260696020908152604091829020600101548251868152600160201b90910461ffff169181019190915233917f976af8ffc8ba84af26e20f5bd13068ffb019d76b69eadbc80bdb10ca255a8a6c91015b60405180910390a3505050565b606654819060ff600160a01b909104811690821610610b085760405162461bcd60e51b815260040161063890614279565b60655415610b285760405162461bcd60e51b815260040161063890614259565b600160655534610b635760405162461bcd60e51b81526020600482015260066024820152652176616c756560d01b6044820152606401610638565b60ff82166000908152606760205260409020546201000090046001600160a01b031673eeeeeeeeeeeeeeeeeeeeeeeeeeeeeeeeeeeeeeee8114610bd15760405162461bcd60e51b8152600401610638906020808252600490820152630428aa8960e31b604082015260600190565b60ff83166000908152606960205260409020600181015463ffffffff16610c255760405162461bcd60e51b8152602060048201526008602482015267085cdd185c9d195960c21b6044820152606401610638565b604051633f7c9c6360e21b81527384D8abC1C8f8d59De2BDd7F64187B59b0b9C90a09063fdf2718c90610c6090849033903490600401614338565b60006040518083038186803b158015610c7857600080fd5b505af4158015610c8c573d6000803e3d6000fd5b50505050600181015460408051348152600160201b90920461ffff16602083015260ff86169133917f4c1c19f358489633624c9165b2c2e2875b2505cee2b9bc935b4a057521996e69910160405180910390a3505060006065555050565b6040805160e081018252600080825260208201819052918101829052606081018290526080810182905260a0810182905260c0810191909152606654829060ff600160a01b909104811690821610610d545760405162461bcd60e51b815260040161063890614279565b60ff8316600090815260696020526040808220905163f38f29dd60e01b8152600481018290529091907384D8abC1C8f8d59De2BDd7F64187B59b0b9C90a09063f38f29dd90602401604080518083038186803b158015610db357600080fd5b505af4158015610dc7573d6000803e3d6000fd5b505050506040513d601f19601f82011682018060405250810190610deb9190613f87565b33600090815260098501602052604090819020905163a8a328e760e01b8152600481018690526024810182905261ffff8316604482015291935091507384D8abC1C8f8d59De2BDd7F64187B59b0b9C90a09063a8a328e79060640160e06040518083038186803b158015610e5e57600080fd5b505af4158015610e72573d6000803e3d6000fd5b505050506040513d601f19601f82011682018060405250810190610e969190613e25565b9695505050505050565b6033546001600160a01b03163314610eca5760405162461bcd60e51b815260040161063890614224565b610ed381612fe5565b50565b606654829060ff600160a01b909104811690821610610f075760405162461bcd60e51b815260040161063890614279565b60655415610f275760405162461bcd60e51b815260040161063890614259565b600160655560ff8316600090815260696020526040908190209051631d48b99160e21b81527384D8abC1C8f8d59De2BDd7F64187B59b0b9C90a091637522e64491610f79919033908790600401614338565b60006040518083038186803b158015610f9157600080fd5b505af4158015610fa5573d6000803e3d6000fd5b5050505060ff831660009081526067602052604090819020549051631a4ca37b60e21b815233600482015260248101849052620100009091046001600160a01b031660448201527384D8abC1C8f8d59De2BDd7F64187B59b0b9C90a0906369328dec9060640160006040518083038186803b15801561102357600080fd5b505af4158015611037573d6000803e3d6000fd5b5050505060ff8316600081815260696020908152604091829020600101548251868152600160201b90910461ffff169181019190915233917f11a8f805dbb2d347640f80630c67f68b918ed132c5fdc99ab70311103f72dfcd910160405180910390a35050600060655550565b6066546001600160a01b031633146110ce5760405162461bcd60e51b8152600401610638906142a2565b60005b815181101561084d576000606c600084848151811061110057634e487b7160e01b600052603260045260246000fd5b6020908102919091018101516001600160a01b03168252810191909152604001600020805460ff19169115159190911790558061113c81614600565b9150506110d1565b6033546001600160a01b0316331461116e5760405162461bcd60e51b815260040161063890614224565b61117860006131e0565b565b606654829060ff600160a01b9091048116908216106111ab5760405162461bcd60e51b815260040161063890614279565b60ff83166000908152606960205260409081902090516347e5296160e01b81527384D8abC1C8f8d59De2BDd7F64187B59b0b9C90a0916347e52961916111f8919033908790600401614338565b60006040518083038186803b15801561121057600080fd5b505af4158015611224573d6000803e3d6000fd5b5050505060ff8316600081815260696020908152604091829020600101548251868152600160201b90910461ffff169181019190915233917f7f229dfc7783085d0d6e51e0a77512fc68d788db5632cd042b76dc78f96cbecd9101610aca565b6066546001600160a01b031633146112ae5760405162461bcd60e51b8152600401610638906142a2565b606e5460ff1660005b82518110156113eb5760008382815181106112e257634e487b7160e01b600052603260045260246000fd5b6020908102919091018101516001600160a01b0381166000908152606c90925260409091205490915060ff166113d8576001600160a01b0381166000908152606c60205260408120805460ff19166001179055805b8460ff168160ff1610156113865760ff81166000908152606d60205260409020546001600160a01b03848116911614156113745760019150611386565b8061137e8161461b565b915050611337565b50806113d65781606d60008661139b8161461b565b975060ff1660ff16815260200190815260200160002060006101000a8154816001600160a01b0302191690836001600160a01b031602179055505b505b50806113e381614600565b9150506112b7565b50606e805460ff191660ff9290921691909117905550565b6066546001600160a01b0316331461142d5760405162461bcd60e51b8152600401610638906142a2565b60005b815181101561084d57600082828151811061145b57634e487b7160e01b600052603260045260246000fd5b60200260200101519050600081602001516001600160681b0316116114ad5760405162461bcd60e51b8152602060048201526008602482015267217072656d69756d60c01b6044820152606401610638565b80516001600160801b03166114ee5760405162461bcd60e51b815260206004820152600760248201526621737472696b6560c81b6044820152606401610638565b60408181015160ff16600090815260696020528190209051631d319eb160e31b8152600481018290527384D8abC1C8f8d59De2BDd7F64187B59b0b9C90a09063e98cf5889060240160006040518083038186803b15801561154e57600080fd5b505af4158015611562573d6000803e3d6000fd5b50505050600181810154600160201b900461ffff16116115b75760405162461bcd60e51b815260206004820152601060248201526f139bc81cd95b1b1a5b99c81c9bdd5b9960821b6044820152606401610638565b600481015460028201906001600160a01b0316156116065760405162461bcd60e51b815260206004820152600c60248201526b105b1c9958591e481cdbdb1960a21b6044820152606401610638565b8251600190910180546020909401516001600160681b0316600160801b026001600160e81b03199094166001600160801b039092169190911792909217909155508061165181614600565b915050611430565b6066546001600160a01b031633146116835760405162461bcd60e51b8152600401610638906142a2565b60005b815181101561084d5760008282815181106116b157634e487b7160e01b600052603260045260246000fd5b60200260200101519050600081600001516001600160801b0316116117075760405162461bcd60e51b815260206004820152600c60248201526b08595e1c1a5c9e53195d995b60a21b6044820152606401610638565b60208181015160ff16600090815260699091526040908190209051631d319eb160e31b8152600481018290527384D8abC1C8f8d59De2BDd7F64187B59b0b9C90a09063e98cf5889060240160006040518083038186803b15801561176a57600080fd5b505af415801561177e573d6000803e3d6000fd5b5050505060018101546002600160201b90910461ffff16116117d55760405162461bcd60e51b815260206004820152601060248201526f139bc8195e1c1a5c9959081c9bdd5b9960821b6044820152606401610638565b6005810180546001600160801b031615806117fb575060028101546001600160a01b0316155b1561180857505050611c45565b60018101546001600160801b031661184c5760405162461bcd60e51b815260206004820152600760248201526621737472696b6560c81b6044820152606401610638565b6020838101805160ff90811660009081526067909352604080842054925182168452832060010154620100009092046001600160a01b03169291600160a01b9004166118d157845160018401546001600160801b039182169116116118b257600061190b565b845160018401546118cc91906001600160801b0316614558565b61190b565b600183015485516001600160801b039182169116116118f157600061190b565b6001830154855161190b916001600160801b031690614558565b60028401546001600160a01b03166000908152606b602090815260408083208983015160ff90811685526067909352908320600101546001600160801b039490941694509261199791600160a01b909104166119745760018601546001600160801b0316611977565b87515b86546001600160801b039182169161199191879116613232565b9061323e565b90506119a28161324a565b6001600160a01b0384166000908152602083905260409020546119c6908290612fc4565b6001600160a01b0385166000908152602084815260408083206001600160801b03949094169093558981015160ff168252606a905290812060018801548290611a1c90600290600160201b900461ffff16614580565b61ffff9081168252602082019290925260400160002089516001600160801b03858116600160801b02911617600180830191909155890154909250611a6b91600291600160201b900416614580565b61ffff16886020015160ff167fca686c96009b7ca118d754ba35ac8459e4045891b4bef1a9f1224baa27134bb18a6000015185604051611ac19291906001600160801b0392831681529116602082015260400190565b60405180910390a360018601548654600091611afc91859161079b916001600160801b031690600160801b90046001600160681b0316613294565b8754909150600090611b27906001600160801b0316611991611b206008600a614491565b8590613232565b9050611b328161324a565b8089600801600060028c60010160049054906101000a900461ffff16611b589190614580565b61ffff1681526020810191909152604001600090812080546001600160801b0319166001600160801b0393841617905589549091611ba89180821691611991918791600160801b90910416613232565b8a54909150600090611bcb908390600160801b90046001600160801b0316612fc4565b9050611bd68161324a565b8a546001600160801b03908116600160801b83831602178c5560028c0154600091611c0691166107958786612fd9565b9050611c118161324a565b60029b909b0180546001600160801b0319166001600160801b03909c169b909b17909a555050600090965550505050505050505b80611c4f81614600565b915050611686565b606e5460609060ff16611c77575060408051600081526020810190915290565b6000805b606e5460ff9081169082161015611cdc5760ff8082166000908152606d60209081526040808320546001600160a01b03168352606c9091529020541615611cca5781611cc681614600565b9250505b80611cd48161461b565b915050611c7b565b506000816001600160401b03811115611d0557634e487b7160e01b600052604160045260246000fd5b604051908082528060200260200182016040528015611d2e578160200160208202803683370190505b5090506000915060005b606e5460ff9081169082161015611df35760ff8082166000908152606d60209081526040808320546001600160a01b03168352606c9091529020541615611de15760ff81166000908152606d60205260409020546001600160a01b03168284611da081614600565b955081518110611dc057634e487b7160e01b600052603260045260246000fd5b60200260200101906001600160a01b031690816001600160a01b0316815250505b80611deb8161461b565b915050611d38565b5092915050565b60606000805b60665460ff600160a01b90910481169082161015611f935760ff81166000908152606960205260408082209051630aaf5c2360e21b8152600481018290529091907384D8abC1C8f8d59De2BDd7F64187B59b0b9C90a090632abd708c906024016101e06040518083038186803b158015611e7957600080fd5b505af4158015611e8d573d6000803e3d6000fd5b505050506040513d601f19601f82011682018060405250810190611eb19190613edb565b90506003816060015161ffff161015611ecb575050611f81565b60015b60028260600151611edf9190614580565b61ffff168161ffff1611611f7d5760ff84166000908152606a6020908152604080832061ffff85168452909152902060038101546001600160a01b031633148015611f57575060018101546001600160801b0316151580611f57575060028360600151611f4c9190614580565b61ffff168261ffff16105b15611f6a5785611f6681614600565b9650505b5080611f75816145de565b915050611ece565b5050505b80611f8b8161461b565b915050611e00565b506000816001600160401b03811115611fbc57634e487b7160e01b600052604160045260246000fd5b60405190808252806020026020018201604052801561202357816020015b6040805160e08101825260008082526020808301829052928201819052606082018190526080820181905260a0820181905260c08201528252600019909201910181611fda5790505b509050816120315792915050565b6000915060005b60665460ff600160a01b90910481169082161015611df35760ff81166000908152606960205260408082209051630aaf5c2360e21b8152600481018290529091907384D8abC1C8f8d59De2BDd7F64187B59b0b9C90a090632abd708c906024016101e06040518083038186803b1580156120b157600080fd5b505af41580156120c5573d6000803e3d6000fd5b505050506040513d601f19601f820116820180604052508101906120e99190613edb565b90506003816060015161ffff1610156121035750506122d9565b60015b600282606001516121179190614580565b61ffff168161ffff16116122d55760ff84166000908152606a6020908152604080832061ffff85168452825291829020825160c08101845281546001600160801b038082168352600160801b91829004811694830194909452600183015480851695830195909552909304909116606083015260028101546001600160681b03166080830152600301546001600160a01b031660a0820181905233146121bd57506122c3565b60408101516001600160801b031661220957600283606001516121e09190614580565b61ffff168261ffff1614156121f557506122c3565b60208101516001600160801b031660408201525b60006040518060e0016040528083600001516001600160801b0316815260200183602001516001600160801b0316815260200183604001516001600160801b0316815260200183606001516001600160801b031681526020018461ffff16815260200183608001516001600160681b031681526020018760ff1681525090508087898061229590614600565b9a50815181106122b557634e487b7160e01b600052603260045260246000fd5b602002602001018190525050505b806122cd816145de565b915050612106565b5050505b806122e38161461b565b915050612038565b6066546001600160a01b031633146123155760405162461bcd60e51b8152600401610638906142a2565b60005b815181101561084d57600082828151811061234357634e487b7160e01b600052603260045260246000fd5b602090810291909101810151805160ff16600090815260699092526040909120600181015491925090600160201b900461ffff16156123b95760405162461bcd60e51b815260206004820152601260248201527130b63932b0b23c9035b4b1b5b2b21037b33360711b6044820152606401610638565b6000826040015160ff16600014156123df576123d84262093a80612fc4565b9050612409565b826040015160ff16600114156123fb576123d842610e10612fc4565b61240642603c612fc4565b90505b63ffffffff8111156124515760405162461bcd60e51b81526020600482015260116024820152706375744f66664174204f766572666c6f7760781b6044820152606401610638565b60019091018054602084015160409094015165ffff000000001960ff909116600160b01b021676ff00000000000000000000000000000000ffff00000000196001600160801b0390951666010000000000000275ffffffffffffffffffffffffffffffff0000ffffffff1990921663ffffffff90941693909317179290921617600160201b179055806124e381614600565b915050612318565b6033546001600160a01b031633146125155760405162461bcd60e51b815260040161063890614224565b610ed3816132b2565b6033546001600160a01b031633146125485760405162461bcd60e51b815260040161063890614224565b6001600160a01b0381166125ad5760405162461bcd60e51b815260206004820152602660248201527f4f776e61626c653a206e6577206f776e657220697320746865207a65726f206160448201526564647265737360d01b6064820152608401610638565b610ed3816131e0565b606654829060ff600160a01b9091048116908216106125e75760405162461bcd60e51b815260040161063890614279565b606554156126075760405162461bcd60e51b815260040161063890614259565b6001606555816126435760405162461bcd60e51b815260206004820152600760248201526608585b5bdd5b9d60ca1b6044820152606401610638565b60ff83166000908152606760205260409020546201000090046001600160a01b031673eeeeeeeeeeeeeeeeeeeeeeeeeeeeeeeeeeeeeeee8114156126af5760405162461bcd60e51b815260206004820152600360248201526208aa8960eb1b6044820152606401610638565b60ff84166000908152606960205260409020600181015463ffffffff166127035760405162461bcd60e51b8152602060048201526008602482015267085cdd185c9d195960c21b6044820152606401610638565b6127186001600160a01b0383163330876132fa565b604051633f7c9c6360e21b81527384D8abC1C8f8d59De2BDd7F64187B59b0b9C90a09063fdf2718c9061275390849033908990600401614338565b60006040518083038186803b15801561276b57600080fd5b505af415801561277f573d6000803e3d6000fd5b50505050600181015460408051868152600160201b90920461ffff16602083015260ff87169133917f4c1c19f358489633624c9165b2c2e2875b2505cee2b9bc935b4a057521996e69910160405180910390a350506000606555505050565b336000908152606c602052604090205460ff1661282c5760405162461bcd60e51b815260206004820152600c60248201526b085dda1a5d195b1a5cdd195960a21b6044820152606401610638565b6065541561284c5760405162461bcd60e51b815260040161063890614259565b60016065556000805b8251811015612cd857600083828151811061288057634e487b7160e01b600052603260045260246000fd5b60209081029190910181015160ff8116600090815260699092526040918290209151631d319eb160e31b8152600481018390529092507384D8abC1C8f8d59De2BDd7F64187B59b0b9C90a09063e98cf5889060240160006040518083038186803b1580156128ed57600080fd5b505af4158015612901573d6000803e3d6000fd5b50505060048201546002830191506001600160a01b0316156129545760405162461bcd60e51b815260206004820152600c60248201526b105b1c9958591e481cdbdb1960a21b6044820152606401610638565b60078201546001600160a01b0316156129f957600082600801600060028560010160049054906101000a900461ffff1661298e9190614580565b61ffff1681526020810191909152604001600020546001600160801b0316116129f95760405162461bcd60e51b815260206004820152601e60248201527f457870697279206c6576656c206e6f74207370656369666965642079657400006044820152606401610638565b60058201548154600091612a26916001600160801b03600160801b830481169261079b9282169116612fc4565b905060008111612a6a5760405162461bcd60e51b815260206004820152600f60248201526e139bdd1a1a5b99c81d1bc81cd95b1b608a1b6044820152606401610638565b612a738161324a565b6001820154600090612a96908390600160801b90046001600160681b0316613354565b60ff8616600081815260676020908152604080832054815160c0810183526001600160801b03898116825260018b8101549182168387015282850187905260608301879052600160801b9091046001600160681b031660808301523360a0830152958552606a90935290832089850154959650620100009091046001600160a01b031694919384939192612b359190600160201b900461ffff16614580565b61ffff908116825260208083019390935260409182016000208451938501516001600160801b03948516600160801b918616820217825592850151606086015190851694169092029290921760018083019190915560808401516002830180546cffffffffffffffffffffffffff19166001600160681b0390921691909117905560a090930151600390910180546001600160a01b0319166001600160a01b03909216919091179055878201543392612bf7929091600160201b900416614580565b6001870154604080518881526001600160801b0383166020820152600160801b9092046001600160681b03169082015261ffff919091169060ff8a16907fdce05fbfc8ca37e703a9b3522391fbe32333b81c0f255ab7d7e1961ef757430e9060600160405180910390a46001600160a01b03821673eeeeeeeeeeeeeeeeeeeeeeeeeeeeeeeeeeeeeeee1415612c9757612c908984612fc4565b9850612cac565b612cac6001600160a01b0383163330866132fa565b5050505060020180546001600160a01b0319163317905550819050612cd081614600565b915050612855565b5034811015612d1a5760405162461bcd60e51b815260206004820152600e60248201526d09cdee840cadcdeeaced040cae8d60931b6044820152606401610638565b348111156109bb57336108fc612d30348461459b565b6040518115909202916000818181858888f19350505050158015612d58573d6000803e3d6000fd5b5050506000606555565b600054610100900460ff1680612d7b575060005460ff16155b612d975760405162461bcd60e51b8152600401610638906141d6565b600054610100900460ff16158015612db9576000805461ffff19166101011790555b6001600160a01b038416612dcc57600080fd5b6000606555612dd9613368565b612de28461251e565b612deb836132b2565b612df482612fe5565b8015612e06576000805461ff00191690555b50505050565b336000908152606b60205260408120606091805b606654600160a81b900460ff16811015612e875760ff81166000908152606860209081526040808320546001600160a01b031680845291869052909120548015612e725783612e6e81614600565b9450505b50508080612e7f90614600565b915050612e20565b506000816001600160401b03811115612eb057634e487b7160e01b600052604160045260246000fd5b604051908082528060200260200182016040528015612ef557816020015b6040805180820190915260008082526020820152815260200190600190039081612ece5790505b50905081612f04579392505050565b6000915060005b606654600160a81b900460ff16811015612fbc5760ff81166000908152606860209081526040808320546001600160a01b031680845291879052909120548015612fa7576040518060400160405280836001600160a01b0316815260200182815250848681518110612f8d57634e487b7160e01b600052603260045260246000fd5b60200260200101819052508480612fa390614600565b9550505b50508080612fb490614600565b915050612f0b565b509392505050565b6000612fd08284614416565b90505b92915050565b6000612fd0828461459b565b805160665460ff600160a01b8204811691600160a81b90041660005b838110156131a957600085828151811061302b57634e487b7160e01b600052603260045260246000fd5b602090810291909101015160ff85168152905080606760008661304d8161461b565b60ff9182168352602080840194909452604092830160009081208651815496880151958801516001600160a01b03908116620100000262010000600160b01b03199787166101000261ffff19909916929096169190911796909617949094169290921783556060850151600190930180546080909601511515600160a01b026001600160a81b03199096169390941692909217939093179091559450805b8460ff168160ff1610156131405760408084015160ff83166000908152606860205291909120546001600160a01b039081169116141561312e5760019150613140565b806131388161461b565b9150506130eb565b508061319457604082015160686000866131598161461b565b975060ff1660ff16815260200190815260200160002060006101000a8154816001600160a01b0302191690836001600160a01b031602179055505b505080806131a190614600565b915050613001565b506066805461ffff60a01b1916600160a01b60ff9485160260ff60a81b191617600160a81b92909316919091029190911790555050565b603380546001600160a01b038381166001600160a01b0319831681179093556040519116919082907f8be0079c531659141344cd1fd0a4f28419497f9722a3daafe3b4186f6b6457e090600090a35050565b6000612fd08284614539565b6000612fd0828461442e565b6001600160801b03811115610ed35760405162461bcd60e51b815260206004820152601060248201526f09eeccae4ccd8deee40ead2dce86264760831b6044820152606401610638565b6000612fd06305f5e1006119916132ab8583614416565b8690613232565b6001600160a01b0381166132d85760405162461bcd60e51b8152600401610638906142a2565b606680546001600160a01b0319166001600160a01b0392909216919091179055565b604080516001600160a01b0385811660248301528416604482015260648082018490528251808303909101815260849091019091526020810180516001600160e01b03166323b872dd60e01b179052612e069085906133e3565b6000612fd06305f5e1006119918585613232565b600054610100900460ff1680613381575060005460ff16155b61339d5760405162461bcd60e51b8152600401610638906141d6565b600054610100900460ff161580156133bf576000805461ffff19166101011790555b6133c76134ba565b6133cf613524565b8015610ed3576000805461ff001916905550565b6000613438826040518060400160405280602081526020017f5361666545524332303a206c6f772d6c6576656c2063616c6c206661696c6564815250856001600160a01b03166135849092919063ffffffff16565b8051909150156134b557808060200190518101906134569190613e09565b6134b55760405162461bcd60e51b815260206004820152602a60248201527f5361666545524332303a204552433230206f7065726174696f6e20646964206e6044820152691bdd081cdd58d8d9595960b21b6064820152608401610638565b505050565b600054610100900460ff16806134d3575060005460ff16155b6134ef5760405162461bcd60e51b8152600401610638906141d6565b600054610100900460ff161580156133cf576000805461ffff19166101011790558015610ed3576000805461ff001916905550565b600054610100900460ff168061353d575060005460ff16155b6135595760405162461bcd60e51b8152600401610638906141d6565b600054610100900460ff1615801561357b576000805461ffff19166101011790555b6133cf336131e0565b6060613593848460008561359d565b90505b9392505050565b6060824710156135fe5760405162461bcd60e51b815260206004820152602660248201527f416464726573733a20696e73756666696369656e742062616c616e636520666f6044820152651c8818d85b1b60d21b6064820152608401610638565b843b61364c5760405162461bcd60e51b815260206004820152601d60248201527f416464726573733a2063616c6c20746f206e6f6e2d636f6e74726163740000006044820152606401610638565b600080866001600160a01b03168587604051613668919061404b565b60006040518083038185875af1925050503d80600081146136a5576040519150601f19603f3d011682016040523d82523d6000602084013e6136aa565b606091505b50915091506136ba8282866136c5565b979650505050505050565b606083156136d4575081613596565b8251156136e45782518084602001fd5b8160405162461bcd60e51b815260040161063891906141a3565b6040805160e08101825260008082526020820181905291810182905260608101829052608081019190915260a0810161375e6040805160a08101825260008082526020820181905291810182905260608101829052608081019190915290565b81526040805160a0810182526000808252602082810182905292820181905260608201819052608082015291015290565b600082601f83011261379f578081fd5b813560206137b46137af836143f3565b6143c3565b8281528181019085830160a0808602880185018910156137d2578687fd5b865b868110156138575781838b0312156137ea578788fd5b6137f2614357565b6137fb84613915565b8152613808878501613915565b8782015260408085013561381b81614667565b9082015260608481013561382e81614667565b908201526080848101356138418161467c565b90820152855293850193918101916001016137d4565b509198975050505050505050565b600060a08284031215613876578081fd5b61387e614357565b9050815161388b8161469f565b8152602082015161389b8161469f565b602082015260408201516138ae8161469f565b604082015260608201516138c18161468a565b606082015260808201516138d481614667565b608082015292915050565b80516138ea8161469f565b919050565b805161ffff811681146138ea57600080fd5b805163ffffffff811681146138ea57600080fd5b803560ff811681146138ea57600080fd5b600060208284031215613937578081fd5b813561359681614667565b600080600060608486031215613956578182fd5b833561396181614667565b9250602084013561397181614667565b915060408401356001600160401b0381111561398b578182fd5b6139978682870161378f565b9150509250925092565b600060208083850312156139b3578182fd5b82356001600160401b038111156139c8578283fd5b8301601f810185136139d8578283fd5b80356139e66137af826143f3565b80828252848201915084840188868560051b8701011115613a05578687fd5b8694505b83851015613a30578035613a1c81614667565b835260019490940193918501918501613a09565b50979650505050505050565b60006020808385031215613a4e578182fd5b82356001600160401b03811115613a63578283fd5b8301601f81018513613a73578283fd5b8035613a816137af826143f3565b80828252848201915084840188868560061b8701011115613aa0578687fd5b8694505b83851015613a3057604080828b031215613abc578788fd5b613ac461437f565b613acd83613915565b815287830135613adc8161469f565b818901528452600195909501949286019201613aa4565b60006020808385031215613b05578182fd5b82356001600160401b03811115613b1a578283fd5b8301601f81018513613b2a578283fd5b8035613b386137af826143f3565b80828252848201915084840188868560061b8701011115613b57578687fd5b8694505b83851015613a3057604080828b031215613b73578788fd5b613b7b61437f565b8235613b868161469f565b8152613b93838901613915565b818901528452600195909501949286019201613b5b565b60006020808385031215613bbc578182fd5b82356001600160401b03811115613bd1578283fd5b8301601f81018513613be1578283fd5b8035613bef6137af826143f3565b818152838101908385016060808502860187018a1015613c0d578788fd5b8795505b84861015613c725780828b031215613c27578788fd5b613c2f6143a1565b613c3883613915565b815287830135613c478161469f565b818901526040613c58848201613915565b908201528452600195909501949286019290810190613c11565b509098975050505050505050565b60006020808385031215613c92578182fd5b82356001600160401b03811115613ca7578283fd5b8301601f81018513613cb7578283fd5b8035613cc56137af826143f3565b818152838101908385016060808502860187018a1015613ce3578788fd5b8795505b84861015613c725780828b031215613cfd578788fd5b613d056143a1565b8235613d108161469f565b815282880135613d1f8161468a565b818901526040613d30848201613915565b908201528452600195909501949286019290810190613ce7565b600060208284031215613d5b578081fd5b81356001600160401b03811115613d70578182fd5b6106d88482850161378f565b60006020808385031215613d8e578182fd5b82356001600160401b03811115613da3578283fd5b8301601f81018513613db3578283fd5b8035613dc16137af826143f3565b80828252848201915084840188868560051b8701011115613de0578687fd5b8694505b83851015613a3057613df581613915565b835260019490940193918501918501613de4565b600060208284031215613e1a578081fd5b81516135968161467c565b600060e08284031215613e36578081fd5b60405160e081018181106001600160401b0382111715613e5857613e58614651565b6040528251613e668161469f565b81526020830151613e768161469f565b60208201526040830151613e898161469f565b60408201526060830151613e9c8161469f565b6060820152613ead608084016138df565b6080820152613ebe60a084016138df565b60a0820152613ecf60c084016138ef565b60c08201529392505050565b60006101e08284031215613eed578081fd5b60405160e081018181106001600160401b0382111715613f0f57613f0f614651565b6040528251613f1d8161469f565b81526020830151613f2d8161469f565b6020820152613f3e60408401613901565b6040820152613f4f606084016138ef565b60608201526080830151613f628161469f565b6080820152613f748460a08501613865565b60a0820152613ecf846101408501613865565b60008060408385031215613f99578182fd5b613fa283613901565b9150613fb0602084016138ef565b90509250929050565b600060208284031215613fca578081fd5b612fd082613915565b60008060408385031215613fe5578182fd5b613fee83613915565b946020939093013593505050565b80516001600160801b039081168352602080830151821690840152604080830151909116908301526060808201516001600160681b0316908301526080908101516001600160a01b0316910152565b6000825161405d8184602087016145b2565b9190910192915050565b6020808252825182820181905260009190848201906040850190845b818110156140a85783516001600160a01b031683529284019291840191600101614083565b50909695505050505050565b602080825282518282018190526000919060409081850190868401855b828110156140ff57815180516001600160a01b031685528601518685015292840192908501906001016140d1565b5091979650505050505050565b602080825282518282018190526000919060409081850190868401855b828110156140ff57815180516001600160801b03908116865287820151811688870152868201518116878701526060808301519091169086015260808082015161ffff169086015260a0808201516001600160681b03169086015260c09081015160ff169085015260e09093019290850190600101614129565b60208152600082518060208401526141c28160408501602087016145b2565b601f01601f19169190910160400192915050565b6020808252602e908201527f496e697469616c697a61626c653a20636f6e747261637420697320616c72656160408201526d191e481a5b9a5d1a585b1a5e995960921b606082015260800190565b6020808252818101527f4f776e61626c653a2063616c6c6572206973206e6f7420746865206f776e6572604082015260600190565b6020808252600690820152651b1bd8dad95960d21b604082015260600190565b6020808252600f908201526e125b9d985b1a59081d985d5b1d1259608a1b604082015260600190565b60208082526008908201526710b6b0b730b3b2b960c11b604082015260600190565b60006101e0820190506001600160801b0380845116835280602085015116602084015263ffffffff604085015116604084015261ffff60608501511660608401528060808501511660808401525060a083015161432460a0840182613ffc565b5060c0830151611df3610140840182613ffc565b9283526001600160a01b03919091166020830152604082015260600190565b60405160a081016001600160401b038111828210171561437957614379614651565b60405290565b604080519081016001600160401b038111828210171561437957614379614651565b604051606081016001600160401b038111828210171561437957614379614651565b604051601f8201601f191681016001600160401b03811182821017156143eb576143eb614651565b604052919050565b60006001600160401b0382111561440c5761440c614651565b5060051b60200190565b600082198211156144295761442961463b565b500190565b60008261444957634e487b7160e01b81526012600452602481fd5b500490565b600181815b8085111561448957816000190482111561446f5761446f61463b565b8085161561447c57918102915b93841c9390800290614453565b509250929050565b6000612fd083836000826144a757506001612fd3565b816144b457506000612fd3565b81600181146144ca57600281146144d4576144f0565b6001915050612fd3565b60ff8411156144e5576144e561463b565b50506001821b612fd3565b5060208310610133831016604e8410600b8410161715614513575081810a612fd3565b61451d838361444e565b80600019048211156145315761453161463b565b029392505050565b60008160001904831182151516156145535761455361463b565b500290565b60006001600160801b03838116908316818110156145785761457861463b565b039392505050565b600061ffff838116908316818110156145785761457861463b565b6000828210156145ad576145ad61463b565b500390565b60005b838110156145cd5781810151838201526020016145b5565b83811115612e065750506000910152565b600061ffff808316818114156145f6576145f661463b565b6001019392505050565b60006000198214156146145761461461463b565b5060010190565b600060ff821660ff8114156146325761463261463b565b60010192915050565b634e487b7160e01b600052601160045260246000fd5b634e487b7160e01b600052604160045260246000fd5b6001600160a01b0381168114610ed357600080fd5b8015158114610ed357600080fd5b6001600160681b0381168114610ed357600080fd5b6001600160801b0381168114610ed357600080fdfea2646970667358221220b78b26df433d5d1e2422a457bc4b6ef462294fa95fd34e48c16403e704cccaf264736f6c63430008040033",
  "deployedBytecode": "0x60806040526004361061019c5760003560e01c806390828295116100ec578063d0ebdbe71161008a578063f4d4c9d711610064578063f4d4c9d71461058a578063f6316859146105aa578063fc382695146105bd578063fc9b0333146105dd57600080fd5b8063d0ebdbe7146104ae578063d5da2bab146104ce578063f2fde38b1461056a57600080fd5b8063ad70c3c7116100c6578063ad70c3c71461042a578063c4173ba91461044a578063c62f673b1461046c578063ca0502a41461048e57600080fd5b806390828295146103b7578063a7c6a100146103d7578063ac4b8a641461040a57600080fd5b80632e862d2911610159578063715018a611610133578063715018a6146103305780637332655b146103455780637f649783146103655780638da5cb5b1461038557600080fd5b80632e862d29146102d05780633f489914146102f0578063548db1741461031057600080fd5b806306a45d3f146101a157806315dc9bd8146101d75780631b358049146101f9578063222f6b831461020e578063256d43d71461022e57806326161ec614610241575b600080fd5b3480156101ad57600080fd5b506101c16101bc366004613fb9565b6105ff565b6040516101ce91906142c4565b60405180910390f35b3480156101e357600080fd5b506101f76101f2366004613a3c565b6106e0565b005b34801561020557600080fd5b506101f7610851565b34801561021a57600080fd5b506101f7610229366004613fd3565b6109c4565b6101f761023c366004613fb9565b610ad7565b34801561024d57600080fd5b5061026161025c366004613fb9565b610cea565b6040516101ce9190600060e0820190506001600160801b038084511683528060208501511660208401528060408501511660408401528060608501511660608401528060808501511660808401528060a08501511660a08401525061ffff60c08401511660c083015292915050565b3480156102dc57600080fd5b506101f76102eb366004613d4a565b610ea0565b3480156102fc57600080fd5b506101f761030b366004613fd3565b610ed6565b34801561031c57600080fd5b506101f761032b3660046139a1565b6110a4565b34801561033c57600080fd5b506101f7611144565b34801561035157600080fd5b506101f7610360366004613fd3565b61117a565b34801561037157600080fd5b506101f76103803660046139a1565b611284565b34801561039157600080fd5b506033546001600160a01b03165b6040516001600160a01b0390911681526020016101ce565b3480156103c357600080fd5b506101f76103d2366004613c80565b611403565b3480156103e357600080fd5b506066546103f890600160a01b900460ff1681565b60405160ff90911681526020016101ce565b34801561041657600080fd5b5060665461039f906001600160a01b031681565b34801561043657600080fd5b506101f7610445366004613af3565b611659565b34801561045657600080fd5b5061045f611c57565b6040516101ce9190614067565b34801561047857600080fd5b50610481611dfa565b6040516101ce919061410c565b34801561049a57600080fd5b506101f76104a9366004613baa565b6122eb565b3480156104ba57600080fd5b506101f76104c9366004613926565b6124eb565b3480156104da57600080fd5b5061052f6104e9366004613fb9565b6067602052600090815260409020805460019091015460ff8083169261010081048216926001600160a01b036201000090920482169291811691600160a01b9091041685565b6040805160ff96871681529590941660208601526001600160a01b03928316938501939093521660608301521515608082015260a0016101ce565b34801561057657600080fd5b506101f7610585366004613926565b61251e565b34801561059657600080fd5b506101f76105a5366004613fd3565b6125b6565b6101f76105b8366004613d7c565b6127de565b3480156105c957600080fd5b506101f76105d8366004613942565b612d62565b3480156105e957600080fd5b506105f2612e0c565b6040516101ce91906140b4565b6106076136fe565b606654829060ff600160a01b9091048116908216106106415760405162461bcd60e51b815260040161063890614279565b60405180910390fd5b60ff8316600090815260696020526040908190209051630aaf5c2360e21b81526004810182905273__$e36f5330ef2566ea8a183e1e27b10de643$__90632abd708c906024016101e06040518083038186803b1580156106a057600080fd5b505af41580156106b4573d6000803e3d6000fd5b505050506040513d601f19601f820116820180604052508101906106d89190613edb565b949350505050565b6066546001600160a01b0316331461070a5760405162461bcd60e51b8152600401610638906142a2565b60005b815181101561084d57600082828151811061073857634e487b7160e01b600052603260045260246000fd5b602090810291909101810151805160ff1660009081526069909252604082206005810154600282015482549395509193926107a1926001600160801b03600160801b840481169361079b9390821692610795929182169116612fc4565b90612fc4565b90612fd9565b905082602001516001600160801b03168111156107f85760405162461bcd60e51b815260206004820152601560248201527413585e0810d85c081b195cdcc81d1a185b881d1d9b605a1b6044820152606401610638565b50602090910151600190910180546001600160801b0390921666010000000000000275ffffffffffffffffffffffffffffffff000000000000199092169190911790558061084581614600565b91505061070d565b5050565b336000908152606c602052604090205460ff1661089f5760405162461bcd60e51b815260206004820152600c60248201526b085dda1a5d195b1a5cdd195960a21b6044820152606401610638565b606554156108bf5760405162461bcd60e51b815260040161063890614259565b6001606555336000908152606b60205260408120905b606654600160a81b900460ff168110156109bb5760ff81166000908152606860209081526040808320546001600160a01b0316808452918590529091205480156109a6576001600160a01b0382166000818152602086905260408082209190915551631a4ca37b60e21b815233600482015260248101839052604481019190915273__$e36f5330ef2566ea8a183e1e27b10de643$__906369328dec9060640160006040518083038186803b15801561098d57600080fd5b505af41580156109a1573d6000803e3d6000fd5b505050505b505080806109b390614600565b9150506108d5565b50506000606555565b606654829060ff600160a01b9091048116908216106109f55760405162461bcd60e51b815260040161063890614279565b60ff831660009081526069602052604090819020905163f6d4a19560e01b815273__$e36f5330ef2566ea8a183e1e27b10de643$__9163f6d4a19591610a42919033908790600401614338565b60006040518083038186803b158015610a5a57600080fd5b505af4158015610a6e573d6000803e3d6000fd5b5050505060ff8316600081815260696020908152604091829020600101548251868152600160201b90910461ffff169181019190915233917f976af8ffc8ba84af26e20f5bd13068ffb019d76b69eadbc80bdb10ca255a8a6c91015b60405180910390a3505050565b606654819060ff600160a01b909104811690821610610b085760405162461bcd60e51b815260040161063890614279565b60655415610b285760405162461bcd60e51b815260040161063890614259565b600160655534610b635760405162461bcd60e51b81526020600482015260066024820152652176616c756560d01b6044820152606401610638565b60ff82166000908152606760205260409020546201000090046001600160a01b031673eeeeeeeeeeeeeeeeeeeeeeeeeeeeeeeeeeeeeeee8114610bd15760405162461bcd60e51b8152600401610638906020808252600490820152630428aa8960e31b604082015260600190565b60ff83166000908152606960205260409020600181015463ffffffff16610c255760405162461bcd60e51b8152602060048201526008602482015267085cdd185c9d195960c21b6044820152606401610638565b604051633f7c9c6360e21b815273__$e36f5330ef2566ea8a183e1e27b10de643$__9063fdf2718c90610c6090849033903490600401614338565b60006040518083038186803b158015610c7857600080fd5b505af4158015610c8c573d6000803e3d6000fd5b50505050600181015460408051348152600160201b90920461ffff16602083015260ff86169133917f4c1c19f358489633624c9165b2c2e2875b2505cee2b9bc935b4a057521996e69910160405180910390a3505060006065555050565b6040805160e081018252600080825260208201819052918101829052606081018290526080810182905260a0810182905260c0810191909152606654829060ff600160a01b909104811690821610610d545760405162461bcd60e51b815260040161063890614279565b60ff8316600090815260696020526040808220905163f38f29dd60e01b81526004810182905290919073__$e36f5330ef2566ea8a183e1e27b10de643$__9063f38f29dd90602401604080518083038186803b158015610db357600080fd5b505af4158015610dc7573d6000803e3d6000fd5b505050506040513d601f19601f82011682018060405250810190610deb9190613f87565b33600090815260098501602052604090819020905163a8a328e760e01b8152600481018690526024810182905261ffff83166044820152919350915073__$e36f5330ef2566ea8a183e1e27b10de643$__9063a8a328e79060640160e06040518083038186803b158015610e5e57600080fd5b505af4158015610e72573d6000803e3d6000fd5b505050506040513d601f19601f82011682018060405250810190610e969190613e25565b9695505050505050565b6033546001600160a01b03163314610eca5760405162461bcd60e51b815260040161063890614224565b610ed381612fe5565b50565b606654829060ff600160a01b909104811690821610610f075760405162461bcd60e51b815260040161063890614279565b60655415610f275760405162461bcd60e51b815260040161063890614259565b600160655560ff8316600090815260696020526040908190209051631d48b99160e21b815273__$e36f5330ef2566ea8a183e1e27b10de643$__91637522e64491610f79919033908790600401614338565b60006040518083038186803b158015610f9157600080fd5b505af4158015610fa5573d6000803e3d6000fd5b5050505060ff831660009081526067602052604090819020549051631a4ca37b60e21b815233600482015260248101849052620100009091046001600160a01b0316604482015273__$e36f5330ef2566ea8a183e1e27b10de643$__906369328dec9060640160006040518083038186803b15801561102357600080fd5b505af4158015611037573d6000803e3d6000fd5b5050505060ff8316600081815260696020908152604091829020600101548251868152600160201b90910461ffff169181019190915233917f11a8f805dbb2d347640f80630c67f68b918ed132c5fdc99ab70311103f72dfcd910160405180910390a35050600060655550565b6066546001600160a01b031633146110ce5760405162461bcd60e51b8152600401610638906142a2565b60005b815181101561084d576000606c600084848151811061110057634e487b7160e01b600052603260045260246000fd5b6020908102919091018101516001600160a01b03168252810191909152604001600020805460ff19169115159190911790558061113c81614600565b9150506110d1565b6033546001600160a01b0316331461116e5760405162461bcd60e51b815260040161063890614224565b61117860006131e0565b565b606654829060ff600160a01b9091048116908216106111ab5760405162461bcd60e51b815260040161063890614279565b60ff83166000908152606960205260409081902090516347e5296160e01b815273__$e36f5330ef2566ea8a183e1e27b10de643$__916347e52961916111f8919033908790600401614338565b60006040518083038186803b15801561121057600080fd5b505af4158015611224573d6000803e3d6000fd5b5050505060ff8316600081815260696020908152604091829020600101548251868152600160201b90910461ffff169181019190915233917f7f229dfc7783085d0d6e51e0a77512fc68d788db5632cd042b76dc78f96cbecd9101610aca565b6066546001600160a01b031633146112ae5760405162461bcd60e51b8152600401610638906142a2565b606e5460ff1660005b82518110156113eb5760008382815181106112e257634e487b7160e01b600052603260045260246000fd5b6020908102919091018101516001600160a01b0381166000908152606c90925260409091205490915060ff166113d8576001600160a01b0381166000908152606c60205260408120805460ff19166001179055805b8460ff168160ff1610156113865760ff81166000908152606d60205260409020546001600160a01b03848116911614156113745760019150611386565b8061137e8161461b565b915050611337565b50806113d65781606d60008661139b8161461b565b975060ff1660ff16815260200190815260200160002060006101000a8154816001600160a01b0302191690836001600160a01b031602179055505b505b50806113e381614600565b9150506112b7565b50606e805460ff191660ff9290921691909117905550565b6066546001600160a01b0316331461142d5760405162461bcd60e51b8152600401610638906142a2565b60005b815181101561084d57600082828151811061145b57634e487b7160e01b600052603260045260246000fd5b60200260200101519050600081602001516001600160681b0316116114ad5760405162461bcd60e51b8152602060048201526008602482015267217072656d69756d60c01b6044820152606401610638565b80516001600160801b03166114ee5760405162461bcd60e51b815260206004820152600760248201526621737472696b6560c81b6044820152606401610638565b60408181015160ff16600090815260696020528190209051631d319eb160e31b81526004810182905273__$e36f5330ef2566ea8a183e1e27b10de643$__9063e98cf5889060240160006040518083038186803b15801561154e57600080fd5b505af4158015611562573d6000803e3d6000fd5b50505050600181810154600160201b900461ffff16116115b75760405162461bcd60e51b815260206004820152601060248201526f139bc81cd95b1b1a5b99c81c9bdd5b9960821b6044820152606401610638565b600481015460028201906001600160a01b0316156116065760405162461bcd60e51b815260206004820152600c60248201526b105b1c9958591e481cdbdb1960a21b6044820152606401610638565b8251600190910180546020909401516001600160681b0316600160801b026001600160e81b03199094166001600160801b039092169190911792909217909155508061165181614600565b915050611430565b6066546001600160a01b031633146116835760405162461bcd60e51b8152600401610638906142a2565b60005b815181101561084d5760008282815181106116b157634e487b7160e01b600052603260045260246000fd5b60200260200101519050600081600001516001600160801b0316116117075760405162461bcd60e51b815260206004820152600c60248201526b08595e1c1a5c9e53195d995b60a21b6044820152606401610638565b60208181015160ff16600090815260699091526040908190209051631d319eb160e31b81526004810182905273__$e36f5330ef2566ea8a183e1e27b10de643$__9063e98cf5889060240160006040518083038186803b15801561176a57600080fd5b505af415801561177e573d6000803e3d6000fd5b5050505060018101546002600160201b90910461ffff16116117d55760405162461bcd60e51b815260206004820152601060248201526f139bc8195e1c1a5c9959081c9bdd5b9960821b6044820152606401610638565b6005810180546001600160801b031615806117fb575060028101546001600160a01b0316155b1561180857505050611c45565b60018101546001600160801b031661184c5760405162461bcd60e51b815260206004820152600760248201526621737472696b6560c81b6044820152606401610638565b6020838101805160ff90811660009081526067909352604080842054925182168452832060010154620100009092046001600160a01b03169291600160a01b9004166118d157845160018401546001600160801b039182169116116118b257600061190b565b845160018401546118cc91906001600160801b0316614558565b61190b565b600183015485516001600160801b039182169116116118f157600061190b565b6001830154855161190b916001600160801b031690614558565b60028401546001600160a01b03166000908152606b602090815260408083208983015160ff90811685526067909352908320600101546001600160801b039490941694509261199791600160a01b909104166119745760018601546001600160801b0316611977565b87515b86546001600160801b039182169161199191879116613232565b9061323e565b90506119a28161324a565b6001600160a01b0384166000908152602083905260409020546119c6908290612fc4565b6001600160a01b0385166000908152602084815260408083206001600160801b03949094169093558981015160ff168252606a905290812060018801548290611a1c90600290600160201b900461ffff16614580565b61ffff9081168252602082019290925260400160002089516001600160801b03858116600160801b02911617600180830191909155890154909250611a6b91600291600160201b900416614580565b61ffff16886020015160ff167fca686c96009b7ca118d754ba35ac8459e4045891b4bef1a9f1224baa27134bb18a6000015185604051611ac19291906001600160801b0392831681529116602082015260400190565b60405180910390a360018601548654600091611afc91859161079b916001600160801b031690600160801b90046001600160681b0316613294565b8754909150600090611b27906001600160801b0316611991611b206008600a614491565b8590613232565b9050611b328161324a565b8089600801600060028c60010160049054906101000a900461ffff16611b589190614580565b61ffff1681526020810191909152604001600090812080546001600160801b0319166001600160801b0393841617905589549091611ba89180821691611991918791600160801b90910416613232565b8a54909150600090611bcb908390600160801b90046001600160801b0316612fc4565b9050611bd68161324a565b8a546001600160801b03908116600160801b83831602178c5560028c0154600091611c0691166107958786612fd9565b9050611c118161324a565b60029b909b0180546001600160801b0319166001600160801b03909c169b909b17909a555050600090965550505050505050505b80611c4f81614600565b915050611686565b606e5460609060ff16611c77575060408051600081526020810190915290565b6000805b606e5460ff9081169082161015611cdc5760ff8082166000908152606d60209081526040808320546001600160a01b03168352606c9091529020541615611cca5781611cc681614600565b9250505b80611cd48161461b565b915050611c7b565b506000816001600160401b03811115611d0557634e487b7160e01b600052604160045260246000fd5b604051908082528060200260200182016040528015611d2e578160200160208202803683370190505b5090506000915060005b606e5460ff9081169082161015611df35760ff8082166000908152606d60209081526040808320546001600160a01b03168352606c9091529020541615611de15760ff81166000908152606d60205260409020546001600160a01b03168284611da081614600565b955081518110611dc057634e487b7160e01b600052603260045260246000fd5b60200260200101906001600160a01b031690816001600160a01b0316815250505b80611deb8161461b565b915050611d38565b5092915050565b60606000805b60665460ff600160a01b90910481169082161015611f935760ff81166000908152606960205260408082209051630aaf5c2360e21b81526004810182905290919073__$e36f5330ef2566ea8a183e1e27b10de643$__90632abd708c906024016101e06040518083038186803b158015611e7957600080fd5b505af4158015611e8d573d6000803e3d6000fd5b505050506040513d601f19601f82011682018060405250810190611eb19190613edb565b90506003816060015161ffff161015611ecb575050611f81565b60015b60028260600151611edf9190614580565b61ffff168161ffff1611611f7d5760ff84166000908152606a6020908152604080832061ffff85168452909152902060038101546001600160a01b031633148015611f57575060018101546001600160801b0316151580611f57575060028360600151611f4c9190614580565b61ffff168261ffff16105b15611f6a5785611f6681614600565b9650505b5080611f75816145de565b915050611ece565b5050505b80611f8b8161461b565b915050611e00565b506000816001600160401b03811115611fbc57634e487b7160e01b600052604160045260246000fd5b60405190808252806020026020018201604052801561202357816020015b6040805160e08101825260008082526020808301829052928201819052606082018190526080820181905260a0820181905260c08201528252600019909201910181611fda5790505b509050816120315792915050565b6000915060005b60665460ff600160a01b90910481169082161015611df35760ff81166000908152606960205260408082209051630aaf5c2360e21b81526004810182905290919073__$e36f5330ef2566ea8a183e1e27b10de643$__90632abd708c906024016101e06040518083038186803b1580156120b157600080fd5b505af41580156120c5573d6000803e3d6000fd5b505050506040513d601f19601f820116820180604052508101906120e99190613edb565b90506003816060015161ffff1610156121035750506122d9565b60015b600282606001516121179190614580565b61ffff168161ffff16116122d55760ff84166000908152606a6020908152604080832061ffff85168452825291829020825160c08101845281546001600160801b038082168352600160801b91829004811694830194909452600183015480851695830195909552909304909116606083015260028101546001600160681b03166080830152600301546001600160a01b031660a0820181905233146121bd57506122c3565b60408101516001600160801b031661220957600283606001516121e09190614580565b61ffff168261ffff1614156121f557506122c3565b60208101516001600160801b031660408201525b60006040518060e0016040528083600001516001600160801b0316815260200183602001516001600160801b0316815260200183604001516001600160801b0316815260200183606001516001600160801b031681526020018461ffff16815260200183608001516001600160681b031681526020018760ff1681525090508087898061229590614600565b9a50815181106122b557634e487b7160e01b600052603260045260246000fd5b602002602001018190525050505b806122cd816145de565b915050612106565b5050505b806122e38161461b565b915050612038565b6066546001600160a01b031633146123155760405162461bcd60e51b8152600401610638906142a2565b60005b815181101561084d57600082828151811061234357634e487b7160e01b600052603260045260246000fd5b602090810291909101810151805160ff16600090815260699092526040909120600181015491925090600160201b900461ffff16156123b95760405162461bcd60e51b815260206004820152601260248201527130b63932b0b23c9035b4b1b5b2b21037b33360711b6044820152606401610638565b6000826040015160ff16600014156123df576123d84262093a80612fc4565b9050612409565b826040015160ff16600114156123fb576123d842610e10612fc4565b61240642603c612fc4565b90505b63ffffffff8111156124515760405162461bcd60e51b81526020600482015260116024820152706375744f66664174204f766572666c6f7760781b6044820152606401610638565b60019091018054602084015160409094015165ffff000000001960ff909116600160b01b021676ff00000000000000000000000000000000ffff00000000196001600160801b0390951666010000000000000275ffffffffffffffffffffffffffffffff0000ffffffff1990921663ffffffff90941693909317179290921617600160201b179055806124e381614600565b915050612318565b6033546001600160a01b031633146125155760405162461bcd60e51b815260040161063890614224565b610ed3816132b2565b6033546001600160a01b031633146125485760405162461bcd60e51b815260040161063890614224565b6001600160a01b0381166125ad5760405162461bcd60e51b815260206004820152602660248201527f4f776e61626c653a206e6577206f776e657220697320746865207a65726f206160448201526564647265737360d01b6064820152608401610638565b610ed3816131e0565b606654829060ff600160a01b9091048116908216106125e75760405162461bcd60e51b815260040161063890614279565b606554156126075760405162461bcd60e51b815260040161063890614259565b6001606555816126435760405162461bcd60e51b815260206004820152600760248201526608585b5bdd5b9d60ca1b6044820152606401610638565b60ff83166000908152606760205260409020546201000090046001600160a01b031673eeeeeeeeeeeeeeeeeeeeeeeeeeeeeeeeeeeeeeee8114156126af5760405162461bcd60e51b815260206004820152600360248201526208aa8960eb1b6044820152606401610638565b60ff84166000908152606960205260409020600181015463ffffffff166127035760405162461bcd60e51b8152602060048201526008602482015267085cdd185c9d195960c21b6044820152606401610638565b6127186001600160a01b0383163330876132fa565b604051633f7c9c6360e21b815273__$e36f5330ef2566ea8a183e1e27b10de643$__9063fdf2718c9061275390849033908990600401614338565b60006040518083038186803b15801561276b57600080fd5b505af415801561277f573d6000803e3d6000fd5b50505050600181015460408051868152600160201b90920461ffff16602083015260ff87169133917f4c1c19f358489633624c9165b2c2e2875b2505cee2b9bc935b4a057521996e69910160405180910390a350506000606555505050565b336000908152606c602052604090205460ff1661282c5760405162461bcd60e51b815260206004820152600c60248201526b085dda1a5d195b1a5cdd195960a21b6044820152606401610638565b6065541561284c5760405162461bcd60e51b815260040161063890614259565b60016065556000805b8251811015612cd857600083828151811061288057634e487b7160e01b600052603260045260246000fd5b60209081029190910181015160ff8116600090815260699092526040918290209151631d319eb160e31b81526004810183905290925073__$e36f5330ef2566ea8a183e1e27b10de643$__9063e98cf5889060240160006040518083038186803b1580156128ed57600080fd5b505af4158015612901573d6000803e3d6000fd5b50505060048201546002830191506001600160a01b0316156129545760405162461bcd60e51b815260206004820152600c60248201526b105b1c9958591e481cdbdb1960a21b6044820152606401610638565b60078201546001600160a01b0316156129f957600082600801600060028560010160049054906101000a900461ffff1661298e9190614580565b61ffff1681526020810191909152604001600020546001600160801b0316116129f95760405162461bcd60e51b815260206004820152601e60248201527f457870697279206c6576656c206e6f74207370656369666965642079657400006044820152606401610638565b60058201548154600091612a26916001600160801b03600160801b830481169261079b9282169116612fc4565b905060008111612a6a5760405162461bcd60e51b815260206004820152600f60248201526e139bdd1a1a5b99c81d1bc81cd95b1b608a1b6044820152606401610638565b612a738161324a565b6001820154600090612a96908390600160801b90046001600160681b0316613354565b60ff8616600081815260676020908152604080832054815160c0810183526001600160801b03898116825260018b8101549182168387015282850187905260608301879052600160801b9091046001600160681b031660808301523360a0830152958552606a90935290832089850154959650620100009091046001600160a01b031694919384939192612b359190600160201b900461ffff16614580565b61ffff908116825260208083019390935260409182016000208451938501516001600160801b03948516600160801b918616820217825592850151606086015190851694169092029290921760018083019190915560808401516002830180546cffffffffffffffffffffffffff19166001600160681b0390921691909117905560a090930151600390910180546001600160a01b0319166001600160a01b03909216919091179055878201543392612bf7929091600160201b900416614580565b6001870154604080518881526001600160801b0383166020820152600160801b9092046001600160681b03169082015261ffff919091169060ff8a16907fdce05fbfc8ca37e703a9b3522391fbe32333b81c0f255ab7d7e1961ef757430e9060600160405180910390a46001600160a01b03821673eeeeeeeeeeeeeeeeeeeeeeeeeeeeeeeeeeeeeeee1415612c9757612c908984612fc4565b9850612cac565b612cac6001600160a01b0383163330866132fa565b5050505060020180546001600160a01b0319163317905550819050612cd081614600565b915050612855565b5034811015612d1a5760405162461bcd60e51b815260206004820152600e60248201526d09cdee840cadcdeeaced040cae8d60931b6044820152606401610638565b348111156109bb57336108fc612d30348461459b565b6040518115909202916000818181858888f19350505050158015612d58573d6000803e3d6000fd5b5050506000606555565b600054610100900460ff1680612d7b575060005460ff16155b612d975760405162461bcd60e51b8152600401610638906141d6565b600054610100900460ff16158015612db9576000805461ffff19166101011790555b6001600160a01b038416612dcc57600080fd5b6000606555612dd9613368565b612de28461251e565b612deb836132b2565b612df482612fe5565b8015612e06576000805461ff00191690555b50505050565b336000908152606b60205260408120606091805b606654600160a81b900460ff16811015612e875760ff81166000908152606860209081526040808320546001600160a01b031680845291869052909120548015612e725783612e6e81614600565b9450505b50508080612e7f90614600565b915050612e20565b506000816001600160401b03811115612eb057634e487b7160e01b600052604160045260246000fd5b604051908082528060200260200182016040528015612ef557816020015b6040805180820190915260008082526020820152815260200190600190039081612ece5790505b50905081612f04579392505050565b6000915060005b606654600160a81b900460ff16811015612fbc5760ff81166000908152606860209081526040808320546001600160a01b031680845291879052909120548015612fa7576040518060400160405280836001600160a01b0316815260200182815250848681518110612f8d57634e487b7160e01b600052603260045260246000fd5b60200260200101819052508480612fa390614600565b9550505b50508080612fb490614600565b915050612f0b565b509392505050565b6000612fd08284614416565b90505b92915050565b6000612fd0828461459b565b805160665460ff600160a01b8204811691600160a81b90041660005b838110156131a957600085828151811061302b57634e487b7160e01b600052603260045260246000fd5b602090810291909101015160ff85168152905080606760008661304d8161461b565b60ff9182168352602080840194909452604092830160009081208651815496880151958801516001600160a01b03908116620100000262010000600160b01b03199787166101000261ffff19909916929096169190911796909617949094169290921783556060850151600190930180546080909601511515600160a01b026001600160a81b03199096169390941692909217939093179091559450805b8460ff168160ff1610156131405760408084015160ff83166000908152606860205291909120546001600160a01b039081169116141561312e5760019150613140565b806131388161461b565b9150506130eb565b508061319457604082015160686000866131598161461b565b975060ff1660ff16815260200190815260200160002060006101000a8154816001600160a01b0302191690836001600160a01b031602179055505b505080806131a190614600565b915050613001565b506066805461ffff60a01b1916600160a01b60ff9485160260ff60a81b191617600160a81b92909316919091029190911790555050565b603380546001600160a01b038381166001600160a01b0319831681179093556040519116919082907f8be0079c531659141344cd1fd0a4f28419497f9722a3daafe3b4186f6b6457e090600090a35050565b6000612fd08284614539565b6000612fd0828461442e565b6001600160801b03811115610ed35760405162461bcd60e51b815260206004820152601060248201526f09eeccae4ccd8deee40ead2dce86264760831b6044820152606401610638565b6000612fd06305f5e1006119916132ab8583614416565b8690613232565b6001600160a01b0381166132d85760405162461bcd60e51b8152600401610638906142a2565b606680546001600160a01b0319166001600160a01b0392909216919091179055565b604080516001600160a01b0385811660248301528416604482015260648082018490528251808303909101815260849091019091526020810180516001600160e01b03166323b872dd60e01b179052612e069085906133e3565b6000612fd06305f5e1006119918585613232565b600054610100900460ff1680613381575060005460ff16155b61339d5760405162461bcd60e51b8152600401610638906141d6565b600054610100900460ff161580156133bf576000805461ffff19166101011790555b6133c76134ba565b6133cf613524565b8015610ed3576000805461ff001916905550565b6000613438826040518060400160405280602081526020017f5361666545524332303a206c6f772d6c6576656c2063616c6c206661696c6564815250856001600160a01b03166135849092919063ffffffff16565b8051909150156134b557808060200190518101906134569190613e09565b6134b55760405162461bcd60e51b815260206004820152602a60248201527f5361666545524332303a204552433230206f7065726174696f6e20646964206e6044820152691bdd081cdd58d8d9595960b21b6064820152608401610638565b505050565b600054610100900460ff16806134d3575060005460ff16155b6134ef5760405162461bcd60e51b8152600401610638906141d6565b600054610100900460ff161580156133cf576000805461ffff19166101011790558015610ed3576000805461ff001916905550565b600054610100900460ff168061353d575060005460ff16155b6135595760405162461bcd60e51b8152600401610638906141d6565b600054610100900460ff1615801561357b576000805461ffff19166101011790555b6133cf336131e0565b6060613593848460008561359d565b90505b9392505050565b6060824710156135fe5760405162461bcd60e51b815260206004820152602660248201527f416464726573733a20696e73756666696369656e742062616c616e636520666f6044820152651c8818d85b1b60d21b6064820152608401610638565b843b61364c5760405162461bcd60e51b815260206004820152601d60248201527f416464726573733a2063616c6c20746f206e6f6e2d636f6e74726163740000006044820152606401610638565b600080866001600160a01b03168587604051613668919061404b565b60006040518083038185875af1925050503d80600081146136a5576040519150601f19603f3d011682016040523d82523d6000602084013e6136aa565b606091505b50915091506136ba8282866136c5565b979650505050505050565b606083156136d4575081613596565b8251156136e45782518084602001fd5b8160405162461bcd60e51b815260040161063891906141a3565b6040805160e08101825260008082526020820181905291810182905260608101829052608081019190915260a0810161375e6040805160a08101825260008082526020820181905291810182905260608101829052608081019190915290565b81526040805160a0810182526000808252602082810182905292820181905260608201819052608082015291015290565b600082601f83011261379f578081fd5b813560206137b46137af836143f3565b6143c3565b8281528181019085830160a0808602880185018910156137d2578687fd5b865b868110156138575781838b0312156137ea578788fd5b6137f2614357565b6137fb84613915565b8152613808878501613915565b8782015260408085013561381b81614667565b9082015260608481013561382e81614667565b908201526080848101356138418161467c565b90820152855293850193918101916001016137d4565b509198975050505050505050565b600060a08284031215613876578081fd5b61387e614357565b9050815161388b8161469f565b8152602082015161389b8161469f565b602082015260408201516138ae8161469f565b604082015260608201516138c18161468a565b606082015260808201516138d481614667565b608082015292915050565b80516138ea8161469f565b919050565b805161ffff811681146138ea57600080fd5b805163ffffffff811681146138ea57600080fd5b803560ff811681146138ea57600080fd5b600060208284031215613937578081fd5b813561359681614667565b600080600060608486031215613956578182fd5b833561396181614667565b9250602084013561397181614667565b915060408401356001600160401b0381111561398b578182fd5b6139978682870161378f565b9150509250925092565b600060208083850312156139b3578182fd5b82356001600160401b038111156139c8578283fd5b8301601f810185136139d8578283fd5b80356139e66137af826143f3565b80828252848201915084840188868560051b8701011115613a05578687fd5b8694505b83851015613a30578035613a1c81614667565b835260019490940193918501918501613a09565b50979650505050505050565b60006020808385031215613a4e578182fd5b82356001600160401b03811115613a63578283fd5b8301601f81018513613a73578283fd5b8035613a816137af826143f3565b80828252848201915084840188868560061b8701011115613aa0578687fd5b8694505b83851015613a3057604080828b031215613abc578788fd5b613ac461437f565b613acd83613915565b815287830135613adc8161469f565b818901528452600195909501949286019201613aa4565b60006020808385031215613b05578182fd5b82356001600160401b03811115613b1a578283fd5b8301601f81018513613b2a578283fd5b8035613b386137af826143f3565b80828252848201915084840188868560061b8701011115613b57578687fd5b8694505b83851015613a3057604080828b031215613b73578788fd5b613b7b61437f565b8235613b868161469f565b8152613b93838901613915565b818901528452600195909501949286019201613b5b565b60006020808385031215613bbc578182fd5b82356001600160401b03811115613bd1578283fd5b8301601f81018513613be1578283fd5b8035613bef6137af826143f3565b818152838101908385016060808502860187018a1015613c0d578788fd5b8795505b84861015613c725780828b031215613c27578788fd5b613c2f6143a1565b613c3883613915565b815287830135613c478161469f565b818901526040613c58848201613915565b908201528452600195909501949286019290810190613c11565b509098975050505050505050565b60006020808385031215613c92578182fd5b82356001600160401b03811115613ca7578283fd5b8301601f81018513613cb7578283fd5b8035613cc56137af826143f3565b818152838101908385016060808502860187018a1015613ce3578788fd5b8795505b84861015613c725780828b031215613cfd578788fd5b613d056143a1565b8235613d108161469f565b815282880135613d1f8161468a565b818901526040613d30848201613915565b908201528452600195909501949286019290810190613ce7565b600060208284031215613d5b578081fd5b81356001600160401b03811115613d70578182fd5b6106d88482850161378f565b60006020808385031215613d8e578182fd5b82356001600160401b03811115613da3578283fd5b8301601f81018513613db3578283fd5b8035613dc16137af826143f3565b80828252848201915084840188868560051b8701011115613de0578687fd5b8694505b83851015613a3057613df581613915565b835260019490940193918501918501613de4565b600060208284031215613e1a578081fd5b81516135968161467c565b600060e08284031215613e36578081fd5b60405160e081018181106001600160401b0382111715613e5857613e58614651565b6040528251613e668161469f565b81526020830151613e768161469f565b60208201526040830151613e898161469f565b60408201526060830151613e9c8161469f565b6060820152613ead608084016138df565b6080820152613ebe60a084016138df565b60a0820152613ecf60c084016138ef565b60c08201529392505050565b60006101e08284031215613eed578081fd5b60405160e081018181106001600160401b0382111715613f0f57613f0f614651565b6040528251613f1d8161469f565b81526020830151613f2d8161469f565b6020820152613f3e60408401613901565b6040820152613f4f606084016138ef565b60608201526080830151613f628161469f565b6080820152613f748460a08501613865565b60a0820152613ecf846101408501613865565b60008060408385031215613f99578182fd5b613fa283613901565b9150613fb0602084016138ef565b90509250929050565b600060208284031215613fca578081fd5b612fd082613915565b60008060408385031215613fe5578182fd5b613fee83613915565b946020939093013593505050565b80516001600160801b039081168352602080830151821690840152604080830151909116908301526060808201516001600160681b0316908301526080908101516001600160a01b0316910152565b6000825161405d8184602087016145b2565b9190910192915050565b6020808252825182820181905260009190848201906040850190845b818110156140a85783516001600160a01b031683529284019291840191600101614083565b50909695505050505050565b602080825282518282018190526000919060409081850190868401855b828110156140ff57815180516001600160a01b031685528601518685015292840192908501906001016140d1565b5091979650505050505050565b602080825282518282018190526000919060409081850190868401855b828110156140ff57815180516001600160801b03908116865287820151811688870152868201518116878701526060808301519091169086015260808082015161ffff169086015260a0808201516001600160681b03169086015260c09081015160ff169085015260e09093019290850190600101614129565b60208152600082518060208401526141c28160408501602087016145b2565b601f01601f19169190910160400192915050565b6020808252602e908201527f496e697469616c697a61626c653a20636f6e747261637420697320616c72656160408201526d191e481a5b9a5d1a585b1a5e995960921b606082015260800190565b6020808252818101527f4f776e61626c653a2063616c6c6572206973206e6f7420746865206f776e6572604082015260600190565b6020808252600690820152651b1bd8dad95960d21b604082015260600190565b6020808252600f908201526e125b9d985b1a59081d985d5b1d1259608a1b604082015260600190565b60208082526008908201526710b6b0b730b3b2b960c11b604082015260600190565b60006101e0820190506001600160801b0380845116835280602085015116602084015263ffffffff604085015116604084015261ffff60608501511660608401528060808501511660808401525060a083015161432460a0840182613ffc565b5060c0830151611df3610140840182613ffc565b9283526001600160a01b03919091166020830152604082015260600190565b60405160a081016001600160401b038111828210171561437957614379614651565b60405290565b604080519081016001600160401b038111828210171561437957614379614651565b604051606081016001600160401b038111828210171561437957614379614651565b604051601f8201601f191681016001600160401b03811182821017156143eb576143eb614651565b604052919050565b60006001600160401b0382111561440c5761440c614651565b5060051b60200190565b600082198211156144295761442961463b565b500190565b60008261444957634e487b7160e01b81526012600452602481fd5b500490565b600181815b8085111561448957816000190482111561446f5761446f61463b565b8085161561447c57918102915b93841c9390800290614453565b509250929050565b6000612fd083836000826144a757506001612fd3565b816144b457506000612fd3565b81600181146144ca57600281146144d4576144f0565b6001915050612fd3565b60ff8411156144e5576144e561463b565b50506001821b612fd3565b5060208310610133831016604e8410600b8410161715614513575081810a612fd3565b61451d838361444e565b80600019048211156145315761453161463b565b029392505050565b60008160001904831182151516156145535761455361463b565b500290565b60006001600160801b03838116908316818110156145785761457861463b565b039392505050565b600061ffff838116908316818110156145785761457861463b565b6000828210156145ad576145ad61463b565b500390565b60005b838110156145cd5781810151838201526020016145b5565b83811115612e065750506000910152565b600061ffff808316818114156145f6576145f661463b565b6001019392505050565b60006000198214156146145761461461463b565b5060010190565b600060ff821660ff8114156146325761463261463b565b60010192915050565b634e487b7160e01b600052601160045260246000fd5b634e487b7160e01b600052604160045260246000fd5b6001600160a01b0381168114610ed357600080fd5b8015158114610ed357600080fd5b6001600160681b0381168114610ed357600080fd5b6001600160801b0381168114610ed357600080fdfea2646970667358221220b78b26df433d5d1e2422a457bc4b6ef462294fa95fd34e48c16403e704cccaf264736f6c63430008040033",
  "libraries": {
    "OptionLifecycle": "0x84D8abC1C8f8d59De2BDd7F64187B59b0b9C90a0"
  },
  "devdoc": {
    "kind": "dev",
    "methods": {
      "owner()": {
        "details": "Returns the address of the current owner."
      },
      "renounceOwnership()": {
        "details": "Leaves the contract without owner. It will not be possible to call `onlyOwner` functions anymore. Can only be called by the current owner. NOTE: Renouncing ownership will leave the contract without an owner, thereby removing any functionality that is only available to the owner."
      },
      "transferOwnership(address)": {
        "details": "Transfers ownership of the contract to a new account (`newOwner`). Can only be called by the current owner."
      }
    },
    "version": 1
  },
  "userdoc": {
    "kind": "user",
    "methods": {},
    "version": 1
  },
  "storageLayout": {
    "storage": [
      {
        "astId": 130,
        "contract": "contracts/SingleDirectionOptionUpgradeable.sol:SingleDirectionOptionUpgradeable",
        "label": "_initialized",
        "offset": 0,
        "slot": "0",
        "type": "t_bool"
      },
      {
        "astId": 133,
        "contract": "contracts/SingleDirectionOptionUpgradeable.sol:SingleDirectionOptionUpgradeable",
        "label": "_initializing",
        "offset": 1,
        "slot": "0",
        "type": "t_bool"
      },
      {
        "astId": 213,
        "contract": "contracts/SingleDirectionOptionUpgradeable.sol:SingleDirectionOptionUpgradeable",
        "label": "__gap",
        "offset": 0,
        "slot": "1",
        "type": "t_array(t_uint256)50_storage"
      },
      {
        "astId": 10,
        "contract": "contracts/SingleDirectionOptionUpgradeable.sol:SingleDirectionOptionUpgradeable",
        "label": "_owner",
        "offset": 0,
        "slot": "51",
        "type": "t_address"
      },
      {
        "astId": 123,
        "contract": "contracts/SingleDirectionOptionUpgradeable.sol:SingleDirectionOptionUpgradeable",
        "label": "__gap",
        "offset": 0,
        "slot": "52",
        "type": "t_array(t_uint256)49_storage"
      },
      {
        "astId": 6928,
        "contract": "contracts/SingleDirectionOptionUpgradeable.sol:SingleDirectionOptionUpgradeable",
        "label": "locked",
        "offset": 0,
        "slot": "101",
        "type": "t_uint256"
      },
      {
        "astId": 6930,
        "contract": "contracts/SingleDirectionOptionUpgradeable.sol:SingleDirectionOptionUpgradeable",
        "label": "managerRoleAddress",
        "offset": 0,
        "slot": "102",
        "type": "t_address"
      },
      {
        "astId": 6932,
        "contract": "contracts/SingleDirectionOptionUpgradeable.sol:SingleDirectionOptionUpgradeable",
        "label": "vaultCount",
        "offset": 20,
        "slot": "102",
        "type": "t_uint8"
      },
      {
        "astId": 6934,
        "contract": "contracts/SingleDirectionOptionUpgradeable.sol:SingleDirectionOptionUpgradeable",
        "label": "assetCount",
        "offset": 21,
        "slot": "102",
        "type": "t_uint8"
      },
      {
        "astId": 6939,
        "contract": "contracts/SingleDirectionOptionUpgradeable.sol:SingleDirectionOptionUpgradeable",
        "label": "vaultDefinitions",
        "offset": 0,
        "slot": "103",
        "type": "t_mapping(t_uint8,t_struct(VaultDefinition)6524_storage)"
      },
      {
        "astId": 6943,
        "contract": "contracts/SingleDirectionOptionUpgradeable.sol:SingleDirectionOptionUpgradeable",
        "label": "assets",
        "offset": 0,
        "slot": "104",
        "type": "t_mapping(t_uint8,t_address)"
      },
      {
        "astId": 6948,
        "contract": "contracts/SingleDirectionOptionUpgradeable.sol:SingleDirectionOptionUpgradeable",
        "label": "vaultStates",
        "offset": 0,
        "slot": "105",
        "type": "t_mapping(t_uint8,t_struct(VaultState)6563_storage)"
      },
      {
        "astId": 6955,
        "contract": "contracts/SingleDirectionOptionUpgradeable.sol:SingleDirectionOptionUpgradeable",
        "label": "soldVaultStates",
        "offset": 0,
        "slot": "106",
        "type": "t_mapping(t_uint8,t_mapping(t_uint16,t_struct(SoldVaultState)6613_storage))"
      },
      {
        "astId": 6960,
        "contract": "contracts/SingleDirectionOptionUpgradeable.sol:SingleDirectionOptionUpgradeable",
        "label": "buyerStates",
        "offset": 0,
        "slot": "107",
        "type": "t_mapping(t_address,t_struct(OptionBuyerState)6568_storage)"
      },
      {
        "astId": 6967,
        "contract": "contracts/SingleDirectionOptionUpgradeable.sol:SingleDirectionOptionUpgradeable",
        "label": "whitelist",
        "offset": 0,
        "slot": "108",
        "type": "t_mapping(t_address,t_bool)"
      },
      {
        "astId": 6971,
        "contract": "contracts/SingleDirectionOptionUpgradeable.sol:SingleDirectionOptionUpgradeable",
        "label": "traders",
        "offset": 0,
        "slot": "109",
        "type": "t_mapping(t_uint8,t_address)"
      },
      {
        "astId": 6973,
        "contract": "contracts/SingleDirectionOptionUpgradeable.sol:SingleDirectionOptionUpgradeable",
        "label": "traderCount",
        "offset": 0,
        "slot": "110",
        "type": "t_uint8"
      }
    ],
    "types": {
      "t_address": {
        "encoding": "inplace",
        "label": "address",
        "numberOfBytes": "20"
      },
      "t_array(t_uint256)49_storage": {
        "base": "t_uint256",
        "encoding": "inplace",
        "label": "uint256[49]",
        "numberOfBytes": "1568"
      },
      "t_array(t_uint256)50_storage": {
        "base": "t_uint256",
        "encoding": "inplace",
        "label": "uint256[50]",
        "numberOfBytes": "1600"
      },
      "t_bool": {
        "encoding": "inplace",
        "label": "bool",
        "numberOfBytes": "1"
      },
      "t_mapping(t_address,t_bool)": {
        "encoding": "mapping",
        "key": "t_address",
        "label": "mapping(address => bool)",
        "numberOfBytes": "32",
        "value": "t_bool"
      },
      "t_mapping(t_address,t_struct(OptionBuyerState)6568_storage)": {
        "encoding": "mapping",
        "key": "t_address",
        "label": "mapping(address => struct StructureData.OptionBuyerState)",
        "numberOfBytes": "32",
        "value": "t_struct(OptionBuyerState)6568_storage"
      },
      "t_mapping(t_address,t_struct(UserState)6583_storage)": {
        "encoding": "mapping",
        "key": "t_address",
        "label": "mapping(address => struct StructureData.UserState)",
        "numberOfBytes": "32",
        "value": "t_struct(UserState)6583_storage"
      },
      "t_mapping(t_address,t_uint256)": {
        "encoding": "mapping",
        "key": "t_address",
        "label": "mapping(address => uint256)",
        "numberOfBytes": "32",
        "value": "t_uint256"
      },
      "t_mapping(t_uint16,t_struct(SoldVaultState)6613_storage)": {
        "encoding": "mapping",
        "key": "t_uint16",
        "label": "mapping(uint16 => struct StructureData.SoldVaultState)",
        "numberOfBytes": "32",
        "value": "t_struct(SoldVaultState)6613_storage"
      },
      "t_mapping(t_uint16,t_uint128)": {
        "encoding": "mapping",
        "key": "t_uint16",
        "label": "mapping(uint16 => uint128)",
        "numberOfBytes": "32",
        "value": "t_uint128"
      },
      "t_mapping(t_uint8,t_address)": {
        "encoding": "mapping",
        "key": "t_uint8",
        "label": "mapping(uint8 => address)",
        "numberOfBytes": "32",
        "value": "t_address"
      },
      "t_mapping(t_uint8,t_mapping(t_uint16,t_struct(SoldVaultState)6613_storage))": {
        "encoding": "mapping",
        "key": "t_uint8",
        "label": "mapping(uint8 => mapping(uint16 => struct StructureData.SoldVaultState))",
        "numberOfBytes": "32",
        "value": "t_mapping(t_uint16,t_struct(SoldVaultState)6613_storage)"
      },
      "t_mapping(t_uint8,t_struct(VaultDefinition)6524_storage)": {
        "encoding": "mapping",
        "key": "t_uint8",
        "label": "mapping(uint8 => struct StructureData.VaultDefinition)",
        "numberOfBytes": "32",
        "value": "t_struct(VaultDefinition)6524_storage"
      },
      "t_mapping(t_uint8,t_struct(VaultState)6563_storage)": {
        "encoding": "mapping",
        "key": "t_uint8",
        "label": "mapping(uint8 => struct StructureData.VaultState)",
        "numberOfBytes": "32",
        "value": "t_struct(VaultState)6563_storage"
      },
      "t_struct(OptionBuyerState)6568_storage": {
        "encoding": "inplace",
        "label": "struct StructureData.OptionBuyerState",
        "members": [
          {
            "astId": 6567,
            "contract": "contracts/SingleDirectionOptionUpgradeable.sol:SingleDirectionOptionUpgradeable",
            "label": "optionValueToCollect",
            "offset": 0,
            "slot": "0",
            "type": "t_mapping(t_address,t_uint256)"
          }
        ],
        "numberOfBytes": "32"
      },
      "t_struct(OptionState)6535_storage": {
        "encoding": "inplace",
        "label": "struct StructureData.OptionState",
        "members": [
          {
            "astId": 6526,
            "contract": "contracts/SingleDirectionOptionUpgradeable.sol:SingleDirectionOptionUpgradeable",
            "label": "amount",
            "offset": 0,
            "slot": "0",
            "type": "t_uint128"
          },
          {
            "astId": 6528,
            "contract": "contracts/SingleDirectionOptionUpgradeable.sol:SingleDirectionOptionUpgradeable",
            "label": "queuedRedeemAmount",
            "offset": 16,
            "slot": "0",
            "type": "t_uint128"
          },
          {
            "astId": 6530,
            "contract": "contracts/SingleDirectionOptionUpgradeable.sol:SingleDirectionOptionUpgradeable",
            "label": "strike",
            "offset": 0,
            "slot": "1",
            "type": "t_uint128"
          },
          {
            "astId": 6532,
            "contract": "contracts/SingleDirectionOptionUpgradeable.sol:SingleDirectionOptionUpgradeable",
            "label": "premiumRate",
            "offset": 16,
            "slot": "1",
            "type": "t_uint104"
          },
          {
            "astId": 6534,
            "contract": "contracts/SingleDirectionOptionUpgradeable.sol:SingleDirectionOptionUpgradeable",
            "label": "buyerAddress",
            "offset": 0,
            "slot": "2",
            "type": "t_address"
          }
        ],
        "numberOfBytes": "96"
      },
      "t_struct(SoldVaultState)6613_storage": {
        "encoding": "inplace",
        "label": "struct StructureData.SoldVaultState",
        "members": [
          {
            "astId": 6602,
            "contract": "contracts/SingleDirectionOptionUpgradeable.sol:SingleDirectionOptionUpgradeable",
            "label": "amount",
            "offset": 0,
            "slot": "0",
            "type": "t_uint128"
          },
          {
            "astId": 6604,
            "contract": "contracts/SingleDirectionOptionUpgradeable.sol:SingleDirectionOptionUpgradeable",
            "label": "strike",
            "offset": 16,
            "slot": "0",
            "type": "t_uint128"
          },
          {
            "astId": 6606,
            "contract": "contracts/SingleDirectionOptionUpgradeable.sol:SingleDirectionOptionUpgradeable",
            "label": "expiryLevel",
            "offset": 0,
            "slot": "1",
            "type": "t_uint128"
          },
          {
            "astId": 6608,
            "contract": "contracts/SingleDirectionOptionUpgradeable.sol:SingleDirectionOptionUpgradeable",
            "label": "optionHolderValue",
            "offset": 16,
            "slot": "1",
            "type": "t_uint128"
          },
          {
            "astId": 6610,
            "contract": "contracts/SingleDirectionOptionUpgradeable.sol:SingleDirectionOptionUpgradeable",
            "label": "premiumRate",
            "offset": 0,
            "slot": "2",
            "type": "t_uint104"
          },
          {
            "astId": 6612,
            "contract": "contracts/SingleDirectionOptionUpgradeable.sol:SingleDirectionOptionUpgradeable",
            "label": "buyerAddress",
            "offset": 0,
            "slot": "3",
            "type": "t_address"
          }
        ],
        "numberOfBytes": "128"
      },
      "t_struct(UserState)6583_storage": {
        "encoding": "inplace",
        "label": "struct StructureData.UserState",
        "members": [
          {
            "astId": 6570,
            "contract": "contracts/SingleDirectionOptionUpgradeable.sol:SingleDirectionOptionUpgradeable",
            "label": "pending",
            "offset": 0,
            "slot": "0",
            "type": "t_uint128"
          },
          {
            "astId": 6572,
            "contract": "contracts/SingleDirectionOptionUpgradeable.sol:SingleDirectionOptionUpgradeable",
            "label": "redeemed",
            "offset": 16,
            "slot": "0",
            "type": "t_uint128"
          },
          {
            "astId": 6574,
            "contract": "contracts/SingleDirectionOptionUpgradeable.sol:SingleDirectionOptionUpgradeable",
            "label": "expiredAmount",
            "offset": 0,
            "slot": "1",
            "type": "t_uint128"
          },
          {
            "astId": 6576,
            "contract": "contracts/SingleDirectionOptionUpgradeable.sol:SingleDirectionOptionUpgradeable",
            "label": "expiredQueuedRedeemAmount",
            "offset": 16,
            "slot": "1",
            "type": "t_uint128"
          },
          {
            "astId": 6578,
            "contract": "contracts/SingleDirectionOptionUpgradeable.sol:SingleDirectionOptionUpgradeable",
            "label": "onGoingAmount",
            "offset": 0,
            "slot": "2",
            "type": "t_uint128"
          },
          {
            "astId": 6580,
            "contract": "contracts/SingleDirectionOptionUpgradeable.sol:SingleDirectionOptionUpgradeable",
            "label": "onGoingQueuedRedeemAmount",
            "offset": 16,
            "slot": "2",
            "type": "t_uint128"
          },
          {
            "astId": 6582,
            "contract": "contracts/SingleDirectionOptionUpgradeable.sol:SingleDirectionOptionUpgradeable",
            "label": "lastUpdateRound",
            "offset": 0,
            "slot": "3",
            "type": "t_uint16"
          }
        ],
        "numberOfBytes": "128"
      },
      "t_struct(VaultDefinition)6524_storage": {
        "encoding": "inplace",
        "label": "struct StructureData.VaultDefinition",
        "members": [
          {
            "astId": 6515,
            "contract": "contracts/SingleDirectionOptionUpgradeable.sol:SingleDirectionOptionUpgradeable",
            "label": "vaultId",
            "offset": 0,
            "slot": "0",
            "type": "t_uint8"
          },
          {
            "astId": 6517,
            "contract": "contracts/SingleDirectionOptionUpgradeable.sol:SingleDirectionOptionUpgradeable",
            "label": "assetAmountDecimals",
            "offset": 1,
            "slot": "0",
            "type": "t_uint8"
          },
          {
            "astId": 6519,
            "contract": "contracts/SingleDirectionOptionUpgradeable.sol:SingleDirectionOptionUpgradeable",
            "label": "asset",
            "offset": 2,
            "slot": "0",
            "type": "t_address"
          },
          {
            "astId": 6521,
            "contract": "contracts/SingleDirectionOptionUpgradeable.sol:SingleDirectionOptionUpgradeable",
            "label": "underlying",
            "offset": 0,
            "slot": "1",
            "type": "t_address"
          },
          {
            "astId": 6523,
            "contract": "contracts/SingleDirectionOptionUpgradeable.sol:SingleDirectionOptionUpgradeable",
            "label": "callOrPut",
            "offset": 20,
            "slot": "1",
            "type": "t_bool"
          }
        ],
        "numberOfBytes": "64"
      },
      "t_struct(VaultState)6563_storage": {
        "encoding": "inplace",
        "label": "struct StructureData.VaultState",
        "members": [
          {
            "astId": 6537,
            "contract": "contracts/SingleDirectionOptionUpgradeable.sol:SingleDirectionOptionUpgradeable",
            "label": "totalPending",
            "offset": 0,
            "slot": "0",
            "type": "t_uint128"
          },
          {
            "astId": 6539,
            "contract": "contracts/SingleDirectionOptionUpgradeable.sol:SingleDirectionOptionUpgradeable",
            "label": "totalRedeemed",
            "offset": 16,
            "slot": "0",
            "type": "t_uint128"
          },
          {
            "astId": 6541,
            "contract": "contracts/SingleDirectionOptionUpgradeable.sol:SingleDirectionOptionUpgradeable",
            "label": "cutOffAt",
            "offset": 0,
            "slot": "1",
            "type": "t_uint32"
          },
          {
            "astId": 6543,
            "contract": "contracts/SingleDirectionOptionUpgradeable.sol:SingleDirectionOptionUpgradeable",
            "label": "currentRound",
            "offset": 4,
            "slot": "1",
            "type": "t_uint16"
          },
          {
            "astId": 6545,
            "contract": "contracts/SingleDirectionOptionUpgradeable.sol:SingleDirectionOptionUpgradeable",
            "label": "maxCapacity",
            "offset": 6,
            "slot": "1",
            "type": "t_uint128"
          },
          {
            "astId": 6547,
            "contract": "contracts/SingleDirectionOptionUpgradeable.sol:SingleDirectionOptionUpgradeable",
            "label": "environment",
            "offset": 22,
            "slot": "1",
            "type": "t_uint8"
          },
          {
            "astId": 6550,
            "contract": "contracts/SingleDirectionOptionUpgradeable.sol:SingleDirectionOptionUpgradeable",
            "label": "onGoing",
            "offset": 0,
            "slot": "2",
            "type": "t_struct(OptionState)6535_storage"
          },
          {
            "astId": 6553,
            "contract": "contracts/SingleDirectionOptionUpgradeable.sol:SingleDirectionOptionUpgradeable",
            "label": "expired",
            "offset": 0,
            "slot": "5",
            "type": "t_struct(OptionState)6535_storage"
          },
          {
            "astId": 6557,
            "contract": "contracts/SingleDirectionOptionUpgradeable.sol:SingleDirectionOptionUpgradeable",
            "label": "depositPriceAfterExpiryPerRound",
            "offset": 0,
            "slot": "8",
            "type": "t_mapping(t_uint16,t_uint128)"
          },
          {
            "astId": 6562,
            "contract": "contracts/SingleDirectionOptionUpgradeable.sol:SingleDirectionOptionUpgradeable",
            "label": "userStates",
            "offset": 0,
            "slot": "9",
            "type": "t_mapping(t_address,t_struct(UserState)6583_storage)"
          }
        ],
        "numberOfBytes": "320"
      },
      "t_uint104": {
        "encoding": "inplace",
        "label": "uint104",
        "numberOfBytes": "13"
      },
      "t_uint128": {
        "encoding": "inplace",
        "label": "uint128",
        "numberOfBytes": "16"
      },
      "t_uint16": {
        "encoding": "inplace",
        "label": "uint16",
        "numberOfBytes": "2"
      },
      "t_uint256": {
        "encoding": "inplace",
        "label": "uint256",
        "numberOfBytes": "32"
      },
      "t_uint32": {
        "encoding": "inplace",
        "label": "uint32",
        "numberOfBytes": "4"
      },
      "t_uint8": {
        "encoding": "inplace",
        "label": "uint8",
        "numberOfBytes": "1"
      }
    }
  }
}