{
  "address": "0xBc495ee868196F02e97A2b4613692E7401f7daFD",
  "abi": [
    {
      "anonymous": false,
      "inputs": [
        {
          "indexed": true,
          "internalType": "address",
          "name": "previousOwner",
          "type": "address"
        },
        {
          "indexed": true,
          "internalType": "address",
          "name": "newOwner",
          "type": "address"
        }
      ],
      "name": "OwnershipTransferred",
      "type": "event"
    },
    {
      "inputs": [
        {
          "internalType": "address[]",
          "name": "_whitelistAddresses",
          "type": "address[]"
        }
      ],
      "name": "addToWhitelist",
      "outputs": [],
      "stateMutability": "nonpayable",
      "type": "function"
    },
    {
      "inputs": [
        {
          "components": [
            {
              "internalType": "uint8",
              "name": "vaultId",
              "type": "uint8"
            },
            {
              "internalType": "uint8",
              "name": "assetAmountDecimals",
              "type": "uint8"
            },
            {
              "internalType": "address",
              "name": "asset",
              "type": "address"
            },
            {
              "internalType": "address",
              "name": "underlying",
              "type": "address"
            },
            {
              "internalType": "bool",
              "name": "callOrPut",
              "type": "bool"
            }
          ],
          "internalType": "struct StructureData.VaultDefinition[]",
          "name": "_vaultDefinitions",
          "type": "tuple[]"
        }
      ],
      "name": "addVaults",
      "outputs": [],
      "stateMutability": "nonpayable",
      "type": "function"
    },
    {
      "inputs": [
        {
          "internalType": "uint8[]",
          "name": "_vaultIds",
          "type": "uint8[]"
        }
      ],
      "name": "buyOptions",
      "outputs": [],
      "stateMutability": "payable",
      "type": "function"
    },
    {
      "inputs": [
        {
          "internalType": "uint8",
          "name": "_vaultId",
          "type": "uint8"
        },
        {
          "internalType": "uint256",
          "name": "_redeemAmount",
          "type": "uint256"
        }
      ],
      "name": "cancelWithdraw",
      "outputs": [],
      "stateMutability": "nonpayable",
      "type": "function"
    },
    {
      "inputs": [],
      "name": "collectOptionHolderValues",
      "outputs": [],
      "stateMutability": "nonpayable",
      "type": "function"
    },
    {
      "inputs": [
        {
          "internalType": "uint8",
          "name": "_vaultId",
          "type": "uint8"
        },
        {
          "internalType": "uint256",
          "name": "_amount",
          "type": "uint256"
        }
      ],
      "name": "deposit",
      "outputs": [],
      "stateMutability": "nonpayable",
      "type": "function"
    },
    {
      "inputs": [
        {
          "internalType": "uint8",
          "name": "_vaultId",
          "type": "uint8"
        }
      ],
      "name": "depositETH",
      "outputs": [],
      "stateMutability": "payable",
      "type": "function"
    },
    {
      "inputs": [
        {
          "components": [
            {
              "internalType": "uint128",
              "name": "expiryLevel",
              "type": "uint128"
            },
            {
              "internalType": "uint8",
              "name": "vaultId",
              "type": "uint8"
            }
          ],
          "internalType": "struct StructureData.ExpiredOptionParameters[]",
          "name": "_expiryParameters",
          "type": "tuple[]"
        }
      ],
      "name": "expireOptions",
      "outputs": [],
      "stateMutability": "nonpayable",
      "type": "function"
    },
    {
      "inputs": [
        {
          "internalType": "uint8",
          "name": "_vaultId",
          "type": "uint8"
        }
      ],
      "name": "getUserState",
      "outputs": [
        {
          "components": [
            {
              "internalType": "uint128",
              "name": "pending",
              "type": "uint128"
            },
            {
              "internalType": "uint128",
              "name": "redeemed",
              "type": "uint128"
            },
            {
              "internalType": "uint128",
              "name": "expiredAmount",
              "type": "uint128"
            },
            {
              "internalType": "uint128",
              "name": "expiredQueuedRedeemAmount",
              "type": "uint128"
            },
            {
              "internalType": "uint128",
              "name": "onGoingAmount",
              "type": "uint128"
            },
            {
              "internalType": "uint128",
              "name": "onGoingQueuedRedeemAmount",
              "type": "uint128"
            },
            {
              "internalType": "uint16",
              "name": "lastUpdateRound",
              "type": "uint16"
            }
          ],
          "internalType": "struct StructureData.UserState",
          "name": "",
          "type": "tuple"
        }
      ],
      "stateMutability": "view",
      "type": "function"
    },
    {
      "inputs": [
        {
          "internalType": "uint8",
          "name": "_vaultId",
          "type": "uint8"
        }
      ],
      "name": "getVaultState",
      "outputs": [
        {
          "components": [
            {
              "internalType": "uint128",
              "name": "totalPending",
              "type": "uint128"
            },
            {
              "internalType": "uint128",
              "name": "totalRedeemed",
              "type": "uint128"
            },
            {
              "internalType": "uint32",
              "name": "cutOffAt",
              "type": "uint32"
            },
            {
              "internalType": "uint16",
              "name": "currentRound",
              "type": "uint16"
            },
            {
              "internalType": "uint128",
              "name": "maxCapacity",
              "type": "uint128"
            },
            {
              "components": [
                {
                  "internalType": "uint128",
                  "name": "amount",
                  "type": "uint128"
                },
                {
                  "internalType": "uint128",
                  "name": "queuedRedeemAmount",
                  "type": "uint128"
                },
                {
                  "internalType": "uint128",
                  "name": "strike",
                  "type": "uint128"
                },
                {
                  "internalType": "uint16",
                  "name": "premiumRate",
                  "type": "uint16"
                },
                {
                  "internalType": "address",
                  "name": "buyerAddress",
                  "type": "address"
                }
              ],
              "internalType": "struct StructureData.OptionState",
              "name": "onGoing",
              "type": "tuple"
            },
            {
              "components": [
                {
                  "internalType": "uint128",
                  "name": "amount",
                  "type": "uint128"
                },
                {
                  "internalType": "uint128",
                  "name": "queuedRedeemAmount",
                  "type": "uint128"
                },
                {
                  "internalType": "uint128",
                  "name": "strike",
                  "type": "uint128"
                },
                {
                  "internalType": "uint16",
                  "name": "premiumRate",
                  "type": "uint16"
                },
                {
                  "internalType": "address",
                  "name": "buyerAddress",
                  "type": "address"
                }
              ],
              "internalType": "struct StructureData.OptionState",
              "name": "expired",
              "type": "tuple"
            }
          ],
          "internalType": "struct StructureData.VaultSnapShot",
          "name": "",
          "type": "tuple"
        }
      ],
      "stateMutability": "view",
      "type": "function"
    },
    {
      "inputs": [
        {
          "internalType": "address",
          "name": "_owner",
          "type": "address"
        },
        {
          "internalType": "address",
          "name": "_manager",
          "type": "address"
        },
        {
          "components": [
            {
              "internalType": "uint8",
              "name": "vaultId",
              "type": "uint8"
            },
            {
              "internalType": "uint8",
              "name": "assetAmountDecimals",
              "type": "uint8"
            },
            {
              "internalType": "address",
              "name": "asset",
              "type": "address"
            },
            {
              "internalType": "address",
              "name": "underlying",
              "type": "address"
            },
            {
              "internalType": "bool",
              "name": "callOrPut",
              "type": "bool"
            }
          ],
          "internalType": "struct StructureData.VaultDefinition[]",
          "name": "_vaultDefinitions",
          "type": "tuple[]"
        }
      ],
      "name": "initialize",
      "outputs": [],
      "stateMutability": "nonpayable",
      "type": "function"
    },
    {
      "inputs": [
        {
          "internalType": "uint8",
          "name": "_vaultId",
          "type": "uint8"
        },
        {
          "internalType": "uint256",
          "name": "_redeemAmount",
          "type": "uint256"
        }
      ],
      "name": "initiateWithraw",
      "outputs": [],
      "stateMutability": "nonpayable",
      "type": "function"
    },
    {
      "inputs": [
        {
          "components": [
            {
              "internalType": "uint8",
              "name": "vaultId",
              "type": "uint8"
            },
            {
              "internalType": "uint128",
              "name": "maxCapacity",
              "type": "uint128"
            },
            {
              "internalType": "uint8",
              "name": "environment",
              "type": "uint8"
            }
          ],
          "internalType": "struct StructureData.KickOffOptionParameters[]",
          "name": "_kickoffs",
          "type": "tuple[]"
        }
      ],
      "name": "kickOffOptions",
      "outputs": [],
      "stateMutability": "nonpayable",
      "type": "function"
    },
    {
      "inputs": [],
      "name": "managerRoleAddress",
      "outputs": [
        {
          "internalType": "address",
          "name": "",
          "type": "address"
        }
      ],
      "stateMutability": "view",
      "type": "function"
    },
    {
      "inputs": [],
      "name": "optionHolderValues",
      "outputs": [
        {
          "components": [
            {
              "internalType": "address",
              "name": "asset",
              "type": "address"
            },
            {
              "internalType": "uint256",
              "name": "amount",
              "type": "uint256"
            }
          ],
          "internalType": "struct StructureData.CollectableValue[]",
          "name": "",
          "type": "tuple[]"
        }
      ],
      "stateMutability": "view",
      "type": "function"
    },
    {
      "inputs": [],
      "name": "owner",
      "outputs": [
        {
          "internalType": "address",
          "name": "",
          "type": "address"
        }
      ],
      "stateMutability": "view",
      "type": "function"
    },
    {
      "inputs": [
        {
          "internalType": "address[]",
          "name": "_delistAddresses",
          "type": "address[]"
        }
      ],
      "name": "removeFromWhitelist",
      "outputs": [],
      "stateMutability": "nonpayable",
      "type": "function"
    },
    {
      "inputs": [],
      "name": "renounceOwnership",
      "outputs": [],
      "stateMutability": "nonpayable",
      "type": "function"
    },
    {
      "inputs": [
        {
          "components": [
            {
              "internalType": "uint128",
              "name": "strike",
              "type": "uint128"
            },
            {
              "internalType": "uint16",
              "name": "premiumRate",
              "type": "uint16"
            },
            {
              "internalType": "uint8",
              "name": "vaultId",
              "type": "uint8"
            }
          ],
          "internalType": "struct StructureData.OnGoingOptionParameters[]",
          "name": "_ongoingParameters",
          "type": "tuple[]"
        }
      ],
      "name": "sellOptions",
      "outputs": [],
      "stateMutability": "nonpayable",
      "type": "function"
    },
    {
      "inputs": [
        {
          "components": [
            {
              "internalType": "uint8",
              "name": "vaultId",
              "type": "uint8"
            },
            {
              "internalType": "uint128",
              "name": "maxCapacity",
              "type": "uint128"
            }
          ],
          "internalType": "struct StructureData.CapacityParameters[]",
          "name": "_capacities",
          "type": "tuple[]"
        }
      ],
      "name": "setCapacities",
      "outputs": [],
      "stateMutability": "nonpayable",
      "type": "function"
    },
    {
      "inputs": [
        {
          "internalType": "address",
          "name": "_manager",
          "type": "address"
        }
      ],
      "name": "setManager",
      "outputs": [],
      "stateMutability": "nonpayable",
      "type": "function"
    },
    {
      "inputs": [
        {
          "internalType": "address",
          "name": "newOwner",
          "type": "address"
        }
      ],
      "name": "transferOwnership",
      "outputs": [],
      "stateMutability": "nonpayable",
      "type": "function"
    },
    {
      "inputs": [],
      "name": "vaultCount",
      "outputs": [
        {
          "internalType": "uint8",
          "name": "",
          "type": "uint8"
        }
      ],
      "stateMutability": "view",
      "type": "function"
    },
    {
      "inputs": [
        {
          "internalType": "uint8",
          "name": "",
          "type": "uint8"
        }
      ],
      "name": "vaultDefinitions",
      "outputs": [
        {
          "internalType": "uint8",
          "name": "vaultId",
          "type": "uint8"
        },
        {
          "internalType": "uint8",
          "name": "assetAmountDecimals",
          "type": "uint8"
        },
        {
          "internalType": "address",
          "name": "asset",
          "type": "address"
        },
        {
          "internalType": "address",
          "name": "underlying",
          "type": "address"
        },
        {
          "internalType": "bool",
          "name": "callOrPut",
          "type": "bool"
        }
      ],
      "stateMutability": "view",
      "type": "function"
    },
    {
      "inputs": [
        {
          "internalType": "uint8",
          "name": "_vaultId",
          "type": "uint8"
        },
        {
          "internalType": "uint256",
          "name": "_amount",
          "type": "uint256"
        }
      ],
      "name": "withdraw",
      "outputs": [],
      "stateMutability": "nonpayable",
      "type": "function"
    }
  ],
  "transactionHash": "0x13450fb2fce598bd27e7fe91d0def72740dc4f6916a60d9ade268e9fc2d5aa47",
  "args": [],
  "solcInputHash": "39180667a22abb36ffb06f51aa00e0f5",
  "bytecode": "0x608060405234801561001057600080fd5b50613933806100206000396000f3fe6080604052600436106101665760003560e01c80638da5cb5b116100d1578063d0ebdbe71161008a578063f4d4c9d711610064578063f4d4c9d714610510578063f631685914610530578063fc38269514610543578063fc9b03331461056357600080fd5b8063d0ebdbe714610434578063d5da2bab14610454578063f2fde38b146104f057600080fd5b80638da5cb5b1461034f57806396721fbf14610381578063a7c6a100146103a1578063ac4b8a64146103d4578063ad70c3c7146103f4578063ca0502a41461041457600080fd5b80632e862d29116101235780632e862d291461029a5780633f489914146102ba578063548db174146102da578063715018a6146102fa5780637332655b1461030f5780637f6497831461032f57600080fd5b806306a45d3f1461016b57806315dc9bd8146101a15780631b358049146101c3578063222f6b83146101d8578063256d43d7146101f857806326161ec61461020b575b600080fd5b34801561017757600080fd5b5061018b6101863660046132e5565b610585565b604051610198919061352d565b60405180910390f35b3480156101ad57600080fd5b506101c16101bc366004612d64565b610666565b005b3480156101cf57600080fd5b506101c16107d3565b3480156101e457600080fd5b506101c16101f33660046132ff565b610927565b6101c16102063660046132e5565b6109da565b34801561021757600080fd5b5061022b6102263660046132e5565b610b89565b6040516101989190600060e0820190506001600160801b038084511683528060208501511660208401528060408501511660408401528060608501511660608401528060808501511660808401528060a08501511660a08401525061ffff60c08401511660c083015292915050565b3480156102a657600080fd5b506101c16102b5366004613072565b610d3f565b3480156102c657600080fd5b506101c16102d53660046132ff565b610d75565b3480156102e657600080fd5b506101c16102f5366004612cc9565b610ee4565b34801561030657600080fd5b506101c1610f84565b34801561031b57600080fd5b506101c161032a3660046132ff565b610fba565b34801561033b57600080fd5b506101c161034a366004612cc9565b611038565b34801561035b57600080fd5b506033546001600160a01b03165b6040516001600160a01b039091168152602001610198565b34801561038d57600080fd5b506101c161039c366004612fa8565b6110d8565b3480156103ad57600080fd5b506066546103c290600160a01b900460ff1681565b60405160ff9091168152602001610198565b3480156103e057600080fd5b50606654610369906001600160a01b031681565b34801561040057600080fd5b506101c161040f366004612e1b565b611330565b34801561042057600080fd5b506101c161042f366004612ed2565b611845565b34801561044057600080fd5b506101c161044f366004612c4e565b611a47565b34801561046057600080fd5b506104b561046f3660046132e5565b6067602052600090815260409020805460019091015460ff8083169261010081048216926001600160a01b036201000090920482169291811691600160a01b9091041685565b6040805160ff96871681529590941660208601526001600160a01b03928316938501939093521660608301521515608082015260a001610198565b3480156104fc57600080fd5b506101c161050b366004612c4e565b611a7a565b34801561051c57600080fd5b506101c161052b3660046132ff565b611b12565b6101c161053e3660046130a4565b611cd4565b34801561054f57600080fd5b506101c161055e366004612c6a565b612064565b34801561056f57600080fd5b5061057861210e565b604051610198919061338e565b61058d612a2d565b606654829060ff600160a01b9091048116908216106105c75760405162461bcd60e51b81526004016105be906134bc565b60405180910390fd5b60ff8316600090815260696020526040908190209051630aaf5c2360e21b81526004810182905273BF4510A4EB90d6EB28FdF55E94d9907251d8867B90632abd708c906024016101e06040518083038186803b15801561062657600080fd5b505af415801561063a573d6000803e3d6000fd5b505050506040513d601f19601f8201168201806040525081019061065e9190613203565b949350505050565b6066546001600160a01b031633146106905760405162461bcd60e51b81526004016105be9061350b565b60005b81518110156107cf5760008282815181106106be57634e487b7160e01b600052603260045260246000fd5b602090810291909101810151805160ff166000908152606990925260408220600581015460028201548254939550919392610727926001600160801b03600160801b8404811693610721939082169261071b9291821691166122fa565b906122fa565b9061230f565b905082602001516001600160801b031681111561077a5760405162461bcd60e51b815260206004820152601160248201527013585e0810d85c081d1bdbc81cdb585b1b607a1b60448201526064016105be565b50602090910151600190910180546001600160801b0390921666010000000000000275ffffffffffffffffffffffffffffffff00000000000019909216919091179055806107c78161384e565b915050610693565b5050565b336000908152606b602052604090205460ff166108025760405162461bcd60e51b81526004016105be906134e5565b606554156108225760405162461bcd60e51b81526004016105be9061349c565b6001606555336000908152606a60205260408120905b606654600160a81b900460ff1681101561091e5760ff81166000908152606860209081526040808320546001600160a01b031680845291859052909120548015610909576001600160a01b0382166000818152602086905260408082209190915551631a4ca37b60e21b815233600482015260248101839052604481019190915273BF4510A4EB90d6EB28FdF55E94d9907251d8867B906369328dec9060640160006040518083038186803b1580156108f057600080fd5b505af4158015610904573d6000803e3d6000fd5b505050505b505080806109169061384e565b915050610838565b50506000606555565b606654829060ff600160a01b9091048116908216106109585760405162461bcd60e51b81526004016105be906134bc565b60ff831660009081526069602052604090819020905163f6d4a19560e01b815273BF4510A4EB90d6EB28FdF55E94d9907251d8867B9163f6d4a195916109a59190339087906004016135a8565b60006040518083038186803b1580156109bd57600080fd5b505af41580156109d1573d6000803e3d6000fd5b50505050505050565b606654819060ff600160a01b909104811690821610610a0b5760405162461bcd60e51b81526004016105be906134bc565b60655415610a2b5760405162461bcd60e51b81526004016105be9061349c565b600160655534610a665760405162461bcd60e51b81526020600482015260066024820152652176616c756560d01b60448201526064016105be565b60ff82166000908152606760205260409020546201000090046001600160a01b03168015610abf5760405162461bcd60e51b81526004016105be906020808252600490820152630428aa8960e31b604082015260600190565b60ff83166000908152606960205260409020600181015463ffffffff16610b135760405162461bcd60e51b8152602060048201526008602482015267085cdd185c9d195960c21b60448201526064016105be565b604051633f7c9c6360e21b815273BF4510A4EB90d6EB28FdF55E94d9907251d8867B9063fdf2718c90610b4e908490339034906004016135a8565b60006040518083038186803b158015610b6657600080fd5b505af4158015610b7a573d6000803e3d6000fd5b50506000606555505050505050565b6040805160e081018252600080825260208201819052918101829052606081018290526080810182905260a0810182905260c0810191909152606654829060ff600160a01b909104811690821610610bf35760405162461bcd60e51b81526004016105be906134bc565b60ff8316600090815260696020526040808220905163f38f29dd60e01b81526004810182905290919073BF4510A4EB90d6EB28FdF55E94d9907251d8867B9063f38f29dd90602401604080518083038186803b158015610c5257600080fd5b505af4158015610c66573d6000803e3d6000fd5b505050506040513d601f19601f82011682018060405250810190610c8a91906132af565b33600090815260098501602052604090819020905163a8a328e760e01b8152600481018690526024810182905261ffff83166044820152919350915073BF4510A4EB90d6EB28FdF55E94d9907251d8867B9063a8a328e79060640160e06040518083038186803b158015610cfd57600080fd5b505af4158015610d11573d6000803e3d6000fd5b505050506040513d601f19601f82011682018060405250810190610d35919061314d565b9695505050505050565b6033546001600160a01b03163314610d695760405162461bcd60e51b81526004016105be90613467565b610d728161231b565b50565b606654829060ff600160a01b909104811690821610610da65760405162461bcd60e51b81526004016105be906134bc565b60655415610dc65760405162461bcd60e51b81526004016105be9061349c565b600160655560ff8316600090815260696020526040908190209051631d48b99160e21b815273BF4510A4EB90d6EB28FdF55E94d9907251d8867B91637522e64491610e189190339087906004016135a8565b60006040518083038186803b158015610e3057600080fd5b505af4158015610e44573d6000803e3d6000fd5b5050505060ff831660009081526067602052604090819020549051631a4ca37b60e21b815233600482015260248101849052620100009091046001600160a01b0316604482015273BF4510A4EB90d6EB28FdF55E94d9907251d8867B906369328dec9060640160006040518083038186803b158015610ec257600080fd5b505af4158015610ed6573d6000803e3d6000fd5b505060006065555050505050565b6066546001600160a01b03163314610f0e5760405162461bcd60e51b81526004016105be9061350b565b60005b81518110156107cf576000606b6000848481518110610f4057634e487b7160e01b600052603260045260246000fd5b6020908102919091018101516001600160a01b03168252810191909152604001600020805460ff191691151591909117905580610f7c8161384e565b915050610f11565b6033546001600160a01b03163314610fae5760405162461bcd60e51b81526004016105be90613467565b610fb86000612513565b565b606654829060ff600160a01b909104811690821610610feb5760405162461bcd60e51b81526004016105be906134bc565b60ff83166000908152606960205260409081902090516347e5296160e01b815273BF4510A4EB90d6EB28FdF55E94d9907251d8867B916347e52961916109a59190339087906004016135a8565b6066546001600160a01b031633146110625760405162461bcd60e51b81526004016105be9061350b565b60005b81518110156107cf576001606b600084848151811061109457634e487b7160e01b600052603260045260246000fd5b6020908102919091018101516001600160a01b03168252810191909152604001600020805460ff1916911515919091179055806110d08161384e565b915050611065565b6066546001600160a01b031633146111025760405162461bcd60e51b81526004016105be9061350b565b60005b81518110156107cf57600082828151811061113057634e487b7160e01b600052603260045260246000fd5b602002602001015190506000816020015161ffff161161117d5760405162461bcd60e51b8152602060048201526008602482015267217072656d69756d60c01b60448201526064016105be565b80516001600160801b03166111be5760405162461bcd60e51b815260206004820152600760248201526621737472696b6560c81b60448201526064016105be565b60408181015160ff16600090815260696020528190209051631d319eb160e31b81526004810182905273BF4510A4EB90d6EB28FdF55E94d9907251d8867B9063e98cf5889060240160006040518083038186803b15801561121e57600080fd5b505af4158015611232573d6000803e3d6000fd5b50505050600181810154640100000000900461ffff16116112885760405162461bcd60e51b815260206004820152601060248201526f139bc81cd95b1b1a5b99c81c9bdd5b9960821b60448201526064016105be565b600481015460028201906001600160a01b0316156112d75760405162461bcd60e51b815260206004820152600c60248201526b105b1c9958591e481cdbdb1960a21b60448201526064016105be565b82516001909101805460209094015161ffff16600160801b0271ffffffffffffffffffffffffffffffffffff199094166001600160801b03909216919091179290921790915550806113288161384e565b915050611105565b6066546001600160a01b0316331461135a5760405162461bcd60e51b81526004016105be9061350b565b60005b81518110156107cf57600082828151811061138857634e487b7160e01b600052603260045260246000fd5b60200260200101519050600081600001516001600160801b0316116113de5760405162461bcd60e51b815260206004820152600c60248201526b08595e1c1a5c9e53195d995b60a21b60448201526064016105be565b60208181015160ff16600090815260699091526040908190209051631d319eb160e31b81526004810182905273BF4510A4EB90d6EB28FdF55E94d9907251d8867B9063e98cf5889060240160006040518083038186803b15801561144157600080fd5b505af4158015611455573d6000803e3d6000fd5b505050506001810154600264010000000090910461ffff16116114ad5760405162461bcd60e51b815260206004820152601060248201526f139bc8195e1c1a5c9959081c9bdd5b9960821b60448201526064016105be565b6005810180546001600160801b031615806114d3575060028101546001600160a01b0316155b156114e057505050611833565b60018101546001600160801b03166115245760405162461bcd60e51b815260206004820152600760248201526621737472696b6560c81b60448201526064016105be565b6020838101805160ff90811660009081526067909352604080842054925182168452832060010154620100009092046001600160a01b03169291600160a01b9004166115a957845160018401546001600160801b0391821691161161158a5760006115e3565b845160018401546115a491906001600160801b03166137c8565b6115e3565b600183015485516001600160801b039182169116116115c95760006115e3565b600183015485516115e3916001600160801b0316906137c8565b60028401546001600160a01b03166000908152606a602090815260408083208983015160ff90811685526067909352908320600101546001600160801b039490941694509261166f91600160a01b9091041661164c5760018601546001600160801b031661164f565b87515b86546001600160801b039182169161166991879116612565565b90612571565b905061167a8161257d565b6001600160a01b03841660009081526020839052604090205461169e9082906122fa565b6001600160a01b03851660009081526020849052604081206001600160801b0392831690556001870154875491926116eb928592610721929190911690600160801b900461ffff166125c7565b8654909150600090611716906001600160801b031661166961170f6008600a613701565b8590612565565b90506117218161257d565b8088600801600060028b60010160049054906101000a900461ffff1661174791906137f0565b61ffff1681526020810191909152604001600090812080546001600160801b0319166001600160801b03938416179055885490916117979180821691611669918791600160801b90910416612565565b89549091506000906117ba908390600160801b90046001600160801b03166122fa565b90506117c58161257d565b89546001600160801b03908116600160801b83831602178b5560028b01546000916117f5911661071b878661230f565b90506118008161257d565b60029a909a0180546001600160801b0319166001600160801b03909b169a909a1790995550506000909555505050505050505b8061183d8161384e565b91505061135d565b6066546001600160a01b0316331461186f5760405162461bcd60e51b81526004016105be9061350b565b60005b81518110156107cf57600082828151811061189d57634e487b7160e01b600052603260045260246000fd5b602090810291909101810151805160ff16600090815260699092526040909120600181015491925090640100000000900461ffff16156119145760405162461bcd60e51b815260206004820152601260248201527130b63932b0b23c9035b4b1b5b2b21037b33360711b60448201526064016105be565b6000826040015160ff166000141561193a576119334262093a806122fa565b9050611964565b826040015160ff16600114156119565761193342610e106122fa565b61196142603c6122fa565b90505b63ffffffff8111156119ac5760405162461bcd60e51b815260206004820152601160248201527013dd995c999b1bddc818dd5d13d999905d607a1b60448201526064016105be565b60019091018054602084015160409094015165ffff000000001960ff909116600160b01b021676ff00000000000000000000000000000000ffff00000000196001600160801b0390951666010000000000000275ffffffffffffffffffffffffffffffff0000ffffffff1990921663ffffffff9094169390931717929092161764010000000017905580611a3f8161384e565b915050611872565b6033546001600160a01b03163314611a715760405162461bcd60e51b81526004016105be90613467565b610d72816125e3565b6033546001600160a01b03163314611aa45760405162461bcd60e51b81526004016105be90613467565b6001600160a01b038116611b095760405162461bcd60e51b815260206004820152602660248201527f4f776e61626c653a206e6577206f776e657220697320746865207a65726f206160448201526564647265737360d01b60648201526084016105be565b610d7281612513565b606654829060ff600160a01b909104811690821610611b435760405162461bcd60e51b81526004016105be906134bc565b60655415611b635760405162461bcd60e51b81526004016105be9061349c565b600160655581611b9f5760405162461bcd60e51b815260206004820152600760248201526608585b5bdd5b9d60ca1b60448201526064016105be565b60ff83166000908152606760205260409020546201000090046001600160a01b031680611bf45760405162461bcd60e51b815260206004820152600360248201526208aa8960eb1b60448201526064016105be565b60ff84166000908152606960205260409020600181015463ffffffff16611c485760405162461bcd60e51b8152602060048201526008602482015267085cdd185c9d195960c21b60448201526064016105be565b611c5d6001600160a01b03831633308761262b565b604051633f7c9c6360e21b815273BF4510A4EB90d6EB28FdF55E94d9907251d8867B9063fdf2718c90611c98908490339089906004016135a8565b60006040518083038186803b158015611cb057600080fd5b505af4158015611cc4573d6000803e3d6000fd5b5050600060655550505050505050565b336000908152606b602052604090205460ff16611d035760405162461bcd60e51b81526004016105be906134e5565b60655415611d235760405162461bcd60e51b81526004016105be9061349c565b60016065556000805b8251811015611fda576000838281518110611d5757634e487b7160e01b600052603260045260246000fd5b60209081029190910181015160ff8116600090815260699092526040918290209151631d319eb160e31b81526004810183905290925073BF4510A4EB90d6EB28FdF55E94d9907251d8867B9063e98cf5889060240160006040518083038186803b158015611dc457600080fd5b505af4158015611dd8573d6000803e3d6000fd5b505050506002810180546001600160801b0316611e295760405162461bcd60e51b815260206004820152600f60248201526e139bdd1a1a5b99c81d1bc81cd95b1b608a1b60448201526064016105be565b60028101546001600160a01b031615611e735760405162461bcd60e51b815260206004820152600c60248201526b105b1c9958591e481cdbdb1960a21b60448201526064016105be565b6005820154600090611e97906001600160801b03600160801b8204811691166137c8565b6001600160801b03161115611f3857600082600801600060028560010160049054906101000a900461ffff16611ecd91906137f0565b61ffff1681526020810191909152604001600020546001600160801b031611611f385760405162461bcd60e51b815260206004820152601e60248201527f457870697279206c6576656c206e6f742073706563696669656420796574000060448201526064016105be565b60018101548154600091611f60916001600160801b031690600160801b900461ffff16612685565b60ff85166000908152606760205260409020549091506201000090046001600160a01b031680611f9b57611f9487836122fa565b9650611fb0565b611fb06001600160a01b03821633308561262b565b505060020180546001600160a01b0319163317905550819050611fd28161384e565b915050611d2c565b503481101561201c5760405162461bcd60e51b815260206004820152600e60248201526d09cdee840cadcdeeaced040cae8d60931b60448201526064016105be565b3481111561091e57336108fc612032348461380b565b6040518115909202916000818181858888f1935050505015801561205a573d6000803e3d6000fd5b5050506000606555565b600054610100900460ff168061207d575060005460ff16155b6120995760405162461bcd60e51b81526004016105be90613419565b600054610100900460ff161580156120bb576000805461ffff19166101011790555b6001600160a01b0384166120ce57600080fd5b60006065556120db612697565b6120e484611a7a565b6120ed836125e3565b6120f68261231b565b8015612108576000805461ff00191690555b50505050565b336000908152606b602052604090205460609060ff166121405760405162461bcd60e51b81526004016105be906134e5565b336000908152606a6020526040812090805b606654600160a81b900460ff168110156121b95760ff81166000908152606860209081526040808320546001600160a01b0316808452918690529091205480156121a457836121a08161384e565b9450505b505080806121b19061384e565b915050612152565b506000816001600160401b038111156121e257634e487b7160e01b600052604160045260246000fd5b60405190808252806020026020018201604052801561222757816020015b60408051808201909152600080825260208201528152602001906001900390816122005790505b509050816122395792506122f7915050565b6000915060005b606654600160a81b900460ff168110156122f15760ff81166000908152606860209081526040808320546001600160a01b0316808452918790529091205480156122dc576040518060400160405280836001600160a01b03168152602001828152508486815181106122c257634e487b7160e01b600052603260045260246000fd5b602002602001018190525084806122d89061384e565b9550505b505080806122e99061384e565b915050612240565b50925050505b90565b60006123068284613686565b90505b92915050565b6000612306828461380b565b805160665460ff600160a01b8204811691600160a81b90041660005b838110156124dc57600085828151811061236157634e487b7160e01b600052603260045260246000fd5b602090810291909101015160ff85168152905080606760008661238381613869565b60ff9182168352602080840194909452604092830160009081208651815496880151958801516001600160a01b03908116620100000262010000600160b01b03199787166101000261ffff19909916929096169190911796909617949094169290921783556060850151600190930180546080909601511515600160a01b026001600160a81b03199096169390941692909217939093179091559450805b8460ff168110156124735760408084015160ff83166000908152606860205291909120546001600160a01b03908116911614156124615760019150612473565b8061246b8161384e565b915050612421565b50806124c7576040820151606860008661248c81613869565b975060ff1660ff16815260200190815260200160002060006101000a8154816001600160a01b0302191690836001600160a01b031602179055505b505080806124d49061384e565b915050612337565b506066805461ffff60a01b1916600160a01b60ff9485160260ff60a81b191617600160a81b92909316919091029190911790555050565b603380546001600160a01b038381166001600160a01b0319831681179093556040519116919082907f8be0079c531659141344cd1fd0a4f28419497f9722a3daafe3b4186f6b6457e090600090a35050565b600061230682846137a9565b6000612306828461369e565b6001600160801b03811115610d725760405162461bcd60e51b815260206004820152601060248201526f09eeccae4ccd8deee40ead2dce86264760831b60448201526064016105be565b60006123066127106116696125dc8583613686565b8690612565565b6001600160a01b0381166126095760405162461bcd60e51b81526004016105be9061350b565b606680546001600160a01b0319166001600160a01b0392909216919091179055565b604080516001600160a01b0385811660248301528416604482015260648082018490528251808303909101815260849091019091526020810180516001600160e01b03166323b872dd60e01b179052612108908590612712565b60006123066127106116698585612565565b600054610100900460ff16806126b0575060005460ff16155b6126cc5760405162461bcd60e51b81526004016105be90613419565b600054610100900460ff161580156126ee576000805461ffff19166101011790555b6126f66127e9565b6126fe612853565b8015610d72576000805461ff001916905550565b6000612767826040518060400160405280602081526020017f5361666545524332303a206c6f772d6c6576656c2063616c6c206661696c6564815250856001600160a01b03166128b39092919063ffffffff16565b8051909150156127e457808060200190518101906127859190613131565b6127e45760405162461bcd60e51b815260206004820152602a60248201527f5361666545524332303a204552433230206f7065726174696f6e20646964206e6044820152691bdd081cdd58d8d9595960b21b60648201526084016105be565b505050565b600054610100900460ff1680612802575060005460ff16155b61281e5760405162461bcd60e51b81526004016105be90613419565b600054610100900460ff161580156126fe576000805461ffff19166101011790558015610d72576000805461ff001916905550565b600054610100900460ff168061286c575060005460ff16155b6128885760405162461bcd60e51b81526004016105be90613419565b600054610100900460ff161580156128aa576000805461ffff19166101011790555b6126fe33612513565b60606128c284846000856128cc565b90505b9392505050565b60608247101561292d5760405162461bcd60e51b815260206004820152602660248201527f416464726573733a20696e73756666696369656e742062616c616e636520666f6044820152651c8818d85b1b60d21b60648201526084016105be565b843b61297b5760405162461bcd60e51b815260206004820152601d60248201527f416464726573733a2063616c6c20746f206e6f6e2d636f6e747261637400000060448201526064016105be565b600080866001600160a01b031685876040516129979190613372565b60006040518083038185875af1925050503d80600081146129d4576040519150601f19603f3d011682016040523d82523d6000602084013e6129d9565b606091505b50915091506129e98282866129f4565b979650505050505050565b60608315612a035750816128c5565b825115612a135782518084602001fd5b8160405162461bcd60e51b81526004016105be91906133e6565b6040805160e08101825260008082526020820181905291810182905260608101829052608081019190915260a08101612a8d6040805160a08101825260008082526020820181905291810182905260608101829052608081019190915290565b81526040805160a0810182526000808252602082810182905292820181905260608201819052608082015291015290565b600082601f830112612ace578081fd5b81356020612ae3612ade83613663565b613633565b8281528181019085830160a080860288018501891015612b01578687fd5b865b86811015612b865781838b031215612b19578788fd5b612b216135c7565b612b2a84612c3d565b8152612b37878501612c3d565b87820152604080850135612b4a816138b5565b90820152606084810135612b5d816138b5565b90820152608084810135612b70816138ca565b9082015285529385019391810191600101612b03565b509198975050505050505050565b600060a08284031215612ba5578081fd5b612bad6135c7565b90508151612bba816138d8565b81526020820151612bca816138d8565b60208201526040820151612bdd816138d8565b60408201526060820151612bf0816138ed565b60608201526080820151612c03816138b5565b608082015292915050565b8051612c19816138d8565b919050565b8051612c19816138ed565b805163ffffffff81168114612c1957600080fd5b803560ff81168114612c1957600080fd5b600060208284031215612c5f578081fd5b81356128c5816138b5565b600080600060608486031215612c7e578182fd5b8335612c89816138b5565b92506020840135612c99816138b5565b915060408401356001600160401b03811115612cb3578182fd5b612cbf86828701612abe565b9150509250925092565b60006020808385031215612cdb578182fd5b82356001600160401b03811115612cf0578283fd5b8301601f81018513612d00578283fd5b8035612d0e612ade82613663565b80828252848201915084840188868560051b8701011115612d2d578687fd5b8694505b83851015612d58578035612d44816138b5565b835260019490940193918501918501612d31565b50979650505050505050565b60006020808385031215612d76578182fd5b82356001600160401b03811115612d8b578283fd5b8301601f81018513612d9b578283fd5b8035612da9612ade82613663565b80828252848201915084840188868560061b8701011115612dc8578687fd5b8694505b83851015612d5857604080828b031215612de4578788fd5b612dec6135ef565b612df583612c3d565b815287830135612e04816138d8565b818901528452600195909501949286019201612dcc565b60006020808385031215612e2d578182fd5b82356001600160401b03811115612e42578283fd5b8301601f81018513612e52578283fd5b8035612e60612ade82613663565b80828252848201915084840188868560061b8701011115612e7f578687fd5b8694505b83851015612d5857604080828b031215612e9b578788fd5b612ea36135ef565b8235612eae816138d8565b8152612ebb838901612c3d565b818901528452600195909501949286019201612e83565b60006020808385031215612ee4578182fd5b82356001600160401b03811115612ef9578283fd5b8301601f81018513612f09578283fd5b8035612f17612ade82613663565b818152838101908385016060808502860187018a1015612f35578788fd5b8795505b84861015612f9a5780828b031215612f4f578788fd5b612f57613611565b612f6083612c3d565b815287830135612f6f816138d8565b818901526040612f80848201612c3d565b908201528452600195909501949286019290810190612f39565b509098975050505050505050565b60006020808385031215612fba578182fd5b82356001600160401b03811115612fcf578283fd5b8301601f81018513612fdf578283fd5b8035612fed612ade82613663565b818152838101908385016060808502860187018a101561300b578788fd5b8795505b84861015612f9a5780828b031215613025578788fd5b61302d613611565b8235613038816138d8565b815282880135613047816138ed565b818901526040613058848201612c3d565b90820152845260019590950194928601929081019061300f565b600060208284031215613083578081fd5b81356001600160401b03811115613098578182fd5b61065e84828501612abe565b600060208083850312156130b6578182fd5b82356001600160401b038111156130cb578283fd5b8301601f810185136130db578283fd5b80356130e9612ade82613663565b80828252848201915084840188868560051b8701011115613108578687fd5b8694505b83851015612d585761311d81612c3d565b83526001949094019391850191850161310c565b600060208284031215613142578081fd5b81516128c5816138ca565b600060e0828403121561315e578081fd5b60405160e081018181106001600160401b03821117156131805761318061389f565b604052825161318e816138d8565b8152602083015161319e816138d8565b602082015260408301516131b1816138d8565b604082015260608301516131c4816138d8565b60608201526131d560808401612c0e565b60808201526131e660a08401612c0e565b60a08201526131f760c08401612c1e565b60c08201529392505050565b60006101e08284031215613215578081fd5b60405160e081018181106001600160401b03821117156132375761323761389f565b6040528251613245816138d8565b81526020830151613255816138d8565b602082015261326660408401612c29565b60408201526060830151613279816138ed565b606082015261328a60808401612c0e565b608082015261329c8460a08501612b94565b60a08201526131f7846101408501612b94565b600080604083850312156132c1578182fd5b6132ca83612c29565b915060208301516132da816138ed565b809150509250929050565b6000602082840312156132f6578081fd5b61230682612c3d565b60008060408385031215613311578182fd5b61331a83612c3d565b946020939093013593505050565b80516001600160801b0390811683526020808301518216908401526040808301519091169083015260608082015161ffff16908301526080908101516001600160a01b0316910152565b60008251613384818460208701613822565b9190910192915050565b602080825282518282018190526000919060409081850190868401855b828110156133d957815180516001600160a01b031685528601518685015292840192908501906001016133ab565b5091979650505050505050565b6020815260008251806020840152613405816040850160208701613822565b601f01601f19169190910160400192915050565b6020808252602e908201527f496e697469616c697a61626c653a20636f6e747261637420697320616c72656160408201526d191e481a5b9a5d1a585b1a5e995960921b606082015260800190565b6020808252818101527f4f776e61626c653a2063616c6c6572206973206e6f7420746865206f776e6572604082015260600190565b6020808252600690820152651b1bd8dad95960d21b604082015260600190565b6020808252600f908201526e125b9d985b1a59081d985d5b1d1259608a1b604082015260600190565b6020808252600c908201526b085dda1a5d195b1a5cdd195960a21b604082015260600190565b60208082526008908201526710b6b0b730b3b2b960c11b604082015260600190565b60006101e0820190506001600160801b0380845116835280602085015116602084015263ffffffff604085015116604084015261ffff60608501511660608401528060808501511660808401525060a083015161358d60a0840182613328565b5060c08301516135a1610140840182613328565b5092915050565b9283526001600160a01b03919091166020830152604082015260600190565b60405160a081016001600160401b03811182821017156135e9576135e961389f565b60405290565b604080519081016001600160401b03811182821017156135e9576135e961389f565b604051606081016001600160401b03811182821017156135e9576135e961389f565b604051601f8201601f191681016001600160401b038111828210171561365b5761365b61389f565b604052919050565b60006001600160401b0382111561367c5761367c61389f565b5060051b60200190565b6000821982111561369957613699613889565b500190565b6000826136b957634e487b7160e01b81526012600452602481fd5b500490565b600181815b808511156136f95781600019048211156136df576136df613889565b808516156136ec57918102915b93841c93908002906136c3565b509250929050565b6000612306838360008261371757506001612309565b8161372457506000612309565b816001811461373a576002811461374457613760565b6001915050612309565b60ff84111561375557613755613889565b50506001821b612309565b5060208310610133831016604e8410600b8410161715613783575081810a612309565b61378d83836136be565b80600019048211156137a1576137a1613889565b029392505050565b60008160001904831182151516156137c3576137c3613889565b500290565b60006001600160801b03838116908316818110156137e8576137e8613889565b039392505050565b600061ffff838116908316818110156137e8576137e8613889565b60008282101561381d5761381d613889565b500390565b60005b8381101561383d578181015183820152602001613825565b838111156121085750506000910152565b600060001982141561386257613862613889565b5060010190565b600060ff821660ff81141561388057613880613889565b60010192915050565b634e487b7160e01b600052601160045260246000fd5b634e487b7160e01b600052604160045260246000fd5b6001600160a01b0381168114610d7257600080fd5b8015158114610d7257600080fd5b6001600160801b0381168114610d7257600080fd5b61ffff81168114610d7257600080fdfea2646970667358221220b1463e43adee398f92a6819119ed3a5dbd50ede93cbd0d4baa14c7c660b513d064736f6c63430008040033",
  "deployedBytecode": "0x6080604052600436106101665760003560e01c80638da5cb5b116100d1578063d0ebdbe71161008a578063f4d4c9d711610064578063f4d4c9d714610510578063f631685914610530578063fc38269514610543578063fc9b03331461056357600080fd5b8063d0ebdbe714610434578063d5da2bab14610454578063f2fde38b146104f057600080fd5b80638da5cb5b1461034f57806396721fbf14610381578063a7c6a100146103a1578063ac4b8a64146103d4578063ad70c3c7146103f4578063ca0502a41461041457600080fd5b80632e862d29116101235780632e862d291461029a5780633f489914146102ba578063548db174146102da578063715018a6146102fa5780637332655b1461030f5780637f6497831461032f57600080fd5b806306a45d3f1461016b57806315dc9bd8146101a15780631b358049146101c3578063222f6b83146101d8578063256d43d7146101f857806326161ec61461020b575b600080fd5b34801561017757600080fd5b5061018b6101863660046132e5565b610585565b604051610198919061352d565b60405180910390f35b3480156101ad57600080fd5b506101c16101bc366004612d64565b610666565b005b3480156101cf57600080fd5b506101c16107d3565b3480156101e457600080fd5b506101c16101f33660046132ff565b610927565b6101c16102063660046132e5565b6109da565b34801561021757600080fd5b5061022b6102263660046132e5565b610b89565b6040516101989190600060e0820190506001600160801b038084511683528060208501511660208401528060408501511660408401528060608501511660608401528060808501511660808401528060a08501511660a08401525061ffff60c08401511660c083015292915050565b3480156102a657600080fd5b506101c16102b5366004613072565b610d3f565b3480156102c657600080fd5b506101c16102d53660046132ff565b610d75565b3480156102e657600080fd5b506101c16102f5366004612cc9565b610ee4565b34801561030657600080fd5b506101c1610f84565b34801561031b57600080fd5b506101c161032a3660046132ff565b610fba565b34801561033b57600080fd5b506101c161034a366004612cc9565b611038565b34801561035b57600080fd5b506033546001600160a01b03165b6040516001600160a01b039091168152602001610198565b34801561038d57600080fd5b506101c161039c366004612fa8565b6110d8565b3480156103ad57600080fd5b506066546103c290600160a01b900460ff1681565b60405160ff9091168152602001610198565b3480156103e057600080fd5b50606654610369906001600160a01b031681565b34801561040057600080fd5b506101c161040f366004612e1b565b611330565b34801561042057600080fd5b506101c161042f366004612ed2565b611845565b34801561044057600080fd5b506101c161044f366004612c4e565b611a47565b34801561046057600080fd5b506104b561046f3660046132e5565b6067602052600090815260409020805460019091015460ff8083169261010081048216926001600160a01b036201000090920482169291811691600160a01b9091041685565b6040805160ff96871681529590941660208601526001600160a01b03928316938501939093521660608301521515608082015260a001610198565b3480156104fc57600080fd5b506101c161050b366004612c4e565b611a7a565b34801561051c57600080fd5b506101c161052b3660046132ff565b611b12565b6101c161053e3660046130a4565b611cd4565b34801561054f57600080fd5b506101c161055e366004612c6a565b612064565b34801561056f57600080fd5b5061057861210e565b604051610198919061338e565b61058d612a2d565b606654829060ff600160a01b9091048116908216106105c75760405162461bcd60e51b81526004016105be906134bc565b60405180910390fd5b60ff8316600090815260696020526040908190209051630aaf5c2360e21b81526004810182905273__$e36f5330ef2566ea8a183e1e27b10de643$__90632abd708c906024016101e06040518083038186803b15801561062657600080fd5b505af415801561063a573d6000803e3d6000fd5b505050506040513d601f19601f8201168201806040525081019061065e9190613203565b949350505050565b6066546001600160a01b031633146106905760405162461bcd60e51b81526004016105be9061350b565b60005b81518110156107cf5760008282815181106106be57634e487b7160e01b600052603260045260246000fd5b602090810291909101810151805160ff166000908152606990925260408220600581015460028201548254939550919392610727926001600160801b03600160801b8404811693610721939082169261071b9291821691166122fa565b906122fa565b9061230f565b905082602001516001600160801b031681111561077a5760405162461bcd60e51b815260206004820152601160248201527013585e0810d85c081d1bdbc81cdb585b1b607a1b60448201526064016105be565b50602090910151600190910180546001600160801b0390921666010000000000000275ffffffffffffffffffffffffffffffff00000000000019909216919091179055806107c78161384e565b915050610693565b5050565b336000908152606b602052604090205460ff166108025760405162461bcd60e51b81526004016105be906134e5565b606554156108225760405162461bcd60e51b81526004016105be9061349c565b6001606555336000908152606a60205260408120905b606654600160a81b900460ff1681101561091e5760ff81166000908152606860209081526040808320546001600160a01b031680845291859052909120548015610909576001600160a01b0382166000818152602086905260408082209190915551631a4ca37b60e21b815233600482015260248101839052604481019190915273__$e36f5330ef2566ea8a183e1e27b10de643$__906369328dec9060640160006040518083038186803b1580156108f057600080fd5b505af4158015610904573d6000803e3d6000fd5b505050505b505080806109169061384e565b915050610838565b50506000606555565b606654829060ff600160a01b9091048116908216106109585760405162461bcd60e51b81526004016105be906134bc565b60ff831660009081526069602052604090819020905163f6d4a19560e01b815273__$e36f5330ef2566ea8a183e1e27b10de643$__9163f6d4a195916109a59190339087906004016135a8565b60006040518083038186803b1580156109bd57600080fd5b505af41580156109d1573d6000803e3d6000fd5b50505050505050565b606654819060ff600160a01b909104811690821610610a0b5760405162461bcd60e51b81526004016105be906134bc565b60655415610a2b5760405162461bcd60e51b81526004016105be9061349c565b600160655534610a665760405162461bcd60e51b81526020600482015260066024820152652176616c756560d01b60448201526064016105be565b60ff82166000908152606760205260409020546201000090046001600160a01b03168015610abf5760405162461bcd60e51b81526004016105be906020808252600490820152630428aa8960e31b604082015260600190565b60ff83166000908152606960205260409020600181015463ffffffff16610b135760405162461bcd60e51b8152602060048201526008602482015267085cdd185c9d195960c21b60448201526064016105be565b604051633f7c9c6360e21b815273__$e36f5330ef2566ea8a183e1e27b10de643$__9063fdf2718c90610b4e908490339034906004016135a8565b60006040518083038186803b158015610b6657600080fd5b505af4158015610b7a573d6000803e3d6000fd5b50506000606555505050505050565b6040805160e081018252600080825260208201819052918101829052606081018290526080810182905260a0810182905260c0810191909152606654829060ff600160a01b909104811690821610610bf35760405162461bcd60e51b81526004016105be906134bc565b60ff8316600090815260696020526040808220905163f38f29dd60e01b81526004810182905290919073__$e36f5330ef2566ea8a183e1e27b10de643$__9063f38f29dd90602401604080518083038186803b158015610c5257600080fd5b505af4158015610c66573d6000803e3d6000fd5b505050506040513d601f19601f82011682018060405250810190610c8a91906132af565b33600090815260098501602052604090819020905163a8a328e760e01b8152600481018690526024810182905261ffff83166044820152919350915073__$e36f5330ef2566ea8a183e1e27b10de643$__9063a8a328e79060640160e06040518083038186803b158015610cfd57600080fd5b505af4158015610d11573d6000803e3d6000fd5b505050506040513d601f19601f82011682018060405250810190610d35919061314d565b9695505050505050565b6033546001600160a01b03163314610d695760405162461bcd60e51b81526004016105be90613467565b610d728161231b565b50565b606654829060ff600160a01b909104811690821610610da65760405162461bcd60e51b81526004016105be906134bc565b60655415610dc65760405162461bcd60e51b81526004016105be9061349c565b600160655560ff8316600090815260696020526040908190209051631d48b99160e21b815273__$e36f5330ef2566ea8a183e1e27b10de643$__91637522e64491610e189190339087906004016135a8565b60006040518083038186803b158015610e3057600080fd5b505af4158015610e44573d6000803e3d6000fd5b5050505060ff831660009081526067602052604090819020549051631a4ca37b60e21b815233600482015260248101849052620100009091046001600160a01b0316604482015273__$e36f5330ef2566ea8a183e1e27b10de643$__906369328dec9060640160006040518083038186803b158015610ec257600080fd5b505af4158015610ed6573d6000803e3d6000fd5b505060006065555050505050565b6066546001600160a01b03163314610f0e5760405162461bcd60e51b81526004016105be9061350b565b60005b81518110156107cf576000606b6000848481518110610f4057634e487b7160e01b600052603260045260246000fd5b6020908102919091018101516001600160a01b03168252810191909152604001600020805460ff191691151591909117905580610f7c8161384e565b915050610f11565b6033546001600160a01b03163314610fae5760405162461bcd60e51b81526004016105be90613467565b610fb86000612513565b565b606654829060ff600160a01b909104811690821610610feb5760405162461bcd60e51b81526004016105be906134bc565b60ff83166000908152606960205260409081902090516347e5296160e01b815273__$e36f5330ef2566ea8a183e1e27b10de643$__916347e52961916109a59190339087906004016135a8565b6066546001600160a01b031633146110625760405162461bcd60e51b81526004016105be9061350b565b60005b81518110156107cf576001606b600084848151811061109457634e487b7160e01b600052603260045260246000fd5b6020908102919091018101516001600160a01b03168252810191909152604001600020805460ff1916911515919091179055806110d08161384e565b915050611065565b6066546001600160a01b031633146111025760405162461bcd60e51b81526004016105be9061350b565b60005b81518110156107cf57600082828151811061113057634e487b7160e01b600052603260045260246000fd5b602002602001015190506000816020015161ffff161161117d5760405162461bcd60e51b8152602060048201526008602482015267217072656d69756d60c01b60448201526064016105be565b80516001600160801b03166111be5760405162461bcd60e51b815260206004820152600760248201526621737472696b6560c81b60448201526064016105be565b60408181015160ff16600090815260696020528190209051631d319eb160e31b81526004810182905273__$e36f5330ef2566ea8a183e1e27b10de643$__9063e98cf5889060240160006040518083038186803b15801561121e57600080fd5b505af4158015611232573d6000803e3d6000fd5b50505050600181810154640100000000900461ffff16116112885760405162461bcd60e51b815260206004820152601060248201526f139bc81cd95b1b1a5b99c81c9bdd5b9960821b60448201526064016105be565b600481015460028201906001600160a01b0316156112d75760405162461bcd60e51b815260206004820152600c60248201526b105b1c9958591e481cdbdb1960a21b60448201526064016105be565b82516001909101805460209094015161ffff16600160801b0271ffffffffffffffffffffffffffffffffffff199094166001600160801b03909216919091179290921790915550806113288161384e565b915050611105565b6066546001600160a01b0316331461135a5760405162461bcd60e51b81526004016105be9061350b565b60005b81518110156107cf57600082828151811061138857634e487b7160e01b600052603260045260246000fd5b60200260200101519050600081600001516001600160801b0316116113de5760405162461bcd60e51b815260206004820152600c60248201526b08595e1c1a5c9e53195d995b60a21b60448201526064016105be565b60208181015160ff16600090815260699091526040908190209051631d319eb160e31b81526004810182905273__$e36f5330ef2566ea8a183e1e27b10de643$__9063e98cf5889060240160006040518083038186803b15801561144157600080fd5b505af4158015611455573d6000803e3d6000fd5b505050506001810154600264010000000090910461ffff16116114ad5760405162461bcd60e51b815260206004820152601060248201526f139bc8195e1c1a5c9959081c9bdd5b9960821b60448201526064016105be565b6005810180546001600160801b031615806114d3575060028101546001600160a01b0316155b156114e057505050611833565b60018101546001600160801b03166115245760405162461bcd60e51b815260206004820152600760248201526621737472696b6560c81b60448201526064016105be565b6020838101805160ff90811660009081526067909352604080842054925182168452832060010154620100009092046001600160a01b03169291600160a01b9004166115a957845160018401546001600160801b0391821691161161158a5760006115e3565b845160018401546115a491906001600160801b03166137c8565b6115e3565b600183015485516001600160801b039182169116116115c95760006115e3565b600183015485516115e3916001600160801b0316906137c8565b60028401546001600160a01b03166000908152606a602090815260408083208983015160ff90811685526067909352908320600101546001600160801b039490941694509261166f91600160a01b9091041661164c5760018601546001600160801b031661164f565b87515b86546001600160801b039182169161166991879116612565565b90612571565b905061167a8161257d565b6001600160a01b03841660009081526020839052604090205461169e9082906122fa565b6001600160a01b03851660009081526020849052604081206001600160801b0392831690556001870154875491926116eb928592610721929190911690600160801b900461ffff166125c7565b8654909150600090611716906001600160801b031661166961170f6008600a613701565b8590612565565b90506117218161257d565b8088600801600060028b60010160049054906101000a900461ffff1661174791906137f0565b61ffff1681526020810191909152604001600090812080546001600160801b0319166001600160801b03938416179055885490916117979180821691611669918791600160801b90910416612565565b89549091506000906117ba908390600160801b90046001600160801b03166122fa565b90506117c58161257d565b89546001600160801b03908116600160801b83831602178b5560028b01546000916117f5911661071b878661230f565b90506118008161257d565b60029a909a0180546001600160801b0319166001600160801b03909b169a909a1790995550506000909555505050505050505b8061183d8161384e565b91505061135d565b6066546001600160a01b0316331461186f5760405162461bcd60e51b81526004016105be9061350b565b60005b81518110156107cf57600082828151811061189d57634e487b7160e01b600052603260045260246000fd5b602090810291909101810151805160ff16600090815260699092526040909120600181015491925090640100000000900461ffff16156119145760405162461bcd60e51b815260206004820152601260248201527130b63932b0b23c9035b4b1b5b2b21037b33360711b60448201526064016105be565b6000826040015160ff166000141561193a576119334262093a806122fa565b9050611964565b826040015160ff16600114156119565761193342610e106122fa565b61196142603c6122fa565b90505b63ffffffff8111156119ac5760405162461bcd60e51b815260206004820152601160248201527013dd995c999b1bddc818dd5d13d999905d607a1b60448201526064016105be565b60019091018054602084015160409094015165ffff000000001960ff909116600160b01b021676ff00000000000000000000000000000000ffff00000000196001600160801b0390951666010000000000000275ffffffffffffffffffffffffffffffff0000ffffffff1990921663ffffffff9094169390931717929092161764010000000017905580611a3f8161384e565b915050611872565b6033546001600160a01b03163314611a715760405162461bcd60e51b81526004016105be90613467565b610d72816125e3565b6033546001600160a01b03163314611aa45760405162461bcd60e51b81526004016105be90613467565b6001600160a01b038116611b095760405162461bcd60e51b815260206004820152602660248201527f4f776e61626c653a206e6577206f776e657220697320746865207a65726f206160448201526564647265737360d01b60648201526084016105be565b610d7281612513565b606654829060ff600160a01b909104811690821610611b435760405162461bcd60e51b81526004016105be906134bc565b60655415611b635760405162461bcd60e51b81526004016105be9061349c565b600160655581611b9f5760405162461bcd60e51b815260206004820152600760248201526608585b5bdd5b9d60ca1b60448201526064016105be565b60ff83166000908152606760205260409020546201000090046001600160a01b031680611bf45760405162461bcd60e51b815260206004820152600360248201526208aa8960eb1b60448201526064016105be565b60ff84166000908152606960205260409020600181015463ffffffff16611c485760405162461bcd60e51b8152602060048201526008602482015267085cdd185c9d195960c21b60448201526064016105be565b611c5d6001600160a01b03831633308761262b565b604051633f7c9c6360e21b815273__$e36f5330ef2566ea8a183e1e27b10de643$__9063fdf2718c90611c98908490339089906004016135a8565b60006040518083038186803b158015611cb057600080fd5b505af4158015611cc4573d6000803e3d6000fd5b5050600060655550505050505050565b336000908152606b602052604090205460ff16611d035760405162461bcd60e51b81526004016105be906134e5565b60655415611d235760405162461bcd60e51b81526004016105be9061349c565b60016065556000805b8251811015611fda576000838281518110611d5757634e487b7160e01b600052603260045260246000fd5b60209081029190910181015160ff8116600090815260699092526040918290209151631d319eb160e31b81526004810183905290925073__$e36f5330ef2566ea8a183e1e27b10de643$__9063e98cf5889060240160006040518083038186803b158015611dc457600080fd5b505af4158015611dd8573d6000803e3d6000fd5b505050506002810180546001600160801b0316611e295760405162461bcd60e51b815260206004820152600f60248201526e139bdd1a1a5b99c81d1bc81cd95b1b608a1b60448201526064016105be565b60028101546001600160a01b031615611e735760405162461bcd60e51b815260206004820152600c60248201526b105b1c9958591e481cdbdb1960a21b60448201526064016105be565b6005820154600090611e97906001600160801b03600160801b8204811691166137c8565b6001600160801b03161115611f3857600082600801600060028560010160049054906101000a900461ffff16611ecd91906137f0565b61ffff1681526020810191909152604001600020546001600160801b031611611f385760405162461bcd60e51b815260206004820152601e60248201527f457870697279206c6576656c206e6f742073706563696669656420796574000060448201526064016105be565b60018101548154600091611f60916001600160801b031690600160801b900461ffff16612685565b60ff85166000908152606760205260409020549091506201000090046001600160a01b031680611f9b57611f9487836122fa565b9650611fb0565b611fb06001600160a01b03821633308561262b565b505060020180546001600160a01b0319163317905550819050611fd28161384e565b915050611d2c565b503481101561201c5760405162461bcd60e51b815260206004820152600e60248201526d09cdee840cadcdeeaced040cae8d60931b60448201526064016105be565b3481111561091e57336108fc612032348461380b565b6040518115909202916000818181858888f1935050505015801561205a573d6000803e3d6000fd5b5050506000606555565b600054610100900460ff168061207d575060005460ff16155b6120995760405162461bcd60e51b81526004016105be90613419565b600054610100900460ff161580156120bb576000805461ffff19166101011790555b6001600160a01b0384166120ce57600080fd5b60006065556120db612697565b6120e484611a7a565b6120ed836125e3565b6120f68261231b565b8015612108576000805461ff00191690555b50505050565b336000908152606b602052604090205460609060ff166121405760405162461bcd60e51b81526004016105be906134e5565b336000908152606a6020526040812090805b606654600160a81b900460ff168110156121b95760ff81166000908152606860209081526040808320546001600160a01b0316808452918690529091205480156121a457836121a08161384e565b9450505b505080806121b19061384e565b915050612152565b506000816001600160401b038111156121e257634e487b7160e01b600052604160045260246000fd5b60405190808252806020026020018201604052801561222757816020015b60408051808201909152600080825260208201528152602001906001900390816122005790505b509050816122395792506122f7915050565b6000915060005b606654600160a81b900460ff168110156122f15760ff81166000908152606860209081526040808320546001600160a01b0316808452918790529091205480156122dc576040518060400160405280836001600160a01b03168152602001828152508486815181106122c257634e487b7160e01b600052603260045260246000fd5b602002602001018190525084806122d89061384e565b9550505b505080806122e99061384e565b915050612240565b50925050505b90565b60006123068284613686565b90505b92915050565b6000612306828461380b565b805160665460ff600160a01b8204811691600160a81b90041660005b838110156124dc57600085828151811061236157634e487b7160e01b600052603260045260246000fd5b602090810291909101015160ff85168152905080606760008661238381613869565b60ff9182168352602080840194909452604092830160009081208651815496880151958801516001600160a01b03908116620100000262010000600160b01b03199787166101000261ffff19909916929096169190911796909617949094169290921783556060850151600190930180546080909601511515600160a01b026001600160a81b03199096169390941692909217939093179091559450805b8460ff168110156124735760408084015160ff83166000908152606860205291909120546001600160a01b03908116911614156124615760019150612473565b8061246b8161384e565b915050612421565b50806124c7576040820151606860008661248c81613869565b975060ff1660ff16815260200190815260200160002060006101000a8154816001600160a01b0302191690836001600160a01b031602179055505b505080806124d49061384e565b915050612337565b506066805461ffff60a01b1916600160a01b60ff9485160260ff60a81b191617600160a81b92909316919091029190911790555050565b603380546001600160a01b038381166001600160a01b0319831681179093556040519116919082907f8be0079c531659141344cd1fd0a4f28419497f9722a3daafe3b4186f6b6457e090600090a35050565b600061230682846137a9565b6000612306828461369e565b6001600160801b03811115610d725760405162461bcd60e51b815260206004820152601060248201526f09eeccae4ccd8deee40ead2dce86264760831b60448201526064016105be565b60006123066127106116696125dc8583613686565b8690612565565b6001600160a01b0381166126095760405162461bcd60e51b81526004016105be9061350b565b606680546001600160a01b0319166001600160a01b0392909216919091179055565b604080516001600160a01b0385811660248301528416604482015260648082018490528251808303909101815260849091019091526020810180516001600160e01b03166323b872dd60e01b179052612108908590612712565b60006123066127106116698585612565565b600054610100900460ff16806126b0575060005460ff16155b6126cc5760405162461bcd60e51b81526004016105be90613419565b600054610100900460ff161580156126ee576000805461ffff19166101011790555b6126f66127e9565b6126fe612853565b8015610d72576000805461ff001916905550565b6000612767826040518060400160405280602081526020017f5361666545524332303a206c6f772d6c6576656c2063616c6c206661696c6564815250856001600160a01b03166128b39092919063ffffffff16565b8051909150156127e457808060200190518101906127859190613131565b6127e45760405162461bcd60e51b815260206004820152602a60248201527f5361666545524332303a204552433230206f7065726174696f6e20646964206e6044820152691bdd081cdd58d8d9595960b21b60648201526084016105be565b505050565b600054610100900460ff1680612802575060005460ff16155b61281e5760405162461bcd60e51b81526004016105be90613419565b600054610100900460ff161580156126fe576000805461ffff19166101011790558015610d72576000805461ff001916905550565b600054610100900460ff168061286c575060005460ff16155b6128885760405162461bcd60e51b81526004016105be90613419565b600054610100900460ff161580156128aa576000805461ffff19166101011790555b6126fe33612513565b60606128c284846000856128cc565b90505b9392505050565b60608247101561292d5760405162461bcd60e51b815260206004820152602660248201527f416464726573733a20696e73756666696369656e742062616c616e636520666f6044820152651c8818d85b1b60d21b60648201526084016105be565b843b61297b5760405162461bcd60e51b815260206004820152601d60248201527f416464726573733a2063616c6c20746f206e6f6e2d636f6e747261637400000060448201526064016105be565b600080866001600160a01b031685876040516129979190613372565b60006040518083038185875af1925050503d80600081146129d4576040519150601f19603f3d011682016040523d82523d6000602084013e6129d9565b606091505b50915091506129e98282866129f4565b979650505050505050565b60608315612a035750816128c5565b825115612a135782518084602001fd5b8160405162461bcd60e51b81526004016105be91906133e6565b6040805160e08101825260008082526020820181905291810182905260608101829052608081019190915260a08101612a8d6040805160a08101825260008082526020820181905291810182905260608101829052608081019190915290565b81526040805160a0810182526000808252602082810182905292820181905260608201819052608082015291015290565b600082601f830112612ace578081fd5b81356020612ae3612ade83613663565b613633565b8281528181019085830160a080860288018501891015612b01578687fd5b865b86811015612b865781838b031215612b19578788fd5b612b216135c7565b612b2a84612c3d565b8152612b37878501612c3d565b87820152604080850135612b4a816138b5565b90820152606084810135612b5d816138b5565b90820152608084810135612b70816138ca565b9082015285529385019391810191600101612b03565b509198975050505050505050565b600060a08284031215612ba5578081fd5b612bad6135c7565b90508151612bba816138d8565b81526020820151612bca816138d8565b60208201526040820151612bdd816138d8565b60408201526060820151612bf0816138ed565b60608201526080820151612c03816138b5565b608082015292915050565b8051612c19816138d8565b919050565b8051612c19816138ed565b805163ffffffff81168114612c1957600080fd5b803560ff81168114612c1957600080fd5b600060208284031215612c5f578081fd5b81356128c5816138b5565b600080600060608486031215612c7e578182fd5b8335612c89816138b5565b92506020840135612c99816138b5565b915060408401356001600160401b03811115612cb3578182fd5b612cbf86828701612abe565b9150509250925092565b60006020808385031215612cdb578182fd5b82356001600160401b03811115612cf0578283fd5b8301601f81018513612d00578283fd5b8035612d0e612ade82613663565b80828252848201915084840188868560051b8701011115612d2d578687fd5b8694505b83851015612d58578035612d44816138b5565b835260019490940193918501918501612d31565b50979650505050505050565b60006020808385031215612d76578182fd5b82356001600160401b03811115612d8b578283fd5b8301601f81018513612d9b578283fd5b8035612da9612ade82613663565b80828252848201915084840188868560061b8701011115612dc8578687fd5b8694505b83851015612d5857604080828b031215612de4578788fd5b612dec6135ef565b612df583612c3d565b815287830135612e04816138d8565b818901528452600195909501949286019201612dcc565b60006020808385031215612e2d578182fd5b82356001600160401b03811115612e42578283fd5b8301601f81018513612e52578283fd5b8035612e60612ade82613663565b80828252848201915084840188868560061b8701011115612e7f578687fd5b8694505b83851015612d5857604080828b031215612e9b578788fd5b612ea36135ef565b8235612eae816138d8565b8152612ebb838901612c3d565b818901528452600195909501949286019201612e83565b60006020808385031215612ee4578182fd5b82356001600160401b03811115612ef9578283fd5b8301601f81018513612f09578283fd5b8035612f17612ade82613663565b818152838101908385016060808502860187018a1015612f35578788fd5b8795505b84861015612f9a5780828b031215612f4f578788fd5b612f57613611565b612f6083612c3d565b815287830135612f6f816138d8565b818901526040612f80848201612c3d565b908201528452600195909501949286019290810190612f39565b509098975050505050505050565b60006020808385031215612fba578182fd5b82356001600160401b03811115612fcf578283fd5b8301601f81018513612fdf578283fd5b8035612fed612ade82613663565b818152838101908385016060808502860187018a101561300b578788fd5b8795505b84861015612f9a5780828b031215613025578788fd5b61302d613611565b8235613038816138d8565b815282880135613047816138ed565b818901526040613058848201612c3d565b90820152845260019590950194928601929081019061300f565b600060208284031215613083578081fd5b81356001600160401b03811115613098578182fd5b61065e84828501612abe565b600060208083850312156130b6578182fd5b82356001600160401b038111156130cb578283fd5b8301601f810185136130db578283fd5b80356130e9612ade82613663565b80828252848201915084840188868560051b8701011115613108578687fd5b8694505b83851015612d585761311d81612c3d565b83526001949094019391850191850161310c565b600060208284031215613142578081fd5b81516128c5816138ca565b600060e0828403121561315e578081fd5b60405160e081018181106001600160401b03821117156131805761318061389f565b604052825161318e816138d8565b8152602083015161319e816138d8565b602082015260408301516131b1816138d8565b604082015260608301516131c4816138d8565b60608201526131d560808401612c0e565b60808201526131e660a08401612c0e565b60a08201526131f760c08401612c1e565b60c08201529392505050565b60006101e08284031215613215578081fd5b60405160e081018181106001600160401b03821117156132375761323761389f565b6040528251613245816138d8565b81526020830151613255816138d8565b602082015261326660408401612c29565b60408201526060830151613279816138ed565b606082015261328a60808401612c0e565b608082015261329c8460a08501612b94565b60a08201526131f7846101408501612b94565b600080604083850312156132c1578182fd5b6132ca83612c29565b915060208301516132da816138ed565b809150509250929050565b6000602082840312156132f6578081fd5b61230682612c3d565b60008060408385031215613311578182fd5b61331a83612c3d565b946020939093013593505050565b80516001600160801b0390811683526020808301518216908401526040808301519091169083015260608082015161ffff16908301526080908101516001600160a01b0316910152565b60008251613384818460208701613822565b9190910192915050565b602080825282518282018190526000919060409081850190868401855b828110156133d957815180516001600160a01b031685528601518685015292840192908501906001016133ab565b5091979650505050505050565b6020815260008251806020840152613405816040850160208701613822565b601f01601f19169190910160400192915050565b6020808252602e908201527f496e697469616c697a61626c653a20636f6e747261637420697320616c72656160408201526d191e481a5b9a5d1a585b1a5e995960921b606082015260800190565b6020808252818101527f4f776e61626c653a2063616c6c6572206973206e6f7420746865206f776e6572604082015260600190565b6020808252600690820152651b1bd8dad95960d21b604082015260600190565b6020808252600f908201526e125b9d985b1a59081d985d5b1d1259608a1b604082015260600190565b6020808252600c908201526b085dda1a5d195b1a5cdd195960a21b604082015260600190565b60208082526008908201526710b6b0b730b3b2b960c11b604082015260600190565b60006101e0820190506001600160801b0380845116835280602085015116602084015263ffffffff604085015116604084015261ffff60608501511660608401528060808501511660808401525060a083015161358d60a0840182613328565b5060c08301516135a1610140840182613328565b5092915050565b9283526001600160a01b03919091166020830152604082015260600190565b60405160a081016001600160401b03811182821017156135e9576135e961389f565b60405290565b604080519081016001600160401b03811182821017156135e9576135e961389f565b604051606081016001600160401b03811182821017156135e9576135e961389f565b604051601f8201601f191681016001600160401b038111828210171561365b5761365b61389f565b604052919050565b60006001600160401b0382111561367c5761367c61389f565b5060051b60200190565b6000821982111561369957613699613889565b500190565b6000826136b957634e487b7160e01b81526012600452602481fd5b500490565b600181815b808511156136f95781600019048211156136df576136df613889565b808516156136ec57918102915b93841c93908002906136c3565b509250929050565b6000612306838360008261371757506001612309565b8161372457506000612309565b816001811461373a576002811461374457613760565b6001915050612309565b60ff84111561375557613755613889565b50506001821b612309565b5060208310610133831016604e8410600b8410161715613783575081810a612309565b61378d83836136be565b80600019048211156137a1576137a1613889565b029392505050565b60008160001904831182151516156137c3576137c3613889565b500290565b60006001600160801b03838116908316818110156137e8576137e8613889565b039392505050565b600061ffff838116908316818110156137e8576137e8613889565b60008282101561381d5761381d613889565b500390565b60005b8381101561383d578181015183820152602001613825565b838111156121085750506000910152565b600060001982141561386257613862613889565b5060010190565b600060ff821660ff81141561388057613880613889565b60010192915050565b634e487b7160e01b600052601160045260246000fd5b634e487b7160e01b600052604160045260246000fd5b6001600160a01b0381168114610d7257600080fd5b8015158114610d7257600080fd5b6001600160801b0381168114610d7257600080fd5b61ffff81168114610d7257600080fdfea2646970667358221220b1463e43adee398f92a6819119ed3a5dbd50ede93cbd0d4baa14c7c660b513d064736f6c63430008040033",
  "libraries": {
    "OptionLifecycle": "0xBF4510A4EB90d6EB28FdF55E94d9907251d8867B"
  },
  "devdoc": {
    "kind": "dev",
    "methods": {
      "owner()": {
        "details": "Returns the address of the current owner."
      },
      "renounceOwnership()": {
        "details": "Leaves the contract without owner. It will not be possible to call `onlyOwner` functions anymore. Can only be called by the current owner. NOTE: Renouncing ownership will leave the contract without an owner, thereby removing any functionality that is only available to the owner."
      },
      "transferOwnership(address)": {
        "details": "Transfers ownership of the contract to a new account (`newOwner`). Can only be called by the current owner."
      }
    },
    "version": 1
  },
  "userdoc": {
    "kind": "user",
    "methods": {},
    "version": 1
  },
  "storageLayout": {
    "storage": [
      {
        "astId": 130,
        "contract": "contracts/SingleDirectionOptionUpgradeable.sol:SingleDirectionOptionUpgradeable",
        "label": "_initialized",
        "offset": 0,
        "slot": "0",
        "type": "t_bool"
      },
      {
        "astId": 133,
        "contract": "contracts/SingleDirectionOptionUpgradeable.sol:SingleDirectionOptionUpgradeable",
        "label": "_initializing",
        "offset": 1,
        "slot": "0",
        "type": "t_bool"
      },
      {
        "astId": 213,
        "contract": "contracts/SingleDirectionOptionUpgradeable.sol:SingleDirectionOptionUpgradeable",
        "label": "__gap",
        "offset": 0,
        "slot": "1",
        "type": "t_array(t_uint256)50_storage"
      },
      {
        "astId": 10,
        "contract": "contracts/SingleDirectionOptionUpgradeable.sol:SingleDirectionOptionUpgradeable",
        "label": "_owner",
        "offset": 0,
        "slot": "51",
        "type": "t_address"
      },
      {
        "astId": 123,
        "contract": "contracts/SingleDirectionOptionUpgradeable.sol:SingleDirectionOptionUpgradeable",
        "label": "__gap",
        "offset": 0,
        "slot": "52",
        "type": "t_array(t_uint256)49_storage"
      },
      {
        "astId": 6212,
        "contract": "contracts/SingleDirectionOptionUpgradeable.sol:SingleDirectionOptionUpgradeable",
        "label": "locked",
        "offset": 0,
        "slot": "101",
        "type": "t_uint256"
      },
      {
        "astId": 6214,
        "contract": "contracts/SingleDirectionOptionUpgradeable.sol:SingleDirectionOptionUpgradeable",
        "label": "managerRoleAddress",
        "offset": 0,
        "slot": "102",
        "type": "t_address"
      },
      {
        "astId": 6216,
        "contract": "contracts/SingleDirectionOptionUpgradeable.sol:SingleDirectionOptionUpgradeable",
        "label": "vaultCount",
        "offset": 20,
        "slot": "102",
        "type": "t_uint8"
      },
      {
        "astId": 6218,
        "contract": "contracts/SingleDirectionOptionUpgradeable.sol:SingleDirectionOptionUpgradeable",
        "label": "assetCount",
        "offset": 21,
        "slot": "102",
        "type": "t_uint8"
      },
      {
        "astId": 6223,
        "contract": "contracts/SingleDirectionOptionUpgradeable.sol:SingleDirectionOptionUpgradeable",
        "label": "vaultDefinitions",
        "offset": 0,
        "slot": "103",
        "type": "t_mapping(t_uint8,t_struct(VaultDefinition)5836_storage)"
      },
      {
        "astId": 6227,
        "contract": "contracts/SingleDirectionOptionUpgradeable.sol:SingleDirectionOptionUpgradeable",
        "label": "assets",
        "offset": 0,
        "slot": "104",
        "type": "t_mapping(t_uint8,t_address)"
      },
      {
        "astId": 6232,
        "contract": "contracts/SingleDirectionOptionUpgradeable.sol:SingleDirectionOptionUpgradeable",
        "label": "vaultStates",
        "offset": 0,
        "slot": "105",
        "type": "t_mapping(t_uint8,t_struct(VaultState)5875_storage)"
      },
      {
        "astId": 6237,
        "contract": "contracts/SingleDirectionOptionUpgradeable.sol:SingleDirectionOptionUpgradeable",
        "label": "buyerStates",
        "offset": 0,
        "slot": "106",
        "type": "t_mapping(t_address,t_struct(OptionBuyerState)5880_storage)"
      },
      {
        "astId": 6244,
        "contract": "contracts/SingleDirectionOptionUpgradeable.sol:SingleDirectionOptionUpgradeable",
        "label": "whitelist",
        "offset": 0,
        "slot": "107",
        "type": "t_mapping(t_address,t_bool)"
      }
    ],
    "types": {
      "t_address": {
        "encoding": "inplace",
        "label": "address",
        "numberOfBytes": "20"
      },
      "t_array(t_uint256)49_storage": {
        "base": "t_uint256",
        "encoding": "inplace",
        "label": "uint256[49]",
        "numberOfBytes": "1568"
      },
      "t_array(t_uint256)50_storage": {
        "base": "t_uint256",
        "encoding": "inplace",
        "label": "uint256[50]",
        "numberOfBytes": "1600"
      },
      "t_bool": {
        "encoding": "inplace",
        "label": "bool",
        "numberOfBytes": "1"
      },
      "t_mapping(t_address,t_bool)": {
        "encoding": "mapping",
        "key": "t_address",
        "label": "mapping(address => bool)",
        "numberOfBytes": "32",
        "value": "t_bool"
      },
      "t_mapping(t_address,t_struct(OptionBuyerState)5880_storage)": {
        "encoding": "mapping",
        "key": "t_address",
        "label": "mapping(address => struct StructureData.OptionBuyerState)",
        "numberOfBytes": "32",
        "value": "t_struct(OptionBuyerState)5880_storage"
      },
      "t_mapping(t_address,t_struct(UserState)5895_storage)": {
        "encoding": "mapping",
        "key": "t_address",
        "label": "mapping(address => struct StructureData.UserState)",
        "numberOfBytes": "32",
        "value": "t_struct(UserState)5895_storage"
      },
      "t_mapping(t_address,t_uint256)": {
        "encoding": "mapping",
        "key": "t_address",
        "label": "mapping(address => uint256)",
        "numberOfBytes": "32",
        "value": "t_uint256"
      },
      "t_mapping(t_uint16,t_uint128)": {
        "encoding": "mapping",
        "key": "t_uint16",
        "label": "mapping(uint16 => uint128)",
        "numberOfBytes": "32",
        "value": "t_uint128"
      },
      "t_mapping(t_uint8,t_address)": {
        "encoding": "mapping",
        "key": "t_uint8",
        "label": "mapping(uint8 => address)",
        "numberOfBytes": "32",
        "value": "t_address"
      },
      "t_mapping(t_uint8,t_struct(VaultDefinition)5836_storage)": {
        "encoding": "mapping",
        "key": "t_uint8",
        "label": "mapping(uint8 => struct StructureData.VaultDefinition)",
        "numberOfBytes": "32",
        "value": "t_struct(VaultDefinition)5836_storage"
      },
      "t_mapping(t_uint8,t_struct(VaultState)5875_storage)": {
        "encoding": "mapping",
        "key": "t_uint8",
        "label": "mapping(uint8 => struct StructureData.VaultState)",
        "numberOfBytes": "32",
        "value": "t_struct(VaultState)5875_storage"
      },
      "t_struct(OptionBuyerState)5880_storage": {
        "encoding": "inplace",
        "label": "struct StructureData.OptionBuyerState",
        "members": [
          {
            "astId": 5879,
            "contract": "contracts/SingleDirectionOptionUpgradeable.sol:SingleDirectionOptionUpgradeable",
            "label": "optionValueToCollect",
            "offset": 0,
            "slot": "0",
            "type": "t_mapping(t_address,t_uint256)"
          }
        ],
        "numberOfBytes": "32"
      },
      "t_struct(OptionState)5847_storage": {
        "encoding": "inplace",
        "label": "struct StructureData.OptionState",
        "members": [
          {
            "astId": 5838,
            "contract": "contracts/SingleDirectionOptionUpgradeable.sol:SingleDirectionOptionUpgradeable",
            "label": "amount",
            "offset": 0,
            "slot": "0",
            "type": "t_uint128"
          },
          {
            "astId": 5840,
            "contract": "contracts/SingleDirectionOptionUpgradeable.sol:SingleDirectionOptionUpgradeable",
            "label": "queuedRedeemAmount",
            "offset": 16,
            "slot": "0",
            "type": "t_uint128"
          },
          {
            "astId": 5842,
            "contract": "contracts/SingleDirectionOptionUpgradeable.sol:SingleDirectionOptionUpgradeable",
            "label": "strike",
            "offset": 0,
            "slot": "1",
            "type": "t_uint128"
          },
          {
            "astId": 5844,
            "contract": "contracts/SingleDirectionOptionUpgradeable.sol:SingleDirectionOptionUpgradeable",
            "label": "premiumRate",
            "offset": 16,
            "slot": "1",
            "type": "t_uint16"
          },
          {
            "astId": 5846,
            "contract": "contracts/SingleDirectionOptionUpgradeable.sol:SingleDirectionOptionUpgradeable",
            "label": "buyerAddress",
            "offset": 0,
            "slot": "2",
            "type": "t_address"
          }
        ],
        "numberOfBytes": "96"
      },
      "t_struct(UserState)5895_storage": {
        "encoding": "inplace",
        "label": "struct StructureData.UserState",
        "members": [
          {
            "astId": 5882,
            "contract": "contracts/SingleDirectionOptionUpgradeable.sol:SingleDirectionOptionUpgradeable",
            "label": "pending",
            "offset": 0,
            "slot": "0",
            "type": "t_uint128"
          },
          {
            "astId": 5884,
            "contract": "contracts/SingleDirectionOptionUpgradeable.sol:SingleDirectionOptionUpgradeable",
            "label": "redeemed",
            "offset": 16,
            "slot": "0",
            "type": "t_uint128"
          },
          {
            "astId": 5886,
            "contract": "contracts/SingleDirectionOptionUpgradeable.sol:SingleDirectionOptionUpgradeable",
            "label": "expiredAmount",
            "offset": 0,
            "slot": "1",
            "type": "t_uint128"
          },
          {
            "astId": 5888,
            "contract": "contracts/SingleDirectionOptionUpgradeable.sol:SingleDirectionOptionUpgradeable",
            "label": "expiredQueuedRedeemAmount",
            "offset": 16,
            "slot": "1",
            "type": "t_uint128"
          },
          {
            "astId": 5890,
            "contract": "contracts/SingleDirectionOptionUpgradeable.sol:SingleDirectionOptionUpgradeable",
            "label": "onGoingAmount",
            "offset": 0,
            "slot": "2",
            "type": "t_uint128"
          },
          {
            "astId": 5892,
            "contract": "contracts/SingleDirectionOptionUpgradeable.sol:SingleDirectionOptionUpgradeable",
            "label": "onGoingQueuedRedeemAmount",
            "offset": 16,
            "slot": "2",
            "type": "t_uint128"
          },
          {
            "astId": 5894,
            "contract": "contracts/SingleDirectionOptionUpgradeable.sol:SingleDirectionOptionUpgradeable",
            "label": "lastUpdateRound",
            "offset": 0,
            "slot": "3",
            "type": "t_uint16"
          }
        ],
        "numberOfBytes": "128"
      },
      "t_struct(VaultDefinition)5836_storage": {
        "encoding": "inplace",
        "label": "struct StructureData.VaultDefinition",
        "members": [
          {
            "astId": 5827,
            "contract": "contracts/SingleDirectionOptionUpgradeable.sol:SingleDirectionOptionUpgradeable",
            "label": "vaultId",
            "offset": 0,
            "slot": "0",
            "type": "t_uint8"
          },
          {
            "astId": 5829,
            "contract": "contracts/SingleDirectionOptionUpgradeable.sol:SingleDirectionOptionUpgradeable",
            "label": "assetAmountDecimals",
            "offset": 1,
            "slot": "0",
            "type": "t_uint8"
          },
          {
            "astId": 5831,
            "contract": "contracts/SingleDirectionOptionUpgradeable.sol:SingleDirectionOptionUpgradeable",
            "label": "asset",
            "offset": 2,
            "slot": "0",
            "type": "t_address"
          },
          {
            "astId": 5833,
            "contract": "contracts/SingleDirectionOptionUpgradeable.sol:SingleDirectionOptionUpgradeable",
            "label": "underlying",
            "offset": 0,
            "slot": "1",
            "type": "t_address"
          },
          {
            "astId": 5835,
            "contract": "contracts/SingleDirectionOptionUpgradeable.sol:SingleDirectionOptionUpgradeable",
            "label": "callOrPut",
            "offset": 20,
            "slot": "1",
            "type": "t_bool"
          }
        ],
        "numberOfBytes": "64"
      },
      "t_struct(VaultState)5875_storage": {
        "encoding": "inplace",
        "label": "struct StructureData.VaultState",
        "members": [
          {
            "astId": 5849,
            "contract": "contracts/SingleDirectionOptionUpgradeable.sol:SingleDirectionOptionUpgradeable",
            "label": "totalPending",
            "offset": 0,
            "slot": "0",
            "type": "t_uint128"
          },
          {
            "astId": 5851,
            "contract": "contracts/SingleDirectionOptionUpgradeable.sol:SingleDirectionOptionUpgradeable",
            "label": "totalRedeemed",
            "offset": 16,
            "slot": "0",
            "type": "t_uint128"
          },
          {
            "astId": 5853,
            "contract": "contracts/SingleDirectionOptionUpgradeable.sol:SingleDirectionOptionUpgradeable",
            "label": "cutOffAt",
            "offset": 0,
            "slot": "1",
            "type": "t_uint32"
          },
          {
            "astId": 5855,
            "contract": "contracts/SingleDirectionOptionUpgradeable.sol:SingleDirectionOptionUpgradeable",
            "label": "currentRound",
            "offset": 4,
            "slot": "1",
            "type": "t_uint16"
          },
          {
            "astId": 5857,
            "contract": "contracts/SingleDirectionOptionUpgradeable.sol:SingleDirectionOptionUpgradeable",
            "label": "maxCapacity",
            "offset": 6,
            "slot": "1",
            "type": "t_uint128"
          },
          {
            "astId": 5859,
            "contract": "contracts/SingleDirectionOptionUpgradeable.sol:SingleDirectionOptionUpgradeable",
            "label": "environment",
            "offset": 22,
            "slot": "1",
            "type": "t_uint8"
          },
          {
            "astId": 5862,
            "contract": "contracts/SingleDirectionOptionUpgradeable.sol:SingleDirectionOptionUpgradeable",
            "label": "onGoing",
            "offset": 0,
            "slot": "2",
            "type": "t_struct(OptionState)5847_storage"
          },
          {
            "astId": 5865,
            "contract": "contracts/SingleDirectionOptionUpgradeable.sol:SingleDirectionOptionUpgradeable",
            "label": "expired",
            "offset": 0,
            "slot": "5",
            "type": "t_struct(OptionState)5847_storage"
          },
          {
            "astId": 5869,
            "contract": "contracts/SingleDirectionOptionUpgradeable.sol:SingleDirectionOptionUpgradeable",
            "label": "depositPriceAfterExpiryPerRound",
            "offset": 0,
            "slot": "8",
            "type": "t_mapping(t_uint16,t_uint128)"
          },
          {
            "astId": 5874,
            "contract": "contracts/SingleDirectionOptionUpgradeable.sol:SingleDirectionOptionUpgradeable",
            "label": "userStates",
            "offset": 0,
            "slot": "9",
            "type": "t_mapping(t_address,t_struct(UserState)5895_storage)"
          }
        ],
        "numberOfBytes": "320"
      },
      "t_uint128": {
        "encoding": "inplace",
        "label": "uint128",
        "numberOfBytes": "16"
      },
      "t_uint16": {
        "encoding": "inplace",
        "label": "uint16",
        "numberOfBytes": "2"
      },
      "t_uint256": {
        "encoding": "inplace",
        "label": "uint256",
        "numberOfBytes": "32"
      },
      "t_uint32": {
        "encoding": "inplace",
        "label": "uint32",
        "numberOfBytes": "4"
      },
      "t_uint8": {
        "encoding": "inplace",
        "label": "uint8",
        "numberOfBytes": "1"
      }
    }
  }
}