{
  "address": "0xf39CC72a7Fb849320daB20D91E1069Df7f3879fb",
  "abi": [
    {
      "anonymous": false,
      "inputs": [
        {
          "indexed": true,
          "internalType": "address",
          "name": "previousOwner",
          "type": "address"
        },
        {
          "indexed": true,
          "internalType": "address",
          "name": "newOwner",
          "type": "address"
        }
      ],
      "name": "OwnershipTransferred",
      "type": "event"
    },
    {
      "inputs": [
        {
          "internalType": "address[]",
          "name": "_whitelistAddresses",
          "type": "address[]"
        }
      ],
      "name": "addToWhitelist",
      "outputs": [],
      "stateMutability": "nonpayable",
      "type": "function"
    },
    {
      "inputs": [
        {
          "components": [
            {
              "internalType": "uint8",
              "name": "vaultId",
              "type": "uint8"
            },
            {
              "internalType": "uint8",
              "name": "assetAmountDecimals",
              "type": "uint8"
            },
            {
              "internalType": "address",
              "name": "asset",
              "type": "address"
            },
            {
              "internalType": "address",
              "name": "underlying",
              "type": "address"
            },
            {
              "internalType": "bool",
              "name": "callOrPut",
              "type": "bool"
            }
          ],
          "internalType": "struct StructureData.VaultDefinition[]",
          "name": "_vaultDefinitions",
          "type": "tuple[]"
        }
      ],
      "name": "addVaults",
      "outputs": [],
      "stateMutability": "nonpayable",
      "type": "function"
    },
    {
      "inputs": [
        {
          "internalType": "uint8[]",
          "name": "_vaultIds",
          "type": "uint8[]"
        }
      ],
      "name": "buyOptions",
      "outputs": [],
      "stateMutability": "payable",
      "type": "function"
    },
    {
      "inputs": [
        {
          "internalType": "uint8",
          "name": "_vaultId",
          "type": "uint8"
        },
        {
          "internalType": "uint256",
          "name": "_redeemAmount",
          "type": "uint256"
        }
      ],
      "name": "cancelWithdraw",
      "outputs": [],
      "stateMutability": "nonpayable",
      "type": "function"
    },
    {
      "inputs": [],
      "name": "collectOptionHolderValues",
      "outputs": [],
      "stateMutability": "nonpayable",
      "type": "function"
    },
    {
      "inputs": [
        {
          "internalType": "uint8",
          "name": "_vaultId",
          "type": "uint8"
        },
        {
          "internalType": "uint256",
          "name": "_amount",
          "type": "uint256"
        }
      ],
      "name": "deposit",
      "outputs": [],
      "stateMutability": "nonpayable",
      "type": "function"
    },
    {
      "inputs": [
        {
          "internalType": "uint8",
          "name": "_vaultId",
          "type": "uint8"
        }
      ],
      "name": "depositETH",
      "outputs": [],
      "stateMutability": "payable",
      "type": "function"
    },
    {
      "inputs": [
        {
          "components": [
            {
              "internalType": "uint128",
              "name": "expiryLevel",
              "type": "uint128"
            },
            {
              "internalType": "uint8",
              "name": "vaultId",
              "type": "uint8"
            }
          ],
          "internalType": "struct StructureData.ExpiredOptionParameters[]",
          "name": "_expiryParameters",
          "type": "tuple[]"
        }
      ],
      "name": "expireOptions",
      "outputs": [],
      "stateMutability": "nonpayable",
      "type": "function"
    },
    {
      "inputs": [],
      "name": "expiredHistory",
      "outputs": [
        {
          "components": [
            {
              "internalType": "uint128",
              "name": "amount",
              "type": "uint128"
            },
            {
              "internalType": "uint128",
              "name": "strike",
              "type": "uint128"
            },
            {
              "internalType": "uint128",
              "name": "expiryLevel",
              "type": "uint128"
            },
            {
              "internalType": "uint16",
              "name": "round",
              "type": "uint16"
            },
            {
              "internalType": "uint8",
              "name": "vaultId",
              "type": "uint8"
            },
            {
              "internalType": "uint16",
              "name": "premiumRate",
              "type": "uint16"
            },
            {
              "internalType": "uint256",
              "name": "optionHolderValue",
              "type": "uint256"
            }
          ],
          "internalType": "struct StructureData.ExpiredVaultState[]",
          "name": "",
          "type": "tuple[]"
        }
      ],
      "stateMutability": "view",
      "type": "function"
    },
    {
      "inputs": [
        {
          "internalType": "uint8",
          "name": "_vaultId",
          "type": "uint8"
        }
      ],
      "name": "getUserState",
      "outputs": [
        {
          "components": [
            {
              "internalType": "uint128",
              "name": "pending",
              "type": "uint128"
            },
            {
              "internalType": "uint128",
              "name": "redeemed",
              "type": "uint128"
            },
            {
              "internalType": "uint128",
              "name": "expiredAmount",
              "type": "uint128"
            },
            {
              "internalType": "uint128",
              "name": "expiredQueuedRedeemAmount",
              "type": "uint128"
            },
            {
              "internalType": "uint128",
              "name": "onGoingAmount",
              "type": "uint128"
            },
            {
              "internalType": "uint128",
              "name": "onGoingQueuedRedeemAmount",
              "type": "uint128"
            },
            {
              "internalType": "uint16",
              "name": "lastUpdateRound",
              "type": "uint16"
            }
          ],
          "internalType": "struct StructureData.UserState",
          "name": "",
          "type": "tuple"
        }
      ],
      "stateMutability": "view",
      "type": "function"
    },
    {
      "inputs": [
        {
          "internalType": "uint8",
          "name": "_vaultId",
          "type": "uint8"
        }
      ],
      "name": "getVaultState",
      "outputs": [
        {
          "components": [
            {
              "internalType": "uint128",
              "name": "totalPending",
              "type": "uint128"
            },
            {
              "internalType": "uint128",
              "name": "totalRedeemed",
              "type": "uint128"
            },
            {
              "internalType": "uint32",
              "name": "cutOffAt",
              "type": "uint32"
            },
            {
              "internalType": "uint16",
              "name": "currentRound",
              "type": "uint16"
            },
            {
              "internalType": "uint128",
              "name": "maxCapacity",
              "type": "uint128"
            },
            {
              "components": [
                {
                  "internalType": "uint128",
                  "name": "amount",
                  "type": "uint128"
                },
                {
                  "internalType": "uint128",
                  "name": "queuedRedeemAmount",
                  "type": "uint128"
                },
                {
                  "internalType": "uint128",
                  "name": "strike",
                  "type": "uint128"
                },
                {
                  "internalType": "uint16",
                  "name": "premiumRate",
                  "type": "uint16"
                },
                {
                  "internalType": "address",
                  "name": "buyerAddress",
                  "type": "address"
                }
              ],
              "internalType": "struct StructureData.OptionState",
              "name": "onGoing",
              "type": "tuple"
            },
            {
              "components": [
                {
                  "internalType": "uint128",
                  "name": "amount",
                  "type": "uint128"
                },
                {
                  "internalType": "uint128",
                  "name": "queuedRedeemAmount",
                  "type": "uint128"
                },
                {
                  "internalType": "uint128",
                  "name": "strike",
                  "type": "uint128"
                },
                {
                  "internalType": "uint16",
                  "name": "premiumRate",
                  "type": "uint16"
                },
                {
                  "internalType": "address",
                  "name": "buyerAddress",
                  "type": "address"
                }
              ],
              "internalType": "struct StructureData.OptionState",
              "name": "expired",
              "type": "tuple"
            }
          ],
          "internalType": "struct StructureData.VaultSnapShot",
          "name": "",
          "type": "tuple"
        }
      ],
      "stateMutability": "view",
      "type": "function"
    },
    {
      "inputs": [
        {
          "internalType": "address",
          "name": "_owner",
          "type": "address"
        },
        {
          "internalType": "address",
          "name": "_manager",
          "type": "address"
        },
        {
          "components": [
            {
              "internalType": "uint8",
              "name": "vaultId",
              "type": "uint8"
            },
            {
              "internalType": "uint8",
              "name": "assetAmountDecimals",
              "type": "uint8"
            },
            {
              "internalType": "address",
              "name": "asset",
              "type": "address"
            },
            {
              "internalType": "address",
              "name": "underlying",
              "type": "address"
            },
            {
              "internalType": "bool",
              "name": "callOrPut",
              "type": "bool"
            }
          ],
          "internalType": "struct StructureData.VaultDefinition[]",
          "name": "_vaultDefinitions",
          "type": "tuple[]"
        }
      ],
      "name": "initialize",
      "outputs": [],
      "stateMutability": "nonpayable",
      "type": "function"
    },
    {
      "inputs": [
        {
          "internalType": "uint8",
          "name": "_vaultId",
          "type": "uint8"
        },
        {
          "internalType": "uint256",
          "name": "_redeemAmount",
          "type": "uint256"
        }
      ],
      "name": "initiateWithraw",
      "outputs": [],
      "stateMutability": "nonpayable",
      "type": "function"
    },
    {
      "inputs": [
        {
          "components": [
            {
              "internalType": "uint8",
              "name": "vaultId",
              "type": "uint8"
            },
            {
              "internalType": "uint128",
              "name": "maxCapacity",
              "type": "uint128"
            },
            {
              "internalType": "uint8",
              "name": "environment",
              "type": "uint8"
            }
          ],
          "internalType": "struct StructureData.KickOffOptionParameters[]",
          "name": "_kickoffs",
          "type": "tuple[]"
        }
      ],
      "name": "kickOffOptions",
      "outputs": [],
      "stateMutability": "nonpayable",
      "type": "function"
    },
    {
      "inputs": [],
      "name": "managerRoleAddress",
      "outputs": [
        {
          "internalType": "address",
          "name": "",
          "type": "address"
        }
      ],
      "stateMutability": "view",
      "type": "function"
    },
    {
      "inputs": [],
      "name": "optionHolderValues",
      "outputs": [
        {
          "components": [
            {
              "internalType": "address",
              "name": "asset",
              "type": "address"
            },
            {
              "internalType": "uint256",
              "name": "amount",
              "type": "uint256"
            }
          ],
          "internalType": "struct StructureData.CollectableValue[]",
          "name": "",
          "type": "tuple[]"
        }
      ],
      "stateMutability": "view",
      "type": "function"
    },
    {
      "inputs": [],
      "name": "owner",
      "outputs": [
        {
          "internalType": "address",
          "name": "",
          "type": "address"
        }
      ],
      "stateMutability": "view",
      "type": "function"
    },
    {
      "inputs": [
        {
          "internalType": "address[]",
          "name": "_delistAddresses",
          "type": "address[]"
        }
      ],
      "name": "removeFromWhitelist",
      "outputs": [],
      "stateMutability": "nonpayable",
      "type": "function"
    },
    {
      "inputs": [],
      "name": "renounceOwnership",
      "outputs": [],
      "stateMutability": "nonpayable",
      "type": "function"
    },
    {
      "inputs": [
        {
          "components": [
            {
              "internalType": "uint128",
              "name": "strike",
              "type": "uint128"
            },
            {
              "internalType": "uint16",
              "name": "premiumRate",
              "type": "uint16"
            },
            {
              "internalType": "uint8",
              "name": "vaultId",
              "type": "uint8"
            }
          ],
          "internalType": "struct StructureData.OnGoingOptionParameters[]",
          "name": "_ongoingParameters",
          "type": "tuple[]"
        }
      ],
      "name": "sellOptions",
      "outputs": [],
      "stateMutability": "nonpayable",
      "type": "function"
    },
    {
      "inputs": [
        {
          "components": [
            {
              "internalType": "uint8",
              "name": "vaultId",
              "type": "uint8"
            },
            {
              "internalType": "uint128",
              "name": "maxCapacity",
              "type": "uint128"
            }
          ],
          "internalType": "struct StructureData.CapacityParameters[]",
          "name": "_capacities",
          "type": "tuple[]"
        }
      ],
      "name": "setCapacities",
      "outputs": [],
      "stateMutability": "nonpayable",
      "type": "function"
    },
    {
      "inputs": [
        {
          "internalType": "address",
          "name": "_manager",
          "type": "address"
        }
      ],
      "name": "setManager",
      "outputs": [],
      "stateMutability": "nonpayable",
      "type": "function"
    },
    {
      "inputs": [
        {
          "internalType": "address",
          "name": "newOwner",
          "type": "address"
        }
      ],
      "name": "transferOwnership",
      "outputs": [],
      "stateMutability": "nonpayable",
      "type": "function"
    },
    {
      "inputs": [],
      "name": "vaultCount",
      "outputs": [
        {
          "internalType": "uint8",
          "name": "",
          "type": "uint8"
        }
      ],
      "stateMutability": "view",
      "type": "function"
    },
    {
      "inputs": [
        {
          "internalType": "uint8",
          "name": "",
          "type": "uint8"
        }
      ],
      "name": "vaultDefinitions",
      "outputs": [
        {
          "internalType": "uint8",
          "name": "vaultId",
          "type": "uint8"
        },
        {
          "internalType": "uint8",
          "name": "assetAmountDecimals",
          "type": "uint8"
        },
        {
          "internalType": "address",
          "name": "asset",
          "type": "address"
        },
        {
          "internalType": "address",
          "name": "underlying",
          "type": "address"
        },
        {
          "internalType": "bool",
          "name": "callOrPut",
          "type": "bool"
        }
      ],
      "stateMutability": "view",
      "type": "function"
    },
    {
      "inputs": [],
      "name": "whitelistTraders",
      "outputs": [
        {
          "internalType": "address[]",
          "name": "",
          "type": "address[]"
        }
      ],
      "stateMutability": "view",
      "type": "function"
    },
    {
      "inputs": [
        {
          "internalType": "uint8",
          "name": "_vaultId",
          "type": "uint8"
        },
        {
          "internalType": "uint256",
          "name": "_amount",
          "type": "uint256"
        }
      ],
      "name": "withdraw",
      "outputs": [],
      "stateMutability": "nonpayable",
      "type": "function"
    }
  ],
  "transactionHash": "0x7a5fecfbf22eff41a9a1a7b73086233d7cf63eaa0d2a7f3b69581d9dfe5d5778",
  "args": [],
  "solcInputHash": "beffe41991a2b3ff464f9e748f491151",
  "bytecode": "0x608060405234801561001057600080fd5b50613fe1806100206000396000f3fe60806040526004361061019c5760003560e01c806396721fbf116100ec578063d0ebdbe71161008a578063f4d4c9d711610064578063f4d4c9d71461058a578063f6316859146105aa578063fc382695146105bd578063fc9b0333146105dd57600080fd5b8063d0ebdbe7146104ae578063d5da2bab146104ce578063f2fde38b1461056a57600080fd5b8063ad70c3c7116100c6578063ad70c3c71461042a578063c4173ba91461044a578063c62f673b1461046c578063ca0502a41461048e57600080fd5b806396721fbf146103b7578063a7c6a100146103d7578063ac4b8a641461040a57600080fd5b80632e862d2911610159578063715018a611610133578063715018a6146103305780637332655b146103455780637f649783146103655780638da5cb5b1461038557600080fd5b80632e862d29146102d05780633f489914146102f0578063548db1741461031057600080fd5b806306a45d3f146101a157806315dc9bd8146101d75780631b358049146101f9578063222f6b831461020e578063256d43d71461022e57806326161ec614610241575b600080fd5b3480156101ad57600080fd5b506101c16101bc3660046138dc565b6105ff565b6040516101ce9190613be2565b60405180910390f35b3480156101e357600080fd5b506101f76101f236600461335b565b6106e0565b005b34801561020557600080fd5b506101f7610851565b34801561021a57600080fd5b506101f76102293660046138f6565b6109c4565b6101f761023c3660046138dc565b610a77565b34801561024d57600080fd5b5061026161025c3660046138dc565b610c26565b6040516101ce9190600060e0820190506001600160801b038084511683528060208501511660208401528060408501511660408401528060608501511660608401528060808501511660808401528060a08501511660a08401525061ffff60c08401511660c083015292915050565b3480156102dc57600080fd5b506101f76102eb366004613669565b610ddc565b3480156102fc57600080fd5b506101f761030b3660046138f6565b610e12565b34801561031c57600080fd5b506101f761032b3660046132c0565b610f81565b34801561033c57600080fd5b506101f7611021565b34801561035157600080fd5b506101f76103603660046138f6565b611057565b34801561037157600080fd5b506101f76103803660046132c0565b6110d5565b34801561039157600080fd5b506033546001600160a01b03165b6040516001600160a01b0390911681526020016101ce565b3480156103c357600080fd5b506101f76103d236600461359f565b611254565b3480156103e357600080fd5b506066546103f890600160a01b900460ff1681565b60405160ff90911681526020016101ce565b34801561041657600080fd5b5060665461039f906001600160a01b031681565b34801561043657600080fd5b506101f7610445366004613412565b6114a1565b34801561045657600080fd5b5061045f611ad1565b6040516101ce9190613985565b34801561047857600080fd5b50610481611c74565b6040516101ce9190613a2a565b34801561049a57600080fd5b506101f76104a93660046134c9565b611e0f565b3480156104ba57600080fd5b506101f76104c9366004613245565b612011565b3480156104da57600080fd5b5061052f6104e93660046138dc565b6067602052600090815260409020805460019091015460ff8083169261010081048216926001600160a01b036201000090920482169291811691600160a01b9091041685565b6040805160ff96871681529590941660208601526001600160a01b03928316938501939093521660608301521515608082015260a0016101ce565b34801561057657600080fd5b506101f7610585366004613245565b612044565b34801561059657600080fd5b506101f76105a53660046138f6565b6120dc565b6101f76105b836600461369b565b61229e565b3480156105c957600080fd5b506101f76105d8366004613261565b61268c565b3480156105e957600080fd5b506105f2612736565b6040516101ce91906139d2565b610607613024565b606654829060ff600160a01b9091048116908216106106415760405162461bcd60e51b815260040161063890613b97565b60405180910390fd5b60ff8316600090815260696020526040908190209051630aaf5c2360e21b81526004810182905273F600AD9c330753499a12A39F81F1859A9b9697A290632abd708c906024016101e06040518083038186803b1580156106a057600080fd5b505af41580156106b4573d6000803e3d6000fd5b505050506040513d601f19601f820116820180604052508101906106d891906137fa565b949350505050565b6066546001600160a01b0316331461070a5760405162461bcd60e51b815260040161063890613bc0565b60005b815181101561084d57600082828151811061073857634e487b7160e01b600052603260045260246000fd5b602090810291909101810151805160ff1660009081526069909252604082206005810154600282015482549395509193926107a1926001600160801b03600160801b840481169361079b93908216926107959291821691166128ee565b906128ee565b90612903565b905082602001516001600160801b03168111156107f85760405162461bcd60e51b815260206004820152601560248201527413585e0810d85c081b195cdcc81d1a185b881d1d9b605a1b6044820152606401610638565b50602090910151600190910180546001600160801b0390921666010000000000000275ffffffffffffffffffffffffffffffff000000000000199092169190911790558061084581613efc565b91505061070d565b5050565b336000908152606b602052604090205460ff1661089f5760405162461bcd60e51b815260206004820152600c60248201526b085dda1a5d195b1a5cdd195960a21b6044820152606401610638565b606554156108bf5760405162461bcd60e51b815260040161063890613b77565b6001606555336000908152606a60205260408120905b606654600160a81b900460ff168110156109bb5760ff81166000908152606860209081526040808320546001600160a01b0316808452918590529091205480156109a6576001600160a01b0382166000818152602086905260408082209190915551631a4ca37b60e21b815233600482015260248101839052604481019190915273F600AD9c330753499a12A39F81F1859A9b9697A2906369328dec9060640160006040518083038186803b15801561098d57600080fd5b505af41580156109a1573d6000803e3d6000fd5b505050505b505080806109b390613efc565b9150506108d5565b50506000606555565b606654829060ff600160a01b9091048116908216106109f55760405162461bcd60e51b815260040161063890613b97565b60ff831660009081526069602052604090819020905163f6d4a19560e01b815273F600AD9c330753499a12A39F81F1859A9b9697A29163f6d4a19591610a42919033908790600401613c56565b60006040518083038186803b158015610a5a57600080fd5b505af4158015610a6e573d6000803e3d6000fd5b50505050505050565b606654819060ff600160a01b909104811690821610610aa85760405162461bcd60e51b815260040161063890613b97565b60655415610ac85760405162461bcd60e51b815260040161063890613b77565b600160655534610b035760405162461bcd60e51b81526020600482015260066024820152652176616c756560d01b6044820152606401610638565b60ff82166000908152606760205260409020546201000090046001600160a01b03168015610b5c5760405162461bcd60e51b8152600401610638906020808252600490820152630428aa8960e31b604082015260600190565b60ff83166000908152606960205260409020600181015463ffffffff16610bb05760405162461bcd60e51b8152602060048201526008602482015267085cdd185c9d195960c21b6044820152606401610638565b604051633f7c9c6360e21b815273F600AD9c330753499a12A39F81F1859A9b9697A29063fdf2718c90610beb90849033903490600401613c56565b60006040518083038186803b158015610c0357600080fd5b505af4158015610c17573d6000803e3d6000fd5b50506000606555505050505050565b6040805160e081018252600080825260208201819052918101829052606081018290526080810182905260a0810182905260c0810191909152606654829060ff600160a01b909104811690821610610c905760405162461bcd60e51b815260040161063890613b97565b60ff8316600090815260696020526040808220905163f38f29dd60e01b81526004810182905290919073F600AD9c330753499a12A39F81F1859A9b9697A29063f38f29dd90602401604080518083038186803b158015610cef57600080fd5b505af4158015610d03573d6000803e3d6000fd5b505050506040513d601f19601f82011682018060405250810190610d2791906138a6565b33600090815260098501602052604090819020905163a8a328e760e01b8152600481018690526024810182905261ffff83166044820152919350915073F600AD9c330753499a12A39F81F1859A9b9697A29063a8a328e79060640160e06040518083038186803b158015610d9a57600080fd5b505af4158015610dae573d6000803e3d6000fd5b505050506040513d601f19601f82011682018060405250810190610dd29190613744565b9695505050505050565b6033546001600160a01b03163314610e065760405162461bcd60e51b815260040161063890613b42565b610e0f8161290f565b50565b606654829060ff600160a01b909104811690821610610e435760405162461bcd60e51b815260040161063890613b97565b60655415610e635760405162461bcd60e51b815260040161063890613b77565b600160655560ff8316600090815260696020526040908190209051631d48b99160e21b815273F600AD9c330753499a12A39F81F1859A9b9697A291637522e64491610eb5919033908790600401613c56565b60006040518083038186803b158015610ecd57600080fd5b505af4158015610ee1573d6000803e3d6000fd5b5050505060ff831660009081526067602052604090819020549051631a4ca37b60e21b815233600482015260248101849052620100009091046001600160a01b0316604482015273F600AD9c330753499a12A39F81F1859A9b9697A2906369328dec9060640160006040518083038186803b158015610f5f57600080fd5b505af4158015610f73573d6000803e3d6000fd5b505060006065555050505050565b6066546001600160a01b03163314610fab5760405162461bcd60e51b815260040161063890613bc0565b60005b815181101561084d576000606b6000848481518110610fdd57634e487b7160e01b600052603260045260246000fd5b6020908102919091018101516001600160a01b03168252810191909152604001600020805460ff19169115159190911790558061101981613efc565b915050610fae565b6033546001600160a01b0316331461104b5760405162461bcd60e51b815260040161063890613b42565b6110556000612b0a565b565b606654829060ff600160a01b9091048116908216106110885760405162461bcd60e51b815260040161063890613b97565b60ff83166000908152606960205260409081902090516347e5296160e01b815273F600AD9c330753499a12A39F81F1859A9b9697A2916347e5296191610a42919033908790600401613c56565b6066546001600160a01b031633146110ff5760405162461bcd60e51b815260040161063890613bc0565b606d5460ff1660005b825181101561123c57600083828151811061113357634e487b7160e01b600052603260045260246000fd5b6020908102919091018101516001600160a01b0381166000908152606b90925260409091205490915060ff16611229576001600160a01b0381166000908152606b60205260408120805460ff19166001179055805b8460ff168160ff1610156111d75760ff81166000908152606c60205260409020546001600160a01b03848116911614156111c557600191506111d7565b806111cf81613f17565b915050611188565b50806112275781606c6000866111ec81613f17565b975060ff1660ff16815260200190815260200160002060006101000a8154816001600160a01b0302191690836001600160a01b031602179055505b505b508061123481613efc565b915050611108565b50606d805460ff191660ff9290921691909117905550565b6066546001600160a01b0316331461127e5760405162461bcd60e51b815260040161063890613bc0565b60005b815181101561084d5760008282815181106112ac57634e487b7160e01b600052603260045260246000fd5b602002602001015190506000816020015161ffff16116112f95760405162461bcd60e51b8152602060048201526008602482015267217072656d69756d60c01b6044820152606401610638565b80516001600160801b031661133a5760405162461bcd60e51b815260206004820152600760248201526621737472696b6560c81b6044820152606401610638565b60408181015160ff16600090815260696020528190209051631d319eb160e31b81526004810182905273F600AD9c330753499a12A39F81F1859A9b9697A29063e98cf5889060240160006040518083038186803b15801561139a57600080fd5b505af41580156113ae573d6000803e3d6000fd5b50505050600181810154640100000000900461ffff16116114045760405162461bcd60e51b815260206004820152601060248201526f139bc81cd95b1b1a5b99c81c9bdd5b9960821b6044820152606401610638565b600481015460028201906001600160a01b0316156114535760405162461bcd60e51b815260206004820152600c60248201526b105b1c9958591e481cdbdb1960a21b6044820152606401610638565b82516001909101805460209094015161ffff16600160801b026001600160901b03199094166001600160801b039092169190911792909217909155508061149981613efc565b915050611281565b6066546001600160a01b031633146114cb5760405162461bcd60e51b815260040161063890613bc0565b60005b815181101561084d5760008282815181106114f957634e487b7160e01b600052603260045260246000fd5b60200260200101519050600081600001516001600160801b03161161154f5760405162461bcd60e51b815260206004820152600c60248201526b08595e1c1a5c9e53195d995b60a21b6044820152606401610638565b60208181015160ff16600090815260699091526040908190209051631d319eb160e31b81526004810182905273F600AD9c330753499a12A39F81F1859A9b9697A29063e98cf5889060240160006040518083038186803b1580156115b257600080fd5b505af41580156115c6573d6000803e3d6000fd5b505050506001810154600264010000000090910461ffff161161161e5760405162461bcd60e51b815260206004820152601060248201526f139bc8195e1c1a5c9959081c9bdd5b9960821b6044820152606401610638565b6005810180546001600160801b03161580611644575060028101546001600160a01b0316155b1561165157505050611abf565b60018101546001600160801b03166116955760405162461bcd60e51b815260206004820152600760248201526621737472696b6560c81b6044820152606401610638565b6020838101805160ff90811660009081526067909352604080842054925182168452832060010154620100009092046001600160a01b03169291600160a01b90041661171a57845160018401546001600160801b039182169116116116fb576000611754565b8451600184015461171591906001600160801b0316613e76565b611754565b600183015485516001600160801b0391821691161161173a576000611754565b60018301548551611754916001600160801b031690613e76565b60028401546001600160a01b03166000908152606a602090815260408083208983015160ff90811685526067909352908320600101546001600160801b03949094169450926117e091600160a01b909104166117bd5760018601546001600160801b03166117c0565b87515b86546001600160801b03918216916117da91879116612b5c565b90612b68565b90506117eb81612b74565b6001600160a01b03841660009081526020839052604090205461180f9082906128ee565b6001600160a01b038516600090815260208481526040918290206001600160801b039384169055815160e0810183528854841681526001808a01548516928201929092528a5190931691830191909152878101549084019190606082019061188590600290640100000000900461ffff16613e9e565b61ffff908116825260208b81015160ff9081168285015260018b81018054600160801b90819004861660408089019190915260609788018b905289548085018b5560009a8b52868b208a51978b01516001600160801b03988916908916850217600390920201908155908901519381018054988a015160808b015160a08c01519689166001600160901b0319909b169a909a1790891684021762ffffff60901b1916600160901b999096169890980261ffff60981b191694909417600160981b938716939093029290921790955560c0909501516002909101559154895461197794879461079b949216920416612bbe565b86549091506000906119a2906001600160801b03166117da61199b6008600a613daf565b8590612b5c565b90506119ad81612b74565b8088600801600060028b60010160049054906101000a900461ffff166119d39190613e9e565b61ffff1681526020810191909152604001600090812080546001600160801b0319166001600160801b0393841617905588549091611a2391808216916117da918791600160801b90910416612b5c565b8954909150600090611a46908390600160801b90046001600160801b03166128ee565b9050611a5181612b74565b89546001600160801b03908116600160801b83831602178b5560028b0154600091611a8191166107958786612903565b9050611a8c81612b74565b60029a909a0180546001600160801b0319166001600160801b03909b169a909a1790995550506000909555505050505050505b80611ac981613efc565b9150506114ce565b606d5460609060ff16611af1575060408051600081526020810190915290565b6000805b606d5460ff9081169082161015611b565760ff8082166000908152606c60209081526040808320546001600160a01b03168352606b9091529020541615611b445781611b4081613efc565b9250505b80611b4e81613f17565b915050611af5565b506000816001600160401b03811115611b7f57634e487b7160e01b600052604160045260246000fd5b604051908082528060200260200182016040528015611ba8578160200160208202803683370190505b5090506000915060005b606d5460ff9081169082161015611c6d5760ff8082166000908152606c60209081526040808320546001600160a01b03168352606b9091529020541615611c5b5760ff81166000908152606c60205260409020546001600160a01b03168284611c1a81613efc565b955081518110611c3a57634e487b7160e01b600052603260045260246000fd5b60200260200101906001600160a01b031690816001600160a01b0316815250505b80611c6581613f17565b915050611bb2565b5092915050565b336000908152606a602052604081206001810154606092906001600160401b03811115611cb157634e487b7160e01b600052604160045260246000fd5b604051908082528060200260200182016040528015611d1857816020015b6040805160e08101825260008082526020808301829052928201819052606082018190526080820181905260a0820181905260c08201528252600019909201910181611ccf5790505b50905060005b6001830154811015611c6d57826001018181548110611d4d57634e487b7160e01b600052603260045260246000fd5b60009182526020918290206040805160e081018252600390930290910180546001600160801b038082168552600160801b9182900481169585019590955260018201549485169284019290925261ffff9184048216606084015260ff600160901b8504166080840152600160981b9093041660a082015260029091015460c08201528251839083908110611df157634e487b7160e01b600052603260045260246000fd5b60200260200101819052508080611e0790613efc565b915050611d1e565b6066546001600160a01b03163314611e395760405162461bcd60e51b815260040161063890613bc0565b60005b815181101561084d576000828281518110611e6757634e487b7160e01b600052603260045260246000fd5b602090810291909101810151805160ff16600090815260699092526040909120600181015491925090640100000000900461ffff1615611ede5760405162461bcd60e51b815260206004820152601260248201527130b63932b0b23c9035b4b1b5b2b21037b33360711b6044820152606401610638565b6000826040015160ff1660001415611f0457611efd4262093a806128ee565b9050611f2e565b826040015160ff1660011415611f2057611efd42610e106128ee565b611f2b42603c6128ee565b90505b63ffffffff811115611f765760405162461bcd60e51b815260206004820152601160248201527013dd995c999b1bddc818dd5d13d999905d607a1b6044820152606401610638565b60019091018054602084015160409094015165ffff000000001960ff909116600160b01b021676ff00000000000000000000000000000000ffff00000000196001600160801b0390951666010000000000000275ffffffffffffffffffffffffffffffff0000ffffffff1990921663ffffffff909416939093171792909216176401000000001790558061200981613efc565b915050611e3c565b6033546001600160a01b0316331461203b5760405162461bcd60e51b815260040161063890613b42565b610e0f81612bda565b6033546001600160a01b0316331461206e5760405162461bcd60e51b815260040161063890613b42565b6001600160a01b0381166120d35760405162461bcd60e51b815260206004820152602660248201527f4f776e61626c653a206e6577206f776e657220697320746865207a65726f206160448201526564647265737360d01b6064820152608401610638565b610e0f81612b0a565b606654829060ff600160a01b90910481169082161061210d5760405162461bcd60e51b815260040161063890613b97565b6065541561212d5760405162461bcd60e51b815260040161063890613b77565b6001606555816121695760405162461bcd60e51b815260206004820152600760248201526608585b5bdd5b9d60ca1b6044820152606401610638565b60ff83166000908152606760205260409020546201000090046001600160a01b0316806121be5760405162461bcd60e51b815260206004820152600360248201526208aa8960eb1b6044820152606401610638565b60ff84166000908152606960205260409020600181015463ffffffff166122125760405162461bcd60e51b8152602060048201526008602482015267085cdd185c9d195960c21b6044820152606401610638565b6122276001600160a01b038316333087612c22565b604051633f7c9c6360e21b815273F600AD9c330753499a12A39F81F1859A9b9697A29063fdf2718c9061226290849033908990600401613c56565b60006040518083038186803b15801561227a57600080fd5b505af415801561228e573d6000803e3d6000fd5b5050600060655550505050505050565b336000908152606b602052604090205460ff166122ec5760405162461bcd60e51b815260206004820152600c60248201526b085dda1a5d195b1a5cdd195960a21b6044820152606401610638565b6065541561230c5760405162461bcd60e51b815260040161063890613b77565b60016065556000805b825181101561260257600083828151811061234057634e487b7160e01b600052603260045260246000fd5b60209081029190910181015160ff8116600090815260699092526040918290209151631d319eb160e31b81526004810183905290925073F600AD9c330753499a12A39F81F1859A9b9697A29063e98cf5889060240160006040518083038186803b1580156123ad57600080fd5b505af41580156123c1573d6000803e3d6000fd5b505050506002810180546001600160801b03166124125760405162461bcd60e51b815260206004820152600f60248201526e139bdd1a1a5b99c81d1bc81cd95b1b608a1b6044820152606401610638565b60028101546001600160a01b03161561245c5760405162461bcd60e51b815260206004820152600c60248201526b105b1c9958591e481cdbdb1960a21b6044820152606401610638565b60078201546001600160a01b0316158015906124a257506005820154600090612497906001600160801b03600160801b820481169116613e76565b6001600160801b0316115b1561253957600082600801600060028560010160049054906101000a900461ffff166124ce9190613e9e565b61ffff1681526020810191909152604001600020546001600160801b0316116125395760405162461bcd60e51b815260206004820152601e60248201527f457870697279206c6576656c206e6f74207370656369666965642079657400006044820152606401610638565b60058201548154600091612566916001600160801b03600160801b830481169261079b92821691166128ee565b6001830154909150600090612587908390600160801b900461ffff16612c7c565b60ff86166000908152606760205260409020549091506201000090046001600160a01b0316806125c2576125bb88836128ee565b97506125d7565b6125d76001600160a01b038216333085612c22565b50505060020180546001600160a01b03191633179055508190506125fa81613efc565b915050612315565b50348110156126445760405162461bcd60e51b815260206004820152600e60248201526d09cdee840cadcdeeaced040cae8d60931b6044820152606401610638565b348111156109bb57336108fc61265a3484613eb9565b6040518115909202916000818181858888f19350505050158015612682573d6000803e3d6000fd5b5050506000606555565b600054610100900460ff16806126a5575060005460ff16155b6126c15760405162461bcd60e51b815260040161063890613af4565b600054610100900460ff161580156126e3576000805461ffff19166101011790555b6001600160a01b0384166126f657600080fd5b6000606555612703612c8e565b61270c84612044565b61271583612bda565b61271e8261290f565b8015612730576000805461ff00191690555b50505050565b336000908152606a60205260408120606091805b606654600160a81b900460ff168110156127b15760ff81166000908152606860209081526040808320546001600160a01b03168084529186905290912054801561279c578361279881613efc565b9450505b505080806127a990613efc565b91505061274a565b506000816001600160401b038111156127da57634e487b7160e01b600052604160045260246000fd5b60405190808252806020026020018201604052801561281f57816020015b60408051808201909152600080825260208201528152602001906001900390816127f85790505b5090508161282e579392505050565b6000915060005b606654600160a81b900460ff168110156128e65760ff81166000908152606860209081526040808320546001600160a01b0316808452918790529091205480156128d1576040518060400160405280836001600160a01b03168152602001828152508486815181106128b757634e487b7160e01b600052603260045260246000fd5b602002602001018190525084806128cd90613efc565b9550505b505080806128de90613efc565b915050612835565b509392505050565b60006128fa8284613d34565b90505b92915050565b60006128fa8284613eb9565b805160665460ff600160a01b8204811691600160a81b90041660005b83811015612ad357600085828151811061295557634e487b7160e01b600052603260045260246000fd5b602090810291909101015160ff85168152905080606760008661297781613f17565b60ff9182168352602080840194909452604092830160009081208651815496880151958801516001600160a01b03908116620100000262010000600160b01b03199787166101000261ffff19909916929096169190911796909617949094169290921783556060850151600190930180546080909601511515600160a01b026001600160a81b03199096169390941692909217939093179091559450805b8460ff168160ff161015612a6a5760408084015160ff83166000908152606860205291909120546001600160a01b0390811691161415612a585760019150612a6a565b80612a6281613f17565b915050612a15565b5080612abe5760408201516068600086612a8381613f17565b975060ff1660ff16815260200190815260200160002060006101000a8154816001600160a01b0302191690836001600160a01b031602179055505b50508080612acb90613efc565b91505061292b565b506066805461ffff60a01b1916600160a01b60ff9485160260ff60a81b191617600160a81b92909316919091029190911790555050565b603380546001600160a01b038381166001600160a01b0319831681179093556040519116919082907f8be0079c531659141344cd1fd0a4f28419497f9722a3daafe3b4186f6b6457e090600090a35050565b60006128fa8284613e57565b60006128fa8284613d4c565b6001600160801b03811115610e0f5760405162461bcd60e51b815260206004820152601060248201526f09eeccae4ccd8deee40ead2dce86264760831b6044820152606401610638565b60006128fa6127106117da612bd38583613d34565b8690612b5c565b6001600160a01b038116612c005760405162461bcd60e51b815260040161063890613bc0565b606680546001600160a01b0319166001600160a01b0392909216919091179055565b604080516001600160a01b0385811660248301528416604482015260648082018490528251808303909101815260849091019091526020810180516001600160e01b03166323b872dd60e01b179052612730908590612d09565b60006128fa6127106117da8585612b5c565b600054610100900460ff1680612ca7575060005460ff16155b612cc35760405162461bcd60e51b815260040161063890613af4565b600054610100900460ff16158015612ce5576000805461ffff19166101011790555b612ced612de0565b612cf5612e4a565b8015610e0f576000805461ff001916905550565b6000612d5e826040518060400160405280602081526020017f5361666545524332303a206c6f772d6c6576656c2063616c6c206661696c6564815250856001600160a01b0316612eaa9092919063ffffffff16565b805190915015612ddb5780806020019051810190612d7c9190613728565b612ddb5760405162461bcd60e51b815260206004820152602a60248201527f5361666545524332303a204552433230206f7065726174696f6e20646964206e6044820152691bdd081cdd58d8d9595960b21b6064820152608401610638565b505050565b600054610100900460ff1680612df9575060005460ff16155b612e155760405162461bcd60e51b815260040161063890613af4565b600054610100900460ff16158015612cf5576000805461ffff19166101011790558015610e0f576000805461ff001916905550565b600054610100900460ff1680612e63575060005460ff16155b612e7f5760405162461bcd60e51b815260040161063890613af4565b600054610100900460ff16158015612ea1576000805461ffff19166101011790555b612cf533612b0a565b6060612eb98484600085612ec3565b90505b9392505050565b606082471015612f245760405162461bcd60e51b815260206004820152602660248201527f416464726573733a20696e73756666696369656e742062616c616e636520666f6044820152651c8818d85b1b60d21b6064820152608401610638565b843b612f725760405162461bcd60e51b815260206004820152601d60248201527f416464726573733a2063616c6c20746f206e6f6e2d636f6e74726163740000006044820152606401610638565b600080866001600160a01b03168587604051612f8e9190613969565b60006040518083038185875af1925050503d8060008114612fcb576040519150601f19603f3d011682016040523d82523d6000602084013e612fd0565b606091505b5091509150612fe0828286612feb565b979650505050505050565b60608315612ffa575081612ebc565b82511561300a5782518084602001fd5b8160405162461bcd60e51b81526004016106389190613ac1565b6040805160e08101825260008082526020820181905291810182905260608101829052608081019190915260a081016130846040805160a08101825260008082526020820181905291810182905260608101829052608081019190915290565b81526040805160a0810182526000808252602082810182905292820181905260608201819052608082015291015290565b600082601f8301126130c5578081fd5b813560206130da6130d583613d11565b613ce1565b8281528181019085830160a0808602880185018910156130f8578687fd5b865b8681101561317d5781838b031215613110578788fd5b613118613c75565b61312184613234565b815261312e878501613234565b8782015260408085013561314181613f63565b9082015260608481013561315481613f63565b9082015260808481013561316781613f78565b90820152855293850193918101916001016130fa565b509198975050505050505050565b600060a0828403121561319c578081fd5b6131a4613c75565b905081516131b181613f86565b815260208201516131c181613f86565b602082015260408201516131d481613f86565b604082015260608201516131e781613f9b565b606082015260808201516131fa81613f63565b608082015292915050565b805161321081613f86565b919050565b805161321081613f9b565b805163ffffffff8116811461321057600080fd5b803560ff8116811461321057600080fd5b600060208284031215613256578081fd5b8135612ebc81613f63565b600080600060608486031215613275578182fd5b833561328081613f63565b9250602084013561329081613f63565b915060408401356001600160401b038111156132aa578182fd5b6132b6868287016130b5565b9150509250925092565b600060208083850312156132d2578182fd5b82356001600160401b038111156132e7578283fd5b8301601f810185136132f7578283fd5b80356133056130d582613d11565b80828252848201915084840188868560051b8701011115613324578687fd5b8694505b8385101561334f57803561333b81613f63565b835260019490940193918501918501613328565b50979650505050505050565b6000602080838503121561336d578182fd5b82356001600160401b03811115613382578283fd5b8301601f81018513613392578283fd5b80356133a06130d582613d11565b80828252848201915084840188868560061b87010111156133bf578687fd5b8694505b8385101561334f57604080828b0312156133db578788fd5b6133e3613c9d565b6133ec83613234565b8152878301356133fb81613f86565b8189015284526001959095019492860192016133c3565b60006020808385031215613424578182fd5b82356001600160401b03811115613439578283fd5b8301601f81018513613449578283fd5b80356134576130d582613d11565b80828252848201915084840188868560061b8701011115613476578687fd5b8694505b8385101561334f57604080828b031215613492578788fd5b61349a613c9d565b82356134a581613f86565b81526134b2838901613234565b81890152845260019590950194928601920161347a565b600060208083850312156134db578182fd5b82356001600160401b038111156134f0578283fd5b8301601f81018513613500578283fd5b803561350e6130d582613d11565b818152838101908385016060808502860187018a101561352c578788fd5b8795505b848610156135915780828b031215613546578788fd5b61354e613cbf565b61355783613234565b81528783013561356681613f86565b818901526040613577848201613234565b908201528452600195909501949286019290810190613530565b509098975050505050505050565b600060208083850312156135b1578182fd5b82356001600160401b038111156135c6578283fd5b8301601f810185136135d6578283fd5b80356135e46130d582613d11565b818152838101908385016060808502860187018a1015613602578788fd5b8795505b848610156135915780828b03121561361c578788fd5b613624613cbf565b823561362f81613f86565b81528288013561363e81613f9b565b81890152604061364f848201613234565b908201528452600195909501949286019290810190613606565b60006020828403121561367a578081fd5b81356001600160401b0381111561368f578182fd5b6106d8848285016130b5565b600060208083850312156136ad578182fd5b82356001600160401b038111156136c2578283fd5b8301601f810185136136d2578283fd5b80356136e06130d582613d11565b80828252848201915084840188868560051b87010111156136ff578687fd5b8694505b8385101561334f5761371481613234565b835260019490940193918501918501613703565b600060208284031215613739578081fd5b8151612ebc81613f78565b600060e08284031215613755578081fd5b60405160e081018181106001600160401b038211171561377757613777613f4d565b604052825161378581613f86565b8152602083015161379581613f86565b602082015260408301516137a881613f86565b604082015260608301516137bb81613f86565b60608201526137cc60808401613205565b60808201526137dd60a08401613205565b60a08201526137ee60c08401613215565b60c08201529392505050565b60006101e0828403121561380c578081fd5b60405160e081018181106001600160401b038211171561382e5761382e613f4d565b604052825161383c81613f86565b8152602083015161384c81613f86565b602082015261385d60408401613220565b6040820152606083015161387081613f9b565b606082015261388160808401613205565b60808201526138938460a0850161318b565b60a08201526137ee84610140850161318b565b600080604083850312156138b8578182fd5b6138c183613220565b915060208301516138d181613f9b565b809150509250929050565b6000602082840312156138ed578081fd5b6128fa82613234565b60008060408385031215613908578182fd5b61391183613234565b946020939093013593505050565b80516001600160801b0390811683526020808301518216908401526040808301519091169083015260608082015161ffff16908301526080908101516001600160a01b0316910152565b6000825161397b818460208701613ed0565b9190910192915050565b6020808252825182820181905260009190848201906040850190845b818110156139c65783516001600160a01b0316835292840192918401916001016139a1565b50909695505050505050565b602080825282518282018190526000919060409081850190868401855b82811015613a1d57815180516001600160a01b031685528601518685015292840192908501906001016139ef565b5091979650505050505050565b602080825282518282018190526000919060409081850190868401855b82811015613a1d57815180516001600160801b0390811686528782015181168887015286820151168686015260608082015161ffff169086015260808082015160ff169086015260a080820151613aa38288018261ffff169052565b505060c0908101519085015260e09093019290850190600101613a47565b6020815260008251806020840152613ae0816040850160208701613ed0565b601f01601f19169190910160400192915050565b6020808252602e908201527f496e697469616c697a61626c653a20636f6e747261637420697320616c72656160408201526d191e481a5b9a5d1a585b1a5e995960921b606082015260800190565b6020808252818101527f4f776e61626c653a2063616c6c6572206973206e6f7420746865206f776e6572604082015260600190565b6020808252600690820152651b1bd8dad95960d21b604082015260600190565b6020808252600f908201526e125b9d985b1a59081d985d5b1d1259608a1b604082015260600190565b60208082526008908201526710b6b0b730b3b2b960c11b604082015260600190565b60006101e0820190506001600160801b0380845116835280602085015116602084015263ffffffff604085015116604084015261ffff60608501511660608401528060808501511660808401525060a0830151613c4260a084018261391f565b5060c0830151611c6d61014084018261391f565b9283526001600160a01b03919091166020830152604082015260600190565b60405160a081016001600160401b0381118282101715613c9757613c97613f4d565b60405290565b604080519081016001600160401b0381118282101715613c9757613c97613f4d565b604051606081016001600160401b0381118282101715613c9757613c97613f4d565b604051601f8201601f191681016001600160401b0381118282101715613d0957613d09613f4d565b604052919050565b60006001600160401b03821115613d2a57613d2a613f4d565b5060051b60200190565b60008219821115613d4757613d47613f37565b500190565b600082613d6757634e487b7160e01b81526012600452602481fd5b500490565b600181815b80851115613da7578160001904821115613d8d57613d8d613f37565b80851615613d9a57918102915b93841c9390800290613d71565b509250929050565b60006128fa8383600082613dc5575060016128fd565b81613dd2575060006128fd565b8160018114613de85760028114613df257613e0e565b60019150506128fd565b60ff841115613e0357613e03613f37565b50506001821b6128fd565b5060208310610133831016604e8410600b8410161715613e31575081810a6128fd565b613e3b8383613d6c565b8060001904821115613e4f57613e4f613f37565b029392505050565b6000816000190483118215151615613e7157613e71613f37565b500290565b60006001600160801b0383811690831681811015613e9657613e96613f37565b039392505050565b600061ffff83811690831681811015613e9657613e96613f37565b600082821015613ecb57613ecb613f37565b500390565b60005b83811015613eeb578181015183820152602001613ed3565b838111156127305750506000910152565b6000600019821415613f1057613f10613f37565b5060010190565b600060ff821660ff811415613f2e57613f2e613f37565b60010192915050565b634e487b7160e01b600052601160045260246000fd5b634e487b7160e01b600052604160045260246000fd5b6001600160a01b0381168114610e0f57600080fd5b8015158114610e0f57600080fd5b6001600160801b0381168114610e0f57600080fd5b61ffff81168114610e0f57600080fdfea264697066735822122047092b2d253e107d5aa3ce752d4fe55249eb8968fb4f6b6360d06fc1d742aa4864736f6c63430008040033",
  "deployedBytecode": "0x60806040526004361061019c5760003560e01c806396721fbf116100ec578063d0ebdbe71161008a578063f4d4c9d711610064578063f4d4c9d71461058a578063f6316859146105aa578063fc382695146105bd578063fc9b0333146105dd57600080fd5b8063d0ebdbe7146104ae578063d5da2bab146104ce578063f2fde38b1461056a57600080fd5b8063ad70c3c7116100c6578063ad70c3c71461042a578063c4173ba91461044a578063c62f673b1461046c578063ca0502a41461048e57600080fd5b806396721fbf146103b7578063a7c6a100146103d7578063ac4b8a641461040a57600080fd5b80632e862d2911610159578063715018a611610133578063715018a6146103305780637332655b146103455780637f649783146103655780638da5cb5b1461038557600080fd5b80632e862d29146102d05780633f489914146102f0578063548db1741461031057600080fd5b806306a45d3f146101a157806315dc9bd8146101d75780631b358049146101f9578063222f6b831461020e578063256d43d71461022e57806326161ec614610241575b600080fd5b3480156101ad57600080fd5b506101c16101bc3660046138dc565b6105ff565b6040516101ce9190613be2565b60405180910390f35b3480156101e357600080fd5b506101f76101f236600461335b565b6106e0565b005b34801561020557600080fd5b506101f7610851565b34801561021a57600080fd5b506101f76102293660046138f6565b6109c4565b6101f761023c3660046138dc565b610a77565b34801561024d57600080fd5b5061026161025c3660046138dc565b610c26565b6040516101ce9190600060e0820190506001600160801b038084511683528060208501511660208401528060408501511660408401528060608501511660608401528060808501511660808401528060a08501511660a08401525061ffff60c08401511660c083015292915050565b3480156102dc57600080fd5b506101f76102eb366004613669565b610ddc565b3480156102fc57600080fd5b506101f761030b3660046138f6565b610e12565b34801561031c57600080fd5b506101f761032b3660046132c0565b610f81565b34801561033c57600080fd5b506101f7611021565b34801561035157600080fd5b506101f76103603660046138f6565b611057565b34801561037157600080fd5b506101f76103803660046132c0565b6110d5565b34801561039157600080fd5b506033546001600160a01b03165b6040516001600160a01b0390911681526020016101ce565b3480156103c357600080fd5b506101f76103d236600461359f565b611254565b3480156103e357600080fd5b506066546103f890600160a01b900460ff1681565b60405160ff90911681526020016101ce565b34801561041657600080fd5b5060665461039f906001600160a01b031681565b34801561043657600080fd5b506101f7610445366004613412565b6114a1565b34801561045657600080fd5b5061045f611ad1565b6040516101ce9190613985565b34801561047857600080fd5b50610481611c74565b6040516101ce9190613a2a565b34801561049a57600080fd5b506101f76104a93660046134c9565b611e0f565b3480156104ba57600080fd5b506101f76104c9366004613245565b612011565b3480156104da57600080fd5b5061052f6104e93660046138dc565b6067602052600090815260409020805460019091015460ff8083169261010081048216926001600160a01b036201000090920482169291811691600160a01b9091041685565b6040805160ff96871681529590941660208601526001600160a01b03928316938501939093521660608301521515608082015260a0016101ce565b34801561057657600080fd5b506101f7610585366004613245565b612044565b34801561059657600080fd5b506101f76105a53660046138f6565b6120dc565b6101f76105b836600461369b565b61229e565b3480156105c957600080fd5b506101f76105d8366004613261565b61268c565b3480156105e957600080fd5b506105f2612736565b6040516101ce91906139d2565b610607613024565b606654829060ff600160a01b9091048116908216106106415760405162461bcd60e51b815260040161063890613b97565b60405180910390fd5b60ff8316600090815260696020526040908190209051630aaf5c2360e21b81526004810182905273__$e36f5330ef2566ea8a183e1e27b10de643$__90632abd708c906024016101e06040518083038186803b1580156106a057600080fd5b505af41580156106b4573d6000803e3d6000fd5b505050506040513d601f19601f820116820180604052508101906106d891906137fa565b949350505050565b6066546001600160a01b0316331461070a5760405162461bcd60e51b815260040161063890613bc0565b60005b815181101561084d57600082828151811061073857634e487b7160e01b600052603260045260246000fd5b602090810291909101810151805160ff1660009081526069909252604082206005810154600282015482549395509193926107a1926001600160801b03600160801b840481169361079b93908216926107959291821691166128ee565b906128ee565b90612903565b905082602001516001600160801b03168111156107f85760405162461bcd60e51b815260206004820152601560248201527413585e0810d85c081b195cdcc81d1a185b881d1d9b605a1b6044820152606401610638565b50602090910151600190910180546001600160801b0390921666010000000000000275ffffffffffffffffffffffffffffffff000000000000199092169190911790558061084581613efc565b91505061070d565b5050565b336000908152606b602052604090205460ff1661089f5760405162461bcd60e51b815260206004820152600c60248201526b085dda1a5d195b1a5cdd195960a21b6044820152606401610638565b606554156108bf5760405162461bcd60e51b815260040161063890613b77565b6001606555336000908152606a60205260408120905b606654600160a81b900460ff168110156109bb5760ff81166000908152606860209081526040808320546001600160a01b0316808452918590529091205480156109a6576001600160a01b0382166000818152602086905260408082209190915551631a4ca37b60e21b815233600482015260248101839052604481019190915273__$e36f5330ef2566ea8a183e1e27b10de643$__906369328dec9060640160006040518083038186803b15801561098d57600080fd5b505af41580156109a1573d6000803e3d6000fd5b505050505b505080806109b390613efc565b9150506108d5565b50506000606555565b606654829060ff600160a01b9091048116908216106109f55760405162461bcd60e51b815260040161063890613b97565b60ff831660009081526069602052604090819020905163f6d4a19560e01b815273__$e36f5330ef2566ea8a183e1e27b10de643$__9163f6d4a19591610a42919033908790600401613c56565b60006040518083038186803b158015610a5a57600080fd5b505af4158015610a6e573d6000803e3d6000fd5b50505050505050565b606654819060ff600160a01b909104811690821610610aa85760405162461bcd60e51b815260040161063890613b97565b60655415610ac85760405162461bcd60e51b815260040161063890613b77565b600160655534610b035760405162461bcd60e51b81526020600482015260066024820152652176616c756560d01b6044820152606401610638565b60ff82166000908152606760205260409020546201000090046001600160a01b03168015610b5c5760405162461bcd60e51b8152600401610638906020808252600490820152630428aa8960e31b604082015260600190565b60ff83166000908152606960205260409020600181015463ffffffff16610bb05760405162461bcd60e51b8152602060048201526008602482015267085cdd185c9d195960c21b6044820152606401610638565b604051633f7c9c6360e21b815273__$e36f5330ef2566ea8a183e1e27b10de643$__9063fdf2718c90610beb90849033903490600401613c56565b60006040518083038186803b158015610c0357600080fd5b505af4158015610c17573d6000803e3d6000fd5b50506000606555505050505050565b6040805160e081018252600080825260208201819052918101829052606081018290526080810182905260a0810182905260c0810191909152606654829060ff600160a01b909104811690821610610c905760405162461bcd60e51b815260040161063890613b97565b60ff8316600090815260696020526040808220905163f38f29dd60e01b81526004810182905290919073__$e36f5330ef2566ea8a183e1e27b10de643$__9063f38f29dd90602401604080518083038186803b158015610cef57600080fd5b505af4158015610d03573d6000803e3d6000fd5b505050506040513d601f19601f82011682018060405250810190610d2791906138a6565b33600090815260098501602052604090819020905163a8a328e760e01b8152600481018690526024810182905261ffff83166044820152919350915073__$e36f5330ef2566ea8a183e1e27b10de643$__9063a8a328e79060640160e06040518083038186803b158015610d9a57600080fd5b505af4158015610dae573d6000803e3d6000fd5b505050506040513d601f19601f82011682018060405250810190610dd29190613744565b9695505050505050565b6033546001600160a01b03163314610e065760405162461bcd60e51b815260040161063890613b42565b610e0f8161290f565b50565b606654829060ff600160a01b909104811690821610610e435760405162461bcd60e51b815260040161063890613b97565b60655415610e635760405162461bcd60e51b815260040161063890613b77565b600160655560ff8316600090815260696020526040908190209051631d48b99160e21b815273__$e36f5330ef2566ea8a183e1e27b10de643$__91637522e64491610eb5919033908790600401613c56565b60006040518083038186803b158015610ecd57600080fd5b505af4158015610ee1573d6000803e3d6000fd5b5050505060ff831660009081526067602052604090819020549051631a4ca37b60e21b815233600482015260248101849052620100009091046001600160a01b0316604482015273__$e36f5330ef2566ea8a183e1e27b10de643$__906369328dec9060640160006040518083038186803b158015610f5f57600080fd5b505af4158015610f73573d6000803e3d6000fd5b505060006065555050505050565b6066546001600160a01b03163314610fab5760405162461bcd60e51b815260040161063890613bc0565b60005b815181101561084d576000606b6000848481518110610fdd57634e487b7160e01b600052603260045260246000fd5b6020908102919091018101516001600160a01b03168252810191909152604001600020805460ff19169115159190911790558061101981613efc565b915050610fae565b6033546001600160a01b0316331461104b5760405162461bcd60e51b815260040161063890613b42565b6110556000612b0a565b565b606654829060ff600160a01b9091048116908216106110885760405162461bcd60e51b815260040161063890613b97565b60ff83166000908152606960205260409081902090516347e5296160e01b815273__$e36f5330ef2566ea8a183e1e27b10de643$__916347e5296191610a42919033908790600401613c56565b6066546001600160a01b031633146110ff5760405162461bcd60e51b815260040161063890613bc0565b606d5460ff1660005b825181101561123c57600083828151811061113357634e487b7160e01b600052603260045260246000fd5b6020908102919091018101516001600160a01b0381166000908152606b90925260409091205490915060ff16611229576001600160a01b0381166000908152606b60205260408120805460ff19166001179055805b8460ff168160ff1610156111d75760ff81166000908152606c60205260409020546001600160a01b03848116911614156111c557600191506111d7565b806111cf81613f17565b915050611188565b50806112275781606c6000866111ec81613f17565b975060ff1660ff16815260200190815260200160002060006101000a8154816001600160a01b0302191690836001600160a01b031602179055505b505b508061123481613efc565b915050611108565b50606d805460ff191660ff9290921691909117905550565b6066546001600160a01b0316331461127e5760405162461bcd60e51b815260040161063890613bc0565b60005b815181101561084d5760008282815181106112ac57634e487b7160e01b600052603260045260246000fd5b602002602001015190506000816020015161ffff16116112f95760405162461bcd60e51b8152602060048201526008602482015267217072656d69756d60c01b6044820152606401610638565b80516001600160801b031661133a5760405162461bcd60e51b815260206004820152600760248201526621737472696b6560c81b6044820152606401610638565b60408181015160ff16600090815260696020528190209051631d319eb160e31b81526004810182905273__$e36f5330ef2566ea8a183e1e27b10de643$__9063e98cf5889060240160006040518083038186803b15801561139a57600080fd5b505af41580156113ae573d6000803e3d6000fd5b50505050600181810154640100000000900461ffff16116114045760405162461bcd60e51b815260206004820152601060248201526f139bc81cd95b1b1a5b99c81c9bdd5b9960821b6044820152606401610638565b600481015460028201906001600160a01b0316156114535760405162461bcd60e51b815260206004820152600c60248201526b105b1c9958591e481cdbdb1960a21b6044820152606401610638565b82516001909101805460209094015161ffff16600160801b026001600160901b03199094166001600160801b039092169190911792909217909155508061149981613efc565b915050611281565b6066546001600160a01b031633146114cb5760405162461bcd60e51b815260040161063890613bc0565b60005b815181101561084d5760008282815181106114f957634e487b7160e01b600052603260045260246000fd5b60200260200101519050600081600001516001600160801b03161161154f5760405162461bcd60e51b815260206004820152600c60248201526b08595e1c1a5c9e53195d995b60a21b6044820152606401610638565b60208181015160ff16600090815260699091526040908190209051631d319eb160e31b81526004810182905273__$e36f5330ef2566ea8a183e1e27b10de643$__9063e98cf5889060240160006040518083038186803b1580156115b257600080fd5b505af41580156115c6573d6000803e3d6000fd5b505050506001810154600264010000000090910461ffff161161161e5760405162461bcd60e51b815260206004820152601060248201526f139bc8195e1c1a5c9959081c9bdd5b9960821b6044820152606401610638565b6005810180546001600160801b03161580611644575060028101546001600160a01b0316155b1561165157505050611abf565b60018101546001600160801b03166116955760405162461bcd60e51b815260206004820152600760248201526621737472696b6560c81b6044820152606401610638565b6020838101805160ff90811660009081526067909352604080842054925182168452832060010154620100009092046001600160a01b03169291600160a01b90041661171a57845160018401546001600160801b039182169116116116fb576000611754565b8451600184015461171591906001600160801b0316613e76565b611754565b600183015485516001600160801b0391821691161161173a576000611754565b60018301548551611754916001600160801b031690613e76565b60028401546001600160a01b03166000908152606a602090815260408083208983015160ff90811685526067909352908320600101546001600160801b03949094169450926117e091600160a01b909104166117bd5760018601546001600160801b03166117c0565b87515b86546001600160801b03918216916117da91879116612b5c565b90612b68565b90506117eb81612b74565b6001600160a01b03841660009081526020839052604090205461180f9082906128ee565b6001600160a01b038516600090815260208481526040918290206001600160801b039384169055815160e0810183528854841681526001808a01548516928201929092528a5190931691830191909152878101549084019190606082019061188590600290640100000000900461ffff16613e9e565b61ffff908116825260208b81015160ff9081168285015260018b81018054600160801b90819004861660408089019190915260609788018b905289548085018b5560009a8b52868b208a51978b01516001600160801b03988916908916850217600390920201908155908901519381018054988a015160808b015160a08c01519689166001600160901b0319909b169a909a1790891684021762ffffff60901b1916600160901b999096169890980261ffff60981b191694909417600160981b938716939093029290921790955560c0909501516002909101559154895461197794879461079b949216920416612bbe565b86549091506000906119a2906001600160801b03166117da61199b6008600a613daf565b8590612b5c565b90506119ad81612b74565b8088600801600060028b60010160049054906101000a900461ffff166119d39190613e9e565b61ffff1681526020810191909152604001600090812080546001600160801b0319166001600160801b0393841617905588549091611a2391808216916117da918791600160801b90910416612b5c565b8954909150600090611a46908390600160801b90046001600160801b03166128ee565b9050611a5181612b74565b89546001600160801b03908116600160801b83831602178b5560028b0154600091611a8191166107958786612903565b9050611a8c81612b74565b60029a909a0180546001600160801b0319166001600160801b03909b169a909a1790995550506000909555505050505050505b80611ac981613efc565b9150506114ce565b606d5460609060ff16611af1575060408051600081526020810190915290565b6000805b606d5460ff9081169082161015611b565760ff8082166000908152606c60209081526040808320546001600160a01b03168352606b9091529020541615611b445781611b4081613efc565b9250505b80611b4e81613f17565b915050611af5565b506000816001600160401b03811115611b7f57634e487b7160e01b600052604160045260246000fd5b604051908082528060200260200182016040528015611ba8578160200160208202803683370190505b5090506000915060005b606d5460ff9081169082161015611c6d5760ff8082166000908152606c60209081526040808320546001600160a01b03168352606b9091529020541615611c5b5760ff81166000908152606c60205260409020546001600160a01b03168284611c1a81613efc565b955081518110611c3a57634e487b7160e01b600052603260045260246000fd5b60200260200101906001600160a01b031690816001600160a01b0316815250505b80611c6581613f17565b915050611bb2565b5092915050565b336000908152606a602052604081206001810154606092906001600160401b03811115611cb157634e487b7160e01b600052604160045260246000fd5b604051908082528060200260200182016040528015611d1857816020015b6040805160e08101825260008082526020808301829052928201819052606082018190526080820181905260a0820181905260c08201528252600019909201910181611ccf5790505b50905060005b6001830154811015611c6d57826001018181548110611d4d57634e487b7160e01b600052603260045260246000fd5b60009182526020918290206040805160e081018252600390930290910180546001600160801b038082168552600160801b9182900481169585019590955260018201549485169284019290925261ffff9184048216606084015260ff600160901b8504166080840152600160981b9093041660a082015260029091015460c08201528251839083908110611df157634e487b7160e01b600052603260045260246000fd5b60200260200101819052508080611e0790613efc565b915050611d1e565b6066546001600160a01b03163314611e395760405162461bcd60e51b815260040161063890613bc0565b60005b815181101561084d576000828281518110611e6757634e487b7160e01b600052603260045260246000fd5b602090810291909101810151805160ff16600090815260699092526040909120600181015491925090640100000000900461ffff1615611ede5760405162461bcd60e51b815260206004820152601260248201527130b63932b0b23c9035b4b1b5b2b21037b33360711b6044820152606401610638565b6000826040015160ff1660001415611f0457611efd4262093a806128ee565b9050611f2e565b826040015160ff1660011415611f2057611efd42610e106128ee565b611f2b42603c6128ee565b90505b63ffffffff811115611f765760405162461bcd60e51b815260206004820152601160248201527013dd995c999b1bddc818dd5d13d999905d607a1b6044820152606401610638565b60019091018054602084015160409094015165ffff000000001960ff909116600160b01b021676ff00000000000000000000000000000000ffff00000000196001600160801b0390951666010000000000000275ffffffffffffffffffffffffffffffff0000ffffffff1990921663ffffffff909416939093171792909216176401000000001790558061200981613efc565b915050611e3c565b6033546001600160a01b0316331461203b5760405162461bcd60e51b815260040161063890613b42565b610e0f81612bda565b6033546001600160a01b0316331461206e5760405162461bcd60e51b815260040161063890613b42565b6001600160a01b0381166120d35760405162461bcd60e51b815260206004820152602660248201527f4f776e61626c653a206e6577206f776e657220697320746865207a65726f206160448201526564647265737360d01b6064820152608401610638565b610e0f81612b0a565b606654829060ff600160a01b90910481169082161061210d5760405162461bcd60e51b815260040161063890613b97565b6065541561212d5760405162461bcd60e51b815260040161063890613b77565b6001606555816121695760405162461bcd60e51b815260206004820152600760248201526608585b5bdd5b9d60ca1b6044820152606401610638565b60ff83166000908152606760205260409020546201000090046001600160a01b0316806121be5760405162461bcd60e51b815260206004820152600360248201526208aa8960eb1b6044820152606401610638565b60ff84166000908152606960205260409020600181015463ffffffff166122125760405162461bcd60e51b8152602060048201526008602482015267085cdd185c9d195960c21b6044820152606401610638565b6122276001600160a01b038316333087612c22565b604051633f7c9c6360e21b815273__$e36f5330ef2566ea8a183e1e27b10de643$__9063fdf2718c9061226290849033908990600401613c56565b60006040518083038186803b15801561227a57600080fd5b505af415801561228e573d6000803e3d6000fd5b5050600060655550505050505050565b336000908152606b602052604090205460ff166122ec5760405162461bcd60e51b815260206004820152600c60248201526b085dda1a5d195b1a5cdd195960a21b6044820152606401610638565b6065541561230c5760405162461bcd60e51b815260040161063890613b77565b60016065556000805b825181101561260257600083828151811061234057634e487b7160e01b600052603260045260246000fd5b60209081029190910181015160ff8116600090815260699092526040918290209151631d319eb160e31b81526004810183905290925073__$e36f5330ef2566ea8a183e1e27b10de643$__9063e98cf5889060240160006040518083038186803b1580156123ad57600080fd5b505af41580156123c1573d6000803e3d6000fd5b505050506002810180546001600160801b03166124125760405162461bcd60e51b815260206004820152600f60248201526e139bdd1a1a5b99c81d1bc81cd95b1b608a1b6044820152606401610638565b60028101546001600160a01b03161561245c5760405162461bcd60e51b815260206004820152600c60248201526b105b1c9958591e481cdbdb1960a21b6044820152606401610638565b60078201546001600160a01b0316158015906124a257506005820154600090612497906001600160801b03600160801b820481169116613e76565b6001600160801b0316115b1561253957600082600801600060028560010160049054906101000a900461ffff166124ce9190613e9e565b61ffff1681526020810191909152604001600020546001600160801b0316116125395760405162461bcd60e51b815260206004820152601e60248201527f457870697279206c6576656c206e6f74207370656369666965642079657400006044820152606401610638565b60058201548154600091612566916001600160801b03600160801b830481169261079b92821691166128ee565b6001830154909150600090612587908390600160801b900461ffff16612c7c565b60ff86166000908152606760205260409020549091506201000090046001600160a01b0316806125c2576125bb88836128ee565b97506125d7565b6125d76001600160a01b038216333085612c22565b50505060020180546001600160a01b03191633179055508190506125fa81613efc565b915050612315565b50348110156126445760405162461bcd60e51b815260206004820152600e60248201526d09cdee840cadcdeeaced040cae8d60931b6044820152606401610638565b348111156109bb57336108fc61265a3484613eb9565b6040518115909202916000818181858888f19350505050158015612682573d6000803e3d6000fd5b5050506000606555565b600054610100900460ff16806126a5575060005460ff16155b6126c15760405162461bcd60e51b815260040161063890613af4565b600054610100900460ff161580156126e3576000805461ffff19166101011790555b6001600160a01b0384166126f657600080fd5b6000606555612703612c8e565b61270c84612044565b61271583612bda565b61271e8261290f565b8015612730576000805461ff00191690555b50505050565b336000908152606a60205260408120606091805b606654600160a81b900460ff168110156127b15760ff81166000908152606860209081526040808320546001600160a01b03168084529186905290912054801561279c578361279881613efc565b9450505b505080806127a990613efc565b91505061274a565b506000816001600160401b038111156127da57634e487b7160e01b600052604160045260246000fd5b60405190808252806020026020018201604052801561281f57816020015b60408051808201909152600080825260208201528152602001906001900390816127f85790505b5090508161282e579392505050565b6000915060005b606654600160a81b900460ff168110156128e65760ff81166000908152606860209081526040808320546001600160a01b0316808452918790529091205480156128d1576040518060400160405280836001600160a01b03168152602001828152508486815181106128b757634e487b7160e01b600052603260045260246000fd5b602002602001018190525084806128cd90613efc565b9550505b505080806128de90613efc565b915050612835565b509392505050565b60006128fa8284613d34565b90505b92915050565b60006128fa8284613eb9565b805160665460ff600160a01b8204811691600160a81b90041660005b83811015612ad357600085828151811061295557634e487b7160e01b600052603260045260246000fd5b602090810291909101015160ff85168152905080606760008661297781613f17565b60ff9182168352602080840194909452604092830160009081208651815496880151958801516001600160a01b03908116620100000262010000600160b01b03199787166101000261ffff19909916929096169190911796909617949094169290921783556060850151600190930180546080909601511515600160a01b026001600160a81b03199096169390941692909217939093179091559450805b8460ff168160ff161015612a6a5760408084015160ff83166000908152606860205291909120546001600160a01b0390811691161415612a585760019150612a6a565b80612a6281613f17565b915050612a15565b5080612abe5760408201516068600086612a8381613f17565b975060ff1660ff16815260200190815260200160002060006101000a8154816001600160a01b0302191690836001600160a01b031602179055505b50508080612acb90613efc565b91505061292b565b506066805461ffff60a01b1916600160a01b60ff9485160260ff60a81b191617600160a81b92909316919091029190911790555050565b603380546001600160a01b038381166001600160a01b0319831681179093556040519116919082907f8be0079c531659141344cd1fd0a4f28419497f9722a3daafe3b4186f6b6457e090600090a35050565b60006128fa8284613e57565b60006128fa8284613d4c565b6001600160801b03811115610e0f5760405162461bcd60e51b815260206004820152601060248201526f09eeccae4ccd8deee40ead2dce86264760831b6044820152606401610638565b60006128fa6127106117da612bd38583613d34565b8690612b5c565b6001600160a01b038116612c005760405162461bcd60e51b815260040161063890613bc0565b606680546001600160a01b0319166001600160a01b0392909216919091179055565b604080516001600160a01b0385811660248301528416604482015260648082018490528251808303909101815260849091019091526020810180516001600160e01b03166323b872dd60e01b179052612730908590612d09565b60006128fa6127106117da8585612b5c565b600054610100900460ff1680612ca7575060005460ff16155b612cc35760405162461bcd60e51b815260040161063890613af4565b600054610100900460ff16158015612ce5576000805461ffff19166101011790555b612ced612de0565b612cf5612e4a565b8015610e0f576000805461ff001916905550565b6000612d5e826040518060400160405280602081526020017f5361666545524332303a206c6f772d6c6576656c2063616c6c206661696c6564815250856001600160a01b0316612eaa9092919063ffffffff16565b805190915015612ddb5780806020019051810190612d7c9190613728565b612ddb5760405162461bcd60e51b815260206004820152602a60248201527f5361666545524332303a204552433230206f7065726174696f6e20646964206e6044820152691bdd081cdd58d8d9595960b21b6064820152608401610638565b505050565b600054610100900460ff1680612df9575060005460ff16155b612e155760405162461bcd60e51b815260040161063890613af4565b600054610100900460ff16158015612cf5576000805461ffff19166101011790558015610e0f576000805461ff001916905550565b600054610100900460ff1680612e63575060005460ff16155b612e7f5760405162461bcd60e51b815260040161063890613af4565b600054610100900460ff16158015612ea1576000805461ffff19166101011790555b612cf533612b0a565b6060612eb98484600085612ec3565b90505b9392505050565b606082471015612f245760405162461bcd60e51b815260206004820152602660248201527f416464726573733a20696e73756666696369656e742062616c616e636520666f6044820152651c8818d85b1b60d21b6064820152608401610638565b843b612f725760405162461bcd60e51b815260206004820152601d60248201527f416464726573733a2063616c6c20746f206e6f6e2d636f6e74726163740000006044820152606401610638565b600080866001600160a01b03168587604051612f8e9190613969565b60006040518083038185875af1925050503d8060008114612fcb576040519150601f19603f3d011682016040523d82523d6000602084013e612fd0565b606091505b5091509150612fe0828286612feb565b979650505050505050565b60608315612ffa575081612ebc565b82511561300a5782518084602001fd5b8160405162461bcd60e51b81526004016106389190613ac1565b6040805160e08101825260008082526020820181905291810182905260608101829052608081019190915260a081016130846040805160a08101825260008082526020820181905291810182905260608101829052608081019190915290565b81526040805160a0810182526000808252602082810182905292820181905260608201819052608082015291015290565b600082601f8301126130c5578081fd5b813560206130da6130d583613d11565b613ce1565b8281528181019085830160a0808602880185018910156130f8578687fd5b865b8681101561317d5781838b031215613110578788fd5b613118613c75565b61312184613234565b815261312e878501613234565b8782015260408085013561314181613f63565b9082015260608481013561315481613f63565b9082015260808481013561316781613f78565b90820152855293850193918101916001016130fa565b509198975050505050505050565b600060a0828403121561319c578081fd5b6131a4613c75565b905081516131b181613f86565b815260208201516131c181613f86565b602082015260408201516131d481613f86565b604082015260608201516131e781613f9b565b606082015260808201516131fa81613f63565b608082015292915050565b805161321081613f86565b919050565b805161321081613f9b565b805163ffffffff8116811461321057600080fd5b803560ff8116811461321057600080fd5b600060208284031215613256578081fd5b8135612ebc81613f63565b600080600060608486031215613275578182fd5b833561328081613f63565b9250602084013561329081613f63565b915060408401356001600160401b038111156132aa578182fd5b6132b6868287016130b5565b9150509250925092565b600060208083850312156132d2578182fd5b82356001600160401b038111156132e7578283fd5b8301601f810185136132f7578283fd5b80356133056130d582613d11565b80828252848201915084840188868560051b8701011115613324578687fd5b8694505b8385101561334f57803561333b81613f63565b835260019490940193918501918501613328565b50979650505050505050565b6000602080838503121561336d578182fd5b82356001600160401b03811115613382578283fd5b8301601f81018513613392578283fd5b80356133a06130d582613d11565b80828252848201915084840188868560061b87010111156133bf578687fd5b8694505b8385101561334f57604080828b0312156133db578788fd5b6133e3613c9d565b6133ec83613234565b8152878301356133fb81613f86565b8189015284526001959095019492860192016133c3565b60006020808385031215613424578182fd5b82356001600160401b03811115613439578283fd5b8301601f81018513613449578283fd5b80356134576130d582613d11565b80828252848201915084840188868560061b8701011115613476578687fd5b8694505b8385101561334f57604080828b031215613492578788fd5b61349a613c9d565b82356134a581613f86565b81526134b2838901613234565b81890152845260019590950194928601920161347a565b600060208083850312156134db578182fd5b82356001600160401b038111156134f0578283fd5b8301601f81018513613500578283fd5b803561350e6130d582613d11565b818152838101908385016060808502860187018a101561352c578788fd5b8795505b848610156135915780828b031215613546578788fd5b61354e613cbf565b61355783613234565b81528783013561356681613f86565b818901526040613577848201613234565b908201528452600195909501949286019290810190613530565b509098975050505050505050565b600060208083850312156135b1578182fd5b82356001600160401b038111156135c6578283fd5b8301601f810185136135d6578283fd5b80356135e46130d582613d11565b818152838101908385016060808502860187018a1015613602578788fd5b8795505b848610156135915780828b03121561361c578788fd5b613624613cbf565b823561362f81613f86565b81528288013561363e81613f9b565b81890152604061364f848201613234565b908201528452600195909501949286019290810190613606565b60006020828403121561367a578081fd5b81356001600160401b0381111561368f578182fd5b6106d8848285016130b5565b600060208083850312156136ad578182fd5b82356001600160401b038111156136c2578283fd5b8301601f810185136136d2578283fd5b80356136e06130d582613d11565b80828252848201915084840188868560051b87010111156136ff578687fd5b8694505b8385101561334f5761371481613234565b835260019490940193918501918501613703565b600060208284031215613739578081fd5b8151612ebc81613f78565b600060e08284031215613755578081fd5b60405160e081018181106001600160401b038211171561377757613777613f4d565b604052825161378581613f86565b8152602083015161379581613f86565b602082015260408301516137a881613f86565b604082015260608301516137bb81613f86565b60608201526137cc60808401613205565b60808201526137dd60a08401613205565b60a08201526137ee60c08401613215565b60c08201529392505050565b60006101e0828403121561380c578081fd5b60405160e081018181106001600160401b038211171561382e5761382e613f4d565b604052825161383c81613f86565b8152602083015161384c81613f86565b602082015261385d60408401613220565b6040820152606083015161387081613f9b565b606082015261388160808401613205565b60808201526138938460a0850161318b565b60a08201526137ee84610140850161318b565b600080604083850312156138b8578182fd5b6138c183613220565b915060208301516138d181613f9b565b809150509250929050565b6000602082840312156138ed578081fd5b6128fa82613234565b60008060408385031215613908578182fd5b61391183613234565b946020939093013593505050565b80516001600160801b0390811683526020808301518216908401526040808301519091169083015260608082015161ffff16908301526080908101516001600160a01b0316910152565b6000825161397b818460208701613ed0565b9190910192915050565b6020808252825182820181905260009190848201906040850190845b818110156139c65783516001600160a01b0316835292840192918401916001016139a1565b50909695505050505050565b602080825282518282018190526000919060409081850190868401855b82811015613a1d57815180516001600160a01b031685528601518685015292840192908501906001016139ef565b5091979650505050505050565b602080825282518282018190526000919060409081850190868401855b82811015613a1d57815180516001600160801b0390811686528782015181168887015286820151168686015260608082015161ffff169086015260808082015160ff169086015260a080820151613aa38288018261ffff169052565b505060c0908101519085015260e09093019290850190600101613a47565b6020815260008251806020840152613ae0816040850160208701613ed0565b601f01601f19169190910160400192915050565b6020808252602e908201527f496e697469616c697a61626c653a20636f6e747261637420697320616c72656160408201526d191e481a5b9a5d1a585b1a5e995960921b606082015260800190565b6020808252818101527f4f776e61626c653a2063616c6c6572206973206e6f7420746865206f776e6572604082015260600190565b6020808252600690820152651b1bd8dad95960d21b604082015260600190565b6020808252600f908201526e125b9d985b1a59081d985d5b1d1259608a1b604082015260600190565b60208082526008908201526710b6b0b730b3b2b960c11b604082015260600190565b60006101e0820190506001600160801b0380845116835280602085015116602084015263ffffffff604085015116604084015261ffff60608501511660608401528060808501511660808401525060a0830151613c4260a084018261391f565b5060c0830151611c6d61014084018261391f565b9283526001600160a01b03919091166020830152604082015260600190565b60405160a081016001600160401b0381118282101715613c9757613c97613f4d565b60405290565b604080519081016001600160401b0381118282101715613c9757613c97613f4d565b604051606081016001600160401b0381118282101715613c9757613c97613f4d565b604051601f8201601f191681016001600160401b0381118282101715613d0957613d09613f4d565b604052919050565b60006001600160401b03821115613d2a57613d2a613f4d565b5060051b60200190565b60008219821115613d4757613d47613f37565b500190565b600082613d6757634e487b7160e01b81526012600452602481fd5b500490565b600181815b80851115613da7578160001904821115613d8d57613d8d613f37565b80851615613d9a57918102915b93841c9390800290613d71565b509250929050565b60006128fa8383600082613dc5575060016128fd565b81613dd2575060006128fd565b8160018114613de85760028114613df257613e0e565b60019150506128fd565b60ff841115613e0357613e03613f37565b50506001821b6128fd565b5060208310610133831016604e8410600b8410161715613e31575081810a6128fd565b613e3b8383613d6c565b8060001904821115613e4f57613e4f613f37565b029392505050565b6000816000190483118215151615613e7157613e71613f37565b500290565b60006001600160801b0383811690831681811015613e9657613e96613f37565b039392505050565b600061ffff83811690831681811015613e9657613e96613f37565b600082821015613ecb57613ecb613f37565b500390565b60005b83811015613eeb578181015183820152602001613ed3565b838111156127305750506000910152565b6000600019821415613f1057613f10613f37565b5060010190565b600060ff821660ff811415613f2e57613f2e613f37565b60010192915050565b634e487b7160e01b600052601160045260246000fd5b634e487b7160e01b600052604160045260246000fd5b6001600160a01b0381168114610e0f57600080fd5b8015158114610e0f57600080fd5b6001600160801b0381168114610e0f57600080fd5b61ffff81168114610e0f57600080fdfea264697066735822122047092b2d253e107d5aa3ce752d4fe55249eb8968fb4f6b6360d06fc1d742aa4864736f6c63430008040033",
  "libraries": {
    "OptionLifecycle": "0xF600AD9c330753499a12A39F81F1859A9b9697A2"
  },
  "devdoc": {
    "kind": "dev",
    "methods": {
      "owner()": {
        "details": "Returns the address of the current owner."
      },
      "renounceOwnership()": {
        "details": "Leaves the contract without owner. It will not be possible to call `onlyOwner` functions anymore. Can only be called by the current owner. NOTE: Renouncing ownership will leave the contract without an owner, thereby removing any functionality that is only available to the owner."
      },
      "transferOwnership(address)": {
        "details": "Transfers ownership of the contract to a new account (`newOwner`). Can only be called by the current owner."
      }
    },
    "version": 1
  },
  "userdoc": {
    "kind": "user",
    "methods": {},
    "version": 1
  },
  "storageLayout": {
    "storage": [
      {
        "astId": 130,
        "contract": "contracts/SingleDirectionOptionUpgradeable.sol:SingleDirectionOptionUpgradeable",
        "label": "_initialized",
        "offset": 0,
        "slot": "0",
        "type": "t_bool"
      },
      {
        "astId": 133,
        "contract": "contracts/SingleDirectionOptionUpgradeable.sol:SingleDirectionOptionUpgradeable",
        "label": "_initializing",
        "offset": 1,
        "slot": "0",
        "type": "t_bool"
      },
      {
        "astId": 213,
        "contract": "contracts/SingleDirectionOptionUpgradeable.sol:SingleDirectionOptionUpgradeable",
        "label": "__gap",
        "offset": 0,
        "slot": "1",
        "type": "t_array(t_uint256)50_storage"
      },
      {
        "astId": 10,
        "contract": "contracts/SingleDirectionOptionUpgradeable.sol:SingleDirectionOptionUpgradeable",
        "label": "_owner",
        "offset": 0,
        "slot": "51",
        "type": "t_address"
      },
      {
        "astId": 123,
        "contract": "contracts/SingleDirectionOptionUpgradeable.sol:SingleDirectionOptionUpgradeable",
        "label": "__gap",
        "offset": 0,
        "slot": "52",
        "type": "t_array(t_uint256)49_storage"
      },
      {
        "astId": 6501,
        "contract": "contracts/SingleDirectionOptionUpgradeable.sol:SingleDirectionOptionUpgradeable",
        "label": "locked",
        "offset": 0,
        "slot": "101",
        "type": "t_uint256"
      },
      {
        "astId": 6503,
        "contract": "contracts/SingleDirectionOptionUpgradeable.sol:SingleDirectionOptionUpgradeable",
        "label": "managerRoleAddress",
        "offset": 0,
        "slot": "102",
        "type": "t_address"
      },
      {
        "astId": 6505,
        "contract": "contracts/SingleDirectionOptionUpgradeable.sol:SingleDirectionOptionUpgradeable",
        "label": "vaultCount",
        "offset": 20,
        "slot": "102",
        "type": "t_uint8"
      },
      {
        "astId": 6507,
        "contract": "contracts/SingleDirectionOptionUpgradeable.sol:SingleDirectionOptionUpgradeable",
        "label": "assetCount",
        "offset": 21,
        "slot": "102",
        "type": "t_uint8"
      },
      {
        "astId": 6512,
        "contract": "contracts/SingleDirectionOptionUpgradeable.sol:SingleDirectionOptionUpgradeable",
        "label": "vaultDefinitions",
        "offset": 0,
        "slot": "103",
        "type": "t_mapping(t_uint8,t_struct(VaultDefinition)6106_storage)"
      },
      {
        "astId": 6516,
        "contract": "contracts/SingleDirectionOptionUpgradeable.sol:SingleDirectionOptionUpgradeable",
        "label": "assets",
        "offset": 0,
        "slot": "104",
        "type": "t_mapping(t_uint8,t_address)"
      },
      {
        "astId": 6521,
        "contract": "contracts/SingleDirectionOptionUpgradeable.sol:SingleDirectionOptionUpgradeable",
        "label": "vaultStates",
        "offset": 0,
        "slot": "105",
        "type": "t_mapping(t_uint8,t_struct(VaultState)6145_storage)"
      },
      {
        "astId": 6526,
        "contract": "contracts/SingleDirectionOptionUpgradeable.sol:SingleDirectionOptionUpgradeable",
        "label": "buyerStates",
        "offset": 0,
        "slot": "106",
        "type": "t_mapping(t_address,t_struct(OptionBuyerState)6154_storage)"
      },
      {
        "astId": 6533,
        "contract": "contracts/SingleDirectionOptionUpgradeable.sol:SingleDirectionOptionUpgradeable",
        "label": "whitelist",
        "offset": 0,
        "slot": "107",
        "type": "t_mapping(t_address,t_bool)"
      },
      {
        "astId": 6537,
        "contract": "contracts/SingleDirectionOptionUpgradeable.sol:SingleDirectionOptionUpgradeable",
        "label": "traders",
        "offset": 0,
        "slot": "108",
        "type": "t_mapping(t_uint8,t_address)"
      },
      {
        "astId": 6539,
        "contract": "contracts/SingleDirectionOptionUpgradeable.sol:SingleDirectionOptionUpgradeable",
        "label": "traderCount",
        "offset": 0,
        "slot": "109",
        "type": "t_uint8"
      }
    ],
    "types": {
      "t_address": {
        "encoding": "inplace",
        "label": "address",
        "numberOfBytes": "20"
      },
      "t_array(t_struct(ExpiredVaultState)6201_storage)dyn_storage": {
        "base": "t_struct(ExpiredVaultState)6201_storage",
        "encoding": "dynamic_array",
        "label": "struct StructureData.ExpiredVaultState[]",
        "numberOfBytes": "32"
      },
      "t_array(t_uint256)49_storage": {
        "base": "t_uint256",
        "encoding": "inplace",
        "label": "uint256[49]",
        "numberOfBytes": "1568"
      },
      "t_array(t_uint256)50_storage": {
        "base": "t_uint256",
        "encoding": "inplace",
        "label": "uint256[50]",
        "numberOfBytes": "1600"
      },
      "t_bool": {
        "encoding": "inplace",
        "label": "bool",
        "numberOfBytes": "1"
      },
      "t_mapping(t_address,t_bool)": {
        "encoding": "mapping",
        "key": "t_address",
        "label": "mapping(address => bool)",
        "numberOfBytes": "32",
        "value": "t_bool"
      },
      "t_mapping(t_address,t_struct(OptionBuyerState)6154_storage)": {
        "encoding": "mapping",
        "key": "t_address",
        "label": "mapping(address => struct StructureData.OptionBuyerState)",
        "numberOfBytes": "32",
        "value": "t_struct(OptionBuyerState)6154_storage"
      },
      "t_mapping(t_address,t_struct(UserState)6169_storage)": {
        "encoding": "mapping",
        "key": "t_address",
        "label": "mapping(address => struct StructureData.UserState)",
        "numberOfBytes": "32",
        "value": "t_struct(UserState)6169_storage"
      },
      "t_mapping(t_address,t_uint256)": {
        "encoding": "mapping",
        "key": "t_address",
        "label": "mapping(address => uint256)",
        "numberOfBytes": "32",
        "value": "t_uint256"
      },
      "t_mapping(t_uint16,t_uint128)": {
        "encoding": "mapping",
        "key": "t_uint16",
        "label": "mapping(uint16 => uint128)",
        "numberOfBytes": "32",
        "value": "t_uint128"
      },
      "t_mapping(t_uint8,t_address)": {
        "encoding": "mapping",
        "key": "t_uint8",
        "label": "mapping(uint8 => address)",
        "numberOfBytes": "32",
        "value": "t_address"
      },
      "t_mapping(t_uint8,t_struct(VaultDefinition)6106_storage)": {
        "encoding": "mapping",
        "key": "t_uint8",
        "label": "mapping(uint8 => struct StructureData.VaultDefinition)",
        "numberOfBytes": "32",
        "value": "t_struct(VaultDefinition)6106_storage"
      },
      "t_mapping(t_uint8,t_struct(VaultState)6145_storage)": {
        "encoding": "mapping",
        "key": "t_uint8",
        "label": "mapping(uint8 => struct StructureData.VaultState)",
        "numberOfBytes": "32",
        "value": "t_struct(VaultState)6145_storage"
      },
      "t_struct(ExpiredVaultState)6201_storage": {
        "encoding": "inplace",
        "label": "struct StructureData.ExpiredVaultState",
        "members": [
          {
            "astId": 6188,
            "contract": "contracts/SingleDirectionOptionUpgradeable.sol:SingleDirectionOptionUpgradeable",
            "label": "amount",
            "offset": 0,
            "slot": "0",
            "type": "t_uint128"
          },
          {
            "astId": 6190,
            "contract": "contracts/SingleDirectionOptionUpgradeable.sol:SingleDirectionOptionUpgradeable",
            "label": "strike",
            "offset": 16,
            "slot": "0",
            "type": "t_uint128"
          },
          {
            "astId": 6192,
            "contract": "contracts/SingleDirectionOptionUpgradeable.sol:SingleDirectionOptionUpgradeable",
            "label": "expiryLevel",
            "offset": 0,
            "slot": "1",
            "type": "t_uint128"
          },
          {
            "astId": 6194,
            "contract": "contracts/SingleDirectionOptionUpgradeable.sol:SingleDirectionOptionUpgradeable",
            "label": "round",
            "offset": 16,
            "slot": "1",
            "type": "t_uint16"
          },
          {
            "astId": 6196,
            "contract": "contracts/SingleDirectionOptionUpgradeable.sol:SingleDirectionOptionUpgradeable",
            "label": "vaultId",
            "offset": 18,
            "slot": "1",
            "type": "t_uint8"
          },
          {
            "astId": 6198,
            "contract": "contracts/SingleDirectionOptionUpgradeable.sol:SingleDirectionOptionUpgradeable",
            "label": "premiumRate",
            "offset": 19,
            "slot": "1",
            "type": "t_uint16"
          },
          {
            "astId": 6200,
            "contract": "contracts/SingleDirectionOptionUpgradeable.sol:SingleDirectionOptionUpgradeable",
            "label": "optionHolderValue",
            "offset": 0,
            "slot": "2",
            "type": "t_uint256"
          }
        ],
        "numberOfBytes": "96"
      },
      "t_struct(OptionBuyerState)6154_storage": {
        "encoding": "inplace",
        "label": "struct StructureData.OptionBuyerState",
        "members": [
          {
            "astId": 6149,
            "contract": "contracts/SingleDirectionOptionUpgradeable.sol:SingleDirectionOptionUpgradeable",
            "label": "optionValueToCollect",
            "offset": 0,
            "slot": "0",
            "type": "t_mapping(t_address,t_uint256)"
          },
          {
            "astId": 6153,
            "contract": "contracts/SingleDirectionOptionUpgradeable.sol:SingleDirectionOptionUpgradeable",
            "label": "history",
            "offset": 0,
            "slot": "1",
            "type": "t_array(t_struct(ExpiredVaultState)6201_storage)dyn_storage"
          }
        ],
        "numberOfBytes": "64"
      },
      "t_struct(OptionState)6117_storage": {
        "encoding": "inplace",
        "label": "struct StructureData.OptionState",
        "members": [
          {
            "astId": 6108,
            "contract": "contracts/SingleDirectionOptionUpgradeable.sol:SingleDirectionOptionUpgradeable",
            "label": "amount",
            "offset": 0,
            "slot": "0",
            "type": "t_uint128"
          },
          {
            "astId": 6110,
            "contract": "contracts/SingleDirectionOptionUpgradeable.sol:SingleDirectionOptionUpgradeable",
            "label": "queuedRedeemAmount",
            "offset": 16,
            "slot": "0",
            "type": "t_uint128"
          },
          {
            "astId": 6112,
            "contract": "contracts/SingleDirectionOptionUpgradeable.sol:SingleDirectionOptionUpgradeable",
            "label": "strike",
            "offset": 0,
            "slot": "1",
            "type": "t_uint128"
          },
          {
            "astId": 6114,
            "contract": "contracts/SingleDirectionOptionUpgradeable.sol:SingleDirectionOptionUpgradeable",
            "label": "premiumRate",
            "offset": 16,
            "slot": "1",
            "type": "t_uint16"
          },
          {
            "astId": 6116,
            "contract": "contracts/SingleDirectionOptionUpgradeable.sol:SingleDirectionOptionUpgradeable",
            "label": "buyerAddress",
            "offset": 0,
            "slot": "2",
            "type": "t_address"
          }
        ],
        "numberOfBytes": "96"
      },
      "t_struct(UserState)6169_storage": {
        "encoding": "inplace",
        "label": "struct StructureData.UserState",
        "members": [
          {
            "astId": 6156,
            "contract": "contracts/SingleDirectionOptionUpgradeable.sol:SingleDirectionOptionUpgradeable",
            "label": "pending",
            "offset": 0,
            "slot": "0",
            "type": "t_uint128"
          },
          {
            "astId": 6158,
            "contract": "contracts/SingleDirectionOptionUpgradeable.sol:SingleDirectionOptionUpgradeable",
            "label": "redeemed",
            "offset": 16,
            "slot": "0",
            "type": "t_uint128"
          },
          {
            "astId": 6160,
            "contract": "contracts/SingleDirectionOptionUpgradeable.sol:SingleDirectionOptionUpgradeable",
            "label": "expiredAmount",
            "offset": 0,
            "slot": "1",
            "type": "t_uint128"
          },
          {
            "astId": 6162,
            "contract": "contracts/SingleDirectionOptionUpgradeable.sol:SingleDirectionOptionUpgradeable",
            "label": "expiredQueuedRedeemAmount",
            "offset": 16,
            "slot": "1",
            "type": "t_uint128"
          },
          {
            "astId": 6164,
            "contract": "contracts/SingleDirectionOptionUpgradeable.sol:SingleDirectionOptionUpgradeable",
            "label": "onGoingAmount",
            "offset": 0,
            "slot": "2",
            "type": "t_uint128"
          },
          {
            "astId": 6166,
            "contract": "contracts/SingleDirectionOptionUpgradeable.sol:SingleDirectionOptionUpgradeable",
            "label": "onGoingQueuedRedeemAmount",
            "offset": 16,
            "slot": "2",
            "type": "t_uint128"
          },
          {
            "astId": 6168,
            "contract": "contracts/SingleDirectionOptionUpgradeable.sol:SingleDirectionOptionUpgradeable",
            "label": "lastUpdateRound",
            "offset": 0,
            "slot": "3",
            "type": "t_uint16"
          }
        ],
        "numberOfBytes": "128"
      },
      "t_struct(VaultDefinition)6106_storage": {
        "encoding": "inplace",
        "label": "struct StructureData.VaultDefinition",
        "members": [
          {
            "astId": 6097,
            "contract": "contracts/SingleDirectionOptionUpgradeable.sol:SingleDirectionOptionUpgradeable",
            "label": "vaultId",
            "offset": 0,
            "slot": "0",
            "type": "t_uint8"
          },
          {
            "astId": 6099,
            "contract": "contracts/SingleDirectionOptionUpgradeable.sol:SingleDirectionOptionUpgradeable",
            "label": "assetAmountDecimals",
            "offset": 1,
            "slot": "0",
            "type": "t_uint8"
          },
          {
            "astId": 6101,
            "contract": "contracts/SingleDirectionOptionUpgradeable.sol:SingleDirectionOptionUpgradeable",
            "label": "asset",
            "offset": 2,
            "slot": "0",
            "type": "t_address"
          },
          {
            "astId": 6103,
            "contract": "contracts/SingleDirectionOptionUpgradeable.sol:SingleDirectionOptionUpgradeable",
            "label": "underlying",
            "offset": 0,
            "slot": "1",
            "type": "t_address"
          },
          {
            "astId": 6105,
            "contract": "contracts/SingleDirectionOptionUpgradeable.sol:SingleDirectionOptionUpgradeable",
            "label": "callOrPut",
            "offset": 20,
            "slot": "1",
            "type": "t_bool"
          }
        ],
        "numberOfBytes": "64"
      },
      "t_struct(VaultState)6145_storage": {
        "encoding": "inplace",
        "label": "struct StructureData.VaultState",
        "members": [
          {
            "astId": 6119,
            "contract": "contracts/SingleDirectionOptionUpgradeable.sol:SingleDirectionOptionUpgradeable",
            "label": "totalPending",
            "offset": 0,
            "slot": "0",
            "type": "t_uint128"
          },
          {
            "astId": 6121,
            "contract": "contracts/SingleDirectionOptionUpgradeable.sol:SingleDirectionOptionUpgradeable",
            "label": "totalRedeemed",
            "offset": 16,
            "slot": "0",
            "type": "t_uint128"
          },
          {
            "astId": 6123,
            "contract": "contracts/SingleDirectionOptionUpgradeable.sol:SingleDirectionOptionUpgradeable",
            "label": "cutOffAt",
            "offset": 0,
            "slot": "1",
            "type": "t_uint32"
          },
          {
            "astId": 6125,
            "contract": "contracts/SingleDirectionOptionUpgradeable.sol:SingleDirectionOptionUpgradeable",
            "label": "currentRound",
            "offset": 4,
            "slot": "1",
            "type": "t_uint16"
          },
          {
            "astId": 6127,
            "contract": "contracts/SingleDirectionOptionUpgradeable.sol:SingleDirectionOptionUpgradeable",
            "label": "maxCapacity",
            "offset": 6,
            "slot": "1",
            "type": "t_uint128"
          },
          {
            "astId": 6129,
            "contract": "contracts/SingleDirectionOptionUpgradeable.sol:SingleDirectionOptionUpgradeable",
            "label": "environment",
            "offset": 22,
            "slot": "1",
            "type": "t_uint8"
          },
          {
            "astId": 6132,
            "contract": "contracts/SingleDirectionOptionUpgradeable.sol:SingleDirectionOptionUpgradeable",
            "label": "onGoing",
            "offset": 0,
            "slot": "2",
            "type": "t_struct(OptionState)6117_storage"
          },
          {
            "astId": 6135,
            "contract": "contracts/SingleDirectionOptionUpgradeable.sol:SingleDirectionOptionUpgradeable",
            "label": "expired",
            "offset": 0,
            "slot": "5",
            "type": "t_struct(OptionState)6117_storage"
          },
          {
            "astId": 6139,
            "contract": "contracts/SingleDirectionOptionUpgradeable.sol:SingleDirectionOptionUpgradeable",
            "label": "depositPriceAfterExpiryPerRound",
            "offset": 0,
            "slot": "8",
            "type": "t_mapping(t_uint16,t_uint128)"
          },
          {
            "astId": 6144,
            "contract": "contracts/SingleDirectionOptionUpgradeable.sol:SingleDirectionOptionUpgradeable",
            "label": "userStates",
            "offset": 0,
            "slot": "9",
            "type": "t_mapping(t_address,t_struct(UserState)6169_storage)"
          }
        ],
        "numberOfBytes": "320"
      },
      "t_uint128": {
        "encoding": "inplace",
        "label": "uint128",
        "numberOfBytes": "16"
      },
      "t_uint16": {
        "encoding": "inplace",
        "label": "uint16",
        "numberOfBytes": "2"
      },
      "t_uint256": {
        "encoding": "inplace",
        "label": "uint256",
        "numberOfBytes": "32"
      },
      "t_uint32": {
        "encoding": "inplace",
        "label": "uint32",
        "numberOfBytes": "4"
      },
      "t_uint8": {
        "encoding": "inplace",
        "label": "uint8",
        "numberOfBytes": "1"
      }
    }
  }
}