{
  "address": "0x78CC008240Ba2a7c2784E6eeC412ac9D932Af463",
  "abi": [
    {
      "inputs": [
        {
          "internalType": "string",
          "name": "_name",
          "type": "string"
        },
        {
          "internalType": "address",
          "name": "_depositAsset",
          "type": "address"
        },
        {
          "internalType": "address",
          "name": "_counterPartyAsset",
          "type": "address"
        },
        {
          "internalType": "uint8",
          "name": "_depositAssetAmountDecimals",
          "type": "uint8"
        },
        {
          "internalType": "uint8",
          "name": "_counterPartyAssetAmountDecimals",
          "type": "uint8"
        },
        {
          "internalType": "address",
          "name": "_vaultAddress",
          "type": "address"
        },
        {
          "internalType": "bool",
          "name": "_callOrPut",
          "type": "bool"
        },
        {
          "internalType": "address",
          "name": "_settler",
          "type": "address"
        }
      ],
      "stateMutability": "nonpayable",
      "type": "constructor"
    },
    {
      "anonymous": false,
      "inputs": [
        {
          "indexed": true,
          "internalType": "uint256",
          "name": "round",
          "type": "uint256"
        }
      ],
      "name": "CloseOption",
      "type": "event"
    },
    {
      "anonymous": false,
      "inputs": [
        {
          "indexed": true,
          "internalType": "uint256",
          "name": "round",
          "type": "uint256"
        }
      ],
      "name": "CommitOption",
      "type": "event"
    },
    {
      "anonymous": false,
      "inputs": [
        {
          "indexed": true,
          "internalType": "address",
          "name": "from",
          "type": "address"
        },
        {
          "indexed": true,
          "internalType": "address",
          "name": "account",
          "type": "address"
        },
        {
          "indexed": true,
          "internalType": "uint256",
          "name": "round",
          "type": "uint256"
        },
        {
          "indexed": false,
          "internalType": "uint256",
          "name": "amount",
          "type": "uint256"
        },
        {
          "indexed": false,
          "internalType": "address",
          "name": "option",
          "type": "address"
        }
      ],
      "name": "Deposit",
      "type": "event"
    },
    {
      "anonymous": false,
      "inputs": [
        {
          "indexed": true,
          "internalType": "uint256",
          "name": "round",
          "type": "uint256"
        }
      ],
      "name": "OpenOption",
      "type": "event"
    },
    {
      "anonymous": false,
      "inputs": [
        {
          "indexed": true,
          "internalType": "address",
          "name": "option",
          "type": "address"
        },
        {
          "indexed": false,
          "internalType": "string",
          "name": "name",
          "type": "string"
        }
      ],
      "name": "OptionCreated",
      "type": "event"
    },
    {
      "anonymous": false,
      "inputs": [
        {
          "indexed": false,
          "internalType": "address",
          "name": "from",
          "type": "address"
        },
        {
          "indexed": false,
          "internalType": "address",
          "name": "to",
          "type": "address"
        },
        {
          "indexed": false,
          "internalType": "uint256",
          "name": "premium",
          "type": "uint256"
        },
        {
          "indexed": false,
          "internalType": "uint256",
          "name": "round",
          "type": "uint256"
        }
      ],
      "name": "OptionTransfer",
      "type": "event"
    },
    {
      "anonymous": false,
      "inputs": [
        {
          "indexed": true,
          "internalType": "bytes32",
          "name": "role",
          "type": "bytes32"
        },
        {
          "indexed": true,
          "internalType": "bytes32",
          "name": "previousAdminRole",
          "type": "bytes32"
        },
        {
          "indexed": true,
          "internalType": "bytes32",
          "name": "newAdminRole",
          "type": "bytes32"
        }
      ],
      "name": "RoleAdminChanged",
      "type": "event"
    },
    {
      "anonymous": false,
      "inputs": [
        {
          "indexed": true,
          "internalType": "bytes32",
          "name": "role",
          "type": "bytes32"
        },
        {
          "indexed": true,
          "internalType": "address",
          "name": "account",
          "type": "address"
        },
        {
          "indexed": true,
          "internalType": "address",
          "name": "sender",
          "type": "address"
        }
      ],
      "name": "RoleGranted",
      "type": "event"
    },
    {
      "anonymous": false,
      "inputs": [
        {
          "indexed": true,
          "internalType": "bytes32",
          "name": "role",
          "type": "bytes32"
        },
        {
          "indexed": true,
          "internalType": "address",
          "name": "account",
          "type": "address"
        },
        {
          "indexed": true,
          "internalType": "address",
          "name": "sender",
          "type": "address"
        }
      ],
      "name": "RoleRevoked",
      "type": "event"
    },
    {
      "anonymous": false,
      "inputs": [
        {
          "indexed": true,
          "internalType": "address",
          "name": "account",
          "type": "address"
        },
        {
          "indexed": true,
          "internalType": "address",
          "name": "asset",
          "type": "address"
        },
        {
          "indexed": false,
          "internalType": "uint256",
          "name": "amount",
          "type": "uint256"
        }
      ],
      "name": "Withdraw",
      "type": "event"
    },
    {
      "inputs": [],
      "name": "DEFAULT_ADMIN_ROLE",
      "outputs": [
        {
          "internalType": "bytes32",
          "name": "",
          "type": "bytes32"
        }
      ],
      "stateMutability": "view",
      "type": "function"
    },
    {
      "inputs": [],
      "name": "callOrPut",
      "outputs": [
        {
          "internalType": "bool",
          "name": "",
          "type": "bool"
        }
      ],
      "stateMutability": "view",
      "type": "function"
    },
    {
      "inputs": [
        {
          "internalType": "uint256",
          "name": "_assetToTerminate",
          "type": "uint256"
        }
      ],
      "name": "cancelWithdraw",
      "outputs": [],
      "stateMutability": "nonpayable",
      "type": "function"
    },
    {
      "inputs": [
        {
          "internalType": "bool",
          "name": "_execute",
          "type": "bool"
        }
      ],
      "name": "closePrevious",
      "outputs": [
        {
          "components": [
            {
              "internalType": "uint256",
              "name": "releasedDepositAssetAmount",
              "type": "uint256"
            },
            {
              "internalType": "uint256",
              "name": "releasedDepositAssetPremiumAmount",
              "type": "uint256"
            },
            {
              "internalType": "uint256",
              "name": "releasedCounterPartyAssetAmount",
              "type": "uint256"
            },
            {
              "internalType": "uint256",
              "name": "releasedCounterPartyAssetPremiumAmount",
              "type": "uint256"
            },
            {
              "internalType": "uint256",
              "name": "autoRollDepositAssetAmount",
              "type": "uint256"
            },
            {
              "internalType": "uint256",
              "name": "autoRollDepositAssetPremiumAmount",
              "type": "uint256"
            },
            {
              "internalType": "uint256",
              "name": "autoRollCounterPartyAssetAmount",
              "type": "uint256"
            },
            {
              "internalType": "uint256",
              "name": "autoRollCounterPartyAssetPremiumAmount",
              "type": "uint256"
            },
            {
              "internalType": "uint256",
              "name": "round",
              "type": "uint256"
            }
          ],
          "internalType": "struct StructureData.MaturedState",
          "name": "_maturedState",
          "type": "tuple"
        }
      ],
      "stateMutability": "nonpayable",
      "type": "function"
    },
    {
      "inputs": [],
      "name": "commitCurrent",
      "outputs": [],
      "stateMutability": "nonpayable",
      "type": "function"
    },
    {
      "inputs": [
        {
          "internalType": "uint256",
          "name": "_amount",
          "type": "uint256"
        },
        {
          "internalType": "address",
          "name": "_asset",
          "type": "address"
        }
      ],
      "name": "completeWithdraw",
      "outputs": [],
      "stateMutability": "nonpayable",
      "type": "function"
    },
    {
      "inputs": [],
      "name": "counterParty",
      "outputs": [
        {
          "internalType": "address",
          "name": "",
          "type": "address"
        }
      ],
      "stateMutability": "view",
      "type": "function"
    },
    {
      "inputs": [],
      "name": "counterPartyAsset",
      "outputs": [
        {
          "internalType": "address",
          "name": "",
          "type": "address"
        }
      ],
      "stateMutability": "view",
      "type": "function"
    },
    {
      "inputs": [],
      "name": "counterPartyAssetAmountDecimals",
      "outputs": [
        {
          "internalType": "uint8",
          "name": "",
          "type": "uint8"
        }
      ],
      "stateMutability": "view",
      "type": "function"
    },
    {
      "inputs": [],
      "name": "counterPartyOption",
      "outputs": [
        {
          "internalType": "contract IPKKTStructureOption",
          "name": "",
          "type": "address"
        }
      ],
      "stateMutability": "view",
      "type": "function"
    },
    {
      "inputs": [],
      "name": "currentRound",
      "outputs": [
        {
          "internalType": "uint256",
          "name": "",
          "type": "uint256"
        }
      ],
      "stateMutability": "view",
      "type": "function"
    },
    {
      "inputs": [
        {
          "internalType": "uint256",
          "name": "_amount",
          "type": "uint256"
        }
      ],
      "name": "deposit",
      "outputs": [],
      "stateMutability": "nonpayable",
      "type": "function"
    },
    {
      "inputs": [],
      "name": "depositAsset",
      "outputs": [
        {
          "internalType": "address",
          "name": "",
          "type": "address"
        }
      ],
      "stateMutability": "view",
      "type": "function"
    },
    {
      "inputs": [],
      "name": "depositAssetAmountDecimals",
      "outputs": [
        {
          "internalType": "uint8",
          "name": "",
          "type": "uint8"
        }
      ],
      "stateMutability": "view",
      "type": "function"
    },
    {
      "inputs": [],
      "name": "depositETH",
      "outputs": [],
      "stateMutability": "payable",
      "type": "function"
    },
    {
      "inputs": [
        {
          "internalType": "address[]",
          "name": "addresses",
          "type": "address[]"
        },
        {
          "internalType": "uint256[]",
          "name": "_amounts",
          "type": "uint256[]"
        },
        {
          "internalType": "uint256[]",
          "name": "_terminates",
          "type": "uint256[]"
        }
      ],
      "name": "depositFromCounterParty",
      "outputs": [],
      "stateMutability": "nonpayable",
      "type": "function"
    },
    {
      "inputs": [
        {
          "internalType": "bool",
          "name": "_execute",
          "type": "bool"
        }
      ],
      "name": "dryRunSettlement",
      "outputs": [
        {
          "components": [
            {
              "internalType": "uint256",
              "name": "round",
              "type": "uint256"
            },
            {
              "internalType": "uint256",
              "name": "depositAmount",
              "type": "uint256"
            },
            {
              "internalType": "uint256",
              "name": "autoRollAmount",
              "type": "uint256"
            },
            {
              "internalType": "uint256",
              "name": "autoRollPremium",
              "type": "uint256"
            },
            {
              "internalType": "uint256",
              "name": "releasedAmount",
              "type": "uint256"
            },
            {
              "internalType": "uint256",
              "name": "releasedPremium",
              "type": "uint256"
            },
            {
              "internalType": "uint256",
              "name": "autoRollCounterPartyAmount",
              "type": "uint256"
            },
            {
              "internalType": "uint256",
              "name": "autoRollCounterPartyPremium",
              "type": "uint256"
            },
            {
              "internalType": "uint256",
              "name": "releasedCounterPartyAmount",
              "type": "uint256"
            },
            {
              "internalType": "uint256",
              "name": "releasedCounterPartyPremium",
              "type": "uint256"
            },
            {
              "internalType": "address",
              "name": "option",
              "type": "address"
            },
            {
              "internalType": "bool",
              "name": "executed",
              "type": "bool"
            }
          ],
          "internalType": "struct StructureData.SettlementAccountingResult",
          "name": "_result",
          "type": "tuple"
        }
      ],
      "stateMutability": "view",
      "type": "function"
    },
    {
      "inputs": [],
      "name": "getAccountBalance",
      "outputs": [
        {
          "components": [
            {
              "internalType": "uint256",
              "name": "pendingDepositAssetAmount",
              "type": "uint256"
            },
            {
              "internalType": "uint256",
              "name": "lockedDepositAssetAmount",
              "type": "uint256"
            },
            {
              "internalType": "uint256",
              "name": "terminatingDepositAssetAmount",
              "type": "uint256"
            },
            {
              "internalType": "uint256",
              "name": "toTerminateDepositAssetAmount",
              "type": "uint256"
            },
            {
              "internalType": "uint256",
              "name": "releasedDepositAssetAmount",
              "type": "uint256"
            },
            {
              "internalType": "uint256",
              "name": "releasedCounterPartyAssetAmount",
              "type": "uint256"
            }
          ],
          "internalType": "struct StructureData.UserBalance",
          "name": "",
          "type": "tuple"
        }
      ],
      "stateMutability": "view",
      "type": "function"
    },
    {
      "inputs": [],
      "name": "getOptionSnapShot",
      "outputs": [
        {
          "components": [
            {
              "internalType": "uint256",
              "name": "totalPending",
              "type": "uint256"
            },
            {
              "internalType": "uint256",
              "name": "totalLocked",
              "type": "uint256"
            },
            {
              "internalType": "uint256",
              "name": "totalTerminating",
              "type": "uint256"
            },
            {
              "internalType": "uint256",
              "name": "totalToTerminate",
              "type": "uint256"
            },
            {
              "internalType": "uint256",
              "name": "totalReleasedDeposit",
              "type": "uint256"
            },
            {
              "internalType": "uint256",
              "name": "totalReleasedCounterParty",
              "type": "uint256"
            }
          ],
          "internalType": "struct StructureData.OptionSnapshot",
          "name": "",
          "type": "tuple"
        }
      ],
      "stateMutability": "view",
      "type": "function"
    },
    {
      "inputs": [
        {
          "internalType": "bytes32",
          "name": "role",
          "type": "bytes32"
        }
      ],
      "name": "getRoleAdmin",
      "outputs": [
        {
          "internalType": "bytes32",
          "name": "",
          "type": "bytes32"
        }
      ],
      "stateMutability": "view",
      "type": "function"
    },
    {
      "inputs": [
        {
          "internalType": "uint256",
          "name": "_blockHeight",
          "type": "uint256"
        }
      ],
      "name": "getRoundData",
      "outputs": [
        {
          "components": [
            {
              "internalType": "uint256",
              "name": "round",
              "type": "uint256"
            },
            {
              "internalType": "uint256",
              "name": "totalAmount",
              "type": "uint256"
            },
            {
              "internalType": "uint256",
              "name": "totalTerminate",
              "type": "uint256"
            },
            {
              "internalType": "uint256",
              "name": "strikePrice",
              "type": "uint256"
            },
            {
              "internalType": "uint16",
              "name": "premiumRate",
              "type": "uint16"
            },
            {
              "internalType": "uint8",
              "name": "pricePrecision",
              "type": "uint8"
            },
            {
              "internalType": "bool",
              "name": "executed",
              "type": "bool"
            },
            {
              "internalType": "bool",
              "name": "callOrPut",
              "type": "bool"
            }
          ],
          "internalType": "struct StructureData.OptionState",
          "name": "",
          "type": "tuple"
        }
      ],
      "stateMutability": "view",
      "type": "function"
    },
    {
      "inputs": [
        {
          "internalType": "address",
          "name": "_asset",
          "type": "address"
        }
      ],
      "name": "getWithdrawable",
      "outputs": [
        {
          "internalType": "uint256",
          "name": "",
          "type": "uint256"
        }
      ],
      "stateMutability": "view",
      "type": "function"
    },
    {
      "inputs": [
        {
          "internalType": "bytes32",
          "name": "role",
          "type": "bytes32"
        },
        {
          "internalType": "address",
          "name": "account",
          "type": "address"
        }
      ],
      "name": "grantRole",
      "outputs": [],
      "stateMutability": "nonpayable",
      "type": "function"
    },
    {
      "inputs": [
        {
          "internalType": "bytes32",
          "name": "role",
          "type": "bytes32"
        },
        {
          "internalType": "address",
          "name": "account",
          "type": "address"
        }
      ],
      "name": "hasRole",
      "outputs": [
        {
          "internalType": "bool",
          "name": "",
          "type": "bool"
        }
      ],
      "stateMutability": "view",
      "type": "function"
    },
    {
      "inputs": [
        {
          "internalType": "uint256",
          "name": "_assetToTerminate",
          "type": "uint256"
        }
      ],
      "name": "initiateWithraw",
      "outputs": [],
      "stateMutability": "nonpayable",
      "type": "function"
    },
    {
      "inputs": [],
      "name": "isEth",
      "outputs": [
        {
          "internalType": "bool",
          "name": "",
          "type": "bool"
        }
      ],
      "stateMutability": "view",
      "type": "function"
    },
    {
      "inputs": [],
      "name": "maxCancelWithdraw",
      "outputs": [],
      "stateMutability": "nonpayable",
      "type": "function"
    },
    {
      "inputs": [],
      "name": "maxInitiateWithdraw",
      "outputs": [],
      "stateMutability": "nonpayable",
      "type": "function"
    },
    {
      "inputs": [],
      "name": "name",
      "outputs": [
        {
          "internalType": "string",
          "name": "",
          "type": "string"
        }
      ],
      "stateMutability": "view",
      "type": "function"
    },
    {
      "inputs": [
        {
          "internalType": "uint256",
          "name": "",
          "type": "uint256"
        }
      ],
      "name": "optionHeights",
      "outputs": [
        {
          "internalType": "uint256",
          "name": "",
          "type": "uint256"
        }
      ],
      "stateMutability": "view",
      "type": "function"
    },
    {
      "inputs": [
        {
          "internalType": "uint256",
          "name": "",
          "type": "uint256"
        }
      ],
      "name": "optionStates",
      "outputs": [
        {
          "internalType": "uint256",
          "name": "round",
          "type": "uint256"
        },
        {
          "internalType": "uint256",
          "name": "totalAmount",
          "type": "uint256"
        },
        {
          "internalType": "uint256",
          "name": "totalTerminate",
          "type": "uint256"
        },
        {
          "internalType": "uint256",
          "name": "strikePrice",
          "type": "uint256"
        },
        {
          "internalType": "uint16",
          "name": "premiumRate",
          "type": "uint16"
        },
        {
          "internalType": "uint8",
          "name": "pricePrecision",
          "type": "uint8"
        },
        {
          "internalType": "bool",
          "name": "executed",
          "type": "bool"
        },
        {
          "internalType": "bool",
          "name": "callOrPut",
          "type": "bool"
        }
      ],
      "stateMutability": "view",
      "type": "function"
    },
    {
      "inputs": [],
      "name": "optionVault",
      "outputs": [
        {
          "internalType": "contract IOptionVault",
          "name": "",
          "type": "address"
        }
      ],
      "stateMutability": "view",
      "type": "function"
    },
    {
      "inputs": [
        {
          "internalType": "uint256",
          "name": "_amount",
          "type": "uint256"
        }
      ],
      "name": "redeem",
      "outputs": [],
      "stateMutability": "nonpayable",
      "type": "function"
    },
    {
      "inputs": [
        {
          "internalType": "uint256",
          "name": "_amount",
          "type": "uint256"
        }
      ],
      "name": "redeposit",
      "outputs": [],
      "stateMutability": "nonpayable",
      "type": "function"
    },
    {
      "inputs": [
        {
          "internalType": "uint256",
          "name": "_amount",
          "type": "uint256"
        }
      ],
      "name": "redepositToCounterParty",
      "outputs": [],
      "stateMutability": "nonpayable",
      "type": "function"
    },
    {
      "inputs": [
        {
          "internalType": "bytes32",
          "name": "role",
          "type": "bytes32"
        },
        {
          "internalType": "address",
          "name": "account",
          "type": "address"
        }
      ],
      "name": "renounceRole",
      "outputs": [],
      "stateMutability": "nonpayable",
      "type": "function"
    },
    {
      "inputs": [
        {
          "internalType": "bytes32",
          "name": "role",
          "type": "bytes32"
        },
        {
          "internalType": "address",
          "name": "account",
          "type": "address"
        }
      ],
      "name": "revokeRole",
      "outputs": [],
      "stateMutability": "nonpayable",
      "type": "function"
    },
    {
      "inputs": [
        {
          "internalType": "uint256",
          "name": "_quota",
          "type": "uint256"
        }
      ],
      "name": "rollToNext",
      "outputs": [
        {
          "internalType": "uint256",
          "name": "_pendingAmount",
          "type": "uint256"
        }
      ],
      "stateMutability": "nonpayable",
      "type": "function"
    },
    {
      "inputs": [
        {
          "internalType": "address",
          "name": "_counterParty",
          "type": "address"
        }
      ],
      "name": "setCounterPartyOption",
      "outputs": [],
      "stateMutability": "nonpayable",
      "type": "function"
    },
    {
      "inputs": [
        {
          "components": [
            {
              "internalType": "uint256",
              "name": "strikePrice",
              "type": "uint256"
            },
            {
              "internalType": "address",
              "name": "option",
              "type": "address"
            },
            {
              "internalType": "uint8",
              "name": "pricePrecision",
              "type": "uint8"
            },
            {
              "internalType": "uint16",
              "name": "premiumRate",
              "type": "uint16"
            }
          ],
          "internalType": "struct StructureData.OptionParameters",
          "name": "_optionParameters",
          "type": "tuple"
        }
      ],
      "name": "setOptionParameters",
      "outputs": [],
      "stateMutability": "nonpayable",
      "type": "function"
    },
    {
      "inputs": [
        {
          "internalType": "bytes4",
          "name": "interfaceId",
          "type": "bytes4"
        }
      ],
      "name": "supportsInterface",
      "outputs": [
        {
          "internalType": "bool",
          "name": "",
          "type": "bool"
        }
      ],
      "stateMutability": "view",
      "type": "function"
    },
    {
      "inputs": [],
      "name": "totalReleasedCounterPartyAssetAmount",
      "outputs": [
        {
          "internalType": "uint256",
          "name": "",
          "type": "uint256"
        }
      ],
      "stateMutability": "view",
      "type": "function"
    },
    {
      "inputs": [],
      "name": "totalReleasedDepositAssetAmount",
      "outputs": [
        {
          "internalType": "uint256",
          "name": "",
          "type": "uint256"
        }
      ],
      "stateMutability": "view",
      "type": "function"
    },
    {
      "inputs": [],
      "name": "underSettlement",
      "outputs": [
        {
          "internalType": "bool",
          "name": "",
          "type": "bool"
        }
      ],
      "stateMutability": "view",
      "type": "function"
    },
    {
      "inputs": [
        {
          "internalType": "address",
          "name": "",
          "type": "address"
        }
      ],
      "name": "userStates",
      "outputs": [
        {
          "internalType": "uint256",
          "name": "pendingAsset",
          "type": "uint256"
        },
        {
          "internalType": "uint256",
          "name": "tempLocked",
          "type": "uint256"
        },
        {
          "internalType": "uint256",
          "name": "ongoingAsset",
          "type": "uint256"
        },
        {
          "internalType": "uint256",
          "name": "assetToTerminate",
          "type": "uint256"
        },
        {
          "internalType": "uint256",
          "name": "assetToTerminateForNextRound",
          "type": "uint256"
        },
        {
          "internalType": "uint232",
          "name": "totalRound",
          "type": "uint232"
        },
        {
          "internalType": "bool",
          "name": "hasState",
          "type": "bool"
        }
      ],
      "stateMutability": "view",
      "type": "function"
    },
    {
      "inputs": [
        {
          "internalType": "uint256",
          "name": "",
          "type": "uint256"
        }
      ],
      "name": "usersInvolved",
      "outputs": [
        {
          "internalType": "address",
          "name": "",
          "type": "address"
        }
      ],
      "stateMutability": "view",
      "type": "function"
    },
    {
      "inputs": [],
      "name": "vaultAddress",
      "outputs": [
        {
          "internalType": "address",
          "name": "",
          "type": "address"
        }
      ],
      "stateMutability": "view",
      "type": "function"
    },
    {
      "inputs": [
        {
          "internalType": "uint256",
          "name": "_amount",
          "type": "uint256"
        },
        {
          "internalType": "address",
          "name": "_asset",
          "type": "address"
        }
      ],
      "name": "withdraw",
      "outputs": [],
      "stateMutability": "nonpayable",
      "type": "function"
    }
  ],
  "transactionHash": "0x660f8a710f483607b9e99db4d6dcad7c65b753cdac7a2a19876e1fe190e6e0bb",
  "args": [
    "ETH-USDC-HodlBooster-Call",
    "0x0000000000000000000000000000000000000000",
    "0x254a9c29eaf137Fc7a6c23C9bb0D82a68C39c37D",
    18,
    6,
    "0x90e46A9178d2282B4F71CC8849F171f5Ece7347e",
    "0xcE12e6f175d75Ca87219DB68D08f5617cd0F0d50",
    "0x7FAa46FB04BB00de3F6D5E90d78b4a37f8E48cd4"
  ],
  "solcInputHash": "3027ccb9d7ffc812bd88586571e0c5f6",
  "bytecode": "0x60806040523480156200001157600080fd5b50604051620052df380380620052df83398101604081905262000034916200033f565b600180556001600160a01b038316620000935760405162461bcd60e51b815260206004820152601360248201527f456d707479207661756c74206164647265737300000000000000000000000000604482015260640160405180910390fd5b60128054620000a290620004e0565b80601f0160208091040260200160405190810160405280929190818152602001828054620000d090620004e0565b8015620001215780601f10620000f55761010080835404028352916020019162000121565b820191906000526020600020905b8154815290600101906020018083116200010357829003601f168201915b505050505097506200013d6000801b336200024f60201b60201c565b62000158600080516020620052bf833981519152826200024f565b62000173600080516020620052bf833981519152846200024f565b60028054600380546001600160a01b038a81166001600160a81b0319909216919091178b82168015600160a01b029190911790925560ff8981166001600160b01b03199094166201000090930261ffff19169290921792909217610100918816820217909255600b80546001600160a01b0319169186169190911790556009805461ff00191684151590920291909117905560405130907f8f61f0def895309a310dec5facf78f589cf18d834f0ba4030a5e68e32180ec979062000239908b9062000478565b60405180910390a2505050505050505062000533565b6200025b82826200025f565b5050565b6000828152602081815260408083206001600160a01b038516845290915290205460ff166200025b576000828152602081815260408083206001600160a01b03851684529091529020805460ff19166001179055620002bb3390565b6001600160a01b0316816001600160a01b0316837f2f8788117e7eff1d82e926ec794901d17c78024a50270940304540a733656f0d60405160405180910390a45050565b80516001600160a01b03811681146200031757600080fd5b919050565b805180151581146200031757600080fd5b805160ff811681146200031757600080fd5b600080600080600080600080610100898b0312156200035c578384fd5b88516001600160401b038082111562000373578586fd5b818b0191508b601f83011262000387578586fd5b8151818111156200039c576200039c6200051d565b604051601f8201601f19908116603f01168101908382118183101715620003c757620003c76200051d565b816040528281528e6020848701011115620003e0578889fd5b620003f3836020830160208801620004ad565b809c5050505050506200040960208a01620002ff565b96506200041960408a01620002ff565b95506200042960608a016200032d565b94506200043960808a016200032d565b93506200044960a08a01620002ff565b92506200045960c08a016200031c565b91506200046960e08a01620002ff565b90509295985092959890939650565b602081526000825180602084015262000499816040850160208701620004ad565b601f01601f19169190910160400192915050565b60005b83811015620004ca578181015183820152602001620004b0565b83811115620004da576000848401525b50505050565b600181811c90821680620004f557607f821691505b602082108114156200051757634e487b7160e01b600052602260045260246000fd5b50919050565b634e487b7160e01b600052604160045260246000fd5b614d7c80620005436000396000f3fe6080604052600436106102925760003560e01c8063652354741161015a578063a217fddf116100c1578063c515d7e71161007a578063c515d7e7146109d9578063ccc41f24146109f9578063d547741f14610a1f578063db006a7514610a3f578063eef9f5a514610a5f578063f6326fb314610a8557600080fd5b8063a217fddf14610922578063a2589ef914610937578063a5d3e5b114610957578063b6b55f2514610984578063bb9662c8146109a4578063c02337df146109c457600080fd5b80638cd89359116101135780638cd893591461086e578063902025391461088e57806391d14854146108ad57806392b4d26a146108cd5780639e4cbd7d146108e25780639f01f7ba1461090257600080fd5b8063652354741461072e5780636896fabf146107e25780636a2af8201461080457806370349bfb146108235780637a95adc7146108385780638a19c8bc1461085857600080fd5b80631de245af116101fe57806332cc6ae6116101b757806332cc6ae61461067757806336568abe1461069757806341b9f329146106b7578063430bf08a146106e3578063511db114146106f8578063640575721461071957600080fd5b80631de245af146105a757806321c9445c146105c7578063248a9ca3146105e75780632c453bdf146106175780632f2ff15d14610637578063301d11e41461065757600080fd5b80630e777b4b116102505780630e777b4b146103da5780630ecc535f146103fa5780630fd491731461049f57806311c8556d146104b5578063135ad969146104ed578063186a4a171461051a57600080fd5b8062f714ce1461029757806301ffc9a7146102b957806306fdde03146102ee5780630720da52146103105780630748248f1461039c5780630b2737e4146103b6575b600080fd5b3480156102a357600080fd5b506102b76102b2366004614603565b610a8d565b005b3480156102c557600080fd5b506102d96102d4366004614632565b610d3a565b60405190151581526020015b60405180910390f35b3480156102fa57600080fd5b50610303610d71565b6040516102e59190614840565b34801561031c57600080fd5b5061033061032b3660046145eb565b610dff565b6040516102e591906000610100820190508251825260208301516020830152604083015160408301526060830151606083015261ffff608084015116608083015260ff60a08401511660a083015260c0830151151560c083015260e0830151151560e083015292915050565b3480156103a857600080fd5b506009546102d99060ff1681565b3480156103c257600080fd5b506103cc600c5481565b6040519081526020016102e5565b3480156103e657600080fd5b506102b76103f53660046145eb565b610e95565b34801561040657600080fd5b5061045f610415366004614495565b60086020526000908152604090208054600182015460028301546003840154600485015460059095015493949293919290916001600160e81b03811690600160e81b900460ff1687565b60408051978852602088019690965294860193909352606085019190915260808401526001600160e81b031660a0830152151560c082015260e0016102e5565b3480156104ab57600080fd5b506103cc600d5481565b3480156104c157600080fd5b50600b546104d5906001600160a01b031681565b6040516001600160a01b0390911681526020016102e5565b3480156104f957600080fd5b5061050d6105083660046145b3565b611102565b6040516102e591906149d5565b34801561052657600080fd5b5061053a6105353660046145b3565b6113c9565b6040516102e59190600061012082019050825182526020830151602083015260408301516040830152606083015160608301526080830151608083015260a083015160a083015260c083015160c083015260e083015160e083015261010080840151818401525092915050565b3480156105b357600080fd5b506104d56105c23660046145eb565b61162e565b3480156105d357600080fd5b506102b76105e2366004614603565b611658565b3480156105f357600080fd5b506103cc6106023660046145eb565b60009081526020819052604090206001015490565b34801561062357600080fd5b50600a546104d5906001600160a01b031681565b34801561064357600080fd5b506102b7610652366004614603565b61185c565b34801561066357600080fd5b506102b761067236600461465a565b611887565b34801561068357600080fd5b506103cc610692366004614495565b6119b6565b3480156106a357600080fd5b506102b76106b2366004614603565b611a4c565b3480156106c357600080fd5b506002546106d19060ff1681565b60405160ff90911681526020016102e5565b3480156106ef57600080fd5b506104d5611ac6565b34801561070457600080fd5b506003546102d990600160a01b900460ff1681565b34801561072557600080fd5b506102b7611b48565b34801561073a57600080fd5b5061079c6107493660046145eb565b600660205260009081526040902080546001820154600283015460038401546004909401549293919290919061ffff81169060ff62010000820481169163010000008104821691600160201b9091041688565b60408051988952602089019790975295870194909452606086019290925261ffff16608085015260ff1660a0840152151560c0830152151560e0820152610100016102e5565b3480156107ee57600080fd5b506107f7611d4b565b6040516102e59190614992565b34801561081057600080fd5b506002546106d190610100900460ff1681565b34801561082f57600080fd5b506102b7611ee4565b34801561084457600080fd5b506102b76108533660046144cd565b611fe5565b34801561086457600080fd5b506103cc60045481565b34801561087a57600080fd5b506103cc6108893660046145eb565b612081565b34801561089a57600080fd5b506009546102d990610100900460ff1681565b3480156108b957600080fd5b506102d96108c8366004614603565b612339565b3480156108d957600080fd5b506107f7612362565b3480156108ee57600080fd5b506102b76108fd3660046145eb565b612667565b34801561090e57600080fd5b506102b761091d3660046145eb565b61287d565b34801561092e57600080fd5b506103cc600081565b34801561094357600080fd5b506102b76109523660046145eb565b61299c565b34801561096357600080fd5b506103cc6109723660046145eb565b60056020526000908152604090205481565b34801561099057600080fd5b506102b761099f3660046145eb565b612a59565b3480156109b057600080fd5b506003546104d5906001600160a01b031681565b3480156109d057600080fd5b506102b7612b53565b3480156109e557600080fd5b506102b76109f4366004614495565b612dc9565b348015610a0557600080fd5b506002546104d5906201000090046001600160a01b031681565b348015610a2b57600080fd5b506102b7610a3a366004614603565b612e6a565b348015610a4b57600080fd5b506102b7610a5a3660046145eb565b612e90565b348015610a6b57600080fd5b506009546104d5906201000090046001600160a01b031681565b6102b7612fdf565b60026001541415610ab95760405162461bcd60e51b8152600401610ab09061495b565b60405180910390fd5b600260015581610adb5760405162461bcd60e51b8152600401610ab090614915565b60095460ff1615610afe5760405162461bcd60e51b8152600401610ab09061489e565b6002546001600160a01b0382811662010000909204161480610b2d57506003546001600160a01b038281169116145b610b715760405162461bcd60e51b8152602060048201526015602482015274496e76616c6964206173736574206164647265737360581b6044820152606401610ab0565b6002546001600160a01b0382811662010000909204161415610c4e57336000908152600e6020526040902054828111610c1d5733600090815260086020526040812090610bbe858461310b565b8254909150610bcd908261310b565b8255336000908152600e6020526040812055600c54610bec908461310b565b600c5560045460009081526006602052604090206001810154610c0f908361310b565b60019091015550610c489050565b610c27818461310b565b336000908152600e6020526040902055600c54610c44908461310b565b600c555b50610c89565b336000908152600f6020526040902054610c68908361310b565b336000908152600f6020526040902055600d54610c85908361310b565b600d555b600b546040516309777fbf60e11b81526001600160a01b03909116906312eeff7e90610cc0903390869086906000906004016147ab565b600060405180830381600087803b158015610cda57600080fd5b505af1158015610cee573d6000803e3d6000fd5b50506040518481526001600160a01b03841692503391507f9b1bfa7fa9ee420a16e124f794c35ac9f90472acc99140eb2f6447c714cad8eb9060200160405180910390a3505060018055565b60006001600160e01b03198216637965db0b60e01b1480610d6b57506301ffc9a760e01b6001600160e01b03198316145b92915050565b60128054610d7e90614c87565b80601f0160208091040260200160405190810160405280929190818152602001828054610daa90614c87565b8015610df75780601f10610dcc57610100808354040283529160200191610df7565b820191906000526020600020905b815481529060010190602001808311610dda57829003601f168201915b505050505081565b610e07614358565b5060009081526005602090815260408083205483526006825291829020825161010081018452815481526001820154928101929092526002810154928201929092526003820154606082015260049091015461ffff8116608083015260ff620100008204811660a0840152630100000082048116151560c0840152600160201b90910416151560e082015290565b60008111610eda5760405162461bcd60e51b8152602060048201526012602482015271215f6173736574546f5465726d696e61746560701b6044820152606401610ab0565b600160045411610efc5760405162461bcd60e51b8152600401610ab090614936565b33600090815260086020526040902060095460ff1615611079576004810154600090610f28908461311e565b905060045460021415610fa0578160010154811115610f595760405162461bcd60e51b8152600401610ab090614873565b6000600660006001600454610f6e9190614c2d565b81526020019081526020016000209050610f9584826002015461311e90919063ffffffff16565b600290910155611070565b6000600660006002600454610fb59190614c2d565b815260208082019290925260409081016000908120600480820154845160e0810186528954815260018a01549681019690965260028901549486019490945260038801546060860152870154608085015260058701546001600160e81b03811660a0860152600160e81b900460ff16151560c085015293509161103b9161ffff1661312a565b90508083111561105d5760405162461bcd60e51b8152600401610ab090614873565b60105461106a908661311e565b60105550505b60048201555050565b600381015460009061108b908461311e565b905081600201548111156110b15760405162461bcd60e51b8152600401610ab090614873565b80826003018190555060006006600060016004546110cf9190614c2d565b815260200190815260200160002090506110f684826002015461311e90919063ffffffff16565b600290910155505b5050565b6111716040518061018001604052806000815260200160008152602001600081526020016000815260200160008152602001600081526020016000815260200160008152602001600081526020016000815260200160006001600160a01b031681526020016000151581525090565b600080516020614d2783398151915261118a8133613189565b60095460ff166111ac5760405162461bcd60e51b8152600401610ab0906148ea565b6001600454116111f25760405162461bcd60e51b81526020600482015260116024820152704e6f7468696e6720746f20736574746c6560781b6044820152606401610ab0565b60006006600060016004546112079190614c2d565b81526020019081526020016000209050600060405180610180016040528060016004546112349190614c2d565b8152602001836001015481526020016000815260200160008152602001600081526020016000815260200160008152602001600081526020016000815260200160008152602001306001600160a01b031681526020018615158152509050600260045411156113bf5760006006600060026004546112b29190614c2d565b8152602080820192909252604090810160009081208251610100808201855282548252600183015495820195909552600280830154948201949094526003820154606082015260049091015461ffff8116608083015260ff620100008204811660a0840152630100000082048116151560c0840152600160201b9091048116151560e08301526009549354919550919361135c938b938793918390048116928282169204166131ed565b905086156113935760c0808201519084015260e08082015190840152604081015161010084015260608101516101208401526113bc565b608080820151604085015260a08083015160608601528251918501919091526020820151908401525b50505b9250505b50919050565b6113d16143a8565b600080516020614d278339815191526113ea8133613189565b60095460ff1661140c5760405162461bcd60e51b8152600401610ab0906148ea565b60026004541161144b5760405162461bcd60e51b815260206004820152600a6024820152691b9bc81b585d1d5c995960b21b6044820152606401610ab0565b6000600260045461145c9190614c2d565b600081815260066020908152604080832081516101008082018452825482526001830154948201949094526002808301549382019390935260038201546060820152600482015461ffff8116608083015260ff620100008204811660a0840152630100000082048116151560c0840152600160201b9091048116151560e083015260095493549697509195611504948b949293928190048316928281169291909104166131ed565b6004830180548815801563010000000263ff000000199092169190911790915590915061155a57611552816060015161154c8360400151600d5461311e90919063ffffffff16565b9061311e565b600d55611577565b60208101518151600c54611573929161154c919061311e565b600c555b6001820154156115fa576040805161010081018252835481526001840154602082015260028401549181019190915260038301546060820152600483015461ffff8116608083015260ff620100008204811660a0840152630100000082048116151560c0840152600160201b90910416151560e08201526115fa90879083613401565b60405183907f5fd55b58a9ef8c29a9db39dd9a05dec64993eb227ad0177941238778e9ea896290600090a295945050505050565b6007818154811061163e57600080fd5b6000918252602090912001546001600160a01b0316905081565b6002600154141561167b5760405162461bcd60e51b8152600401610ab09061495b565b60026001558161169d5760405162461bcd60e51b8152600401610ab090614915565b60095460ff16156116c05760405162461bcd60e51b8152600401610ab09061489e565b6001600454116116e25760405162461bcd60e51b8152600401610ab0906148c5565b6002546001600160a01b038281166201000090920416148061171157506003546001600160a01b038281169116145b6117555760405162461bcd60e51b8152602060048201526015602482015274496e76616c6964206173736574206164647265737360581b6044820152606401610ab0565b6002546001600160a01b03828116620100009092041614156117b057336000908152600e602052604090205461178b908361310b565b336000908152600e6020526040902055600c546117a8908361310b565b600c556117eb565b336000908152600f60205260409020546117ca908361310b565b336000908152600f6020526040902055600d546117e7908361310b565b600d555b600b546040516309777fbf60e11b81526001600160a01b03909116906312eeff7e90611822903390869086906000906004016147ab565b600060405180830381600087803b15801561183c57600080fd5b505af1158015611850573d6000803e3d6000fd5b50506001805550505050565b6000828152602081905260409020600101546118788133613189565b6118828383613b91565b505050565b600080516020614d278339815191526118a08133613189565b6001600454116118e05760405162461bcd60e51b815260206004820152600b60248201526a1b9bdd081cdd185c9d195960aa1b6044820152606401610ab0565b60095460ff16156119035760405162461bcd60e51b8152600401610ab09061489e565b600060016004546119149190614c2d565b6000818152600660205260409020600381015491925090156119785760405162461bcd60e51b815260206004820152601860248201527f537472696b6520507269636520616c72656164792073657400000000000000006044820152606401610ab0565b8351600382015560608401516004909101805460409095015160ff16620100000262ffffff1990951661ffff90921691909117939093179092555050565b6002546000906001600160a01b03838116620100009092041614156119f657600c54600454600090815260066020526040902060010154610d6b9161311e565b6003546001600160a01b0383811691161415611a14575050600d5490565b60405162461bcd60e51b815260206004820152600d60248201526c1a5b9d985b1a5908185cdcd95d609a1b6044820152606401610ab0565b6001600160a01b0381163314611abc5760405162461bcd60e51b815260206004820152602f60248201527f416363657373436f6e74726f6c3a2063616e206f6e6c792072656e6f756e636560448201526e103937b632b9903337b91039b2b63360891b6064820152608401610ab0565b6110fe8282613c15565b600b54604080516338cc483160e01b815290516000926001600160a01b0316916338cc4831916004808301926020929190829003018186803b158015611b0b57600080fd5b505afa158015611b1f573d6000803e3d6000fd5b505050506040513d601f19601f82011682018060405250810190611b4391906144b1565b905090565b600160045411611b6a5760405162461bcd60e51b8152600401610ab090614936565b33600090815260086020526040902060095460ff1615611ce35760045460021415611c07576000611bac8260040154836001015461310b90919063ffffffff16565b905080156110fe57816001015482600401819055506000600660006001600454611bd69190614c2d565b81526020019081526020016000209050611bfd82826002015461311e90919063ffffffff16565b6002909101555050565b6000600660006002600454611c1c9190614c2d565b815260208082019290925260409081016000908120600480820154845160e0810186528854815260018901549681019690965260028801549486019490945260038701546060860152860154608085015260058601546001600160e81b03811660a0860152600160e81b900460ff16151560c0850152935091611ca29161ffff1661312a565b90506000611cbd84600401548361310b90919063ffffffff16565b90508015611cdd5760048401829055601054611cd9908261311e565b6010555b50505050565b60028101546003820154600090611cfb90839061310b565b90508015611882578183600301819055506000600660006001600454611d219190614c2d565b815260200190815260200160002090506110f682826002015461311e90919063ffffffff16565b50565b611d846040518060c001604052806000815260200160008152602001600081526020016000815260200160008152602001600081525090565b336000818152600860209081526040808320815160c0810183528154815280840185905280830185905260608101859052858552600e8452828520546080820152948452600f9092529091205460a083015260095490919060ff1615611eca5760026004541115611eb1576000600660006002600454611e049190614c2d565b81526020808201929092526040908101600020600490810154825160e0810184528754815260018801549481019490945260028701549284019290925260038601546060840152850154608083015260058501546001600160e81b03811660a0840152600160e81b900460ff16151560c083015261ffff169150611e88908261312a565b60208301526003830154611e9c9082613c7a565b60408301525060048201546060820152610d6b565b6001820154602082015260048201546060820152610d6b565b600282015460208201526003820154606082015292915050565b600160045411611f065760405162461bcd60e51b8152600401610ab090614936565b33600090815260086020526040902060095460ff1615611f955760045460021415611f76576000600660006001600454611f409190614c2d565b81526020019081526020016000209050611f6b8260040154826002015461310b90919063ffffffff16565b600290910155611f8b565b6004810154601054611f879161310b565b6010555b6000600482015550565b6000600660006001600454611faa9190614c2d565b81526020019081526020016000209050611fd58260030154826002015461310b90919063ffffffff16565b6002909101556000600382015550565b600a546001600160a01b031633146120565760405162461bcd60e51b815260206004820152602e60248201527f4f6e6c7920636f756e746572207061727479206f7074696f6e2063616e20636160448201526d1b1b081d1a1a5cc81b595d1a1bd960921b6064820152608401610ab0565b60095460009060ff1661206b5760045461207a565b600160045461207a9190614c2d565b5050505050565b6000600080516020614d2783398151915261209c8133613189565b60095460ff16156120bf5760405162461bcd60e51b8152600401610ab09061489e565b600160045411156121355760006006600060016004546120df9190614c2d565b815260200190815260200160002060030154116121355760405162461bcd60e51b815260206004820152601460248201527314dd1c9a5ad948141c9a58d9481b9bdd081cd95d60621b6044820152606401610ab0565b6009805460ff19166001908117909155601184905560045461215691614ac3565b600481815560408051610100808201835284825260006020808401828152848601838152606086018481526080870185815260a0880186815260c0890187815260095460ff9990048916151560e08b019081529c8852600690965298909520875181559251600180850191909155915160028401555160038301559251908701805496519251985161ffff90921662ffffff19909716969096176201000092909416919091029290921764ffff000000191663010000009615159690960264ff00000000191695909517600160201b91151591909102179091559054909110156122c05760075460005b818110156122b95760006007828154811061226b57634e487b7160e01b600052603260045260246000fd5b60009182526020808320909101546001600160a01b031680835260089091526040909120805491925090156122a257805460018201555b6000905550806122b181614cbc565b915050612240565b50506122cb565b6009805460ff191690555b6004546040517f10f419fb017d3101d854d4433e414ff27f232bb2f4aae83d987ad0219efa6c9b90600090a26001600454111561232f576006600060016004546123159190614c2d565b8152602001908152602001600020600101549250506113c3565b5060009392505050565b6000918252602082815260408084206001600160a01b0393909316845291905290205460ff1690565b61239b6040518060c001604052806000815260200160008152602001600081526020016000815260200160008152602001600081525090565b60045460009081526006602052604090206123b4614358565b6123bc614358565b6040805160c081018252600185015481526000602082018190529181018290526060810191909152600c546080820152600d5460a082015260095460ff16156125ae576006600060016004546124129190614c2d565b8152602080820192909252604090810160002081516101008101835281548152600182015493810193909352600280820154928401929092526003810154606084015260049081015461ffff8116608085015260ff620100008204811660a0860152630100000082048116151560c0860152600160201b90910416151560e0840152549194501015612597576006600060026004546124b19190614c2d565b81526020808201929092526040908101600020815161010081018352815481526001820154938101939093526002810154918301918252600381015460608085019190915260049091015461ffff8082166080860190815260ff620100008404811660a0880152630100000084048116151560c0880152600160201b909304909216151560e086015260105492860192909252519151929450612555929116613c7a565b604082018190526080830151602084015161258d92916125879161257c9161ffff16613c7a565b60208701519061311e565b9061310b565b602082015261265f565b60208084015190820152601054606082015261265f565b6001600454111561265f576006600060016004546125cc9190614c2d565b815260208082019290925260409081016000208151610100810183528154815260018201548185018190526002830154938201938452600383015460608084019190915260049093015461ffff8116608084015260ff620100008204811660a0850152630100000082048116151560c0850152600160201b90910416151560e08301529385019390935290519083015291505b949350505050565b60095460ff161561268a5760405162461bcd60e51b8152600401610ab09061489e565b6001600454116126ac5760405162461bcd60e51b8152600401610ab0906148c5565b600081116126cc5760405162461bcd60e51b8152600401610ab090614915565b336000908152600f60205260409020546126e6908261310b565b336000908152600f6020526040902055600c54612703908261310b565b600c556040805160018082528183019092526000916020808301908036833750506040805160018082528183019092529293506000929150602080830190803683375050604080516001808252818301909252929350600092915060208083019080368337019050509050338360008151811061279057634e487b7160e01b600052603260045260246000fd5b60200260200101906001600160a01b031690816001600160a01b03168152505083826000815181106127d257634e487b7160e01b600052603260045260246000fd5b60200260200101818152505060008160008151811061280157634e487b7160e01b600052603260045260246000fd5b6020908102919091010152600954604051637a95adc760e01b8152620100009091046001600160a01b031690637a95adc790612845908690869086906004016147d5565b600060405180830381600087803b15801561285f57600080fd5b505af1158015612873573d6000803e3d6000fd5b5050505050505050565b600081116128c25760405162461bcd60e51b8152602060048201526012602482015271215f6173736574546f5465726d696e61746560701b6044820152606401610ab0565b6001600454116128e45760405162461bcd60e51b8152600401610ab090614936565b33600090815260086020526040902060095460ff161561297057600481015461290d908361310b565b81600401819055506004546002141561295c5760006006600060016004546129359190614c2d565b81526020019081526020016000209050611bfd83826002015461310b90919063ffffffff16565b601054612969908361310b565b6010555050565b600381015461297f908361310b565b816003018190555060006006600060016004546129359190614c2d565b600260015414156129bf5760405162461bcd60e51b8152600401610ab09061495b565b60026001908155600454116129e65760405162461bcd60e51b8152600401610ab0906148c5565b60008111612a065760405162461bcd60e51b8152600401610ab090614915565b336000908152600e6020526040902054612a20908261310b565b336000908152600e6020526040902055600c54612a3d908261310b565b600c81905550612a5233826004546000613c96565b5060018055565b60026001541415612a7c5760405162461bcd60e51b8152600401610ab09061495b565b6002600155600454612abb5760405162461bcd60e51b81526020600482015260086024820152670854dd185c9d195960c21b6044820152606401610ab0565b600354600160a01b900460ff1615612afe5760405162461bcd60e51b815260206004820152600660248201526502145524332360d41b6044820152606401610ab0565b60008111612b1e5760405162461bcd60e51b8152600401610ab090614915565b612b2d33826004546000613c96565b612a5233612b39611ac6565b6002546201000090046001600160a01b0316919084613e3d565b600080516020614d27833981519152612b6c8133613189565b60026001541415612b8f5760405162461bcd60e51b8152600401610ab09061495b565b6002600190815560045411612bd45760405162461bcd60e51b815260206004820152600b60248201526a1b9bdd081cdd185c9d195960aa1b6044820152606401610ab0565b600260045411158015612bea575060095460ff16155b15612bfd576009805460ff191660011790555b60095460ff16612c1f5760405162461bcd60e51b8152600401610ab0906148ea565b60006001600454612c309190614c2d565b600081815260066020526040812060075492935091905b81811015612d6157600060078281548110612c7257634e487b7160e01b600052603260045260246000fd5b60009182526020808320909101546001600160a01b03168083526008909152604090912060048101549192509015612cb857600481018054600383015560009055612cca565b600381015415612cca57600060038201555b6001810154612ce157600060029091015550612d4f565b60048501548554604080513081526001600160a01b038616602082015261ffff9093169083015260608201527fe32540b403abb4ebf4396862a5996e4798b57d9312e048b14b0e0e5e3fb9eaeb9060800160405180910390a160018101805460029092019190915560009055505b80612d5981614cbc565b915050612c47565b506010546002830154612d739161311e565b600283015560006010819055838152600560205260408082204390555184917ffa513f17b83baf0c2da337ab931a96429f75c55f0ee2115b7acd007a1a35dd5191a250506009805460ff19169055505060018055565b6000612dd58133613189565b6001600160a01b038216301415612e2e5760405162461bcd60e51b815260206004820181905260248201527f43616e6e6f74207365742073656c6620617320636f756e7465722070617274796044820152606401610ab0565b506009805462010000600160b01b031916620100006001600160a01b0393909316928302179055600a80546001600160a01b0319169091179055565b600082815260208190526040902060010154612e868133613189565b6118828383613c15565b60026001541415612eb35760405162461bcd60e51b8152600401610ab09061495b565b600260015580612ed55760405162461bcd60e51b8152600401610ab090614915565b3360009081526008602052604090208054612ef0908361310b565b815560045460009081526006602052604090206001810154612f12908461310b565b600180830191909155600b546002546040516309777fbf60e11b81526001600160a01b03928316936312eeff7e93612f5b9333938a9362010000909204909216916004016147ab565b600060405180830381600087803b158015612f7557600080fd5b505af1158015612f89573d6000803e3d6000fd5b5050600254604051868152620100009091046001600160a01b031692503391507f9b1bfa7fa9ee420a16e124f794c35ac9f90472acc99140eb2f6447c714cad8eb9060200160405180910390a350506001805550565b600260015414156130025760405162461bcd60e51b8152600401610ab09061495b565b60026001556004546130415760405162461bcd60e51b81526020600482015260086024820152670854dd185c9d195960c21b6044820152606401610ab0565b600354600160a01b900460ff166130835760405162461bcd60e51b8152600401610ab0906020808252600490820152630428aa8960e31b604082015260600190565b600034116130bc5760405162461bcd60e51b81526020600482015260066024820152652176616c756560d01b6044820152606401610ab0565b6130cb33346004546000613c96565b6130d3611ac6565b6001600160a01b03166108fc349081150290604051600060405180830381858888f19350505050158015612a52573d6000803e3d6000fd5b60006131178284614c2d565b9392505050565b60006131178284614ac3565b6040820151600090806131435750506020820151610d6b565b6131648361315e86606001518461310b90919063ffffffff16565b90613c7a565b905083602001516000141561317a579050610d6b565b602084015161265f908261311e565b6131938282612339565b6110fe576131ab816001600160a01b03166014613e97565b6131b6836020613e97565b6040516020016131c7929190614736565b60408051601f198184030181529082905262461bcd60e51b8252610ab091600401614840565b6131f56143a8565b600060405180610120016040528060008152602001600081526020016000815260200160008152602001600081526020016000815260200160008152602001600081526020018760000151815250905086156133745760008561329c5761329761326086600a614b63565b6132918960600151613291888c60a0015161327b9190614adb565b61328690600a614b63565b60208d015190614079565b90614085565b6132e1565b6132e1858860a001516132af9190614adb565b6132ba90600a614b63565b6132916132c887600a614b63565b60608b015160208c01516132db91614079565b90614079565b90506000613300886080015161ffff168361409190919063ffffffff16565b604089015190915015613342576133208289604001518a602001516140a3565b83604001818152505061333c8189604001518a602001516140a3565b60608401525b604083015161335290839061310b565b60c0840152606083015161336790829061310b565b60e0840152506133f79050565b6020860151608087015160009061339090839061ffff16614091565b6040890151909150156133cd576133b08289604001518a602001516140a3565b8352604088015160208901516133c79183916140a3565b60208401525b82516133da90839061310b565b608084015260208301516133ef90829061310b565b60a084015250505b9695505050505050565b6007546040830151602084015160009161341b919061310b565b90508461359657600060016004546134339190614c2d565b602085015185519192506000916134499161311e565b905060006134688660a00151876080015161311e90919063ffffffff16565b905060005b8581101561358b5760006007828154811061349857634e487b7160e01b600052603260045260246000fd5b60009182526020808320909101546001600160a01b0316808352600890915260409091206002810154919250906134d757600060039091015550613579565b60006134ec8683600301548d604001516140a3565b90508015613531576001600160a01b0383166000908152600e6020526040902054613517908261311e565b6001600160a01b0384166000908152600e60205260409020555b6000613558866135528560030154866002015461310b90919063ffffffff16565b8b6140a3565b9050801561356d5761356d84828a6000613c96565b50506000600390910155505b8061358381614cbc565b91505061346d565b505050505050505050565b60006135b38460600151856040015161311e90919063ffffffff16565b905060006135d28560e001518660c0015161311e90919063ffffffff16565b905060006010541180156135e65750600081115b15613630576000613608876080015161ffff1685613c7a90919063ffffffff16565b9050601054811061361d57600060105561362e565b60105461362a908261310b565b6010555b505b60005b848110156138975760006007828154811061365e57634e487b7160e01b600052603260045260246000fd5b60009182526020808320909101546001600160a01b0316808352600890915260409091206002810154919250908061369f5750600060039091015550613885565b60006136b48784600301548d604001516140a3565b905080156136f9576001600160a01b0384166000908152600f60205260409020546136df908261311e565b6001600160a01b0385166000908152600f60205260409020555b600383015461370990839061310b565b9150600061371887848b6140a3565b90508015613875576014805460018082019092557fce6d7b5282bd9a3661ae061feed1dbda4e52ab073b1f9285be6e155d9c38d4ec0182905560138054808301825560009182527f66de8ffda797e3de9c05e8fc57b3bf0ec28a930d40b0d285d93c06501cf6a0900180546001600160a01b0319166001600160a01b03891617905560808e8101516040805160e081018252895481529489015460208601526002890154908501526003880154606085015260048801549184019190915260058701546001600160e81b03811660a0850152600160e81b900460ff16151560c0840152909161380a9161ffff166140e9565b50905080156138415760006138308e6080015161ffff1686613c7a90919063ffffffff16565b905061383d8383836140a3565b9150505b601580546001810182556000919091527f55f448fdea98c4d29eb340757ef0a66cd03dbb9538908a6a81d96026b71ec47501555b6000846003018190555050505050505b8061388f81614cbc565b915050613633565b50601454806138aa575050505050505050565b60008167ffffffffffffffff8111156138d357634e487b7160e01b600052604160045260246000fd5b6040519080825280602002602001820160405280156138fc578160200160208202803683370190505b50905060008267ffffffffffffffff81111561392857634e487b7160e01b600052604160045260246000fd5b604051908082528060200260200182016040528015613951578160200160208202803683370190505b50905060008367ffffffffffffffff81111561397d57634e487b7160e01b600052604160045260246000fd5b6040519080825280602002602001820160405280156139a6578160200160208202803683370190505b50905060005b84811015613af457601381815481106139d557634e487b7160e01b600052603260045260246000fd5b9060005260206000200160009054906101000a90046001600160a01b0316848281518110613a1357634e487b7160e01b600052603260045260246000fd5b60200260200101906001600160a01b031690816001600160a01b03168152505060148181548110613a5457634e487b7160e01b600052603260045260246000fd5b9060005260206000200154838281518110613a7f57634e487b7160e01b600052603260045260246000fd5b60200260200101818152505060158181548110613aac57634e487b7160e01b600052603260045260246000fd5b9060005260206000200154828281518110613ad757634e487b7160e01b600052603260045260246000fd5b602090810291909101015280613aec81614cbc565b9150506139ac565b50613b01601360006143f4565b613b0d601460006143f4565b613b19601560006143f4565b600954604051637a95adc760e01b8152620100009091046001600160a01b031690637a95adc790613b52908690869086906004016147d5565b600060405180830381600087803b158015613b6c57600080fd5b505af1158015613b80573d6000803e3d6000fd5b505050505050505050505050505050565b613b9b8282612339565b6110fe576000828152602081815260408083206001600160a01b03851684529091529020805460ff19166001179055613bd13390565b6001600160a01b0316816001600160a01b0316837f2f8788117e7eff1d82e926ec794901d17c78024a50270940304540a733656f0d60405160405180910390a45050565b613c1f8282612339565b156110fe576000828152602081815260408083206001600160a01b0385168085529252808320805460ff1916905551339285917ff6391f5c32d9c69d2a47ea670b442974b53935d1edc7fd64eb21e047a839171b9190a45050565b6000613117612710613291613c8f828661311e565b8690614079565b60008281526006602052604090206011546001820154613cb6908661311e565b1115613cf75760405162461bcd60e51b815260206004820152601060248201526f4e6f7420656e6f7567682071756f746160801b6044820152606401610ab0565b6001600160a01b03851660009081526008602052604090206005810154600160e81b900460ff16613d855760058101805460ff60e81b1916600160e81b179055600780546001810182556000919091527fa66cc928b5edb82af9bd49922954155ab7b0942694bea4ce44661d9a8736c6880180546001600160a01b0388166001600160a01b03199091161790555b6004548414613dcb576001810154613d9d908661311e565b60018201556004810154613db1908461311e565b6004820155601054613dc3908461311e565b601055613dda565b8054613dd7908661311e565b81555b6001820154613de9908661311e565b60018301556040805186815230602082015285916001600160a01b0389169133917ff5dd9317b9e63ac316ce44acc85f670b54b339cfa3e9076e1dd55065b922314b910160405180910390a4505050505050565b604080516001600160a01b0385811660248301528416604482015260648082018490528251808303909101815260849091019091526020810180516001600160e01b03166323b872dd60e01b179052611cdd90859061417b565b60606000613ea6836002614c0e565b613eb1906002614ac3565b67ffffffffffffffff811115613ed757634e487b7160e01b600052604160045260246000fd5b6040519080825280601f01601f191660200182016040528015613f01576020820181803683370190505b509050600360fc1b81600081518110613f2a57634e487b7160e01b600052603260045260246000fd5b60200101906001600160f81b031916908160001a905350600f60fb1b81600181518110613f6757634e487b7160e01b600052603260045260246000fd5b60200101906001600160f81b031916908160001a9053506000613f8b846002614c0e565b613f96906001614ac3565b90505b600181111561402a576f181899199a1a9b1b9c1cb0b131b232b360811b85600f1660108110613fd857634e487b7160e01b600052603260045260246000fd5b1a60f81b828281518110613ffc57634e487b7160e01b600052603260045260246000fd5b60200101906001600160f81b031916908160001a90535060049490941c9361402381614c70565b9050613f99565b5083156131175760405162461bcd60e51b815260206004820181905260248201527f537472696e67733a20686578206c656e67746820696e73756666696369656e746044820152606401610ab0565b60006131178284614c0e565b60006131178284614b00565b60006131176127106132918585614079565b60008215806140b0575081155b806140b9575083155b156140c657506000613117565b818310156140e1576140dc826132918686614079565b61265f565b509192915050565b60008083602001516000141561410757505060808201516000614174565b604084015180614121575050506080820151600090614174565b606085015161413190829061310b565b9050600061413f8286613c7a565b90508086608001511161415c575050505060808201516000614174565b6080860151819061416d908261310b565b9350935050505b9250929050565b60006141d0826040518060400160405280602081526020017f5361666545524332303a206c6f772d6c6576656c2063616c6c206661696c6564815250856001600160a01b031661424d9092919063ffffffff16565b80519091501561188257808060200190518101906141ee91906145cf565b6118825760405162461bcd60e51b815260206004820152602a60248201527f5361666545524332303a204552433230206f7065726174696f6e20646964206e6044820152691bdd081cdd58d8d9595960b21b6064820152608401610ab0565b606061265f848460008585843b6142a65760405162461bcd60e51b815260206004820152601d60248201527f416464726573733a2063616c6c20746f206e6f6e2d636f6e74726163740000006044820152606401610ab0565b600080866001600160a01b031685876040516142c2919061471a565b60006040518083038185875af1925050503d80600081146142ff576040519150601f19603f3d011682016040523d82523d6000602084013e614304565b606091505b509150915061431482828661431f565b979650505050505050565b6060831561432e575081613117565b82511561433e5782518084602001fd5b8160405162461bcd60e51b8152600401610ab09190614840565b60405180610100016040528060008152602001600081526020016000815260200160008152602001600061ffff168152602001600060ff1681526020016000151581526020016000151581525090565b6040518061012001604052806000815260200160008152602001600081526020016000815260200160008152602001600081526020016000815260200160008152602001600081525090565b5080546000825590600052602060002090810190611d4891905b80821115614422576000815560010161440e565b5090565b600082601f830112614436578081fd5b8135602061444b61444683614a9f565b614a6e565b80838252828201915082860187848660051b890101111561446a578586fd5b855b858110156144885781358452928401929084019060010161446c565b5090979650505050505050565b6000602082840312156144a6578081fd5b813561311781614d03565b6000602082840312156144c2578081fd5b815161311781614d03565b6000806000606084860312156144e1578182fd5b833567ffffffffffffffff808211156144f8578384fd5b818601915086601f83011261450b578384fd5b8135602061451b61444683614a9f565b8083825282820191508286018b848660051b890101111561453a578889fd5b8896505b8487101561456557803561455181614d03565b83526001969096019591830191830161453e565b509750508701359250508082111561457b578384fd5b61458787838801614426565b9350604086013591508082111561459c578283fd5b506145a986828701614426565b9150509250925092565b6000602082840312156145c4578081fd5b813561311781614d18565b6000602082840312156145e0578081fd5b815161311781614d18565b6000602082840312156145fc578081fd5b5035919050565b60008060408385031215614615578182fd5b82359150602083013561462781614d03565b809150509250929050565b600060208284031215614643578081fd5b81356001600160e01b031981168114613117578182fd5b60006080828403121561466b578081fd5b6040516080810181811067ffffffffffffffff8211171561468e5761468e614ced565b6040528235815260208301356146a381614d03565b6020820152604083013560ff811681146146bb578283fd5b6040820152606083013561ffff811681146146d4578283fd5b60608201529392505050565b6000815180845260208085019450808401835b8381101561470f578151875295820195908201906001016146f3565b509495945050505050565b6000825161472c818460208701614c44565b9190910192915050565b7f416363657373436f6e74726f6c3a206163636f756e742000000000000000000081526000835161476e816017850160208801614c44565b7001034b99036b4b9b9b4b733903937b6329607d1b601791840191820152835161479f816028840160208801614c44565b01602801949350505050565b6001600160a01b039485168152602081019390935292166040820152901515606082015260800190565b606080825284519082018190526000906020906080840190828801845b828110156148175781516001600160a01b0316845292840192908401906001016147f2565b5050508381038285015261482b81876146e0565b91505082810360408401526133f781856146e0565b602081526000825180602084015261485f816040850160208701614c44565b601f01601f19169190910160400192915050565b6020808252601190820152704578636565647320617661696c61626c6560781b604082015260600190565b6020808252600d908201526c10995a5b99c81cd95d1d1b1959609a1b604082015260600190565b6020808252600b908201526a08539bc813585d1d5c995960aa1b604082015260600190565b602080825260119082015270139bdd0818995a5b99c81cd95d1d1b1959607a1b604082015260600190565b60208082526007908201526608585b5bdd5b9d60ca1b604082015260600190565b6020808252600b908201526a4e6f206f6e20676f696e6760a81b604082015260600190565b6020808252601f908201527f5265656e7472616e637947756172643a207265656e7472616e742063616c6c00604082015260600190565b60c08101610d6b8284805182526020810151602083015260408101516040830152606081015160608301526080810151608083015260a081015160a08301525050565b600061018082019050825182526020830151602083015260408301516040830152606083015160608301526080830151608083015260a083015160a083015260c083015160c083015260e083015160e083015261010080840151818401525061012080840151818401525061014080840151614a5b828501826001600160a01b03169052565b5050610160928301511515919092015290565b604051601f8201601f1916810167ffffffffffffffff81118282101715614a9757614a97614ced565b604052919050565b600067ffffffffffffffff821115614ab957614ab9614ced565b5060051b60200190565b60008219821115614ad657614ad6614cd7565b500190565b600060ff821660ff84168060ff03821115614af857614af8614cd7565b019392505050565b600082614b1b57634e487b7160e01b81526012600452602481fd5b500490565b600181815b80851115614b5b578160001904821115614b4157614b41614cd7565b80851615614b4e57918102915b93841c9390800290614b25565b509250929050565b600061311760ff841683600082614b7c57506001610d6b565b81614b8957506000610d6b565b8160018114614b9f5760028114614ba957614bc5565b6001915050610d6b565b60ff841115614bba57614bba614cd7565b50506001821b610d6b565b5060208310610133831016604e8410600b8410161715614be8575081810a610d6b565b614bf28383614b20565b8060001904821115614c0657614c06614cd7565b029392505050565b6000816000190483118215151615614c2857614c28614cd7565b500290565b600082821015614c3f57614c3f614cd7565b500390565b60005b83811015614c5f578181015183820152602001614c47565b83811115611cdd5750506000910152565b600081614c7f57614c7f614cd7565b506000190190565b600181811c90821680614c9b57607f821691505b602082108114156113c357634e487b7160e01b600052602260045260246000fd5b6000600019821415614cd057614cd0614cd7565b5060010190565b634e487b7160e01b600052601160045260246000fd5b634e487b7160e01b600052604160045260246000fd5b6001600160a01b0381168114611d4857600080fd5b8015158114611d4857600080fdfe6666bf5bfee463d10a7fc50448047f8a53b7762d7e28fbc5c643182785f3fd3fa26469706673582212208bed43cd39e7abb142604f0be7272483acb85de650c6b120d85ea8d86a30b82064736f6c634300080400336666bf5bfee463d10a7fc50448047f8a53b7762d7e28fbc5c643182785f3fd3f",
  "libraries": {
    "StructureData": true
  },
  "devdoc": {
    "kind": "dev",
    "methods": {
      "getRoleAdmin(bytes32)": {
        "details": "Returns the admin role that controls `role`. See {grantRole} and {revokeRole}. To change a role's admin, use {_setRoleAdmin}."
      },
      "grantRole(bytes32,address)": {
        "details": "Grants `role` to `account`. If `account` had not been already granted `role`, emits a {RoleGranted} event. Requirements: - the caller must have ``role``'s admin role."
      },
      "hasRole(bytes32,address)": {
        "details": "Returns `true` if `account` has been granted `role`."
      },
      "renounceRole(bytes32,address)": {
        "details": "Revokes `role` from the calling account. Roles are often managed via {grantRole} and {revokeRole}: this function's purpose is to provide a mechanism for accounts to lose their privileges if they are compromised (such as when a trusted device is misplaced). If the calling account had been granted `role`, emits a {RoleRevoked} event. Requirements: - the caller must be `account`."
      },
      "revokeRole(bytes32,address)": {
        "details": "Revokes `role` from `account`. If `account` had been granted `role`, emits a {RoleRevoked} event. Requirements: - the caller must have ``role``'s admin role."
      },
      "supportsInterface(bytes4)": {
        "details": "See {IERC165-supportsInterface}."
      }
    },
    "version": 1
  },
  "userdoc": {
    "kind": "user",
    "methods": {},
    "version": 1
  },
  "storageLayout": {
    "storage": [
      {
        "astId": 908,
        "contract": "contracts/PKKTHodlBoosterOption.sol:PKKTHodlBoosterOption",
        "label": "_roles",
        "offset": 0,
        "slot": "0",
        "type": "t_mapping(t_bytes32,t_struct(RoleData)903_storage)"
      },
      {
        "astId": 1378,
        "contract": "contracts/PKKTHodlBoosterOption.sol:PKKTHodlBoosterOption",
        "label": "_status",
        "offset": 0,
        "slot": "1",
        "type": "t_uint256"
      },
      {
        "astId": 6735,
        "contract": "contracts/PKKTHodlBoosterOption.sol:PKKTHodlBoosterOption",
        "label": "depositAssetAmountDecimals",
        "offset": 0,
        "slot": "2",
        "type": "t_uint8"
      },
      {
        "astId": 6737,
        "contract": "contracts/PKKTHodlBoosterOption.sol:PKKTHodlBoosterOption",
        "label": "counterPartyAssetAmountDecimals",
        "offset": 1,
        "slot": "2",
        "type": "t_uint8"
      },
      {
        "astId": 6739,
        "contract": "contracts/PKKTHodlBoosterOption.sol:PKKTHodlBoosterOption",
        "label": "depositAsset",
        "offset": 2,
        "slot": "2",
        "type": "t_address"
      },
      {
        "astId": 6741,
        "contract": "contracts/PKKTHodlBoosterOption.sol:PKKTHodlBoosterOption",
        "label": "counterPartyAsset",
        "offset": 0,
        "slot": "3",
        "type": "t_address"
      },
      {
        "astId": 6743,
        "contract": "contracts/PKKTHodlBoosterOption.sol:PKKTHodlBoosterOption",
        "label": "isEth",
        "offset": 20,
        "slot": "3",
        "type": "t_bool"
      },
      {
        "astId": 6745,
        "contract": "contracts/PKKTHodlBoosterOption.sol:PKKTHodlBoosterOption",
        "label": "currentRound",
        "offset": 0,
        "slot": "4",
        "type": "t_uint256"
      },
      {
        "astId": 6749,
        "contract": "contracts/PKKTHodlBoosterOption.sol:PKKTHodlBoosterOption",
        "label": "optionHeights",
        "offset": 0,
        "slot": "5",
        "type": "t_mapping(t_uint256,t_uint256)"
      },
      {
        "astId": 6754,
        "contract": "contracts/PKKTHodlBoosterOption.sol:PKKTHodlBoosterOption",
        "label": "optionStates",
        "offset": 0,
        "slot": "6",
        "type": "t_mapping(t_uint256,t_struct(OptionState)12798_storage)"
      },
      {
        "astId": 6757,
        "contract": "contracts/PKKTHodlBoosterOption.sol:PKKTHodlBoosterOption",
        "label": "usersInvolved",
        "offset": 0,
        "slot": "7",
        "type": "t_array(t_address)dyn_storage"
      },
      {
        "astId": 6762,
        "contract": "contracts/PKKTHodlBoosterOption.sol:PKKTHodlBoosterOption",
        "label": "userStates",
        "offset": 0,
        "slot": "8",
        "type": "t_mapping(t_address,t_struct(UserState)12835_storage)"
      },
      {
        "astId": 6764,
        "contract": "contracts/PKKTHodlBoosterOption.sol:PKKTHodlBoosterOption",
        "label": "underSettlement",
        "offset": 0,
        "slot": "9",
        "type": "t_bool"
      },
      {
        "astId": 6766,
        "contract": "contracts/PKKTHodlBoosterOption.sol:PKKTHodlBoosterOption",
        "label": "callOrPut",
        "offset": 1,
        "slot": "9",
        "type": "t_bool"
      },
      {
        "astId": 6769,
        "contract": "contracts/PKKTHodlBoosterOption.sol:PKKTHodlBoosterOption",
        "label": "counterPartyOption",
        "offset": 2,
        "slot": "9",
        "type": "t_contract(IPKKTStructureOption)12642"
      },
      {
        "astId": 6771,
        "contract": "contracts/PKKTHodlBoosterOption.sol:PKKTHodlBoosterOption",
        "label": "counterParty",
        "offset": 0,
        "slot": "10",
        "type": "t_address"
      },
      {
        "astId": 6774,
        "contract": "contracts/PKKTHodlBoosterOption.sol:PKKTHodlBoosterOption",
        "label": "optionVault",
        "offset": 0,
        "slot": "11",
        "type": "t_contract(IOptionVault)12530"
      },
      {
        "astId": 6776,
        "contract": "contracts/PKKTHodlBoosterOption.sol:PKKTHodlBoosterOption",
        "label": "totalReleasedDepositAssetAmount",
        "offset": 0,
        "slot": "12",
        "type": "t_uint256"
      },
      {
        "astId": 6778,
        "contract": "contracts/PKKTHodlBoosterOption.sol:PKKTHodlBoosterOption",
        "label": "totalReleasedCounterPartyAssetAmount",
        "offset": 0,
        "slot": "13",
        "type": "t_uint256"
      },
      {
        "astId": 6782,
        "contract": "contracts/PKKTHodlBoosterOption.sol:PKKTHodlBoosterOption",
        "label": "releasedDepositAssetAmount",
        "offset": 0,
        "slot": "14",
        "type": "t_mapping(t_address,t_uint256)"
      },
      {
        "astId": 6786,
        "contract": "contracts/PKKTHodlBoosterOption.sol:PKKTHodlBoosterOption",
        "label": "releasedCounterPartyAssetAmount",
        "offset": 0,
        "slot": "15",
        "type": "t_mapping(t_address,t_uint256)"
      },
      {
        "astId": 6788,
        "contract": "contracts/PKKTHodlBoosterOption.sol:PKKTHodlBoosterOption",
        "label": "assetToTerminateForNextRound",
        "offset": 0,
        "slot": "16",
        "type": "t_uint256"
      },
      {
        "astId": 6790,
        "contract": "contracts/PKKTHodlBoosterOption.sol:PKKTHodlBoosterOption",
        "label": "quota",
        "offset": 0,
        "slot": "17",
        "type": "t_uint256"
      },
      {
        "astId": 6793,
        "contract": "contracts/PKKTHodlBoosterOption.sol:PKKTHodlBoosterOption",
        "label": "name",
        "offset": 0,
        "slot": "18",
        "type": "t_string_storage"
      },
      {
        "astId": 9207,
        "contract": "contracts/PKKTHodlBoosterOption.sol:PKKTHodlBoosterOption",
        "label": "autoRolledUsers",
        "offset": 0,
        "slot": "19",
        "type": "t_array(t_address)dyn_storage"
      },
      {
        "astId": 9210,
        "contract": "contracts/PKKTHodlBoosterOption.sol:PKKTHodlBoosterOption",
        "label": "autoRolledAmounts",
        "offset": 0,
        "slot": "20",
        "type": "t_array(t_uint256)dyn_storage"
      },
      {
        "astId": 9213,
        "contract": "contracts/PKKTHodlBoosterOption.sol:PKKTHodlBoosterOption",
        "label": "toTerminateAmounts",
        "offset": 0,
        "slot": "21",
        "type": "t_array(t_uint256)dyn_storage"
      }
    ],
    "types": {
      "t_address": {
        "encoding": "inplace",
        "label": "address",
        "numberOfBytes": "20"
      },
      "t_array(t_address)dyn_storage": {
        "base": "t_address",
        "encoding": "dynamic_array",
        "label": "address[]",
        "numberOfBytes": "32"
      },
      "t_array(t_uint256)dyn_storage": {
        "base": "t_uint256",
        "encoding": "dynamic_array",
        "label": "uint256[]",
        "numberOfBytes": "32"
      },
      "t_bool": {
        "encoding": "inplace",
        "label": "bool",
        "numberOfBytes": "1"
      },
      "t_bytes32": {
        "encoding": "inplace",
        "label": "bytes32",
        "numberOfBytes": "32"
      },
      "t_contract(IOptionVault)12530": {
        "encoding": "inplace",
        "label": "contract IOptionVault",
        "numberOfBytes": "20"
      },
      "t_contract(IPKKTStructureOption)12642": {
        "encoding": "inplace",
        "label": "contract IPKKTStructureOption",
        "numberOfBytes": "20"
      },
      "t_mapping(t_address,t_bool)": {
        "encoding": "mapping",
        "key": "t_address",
        "label": "mapping(address => bool)",
        "numberOfBytes": "32",
        "value": "t_bool"
      },
      "t_mapping(t_address,t_struct(UserState)12835_storage)": {
        "encoding": "mapping",
        "key": "t_address",
        "label": "mapping(address => struct StructureData.UserState)",
        "numberOfBytes": "32",
        "value": "t_struct(UserState)12835_storage"
      },
      "t_mapping(t_address,t_uint256)": {
        "encoding": "mapping",
        "key": "t_address",
        "label": "mapping(address => uint256)",
        "numberOfBytes": "32",
        "value": "t_uint256"
      },
      "t_mapping(t_bytes32,t_struct(RoleData)903_storage)": {
        "encoding": "mapping",
        "key": "t_bytes32",
        "label": "mapping(bytes32 => struct AccessControl.RoleData)",
        "numberOfBytes": "32",
        "value": "t_struct(RoleData)903_storage"
      },
      "t_mapping(t_uint256,t_struct(OptionState)12798_storage)": {
        "encoding": "mapping",
        "key": "t_uint256",
        "label": "mapping(uint256 => struct StructureData.OptionState)",
        "numberOfBytes": "32",
        "value": "t_struct(OptionState)12798_storage"
      },
      "t_mapping(t_uint256,t_uint256)": {
        "encoding": "mapping",
        "key": "t_uint256",
        "label": "mapping(uint256 => uint256)",
        "numberOfBytes": "32",
        "value": "t_uint256"
      },
      "t_string_storage": {
        "encoding": "bytes",
        "label": "string",
        "numberOfBytes": "32"
      },
      "t_struct(OptionState)12798_storage": {
        "encoding": "inplace",
        "label": "struct StructureData.OptionState",
        "members": [
          {
            "astId": 12783,
            "contract": "contracts/PKKTHodlBoosterOption.sol:PKKTHodlBoosterOption",
            "label": "round",
            "offset": 0,
            "slot": "0",
            "type": "t_uint256"
          },
          {
            "astId": 12785,
            "contract": "contracts/PKKTHodlBoosterOption.sol:PKKTHodlBoosterOption",
            "label": "totalAmount",
            "offset": 0,
            "slot": "1",
            "type": "t_uint256"
          },
          {
            "astId": 12787,
            "contract": "contracts/PKKTHodlBoosterOption.sol:PKKTHodlBoosterOption",
            "label": "totalTerminate",
            "offset": 0,
            "slot": "2",
            "type": "t_uint256"
          },
          {
            "astId": 12789,
            "contract": "contracts/PKKTHodlBoosterOption.sol:PKKTHodlBoosterOption",
            "label": "strikePrice",
            "offset": 0,
            "slot": "3",
            "type": "t_uint256"
          },
          {
            "astId": 12791,
            "contract": "contracts/PKKTHodlBoosterOption.sol:PKKTHodlBoosterOption",
            "label": "premiumRate",
            "offset": 0,
            "slot": "4",
            "type": "t_uint16"
          },
          {
            "astId": 12793,
            "contract": "contracts/PKKTHodlBoosterOption.sol:PKKTHodlBoosterOption",
            "label": "pricePrecision",
            "offset": 2,
            "slot": "4",
            "type": "t_uint8"
          },
          {
            "astId": 12795,
            "contract": "contracts/PKKTHodlBoosterOption.sol:PKKTHodlBoosterOption",
            "label": "executed",
            "offset": 3,
            "slot": "4",
            "type": "t_bool"
          },
          {
            "astId": 12797,
            "contract": "contracts/PKKTHodlBoosterOption.sol:PKKTHodlBoosterOption",
            "label": "callOrPut",
            "offset": 4,
            "slot": "4",
            "type": "t_bool"
          }
        ],
        "numberOfBytes": "160"
      },
      "t_struct(RoleData)903_storage": {
        "encoding": "inplace",
        "label": "struct AccessControl.RoleData",
        "members": [
          {
            "astId": 900,
            "contract": "contracts/PKKTHodlBoosterOption.sol:PKKTHodlBoosterOption",
            "label": "members",
            "offset": 0,
            "slot": "0",
            "type": "t_mapping(t_address,t_bool)"
          },
          {
            "astId": 902,
            "contract": "contracts/PKKTHodlBoosterOption.sol:PKKTHodlBoosterOption",
            "label": "adminRole",
            "offset": 0,
            "slot": "1",
            "type": "t_bytes32"
          }
        ],
        "numberOfBytes": "64"
      },
      "t_struct(UserState)12835_storage": {
        "encoding": "inplace",
        "label": "struct StructureData.UserState",
        "members": [
          {
            "astId": 12822,
            "contract": "contracts/PKKTHodlBoosterOption.sol:PKKTHodlBoosterOption",
            "label": "pendingAsset",
            "offset": 0,
            "slot": "0",
            "type": "t_uint256"
          },
          {
            "astId": 12824,
            "contract": "contracts/PKKTHodlBoosterOption.sol:PKKTHodlBoosterOption",
            "label": "tempLocked",
            "offset": 0,
            "slot": "1",
            "type": "t_uint256"
          },
          {
            "astId": 12826,
            "contract": "contracts/PKKTHodlBoosterOption.sol:PKKTHodlBoosterOption",
            "label": "ongoingAsset",
            "offset": 0,
            "slot": "2",
            "type": "t_uint256"
          },
          {
            "astId": 12828,
            "contract": "contracts/PKKTHodlBoosterOption.sol:PKKTHodlBoosterOption",
            "label": "assetToTerminate",
            "offset": 0,
            "slot": "3",
            "type": "t_uint256"
          },
          {
            "astId": 12830,
            "contract": "contracts/PKKTHodlBoosterOption.sol:PKKTHodlBoosterOption",
            "label": "assetToTerminateForNextRound",
            "offset": 0,
            "slot": "4",
            "type": "t_uint256"
          },
          {
            "astId": 12832,
            "contract": "contracts/PKKTHodlBoosterOption.sol:PKKTHodlBoosterOption",
            "label": "totalRound",
            "offset": 0,
            "slot": "5",
            "type": "t_uint232"
          },
          {
            "astId": 12834,
            "contract": "contracts/PKKTHodlBoosterOption.sol:PKKTHodlBoosterOption",
            "label": "hasState",
            "offset": 29,
            "slot": "5",
            "type": "t_bool"
          }
        ],
        "numberOfBytes": "192"
      },
      "t_uint16": {
        "encoding": "inplace",
        "label": "uint16",
        "numberOfBytes": "2"
      },
      "t_uint232": {
        "encoding": "inplace",
        "label": "uint232",
        "numberOfBytes": "29"
      },
      "t_uint256": {
        "encoding": "inplace",
        "label": "uint256",
        "numberOfBytes": "32"
      },
      "t_uint8": {
        "encoding": "inplace",
        "label": "uint8",
        "numberOfBytes": "1"
      }
    }
  }
}