{
  "address": "0xF74dFe2f25a9e7c68A0f99d6b4Fb7a3febd0213d",
  "abi": [
    {
      "inputs": [
        {
          "internalType": "address",
          "name": "_settler",
          "type": "address"
        }
      ],
      "stateMutability": "nonpayable",
      "type": "constructor"
    },
    {
      "anonymous": false,
      "inputs": [
        {
          "indexed": true,
          "internalType": "address",
          "name": "source",
          "type": "address"
        },
        {
          "indexed": false,
          "internalType": "uint256",
          "name": "amount",
          "type": "uint256"
        }
      ],
      "name": "Received",
      "type": "event"
    },
    {
      "anonymous": false,
      "inputs": [
        {
          "indexed": true,
          "internalType": "bytes32",
          "name": "role",
          "type": "bytes32"
        },
        {
          "indexed": true,
          "internalType": "bytes32",
          "name": "previousAdminRole",
          "type": "bytes32"
        },
        {
          "indexed": true,
          "internalType": "bytes32",
          "name": "newAdminRole",
          "type": "bytes32"
        }
      ],
      "name": "RoleAdminChanged",
      "type": "event"
    },
    {
      "anonymous": false,
      "inputs": [
        {
          "indexed": true,
          "internalType": "bytes32",
          "name": "role",
          "type": "bytes32"
        },
        {
          "indexed": true,
          "internalType": "address",
          "name": "account",
          "type": "address"
        },
        {
          "indexed": true,
          "internalType": "address",
          "name": "sender",
          "type": "address"
        }
      ],
      "name": "RoleGranted",
      "type": "event"
    },
    {
      "anonymous": false,
      "inputs": [
        {
          "indexed": true,
          "internalType": "bytes32",
          "name": "role",
          "type": "bytes32"
        },
        {
          "indexed": true,
          "internalType": "address",
          "name": "account",
          "type": "address"
        },
        {
          "indexed": true,
          "internalType": "address",
          "name": "sender",
          "type": "address"
        }
      ],
      "name": "RoleRevoked",
      "type": "event"
    },
    {
      "inputs": [],
      "name": "DEFAULT_ADMIN_ROLE",
      "outputs": [
        {
          "internalType": "bytes32",
          "name": "",
          "type": "bytes32"
        }
      ],
      "stateMutability": "view",
      "type": "function"
    },
    {
      "inputs": [],
      "name": "OPTION_ROLE",
      "outputs": [
        {
          "internalType": "bytes32",
          "name": "",
          "type": "bytes32"
        }
      ],
      "stateMutability": "view",
      "type": "function"
    },
    {
      "inputs": [],
      "name": "SETTLER_ROLE",
      "outputs": [
        {
          "internalType": "bytes32",
          "name": "",
          "type": "bytes32"
        }
      ],
      "stateMutability": "view",
      "type": "function"
    },
    {
      "inputs": [
        {
          "internalType": "address",
          "name": "_optionContract",
          "type": "address"
        }
      ],
      "name": "addOption",
      "outputs": [],
      "stateMutability": "nonpayable",
      "type": "function"
    },
    {
      "inputs": [],
      "name": "allSettled",
      "outputs": [
        {
          "internalType": "bool",
          "name": "",
          "type": "bool"
        }
      ],
      "stateMutability": "view",
      "type": "function"
    },
    {
      "inputs": [],
      "name": "finishSettlement",
      "outputs": [],
      "stateMutability": "nonpayable",
      "type": "function"
    },
    {
      "inputs": [],
      "name": "getAddress",
      "outputs": [
        {
          "internalType": "address",
          "name": "",
          "type": "address"
        }
      ],
      "stateMutability": "view",
      "type": "function"
    },
    {
      "inputs": [
        {
          "internalType": "bytes32",
          "name": "role",
          "type": "bytes32"
        }
      ],
      "name": "getRoleAdmin",
      "outputs": [
        {
          "internalType": "bytes32",
          "name": "",
          "type": "bytes32"
        }
      ],
      "stateMutability": "view",
      "type": "function"
    },
    {
      "inputs": [
        {
          "internalType": "bytes32",
          "name": "role",
          "type": "bytes32"
        },
        {
          "internalType": "address",
          "name": "account",
          "type": "address"
        }
      ],
      "name": "grantRole",
      "outputs": [],
      "stateMutability": "nonpayable",
      "type": "function"
    },
    {
      "inputs": [
        {
          "internalType": "bytes32",
          "name": "role",
          "type": "bytes32"
        },
        {
          "internalType": "address",
          "name": "account",
          "type": "address"
        }
      ],
      "name": "hasRole",
      "outputs": [
        {
          "internalType": "bool",
          "name": "",
          "type": "bool"
        }
      ],
      "stateMutability": "view",
      "type": "function"
    },
    {
      "inputs": [],
      "name": "prepareSettlement",
      "outputs": [],
      "stateMutability": "nonpayable",
      "type": "function"
    },
    {
      "inputs": [
        {
          "internalType": "address",
          "name": "_optionContract",
          "type": "address"
        }
      ],
      "name": "removeOption",
      "outputs": [],
      "stateMutability": "nonpayable",
      "type": "function"
    },
    {
      "inputs": [
        {
          "internalType": "bytes32",
          "name": "role",
          "type": "bytes32"
        },
        {
          "internalType": "address",
          "name": "account",
          "type": "address"
        }
      ],
      "name": "renounceRole",
      "outputs": [],
      "stateMutability": "nonpayable",
      "type": "function"
    },
    {
      "inputs": [
        {
          "internalType": "bytes32",
          "name": "role",
          "type": "bytes32"
        },
        {
          "internalType": "address",
          "name": "account",
          "type": "address"
        }
      ],
      "name": "revokeRole",
      "outputs": [],
      "stateMutability": "nonpayable",
      "type": "function"
    },
    {
      "inputs": [
        {
          "components": [
            {
              "internalType": "uint256",
              "name": "round",
              "type": "uint256"
            },
            {
              "internalType": "uint256",
              "name": "totalAmount",
              "type": "uint256"
            },
            {
              "internalType": "uint256",
              "name": "strikePrice",
              "type": "uint256"
            },
            {
              "internalType": "uint16",
              "name": "premiumRate",
              "type": "uint16"
            },
            {
              "internalType": "uint8",
              "name": "pricePrecision",
              "type": "uint8"
            },
            {
              "internalType": "bool",
              "name": "executed",
              "type": "bool"
            },
            {
              "internalType": "bool",
              "name": "callOrPut",
              "type": "bool"
            }
          ],
          "internalType": "struct StructureData.OptionState",
          "name": "_currentState",
          "type": "tuple"
        },
        {
          "internalType": "address",
          "name": "_depositAsset",
          "type": "address"
        },
        {
          "internalType": "address",
          "name": "_counterPartyAsset",
          "type": "address"
        }
      ],
      "name": "setCommittedState",
      "outputs": [],
      "stateMutability": "nonpayable",
      "type": "function"
    },
    {
      "inputs": [
        {
          "components": [
            {
              "internalType": "uint256",
              "name": "maturedDepositAssetAmount",
              "type": "uint256"
            },
            {
              "internalType": "uint256",
              "name": "maturedCounterPartyAssetAmount",
              "type": "uint256"
            },
            {
              "internalType": "bool",
              "name": "executed",
              "type": "bool"
            },
            {
              "internalType": "uint256",
              "name": "round",
              "type": "uint256"
            }
          ],
          "internalType": "struct StructureData.MaturedState",
          "name": "_maturedState",
          "type": "tuple"
        },
        {
          "internalType": "address",
          "name": "_depositAsset",
          "type": "address"
        },
        {
          "internalType": "address",
          "name": "_counterPartyAsset",
          "type": "address"
        }
      ],
      "name": "setMaturityState",
      "outputs": [],
      "stateMutability": "nonpayable",
      "type": "function"
    },
    {
      "inputs": [
        {
          "internalType": "address",
          "name": "",
          "type": "address"
        }
      ],
      "name": "settlementInstruction",
      "outputs": [
        {
          "internalType": "uint256",
          "name": "amount",
          "type": "uint256"
        },
        {
          "internalType": "address",
          "name": "contractAddress",
          "type": "address"
        },
        {
          "internalType": "address",
          "name": "targetAddress",
          "type": "address"
        },
        {
          "internalType": "enum StructureData.Direction",
          "name": "direction",
          "type": "uint8"
        },
        {
          "internalType": "bool",
          "name": "fullfilled",
          "type": "bool"
        }
      ],
      "stateMutability": "view",
      "type": "function"
    },
    {
      "inputs": [
        {
          "internalType": "address",
          "name": "_traderAddress",
          "type": "address"
        }
      ],
      "name": "startSettlement",
      "outputs": [],
      "stateMutability": "nonpayable",
      "type": "function"
    },
    {
      "inputs": [
        {
          "internalType": "bytes4",
          "name": "interfaceId",
          "type": "bytes4"
        }
      ],
      "name": "supportsInterface",
      "outputs": [
        {
          "internalType": "bool",
          "name": "",
          "type": "bool"
        }
      ],
      "stateMutability": "view",
      "type": "function"
    },
    {
      "inputs": [
        {
          "internalType": "address",
          "name": "_target",
          "type": "address"
        },
        {
          "internalType": "uint256",
          "name": "_amount",
          "type": "uint256"
        },
        {
          "internalType": "address",
          "name": "_contractAddress",
          "type": "address"
        }
      ],
      "name": "withdraw",
      "outputs": [],
      "stateMutability": "nonpayable",
      "type": "function"
    },
    {
      "stateMutability": "payable",
      "type": "receive"
    }
  ],
  "transactionHash": "0xa3c39871d44f1bb5c230f59d80acddf8af75c2d11847df473ebf5015ec5b27f0",
  "args": [
    "0x7FAa46FB04BB00de3F6D5E90d78b4a37f8E48cd4"
  ],
  "solcInputHash": "6269986a1671df6734f8a3f93df8d0ab",
  "bytecode": "0x60806040523480156200001157600080fd5b5060405162001ebb38038062001ebb833981016040819052620000349162000124565b6200004160003362000074565b6200006d7f6666bf5bfee463d10a7fc50448047f8a53b7762d7e28fbc5c643182785f3fd3f8262000074565b5062000154565b62000080828262000084565b5050565b6000828152602081815260408083206001600160a01b038516845290915290205460ff1662000080576000828152602081815260408083206001600160a01b03851684529091529020805460ff19166001179055620000e03390565b6001600160a01b0316816001600160a01b0316837f2f8788117e7eff1d82e926ec794901d17c78024a50270940304540a733656f0d60405160405180910390a45050565b60006020828403121562000136578081fd5b81516001600160a01b03811681146200014d578182fd5b9392505050565b611d5780620001646000396000f3fe6080604052600436106101235760003560e01c806369328dec116100a0578063a217fddf11610064578063a217fddf146103cf578063b08480d4146103e4578063bacf27c6146103f9578063d547741f14610419578063dc8a23441461043957600080fd5b806369328dec146102cb5780637445e85c146102eb57806375fb0ec81461031f578063896ad3c11461033f57806391d14854146103af57600080fd5b806326f36fb9116100e757806326f36fb9146102395780632f2ff15d1461024e57806336568abe1461026e57806338cc48311461028e57806347276abf146102a957600080fd5b806301ffc9a71461016457806307653fb31461019957806307f42e60146101bb578063193ef4d3146101db578063248a9ca3146101fb57600080fd5b3661015f5760405134815233907f88a5966d370b9919b20f3e2c13ff65706f196a4e32cc2c12bf57088f885258749060200160405180910390a2005b600080fd5b34801561017057600080fd5b5061018461017f3660046118e5565b61044e565b60405190151581526020015b60405180910390f35b3480156101a557600080fd5b506101b96101b43660046119ab565b610485565b005b3480156101c757600080fd5b506101b96101d6366004611831565b610550565b3480156101e757600080fd5b506101b96101f636600461190d565b610578565b34801561020757600080fd5b5061022b6102163660046118a2565b60009081526020819052604090206001015490565b604051908152602001610190565b34801561024557600080fd5b506101b9610639565b34801561025a57600080fd5b506101b96102693660046118ba565b610804565b34801561027a57600080fd5b506101b96102893660046118ba565b61082f565b34801561029a57600080fd5b50604051308152602001610190565b3480156102b557600080fd5b5061022b600080516020611d0283398151915281565b3480156102d757600080fd5b506101b96102e636600461184b565b6108a9565b3480156102f757600080fd5b5061022b7f6666bf5bfee463d10a7fc50448047f8a53b7762d7e28fbc5c643182785f3fd3f81565b34801561032b57600080fd5b506101b961033a366004611831565b6108cd565b34801561034b57600080fd5b5061039e61035a366004611831565b60056020526000908152604090208054600182015460029092015490916001600160a01b03908116919081169060ff600160a01b8204811691600160a81b90041685565b604051610190959493929190611ba6565b3480156103bb57600080fd5b506101846103ca3660046118ba565b6108f1565b3480156103db57600080fd5b5061022b600081565b3480156103f057600080fd5b506101b961091a565b34801561040557600080fd5b506101b9610414366004611831565b610a41565b34801561042557600080fd5b506101b96104343660046118ba565b610e8d565b34801561044557600080fd5b50610184610eb3565b60006001600160e01b03198216637965db0b60e01b148061047f57506301ffc9a760e01b6001600160e01b03198316145b92915050565b600080516020611d0283398151915261049e8133610fd8565b8360c00151156104fb576001600160a01b038316600090815260026020908152604090912054908501516104d390829061103c565b6001600160a01b0385166000908152600260205260409020556104f58461104f565b5061054a565b6001600160a01b0382166000908152600260209081526040909120549085015161052690829061103c565b6001600160a01b0384166000908152600260205260409020556105488361104f565b505b50505050565b600061055c8133610fd8565b610574600080516020611d02833981519152836110d8565b5050565b600080516020611d028339815191526105918133610fd8565b8351156105e2576001600160a01b03831660009081526001602052604090205484516105be90829061103c565b6001600160a01b0385166000908152600160205260409020556105e08461104f565b505b60208401511561054a576001600160a01b0382166000908152600160209081526040909120549085015161061790829061103c565b6001600160a01b0384166000908152600160205260409020556105488361104f565b60035460005b818110156107955760006003828154811061066a57634e487b7160e01b600052603260045260246000fd5b6000918252602080832091909101546001600160a01b03908116808452600583526040808520815160a0810183528154815260018201548516958101959095526002808201549485169286019290925291955090916060840191600160a01b90910460ff16908111156106ed57634e487b7160e01b600052602160045260246000fd5b600281111561070c57634e487b7160e01b600052602160045260246000fd5b815260029190910154600160a81b900460ff16151560209091015260808101519091506107805760405162461bcd60e51b815260206004820152601760248201527f536574746c656d656e74206e6f742066696e697368656400000000000000000060448201526064015b60405180910390fd5b5050808061078d90611cc2565b91505061063f565b5060005b81811015610574576000600382815481106107c457634e487b7160e01b600052603260045260246000fd5b60009182526020808320909101546001600160a01b03168252600181526040808320839055600290915281205550806107fc81611cc2565b915050610799565b6000828152602081905260409020600101546108208133610fd8565b61082a83836110de565b505050565b6001600160a01b038116331461089f5760405162461bcd60e51b815260206004820152602f60248201527f416363657373436f6e74726f6c3a2063616e206f6e6c792072656e6f756e636560448201526e103937b632b9903337b91039b2b63360891b6064820152608401610777565b6105748282611162565b600080516020611d028339815191526108c28133610fd8565b61054a8484846111c7565b60006108d98133610fd8565b610574600080516020611d0283398151915283610e8d565b6000918252602082815260408084206001600160a01b0393909316845291905290205460ff1690565b7f6666bf5bfee463d10a7fc50448047f8a53b7762d7e28fbc5c643182785f3fd3f6109458133610fd8565b60035460005b8181101561082a5760006003828154811061097657634e487b7160e01b600052603260045260246000fd5b60009182526020808320909101546001600160a01b03168083526005909152604090912060028101549192509060ff600160a81b90910416610a2c5760028082810154600160a01b900460ff16908111156109e157634e487b7160e01b600052602160045260246000fd5b1415610a2c5760006109f28361121f565b6001600160a01b0384166000908152600160205260409020549091508110610a2a5760028201805460ff60a81b1916600160a81b1790555b505b50508080610a3990611cc2565b91505061094b565b7f6666bf5bfee463d10a7fc50448047f8a53b7762d7e28fbc5c643182785f3fd3f610a6c8133610fd8565b60035480610a7957505050565b60005b8181101561054a57600060038281548110610aa757634e487b7160e01b600052603260045260246000fd5b60009182526020808320909101546001600160a01b03168083526001825260408084205460028452938190205481518083019092526009825268095cce88095908095960ba1b93820193909352909350610b03908484846112c3565b81811415610bee576040805160a08101825260008082526001600160a01b0386811660208085018281528587018581526060870186815260016080890181905294875260059093529690942085518155935191840180549284166001600160a01b0319938416179055945160028085018054929094169282168317845595519495869593926001600160a81b031990921690911790600160a01b908490811115610bbd57634e487b7160e01b600052602160045260246000fd5b02179055506080919091015160029091018054911515600160a81b0260ff60a81b1990921691909117905550610e77565b81811115610d69576000610c02828461130c565b905060006040518060a00160405280838152602001866001600160a01b031681526020018a6001600160a01b0316815260200160016002811115610c5657634e487b7160e01b600052602160045260246000fd5b8152602001600115158152509050610c9b604051806040016040528060148152602001731cd95b9908095cc81d1bc81d1c9859195c88095960621b8152508684611318565b610ca68983876111c7565b6001600160a01b0380861660009081526005602090815260409182902084518155908401516001820180549185166001600160a01b0319928316179055918401516002808301805492909516938216841785556060860151869593949093926001600160a81b0319161790600160a01b908490811115610d3657634e487b7160e01b600052602160045260246000fd5b02179055506080919091015160029091018054911515600160a81b0260ff60a81b1990921691909117905550610e779050565b6000610d75838361130c565b905060006040518060a00160405280838152602001866001600160a01b03168152602001610da03090565b6001600160a01b0316815260200160028152600060209182018190526001600160a01b0380891682526005835260409182902084518155928401516001840180549183166001600160a01b03199283161790559184015160028085018054929093169382168417835560608601519596508695936001600160a81b031990921690911790600160a01b908490811115610e4957634e487b7160e01b600052602160045260246000fd5b02179055506080919091015160029091018054911515600160a81b0260ff60a81b1990921691909117905550505b5050508080610e8590611cc2565b915050610a7c565b600082815260208190526040902060010154610ea98133610fd8565b61082a8383611162565b600354600090815b81811015610fcf57600060038281548110610ee657634e487b7160e01b600052603260045260246000fd5b6000918252602080832091909101546001600160a01b03908116808452600583526040808520815160a0810183528154815260018201548516958101959095526002808201549485169286019290925291955090916060840191600160a01b90910460ff1690811115610f6957634e487b7160e01b600052602160045260246000fd5b6002811115610f8857634e487b7160e01b600052602160045260246000fd5b815260029190910154600160a81b900460ff1615156020909101526080810151909150610fba57600094505050505090565b50508080610fc790611cc2565b915050610ebb565b50600191505090565b610fe282826108f1565b61057457610ffa816001600160a01b0316601461135f565b61100583602061135f565b604051602001611016929190611ab8565b60408051601f198184030181529082905262461bcd60e51b825261077791600401611b2d565b60006110488284611c31565b9392505050565b6001600160a01b03811660009081526004602052604090205460ff166110d5576001600160a01b0381166000818152600460205260408120805460ff191660019081179091556003805491820181559091527fc2575a0e9e593c00f959f8c92f12db2869c3395a3b0502d05e2516446f71f85b0180546001600160a01b03191690911790555b50565b61057482825b6110e882826108f1565b610574576000828152602081815260408083206001600160a01b03851684529091529020805460ff1916600117905561111e3390565b6001600160a01b0316816001600160a01b0316837f2f8788117e7eff1d82e926ec794901d17c78024a50270940304540a733656f0d60405160405180910390a45050565b61116c82826108f1565b15610574576000828152602081815260408083206001600160a01b0385168085529252808320805460ff1916905551339285917ff6391f5c32d9c69d2a47ea670b442974b53935d1edc7fd64eb21e047a839171b9190a45050565b6001600160a01b03811661120b576040516001600160a01b0384169083156108fc029084906000818181858888f1935050505015801561054a573d6000803e3d6000fd5b61082a6001600160a01b0382168484611541565b60006001600160a01b038216156112b7576001600160a01b0382166370a08231306040516001600160e01b031960e084901b1681526001600160a01b03909116600482015260240160206040518083038186803b15801561127f57600080fd5b505afa158015611293573d6000803e3d6000fd5b505050506040513d601f19601f8201168201806040525081019061047f9190611a58565b5050303190565b919050565b61054a848484846040516024016112dd9493929190611b6e565b60408051601f198184030181529190526020810180516001600160e01b031663daa394bd60e01b179052611593565b60006110488284611c68565b61082a83838360405160240161133093929190611b40565b60408051601f198184030181529190526020810180516001600160e01b03166307c8121760e01b179052611593565b6060600061136e836002611c49565b611379906002611c31565b67ffffffffffffffff81111561139f57634e487b7160e01b600052604160045260246000fd5b6040519080825280601f01601f1916602001820160405280156113c9576020820181803683370190505b509050600360fc1b816000815181106113f257634e487b7160e01b600052603260045260246000fd5b60200101906001600160f81b031916908160001a905350600f60fb1b8160018151811061142f57634e487b7160e01b600052603260045260246000fd5b60200101906001600160f81b031916908160001a9053506000611453846002611c49565b61145e906001611c31565b90505b60018111156114f2576f181899199a1a9b1b9c1cb0b131b232b360811b85600f16601081106114a057634e487b7160e01b600052603260045260246000fd5b1a60f81b8282815181106114c457634e487b7160e01b600052603260045260246000fd5b60200101906001600160f81b031916908160001a90535060049490941c936114eb81611cab565b9050611461565b5083156110485760405162461bcd60e51b815260206004820181905260248201527f537472696e67733a20686578206c656e67746820696e73756666696369656e746044820152606401610777565b604080516001600160a01b038416602482015260448082018490528251808303909101815260649091019091526020810180516001600160e01b031663a9059cbb60e01b17905261082a9084906115b4565b80516a636f6e736f6c652e6c6f67602083016000808483855afa5050505050565b6000611609826040518060400160405280602081526020017f5361666545524332303a206c6f772d6c6576656c2063616c6c206661696c6564815250856001600160a01b03166116869092919063ffffffff16565b80519091501561082a57808060200190518101906116279190611886565b61082a5760405162461bcd60e51b815260206004820152602a60248201527f5361666545524332303a204552433230206f7065726174696f6e20646964206e6044820152691bdd081cdd58d8d9595960b21b6064820152608401610777565b6060611695848460008561169d565b949350505050565b6060824710156116fe5760405162461bcd60e51b815260206004820152602660248201527f416464726573733a20696e73756666696369656e742062616c616e636520666f6044820152651c8818d85b1b60d21b6064820152608401610777565b843b61174c5760405162461bcd60e51b815260206004820152601d60248201527f416464726573733a2063616c6c20746f206e6f6e2d636f6e74726163740000006044820152606401610777565b600080866001600160a01b031685876040516117689190611a9c565b60006040518083038185875af1925050503d80600081146117a5576040519150601f19603f3d011682016040523d82523d6000602084013e6117aa565b606091505b50915091506117ba8282866117c5565b979650505050505050565b606083156117d4575081611048565b8251156117e45782518084602001fd5b8160405162461bcd60e51b81526004016107779190611b2d565b80356001600160a01b03811681146112be57600080fd5b80356112be81611cf3565b803560ff811681146112be57600080fd5b600060208284031215611842578081fd5b611048826117fe565b60008060006060848603121561185f578182fd5b611868846117fe565b92506020840135915061187d604085016117fe565b90509250925092565b600060208284031215611897578081fd5b815161104881611cf3565b6000602082840312156118b3578081fd5b5035919050565b600080604083850312156118cc578182fd5b823591506118dc602084016117fe565b90509250929050565b6000602082840312156118f6578081fd5b81356001600160e01b031981168114611048578182fd5b600080600083850360c0811215611922578384fd5b608081121561192f578384fd5b506040516080810181811067ffffffffffffffff8211171561195f57634e487b7160e01b85526041600452602485fd5b80604052508435815260208501356020820152604085013561198081611cf3565b604082015260608581013590820152925061199d608085016117fe565b915061187d60a085016117fe565b60008060008385036101208112156119c1578384fd5b60e08112156119ce578384fd5b506119d7611bfa565b843581526020850135602082015260408501356040820152606085013561ffff81168114611a03578485fd5b6060820152611a1460808601611820565b6080820152611a2560a08601611815565b60a0820152611a3660c08601611815565b60c08201529250611a4960e085016117fe565b915061187d61010085016117fe565b600060208284031215611a69578081fd5b5051919050565b60008151808452611a88816020860160208601611c7f565b601f01601f19169290920160200192915050565b60008251611aae818460208701611c7f565b9190910192915050565b7f416363657373436f6e74726f6c3a206163636f756e7420000000000000000000815260008351611af0816017850160208801611c7f565b7001034b99036b4b9b9b4b733903937b6329607d1b6017918401918201528351611b21816028840160208801611c7f565b01602801949350505050565b6020815260006110486020830184611a70565b606081526000611b536060830186611a70565b6001600160a01b039490941660208301525060400152919050565b608081526000611b816080830187611a70565b6001600160a01b03959095166020830152506040810192909252606090910152919050565b8581526001600160a01b0385811660208301528416604082015260a0810160038410611be257634e487b7160e01b600052602160045260246000fd5b83606083015282151560808301529695505050505050565b60405160e0810167ffffffffffffffff81118282101715611c2b57634e487b7160e01b600052604160045260246000fd5b60405290565b60008219821115611c4457611c44611cdd565b500190565b6000816000190483118215151615611c6357611c63611cdd565b500290565b600082821015611c7a57611c7a611cdd565b500390565b60005b83811015611c9a578181015183820152602001611c82565b8381111561054a5750506000910152565b600081611cba57611cba611cdd565b506000190190565b6000600019821415611cd657611cd6611cdd565b5060010190565b634e487b7160e01b600052601160045260246000fd5b80151581146110d557600080fdfefd0eee74c7609b4290ae42cfa22435eabf285017ea12017ed27c2e820eae6a77a264697066735822122013444ed71fcff46ec41605f4c30156e017c99b05b4139ec512907e23886ea5df64736f6c63430008040033",
  "devdoc": {
    "kind": "dev",
    "methods": {
      "getRoleAdmin(bytes32)": {
        "details": "Returns the admin role that controls `role`. See {grantRole} and {revokeRole}. To change a role's admin, use {_setRoleAdmin}."
      },
      "grantRole(bytes32,address)": {
        "details": "Grants `role` to `account`. If `account` had not been already granted `role`, emits a {RoleGranted} event. Requirements: - the caller must have ``role``'s admin role."
      },
      "hasRole(bytes32,address)": {
        "details": "Returns `true` if `account` has been granted `role`."
      },
      "renounceRole(bytes32,address)": {
        "details": "Revokes `role` from the calling account. Roles are often managed via {grantRole} and {revokeRole}: this function's purpose is to provide a mechanism for accounts to lose their privileges if they are compromised (such as when a trusted device is misplaced). If the calling account had been granted `role`, emits a {RoleRevoked} event. Requirements: - the caller must be `account`."
      },
      "revokeRole(bytes32,address)": {
        "details": "Revokes `role` from `account`. If `account` had been granted `role`, emits a {RoleRevoked} event. Requirements: - the caller must have ``role``'s admin role."
      },
      "supportsInterface(bytes4)": {
        "details": "See {IERC165-supportsInterface}."
      }
    },
    "version": 1
  },
  "userdoc": {
    "kind": "user",
    "methods": {},
    "version": 1
  },
  "storageLayout": {
    "storage": [
      {
        "astId": 1584,
        "contract": "contracts/OptionVault.sol:OptionVault",
        "label": "_roles",
        "offset": 0,
        "slot": "0",
        "type": "t_mapping(t_bytes32,t_struct(RoleData)1579_storage)"
      },
      {
        "astId": 3816,
        "contract": "contracts/OptionVault.sol:OptionVault",
        "label": "maturedAmount",
        "offset": 0,
        "slot": "1",
        "type": "t_mapping(t_address,t_uint256)"
      },
      {
        "astId": 3820,
        "contract": "contracts/OptionVault.sol:OptionVault",
        "label": "pendingAmount",
        "offset": 0,
        "slot": "2",
        "type": "t_mapping(t_address,t_uint256)"
      },
      {
        "astId": 3823,
        "contract": "contracts/OptionVault.sol:OptionVault",
        "label": "asset",
        "offset": 0,
        "slot": "3",
        "type": "t_array(t_address)dyn_storage"
      },
      {
        "astId": 3827,
        "contract": "contracts/OptionVault.sol:OptionVault",
        "label": "assetExistence",
        "offset": 0,
        "slot": "4",
        "type": "t_mapping(t_address,t_bool)"
      },
      {
        "astId": 3832,
        "contract": "contracts/OptionVault.sol:OptionVault",
        "label": "settlementInstruction",
        "offset": 0,
        "slot": "5",
        "type": "t_mapping(t_address,t_struct(SettlementInstruction)12369_storage)"
      }
    ],
    "types": {
      "t_address": {
        "encoding": "inplace",
        "label": "address",
        "numberOfBytes": "20"
      },
      "t_array(t_address)dyn_storage": {
        "base": "t_address",
        "encoding": "dynamic_array",
        "label": "address[]",
        "numberOfBytes": "32"
      },
      "t_bool": {
        "encoding": "inplace",
        "label": "bool",
        "numberOfBytes": "1"
      },
      "t_bytes32": {
        "encoding": "inplace",
        "label": "bytes32",
        "numberOfBytes": "32"
      },
      "t_enum(Direction)12357": {
        "encoding": "inplace",
        "label": "enum StructureData.Direction",
        "numberOfBytes": "1"
      },
      "t_mapping(t_address,t_bool)": {
        "encoding": "mapping",
        "key": "t_address",
        "label": "mapping(address => bool)",
        "numberOfBytes": "32",
        "value": "t_bool"
      },
      "t_mapping(t_address,t_struct(SettlementInstruction)12369_storage)": {
        "encoding": "mapping",
        "key": "t_address",
        "label": "mapping(address => struct StructureData.SettlementInstruction)",
        "numberOfBytes": "32",
        "value": "t_struct(SettlementInstruction)12369_storage"
      },
      "t_mapping(t_address,t_uint256)": {
        "encoding": "mapping",
        "key": "t_address",
        "label": "mapping(address => uint256)",
        "numberOfBytes": "32",
        "value": "t_uint256"
      },
      "t_mapping(t_bytes32,t_struct(RoleData)1579_storage)": {
        "encoding": "mapping",
        "key": "t_bytes32",
        "label": "mapping(bytes32 => struct AccessControl.RoleData)",
        "numberOfBytes": "32",
        "value": "t_struct(RoleData)1579_storage"
      },
      "t_struct(RoleData)1579_storage": {
        "encoding": "inplace",
        "label": "struct AccessControl.RoleData",
        "members": [
          {
            "astId": 1576,
            "contract": "contracts/OptionVault.sol:OptionVault",
            "label": "members",
            "offset": 0,
            "slot": "0",
            "type": "t_mapping(t_address,t_bool)"
          },
          {
            "astId": 1578,
            "contract": "contracts/OptionVault.sol:OptionVault",
            "label": "adminRole",
            "offset": 0,
            "slot": "1",
            "type": "t_bytes32"
          }
        ],
        "numberOfBytes": "64"
      },
      "t_struct(SettlementInstruction)12369_storage": {
        "encoding": "inplace",
        "label": "struct StructureData.SettlementInstruction",
        "members": [
          {
            "astId": 12359,
            "contract": "contracts/OptionVault.sol:OptionVault",
            "label": "amount",
            "offset": 0,
            "slot": "0",
            "type": "t_uint256"
          },
          {
            "astId": 12361,
            "contract": "contracts/OptionVault.sol:OptionVault",
            "label": "contractAddress",
            "offset": 0,
            "slot": "1",
            "type": "t_address"
          },
          {
            "astId": 12363,
            "contract": "contracts/OptionVault.sol:OptionVault",
            "label": "targetAddress",
            "offset": 0,
            "slot": "2",
            "type": "t_address"
          },
          {
            "astId": 12366,
            "contract": "contracts/OptionVault.sol:OptionVault",
            "label": "direction",
            "offset": 20,
            "slot": "2",
            "type": "t_enum(Direction)12357"
          },
          {
            "astId": 12368,
            "contract": "contracts/OptionVault.sol:OptionVault",
            "label": "fullfilled",
            "offset": 21,
            "slot": "2",
            "type": "t_bool"
          }
        ],
        "numberOfBytes": "96"
      },
      "t_uint256": {
        "encoding": "inplace",
        "label": "uint256",
        "numberOfBytes": "32"
      }
    }
  }
}