{
  "address": "0x70613A63Ed0E852ae1684cd53Aa309469641b601",
  "abi": [
    {
      "inputs": [
        {
          "internalType": "string",
          "name": "name",
          "type": "string"
        },
        {
          "internalType": "string",
          "name": "symbol",
          "type": "string"
        },
        {
          "internalType": "address",
          "name": "_underlying",
          "type": "address"
        },
        {
          "internalType": "address",
          "name": "_stableCoin",
          "type": "address"
        },
        {
          "internalType": "uint8",
          "name": "_underlyingDecimals",
          "type": "uint8"
        },
        {
          "internalType": "uint8",
          "name": "_stableCoinDecimals",
          "type": "uint8"
        },
        {
          "internalType": "address",
          "name": "_vaultAddress",
          "type": "address"
        }
      ],
      "stateMutability": "nonpayable",
      "type": "constructor"
    },
    {
      "anonymous": false,
      "inputs": [
        {
          "indexed": true,
          "internalType": "address",
          "name": "owner",
          "type": "address"
        },
        {
          "indexed": true,
          "internalType": "address",
          "name": "spender",
          "type": "address"
        },
        {
          "indexed": false,
          "internalType": "uint256",
          "name": "value",
          "type": "uint256"
        }
      ],
      "name": "Approval",
      "type": "event"
    },
    {
      "anonymous": false,
      "inputs": [
        {
          "indexed": true,
          "internalType": "uint256",
          "name": "round",
          "type": "uint256"
        }
      ],
      "name": "CloseOption",
      "type": "event"
    },
    {
      "anonymous": false,
      "inputs": [
        {
          "indexed": true,
          "internalType": "uint256",
          "name": "round",
          "type": "uint256"
        }
      ],
      "name": "CommitOption",
      "type": "event"
    },
    {
      "anonymous": false,
      "inputs": [
        {
          "indexed": true,
          "internalType": "address",
          "name": "account",
          "type": "address"
        },
        {
          "indexed": true,
          "internalType": "uint256",
          "name": "round",
          "type": "uint256"
        },
        {
          "indexed": false,
          "internalType": "uint256",
          "name": "amount",
          "type": "uint256"
        }
      ],
      "name": "Deposit",
      "type": "event"
    },
    {
      "anonymous": false,
      "inputs": [
        {
          "indexed": true,
          "internalType": "uint256",
          "name": "round",
          "type": "uint256"
        }
      ],
      "name": "OpenOption",
      "type": "event"
    },
    {
      "anonymous": false,
      "inputs": [
        {
          "indexed": true,
          "internalType": "address",
          "name": "previousOwner",
          "type": "address"
        },
        {
          "indexed": true,
          "internalType": "address",
          "name": "newOwner",
          "type": "address"
        }
      ],
      "name": "OwnershipTransferred",
      "type": "event"
    },
    {
      "anonymous": false,
      "inputs": [
        {
          "indexed": true,
          "internalType": "address",
          "name": "account",
          "type": "address"
        },
        {
          "indexed": true,
          "internalType": "uint256",
          "name": "round",
          "type": "uint256"
        },
        {
          "indexed": false,
          "internalType": "uint256",
          "name": "amount",
          "type": "uint256"
        }
      ],
      "name": "Redeem",
      "type": "event"
    },
    {
      "anonymous": false,
      "inputs": [
        {
          "indexed": true,
          "internalType": "address",
          "name": "from",
          "type": "address"
        },
        {
          "indexed": true,
          "internalType": "address",
          "name": "to",
          "type": "address"
        },
        {
          "indexed": false,
          "internalType": "uint256",
          "name": "value",
          "type": "uint256"
        }
      ],
      "name": "Transfer",
      "type": "event"
    },
    {
      "inputs": [],
      "name": "RATIOMULTIPLIER",
      "outputs": [
        {
          "internalType": "uint256",
          "name": "",
          "type": "uint256"
        }
      ],
      "stateMutability": "view",
      "type": "function"
    },
    {
      "inputs": [
        {
          "internalType": "address",
          "name": "owner",
          "type": "address"
        },
        {
          "internalType": "address",
          "name": "spender",
          "type": "address"
        }
      ],
      "name": "allowance",
      "outputs": [
        {
          "internalType": "uint256",
          "name": "",
          "type": "uint256"
        }
      ],
      "stateMutability": "view",
      "type": "function"
    },
    {
      "inputs": [
        {
          "internalType": "address",
          "name": "spender",
          "type": "address"
        },
        {
          "internalType": "uint256",
          "name": "amount",
          "type": "uint256"
        }
      ],
      "name": "approve",
      "outputs": [
        {
          "internalType": "bool",
          "name": "",
          "type": "bool"
        }
      ],
      "stateMutability": "nonpayable",
      "type": "function"
    },
    {
      "inputs": [
        {
          "internalType": "address",
          "name": "account",
          "type": "address"
        }
      ],
      "name": "balanceOf",
      "outputs": [
        {
          "internalType": "uint256",
          "name": "",
          "type": "uint256"
        }
      ],
      "stateMutability": "view",
      "type": "function"
    },
    {
      "inputs": [],
      "name": "callOrPut",
      "outputs": [
        {
          "internalType": "bool",
          "name": "",
          "type": "bool"
        }
      ],
      "stateMutability": "view",
      "type": "function"
    },
    {
      "inputs": [
        {
          "internalType": "uint256",
          "name": "_underlyingPrice",
          "type": "uint256"
        }
      ],
      "name": "closePrevious",
      "outputs": [],
      "stateMutability": "nonpayable",
      "type": "function"
    },
    {
      "inputs": [],
      "name": "commitCurrent",
      "outputs": [],
      "stateMutability": "nonpayable",
      "type": "function"
    },
    {
      "inputs": [],
      "name": "counterParty",
      "outputs": [
        {
          "internalType": "address",
          "name": "",
          "type": "address"
        }
      ],
      "stateMutability": "view",
      "type": "function"
    },
    {
      "inputs": [],
      "name": "counterPartyAsset",
      "outputs": [
        {
          "internalType": "address",
          "name": "",
          "type": "address"
        }
      ],
      "stateMutability": "view",
      "type": "function"
    },
    {
      "inputs": [],
      "name": "counterPartyOption",
      "outputs": [
        {
          "internalType": "contract IPKKTStructureOption",
          "name": "",
          "type": "address"
        }
      ],
      "stateMutability": "view",
      "type": "function"
    },
    {
      "inputs": [],
      "name": "currentRound",
      "outputs": [
        {
          "internalType": "uint256",
          "name": "",
          "type": "uint256"
        }
      ],
      "stateMutability": "view",
      "type": "function"
    },
    {
      "inputs": [],
      "name": "decimals",
      "outputs": [
        {
          "internalType": "uint8",
          "name": "",
          "type": "uint8"
        }
      ],
      "stateMutability": "view",
      "type": "function"
    },
    {
      "inputs": [
        {
          "internalType": "address",
          "name": "spender",
          "type": "address"
        },
        {
          "internalType": "uint256",
          "name": "subtractedValue",
          "type": "uint256"
        }
      ],
      "name": "decreaseAllowance",
      "outputs": [
        {
          "internalType": "bool",
          "name": "",
          "type": "bool"
        }
      ],
      "stateMutability": "nonpayable",
      "type": "function"
    },
    {
      "inputs": [
        {
          "internalType": "uint256",
          "name": "_amount",
          "type": "uint256"
        }
      ],
      "name": "deposit",
      "outputs": [],
      "stateMutability": "nonpayable",
      "type": "function"
    },
    {
      "inputs": [],
      "name": "depositAsset",
      "outputs": [
        {
          "internalType": "address",
          "name": "",
          "type": "address"
        }
      ],
      "stateMutability": "view",
      "type": "function"
    },
    {
      "inputs": [],
      "name": "depositETH",
      "outputs": [],
      "stateMutability": "payable",
      "type": "function"
    },
    {
      "inputs": [
        {
          "internalType": "address[]",
          "name": "addresses",
          "type": "address[]"
        },
        {
          "internalType": "uint256[]",
          "name": "_amounts",
          "type": "uint256[]"
        }
      ],
      "name": "depositFromCounterParty",
      "outputs": [],
      "stateMutability": "nonpayable",
      "type": "function"
    },
    {
      "inputs": [
        {
          "internalType": "uint8",
          "name": "_backwardRound",
          "type": "uint8"
        }
      ],
      "name": "getOngoingAsset",
      "outputs": [
        {
          "internalType": "uint256",
          "name": "",
          "type": "uint256"
        }
      ],
      "stateMutability": "view",
      "type": "function"
    },
    {
      "inputs": [],
      "name": "getPendingAsset",
      "outputs": [
        {
          "internalType": "uint256",
          "name": "",
          "type": "uint256"
        }
      ],
      "stateMutability": "view",
      "type": "function"
    },
    {
      "inputs": [
        {
          "internalType": "uint256",
          "name": "_blockHeight",
          "type": "uint256"
        }
      ],
      "name": "getRoundData",
      "outputs": [
        {
          "components": [
            {
              "internalType": "uint256",
              "name": "round",
              "type": "uint256"
            },
            {
              "internalType": "uint256",
              "name": "totalAmount",
              "type": "uint256"
            },
            {
              "internalType": "uint256",
              "name": "strikePrice",
              "type": "uint256"
            },
            {
              "internalType": "uint256",
              "name": "underlyingPrice",
              "type": "uint256"
            },
            {
              "internalType": "uint16",
              "name": "interestRate",
              "type": "uint16"
            },
            {
              "internalType": "uint8",
              "name": "pricePrecision",
              "type": "uint8"
            },
            {
              "internalType": "bool",
              "name": "executed",
              "type": "bool"
            },
            {
              "internalType": "bool",
              "name": "callOrPut",
              "type": "bool"
            }
          ],
          "internalType": "struct StructureData.OptionState",
          "name": "",
          "type": "tuple"
        }
      ],
      "stateMutability": "view",
      "type": "function"
    },
    {
      "inputs": [
        {
          "internalType": "address",
          "name": "spender",
          "type": "address"
        },
        {
          "internalType": "uint256",
          "name": "addedValue",
          "type": "uint256"
        }
      ],
      "name": "increaseAllowance",
      "outputs": [
        {
          "internalType": "bool",
          "name": "",
          "type": "bool"
        }
      ],
      "stateMutability": "nonpayable",
      "type": "function"
    },
    {
      "inputs": [],
      "name": "isEth",
      "outputs": [
        {
          "internalType": "bool",
          "name": "",
          "type": "bool"
        }
      ],
      "stateMutability": "view",
      "type": "function"
    },
    {
      "inputs": [
        {
          "internalType": "address",
          "name": "",
          "type": "address"
        }
      ],
      "name": "maturedCounterPartyAssetAmount",
      "outputs": [
        {
          "internalType": "uint256",
          "name": "",
          "type": "uint256"
        }
      ],
      "stateMutability": "view",
      "type": "function"
    },
    {
      "inputs": [
        {
          "internalType": "address",
          "name": "",
          "type": "address"
        }
      ],
      "name": "maturedDepositAssetAmount",
      "outputs": [
        {
          "internalType": "uint256",
          "name": "",
          "type": "uint256"
        }
      ],
      "stateMutability": "view",
      "type": "function"
    },
    {
      "inputs": [],
      "name": "name",
      "outputs": [
        {
          "internalType": "string",
          "name": "",
          "type": "string"
        }
      ],
      "stateMutability": "view",
      "type": "function"
    },
    {
      "inputs": [
        {
          "internalType": "uint256",
          "name": "",
          "type": "uint256"
        }
      ],
      "name": "optionHeights",
      "outputs": [
        {
          "internalType": "uint256",
          "name": "",
          "type": "uint256"
        }
      ],
      "stateMutability": "view",
      "type": "function"
    },
    {
      "inputs": [],
      "name": "optionParameters",
      "outputs": [
        {
          "internalType": "uint256",
          "name": "quota",
          "type": "uint256"
        },
        {
          "internalType": "uint8",
          "name": "pricePrecision",
          "type": "uint8"
        },
        {
          "internalType": "int16",
          "name": "strikePriceRatio",
          "type": "int16"
        },
        {
          "internalType": "uint16",
          "name": "interestRate",
          "type": "uint16"
        }
      ],
      "stateMutability": "view",
      "type": "function"
    },
    {
      "inputs": [
        {
          "internalType": "uint256",
          "name": "",
          "type": "uint256"
        }
      ],
      "name": "optionStates",
      "outputs": [
        {
          "internalType": "uint256",
          "name": "round",
          "type": "uint256"
        },
        {
          "internalType": "uint256",
          "name": "totalAmount",
          "type": "uint256"
        },
        {
          "internalType": "uint256",
          "name": "strikePrice",
          "type": "uint256"
        },
        {
          "internalType": "uint256",
          "name": "underlyingPrice",
          "type": "uint256"
        },
        {
          "internalType": "uint16",
          "name": "interestRate",
          "type": "uint16"
        },
        {
          "internalType": "uint8",
          "name": "pricePrecision",
          "type": "uint8"
        },
        {
          "internalType": "bool",
          "name": "executed",
          "type": "bool"
        },
        {
          "internalType": "bool",
          "name": "callOrPut",
          "type": "bool"
        }
      ],
      "stateMutability": "view",
      "type": "function"
    },
    {
      "inputs": [],
      "name": "optionVault",
      "outputs": [
        {
          "internalType": "contract IOptionVault",
          "name": "",
          "type": "address"
        }
      ],
      "stateMutability": "view",
      "type": "function"
    },
    {
      "inputs": [],
      "name": "owner",
      "outputs": [
        {
          "internalType": "address",
          "name": "",
          "type": "address"
        }
      ],
      "stateMutability": "view",
      "type": "function"
    },
    {
      "inputs": [
        {
          "internalType": "address",
          "name": "",
          "type": "address"
        }
      ],
      "name": "pendingMaturedCounterPartyAssetAmount",
      "outputs": [
        {
          "internalType": "uint256",
          "name": "",
          "type": "uint256"
        }
      ],
      "stateMutability": "view",
      "type": "function"
    },
    {
      "inputs": [
        {
          "internalType": "address",
          "name": "",
          "type": "address"
        }
      ],
      "name": "pendingMaturedDepositAssetAmount",
      "outputs": [
        {
          "internalType": "uint256",
          "name": "",
          "type": "uint256"
        }
      ],
      "stateMutability": "view",
      "type": "function"
    },
    {
      "inputs": [],
      "name": "previousUnderlyingPrice",
      "outputs": [
        {
          "internalType": "uint256",
          "name": "",
          "type": "uint256"
        }
      ],
      "stateMutability": "view",
      "type": "function"
    },
    {
      "inputs": [
        {
          "internalType": "uint256",
          "name": "_amount",
          "type": "uint256"
        }
      ],
      "name": "redeem",
      "outputs": [],
      "stateMutability": "nonpayable",
      "type": "function"
    },
    {
      "inputs": [
        {
          "internalType": "uint256",
          "name": "_amount",
          "type": "uint256"
        }
      ],
      "name": "redeposit",
      "outputs": [],
      "stateMutability": "nonpayable",
      "type": "function"
    },
    {
      "inputs": [],
      "name": "renounceOwnership",
      "outputs": [],
      "stateMutability": "nonpayable",
      "type": "function"
    },
    {
      "inputs": [
        {
          "components": [
            {
              "internalType": "uint256",
              "name": "quota",
              "type": "uint256"
            },
            {
              "internalType": "uint8",
              "name": "pricePrecision",
              "type": "uint8"
            },
            {
              "internalType": "int16",
              "name": "strikePriceRatio",
              "type": "int16"
            },
            {
              "internalType": "uint16",
              "name": "interestRate",
              "type": "uint16"
            }
          ],
          "internalType": "struct StructureData.OptionParameters",
          "name": "_optionParameters",
          "type": "tuple"
        }
      ],
      "name": "rollToNext",
      "outputs": [],
      "stateMutability": "nonpayable",
      "type": "function"
    },
    {
      "inputs": [
        {
          "internalType": "address",
          "name": "_counterParty",
          "type": "address"
        }
      ],
      "name": "setCounterPartyOption",
      "outputs": [],
      "stateMutability": "nonpayable",
      "type": "function"
    },
    {
      "inputs": [],
      "name": "symbol",
      "outputs": [
        {
          "internalType": "string",
          "name": "",
          "type": "string"
        }
      ],
      "stateMutability": "view",
      "type": "function"
    },
    {
      "inputs": [],
      "name": "totalSupply",
      "outputs": [
        {
          "internalType": "uint256",
          "name": "",
          "type": "uint256"
        }
      ],
      "stateMutability": "view",
      "type": "function"
    },
    {
      "inputs": [
        {
          "internalType": "address",
          "name": "recipient",
          "type": "address"
        },
        {
          "internalType": "uint256",
          "name": "amount",
          "type": "uint256"
        }
      ],
      "name": "transfer",
      "outputs": [
        {
          "internalType": "bool",
          "name": "",
          "type": "bool"
        }
      ],
      "stateMutability": "nonpayable",
      "type": "function"
    },
    {
      "inputs": [
        {
          "internalType": "address",
          "name": "sender",
          "type": "address"
        },
        {
          "internalType": "address",
          "name": "recipient",
          "type": "address"
        },
        {
          "internalType": "uint256",
          "name": "amount",
          "type": "uint256"
        }
      ],
      "name": "transferFrom",
      "outputs": [
        {
          "internalType": "bool",
          "name": "",
          "type": "bool"
        }
      ],
      "stateMutability": "nonpayable",
      "type": "function"
    },
    {
      "inputs": [
        {
          "internalType": "address",
          "name": "newOwner",
          "type": "address"
        }
      ],
      "name": "transferOwnership",
      "outputs": [],
      "stateMutability": "nonpayable",
      "type": "function"
    },
    {
      "inputs": [],
      "name": "underSettlement",
      "outputs": [
        {
          "internalType": "bool",
          "name": "",
          "type": "bool"
        }
      ],
      "stateMutability": "view",
      "type": "function"
    },
    {
      "inputs": [
        {
          "internalType": "address",
          "name": "",
          "type": "address"
        }
      ],
      "name": "userStates",
      "outputs": [
        {
          "internalType": "uint256",
          "name": "pendingAsset",
          "type": "uint256"
        },
        {
          "internalType": "uint8",
          "name": "nextCursor",
          "type": "uint8"
        },
        {
          "internalType": "uint232",
          "name": "totalRound",
          "type": "uint232"
        },
        {
          "internalType": "bool",
          "name": "hasState",
          "type": "bool"
        },
        {
          "internalType": "bool",
          "name": "shouldStop",
          "type": "bool"
        }
      ],
      "stateMutability": "view",
      "type": "function"
    },
    {
      "inputs": [
        {
          "internalType": "uint256",
          "name": "",
          "type": "uint256"
        }
      ],
      "name": "usersInvolved",
      "outputs": [
        {
          "internalType": "address",
          "name": "",
          "type": "address"
        }
      ],
      "stateMutability": "view",
      "type": "function"
    },
    {
      "inputs": [],
      "name": "vaultAddress",
      "outputs": [
        {
          "internalType": "address",
          "name": "",
          "type": "address"
        }
      ],
      "stateMutability": "view",
      "type": "function"
    },
    {
      "inputs": [
        {
          "internalType": "uint256",
          "name": "_amount",
          "type": "uint256"
        }
      ],
      "name": "withraw",
      "outputs": [],
      "stateMutability": "nonpayable",
      "type": "function"
    }
  ],
  "transactionHash": "0x83deb114e16fdc8488da41c8e0fcdb2fdb6fce2549f45fc61ef4ff229a5b88b9",
  "args": [
    "WBTC-USDC-HodlBooster-Call",
    "WBTCUSDCHodlBoosterCall",
    "0x333730444c81096702fCd37341662915E2EE8001",
    "0x972afb456a2009713d1Da2dd9480582Da4a6CEac",
    8,
    6,
    "0xF5A458A96C69D5aD31881d9caA3405F36478c94e"
  ],
  "solcInputHash": "ffa6e380afeab447691070e3ca0e9d7f",
  "bytecode": "0x60e06040523480156200001157600080fd5b5060405162003c6b38038062003c6b833981016040819052620000349162000363565b8686868686868660018787816003908051906020019062000057929190620001db565b5080516200006d906004906020840190620001db565b5050506200008a620000846200018560201b60201c565b62000189565b6001600160a01b038216620000e55760405162461bcd60e51b815260206004820152601360248201527f456d707479207661756c74206164647265737300000000000000000000000000604482015260640160405180910390fd5b606086811b6001600160601b031990811660805295901b90941660a0526001600160a01b039485161560f81b60c0526005805461ffff60a01b1916600160a01b60ff9586160260ff60a81b191617600160a81b9390941692909202929092179055601080546001600160a01b0319169190931617909155600e805461ff00191661010092151592909202919091179055506200047a975050505050505050565b3390565b600580546001600160a01b038381166001600160a01b0319831681179093556040519116919082907f8be0079c531659141344cd1fd0a4f28419497f9722a3daafe3b4186f6b6457e090600090a35050565b828054620001e99062000427565b90600052602060002090601f0160209004810192826200020d576000855562000258565b82601f106200022857805160ff191683800117855562000258565b8280016001018555821562000258579182015b82811115620002585782518255916020019190600101906200023b565b50620002669291506200026a565b5090565b5b808211156200026657600081556001016200026b565b80516001600160a01b03811681146200029957600080fd5b919050565b600082601f830112620002af578081fd5b81516001600160401b0380821115620002cc57620002cc62000464565b604051601f8301601f19908116603f01168101908282118183101715620002f757620002f762000464565b8160405283815260209250868385880101111562000313578485fd5b8491505b8382101562000336578582018301518183018401529082019062000317565b838211156200034757848385830101525b9695505050505050565b805160ff811681146200029957600080fd5b600080600080600080600060e0888a0312156200037e578283fd5b87516001600160401b038082111562000395578485fd5b620003a38b838c016200029e565b985060208a0151915080821115620003b9578485fd5b50620003c88a828b016200029e565b965050620003d96040890162000281565b9450620003e96060890162000281565b9350620003f96080890162000351565b92506200040960a0890162000351565b91506200041960c0890162000281565b905092959891949750929550565b600181811c908216806200043c57607f821691505b602082108114156200045e57634e487b7160e01b600052602260045260246000fd5b50919050565b634e487b7160e01b600052604160045260246000fd5b60805160601c60a05160601c60c05160f81c613779620004f2600039600081816106870152818161130b0152611d9c0152600081816109ad01528181610f8c01526114fc015260008181610a1601528181610f64015281816113a0015281816114da0152818161183b0152611c3901526137796000f3fe6080604052600436106102935760003560e01c80638da5cb5b1161015a578063c515d7e7116100c1578063eef9f5a51161007a578063eef9f5a514610aeb578063efdd6cf814610b11578063f03cc2b914610b3e578063f2fde38b14610b5e578063f3e4f8f614610b7e578063f6326fb314610bab57600080fd5b8063c515d7e7146109e4578063ccc41f2414610a04578063daafe77414610a38578063db006a7514610a65578063dd62ed3e14610a85578063ded39ec914610acb57600080fd5b8063a5d3e5b111610113578063a5d3e5b114610901578063a9059cbb1461092e578063b5d700df1461094e578063b6b55f251461097b578063bb9662c81461099b578063c02337df146109cf57600080fd5b80638da5cb5b1461080b578063902025391461082957806395d89b4114610848578063a2589ef91461085d578063a457c2d71461087d578063a49b41d41461089d57600080fd5b806339509351116101fe5780635ce0d5a5116101b75780635ce0d5a5146106c957806365235474146106df57806370a0823114610794578063715018a6146107ca57806376e7a478146107df5780638a19c8bc146107f557600080fd5b806339509351146105fe578063430bf08a1461061e5780634601c2a6146106335780634d94f56d14610653578063511db114146106755780635973ff3a146106a957600080fd5b8063140e560911610250578063140e56091461053157806318160ddd1461055d5780631de245af1461057257806323b872dd146105925780632c453bdf146105b2578063313ce567146105d257600080fd5b806306fdde03146102985780630720da52146102c35780630748248f1461041a578063095ea7b3146104445780630ecc535f1461046457806311c8556d146104f9575b600080fd5b3480156102a457600080fd5b506102ad610bb3565b6040516102ba9190613258565b60405180910390f35b3480156102cf57600080fd5b506103ae6102de366004613194565b6040805161010081018252600080825260208201819052918101829052606081018290526080810182905260a0810182905260c0810182905260e0810191909152506000908152600a60209081526040808320548352600b825291829020825161010081018452815481526001820154928101929092526002810154928201929092526003820154606082015260049091015461ffff8116608083015260ff620100008204811660a0840152630100000082048116151560c084015264010000000090910416151560e082015290565b6040516102ba91906000610100820190508251825260208301516020830152604083015160408301526060830151606083015261ffff608084015116608083015260ff60a08401511660a083015260c0830151151560c083015260e0830151151560e083015292915050565b34801561042657600080fd5b50600e546104349060ff1681565b60405190151581526020016102ba565b34801561045057600080fd5b5061043461045f366004613002565b610c45565b34801561047057600080fd5b506104bf61047f366004612f52565b600d602052600090815260409020805460029091015460ff808216916001600160e81b0361010082041691600160f01b8204811691600160f81b90041685565b6040805195865260ff90941660208601526001600160e81b039092169284019290925290151560608301521515608082015260a0016102ba565b34801561050557600080fd5b50601054610519906001600160a01b031681565b6040516001600160a01b0390911681526020016102ba565b34801561053d57600080fd5b50336000908152600d60205260409020545b6040519081526020016102ba565b34801561056957600080fd5b5060025461054f565b34801561057e57600080fd5b5061051961058d366004613194565b610c5c565b34801561059e57600080fd5b506104346105ad366004612fc2565b610c86565b3480156105be57600080fd5b50600f54610519906001600160a01b031681565b3480156105de57600080fd5b50600554600160a01b900460ff1660405160ff90911681526020016102ba565b34801561060a57600080fd5b50610434610619366004613002565b610d37565b34801561062a57600080fd5b50610519610d73565b34801561063f57600080fd5b5061054f61064e3660046131ac565b610df5565b34801561065f57600080fd5b5061067361066e366004613194565b610e0e565b005b34801561068157600080fd5b506104347f000000000000000000000000000000000000000000000000000000000000000081565b3480156106b557600080fd5b506106736106c436600461302d565b611047565b3480156106d557600080fd5b5061054f60095481565b3480156106eb57600080fd5b5061074e6106fa366004613194565b600b60205260009081526040902080546001820154600283015460038401546004909401549293919290919061ffff81169060ff620100008204811691630100000081048216916401000000009091041688565b60408051988952602089019790975295870194909452606086019290925261ffff16608085015260ff1660a0840152151560c0830152151560e0820152610100016102ba565b3480156107a057600080fd5b5061054f6107af366004612f52565b6001600160a01b031660009081526020819052604090205490565b3480156107d657600080fd5b506106736110c1565b3480156107eb57600080fd5b5061054f61271081565b34801561080157600080fd5b5061054f60085481565b34801561081757600080fd5b506005546001600160a01b0316610519565b34801561083557600080fd5b50600e5461043490610100900460ff1681565b34801561085457600080fd5b506102ad6110f7565b34801561086957600080fd5b50610673610878366004613194565b611106565b34801561088957600080fd5b50610434610898366004613002565b611203565b3480156108a957600080fd5b506006546007546108d1919060ff811690610100810460010b906301000000900461ffff1684565b6040516102ba949392919093845260ff92909216602084015260010b604083015261ffff16606082015260800190565b34801561090d57600080fd5b5061054f61091c366004613194565b600a6020526000908152604090205481565b34801561093a57600080fd5b50610434610949366004613002565b61129c565b34801561095a57600080fd5b5061054f610969366004612f52565b60136020526000908152604090205481565b34801561098757600080fd5b50610673610996366004613194565b6112a9565b3480156109a757600080fd5b506105197f000000000000000000000000000000000000000000000000000000000000000081565b3480156109db57600080fd5b506106736113c8565b3480156109f057600080fd5b506106736109ff366004612f52565b6116b6565b348015610a1057600080fd5b506105197f000000000000000000000000000000000000000000000000000000000000000081565b348015610a4457600080fd5b5061054f610a53366004612f52565b60126020526000908152604090205481565b348015610a7157600080fd5b50610673610a80366004613194565b61174a565b348015610a9157600080fd5b5061054f610aa0366004612f8a565b6001600160a01b03918216600090815260016020908152604080832093909416825291909152205490565b348015610ad757600080fd5b50610673610ae6366004613110565b6118eb565b348015610af757600080fd5b50600e54610519906201000090046001600160a01b031681565b348015610b1d57600080fd5b5061054f610b2c366004612f52565b60116020526000908152604090205481565b348015610b4a57600080fd5b50610673610b59366004613194565b611b1c565b348015610b6a57600080fd5b50610673610b79366004612f52565b611ca2565b348015610b8a57600080fd5b5061054f610b99366004612f52565b60146020526000908152604090205481565b610673611d3a565b606060038054610bc2906136ac565b80601f0160208091040260200160405190810160405280929190818152602001828054610bee906136ac565b8015610c3b5780601f10610c1057610100808354040283529160200191610c3b565b820191906000526020600020905b815481529060010190602001808311610c1e57829003601f168201915b5050505050905090565b6000610c52338484611e73565b5060015b92915050565b600c8181548110610c6c57600080fd5b6000918252602090912001546001600160a01b0316905081565b6000610c93848484611f8f565b6001600160a01b038416600090815260016020908152604080832033845290915290205482811015610d1d5760405162461bcd60e51b815260206004820152602860248201527f45524332303a207472616e7366657220616d6f756e74206578636565647320616044820152676c6c6f77616e636560c01b60648201526084015b60405180910390fd5b610d2a8533858403611e73565b60019150505b9392505050565b3360008181526001602090815260408083206001600160a01b03871684529091528120549091610c52918590610d6e90869061349b565b611e73565b601054604080516338cc483160e01b815290516000926001600160a01b0316916338cc4831916004808301926020929190829003018186803b158015610db857600080fd5b505afa158015610dcc573d6000803e3d6000fd5b505050506040513d601f19601f82011682018060405250810190610df09190612f6e565b905090565b336000908152600d60205260408120610d30818461215f565b6005546001600160a01b03163314610e385760405162461bcd60e51b8152600401610d14906132b2565b600e5460ff1615610e5b5760405162461bcd60e51b8152600401610d149061328b565b600e805460ff191660011790556009819055600854610e775750565b600854600110610e845750565b600854600090610e9690600190613646565b6000818152600b602090815260408083208151610100810183528154815260018201549381019390935260028101549183019190915260038101546060830152600481015461ffff8116608084015260ff620100008204811660a0850152630100000082048116151560c085015264010000000090910416151560e0830152929350610f23908590612206565b6010546040805163193ef4d360e01b815283516004820152602084015160248201529083015115156044820152606083015160648201526001600160a01b037f0000000000000000000000000000000000000000000000000000000000000000811660848301527f0000000000000000000000000000000000000000000000000000000000000000811660a483015292935091169063193ef4d39060c401600060405180830381600087803b158015610fdb57600080fd5b505af1158015610fef573d6000803e3d6000fd5b50505060408083015160048501805491151563010000000263ff00000019909216919091179055518491507f5fd55b58a9ef8c29a9db39dd9a05dec64993eb227ad0177941238778e9ea896290600090a25050505b50565b600f546001600160a01b031633146110b85760405162461bcd60e51b815260206004820152602e60248201527f4f6e6c7920636f756e746572207061727479206f7074696f6e2063616e20636160448201526d1b1b081d1a1a5cc81b595d1a1bd960921b6064820152608401610d14565b5050565b505050565b6005546001600160a01b031633146110eb5760405162461bcd60e51b8152600401610d14906132b2565b6110f560006125cc565b565b606060048054610bc2906136ac565b600e5460ff16156111295760405162461bcd60e51b8152600401610d149061328b565b6001600854116111695760405162461bcd60e51b815260206004820152600b60248201526a08539bc813585d1d5c995960aa1b6044820152606401610d14565b600081116111895760405162461bcd60e51b8152600401610d14906132e7565b33600090815260116020526040902054818110156111dc5760405162461bcd60e51b815260206004820152601060248201526f45786365656420617661696c61626c6560801b6044820152606401610d14565b6111e6818361261e565b336000818152601160205260409020919091556110b8908361247a565b3360009081526001602090815260408083206001600160a01b0386168452909152812054828110156112855760405162461bcd60e51b815260206004820152602560248201527f45524332303a2064656372656173656420616c6c6f77616e63652062656c6f77604482015264207a65726f60d81b6064820152608401610d14565b6112923385858403611e73565b5060019392505050565b6000610c52338484611f8f565b600e5460ff16156112cc5760405162461bcd60e51b8152600401610d149061328b565b6000600854116113095760405162461bcd60e51b81526020600482015260086024820152670854dd185c9d195960c21b6044820152606401610d14565b7f0000000000000000000000000000000000000000000000000000000000000000156113605760405162461bcd60e51b815260206004820152600660248201526502145524332360d41b6044820152606401610d14565b600081116113805760405162461bcd60e51b8152600401610d14906132e7565b61138a338261247a565b61104433611396610d73565b6001600160a01b037f00000000000000000000000000000000000000000000000000000000000000001691908461262a565b6005546001600160a01b031633146113f25760405162461bcd60e51b8152600401610d14906132b2565b600e5460ff166114385760405162461bcd60e51b8152602060048201526011602482015270139bdd0818995a5b99c81cd95d1d1b1959607a1b6044820152606401610d14565b60006008541161144457565b6008546001101561149e576000600b6000600160ff166008546114679190613646565b8152602001908152602001600020905060008160010154111561149c57600481015461149c906301000000900460ff16612684565b505b6008546000908152600b602052604090819020601054915163042abd7d60e51b815290916001600160a01b031690638557afa0906115249084907f0000000000000000000000000000000000000000000000000000000000000000907f000000000000000000000000000000000000000000000000000000000000000090600401613308565b600060405180830381600087803b15801561153e57600080fd5b505af1158015611552573d6000803e3d6000fd5b505060095460038401555050600754611594906127109061158e90611583906101009004600190810b900b836133ef565b600385015490612acb565b90612ad7565b600282015560078054600483018054630100000090920461ffff1661ffff19831681178255925462ffffff1990921690921760ff909116620100000217905560018101546115e3903090612ae3565b600c5460005b81811015611676576000600c828154811061161457634e487b7160e01b600052603260045260246000fd5b60009182526020808320909101546001600160a01b0316808352600d9091526040909120805491925090156116525761165230838360000154611f8f565b805461165f908290612bc2565b60009055508061166e816136e7565b9150506115e9565b50600854436000908152600a6020526040808220839055517ffa513f17b83baf0c2da337ab931a96429f75c55f0ee2115b7acd007a1a35dd519190a25050565b6001600160a01b03811630141561170f5760405162461bcd60e51b815260206004820152601f60248201527f43616e6e6f74207365742073656c6620617320636f756e7465727061727479006044820152606401610d14565b600e805462010000600160b01b031916620100006001600160a01b0393909316928302179055600f80546001600160a01b0319169091179055565b600e5460ff161561176d5760405162461bcd60e51b8152600401610d149061328b565b6000811161178d5760405162461bcd60e51b8152600401610d14906132e7565b336000908152600d6020526040902080548211156117e15760405162461bcd60e51b81526020600482015260116024820152704578636565647320617661696c61626c6560781b6044820152606401610d14565b80546117ed908361261e565b81556008546000908152600b60205260409020600181015461180f908461261e565b6001820155601054604051631a4ca37b60e21b8152336004820152602481018590526001600160a01b037f000000000000000000000000000000000000000000000000000000000000000081166044830152909116906369328dec90606401600060405180830381600087803b15801561188857600080fd5b505af115801561189c573d6000803e3d6000fd5b50505050600854336001600160a01b03167fe5b754fb1abb7f01b499791d0b820ae3b6af3424ac1c59768edb53f4ec31a929856040516118de91815260200190565b60405180910390a3505050565b6005546001600160a01b031633146119155760405162461bcd60e51b8152600401610d14906132b2565b60085461192390600161349b565b6008819055508060066000820151816000015560208201518160010160006101000a81548160ff021916908360ff16021790555060408201518160010160016101000a81548161ffff021916908360010b61ffff16021790555060608201518160010160036101000a81548161ffff021916908361ffff16021790555090505060006040518061010001604052806008548152602001600081526020016000815260200160008152602001836060015161ffff168152602001836020015160ff168152602001600015158152602001600e60019054906101000a900460ff161515815250905080600b600060085481526020019081526020016000206000820151816000015560208201518160010155604082015181600201556060820151816003015560808201518160040160006101000a81548161ffff021916908361ffff16021790555060a08201518160040160026101000a81548160ff021916908360ff16021790555060c08201518160040160036101000a81548160ff02191690831515021790555060e08201518160040160046101000a81548160ff0219169083151502179055509050506000600e60006101000a81548160ff0219169083151502179055506008547f10f419fb017d3101d854d4433e414ff27f232bb2f4aae83d987ad0219efa6c9b60405160405180910390a25050565b600e5460ff1615611b3f5760405162461bcd60e51b8152600401610d149061328b565b600160085411611b7f5760405162461bcd60e51b815260206004820152600b60248201526a08539bc813585d1d5c995960aa1b6044820152606401610d14565b60008111611b9f5760405162461bcd60e51b8152600401610d14906132e7565b3360009081526011602052604090205481811015611bf25760405162461bcd60e51b815260206004820152601060248201526f45786365656420617661696c61626c6560801b6044820152606401610d14565b611bfc818361261e565b3360008181526011602052604090819020929092556010549151631a4ca37b60e21b81526004810191909152602481018490526001600160a01b037f000000000000000000000000000000000000000000000000000000000000000081166044830152909116906369328dec90606401600060405180830381600087803b158015611c8657600080fd5b505af1158015611c9a573d6000803e3d6000fd5b505050505050565b6005546001600160a01b03163314611ccc5760405162461bcd60e51b8152600401610d14906132b2565b6001600160a01b038116611d315760405162461bcd60e51b815260206004820152602660248201527f4f776e61626c653a206e6577206f776e657220697320746865207a65726f206160448201526564647265737360d01b6064820152608401610d14565b611044816125cc565b600e5460ff1615611d5d5760405162461bcd60e51b8152600401610d149061328b565b600060085411611d9a5760405162461bcd60e51b81526020600482015260086024820152670854dd185c9d195960c21b6044820152606401610d14565b7f0000000000000000000000000000000000000000000000000000000000000000611df05760405162461bcd60e51b8152600401610d14906020808252600490820152630428aa8960e31b604082015260600190565b60003411611e295760405162461bcd60e51b81526020600482015260066024820152652176616c756560d01b6044820152606401610d14565b611e33333461247a565b611e3b610d73565b6001600160a01b03166108fc349081150290604051600060405180830381858888f19350505050158015611044573d6000803e3d6000fd5b6001600160a01b038316611ed55760405162461bcd60e51b8152602060048201526024808201527f45524332303a20617070726f76652066726f6d20746865207a65726f206164646044820152637265737360e01b6064820152608401610d14565b6001600160a01b038216611f365760405162461bcd60e51b815260206004820152602260248201527f45524332303a20617070726f766520746f20746865207a65726f206164647265604482015261737360f01b6064820152608401610d14565b6001600160a01b0383811660008181526001602090815260408083209487168084529482529182902085905590518481527f8c5be1e5ebec7d5bd14f71427d1e84f3dd0314c0f7b2291e5b200ac8c7c3b92591016118de565b6001600160a01b038316611ff35760405162461bcd60e51b815260206004820152602560248201527f45524332303a207472616e736665722066726f6d20746865207a65726f206164604482015264647265737360d81b6064820152608401610d14565b6001600160a01b0382166120555760405162461bcd60e51b815260206004820152602360248201527f45524332303a207472616e7366657220746f20746865207a65726f206164647260448201526265737360e81b6064820152608401610d14565b6001600160a01b038316600090815260208190526040902054818110156120cd5760405162461bcd60e51b815260206004820152602660248201527f45524332303a207472616e7366657220616d6f756e7420657863656564732062604482015265616c616e636560d01b6064820152608401610d14565b6001600160a01b0380851660009081526020819052604080822085850390559185168152908120805484929061210490849061349b565b92505081905550826001600160a01b0316846001600160a01b03167fddf252ad1be2c89b69c2b068fc378daa952ba7f163c4a11628f55a4df523b3ef8460405161215091815260200190565b60405180910390a35b50505050565b600282015460009060ff83166101009091046001600160e81b03161161218757506000610c56565b600160ff83161061219757600080fd5b60028301546000906001906121b090859060ff16613605565b6121ba9190613605565b905060008160000b12156121d6576121d3600182613430565b90505b836001018160ff16600181106121fc57634e487b7160e01b600052603260045260246000fd5b0154949350505050565b61223360405180608001604052806000815260200160008152602001600015158152602001600081525090565b60408051608080820183526000808352602083018190529282018390528451606083015284015190919061226e906127109061ffff16612c77565b60408086015187119084018190529091508015612303576122f9600560149054906101000a900460ff168660a001516122a791906134b3565b6122b290600a61353b565b60055461158e906127109082906122d490600160a81b900460ff16600a61353b565b6122f3886122f38d604001518e60200151612acb90919063ffffffff16565b90612acb565b6020840152612323565b61232061271061158e848860200151612acb90919063ffffffff16565b83525b600c5460005b8181101561246e576000600c828154811061235457634e487b7160e01b600052603260045260246000fd5b60009182526020808320909101546001600160a01b0316808352600d909152604082209092509061239061238960018061365d565b839061215f565b9050806123c35750506001600160a01b03166000908152601360209081526040808320839055601490915281205561245c565b85156124175760006123ea8b6020015161158e848c60200151612acb90919063ffffffff16565b6001600160a01b038516600090815260146020908152604080832093909355601390529081205550612458565b60208a0151885160009161242f9161158e9085612acb565b6001600160a01b0385166000908152601360209081526040808320939093556014905290812055505b5050505b80612466816136e7565b915050612329565b50929695505050505050565b6008546000908152600b60205260409020600654600182015461249d9084612c77565b11156124de5760405162461bcd60e51b815260206004820152601060248201526f4e6f7420656e6f7567682071756f746160801b6044820152606401610d14565b6001600160a01b0383166000908152600d602052604090206002810154600160f01b900460ff1661256c5760028101805460ff60f01b1916600160f01b179055600c80546001810182556000919091527fdf6966c971051c3d54ec59162606531493a51404a002842f56009d7e5cf4a8c70180546001600160a01b0386166001600160a01b03199091161790555b80546125789084612c77565b815560018201546125899084612c77565b60018301556008546040518481526001600160a01b038616907f90890809c654f11d6e72a28fa60149770a0d11ec6c92319d6ceb2bb0a4ea1a1590602001612150565b600580546001600160a01b038381166001600160a01b0319831681179093556040519116919082907f8be0079c531659141344cd1fd0a4f28419497f9722a3daafe3b4186f6b6457e090600090a35050565b6000610d308284613646565b604080516001600160a01b0385811660248301528416604482015260648082018490528251808303909101815260849091019091526020810180516001600160e01b03166323b872dd60e01b179052612159908590612c83565b600c54816127835760005b818110156110bc576000600c82815481106126ba57634e487b7160e01b600052603260045260246000fd5b60009182526020808320909101546001600160a01b0316808352600d8252604080842060139093529092205491925090806126f757505050612771565b6002820154600160f81b900460ff161561274c576001600160a01b03831660009081526011602052604090205461272e9082612c77565b6001600160a01b038416600090815260116020526040902055612756565b612756838261247a565b50506001600160a01b03166000908152601360205260408120555b8061277b816136e7565b91505061268f565b6000805b82811015612839576000600c82815481106127b257634e487b7160e01b600052603260045260246000fd5b60009182526020808320909101546001600160a01b0316808352600d909152604090912060028101549192509060ff600160f81b909104168061280b57506001600160a01b038216600090815260146020526040902054155b15612817575050612827565b83612821816136e7565b94505050505b80612831816136e7565b915050612787565b508061284457505050565b60008167ffffffffffffffff81111561286d57634e487b7160e01b600052604160045260246000fd5b604051908082528060200260200182016040528015612896578160200160208202803683370190505b50905060008267ffffffffffffffff8111156128c257634e487b7160e01b600052604160045260246000fd5b6040519080825280602002602001820160405280156128eb578160200160208202803683370190505b5090506000925060005b84811015612a5a576000600c828154811061292057634e487b7160e01b600052603260045260246000fd5b60009182526020808320909101546001600160a01b0316808352600d82526040808420601490935290922054919250908061295d57505050612a48565b6002820154600160f81b900460ff16156129b2576001600160a01b0383166000908152601260205260409020546129949082612c77565b6001600160a01b038416600090815260126020526040902055612a2d565b828688815181106129d357634e487b7160e01b600052603260045260246000fd5b60200260200101906001600160a01b031690816001600160a01b03168152505080858881518110612a1457634e487b7160e01b600052603260045260246000fd5b602090810291909101015286612a29816136e7565b9750505b50506001600160a01b03166000908152601460205260408120555b80612a52816136e7565b9150506128f5565b50600e54604051632cb9ff9d60e11b8152620100009091046001600160a01b031690635973ff3a90612a9290859085906004016131e2565b600060405180830381600087803b158015612aac57600080fd5b505af1158015612ac0573d6000803e3d6000fd5b505050505050505050565b6000610d3082846135e6565b6000610d3082846134d8565b6001600160a01b038216612b395760405162461bcd60e51b815260206004820152601f60248201527f45524332303a206d696e7420746f20746865207a65726f2061646472657373006044820152606401610d14565b8060026000828254612b4b919061349b565b90915550506001600160a01b03821660009081526020819052604081208054839290612b7890849061349b565b90915550506040518181526001600160a01b038316906000907fddf252ad1be2c89b69c2b068fc378daa952ba7f163c4a11628f55a4df523b3ef9060200160405180910390a35050565b600282015460ff168160018085019083908110612bef57634e487b7160e01b600052603260045260246000fd5b01556000612bfe60018061365d565b60ff168214612c1757612c1282600161349b565b612c1a565b60005b60028501805460ff191660ff83161790819055909150612c499061010090046001600160e81b03166001613470565b8460020160016101000a8154816001600160e81b0302191690836001600160e81b0316021790555050505050565b6000610d30828461349b565b6000612cd8826040518060400160405280602081526020017f5361666545524332303a206c6f772d6c6576656c2063616c6c206661696c6564815250856001600160a01b0316612d559092919063ffffffff16565b8051909150156110bc5780806020019051810190612cf691906130f0565b6110bc5760405162461bcd60e51b815260206004820152602a60248201527f5361666545524332303a204552433230206f7065726174696f6e20646964206e6044820152691bdd081cdd58d8d9595960b21b6064820152608401610d14565b6060612d648484600085612d6c565b949350505050565b606082471015612dcd5760405162461bcd60e51b815260206004820152602660248201527f416464726573733a20696e73756666696369656e742062616c616e636520666f6044820152651c8818d85b1b60d21b6064820152608401610d14565b843b612e1b5760405162461bcd60e51b815260206004820152601d60248201527f416464726573733a2063616c6c20746f206e6f6e2d636f6e74726163740000006044820152606401610d14565b600080866001600160a01b03168587604051612e3791906131c6565b60006040518083038185875af1925050503d8060008114612e74576040519150601f19603f3d011682016040523d82523d6000602084013e612e79565b606091505b5091509150612e89828286612e94565b979650505050505050565b60608315612ea3575081610d30565b825115612eb35782518084602001fd5b8160405162461bcd60e51b8152600401610d149190613258565b600082601f830112612edd578081fd5b81356020612ef2612eed836133cb565b61339a565b80838252828201915082860187848660051b8901011115612f11578586fd5b855b85811015612f2f57813584529284019290840190600101612f13565b5090979650505050505050565b803560ff81168114612f4d57600080fd5b919050565b600060208284031215612f63578081fd5b8135610d308161372e565b600060208284031215612f7f578081fd5b8151610d308161372e565b60008060408385031215612f9c578081fd5b8235612fa78161372e565b91506020830135612fb78161372e565b809150509250929050565b600080600060608486031215612fd6578081fd5b8335612fe18161372e565b92506020840135612ff18161372e565b929592945050506040919091013590565b60008060408385031215613014578182fd5b823561301f8161372e565b946020939093013593505050565b6000806040838503121561303f578182fd5b823567ffffffffffffffff80821115613056578384fd5b818501915085601f830112613069578384fd5b81356020613079612eed836133cb565b8083825282820191508286018a848660051b8901011115613098578889fd5b8896505b848710156130c35780356130af8161372e565b83526001969096019591830191830161309c565b50965050860135925050808211156130d9578283fd5b506130e685828601612ecd565b9150509250929050565b600060208284031215613101578081fd5b81518015158114610d30578182fd5b600060808284031215613121578081fd5b6040516080810181811067ffffffffffffffff8211171561314457613144613718565b6040528235815261315760208401612f3c565b602082015260408301358060010b811461316f578283fd5b6040820152606083013561ffff81168114613188578283fd5b60608201529392505050565b6000602082840312156131a5578081fd5b5035919050565b6000602082840312156131bd578081fd5b610d3082612f3c565b600082516131d8818460208701613680565b9190910192915050565b604080825283519082018190526000906020906060840190828701845b828110156132245781516001600160a01b0316845292840192908401906001016131ff565b50505083810382850152845180825285830191830190845b81811015612f2f5783518352928401929184019160010161323c565b6020815260008251806020840152613277816040850160208701613680565b601f01601f19169190910160400192915050565b6020808252600d908201526c10995a5b99c81cd95d1d1b1959609a1b604082015260600190565b6020808252818101527f4f776e61626c653a2063616c6c6572206973206e6f7420746865206f776e6572604082015260600190565b60208082526007908201526608585b5bdd5b9d60ca1b604082015260600190565b83548152600184015460208201526002840154604082015260038401546060820152600484015461ffff81166080830152610140820190601081901c60ff1660a084015261336060c0840160ff8360181c1615159052565b61337460e0840160ff8360201c1615159052565b506001600160a01b0384166101008301526001600160a01b038316610120830152612d64565b604051601f8201601f1916810167ffffffffffffffff811182821017156133c3576133c3613718565b604052919050565b600067ffffffffffffffff8211156133e5576133e5613718565b5060051b60200190565b600080821280156001600160ff1b038490038513161561341157613411613702565b600160ff1b839003841281161561342a5761342a613702565b50500190565b600081810b83820b82821282607f0382138115161561345157613451613702565b82607f1903821281161561346757613467613702565b50019392505050565b60006001600160e81b0382811684821680830382111561349257613492613702565b01949350505050565b600082198211156134ae576134ae613702565b500190565b600060ff821660ff84168060ff038211156134d0576134d0613702565b019392505050565b6000826134f357634e487b7160e01b81526012600452602481fd5b500490565b600181815b8085111561353357816000190482111561351957613519613702565b8085161561352657918102915b93841c93908002906134fd565b509250929050565b6000610d3060ff84168360008261355457506001610c56565b8161356157506000610c56565b816001811461357757600281146135815761359d565b6001915050610c56565b60ff84111561359257613592613702565b50506001821b610c56565b5060208310610133831016604e8410600b84101617156135c0575081810a610c56565b6135ca83836134f8565b80600019048211156135de576135de613702565b029392505050565b600081600019048311821515161561360057613600613702565b500290565b600081810b83820b8281128015607f1983018412161561362757613627613702565b81607f01831381161561363c5761363c613702565b5090039392505050565b60008282101561365857613658613702565b500390565b600060ff821660ff84168082101561367757613677613702565b90039392505050565b60005b8381101561369b578181015183820152602001613683565b838111156121595750506000910152565b600181811c908216806136c057607f821691505b602082108114156136e157634e487b7160e01b600052602260045260246000fd5b50919050565b60006000198214156136fb576136fb613702565b5060010190565b634e487b7160e01b600052601160045260246000fd5b634e487b7160e01b600052604160045260246000fd5b6001600160a01b038116811461104457600080fdfea26469706673582212208f8b4c8cd8660620cb06618db5e5f19c4fce4b0e111253f0becce1fd5fb3256764736f6c63430008040033",
  "devdoc": {
    "kind": "dev",
    "methods": {
      "allowance(address,address)": {
        "details": "See {IERC20-allowance}."
      },
      "approve(address,uint256)": {
        "details": "See {IERC20-approve}. Requirements: - `spender` cannot be the zero address."
      },
      "balanceOf(address)": {
        "details": "See {IERC20-balanceOf}."
      },
      "decimals()": {
        "details": "Returns the number of decimals used to get its user representation. For example, if `decimals` equals `2`, a balance of `505` tokens should be displayed to a user as `5.05` (`505 / 10 ** 2`). Tokens usually opt for a value of 18, imitating the relationship between Ether and Wei. This is the value {ERC20} uses, unless this function is overridden; NOTE: This information is only used for _display_ purposes: it in no way affects any of the arithmetic of the contract, including {IERC20-balanceOf} and {IERC20-transfer}."
      },
      "decreaseAllowance(address,uint256)": {
        "details": "Atomically decreases the allowance granted to `spender` by the caller. This is an alternative to {approve} that can be used as a mitigation for problems described in {IERC20-approve}. Emits an {Approval} event indicating the updated allowance. Requirements: - `spender` cannot be the zero address. - `spender` must have allowance for the caller of at least `subtractedValue`."
      },
      "increaseAllowance(address,uint256)": {
        "details": "Atomically increases the allowance granted to `spender` by the caller. This is an alternative to {approve} that can be used as a mitigation for problems described in {IERC20-approve}. Emits an {Approval} event indicating the updated allowance. Requirements: - `spender` cannot be the zero address."
      },
      "name()": {
        "details": "Returns the name of the token."
      },
      "owner()": {
        "details": "Returns the address of the current owner."
      },
      "renounceOwnership()": {
        "details": "Leaves the contract without owner. It will not be possible to call `onlyOwner` functions anymore. Can only be called by the current owner. NOTE: Renouncing ownership will leave the contract without an owner, thereby removing any functionality that is only available to the owner."
      },
      "symbol()": {
        "details": "Returns the symbol of the token, usually a shorter version of the name."
      },
      "totalSupply()": {
        "details": "See {IERC20-totalSupply}."
      },
      "transfer(address,uint256)": {
        "details": "See {IERC20-transfer}. Requirements: - `recipient` cannot be the zero address. - the caller must have a balance of at least `amount`."
      },
      "transferFrom(address,address,uint256)": {
        "details": "See {IERC20-transferFrom}. Emits an {Approval} event indicating the updated allowance. This is not required by the EIP. See the note at the beginning of {ERC20}. Requirements: - `sender` and `recipient` cannot be the zero address. - `sender` must have a balance of at least `amount`. - the caller must have allowance for ``sender``'s tokens of at least `amount`."
      },
      "transferOwnership(address)": {
        "details": "Transfers ownership of the contract to a new account (`newOwner`). Can only be called by the current owner."
      }
    },
    "version": 1
  },
  "userdoc": {
    "kind": "user",
    "methods": {},
    "version": 1
  },
  "storageLayout": {
    "storage": [
      {
        "astId": 499,
        "contract": "contracts/Options/PKKTHodlBoosterCallOption.sol:PKKTHodlBoosterCallOption",
        "label": "_balances",
        "offset": 0,
        "slot": "0",
        "type": "t_mapping(t_address,t_uint256)"
      },
      {
        "astId": 505,
        "contract": "contracts/Options/PKKTHodlBoosterCallOption.sol:PKKTHodlBoosterCallOption",
        "label": "_allowances",
        "offset": 0,
        "slot": "1",
        "type": "t_mapping(t_address,t_mapping(t_address,t_uint256))"
      },
      {
        "astId": 507,
        "contract": "contracts/Options/PKKTHodlBoosterCallOption.sol:PKKTHodlBoosterCallOption",
        "label": "_totalSupply",
        "offset": 0,
        "slot": "2",
        "type": "t_uint256"
      },
      {
        "astId": 509,
        "contract": "contracts/Options/PKKTHodlBoosterCallOption.sol:PKKTHodlBoosterCallOption",
        "label": "_name",
        "offset": 0,
        "slot": "3",
        "type": "t_string_storage"
      },
      {
        "astId": 511,
        "contract": "contracts/Options/PKKTHodlBoosterCallOption.sol:PKKTHodlBoosterCallOption",
        "label": "_symbol",
        "offset": 0,
        "slot": "4",
        "type": "t_string_storage"
      },
      {
        "astId": 387,
        "contract": "contracts/Options/PKKTHodlBoosterCallOption.sol:PKKTHodlBoosterCallOption",
        "label": "_owner",
        "offset": 0,
        "slot": "5",
        "type": "t_address"
      },
      {
        "astId": 3272,
        "contract": "contracts/Options/PKKTHodlBoosterCallOption.sol:PKKTHodlBoosterCallOption",
        "label": "depositAssetAmountDecimals",
        "offset": 20,
        "slot": "5",
        "type": "t_uint8"
      },
      {
        "astId": 3274,
        "contract": "contracts/Options/PKKTHodlBoosterCallOption.sol:PKKTHodlBoosterCallOption",
        "label": "counterPartyAssetAmountDecimals",
        "offset": 21,
        "slot": "5",
        "type": "t_uint8"
      },
      {
        "astId": 3283,
        "contract": "contracts/Options/PKKTHodlBoosterCallOption.sol:PKKTHodlBoosterCallOption",
        "label": "optionParameters",
        "offset": 0,
        "slot": "6",
        "type": "t_struct(OptionParameters)8742_storage"
      },
      {
        "astId": 3285,
        "contract": "contracts/Options/PKKTHodlBoosterCallOption.sol:PKKTHodlBoosterCallOption",
        "label": "currentRound",
        "offset": 0,
        "slot": "8",
        "type": "t_uint256"
      },
      {
        "astId": 3287,
        "contract": "contracts/Options/PKKTHodlBoosterCallOption.sol:PKKTHodlBoosterCallOption",
        "label": "previousUnderlyingPrice",
        "offset": 0,
        "slot": "9",
        "type": "t_uint256"
      },
      {
        "astId": 3291,
        "contract": "contracts/Options/PKKTHodlBoosterCallOption.sol:PKKTHodlBoosterCallOption",
        "label": "optionHeights",
        "offset": 0,
        "slot": "10",
        "type": "t_mapping(t_uint256,t_uint256)"
      },
      {
        "astId": 3296,
        "contract": "contracts/Options/PKKTHodlBoosterCallOption.sol:PKKTHodlBoosterCallOption",
        "label": "optionStates",
        "offset": 0,
        "slot": "11",
        "type": "t_mapping(t_uint256,t_struct(OptionState)8759_storage)"
      },
      {
        "astId": 3299,
        "contract": "contracts/Options/PKKTHodlBoosterCallOption.sol:PKKTHodlBoosterCallOption",
        "label": "usersInvolved",
        "offset": 0,
        "slot": "12",
        "type": "t_array(t_address)dyn_storage"
      },
      {
        "astId": 3304,
        "contract": "contracts/Options/PKKTHodlBoosterCallOption.sol:PKKTHodlBoosterCallOption",
        "label": "userStates",
        "offset": 0,
        "slot": "13",
        "type": "t_mapping(t_address,t_struct(UserState)8786_storage)"
      },
      {
        "astId": 3306,
        "contract": "contracts/Options/PKKTHodlBoosterCallOption.sol:PKKTHodlBoosterCallOption",
        "label": "underSettlement",
        "offset": 0,
        "slot": "14",
        "type": "t_bool"
      },
      {
        "astId": 3308,
        "contract": "contracts/Options/PKKTHodlBoosterCallOption.sol:PKKTHodlBoosterCallOption",
        "label": "callOrPut",
        "offset": 1,
        "slot": "14",
        "type": "t_bool"
      },
      {
        "astId": 3311,
        "contract": "contracts/Options/PKKTHodlBoosterCallOption.sol:PKKTHodlBoosterCallOption",
        "label": "counterPartyOption",
        "offset": 2,
        "slot": "14",
        "type": "t_contract(IPKKTStructureOption)8664"
      },
      {
        "astId": 3313,
        "contract": "contracts/Options/PKKTHodlBoosterCallOption.sol:PKKTHodlBoosterCallOption",
        "label": "counterParty",
        "offset": 0,
        "slot": "15",
        "type": "t_address"
      },
      {
        "astId": 3316,
        "contract": "contracts/Options/PKKTHodlBoosterCallOption.sol:PKKTHodlBoosterCallOption",
        "label": "optionVault",
        "offset": 0,
        "slot": "16",
        "type": "t_contract(IOptionVault)8602"
      },
      {
        "astId": 3320,
        "contract": "contracts/Options/PKKTHodlBoosterCallOption.sol:PKKTHodlBoosterCallOption",
        "label": "maturedDepositAssetAmount",
        "offset": 0,
        "slot": "17",
        "type": "t_mapping(t_address,t_uint256)"
      },
      {
        "astId": 3324,
        "contract": "contracts/Options/PKKTHodlBoosterCallOption.sol:PKKTHodlBoosterCallOption",
        "label": "maturedCounterPartyAssetAmount",
        "offset": 0,
        "slot": "18",
        "type": "t_mapping(t_address,t_uint256)"
      },
      {
        "astId": 3328,
        "contract": "contracts/Options/PKKTHodlBoosterCallOption.sol:PKKTHodlBoosterCallOption",
        "label": "pendingMaturedDepositAssetAmount",
        "offset": 0,
        "slot": "19",
        "type": "t_mapping(t_address,t_uint256)"
      },
      {
        "astId": 3332,
        "contract": "contracts/Options/PKKTHodlBoosterCallOption.sol:PKKTHodlBoosterCallOption",
        "label": "pendingMaturedCounterPartyAssetAmount",
        "offset": 0,
        "slot": "20",
        "type": "t_mapping(t_address,t_uint256)"
      }
    ],
    "types": {
      "t_address": {
        "encoding": "inplace",
        "label": "address",
        "numberOfBytes": "20"
      },
      "t_array(t_address)dyn_storage": {
        "base": "t_address",
        "encoding": "dynamic_array",
        "label": "address[]",
        "numberOfBytes": "32"
      },
      "t_array(t_uint256)1_storage": {
        "base": "t_uint256",
        "encoding": "inplace",
        "label": "uint256[1]",
        "numberOfBytes": "32"
      },
      "t_bool": {
        "encoding": "inplace",
        "label": "bool",
        "numberOfBytes": "1"
      },
      "t_contract(IOptionVault)8602": {
        "encoding": "inplace",
        "label": "contract IOptionVault",
        "numberOfBytes": "20"
      },
      "t_contract(IPKKTStructureOption)8664": {
        "encoding": "inplace",
        "label": "contract IPKKTStructureOption",
        "numberOfBytes": "20"
      },
      "t_int16": {
        "encoding": "inplace",
        "label": "int16",
        "numberOfBytes": "2"
      },
      "t_mapping(t_address,t_mapping(t_address,t_uint256))": {
        "encoding": "mapping",
        "key": "t_address",
        "label": "mapping(address => mapping(address => uint256))",
        "numberOfBytes": "32",
        "value": "t_mapping(t_address,t_uint256)"
      },
      "t_mapping(t_address,t_struct(UserState)8786_storage)": {
        "encoding": "mapping",
        "key": "t_address",
        "label": "mapping(address => struct StructureData.UserState)",
        "numberOfBytes": "32",
        "value": "t_struct(UserState)8786_storage"
      },
      "t_mapping(t_address,t_uint256)": {
        "encoding": "mapping",
        "key": "t_address",
        "label": "mapping(address => uint256)",
        "numberOfBytes": "32",
        "value": "t_uint256"
      },
      "t_mapping(t_uint256,t_struct(OptionState)8759_storage)": {
        "encoding": "mapping",
        "key": "t_uint256",
        "label": "mapping(uint256 => struct StructureData.OptionState)",
        "numberOfBytes": "32",
        "value": "t_struct(OptionState)8759_storage"
      },
      "t_mapping(t_uint256,t_uint256)": {
        "encoding": "mapping",
        "key": "t_uint256",
        "label": "mapping(uint256 => uint256)",
        "numberOfBytes": "32",
        "value": "t_uint256"
      },
      "t_string_storage": {
        "encoding": "bytes",
        "label": "string",
        "numberOfBytes": "32"
      },
      "t_struct(OptionParameters)8742_storage": {
        "encoding": "inplace",
        "label": "struct StructureData.OptionParameters",
        "members": [
          {
            "astId": 8735,
            "contract": "contracts/Options/PKKTHodlBoosterCallOption.sol:PKKTHodlBoosterCallOption",
            "label": "quota",
            "offset": 0,
            "slot": "0",
            "type": "t_uint256"
          },
          {
            "astId": 8737,
            "contract": "contracts/Options/PKKTHodlBoosterCallOption.sol:PKKTHodlBoosterCallOption",
            "label": "pricePrecision",
            "offset": 0,
            "slot": "1",
            "type": "t_uint8"
          },
          {
            "astId": 8739,
            "contract": "contracts/Options/PKKTHodlBoosterCallOption.sol:PKKTHodlBoosterCallOption",
            "label": "strikePriceRatio",
            "offset": 1,
            "slot": "1",
            "type": "t_int16"
          },
          {
            "astId": 8741,
            "contract": "contracts/Options/PKKTHodlBoosterCallOption.sol:PKKTHodlBoosterCallOption",
            "label": "interestRate",
            "offset": 3,
            "slot": "1",
            "type": "t_uint16"
          }
        ],
        "numberOfBytes": "64"
      },
      "t_struct(OptionState)8759_storage": {
        "encoding": "inplace",
        "label": "struct StructureData.OptionState",
        "members": [
          {
            "astId": 8744,
            "contract": "contracts/Options/PKKTHodlBoosterCallOption.sol:PKKTHodlBoosterCallOption",
            "label": "round",
            "offset": 0,
            "slot": "0",
            "type": "t_uint256"
          },
          {
            "astId": 8746,
            "contract": "contracts/Options/PKKTHodlBoosterCallOption.sol:PKKTHodlBoosterCallOption",
            "label": "totalAmount",
            "offset": 0,
            "slot": "1",
            "type": "t_uint256"
          },
          {
            "astId": 8748,
            "contract": "contracts/Options/PKKTHodlBoosterCallOption.sol:PKKTHodlBoosterCallOption",
            "label": "strikePrice",
            "offset": 0,
            "slot": "2",
            "type": "t_uint256"
          },
          {
            "astId": 8750,
            "contract": "contracts/Options/PKKTHodlBoosterCallOption.sol:PKKTHodlBoosterCallOption",
            "label": "underlyingPrice",
            "offset": 0,
            "slot": "3",
            "type": "t_uint256"
          },
          {
            "astId": 8752,
            "contract": "contracts/Options/PKKTHodlBoosterCallOption.sol:PKKTHodlBoosterCallOption",
            "label": "interestRate",
            "offset": 0,
            "slot": "4",
            "type": "t_uint16"
          },
          {
            "astId": 8754,
            "contract": "contracts/Options/PKKTHodlBoosterCallOption.sol:PKKTHodlBoosterCallOption",
            "label": "pricePrecision",
            "offset": 2,
            "slot": "4",
            "type": "t_uint8"
          },
          {
            "astId": 8756,
            "contract": "contracts/Options/PKKTHodlBoosterCallOption.sol:PKKTHodlBoosterCallOption",
            "label": "executed",
            "offset": 3,
            "slot": "4",
            "type": "t_bool"
          },
          {
            "astId": 8758,
            "contract": "contracts/Options/PKKTHodlBoosterCallOption.sol:PKKTHodlBoosterCallOption",
            "label": "callOrPut",
            "offset": 4,
            "slot": "4",
            "type": "t_bool"
          }
        ],
        "numberOfBytes": "160"
      },
      "t_struct(UserState)8786_storage": {
        "encoding": "inplace",
        "label": "struct StructureData.UserState",
        "members": [
          {
            "astId": 8773,
            "contract": "contracts/Options/PKKTHodlBoosterCallOption.sol:PKKTHodlBoosterCallOption",
            "label": "pendingAsset",
            "offset": 0,
            "slot": "0",
            "type": "t_uint256"
          },
          {
            "astId": 8777,
            "contract": "contracts/Options/PKKTHodlBoosterCallOption.sol:PKKTHodlBoosterCallOption",
            "label": "ongoingAsset",
            "offset": 0,
            "slot": "1",
            "type": "t_array(t_uint256)1_storage"
          },
          {
            "astId": 8779,
            "contract": "contracts/Options/PKKTHodlBoosterCallOption.sol:PKKTHodlBoosterCallOption",
            "label": "nextCursor",
            "offset": 0,
            "slot": "2",
            "type": "t_uint8"
          },
          {
            "astId": 8781,
            "contract": "contracts/Options/PKKTHodlBoosterCallOption.sol:PKKTHodlBoosterCallOption",
            "label": "totalRound",
            "offset": 1,
            "slot": "2",
            "type": "t_uint232"
          },
          {
            "astId": 8783,
            "contract": "contracts/Options/PKKTHodlBoosterCallOption.sol:PKKTHodlBoosterCallOption",
            "label": "hasState",
            "offset": 30,
            "slot": "2",
            "type": "t_bool"
          },
          {
            "astId": 8785,
            "contract": "contracts/Options/PKKTHodlBoosterCallOption.sol:PKKTHodlBoosterCallOption",
            "label": "shouldStop",
            "offset": 31,
            "slot": "2",
            "type": "t_bool"
          }
        ],
        "numberOfBytes": "96"
      },
      "t_uint16": {
        "encoding": "inplace",
        "label": "uint16",
        "numberOfBytes": "2"
      },
      "t_uint232": {
        "encoding": "inplace",
        "label": "uint232",
        "numberOfBytes": "29"
      },
      "t_uint256": {
        "encoding": "inplace",
        "label": "uint256",
        "numberOfBytes": "32"
      },
      "t_uint8": {
        "encoding": "inplace",
        "label": "uint8",
        "numberOfBytes": "1"
      }
    }
  }
}