{
  "address": "0xE3fD89bDb415c2F3196d7e58b90BF3b2936D9186",
  "abi": [
    {
      "anonymous": false,
      "inputs": [
        {
          "indexed": true,
          "internalType": "address",
          "name": "owner",
          "type": "address"
        },
        {
          "indexed": true,
          "internalType": "address",
          "name": "spender",
          "type": "address"
        },
        {
          "indexed": false,
          "internalType": "uint256",
          "name": "value",
          "type": "uint256"
        }
      ],
      "name": "Approval",
      "type": "event"
    },
    {
      "anonymous": false,
      "inputs": [
        {
          "indexed": true,
          "internalType": "uint256",
          "name": "round",
          "type": "uint256"
        }
      ],
      "name": "CloseOption",
      "type": "event"
    },
    {
      "anonymous": false,
      "inputs": [
        {
          "indexed": true,
          "internalType": "uint256",
          "name": "round",
          "type": "uint256"
        }
      ],
      "name": "CommitOption",
      "type": "event"
    },
    {
      "anonymous": false,
      "inputs": [
        {
          "indexed": true,
          "internalType": "address",
          "name": "account",
          "type": "address"
        },
        {
          "indexed": true,
          "internalType": "uint256",
          "name": "round",
          "type": "uint256"
        },
        {
          "indexed": false,
          "internalType": "uint256",
          "name": "amount",
          "type": "uint256"
        }
      ],
      "name": "Deposit",
      "type": "event"
    },
    {
      "anonymous": false,
      "inputs": [
        {
          "indexed": true,
          "internalType": "uint256",
          "name": "round",
          "type": "uint256"
        }
      ],
      "name": "OpenOption",
      "type": "event"
    },
    {
      "anonymous": false,
      "inputs": [
        {
          "indexed": true,
          "internalType": "address",
          "name": "option",
          "type": "address"
        },
        {
          "indexed": true,
          "internalType": "string",
          "name": "name",
          "type": "string"
        }
      ],
      "name": "OptionCreated",
      "type": "event"
    },
    {
      "anonymous": false,
      "inputs": [
        {
          "indexed": true,
          "internalType": "address",
          "name": "previousOwner",
          "type": "address"
        },
        {
          "indexed": true,
          "internalType": "address",
          "name": "newOwner",
          "type": "address"
        }
      ],
      "name": "OwnershipTransferred",
      "type": "event"
    },
    {
      "anonymous": false,
      "inputs": [
        {
          "indexed": true,
          "internalType": "address",
          "name": "account",
          "type": "address"
        },
        {
          "indexed": true,
          "internalType": "uint256",
          "name": "round",
          "type": "uint256"
        },
        {
          "indexed": false,
          "internalType": "uint256",
          "name": "amount",
          "type": "uint256"
        }
      ],
      "name": "Redeem",
      "type": "event"
    },
    {
      "anonymous": false,
      "inputs": [
        {
          "indexed": true,
          "internalType": "address",
          "name": "from",
          "type": "address"
        },
        {
          "indexed": true,
          "internalType": "address",
          "name": "to",
          "type": "address"
        },
        {
          "indexed": false,
          "internalType": "uint256",
          "name": "value",
          "type": "uint256"
        }
      ],
      "name": "Transfer",
      "type": "event"
    },
    {
      "inputs": [],
      "name": "RATIOMULTIPLIER",
      "outputs": [
        {
          "internalType": "uint256",
          "name": "",
          "type": "uint256"
        }
      ],
      "stateMutability": "view",
      "type": "function"
    },
    {
      "inputs": [
        {
          "internalType": "address",
          "name": "owner",
          "type": "address"
        },
        {
          "internalType": "address",
          "name": "spender",
          "type": "address"
        }
      ],
      "name": "allowance",
      "outputs": [
        {
          "internalType": "uint256",
          "name": "",
          "type": "uint256"
        }
      ],
      "stateMutability": "view",
      "type": "function"
    },
    {
      "inputs": [
        {
          "internalType": "address",
          "name": "spender",
          "type": "address"
        },
        {
          "internalType": "uint256",
          "name": "amount",
          "type": "uint256"
        }
      ],
      "name": "approve",
      "outputs": [
        {
          "internalType": "bool",
          "name": "",
          "type": "bool"
        }
      ],
      "stateMutability": "nonpayable",
      "type": "function"
    },
    {
      "inputs": [
        {
          "internalType": "address",
          "name": "account",
          "type": "address"
        }
      ],
      "name": "balanceOf",
      "outputs": [
        {
          "internalType": "uint256",
          "name": "",
          "type": "uint256"
        }
      ],
      "stateMutability": "view",
      "type": "function"
    },
    {
      "inputs": [],
      "name": "callOrPut",
      "outputs": [
        {
          "internalType": "bool",
          "name": "",
          "type": "bool"
        }
      ],
      "stateMutability": "view",
      "type": "function"
    },
    {
      "inputs": [
        {
          "internalType": "uint256",
          "name": "_assetToTerminate",
          "type": "uint256"
        }
      ],
      "name": "cancelWithdraw",
      "outputs": [],
      "stateMutability": "nonpayable",
      "type": "function"
    },
    {
      "inputs": [
        {
          "internalType": "bool",
          "name": "_execute",
          "type": "bool"
        }
      ],
      "name": "closePrevious",
      "outputs": [],
      "stateMutability": "nonpayable",
      "type": "function"
    },
    {
      "inputs": [
        {
          "components": [
            {
              "internalType": "uint256",
              "name": "strikePrice",
              "type": "uint256"
            },
            {
              "internalType": "uint8",
              "name": "pricePrecision",
              "type": "uint8"
            },
            {
              "internalType": "uint16",
              "name": "premiumRate",
              "type": "uint16"
            }
          ],
          "internalType": "struct StructureData.OptionParameters",
          "name": "_optionParameters",
          "type": "tuple"
        }
      ],
      "name": "commitCurrent",
      "outputs": [],
      "stateMutability": "nonpayable",
      "type": "function"
    },
    {
      "inputs": [
        {
          "internalType": "uint256",
          "name": "_amount",
          "type": "uint256"
        },
        {
          "internalType": "address",
          "name": "_asset",
          "type": "address"
        }
      ],
      "name": "completeWithdraw",
      "outputs": [],
      "stateMutability": "nonpayable",
      "type": "function"
    },
    {
      "inputs": [],
      "name": "counterParty",
      "outputs": [
        {
          "internalType": "address",
          "name": "",
          "type": "address"
        }
      ],
      "stateMutability": "view",
      "type": "function"
    },
    {
      "inputs": [],
      "name": "counterPartyAsset",
      "outputs": [
        {
          "internalType": "address",
          "name": "",
          "type": "address"
        }
      ],
      "stateMutability": "view",
      "type": "function"
    },
    {
      "inputs": [],
      "name": "counterPartyOption",
      "outputs": [
        {
          "internalType": "contract IPKKTStructureOption",
          "name": "",
          "type": "address"
        }
      ],
      "stateMutability": "view",
      "type": "function"
    },
    {
      "inputs": [],
      "name": "currentRound",
      "outputs": [
        {
          "internalType": "uint256",
          "name": "",
          "type": "uint256"
        }
      ],
      "stateMutability": "view",
      "type": "function"
    },
    {
      "inputs": [],
      "name": "decimals",
      "outputs": [
        {
          "internalType": "uint8",
          "name": "",
          "type": "uint8"
        }
      ],
      "stateMutability": "view",
      "type": "function"
    },
    {
      "inputs": [
        {
          "internalType": "address",
          "name": "spender",
          "type": "address"
        },
        {
          "internalType": "uint256",
          "name": "subtractedValue",
          "type": "uint256"
        }
      ],
      "name": "decreaseAllowance",
      "outputs": [
        {
          "internalType": "bool",
          "name": "",
          "type": "bool"
        }
      ],
      "stateMutability": "nonpayable",
      "type": "function"
    },
    {
      "inputs": [
        {
          "internalType": "uint256",
          "name": "_amount",
          "type": "uint256"
        }
      ],
      "name": "deposit",
      "outputs": [],
      "stateMutability": "nonpayable",
      "type": "function"
    },
    {
      "inputs": [],
      "name": "depositAsset",
      "outputs": [
        {
          "internalType": "address",
          "name": "",
          "type": "address"
        }
      ],
      "stateMutability": "view",
      "type": "function"
    },
    {
      "inputs": [],
      "name": "depositETH",
      "outputs": [],
      "stateMutability": "payable",
      "type": "function"
    },
    {
      "inputs": [
        {
          "internalType": "address[]",
          "name": "addresses",
          "type": "address[]"
        },
        {
          "internalType": "uint256[]",
          "name": "_amounts",
          "type": "uint256[]"
        }
      ],
      "name": "depositFromCounterParty",
      "outputs": [],
      "stateMutability": "nonpayable",
      "type": "function"
    },
    {
      "inputs": [],
      "name": "getAvailable",
      "outputs": [
        {
          "components": [
            {
              "internalType": "uint256",
              "name": "pendingDepositAssetAmount",
              "type": "uint256"
            },
            {
              "internalType": "uint256",
              "name": "maturedDepositAssetAmount",
              "type": "uint256"
            },
            {
              "internalType": "uint256",
              "name": "maturedCounterPartyAssetAmount",
              "type": "uint256"
            }
          ],
          "internalType": "struct StructureData.Available",
          "name": "",
          "type": "tuple"
        }
      ],
      "stateMutability": "view",
      "type": "function"
    },
    {
      "inputs": [],
      "name": "getMatured",
      "outputs": [
        {
          "components": [
            {
              "internalType": "uint256",
              "name": "amount",
              "type": "uint256"
            },
            {
              "internalType": "address",
              "name": "asset",
              "type": "address"
            }
          ],
          "internalType": "struct StructureData.MaturedAmount[]",
          "name": "result",
          "type": "tuple[]"
        }
      ],
      "stateMutability": "view",
      "type": "function"
    },
    {
      "inputs": [
        {
          "internalType": "uint8",
          "name": "_backwardRound",
          "type": "uint8"
        }
      ],
      "name": "getOngoingAsset",
      "outputs": [
        {
          "internalType": "uint256",
          "name": "",
          "type": "uint256"
        }
      ],
      "stateMutability": "view",
      "type": "function"
    },
    {
      "inputs": [],
      "name": "getPendingAsset",
      "outputs": [
        {
          "internalType": "uint256",
          "name": "",
          "type": "uint256"
        }
      ],
      "stateMutability": "view",
      "type": "function"
    },
    {
      "inputs": [
        {
          "internalType": "uint256",
          "name": "_blockHeight",
          "type": "uint256"
        }
      ],
      "name": "getRoundData",
      "outputs": [
        {
          "components": [
            {
              "internalType": "uint256",
              "name": "round",
              "type": "uint256"
            },
            {
              "internalType": "uint256",
              "name": "totalAmount",
              "type": "uint256"
            },
            {
              "internalType": "uint256",
              "name": "strikePrice",
              "type": "uint256"
            },
            {
              "internalType": "uint16",
              "name": "premiumRate",
              "type": "uint16"
            },
            {
              "internalType": "uint8",
              "name": "pricePrecision",
              "type": "uint8"
            },
            {
              "internalType": "bool",
              "name": "executed",
              "type": "bool"
            },
            {
              "internalType": "bool",
              "name": "callOrPut",
              "type": "bool"
            }
          ],
          "internalType": "struct StructureData.OptionState",
          "name": "",
          "type": "tuple"
        }
      ],
      "stateMutability": "view",
      "type": "function"
    },
    {
      "inputs": [
        {
          "internalType": "address",
          "name": "spender",
          "type": "address"
        },
        {
          "internalType": "uint256",
          "name": "addedValue",
          "type": "uint256"
        }
      ],
      "name": "increaseAllowance",
      "outputs": [
        {
          "internalType": "bool",
          "name": "",
          "type": "bool"
        }
      ],
      "stateMutability": "nonpayable",
      "type": "function"
    },
    {
      "inputs": [
        {
          "internalType": "string",
          "name": "name",
          "type": "string"
        },
        {
          "internalType": "string",
          "name": "symbol",
          "type": "string"
        },
        {
          "internalType": "address",
          "name": "_underlying",
          "type": "address"
        },
        {
          "internalType": "address",
          "name": "_stableCoin",
          "type": "address"
        },
        {
          "internalType": "uint8",
          "name": "_underlyingDecimals",
          "type": "uint8"
        },
        {
          "internalType": "uint8",
          "name": "_stableCoinDecimals",
          "type": "uint8"
        },
        {
          "internalType": "address",
          "name": "_vaultAddress",
          "type": "address"
        }
      ],
      "name": "initialize",
      "outputs": [],
      "stateMutability": "nonpayable",
      "type": "function"
    },
    {
      "inputs": [
        {
          "internalType": "uint256",
          "name": "_assetToTerminate",
          "type": "uint256"
        }
      ],
      "name": "initiateWithraw",
      "outputs": [],
      "stateMutability": "nonpayable",
      "type": "function"
    },
    {
      "inputs": [],
      "name": "isEth",
      "outputs": [
        {
          "internalType": "bool",
          "name": "",
          "type": "bool"
        }
      ],
      "stateMutability": "view",
      "type": "function"
    },
    {
      "inputs": [],
      "name": "maxCancelWithdraw",
      "outputs": [],
      "stateMutability": "nonpayable",
      "type": "function"
    },
    {
      "inputs": [],
      "name": "maxInitiateWithdraw",
      "outputs": [],
      "stateMutability": "nonpayable",
      "type": "function"
    },
    {
      "inputs": [],
      "name": "name",
      "outputs": [
        {
          "internalType": "string",
          "name": "",
          "type": "string"
        }
      ],
      "stateMutability": "view",
      "type": "function"
    },
    {
      "inputs": [
        {
          "internalType": "uint256",
          "name": "",
          "type": "uint256"
        }
      ],
      "name": "optionHeights",
      "outputs": [
        {
          "internalType": "uint256",
          "name": "",
          "type": "uint256"
        }
      ],
      "stateMutability": "view",
      "type": "function"
    },
    {
      "inputs": [
        {
          "internalType": "uint256",
          "name": "",
          "type": "uint256"
        }
      ],
      "name": "optionStates",
      "outputs": [
        {
          "internalType": "uint256",
          "name": "round",
          "type": "uint256"
        },
        {
          "internalType": "uint256",
          "name": "totalAmount",
          "type": "uint256"
        },
        {
          "internalType": "uint256",
          "name": "strikePrice",
          "type": "uint256"
        },
        {
          "internalType": "uint16",
          "name": "premiumRate",
          "type": "uint16"
        },
        {
          "internalType": "uint8",
          "name": "pricePrecision",
          "type": "uint8"
        },
        {
          "internalType": "bool",
          "name": "executed",
          "type": "bool"
        },
        {
          "internalType": "bool",
          "name": "callOrPut",
          "type": "bool"
        }
      ],
      "stateMutability": "view",
      "type": "function"
    },
    {
      "inputs": [],
      "name": "optionVault",
      "outputs": [
        {
          "internalType": "contract IOptionVault",
          "name": "",
          "type": "address"
        }
      ],
      "stateMutability": "view",
      "type": "function"
    },
    {
      "inputs": [],
      "name": "owner",
      "outputs": [
        {
          "internalType": "address",
          "name": "",
          "type": "address"
        }
      ],
      "stateMutability": "view",
      "type": "function"
    },
    {
      "inputs": [
        {
          "internalType": "uint256",
          "name": "_amount",
          "type": "uint256"
        }
      ],
      "name": "redeem",
      "outputs": [],
      "stateMutability": "nonpayable",
      "type": "function"
    },
    {
      "inputs": [
        {
          "internalType": "uint256",
          "name": "_amount",
          "type": "uint256"
        }
      ],
      "name": "redeposit",
      "outputs": [],
      "stateMutability": "nonpayable",
      "type": "function"
    },
    {
      "inputs": [
        {
          "internalType": "uint256",
          "name": "_amount",
          "type": "uint256"
        }
      ],
      "name": "redepositToCounterParty",
      "outputs": [],
      "stateMutability": "nonpayable",
      "type": "function"
    },
    {
      "inputs": [],
      "name": "renounceOwnership",
      "outputs": [],
      "stateMutability": "nonpayable",
      "type": "function"
    },
    {
      "inputs": [
        {
          "internalType": "uint256",
          "name": "_quota",
          "type": "uint256"
        }
      ],
      "name": "rollToNext",
      "outputs": [],
      "stateMutability": "nonpayable",
      "type": "function"
    },
    {
      "inputs": [
        {
          "internalType": "address",
          "name": "_counterParty",
          "type": "address"
        }
      ],
      "name": "setCounterPartyOption",
      "outputs": [],
      "stateMutability": "nonpayable",
      "type": "function"
    },
    {
      "inputs": [],
      "name": "symbol",
      "outputs": [
        {
          "internalType": "string",
          "name": "",
          "type": "string"
        }
      ],
      "stateMutability": "view",
      "type": "function"
    },
    {
      "inputs": [],
      "name": "totalSupply",
      "outputs": [
        {
          "internalType": "uint256",
          "name": "",
          "type": "uint256"
        }
      ],
      "stateMutability": "view",
      "type": "function"
    },
    {
      "inputs": [
        {
          "internalType": "address",
          "name": "recipient",
          "type": "address"
        },
        {
          "internalType": "uint256",
          "name": "amount",
          "type": "uint256"
        }
      ],
      "name": "transfer",
      "outputs": [
        {
          "internalType": "bool",
          "name": "",
          "type": "bool"
        }
      ],
      "stateMutability": "nonpayable",
      "type": "function"
    },
    {
      "inputs": [
        {
          "internalType": "address",
          "name": "sender",
          "type": "address"
        },
        {
          "internalType": "address",
          "name": "recipient",
          "type": "address"
        },
        {
          "internalType": "uint256",
          "name": "amount",
          "type": "uint256"
        }
      ],
      "name": "transferFrom",
      "outputs": [
        {
          "internalType": "bool",
          "name": "",
          "type": "bool"
        }
      ],
      "stateMutability": "nonpayable",
      "type": "function"
    },
    {
      "inputs": [
        {
          "internalType": "address",
          "name": "newOwner",
          "type": "address"
        }
      ],
      "name": "transferOwnership",
      "outputs": [],
      "stateMutability": "nonpayable",
      "type": "function"
    },
    {
      "inputs": [],
      "name": "underSettlement",
      "outputs": [
        {
          "internalType": "bool",
          "name": "",
          "type": "bool"
        }
      ],
      "stateMutability": "view",
      "type": "function"
    },
    {
      "inputs": [
        {
          "internalType": "address",
          "name": "",
          "type": "address"
        }
      ],
      "name": "userStates",
      "outputs": [
        {
          "internalType": "uint256",
          "name": "pendingAsset",
          "type": "uint256"
        },
        {
          "internalType": "uint8",
          "name": "nextCursor",
          "type": "uint8"
        },
        {
          "internalType": "uint232",
          "name": "totalRound",
          "type": "uint232"
        },
        {
          "internalType": "bool",
          "name": "hasState",
          "type": "bool"
        },
        {
          "internalType": "uint256",
          "name": "assetToTerminate",
          "type": "uint256"
        }
      ],
      "stateMutability": "view",
      "type": "function"
    },
    {
      "inputs": [
        {
          "internalType": "uint256",
          "name": "",
          "type": "uint256"
        }
      ],
      "name": "usersInvolved",
      "outputs": [
        {
          "internalType": "address",
          "name": "",
          "type": "address"
        }
      ],
      "stateMutability": "view",
      "type": "function"
    },
    {
      "inputs": [],
      "name": "vaultAddress",
      "outputs": [
        {
          "internalType": "address",
          "name": "",
          "type": "address"
        }
      ],
      "stateMutability": "view",
      "type": "function"
    },
    {
      "inputs": [
        {
          "internalType": "uint256",
          "name": "_amount",
          "type": "uint256"
        },
        {
          "internalType": "address",
          "name": "_asset",
          "type": "address"
        }
      ],
      "name": "withdraw",
      "outputs": [],
      "stateMutability": "nonpayable",
      "type": "function"
    }
  ],
  "transactionHash": "0x19c7b34f1ce718fb5ab485cb71458917a29e3ba17d0465d605a85652c0cb365a",
  "args": [],
  "solcInputHash": "4d2c6237ebe94dca0108617d0ed0ec32",
  "bytecode": "0x608060405234801561001057600080fd5b5061457f806100206000396000f3fe6080604052600436106102e35760003560e01c806370a0823111610190578063a9059cbb116100dc578063dd62ed3e11610095578063eef9f5a51161006f578063eef9f5a514610b20578063f2fde38b14610b46578063f6326fb314610b66578063f9cc060514610b6e57600080fd5b8063dd62ed3e14610a98578063e040661814610ade578063e5d455ce14610b0057600080fd5b8063a9059cbb146109d2578063b6b55f25146109f2578063bb9662c814610a12578063c515d7e714610a32578063ccc41f2414610a52578063db006a7514610a7857600080fd5b806390202539116101495780639f01f7ba116101235780639f01f7ba14610945578063a2589ef914610965578063a457c2d714610985578063a5d3e5b1146109a557600080fd5b806390202539146108f157806395d89b41146109105780639e4cbd7d1461092557600080fd5b806370a082311461083c578063715018a61461087257806376e7a478146108875780638a19c8bc1461089d5780638cd89359146108b35780638da5cb5b146108d357600080fd5b80631de245af1161024f578063430bf08a116102085780635973ff3a116101e25780635973ff3a1461073c578063640575721461075c578063652354741461077157806370349bfb1461081757600080fd5b8063430bf08a146106e65780634601c2a6146106fb578063511db1141461071b57600080fd5b80631de245af1461062457806321c9445c1461064457806323b872dd146106645780632c453bdf14610684578063313ce567146106a457806339509351146106c657600080fd5b80630ecc535f116102a15780630ecc535f146104d857806311c8556d1461056b578063140e5609146105a3578063161f50b0146105cf57806318160ddd146105ef578063186a4a171461060457600080fd5b8062f714ce146102e857806306fdde031461030a5780630720da52146103355780630748248f1461046e578063095ea7b3146104985780630e777b4b146104b8575b600080fd5b3480156102f457600080fd5b50610308610303366004613eac565b610ba5565b005b34801561031657600080fd5b5061031f610e09565b60405161032c9190613fd4565b60405180910390f35b34801561034157600080fd5b5061040d610350366004613e94565b6040805160e081018252600080825260208201819052918101829052606081018290526080810182905260a0810182905260c0810191909152506000908152609b60209081526040808320548352609c825291829020825160e0810184528154815260018201549281019290925260028101549282019290925260039091015461ffff8116606083015260ff62010000820481166080840152630100000082048116151560a084015264010000000090910416151560c082015290565b60405161032c9190600060e08201905082518252602083015160208301526040830151604083015261ffff606084015116606083015260ff608084015116608083015260a0830151151560a083015260c0830151151560c083015292915050565b34801561047a57600080fd5b50609f546104889060ff1681565b604051901515815260200161032c565b3480156104a457600080fd5b506104886104b3366004613c46565b610e9b565b3480156104c457600080fd5b506103086104d3366004613e94565b610eb2565b3480156104e457600080fd5b506105336104f3366004613b96565b609e60205260009081526040902080546002820154600390920154909160ff808216926001600160e81b0361010084041692600160f01b90049091169085565b6040805195865260ff90941660208601526001600160e81b03909216928401929092529015156060830152608082015260a00161032c565b34801561057757600080fd5b5060a15461058b906001600160a01b031681565b6040516001600160a01b03909116815260200161032c565b3480156105af57600080fd5b50336000908152609e60205260409020545b60405190815260200161032c565b3480156105db57600080fd5b506103086105ea366004613e28565b610f52565b3480156105fb57600080fd5b506035546105c1565b34801561061057600080fd5b5061030861061f366004613d34565b6111f7565b34801561063057600080fd5b5061058b61063f366004613e94565b6113ea565b34801561065057600080fd5b5061030861065f366004613eac565b611414565b34801561067057600080fd5b5061048861067f366004613c06565b611538565b34801561069057600080fd5b5060a05461058b906001600160a01b031681565b3480156106b057600080fd5b5060975460405160ff909116815260200161032c565b3480156106d257600080fd5b506104886106e1366004613c46565b6115e4565b3480156106f257600080fd5b5061058b611620565b34801561070757600080fd5b506105c1610716366004613ed0565b6116a2565b34801561072757600080fd5b5060985461048890600160a01b900460ff1681565b34801561074857600080fd5b50610308610757366004613c71565b6116bb565b34801561076857600080fd5b50610308611734565b34801561077d57600080fd5b506107d861078c366004613e94565b609c6020526000908152604090208054600182015460028301546003909301549192909161ffff81169060ff620100008204811691630100000081048216916401000000009091041687565b6040805197885260208801969096529486019390935261ffff909116606085015260ff166080840152151560a0830152151560c082015260e00161032c565b34801561082357600080fd5b50610308336000908152609e6020526040812060030155565b34801561084857600080fd5b506105c1610857366004613b96565b6001600160a01b031660009081526033602052604090205490565b34801561087e57600080fd5b5061030861175a565b34801561089357600080fd5b506105c161271081565b3480156108a957600080fd5b506105c1609a5481565b3480156108bf57600080fd5b506103086108ce366004613e94565b611790565b3480156108df57600080fd5b506065546001600160a01b031661058b565b3480156108fd57600080fd5b50609f5461048890610100900460ff1681565b34801561091c57600080fd5b5061031f6118cd565b34801561093157600080fd5b50610308610940366004613e94565b6118dc565b34801561095157600080fd5b50610308610960366004613e94565b611ab1565b34801561097157600080fd5b50610308610980366004613e94565b611b41565b34801561099157600080fd5b506104886109a0366004613c46565b611bfd565b3480156109b157600080fd5b506105c16109c0366004613e94565b609b6020526000908152604090205481565b3480156109de57600080fd5b506104886109ed366004613c46565b611c96565b3480156109fe57600080fd5b50610308610a0d366004613e94565b611ca3565b348015610a1e57600080fd5b5060985461058b906001600160a01b031681565b348015610a3e57600080fd5b50610308610a4d366004613b96565b611d96565b348015610a5e57600080fd5b5060975461058b906201000090046001600160a01b031681565b348015610a8457600080fd5b50610308610a93366004613e94565b611e2a565b348015610aa457600080fd5b506105c1610ab3366004613bce565b6001600160a01b03918216600090815260346020908152604080832093909416825291909152205490565b348015610aea57600080fd5b50610af3611f8f565b60405161032c9190613f7c565b348015610b0c57600080fd5b50610308610b1b366004613d6c565b612207565b348015610b2c57600080fd5b50609f5461058b906201000090046001600160a01b031681565b348015610b5257600080fd5b50610308610b61366004613b96565b61228a565b610308612322565b348015610b7a57600080fd5b50610b83612447565b604080518251815260208084015190820152918101519082015260600161032c565b60008211610bce5760405162461bcd60e51b8152600401610bc590614101565b60405180910390fd5b609f5460ff1615610bf15760405162461bcd60e51b8152600401610bc590614032565b6097546001600160a01b0382811662010000909204161480610c2057506098546001600160a01b038281169116145b610c645760405162461bcd60e51b8152602060048201526015602482015274496e76616c6964206173736574206164647265737360581b6044820152606401610bc5565b6097546001600160a01b0382811662010000909204161415610d4d5733600090815260a26020526040902054828111610d2c57336000908152609e60205260409020610cb084836124ae565b81541015610cd05760405162461bcd60e51b8152600401610bc590614007565b33600090815260a26020526040812055610cf5610ced85846124ae565b8254906124ae565b8155609a546000908152609c60205260409020610d20610d1586856124ae565b6001830154906124ae565b60019091015550610d47565b610d3681846124ae565b33600090815260a260205260409020555b50610d99565b33600090815260a3602052604090205482811015610d7d5760405162461bcd60e51b8152600401610bc590614122565b610d8781846124ae565b33600090815260a36020526040902055505b60a154604051631a4ca37b60e21b8152336004820152602481018490526001600160a01b038381166044830152909116906369328dec90606401600060405180830381600087803b158015610ded57600080fd5b505af1158015610e01573d6000803e3d6000fd5b505050505050565b606060368054610e18906144a4565b80601f0160208091040260200160405190810160405280929190818152602001828054610e44906144a4565b8015610e915780601f10610e6657610100808354040283529160200191610e91565b820191906000526020600020905b815481529060010190602001808311610e7457829003601f168201915b5050505050905090565b6000610ea83384846124ba565b5060015b92915050565b60008111610ef75760405162461bcd60e51b8152602060048201526012602482015271215f6173736574546f5465726d696e61746560701b6044820152606401610bc5565b336000908152609e602052604081206003810154909190610f1890846125d6565b90506000610f2683826125e2565b905080821115610f485760405162461bcd60e51b8152600401610bc590614007565b5060039091015550565b6065546001600160a01b03163314610f7c5760405162461bcd60e51b8152600401610bc5906140cc565b6001609a5411158015610f925750609f5460ff16155b15610fa557609f805460ff191660011790555b609f5460ff16610feb5760405162461bcd60e51b8152602060048201526011602482015270139bdd0818995a5b99c81cd95d1d1b1959607a1b6044820152606401610bc5565b6000609a5411610ff85750565b609a5460011015611052576000609c6000600160ff16609a5461101b919061443e565b81526020019081526020016000209050600081600101541115611050576003810154611050906301000000900460ff16612689565b505b609a546000908152609c60205260409081902060a15460975460985493516307653fb360e01b815292936001600160a01b03928316936307653fb3936110a99387936201000090910482169291169060040161414c565b600060405180830381600087803b1580156110c357600080fd5b505af11580156110d7573d6000803e3d6000fd5b50508351600284015550506040820151600382018054602085015160ff16620100000262ffffff1990911661ffff909316929092179190911790556001810154611122903090612b91565b609d5460005b818110156111b5576000609d828154811061115357634e487b7160e01b600052603260045260246000fd5b60009182526020808320909101546001600160a01b0316808352609e9091526040909120805491925090156111915761119130838360000154612c70565b805461119e908290612e40565b6000905550806111ad816144df565b915050611128565b50609a54436000908152609b6020526040808220839055517ffa513f17b83baf0c2da337ab931a96429f75c55f0ee2115b7acd007a1a35dd519190a250505b50565b6065546001600160a01b031633146112215760405162461bcd60e51b8152600401610bc5906140cc565b609f5460ff16156112445760405162461bcd60e51b8152600401610bc590614032565b609f805460ff19166001179055609a5461125b5750565b609a546001106112685750565b609a5460009061127a9060019061443e565b6000818152609c60209081526040808320815160e08101835281548152600182015493810193909352600281015491830191909152600381015461ffff8116606084015260ff62010000820481166080850152630100000082048116151560a085015264010000000090910416151560c08301529293506112fc908590612ef5565b60a1546097546098546040805163193ef4d360e01b815285516004820152602086015160248201529085015115156044820152606085015160648201526001600160a01b03620100009093048316608482015290821660a4820152929350169063193ef4d39060c401600060405180830381600087803b15801561137f57600080fd5b505af1158015611393573d6000803e3d6000fd5b50505060408083015160038501805491151563010000000263ff00000019909216919091179055518491507f5fd55b58a9ef8c29a9db39dd9a05dec64993eb227ad0177941238778e9ea896290600090a250505050565b609d81815481106113fa57600080fd5b6000918252602090912001546001600160a01b0316905081565b600082116114345760405162461bcd60e51b8152600401610bc590614101565b609f5460ff16156114575760405162461bcd60e51b8152600401610bc590614032565b6001609a54116114795760405162461bcd60e51b8152600401610bc5906140a7565b6097546001600160a01b03828116620100009092041614806114a857506098546001600160a01b038281169116145b6114ec5760405162461bcd60e51b8152602060048201526015602482015274496e76616c6964206173736574206164647265737360581b6044820152606401610bc5565b6097546001600160a01b0382811662010000909204161415610d4d5733600090815260a2602052604090205482811015610d2c5760405162461bcd60e51b8152600401610bc590614122565b6000611545848484612c70565b6001600160a01b0384166000908152603460209081526040808320338452909152902054828110156115ca5760405162461bcd60e51b815260206004820152602860248201527f45524332303a207472616e7366657220616d6f756e74206578636565647320616044820152676c6c6f77616e636560c01b6064820152608401610bc5565b6115d785338584036124ba565b60019150505b9392505050565b3360008181526034602090815260408083206001600160a01b03871684529091528120549091610ea891859061161b908690614293565b6124ba565b60a154604080516338cc483160e01b815290516000926001600160a01b0316916338cc4831916004808301926020929190829003018186803b15801561166557600080fd5b505afa158015611679573d6000803e3d6000fd5b505050506040513d601f19601f8201168201806040525081019061169d9190613bb2565b905090565b336000908152609e602052604081206115dd81846125e2565b60a0546001600160a01b0316331461172b5760405162461bcd60e51b815260206004820152602d60248201527f4f6e6c7920636f756e7465727061727479206f7074696f6e2063616e2063616c60448201526c1b081d1a1a5cc81b595d1a1bd9609a1b6064820152608401610bc5565b5050565b505050565b336000908152609e602052604081209061174e82826125e2565b60039092019190915550565b6065546001600160a01b031633146117845760405162461bcd60e51b8152600401610bc5906140cc565b61178e60006132b9565b565b6065546001600160a01b031633146117ba5760405162461bcd60e51b8152600401610bc5906140cc565b609a546117c8906001614293565b609a81815560998390556040805160e08101825283815260006020808301828152838501838152606085018481526080860185815260a08701868152609f8054610100900460ff908116151560c08b019081529c8952609c909752898820895181559551600187015593516002860155915160039094018054915192519a5115156401000000000264ff00000000199b15156301000000029b909b1664ffff0000001993909616620100000262ffffff1990921661ffff959095169490941717169290921796909617909555845460ff191690945591549051919290917f10f419fb017d3101d854d4433e414ff27f232bb2f4aae83d987ad0219efa6c9b9190a25050565b606060378054610e18906144a4565b609f5460ff16156118ff5760405162461bcd60e51b8152600401610bc590614032565b6001609a54116119215760405162461bcd60e51b8152600401610bc5906140a7565b600081116119415760405162461bcd60e51b8152600401610bc590614101565b33600090815260a36020526040902054818110156119715760405162461bcd60e51b8152600401610bc590614122565b61197b81836124ae565b33600090815260a3602052604080822092909255815160018082528184019093529091816020016020820280368337505060408051600180825281830190925292935060009291506020808301908036833701905050905033826000815181106119f557634e487b7160e01b600052603260045260246000fd5b60200260200101906001600160a01b031690816001600160a01b0316815250508381600081518110611a3757634e487b7160e01b600052603260045260246000fd5b6020908102919091010152609f54604051632cb9ff9d60e11b8152620100009091046001600160a01b031690635973ff3a90611a799085908590600401613f06565b600060405180830381600087803b158015611a9357600080fd5b505af1158015611aa7573d6000803e3d6000fd5b5050505050505050565b60008111611af65760405162461bcd60e51b8152602060048201526012602482015271215f6173736574546f5465726d696e61746560701b6044820152606401610bc5565b336000908152609e602052604090206003810154821115611b295760405162461bcd60e51b8152600401610bc590614122565b6003810154611b3890836124ae565b60039091015550565b609f5460ff1615611b645760405162461bcd60e51b8152600401610bc590614032565b6001609a5411611b865760405162461bcd60e51b8152600401610bc5906140a7565b60008111611ba65760405162461bcd60e51b8152600401610bc590614101565b33600090815260a2602052604090205481811015611bd65760405162461bcd60e51b8152600401610bc590614122565b611be081836124ae565b33600081815260a2602052604090209190915561172b9083613167565b3360009081526034602090815260408083206001600160a01b038616845290915281205482811015611c7f5760405162461bcd60e51b815260206004820152602560248201527f45524332303a2064656372656173656420616c6c6f77616e63652062656c6f77604482015264207a65726f60d81b6064820152608401610bc5565b611c8c33858584036124ba565b5060019392505050565b6000610ea8338484612c70565b609f5460ff1615611cc65760405162461bcd60e51b8152600401610bc590614032565b6000609a5411611d035760405162461bcd60e51b81526020600482015260086024820152670854dd185c9d195960c21b6044820152606401610bc5565b609854600160a01b900460ff1615611d465760405162461bcd60e51b815260206004820152600660248201526502145524332360d41b6044820152606401610bc5565b60008111611d665760405162461bcd60e51b8152600401610bc590614101565b611d703382613167565b6111f433611d7c611620565b6097546201000090046001600160a01b031691908461330b565b6001600160a01b038116301415611def5760405162461bcd60e51b815260206004820181905260248201527f43616e6e6f74207365742073656c6620617320636f756e7465722070617274796044820152606401610bc5565b609f805462010000600160b01b031916620100006001600160a01b039390931692830217905560a080546001600160a01b0319169091179055565b609f5460ff1615611e4d5760405162461bcd60e51b8152600401610bc590614032565b60008111611e6d5760405162461bcd60e51b8152600401610bc590614101565b336000908152609e602052604090208054821115611e9d5760405162461bcd60e51b8152600401610bc590614007565b8054611ea990836124ae565b8155609a546000908152609c602052604090206001810154611ecb90846124ae565b600182015560a154609754604051631a4ca37b60e21b8152336004820152602481018690526001600160a01b0362010000909204821660448201529116906369328dec90606401600060405180830381600087803b158015611f2c57600080fd5b505af1158015611f40573d6000803e3d6000fd5b50505050609a54336001600160a01b03167fe5b754fb1abb7f01b499791d0b820ae3b6af3424ac1c59768edb53f4ec31a92985604051611f8291815260200190565b60405180910390a3505050565b33600090815260a2602090815260408083205460a3909252909120546060919081158015611fbb575080155b15612005576040805160008082526020820190925290611ffd565b6040805180820190915260008082526020820152815260200190600190039081611fd65790505b509250505090565b816120985760408051600180825281830190925290816020015b604080518082019091526000808252602082015281526020019060019003908161201f575050604080518082019091528281526098546001600160a01b03166020820152815191945090849060009061208857634e487b7160e01b600052603260045260246000fd5b6020026020010181905250505090565b806121225760408051600180825281830190925290816020015b60408051808201909152600080825260208201528152602001906001900390816120b257905050604080518082019091528381526097546201000090046001600160a01b03166020820152815191945090849060009061208857634e487b7160e01b600052603260045260246000fd5b6040805160028082526060820190925290816020015b604080518082019091526000808252602082015281526020019060019003908161213857905050604080518082019091528381526097546201000090046001600160a01b0316602082015281519194509084906000906121a857634e487b7160e01b600052603260045260246000fd5b60200260200101819052506040518060400160405280828152602001609860009054906101000a90046001600160a01b03166001600160a01b03168152508360018151811061208857634e487b7160e01b600052603260045260246000fd5b600054610100900460ff1680612220575060005460ff16155b61223c5760405162461bcd60e51b8152600401610bc590614059565b600054610100900460ff1615801561225e576000805461ffff19166101011790555b61226f888888888888886001613365565b8015611aa7576000805461ff00191690555050505050505050565b6065546001600160a01b031633146122b45760405162461bcd60e51b8152600401610bc5906140cc565b6001600160a01b0381166123195760405162461bcd60e51b815260206004820152602660248201527f4f776e61626c653a206e6577206f776e657220697320746865207a65726f206160448201526564647265737360d01b6064820152608401610bc5565b6111f4816132b9565b609f5460ff16156123455760405162461bcd60e51b8152600401610bc590614032565b6000609a54116123825760405162461bcd60e51b81526020600482015260086024820152670854dd185c9d195960c21b6044820152606401610bc5565b609854600160a01b900460ff166123c45760405162461bcd60e51b8152600401610bc5906020808252600490820152630428aa8960e31b604082015260600190565b600034116123fd5760405162461bcd60e51b81526020600482015260066024820152652176616c756560d01b6044820152606401610bc5565b6124073334613167565b61240f611620565b6001600160a01b03166108fc349081150290604051600060405180830381858888f193505050501580156111f4573d6000803e3d6000fd5b61246b60405180606001604052806000815260200160008152602001600081525090565b5060408051606081018252336000818152609e602090815284822054845282825260a28152848220548185015291815260a3909152829020549181019190915290565b60006115dd828461443e565b6001600160a01b03831661251c5760405162461bcd60e51b8152602060048201526024808201527f45524332303a20617070726f76652066726f6d20746865207a65726f206164646044820152637265737360e01b6064820152608401610bc5565b6001600160a01b03821661257d5760405162461bcd60e51b815260206004820152602260248201527f45524332303a20617070726f766520746f20746865207a65726f206164647265604482015261737360f01b6064820152608401610bc5565b6001600160a01b0383811660008181526034602090815260408083209487168084529482529182902085905590518481527f8c5be1e5ebec7d5bd14f71427d1e84f3dd0314c0f7b2291e5b200ac8c7c3b9259101611f82565b60006115dd8284614293565b600282015460009060ff83166101009091046001600160e81b03161161260a57506000610eac565b600160ff83161061261a57600080fd5b600283015460009060019061263390859060ff166143fd565b61263d91906143fd565b905060008160000b121561265957612656600182614228565b90505b836001018160ff166001811061267f57634e487b7160e01b600052603260045260246000fd5b0154949350505050565b609d54816127c25760005b8181101561172f576000609d82815481106126bf57634e487b7160e01b600052603260045260246000fd5b60009182526020808320909101546001600160a01b0316808352609e8252604080842060a490935290922054919250908061270357506000600390910155506127b0565b60006127278284600301546127226000876125e290919063ffffffff16565b613508565b9050801561276c576001600160a01b038416600090815260a2602052604090205461275290826125d6565b6001600160a01b038516600090815260a260205260409020555b600061277883836124ae565b9050801561278a5761278a8584613167565b5050506001600160a01b03909116600090815260a4602052604081208190556003909101555b806127ba816144df565b915050612694565b60005b8181101561295d576000609d82815481106127f057634e487b7160e01b600052603260045260246000fd5b60009182526020808320909101546001600160a01b0316808352609e8252604080842060a5909352909220549192509080612834575060006003909101555061294b565b60006128538284600301546127226000876125e290919063ffffffff16565b90508015612898576001600160a01b038416600090815260a3602052604090205461287e90826125d6565b6001600160a01b038516600090815260a360205260409020555b60006128a483836124ae565b905080156129255760a7805460018082019092557fb68792697ed876af8b4858b316f5b54d81f6861191ad2950c1fde6c3dc7b3dea0182905560a6805491820181556000527f2da56674729343acc9933752c8c469a244252915242eb6d4c02d11ddd69164a10180546001600160a01b0319166001600160a01b0387161790555b5050506001600160a01b03909116600090815260a5602052604081208190556003909101555b80612955816144df565b9150506127c5565b5060a7548061296b57505050565b60008167ffffffffffffffff81111561299457634e487b7160e01b600052604160045260246000fd5b6040519080825280602002602001820160405280156129bd578160200160208202803683370190505b50905060008267ffffffffffffffff8111156129e957634e487b7160e01b600052604160045260246000fd5b604051908082528060200260200182016040528015612a12578160200160208202803683370190505b50905060005b83811015612b085760a68181548110612a4157634e487b7160e01b600052603260045260246000fd5b9060005260206000200160009054906101000a90046001600160a01b0316838281518110612a7f57634e487b7160e01b600052603260045260246000fd5b60200260200101906001600160a01b031690816001600160a01b03168152505060a78181548110612ac057634e487b7160e01b600052603260045260246000fd5b9060005260206000200154828281518110612aeb57634e487b7160e01b600052603260045260246000fd5b602090810291909101015280612b00816144df565b915050612a18565b50612b1560a660006139ef565b612b2160a760006139ef565b609f54604051632cb9ff9d60e11b8152620100009091046001600160a01b031690635973ff3a90612b589085908590600401613f06565b600060405180830381600087803b158015612b7257600080fd5b505af1158015612b86573d6000803e3d6000fd5b505050505050505050565b6001600160a01b038216612be75760405162461bcd60e51b815260206004820152601f60248201527f45524332303a206d696e7420746f20746865207a65726f2061646472657373006044820152606401610bc5565b8060356000828254612bf99190614293565b90915550506001600160a01b03821660009081526033602052604081208054839290612c26908490614293565b90915550506040518181526001600160a01b038316906000907fddf252ad1be2c89b69c2b068fc378daa952ba7f163c4a11628f55a4df523b3ef9060200160405180910390a35050565b6001600160a01b038316612cd45760405162461bcd60e51b815260206004820152602560248201527f45524332303a207472616e736665722066726f6d20746865207a65726f206164604482015264647265737360d81b6064820152608401610bc5565b6001600160a01b038216612d365760405162461bcd60e51b815260206004820152602360248201527f45524332303a207472616e7366657220746f20746865207a65726f206164647260448201526265737360e81b6064820152608401610bc5565b6001600160a01b03831660009081526033602052604090205481811015612dae5760405162461bcd60e51b815260206004820152602660248201527f45524332303a207472616e7366657220616d6f756e7420657863656564732062604482015265616c616e636560d01b6064820152608401610bc5565b6001600160a01b03808516600090815260336020526040808220858503905591851681529081208054849290612de5908490614293565b92505081905550826001600160a01b0316846001600160a01b03167fddf252ad1be2c89b69c2b068fc378daa952ba7f163c4a11628f55a4df523b3ef84604051612e3191815260200190565b60405180910390a35b50505050565b600282015460ff168160018085019083908110612e6d57634e487b7160e01b600052603260045260246000fd5b01556000612e7c600180614455565b60ff168214612e9557612e90826001614293565b612e98565b60005b60028501805460ff191660ff83161790819055909150612ec79061010090046001600160e81b03166001614268565b8460020160016101000a8154816001600160e81b0302191690836001600160e81b0316021790555050505050565b612f2260405180608001604052806000815260200160008152602001600015158152602001600081525090565b6000604051806080016040528060008152602001600081526020018515158152602001846000015181525090506000612f6e846060015161ffff166127106125d690919063ffffffff16565b90508415612ff1576097546080850151612fe791612f919160ff909116906142ab565b612f9c90600a614333565b609754612fe190612710908290612fbc90610100900460ff16600a614333565b612fdb87612fdb8c604001518d6020015161353c90919063ffffffff16565b9061353c565b90613548565b6020830152613011565b61300e612710612fe183876020015161353c90919063ffffffff16565b82525b609d5460005b8181101561315c576000609d828154811061304257634e487b7160e01b600052603260045260246000fd5b60009182526020808320909101546001600160a01b0316808352609e909152604082209092509061307e613077600180614455565b83906125e2565b9050806130b15750506001600160a01b0316600090815260a46020908152604080832083905560a590915281205561314a565b89156131055760006130d88a60200151612fe1848b6020015161353c90919063ffffffff16565b6001600160a01b038516600090815260a5602090815260408083209390935560a490529081205550613146565b6020890151875160009161311d91612fe1908561353c565b6001600160a01b038516600090815260a4602090815260408083209390935560a5905290812055505b5050505b80613154816144df565b915050613017565b509195945050505050565b609a546000908152609c60205260409020609954600182015461318a90846125d6565b11156131cb5760405162461bcd60e51b815260206004820152601060248201526f4e6f7420656e6f7567682071756f746160801b6044820152606401610bc5565b6001600160a01b0383166000908152609e602052604090206002810154600160f01b900460ff166132595760028101805460ff60f01b1916600160f01b179055609d80546001810182556000919091527fd26e832454299e9fabb89e0e5fffdc046d4e14431bc1bf607ffb2e8a1ddecf7b0180546001600160a01b0386166001600160a01b03199091161790555b805461326590846125d6565b8155600182015461327690846125d6565b6001830155609a546040518481526001600160a01b038616907f90890809c654f11d6e72a28fa60149770a0d11ec6c92319d6ceb2bb0a4ea1a1590602001612e31565b606580546001600160a01b038381166001600160a01b0319831681179093556040519116919082907f8be0079c531659141344cd1fd0a4f28419497f9722a3daafe3b4186f6b6457e090600090a35050565b604080516001600160a01b0385811660248301528416604482015260648082018490528251808303909101815260849091019091526020810180516001600160e01b03166323b872dd60e01b179052612e3a908590613554565b600054610100900460ff168061337e575060005460ff16155b61339a5760405162461bcd60e51b8152600401610bc590614059565b600054610100900460ff161580156133bc576000805461ffff19166101011790555b6001600160a01b0383166134085760405162461bcd60e51b8152602060048201526013602482015272456d707479207661756c74206164647265737360681b6044820152606401610bc5565b6134128989613626565b61341a6136a5565b60978054609880546001600160a01b038a81166001600160a81b0319909216919091178b82168015600160a01b029190911790925560ff8981166001600160b01b03199094166201000090930261ffff1916929092179290921761010091881682021790925560a180546001600160a01b031916918616919091179055609f805461ff0019168415159092029190911790556040516134ba908a90613eea565b6040519081900381209030907f8f61f0def895309a310dec5facf78f589cf18d834f0ba4030a5e68e32180ec9790600090a38015612b86576000805461ff0019169055505050505050505050565b600082613517575060006115dd565b818310156135325761352d82612fe1868661353c565b613534565b835b949350505050565b60006115dd82846143de565b60006115dd82846142d0565b60006135a9826040518060400160405280602081526020017f5361666545524332303a206c6f772d6c6576656c2063616c6c206661696c6564815250856001600160a01b03166137209092919063ffffffff16565b80519091501561172f57808060200190518101906135c79190613d50565b61172f5760405162461bcd60e51b815260206004820152602a60248201527f5361666545524332303a204552433230206f7065726174696f6e20646964206e6044820152691bdd081cdd58d8d9595960b21b6064820152608401610bc5565b600054610100900460ff168061363f575060005460ff16155b61365b5760405162461bcd60e51b8152600401610bc590614059565b600054610100900460ff1615801561367d576000805461ffff19166101011790555b61368561372f565b61368f8383613799565b801561172f576000805461ff0019169055505050565b600054610100900460ff16806136be575060005460ff16155b6136da5760405162461bcd60e51b8152600401610bc590614059565b600054610100900460ff161580156136fc576000805461ffff19166101011790555b61370461372f565b61370c61382e565b80156111f4576000805461ff001916905550565b6060613534848460008561388e565b600054610100900460ff1680613748575060005460ff16155b6137645760405162461bcd60e51b8152600401610bc590614059565b600054610100900460ff1615801561370c576000805461ffff191661010117905580156111f4576000805461ff001916905550565b600054610100900460ff16806137b2575060005460ff16155b6137ce5760405162461bcd60e51b8152600401610bc590614059565b600054610100900460ff161580156137f0576000805461ffff19166101011790555b8251613803906036906020860190613a0d565b508151613817906037906020850190613a0d565b50801561172f576000805461ff0019169055505050565b600054610100900460ff1680613847575060005460ff16155b6138635760405162461bcd60e51b8152600401610bc590614059565b600054610100900460ff16158015613885576000805461ffff19166101011790555b61370c336132b9565b6060824710156138ef5760405162461bcd60e51b815260206004820152602660248201527f416464726573733a20696e73756666696369656e742062616c616e636520666f6044820152651c8818d85b1b60d21b6064820152608401610bc5565b843b61393d5760405162461bcd60e51b815260206004820152601d60248201527f416464726573733a2063616c6c20746f206e6f6e2d636f6e74726163740000006044820152606401610bc5565b600080866001600160a01b031685876040516139599190613eea565b60006040518083038185875af1925050503d8060008114613996576040519150601f19603f3d011682016040523d82523d6000602084013e61399b565b606091505b50915091506139ab8282866139b6565b979650505050505050565b606083156139c55750816115dd565b8251156139d55782518084602001fd5b8160405162461bcd60e51b8152600401610bc59190613fd4565b50805460008255906000526020600020908101906111f49190613a91565b828054613a19906144a4565b90600052602060002090601f016020900481019282613a3b5760008555613a81565b82601f10613a5457805160ff1916838001178555613a81565b82800160010185558215613a81579182015b82811115613a81578251825591602001919060010190613a66565b50613a8d929150613a91565b5090565b5b80821115613a8d5760008155600101613a92565b600082601f830112613ab6578081fd5b81356020613acb613ac683614204565b6141d3565b80838252828201915082860187848660051b8901011115613aea578586fd5b855b85811015613b0857813584529284019290840190600101613aec565b5090979650505050505050565b600082601f830112613b25578081fd5b813567ffffffffffffffff811115613b3f57613b3f614510565b613b52601f8201601f19166020016141d3565b818152846020838601011115613b66578283fd5b816020850160208301379081016020019190915292915050565b803560ff81168114613b9157600080fd5b919050565b600060208284031215613ba7578081fd5b81356115dd81614526565b600060208284031215613bc3578081fd5b81516115dd81614526565b60008060408385031215613be0578081fd5b8235613beb81614526565b91506020830135613bfb81614526565b809150509250929050565b600080600060608486031215613c1a578081fd5b8335613c2581614526565b92506020840135613c3581614526565b929592945050506040919091013590565b60008060408385031215613c58578182fd5b8235613c6381614526565b946020939093013593505050565b60008060408385031215613c83578182fd5b823567ffffffffffffffff80821115613c9a578384fd5b818501915085601f830112613cad578384fd5b81356020613cbd613ac683614204565b8083825282820191508286018a848660051b8901011115613cdc578889fd5b8896505b84871015613d07578035613cf381614526565b835260019690960195918301918301613ce0565b5096505086013592505080821115613d1d578283fd5b50613d2a85828601613aa6565b9150509250929050565b600060208284031215613d45578081fd5b81356115dd8161453b565b600060208284031215613d61578081fd5b81516115dd8161453b565b600080600080600080600060e0888a031215613d86578283fd5b873567ffffffffffffffff80821115613d9d578485fd5b613da98b838c01613b15565b985060208a0135915080821115613dbe578485fd5b50613dcb8a828b01613b15565b9650506040880135613ddc81614526565b94506060880135613dec81614526565b9350613dfa60808901613b80565b9250613e0860a08901613b80565b915060c0880135613e1881614526565b8091505092959891949750929550565b600060608284031215613e39578081fd5b6040516060810181811067ffffffffffffffff82111715613e5c57613e5c614510565b60405282358152613e6f60208401613b80565b6020820152604083013561ffff81168114613e88578283fd5b60408201529392505050565b600060208284031215613ea5578081fd5b5035919050565b60008060408385031215613ebe578182fd5b823591506020830135613bfb81614526565b600060208284031215613ee1578081fd5b6115dd82613b80565b60008251613efc818460208701614478565b9190910192915050565b604080825283519082018190526000906020906060840190828701845b82811015613f485781516001600160a01b031684529284019290840190600101613f23565b50505083810382850152845180825285830191830190845b81811015613b0857835183529284019291840191600101613f60565b602080825282518282018190526000919060409081850190868401855b82811015613fc7578151805185528601516001600160a01b0316868501529284019290850190600101613f99565b5091979650505050505050565b6020815260008251806020840152613ff3816040850160208701614478565b601f01601f19169190910160400192915050565b6020808252601190820152704578636565647320617661696c61626c6560781b604082015260600190565b6020808252600d908201526c10995a5b99c81cd95d1d1b1959609a1b604082015260600190565b6020808252602e908201527f496e697469616c697a61626c653a20636f6e747261637420697320616c72656160408201526d191e481a5b9a5d1a585b1a5e995960921b606082015260800190565b6020808252600b908201526a08539bc813585d1d5c995960aa1b604082015260600190565b6020808252818101527f4f776e61626c653a2063616c6c6572206973206e6f7420746865206f776e6572604082015260600190565b60208082526007908201526608585b5bdd5b9d60ca1b604082015260600190565b60208082526010908201526f45786365656420617661696c61626c6560801b604082015260600190565b835481526001840154602082015260028401546040820152600384015461ffff8116606083015260ff601082901c16608083015261012082019061419a60a0840160ff8360181c1615159052565b6141ae60c0840160ff8360201c1615159052565b506001600160a01b03841660e08301526001600160a01b038316610100830152613534565b604051601f8201601f1916810167ffffffffffffffff811182821017156141fc576141fc614510565b604052919050565b600067ffffffffffffffff82111561421e5761421e614510565b5060051b60200190565b600081810b83820b82821282607f03821381151615614249576142496144fa565b82607f1903821281161561425f5761425f6144fa565b50019392505050565b60006001600160e81b0382811684821680830382111561428a5761428a6144fa565b01949350505050565b600082198211156142a6576142a66144fa565b500190565b600060ff821660ff84168060ff038211156142c8576142c86144fa565b019392505050565b6000826142eb57634e487b7160e01b81526012600452602481fd5b500490565b600181815b8085111561432b578160001904821115614311576143116144fa565b8085161561431e57918102915b93841c93908002906142f5565b509250929050565b60006115dd60ff84168360008261434c57506001610eac565b8161435957506000610eac565b816001811461436f576002811461437957614395565b6001915050610eac565b60ff84111561438a5761438a6144fa565b50506001821b610eac565b5060208310610133831016604e8410600b84101617156143b8575081810a610eac565b6143c283836142f0565b80600019048211156143d6576143d66144fa565b029392505050565b60008160001904831182151516156143f8576143f86144fa565b500290565b600081810b83820b8281128015607f1983018412161561441f5761441f6144fa565b81607f018313811615614434576144346144fa565b5090039392505050565b600082821015614450576144506144fa565b500390565b600060ff821660ff84168082101561446f5761446f6144fa565b90039392505050565b60005b8381101561449357818101518382015260200161447b565b83811115612e3a5750506000910152565b600181811c908216806144b857607f821691505b602082108114156144d957634e487b7160e01b600052602260045260246000fd5b50919050565b60006000198214156144f3576144f36144fa565b5060010190565b634e487b7160e01b600052601160045260246000fd5b634e487b7160e01b600052604160045260246000fd5b6001600160a01b03811681146111f457600080fd5b80151581146111f457600080fdfea264697066735822122092b462390dee2e52303d6b03bca34174e8057d72b701e45a218fc07af1c1aa3264736f6c63430008040033",
  "libraries": {
    "StructureData": "0x654c561919F584d9Bd1CD42fF9b53bd329E3a814"
  },
  "devdoc": {
    "kind": "dev",
    "methods": {
      "allowance(address,address)": {
        "details": "See {IERC20-allowance}."
      },
      "approve(address,uint256)": {
        "details": "See {IERC20-approve}. Requirements: - `spender` cannot be the zero address."
      },
      "balanceOf(address)": {
        "details": "See {IERC20-balanceOf}."
      },
      "decimals()": {
        "details": "Returns the number of decimals used to get its user representation. For example, if `decimals` equals `2`, a balance of `505` tokens should be displayed to a user as `5.05` (`505 / 10 ** 2`). Tokens usually opt for a value of 18, imitating the relationship between Ether and Wei. This is the value {ERC20} uses, unless this function is overridden; NOTE: This information is only used for _display_ purposes: it in no way affects any of the arithmetic of the contract, including {IERC20-balanceOf} and {IERC20-transfer}."
      },
      "decreaseAllowance(address,uint256)": {
        "details": "Atomically decreases the allowance granted to `spender` by the caller. This is an alternative to {approve} that can be used as a mitigation for problems described in {IERC20-approve}. Emits an {Approval} event indicating the updated allowance. Requirements: - `spender` cannot be the zero address. - `spender` must have allowance for the caller of at least `subtractedValue`."
      },
      "increaseAllowance(address,uint256)": {
        "details": "Atomically increases the allowance granted to `spender` by the caller. This is an alternative to {approve} that can be used as a mitigation for problems described in {IERC20-approve}. Emits an {Approval} event indicating the updated allowance. Requirements: - `spender` cannot be the zero address."
      },
      "name()": {
        "details": "Returns the name of the token."
      },
      "owner()": {
        "details": "Returns the address of the current owner."
      },
      "renounceOwnership()": {
        "details": "Leaves the contract without owner. It will not be possible to call `onlyOwner` functions anymore. Can only be called by the current owner. NOTE: Renouncing ownership will leave the contract without an owner, thereby removing any functionality that is only available to the owner."
      },
      "symbol()": {
        "details": "Returns the symbol of the token, usually a shorter version of the name."
      },
      "totalSupply()": {
        "details": "See {IERC20-totalSupply}."
      },
      "transfer(address,uint256)": {
        "details": "See {IERC20-transfer}. Requirements: - `recipient` cannot be the zero address. - the caller must have a balance of at least `amount`."
      },
      "transferFrom(address,address,uint256)": {
        "details": "See {IERC20-transferFrom}. Emits an {Approval} event indicating the updated allowance. This is not required by the EIP. See the note at the beginning of {ERC20}. Requirements: - `sender` and `recipient` cannot be the zero address. - `sender` must have a balance of at least `amount`. - the caller must have allowance for ``sender``'s tokens of at least `amount`."
      },
      "transferOwnership(address)": {
        "details": "Transfers ownership of the contract to a new account (`newOwner`). Can only be called by the current owner."
      }
    },
    "version": 1
  },
  "userdoc": {
    "kind": "user",
    "methods": {},
    "version": 1
  },
  "storageLayout": {
    "storage": [
      {
        "astId": 538,
        "contract": "contracts/Options/PKKTHodlBoosterCallOption.sol:PKKTHodlBoosterCallOption",
        "label": "_initialized",
        "offset": 0,
        "slot": "0",
        "type": "t_bool"
      },
      {
        "astId": 541,
        "contract": "contracts/Options/PKKTHodlBoosterCallOption.sol:PKKTHodlBoosterCallOption",
        "label": "_initializing",
        "offset": 1,
        "slot": "0",
        "type": "t_bool"
      },
      {
        "astId": 1297,
        "contract": "contracts/Options/PKKTHodlBoosterCallOption.sol:PKKTHodlBoosterCallOption",
        "label": "__gap",
        "offset": 0,
        "slot": "1",
        "type": "t_array(t_uint256)50_storage"
      },
      {
        "astId": 597,
        "contract": "contracts/Options/PKKTHodlBoosterCallOption.sol:PKKTHodlBoosterCallOption",
        "label": "_balances",
        "offset": 0,
        "slot": "51",
        "type": "t_mapping(t_address,t_uint256)"
      },
      {
        "astId": 603,
        "contract": "contracts/Options/PKKTHodlBoosterCallOption.sol:PKKTHodlBoosterCallOption",
        "label": "_allowances",
        "offset": 0,
        "slot": "52",
        "type": "t_mapping(t_address,t_mapping(t_address,t_uint256))"
      },
      {
        "astId": 605,
        "contract": "contracts/Options/PKKTHodlBoosterCallOption.sol:PKKTHodlBoosterCallOption",
        "label": "_totalSupply",
        "offset": 0,
        "slot": "53",
        "type": "t_uint256"
      },
      {
        "astId": 607,
        "contract": "contracts/Options/PKKTHodlBoosterCallOption.sol:PKKTHodlBoosterCallOption",
        "label": "_name",
        "offset": 0,
        "slot": "54",
        "type": "t_string_storage"
      },
      {
        "astId": 609,
        "contract": "contracts/Options/PKKTHodlBoosterCallOption.sol:PKKTHodlBoosterCallOption",
        "label": "_symbol",
        "offset": 0,
        "slot": "55",
        "type": "t_string_storage"
      },
      {
        "astId": 1150,
        "contract": "contracts/Options/PKKTHodlBoosterCallOption.sol:PKKTHodlBoosterCallOption",
        "label": "__gap",
        "offset": 0,
        "slot": "56",
        "type": "t_array(t_uint256)45_storage"
      },
      {
        "astId": 418,
        "contract": "contracts/Options/PKKTHodlBoosterCallOption.sol:PKKTHodlBoosterCallOption",
        "label": "_owner",
        "offset": 0,
        "slot": "101",
        "type": "t_address"
      },
      {
        "astId": 531,
        "contract": "contracts/Options/PKKTHodlBoosterCallOption.sol:PKKTHodlBoosterCallOption",
        "label": "__gap",
        "offset": 0,
        "slot": "102",
        "type": "t_array(t_uint256)49_storage"
      },
      {
        "astId": 4846,
        "contract": "contracts/Options/PKKTHodlBoosterCallOption.sol:PKKTHodlBoosterCallOption",
        "label": "depositAssetAmountDecimals",
        "offset": 0,
        "slot": "151",
        "type": "t_uint8"
      },
      {
        "astId": 4848,
        "contract": "contracts/Options/PKKTHodlBoosterCallOption.sol:PKKTHodlBoosterCallOption",
        "label": "counterPartyAssetAmountDecimals",
        "offset": 1,
        "slot": "151",
        "type": "t_uint8"
      },
      {
        "astId": 4850,
        "contract": "contracts/Options/PKKTHodlBoosterCallOption.sol:PKKTHodlBoosterCallOption",
        "label": "depositAsset",
        "offset": 2,
        "slot": "151",
        "type": "t_address"
      },
      {
        "astId": 4852,
        "contract": "contracts/Options/PKKTHodlBoosterCallOption.sol:PKKTHodlBoosterCallOption",
        "label": "counterPartyAsset",
        "offset": 0,
        "slot": "152",
        "type": "t_address"
      },
      {
        "astId": 4854,
        "contract": "contracts/Options/PKKTHodlBoosterCallOption.sol:PKKTHodlBoosterCallOption",
        "label": "isEth",
        "offset": 20,
        "slot": "152",
        "type": "t_bool"
      },
      {
        "astId": 4856,
        "contract": "contracts/Options/PKKTHodlBoosterCallOption.sol:PKKTHodlBoosterCallOption",
        "label": "quota",
        "offset": 0,
        "slot": "153",
        "type": "t_uint256"
      },
      {
        "astId": 4858,
        "contract": "contracts/Options/PKKTHodlBoosterCallOption.sol:PKKTHodlBoosterCallOption",
        "label": "currentRound",
        "offset": 0,
        "slot": "154",
        "type": "t_uint256"
      },
      {
        "astId": 4862,
        "contract": "contracts/Options/PKKTHodlBoosterCallOption.sol:PKKTHodlBoosterCallOption",
        "label": "optionHeights",
        "offset": 0,
        "slot": "155",
        "type": "t_mapping(t_uint256,t_uint256)"
      },
      {
        "astId": 4867,
        "contract": "contracts/Options/PKKTHodlBoosterCallOption.sol:PKKTHodlBoosterCallOption",
        "label": "optionStates",
        "offset": 0,
        "slot": "156",
        "type": "t_mapping(t_uint256,t_struct(OptionState)12056_storage)"
      },
      {
        "astId": 4870,
        "contract": "contracts/Options/PKKTHodlBoosterCallOption.sol:PKKTHodlBoosterCallOption",
        "label": "usersInvolved",
        "offset": 0,
        "slot": "157",
        "type": "t_array(t_address)dyn_storage"
      },
      {
        "astId": 4875,
        "contract": "contracts/Options/PKKTHodlBoosterCallOption.sol:PKKTHodlBoosterCallOption",
        "label": "userStates",
        "offset": 0,
        "slot": "158",
        "type": "t_mapping(t_address,t_struct(UserState)12083_storage)"
      },
      {
        "astId": 4877,
        "contract": "contracts/Options/PKKTHodlBoosterCallOption.sol:PKKTHodlBoosterCallOption",
        "label": "underSettlement",
        "offset": 0,
        "slot": "159",
        "type": "t_bool"
      },
      {
        "astId": 4879,
        "contract": "contracts/Options/PKKTHodlBoosterCallOption.sol:PKKTHodlBoosterCallOption",
        "label": "callOrPut",
        "offset": 1,
        "slot": "159",
        "type": "t_bool"
      },
      {
        "astId": 4882,
        "contract": "contracts/Options/PKKTHodlBoosterCallOption.sol:PKKTHodlBoosterCallOption",
        "label": "counterPartyOption",
        "offset": 2,
        "slot": "159",
        "type": "t_contract(IPKKTStructureOption)11976"
      },
      {
        "astId": 4884,
        "contract": "contracts/Options/PKKTHodlBoosterCallOption.sol:PKKTHodlBoosterCallOption",
        "label": "counterParty",
        "offset": 0,
        "slot": "160",
        "type": "t_address"
      },
      {
        "astId": 4887,
        "contract": "contracts/Options/PKKTHodlBoosterCallOption.sol:PKKTHodlBoosterCallOption",
        "label": "optionVault",
        "offset": 0,
        "slot": "161",
        "type": "t_contract(IOptionVault)11871"
      },
      {
        "astId": 4891,
        "contract": "contracts/Options/PKKTHodlBoosterCallOption.sol:PKKTHodlBoosterCallOption",
        "label": "maturedDepositAssetAmount",
        "offset": 0,
        "slot": "162",
        "type": "t_mapping(t_address,t_uint256)"
      },
      {
        "astId": 4895,
        "contract": "contracts/Options/PKKTHodlBoosterCallOption.sol:PKKTHodlBoosterCallOption",
        "label": "maturedCounterPartyAssetAmount",
        "offset": 0,
        "slot": "163",
        "type": "t_mapping(t_address,t_uint256)"
      },
      {
        "astId": 4899,
        "contract": "contracts/Options/PKKTHodlBoosterCallOption.sol:PKKTHodlBoosterCallOption",
        "label": "pendingMaturedDepositAssetAmount",
        "offset": 0,
        "slot": "164",
        "type": "t_mapping(t_address,t_uint256)"
      },
      {
        "astId": 4903,
        "contract": "contracts/Options/PKKTHodlBoosterCallOption.sol:PKKTHodlBoosterCallOption",
        "label": "pendingMaturedCounterPartyAssetAmount",
        "offset": 0,
        "slot": "165",
        "type": "t_mapping(t_address,t_uint256)"
      },
      {
        "astId": 6227,
        "contract": "contracts/Options/PKKTHodlBoosterCallOption.sol:PKKTHodlBoosterCallOption",
        "label": "autoRolledUsers",
        "offset": 0,
        "slot": "166",
        "type": "t_array(t_address)dyn_storage"
      },
      {
        "astId": 6230,
        "contract": "contracts/Options/PKKTHodlBoosterCallOption.sol:PKKTHodlBoosterCallOption",
        "label": "autoRolledAmounts",
        "offset": 0,
        "slot": "167",
        "type": "t_array(t_uint256)dyn_storage"
      }
    ],
    "types": {
      "t_address": {
        "encoding": "inplace",
        "label": "address",
        "numberOfBytes": "20"
      },
      "t_array(t_address)dyn_storage": {
        "base": "t_address",
        "encoding": "dynamic_array",
        "label": "address[]",
        "numberOfBytes": "32"
      },
      "t_array(t_uint256)1_storage": {
        "base": "t_uint256",
        "encoding": "inplace",
        "label": "uint256[1]",
        "numberOfBytes": "32"
      },
      "t_array(t_uint256)45_storage": {
        "base": "t_uint256",
        "encoding": "inplace",
        "label": "uint256[45]",
        "numberOfBytes": "1440"
      },
      "t_array(t_uint256)49_storage": {
        "base": "t_uint256",
        "encoding": "inplace",
        "label": "uint256[49]",
        "numberOfBytes": "1568"
      },
      "t_array(t_uint256)50_storage": {
        "base": "t_uint256",
        "encoding": "inplace",
        "label": "uint256[50]",
        "numberOfBytes": "1600"
      },
      "t_array(t_uint256)dyn_storage": {
        "base": "t_uint256",
        "encoding": "dynamic_array",
        "label": "uint256[]",
        "numberOfBytes": "32"
      },
      "t_bool": {
        "encoding": "inplace",
        "label": "bool",
        "numberOfBytes": "1"
      },
      "t_contract(IOptionVault)11871": {
        "encoding": "inplace",
        "label": "contract IOptionVault",
        "numberOfBytes": "20"
      },
      "t_contract(IPKKTStructureOption)11976": {
        "encoding": "inplace",
        "label": "contract IPKKTStructureOption",
        "numberOfBytes": "20"
      },
      "t_mapping(t_address,t_mapping(t_address,t_uint256))": {
        "encoding": "mapping",
        "key": "t_address",
        "label": "mapping(address => mapping(address => uint256))",
        "numberOfBytes": "32",
        "value": "t_mapping(t_address,t_uint256)"
      },
      "t_mapping(t_address,t_struct(UserState)12083_storage)": {
        "encoding": "mapping",
        "key": "t_address",
        "label": "mapping(address => struct StructureData.UserState)",
        "numberOfBytes": "32",
        "value": "t_struct(UserState)12083_storage"
      },
      "t_mapping(t_address,t_uint256)": {
        "encoding": "mapping",
        "key": "t_address",
        "label": "mapping(address => uint256)",
        "numberOfBytes": "32",
        "value": "t_uint256"
      },
      "t_mapping(t_uint256,t_struct(OptionState)12056_storage)": {
        "encoding": "mapping",
        "key": "t_uint256",
        "label": "mapping(uint256 => struct StructureData.OptionState)",
        "numberOfBytes": "32",
        "value": "t_struct(OptionState)12056_storage"
      },
      "t_mapping(t_uint256,t_uint256)": {
        "encoding": "mapping",
        "key": "t_uint256",
        "label": "mapping(uint256 => uint256)",
        "numberOfBytes": "32",
        "value": "t_uint256"
      },
      "t_string_storage": {
        "encoding": "bytes",
        "label": "string",
        "numberOfBytes": "32"
      },
      "t_struct(OptionState)12056_storage": {
        "encoding": "inplace",
        "label": "struct StructureData.OptionState",
        "members": [
          {
            "astId": 12043,
            "contract": "contracts/Options/PKKTHodlBoosterCallOption.sol:PKKTHodlBoosterCallOption",
            "label": "round",
            "offset": 0,
            "slot": "0",
            "type": "t_uint256"
          },
          {
            "astId": 12045,
            "contract": "contracts/Options/PKKTHodlBoosterCallOption.sol:PKKTHodlBoosterCallOption",
            "label": "totalAmount",
            "offset": 0,
            "slot": "1",
            "type": "t_uint256"
          },
          {
            "astId": 12047,
            "contract": "contracts/Options/PKKTHodlBoosterCallOption.sol:PKKTHodlBoosterCallOption",
            "label": "strikePrice",
            "offset": 0,
            "slot": "2",
            "type": "t_uint256"
          },
          {
            "astId": 12049,
            "contract": "contracts/Options/PKKTHodlBoosterCallOption.sol:PKKTHodlBoosterCallOption",
            "label": "premiumRate",
            "offset": 0,
            "slot": "3",
            "type": "t_uint16"
          },
          {
            "astId": 12051,
            "contract": "contracts/Options/PKKTHodlBoosterCallOption.sol:PKKTHodlBoosterCallOption",
            "label": "pricePrecision",
            "offset": 2,
            "slot": "3",
            "type": "t_uint8"
          },
          {
            "astId": 12053,
            "contract": "contracts/Options/PKKTHodlBoosterCallOption.sol:PKKTHodlBoosterCallOption",
            "label": "executed",
            "offset": 3,
            "slot": "3",
            "type": "t_bool"
          },
          {
            "astId": 12055,
            "contract": "contracts/Options/PKKTHodlBoosterCallOption.sol:PKKTHodlBoosterCallOption",
            "label": "callOrPut",
            "offset": 4,
            "slot": "3",
            "type": "t_bool"
          }
        ],
        "numberOfBytes": "128"
      },
      "t_struct(UserState)12083_storage": {
        "encoding": "inplace",
        "label": "struct StructureData.UserState",
        "members": [
          {
            "astId": 12070,
            "contract": "contracts/Options/PKKTHodlBoosterCallOption.sol:PKKTHodlBoosterCallOption",
            "label": "pendingAsset",
            "offset": 0,
            "slot": "0",
            "type": "t_uint256"
          },
          {
            "astId": 12074,
            "contract": "contracts/Options/PKKTHodlBoosterCallOption.sol:PKKTHodlBoosterCallOption",
            "label": "ongoingAsset",
            "offset": 0,
            "slot": "1",
            "type": "t_array(t_uint256)1_storage"
          },
          {
            "astId": 12076,
            "contract": "contracts/Options/PKKTHodlBoosterCallOption.sol:PKKTHodlBoosterCallOption",
            "label": "nextCursor",
            "offset": 0,
            "slot": "2",
            "type": "t_uint8"
          },
          {
            "astId": 12078,
            "contract": "contracts/Options/PKKTHodlBoosterCallOption.sol:PKKTHodlBoosterCallOption",
            "label": "totalRound",
            "offset": 1,
            "slot": "2",
            "type": "t_uint232"
          },
          {
            "astId": 12080,
            "contract": "contracts/Options/PKKTHodlBoosterCallOption.sol:PKKTHodlBoosterCallOption",
            "label": "hasState",
            "offset": 30,
            "slot": "2",
            "type": "t_bool"
          },
          {
            "astId": 12082,
            "contract": "contracts/Options/PKKTHodlBoosterCallOption.sol:PKKTHodlBoosterCallOption",
            "label": "assetToTerminate",
            "offset": 0,
            "slot": "3",
            "type": "t_uint256"
          }
        ],
        "numberOfBytes": "128"
      },
      "t_uint16": {
        "encoding": "inplace",
        "label": "uint16",
        "numberOfBytes": "2"
      },
      "t_uint232": {
        "encoding": "inplace",
        "label": "uint232",
        "numberOfBytes": "29"
      },
      "t_uint256": {
        "encoding": "inplace",
        "label": "uint256",
        "numberOfBytes": "32"
      },
      "t_uint8": {
        "encoding": "inplace",
        "label": "uint8",
        "numberOfBytes": "1"
      }
    }
  }
}