{
  "address": "0x2B0d36FACD61B71CC05ab8F3D2355ec3631C0dd5",
  "abi": [
    {
      "inputs": [],
      "name": "MATUREROUND",
      "outputs": [
        {
          "internalType": "uint8",
          "name": "",
          "type": "uint8"
        }
      ],
      "stateMutability": "view",
      "type": "function"
    }
  ],
  "transactionHash": "0xc15bb82778ed84542533ffb1a1d5ddf0d6ad6c63a7dafab5cd9f6b9821b208b9",
  "args": [],
  "solcInputHash": "4d2c6237ebe94dca0108617d0ed0ec32",
  "bytecode": "0x608b610038600b82828239805160001a607314602b57634e487b7160e01b600052600060045260246000fd5b30600052607381538281f3fe730000000000000000000000000000000000000000301460806040526004361060335760003560e01c8063f747e177146038575b600080fd5b603f600181565b60405160ff909116815260200160405180910390f3fea2646970667358221220f863247e1f95c537cc3e364126062d3eec4434d1dce80fcfacf897b4963669c264736f6c63430008040033",
  "devdoc": {
    "kind": "dev",
    "methods": {},
    "version": 1
  },
  "userdoc": {
    "kind": "user",
    "methods": {},
    "version": 1
  },
  "storageLayout": {
    "storage": [],
    "types": null
  }
}