{
  "address": "0x2B0d36FACD61B71CC05ab8F3D2355ec3631C0dd5",
  "abi": [
    {
      "inputs": [],
      "name": "MATUREROUND",
      "outputs": [
        {
          "internalType": "uint8",
          "name": "",
          "type": "uint8"
        }
      ],
      "stateMutability": "view",
      "type": "function"
    }
  ],
  "transactionHash": "0x575181fe5ba2712be4c4b561a3fa7814ecb7343825a7ab008d7bf57292857842",
  "args": [],
  "solcInputHash": "05eb61b57dafebd451a9ce700d94b145",
  "bytecode": "0x608b610038600b82828239805160001a607314602b57634e487b7160e01b600052600060045260246000fd5b30600052607381538281f3fe730000000000000000000000000000000000000000301460806040526004361060335760003560e01c8063f747e177146038575b600080fd5b603f600181565b60405160ff909116815260200160405180910390f3fea264697066735822122061ca618ac2b9f55cd62788d7fe00d175321a4e93ed2580d4aff9fd646548356664736f6c63430008040033",
  "devdoc": {
    "kind": "dev",
    "methods": {},
    "version": 1
  },
  "userdoc": {
    "kind": "user",
    "methods": {},
    "version": 1
  },
  "storageLayout": {
    "storage": [],
    "types": null
  }
}