{
  "address": "0x2B0d36FACD61B71CC05ab8F3D2355ec3631C0dd5",
  "abi": [
    {
      "inputs": [],
      "name": "MATUREROUND",
      "outputs": [
        {
          "internalType": "uint8",
          "name": "",
          "type": "uint8"
        }
      ],
      "stateMutability": "view",
      "type": "function"
    }
  ],
  "transactionHash": "0xc8b41588819164e883c13bc90c7d282e3b0e18fa91f431440ae1708acac2c5c6",
  "args": [],
  "solcInputHash": "2c0b3141ab46ff26e37dcffb98655268",
  "bytecode": "0x608b610038600b82828239805160001a607314602b57634e487b7160e01b600052600060045260246000fd5b30600052607381538281f3fe730000000000000000000000000000000000000000301460806040526004361060335760003560e01c8063f747e177146038575b600080fd5b603f600181565b60405160ff909116815260200160405180910390f3fea2646970667358221220290d3b1576a1e62e1ad335eef8e30334262ac468837b131e4ec2046d45c23c4d64736f6c63430008040033",
  "devdoc": {
    "kind": "dev",
    "methods": {},
    "version": 1
  },
  "userdoc": {
    "kind": "user",
    "methods": {},
    "version": 1
  },
  "storageLayout": {
    "storage": [],
    "types": null
  }
}